{
  "_format": "hh-sol-artifact-1",
  "contractName": "VerifiableIdentity",
  "sourceName": "contracts/VerifiableIdentity.sol",
  "abi": [
    {
      "inputs": [
        {
          "internalType": "address",
          "name": "_proofOfIdentityContract",
          "type": "address"
        }
      ],
      "stateMutability": "nonpayable",
      "type": "constructor"
    },
    {
      "inputs": [
        {
          "internalType": "address",
          "name": "account",
          "type": "address"
        }
      ],
      "name": "getUserCompetencyRating",
      "outputs": [
        {
          "internalType": "uint8",
          "name": "",
          "type": "uint8"
        }
      ],
      "stateMutability": "view",
      "type": "function"
    },
    {
      "inputs": [
        {
          "internalType": "address",
          "name": "account",
          "type": "address"
        }
      ],
      "name": "getUserCountryCode",
      "outputs": [
        {
          "internalType": "string",
          "name": "userAccountCountryCode",
          "type": "string"
        }
      ],
      "stateMutability": "view",
      "type": "function"
    },
    {
      "inputs": [
        {
          "internalType": "address",
          "name": "account",
          "type": "address"
        }
      ],
      "name": "getUserExpiry",
      "outputs": [
        {
          "internalType": "uint256",
          "name": "",
          "type": "uint256"
        }
      ],
      "stateMutability": "view",
      "type": "function"
    },
    {
      "inputs": [
        {
          "internalType": "address",
          "name": "account",
          "type": "address"
        }
      ],
      "name": "getUserIdentityData",
      "outputs": [
        {
          "components": [
            {
              "internalType": "uint256",
              "name": "tokenId",
              "type": "uint256"
            },
            {
              "internalType": "string",
              "name": "countryCode",
              "type": "string"
            },
            {
              "internalType": "uint8",
              "name": "userType",
              "type": "uint8"
            },
            {
              "internalType": "uint8",
              "name": "level",
              "type": "uint8"
            },
            {
              "internalType": "uint256",
              "name": "expiry",
              "type": "uint256"
            },
            {
              "internalType": "uint8",
              "name": "competencyRating",
              "type": "uint8"
            }
          ],
          "internalType": "struct IRoleVerification.IdentityBlob",
          "name": "",
          "type": "tuple"
        }
      ],
      "stateMutability": "view",
      "type": "function"
    },
    {
      "inputs": [
        {
          "internalType": "address",
          "name": "account",
          "type": "address"
        }
      ],
      "name": "getUserLevel",
      "outputs": [
        {
          "internalType": "uint8",
          "name": "userAccountLevel",
          "type": "uint8"
        }
      ],
      "stateMutability": "view",
      "type": "function"
    },
    {
      "inputs": [
        {
          "internalType": "address",
          "name": "account",
          "type": "address"
        }
      ],
      "name": "getUserType",
      "outputs": [
        {
          "internalType": "uint8",
          "name": "userAccountType",
          "type": "uint8"
        }
      ],
      "stateMutability": "view",
      "type": "function"
    }
  ],
  "bytecode": "0x608060405234801561001057600080fd5b5060405162000ee338038062000ee3833981810160405281019061003491906100c6565b61004e67c1f3b9bd368f801360c01b6100ae60201b60201c565b610068677ff8124a084982ff60c01b6100ae60201b60201c565b806000806101000a81548173ffffffffffffffffffffffffffffffffffffffff021916908373ffffffffffffffffffffffffffffffffffffffff16021790555050610138565b50565b6000815190506100c081610121565b92915050565b6000602082840312156100d857600080fd5b60006100e6848285016100b1565b91505092915050565b60006100fa82610101565b9050919050565b600073ffffffffffffffffffffffffffffffffffffffff82169050919050565b61012a816100ef565b811461013557600080fd5b50565b610d9b80620001486000396000f3fe608060405234801561001057600080fd5b50600436106100725760003560e01c80638b3f863f116100505780638b3f863f14610107578063b7180c5314610137578063eee844871461016757610072565b806321923bde146100775780632deb044a146100a757806345dd98e7146100d7575b600080fd5b610091600480360381019061008c91906108d8565b610197565b60405161009e9190610b95565b60405180910390f35b6100c160048036038101906100bc91906108d8565b610285565b6040516100ce9190610b58565b60405180910390f35b6100f160048036038101906100ec91906108d8565b61037e565b6040516100fe9190610b95565b60405180910390f35b610121600480360381019061011c91906108d8565b61046c565b60405161012e9190610b95565b60405180910390f35b610151600480360381019061014c91906108d8565b61055a565b60405161015e9190610b36565b60405180910390f35b610181600480360381019061017c91906108d8565b61064d565b60405161018e9190610b7a565b60405180910390f35b60006101ad67c3e2f76f13dfeb5e60c01b61073b565b6101c167cad76b00596ccb6e60c01b61073b565b6101d567f222f3874e6d0d2e60c01b61073b565b60008054906101000a900473ffffffffffffffffffffffffffffffffffffffff1673ffffffffffffffffffffffffffffffffffffffff1663c207e9e0836040518263ffffffff1660e01b815260040161022e9190610b1b565b60206040518083038186803b15801561024657600080fd5b505afa15801561025a573d6000803e3d6000fd5b505050506040513d601f19601f8201168201806040525081019061027e91906109ac565b9050919050565b61028d61073e565b6102a167b16d6ce29942e4ba60c01b61073b565b6102b567d56ff833ce56e60460c01b61073b565b6102c96768b84227e30275ba60c01b61073b565b60008054906101000a900473ffffffffffffffffffffffffffffffffffffffff1673ffffffffffffffffffffffffffffffffffffffff16636ca5fde8836040518263ffffffff1660e01b81526004016103229190610b1b565b60006040518083038186803b15801561033a57600080fd5b505afa15801561034e573d6000803e3d6000fd5b505050506040513d6000823e3d601f19601f820116820180604052508101906103779190610942565b9050919050565b6000610394675eb29072c0a28e2e60c01b61073b565b6103a86713382476de56610a60c01b61073b565b6103bc67174ff342b7ecc6b860c01b61073b565b60008054906101000a900473ffffffffffffffffffffffffffffffffffffffff1673ffffffffffffffffffffffffffffffffffffffff166394e2dc10836040518263ffffffff1660e01b81526004016104159190610b1b565b60206040518083038186803b15801561042d57600080fd5b505afa158015610441573d6000803e3d6000fd5b505050506040513d601f19601f8201168201806040525081019061046591906109ac565b9050919050565b60006104826774385fec5ca8e27c60c01b61073b565b610496673f25326f1d75fddf60c01b61073b565b6104aa671f20069cdaeafcfa60c01b61073b565b60008054906101000a900473ffffffffffffffffffffffffffffffffffffffff1673ffffffffffffffffffffffffffffffffffffffff1663b467177f836040518263ffffffff1660e01b81526004016105039190610b1b565b60206040518083038186803b15801561051b57600080fd5b505afa15801561052f573d6000803e3d6000fd5b505050506040513d601f19601f8201168201806040525081019061055391906109ac565b9050919050565b606061057067cb7478c1224c140b60c01b61073b565b61058467b9afae209a0936d860c01b61073b565b6105986746f8117c81549d7c60c01b61073b565b60008054906101000a900473ffffffffffffffffffffffffffffffffffffffff1673ffffffffffffffffffffffffffffffffffffffff1663dfb24b89836040518263ffffffff1660e01b81526004016105f19190610b1b565b60006040518083038186803b15801561060957600080fd5b505afa15801561061d573d6000803e3d6000fd5b505050506040513d6000823e3d601f19601f820116820180604052508101906106469190610901565b9050919050565b60006106636756b0ae5555ba4cd760c01b61073b565b610677675aef7ba0678b69b660c01b61073b565b61068b67427075c565490c5b60c01b61073b565b60008054906101000a900473ffffffffffffffffffffffffffffffffffffffff1673ffffffffffffffffffffffffffffffffffffffff166309299ea3836040518263ffffffff1660e01b81526004016106e49190610b1b565b60206040518083038186803b1580156106fc57600080fd5b505afa158015610710573d6000803e3d6000fd5b505050506040513d601f19601f820116820180604052508101906107349190610983565b9050919050565b50565b6040518060c001604052806000815260200160608152602001600060ff168152602001600060ff16815260200160008152602001600060ff1681525090565b600061079061078b84610bd5565b610bb0565b9050828152602081018484840111156107a857600080fd5b6107b3848285610c7c565b509392505050565b6000813590506107ca81610d20565b92915050565b600082601f8301126107e157600080fd5b81516107f184826020860161077d565b91505092915050565b600060c0828403121561080c57600080fd5b61081660c0610bb0565b90506000610826848285016108ae565b600083015250602082015167ffffffffffffffff81111561084657600080fd5b610852848285016107d0565b6020830152506040610866848285016108c3565b604083015250606061087a848285016108c3565b606083015250608061088e848285016108ae565b60808301525060a06108a2848285016108c3565b60a08301525092915050565b6000815190506108bd81610d37565b92915050565b6000815190506108d281610d4e565b92915050565b6000602082840312156108ea57600080fd5b60006108f8848285016107bb565b91505092915050565b60006020828403121561091357600080fd5b600082015167ffffffffffffffff81111561092d57600080fd5b610939848285016107d0565b91505092915050565b60006020828403121561095457600080fd5b600082015167ffffffffffffffff81111561096e57600080fd5b61097a848285016107fa565b91505092915050565b60006020828403121561099557600080fd5b60006109a3848285016108ae565b91505092915050565b6000602082840312156109be57600080fd5b60006109cc848285016108c3565b91505092915050565b6109de81610c33565b82525050565b60006109ef82610c06565b6109f98185610c11565b9350610a09818560208601610c7c565b610a1281610d0f565b840191505092915050565b6000610a2882610c06565b610a328185610c22565b9350610a42818560208601610c7c565b610a4b81610d0f565b840191505092915050565b600060c083016000830151610a6e6000860182610adf565b5060208301518482036020860152610a8682826109e4565b9150506040830151610a9b6040860182610afd565b506060830151610aae6060860182610afd565b506080830151610ac16080860182610adf565b5060a0830151610ad460a0860182610afd565b508091505092915050565b610ae881610c65565b82525050565b610af781610c65565b82525050565b610b0681610c6f565b82525050565b610b1581610c6f565b82525050565b6000602082019050610b3060008301846109d5565b92915050565b60006020820190508181036000830152610b508184610a1d565b905092915050565b60006020820190508181036000830152610b728184610a56565b905092915050565b6000602082019050610b8f6000830184610aee565b92915050565b6000602082019050610baa6000830184610b0c565b92915050565b6000610bba610bcb565b9050610bc68282610caf565b919050565b6000604051905090565b600067ffffffffffffffff821115610bf057610bef610ce0565b5b610bf982610d0f565b9050602081019050919050565b600081519050919050565b600082825260208201905092915050565b600082825260208201905092915050565b6000610c3e82610c45565b9050919050565b600073ffffffffffffffffffffffffffffffffffffffff82169050919050565b6000819050919050565b600060ff82169050919050565b60005b83811015610c9a578082015181840152602081019050610c7f565b83811115610ca9576000848401525b50505050565b610cb882610d0f565b810181811067ffffffffffffffff82111715610cd757610cd6610ce0565b5b80604052505050565b7f4e487b7100000000000000000000000000000000000000000000000000000000600052604160045260246000fd5b6000601f19601f8301169050919050565b610d2981610c33565b8114610d3457600080fd5b50565b610d4081610c65565b8114610d4b57600080fd5b50565b610d5781610c6f565b8114610d6257600080fd5b5056fea2646970667358221220e7bf07bcaada157a64eb1b68c048edc9dba4055a1ceece99768644ed2098bdfc64736f6c63430008020033",
  "linkReferences": {},
  "deployedLinkReferences": {}
}