{
  "_format": "hh-sol-artifact-1",
  "contractName": "VerifiableIdentity",
  "sourceName": "contracts/VerifiableIdentity.sol",
  "abi": [
    {
      "inputs": [
        {
          "internalType": "address",
          "name": "proofContract",
          "type": "address"
        }
      ],
      "stateMutability": "nonpayable",
      "type": "constructor"
    },
    {
      "inputs": [
        {
          "internalType": "address",
          "name": "account",
          "type": "address"
        }
      ],
      "name": "getUserAccountCountryCode",
      "outputs": [
        {
          "internalType": "string",
          "name": "userAccountCountryCode",
          "type": "string"
        }
      ],
      "stateMutability": "view",
      "type": "function"
    },
    {
      "inputs": [
        {
          "internalType": "address",
          "name": "account",
          "type": "address"
        }
      ],
      "name": "getUserAccountCountryCodeVerifiableIdentity",
      "outputs": [
        {
          "internalType": "string",
          "name": "userAccountCountryCode",
          "type": "string"
        }
      ],
      "stateMutability": "view",
      "type": "function"
    },
    {
      "inputs": [
        {
          "internalType": "address",
          "name": "account",
          "type": "address"
        }
      ],
      "name": "getUserAccountExpiry",
      "outputs": [
        {
          "internalType": "uint256",
          "name": "userAccountExpiry",
          "type": "uint256"
        }
      ],
      "stateMutability": "view",
      "type": "function"
    },
    {
      "inputs": [
        {
          "internalType": "address",
          "name": "account",
          "type": "address"
        }
      ],
      "name": "getUserAccountIdentityBlob",
      "outputs": [
        {
          "components": [
            {
              "internalType": "uint256",
              "name": "tokenId",
              "type": "uint256"
            },
            {
              "internalType": "string",
              "name": "countryCode",
              "type": "string"
            },
            {
              "internalType": "uint8",
              "name": "userType",
              "type": "uint8"
            },
            {
              "internalType": "uint8",
              "name": "level",
              "type": "uint8"
            },
            {
              "internalType": "uint256",
              "name": "expiry",
              "type": "uint256"
            }
          ],
          "internalType": "struct RoleVerification.IdentityBlob",
          "name": "userIdentityBlob",
          "type": "tuple"
        }
      ],
      "stateMutability": "view",
      "type": "function"
    },
    {
      "inputs": [
        {
          "internalType": "address",
          "name": "account",
          "type": "address"
        }
      ],
      "name": "getUserAccountLevel",
      "outputs": [
        {
          "internalType": "uint8",
          "name": "userAccountLevel",
          "type": "uint8"
        }
      ],
      "stateMutability": "view",
      "type": "function"
    },
    {
      "inputs": [
        {
          "internalType": "address",
          "name": "account",
          "type": "address"
        }
      ],
      "name": "getUserAccountType",
      "outputs": [
        {
          "internalType": "uint8",
          "name": "userAccountType",
          "type": "uint8"
        }
      ],
      "stateMutability": "view",
      "type": "function"
    },
    {
      "inputs": [
        {
          "internalType": "address",
          "name": "account",
          "type": "address"
        }
      ],
      "name": "getUserExpiry",
      "outputs": [
        {
          "internalType": "uint256",
          "name": "",
          "type": "uint256"
        }
      ],
      "stateMutability": "view",
      "type": "function"
    },
    {
      "inputs": [
        {
          "internalType": "address",
          "name": "account",
          "type": "address"
        }
      ],
      "name": "getUserIdentityData",
      "outputs": [
        {
          "components": [
            {
              "internalType": "uint256",
              "name": "tokenId",
              "type": "uint256"
            },
            {
              "internalType": "string",
              "name": "countryCode",
              "type": "string"
            },
            {
              "internalType": "uint8",
              "name": "userType",
              "type": "uint8"
            },
            {
              "internalType": "uint8",
              "name": "level",
              "type": "uint8"
            },
            {
              "internalType": "uint256",
              "name": "expiry",
              "type": "uint256"
            }
          ],
          "internalType": "struct RoleVerification.IdentityBlob",
          "name": "userAccountIdentityBlob",
          "type": "tuple"
        }
      ],
      "stateMutability": "view",
      "type": "function"
    },
    {
      "inputs": [
        {
          "internalType": "address",
          "name": "account",
          "type": "address"
        }
      ],
      "name": "getUserLevel",
      "outputs": [
        {
          "internalType": "uint8",
          "name": "userAccountLevel",
          "type": "uint8"
        }
      ],
      "stateMutability": "view",
      "type": "function"
    },
    {
      "inputs": [
        {
          "internalType": "address",
          "name": "account",
          "type": "address"
        }
      ],
      "name": "getUserType",
      "outputs": [
        {
          "internalType": "uint8",
          "name": "userAccountType",
          "type": "uint8"
        }
      ],
      "stateMutability": "view",
      "type": "function"
    },
    {
      "inputs": [
        {
          "internalType": "address",
          "name": "",
          "type": "address"
        }
      ],
      "name": "identityBlob",
      "outputs": [
        {
          "internalType": "uint256",
          "name": "tokenId",
          "type": "uint256"
        },
        {
          "internalType": "string",
          "name": "countryCode",
          "type": "string"
        },
        {
          "internalType": "uint8",
          "name": "userType",
          "type": "uint8"
        },
        {
          "internalType": "uint8",
          "name": "level",
          "type": "uint8"
        },
        {
          "internalType": "uint256",
          "name": "expiry",
          "type": "uint256"
        }
      ],
      "stateMutability": "view",
      "type": "function"
    }
  ],
  "bytecode": "0x608060405234801561001057600080fd5b506040516200122d3803806200122d83398181016040528101906100349190610090565b80600160006101000a81548173ffffffffffffffffffffffffffffffffffffffff021916908373ffffffffffffffffffffffffffffffffffffffff16021790555050610102565b60008151905061008a816100eb565b92915050565b6000602082840312156100a257600080fd5b60006100b08482850161007b565b91505092915050565b60006100c4826100cb565b9050919050565b600073ffffffffffffffffffffffffffffffffffffffff82169050919050565b6100f4816100b9565b81146100ff57600080fd5b50565b61111b80620001126000396000f3fe608060405234801561001057600080fd5b50600436106100a95760003560e01c80636ca5fde8116100715780636ca5fde8146101a25780638b3f863f146101d2578063b467177f14610202578063c207e9e014610232578063dfb24b8914610262578063eee8448714610292576100a9565b806309299ea3146100ae57806321923bde146100de5780632deb044a1461010e5780634033370f1461013e578063688ea9fe1461016e575b600080fd5b6100c860048036038101906100c39190610bb0565b6102c2565b6040516100d59190610e3f565b60405180910390f35b6100f860048036038101906100f39190610bb0565b61030d565b6040516101059190610eb4565b60405180910390f35b61012860048036038101906101239190610bb0565b6103c1565b6040516101359190610e1d565b60405180910390f35b61015860048036038101906101539190610bb0565b610480565b6040516101659190610dfb565b60405180910390f35b61018860048036038101906101839190610bb0565b610539565b604051610199959493929190610e5a565b60405180910390f35b6101bc60048036038101906101b79190610bb0565b610611565b6040516101c99190610e1d565b60405180910390f35b6101ec60048036038101906101e79190610bb0565b610749565b6040516101f99190610eb4565b60405180910390f35b61021c60048036038101906102179190610bb0565b6107fd565b6040516102299190610eb4565b60405180910390f35b61024c60048036038101906102479190610bb0565b610855565b6040516102599190610eb4565b60405180910390f35b61027c60048036038101906102779190610bb0565b6108ad565b6040516102899190610dfb565b60405180910390f35b6102ac60048036038101906102a79190610bb0565b610980565b6040516102b99190610e3f565b60405180910390f35b60008060008373ffffffffffffffffffffffffffffffffffffffff1673ffffffffffffffffffffffffffffffffffffffff168152602001908152602001600020600301549050919050565b6000600160009054906101000a900473ffffffffffffffffffffffffffffffffffffffff1673ffffffffffffffffffffffffffffffffffffffff1663c207e9e0836040518263ffffffff1660e01b815260040161036a9190610de0565b60206040518083038186803b15801561038257600080fd5b505afa158015610396573d6000803e3d6000fd5b505050506040513d601f19601f820116820180604052508101906103ba9190610c84565b9050919050565b6103c9610a34565b600160009054906101000a900473ffffffffffffffffffffffffffffffffffffffff1673ffffffffffffffffffffffffffffffffffffffff16636ca5fde8836040518263ffffffff1660e01b81526004016104249190610de0565b60006040518083038186803b15801561043c57600080fd5b505afa158015610450573d6000803e3d6000fd5b505050506040513d6000823e3d601f19601f820116820180604052508101906104799190610c1a565b9050919050565b6060600160009054906101000a900473ffffffffffffffffffffffffffffffffffffffff1673ffffffffffffffffffffffffffffffffffffffff1663dfb24b89836040518263ffffffff1660e01b81526004016104dd9190610de0565b60006040518083038186803b1580156104f557600080fd5b505afa158015610509573d6000803e3d6000fd5b505050506040513d6000823e3d601f19601f820116820180604052508101906105329190610bd9565b9050919050565b600060205280600052604060002060009150905080600001549080600101805461056290610fce565b80601f016020809104026020016040519081016040528092919081815260200182805461058e90610fce565b80156105db5780601f106105b0576101008083540402835291602001916105db565b820191906000526020600020905b8154815290600101906020018083116105be57829003601f168201915b5050505050908060020160009054906101000a900460ff16908060020160019054906101000a900460ff16908060030154905085565b610619610a34565b6000808373ffffffffffffffffffffffffffffffffffffffff1673ffffffffffffffffffffffffffffffffffffffff1681526020019081526020016000206040518060a00160405290816000820154815260200160018201805461067c90610fce565b80601f01602080910402602001604051908101604052809291908181526020018280546106a890610fce565b80156106f55780601f106106ca576101008083540402835291602001916106f5565b820191906000526020600020905b8154815290600101906020018083116106d857829003601f168201915b505050505081526020016002820160009054906101000a900460ff1660ff1660ff1681526020016002820160019054906101000a900460ff1660ff1660ff1681526020016003820154815250509050919050565b6000600160009054906101000a900473ffffffffffffffffffffffffffffffffffffffff1673ffffffffffffffffffffffffffffffffffffffff1663b467177f836040518263ffffffff1660e01b81526004016107a69190610de0565b60206040518083038186803b1580156107be57600080fd5b505afa1580156107d2573d6000803e3d6000fd5b505050506040513d601f19601f820116820180604052508101906107f69190610c84565b9050919050565b60008060008373ffffffffffffffffffffffffffffffffffffffff1673ffffffffffffffffffffffffffffffffffffffff16815260200190815260200160002060020160009054906101000a900460ff169050919050565b60008060008373ffffffffffffffffffffffffffffffffffffffff1673ffffffffffffffffffffffffffffffffffffffff16815260200190815260200160002060020160019054906101000a900460ff169050919050565b60606000808373ffffffffffffffffffffffffffffffffffffffff1673ffffffffffffffffffffffffffffffffffffffff16815260200190815260200160002060010180546108fb90610fce565b80601f016020809104026020016040519081016040528092919081815260200182805461092790610fce565b80156109745780601f1061094957610100808354040283529160200191610974565b820191906000526020600020905b81548152906001019060200180831161095757829003601f168201915b50505050509050919050565b6000600160009054906101000a900473ffffffffffffffffffffffffffffffffffffffff1673ffffffffffffffffffffffffffffffffffffffff166309299ea3836040518263ffffffff1660e01b81526004016109dd9190610de0565b60206040518083038186803b1580156109f557600080fd5b505afa158015610a09573d6000803e3d6000fd5b505050506040513d601f19601f82011682018060405250810190610a2d9190610c5b565b9050919050565b6040518060a001604052806000815260200160608152602001600060ff168152602001600060ff168152602001600081525090565b6000610a7c610a7784610ef4565b610ecf565b905082815260208101848484011115610a9457600080fd5b610a9f848285610f9b565b509392505050565b600081359050610ab6816110a0565b92915050565b600082601f830112610acd57600080fd5b8151610add848260208601610a69565b91505092915050565b600060a08284031215610af857600080fd5b610b0260a0610ecf565b90506000610b1284828501610b86565b600083015250602082015167ffffffffffffffff811115610b3257600080fd5b610b3e84828501610abc565b6020830152506040610b5284828501610b9b565b6040830152506060610b6684828501610b9b565b6060830152506080610b7a84828501610b86565b60808301525092915050565b600081519050610b95816110b7565b92915050565b600081519050610baa816110ce565b92915050565b600060208284031215610bc257600080fd5b6000610bd084828501610aa7565b91505092915050565b600060208284031215610beb57600080fd5b600082015167ffffffffffffffff811115610c0557600080fd5b610c1184828501610abc565b91505092915050565b600060208284031215610c2c57600080fd5b600082015167ffffffffffffffff811115610c4657600080fd5b610c5284828501610ae6565b91505092915050565b600060208284031215610c6d57600080fd5b6000610c7b84828501610b86565b91505092915050565b600060208284031215610c9657600080fd5b6000610ca484828501610b9b565b91505092915050565b610cb681610f52565b82525050565b6000610cc782610f25565b610cd18185610f30565b9350610ce1818560208601610f9b565b610cea8161108f565b840191505092915050565b6000610d0082610f25565b610d0a8185610f41565b9350610d1a818560208601610f9b565b610d238161108f565b840191505092915050565b600060a083016000830151610d466000860182610da4565b5060208301518482036020860152610d5e8282610cbc565b9150506040830151610d736040860182610dc2565b506060830151610d866060860182610dc2565b506080830151610d996080860182610da4565b508091505092915050565b610dad81610f84565b82525050565b610dbc81610f84565b82525050565b610dcb81610f8e565b82525050565b610dda81610f8e565b82525050565b6000602082019050610df56000830184610cad565b92915050565b60006020820190508181036000830152610e158184610cf5565b905092915050565b60006020820190508181036000830152610e378184610d2e565b905092915050565b6000602082019050610e546000830184610db3565b92915050565b600060a082019050610e6f6000830188610db3565b8181036020830152610e818187610cf5565b9050610e906040830186610dd1565b610e9d6060830185610dd1565b610eaa6080830184610db3565b9695505050505050565b6000602082019050610ec96000830184610dd1565b92915050565b6000610ed9610eea565b9050610ee58282611000565b919050565b6000604051905090565b600067ffffffffffffffff821115610f0f57610f0e611060565b5b610f188261108f565b9050602081019050919050565b600081519050919050565b600082825260208201905092915050565b600082825260208201905092915050565b6000610f5d82610f64565b9050919050565b600073ffffffffffffffffffffffffffffffffffffffff82169050919050565b6000819050919050565b600060ff82169050919050565b60005b83811015610fb9578082015181840152602081019050610f9e565b83811115610fc8576000848401525b50505050565b60006002820490506001821680610fe657607f821691505b60208210811415610ffa57610ff9611031565b5b50919050565b6110098261108f565b810181811067ffffffffffffffff8211171561102857611027611060565b5b80604052505050565b7f4e487b7100000000000000000000000000000000000000000000000000000000600052602260045260246000fd5b7f4e487b7100000000000000000000000000000000000000000000000000000000600052604160045260246000fd5b6000601f19601f8301169050919050565b6110a981610f52565b81146110b457600080fd5b50565b6110c081610f84565b81146110cb57600080fd5b50565b6110d781610f8e565b81146110e257600080fd5b5056fea2646970667358221220b8ef0d028cb9f5dce44af6e1b7f901af7dac9a1d89a0e23f38c53d6aa7c4b5b864736f6c63430008020033",
  "linkReferences": {},
  "deployedLinkReferences": {}
}