{
  "_format": "hh-sol-artifact-1",
  "contractName": "VerifiableIdentity",
  "sourceName": "contracts/VerifiableIdentity.sol",
  "abi": [
    {
      "inputs": [
        {
          "internalType": "address",
          "name": "proofContract",
          "type": "address"
        }
      ],
      "stateMutability": "nonpayable",
      "type": "constructor"
    },
    {
      "inputs": [
        {
          "internalType": "bytes8",
          "name": "c__6f26603d",
          "type": "bytes8"
        }
      ],
      "name": "c_6f26603d",
      "outputs": [],
      "stateMutability": "pure",
      "type": "function"
    },
    {
      "inputs": [
        {
          "internalType": "bytes8",
          "name": "c__a86a9c89",
          "type": "bytes8"
        }
      ],
      "name": "c_a86a9c89",
      "outputs": [],
      "stateMutability": "pure",
      "type": "function"
    },
    {
      "inputs": [
        {
          "internalType": "bytes8",
          "name": "c__b8c9e965",
          "type": "bytes8"
        }
      ],
      "name": "c_b8c9e965",
      "outputs": [],
      "stateMutability": "pure",
      "type": "function"
    },
    {
      "inputs": [
        {
          "internalType": "bytes8",
          "name": "c__6f26603d",
          "type": "bytes8"
        }
      ],
      "name": "c_false6f26603d",
      "outputs": [
        {
          "internalType": "bool",
          "name": "",
          "type": "bool"
        }
      ],
      "stateMutability": "pure",
      "type": "function"
    },
    {
      "inputs": [
        {
          "internalType": "bytes8",
          "name": "c__a86a9c89",
          "type": "bytes8"
        }
      ],
      "name": "c_falsea86a9c89",
      "outputs": [
        {
          "internalType": "bool",
          "name": "",
          "type": "bool"
        }
      ],
      "stateMutability": "pure",
      "type": "function"
    },
    {
      "inputs": [
        {
          "internalType": "bytes8",
          "name": "c__b8c9e965",
          "type": "bytes8"
        }
      ],
      "name": "c_falseb8c9e965",
      "outputs": [
        {
          "internalType": "bool",
          "name": "",
          "type": "bool"
        }
      ],
      "stateMutability": "pure",
      "type": "function"
    },
    {
      "inputs": [
        {
          "internalType": "bytes8",
          "name": "c__6f26603d",
          "type": "bytes8"
        }
      ],
      "name": "c_true6f26603d",
      "outputs": [
        {
          "internalType": "bool",
          "name": "",
          "type": "bool"
        }
      ],
      "stateMutability": "pure",
      "type": "function"
    },
    {
      "inputs": [
        {
          "internalType": "bytes8",
          "name": "c__a86a9c89",
          "type": "bytes8"
        }
      ],
      "name": "c_truea86a9c89",
      "outputs": [
        {
          "internalType": "bool",
          "name": "",
          "type": "bool"
        }
      ],
      "stateMutability": "pure",
      "type": "function"
    },
    {
      "inputs": [
        {
          "internalType": "bytes8",
          "name": "c__b8c9e965",
          "type": "bytes8"
        }
      ],
      "name": "c_trueb8c9e965",
      "outputs": [
        {
          "internalType": "bool",
          "name": "",
          "type": "bool"
        }
      ],
      "stateMutability": "pure",
      "type": "function"
    },
    {
      "inputs": [
        {
          "internalType": "address",
          "name": "account",
          "type": "address"
        }
      ],
      "name": "getUserAccountCountryCode",
      "outputs": [
        {
          "internalType": "string",
          "name": "userAccountCountryCode",
          "type": "string"
        }
      ],
      "stateMutability": "view",
      "type": "function"
    },
    {
      "inputs": [
        {
          "internalType": "address",
          "name": "account",
          "type": "address"
        }
      ],
      "name": "getUserAccountExpiry",
      "outputs": [
        {
          "internalType": "uint256",
          "name": "userAccountExpiry",
          "type": "uint256"
        }
      ],
      "stateMutability": "view",
      "type": "function"
    },
    {
      "inputs": [
        {
          "internalType": "address",
          "name": "account",
          "type": "address"
        }
      ],
      "name": "getUserAccountIdentityBlob",
      "outputs": [
        {
          "components": [
            {
              "internalType": "uint256",
              "name": "tokenId",
              "type": "uint256"
            },
            {
              "internalType": "string",
              "name": "countryCode",
              "type": "string"
            },
            {
              "internalType": "uint8",
              "name": "userType",
              "type": "uint8"
            },
            {
              "internalType": "uint8",
              "name": "level",
              "type": "uint8"
            },
            {
              "internalType": "uint256",
              "name": "expiry",
              "type": "uint256"
            }
          ],
          "internalType": "struct RoleVerification.IdentityBlob",
          "name": "userIdentityBlob",
          "type": "tuple"
        }
      ],
      "stateMutability": "view",
      "type": "function"
    },
    {
      "inputs": [
        {
          "internalType": "address",
          "name": "account",
          "type": "address"
        }
      ],
      "name": "getUserAccountLevel",
      "outputs": [
        {
          "internalType": "uint8",
          "name": "userAccountLevel",
          "type": "uint8"
        }
      ],
      "stateMutability": "view",
      "type": "function"
    },
    {
      "inputs": [
        {
          "internalType": "address",
          "name": "account",
          "type": "address"
        }
      ],
      "name": "getUserAccountType",
      "outputs": [
        {
          "internalType": "uint8",
          "name": "userAccountType",
          "type": "uint8"
        }
      ],
      "stateMutability": "view",
      "type": "function"
    },
    {
      "inputs": [
        {
          "internalType": "address",
          "name": "account",
          "type": "address"
        }
      ],
      "name": "getUserCountryCode",
      "outputs": [
        {
          "internalType": "string",
          "name": "userAccountCountryCode",
          "type": "string"
        }
      ],
      "stateMutability": "view",
      "type": "function"
    },
    {
      "inputs": [
        {
          "internalType": "address",
          "name": "account",
          "type": "address"
        }
      ],
      "name": "getUserExpiry",
      "outputs": [
        {
          "internalType": "uint256",
          "name": "",
          "type": "uint256"
        }
      ],
      "stateMutability": "view",
      "type": "function"
    },
    {
      "inputs": [
        {
          "internalType": "address",
          "name": "account",
          "type": "address"
        }
      ],
      "name": "getUserIdentityData",
      "outputs": [
        {
          "components": [
            {
              "internalType": "uint256",
              "name": "tokenId",
              "type": "uint256"
            },
            {
              "internalType": "string",
              "name": "countryCode",
              "type": "string"
            },
            {
              "internalType": "uint8",
              "name": "userType",
              "type": "uint8"
            },
            {
              "internalType": "uint8",
              "name": "level",
              "type": "uint8"
            },
            {
              "internalType": "uint256",
              "name": "expiry",
              "type": "uint256"
            }
          ],
          "internalType": "struct RoleVerification.IdentityBlob",
          "name": "userAccountIdentityBlob",
          "type": "tuple"
        }
      ],
      "stateMutability": "view",
      "type": "function"
    },
    {
      "inputs": [
        {
          "internalType": "address",
          "name": "account",
          "type": "address"
        }
      ],
      "name": "getUserLevel",
      "outputs": [
        {
          "internalType": "uint8",
          "name": "userAccountLevel",
          "type": "uint8"
        }
      ],
      "stateMutability": "view",
      "type": "function"
    },
    {
      "inputs": [
        {
          "internalType": "address",
          "name": "account",
          "type": "address"
        }
      ],
      "name": "getUserType",
      "outputs": [
        {
          "internalType": "uint8",
          "name": "userAccountType",
          "type": "uint8"
        }
      ],
      "stateMutability": "view",
      "type": "function"
    },
    {
      "inputs": [
        {
          "internalType": "address",
          "name": "",
          "type": "address"
        }
      ],
      "name": "identityBlob",
      "outputs": [
        {
          "internalType": "uint256",
          "name": "tokenId",
          "type": "uint256"
        },
        {
          "internalType": "string",
          "name": "countryCode",
          "type": "string"
        },
        {
          "internalType": "uint8",
          "name": "userType",
          "type": "uint8"
        },
        {
          "internalType": "uint8",
          "name": "level",
          "type": "uint8"
        },
        {
          "internalType": "uint256",
          "name": "expiry",
          "type": "uint256"
        }
      ],
      "stateMutability": "view",
      "type": "function"
    }
  ],
  "bytecode": "0x60806040523480156200001157600080fd5b50604051620017bb380380620017bb8339818101604052810190620000379190620000d1565b6200005367b16d6ce29942e4ba60c01b620000b760201b60201c565b6200006f67d56ff833ce56e60460c01b620000b760201b60201c565b80600160006101000a81548173ffffffffffffffffffffffffffffffffffffffff021916908373ffffffffffffffffffffffffffffffffffffffff160217905550506200014b565b50565b600081519050620000cb8162000131565b92915050565b600060208284031215620000e457600080fd5b6000620000f484828501620000ba565b91505092915050565b60006200010a8262000111565b9050919050565b600073ffffffffffffffffffffffffffffffffffffffff82169050919050565b6200013c81620000fd565b81146200014857600080fd5b50565b611660806200015b6000396000f3fe608060405234801561001057600080fd5b506004361061012c5760003560e01c8063b467177f116100ad578063e153ab3a11610071578063e153ab3a146103dd578063e2d079591461040d578063ec4d57b31461043d578063ec89573114610459578063eee84487146104895761012c565b8063b467177f146102ed578063b7180c531461031d578063c207e9e01461034d578063dee4c7091461037d578063dfb24b89146103ad5761012c565b8063688ea9fe116100f4578063688ea9fe146102215780636c193733146102555780636ca5fde8146102715780638b3f863f146102a15780639d1a6ceb146102d15761012c565b806309299ea31461013157806315c594c01461016157806321923bde1461019157806326aeeeff146101c15780632deb044a146101f1575b600080fd5b61014b60048036038101906101469190611053565b6104b9565b6040516101589190611335565b60405180910390f35b61017b6004803603810190610176919061107c565b610540565b60405161018891906112d6565b60405180910390f35b6101ab60048036038101906101a69190611053565b61054b565b6040516101b891906113aa565b60405180910390f35b6101db60048036038101906101d6919061107c565b61063b565b6040516101e891906112d6565b60405180910390f35b61020b60048036038101906102069190611053565b610646565b6040516102189190611313565b60405180910390f35b61023b60048036038101906102369190611053565b610741565b60405161024c959493929190611350565b60405180910390f35b61026f600480360381019061026a919061107c565b610819565b005b61028b60048036038101906102869190611053565b61081c565b6040516102989190611313565b60405180910390f35b6102bb60048036038101906102b69190611053565b610990565b6040516102c891906113aa565b60405180910390f35b6102eb60048036038101906102e6919061107c565b610a80565b005b61030760048036038101906103029190611053565b610a83565b60405161031491906113aa565b60405180910390f35b61033760048036038101906103329190611053565b610b17565b60405161034491906112f1565b60405180910390f35b61036760048036038101906103629190611053565b610c0c565b60405161037491906113aa565b60405180910390f35b6103976004803603810190610392919061107c565b610ca0565b6040516103a491906112d6565b60405180910390f35b6103c760048036038101906103c29190611053565b610cab565b6040516103d491906112f1565b60405180910390f35b6103f760048036038101906103f2919061107c565b610dba565b60405161040491906112d6565b60405180910390f35b6104276004803603810190610422919061107c565b610dc1565b60405161043491906112d6565b60405180910390f35b6104576004803603810190610452919061107c565b610dc8565b005b610473600480360381019061046e919061107c565b610dcb565b60405161048091906112d6565b60405180910390f35b6104a3600480360381019061049e9190611053565b610dd2565b6040516104b09190611335565b60405180910390f35b60006104cf67c1c9ef872120ad4c60c01b610dc8565b6104e36722a4df8a42ceaa6160c01b610dc8565b6104f76794447c4bb948903360c01b610dc8565b6000808373ffffffffffffffffffffffffffffffffffffffff1673ffffffffffffffffffffffffffffffffffffffff168152602001908152602001600020600301549050919050565b600060019050919050565b60006105616760d432632b54e7e060c01b610a80565b61057567094462a98232646460c01b610a80565b610589670ed53a805b59311c60c01b610a80565b600160009054906101000a900473ffffffffffffffffffffffffffffffffffffffff1673ffffffffffffffffffffffffffffffffffffffff1663c207e9e0836040518263ffffffff1660e01b81526004016105e491906112bb565b60206040518083038186803b1580156105fc57600080fd5b505afa158015610610573d6000803e3d6000fd5b505050506040513d601f19601f820116820180604052508101906106349190611150565b9050919050565b600060019050919050565b61064e610ec2565b610662671f20069cdaeafcfa60c01b610a80565b61067667de92c71d8df9dfeb60c01b610a80565b61068a679bbe09d21cf49a1360c01b610a80565b600160009054906101000a900473ffffffffffffffffffffffffffffffffffffffff1673ffffffffffffffffffffffffffffffffffffffff16636ca5fde8836040518263ffffffff1660e01b81526004016106e591906112bb565b60006040518083038186803b1580156106fd57600080fd5b505afa158015610711573d6000803e3d6000fd5b505050506040513d6000823e3d601f19601f8201168201806040525081019061073a91906110e6565b9050919050565b600060205280600052604060002060009150905080600001549080600101805461076a906114fc565b80601f0160208091040260200160405190810160405280929190818152602001828054610796906114fc565b80156107e35780601f106107b8576101008083540402835291602001916107e3565b820191906000526020600020905b8154815290600101906020018083116107c657829003601f168201915b5050505050908060020160009054906101000a900460ff16908060020160019054906101000a900460ff16908060030154905085565b50565b610824610ec2565b61083867a05f59d4624295fd60c01b610dc8565b61084c6769c1a1d6327d607160c01b610dc8565b61086067bdaf4779ff83744f60c01b610dc8565b6000808373ffffffffffffffffffffffffffffffffffffffff1673ffffffffffffffffffffffffffffffffffffffff1681526020019081526020016000206040518060a0016040529081600082015481526020016001820180546108c3906114fc565b80601f01602080910402602001604051908101604052809291908181526020018280546108ef906114fc565b801561093c5780601f106109115761010080835404028352916020019161093c565b820191906000526020600020905b81548152906001019060200180831161091f57829003601f168201915b505050505081526020016002820160009054906101000a900460ff1660ff1660ff1681526020016002820160019054906101000a900460ff1660ff1660ff1681526020016003820154815250509050919050565b60006109a6671f0cdf85f971b64560c01b610a80565b6109ba67cbfc57c0710762bc60c01b610a80565b6109ce673790b5bfa84d84ed60c01b610a80565b600160009054906101000a900473ffffffffffffffffffffffffffffffffffffffff1673ffffffffffffffffffffffffffffffffffffffff1663b467177f836040518263ffffffff1660e01b8152600401610a2991906112bb565b60206040518083038186803b158015610a4157600080fd5b505afa158015610a55573d6000803e3d6000fd5b505050506040513d601f19601f82011682018060405250810190610a799190611150565b9050919050565b50565b6000610a996732c39d4afc3889c160c01b610819565b610aad67dae6db8ba31c013c60c01b610819565b610ac167b501f3a83b16752260c01b610819565b6000808373ffffffffffffffffffffffffffffffffffffffff1673ffffffffffffffffffffffffffffffffffffffff16815260200190815260200160002060020160009054906101000a900460ff169050919050565b6060610b2d6768b84227e30275ba60c01b610a80565b610b4167c3e2f76f13dfeb5e60c01b610a80565b610b5567cad76b00596ccb6e60c01b610a80565b600160009054906101000a900473ffffffffffffffffffffffffffffffffffffffff1673ffffffffffffffffffffffffffffffffffffffff1663dfb24b89836040518263ffffffff1660e01b8152600401610bb091906112bb565b60006040518083038186803b158015610bc857600080fd5b505afa158015610bdc573d6000803e3d6000fd5b505050506040513d6000823e3d601f19601f82011682018060405250810190610c0591906110a5565b9050919050565b6000610c2267c0754c09f9d3a69e60c01b610819565b610c3667d1e3fdb2292aa24960c01b610819565b610c4a679561272df2bf34be60c01b610819565b6000808373ffffffffffffffffffffffffffffffffffffffff1673ffffffffffffffffffffffffffffffffffffffff16815260200190815260200160002060020160019054906101000a900460ff169050919050565b600060019050919050565b6060610cc167371008949763f33860c01b610819565b610cd567a5bd462cd2256c0b60c01b610819565b610ce967724c0f716158057260c01b610819565b6000808373ffffffffffffffffffffffffffffffffffffffff1673ffffffffffffffffffffffffffffffffffffffff1681526020019081526020016000206001018054610d35906114fc565b80601f0160208091040260200160405190810160405280929190818152602001828054610d61906114fc565b8015610dae5780601f10610d8357610100808354040283529160200191610dae565b820191906000526020600020905b815481529060010190602001808311610d9157829003601f168201915b50505050509050919050565b6000919050565b6000919050565b50565b6000919050565b6000610de867f222f3874e6d0d2e60c01b610a80565b610dfc6774385fec5ca8e27c60c01b610a80565b610e10673f25326f1d75fddf60c01b610a80565b600160009054906101000a900473ffffffffffffffffffffffffffffffffffffffff1673ffffffffffffffffffffffffffffffffffffffff166309299ea3836040518263ffffffff1660e01b8152600401610e6b91906112bb565b60206040518083038186803b158015610e8357600080fd5b505afa158015610e97573d6000803e3d6000fd5b505050506040513d601f19601f82011682018060405250810190610ebb9190611127565b9050919050565b6040518060a001604052806000815260200160608152602001600060ff168152602001600060ff168152602001600081525090565b6000610f0a610f05846113ea565b6113c5565b905082815260208101848484011115610f2257600080fd5b610f2d8482856114c9565b509392505050565b600081359050610f44816115ce565b92915050565b600081359050610f59816115e5565b92915050565b600082601f830112610f7057600080fd5b8151610f80848260208601610ef7565b91505092915050565b600060a08284031215610f9b57600080fd5b610fa560a06113c5565b90506000610fb584828501611029565b600083015250602082015167ffffffffffffffff811115610fd557600080fd5b610fe184828501610f5f565b6020830152506040610ff58482850161103e565b60408301525060606110098482850161103e565b606083015250608061101d84828501611029565b60808301525092915050565b600081519050611038816115fc565b92915050565b60008151905061104d81611613565b92915050565b60006020828403121561106557600080fd5b600061107384828501610f35565b91505092915050565b60006020828403121561108e57600080fd5b600061109c84828501610f4a565b91505092915050565b6000602082840312156110b757600080fd5b600082015167ffffffffffffffff8111156110d157600080fd5b6110dd84828501610f5f565b91505092915050565b6000602082840312156110f857600080fd5b600082015167ffffffffffffffff81111561111257600080fd5b61111e84828501610f89565b91505092915050565b60006020828403121561113957600080fd5b600061114784828501611029565b91505092915050565b60006020828403121561116257600080fd5b60006111708482850161103e565b91505092915050565b61118281611448565b82525050565b6111918161145a565b82525050565b60006111a28261141b565b6111ac8185611426565b93506111bc8185602086016114c9565b6111c5816115bd565b840191505092915050565b60006111db8261141b565b6111e58185611437565b93506111f58185602086016114c9565b6111fe816115bd565b840191505092915050565b600060a083016000830151611221600086018261127f565b50602083015184820360208601526112398282611197565b915050604083015161124e604086018261129d565b506060830151611261606086018261129d565b506080830151611274608086018261127f565b508091505092915050565b611288816114b2565b82525050565b611297816114b2565b82525050565b6112a6816114bc565b82525050565b6112b5816114bc565b82525050565b60006020820190506112d06000830184611179565b92915050565b60006020820190506112eb6000830184611188565b92915050565b6000602082019050818103600083015261130b81846111d0565b905092915050565b6000602082019050818103600083015261132d8184611209565b905092915050565b600060208201905061134a600083018461128e565b92915050565b600060a082019050611365600083018861128e565b818103602083015261137781876111d0565b905061138660408301866112ac565b61139360608301856112ac565b6113a0608083018461128e565b9695505050505050565b60006020820190506113bf60008301846112ac565b92915050565b60006113cf6113e0565b90506113db828261152e565b919050565b6000604051905090565b600067ffffffffffffffff8211156114055761140461158e565b5b61140e826115bd565b9050602081019050919050565b600081519050919050565b600082825260208201905092915050565b600082825260208201905092915050565b600061145382611492565b9050919050565b60008115159050919050565b60007fffffffffffffffff00000000000000000000000000000000000000000000000082169050919050565b600073ffffffffffffffffffffffffffffffffffffffff82169050919050565b6000819050919050565b600060ff82169050919050565b60005b838110156114e75780820151818401526020810190506114cc565b838111156114f6576000848401525b50505050565b6000600282049050600182168061151457607f821691505b602082108114156115285761152761155f565b5b50919050565b611537826115bd565b810181811067ffffffffffffffff821117156115565761155561158e565b5b80604052505050565b7f4e487b7100000000000000000000000000000000000000000000000000000000600052602260045260246000fd5b7f4e487b7100000000000000000000000000000000000000000000000000000000600052604160045260246000fd5b6000601f19601f8301169050919050565b6115d781611448565b81146115e257600080fd5b50565b6115ee81611466565b81146115f957600080fd5b50565b611605816114b2565b811461161057600080fd5b50565b61161c816114bc565b811461162757600080fd5b5056fea26469706673582212206d1d31d23977da1e7caf067e90bacb66418e94164fb8d15eca166f83988331c564736f6c63430008020033",
  "linkReferences": {},
  "deployedLinkReferences": {}
}