{
  "_format": "hh-sol-artifact-1",
  "contractName": "VerifiableIdentity",
  "sourceName": "contracts/VerifiableIdentity.sol",
  "abi": [
    {
      "inputs": [
        {
          "internalType": "address",
          "name": "_proofOfIdentityContract",
          "type": "address"
        }
      ],
      "stateMutability": "nonpayable",
      "type": "constructor"
    },
    {
      "inputs": [
        {
          "internalType": "address",
          "name": "account",
          "type": "address"
        }
      ],
      "name": "getUserCountryCode",
      "outputs": [
        {
          "internalType": "string",
          "name": "userAccountCountryCode",
          "type": "string"
        }
      ],
      "stateMutability": "view",
      "type": "function"
    },
    {
      "inputs": [
        {
          "internalType": "address",
          "name": "account",
          "type": "address"
        }
      ],
      "name": "getUserExpiry",
      "outputs": [
        {
          "internalType": "uint256",
          "name": "",
          "type": "uint256"
        }
      ],
      "stateMutability": "view",
      "type": "function"
    },
    {
      "inputs": [
        {
          "internalType": "address",
          "name": "account",
          "type": "address"
        }
      ],
      "name": "getUserIdentityData",
      "outputs": [
        {
          "components": [
            {
              "internalType": "uint256",
              "name": "tokenId",
              "type": "uint256"
            },
            {
              "internalType": "string",
              "name": "countryCode",
              "type": "string"
            },
            {
              "internalType": "uint8",
              "name": "userType",
              "type": "uint8"
            },
            {
              "internalType": "uint8",
              "name": "level",
              "type": "uint8"
            },
            {
              "internalType": "uint256",
              "name": "expiry",
              "type": "uint256"
            }
          ],
          "internalType": "struct IRoleVerification.IdentityBlob",
          "name": "",
          "type": "tuple"
        }
      ],
      "stateMutability": "view",
      "type": "function"
    },
    {
      "inputs": [
        {
          "internalType": "address",
          "name": "account",
          "type": "address"
        }
      ],
      "name": "getUserLevel",
      "outputs": [
        {
          "internalType": "uint8",
          "name": "userAccountLevel",
          "type": "uint8"
        }
      ],
      "stateMutability": "view",
      "type": "function"
    },
    {
      "inputs": [
        {
          "internalType": "address",
          "name": "account",
          "type": "address"
        }
      ],
      "name": "getUserType",
      "outputs": [
        {
          "internalType": "uint8",
          "name": "userAccountType",
          "type": "uint8"
        }
      ],
      "stateMutability": "view",
      "type": "function"
    }
  ],
  "bytecode": "0x608060405234801561001057600080fd5b5060405161079838038061079883398101604081905261002f91610054565b600080546001600160a01b0319166001600160a01b0392909216919091179055610082565b600060208284031215610065578081fd5b81516001600160a01b038116811461007b578182fd5b9392505050565b610707806100916000396000f3fe608060405234801561001057600080fd5b50600436106100675760003560e01c80638b3f863f116100505780638b3f863f146100b6578063b7180c53146100c9578063eee84487146100e957610067565b806321923bde1461006c5780632deb044a14610096575b600080fd5b61007f61007a366004610475565b61010a565b60405160ff90911681526020015b60405180910390f35b6100a96100a4366004610475565b6101aa565b60405161008d91906105eb565b61007f6100c4366004610475565b61027c565b6100dc6100d7366004610475565b6102c8565b60405161008d91906105d8565b6100fc6100f7366004610475565b610363565b60405190815260200161008d565b600080546040517fc207e9e00000000000000000000000000000000000000000000000000000000081526001600160a01b0384811660048301529091169063c207e9e0906024015b60206040518083038186803b15801561016a57600080fd5b505afa15801561017e573d6000803e3d6000fd5b505050506040513d601f19601f820116820180604052508101906101a29190610592565b90505b919050565b6101e26040518060a001604052806000815260200160608152602001600060ff168152602001600060ff168152602001600081525090565b6000546040517f6ca5fde80000000000000000000000000000000000000000000000000000000081526001600160a01b03848116600483015290911690636ca5fde89060240160006040518083038186803b15801561024057600080fd5b505afa158015610254573d6000803e3d6000fd5b505050506040513d6000823e601f3d908101601f191682016040526101a291908101906104d6565b600080546040517fb467177f0000000000000000000000000000000000000000000000000000000081526001600160a01b0384811660048301529091169063b467177f90602401610152565b6000546040517fdfb24b890000000000000000000000000000000000000000000000000000000081526001600160a01b038381166004830152606092169063dfb24b899060240160006040518083038186803b15801561032757600080fd5b505afa15801561033b573d6000803e3d6000fd5b505050506040513d6000823e601f3d908101601f191682016040526101a291908101906104a3565b600080546040517f09299ea30000000000000000000000000000000000000000000000000000000081526001600160a01b038481166004830152909116906309299ea39060240160206040518083038186803b1580156103c257600080fd5b505afa1580156103d6573d6000803e3d6000fd5b505050506040513d601f19601f820116820180604052508101906101a2919061057a565b600082601f83011261040a578081fd5b815167ffffffffffffffff811115610424576104246106a2565b610437601f8201601f1916602001610641565b81815284602083860101111561044b578283fd5b61045c826020830160208701610672565b949350505050565b805160ff811681146101a557600080fd5b600060208284031215610486578081fd5b81356001600160a01b038116811461049c578182fd5b9392505050565b6000602082840312156104b4578081fd5b815167ffffffffffffffff8111156104ca578182fd5b61045c848285016103fa565b6000602082840312156104e7578081fd5b815167ffffffffffffffff808211156104fe578283fd5b9083019060a08286031215610511578283fd5b61051b60a0610641565b82518152602083015182811115610530578485fd5b61053c878286016103fa565b60208301525061054e60408401610464565b604082015261055f60608401610464565b60608201526080830151608082015280935050505092915050565b60006020828403121561058b578081fd5b5051919050565b6000602082840312156105a3578081fd5b61049c82610464565b600081518084526105c4816020860160208601610672565b601f01601f19169290920160200192915050565b60006020825261049c60208301846105ac565b60006020825282516020830152602083015160a0604084015261061160c08401826105ac565b905060ff604085015116606084015260ff6060850151166080840152608084015160a08401528091505092915050565b604051601f8201601f1916810167ffffffffffffffff8111828210171561066a5761066a6106a2565b604052919050565b60005b8381101561068d578181015183820152602001610675565b8381111561069c576000848401525b50505050565b7f4e487b7100000000000000000000000000000000000000000000000000000000600052604160045260246000fdfea2646970667358221220608c7fc238557fb0abcee75d0afa86fcefcac0f7b61221a7713a3c4add0f5adb64736f6c63430008020033",
  "linkReferences": {},
  "deployedLinkReferences": {}
}