{
  "_format": "hh-sol-artifact-1",
  "contractName": "VerifiableIdentity",
  "sourceName": "contracts/VerifiableIdentity.sol",
  "abi": [
    {
      "inputs": [
        {
          "internalType": "address",
          "name": "proofContract",
          "type": "address"
        }
      ],
      "stateMutability": "nonpayable",
      "type": "constructor"
    },
    {
      "inputs": [
        {
          "internalType": "address",
          "name": "account",
          "type": "address"
        }
      ],
      "name": "getUserAccountCountryCode",
      "outputs": [
        {
          "internalType": "string",
          "name": "userAccountCountryCode",
          "type": "string"
        }
      ],
      "stateMutability": "view",
      "type": "function"
    },
    {
      "inputs": [
        {
          "internalType": "address",
          "name": "account",
          "type": "address"
        }
      ],
      "name": "getUserAccountExpiry",
      "outputs": [
        {
          "internalType": "uint256",
          "name": "userAccountExpiry",
          "type": "uint256"
        }
      ],
      "stateMutability": "view",
      "type": "function"
    },
    {
      "inputs": [
        {
          "internalType": "address",
          "name": "account",
          "type": "address"
        }
      ],
      "name": "getUserAccountIdentityBlob",
      "outputs": [
        {
          "components": [
            {
              "internalType": "uint256",
              "name": "tokenId",
              "type": "uint256"
            },
            {
              "internalType": "string",
              "name": "countryCode",
              "type": "string"
            },
            {
              "internalType": "uint8",
              "name": "userType",
              "type": "uint8"
            },
            {
              "internalType": "uint8",
              "name": "level",
              "type": "uint8"
            },
            {
              "internalType": "uint256",
              "name": "expiry",
              "type": "uint256"
            }
          ],
          "internalType": "struct RoleVerification.IdentityBlob",
          "name": "userIdentityBlob",
          "type": "tuple"
        }
      ],
      "stateMutability": "view",
      "type": "function"
    },
    {
      "inputs": [
        {
          "internalType": "address",
          "name": "account",
          "type": "address"
        }
      ],
      "name": "getUserAccountLevel",
      "outputs": [
        {
          "internalType": "uint8",
          "name": "userAccountLevel",
          "type": "uint8"
        }
      ],
      "stateMutability": "view",
      "type": "function"
    },
    {
      "inputs": [
        {
          "internalType": "address",
          "name": "account",
          "type": "address"
        }
      ],
      "name": "getUserAccountType",
      "outputs": [
        {
          "internalType": "uint8",
          "name": "userAccountType",
          "type": "uint8"
        }
      ],
      "stateMutability": "view",
      "type": "function"
    },
    {
      "inputs": [
        {
          "internalType": "address",
          "name": "account",
          "type": "address"
        }
      ],
      "name": "getUserCountryCode",
      "outputs": [
        {
          "internalType": "string",
          "name": "userAccountCountryCode",
          "type": "string"
        }
      ],
      "stateMutability": "view",
      "type": "function"
    },
    {
      "inputs": [
        {
          "internalType": "address",
          "name": "account",
          "type": "address"
        }
      ],
      "name": "getUserExpiry",
      "outputs": [
        {
          "internalType": "uint256",
          "name": "",
          "type": "uint256"
        }
      ],
      "stateMutability": "view",
      "type": "function"
    },
    {
      "inputs": [
        {
          "internalType": "address",
          "name": "account",
          "type": "address"
        }
      ],
      "name": "getUserIdentityData",
      "outputs": [
        {
          "components": [
            {
              "internalType": "uint256",
              "name": "tokenId",
              "type": "uint256"
            },
            {
              "internalType": "string",
              "name": "countryCode",
              "type": "string"
            },
            {
              "internalType": "uint8",
              "name": "userType",
              "type": "uint8"
            },
            {
              "internalType": "uint8",
              "name": "level",
              "type": "uint8"
            },
            {
              "internalType": "uint256",
              "name": "expiry",
              "type": "uint256"
            }
          ],
          "internalType": "struct RoleVerification.IdentityBlob",
          "name": "userAccountIdentityBlob",
          "type": "tuple"
        }
      ],
      "stateMutability": "view",
      "type": "function"
    },
    {
      "inputs": [
        {
          "internalType": "address",
          "name": "account",
          "type": "address"
        }
      ],
      "name": "getUserLevel",
      "outputs": [
        {
          "internalType": "uint8",
          "name": "userAccountLevel",
          "type": "uint8"
        }
      ],
      "stateMutability": "view",
      "type": "function"
    },
    {
      "inputs": [
        {
          "internalType": "address",
          "name": "account",
          "type": "address"
        }
      ],
      "name": "getUserType",
      "outputs": [
        {
          "internalType": "uint8",
          "name": "userAccountType",
          "type": "uint8"
        }
      ],
      "stateMutability": "view",
      "type": "function"
    },
    {
      "inputs": [
        {
          "internalType": "address",
          "name": "",
          "type": "address"
        }
      ],
      "name": "identityBlob",
      "outputs": [
        {
          "internalType": "uint256",
          "name": "tokenId",
          "type": "uint256"
        },
        {
          "internalType": "string",
          "name": "countryCode",
          "type": "string"
        },
        {
          "internalType": "uint8",
          "name": "userType",
          "type": "uint8"
        },
        {
          "internalType": "uint8",
          "name": "level",
          "type": "uint8"
        },
        {
          "internalType": "uint256",
          "name": "expiry",
          "type": "uint256"
        }
      ],
      "stateMutability": "view",
      "type": "function"
    }
  ],
  "bytecode": "0x60806040523480156200001157600080fd5b50604051620014f7380380620014f78339818101604052810190620000379190620000d1565b6200005367c3e2f76f13dfeb5e60c01b620000b760201b60201c565b6200006f67cad76b00596ccb6e60c01b620000b760201b60201c565b80600160006101000a81548173ffffffffffffffffffffffffffffffffffffffff021916908373ffffffffffffffffffffffffffffffffffffffff160217905550506200014b565b50565b600081519050620000cb8162000131565b92915050565b600060208284031215620000e457600080fd5b6000620000f484828501620000ba565b91505092915050565b60006200010a8262000111565b9050919050565b600073ffffffffffffffffffffffffffffffffffffffff82169050919050565b6200013c81620000fd565b81146200014857600080fd5b50565b61139c806200015b6000396000f3fe608060405234801561001057600080fd5b50600436106100c95760003560e01c80638b3f863f11610081578063c207e9e01161005b578063c207e9e014610252578063dfb24b8914610282578063eee84487146102b2576100c9565b80638b3f863f146101c2578063b467177f146101f2578063b7180c5314610222576100c9565b80632deb044a116100b25780632deb044a1461012e578063688ea9fe1461015e5780636ca5fde814610192576100c9565b806309299ea3146100ce57806321923bde146100fe575b600080fd5b6100e860048036038101906100e39190610e31565b6102e2565b6040516100f591906110c0565b60405180910390f35b61011860048036038101906101139190610e31565b610369565b6040516101259190611135565b60405180910390f35b61014860048036038101906101439190610e31565b610459565b604051610155919061109e565b60405180910390f35b61017860048036038101906101739190610e31565b610554565b6040516101899594939291906110db565b60405180910390f35b6101ac60048036038101906101a79190610e31565b61062c565b6040516101b9919061109e565b60405180910390f35b6101dc60048036038101906101d79190610e31565b6107a0565b6040516101e99190611135565b60405180910390f35b61020c60048036038101906102079190610e31565b610890565b6040516102199190611135565b60405180910390f35b61023c60048036038101906102379190610e31565b610924565b604051610249919061107c565b60405180910390f35b61026c60048036038101906102679190610e31565b610a19565b6040516102799190611135565b60405180910390f35b61029c60048036038101906102979190610e31565b610aad565b6040516102a9919061107c565b60405180910390f35b6102cc60048036038101906102c79190610e31565b610bbc565b6040516102d991906110c0565b60405180910390f35b60006102f867c1c9ef872120ad4c60c01b610cac565b61030c6722a4df8a42ceaa6160c01b610cac565b6103206794447c4bb948903360c01b610cac565b6000808373ffffffffffffffffffffffffffffffffffffffff1673ffffffffffffffffffffffffffffffffffffffff168152602001908152602001600020600301549050919050565b600061037f671f0cdf85f971b64560c01b610caf565b61039367cbfc57c0710762bc60c01b610caf565b6103a7673790b5bfa84d84ed60c01b610caf565b600160009054906101000a900473ffffffffffffffffffffffffffffffffffffffff1673ffffffffffffffffffffffffffffffffffffffff1663c207e9e0836040518263ffffffff1660e01b81526004016104029190611061565b60206040518083038186803b15801561041a57600080fd5b505afa15801561042e573d6000803e3d6000fd5b505050506040513d601f19601f820116820180604052508101906104529190610f05565b9050919050565b610461610cb5565b6104756760d432632b54e7e060c01b610caf565b61048967094462a98232646460c01b610caf565b61049d670ed53a805b59311c60c01b610caf565b600160009054906101000a900473ffffffffffffffffffffffffffffffffffffffff1673ffffffffffffffffffffffffffffffffffffffff16636ca5fde8836040518263ffffffff1660e01b81526004016104f89190611061565b60006040518083038186803b15801561051057600080fd5b505afa158015610524573d6000803e3d6000fd5b505050506040513d6000823e3d601f19601f8201168201806040525081019061054d9190610e9b565b9050919050565b600060205280600052604060002060009150905080600001549080600101805461057d9061124f565b80601f01602080910402602001604051908101604052809291908181526020018280546105a99061124f565b80156105f65780601f106105cb576101008083540402835291602001916105f6565b820191906000526020600020905b8154815290600101906020018083116105d957829003601f168201915b5050505050908060020160009054906101000a900460ff16908060020160019054906101000a900460ff16908060030154905085565b610634610cb5565b6106486702cf5f66176fa53960c01b610cac565b61065c67b12611fe05def76260c01b610cac565b610670678420dd018e3ed1a260c01b610cac565b6000808373ffffffffffffffffffffffffffffffffffffffff1673ffffffffffffffffffffffffffffffffffffffff1681526020019081526020016000206040518060a0016040529081600082015481526020016001820180546106d39061124f565b80601f01602080910402602001604051908101604052809291908181526020018280546106ff9061124f565b801561074c5780601f106107215761010080835404028352916020019161074c565b820191906000526020600020905b81548152906001019060200180831161072f57829003601f168201915b505050505081526020016002820160009054906101000a900460ff1660ff1660ff1681526020016002820160019054906101000a900460ff1660ff1660ff1681526020016003820154815250509050919050565b60006107b667712d6cd6359867fa60c01b610caf565b6107ca676f01699de7eda10360c01b610caf565b6107de670ee15367820b800f60c01b610caf565b600160009054906101000a900473ffffffffffffffffffffffffffffffffffffffff1673ffffffffffffffffffffffffffffffffffffffff1663b467177f836040518263ffffffff1660e01b81526004016108399190611061565b60206040518083038186803b15801561085157600080fd5b505afa158015610865573d6000803e3d6000fd5b505050506040513d601f19601f820116820180604052508101906108899190610f05565b9050919050565b60006108a6673a22c2818bb20d1a60c01b610cb2565b6108ba67fbb2d96654b535de60c01b610cb2565b6108ce6739ec579a6c67c80e60c01b610cb2565b6000808373ffffffffffffffffffffffffffffffffffffffff1673ffffffffffffffffffffffffffffffffffffffff16815260200190815260200160002060020160009054906101000a900460ff169050919050565b606061093a67f222f3874e6d0d2e60c01b610caf565b61094e6774385fec5ca8e27c60c01b610caf565b610962673f25326f1d75fddf60c01b610caf565b600160009054906101000a900473ffffffffffffffffffffffffffffffffffffffff1673ffffffffffffffffffffffffffffffffffffffff1663dfb24b89836040518263ffffffff1660e01b81526004016109bd9190611061565b60006040518083038186803b1580156109d557600080fd5b505afa1580156109e9573d6000803e3d6000fd5b505050506040513d6000823e3d601f19601f82011682018060405250810190610a129190610e5a565b9050919050565b6000610a2f6732c39d4afc3889c160c01b610cb2565b610a4367dae6db8ba31c013c60c01b610cb2565b610a5767b501f3a83b16752260c01b610cb2565b6000808373ffffffffffffffffffffffffffffffffffffffff1673ffffffffffffffffffffffffffffffffffffffff16815260200190815260200160002060020160019054906101000a900460ff169050919050565b6060610ac367c0754c09f9d3a69e60c01b610cb2565b610ad767d1e3fdb2292aa24960c01b610cb2565b610aeb679561272df2bf34be60c01b610cb2565b6000808373ffffffffffffffffffffffffffffffffffffffff1673ffffffffffffffffffffffffffffffffffffffff1681526020019081526020016000206001018054610b379061124f565b80601f0160208091040260200160405190810160405280929190818152602001828054610b639061124f565b8015610bb05780601f10610b8557610100808354040283529160200191610bb0565b820191906000526020600020905b815481529060010190602001808311610b9357829003601f168201915b50505050509050919050565b6000610bd2671f20069cdaeafcfa60c01b610caf565b610be667de92c71d8df9dfeb60c01b610caf565b610bfa679bbe09d21cf49a1360c01b610caf565b600160009054906101000a900473ffffffffffffffffffffffffffffffffffffffff1673ffffffffffffffffffffffffffffffffffffffff166309299ea3836040518263ffffffff1660e01b8152600401610c559190611061565b60206040518083038186803b158015610c6d57600080fd5b505afa158015610c81573d6000803e3d6000fd5b505050506040513d601f19601f82011682018060405250810190610ca59190610edc565b9050919050565b50565b50565b50565b6040518060a001604052806000815260200160608152602001600060ff168152602001600060ff168152602001600081525090565b6000610cfd610cf884611175565b611150565b905082815260208101848484011115610d1557600080fd5b610d2084828561121c565b509392505050565b600081359050610d3781611321565b92915050565b600082601f830112610d4e57600080fd5b8151610d5e848260208601610cea565b91505092915050565b600060a08284031215610d7957600080fd5b610d8360a0611150565b90506000610d9384828501610e07565b600083015250602082015167ffffffffffffffff811115610db357600080fd5b610dbf84828501610d3d565b6020830152506040610dd384828501610e1c565b6040830152506060610de784828501610e1c565b6060830152506080610dfb84828501610e07565b60808301525092915050565b600081519050610e1681611338565b92915050565b600081519050610e2b8161134f565b92915050565b600060208284031215610e4357600080fd5b6000610e5184828501610d28565b91505092915050565b600060208284031215610e6c57600080fd5b600082015167ffffffffffffffff811115610e8657600080fd5b610e9284828501610d3d565b91505092915050565b600060208284031215610ead57600080fd5b600082015167ffffffffffffffff811115610ec757600080fd5b610ed384828501610d67565b91505092915050565b600060208284031215610eee57600080fd5b6000610efc84828501610e07565b91505092915050565b600060208284031215610f1757600080fd5b6000610f2584828501610e1c565b91505092915050565b610f37816111d3565b82525050565b6000610f48826111a6565b610f5281856111b1565b9350610f6281856020860161121c565b610f6b81611310565b840191505092915050565b6000610f81826111a6565b610f8b81856111c2565b9350610f9b81856020860161121c565b610fa481611310565b840191505092915050565b600060a083016000830151610fc76000860182611025565b5060208301518482036020860152610fdf8282610f3d565b9150506040830151610ff46040860182611043565b5060608301516110076060860182611043565b50608083015161101a6080860182611025565b508091505092915050565b61102e81611205565b82525050565b61103d81611205565b82525050565b61104c8161120f565b82525050565b61105b8161120f565b82525050565b60006020820190506110766000830184610f2e565b92915050565b600060208201905081810360008301526110968184610f76565b905092915050565b600060208201905081810360008301526110b88184610faf565b905092915050565b60006020820190506110d56000830184611034565b92915050565b600060a0820190506110f06000830188611034565b81810360208301526111028187610f76565b90506111116040830186611052565b61111e6060830185611052565b61112b6080830184611034565b9695505050505050565b600060208201905061114a6000830184611052565b92915050565b600061115a61116b565b90506111668282611281565b919050565b6000604051905090565b600067ffffffffffffffff8211156111905761118f6112e1565b5b61119982611310565b9050602081019050919050565b600081519050919050565b600082825260208201905092915050565b600082825260208201905092915050565b60006111de826111e5565b9050919050565b600073ffffffffffffffffffffffffffffffffffffffff82169050919050565b6000819050919050565b600060ff82169050919050565b60005b8381101561123a57808201518184015260208101905061121f565b83811115611249576000848401525b50505050565b6000600282049050600182168061126757607f821691505b6020821081141561127b5761127a6112b2565b5b50919050565b61128a82611310565b810181811067ffffffffffffffff821117156112a9576112a86112e1565b5b80604052505050565b7f4e487b7100000000000000000000000000000000000000000000000000000000600052602260045260246000fd5b7f4e487b7100000000000000000000000000000000000000000000000000000000600052604160045260246000fd5b6000601f19601f8301169050919050565b61132a816111d3565b811461133557600080fd5b50565b61134181611205565b811461134c57600080fd5b50565b6113588161120f565b811461136357600080fd5b5056fea2646970667358221220e67887f54716c0ebfa1c69f7e7a963648047b79bd85bea97fd67c6da50bd83ca64736f6c63430008020033",
  "linkReferences": {},
  "deployedLinkReferences": {}
}