{
  "_format": "hh-sol-artifact-1",
  "contractName": "H1DevelopedApplication",
  "sourceName": "contracts/H1DevelopedApplication.sol",
  "abi": [
    {
      "inputs": [
        {
          "internalType": "address",
          "name": "_FeeContract",
          "type": "address"
        },
        {
          "internalType": "address",
          "name": "walletToCollectFees",
          "type": "address"
        }
      ],
      "stateMutability": "nonpayable",
      "type": "constructor"
    },
    {
      "inputs": [],
      "name": "callFee",
      "outputs": [
        {
          "internalType": "uint256",
          "name": "",
          "type": "uint256"
        }
      ],
      "stateMutability": "view",
      "type": "function"
    },
    {
      "inputs": [],
      "name": "getDeveloperFee",
      "outputs": [
        {
          "internalType": "uint256",
          "name": "developerFee",
          "type": "uint256"
        }
      ],
      "stateMutability": "view",
      "type": "function"
    },
    {
      "inputs": [],
      "name": "getHavenFee",
      "outputs": [
        {
          "internalType": "uint256",
          "name": "havenOneFee",
          "type": "uint256"
        }
      ],
      "stateMutability": "view",
      "type": "function"
    }
  ],
  "bytecode": "0x608060405234801561001057600080fd5b506040516107fb3803806107fb83398181016040528101906100329190610263565b61004c67cd1b7729f550e09460c01b61024b60201b60201c565b610066674a1759b15613413760c01b61024b60201b60201c565b61008067bcbcdb0ec4c62a5560c01b61024b60201b60201c565b600073ffffffffffffffffffffffffffffffffffffffff168273ffffffffffffffffffffffffffffffffffffffff161415610175576100cf677949f73461ebb8cf60c01b61024b60201b60201c565b6100e96788146c218b6c29a260c01b61024b60201b60201c565b61010367d93731a74b30fd7c60c01b61024b60201b60201c565b6040518060400160405280600381526020017f31323300000000000000000000000000000000000000000000000000000000008152506040517f08c379a000000000000000000000000000000000000000000000000000000000815260040161016c91906102d8565b60405180910390fd5b61018f6762be0e3eb49d3e9760c01b61024b60201b60201c565b6101a96735a364bf9ec0c9b160c01b61024b60201b60201c565b816000806101000a81548173ffffffffffffffffffffffffffffffffffffffff021916908373ffffffffffffffffffffffffffffffffffffffff16021790555061020367989474dc1f94bd4760c01b61024b60201b60201c565b80600260006101000a81548173ffffffffffffffffffffffffffffffffffffffff021916908373ffffffffffffffffffffffffffffffffffffffff16021790555050506103a3565b50565b60008151905061025d8161038c565b92915050565b6000806040838503121561027657600080fd5b60006102848582860161024e565b92505060206102958582860161024e565b9150509250929050565b60006102aa826102fa565b6102b48185610305565b93506102c4818560208601610348565b6102cd8161037b565b840191505092915050565b600060208201905081810360008301526102f2818461029f565b905092915050565b600081519050919050565b600082825260208201905092915050565b600061032182610328565b9050919050565b600073ffffffffffffffffffffffffffffffffffffffff82169050919050565b60005b8381101561036657808201518184015260208101905061034b565b83811115610375576000848401525b50505050565b6000601f19601f8301169050919050565b61039581610316565b81146103a057600080fd5b50565b610449806103b26000396000f3fe608060405234801561001057600080fd5b50600436106100415760003560e01c806377482b181461004657806390321e1a14610064578063b19929c314610082575b600080fd5b61004e6100a0565b60405161005b91906102ee565b60405180910390f35b61006c61011d565b60405161007991906102ee565b60405180910390f35b61008a61022d565b60405161009791906102ee565b60405180910390f35b60006100b66735c6135bd30fb56160c01b61029e565b6100ca673ae3d9bdfb94e26b60c01b61029e565b6100de67cc43cf7efdab234c60c01b61029e565b60006100e861011d565b90506100fe671cb28bc6094eb59660c01b61029e565b6009600a8261010d9190610309565b610117919061033a565b91505090565b60006101336790403cdde02533e860c01b61029e565b610147671c87d02a3069b73360c01b61029e565b61015b67f1b3d5843e60ace360c01b61029e565b60008060009054906101000a900473ffffffffffffffffffffffffffffffffffffffff1673ffffffffffffffffffffffffffffffffffffffff1663ced72f876040518163ffffffff1660e01b815260040160206040518083038186803b1580156101c457600080fd5b505afa1580156101d8573d6000803e3d6000fd5b505050506040513d601f19601f820116820180604052508101906101fc91906102b6565b905061021267c22e5faca129da0260c01b61029e565b61022667316dd800befc263260c01b61029e565b8091505090565b600061024367c9322031f617eba660c01b61029e565b61025767c674f3534dac2dec60c01b61029e565b61026b67e0b5f08fd8dc49a660c01b61029e565b600061027561011d565b905061028b6757c913a2a8f4beff60c01b61029e565b600a816102989190610309565b91505090565b50565b6000815190506102b0816103fc565b92915050565b6000602082840312156102c857600080fd5b60006102d6848285016102a1565b91505092915050565b6102e881610394565b82525050565b600060208201905061030360008301846102df565b92915050565b600061031482610394565b915061031f83610394565b92508261032f5761032e6103cd565b5b828204905092915050565b600061034582610394565b915061035083610394565b9250817fffffffffffffffffffffffffffffffffffffffffffffffffffffffffffffffff04831182151516156103895761038861039e565b5b828202905092915050565b6000819050919050565b7f4e487b7100000000000000000000000000000000000000000000000000000000600052601160045260246000fd5b7f4e487b7100000000000000000000000000000000000000000000000000000000600052601260045260246000fd5b61040581610394565b811461041057600080fd5b5056fea26469706673582212205c86db31c1c6302b00fcdd8ec0572557b53062d42a17a7367264325de1f77bb864736f6c63430008020033",
  "linkReferences": {},
  "deployedLinkReferences": {}
}