{
  "_format": "hh-sol-artifact-1",
  "contractName": "H1DevelopedApplication",
  "sourceName": "contracts/H1DevelopedApplication.sol",
  "abi": [
    {
      "inputs": [
        {
          "internalType": "address",
          "name": "_FeeContract",
          "type": "address"
        },
        {
          "internalType": "address",
          "name": "walletToCollectFees",
          "type": "address"
        },
        {
          "internalType": "address",
          "name": "havenOracle",
          "type": "address"
        }
      ],
      "stateMutability": "nonpayable",
      "type": "constructor"
    },
    {
      "inputs": [],
      "name": "getDeveloperFee",
      "outputs": [
        {
          "internalType": "uint256",
          "name": "developerFee",
          "type": "uint256"
        }
      ],
      "stateMutability": "view",
      "type": "function"
    },
    {
      "inputs": [],
      "name": "getHavenFee",
      "outputs": [
        {
          "internalType": "uint256",
          "name": "havenOneFee",
          "type": "uint256"
        }
      ],
      "stateMutability": "view",
      "type": "function"
    },
    {
      "inputs": [],
      "name": "queryOracle",
      "outputs": [
        {
          "internalType": "uint256",
          "name": "total",
          "type": "uint256"
        }
      ],
      "stateMutability": "nonpayable",
      "type": "function"
    }
  ],
  "bytecode": "0x608060405234801561001057600080fd5b50604051610641380380610641833981810160405281019061003291906101b8565b600073ffffffffffffffffffffffffffffffffffffffff168373ffffffffffffffffffffffffffffffffffffffff1614156100d9576040518060400160405280600381526020017f31323300000000000000000000000000000000000000000000000000000000008152506040517f08c379a00000000000000000000000000000000000000000000000000000000081526004016100d09190610240565b60405180910390fd5b826000806101000a81548173ffffffffffffffffffffffffffffffffffffffff021916908373ffffffffffffffffffffffffffffffffffffffff16021790555081600360006101000a81548173ffffffffffffffffffffffffffffffffffffffff021916908373ffffffffffffffffffffffffffffffffffffffff16021790555080600260006101000a81548173ffffffffffffffffffffffffffffffffffffffff021916908373ffffffffffffffffffffffffffffffffffffffff16021790555050505061030b565b6000815190506101b2816102f4565b92915050565b6000806000606084860312156101cd57600080fd5b60006101db868287016101a3565b93505060206101ec868287016101a3565b92505060406101fd868287016101a3565b9150509250925092565b600061021282610262565b61021c818561026d565b935061022c8185602086016102b0565b610235816102e3565b840191505092915050565b6000602082019050818103600083015261025a8184610207565b905092915050565b600081519050919050565b600082825260208201905092915050565b600061028982610290565b9050919050565b600073ffffffffffffffffffffffffffffffffffffffff82169050919050565b60005b838110156102ce5780820151818401526020810190506102b3565b838111156102dd576000848401525b50505050565b6000601f19601f8301169050919050565b6102fd8161027e565b811461030857600080fd5b50565b6103278061031a6000396000f3fe608060405234801561001057600080fd5b50600436106100415760003560e01c806326afe9801461004657806377482b1814610064578063b19929c314610082575b600080fd5b61004e6100a0565b60405161005b91906101cc565b60405180910390f35b61006c610149565b60405161007991906101cc565b60405180910390f35b61008a61016b565b60405161009791906101cc565b60405180910390f35b6000600260009054906101000a900473ffffffffffffffffffffffffffffffffffffffff1673ffffffffffffffffffffffffffffffffffffffff16637eeda7036040518163ffffffff1660e01b8152600401602060405180830381600087803b15801561010c57600080fd5b505af1158015610120573d6000803e3d6000fd5b505050506040513d601f19601f820116820180604052508101906101449190610194565b905090565b60006009600a60015461015c91906101e7565b6101669190610218565b905090565b6000600a4761017a91906101e7565b905090565b60008151905061018e816102da565b92915050565b6000602082840312156101a657600080fd5b60006101b48482850161017f565b91505092915050565b6101c681610272565b82525050565b60006020820190506101e160008301846101bd565b92915050565b60006101f282610272565b91506101fd83610272565b92508261020d5761020c6102ab565b5b828204905092915050565b600061022382610272565b915061022e83610272565b9250817fffffffffffffffffffffffffffffffffffffffffffffffffffffffffffffffff04831182151516156102675761026661027c565b5b828202905092915050565b6000819050919050565b7f4e487b7100000000000000000000000000000000000000000000000000000000600052601160045260246000fd5b7f4e487b7100000000000000000000000000000000000000000000000000000000600052601260045260246000fd5b6102e381610272565b81146102ee57600080fd5b5056fea2646970667358221220d5594a150dd92e0926faa1a3f1c9249e2caa20018ad857a362567d4ce2ac004e64736f6c63430008020033",
  "linkReferences": {},
  "deployedLinkReferences": {}
}