{"contracts/ProofOfIdentity.sol":{"ProofOfIdentity":{"abi":[{"anonymous":false,"inputs":[{"indexed":true,"internalType":"address","name":"account","type":"address"},{"indexed":true,"internalType":"uint256","name":"tokenId","type":"uint256"},{"indexed":true,"internalType":"string","name":"reason","type":"string"}],"name":"AccountSuspendedTokenBurned","type":"event"},{"anonymous":false,"inputs":[{"indexed":true,"internalType":"address","name":"account","type":"address"},{"indexed":true,"internalType":"string","name":"reason","type":"string"}],"name":"AccountSuspendedTokenMaintained","type":"event"},{"anonymous":false,"inputs":[{"indexed":true,"internalType":"address","name":"owner","type":"address"},{"indexed":true,"internalType":"address","name":"approved","type":"address"},{"indexed":true,"internalType":"uint256","name":"tokenId","type":"uint256"}],"name":"Approval","type":"event"},{"anonymous":false,"inputs":[{"indexed":true,"internalType":"address","name":"owner","type":"address"},{"indexed":true,"internalType":"address","name":"operator","type":"address"},{"indexed":false,"internalType":"bool","name":"approved","type":"bool"}],"name":"ApprovalForAll","type":"event"},{"anonymous":false,"inputs":[{"indexed":true,"internalType":"address","name":"account","type":"address"},{"indexed":true,"internalType":"uint256","name":"tokenId","type":"uint256"}],"name":"IdentityMinted","type":"event"},{"anonymous":false,"inputs":[{"indexed":true,"internalType":"address","name":"account","type":"address"},{"indexed":true,"internalType":"uint256","name":"tokenId","type":"uint256"}],"name":"IdentityUpdated","type":"event"},{"anonymous":false,"inputs":[{"indexed":false,"internalType":"uint8","name":"version","type":"uint8"}],"name":"Initialized","type":"event"},{"anonymous":false,"inputs":[{"indexed":true,"internalType":"bytes32","name":"role","type":"bytes32"},{"indexed":true,"internalType":"bytes32","name":"previousAdminRole","type":"bytes32"},{"indexed":true,"internalType":"bytes32","name":"newAdminRole","type":"bytes32"}],"name":"RoleAdminChanged","type":"event"},{"anonymous":false,"inputs":[{"indexed":true,"internalType":"bytes32","name":"role","type":"bytes32"},{"indexed":true,"internalType":"address","name":"account","type":"address"},{"indexed":true,"internalType":"address","name":"sender","type":"address"}],"name":"RoleGranted","type":"event"},{"anonymous":false,"inputs":[{"indexed":true,"internalType":"bytes32","name":"role","type":"bytes32"},{"indexed":true,"internalType":"address","name":"account","type":"address"},{"indexed":true,"internalType":"address","name":"sender","type":"address"}],"name":"RoleRevoked","type":"event"},{"anonymous":false,"inputs":[{"indexed":true,"internalType":"address","name":"account","type":"address"},{"indexed":true,"internalType":"uint256","name":"tokenId","type":"uint256"},{"indexed":true,"internalType":"string","name":"newURI","type":"string"}],"name":"TokenURIUpdated","type":"event"},{"anonymous":false,"inputs":[{"indexed":true,"internalType":"address","name":"from","type":"address"},{"indexed":true,"internalType":"address","name":"to","type":"address"},{"indexed":true,"internalType":"uint256","name":"tokenId","type":"uint256"}],"name":"Transfer","type":"event"},{"inputs":[],"name":"DEFAULT_ADMIN_ROLE","outputs":[{"internalType":"bytes32","name":"","type":"bytes32"}],"stateMutability":"view","type":"function"},{"inputs":[],"name":"PROVER_ROLE","outputs":[{"internalType":"bytes32","name":"","type":"bytes32"}],"stateMutability":"view","type":"function"},{"inputs":[{"internalType":"address","name":"to","type":"address"},{"internalType":"uint256","name":"tokenId","type":"uint256"}],"name":"approve","outputs":[],"stateMutability":"nonpayable","type":"function"},{"inputs":[{"internalType":"address","name":"owner","type":"address"}],"name":"balanceOf","outputs":[{"internalType":"uint256","name":"","type":"uint256"}],"stateMutability":"view","type":"function"},{"inputs":[{"internalType":"uint256","name":"tokenId","type":"uint256"}],"name":"getApproved","outputs":[{"internalType":"address","name":"","type":"address"}],"stateMutability":"view","type":"function"},{"inputs":[],"name":"getCurrentTokenId","outputs":[{"internalType":"uint256","name":"","type":"uint256"}],"stateMutability":"view","type":"function"},{"inputs":[{"internalType":"bytes32","name":"role","type":"bytes32"}],"name":"getRoleAdmin","outputs":[{"internalType":"bytes32","name":"","type":"bytes32"}],"stateMutability":"view","type":"function"},{"inputs":[{"internalType":"address","name":"account","type":"address"}],"name":"getUserAccountCountryCode","outputs":[{"internalType":"string","name":"userAccountCountryCode","type":"string"}],"stateMutability":"view","type":"function"},{"inputs":[{"internalType":"address","name":"account","type":"address"}],"name":"getUserAccountCountryCodePreventOnExpiry","outputs":[{"internalType":"string","name":"userAccountCountryCode","type":"string"}],"stateMutability":"view","type":"function"},{"inputs":[{"internalType":"address","name":"account","type":"address"}],"name":"getUserAccountExpiry","outputs":[{"internalType":"uint256","name":"userAccountExpiry","type":"uint256"}],"stateMutability":"view","type":"function"},{"inputs":[{"internalType":"address","name":"account","type":"address"}],"name":"getUserAccountIdentityBlob","outputs":[{"components":[{"internalType":"uint256","name":"tokenId","type":"uint256"},{"internalType":"string","name":"countryCode","type":"string"},{"internalType":"uint8","name":"userType","type":"uint8"},{"internalType":"uint8","name":"level","type":"uint8"},{"internalType":"uint256","name":"expiry","type":"uint256"}],"internalType":"struct RoleVerification.IdentityBlob","name":"userIdentityBlob","type":"tuple"}],"stateMutability":"view","type":"function"},{"inputs":[{"internalType":"address","name":"account","type":"address"}],"name":"getUserAccountLevel","outputs":[{"internalType":"uint8","name":"userAccountLevel","type":"uint8"}],"stateMutability":"view","type":"function"},{"inputs":[{"internalType":"address","name":"account","type":"address"}],"name":"getUserAccountLevelPreventOnExpiry","outputs":[{"internalType":"uint8","name":"","type":"uint8"}],"stateMutability":"view","type":"function"},{"inputs":[{"internalType":"address","name":"account","type":"address"}],"name":"getUserAccountType","outputs":[{"internalType":"uint8","name":"userAccountType","type":"uint8"}],"stateMutability":"view","type":"function"},{"inputs":[{"internalType":"address","name":"account","type":"address"}],"name":"getUserAccountTypePreventOnExpiry","outputs":[{"internalType":"uint8","name":"","type":"uint8"}],"stateMutability":"view","type":"function"},{"inputs":[{"internalType":"bytes32","name":"role","type":"bytes32"},{"internalType":"address","name":"account","type":"address"}],"name":"grantRole","outputs":[],"stateMutability":"nonpayable","type":"function"},{"inputs":[{"internalType":"bytes32","name":"role","type":"bytes32"},{"internalType":"address","name":"account","type":"address"}],"name":"hasRole","outputs":[{"internalType":"bool","name":"","type":"bool"}],"stateMutability":"view","type":"function"},{"inputs":[{"internalType":"address","name":"","type":"address"}],"name":"identityBlob","outputs":[{"internalType":"uint256","name":"tokenId","type":"uint256"},{"internalType":"string","name":"countryCode","type":"string"},{"internalType":"uint8","name":"userType","type":"uint8"},{"internalType":"uint8","name":"level","type":"uint8"},{"internalType":"uint256","name":"expiry","type":"uint256"}],"stateMutability":"view","type":"function"},{"inputs":[{"internalType":"address","name":"permissionsInterface","type":"address"}],"name":"initialize","outputs":[],"stateMutability":"nonpayable","type":"function"},{"inputs":[{"internalType":"address","name":"owner","type":"address"},{"internalType":"address","name":"operator","type":"address"}],"name":"isApprovedForAll","outputs":[{"internalType":"bool","name":"","type":"bool"}],"stateMutability":"view","type":"function"},{"inputs":[{"internalType":"address","name":"account","type":"address"},{"internalType":"string","name":"countryCode","type":"string"},{"internalType":"uint8","name":"userType","type":"uint8"},{"internalType":"uint8","name":"level","type":"uint8"},{"internalType":"uint256","name":"expiry","type":"uint256"},{"internalType":"string","name":"tokenUri","type":"string"}],"name":"mintIdentity","outputs":[],"stateMutability":"nonpayable","type":"function"},{"inputs":[],"name":"name","outputs":[{"internalType":"string","name":"","type":"string"}],"stateMutability":"view","type":"function"},{"inputs":[{"internalType":"uint256","name":"tokenId","type":"uint256"}],"name":"ownerOf","outputs":[{"internalType":"address","name":"","type":"address"}],"stateMutability":"view","type":"function"},{"inputs":[{"internalType":"bytes32","name":"role","type":"bytes32"},{"internalType":"address","name":"account","type":"address"}],"name":"renounceRole","outputs":[],"stateMutability":"nonpayable","type":"function"},{"inputs":[{"internalType":"bytes32","name":"role","type":"bytes32"},{"internalType":"address","name":"account","type":"address"}],"name":"revokeRole","outputs":[],"stateMutability":"nonpayable","type":"function"},{"inputs":[{"internalType":"address","name":"from","type":"address"},{"internalType":"address","name":"to","type":"address"},{"internalType":"uint256","name":"tokenId","type":"uint256"}],"name":"safeTransferFrom","outputs":[],"stateMutability":"nonpayable","type":"function"},{"inputs":[{"internalType":"address","name":"from","type":"address"},{"internalType":"address","name":"to","type":"address"},{"internalType":"uint256","name":"tokenId","type":"uint256"},{"internalType":"bytes","name":"data","type":"bytes"}],"name":"safeTransferFrom","outputs":[],"stateMutability":"nonpayable","type":"function"},{"inputs":[{"internalType":"address","name":"operator","type":"address"},{"internalType":"bool","name":"approved","type":"bool"}],"name":"setApprovalForAll","outputs":[],"stateMutability":"nonpayable","type":"function"},{"inputs":[{"internalType":"bytes4","name":"interfaceId","type":"bytes4"}],"name":"supportsInterface","outputs":[{"internalType":"bool","name":"","type":"bool"}],"stateMutability":"view","type":"function"},{"inputs":[{"internalType":"address","name":"suspendAccount","type":"address"},{"internalType":"string","name":"reason","type":"string"}],"name":"suspendAccountDeleteTokenAndIdentityBlob","outputs":[],"stateMutability":"nonpayable","type":"function"},{"inputs":[{"internalType":"address","name":"suspendAddress","type":"address"},{"internalType":"string","name":"reason","type":"string"}],"name":"suspendAccountMaintainTokenAndIdentityBlob","outputs":[],"stateMutability":"nonpayable","type":"function"},{"inputs":[],"name":"symbol","outputs":[{"internalType":"string","name":"","type":"string"}],"stateMutability":"view","type":"function"},{"inputs":[{"internalType":"uint256","name":"tokenId","type":"uint256"}],"name":"tokenURI","outputs":[{"internalType":"string","name":"","type":"string"}],"stateMutability":"view","type":"function"},{"inputs":[{"internalType":"address","name":"from","type":"address"},{"internalType":"address","name":"to","type":"address"},{"internalType":"uint256","name":"tokenId","type":"uint256"}],"name":"transferFrom","outputs":[],"stateMutability":"nonpayable","type":"function"},{"inputs":[{"internalType":"address","name":"account","type":"address"},{"internalType":"string","name":"countryCode","type":"string"},{"internalType":"uint8","name":"userType","type":"uint8"},{"internalType":"uint8","name":"level","type":"uint8"},{"internalType":"uint256","name":"expiry","type":"uint256"}],"name":"updateIdentity","outputs":[],"stateMutability":"nonpayable","type":"function"},{"inputs":[{"internalType":"address","name":"account","type":"address"},{"internalType":"string","name":"tokenUri","type":"string"}],"name":"updateTokenURI","outputs":[],"stateMutability":"nonpayable","type":"function"}],"evm":{"bytecode":{"linkReferences":{},"object":"608060405234801561001057600080fd5b50615214806100206000396000f3fe608060405234801561001057600080fd5b506004361061021c5760003560e01c806391d1485411610125578063c4d66de8116100ad578063dc9a4ef61161007c578063dc9a4ef6146106bd578063dfb24b89146106db578063e86573e41461070b578063e985e9c514610727578063f6a4b4d7146107575761021c565b8063c4d66de814610639578063c87b56dd14610655578063d4ec909614610685578063d547741f146106a15761021c565b8063a217fddf116100f4578063a217fddf14610583578063a22cb465146105a1578063b467177f146105bd578063b88d4fde146105ed578063c207e9e0146106095761021c565b806391d14854146104d5578063949cdd6e1461050557806395d89b411461053557806396257e4d146105535761021c565b806336568abe116101a85780636352211e116101775780636352211e146103f5578063688ea9fe146104255780636ca5fde81461045957806370a082311461048957806380a5a896146104b95761021c565b806336568abe146103835780633bc2c0781461039f57806342842e0e146103bb57806356189236146103d75761021c565b8063095ea7b3116101ef578063095ea7b3146102cf5780631fe0094a146102eb57806323b872dd1461031b578063248a9ca3146103375780632f2ff15d146103675761021c565b806301ffc9a71461022157806306fdde0314610251578063081812fc1461026f57806309299ea31461029f575b600080fd5b61023b60048036038101906102369190614009565b610773565b6040516102489190614616565b60405180910390f35b610259610785565b6040516102669190614667565b60405180910390f35b6102896004803603810190610284919061405b565b610817565b604051610296919061456e565b60405180910390f35b6102b960048036038101906102b49190613c50565b61085d565b6040516102c691906148c7565b60405180910390f35b6102e960048036038101906102e49190613f68565b6108a8565b005b61030560048036038101906103009190613c50565b6109c0565b604051610312919061493c565b60405180910390f35b61033560048036038101906103309190613cb5565b610ad2565b005b610351600480360381019061034c9190613fa4565b610b44565b60405161035e9190614631565b60405180910390f35b610381600480360381019061037c9190613fcd565b610b64565b005b61039d60048036038101906103989190613fcd565b610b85565b005b6103b960048036038101906103b49190613dbb565b610c08565b005b6103d560048036038101906103d09190613cb5565b610dfb565b005b6103df610e6d565b6040516103ec91906148c7565b60405180910390f35b61040f600480360381019061040a919061405b565b610e7e565b60405161041c919061456e565b60405180910390f35b61043f600480360381019061043a9190613c50565b610f05565b6040516104509594939291906148e2565b60405180910390f35b610473600480360381019061046e9190613c50565b610fdd565b60405161048091906148a5565b60405180910390f35b6104a3600480360381019061049e9190613c50565b611115565b6040516104b091906148c7565b60405180910390f35b6104d360048036038101906104ce9190613dbb565b6111cd565b005b6104ef60048036038101906104ea9190613fcd565b6112e8565b6040516104fc9190614616565b60405180910390f35b61051f600480360381019061051a9190613c50565b611353565b60405161052c919061493c565b60405180910390f35b61053d611465565b60405161054a9190614667565b60405180910390f35b61056d60048036038101906105689190613c50565b6114f7565b60405161057a9190614667565b60405180910390f35b61058b611684565b6040516105989190614631565b60405180910390f35b6105bb60048036038101906105b69190613d7f565b61168b565b005b6105d760048036038101906105d29190613c50565b6116a1565b6040516105e4919061493c565b60405180910390f35b61060760048036038101906106029190613d04565b6116f9565b005b610623600480360381019061061e9190613c50565b61175b565b604051610630919061493c565b60405180910390f35b610653600480360381019061064e9190613c50565b6117b3565b005b61066f600480360381019061066a919061405b565b6119e8565b60405161067c9190614667565b60405180910390f35b61069f600480360381019061069a9190613ea5565b611b0e565b005b6106bb60048036038101906106b69190613fcd565b611ec2565b005b6106c5611ee3565b6040516106d29190614631565b60405180910390f35b6106f560048036038101906106f09190613c50565b611f07565b6040516107029190614667565b60405180910390f35b61072560048036038101906107209190613e13565b611fda565b005b610741600480360381019061073c9190613c79565b612241565b60405161074e9190614616565b60405180910390f35b610771600480360381019061076c9190613dbb565b6122d5565b005b600061077e8261244a565b9050919050565b60606066805461079490614bcc565b80601f01602080910402602001604051908101604052809291908181526020018280546107c090614bcc565b801561080d5780601f106107e25761010080835404028352916020019161080d565b820191906000526020600020905b8154815290600101906020018083116107f057829003601f168201915b5050505050905090565b6000610822826124c4565b606a600083815260200190815260200160002060009054906101000a900473ffffffffffffffffffffffffffffffffffffffff169050919050565b60008060008373ffffffffffffffffffffffffffffffffffffffff1673ffffffffffffffffffffffffffffffffffffffff168152602001908152602001600020600301549050919050565b60006108b382610e7e565b90508073ffffffffffffffffffffffffffffffffffffffff168373ffffffffffffffffffffffffffffffffffffffff161415610924576040517f08c379a000000000000000000000000000000000000000000000000000000000815260040161091b90614825565b60405180910390fd5b8073ffffffffffffffffffffffffffffffffffffffff1661094361250f565b73ffffffffffffffffffffffffffffffffffffffff16148061097257506109718161096c61250f565b612241565b5b6109b1576040517f08c379a00000000000000000000000000000000000000000000000000000000081526004016109a890614845565b60405180910390fd5b6109bb8383612517565b505050565b60008060008373ffffffffffffffffffffffffffffffffffffffff1673ffffffffffffffffffffffffffffffffffffffff168152602001908152602001600020600301544210610a7c576040518060400160405280600381526020017f31303300000000000000000000000000000000000000000000000000000000008152506040517f08c379a0000000000000000000000000000000000000000000000000000000008152600401610a739190614667565b60405180910390fd5b6000808373ffffffffffffffffffffffffffffffffffffffff1673ffffffffffffffffffffffffffffffffffffffff16815260200190815260200160002060020160009054906101000a900460ff169050919050565b6040518060400160405280600381526020017f31303200000000000000000000000000000000000000000000000000000000008152506040517f08c379a0000000000000000000000000000000000000000000000000000000008152600401610b3b9190614667565b60405180910390fd5b600060986000838152602001908152602001600020600101549050919050565b610b6d82610b44565b610b76816125d0565b610b8083836125e4565b505050565b610b8d61250f565b73ffffffffffffffffffffffffffffffffffffffff168173ffffffffffffffffffffffffffffffffffffffff1614610bfa576040517f08c379a0000000000000000000000000000000000000000000000000000000008152600401610bf190614885565b60405180910390fd5b610c0482826126c5565b5050565b7f60044782a422109ac08a415e44260ad5d3bad63d96ebe1fac0363399642ee3f2610c32816125d0565b60cb60009054906101000a900473ffffffffffffffffffffffffffffffffffffffff1673ffffffffffffffffffffffffffffffffffffffff166384b7a84a8560016040518363ffffffff1660e01b8152600401610c909291906147c9565b600060405180830381600087803b158015610caa57600080fd5b505af1158015610cbe573d6000803e3d6000fd5b50505050600060cc60008673ffffffffffffffffffffffffffffffffffffffff1673ffffffffffffffffffffffffffffffffffffffff168152602001908152602001600020549050610d0f816127a7565b6000808673ffffffffffffffffffffffffffffffffffffffff1673ffffffffffffffffffffffffffffffffffffffff168152602001908152602001600020600080820160009055600182016000610d66919061396d565b6002820160006101000a81549060ff02191690556002820160016101000a81549060ff0219169055600382016000905550508383604051610da892919061451b565b6040518091039020818673ffffffffffffffffffffffffffffffffffffffff167f8b09fc40032762aebf578cd9202b2548559cbac190b3807076418620ef05518f60405160405180910390a45050505050565b6040518060400160405280600381526020017f31303200000000000000000000000000000000000000000000000000000000008152506040517f08c379a0000000000000000000000000000000000000000000000000000000008152600401610e649190614667565b60405180910390fd5b6000610e7960ca6128f5565b905090565b600080610e8a83612903565b9050600073ffffffffffffffffffffffffffffffffffffffff168173ffffffffffffffffffffffffffffffffffffffff161415610efc576040517f08c379a0000000000000000000000000000000000000000000000000000000008152600401610ef390614805565b60405180910390fd5b80915050919050565b6000602052806000526040600020600091509050806000015490806001018054610f2e90614bcc565b80601f0160208091040260200160405190810160405280929190818152602001828054610f5a90614bcc565b8015610fa75780601f10610f7c57610100808354040283529160200191610fa7565b820191906000526020600020905b815481529060010190602001808311610f8a57829003601f168201915b5050505050908060020160009054906101000a900460ff16908060020160019054906101000a900460ff16908060030154905085565b610fe56139ad565b6000808373ffffffffffffffffffffffffffffffffffffffff1673ffffffffffffffffffffffffffffffffffffffff1681526020019081526020016000206040518060a00160405290816000820154815260200160018201805461104890614bcc565b80601f016020809104026020016040519081016040528092919081815260200182805461107490614bcc565b80156110c15780601f10611096576101008083540402835291602001916110c1565b820191906000526020600020905b8154815290600101906020018083116110a457829003601f168201915b505050505081526020016002820160009054906101000a900460ff1660ff1660ff1681526020016002820160019054906101000a900460ff1660ff1660ff1681526020016003820154815250509050919050565b60008073ffffffffffffffffffffffffffffffffffffffff168273ffffffffffffffffffffffffffffffffffffffff161415611186576040517f08c379a000000000000000000000000000000000000000000000000000000000815260040161117d90614769565b60405180910390fd5b606960008373ffffffffffffffffffffffffffffffffffffffff1673ffffffffffffffffffffffffffffffffffffffff168152602001908152602001600020549050919050565b7f60044782a422109ac08a415e44260ad5d3bad63d96ebe1fac0363399642ee3f26111f7816125d0565b60cb60009054906101000a900473ffffffffffffffffffffffffffffffffffffffff1673ffffffffffffffffffffffffffffffffffffffff166384b7a84a8560016040518363ffffffff1660e01b81526004016112559291906147c9565b600060405180830381600087803b15801561126f57600080fd5b505af1158015611283573d6000803e3d6000fd5b50505050828260405161129792919061451b565b60405180910390208473ffffffffffffffffffffffffffffffffffffffff167f3347b0049117ab94fddf6cff81cc554c4f7489acedc7c33907a96655770e58ae60405160405180910390a350505050565b60006098600084815260200190815260200160002060000160008373ffffffffffffffffffffffffffffffffffffffff1673ffffffffffffffffffffffffffffffffffffffff16815260200190815260200160002060009054906101000a900460ff16905092915050565b60008060008373ffffffffffffffffffffffffffffffffffffffff1673ffffffffffffffffffffffffffffffffffffffff16815260200190815260200160002060030154421061140f576040518060400160405280600381526020017f31303300000000000000000000000000000000000000000000000000000000008152506040517f08c379a00000000000000000000000000000000000000000000000000000000081526004016114069190614667565b60405180910390fd5b6000808373ffffffffffffffffffffffffffffffffffffffff1673ffffffffffffffffffffffffffffffffffffffff16815260200190815260200160002060020160019054906101000a900460ff169050919050565b60606067805461147490614bcc565b80601f01602080910402602001604051908101604052809291908181526020018280546114a090614bcc565b80156114ed5780601f106114c2576101008083540402835291602001916114ed565b820191906000526020600020905b8154815290600101906020018083116114d057829003601f168201915b5050505050905090565b60606000808373ffffffffffffffffffffffffffffffffffffffff1673ffffffffffffffffffffffffffffffffffffffff1681526020019081526020016000206003015442106115b3576040518060400160405280600381526020017f31303300000000000000000000000000000000000000000000000000000000008152506040517f08c379a00000000000000000000000000000000000000000000000000000000081526004016115aa9190614667565b60405180910390fd5b6000808373ffffffffffffffffffffffffffffffffffffffff1673ffffffffffffffffffffffffffffffffffffffff16815260200190815260200160002060010180546115ff90614bcc565b80601f016020809104026020016040519081016040528092919081815260200182805461162b90614bcc565b80156116785780601f1061164d57610100808354040283529160200191611678565b820191906000526020600020905b81548152906001019060200180831161165b57829003601f168201915b50505050509050919050565b6000801b81565b61169d61169661250f565b8383612940565b5050565b60008060008373ffffffffffffffffffffffffffffffffffffffff1673ffffffffffffffffffffffffffffffffffffffff16815260200190815260200160002060020160009054906101000a900460ff169050919050565b61170a61170461250f565b83612aad565b611749576040517f08c379a0000000000000000000000000000000000000000000000000000000008152600401611740906146a9565b60405180910390fd5b61175584848484612b42565b50505050565b60008060008373ffffffffffffffffffffffffffffffffffffffff1673ffffffffffffffffffffffffffffffffffffffff16815260200190815260200160002060020160019054906101000a900460ff169050919050565b600060018054906101000a900460ff161590508080156117e4575060018060009054906101000a900460ff1660ff16105b8061181257506117f330612b9e565b158015611811575060018060009054906101000a900460ff1660ff16145b5b611851576040517f08c379a000000000000000000000000000000000000000000000000000000000815260040161184890614789565b60405180910390fd5b60018060006101000a81548160ff021916908360ff160217905550801561188d5760018060016101000a81548160ff0219169083151502179055505b611895612bc1565b6119096040518060400160405280601181526020017f50726f6f66206f66204964656e746974790000000000000000000000000000008152506040518060400160405280600581526020017f48312d4944000000000000000000000000000000000000000000000000000000815250612c10565b8160cb60006101000a81548173ffffffffffffffffffffffffffffffffffffffff021916908373ffffffffffffffffffffffffffffffffffffffff1602179055506119747f60044782a422109ac08a415e44260ad5d3bad63d96ebe1fac0363399642ee3f2336125e4565b6119816000801b336125e4565b61198b60ca612c6b565b80156119e45760006001806101000a81548160ff0219169083151502179055507f7f26b83ff96e1f2b6a682f133852f6798a09c465da95921460cefb384740249860016040516119db919061464c565b60405180910390a15b5050565b60606119f382612c81565b6040518060400160405280600381526020017f313031000000000000000000000000000000000000000000000000000000000081525090611a6a576040517f08c379a0000000000000000000000000000000000000000000000000000000008152600401611a619190614667565b60405180910390fd5b5060cd60008381526020019081526020016000208054611a8990614bcc565b80601f0160208091040260200160405190810160405280929190818152602001828054611ab590614bcc565b8015611b025780601f10611ad757610100808354040283529160200191611b02565b820191906000526020600020905b815481529060010190602001808311611ae557829003601f168201915b50505050509050919050565b7f60044782a422109ac08a415e44260ad5d3bad63d96ebe1fac0363399642ee3f2611b38816125d0565b6000611b438a611115565b146040518060400160405280600381526020017f313030000000000000000000000000000000000000000000000000000000000081525090611bbb576040517f08c379a0000000000000000000000000000000000000000000000000000000008152600401611bb29190614667565b60405180910390fd5b504284116040518060400160405280600381526020017f313033000000000000000000000000000000000000000000000000000000000081525090611c36576040517f08c379a0000000000000000000000000000000000000000000000000000000008152600401611c2d9190614667565b60405180910390fd5b506000611c4360ca6128f5565b90506040518060a001604052808281526020018a8a8080601f016020809104026020016040519081016040528093929190818152602001838380828437600081840152601f19601f8201169050808301925050505050505081526020018860ff1681526020018760ff168152602001868152506000808c73ffffffffffffffffffffffffffffffffffffffff1673ffffffffffffffffffffffffffffffffffffffff168152602001908152602001600020600082015181600001556020820151816001019080519060200190611d1a9291906139e2565b5060408201518160020160006101000a81548160ff021916908360ff16021790555060608201518160020160016101000a81548160ff021916908360ff16021790555060808201518160030155905050611d7460ca612c6b565b611d7e8a82612cc2565b838360cd60008481526020019081526020016000209190611da0929190613a68565b508060cc60008c73ffffffffffffffffffffffffffffffffffffffff1673ffffffffffffffffffffffffffffffffffffffff1681526020019081526020016000208190555060cb60009054906101000a900473ffffffffffffffffffffffffffffffffffffffff1673ffffffffffffffffffffffffffffffffffffffff16632f7f0a128b6040518263ffffffff1660e01b8152600401611e4091906145d5565b600060405180830381600087803b158015611e5a57600080fd5b505af1158015611e6e573d6000803e3d6000fd5b50505050808a73ffffffffffffffffffffffffffffffffffffffff167faf62702571aa2959cc884d2d2f058f2dde9f91f8cb7b5a5c62887ec1aef856e760405160405180910390a350505050505050505050565b611ecb82610b44565b611ed4816125d0565b611ede83836126c5565b505050565b7f60044782a422109ac08a415e44260ad5d3bad63d96ebe1fac0363399642ee3f281565b60606000808373ffffffffffffffffffffffffffffffffffffffff1673ffffffffffffffffffffffffffffffffffffffff1681526020019081526020016000206001018054611f5590614bcc565b80601f0160208091040260200160405190810160405280929190818152602001828054611f8190614bcc565b8015611fce5780601f10611fa357610100808354040283529160200191611fce565b820191906000526020600020905b815481529060010190602001808311611fb157829003601f168201915b50505050509050919050565b7f60044782a422109ac08a415e44260ad5d3bad63d96ebe1fac0363399642ee3f2612004816125d0565b600161200f88611115565b146040518060400160405280600381526020017f313031000000000000000000000000000000000000000000000000000000000081525090612087576040517f08c379a000000000000000000000000000000000000000000000000000000000815260040161207e9190614667565b60405180910390fd5b5060008060008973ffffffffffffffffffffffffffffffffffffffff1673ffffffffffffffffffffffffffffffffffffffff1681526020019081526020016000206000015490506040518060a0016040528082815260200188888080601f016020809104026020016040519081016040528093929190818152602001838380828437600081840152601f19601f8201169050808301925050505050505081526020018660ff1681526020018560ff168152602001848152506000808a73ffffffffffffffffffffffffffffffffffffffff1673ffffffffffffffffffffffffffffffffffffffff1681526020019081526020016000206000820151816000015560208201518160010190805190602001906121a39291906139e2565b5060408201518160020160006101000a81548160ff021916908360ff16021790555060608201518160020160016101000a81548160ff021916908360ff16021790555060808201518160030155905050808873ffffffffffffffffffffffffffffffffffffffff167f4a1e31466f875c6fcafefabf90bce8accdf53108c4a309106058ef7aefebd5ce60405160405180910390a35050505050505050565b6000606b60008473ffffffffffffffffffffffffffffffffffffffff1673ffffffffffffffffffffffffffffffffffffffff16815260200190815260200160002060008373ffffffffffffffffffffffffffffffffffffffff1673ffffffffffffffffffffffffffffffffffffffff16815260200190815260200160002060009054906101000a900460ff16905092915050565b7f60044782a422109ac08a415e44260ad5d3bad63d96ebe1fac0363399642ee3f26122ff816125d0565b600060cc60008673ffffffffffffffffffffffffffffffffffffffff1673ffffffffffffffffffffffffffffffffffffffff16815260200190815260200160002054905061234c81612c81565b6040518060400160405280600381526020017f3130310000000000000000000000000000000000000000000000000000000000815250906123c3576040517f08c379a00000000000000000000000000000000000000000000000000000000081526004016123ba9190614667565b60405180910390fd5b50838360cd600084815260200190815260200160002091906123e6929190613a68565b5083836040516123f792919061451b565b6040518091039020818673ffffffffffffffffffffffffffffffffffffffff167fe3a3e1a0be0d562dd7ec739509d30dfbca7cd174fbc576a45746fe1f3b277c2660405160405180910390a45050505050565b60007f7965db0b000000000000000000000000000000000000000000000000000000007bffffffffffffffffffffffffffffffffffffffffffffffffffffffff1916827bffffffffffffffffffffffffffffffffffffffffffffffffffffffff191614806124bd57506124bc82612ce0565b5b9050919050565b6124cd81612c81565b61250c576040517f08c379a000000000000000000000000000000000000000000000000000000000815260040161250390614805565b60405180910390fd5b50565b600033905090565b81606a600083815260200190815260200160002060006101000a81548173ffffffffffffffffffffffffffffffffffffffff021916908373ffffffffffffffffffffffffffffffffffffffff160217905550808273ffffffffffffffffffffffffffffffffffffffff1661258a83610e7e565b73ffffffffffffffffffffffffffffffffffffffff167f8c5be1e5ebec7d5bd14f71427d1e84f3dd0314c0f7b2291e5b200ac8c7c3b92560405160405180910390a45050565b6125e1816125dc61250f565b612dc2565b50565b6125ee82826112e8565b6126c15760016098600084815260200190815260200160002060000160008373ffffffffffffffffffffffffffffffffffffffff1673ffffffffffffffffffffffffffffffffffffffff16815260200190815260200160002060006101000a81548160ff02191690831515021790555061266661250f565b73ffffffffffffffffffffffffffffffffffffffff168173ffffffffffffffffffffffffffffffffffffffff16837f2f8788117e7eff1d82e926ec794901d17c78024a50270940304540a733656f0d60405160405180910390a45b5050565b6126cf82826112e8565b156127a35760006098600084815260200190815260200160002060000160008373ffffffffffffffffffffffffffffffffffffffff1673ffffffffffffffffffffffffffffffffffffffff16815260200190815260200160002060006101000a81548160ff02191690831515021790555061274861250f565b73ffffffffffffffffffffffffffffffffffffffff168173ffffffffffffffffffffffffffffffffffffffff16837ff6391f5c32d9c69d2a47ea670b442974b53935d1edc7fd64eb21e047a839171b60405160405180910390a45b5050565b60006127b282610e7e565b90506127c2816000846001612e47565b6127cb82610e7e565b9050606a600083815260200190815260200160002060006101000a81549073ffffffffffffffffffffffffffffffffffffffff02191690556001606960008373ffffffffffffffffffffffffffffffffffffffff1673ffffffffffffffffffffffffffffffffffffffff168152602001908152602001600020600082825403925050819055506068600083815260200190815260200160002060006101000a81549073ffffffffffffffffffffffffffffffffffffffff021916905581600073ffffffffffffffffffffffffffffffffffffffff168273ffffffffffffffffffffffffffffffffffffffff167fddf252ad1be2c89b69c2b068fc378daa952ba7f163c4a11628f55a4df523b3ef60405160405180910390a46128f1816000846001612e4d565b5050565b600081600001549050919050565b60006068600083815260200190815260200160002060009054906101000a900473ffffffffffffffffffffffffffffffffffffffff169050919050565b8173ffffffffffffffffffffffffffffffffffffffff168373ffffffffffffffffffffffffffffffffffffffff1614156129af576040517f08c379a00000000000000000000000000000000000000000000000000000000081526004016129a690614749565b60405180910390fd5b80606b60008573ffffffffffffffffffffffffffffffffffffffff1673ffffffffffffffffffffffffffffffffffffffff16815260200190815260200160002060008473ffffffffffffffffffffffffffffffffffffffff1673ffffffffffffffffffffffffffffffffffffffff16815260200190815260200160002060006101000a81548160ff0219169083151502179055508173ffffffffffffffffffffffffffffffffffffffff168373ffffffffffffffffffffffffffffffffffffffff167f17307eab39ab6107e8899845ad3d59bd9653f200f220920489ca2b5937696c3183604051612aa09190614616565b60405180910390a3505050565b600080612ab983610e7e565b90508073ffffffffffffffffffffffffffffffffffffffff168473ffffffffffffffffffffffffffffffffffffffff161480612afb5750612afa8185612241565b5b80612b3957508373ffffffffffffffffffffffffffffffffffffffff16612b2184610817565b73ffffffffffffffffffffffffffffffffffffffff16145b91505092915050565b612b4d848484612e53565b612b598484848461314d565b612b98576040517f08c379a0000000000000000000000000000000000000000000000000000000008152600401612b8f906146c9565b60405180910390fd5b50505050565b6000808273ffffffffffffffffffffffffffffffffffffffff163b119050919050565b60018054906101000a900460ff16612c0e576040517f08c379a0000000000000000000000000000000000000000000000000000000008152600401612c0590614865565b60405180910390fd5b565b60018054906101000a900460ff16612c5d576040517f08c379a0000000000000000000000000000000000000000000000000000000008152600401612c5490614865565b60405180910390fd5b612c6782826132e4565b5050565b6001816000016000828254019250508190555050565b60008073ffffffffffffffffffffffffffffffffffffffff16612ca383612903565b73ffffffffffffffffffffffffffffffffffffffff1614159050919050565b612cdc828260405180602001604052806000815250613363565b5050565b60007f80ac58cd000000000000000000000000000000000000000000000000000000007bffffffffffffffffffffffffffffffffffffffffffffffffffffffff1916827bffffffffffffffffffffffffffffffffffffffffffffffffffffffff19161480612dab57507f5b5e139f000000000000000000000000000000000000000000000000000000007bffffffffffffffffffffffffffffffffffffffffffffffffffffffff1916827bffffffffffffffffffffffffffffffffffffffffffffffffffffffff1916145b80612dbb5750612dba826133be565b5b9050919050565b612dcc82826112e8565b612e4357612dd981613428565b612de78360001c6020613455565b604051602001612df8929190614534565b6040516020818303038152906040526040517f08c379a0000000000000000000000000000000000000000000000000000000008152600401612e3a9190614667565b60405180910390fd5b5050565b50505050565b50505050565b8273ffffffffffffffffffffffffffffffffffffffff16612e7382610e7e565b73ffffffffffffffffffffffffffffffffffffffff1614612ec9576040517f08c379a0000000000000000000000000000000000000000000000000000000008152600401612ec0906146e9565b60405180910390fd5b600073ffffffffffffffffffffffffffffffffffffffff168273ffffffffffffffffffffffffffffffffffffffff161415612f39576040517f08c379a0000000000000000000000000000000000000000000000000000000008152600401612f3090614729565b60405180910390fd5b612f468383836001612e47565b8273ffffffffffffffffffffffffffffffffffffffff16612f6682610e7e565b73ffffffffffffffffffffffffffffffffffffffff1614612fbc576040517f08c379a0000000000000000000000000000000000000000000000000000000008152600401612fb3906146e9565b60405180910390fd5b606a600082815260200190815260200160002060006101000a81549073ffffffffffffffffffffffffffffffffffffffff02191690556001606960008573ffffffffffffffffffffffffffffffffffffffff1673ffffffffffffffffffffffffffffffffffffffff168152602001908152602001600020600082825403925050819055506001606960008473ffffffffffffffffffffffffffffffffffffffff1673ffffffffffffffffffffffffffffffffffffffff16815260200190815260200160002060008282540192505081905550816068600083815260200190815260200160002060006101000a81548173ffffffffffffffffffffffffffffffffffffffff021916908373ffffffffffffffffffffffffffffffffffffffff160217905550808273ffffffffffffffffffffffffffffffffffffffff168473ffffffffffffffffffffffffffffffffffffffff167fddf252ad1be2c89b69c2b068fc378daa952ba7f163c4a11628f55a4df523b3ef60405160405180910390a46131488383836001612e4d565b505050565b600061316e8473ffffffffffffffffffffffffffffffffffffffff16612b9e565b156132d7578373ffffffffffffffffffffffffffffffffffffffff1663150b7a0261319761250f565b8786866040518563ffffffff1660e01b81526004016131b99493929190614589565b602060405180830381600087803b1580156131d357600080fd5b505af192505050801561320457506040513d601f19601f820116820180604052508101906132019190614032565b60015b613287573d8060008114613234576040519150601f19603f3d011682016040523d82523d6000602084013e613239565b606091505b5060008151141561327f576040517f08c379a0000000000000000000000000000000000000000000000000000000008152600401613276906146c9565b60405180910390fd5b805181602001fd5b63150b7a0260e01b7bffffffffffffffffffffffffffffffffffffffffffffffffffffffff1916817bffffffffffffffffffffffffffffffffffffffffffffffffffffffff1916149150506132dc565b600190505b949350505050565b60018054906101000a900460ff16613331576040517f08c379a000000000000000000000000000000000000000000000000000000000815260040161332890614865565b60405180910390fd5b81606690805190602001906133479291906139e2565b50806067908051906020019061335e9291906139e2565b505050565b61336d838361374f565b61337a600084848461314d565b6133b9576040517f08c379a00000000000000000000000000000000000000000000000000000000081526004016133b0906146c9565b60405180910390fd5b505050565b60007f01ffc9a7000000000000000000000000000000000000000000000000000000007bffffffffffffffffffffffffffffffffffffffffffffffffffffffff1916827bffffffffffffffffffffffffffffffffffffffffffffffffffffffff1916149050919050565b606061344e8273ffffffffffffffffffffffffffffffffffffffff16601460ff16613455565b9050919050565b6060600060028360026134689190614a57565b6134729190614a01565b67ffffffffffffffff8111156134b1577f4e487b7100000000000000000000000000000000000000000000000000000000600052604160045260246000fd5b6040519080825280601f01601f1916602001820160405280156134e35781602001600182028036833780820191505090505b5090507f300000000000000000000000000000000000000000000000000000000000000081600081518110613541577f4e487b7100000000000000000000000000000000000000000000000000000000600052603260045260246000fd5b60200101907effffffffffffffffffffffffffffffffffffffffffffffffffffffffffffff1916908160001a9053507f7800000000000000000000000000000000000000000000000000000000000000816001815181106135cb577f4e487b7100000000000000000000000000000000000000000000000000000000600052603260045260246000fd5b60200101907effffffffffffffffffffffffffffffffffffffffffffffffffffffffffffff1916908160001a9053506000600184600261360b9190614a57565b6136159190614a01565b90505b6001811115613701577f3031323334353637383961626364656600000000000000000000000000000000600f86166010811061367d577f4e487b7100000000000000000000000000000000000000000000000000000000600052603260045260246000fd5b1a60f81b8282815181106136ba577f4e487b7100000000000000000000000000000000000000000000000000000000600052603260045260246000fd5b60200101907effffffffffffffffffffffffffffffffffffffffffffffffffffffffffffff1916908160001a905350600485901c9450806136fa90614ba2565b9050613618565b5060008414613745576040517f08c379a000000000000000000000000000000000000000000000000000000000815260040161373c90614689565b60405180910390fd5b8091505092915050565b600073ffffffffffffffffffffffffffffffffffffffff168273ffffffffffffffffffffffffffffffffffffffff1614156137bf576040517f08c379a00000000000000000000000000000000000000000000000000000000081526004016137b6906147a9565b60405180910390fd5b6137c881612c81565b15613808576040517f08c379a00000000000000000000000000000000000000000000000000000000081526004016137ff90614709565b60405180910390fd5b613816600083836001612e47565b61381f81612c81565b1561385f576040517f08c379a000000000000000000000000000000000000000000000000000000000815260040161385690614709565b60405180910390fd5b6001606960008473ffffffffffffffffffffffffffffffffffffffff1673ffffffffffffffffffffffffffffffffffffffff16815260200190815260200160002060008282540192505081905550816068600083815260200190815260200160002060006101000a81548173ffffffffffffffffffffffffffffffffffffffff021916908373ffffffffffffffffffffffffffffffffffffffff160217905550808273ffffffffffffffffffffffffffffffffffffffff16600073ffffffffffffffffffffffffffffffffffffffff167fddf252ad1be2c89b69c2b068fc378daa952ba7f163c4a11628f55a4df523b3ef60405160405180910390a4613969600083836001612e4d565b5050565b50805461397990614bcc565b6000825580601f1061398b57506139aa565b601f0160209004906000526020600020908101906139a99190613aee565b5b50565b6040518060a001604052806000815260200160608152602001600060ff168152602001600060ff168152602001600081525090565b8280546139ee90614bcc565b90600052602060002090601f016020900481019282613a105760008555613a57565b82601f10613a2957805160ff1916838001178555613a57565b82800160010185558215613a57579182015b82811115613a56578251825591602001919060010190613a3b565b5b509050613a649190613aee565b5090565b828054613a7490614bcc565b90600052602060002090601f016020900481019282613a965760008555613add565b82601f10613aaf57803560ff1916838001178555613add565b82800160010185558215613add579182015b82811115613adc578235825591602001919060010190613ac1565b5b509050613aea9190613aee565b5090565b5b80821115613b07576000816000905550600101613aef565b5090565b6000613b1e613b198461497c565b614957565b905082815260208101848484011115613b3657600080fd5b613b41848285614b60565b509392505050565b600081359050613b5881615154565b92915050565b600081359050613b6d8161516b565b92915050565b600081359050613b8281615182565b92915050565b600081359050613b9781615199565b92915050565b600081519050613bac81615199565b92915050565b600082601f830112613bc357600080fd5b8135613bd3848260208601613b0b565b91505092915050565b60008083601f840112613bee57600080fd5b8235905067ffffffffffffffff811115613c0757600080fd5b602083019150836001820283011115613c1f57600080fd5b9250929050565b600081359050613c35816151b0565b92915050565b600081359050613c4a816151c7565b92915050565b600060208284031215613c6257600080fd5b6000613c7084828501613b49565b91505092915050565b60008060408385031215613c8c57600080fd5b6000613c9a85828601613b49565b9250506020613cab85828601613b49565b9150509250929050565b600080600060608486031215613cca57600080fd5b6000613cd886828701613b49565b9350506020613ce986828701613b49565b9250506040613cfa86828701613c26565b9150509250925092565b60008060008060808587031215613d1a57600080fd5b6000613d2887828801613b49565b9450506020613d3987828801613b49565b9350506040613d4a87828801613c26565b925050606085013567ffffffffffffffff811115613d6757600080fd5b613d7387828801613bb2565b91505092959194509250565b60008060408385031215613d9257600080fd5b6000613da085828601613b49565b9250506020613db185828601613b5e565b9150509250929050565b600080600060408486031215613dd057600080fd5b6000613dde86828701613b49565b935050602084013567ffffffffffffffff811115613dfb57600080fd5b613e0786828701613bdc565b92509250509250925092565b60008060008060008060a08789031215613e2c57600080fd5b6000613e3a89828a01613b49565b965050602087013567ffffffffffffffff811115613e5757600080fd5b613e6389828a01613bdc565b95509550506040613e7689828a01613c3b565b9350506060613e8789828a01613c3b565b9250506080613e9889828a01613c26565b9150509295509295509295565b60008060008060008060008060c0898b031215613ec157600080fd5b6000613ecf8b828c01613b49565b985050602089013567ffffffffffffffff811115613eec57600080fd5b613ef88b828c01613bdc565b97509750506040613f0b8b828c01613c3b565b9550506060613f1c8b828c01613c3b565b9450506080613f2d8b828c01613c26565b93505060a089013567ffffffffffffffff811115613f4a57600080fd5b613f568b828c01613bdc565b92509250509295985092959890939650565b60008060408385031215613f7b57600080fd5b6000613f8985828601613b49565b9250506020613f9a85828601613c26565b9150509250929050565b600060208284031215613fb657600080fd5b6000613fc484828501613b73565b91505092915050565b60008060408385031215613fe057600080fd5b6000613fee85828601613b73565b9250506020613fff85828601613b49565b9150509250929050565b60006020828403121561401b57600080fd5b600061402984828501613b88565b91505092915050565b60006020828403121561404457600080fd5b600061405284828501613b9d565b91505092915050565b60006020828403121561406d57600080fd5b600061407b84828501613c26565b91505092915050565b61408d81614ab1565b82525050565b61409c81614ac3565b82525050565b6140ab81614acf565b82525050565b60006140bc826149ad565b6140c681856149c3565b93506140d6818560208601614b6f565b6140df81614cbc565b840191505092915050565b6140f381614b3c565b82525050565b61410281614b4e565b82525050565b600061411483856149f6565b9350614121838584614b60565b82840190509392505050565b6000614138826149b8565b61414281856149d4565b9350614152818560208601614b6f565b61415b81614cbc565b840191505092915050565b6000614171826149b8565b61417b81856149e5565b935061418b818560208601614b6f565b61419481614cbc565b840191505092915050565b60006141aa826149b8565b6141b481856149f6565b93506141c4818560208601614b6f565b80840191505092915050565b60006141dd6020836149e5565b91506141e882614ccd565b602082019050919050565b60006142006006836149e5565b915061420b82614cf6565b602082019050919050565b6000614223602d836149e5565b915061422e82614d1f565b604082019050919050565b60006142466032836149e5565b915061425182614d6e565b604082019050919050565b60006142696025836149e5565b915061427482614dbd565b604082019050919050565b600061428c601c836149e5565b915061429782614e0c565b602082019050919050565b60006142af6024836149e5565b91506142ba82614e35565b604082019050919050565b60006142d26019836149e5565b91506142dd82614e84565b602082019050919050565b60006142f56029836149e5565b915061430082614ead565b604082019050919050565b6000614318602e836149e5565b915061432382614efc565b604082019050919050565b600061433b6020836149e5565b915061434682614f4b565b602082019050919050565b600061435e6008836149e5565b915061436982614f74565b602082019050919050565b60006143816018836149e5565b915061438c82614f9d565b602082019050919050565b60006143a46021836149e5565b91506143af82614fc6565b604082019050919050565b60006143c7603d836149e5565b91506143d282615015565b604082019050919050565b60006143ea602b836149e5565b91506143f582615064565b604082019050919050565b600061440d6017836149f6565b9150614418826150b3565b601782019050919050565b60006144306011836149f6565b915061443b826150dc565b601182019050919050565b6000614453602f836149e5565b915061445e82615105565b604082019050919050565b600060a08301600083015161448160008601826144df565b5060208301518482036020860152614499828261412d565b91505060408301516144ae60408601826144fd565b5060608301516144c160608601826144fd565b5060808301516144d460808601826144df565b508091505092915050565b6144e881614b25565b82525050565b6144f781614b25565b82525050565b61450681614b2f565b82525050565b61451581614b2f565b82525050565b6000614528828486614108565b91508190509392505050565b600061453f82614400565b915061454b828561419f565b915061455682614423565b9150614562828461419f565b91508190509392505050565b60006020820190506145836000830184614084565b92915050565b600060808201905061459e6000830187614084565b6145ab6020830186614084565b6145b860408301856144ee565b81810360608301526145ca81846140b1565b905095945050505050565b60006060820190506145ea6000830184614084565b81810360208301526145fb81614351565b9050818103604083015261460e816141f3565b905092915050565b600060208201905061462b6000830184614093565b92915050565b600060208201905061464660008301846140a2565b92915050565b600060208201905061466160008301846140f9565b92915050565b600060208201905081810360008301526146818184614166565b905092915050565b600060208201905081810360008301526146a2816141d0565b9050919050565b600060208201905081810360008301526146c281614216565b9050919050565b600060208201905081810360008301526146e281614239565b9050919050565b600060208201905081810360008301526147028161425c565b9050919050565b600060208201905081810360008301526147228161427f565b9050919050565b60006020820190508181036000830152614742816142a2565b9050919050565b60006020820190508181036000830152614762816142c5565b9050919050565b60006020820190508181036000830152614782816142e8565b9050919050565b600060208201905081810360008301526147a28161430b565b9050919050565b600060208201905081810360008301526147c28161432e565b9050919050565b600060608201905081810360008301526147e281614351565b90506147f16020830185614084565b6147fe60408301846140ea565b9392505050565b6000602082019050818103600083015261481e81614374565b9050919050565b6000602082019050818103600083015261483e81614397565b9050919050565b6000602082019050818103600083015261485e816143ba565b9050919050565b6000602082019050818103600083015261487e816143dd565b9050919050565b6000602082019050818103600083015261489e81614446565b9050919050565b600060208201905081810360008301526148bf8184614469565b905092915050565b60006020820190506148dc60008301846144ee565b92915050565b600060a0820190506148f760008301886144ee565b81810360208301526149098187614166565b9050614918604083018661450c565b614925606083018561450c565b61493260808301846144ee565b9695505050505050565b6000602082019050614951600083018461450c565b92915050565b6000614961614972565b905061496d8282614bfe565b919050565b6000604051905090565b600067ffffffffffffffff82111561499757614996614c8d565b5b6149a082614cbc565b9050602081019050919050565b600081519050919050565b600081519050919050565b600082825260208201905092915050565b600082825260208201905092915050565b600082825260208201905092915050565b600081905092915050565b6000614a0c82614b25565b9150614a1783614b25565b9250827fffffffffffffffffffffffffffffffffffffffffffffffffffffffffffffffff03821115614a4c57614a4b614c2f565b5b828201905092915050565b6000614a6282614b25565b9150614a6d83614b25565b9250817fffffffffffffffffffffffffffffffffffffffffffffffffffffffffffffffff0483118215151615614aa657614aa5614c2f565b5b828202905092915050565b6000614abc82614b05565b9050919050565b60008115159050919050565b6000819050919050565b60007fffffffff0000000000000000000000000000000000000000000000000000000082169050919050565b600073ffffffffffffffffffffffffffffffffffffffff82169050919050565b6000819050919050565b600060ff82169050919050565b6000614b4782614b25565b9050919050565b6000614b5982614b2f565b9050919050565b82818337600083830152505050565b60005b83811015614b8d578082015181840152602081019050614b72565b83811115614b9c576000848401525b50505050565b6000614bad82614b25565b91506000821415614bc157614bc0614c2f565b5b600182039050919050565b60006002820490506001821680614be457607f821691505b60208210811415614bf857614bf7614c5e565b5b50919050565b614c0782614cbc565b810181811067ffffffffffffffff82111715614c2657614c25614c8d565b5b80604052505050565b7f4e487b7100000000000000000000000000000000000000000000000000000000600052601160045260246000fd5b7f4e487b7100000000000000000000000000000000000000000000000000000000600052602260045260246000fd5b7f4e487b7100000000000000000000000000000000000000000000000000000000600052604160045260246000fd5b6000601f19601f8301169050919050565b7f537472696e67733a20686578206c656e67746820696e73756666696369656e74600082015250565b7f565443414c4c0000000000000000000000000000000000000000000000000000600082015250565b7f4552433732313a2063616c6c6572206973206e6f7420746f6b656e206f776e6560008201527f72206f7220617070726f76656400000000000000000000000000000000000000602082015250565b7f4552433732313a207472616e7366657220746f206e6f6e20455243373231526560008201527f63656976657220696d706c656d656e7465720000000000000000000000000000602082015250565b7f4552433732313a207472616e736665722066726f6d20696e636f72726563742060008201527f6f776e6572000000000000000000000000000000000000000000000000000000602082015250565b7f4552433732313a20746f6b656e20616c7265616479206d696e74656400000000600082015250565b7f4552433732313a207472616e7366657220746f20746865207a65726f2061646460008201527f7265737300000000000000000000000000000000000000000000000000000000602082015250565b7f4552433732313a20617070726f766520746f2063616c6c657200000000000000600082015250565b7f4552433732313a2061646472657373207a65726f206973206e6f74206120766160008201527f6c6964206f776e65720000000000000000000000000000000000000000000000602082015250565b7f496e697469616c697a61626c653a20636f6e747261637420697320616c72656160008201527f647920696e697469616c697a6564000000000000000000000000000000000000602082015250565b7f4552433732313a206d696e7420746f20746865207a65726f2061646472657373600082015250565b7f41444d494e4f5247000000000000000000000000000000000000000000000000600082015250565b7f4552433732313a20696e76616c696420746f6b656e2049440000000000000000600082015250565b7f4552433732313a20617070726f76616c20746f2063757272656e74206f776e6560008201527f7200000000000000000000000000000000000000000000000000000000000000602082015250565b7f4552433732313a20617070726f76652063616c6c6572206973206e6f7420746f60008201527f6b656e206f776e6572206f7220617070726f76656420666f7220616c6c000000602082015250565b7f496e697469616c697a61626c653a20636f6e7472616374206973206e6f74206960008201527f6e697469616c697a696e67000000000000000000000000000000000000000000602082015250565b7f416363657373436f6e74726f6c3a206163636f756e7420000000000000000000600082015250565b7f206973206d697373696e6720726f6c6520000000000000000000000000000000600082015250565b7f416363657373436f6e74726f6c3a2063616e206f6e6c792072656e6f756e636560008201527f20726f6c657320666f722073656c660000000000000000000000000000000000602082015250565b61515d81614ab1565b811461516857600080fd5b50565b61517481614ac3565b811461517f57600080fd5b50565b61518b81614acf565b811461519657600080fd5b50565b6151a281614ad9565b81146151ad57600080fd5b50565b6151b981614b25565b81146151c457600080fd5b50565b6151d081614b2f565b81146151db57600080fd5b5056fea26469706673582212204f655d915199e33c662075eb0aaaa8f960109f49e291d4eb21315a2880a1394564736f6c63430008020033","opcodes":"PUSH1 0x80 PUSH1 0x40 MSTORE CALLVALUE DUP1 ISZERO PUSH2 0x10 JUMPI PUSH1 0x0 DUP1 REVERT JUMPDEST POP PUSH2 0x5214 DUP1 PUSH2 0x20 PUSH1 0x0 CODECOPY PUSH1 0x0 RETURN INVALID PUSH1 0x80 PUSH1 0x40 MSTORE CALLVALUE DUP1 ISZERO PUSH2 0x10 JUMPI PUSH1 0x0 DUP1 REVERT JUMPDEST POP PUSH1 0x4 CALLDATASIZE LT PUSH2 0x21C JUMPI PUSH1 0x0 CALLDATALOAD PUSH1 0xE0 SHR DUP1 PUSH4 0x91D14854 GT PUSH2 0x125 JUMPI DUP1 PUSH4 0xC4D66DE8 GT PUSH2 0xAD JUMPI DUP1 PUSH4 0xDC9A4EF6 GT PUSH2 0x7C JUMPI DUP1 PUSH4 0xDC9A4EF6 EQ PUSH2 0x6BD JUMPI DUP1 PUSH4 0xDFB24B89 EQ PUSH2 0x6DB JUMPI DUP1 PUSH4 0xE86573E4 EQ PUSH2 0x70B JUMPI DUP1 PUSH4 0xE985E9C5 EQ PUSH2 0x727 JUMPI DUP1 PUSH4 0xF6A4B4D7 EQ PUSH2 0x757 JUMPI PUSH2 0x21C JUMP JUMPDEST DUP1 PUSH4 0xC4D66DE8 EQ PUSH2 0x639 JUMPI DUP1 PUSH4 0xC87B56DD EQ PUSH2 0x655 JUMPI DUP1 PUSH4 0xD4EC9096 EQ PUSH2 0x685 JUMPI DUP1 PUSH4 0xD547741F EQ PUSH2 0x6A1 JUMPI PUSH2 0x21C JUMP JUMPDEST DUP1 PUSH4 0xA217FDDF GT PUSH2 0xF4 JUMPI DUP1 PUSH4 0xA217FDDF EQ PUSH2 0x583 JUMPI DUP1 PUSH4 0xA22CB465 EQ PUSH2 0x5A1 JUMPI DUP1 PUSH4 0xB467177F EQ PUSH2 0x5BD JUMPI DUP1 PUSH4 0xB88D4FDE EQ PUSH2 0x5ED JUMPI DUP1 PUSH4 0xC207E9E0 EQ PUSH2 0x609 JUMPI PUSH2 0x21C JUMP JUMPDEST DUP1 PUSH4 0x91D14854 EQ PUSH2 0x4D5 JUMPI DUP1 PUSH4 0x949CDD6E EQ PUSH2 0x505 JUMPI DUP1 PUSH4 0x95D89B41 EQ PUSH2 0x535 JUMPI DUP1 PUSH4 0x96257E4D EQ PUSH2 0x553 JUMPI PUSH2 0x21C JUMP JUMPDEST DUP1 PUSH4 0x36568ABE GT PUSH2 0x1A8 JUMPI DUP1 PUSH4 0x6352211E GT PUSH2 0x177 JUMPI DUP1 PUSH4 0x6352211E EQ PUSH2 0x3F5 JUMPI DUP1 PUSH4 0x688EA9FE EQ PUSH2 0x425 JUMPI DUP1 PUSH4 0x6CA5FDE8 EQ PUSH2 0x459 JUMPI DUP1 PUSH4 0x70A08231 EQ PUSH2 0x489 JUMPI DUP1 PUSH4 0x80A5A896 EQ PUSH2 0x4B9 JUMPI PUSH2 0x21C JUMP JUMPDEST DUP1 PUSH4 0x36568ABE EQ PUSH2 0x383 JUMPI DUP1 PUSH4 0x3BC2C078 EQ PUSH2 0x39F JUMPI DUP1 PUSH4 0x42842E0E EQ PUSH2 0x3BB JUMPI DUP1 PUSH4 0x56189236 EQ PUSH2 0x3D7 JUMPI PUSH2 0x21C JUMP JUMPDEST DUP1 PUSH4 0x95EA7B3 GT PUSH2 0x1EF JUMPI DUP1 PUSH4 0x95EA7B3 EQ PUSH2 0x2CF JUMPI DUP1 PUSH4 0x1FE0094A EQ PUSH2 0x2EB JUMPI DUP1 PUSH4 0x23B872DD EQ PUSH2 0x31B JUMPI DUP1 PUSH4 0x248A9CA3 EQ PUSH2 0x337 JUMPI DUP1 PUSH4 0x2F2FF15D EQ PUSH2 0x367 JUMPI PUSH2 0x21C JUMP JUMPDEST DUP1 PUSH4 0x1FFC9A7 EQ PUSH2 0x221 JUMPI DUP1 PUSH4 0x6FDDE03 EQ PUSH2 0x251 JUMPI DUP1 PUSH4 0x81812FC EQ PUSH2 0x26F JUMPI DUP1 PUSH4 0x9299EA3 EQ PUSH2 0x29F JUMPI JUMPDEST PUSH1 0x0 DUP1 REVERT JUMPDEST PUSH2 0x23B PUSH1 0x4 DUP1 CALLDATASIZE SUB DUP2 ADD SWAP1 PUSH2 0x236 SWAP2 SWAP1 PUSH2 0x4009 JUMP JUMPDEST PUSH2 0x773 JUMP JUMPDEST PUSH1 0x40 MLOAD PUSH2 0x248 SWAP2 SWAP1 PUSH2 0x4616 JUMP JUMPDEST PUSH1 0x40 MLOAD DUP1 SWAP2 SUB SWAP1 RETURN JUMPDEST PUSH2 0x259 PUSH2 0x785 JUMP JUMPDEST PUSH1 0x40 MLOAD PUSH2 0x266 SWAP2 SWAP1 PUSH2 0x4667 JUMP JUMPDEST PUSH1 0x40 MLOAD DUP1 SWAP2 SUB SWAP1 RETURN JUMPDEST PUSH2 0x289 PUSH1 0x4 DUP1 CALLDATASIZE SUB DUP2 ADD SWAP1 PUSH2 0x284 SWAP2 SWAP1 PUSH2 0x405B JUMP JUMPDEST PUSH2 0x817 JUMP JUMPDEST PUSH1 0x40 MLOAD PUSH2 0x296 SWAP2 SWAP1 PUSH2 0x456E JUMP JUMPDEST PUSH1 0x40 MLOAD DUP1 SWAP2 SUB SWAP1 RETURN JUMPDEST PUSH2 0x2B9 PUSH1 0x4 DUP1 CALLDATASIZE SUB DUP2 ADD SWAP1 PUSH2 0x2B4 SWAP2 SWAP1 PUSH2 0x3C50 JUMP JUMPDEST PUSH2 0x85D JUMP JUMPDEST PUSH1 0x40 MLOAD PUSH2 0x2C6 SWAP2 SWAP1 PUSH2 0x48C7 JUMP JUMPDEST PUSH1 0x40 MLOAD DUP1 SWAP2 SUB SWAP1 RETURN JUMPDEST PUSH2 0x2E9 PUSH1 0x4 DUP1 CALLDATASIZE SUB DUP2 ADD SWAP1 PUSH2 0x2E4 SWAP2 SWAP1 PUSH2 0x3F68 JUMP JUMPDEST PUSH2 0x8A8 JUMP JUMPDEST STOP JUMPDEST PUSH2 0x305 PUSH1 0x4 DUP1 CALLDATASIZE SUB DUP2 ADD SWAP1 PUSH2 0x300 SWAP2 SWAP1 PUSH2 0x3C50 JUMP JUMPDEST PUSH2 0x9C0 JUMP JUMPDEST PUSH1 0x40 MLOAD PUSH2 0x312 SWAP2 SWAP1 PUSH2 0x493C JUMP JUMPDEST PUSH1 0x40 MLOAD DUP1 SWAP2 SUB SWAP1 RETURN JUMPDEST PUSH2 0x335 PUSH1 0x4 DUP1 CALLDATASIZE SUB DUP2 ADD SWAP1 PUSH2 0x330 SWAP2 SWAP1 PUSH2 0x3CB5 JUMP JUMPDEST PUSH2 0xAD2 JUMP JUMPDEST STOP JUMPDEST PUSH2 0x351 PUSH1 0x4 DUP1 CALLDATASIZE SUB DUP2 ADD SWAP1 PUSH2 0x34C SWAP2 SWAP1 PUSH2 0x3FA4 JUMP JUMPDEST PUSH2 0xB44 JUMP JUMPDEST PUSH1 0x40 MLOAD PUSH2 0x35E SWAP2 SWAP1 PUSH2 0x4631 JUMP JUMPDEST PUSH1 0x40 MLOAD DUP1 SWAP2 SUB SWAP1 RETURN JUMPDEST PUSH2 0x381 PUSH1 0x4 DUP1 CALLDATASIZE SUB DUP2 ADD SWAP1 PUSH2 0x37C SWAP2 SWAP1 PUSH2 0x3FCD JUMP JUMPDEST PUSH2 0xB64 JUMP JUMPDEST STOP JUMPDEST PUSH2 0x39D PUSH1 0x4 DUP1 CALLDATASIZE SUB DUP2 ADD SWAP1 PUSH2 0x398 SWAP2 SWAP1 PUSH2 0x3FCD JUMP JUMPDEST PUSH2 0xB85 JUMP JUMPDEST STOP JUMPDEST PUSH2 0x3B9 PUSH1 0x4 DUP1 CALLDATASIZE SUB DUP2 ADD SWAP1 PUSH2 0x3B4 SWAP2 SWAP1 PUSH2 0x3DBB JUMP JUMPDEST PUSH2 0xC08 JUMP JUMPDEST STOP JUMPDEST PUSH2 0x3D5 PUSH1 0x4 DUP1 CALLDATASIZE SUB DUP2 ADD SWAP1 PUSH2 0x3D0 SWAP2 SWAP1 PUSH2 0x3CB5 JUMP JUMPDEST PUSH2 0xDFB JUMP JUMPDEST STOP JUMPDEST PUSH2 0x3DF PUSH2 0xE6D JUMP JUMPDEST PUSH1 0x40 MLOAD PUSH2 0x3EC SWAP2 SWAP1 PUSH2 0x48C7 JUMP JUMPDEST PUSH1 0x40 MLOAD DUP1 SWAP2 SUB SWAP1 RETURN JUMPDEST PUSH2 0x40F PUSH1 0x4 DUP1 CALLDATASIZE SUB DUP2 ADD SWAP1 PUSH2 0x40A SWAP2 SWAP1 PUSH2 0x405B JUMP JUMPDEST PUSH2 0xE7E JUMP JUMPDEST PUSH1 0x40 MLOAD PUSH2 0x41C SWAP2 SWAP1 PUSH2 0x456E JUMP JUMPDEST PUSH1 0x40 MLOAD DUP1 SWAP2 SUB SWAP1 RETURN JUMPDEST PUSH2 0x43F PUSH1 0x4 DUP1 CALLDATASIZE SUB DUP2 ADD SWAP1 PUSH2 0x43A SWAP2 SWAP1 PUSH2 0x3C50 JUMP JUMPDEST PUSH2 0xF05 JUMP JUMPDEST PUSH1 0x40 MLOAD PUSH2 0x450 SWAP6 SWAP5 SWAP4 SWAP3 SWAP2 SWAP1 PUSH2 0x48E2 JUMP JUMPDEST PUSH1 0x40 MLOAD DUP1 SWAP2 SUB SWAP1 RETURN JUMPDEST PUSH2 0x473 PUSH1 0x4 DUP1 CALLDATASIZE SUB DUP2 ADD SWAP1 PUSH2 0x46E SWAP2 SWAP1 PUSH2 0x3C50 JUMP JUMPDEST PUSH2 0xFDD JUMP JUMPDEST PUSH1 0x40 MLOAD PUSH2 0x480 SWAP2 SWAP1 PUSH2 0x48A5 JUMP JUMPDEST PUSH1 0x40 MLOAD DUP1 SWAP2 SUB SWAP1 RETURN JUMPDEST PUSH2 0x4A3 PUSH1 0x4 DUP1 CALLDATASIZE SUB DUP2 ADD SWAP1 PUSH2 0x49E SWAP2 SWAP1 PUSH2 0x3C50 JUMP JUMPDEST PUSH2 0x1115 JUMP JUMPDEST PUSH1 0x40 MLOAD PUSH2 0x4B0 SWAP2 SWAP1 PUSH2 0x48C7 JUMP JUMPDEST PUSH1 0x40 MLOAD DUP1 SWAP2 SUB SWAP1 RETURN JUMPDEST PUSH2 0x4D3 PUSH1 0x4 DUP1 CALLDATASIZE SUB DUP2 ADD SWAP1 PUSH2 0x4CE SWAP2 SWAP1 PUSH2 0x3DBB JUMP JUMPDEST PUSH2 0x11CD JUMP JUMPDEST STOP JUMPDEST PUSH2 0x4EF PUSH1 0x4 DUP1 CALLDATASIZE SUB DUP2 ADD SWAP1 PUSH2 0x4EA SWAP2 SWAP1 PUSH2 0x3FCD JUMP JUMPDEST PUSH2 0x12E8 JUMP JUMPDEST PUSH1 0x40 MLOAD PUSH2 0x4FC SWAP2 SWAP1 PUSH2 0x4616 JUMP JUMPDEST PUSH1 0x40 MLOAD DUP1 SWAP2 SUB SWAP1 RETURN JUMPDEST PUSH2 0x51F PUSH1 0x4 DUP1 CALLDATASIZE SUB DUP2 ADD SWAP1 PUSH2 0x51A SWAP2 SWAP1 PUSH2 0x3C50 JUMP JUMPDEST PUSH2 0x1353 JUMP JUMPDEST PUSH1 0x40 MLOAD PUSH2 0x52C SWAP2 SWAP1 PUSH2 0x493C JUMP JUMPDEST PUSH1 0x40 MLOAD DUP1 SWAP2 SUB SWAP1 RETURN JUMPDEST PUSH2 0x53D PUSH2 0x1465 JUMP JUMPDEST PUSH1 0x40 MLOAD PUSH2 0x54A SWAP2 SWAP1 PUSH2 0x4667 JUMP JUMPDEST PUSH1 0x40 MLOAD DUP1 SWAP2 SUB SWAP1 RETURN JUMPDEST PUSH2 0x56D PUSH1 0x4 DUP1 CALLDATASIZE SUB DUP2 ADD SWAP1 PUSH2 0x568 SWAP2 SWAP1 PUSH2 0x3C50 JUMP JUMPDEST PUSH2 0x14F7 JUMP JUMPDEST PUSH1 0x40 MLOAD PUSH2 0x57A SWAP2 SWAP1 PUSH2 0x4667 JUMP JUMPDEST PUSH1 0x40 MLOAD DUP1 SWAP2 SUB SWAP1 RETURN JUMPDEST PUSH2 0x58B PUSH2 0x1684 JUMP JUMPDEST PUSH1 0x40 MLOAD PUSH2 0x598 SWAP2 SWAP1 PUSH2 0x4631 JUMP JUMPDEST PUSH1 0x40 MLOAD DUP1 SWAP2 SUB SWAP1 RETURN JUMPDEST PUSH2 0x5BB PUSH1 0x4 DUP1 CALLDATASIZE SUB DUP2 ADD SWAP1 PUSH2 0x5B6 SWAP2 SWAP1 PUSH2 0x3D7F JUMP JUMPDEST PUSH2 0x168B JUMP JUMPDEST STOP JUMPDEST PUSH2 0x5D7 PUSH1 0x4 DUP1 CALLDATASIZE SUB DUP2 ADD SWAP1 PUSH2 0x5D2 SWAP2 SWAP1 PUSH2 0x3C50 JUMP JUMPDEST PUSH2 0x16A1 JUMP JUMPDEST PUSH1 0x40 MLOAD PUSH2 0x5E4 SWAP2 SWAP1 PUSH2 0x493C JUMP JUMPDEST PUSH1 0x40 MLOAD DUP1 SWAP2 SUB SWAP1 RETURN JUMPDEST PUSH2 0x607 PUSH1 0x4 DUP1 CALLDATASIZE SUB DUP2 ADD SWAP1 PUSH2 0x602 SWAP2 SWAP1 PUSH2 0x3D04 JUMP JUMPDEST PUSH2 0x16F9 JUMP JUMPDEST STOP JUMPDEST PUSH2 0x623 PUSH1 0x4 DUP1 CALLDATASIZE SUB DUP2 ADD SWAP1 PUSH2 0x61E SWAP2 SWAP1 PUSH2 0x3C50 JUMP JUMPDEST PUSH2 0x175B JUMP JUMPDEST PUSH1 0x40 MLOAD PUSH2 0x630 SWAP2 SWAP1 PUSH2 0x493C JUMP JUMPDEST PUSH1 0x40 MLOAD DUP1 SWAP2 SUB SWAP1 RETURN JUMPDEST PUSH2 0x653 PUSH1 0x4 DUP1 CALLDATASIZE SUB DUP2 ADD SWAP1 PUSH2 0x64E SWAP2 SWAP1 PUSH2 0x3C50 JUMP JUMPDEST PUSH2 0x17B3 JUMP JUMPDEST STOP JUMPDEST PUSH2 0x66F PUSH1 0x4 DUP1 CALLDATASIZE SUB DUP2 ADD SWAP1 PUSH2 0x66A SWAP2 SWAP1 PUSH2 0x405B JUMP JUMPDEST PUSH2 0x19E8 JUMP JUMPDEST PUSH1 0x40 MLOAD PUSH2 0x67C SWAP2 SWAP1 PUSH2 0x4667 JUMP JUMPDEST PUSH1 0x40 MLOAD DUP1 SWAP2 SUB SWAP1 RETURN JUMPDEST PUSH2 0x69F PUSH1 0x4 DUP1 CALLDATASIZE SUB DUP2 ADD SWAP1 PUSH2 0x69A SWAP2 SWAP1 PUSH2 0x3EA5 JUMP JUMPDEST PUSH2 0x1B0E JUMP JUMPDEST STOP JUMPDEST PUSH2 0x6BB PUSH1 0x4 DUP1 CALLDATASIZE SUB DUP2 ADD SWAP1 PUSH2 0x6B6 SWAP2 SWAP1 PUSH2 0x3FCD JUMP JUMPDEST PUSH2 0x1EC2 JUMP JUMPDEST STOP JUMPDEST PUSH2 0x6C5 PUSH2 0x1EE3 JUMP JUMPDEST PUSH1 0x40 MLOAD PUSH2 0x6D2 SWAP2 SWAP1 PUSH2 0x4631 JUMP JUMPDEST PUSH1 0x40 MLOAD DUP1 SWAP2 SUB SWAP1 RETURN JUMPDEST PUSH2 0x6F5 PUSH1 0x4 DUP1 CALLDATASIZE SUB DUP2 ADD SWAP1 PUSH2 0x6F0 SWAP2 SWAP1 PUSH2 0x3C50 JUMP JUMPDEST PUSH2 0x1F07 JUMP JUMPDEST PUSH1 0x40 MLOAD PUSH2 0x702 SWAP2 SWAP1 PUSH2 0x4667 JUMP JUMPDEST PUSH1 0x40 MLOAD DUP1 SWAP2 SUB SWAP1 RETURN JUMPDEST PUSH2 0x725 PUSH1 0x4 DUP1 CALLDATASIZE SUB DUP2 ADD SWAP1 PUSH2 0x720 SWAP2 SWAP1 PUSH2 0x3E13 JUMP JUMPDEST PUSH2 0x1FDA JUMP JUMPDEST STOP JUMPDEST PUSH2 0x741 PUSH1 0x4 DUP1 CALLDATASIZE SUB DUP2 ADD SWAP1 PUSH2 0x73C SWAP2 SWAP1 PUSH2 0x3C79 JUMP JUMPDEST PUSH2 0x2241 JUMP JUMPDEST PUSH1 0x40 MLOAD PUSH2 0x74E SWAP2 SWAP1 PUSH2 0x4616 JUMP JUMPDEST PUSH1 0x40 MLOAD DUP1 SWAP2 SUB SWAP1 RETURN JUMPDEST PUSH2 0x771 PUSH1 0x4 DUP1 CALLDATASIZE SUB DUP2 ADD SWAP1 PUSH2 0x76C SWAP2 SWAP1 PUSH2 0x3DBB JUMP JUMPDEST PUSH2 0x22D5 JUMP JUMPDEST STOP JUMPDEST PUSH1 0x0 PUSH2 0x77E DUP3 PUSH2 0x244A JUMP JUMPDEST SWAP1 POP SWAP2 SWAP1 POP JUMP JUMPDEST PUSH1 0x60 PUSH1 0x66 DUP1 SLOAD PUSH2 0x794 SWAP1 PUSH2 0x4BCC JUMP JUMPDEST DUP1 PUSH1 0x1F ADD PUSH1 0x20 DUP1 SWAP2 DIV MUL PUSH1 0x20 ADD PUSH1 0x40 MLOAD SWAP1 DUP2 ADD PUSH1 0x40 MSTORE DUP1 SWAP3 SWAP2 SWAP1 DUP2 DUP2 MSTORE PUSH1 0x20 ADD DUP3 DUP1 SLOAD PUSH2 0x7C0 SWAP1 PUSH2 0x4BCC JUMP JUMPDEST DUP1 ISZERO PUSH2 0x80D JUMPI DUP1 PUSH1 0x1F LT PUSH2 0x7E2 JUMPI PUSH2 0x100 DUP1 DUP4 SLOAD DIV MUL DUP4 MSTORE SWAP2 PUSH1 0x20 ADD SWAP2 PUSH2 0x80D JUMP JUMPDEST DUP3 ADD SWAP2 SWAP1 PUSH1 0x0 MSTORE PUSH1 0x20 PUSH1 0x0 KECCAK256 SWAP1 JUMPDEST DUP2 SLOAD DUP2 MSTORE SWAP1 PUSH1 0x1 ADD SWAP1 PUSH1 0x20 ADD DUP1 DUP4 GT PUSH2 0x7F0 JUMPI DUP3 SWAP1 SUB PUSH1 0x1F AND DUP3 ADD SWAP2 JUMPDEST POP POP POP POP POP SWAP1 POP SWAP1 JUMP JUMPDEST PUSH1 0x0 PUSH2 0x822 DUP3 PUSH2 0x24C4 JUMP JUMPDEST PUSH1 0x6A PUSH1 0x0 DUP4 DUP2 MSTORE PUSH1 0x20 ADD SWAP1 DUP2 MSTORE PUSH1 0x20 ADD PUSH1 0x0 KECCAK256 PUSH1 0x0 SWAP1 SLOAD SWAP1 PUSH2 0x100 EXP SWAP1 DIV PUSH20 0xFFFFFFFFFFFFFFFFFFFFFFFFFFFFFFFFFFFFFFFF AND SWAP1 POP SWAP2 SWAP1 POP JUMP JUMPDEST PUSH1 0x0 DUP1 PUSH1 0x0 DUP4 PUSH20 0xFFFFFFFFFFFFFFFFFFFFFFFFFFFFFFFFFFFFFFFF AND PUSH20 0xFFFFFFFFFFFFFFFFFFFFFFFFFFFFFFFFFFFFFFFF AND DUP2 MSTORE PUSH1 0x20 ADD SWAP1 DUP2 MSTORE PUSH1 0x20 ADD PUSH1 0x0 KECCAK256 PUSH1 0x3 ADD SLOAD SWAP1 POP SWAP2 SWAP1 POP JUMP JUMPDEST PUSH1 0x0 PUSH2 0x8B3 DUP3 PUSH2 0xE7E JUMP JUMPDEST SWAP1 POP DUP1 PUSH20 0xFFFFFFFFFFFFFFFFFFFFFFFFFFFFFFFFFFFFFFFF AND DUP4 PUSH20 0xFFFFFFFFFFFFFFFFFFFFFFFFFFFFFFFFFFFFFFFF AND EQ ISZERO PUSH2 0x924 JUMPI PUSH1 0x40 MLOAD PUSH32 0x8C379A000000000000000000000000000000000000000000000000000000000 DUP2 MSTORE PUSH1 0x4 ADD PUSH2 0x91B SWAP1 PUSH2 0x4825 JUMP JUMPDEST PUSH1 0x40 MLOAD DUP1 SWAP2 SUB SWAP1 REVERT JUMPDEST DUP1 PUSH20 0xFFFFFFFFFFFFFFFFFFFFFFFFFFFFFFFFFFFFFFFF AND PUSH2 0x943 PUSH2 0x250F JUMP JUMPDEST PUSH20 0xFFFFFFFFFFFFFFFFFFFFFFFFFFFFFFFFFFFFFFFF AND EQ DUP1 PUSH2 0x972 JUMPI POP PUSH2 0x971 DUP2 PUSH2 0x96C PUSH2 0x250F JUMP JUMPDEST PUSH2 0x2241 JUMP JUMPDEST JUMPDEST PUSH2 0x9B1 JUMPI PUSH1 0x40 MLOAD PUSH32 0x8C379A000000000000000000000000000000000000000000000000000000000 DUP2 MSTORE PUSH1 0x4 ADD PUSH2 0x9A8 SWAP1 PUSH2 0x4845 JUMP JUMPDEST PUSH1 0x40 MLOAD DUP1 SWAP2 SUB SWAP1 REVERT JUMPDEST PUSH2 0x9BB DUP4 DUP4 PUSH2 0x2517 JUMP JUMPDEST POP POP POP JUMP JUMPDEST PUSH1 0x0 DUP1 PUSH1 0x0 DUP4 PUSH20 0xFFFFFFFFFFFFFFFFFFFFFFFFFFFFFFFFFFFFFFFF AND PUSH20 0xFFFFFFFFFFFFFFFFFFFFFFFFFFFFFFFFFFFFFFFF AND DUP2 MSTORE PUSH1 0x20 ADD SWAP1 DUP2 MSTORE PUSH1 0x20 ADD PUSH1 0x0 KECCAK256 PUSH1 0x3 ADD SLOAD TIMESTAMP LT PUSH2 0xA7C JUMPI PUSH1 0x40 MLOAD DUP1 PUSH1 0x40 ADD PUSH1 0x40 MSTORE DUP1 PUSH1 0x3 DUP2 MSTORE PUSH1 0x20 ADD PUSH32 0x3130330000000000000000000000000000000000000000000000000000000000 DUP2 MSTORE POP PUSH1 0x40 MLOAD PUSH32 0x8C379A000000000000000000000000000000000000000000000000000000000 DUP2 MSTORE PUSH1 0x4 ADD PUSH2 0xA73 SWAP2 SWAP1 PUSH2 0x4667 JUMP JUMPDEST PUSH1 0x40 MLOAD DUP1 SWAP2 SUB SWAP1 REVERT JUMPDEST PUSH1 0x0 DUP1 DUP4 PUSH20 0xFFFFFFFFFFFFFFFFFFFFFFFFFFFFFFFFFFFFFFFF AND PUSH20 0xFFFFFFFFFFFFFFFFFFFFFFFFFFFFFFFFFFFFFFFF AND DUP2 MSTORE PUSH1 0x20 ADD SWAP1 DUP2 MSTORE PUSH1 0x20 ADD PUSH1 0x0 KECCAK256 PUSH1 0x2 ADD PUSH1 0x0 SWAP1 SLOAD SWAP1 PUSH2 0x100 EXP SWAP1 DIV PUSH1 0xFF AND SWAP1 POP SWAP2 SWAP1 POP JUMP JUMPDEST PUSH1 0x40 MLOAD DUP1 PUSH1 0x40 ADD PUSH1 0x40 MSTORE DUP1 PUSH1 0x3 DUP2 MSTORE PUSH1 0x20 ADD PUSH32 0x3130320000000000000000000000000000000000000000000000000000000000 DUP2 MSTORE POP PUSH1 0x40 MLOAD PUSH32 0x8C379A000000000000000000000000000000000000000000000000000000000 DUP2 MSTORE PUSH1 0x4 ADD PUSH2 0xB3B SWAP2 SWAP1 PUSH2 0x4667 JUMP JUMPDEST PUSH1 0x40 MLOAD DUP1 SWAP2 SUB SWAP1 REVERT JUMPDEST PUSH1 0x0 PUSH1 0x98 PUSH1 0x0 DUP4 DUP2 MSTORE PUSH1 0x20 ADD SWAP1 DUP2 MSTORE PUSH1 0x20 ADD PUSH1 0x0 KECCAK256 PUSH1 0x1 ADD SLOAD SWAP1 POP SWAP2 SWAP1 POP JUMP JUMPDEST PUSH2 0xB6D DUP3 PUSH2 0xB44 JUMP JUMPDEST PUSH2 0xB76 DUP2 PUSH2 0x25D0 JUMP JUMPDEST PUSH2 0xB80 DUP4 DUP4 PUSH2 0x25E4 JUMP JUMPDEST POP POP POP JUMP JUMPDEST PUSH2 0xB8D PUSH2 0x250F JUMP JUMPDEST PUSH20 0xFFFFFFFFFFFFFFFFFFFFFFFFFFFFFFFFFFFFFFFF AND DUP2 PUSH20 0xFFFFFFFFFFFFFFFFFFFFFFFFFFFFFFFFFFFFFFFF AND EQ PUSH2 0xBFA JUMPI PUSH1 0x40 MLOAD PUSH32 0x8C379A000000000000000000000000000000000000000000000000000000000 DUP2 MSTORE PUSH1 0x4 ADD PUSH2 0xBF1 SWAP1 PUSH2 0x4885 JUMP JUMPDEST PUSH1 0x40 MLOAD DUP1 SWAP2 SUB SWAP1 REVERT JUMPDEST PUSH2 0xC04 DUP3 DUP3 PUSH2 0x26C5 JUMP JUMPDEST POP POP JUMP JUMPDEST PUSH32 0x60044782A422109AC08A415E44260AD5D3BAD63D96EBE1FAC0363399642EE3F2 PUSH2 0xC32 DUP2 PUSH2 0x25D0 JUMP JUMPDEST PUSH1 0xCB PUSH1 0x0 SWAP1 SLOAD SWAP1 PUSH2 0x100 EXP SWAP1 DIV PUSH20 0xFFFFFFFFFFFFFFFFFFFFFFFFFFFFFFFFFFFFFFFF AND PUSH20 0xFFFFFFFFFFFFFFFFFFFFFFFFFFFFFFFFFFFFFFFF AND PUSH4 0x84B7A84A DUP6 PUSH1 0x1 PUSH1 0x40 MLOAD DUP4 PUSH4 0xFFFFFFFF AND PUSH1 0xE0 SHL DUP2 MSTORE PUSH1 0x4 ADD PUSH2 0xC90 SWAP3 SWAP2 SWAP1 PUSH2 0x47C9 JUMP JUMPDEST PUSH1 0x0 PUSH1 0x40 MLOAD DUP1 DUP4 SUB DUP2 PUSH1 0x0 DUP8 DUP1 EXTCODESIZE ISZERO DUP1 ISZERO PUSH2 0xCAA JUMPI PUSH1 0x0 DUP1 REVERT JUMPDEST POP GAS CALL ISZERO DUP1 ISZERO PUSH2 0xCBE JUMPI RETURNDATASIZE PUSH1 0x0 DUP1 RETURNDATACOPY RETURNDATASIZE PUSH1 0x0 REVERT JUMPDEST POP POP POP POP PUSH1 0x0 PUSH1 0xCC PUSH1 0x0 DUP7 PUSH20 0xFFFFFFFFFFFFFFFFFFFFFFFFFFFFFFFFFFFFFFFF AND PUSH20 0xFFFFFFFFFFFFFFFFFFFFFFFFFFFFFFFFFFFFFFFF AND DUP2 MSTORE PUSH1 0x20 ADD SWAP1 DUP2 MSTORE PUSH1 0x20 ADD PUSH1 0x0 KECCAK256 SLOAD SWAP1 POP PUSH2 0xD0F DUP2 PUSH2 0x27A7 JUMP JUMPDEST PUSH1 0x0 DUP1 DUP7 PUSH20 0xFFFFFFFFFFFFFFFFFFFFFFFFFFFFFFFFFFFFFFFF AND PUSH20 0xFFFFFFFFFFFFFFFFFFFFFFFFFFFFFFFFFFFFFFFF AND DUP2 MSTORE PUSH1 0x20 ADD SWAP1 DUP2 MSTORE PUSH1 0x20 ADD PUSH1 0x0 KECCAK256 PUSH1 0x0 DUP1 DUP3 ADD PUSH1 0x0 SWAP1 SSTORE PUSH1 0x1 DUP3 ADD PUSH1 0x0 PUSH2 0xD66 SWAP2 SWAP1 PUSH2 0x396D JUMP JUMPDEST PUSH1 0x2 DUP3 ADD PUSH1 0x0 PUSH2 0x100 EXP DUP2 SLOAD SWAP1 PUSH1 0xFF MUL NOT AND SWAP1 SSTORE PUSH1 0x2 DUP3 ADD PUSH1 0x1 PUSH2 0x100 EXP DUP2 SLOAD SWAP1 PUSH1 0xFF MUL NOT AND SWAP1 SSTORE PUSH1 0x3 DUP3 ADD PUSH1 0x0 SWAP1 SSTORE POP POP DUP4 DUP4 PUSH1 0x40 MLOAD PUSH2 0xDA8 SWAP3 SWAP2 SWAP1 PUSH2 0x451B JUMP JUMPDEST PUSH1 0x40 MLOAD DUP1 SWAP2 SUB SWAP1 KECCAK256 DUP2 DUP7 PUSH20 0xFFFFFFFFFFFFFFFFFFFFFFFFFFFFFFFFFFFFFFFF AND PUSH32 0x8B09FC40032762AEBF578CD9202B2548559CBAC190B3807076418620EF05518F PUSH1 0x40 MLOAD PUSH1 0x40 MLOAD DUP1 SWAP2 SUB SWAP1 LOG4 POP POP POP POP POP JUMP JUMPDEST PUSH1 0x40 MLOAD DUP1 PUSH1 0x40 ADD PUSH1 0x40 MSTORE DUP1 PUSH1 0x3 DUP2 MSTORE PUSH1 0x20 ADD PUSH32 0x3130320000000000000000000000000000000000000000000000000000000000 DUP2 MSTORE POP PUSH1 0x40 MLOAD PUSH32 0x8C379A000000000000000000000000000000000000000000000000000000000 DUP2 MSTORE PUSH1 0x4 ADD PUSH2 0xE64 SWAP2 SWAP1 PUSH2 0x4667 JUMP JUMPDEST PUSH1 0x40 MLOAD DUP1 SWAP2 SUB SWAP1 REVERT JUMPDEST PUSH1 0x0 PUSH2 0xE79 PUSH1 0xCA PUSH2 0x28F5 JUMP JUMPDEST SWAP1 POP SWAP1 JUMP JUMPDEST PUSH1 0x0 DUP1 PUSH2 0xE8A DUP4 PUSH2 0x2903 JUMP JUMPDEST SWAP1 POP PUSH1 0x0 PUSH20 0xFFFFFFFFFFFFFFFFFFFFFFFFFFFFFFFFFFFFFFFF AND DUP2 PUSH20 0xFFFFFFFFFFFFFFFFFFFFFFFFFFFFFFFFFFFFFFFF AND EQ ISZERO PUSH2 0xEFC JUMPI PUSH1 0x40 MLOAD PUSH32 0x8C379A000000000000000000000000000000000000000000000000000000000 DUP2 MSTORE PUSH1 0x4 ADD PUSH2 0xEF3 SWAP1 PUSH2 0x4805 JUMP JUMPDEST PUSH1 0x40 MLOAD DUP1 SWAP2 SUB SWAP1 REVERT JUMPDEST DUP1 SWAP2 POP POP SWAP2 SWAP1 POP JUMP JUMPDEST PUSH1 0x0 PUSH1 0x20 MSTORE DUP1 PUSH1 0x0 MSTORE PUSH1 0x40 PUSH1 0x0 KECCAK256 PUSH1 0x0 SWAP2 POP SWAP1 POP DUP1 PUSH1 0x0 ADD SLOAD SWAP1 DUP1 PUSH1 0x1 ADD DUP1 SLOAD PUSH2 0xF2E SWAP1 PUSH2 0x4BCC JUMP JUMPDEST DUP1 PUSH1 0x1F ADD PUSH1 0x20 DUP1 SWAP2 DIV MUL PUSH1 0x20 ADD PUSH1 0x40 MLOAD SWAP1 DUP2 ADD PUSH1 0x40 MSTORE DUP1 SWAP3 SWAP2 SWAP1 DUP2 DUP2 MSTORE PUSH1 0x20 ADD DUP3 DUP1 SLOAD PUSH2 0xF5A SWAP1 PUSH2 0x4BCC JUMP JUMPDEST DUP1 ISZERO PUSH2 0xFA7 JUMPI DUP1 PUSH1 0x1F LT PUSH2 0xF7C JUMPI PUSH2 0x100 DUP1 DUP4 SLOAD DIV MUL DUP4 MSTORE SWAP2 PUSH1 0x20 ADD SWAP2 PUSH2 0xFA7 JUMP JUMPDEST DUP3 ADD SWAP2 SWAP1 PUSH1 0x0 MSTORE PUSH1 0x20 PUSH1 0x0 KECCAK256 SWAP1 JUMPDEST DUP2 SLOAD DUP2 MSTORE SWAP1 PUSH1 0x1 ADD SWAP1 PUSH1 0x20 ADD DUP1 DUP4 GT PUSH2 0xF8A JUMPI DUP3 SWAP1 SUB PUSH1 0x1F AND DUP3 ADD SWAP2 JUMPDEST POP POP POP POP POP SWAP1 DUP1 PUSH1 0x2 ADD PUSH1 0x0 SWAP1 SLOAD SWAP1 PUSH2 0x100 EXP SWAP1 DIV PUSH1 0xFF AND SWAP1 DUP1 PUSH1 0x2 ADD PUSH1 0x1 SWAP1 SLOAD SWAP1 PUSH2 0x100 EXP SWAP1 DIV PUSH1 0xFF AND SWAP1 DUP1 PUSH1 0x3 ADD SLOAD SWAP1 POP DUP6 JUMP JUMPDEST PUSH2 0xFE5 PUSH2 0x39AD JUMP JUMPDEST PUSH1 0x0 DUP1 DUP4 PUSH20 0xFFFFFFFFFFFFFFFFFFFFFFFFFFFFFFFFFFFFFFFF AND PUSH20 0xFFFFFFFFFFFFFFFFFFFFFFFFFFFFFFFFFFFFFFFF AND DUP2 MSTORE PUSH1 0x20 ADD SWAP1 DUP2 MSTORE PUSH1 0x20 ADD PUSH1 0x0 KECCAK256 PUSH1 0x40 MLOAD DUP1 PUSH1 0xA0 ADD PUSH1 0x40 MSTORE SWAP1 DUP2 PUSH1 0x0 DUP3 ADD SLOAD DUP2 MSTORE PUSH1 0x20 ADD PUSH1 0x1 DUP3 ADD DUP1 SLOAD PUSH2 0x1048 SWAP1 PUSH2 0x4BCC JUMP JUMPDEST DUP1 PUSH1 0x1F ADD PUSH1 0x20 DUP1 SWAP2 DIV MUL PUSH1 0x20 ADD PUSH1 0x40 MLOAD SWAP1 DUP2 ADD PUSH1 0x40 MSTORE DUP1 SWAP3 SWAP2 SWAP1 DUP2 DUP2 MSTORE PUSH1 0x20 ADD DUP3 DUP1 SLOAD PUSH2 0x1074 SWAP1 PUSH2 0x4BCC JUMP JUMPDEST DUP1 ISZERO PUSH2 0x10C1 JUMPI DUP1 PUSH1 0x1F LT PUSH2 0x1096 JUMPI PUSH2 0x100 DUP1 DUP4 SLOAD DIV MUL DUP4 MSTORE SWAP2 PUSH1 0x20 ADD SWAP2 PUSH2 0x10C1 JUMP JUMPDEST DUP3 ADD SWAP2 SWAP1 PUSH1 0x0 MSTORE PUSH1 0x20 PUSH1 0x0 KECCAK256 SWAP1 JUMPDEST DUP2 SLOAD DUP2 MSTORE SWAP1 PUSH1 0x1 ADD SWAP1 PUSH1 0x20 ADD DUP1 DUP4 GT PUSH2 0x10A4 JUMPI DUP3 SWAP1 SUB PUSH1 0x1F AND DUP3 ADD SWAP2 JUMPDEST POP POP POP POP POP DUP2 MSTORE PUSH1 0x20 ADD PUSH1 0x2 DUP3 ADD PUSH1 0x0 SWAP1 SLOAD SWAP1 PUSH2 0x100 EXP SWAP1 DIV PUSH1 0xFF AND PUSH1 0xFF AND PUSH1 0xFF AND DUP2 MSTORE PUSH1 0x20 ADD PUSH1 0x2 DUP3 ADD PUSH1 0x1 SWAP1 SLOAD SWAP1 PUSH2 0x100 EXP SWAP1 DIV PUSH1 0xFF AND PUSH1 0xFF AND PUSH1 0xFF AND DUP2 MSTORE PUSH1 0x20 ADD PUSH1 0x3 DUP3 ADD SLOAD DUP2 MSTORE POP POP SWAP1 POP SWAP2 SWAP1 POP JUMP JUMPDEST PUSH1 0x0 DUP1 PUSH20 0xFFFFFFFFFFFFFFFFFFFFFFFFFFFFFFFFFFFFFFFF AND DUP3 PUSH20 0xFFFFFFFFFFFFFFFFFFFFFFFFFFFFFFFFFFFFFFFF AND EQ ISZERO PUSH2 0x1186 JUMPI PUSH1 0x40 MLOAD PUSH32 0x8C379A000000000000000000000000000000000000000000000000000000000 DUP2 MSTORE PUSH1 0x4 ADD PUSH2 0x117D SWAP1 PUSH2 0x4769 JUMP JUMPDEST PUSH1 0x40 MLOAD DUP1 SWAP2 SUB SWAP1 REVERT JUMPDEST PUSH1 0x69 PUSH1 0x0 DUP4 PUSH20 0xFFFFFFFFFFFFFFFFFFFFFFFFFFFFFFFFFFFFFFFF AND PUSH20 0xFFFFFFFFFFFFFFFFFFFFFFFFFFFFFFFFFFFFFFFF AND DUP2 MSTORE PUSH1 0x20 ADD SWAP1 DUP2 MSTORE PUSH1 0x20 ADD PUSH1 0x0 KECCAK256 SLOAD SWAP1 POP SWAP2 SWAP1 POP JUMP JUMPDEST PUSH32 0x60044782A422109AC08A415E44260AD5D3BAD63D96EBE1FAC0363399642EE3F2 PUSH2 0x11F7 DUP2 PUSH2 0x25D0 JUMP JUMPDEST PUSH1 0xCB PUSH1 0x0 SWAP1 SLOAD SWAP1 PUSH2 0x100 EXP SWAP1 DIV PUSH20 0xFFFFFFFFFFFFFFFFFFFFFFFFFFFFFFFFFFFFFFFF AND PUSH20 0xFFFFFFFFFFFFFFFFFFFFFFFFFFFFFFFFFFFFFFFF AND PUSH4 0x84B7A84A DUP6 PUSH1 0x1 PUSH1 0x40 MLOAD DUP4 PUSH4 0xFFFFFFFF AND PUSH1 0xE0 SHL DUP2 MSTORE PUSH1 0x4 ADD PUSH2 0x1255 SWAP3 SWAP2 SWAP1 PUSH2 0x47C9 JUMP JUMPDEST PUSH1 0x0 PUSH1 0x40 MLOAD DUP1 DUP4 SUB DUP2 PUSH1 0x0 DUP8 DUP1 EXTCODESIZE ISZERO DUP1 ISZERO PUSH2 0x126F JUMPI PUSH1 0x0 DUP1 REVERT JUMPDEST POP GAS CALL ISZERO DUP1 ISZERO PUSH2 0x1283 JUMPI RETURNDATASIZE PUSH1 0x0 DUP1 RETURNDATACOPY RETURNDATASIZE PUSH1 0x0 REVERT JUMPDEST POP POP POP POP DUP3 DUP3 PUSH1 0x40 MLOAD PUSH2 0x1297 SWAP3 SWAP2 SWAP1 PUSH2 0x451B JUMP JUMPDEST PUSH1 0x40 MLOAD DUP1 SWAP2 SUB SWAP1 KECCAK256 DUP5 PUSH20 0xFFFFFFFFFFFFFFFFFFFFFFFFFFFFFFFFFFFFFFFF AND PUSH32 0x3347B0049117AB94FDDF6CFF81CC554C4F7489ACEDC7C33907A96655770E58AE PUSH1 0x40 MLOAD PUSH1 0x40 MLOAD DUP1 SWAP2 SUB SWAP1 LOG3 POP POP POP POP JUMP JUMPDEST PUSH1 0x0 PUSH1 0x98 PUSH1 0x0 DUP5 DUP2 MSTORE PUSH1 0x20 ADD SWAP1 DUP2 MSTORE PUSH1 0x20 ADD PUSH1 0x0 KECCAK256 PUSH1 0x0 ADD PUSH1 0x0 DUP4 PUSH20 0xFFFFFFFFFFFFFFFFFFFFFFFFFFFFFFFFFFFFFFFF AND PUSH20 0xFFFFFFFFFFFFFFFFFFFFFFFFFFFFFFFFFFFFFFFF AND DUP2 MSTORE PUSH1 0x20 ADD SWAP1 DUP2 MSTORE PUSH1 0x20 ADD PUSH1 0x0 KECCAK256 PUSH1 0x0 SWAP1 SLOAD SWAP1 PUSH2 0x100 EXP SWAP1 DIV PUSH1 0xFF AND SWAP1 POP SWAP3 SWAP2 POP POP JUMP JUMPDEST PUSH1 0x0 DUP1 PUSH1 0x0 DUP4 PUSH20 0xFFFFFFFFFFFFFFFFFFFFFFFFFFFFFFFFFFFFFFFF AND PUSH20 0xFFFFFFFFFFFFFFFFFFFFFFFFFFFFFFFFFFFFFFFF AND DUP2 MSTORE PUSH1 0x20 ADD SWAP1 DUP2 MSTORE PUSH1 0x20 ADD PUSH1 0x0 KECCAK256 PUSH1 0x3 ADD SLOAD TIMESTAMP LT PUSH2 0x140F JUMPI PUSH1 0x40 MLOAD DUP1 PUSH1 0x40 ADD PUSH1 0x40 MSTORE DUP1 PUSH1 0x3 DUP2 MSTORE PUSH1 0x20 ADD PUSH32 0x3130330000000000000000000000000000000000000000000000000000000000 DUP2 MSTORE POP PUSH1 0x40 MLOAD PUSH32 0x8C379A000000000000000000000000000000000000000000000000000000000 DUP2 MSTORE PUSH1 0x4 ADD PUSH2 0x1406 SWAP2 SWAP1 PUSH2 0x4667 JUMP JUMPDEST PUSH1 0x40 MLOAD DUP1 SWAP2 SUB SWAP1 REVERT JUMPDEST PUSH1 0x0 DUP1 DUP4 PUSH20 0xFFFFFFFFFFFFFFFFFFFFFFFFFFFFFFFFFFFFFFFF AND PUSH20 0xFFFFFFFFFFFFFFFFFFFFFFFFFFFFFFFFFFFFFFFF AND DUP2 MSTORE PUSH1 0x20 ADD SWAP1 DUP2 MSTORE PUSH1 0x20 ADD PUSH1 0x0 KECCAK256 PUSH1 0x2 ADD PUSH1 0x1 SWAP1 SLOAD SWAP1 PUSH2 0x100 EXP SWAP1 DIV PUSH1 0xFF AND SWAP1 POP SWAP2 SWAP1 POP JUMP JUMPDEST PUSH1 0x60 PUSH1 0x67 DUP1 SLOAD PUSH2 0x1474 SWAP1 PUSH2 0x4BCC JUMP JUMPDEST DUP1 PUSH1 0x1F ADD PUSH1 0x20 DUP1 SWAP2 DIV MUL PUSH1 0x20 ADD PUSH1 0x40 MLOAD SWAP1 DUP2 ADD PUSH1 0x40 MSTORE DUP1 SWAP3 SWAP2 SWAP1 DUP2 DUP2 MSTORE PUSH1 0x20 ADD DUP3 DUP1 SLOAD PUSH2 0x14A0 SWAP1 PUSH2 0x4BCC JUMP JUMPDEST DUP1 ISZERO PUSH2 0x14ED JUMPI DUP1 PUSH1 0x1F LT PUSH2 0x14C2 JUMPI PUSH2 0x100 DUP1 DUP4 SLOAD DIV MUL DUP4 MSTORE SWAP2 PUSH1 0x20 ADD SWAP2 PUSH2 0x14ED JUMP JUMPDEST DUP3 ADD SWAP2 SWAP1 PUSH1 0x0 MSTORE PUSH1 0x20 PUSH1 0x0 KECCAK256 SWAP1 JUMPDEST DUP2 SLOAD DUP2 MSTORE SWAP1 PUSH1 0x1 ADD SWAP1 PUSH1 0x20 ADD DUP1 DUP4 GT PUSH2 0x14D0 JUMPI DUP3 SWAP1 SUB PUSH1 0x1F AND DUP3 ADD SWAP2 JUMPDEST POP POP POP POP POP SWAP1 POP SWAP1 JUMP JUMPDEST PUSH1 0x60 PUSH1 0x0 DUP1 DUP4 PUSH20 0xFFFFFFFFFFFFFFFFFFFFFFFFFFFFFFFFFFFFFFFF AND PUSH20 0xFFFFFFFFFFFFFFFFFFFFFFFFFFFFFFFFFFFFFFFF AND DUP2 MSTORE PUSH1 0x20 ADD SWAP1 DUP2 MSTORE PUSH1 0x20 ADD PUSH1 0x0 KECCAK256 PUSH1 0x3 ADD SLOAD TIMESTAMP LT PUSH2 0x15B3 JUMPI PUSH1 0x40 MLOAD DUP1 PUSH1 0x40 ADD PUSH1 0x40 MSTORE DUP1 PUSH1 0x3 DUP2 MSTORE PUSH1 0x20 ADD PUSH32 0x3130330000000000000000000000000000000000000000000000000000000000 DUP2 MSTORE POP PUSH1 0x40 MLOAD PUSH32 0x8C379A000000000000000000000000000000000000000000000000000000000 DUP2 MSTORE PUSH1 0x4 ADD PUSH2 0x15AA SWAP2 SWAP1 PUSH2 0x4667 JUMP JUMPDEST PUSH1 0x40 MLOAD DUP1 SWAP2 SUB SWAP1 REVERT JUMPDEST PUSH1 0x0 DUP1 DUP4 PUSH20 0xFFFFFFFFFFFFFFFFFFFFFFFFFFFFFFFFFFFFFFFF AND PUSH20 0xFFFFFFFFFFFFFFFFFFFFFFFFFFFFFFFFFFFFFFFF AND DUP2 MSTORE PUSH1 0x20 ADD SWAP1 DUP2 MSTORE PUSH1 0x20 ADD PUSH1 0x0 KECCAK256 PUSH1 0x1 ADD DUP1 SLOAD PUSH2 0x15FF SWAP1 PUSH2 0x4BCC JUMP JUMPDEST DUP1 PUSH1 0x1F ADD PUSH1 0x20 DUP1 SWAP2 DIV MUL PUSH1 0x20 ADD PUSH1 0x40 MLOAD SWAP1 DUP2 ADD PUSH1 0x40 MSTORE DUP1 SWAP3 SWAP2 SWAP1 DUP2 DUP2 MSTORE PUSH1 0x20 ADD DUP3 DUP1 SLOAD PUSH2 0x162B SWAP1 PUSH2 0x4BCC JUMP JUMPDEST DUP1 ISZERO PUSH2 0x1678 JUMPI DUP1 PUSH1 0x1F LT PUSH2 0x164D JUMPI PUSH2 0x100 DUP1 DUP4 SLOAD DIV MUL DUP4 MSTORE SWAP2 PUSH1 0x20 ADD SWAP2 PUSH2 0x1678 JUMP JUMPDEST DUP3 ADD SWAP2 SWAP1 PUSH1 0x0 MSTORE PUSH1 0x20 PUSH1 0x0 KECCAK256 SWAP1 JUMPDEST DUP2 SLOAD DUP2 MSTORE SWAP1 PUSH1 0x1 ADD SWAP1 PUSH1 0x20 ADD DUP1 DUP4 GT PUSH2 0x165B JUMPI DUP3 SWAP1 SUB PUSH1 0x1F AND DUP3 ADD SWAP2 JUMPDEST POP POP POP POP POP SWAP1 POP SWAP2 SWAP1 POP JUMP JUMPDEST PUSH1 0x0 DUP1 SHL DUP2 JUMP JUMPDEST PUSH2 0x169D PUSH2 0x1696 PUSH2 0x250F JUMP JUMPDEST DUP4 DUP4 PUSH2 0x2940 JUMP JUMPDEST POP POP JUMP JUMPDEST PUSH1 0x0 DUP1 PUSH1 0x0 DUP4 PUSH20 0xFFFFFFFFFFFFFFFFFFFFFFFFFFFFFFFFFFFFFFFF AND PUSH20 0xFFFFFFFFFFFFFFFFFFFFFFFFFFFFFFFFFFFFFFFF AND DUP2 MSTORE PUSH1 0x20 ADD SWAP1 DUP2 MSTORE PUSH1 0x20 ADD PUSH1 0x0 KECCAK256 PUSH1 0x2 ADD PUSH1 0x0 SWAP1 SLOAD SWAP1 PUSH2 0x100 EXP SWAP1 DIV PUSH1 0xFF AND SWAP1 POP SWAP2 SWAP1 POP JUMP JUMPDEST PUSH2 0x170A PUSH2 0x1704 PUSH2 0x250F JUMP JUMPDEST DUP4 PUSH2 0x2AAD JUMP JUMPDEST PUSH2 0x1749 JUMPI PUSH1 0x40 MLOAD PUSH32 0x8C379A000000000000000000000000000000000000000000000000000000000 DUP2 MSTORE PUSH1 0x4 ADD PUSH2 0x1740 SWAP1 PUSH2 0x46A9 JUMP JUMPDEST PUSH1 0x40 MLOAD DUP1 SWAP2 SUB SWAP1 REVERT JUMPDEST PUSH2 0x1755 DUP5 DUP5 DUP5 DUP5 PUSH2 0x2B42 JUMP JUMPDEST POP POP POP POP JUMP JUMPDEST PUSH1 0x0 DUP1 PUSH1 0x0 DUP4 PUSH20 0xFFFFFFFFFFFFFFFFFFFFFFFFFFFFFFFFFFFFFFFF AND PUSH20 0xFFFFFFFFFFFFFFFFFFFFFFFFFFFFFFFFFFFFFFFF AND DUP2 MSTORE PUSH1 0x20 ADD SWAP1 DUP2 MSTORE PUSH1 0x20 ADD PUSH1 0x0 KECCAK256 PUSH1 0x2 ADD PUSH1 0x1 SWAP1 SLOAD SWAP1 PUSH2 0x100 EXP SWAP1 DIV PUSH1 0xFF AND SWAP1 POP SWAP2 SWAP1 POP JUMP JUMPDEST PUSH1 0x0 PUSH1 0x1 DUP1 SLOAD SWAP1 PUSH2 0x100 EXP SWAP1 DIV PUSH1 0xFF AND ISZERO SWAP1 POP DUP1 DUP1 ISZERO PUSH2 0x17E4 JUMPI POP PUSH1 0x1 DUP1 PUSH1 0x0 SWAP1 SLOAD SWAP1 PUSH2 0x100 EXP SWAP1 DIV PUSH1 0xFF AND PUSH1 0xFF AND LT JUMPDEST DUP1 PUSH2 0x1812 JUMPI POP PUSH2 0x17F3 ADDRESS PUSH2 0x2B9E JUMP JUMPDEST ISZERO DUP1 ISZERO PUSH2 0x1811 JUMPI POP PUSH1 0x1 DUP1 PUSH1 0x0 SWAP1 SLOAD SWAP1 PUSH2 0x100 EXP SWAP1 DIV PUSH1 0xFF AND PUSH1 0xFF AND EQ JUMPDEST JUMPDEST PUSH2 0x1851 JUMPI PUSH1 0x40 MLOAD PUSH32 0x8C379A000000000000000000000000000000000000000000000000000000000 DUP2 MSTORE PUSH1 0x4 ADD PUSH2 0x1848 SWAP1 PUSH2 0x4789 JUMP JUMPDEST PUSH1 0x40 MLOAD DUP1 SWAP2 SUB SWAP1 REVERT JUMPDEST PUSH1 0x1 DUP1 PUSH1 0x0 PUSH2 0x100 EXP DUP2 SLOAD DUP2 PUSH1 0xFF MUL NOT AND SWAP1 DUP4 PUSH1 0xFF AND MUL OR SWAP1 SSTORE POP DUP1 ISZERO PUSH2 0x188D JUMPI PUSH1 0x1 DUP1 PUSH1 0x1 PUSH2 0x100 EXP DUP2 SLOAD DUP2 PUSH1 0xFF MUL NOT AND SWAP1 DUP4 ISZERO ISZERO MUL OR SWAP1 SSTORE POP JUMPDEST PUSH2 0x1895 PUSH2 0x2BC1 JUMP JUMPDEST PUSH2 0x1909 PUSH1 0x40 MLOAD DUP1 PUSH1 0x40 ADD PUSH1 0x40 MSTORE DUP1 PUSH1 0x11 DUP2 MSTORE PUSH1 0x20 ADD PUSH32 0x50726F6F66206F66204964656E74697479000000000000000000000000000000 DUP2 MSTORE POP PUSH1 0x40 MLOAD DUP1 PUSH1 0x40 ADD PUSH1 0x40 MSTORE DUP1 PUSH1 0x5 DUP2 MSTORE PUSH1 0x20 ADD PUSH32 0x48312D4944000000000000000000000000000000000000000000000000000000 DUP2 MSTORE POP PUSH2 0x2C10 JUMP JUMPDEST DUP2 PUSH1 0xCB PUSH1 0x0 PUSH2 0x100 EXP DUP2 SLOAD DUP2 PUSH20 0xFFFFFFFFFFFFFFFFFFFFFFFFFFFFFFFFFFFFFFFF MUL NOT AND SWAP1 DUP4 PUSH20 0xFFFFFFFFFFFFFFFFFFFFFFFFFFFFFFFFFFFFFFFF AND MUL OR SWAP1 SSTORE POP PUSH2 0x1974 PUSH32 0x60044782A422109AC08A415E44260AD5D3BAD63D96EBE1FAC0363399642EE3F2 CALLER PUSH2 0x25E4 JUMP JUMPDEST PUSH2 0x1981 PUSH1 0x0 DUP1 SHL CALLER PUSH2 0x25E4 JUMP JUMPDEST PUSH2 0x198B PUSH1 0xCA PUSH2 0x2C6B JUMP JUMPDEST DUP1 ISZERO PUSH2 0x19E4 JUMPI PUSH1 0x0 PUSH1 0x1 DUP1 PUSH2 0x100 EXP DUP2 SLOAD DUP2 PUSH1 0xFF MUL NOT AND SWAP1 DUP4 ISZERO ISZERO MUL OR SWAP1 SSTORE POP PUSH32 0x7F26B83FF96E1F2B6A682F133852F6798A09C465DA95921460CEFB3847402498 PUSH1 0x1 PUSH1 0x40 MLOAD PUSH2 0x19DB SWAP2 SWAP1 PUSH2 0x464C JUMP JUMPDEST PUSH1 0x40 MLOAD DUP1 SWAP2 SUB SWAP1 LOG1 JUMPDEST POP POP JUMP JUMPDEST PUSH1 0x60 PUSH2 0x19F3 DUP3 PUSH2 0x2C81 JUMP JUMPDEST PUSH1 0x40 MLOAD DUP1 PUSH1 0x40 ADD PUSH1 0x40 MSTORE DUP1 PUSH1 0x3 DUP2 MSTORE PUSH1 0x20 ADD PUSH32 0x3130310000000000000000000000000000000000000000000000000000000000 DUP2 MSTORE POP SWAP1 PUSH2 0x1A6A JUMPI PUSH1 0x40 MLOAD PUSH32 0x8C379A000000000000000000000000000000000000000000000000000000000 DUP2 MSTORE PUSH1 0x4 ADD PUSH2 0x1A61 SWAP2 SWAP1 PUSH2 0x4667 JUMP JUMPDEST PUSH1 0x40 MLOAD DUP1 SWAP2 SUB SWAP1 REVERT JUMPDEST POP PUSH1 0xCD PUSH1 0x0 DUP4 DUP2 MSTORE PUSH1 0x20 ADD SWAP1 DUP2 MSTORE PUSH1 0x20 ADD PUSH1 0x0 KECCAK256 DUP1 SLOAD PUSH2 0x1A89 SWAP1 PUSH2 0x4BCC JUMP JUMPDEST DUP1 PUSH1 0x1F ADD PUSH1 0x20 DUP1 SWAP2 DIV MUL PUSH1 0x20 ADD PUSH1 0x40 MLOAD SWAP1 DUP2 ADD PUSH1 0x40 MSTORE DUP1 SWAP3 SWAP2 SWAP1 DUP2 DUP2 MSTORE PUSH1 0x20 ADD DUP3 DUP1 SLOAD PUSH2 0x1AB5 SWAP1 PUSH2 0x4BCC JUMP JUMPDEST DUP1 ISZERO PUSH2 0x1B02 JUMPI DUP1 PUSH1 0x1F LT PUSH2 0x1AD7 JUMPI PUSH2 0x100 DUP1 DUP4 SLOAD DIV MUL DUP4 MSTORE SWAP2 PUSH1 0x20 ADD SWAP2 PUSH2 0x1B02 JUMP JUMPDEST DUP3 ADD SWAP2 SWAP1 PUSH1 0x0 MSTORE PUSH1 0x20 PUSH1 0x0 KECCAK256 SWAP1 JUMPDEST DUP2 SLOAD DUP2 MSTORE SWAP1 PUSH1 0x1 ADD SWAP1 PUSH1 0x20 ADD DUP1 DUP4 GT PUSH2 0x1AE5 JUMPI DUP3 SWAP1 SUB PUSH1 0x1F AND DUP3 ADD SWAP2 JUMPDEST POP POP POP POP POP SWAP1 POP SWAP2 SWAP1 POP JUMP JUMPDEST PUSH32 0x60044782A422109AC08A415E44260AD5D3BAD63D96EBE1FAC0363399642EE3F2 PUSH2 0x1B38 DUP2 PUSH2 0x25D0 JUMP JUMPDEST PUSH1 0x0 PUSH2 0x1B43 DUP11 PUSH2 0x1115 JUMP JUMPDEST EQ PUSH1 0x40 MLOAD DUP1 PUSH1 0x40 ADD PUSH1 0x40 MSTORE DUP1 PUSH1 0x3 DUP2 MSTORE PUSH1 0x20 ADD PUSH32 0x3130300000000000000000000000000000000000000000000000000000000000 DUP2 MSTORE POP SWAP1 PUSH2 0x1BBB JUMPI PUSH1 0x40 MLOAD PUSH32 0x8C379A000000000000000000000000000000000000000000000000000000000 DUP2 MSTORE PUSH1 0x4 ADD PUSH2 0x1BB2 SWAP2 SWAP1 PUSH2 0x4667 JUMP JUMPDEST PUSH1 0x40 MLOAD DUP1 SWAP2 SUB SWAP1 REVERT JUMPDEST POP TIMESTAMP DUP5 GT PUSH1 0x40 MLOAD DUP1 PUSH1 0x40 ADD PUSH1 0x40 MSTORE DUP1 PUSH1 0x3 DUP2 MSTORE PUSH1 0x20 ADD PUSH32 0x3130330000000000000000000000000000000000000000000000000000000000 DUP2 MSTORE POP SWAP1 PUSH2 0x1C36 JUMPI PUSH1 0x40 MLOAD PUSH32 0x8C379A000000000000000000000000000000000000000000000000000000000 DUP2 MSTORE PUSH1 0x4 ADD PUSH2 0x1C2D SWAP2 SWAP1 PUSH2 0x4667 JUMP JUMPDEST PUSH1 0x40 MLOAD DUP1 SWAP2 SUB SWAP1 REVERT JUMPDEST POP PUSH1 0x0 PUSH2 0x1C43 PUSH1 0xCA PUSH2 0x28F5 JUMP JUMPDEST SWAP1 POP PUSH1 0x40 MLOAD DUP1 PUSH1 0xA0 ADD PUSH1 0x40 MSTORE DUP1 DUP3 DUP2 MSTORE PUSH1 0x20 ADD DUP11 DUP11 DUP1 DUP1 PUSH1 0x1F ADD PUSH1 0x20 DUP1 SWAP2 DIV MUL PUSH1 0x20 ADD PUSH1 0x40 MLOAD SWAP1 DUP2 ADD PUSH1 0x40 MSTORE DUP1 SWAP4 SWAP3 SWAP2 SWAP1 DUP2 DUP2 MSTORE PUSH1 0x20 ADD DUP4 DUP4 DUP1 DUP3 DUP5 CALLDATACOPY PUSH1 0x0 DUP2 DUP5 ADD MSTORE PUSH1 0x1F NOT PUSH1 0x1F DUP3 ADD AND SWAP1 POP DUP1 DUP4 ADD SWAP3 POP POP POP POP POP POP POP DUP2 MSTORE PUSH1 0x20 ADD DUP9 PUSH1 0xFF AND DUP2 MSTORE PUSH1 0x20 ADD DUP8 PUSH1 0xFF AND DUP2 MSTORE PUSH1 0x20 ADD DUP7 DUP2 MSTORE POP PUSH1 0x0 DUP1 DUP13 PUSH20 0xFFFFFFFFFFFFFFFFFFFFFFFFFFFFFFFFFFFFFFFF AND PUSH20 0xFFFFFFFFFFFFFFFFFFFFFFFFFFFFFFFFFFFFFFFF AND DUP2 MSTORE PUSH1 0x20 ADD SWAP1 DUP2 MSTORE PUSH1 0x20 ADD PUSH1 0x0 KECCAK256 PUSH1 0x0 DUP3 ADD MLOAD DUP2 PUSH1 0x0 ADD SSTORE PUSH1 0x20 DUP3 ADD MLOAD DUP2 PUSH1 0x1 ADD SWAP1 DUP1 MLOAD SWAP1 PUSH1 0x20 ADD SWAP1 PUSH2 0x1D1A SWAP3 SWAP2 SWAP1 PUSH2 0x39E2 JUMP JUMPDEST POP PUSH1 0x40 DUP3 ADD MLOAD DUP2 PUSH1 0x2 ADD PUSH1 0x0 PUSH2 0x100 EXP DUP2 SLOAD DUP2 PUSH1 0xFF MUL NOT AND SWAP1 DUP4 PUSH1 0xFF AND MUL OR SWAP1 SSTORE POP PUSH1 0x60 DUP3 ADD MLOAD DUP2 PUSH1 0x2 ADD PUSH1 0x1 PUSH2 0x100 EXP DUP2 SLOAD DUP2 PUSH1 0xFF MUL NOT AND SWAP1 DUP4 PUSH1 0xFF AND MUL OR SWAP1 SSTORE POP PUSH1 0x80 DUP3 ADD MLOAD DUP2 PUSH1 0x3 ADD SSTORE SWAP1 POP POP PUSH2 0x1D74 PUSH1 0xCA PUSH2 0x2C6B JUMP JUMPDEST PUSH2 0x1D7E DUP11 DUP3 PUSH2 0x2CC2 JUMP JUMPDEST DUP4 DUP4 PUSH1 0xCD PUSH1 0x0 DUP5 DUP2 MSTORE PUSH1 0x20 ADD SWAP1 DUP2 MSTORE PUSH1 0x20 ADD PUSH1 0x0 KECCAK256 SWAP2 SWAP1 PUSH2 0x1DA0 SWAP3 SWAP2 SWAP1 PUSH2 0x3A68 JUMP JUMPDEST POP DUP1 PUSH1 0xCC PUSH1 0x0 DUP13 PUSH20 0xFFFFFFFFFFFFFFFFFFFFFFFFFFFFFFFFFFFFFFFF AND PUSH20 0xFFFFFFFFFFFFFFFFFFFFFFFFFFFFFFFFFFFFFFFF AND DUP2 MSTORE PUSH1 0x20 ADD SWAP1 DUP2 MSTORE PUSH1 0x20 ADD PUSH1 0x0 KECCAK256 DUP2 SWAP1 SSTORE POP PUSH1 0xCB PUSH1 0x0 SWAP1 SLOAD SWAP1 PUSH2 0x100 EXP SWAP1 DIV PUSH20 0xFFFFFFFFFFFFFFFFFFFFFFFFFFFFFFFFFFFFFFFF AND PUSH20 0xFFFFFFFFFFFFFFFFFFFFFFFFFFFFFFFFFFFFFFFF AND PUSH4 0x2F7F0A12 DUP12 PUSH1 0x40 MLOAD DUP3 PUSH4 0xFFFFFFFF AND PUSH1 0xE0 SHL DUP2 MSTORE PUSH1 0x4 ADD PUSH2 0x1E40 SWAP2 SWAP1 PUSH2 0x45D5 JUMP JUMPDEST PUSH1 0x0 PUSH1 0x40 MLOAD DUP1 DUP4 SUB DUP2 PUSH1 0x0 DUP8 DUP1 EXTCODESIZE ISZERO DUP1 ISZERO PUSH2 0x1E5A JUMPI PUSH1 0x0 DUP1 REVERT JUMPDEST POP GAS CALL ISZERO DUP1 ISZERO PUSH2 0x1E6E JUMPI RETURNDATASIZE PUSH1 0x0 DUP1 RETURNDATACOPY RETURNDATASIZE PUSH1 0x0 REVERT JUMPDEST POP POP POP POP DUP1 DUP11 PUSH20 0xFFFFFFFFFFFFFFFFFFFFFFFFFFFFFFFFFFFFFFFF AND PUSH32 0xAF62702571AA2959CC884D2D2F058F2DDE9F91F8CB7B5A5C62887EC1AEF856E7 PUSH1 0x40 MLOAD PUSH1 0x40 MLOAD DUP1 SWAP2 SUB SWAP1 LOG3 POP POP POP POP POP POP POP POP POP POP JUMP JUMPDEST PUSH2 0x1ECB DUP3 PUSH2 0xB44 JUMP JUMPDEST PUSH2 0x1ED4 DUP2 PUSH2 0x25D0 JUMP JUMPDEST PUSH2 0x1EDE DUP4 DUP4 PUSH2 0x26C5 JUMP JUMPDEST POP POP POP JUMP JUMPDEST PUSH32 0x60044782A422109AC08A415E44260AD5D3BAD63D96EBE1FAC0363399642EE3F2 DUP2 JUMP JUMPDEST PUSH1 0x60 PUSH1 0x0 DUP1 DUP4 PUSH20 0xFFFFFFFFFFFFFFFFFFFFFFFFFFFFFFFFFFFFFFFF AND PUSH20 0xFFFFFFFFFFFFFFFFFFFFFFFFFFFFFFFFFFFFFFFF AND DUP2 MSTORE PUSH1 0x20 ADD SWAP1 DUP2 MSTORE PUSH1 0x20 ADD PUSH1 0x0 KECCAK256 PUSH1 0x1 ADD DUP1 SLOAD PUSH2 0x1F55 SWAP1 PUSH2 0x4BCC JUMP JUMPDEST DUP1 PUSH1 0x1F ADD PUSH1 0x20 DUP1 SWAP2 DIV MUL PUSH1 0x20 ADD PUSH1 0x40 MLOAD SWAP1 DUP2 ADD PUSH1 0x40 MSTORE DUP1 SWAP3 SWAP2 SWAP1 DUP2 DUP2 MSTORE PUSH1 0x20 ADD DUP3 DUP1 SLOAD PUSH2 0x1F81 SWAP1 PUSH2 0x4BCC JUMP JUMPDEST DUP1 ISZERO PUSH2 0x1FCE JUMPI DUP1 PUSH1 0x1F LT PUSH2 0x1FA3 JUMPI PUSH2 0x100 DUP1 DUP4 SLOAD DIV MUL DUP4 MSTORE SWAP2 PUSH1 0x20 ADD SWAP2 PUSH2 0x1FCE JUMP JUMPDEST DUP3 ADD SWAP2 SWAP1 PUSH1 0x0 MSTORE PUSH1 0x20 PUSH1 0x0 KECCAK256 SWAP1 JUMPDEST DUP2 SLOAD DUP2 MSTORE SWAP1 PUSH1 0x1 ADD SWAP1 PUSH1 0x20 ADD DUP1 DUP4 GT PUSH2 0x1FB1 JUMPI DUP3 SWAP1 SUB PUSH1 0x1F AND DUP3 ADD SWAP2 JUMPDEST POP POP POP POP POP SWAP1 POP SWAP2 SWAP1 POP JUMP JUMPDEST PUSH32 0x60044782A422109AC08A415E44260AD5D3BAD63D96EBE1FAC0363399642EE3F2 PUSH2 0x2004 DUP2 PUSH2 0x25D0 JUMP JUMPDEST PUSH1 0x1 PUSH2 0x200F DUP9 PUSH2 0x1115 JUMP JUMPDEST EQ PUSH1 0x40 MLOAD DUP1 PUSH1 0x40 ADD PUSH1 0x40 MSTORE DUP1 PUSH1 0x3 DUP2 MSTORE PUSH1 0x20 ADD PUSH32 0x3130310000000000000000000000000000000000000000000000000000000000 DUP2 MSTORE POP SWAP1 PUSH2 0x2087 JUMPI PUSH1 0x40 MLOAD PUSH32 0x8C379A000000000000000000000000000000000000000000000000000000000 DUP2 MSTORE PUSH1 0x4 ADD PUSH2 0x207E SWAP2 SWAP1 PUSH2 0x4667 JUMP JUMPDEST PUSH1 0x40 MLOAD DUP1 SWAP2 SUB SWAP1 REVERT JUMPDEST POP PUSH1 0x0 DUP1 PUSH1 0x0 DUP10 PUSH20 0xFFFFFFFFFFFFFFFFFFFFFFFFFFFFFFFFFFFFFFFF AND PUSH20 0xFFFFFFFFFFFFFFFFFFFFFFFFFFFFFFFFFFFFFFFF AND DUP2 MSTORE PUSH1 0x20 ADD SWAP1 DUP2 MSTORE PUSH1 0x20 ADD PUSH1 0x0 KECCAK256 PUSH1 0x0 ADD SLOAD SWAP1 POP PUSH1 0x40 MLOAD DUP1 PUSH1 0xA0 ADD PUSH1 0x40 MSTORE DUP1 DUP3 DUP2 MSTORE PUSH1 0x20 ADD DUP9 DUP9 DUP1 DUP1 PUSH1 0x1F ADD PUSH1 0x20 DUP1 SWAP2 DIV MUL PUSH1 0x20 ADD PUSH1 0x40 MLOAD SWAP1 DUP2 ADD PUSH1 0x40 MSTORE DUP1 SWAP4 SWAP3 SWAP2 SWAP1 DUP2 DUP2 MSTORE PUSH1 0x20 ADD DUP4 DUP4 DUP1 DUP3 DUP5 CALLDATACOPY PUSH1 0x0 DUP2 DUP5 ADD MSTORE PUSH1 0x1F NOT PUSH1 0x1F DUP3 ADD AND SWAP1 POP DUP1 DUP4 ADD SWAP3 POP POP POP POP POP POP POP DUP2 MSTORE PUSH1 0x20 ADD DUP7 PUSH1 0xFF AND DUP2 MSTORE PUSH1 0x20 ADD DUP6 PUSH1 0xFF AND DUP2 MSTORE PUSH1 0x20 ADD DUP5 DUP2 MSTORE POP PUSH1 0x0 DUP1 DUP11 PUSH20 0xFFFFFFFFFFFFFFFFFFFFFFFFFFFFFFFFFFFFFFFF AND PUSH20 0xFFFFFFFFFFFFFFFFFFFFFFFFFFFFFFFFFFFFFFFF AND DUP2 MSTORE PUSH1 0x20 ADD SWAP1 DUP2 MSTORE PUSH1 0x20 ADD PUSH1 0x0 KECCAK256 PUSH1 0x0 DUP3 ADD MLOAD DUP2 PUSH1 0x0 ADD SSTORE PUSH1 0x20 DUP3 ADD MLOAD DUP2 PUSH1 0x1 ADD SWAP1 DUP1 MLOAD SWAP1 PUSH1 0x20 ADD SWAP1 PUSH2 0x21A3 SWAP3 SWAP2 SWAP1 PUSH2 0x39E2 JUMP JUMPDEST POP PUSH1 0x40 DUP3 ADD MLOAD DUP2 PUSH1 0x2 ADD PUSH1 0x0 PUSH2 0x100 EXP DUP2 SLOAD DUP2 PUSH1 0xFF MUL NOT AND SWAP1 DUP4 PUSH1 0xFF AND MUL OR SWAP1 SSTORE POP PUSH1 0x60 DUP3 ADD MLOAD DUP2 PUSH1 0x2 ADD PUSH1 0x1 PUSH2 0x100 EXP DUP2 SLOAD DUP2 PUSH1 0xFF MUL NOT AND SWAP1 DUP4 PUSH1 0xFF AND MUL OR SWAP1 SSTORE POP PUSH1 0x80 DUP3 ADD MLOAD DUP2 PUSH1 0x3 ADD SSTORE SWAP1 POP POP DUP1 DUP9 PUSH20 0xFFFFFFFFFFFFFFFFFFFFFFFFFFFFFFFFFFFFFFFF AND PUSH32 0x4A1E31466F875C6FCAFEFABF90BCE8ACCDF53108C4A309106058EF7AEFEBD5CE PUSH1 0x40 MLOAD PUSH1 0x40 MLOAD DUP1 SWAP2 SUB SWAP1 LOG3 POP POP POP POP POP POP POP POP JUMP JUMPDEST PUSH1 0x0 PUSH1 0x6B PUSH1 0x0 DUP5 PUSH20 0xFFFFFFFFFFFFFFFFFFFFFFFFFFFFFFFFFFFFFFFF AND PUSH20 0xFFFFFFFFFFFFFFFFFFFFFFFFFFFFFFFFFFFFFFFF AND DUP2 MSTORE PUSH1 0x20 ADD SWAP1 DUP2 MSTORE PUSH1 0x20 ADD PUSH1 0x0 KECCAK256 PUSH1 0x0 DUP4 PUSH20 0xFFFFFFFFFFFFFFFFFFFFFFFFFFFFFFFFFFFFFFFF AND PUSH20 0xFFFFFFFFFFFFFFFFFFFFFFFFFFFFFFFFFFFFFFFF AND DUP2 MSTORE PUSH1 0x20 ADD SWAP1 DUP2 MSTORE PUSH1 0x20 ADD PUSH1 0x0 KECCAK256 PUSH1 0x0 SWAP1 SLOAD SWAP1 PUSH2 0x100 EXP SWAP1 DIV PUSH1 0xFF AND SWAP1 POP SWAP3 SWAP2 POP POP JUMP JUMPDEST PUSH32 0x60044782A422109AC08A415E44260AD5D3BAD63D96EBE1FAC0363399642EE3F2 PUSH2 0x22FF DUP2 PUSH2 0x25D0 JUMP JUMPDEST PUSH1 0x0 PUSH1 0xCC PUSH1 0x0 DUP7 PUSH20 0xFFFFFFFFFFFFFFFFFFFFFFFFFFFFFFFFFFFFFFFF AND PUSH20 0xFFFFFFFFFFFFFFFFFFFFFFFFFFFFFFFFFFFFFFFF AND DUP2 MSTORE PUSH1 0x20 ADD SWAP1 DUP2 MSTORE PUSH1 0x20 ADD PUSH1 0x0 KECCAK256 SLOAD SWAP1 POP PUSH2 0x234C DUP2 PUSH2 0x2C81 JUMP JUMPDEST PUSH1 0x40 MLOAD DUP1 PUSH1 0x40 ADD PUSH1 0x40 MSTORE DUP1 PUSH1 0x3 DUP2 MSTORE PUSH1 0x20 ADD PUSH32 0x3130310000000000000000000000000000000000000000000000000000000000 DUP2 MSTORE POP SWAP1 PUSH2 0x23C3 JUMPI PUSH1 0x40 MLOAD PUSH32 0x8C379A000000000000000000000000000000000000000000000000000000000 DUP2 MSTORE PUSH1 0x4 ADD PUSH2 0x23BA SWAP2 SWAP1 PUSH2 0x4667 JUMP JUMPDEST PUSH1 0x40 MLOAD DUP1 SWAP2 SUB SWAP1 REVERT JUMPDEST POP DUP4 DUP4 PUSH1 0xCD PUSH1 0x0 DUP5 DUP2 MSTORE PUSH1 0x20 ADD SWAP1 DUP2 MSTORE PUSH1 0x20 ADD PUSH1 0x0 KECCAK256 SWAP2 SWAP1 PUSH2 0x23E6 SWAP3 SWAP2 SWAP1 PUSH2 0x3A68 JUMP JUMPDEST POP DUP4 DUP4 PUSH1 0x40 MLOAD PUSH2 0x23F7 SWAP3 SWAP2 SWAP1 PUSH2 0x451B JUMP JUMPDEST PUSH1 0x40 MLOAD DUP1 SWAP2 SUB SWAP1 KECCAK256 DUP2 DUP7 PUSH20 0xFFFFFFFFFFFFFFFFFFFFFFFFFFFFFFFFFFFFFFFF AND PUSH32 0xE3A3E1A0BE0D562DD7EC739509D30DFBCA7CD174FBC576A45746FE1F3B277C26 PUSH1 0x40 MLOAD PUSH1 0x40 MLOAD DUP1 SWAP2 SUB SWAP1 LOG4 POP POP POP POP POP JUMP JUMPDEST PUSH1 0x0 PUSH32 0x7965DB0B00000000000000000000000000000000000000000000000000000000 PUSH28 0xFFFFFFFFFFFFFFFFFFFFFFFFFFFFFFFFFFFFFFFFFFFFFFFFFFFFFFFF NOT AND DUP3 PUSH28 0xFFFFFFFFFFFFFFFFFFFFFFFFFFFFFFFFFFFFFFFFFFFFFFFFFFFFFFFF NOT AND EQ DUP1 PUSH2 0x24BD JUMPI POP PUSH2 0x24BC DUP3 PUSH2 0x2CE0 JUMP JUMPDEST JUMPDEST SWAP1 POP SWAP2 SWAP1 POP JUMP JUMPDEST PUSH2 0x24CD DUP2 PUSH2 0x2C81 JUMP JUMPDEST PUSH2 0x250C JUMPI PUSH1 0x40 MLOAD PUSH32 0x8C379A000000000000000000000000000000000000000000000000000000000 DUP2 MSTORE PUSH1 0x4 ADD PUSH2 0x2503 SWAP1 PUSH2 0x4805 JUMP JUMPDEST PUSH1 0x40 MLOAD DUP1 SWAP2 SUB SWAP1 REVERT JUMPDEST POP JUMP JUMPDEST PUSH1 0x0 CALLER SWAP1 POP SWAP1 JUMP JUMPDEST DUP2 PUSH1 0x6A PUSH1 0x0 DUP4 DUP2 MSTORE PUSH1 0x20 ADD SWAP1 DUP2 MSTORE PUSH1 0x20 ADD PUSH1 0x0 KECCAK256 PUSH1 0x0 PUSH2 0x100 EXP DUP2 SLOAD DUP2 PUSH20 0xFFFFFFFFFFFFFFFFFFFFFFFFFFFFFFFFFFFFFFFF MUL NOT AND SWAP1 DUP4 PUSH20 0xFFFFFFFFFFFFFFFFFFFFFFFFFFFFFFFFFFFFFFFF AND MUL OR SWAP1 SSTORE POP DUP1 DUP3 PUSH20 0xFFFFFFFFFFFFFFFFFFFFFFFFFFFFFFFFFFFFFFFF AND PUSH2 0x258A DUP4 PUSH2 0xE7E JUMP JUMPDEST PUSH20 0xFFFFFFFFFFFFFFFFFFFFFFFFFFFFFFFFFFFFFFFF AND PUSH32 0x8C5BE1E5EBEC7D5BD14F71427D1E84F3DD0314C0F7B2291E5B200AC8C7C3B925 PUSH1 0x40 MLOAD PUSH1 0x40 MLOAD DUP1 SWAP2 SUB SWAP1 LOG4 POP POP JUMP JUMPDEST PUSH2 0x25E1 DUP2 PUSH2 0x25DC PUSH2 0x250F JUMP JUMPDEST PUSH2 0x2DC2 JUMP JUMPDEST POP JUMP JUMPDEST PUSH2 0x25EE DUP3 DUP3 PUSH2 0x12E8 JUMP JUMPDEST PUSH2 0x26C1 JUMPI PUSH1 0x1 PUSH1 0x98 PUSH1 0x0 DUP5 DUP2 MSTORE PUSH1 0x20 ADD SWAP1 DUP2 MSTORE PUSH1 0x20 ADD PUSH1 0x0 KECCAK256 PUSH1 0x0 ADD PUSH1 0x0 DUP4 PUSH20 0xFFFFFFFFFFFFFFFFFFFFFFFFFFFFFFFFFFFFFFFF AND PUSH20 0xFFFFFFFFFFFFFFFFFFFFFFFFFFFFFFFFFFFFFFFF AND DUP2 MSTORE PUSH1 0x20 ADD SWAP1 DUP2 MSTORE PUSH1 0x20 ADD PUSH1 0x0 KECCAK256 PUSH1 0x0 PUSH2 0x100 EXP DUP2 SLOAD DUP2 PUSH1 0xFF MUL NOT AND SWAP1 DUP4 ISZERO ISZERO MUL OR SWAP1 SSTORE POP PUSH2 0x2666 PUSH2 0x250F JUMP JUMPDEST PUSH20 0xFFFFFFFFFFFFFFFFFFFFFFFFFFFFFFFFFFFFFFFF AND DUP2 PUSH20 0xFFFFFFFFFFFFFFFFFFFFFFFFFFFFFFFFFFFFFFFF AND DUP4 PUSH32 0x2F8788117E7EFF1D82E926EC794901D17C78024A50270940304540A733656F0D PUSH1 0x40 MLOAD PUSH1 0x40 MLOAD DUP1 SWAP2 SUB SWAP1 LOG4 JUMPDEST POP POP JUMP JUMPDEST PUSH2 0x26CF DUP3 DUP3 PUSH2 0x12E8 JUMP JUMPDEST ISZERO PUSH2 0x27A3 JUMPI PUSH1 0x0 PUSH1 0x98 PUSH1 0x0 DUP5 DUP2 MSTORE PUSH1 0x20 ADD SWAP1 DUP2 MSTORE PUSH1 0x20 ADD PUSH1 0x0 KECCAK256 PUSH1 0x0 ADD PUSH1 0x0 DUP4 PUSH20 0xFFFFFFFFFFFFFFFFFFFFFFFFFFFFFFFFFFFFFFFF AND PUSH20 0xFFFFFFFFFFFFFFFFFFFFFFFFFFFFFFFFFFFFFFFF AND DUP2 MSTORE PUSH1 0x20 ADD SWAP1 DUP2 MSTORE PUSH1 0x20 ADD PUSH1 0x0 KECCAK256 PUSH1 0x0 PUSH2 0x100 EXP DUP2 SLOAD DUP2 PUSH1 0xFF MUL NOT AND SWAP1 DUP4 ISZERO ISZERO MUL OR SWAP1 SSTORE POP PUSH2 0x2748 PUSH2 0x250F JUMP JUMPDEST PUSH20 0xFFFFFFFFFFFFFFFFFFFFFFFFFFFFFFFFFFFFFFFF AND DUP2 PUSH20 0xFFFFFFFFFFFFFFFFFFFFFFFFFFFFFFFFFFFFFFFF AND DUP4 PUSH32 0xF6391F5C32D9C69D2A47EA670B442974B53935D1EDC7FD64EB21E047A839171B PUSH1 0x40 MLOAD PUSH1 0x40 MLOAD DUP1 SWAP2 SUB SWAP1 LOG4 JUMPDEST POP POP JUMP JUMPDEST PUSH1 0x0 PUSH2 0x27B2 DUP3 PUSH2 0xE7E JUMP JUMPDEST SWAP1 POP PUSH2 0x27C2 DUP2 PUSH1 0x0 DUP5 PUSH1 0x1 PUSH2 0x2E47 JUMP JUMPDEST PUSH2 0x27CB DUP3 PUSH2 0xE7E JUMP JUMPDEST SWAP1 POP PUSH1 0x6A PUSH1 0x0 DUP4 DUP2 MSTORE PUSH1 0x20 ADD SWAP1 DUP2 MSTORE PUSH1 0x20 ADD PUSH1 0x0 KECCAK256 PUSH1 0x0 PUSH2 0x100 EXP DUP2 SLOAD SWAP1 PUSH20 0xFFFFFFFFFFFFFFFFFFFFFFFFFFFFFFFFFFFFFFFF MUL NOT AND SWAP1 SSTORE PUSH1 0x1 PUSH1 0x69 PUSH1 0x0 DUP4 PUSH20 0xFFFFFFFFFFFFFFFFFFFFFFFFFFFFFFFFFFFFFFFF AND PUSH20 0xFFFFFFFFFFFFFFFFFFFFFFFFFFFFFFFFFFFFFFFF AND DUP2 MSTORE PUSH1 0x20 ADD SWAP1 DUP2 MSTORE PUSH1 0x20 ADD PUSH1 0x0 KECCAK256 PUSH1 0x0 DUP3 DUP3 SLOAD SUB SWAP3 POP POP DUP2 SWAP1 SSTORE POP PUSH1 0x68 PUSH1 0x0 DUP4 DUP2 MSTORE PUSH1 0x20 ADD SWAP1 DUP2 MSTORE PUSH1 0x20 ADD PUSH1 0x0 KECCAK256 PUSH1 0x0 PUSH2 0x100 EXP DUP2 SLOAD SWAP1 PUSH20 0xFFFFFFFFFFFFFFFFFFFFFFFFFFFFFFFFFFFFFFFF MUL NOT AND SWAP1 SSTORE DUP2 PUSH1 0x0 PUSH20 0xFFFFFFFFFFFFFFFFFFFFFFFFFFFFFFFFFFFFFFFF AND DUP3 PUSH20 0xFFFFFFFFFFFFFFFFFFFFFFFFFFFFFFFFFFFFFFFF AND PUSH32 0xDDF252AD1BE2C89B69C2B068FC378DAA952BA7F163C4A11628F55A4DF523B3EF PUSH1 0x40 MLOAD PUSH1 0x40 MLOAD DUP1 SWAP2 SUB SWAP1 LOG4 PUSH2 0x28F1 DUP2 PUSH1 0x0 DUP5 PUSH1 0x1 PUSH2 0x2E4D JUMP JUMPDEST POP POP JUMP JUMPDEST PUSH1 0x0 DUP2 PUSH1 0x0 ADD SLOAD SWAP1 POP SWAP2 SWAP1 POP JUMP JUMPDEST PUSH1 0x0 PUSH1 0x68 PUSH1 0x0 DUP4 DUP2 MSTORE PUSH1 0x20 ADD SWAP1 DUP2 MSTORE PUSH1 0x20 ADD PUSH1 0x0 KECCAK256 PUSH1 0x0 SWAP1 SLOAD SWAP1 PUSH2 0x100 EXP SWAP1 DIV PUSH20 0xFFFFFFFFFFFFFFFFFFFFFFFFFFFFFFFFFFFFFFFF AND SWAP1 POP SWAP2 SWAP1 POP JUMP JUMPDEST DUP2 PUSH20 0xFFFFFFFFFFFFFFFFFFFFFFFFFFFFFFFFFFFFFFFF AND DUP4 PUSH20 0xFFFFFFFFFFFFFFFFFFFFFFFFFFFFFFFFFFFFFFFF AND EQ ISZERO PUSH2 0x29AF JUMPI PUSH1 0x40 MLOAD PUSH32 0x8C379A000000000000000000000000000000000000000000000000000000000 DUP2 MSTORE PUSH1 0x4 ADD PUSH2 0x29A6 SWAP1 PUSH2 0x4749 JUMP JUMPDEST PUSH1 0x40 MLOAD DUP1 SWAP2 SUB SWAP1 REVERT JUMPDEST DUP1 PUSH1 0x6B PUSH1 0x0 DUP6 PUSH20 0xFFFFFFFFFFFFFFFFFFFFFFFFFFFFFFFFFFFFFFFF AND PUSH20 0xFFFFFFFFFFFFFFFFFFFFFFFFFFFFFFFFFFFFFFFF AND DUP2 MSTORE PUSH1 0x20 ADD SWAP1 DUP2 MSTORE PUSH1 0x20 ADD PUSH1 0x0 KECCAK256 PUSH1 0x0 DUP5 PUSH20 0xFFFFFFFFFFFFFFFFFFFFFFFFFFFFFFFFFFFFFFFF AND PUSH20 0xFFFFFFFFFFFFFFFFFFFFFFFFFFFFFFFFFFFFFFFF AND DUP2 MSTORE PUSH1 0x20 ADD SWAP1 DUP2 MSTORE PUSH1 0x20 ADD PUSH1 0x0 KECCAK256 PUSH1 0x0 PUSH2 0x100 EXP DUP2 SLOAD DUP2 PUSH1 0xFF MUL NOT AND SWAP1 DUP4 ISZERO ISZERO MUL OR SWAP1 SSTORE POP DUP2 PUSH20 0xFFFFFFFFFFFFFFFFFFFFFFFFFFFFFFFFFFFFFFFF AND DUP4 PUSH20 0xFFFFFFFFFFFFFFFFFFFFFFFFFFFFFFFFFFFFFFFF AND PUSH32 0x17307EAB39AB6107E8899845AD3D59BD9653F200F220920489CA2B5937696C31 DUP4 PUSH1 0x40 MLOAD PUSH2 0x2AA0 SWAP2 SWAP1 PUSH2 0x4616 JUMP JUMPDEST PUSH1 0x40 MLOAD DUP1 SWAP2 SUB SWAP1 LOG3 POP POP POP JUMP JUMPDEST PUSH1 0x0 DUP1 PUSH2 0x2AB9 DUP4 PUSH2 0xE7E JUMP JUMPDEST SWAP1 POP DUP1 PUSH20 0xFFFFFFFFFFFFFFFFFFFFFFFFFFFFFFFFFFFFFFFF AND DUP5 PUSH20 0xFFFFFFFFFFFFFFFFFFFFFFFFFFFFFFFFFFFFFFFF AND EQ DUP1 PUSH2 0x2AFB JUMPI POP PUSH2 0x2AFA DUP2 DUP6 PUSH2 0x2241 JUMP JUMPDEST JUMPDEST DUP1 PUSH2 0x2B39 JUMPI POP DUP4 PUSH20 0xFFFFFFFFFFFFFFFFFFFFFFFFFFFFFFFFFFFFFFFF AND PUSH2 0x2B21 DUP5 PUSH2 0x817 JUMP JUMPDEST PUSH20 0xFFFFFFFFFFFFFFFFFFFFFFFFFFFFFFFFFFFFFFFF AND EQ JUMPDEST SWAP2 POP POP SWAP3 SWAP2 POP POP JUMP JUMPDEST PUSH2 0x2B4D DUP5 DUP5 DUP5 PUSH2 0x2E53 JUMP JUMPDEST PUSH2 0x2B59 DUP5 DUP5 DUP5 DUP5 PUSH2 0x314D JUMP JUMPDEST PUSH2 0x2B98 JUMPI PUSH1 0x40 MLOAD PUSH32 0x8C379A000000000000000000000000000000000000000000000000000000000 DUP2 MSTORE PUSH1 0x4 ADD PUSH2 0x2B8F SWAP1 PUSH2 0x46C9 JUMP JUMPDEST PUSH1 0x40 MLOAD DUP1 SWAP2 SUB SWAP1 REVERT JUMPDEST POP POP POP POP JUMP JUMPDEST PUSH1 0x0 DUP1 DUP3 PUSH20 0xFFFFFFFFFFFFFFFFFFFFFFFFFFFFFFFFFFFFFFFF AND EXTCODESIZE GT SWAP1 POP SWAP2 SWAP1 POP JUMP JUMPDEST PUSH1 0x1 DUP1 SLOAD SWAP1 PUSH2 0x100 EXP SWAP1 DIV PUSH1 0xFF AND PUSH2 0x2C0E JUMPI PUSH1 0x40 MLOAD PUSH32 0x8C379A000000000000000000000000000000000000000000000000000000000 DUP2 MSTORE PUSH1 0x4 ADD PUSH2 0x2C05 SWAP1 PUSH2 0x4865 JUMP JUMPDEST PUSH1 0x40 MLOAD DUP1 SWAP2 SUB SWAP1 REVERT JUMPDEST JUMP JUMPDEST PUSH1 0x1 DUP1 SLOAD SWAP1 PUSH2 0x100 EXP SWAP1 DIV PUSH1 0xFF AND PUSH2 0x2C5D JUMPI PUSH1 0x40 MLOAD PUSH32 0x8C379A000000000000000000000000000000000000000000000000000000000 DUP2 MSTORE PUSH1 0x4 ADD PUSH2 0x2C54 SWAP1 PUSH2 0x4865 JUMP JUMPDEST PUSH1 0x40 MLOAD DUP1 SWAP2 SUB SWAP1 REVERT JUMPDEST PUSH2 0x2C67 DUP3 DUP3 PUSH2 0x32E4 JUMP JUMPDEST POP POP JUMP JUMPDEST PUSH1 0x1 DUP2 PUSH1 0x0 ADD PUSH1 0x0 DUP3 DUP3 SLOAD ADD SWAP3 POP POP DUP2 SWAP1 SSTORE POP POP JUMP JUMPDEST PUSH1 0x0 DUP1 PUSH20 0xFFFFFFFFFFFFFFFFFFFFFFFFFFFFFFFFFFFFFFFF AND PUSH2 0x2CA3 DUP4 PUSH2 0x2903 JUMP JUMPDEST PUSH20 0xFFFFFFFFFFFFFFFFFFFFFFFFFFFFFFFFFFFFFFFF AND EQ ISZERO SWAP1 POP SWAP2 SWAP1 POP JUMP JUMPDEST PUSH2 0x2CDC DUP3 DUP3 PUSH1 0x40 MLOAD DUP1 PUSH1 0x20 ADD PUSH1 0x40 MSTORE DUP1 PUSH1 0x0 DUP2 MSTORE POP PUSH2 0x3363 JUMP JUMPDEST POP POP JUMP JUMPDEST PUSH1 0x0 PUSH32 0x80AC58CD00000000000000000000000000000000000000000000000000000000 PUSH28 0xFFFFFFFFFFFFFFFFFFFFFFFFFFFFFFFFFFFFFFFFFFFFFFFFFFFFFFFF NOT AND DUP3 PUSH28 0xFFFFFFFFFFFFFFFFFFFFFFFFFFFFFFFFFFFFFFFFFFFFFFFFFFFFFFFF NOT AND EQ DUP1 PUSH2 0x2DAB JUMPI POP PUSH32 0x5B5E139F00000000000000000000000000000000000000000000000000000000 PUSH28 0xFFFFFFFFFFFFFFFFFFFFFFFFFFFFFFFFFFFFFFFFFFFFFFFFFFFFFFFF NOT AND DUP3 PUSH28 0xFFFFFFFFFFFFFFFFFFFFFFFFFFFFFFFFFFFFFFFFFFFFFFFFFFFFFFFF NOT AND EQ JUMPDEST DUP1 PUSH2 0x2DBB JUMPI POP PUSH2 0x2DBA DUP3 PUSH2 0x33BE JUMP JUMPDEST JUMPDEST SWAP1 POP SWAP2 SWAP1 POP JUMP JUMPDEST PUSH2 0x2DCC DUP3 DUP3 PUSH2 0x12E8 JUMP JUMPDEST PUSH2 0x2E43 JUMPI PUSH2 0x2DD9 DUP2 PUSH2 0x3428 JUMP JUMPDEST PUSH2 0x2DE7 DUP4 PUSH1 0x0 SHR PUSH1 0x20 PUSH2 0x3455 JUMP JUMPDEST PUSH1 0x40 MLOAD PUSH1 0x20 ADD PUSH2 0x2DF8 SWAP3 SWAP2 SWAP1 PUSH2 0x4534 JUMP JUMPDEST PUSH1 0x40 MLOAD PUSH1 0x20 DUP2 DUP4 SUB SUB DUP2 MSTORE SWAP1 PUSH1 0x40 MSTORE PUSH1 0x40 MLOAD PUSH32 0x8C379A000000000000000000000000000000000000000000000000000000000 DUP2 MSTORE PUSH1 0x4 ADD PUSH2 0x2E3A SWAP2 SWAP1 PUSH2 0x4667 JUMP JUMPDEST PUSH1 0x40 MLOAD DUP1 SWAP2 SUB SWAP1 REVERT JUMPDEST POP POP JUMP JUMPDEST POP POP POP POP JUMP JUMPDEST POP POP POP POP JUMP JUMPDEST DUP3 PUSH20 0xFFFFFFFFFFFFFFFFFFFFFFFFFFFFFFFFFFFFFFFF AND PUSH2 0x2E73 DUP3 PUSH2 0xE7E JUMP JUMPDEST PUSH20 0xFFFFFFFFFFFFFFFFFFFFFFFFFFFFFFFFFFFFFFFF AND EQ PUSH2 0x2EC9 JUMPI PUSH1 0x40 MLOAD PUSH32 0x8C379A000000000000000000000000000000000000000000000000000000000 DUP2 MSTORE PUSH1 0x4 ADD PUSH2 0x2EC0 SWAP1 PUSH2 0x46E9 JUMP JUMPDEST PUSH1 0x40 MLOAD DUP1 SWAP2 SUB SWAP1 REVERT JUMPDEST PUSH1 0x0 PUSH20 0xFFFFFFFFFFFFFFFFFFFFFFFFFFFFFFFFFFFFFFFF AND DUP3 PUSH20 0xFFFFFFFFFFFFFFFFFFFFFFFFFFFFFFFFFFFFFFFF AND EQ ISZERO PUSH2 0x2F39 JUMPI PUSH1 0x40 MLOAD PUSH32 0x8C379A000000000000000000000000000000000000000000000000000000000 DUP2 MSTORE PUSH1 0x4 ADD PUSH2 0x2F30 SWAP1 PUSH2 0x4729 JUMP JUMPDEST PUSH1 0x40 MLOAD DUP1 SWAP2 SUB SWAP1 REVERT JUMPDEST PUSH2 0x2F46 DUP4 DUP4 DUP4 PUSH1 0x1 PUSH2 0x2E47 JUMP JUMPDEST DUP3 PUSH20 0xFFFFFFFFFFFFFFFFFFFFFFFFFFFFFFFFFFFFFFFF AND PUSH2 0x2F66 DUP3 PUSH2 0xE7E JUMP JUMPDEST PUSH20 0xFFFFFFFFFFFFFFFFFFFFFFFFFFFFFFFFFFFFFFFF AND EQ PUSH2 0x2FBC JUMPI PUSH1 0x40 MLOAD PUSH32 0x8C379A000000000000000000000000000000000000000000000000000000000 DUP2 MSTORE PUSH1 0x4 ADD PUSH2 0x2FB3 SWAP1 PUSH2 0x46E9 JUMP JUMPDEST PUSH1 0x40 MLOAD DUP1 SWAP2 SUB SWAP1 REVERT JUMPDEST PUSH1 0x6A PUSH1 0x0 DUP3 DUP2 MSTORE PUSH1 0x20 ADD SWAP1 DUP2 MSTORE PUSH1 0x20 ADD PUSH1 0x0 KECCAK256 PUSH1 0x0 PUSH2 0x100 EXP DUP2 SLOAD SWAP1 PUSH20 0xFFFFFFFFFFFFFFFFFFFFFFFFFFFFFFFFFFFFFFFF MUL NOT AND SWAP1 SSTORE PUSH1 0x1 PUSH1 0x69 PUSH1 0x0 DUP6 PUSH20 0xFFFFFFFFFFFFFFFFFFFFFFFFFFFFFFFFFFFFFFFF AND PUSH20 0xFFFFFFFFFFFFFFFFFFFFFFFFFFFFFFFFFFFFFFFF AND DUP2 MSTORE PUSH1 0x20 ADD SWAP1 DUP2 MSTORE PUSH1 0x20 ADD PUSH1 0x0 KECCAK256 PUSH1 0x0 DUP3 DUP3 SLOAD SUB SWAP3 POP POP DUP2 SWAP1 SSTORE POP PUSH1 0x1 PUSH1 0x69 PUSH1 0x0 DUP5 PUSH20 0xFFFFFFFFFFFFFFFFFFFFFFFFFFFFFFFFFFFFFFFF AND PUSH20 0xFFFFFFFFFFFFFFFFFFFFFFFFFFFFFFFFFFFFFFFF AND DUP2 MSTORE PUSH1 0x20 ADD SWAP1 DUP2 MSTORE PUSH1 0x20 ADD PUSH1 0x0 KECCAK256 PUSH1 0x0 DUP3 DUP3 SLOAD ADD SWAP3 POP POP DUP2 SWAP1 SSTORE POP DUP2 PUSH1 0x68 PUSH1 0x0 DUP4 DUP2 MSTORE PUSH1 0x20 ADD SWAP1 DUP2 MSTORE PUSH1 0x20 ADD PUSH1 0x0 KECCAK256 PUSH1 0x0 PUSH2 0x100 EXP DUP2 SLOAD DUP2 PUSH20 0xFFFFFFFFFFFFFFFFFFFFFFFFFFFFFFFFFFFFFFFF MUL NOT AND SWAP1 DUP4 PUSH20 0xFFFFFFFFFFFFFFFFFFFFFFFFFFFFFFFFFFFFFFFF AND MUL OR SWAP1 SSTORE POP DUP1 DUP3 PUSH20 0xFFFFFFFFFFFFFFFFFFFFFFFFFFFFFFFFFFFFFFFF AND DUP5 PUSH20 0xFFFFFFFFFFFFFFFFFFFFFFFFFFFFFFFFFFFFFFFF AND PUSH32 0xDDF252AD1BE2C89B69C2B068FC378DAA952BA7F163C4A11628F55A4DF523B3EF PUSH1 0x40 MLOAD PUSH1 0x40 MLOAD DUP1 SWAP2 SUB SWAP1 LOG4 PUSH2 0x3148 DUP4 DUP4 DUP4 PUSH1 0x1 PUSH2 0x2E4D JUMP JUMPDEST POP POP POP JUMP JUMPDEST PUSH1 0x0 PUSH2 0x316E DUP5 PUSH20 0xFFFFFFFFFFFFFFFFFFFFFFFFFFFFFFFFFFFFFFFF AND PUSH2 0x2B9E JUMP JUMPDEST ISZERO PUSH2 0x32D7 JUMPI DUP4 PUSH20 0xFFFFFFFFFFFFFFFFFFFFFFFFFFFFFFFFFFFFFFFF AND PUSH4 0x150B7A02 PUSH2 0x3197 PUSH2 0x250F JUMP JUMPDEST DUP8 DUP7 DUP7 PUSH1 0x40 MLOAD DUP6 PUSH4 0xFFFFFFFF AND PUSH1 0xE0 SHL DUP2 MSTORE PUSH1 0x4 ADD PUSH2 0x31B9 SWAP5 SWAP4 SWAP3 SWAP2 SWAP1 PUSH2 0x4589 JUMP JUMPDEST PUSH1 0x20 PUSH1 0x40 MLOAD DUP1 DUP4 SUB DUP2 PUSH1 0x0 DUP8 DUP1 EXTCODESIZE ISZERO DUP1 ISZERO PUSH2 0x31D3 JUMPI PUSH1 0x0 DUP1 REVERT JUMPDEST POP GAS CALL SWAP3 POP POP POP DUP1 ISZERO PUSH2 0x3204 JUMPI POP PUSH1 0x40 MLOAD RETURNDATASIZE PUSH1 0x1F NOT PUSH1 0x1F DUP3 ADD AND DUP3 ADD DUP1 PUSH1 0x40 MSTORE POP DUP2 ADD SWAP1 PUSH2 0x3201 SWAP2 SWAP1 PUSH2 0x4032 JUMP JUMPDEST PUSH1 0x1 JUMPDEST PUSH2 0x3287 JUMPI RETURNDATASIZE DUP1 PUSH1 0x0 DUP2 EQ PUSH2 0x3234 JUMPI PUSH1 0x40 MLOAD SWAP2 POP PUSH1 0x1F NOT PUSH1 0x3F RETURNDATASIZE ADD AND DUP3 ADD PUSH1 0x40 MSTORE RETURNDATASIZE DUP3 MSTORE RETURNDATASIZE PUSH1 0x0 PUSH1 0x20 DUP5 ADD RETURNDATACOPY PUSH2 0x3239 JUMP JUMPDEST PUSH1 0x60 SWAP2 POP JUMPDEST POP PUSH1 0x0 DUP2 MLOAD EQ ISZERO PUSH2 0x327F JUMPI PUSH1 0x40 MLOAD PUSH32 0x8C379A000000000000000000000000000000000000000000000000000000000 DUP2 MSTORE PUSH1 0x4 ADD PUSH2 0x3276 SWAP1 PUSH2 0x46C9 JUMP JUMPDEST PUSH1 0x40 MLOAD DUP1 SWAP2 SUB SWAP1 REVERT JUMPDEST DUP1 MLOAD DUP2 PUSH1 0x20 ADD REVERT JUMPDEST PUSH4 0x150B7A02 PUSH1 0xE0 SHL PUSH28 0xFFFFFFFFFFFFFFFFFFFFFFFFFFFFFFFFFFFFFFFFFFFFFFFFFFFFFFFF NOT AND DUP2 PUSH28 0xFFFFFFFFFFFFFFFFFFFFFFFFFFFFFFFFFFFFFFFFFFFFFFFFFFFFFFFF NOT AND EQ SWAP2 POP POP PUSH2 0x32DC JUMP JUMPDEST PUSH1 0x1 SWAP1 POP JUMPDEST SWAP5 SWAP4 POP POP POP POP JUMP JUMPDEST PUSH1 0x1 DUP1 SLOAD SWAP1 PUSH2 0x100 EXP SWAP1 DIV PUSH1 0xFF AND PUSH2 0x3331 JUMPI PUSH1 0x40 MLOAD PUSH32 0x8C379A000000000000000000000000000000000000000000000000000000000 DUP2 MSTORE PUSH1 0x4 ADD PUSH2 0x3328 SWAP1 PUSH2 0x4865 JUMP JUMPDEST PUSH1 0x40 MLOAD DUP1 SWAP2 SUB SWAP1 REVERT JUMPDEST DUP2 PUSH1 0x66 SWAP1 DUP1 MLOAD SWAP1 PUSH1 0x20 ADD SWAP1 PUSH2 0x3347 SWAP3 SWAP2 SWAP1 PUSH2 0x39E2 JUMP JUMPDEST POP DUP1 PUSH1 0x67 SWAP1 DUP1 MLOAD SWAP1 PUSH1 0x20 ADD SWAP1 PUSH2 0x335E SWAP3 SWAP2 SWAP1 PUSH2 0x39E2 JUMP JUMPDEST POP POP POP JUMP JUMPDEST PUSH2 0x336D DUP4 DUP4 PUSH2 0x374F JUMP JUMPDEST PUSH2 0x337A PUSH1 0x0 DUP5 DUP5 DUP5 PUSH2 0x314D JUMP JUMPDEST PUSH2 0x33B9 JUMPI PUSH1 0x40 MLOAD PUSH32 0x8C379A000000000000000000000000000000000000000000000000000000000 DUP2 MSTORE PUSH1 0x4 ADD PUSH2 0x33B0 SWAP1 PUSH2 0x46C9 JUMP JUMPDEST PUSH1 0x40 MLOAD DUP1 SWAP2 SUB SWAP1 REVERT JUMPDEST POP POP POP JUMP JUMPDEST PUSH1 0x0 PUSH32 0x1FFC9A700000000000000000000000000000000000000000000000000000000 PUSH28 0xFFFFFFFFFFFFFFFFFFFFFFFFFFFFFFFFFFFFFFFFFFFFFFFFFFFFFFFF NOT AND DUP3 PUSH28 0xFFFFFFFFFFFFFFFFFFFFFFFFFFFFFFFFFFFFFFFFFFFFFFFFFFFFFFFF NOT AND EQ SWAP1 POP SWAP2 SWAP1 POP JUMP JUMPDEST PUSH1 0x60 PUSH2 0x344E DUP3 PUSH20 0xFFFFFFFFFFFFFFFFFFFFFFFFFFFFFFFFFFFFFFFF AND PUSH1 0x14 PUSH1 0xFF AND PUSH2 0x3455 JUMP JUMPDEST SWAP1 POP SWAP2 SWAP1 POP JUMP JUMPDEST PUSH1 0x60 PUSH1 0x0 PUSH1 0x2 DUP4 PUSH1 0x2 PUSH2 0x3468 SWAP2 SWAP1 PUSH2 0x4A57 JUMP JUMPDEST PUSH2 0x3472 SWAP2 SWAP1 PUSH2 0x4A01 JUMP JUMPDEST PUSH8 0xFFFFFFFFFFFFFFFF DUP2 GT ISZERO PUSH2 0x34B1 JUMPI PUSH32 0x4E487B7100000000000000000000000000000000000000000000000000000000 PUSH1 0x0 MSTORE PUSH1 0x41 PUSH1 0x4 MSTORE PUSH1 0x24 PUSH1 0x0 REVERT JUMPDEST PUSH1 0x40 MLOAD SWAP1 DUP1 DUP3 MSTORE DUP1 PUSH1 0x1F ADD PUSH1 0x1F NOT AND PUSH1 0x20 ADD DUP3 ADD PUSH1 0x40 MSTORE DUP1 ISZERO PUSH2 0x34E3 JUMPI DUP2 PUSH1 0x20 ADD PUSH1 0x1 DUP3 MUL DUP1 CALLDATASIZE DUP4 CALLDATACOPY DUP1 DUP3 ADD SWAP2 POP POP SWAP1 POP JUMPDEST POP SWAP1 POP PUSH32 0x3000000000000000000000000000000000000000000000000000000000000000 DUP2 PUSH1 0x0 DUP2 MLOAD DUP2 LT PUSH2 0x3541 JUMPI PUSH32 0x4E487B7100000000000000000000000000000000000000000000000000000000 PUSH1 0x0 MSTORE PUSH1 0x32 PUSH1 0x4 MSTORE PUSH1 0x24 PUSH1 0x0 REVERT JUMPDEST PUSH1 0x20 ADD ADD SWAP1 PUSH31 0xFFFFFFFFFFFFFFFFFFFFFFFFFFFFFFFFFFFFFFFFFFFFFFFFFFFFFFFFFFFFFF NOT AND SWAP1 DUP2 PUSH1 0x0 BYTE SWAP1 MSTORE8 POP PUSH32 0x7800000000000000000000000000000000000000000000000000000000000000 DUP2 PUSH1 0x1 DUP2 MLOAD DUP2 LT PUSH2 0x35CB JUMPI PUSH32 0x4E487B7100000000000000000000000000000000000000000000000000000000 PUSH1 0x0 MSTORE PUSH1 0x32 PUSH1 0x4 MSTORE PUSH1 0x24 PUSH1 0x0 REVERT JUMPDEST PUSH1 0x20 ADD ADD SWAP1 PUSH31 0xFFFFFFFFFFFFFFFFFFFFFFFFFFFFFFFFFFFFFFFFFFFFFFFFFFFFFFFFFFFFFF NOT AND SWAP1 DUP2 PUSH1 0x0 BYTE SWAP1 MSTORE8 POP PUSH1 0x0 PUSH1 0x1 DUP5 PUSH1 0x2 PUSH2 0x360B SWAP2 SWAP1 PUSH2 0x4A57 JUMP JUMPDEST PUSH2 0x3615 SWAP2 SWAP1 PUSH2 0x4A01 JUMP JUMPDEST SWAP1 POP JUMPDEST PUSH1 0x1 DUP2 GT ISZERO PUSH2 0x3701 JUMPI PUSH32 0x3031323334353637383961626364656600000000000000000000000000000000 PUSH1 0xF DUP7 AND PUSH1 0x10 DUP2 LT PUSH2 0x367D JUMPI PUSH32 0x4E487B7100000000000000000000000000000000000000000000000000000000 PUSH1 0x0 MSTORE PUSH1 0x32 PUSH1 0x4 MSTORE PUSH1 0x24 PUSH1 0x0 REVERT JUMPDEST BYTE PUSH1 0xF8 SHL DUP3 DUP3 DUP2 MLOAD DUP2 LT PUSH2 0x36BA JUMPI PUSH32 0x4E487B7100000000000000000000000000000000000000000000000000000000 PUSH1 0x0 MSTORE PUSH1 0x32 PUSH1 0x4 MSTORE PUSH1 0x24 PUSH1 0x0 REVERT JUMPDEST PUSH1 0x20 ADD ADD SWAP1 PUSH31 0xFFFFFFFFFFFFFFFFFFFFFFFFFFFFFFFFFFFFFFFFFFFFFFFFFFFFFFFFFFFFFF NOT AND SWAP1 DUP2 PUSH1 0x0 BYTE SWAP1 MSTORE8 POP PUSH1 0x4 DUP6 SWAP1 SHR SWAP5 POP DUP1 PUSH2 0x36FA SWAP1 PUSH2 0x4BA2 JUMP JUMPDEST SWAP1 POP PUSH2 0x3618 JUMP JUMPDEST POP PUSH1 0x0 DUP5 EQ PUSH2 0x3745 JUMPI PUSH1 0x40 MLOAD PUSH32 0x8C379A000000000000000000000000000000000000000000000000000000000 DUP2 MSTORE PUSH1 0x4 ADD PUSH2 0x373C SWAP1 PUSH2 0x4689 JUMP JUMPDEST PUSH1 0x40 MLOAD DUP1 SWAP2 SUB SWAP1 REVERT JUMPDEST DUP1 SWAP2 POP POP SWAP3 SWAP2 POP POP JUMP JUMPDEST PUSH1 0x0 PUSH20 0xFFFFFFFFFFFFFFFFFFFFFFFFFFFFFFFFFFFFFFFF AND DUP3 PUSH20 0xFFFFFFFFFFFFFFFFFFFFFFFFFFFFFFFFFFFFFFFF AND EQ ISZERO PUSH2 0x37BF JUMPI PUSH1 0x40 MLOAD PUSH32 0x8C379A000000000000000000000000000000000000000000000000000000000 DUP2 MSTORE PUSH1 0x4 ADD PUSH2 0x37B6 SWAP1 PUSH2 0x47A9 JUMP JUMPDEST PUSH1 0x40 MLOAD DUP1 SWAP2 SUB SWAP1 REVERT JUMPDEST PUSH2 0x37C8 DUP2 PUSH2 0x2C81 JUMP JUMPDEST ISZERO PUSH2 0x3808 JUMPI PUSH1 0x40 MLOAD PUSH32 0x8C379A000000000000000000000000000000000000000000000000000000000 DUP2 MSTORE PUSH1 0x4 ADD PUSH2 0x37FF SWAP1 PUSH2 0x4709 JUMP JUMPDEST PUSH1 0x40 MLOAD DUP1 SWAP2 SUB SWAP1 REVERT JUMPDEST PUSH2 0x3816 PUSH1 0x0 DUP4 DUP4 PUSH1 0x1 PUSH2 0x2E47 JUMP JUMPDEST PUSH2 0x381F DUP2 PUSH2 0x2C81 JUMP JUMPDEST ISZERO PUSH2 0x385F JUMPI PUSH1 0x40 MLOAD PUSH32 0x8C379A000000000000000000000000000000000000000000000000000000000 DUP2 MSTORE PUSH1 0x4 ADD PUSH2 0x3856 SWAP1 PUSH2 0x4709 JUMP JUMPDEST PUSH1 0x40 MLOAD DUP1 SWAP2 SUB SWAP1 REVERT JUMPDEST PUSH1 0x1 PUSH1 0x69 PUSH1 0x0 DUP5 PUSH20 0xFFFFFFFFFFFFFFFFFFFFFFFFFFFFFFFFFFFFFFFF AND PUSH20 0xFFFFFFFFFFFFFFFFFFFFFFFFFFFFFFFFFFFFFFFF AND DUP2 MSTORE PUSH1 0x20 ADD SWAP1 DUP2 MSTORE PUSH1 0x20 ADD PUSH1 0x0 KECCAK256 PUSH1 0x0 DUP3 DUP3 SLOAD ADD SWAP3 POP POP DUP2 SWAP1 SSTORE POP DUP2 PUSH1 0x68 PUSH1 0x0 DUP4 DUP2 MSTORE PUSH1 0x20 ADD SWAP1 DUP2 MSTORE PUSH1 0x20 ADD PUSH1 0x0 KECCAK256 PUSH1 0x0 PUSH2 0x100 EXP DUP2 SLOAD DUP2 PUSH20 0xFFFFFFFFFFFFFFFFFFFFFFFFFFFFFFFFFFFFFFFF MUL NOT AND SWAP1 DUP4 PUSH20 0xFFFFFFFFFFFFFFFFFFFFFFFFFFFFFFFFFFFFFFFF AND MUL OR SWAP1 SSTORE POP DUP1 DUP3 PUSH20 0xFFFFFFFFFFFFFFFFFFFFFFFFFFFFFFFFFFFFFFFF AND PUSH1 0x0 PUSH20 0xFFFFFFFFFFFFFFFFFFFFFFFFFFFFFFFFFFFFFFFF AND PUSH32 0xDDF252AD1BE2C89B69C2B068FC378DAA952BA7F163C4A11628F55A4DF523B3EF PUSH1 0x40 MLOAD PUSH1 0x40 MLOAD DUP1 SWAP2 SUB SWAP1 LOG4 PUSH2 0x3969 PUSH1 0x0 DUP4 DUP4 PUSH1 0x1 PUSH2 0x2E4D JUMP JUMPDEST POP POP JUMP JUMPDEST POP DUP1 SLOAD PUSH2 0x3979 SWAP1 PUSH2 0x4BCC JUMP JUMPDEST PUSH1 0x0 DUP3 SSTORE DUP1 PUSH1 0x1F LT PUSH2 0x398B JUMPI POP PUSH2 0x39AA JUMP JUMPDEST PUSH1 0x1F ADD PUSH1 0x20 SWAP1 DIV SWAP1 PUSH1 0x0 MSTORE PUSH1 0x20 PUSH1 0x0 KECCAK256 SWAP1 DUP2 ADD SWAP1 PUSH2 0x39A9 SWAP2 SWAP1 PUSH2 0x3AEE JUMP JUMPDEST JUMPDEST POP JUMP JUMPDEST PUSH1 0x40 MLOAD DUP1 PUSH1 0xA0 ADD PUSH1 0x40 MSTORE DUP1 PUSH1 0x0 DUP2 MSTORE PUSH1 0x20 ADD PUSH1 0x60 DUP2 MSTORE PUSH1 0x20 ADD PUSH1 0x0 PUSH1 0xFF AND DUP2 MSTORE PUSH1 0x20 ADD PUSH1 0x0 PUSH1 0xFF AND DUP2 MSTORE PUSH1 0x20 ADD PUSH1 0x0 DUP2 MSTORE POP SWAP1 JUMP JUMPDEST DUP3 DUP1 SLOAD PUSH2 0x39EE SWAP1 PUSH2 0x4BCC JUMP JUMPDEST SWAP1 PUSH1 0x0 MSTORE PUSH1 0x20 PUSH1 0x0 KECCAK256 SWAP1 PUSH1 0x1F ADD PUSH1 0x20 SWAP1 DIV DUP2 ADD SWAP3 DUP3 PUSH2 0x3A10 JUMPI PUSH1 0x0 DUP6 SSTORE PUSH2 0x3A57 JUMP JUMPDEST DUP3 PUSH1 0x1F LT PUSH2 0x3A29 JUMPI DUP1 MLOAD PUSH1 0xFF NOT AND DUP4 DUP1 ADD OR DUP6 SSTORE PUSH2 0x3A57 JUMP JUMPDEST DUP3 DUP1 ADD PUSH1 0x1 ADD DUP6 SSTORE DUP3 ISZERO PUSH2 0x3A57 JUMPI SWAP2 DUP3 ADD JUMPDEST DUP3 DUP2 GT ISZERO PUSH2 0x3A56 JUMPI DUP3 MLOAD DUP3 SSTORE SWAP2 PUSH1 0x20 ADD SWAP2 SWAP1 PUSH1 0x1 ADD SWAP1 PUSH2 0x3A3B JUMP JUMPDEST JUMPDEST POP SWAP1 POP PUSH2 0x3A64 SWAP2 SWAP1 PUSH2 0x3AEE JUMP JUMPDEST POP SWAP1 JUMP JUMPDEST DUP3 DUP1 SLOAD PUSH2 0x3A74 SWAP1 PUSH2 0x4BCC JUMP JUMPDEST SWAP1 PUSH1 0x0 MSTORE PUSH1 0x20 PUSH1 0x0 KECCAK256 SWAP1 PUSH1 0x1F ADD PUSH1 0x20 SWAP1 DIV DUP2 ADD SWAP3 DUP3 PUSH2 0x3A96 JUMPI PUSH1 0x0 DUP6 SSTORE PUSH2 0x3ADD JUMP JUMPDEST DUP3 PUSH1 0x1F LT PUSH2 0x3AAF JUMPI DUP1 CALLDATALOAD PUSH1 0xFF NOT AND DUP4 DUP1 ADD OR DUP6 SSTORE PUSH2 0x3ADD JUMP JUMPDEST DUP3 DUP1 ADD PUSH1 0x1 ADD DUP6 SSTORE DUP3 ISZERO PUSH2 0x3ADD JUMPI SWAP2 DUP3 ADD JUMPDEST DUP3 DUP2 GT ISZERO PUSH2 0x3ADC JUMPI DUP3 CALLDATALOAD DUP3 SSTORE SWAP2 PUSH1 0x20 ADD SWAP2 SWAP1 PUSH1 0x1 ADD SWAP1 PUSH2 0x3AC1 JUMP JUMPDEST JUMPDEST POP SWAP1 POP PUSH2 0x3AEA SWAP2 SWAP1 PUSH2 0x3AEE JUMP JUMPDEST POP SWAP1 JUMP JUMPDEST JUMPDEST DUP1 DUP3 GT ISZERO PUSH2 0x3B07 JUMPI PUSH1 0x0 DUP2 PUSH1 0x0 SWAP1 SSTORE POP PUSH1 0x1 ADD PUSH2 0x3AEF JUMP JUMPDEST POP SWAP1 JUMP JUMPDEST PUSH1 0x0 PUSH2 0x3B1E PUSH2 0x3B19 DUP5 PUSH2 0x497C JUMP JUMPDEST PUSH2 0x4957 JUMP JUMPDEST SWAP1 POP DUP3 DUP2 MSTORE PUSH1 0x20 DUP2 ADD DUP5 DUP5 DUP5 ADD GT ISZERO PUSH2 0x3B36 JUMPI PUSH1 0x0 DUP1 REVERT JUMPDEST PUSH2 0x3B41 DUP5 DUP3 DUP6 PUSH2 0x4B60 JUMP JUMPDEST POP SWAP4 SWAP3 POP POP POP JUMP JUMPDEST PUSH1 0x0 DUP2 CALLDATALOAD SWAP1 POP PUSH2 0x3B58 DUP2 PUSH2 0x5154 JUMP JUMPDEST SWAP3 SWAP2 POP POP JUMP JUMPDEST PUSH1 0x0 DUP2 CALLDATALOAD SWAP1 POP PUSH2 0x3B6D DUP2 PUSH2 0x516B JUMP JUMPDEST SWAP3 SWAP2 POP POP JUMP JUMPDEST PUSH1 0x0 DUP2 CALLDATALOAD SWAP1 POP PUSH2 0x3B82 DUP2 PUSH2 0x5182 JUMP JUMPDEST SWAP3 SWAP2 POP POP JUMP JUMPDEST PUSH1 0x0 DUP2 CALLDATALOAD SWAP1 POP PUSH2 0x3B97 DUP2 PUSH2 0x5199 JUMP JUMPDEST SWAP3 SWAP2 POP POP JUMP JUMPDEST PUSH1 0x0 DUP2 MLOAD SWAP1 POP PUSH2 0x3BAC DUP2 PUSH2 0x5199 JUMP JUMPDEST SWAP3 SWAP2 POP POP JUMP JUMPDEST PUSH1 0x0 DUP3 PUSH1 0x1F DUP4 ADD SLT PUSH2 0x3BC3 JUMPI PUSH1 0x0 DUP1 REVERT JUMPDEST DUP2 CALLDATALOAD PUSH2 0x3BD3 DUP5 DUP3 PUSH1 0x20 DUP7 ADD PUSH2 0x3B0B JUMP JUMPDEST SWAP2 POP POP SWAP3 SWAP2 POP POP JUMP JUMPDEST PUSH1 0x0 DUP1 DUP4 PUSH1 0x1F DUP5 ADD SLT PUSH2 0x3BEE JUMPI PUSH1 0x0 DUP1 REVERT JUMPDEST DUP3 CALLDATALOAD SWAP1 POP PUSH8 0xFFFFFFFFFFFFFFFF DUP2 GT ISZERO PUSH2 0x3C07 JUMPI PUSH1 0x0 DUP1 REVERT JUMPDEST PUSH1 0x20 DUP4 ADD SWAP2 POP DUP4 PUSH1 0x1 DUP3 MUL DUP4 ADD GT ISZERO PUSH2 0x3C1F JUMPI PUSH1 0x0 DUP1 REVERT JUMPDEST SWAP3 POP SWAP3 SWAP1 POP JUMP JUMPDEST PUSH1 0x0 DUP2 CALLDATALOAD SWAP1 POP PUSH2 0x3C35 DUP2 PUSH2 0x51B0 JUMP JUMPDEST SWAP3 SWAP2 POP POP JUMP JUMPDEST PUSH1 0x0 DUP2 CALLDATALOAD SWAP1 POP PUSH2 0x3C4A DUP2 PUSH2 0x51C7 JUMP JUMPDEST SWAP3 SWAP2 POP POP JUMP JUMPDEST PUSH1 0x0 PUSH1 0x20 DUP3 DUP5 SUB SLT ISZERO PUSH2 0x3C62 JUMPI PUSH1 0x0 DUP1 REVERT JUMPDEST PUSH1 0x0 PUSH2 0x3C70 DUP5 DUP3 DUP6 ADD PUSH2 0x3B49 JUMP JUMPDEST SWAP2 POP POP SWAP3 SWAP2 POP POP JUMP JUMPDEST PUSH1 0x0 DUP1 PUSH1 0x40 DUP4 DUP6 SUB SLT ISZERO PUSH2 0x3C8C JUMPI PUSH1 0x0 DUP1 REVERT JUMPDEST PUSH1 0x0 PUSH2 0x3C9A DUP6 DUP3 DUP7 ADD PUSH2 0x3B49 JUMP JUMPDEST SWAP3 POP POP PUSH1 0x20 PUSH2 0x3CAB DUP6 DUP3 DUP7 ADD PUSH2 0x3B49 JUMP JUMPDEST SWAP2 POP POP SWAP3 POP SWAP3 SWAP1 POP JUMP JUMPDEST PUSH1 0x0 DUP1 PUSH1 0x0 PUSH1 0x60 DUP5 DUP7 SUB SLT ISZERO PUSH2 0x3CCA JUMPI PUSH1 0x0 DUP1 REVERT JUMPDEST PUSH1 0x0 PUSH2 0x3CD8 DUP7 DUP3 DUP8 ADD PUSH2 0x3B49 JUMP JUMPDEST SWAP4 POP POP PUSH1 0x20 PUSH2 0x3CE9 DUP7 DUP3 DUP8 ADD PUSH2 0x3B49 JUMP JUMPDEST SWAP3 POP POP PUSH1 0x40 PUSH2 0x3CFA DUP7 DUP3 DUP8 ADD PUSH2 0x3C26 JUMP JUMPDEST SWAP2 POP POP SWAP3 POP SWAP3 POP SWAP3 JUMP JUMPDEST PUSH1 0x0 DUP1 PUSH1 0x0 DUP1 PUSH1 0x80 DUP6 DUP8 SUB SLT ISZERO PUSH2 0x3D1A JUMPI PUSH1 0x0 DUP1 REVERT JUMPDEST PUSH1 0x0 PUSH2 0x3D28 DUP8 DUP3 DUP9 ADD PUSH2 0x3B49 JUMP JUMPDEST SWAP5 POP POP PUSH1 0x20 PUSH2 0x3D39 DUP8 DUP3 DUP9 ADD PUSH2 0x3B49 JUMP JUMPDEST SWAP4 POP POP PUSH1 0x40 PUSH2 0x3D4A DUP8 DUP3 DUP9 ADD PUSH2 0x3C26 JUMP JUMPDEST SWAP3 POP POP PUSH1 0x60 DUP6 ADD CALLDATALOAD PUSH8 0xFFFFFFFFFFFFFFFF DUP2 GT ISZERO PUSH2 0x3D67 JUMPI PUSH1 0x0 DUP1 REVERT JUMPDEST PUSH2 0x3D73 DUP8 DUP3 DUP9 ADD PUSH2 0x3BB2 JUMP JUMPDEST SWAP2 POP POP SWAP3 SWAP6 SWAP2 SWAP5 POP SWAP3 POP JUMP JUMPDEST PUSH1 0x0 DUP1 PUSH1 0x40 DUP4 DUP6 SUB SLT ISZERO PUSH2 0x3D92 JUMPI PUSH1 0x0 DUP1 REVERT JUMPDEST PUSH1 0x0 PUSH2 0x3DA0 DUP6 DUP3 DUP7 ADD PUSH2 0x3B49 JUMP JUMPDEST SWAP3 POP POP PUSH1 0x20 PUSH2 0x3DB1 DUP6 DUP3 DUP7 ADD PUSH2 0x3B5E JUMP JUMPDEST SWAP2 POP POP SWAP3 POP SWAP3 SWAP1 POP JUMP JUMPDEST PUSH1 0x0 DUP1 PUSH1 0x0 PUSH1 0x40 DUP5 DUP7 SUB SLT ISZERO PUSH2 0x3DD0 JUMPI PUSH1 0x0 DUP1 REVERT JUMPDEST PUSH1 0x0 PUSH2 0x3DDE DUP7 DUP3 DUP8 ADD PUSH2 0x3B49 JUMP JUMPDEST SWAP4 POP POP PUSH1 0x20 DUP5 ADD CALLDATALOAD PUSH8 0xFFFFFFFFFFFFFFFF DUP2 GT ISZERO PUSH2 0x3DFB JUMPI PUSH1 0x0 DUP1 REVERT JUMPDEST PUSH2 0x3E07 DUP7 DUP3 DUP8 ADD PUSH2 0x3BDC JUMP JUMPDEST SWAP3 POP SWAP3 POP POP SWAP3 POP SWAP3 POP SWAP3 JUMP JUMPDEST PUSH1 0x0 DUP1 PUSH1 0x0 DUP1 PUSH1 0x0 DUP1 PUSH1 0xA0 DUP8 DUP10 SUB SLT ISZERO PUSH2 0x3E2C JUMPI PUSH1 0x0 DUP1 REVERT JUMPDEST PUSH1 0x0 PUSH2 0x3E3A DUP10 DUP3 DUP11 ADD PUSH2 0x3B49 JUMP JUMPDEST SWAP7 POP POP PUSH1 0x20 DUP8 ADD CALLDATALOAD PUSH8 0xFFFFFFFFFFFFFFFF DUP2 GT ISZERO PUSH2 0x3E57 JUMPI PUSH1 0x0 DUP1 REVERT JUMPDEST PUSH2 0x3E63 DUP10 DUP3 DUP11 ADD PUSH2 0x3BDC JUMP JUMPDEST SWAP6 POP SWAP6 POP POP PUSH1 0x40 PUSH2 0x3E76 DUP10 DUP3 DUP11 ADD PUSH2 0x3C3B JUMP JUMPDEST SWAP4 POP POP PUSH1 0x60 PUSH2 0x3E87 DUP10 DUP3 DUP11 ADD PUSH2 0x3C3B JUMP JUMPDEST SWAP3 POP POP PUSH1 0x80 PUSH2 0x3E98 DUP10 DUP3 DUP11 ADD PUSH2 0x3C26 JUMP JUMPDEST SWAP2 POP POP SWAP3 SWAP6 POP SWAP3 SWAP6 POP SWAP3 SWAP6 JUMP JUMPDEST PUSH1 0x0 DUP1 PUSH1 0x0 DUP1 PUSH1 0x0 DUP1 PUSH1 0x0 DUP1 PUSH1 0xC0 DUP10 DUP12 SUB SLT ISZERO PUSH2 0x3EC1 JUMPI PUSH1 0x0 DUP1 REVERT JUMPDEST PUSH1 0x0 PUSH2 0x3ECF DUP12 DUP3 DUP13 ADD PUSH2 0x3B49 JUMP JUMPDEST SWAP9 POP POP PUSH1 0x20 DUP10 ADD CALLDATALOAD PUSH8 0xFFFFFFFFFFFFFFFF DUP2 GT ISZERO PUSH2 0x3EEC JUMPI PUSH1 0x0 DUP1 REVERT JUMPDEST PUSH2 0x3EF8 DUP12 DUP3 DUP13 ADD PUSH2 0x3BDC JUMP JUMPDEST SWAP8 POP SWAP8 POP POP PUSH1 0x40 PUSH2 0x3F0B DUP12 DUP3 DUP13 ADD PUSH2 0x3C3B JUMP JUMPDEST SWAP6 POP POP PUSH1 0x60 PUSH2 0x3F1C DUP12 DUP3 DUP13 ADD PUSH2 0x3C3B JUMP JUMPDEST SWAP5 POP POP PUSH1 0x80 PUSH2 0x3F2D DUP12 DUP3 DUP13 ADD PUSH2 0x3C26 JUMP JUMPDEST SWAP4 POP POP PUSH1 0xA0 DUP10 ADD CALLDATALOAD PUSH8 0xFFFFFFFFFFFFFFFF DUP2 GT ISZERO PUSH2 0x3F4A JUMPI PUSH1 0x0 DUP1 REVERT JUMPDEST PUSH2 0x3F56 DUP12 DUP3 DUP13 ADD PUSH2 0x3BDC JUMP JUMPDEST SWAP3 POP SWAP3 POP POP SWAP3 SWAP6 SWAP9 POP SWAP3 SWAP6 SWAP9 SWAP1 SWAP4 SWAP7 POP JUMP JUMPDEST PUSH1 0x0 DUP1 PUSH1 0x40 DUP4 DUP6 SUB SLT ISZERO PUSH2 0x3F7B JUMPI PUSH1 0x0 DUP1 REVERT JUMPDEST PUSH1 0x0 PUSH2 0x3F89 DUP6 DUP3 DUP7 ADD PUSH2 0x3B49 JUMP JUMPDEST SWAP3 POP POP PUSH1 0x20 PUSH2 0x3F9A DUP6 DUP3 DUP7 ADD PUSH2 0x3C26 JUMP JUMPDEST SWAP2 POP POP SWAP3 POP SWAP3 SWAP1 POP JUMP JUMPDEST PUSH1 0x0 PUSH1 0x20 DUP3 DUP5 SUB SLT ISZERO PUSH2 0x3FB6 JUMPI PUSH1 0x0 DUP1 REVERT JUMPDEST PUSH1 0x0 PUSH2 0x3FC4 DUP5 DUP3 DUP6 ADD PUSH2 0x3B73 JUMP JUMPDEST SWAP2 POP POP SWAP3 SWAP2 POP POP JUMP JUMPDEST PUSH1 0x0 DUP1 PUSH1 0x40 DUP4 DUP6 SUB SLT ISZERO PUSH2 0x3FE0 JUMPI PUSH1 0x0 DUP1 REVERT JUMPDEST PUSH1 0x0 PUSH2 0x3FEE DUP6 DUP3 DUP7 ADD PUSH2 0x3B73 JUMP JUMPDEST SWAP3 POP POP PUSH1 0x20 PUSH2 0x3FFF DUP6 DUP3 DUP7 ADD PUSH2 0x3B49 JUMP JUMPDEST SWAP2 POP POP SWAP3 POP SWAP3 SWAP1 POP JUMP JUMPDEST PUSH1 0x0 PUSH1 0x20 DUP3 DUP5 SUB SLT ISZERO PUSH2 0x401B JUMPI PUSH1 0x0 DUP1 REVERT JUMPDEST PUSH1 0x0 PUSH2 0x4029 DUP5 DUP3 DUP6 ADD PUSH2 0x3B88 JUMP JUMPDEST SWAP2 POP POP SWAP3 SWAP2 POP POP JUMP JUMPDEST PUSH1 0x0 PUSH1 0x20 DUP3 DUP5 SUB SLT ISZERO PUSH2 0x4044 JUMPI PUSH1 0x0 DUP1 REVERT JUMPDEST PUSH1 0x0 PUSH2 0x4052 DUP5 DUP3 DUP6 ADD PUSH2 0x3B9D JUMP JUMPDEST SWAP2 POP POP SWAP3 SWAP2 POP POP JUMP JUMPDEST PUSH1 0x0 PUSH1 0x20 DUP3 DUP5 SUB SLT ISZERO PUSH2 0x406D JUMPI PUSH1 0x0 DUP1 REVERT JUMPDEST PUSH1 0x0 PUSH2 0x407B DUP5 DUP3 DUP6 ADD PUSH2 0x3C26 JUMP JUMPDEST SWAP2 POP POP SWAP3 SWAP2 POP POP JUMP JUMPDEST PUSH2 0x408D DUP2 PUSH2 0x4AB1 JUMP JUMPDEST DUP3 MSTORE POP POP JUMP JUMPDEST PUSH2 0x409C DUP2 PUSH2 0x4AC3 JUMP JUMPDEST DUP3 MSTORE POP POP JUMP JUMPDEST PUSH2 0x40AB DUP2 PUSH2 0x4ACF JUMP JUMPDEST DUP3 MSTORE POP POP JUMP JUMPDEST PUSH1 0x0 PUSH2 0x40BC DUP3 PUSH2 0x49AD JUMP JUMPDEST PUSH2 0x40C6 DUP2 DUP6 PUSH2 0x49C3 JUMP JUMPDEST SWAP4 POP PUSH2 0x40D6 DUP2 DUP6 PUSH1 0x20 DUP7 ADD PUSH2 0x4B6F JUMP JUMPDEST PUSH2 0x40DF DUP2 PUSH2 0x4CBC JUMP JUMPDEST DUP5 ADD SWAP2 POP POP SWAP3 SWAP2 POP POP JUMP JUMPDEST PUSH2 0x40F3 DUP2 PUSH2 0x4B3C JUMP JUMPDEST DUP3 MSTORE POP POP JUMP JUMPDEST PUSH2 0x4102 DUP2 PUSH2 0x4B4E JUMP JUMPDEST DUP3 MSTORE POP POP JUMP JUMPDEST PUSH1 0x0 PUSH2 0x4114 DUP4 DUP6 PUSH2 0x49F6 JUMP JUMPDEST SWAP4 POP PUSH2 0x4121 DUP4 DUP6 DUP5 PUSH2 0x4B60 JUMP JUMPDEST DUP3 DUP5 ADD SWAP1 POP SWAP4 SWAP3 POP POP POP JUMP JUMPDEST PUSH1 0x0 PUSH2 0x4138 DUP3 PUSH2 0x49B8 JUMP JUMPDEST PUSH2 0x4142 DUP2 DUP6 PUSH2 0x49D4 JUMP JUMPDEST SWAP4 POP PUSH2 0x4152 DUP2 DUP6 PUSH1 0x20 DUP7 ADD PUSH2 0x4B6F JUMP JUMPDEST PUSH2 0x415B DUP2 PUSH2 0x4CBC JUMP JUMPDEST DUP5 ADD SWAP2 POP POP SWAP3 SWAP2 POP POP JUMP JUMPDEST PUSH1 0x0 PUSH2 0x4171 DUP3 PUSH2 0x49B8 JUMP JUMPDEST PUSH2 0x417B DUP2 DUP6 PUSH2 0x49E5 JUMP JUMPDEST SWAP4 POP PUSH2 0x418B DUP2 DUP6 PUSH1 0x20 DUP7 ADD PUSH2 0x4B6F JUMP JUMPDEST PUSH2 0x4194 DUP2 PUSH2 0x4CBC JUMP JUMPDEST DUP5 ADD SWAP2 POP POP SWAP3 SWAP2 POP POP JUMP JUMPDEST PUSH1 0x0 PUSH2 0x41AA DUP3 PUSH2 0x49B8 JUMP JUMPDEST PUSH2 0x41B4 DUP2 DUP6 PUSH2 0x49F6 JUMP JUMPDEST SWAP4 POP PUSH2 0x41C4 DUP2 DUP6 PUSH1 0x20 DUP7 ADD PUSH2 0x4B6F JUMP JUMPDEST DUP1 DUP5 ADD SWAP2 POP POP SWAP3 SWAP2 POP POP JUMP JUMPDEST PUSH1 0x0 PUSH2 0x41DD PUSH1 0x20 DUP4 PUSH2 0x49E5 JUMP JUMPDEST SWAP2 POP PUSH2 0x41E8 DUP3 PUSH2 0x4CCD JUMP JUMPDEST PUSH1 0x20 DUP3 ADD SWAP1 POP SWAP2 SWAP1 POP JUMP JUMPDEST PUSH1 0x0 PUSH2 0x4200 PUSH1 0x6 DUP4 PUSH2 0x49E5 JUMP JUMPDEST SWAP2 POP PUSH2 0x420B DUP3 PUSH2 0x4CF6 JUMP JUMPDEST PUSH1 0x20 DUP3 ADD SWAP1 POP SWAP2 SWAP1 POP JUMP JUMPDEST PUSH1 0x0 PUSH2 0x4223 PUSH1 0x2D DUP4 PUSH2 0x49E5 JUMP JUMPDEST SWAP2 POP PUSH2 0x422E DUP3 PUSH2 0x4D1F JUMP JUMPDEST PUSH1 0x40 DUP3 ADD SWAP1 POP SWAP2 SWAP1 POP JUMP JUMPDEST PUSH1 0x0 PUSH2 0x4246 PUSH1 0x32 DUP4 PUSH2 0x49E5 JUMP JUMPDEST SWAP2 POP PUSH2 0x4251 DUP3 PUSH2 0x4D6E JUMP JUMPDEST PUSH1 0x40 DUP3 ADD SWAP1 POP SWAP2 SWAP1 POP JUMP JUMPDEST PUSH1 0x0 PUSH2 0x4269 PUSH1 0x25 DUP4 PUSH2 0x49E5 JUMP JUMPDEST SWAP2 POP PUSH2 0x4274 DUP3 PUSH2 0x4DBD JUMP JUMPDEST PUSH1 0x40 DUP3 ADD SWAP1 POP SWAP2 SWAP1 POP JUMP JUMPDEST PUSH1 0x0 PUSH2 0x428C PUSH1 0x1C DUP4 PUSH2 0x49E5 JUMP JUMPDEST SWAP2 POP PUSH2 0x4297 DUP3 PUSH2 0x4E0C JUMP JUMPDEST PUSH1 0x20 DUP3 ADD SWAP1 POP SWAP2 SWAP1 POP JUMP JUMPDEST PUSH1 0x0 PUSH2 0x42AF PUSH1 0x24 DUP4 PUSH2 0x49E5 JUMP JUMPDEST SWAP2 POP PUSH2 0x42BA DUP3 PUSH2 0x4E35 JUMP JUMPDEST PUSH1 0x40 DUP3 ADD SWAP1 POP SWAP2 SWAP1 POP JUMP JUMPDEST PUSH1 0x0 PUSH2 0x42D2 PUSH1 0x19 DUP4 PUSH2 0x49E5 JUMP JUMPDEST SWAP2 POP PUSH2 0x42DD DUP3 PUSH2 0x4E84 JUMP JUMPDEST PUSH1 0x20 DUP3 ADD SWAP1 POP SWAP2 SWAP1 POP JUMP JUMPDEST PUSH1 0x0 PUSH2 0x42F5 PUSH1 0x29 DUP4 PUSH2 0x49E5 JUMP JUMPDEST SWAP2 POP PUSH2 0x4300 DUP3 PUSH2 0x4EAD JUMP JUMPDEST PUSH1 0x40 DUP3 ADD SWAP1 POP SWAP2 SWAP1 POP JUMP JUMPDEST PUSH1 0x0 PUSH2 0x4318 PUSH1 0x2E DUP4 PUSH2 0x49E5 JUMP JUMPDEST SWAP2 POP PUSH2 0x4323 DUP3 PUSH2 0x4EFC JUMP JUMPDEST PUSH1 0x40 DUP3 ADD SWAP1 POP SWAP2 SWAP1 POP JUMP JUMPDEST PUSH1 0x0 PUSH2 0x433B PUSH1 0x20 DUP4 PUSH2 0x49E5 JUMP JUMPDEST SWAP2 POP PUSH2 0x4346 DUP3 PUSH2 0x4F4B JUMP JUMPDEST PUSH1 0x20 DUP3 ADD SWAP1 POP SWAP2 SWAP1 POP JUMP JUMPDEST PUSH1 0x0 PUSH2 0x435E PUSH1 0x8 DUP4 PUSH2 0x49E5 JUMP JUMPDEST SWAP2 POP PUSH2 0x4369 DUP3 PUSH2 0x4F74 JUMP JUMPDEST PUSH1 0x20 DUP3 ADD SWAP1 POP SWAP2 SWAP1 POP JUMP JUMPDEST PUSH1 0x0 PUSH2 0x4381 PUSH1 0x18 DUP4 PUSH2 0x49E5 JUMP JUMPDEST SWAP2 POP PUSH2 0x438C DUP3 PUSH2 0x4F9D JUMP JUMPDEST PUSH1 0x20 DUP3 ADD SWAP1 POP SWAP2 SWAP1 POP JUMP JUMPDEST PUSH1 0x0 PUSH2 0x43A4 PUSH1 0x21 DUP4 PUSH2 0x49E5 JUMP JUMPDEST SWAP2 POP PUSH2 0x43AF DUP3 PUSH2 0x4FC6 JUMP JUMPDEST PUSH1 0x40 DUP3 ADD SWAP1 POP SWAP2 SWAP1 POP JUMP JUMPDEST PUSH1 0x0 PUSH2 0x43C7 PUSH1 0x3D DUP4 PUSH2 0x49E5 JUMP JUMPDEST SWAP2 POP PUSH2 0x43D2 DUP3 PUSH2 0x5015 JUMP JUMPDEST PUSH1 0x40 DUP3 ADD SWAP1 POP SWAP2 SWAP1 POP JUMP JUMPDEST PUSH1 0x0 PUSH2 0x43EA PUSH1 0x2B DUP4 PUSH2 0x49E5 JUMP JUMPDEST SWAP2 POP PUSH2 0x43F5 DUP3 PUSH2 0x5064 JUMP JUMPDEST PUSH1 0x40 DUP3 ADD SWAP1 POP SWAP2 SWAP1 POP JUMP JUMPDEST PUSH1 0x0 PUSH2 0x440D PUSH1 0x17 DUP4 PUSH2 0x49F6 JUMP JUMPDEST SWAP2 POP PUSH2 0x4418 DUP3 PUSH2 0x50B3 JUMP JUMPDEST PUSH1 0x17 DUP3 ADD SWAP1 POP SWAP2 SWAP1 POP JUMP JUMPDEST PUSH1 0x0 PUSH2 0x4430 PUSH1 0x11 DUP4 PUSH2 0x49F6 JUMP JUMPDEST SWAP2 POP PUSH2 0x443B DUP3 PUSH2 0x50DC JUMP JUMPDEST PUSH1 0x11 DUP3 ADD SWAP1 POP SWAP2 SWAP1 POP JUMP JUMPDEST PUSH1 0x0 PUSH2 0x4453 PUSH1 0x2F DUP4 PUSH2 0x49E5 JUMP JUMPDEST SWAP2 POP PUSH2 0x445E DUP3 PUSH2 0x5105 JUMP JUMPDEST PUSH1 0x40 DUP3 ADD SWAP1 POP SWAP2 SWAP1 POP JUMP JUMPDEST PUSH1 0x0 PUSH1 0xA0 DUP4 ADD PUSH1 0x0 DUP4 ADD MLOAD PUSH2 0x4481 PUSH1 0x0 DUP7 ADD DUP3 PUSH2 0x44DF JUMP JUMPDEST POP PUSH1 0x20 DUP4 ADD MLOAD DUP5 DUP3 SUB PUSH1 0x20 DUP7 ADD MSTORE PUSH2 0x4499 DUP3 DUP3 PUSH2 0x412D JUMP JUMPDEST SWAP2 POP POP PUSH1 0x40 DUP4 ADD MLOAD PUSH2 0x44AE PUSH1 0x40 DUP7 ADD DUP3 PUSH2 0x44FD JUMP JUMPDEST POP PUSH1 0x60 DUP4 ADD MLOAD PUSH2 0x44C1 PUSH1 0x60 DUP7 ADD DUP3 PUSH2 0x44FD JUMP JUMPDEST POP PUSH1 0x80 DUP4 ADD MLOAD PUSH2 0x44D4 PUSH1 0x80 DUP7 ADD DUP3 PUSH2 0x44DF JUMP JUMPDEST POP DUP1 SWAP2 POP POP SWAP3 SWAP2 POP POP JUMP JUMPDEST PUSH2 0x44E8 DUP2 PUSH2 0x4B25 JUMP JUMPDEST DUP3 MSTORE POP POP JUMP JUMPDEST PUSH2 0x44F7 DUP2 PUSH2 0x4B25 JUMP JUMPDEST DUP3 MSTORE POP POP JUMP JUMPDEST PUSH2 0x4506 DUP2 PUSH2 0x4B2F JUMP JUMPDEST DUP3 MSTORE POP POP JUMP JUMPDEST PUSH2 0x4515 DUP2 PUSH2 0x4B2F JUMP JUMPDEST DUP3 MSTORE POP POP JUMP JUMPDEST PUSH1 0x0 PUSH2 0x4528 DUP3 DUP5 DUP7 PUSH2 0x4108 JUMP JUMPDEST SWAP2 POP DUP2 SWAP1 POP SWAP4 SWAP3 POP POP POP JUMP JUMPDEST PUSH1 0x0 PUSH2 0x453F DUP3 PUSH2 0x4400 JUMP JUMPDEST SWAP2 POP PUSH2 0x454B DUP3 DUP6 PUSH2 0x419F JUMP JUMPDEST SWAP2 POP PUSH2 0x4556 DUP3 PUSH2 0x4423 JUMP JUMPDEST SWAP2 POP PUSH2 0x4562 DUP3 DUP5 PUSH2 0x419F JUMP JUMPDEST SWAP2 POP DUP2 SWAP1 POP SWAP4 SWAP3 POP POP POP JUMP JUMPDEST PUSH1 0x0 PUSH1 0x20 DUP3 ADD SWAP1 POP PUSH2 0x4583 PUSH1 0x0 DUP4 ADD DUP5 PUSH2 0x4084 JUMP JUMPDEST SWAP3 SWAP2 POP POP JUMP JUMPDEST PUSH1 0x0 PUSH1 0x80 DUP3 ADD SWAP1 POP PUSH2 0x459E PUSH1 0x0 DUP4 ADD DUP8 PUSH2 0x4084 JUMP JUMPDEST PUSH2 0x45AB PUSH1 0x20 DUP4 ADD DUP7 PUSH2 0x4084 JUMP JUMPDEST PUSH2 0x45B8 PUSH1 0x40 DUP4 ADD DUP6 PUSH2 0x44EE JUMP JUMPDEST DUP2 DUP2 SUB PUSH1 0x60 DUP4 ADD MSTORE PUSH2 0x45CA DUP2 DUP5 PUSH2 0x40B1 JUMP JUMPDEST SWAP1 POP SWAP6 SWAP5 POP POP POP POP POP JUMP JUMPDEST PUSH1 0x0 PUSH1 0x60 DUP3 ADD SWAP1 POP PUSH2 0x45EA PUSH1 0x0 DUP4 ADD DUP5 PUSH2 0x4084 JUMP JUMPDEST DUP2 DUP2 SUB PUSH1 0x20 DUP4 ADD MSTORE PUSH2 0x45FB DUP2 PUSH2 0x4351 JUMP JUMPDEST SWAP1 POP DUP2 DUP2 SUB PUSH1 0x40 DUP4 ADD MSTORE PUSH2 0x460E DUP2 PUSH2 0x41F3 JUMP JUMPDEST SWAP1 POP SWAP3 SWAP2 POP POP JUMP JUMPDEST PUSH1 0x0 PUSH1 0x20 DUP3 ADD SWAP1 POP PUSH2 0x462B PUSH1 0x0 DUP4 ADD DUP5 PUSH2 0x4093 JUMP JUMPDEST SWAP3 SWAP2 POP POP JUMP JUMPDEST PUSH1 0x0 PUSH1 0x20 DUP3 ADD SWAP1 POP PUSH2 0x4646 PUSH1 0x0 DUP4 ADD DUP5 PUSH2 0x40A2 JUMP JUMPDEST SWAP3 SWAP2 POP POP JUMP JUMPDEST PUSH1 0x0 PUSH1 0x20 DUP3 ADD SWAP1 POP PUSH2 0x4661 PUSH1 0x0 DUP4 ADD DUP5 PUSH2 0x40F9 JUMP JUMPDEST SWAP3 SWAP2 POP POP JUMP JUMPDEST PUSH1 0x0 PUSH1 0x20 DUP3 ADD SWAP1 POP DUP2 DUP2 SUB PUSH1 0x0 DUP4 ADD MSTORE PUSH2 0x4681 DUP2 DUP5 PUSH2 0x4166 JUMP JUMPDEST SWAP1 POP SWAP3 SWAP2 POP POP JUMP JUMPDEST PUSH1 0x0 PUSH1 0x20 DUP3 ADD SWAP1 POP DUP2 DUP2 SUB PUSH1 0x0 DUP4 ADD MSTORE PUSH2 0x46A2 DUP2 PUSH2 0x41D0 JUMP JUMPDEST SWAP1 POP SWAP2 SWAP1 POP JUMP JUMPDEST PUSH1 0x0 PUSH1 0x20 DUP3 ADD SWAP1 POP DUP2 DUP2 SUB PUSH1 0x0 DUP4 ADD MSTORE PUSH2 0x46C2 DUP2 PUSH2 0x4216 JUMP JUMPDEST SWAP1 POP SWAP2 SWAP1 POP JUMP JUMPDEST PUSH1 0x0 PUSH1 0x20 DUP3 ADD SWAP1 POP DUP2 DUP2 SUB PUSH1 0x0 DUP4 ADD MSTORE PUSH2 0x46E2 DUP2 PUSH2 0x4239 JUMP JUMPDEST SWAP1 POP SWAP2 SWAP1 POP JUMP JUMPDEST PUSH1 0x0 PUSH1 0x20 DUP3 ADD SWAP1 POP DUP2 DUP2 SUB PUSH1 0x0 DUP4 ADD MSTORE PUSH2 0x4702 DUP2 PUSH2 0x425C JUMP JUMPDEST SWAP1 POP SWAP2 SWAP1 POP JUMP JUMPDEST PUSH1 0x0 PUSH1 0x20 DUP3 ADD SWAP1 POP DUP2 DUP2 SUB PUSH1 0x0 DUP4 ADD MSTORE PUSH2 0x4722 DUP2 PUSH2 0x427F JUMP JUMPDEST SWAP1 POP SWAP2 SWAP1 POP JUMP JUMPDEST PUSH1 0x0 PUSH1 0x20 DUP3 ADD SWAP1 POP DUP2 DUP2 SUB PUSH1 0x0 DUP4 ADD MSTORE PUSH2 0x4742 DUP2 PUSH2 0x42A2 JUMP JUMPDEST SWAP1 POP SWAP2 SWAP1 POP JUMP JUMPDEST PUSH1 0x0 PUSH1 0x20 DUP3 ADD SWAP1 POP DUP2 DUP2 SUB PUSH1 0x0 DUP4 ADD MSTORE PUSH2 0x4762 DUP2 PUSH2 0x42C5 JUMP JUMPDEST SWAP1 POP SWAP2 SWAP1 POP JUMP JUMPDEST PUSH1 0x0 PUSH1 0x20 DUP3 ADD SWAP1 POP DUP2 DUP2 SUB PUSH1 0x0 DUP4 ADD MSTORE PUSH2 0x4782 DUP2 PUSH2 0x42E8 JUMP JUMPDEST SWAP1 POP SWAP2 SWAP1 POP JUMP JUMPDEST PUSH1 0x0 PUSH1 0x20 DUP3 ADD SWAP1 POP DUP2 DUP2 SUB PUSH1 0x0 DUP4 ADD MSTORE PUSH2 0x47A2 DUP2 PUSH2 0x430B JUMP JUMPDEST SWAP1 POP SWAP2 SWAP1 POP JUMP JUMPDEST PUSH1 0x0 PUSH1 0x20 DUP3 ADD SWAP1 POP DUP2 DUP2 SUB PUSH1 0x0 DUP4 ADD MSTORE PUSH2 0x47C2 DUP2 PUSH2 0x432E JUMP JUMPDEST SWAP1 POP SWAP2 SWAP1 POP JUMP JUMPDEST PUSH1 0x0 PUSH1 0x60 DUP3 ADD SWAP1 POP DUP2 DUP2 SUB PUSH1 0x0 DUP4 ADD MSTORE PUSH2 0x47E2 DUP2 PUSH2 0x4351 JUMP JUMPDEST SWAP1 POP PUSH2 0x47F1 PUSH1 0x20 DUP4 ADD DUP6 PUSH2 0x4084 JUMP JUMPDEST PUSH2 0x47FE PUSH1 0x40 DUP4 ADD DUP5 PUSH2 0x40EA JUMP JUMPDEST SWAP4 SWAP3 POP POP POP JUMP JUMPDEST PUSH1 0x0 PUSH1 0x20 DUP3 ADD SWAP1 POP DUP2 DUP2 SUB PUSH1 0x0 DUP4 ADD MSTORE PUSH2 0x481E DUP2 PUSH2 0x4374 JUMP JUMPDEST SWAP1 POP SWAP2 SWAP1 POP JUMP JUMPDEST PUSH1 0x0 PUSH1 0x20 DUP3 ADD SWAP1 POP DUP2 DUP2 SUB PUSH1 0x0 DUP4 ADD MSTORE PUSH2 0x483E DUP2 PUSH2 0x4397 JUMP JUMPDEST SWAP1 POP SWAP2 SWAP1 POP JUMP JUMPDEST PUSH1 0x0 PUSH1 0x20 DUP3 ADD SWAP1 POP DUP2 DUP2 SUB PUSH1 0x0 DUP4 ADD MSTORE PUSH2 0x485E DUP2 PUSH2 0x43BA JUMP JUMPDEST SWAP1 POP SWAP2 SWAP1 POP JUMP JUMPDEST PUSH1 0x0 PUSH1 0x20 DUP3 ADD SWAP1 POP DUP2 DUP2 SUB PUSH1 0x0 DUP4 ADD MSTORE PUSH2 0x487E DUP2 PUSH2 0x43DD JUMP JUMPDEST SWAP1 POP SWAP2 SWAP1 POP JUMP JUMPDEST PUSH1 0x0 PUSH1 0x20 DUP3 ADD SWAP1 POP DUP2 DUP2 SUB PUSH1 0x0 DUP4 ADD MSTORE PUSH2 0x489E DUP2 PUSH2 0x4446 JUMP JUMPDEST SWAP1 POP SWAP2 SWAP1 POP JUMP JUMPDEST PUSH1 0x0 PUSH1 0x20 DUP3 ADD SWAP1 POP DUP2 DUP2 SUB PUSH1 0x0 DUP4 ADD MSTORE PUSH2 0x48BF DUP2 DUP5 PUSH2 0x4469 JUMP JUMPDEST SWAP1 POP SWAP3 SWAP2 POP POP JUMP JUMPDEST PUSH1 0x0 PUSH1 0x20 DUP3 ADD SWAP1 POP PUSH2 0x48DC PUSH1 0x0 DUP4 ADD DUP5 PUSH2 0x44EE JUMP JUMPDEST SWAP3 SWAP2 POP POP JUMP JUMPDEST PUSH1 0x0 PUSH1 0xA0 DUP3 ADD SWAP1 POP PUSH2 0x48F7 PUSH1 0x0 DUP4 ADD DUP9 PUSH2 0x44EE JUMP JUMPDEST DUP2 DUP2 SUB PUSH1 0x20 DUP4 ADD MSTORE PUSH2 0x4909 DUP2 DUP8 PUSH2 0x4166 JUMP JUMPDEST SWAP1 POP PUSH2 0x4918 PUSH1 0x40 DUP4 ADD DUP7 PUSH2 0x450C JUMP JUMPDEST PUSH2 0x4925 PUSH1 0x60 DUP4 ADD DUP6 PUSH2 0x450C JUMP JUMPDEST PUSH2 0x4932 PUSH1 0x80 DUP4 ADD DUP5 PUSH2 0x44EE JUMP JUMPDEST SWAP7 SWAP6 POP POP POP POP POP POP JUMP JUMPDEST PUSH1 0x0 PUSH1 0x20 DUP3 ADD SWAP1 POP PUSH2 0x4951 PUSH1 0x0 DUP4 ADD DUP5 PUSH2 0x450C JUMP JUMPDEST SWAP3 SWAP2 POP POP JUMP JUMPDEST PUSH1 0x0 PUSH2 0x4961 PUSH2 0x4972 JUMP JUMPDEST SWAP1 POP PUSH2 0x496D DUP3 DUP3 PUSH2 0x4BFE JUMP JUMPDEST SWAP2 SWAP1 POP JUMP JUMPDEST PUSH1 0x0 PUSH1 0x40 MLOAD SWAP1 POP SWAP1 JUMP JUMPDEST PUSH1 0x0 PUSH8 0xFFFFFFFFFFFFFFFF DUP3 GT ISZERO PUSH2 0x4997 JUMPI PUSH2 0x4996 PUSH2 0x4C8D JUMP JUMPDEST JUMPDEST PUSH2 0x49A0 DUP3 PUSH2 0x4CBC JUMP JUMPDEST SWAP1 POP PUSH1 0x20 DUP2 ADD SWAP1 POP SWAP2 SWAP1 POP JUMP JUMPDEST PUSH1 0x0 DUP2 MLOAD SWAP1 POP SWAP2 SWAP1 POP JUMP JUMPDEST PUSH1 0x0 DUP2 MLOAD SWAP1 POP SWAP2 SWAP1 POP JUMP JUMPDEST PUSH1 0x0 DUP3 DUP3 MSTORE PUSH1 0x20 DUP3 ADD SWAP1 POP SWAP3 SWAP2 POP POP JUMP JUMPDEST PUSH1 0x0 DUP3 DUP3 MSTORE PUSH1 0x20 DUP3 ADD SWAP1 POP SWAP3 SWAP2 POP POP JUMP JUMPDEST PUSH1 0x0 DUP3 DUP3 MSTORE PUSH1 0x20 DUP3 ADD SWAP1 POP SWAP3 SWAP2 POP POP JUMP JUMPDEST PUSH1 0x0 DUP2 SWAP1 POP SWAP3 SWAP2 POP POP JUMP JUMPDEST PUSH1 0x0 PUSH2 0x4A0C DUP3 PUSH2 0x4B25 JUMP JUMPDEST SWAP2 POP PUSH2 0x4A17 DUP4 PUSH2 0x4B25 JUMP JUMPDEST SWAP3 POP DUP3 PUSH32 0xFFFFFFFFFFFFFFFFFFFFFFFFFFFFFFFFFFFFFFFFFFFFFFFFFFFFFFFFFFFFFFFF SUB DUP3 GT ISZERO PUSH2 0x4A4C JUMPI PUSH2 0x4A4B PUSH2 0x4C2F JUMP JUMPDEST JUMPDEST DUP3 DUP3 ADD SWAP1 POP SWAP3 SWAP2 POP POP JUMP JUMPDEST PUSH1 0x0 PUSH2 0x4A62 DUP3 PUSH2 0x4B25 JUMP JUMPDEST SWAP2 POP PUSH2 0x4A6D DUP4 PUSH2 0x4B25 JUMP JUMPDEST SWAP3 POP DUP2 PUSH32 0xFFFFFFFFFFFFFFFFFFFFFFFFFFFFFFFFFFFFFFFFFFFFFFFFFFFFFFFFFFFFFFFF DIV DUP4 GT DUP3 ISZERO ISZERO AND ISZERO PUSH2 0x4AA6 JUMPI PUSH2 0x4AA5 PUSH2 0x4C2F JUMP JUMPDEST JUMPDEST DUP3 DUP3 MUL SWAP1 POP SWAP3 SWAP2 POP POP JUMP JUMPDEST PUSH1 0x0 PUSH2 0x4ABC DUP3 PUSH2 0x4B05 JUMP JUMPDEST SWAP1 POP SWAP2 SWAP1 POP JUMP JUMPDEST PUSH1 0x0 DUP2 ISZERO ISZERO SWAP1 POP SWAP2 SWAP1 POP JUMP JUMPDEST PUSH1 0x0 DUP2 SWAP1 POP SWAP2 SWAP1 POP JUMP JUMPDEST PUSH1 0x0 PUSH32 0xFFFFFFFF00000000000000000000000000000000000000000000000000000000 DUP3 AND SWAP1 POP SWAP2 SWAP1 POP JUMP JUMPDEST PUSH1 0x0 PUSH20 0xFFFFFFFFFFFFFFFFFFFFFFFFFFFFFFFFFFFFFFFF DUP3 AND SWAP1 POP SWAP2 SWAP1 POP JUMP JUMPDEST PUSH1 0x0 DUP2 SWAP1 POP SWAP2 SWAP1 POP JUMP JUMPDEST PUSH1 0x0 PUSH1 0xFF DUP3 AND SWAP1 POP SWAP2 SWAP1 POP JUMP JUMPDEST PUSH1 0x0 PUSH2 0x4B47 DUP3 PUSH2 0x4B25 JUMP JUMPDEST SWAP1 POP SWAP2 SWAP1 POP JUMP JUMPDEST PUSH1 0x0 PUSH2 0x4B59 DUP3 PUSH2 0x4B2F JUMP JUMPDEST SWAP1 POP SWAP2 SWAP1 POP JUMP JUMPDEST DUP3 DUP2 DUP4 CALLDATACOPY PUSH1 0x0 DUP4 DUP4 ADD MSTORE POP POP POP JUMP JUMPDEST PUSH1 0x0 JUMPDEST DUP4 DUP2 LT ISZERO PUSH2 0x4B8D JUMPI DUP1 DUP3 ADD MLOAD DUP2 DUP5 ADD MSTORE PUSH1 0x20 DUP2 ADD SWAP1 POP PUSH2 0x4B72 JUMP JUMPDEST DUP4 DUP2 GT ISZERO PUSH2 0x4B9C JUMPI PUSH1 0x0 DUP5 DUP5 ADD MSTORE JUMPDEST POP POP POP POP JUMP JUMPDEST PUSH1 0x0 PUSH2 0x4BAD DUP3 PUSH2 0x4B25 JUMP JUMPDEST SWAP2 POP PUSH1 0x0 DUP3 EQ ISZERO PUSH2 0x4BC1 JUMPI PUSH2 0x4BC0 PUSH2 0x4C2F JUMP JUMPDEST JUMPDEST PUSH1 0x1 DUP3 SUB SWAP1 POP SWAP2 SWAP1 POP JUMP JUMPDEST PUSH1 0x0 PUSH1 0x2 DUP3 DIV SWAP1 POP PUSH1 0x1 DUP3 AND DUP1 PUSH2 0x4BE4 JUMPI PUSH1 0x7F DUP3 AND SWAP2 POP JUMPDEST PUSH1 0x20 DUP3 LT DUP2 EQ ISZERO PUSH2 0x4BF8 JUMPI PUSH2 0x4BF7 PUSH2 0x4C5E JUMP JUMPDEST JUMPDEST POP SWAP2 SWAP1 POP JUMP JUMPDEST PUSH2 0x4C07 DUP3 PUSH2 0x4CBC JUMP JUMPDEST DUP2 ADD DUP2 DUP2 LT PUSH8 0xFFFFFFFFFFFFFFFF DUP3 GT OR ISZERO PUSH2 0x4C26 JUMPI PUSH2 0x4C25 PUSH2 0x4C8D JUMP JUMPDEST JUMPDEST DUP1 PUSH1 0x40 MSTORE POP POP POP JUMP JUMPDEST PUSH32 0x4E487B7100000000000000000000000000000000000000000000000000000000 PUSH1 0x0 MSTORE PUSH1 0x11 PUSH1 0x4 MSTORE PUSH1 0x24 PUSH1 0x0 REVERT JUMPDEST PUSH32 0x4E487B7100000000000000000000000000000000000000000000000000000000 PUSH1 0x0 MSTORE PUSH1 0x22 PUSH1 0x4 MSTORE PUSH1 0x24 PUSH1 0x0 REVERT JUMPDEST PUSH32 0x4E487B7100000000000000000000000000000000000000000000000000000000 PUSH1 0x0 MSTORE PUSH1 0x41 PUSH1 0x4 MSTORE PUSH1 0x24 PUSH1 0x0 REVERT JUMPDEST PUSH1 0x0 PUSH1 0x1F NOT PUSH1 0x1F DUP4 ADD AND SWAP1 POP SWAP2 SWAP1 POP JUMP JUMPDEST PUSH32 0x537472696E67733A20686578206C656E67746820696E73756666696369656E74 PUSH1 0x0 DUP3 ADD MSTORE POP JUMP JUMPDEST PUSH32 0x565443414C4C0000000000000000000000000000000000000000000000000000 PUSH1 0x0 DUP3 ADD MSTORE POP JUMP JUMPDEST PUSH32 0x4552433732313A2063616C6C6572206973206E6F7420746F6B656E206F776E65 PUSH1 0x0 DUP3 ADD MSTORE PUSH32 0x72206F7220617070726F76656400000000000000000000000000000000000000 PUSH1 0x20 DUP3 ADD MSTORE POP JUMP JUMPDEST PUSH32 0x4552433732313A207472616E7366657220746F206E6F6E204552433732315265 PUSH1 0x0 DUP3 ADD MSTORE PUSH32 0x63656976657220696D706C656D656E7465720000000000000000000000000000 PUSH1 0x20 DUP3 ADD MSTORE POP JUMP JUMPDEST PUSH32 0x4552433732313A207472616E736665722066726F6D20696E636F727265637420 PUSH1 0x0 DUP3 ADD MSTORE PUSH32 0x6F776E6572000000000000000000000000000000000000000000000000000000 PUSH1 0x20 DUP3 ADD MSTORE POP JUMP JUMPDEST PUSH32 0x4552433732313A20746F6B656E20616C7265616479206D696E74656400000000 PUSH1 0x0 DUP3 ADD MSTORE POP JUMP JUMPDEST PUSH32 0x4552433732313A207472616E7366657220746F20746865207A65726F20616464 PUSH1 0x0 DUP3 ADD MSTORE PUSH32 0x7265737300000000000000000000000000000000000000000000000000000000 PUSH1 0x20 DUP3 ADD MSTORE POP JUMP JUMPDEST PUSH32 0x4552433732313A20617070726F766520746F2063616C6C657200000000000000 PUSH1 0x0 DUP3 ADD MSTORE POP JUMP JUMPDEST PUSH32 0x4552433732313A2061646472657373207A65726F206973206E6F742061207661 PUSH1 0x0 DUP3 ADD MSTORE PUSH32 0x6C6964206F776E65720000000000000000000000000000000000000000000000 PUSH1 0x20 DUP3 ADD MSTORE POP JUMP JUMPDEST PUSH32 0x496E697469616C697A61626C653A20636F6E747261637420697320616C726561 PUSH1 0x0 DUP3 ADD MSTORE PUSH32 0x647920696E697469616C697A6564000000000000000000000000000000000000 PUSH1 0x20 DUP3 ADD MSTORE POP JUMP JUMPDEST PUSH32 0x4552433732313A206D696E7420746F20746865207A65726F2061646472657373 PUSH1 0x0 DUP3 ADD MSTORE POP JUMP JUMPDEST PUSH32 0x41444D494E4F5247000000000000000000000000000000000000000000000000 PUSH1 0x0 DUP3 ADD MSTORE POP JUMP JUMPDEST PUSH32 0x4552433732313A20696E76616C696420746F6B656E2049440000000000000000 PUSH1 0x0 DUP3 ADD MSTORE POP JUMP JUMPDEST PUSH32 0x4552433732313A20617070726F76616C20746F2063757272656E74206F776E65 PUSH1 0x0 DUP3 ADD MSTORE PUSH32 0x7200000000000000000000000000000000000000000000000000000000000000 PUSH1 0x20 DUP3 ADD MSTORE POP JUMP JUMPDEST PUSH32 0x4552433732313A20617070726F76652063616C6C6572206973206E6F7420746F PUSH1 0x0 DUP3 ADD MSTORE PUSH32 0x6B656E206F776E6572206F7220617070726F76656420666F7220616C6C000000 PUSH1 0x20 DUP3 ADD MSTORE POP JUMP JUMPDEST PUSH32 0x496E697469616C697A61626C653A20636F6E7472616374206973206E6F742069 PUSH1 0x0 DUP3 ADD MSTORE PUSH32 0x6E697469616C697A696E67000000000000000000000000000000000000000000 PUSH1 0x20 DUP3 ADD MSTORE POP JUMP JUMPDEST PUSH32 0x416363657373436F6E74726F6C3A206163636F756E7420000000000000000000 PUSH1 0x0 DUP3 ADD MSTORE POP JUMP JUMPDEST PUSH32 0x206973206D697373696E6720726F6C6520000000000000000000000000000000 PUSH1 0x0 DUP3 ADD MSTORE POP JUMP JUMPDEST PUSH32 0x416363657373436F6E74726F6C3A2063616E206F6E6C792072656E6F756E6365 PUSH1 0x0 DUP3 ADD MSTORE PUSH32 0x20726F6C657320666F722073656C660000000000000000000000000000000000 PUSH1 0x20 DUP3 ADD MSTORE POP JUMP JUMPDEST PUSH2 0x515D DUP2 PUSH2 0x4AB1 JUMP JUMPDEST DUP2 EQ PUSH2 0x5168 JUMPI PUSH1 0x0 DUP1 REVERT JUMPDEST POP JUMP JUMPDEST PUSH2 0x5174 DUP2 PUSH2 0x4AC3 JUMP JUMPDEST DUP2 EQ PUSH2 0x517F JUMPI PUSH1 0x0 DUP1 REVERT JUMPDEST POP JUMP JUMPDEST PUSH2 0x518B DUP2 PUSH2 0x4ACF JUMP JUMPDEST DUP2 EQ PUSH2 0x5196 JUMPI PUSH1 0x0 DUP1 REVERT JUMPDEST POP JUMP JUMPDEST PUSH2 0x51A2 DUP2 PUSH2 0x4AD9 JUMP JUMPDEST DUP2 EQ PUSH2 0x51AD JUMPI PUSH1 0x0 DUP1 REVERT JUMPDEST POP JUMP JUMPDEST PUSH2 0x51B9 DUP2 PUSH2 0x4B25 JUMP JUMPDEST DUP2 EQ PUSH2 0x51C4 JUMPI PUSH1 0x0 DUP1 REVERT JUMPDEST POP JUMP JUMPDEST PUSH2 0x51D0 DUP2 PUSH2 0x4B2F JUMP JUMPDEST DUP2 EQ PUSH2 0x51DB JUMPI PUSH1 0x0 DUP1 REVERT JUMPDEST POP JUMP INVALID LOG2 PUSH5 0x6970667358 0x22 SLT KECCAK256 0x4F PUSH6 0x5D915199E33C PUSH7 0x2075EB0AAAA8F9 PUSH1 0x10 SWAP16 0x49 0xE2 SWAP2 0xD4 0xEB 0x21 BALANCE GAS 0x28 DUP1 LOG1 CODECOPY GASLIMIT PUSH5 0x736F6C6343 STOP ADDMOD MUL STOP CALLER "},"methodIdentifiers":{"DEFAULT_ADMIN_ROLE()":"a217fddf","PROVER_ROLE()":"dc9a4ef6","approve(address,uint256)":"095ea7b3","balanceOf(address)":"70a08231","getApproved(uint256)":"081812fc","getCurrentTokenId()":"56189236","getRoleAdmin(bytes32)":"248a9ca3","getUserAccountCountryCode(address)":"dfb24b89","getUserAccountCountryCodePreventOnExpiry(address)":"96257e4d","getUserAccountExpiry(address)":"09299ea3","getUserAccountIdentityBlob(address)":"6ca5fde8","getUserAccountLevel(address)":"c207e9e0","getUserAccountLevelPreventOnExpiry(address)":"949cdd6e","getUserAccountType(address)":"b467177f","getUserAccountTypePreventOnExpiry(address)":"1fe0094a","grantRole(bytes32,address)":"2f2ff15d","hasRole(bytes32,address)":"91d14854","identityBlob(address)":"688ea9fe","initialize(address)":"c4d66de8","isApprovedForAll(address,address)":"e985e9c5","mintIdentity(address,string,uint8,uint8,uint256,string)":"d4ec9096","name()":"06fdde03","ownerOf(uint256)":"6352211e","renounceRole(bytes32,address)":"36568abe","revokeRole(bytes32,address)":"d547741f","safeTransferFrom(address,address,uint256)":"42842e0e","safeTransferFrom(address,address,uint256,bytes)":"b88d4fde","setApprovalForAll(address,bool)":"a22cb465","supportsInterface(bytes4)":"01ffc9a7","suspendAccountDeleteTokenAndIdentityBlob(address,string)":"3bc2c078","suspendAccountMaintainTokenAndIdentityBlob(address,string)":"80a5a896","symbol()":"95d89b41","tokenURI(uint256)":"c87b56dd","transferFrom(address,address,uint256)":"23b872dd","updateIdentity(address,string,uint8,uint8,uint256)":"e86573e4","updateTokenURI(address,string)":"f6a4b4d7"}},"storageLayout":{"storage":[{"astId":3903,"contract":"contracts/ProofOfIdentity.sol:ProofOfIdentity","label":"identityBlob","offset":0,"slot":"0","type":"t_mapping(t_address,t_struct(IdentityBlob)3914_storage)"},{"astId":415,"contract":"contracts/ProofOfIdentity.sol:ProofOfIdentity","label":"_initialized","offset":0,"slot":"1","type":"t_uint8"},{"astId":418,"contract":"contracts/ProofOfIdentity.sol:ProofOfIdentity","label":"_initializing","offset":1,"slot":"1","type":"t_bool"},{"astId":2061,"contract":"contracts/ProofOfIdentity.sol:ProofOfIdentity","label":"__gap","offset":0,"slot":"2","type":"t_array(t_uint256)50_storage"},{"astId":2334,"contract":"contracts/ProofOfIdentity.sol:ProofOfIdentity","label":"__gap","offset":0,"slot":"52","type":"t_array(t_uint256)50_storage"},{"astId":606,"contract":"contracts/ProofOfIdentity.sol:ProofOfIdentity","label":"_name","offset":0,"slot":"102","type":"t_string_storage"},{"astId":608,"contract":"contracts/ProofOfIdentity.sol:ProofOfIdentity","label":"_symbol","offset":0,"slot":"103","type":"t_string_storage"},{"astId":612,"contract":"contracts/ProofOfIdentity.sol:ProofOfIdentity","label":"_owners","offset":0,"slot":"104","type":"t_mapping(t_uint256,t_address)"},{"astId":616,"contract":"contracts/ProofOfIdentity.sol:ProofOfIdentity","label":"_balances","offset":0,"slot":"105","type":"t_mapping(t_address,t_uint256)"},{"astId":620,"contract":"contracts/ProofOfIdentity.sol:ProofOfIdentity","label":"_tokenApprovals","offset":0,"slot":"106","type":"t_mapping(t_uint256,t_address)"},{"astId":626,"contract":"contracts/ProofOfIdentity.sol:ProofOfIdentity","label":"_operatorApprovals","offset":0,"slot":"107","type":"t_mapping(t_address,t_mapping(t_address,t_bool))"},{"astId":1528,"contract":"contracts/ProofOfIdentity.sol:ProofOfIdentity","label":"__gap","offset":0,"slot":"108","type":"t_array(t_uint256)44_storage"},{"astId":39,"contract":"contracts/ProofOfIdentity.sol:ProofOfIdentity","label":"_roles","offset":0,"slot":"152","type":"t_mapping(t_bytes32,t_struct(RoleData)34_storage)"},{"astId":334,"contract":"contracts/ProofOfIdentity.sol:ProofOfIdentity","label":"__gap","offset":0,"slot":"153","type":"t_array(t_uint256)49_storage"},{"astId":3464,"contract":"contracts/ProofOfIdentity.sol:ProofOfIdentity","label":"_tokenIdCounter","offset":0,"slot":"202","type":"t_struct(Counter)3324_storage"},{"astId":3506,"contract":"contracts/ProofOfIdentity.sol:ProofOfIdentity","label":"_permissionsInterface","offset":0,"slot":"203","type":"t_contract(IPermissionsInterface)3440"},{"astId":3510,"contract":"contracts/ProofOfIdentity.sol:ProofOfIdentity","label":"_tokenOfHolder","offset":0,"slot":"204","type":"t_mapping(t_address,t_uint256)"},{"astId":3514,"contract":"contracts/ProofOfIdentity.sol:ProofOfIdentity","label":"_tokenURI","offset":0,"slot":"205","type":"t_mapping(t_uint256,t_string_storage)"}],"types":{"t_address":{"encoding":"inplace","label":"address","numberOfBytes":"20"},"t_array(t_uint256)44_storage":{"base":"t_uint256","encoding":"inplace","label":"uint256[44]","numberOfBytes":"1408"},"t_array(t_uint256)49_storage":{"base":"t_uint256","encoding":"inplace","label":"uint256[49]","numberOfBytes":"1568"},"t_array(t_uint256)50_storage":{"base":"t_uint256","encoding":"inplace","label":"uint256[50]","numberOfBytes":"1600"},"t_bool":{"encoding":"inplace","label":"bool","numberOfBytes":"1"},"t_bytes32":{"encoding":"inplace","label":"bytes32","numberOfBytes":"32"},"t_contract(IPermissionsInterface)3440":{"encoding":"inplace","label":"contract IPermissionsInterface","numberOfBytes":"20"},"t_mapping(t_address,t_bool)":{"encoding":"mapping","key":"t_address","label":"mapping(address => bool)","numberOfBytes":"32","value":"t_bool"},"t_mapping(t_address,t_mapping(t_address,t_bool))":{"encoding":"mapping","key":"t_address","label":"mapping(address => mapping(address => bool))","numberOfBytes":"32","value":"t_mapping(t_address,t_bool)"},"t_mapping(t_address,t_struct(IdentityBlob)3914_storage)":{"encoding":"mapping","key":"t_address","label":"mapping(address => struct RoleVerification.IdentityBlob)","numberOfBytes":"32","value":"t_struct(IdentityBlob)3914_storage"},"t_mapping(t_address,t_uint256)":{"encoding":"mapping","key":"t_address","label":"mapping(address => uint256)","numberOfBytes":"32","value":"t_uint256"},"t_mapping(t_bytes32,t_struct(RoleData)34_storage)":{"encoding":"mapping","key":"t_bytes32","label":"mapping(bytes32 => struct AccessControlUpgradeable.RoleData)","numberOfBytes":"32","value":"t_struct(RoleData)34_storage"},"t_mapping(t_uint256,t_address)":{"encoding":"mapping","key":"t_uint256","label":"mapping(uint256 => address)","numberOfBytes":"32","value":"t_address"},"t_mapping(t_uint256,t_string_storage)":{"encoding":"mapping","key":"t_uint256","label":"mapping(uint256 => string)","numberOfBytes":"32","value":"t_string_storage"},"t_string_storage":{"encoding":"bytes","label":"string","numberOfBytes":"32"},"t_struct(Counter)3324_storage":{"encoding":"inplace","label":"struct Counters.Counter","members":[{"astId":3323,"contract":"contracts/ProofOfIdentity.sol:ProofOfIdentity","label":"_value","offset":0,"slot":"0","type":"t_uint256"}],"numberOfBytes":"32"},"t_struct(IdentityBlob)3914_storage":{"encoding":"inplace","label":"struct RoleVerification.IdentityBlob","members":[{"astId":3905,"contract":"contracts/ProofOfIdentity.sol:ProofOfIdentity","label":"tokenId","offset":0,"slot":"0","type":"t_uint256"},{"astId":3907,"contract":"contracts/ProofOfIdentity.sol:ProofOfIdentity","label":"countryCode","offset":0,"slot":"1","type":"t_string_storage"},{"astId":3909,"contract":"contracts/ProofOfIdentity.sol:ProofOfIdentity","label":"userType","offset":0,"slot":"2","type":"t_uint8"},{"astId":3911,"contract":"contracts/ProofOfIdentity.sol:ProofOfIdentity","label":"level","offset":1,"slot":"2","type":"t_uint8"},{"astId":3913,"contract":"contracts/ProofOfIdentity.sol:ProofOfIdentity","label":"expiry","offset":0,"slot":"3","type":"t_uint256"}],"numberOfBytes":"128"},"t_struct(RoleData)34_storage":{"encoding":"inplace","label":"struct AccessControlUpgradeable.RoleData","members":[{"astId":31,"contract":"contracts/ProofOfIdentity.sol:ProofOfIdentity","label":"members","offset":0,"slot":"0","type":"t_mapping(t_address,t_bool)"},{"astId":33,"contract":"contracts/ProofOfIdentity.sol:ProofOfIdentity","label":"adminRole","offset":0,"slot":"1","type":"t_bytes32"}],"numberOfBytes":"64"},"t_uint256":{"encoding":"inplace","label":"uint256","numberOfBytes":"32"},"t_uint8":{"encoding":"inplace","label":"uint8","numberOfBytes":"1"}}}}}}