{"contracts/Errors.sol":{"Errors":{"abi":[{"inputs":[],"name":"ID_DOES_NOT_EXIST","outputs":[{"internalType":"string","name":"","type":"string"}],"stateMutability":"view","type":"function"},{"inputs":[],"name":"ID_INVALID_EXPIRED","outputs":[{"internalType":"string","name":"","type":"string"}],"stateMutability":"view","type":"function"},{"inputs":[],"name":"ID_NOT_TRANSFERABLE","outputs":[{"internalType":"string","name":"","type":"string"}],"stateMutability":"view","type":"function"},{"inputs":[],"name":"INVALID_TOKEN_ID","outputs":[{"internalType":"string","name":"","type":"string"}],"stateMutability":"view","type":"function"},{"inputs":[],"name":"NOT_VALID_PROVER","outputs":[{"internalType":"string","name":"","type":"string"}],"stateMutability":"view","type":"function"},{"inputs":[],"name":"PREVIOUSLY_VERIFIED","outputs":[{"internalType":"string","name":"","type":"string"}],"stateMutability":"view","type":"function"},{"inputs":[],"name":"TOKEN_ID_ALREADY_EXISTS","outputs":[{"internalType":"string","name":"","type":"string"}],"stateMutability":"view","type":"function"},{"inputs":[],"name":"ZERO_ADDRESS_NOT_VALID_ARGUMENT","outputs":[{"internalType":"string","name":"","type":"string"}],"stateMutability":"view","type":"function"}],"evm":{"bytecode":{"linkReferences":{},"object":"610440610053600b82828239805160001a607314610046577f4e487b7100000000000000000000000000000000000000000000000000000000600052600060045260246000fd5b30600052607381538281f3fe73000000000000000000000000000000000000000030146080604052600436106100925760003560e01c8063b49aa3b511610065578063b49aa3b51461010f578063bbfb81b71461012d578063cd6ccc6e1461014b578063fe58db141461016957610092565b806308a0293e14610097578063231b28de146100b557806339459c8b146100d35780633ee6341f146100f1575b600080fd5b61009f610187565b6040516100ac9190610388565b60405180910390f35b6100bd6101c0565b6040516100ca9190610388565b60405180910390f35b6100db6101f9565b6040516100e89190610388565b60405180910390f35b6100f9610232565b6040516101069190610388565b60405180910390f35b61011761026b565b6040516101249190610388565b60405180910390f35b6101356102a4565b6040516101429190610388565b60405180910390f35b6101536102dd565b6040516101609190610388565b60405180910390f35b610171610316565b60405161017e9190610388565b60405180910390f35b6040518060400160405280600381526020017f313035000000000000000000000000000000000000000000000000000000000081525081565b6040518060400160405280600381526020017f313033000000000000000000000000000000000000000000000000000000000081525081565b6040518060400160405280600381526020017f313030000000000000000000000000000000000000000000000000000000000081525081565b6040518060400160405280600381526020017f313037000000000000000000000000000000000000000000000000000000000081525081565b6040518060400160405280600381526020017f313036000000000000000000000000000000000000000000000000000000000081525081565b6040518060400160405280600381526020017f313031000000000000000000000000000000000000000000000000000000000081525081565b6040518060400160405280600381526020017f313032000000000000000000000000000000000000000000000000000000000081525081565b6040518060400160405280600381526020017f313034000000000000000000000000000000000000000000000000000000000081525081565b600061035a826103aa565b61036481856103b5565b93506103748185602086016103c6565b61037d816103f9565b840191505092915050565b600060208201905081810360008301526103a2818461034f565b905092915050565b600081519050919050565b600082825260208201905092915050565b60005b838110156103e45780820151818401526020810190506103c9565b838111156103f3576000848401525b50505050565b6000601f19601f830116905091905056fea2646970667358221220a295eb600e568e6489abd59acee63ea3340b7e0108d1cab79a0f501f667e1cb664736f6c63430008020033","opcodes":"PUSH2 0x440 PUSH2 0x53 PUSH1 0xB DUP3 DUP3 DUP3 CODECOPY DUP1 MLOAD PUSH1 0x0 BYTE PUSH1 0x73 EQ PUSH2 0x46 JUMPI PUSH32 0x4E487B7100000000000000000000000000000000000000000000000000000000 PUSH1 0x0 MSTORE PUSH1 0x0 PUSH1 0x4 MSTORE PUSH1 0x24 PUSH1 0x0 REVERT JUMPDEST ADDRESS PUSH1 0x0 MSTORE PUSH1 0x73 DUP2 MSTORE8 DUP3 DUP2 RETURN INVALID PUSH20 0x0 ADDRESS EQ PUSH1 0x80 PUSH1 0x40 MSTORE PUSH1 0x4 CALLDATASIZE LT PUSH2 0x92 JUMPI PUSH1 0x0 CALLDATALOAD PUSH1 0xE0 SHR DUP1 PUSH4 0xB49AA3B5 GT PUSH2 0x65 JUMPI DUP1 PUSH4 0xB49AA3B5 EQ PUSH2 0x10F JUMPI DUP1 PUSH4 0xBBFB81B7 EQ PUSH2 0x12D JUMPI DUP1 PUSH4 0xCD6CCC6E EQ PUSH2 0x14B JUMPI DUP1 PUSH4 0xFE58DB14 EQ PUSH2 0x169 JUMPI PUSH2 0x92 JUMP JUMPDEST DUP1 PUSH4 0x8A0293E EQ PUSH2 0x97 JUMPI DUP1 PUSH4 0x231B28DE EQ PUSH2 0xB5 JUMPI DUP1 PUSH4 0x39459C8B EQ PUSH2 0xD3 JUMPI DUP1 PUSH4 0x3EE6341F EQ PUSH2 0xF1 JUMPI JUMPDEST PUSH1 0x0 DUP1 REVERT JUMPDEST PUSH2 0x9F PUSH2 0x187 JUMP JUMPDEST PUSH1 0x40 MLOAD PUSH2 0xAC SWAP2 SWAP1 PUSH2 0x388 JUMP JUMPDEST PUSH1 0x40 MLOAD DUP1 SWAP2 SUB SWAP1 RETURN JUMPDEST PUSH2 0xBD PUSH2 0x1C0 JUMP JUMPDEST PUSH1 0x40 MLOAD PUSH2 0xCA SWAP2 SWAP1 PUSH2 0x388 JUMP JUMPDEST PUSH1 0x40 MLOAD DUP1 SWAP2 SUB SWAP1 RETURN JUMPDEST PUSH2 0xDB PUSH2 0x1F9 JUMP JUMPDEST PUSH1 0x40 MLOAD PUSH2 0xE8 SWAP2 SWAP1 PUSH2 0x388 JUMP JUMPDEST PUSH1 0x40 MLOAD DUP1 SWAP2 SUB SWAP1 RETURN JUMPDEST PUSH2 0xF9 PUSH2 0x232 JUMP JUMPDEST PUSH1 0x40 MLOAD PUSH2 0x106 SWAP2 SWAP1 PUSH2 0x388 JUMP JUMPDEST PUSH1 0x40 MLOAD DUP1 SWAP2 SUB SWAP1 RETURN JUMPDEST PUSH2 0x117 PUSH2 0x26B JUMP JUMPDEST PUSH1 0x40 MLOAD PUSH2 0x124 SWAP2 SWAP1 PUSH2 0x388 JUMP JUMPDEST PUSH1 0x40 MLOAD DUP1 SWAP2 SUB SWAP1 RETURN JUMPDEST PUSH2 0x135 PUSH2 0x2A4 JUMP JUMPDEST PUSH1 0x40 MLOAD PUSH2 0x142 SWAP2 SWAP1 PUSH2 0x388 JUMP JUMPDEST PUSH1 0x40 MLOAD DUP1 SWAP2 SUB SWAP1 RETURN JUMPDEST PUSH2 0x153 PUSH2 0x2DD JUMP JUMPDEST PUSH1 0x40 MLOAD PUSH2 0x160 SWAP2 SWAP1 PUSH2 0x388 JUMP JUMPDEST PUSH1 0x40 MLOAD DUP1 SWAP2 SUB SWAP1 RETURN JUMPDEST PUSH2 0x171 PUSH2 0x316 JUMP JUMPDEST PUSH1 0x40 MLOAD PUSH2 0x17E SWAP2 SWAP1 PUSH2 0x388 JUMP JUMPDEST PUSH1 0x40 MLOAD DUP1 SWAP2 SUB SWAP1 RETURN JUMPDEST PUSH1 0x40 MLOAD DUP1 PUSH1 0x40 ADD PUSH1 0x40 MSTORE DUP1 PUSH1 0x3 DUP2 MSTORE PUSH1 0x20 ADD PUSH32 0x3130350000000000000000000000000000000000000000000000000000000000 DUP2 MSTORE POP DUP2 JUMP JUMPDEST PUSH1 0x40 MLOAD DUP1 PUSH1 0x40 ADD PUSH1 0x40 MSTORE DUP1 PUSH1 0x3 DUP2 MSTORE PUSH1 0x20 ADD PUSH32 0x3130330000000000000000000000000000000000000000000000000000000000 DUP2 MSTORE POP DUP2 JUMP JUMPDEST PUSH1 0x40 MLOAD DUP1 PUSH1 0x40 ADD PUSH1 0x40 MSTORE DUP1 PUSH1 0x3 DUP2 MSTORE PUSH1 0x20 ADD PUSH32 0x3130300000000000000000000000000000000000000000000000000000000000 DUP2 MSTORE POP DUP2 JUMP JUMPDEST PUSH1 0x40 MLOAD DUP1 PUSH1 0x40 ADD PUSH1 0x40 MSTORE DUP1 PUSH1 0x3 DUP2 MSTORE PUSH1 0x20 ADD PUSH32 0x3130370000000000000000000000000000000000000000000000000000000000 DUP2 MSTORE POP DUP2 JUMP JUMPDEST PUSH1 0x40 MLOAD DUP1 PUSH1 0x40 ADD PUSH1 0x40 MSTORE DUP1 PUSH1 0x3 DUP2 MSTORE PUSH1 0x20 ADD PUSH32 0x3130360000000000000000000000000000000000000000000000000000000000 DUP2 MSTORE POP DUP2 JUMP JUMPDEST PUSH1 0x40 MLOAD DUP1 PUSH1 0x40 ADD PUSH1 0x40 MSTORE DUP1 PUSH1 0x3 DUP2 MSTORE PUSH1 0x20 ADD PUSH32 0x3130310000000000000000000000000000000000000000000000000000000000 DUP2 MSTORE POP DUP2 JUMP JUMPDEST PUSH1 0x40 MLOAD DUP1 PUSH1 0x40 ADD PUSH1 0x40 MSTORE DUP1 PUSH1 0x3 DUP2 MSTORE PUSH1 0x20 ADD PUSH32 0x3130320000000000000000000000000000000000000000000000000000000000 DUP2 MSTORE POP DUP2 JUMP JUMPDEST PUSH1 0x40 MLOAD DUP1 PUSH1 0x40 ADD PUSH1 0x40 MSTORE DUP1 PUSH1 0x3 DUP2 MSTORE PUSH1 0x20 ADD PUSH32 0x3130340000000000000000000000000000000000000000000000000000000000 DUP2 MSTORE POP DUP2 JUMP JUMPDEST PUSH1 0x0 PUSH2 0x35A DUP3 PUSH2 0x3AA JUMP JUMPDEST PUSH2 0x364 DUP2 DUP6 PUSH2 0x3B5 JUMP JUMPDEST SWAP4 POP PUSH2 0x374 DUP2 DUP6 PUSH1 0x20 DUP7 ADD PUSH2 0x3C6 JUMP JUMPDEST PUSH2 0x37D DUP2 PUSH2 0x3F9 JUMP JUMPDEST DUP5 ADD SWAP2 POP POP SWAP3 SWAP2 POP POP JUMP JUMPDEST PUSH1 0x0 PUSH1 0x20 DUP3 ADD SWAP1 POP DUP2 DUP2 SUB PUSH1 0x0 DUP4 ADD MSTORE PUSH2 0x3A2 DUP2 DUP5 PUSH2 0x34F JUMP JUMPDEST SWAP1 POP SWAP3 SWAP2 POP POP JUMP JUMPDEST PUSH1 0x0 DUP2 MLOAD SWAP1 POP SWAP2 SWAP1 POP JUMP JUMPDEST PUSH1 0x0 DUP3 DUP3 MSTORE PUSH1 0x20 DUP3 ADD SWAP1 POP SWAP3 SWAP2 POP POP JUMP JUMPDEST PUSH1 0x0 JUMPDEST DUP4 DUP2 LT ISZERO PUSH2 0x3E4 JUMPI DUP1 DUP3 ADD MLOAD DUP2 DUP5 ADD MSTORE PUSH1 0x20 DUP2 ADD SWAP1 POP PUSH2 0x3C9 JUMP JUMPDEST DUP4 DUP2 GT ISZERO PUSH2 0x3F3 JUMPI PUSH1 0x0 DUP5 DUP5 ADD MSTORE JUMPDEST POP POP POP POP JUMP JUMPDEST PUSH1 0x0 PUSH1 0x1F NOT PUSH1 0x1F DUP4 ADD AND SWAP1 POP SWAP2 SWAP1 POP JUMP INVALID LOG2 PUSH5 0x6970667358 0x22 SLT KECCAK256 LOG2 SWAP6 0xEB PUSH1 0xE JUMP DUP15 PUSH5 0x89ABD59ACE 0xE6 RETURNDATACOPY LOG3 CALLVALUE SIGNEXTEND PUSH31 0x108D1CAB79A0F501F667E1CB664736F6C6343000802003300000000000000 "},"methodIdentifiers":{"ID_DOES_NOT_EXIST()":"bbfb81b7","ID_INVALID_EXPIRED()":"231b28de","ID_NOT_TRANSFERABLE()":"cd6ccc6e","INVALID_TOKEN_ID()":"b49aa3b5","NOT_VALID_PROVER()":"fe58db14","PREVIOUSLY_VERIFIED()":"39459c8b","TOKEN_ID_ALREADY_EXISTS()":"3ee6341f","ZERO_ADDRESS_NOT_VALID_ARGUMENT()":"08a0293e"}},"storageLayout":{"storage":[],"types":null}}}}