{"contracts/VerifiedSimpleStorage.sol":{"VerifiedSimpleStorage":{"abi":[{"inputs":[{"internalType":"address","name":"proofContract","type":"address"}],"stateMutability":"nonpayable","type":"constructor"},{"anonymous":false,"inputs":[{"indexed":true,"internalType":"address","name":"previousOwner","type":"address"},{"indexed":true,"internalType":"address","name":"newOwner","type":"address"}],"name":"OwnershipTransferred","type":"event"},{"inputs":[{"internalType":"string","name":"countryCode","type":"string"}],"name":"approveCountryCode","outputs":[],"stateMutability":"nonpayable","type":"function"},{"inputs":[{"internalType":"bytes8","name":"c__28b9fbc8","type":"bytes8"}],"name":"c_28b9fbc8","outputs":[],"stateMutability":"pure","type":"function"},{"inputs":[{"internalType":"bytes8","name":"c__6f26603d","type":"bytes8"}],"name":"c_6f26603d","outputs":[],"stateMutability":"pure","type":"function"},{"inputs":[{"internalType":"bytes8","name":"c__a86a9c89","type":"bytes8"}],"name":"c_a86a9c89","outputs":[],"stateMutability":"pure","type":"function"},{"inputs":[{"internalType":"bytes8","name":"c__b8c9e965","type":"bytes8"}],"name":"c_b8c9e965","outputs":[],"stateMutability":"pure","type":"function"},{"inputs":[{"internalType":"bytes8","name":"c__28b9fbc8","type":"bytes8"}],"name":"c_false28b9fbc8","outputs":[{"internalType":"bool","name":"","type":"bool"}],"stateMutability":"pure","type":"function"},{"inputs":[{"internalType":"bytes8","name":"c__6f26603d","type":"bytes8"}],"name":"c_false6f26603d","outputs":[{"internalType":"bool","name":"","type":"bool"}],"stateMutability":"pure","type":"function"},{"inputs":[{"internalType":"bytes8","name":"c__a86a9c89","type":"bytes8"}],"name":"c_falsea86a9c89","outputs":[{"internalType":"bool","name":"","type":"bool"}],"stateMutability":"pure","type":"function"},{"inputs":[{"internalType":"bytes8","name":"c__b8c9e965","type":"bytes8"}],"name":"c_falseb8c9e965","outputs":[{"internalType":"bool","name":"","type":"bool"}],"stateMutability":"pure","type":"function"},{"inputs":[{"internalType":"bytes8","name":"c__28b9fbc8","type":"bytes8"}],"name":"c_true28b9fbc8","outputs":[{"internalType":"bool","name":"","type":"bool"}],"stateMutability":"pure","type":"function"},{"inputs":[{"internalType":"bytes8","name":"c__6f26603d","type":"bytes8"}],"name":"c_true6f26603d","outputs":[{"internalType":"bool","name":"","type":"bool"}],"stateMutability":"pure","type":"function"},{"inputs":[{"internalType":"bytes8","name":"c__a86a9c89","type":"bytes8"}],"name":"c_truea86a9c89","outputs":[{"internalType":"bool","name":"","type":"bool"}],"stateMutability":"pure","type":"function"},{"inputs":[{"internalType":"bytes8","name":"c__b8c9e965","type":"bytes8"}],"name":"c_trueb8c9e965","outputs":[{"internalType":"bool","name":"","type":"bool"}],"stateMutability":"pure","type":"function"},{"inputs":[],"name":"get","outputs":[{"internalType":"uint256","name":"retVal","type":"uint256"}],"stateMutability":"view","type":"function"},{"inputs":[{"internalType":"address","name":"account","type":"address"}],"name":"getUserAccountCountryCode","outputs":[{"internalType":"string","name":"userAccountCountryCode","type":"string"}],"stateMutability":"view","type":"function"},{"inputs":[{"internalType":"address","name":"account","type":"address"}],"name":"getUserAccountExpiry","outputs":[{"internalType":"uint256","name":"userAccountExpiry","type":"uint256"}],"stateMutability":"view","type":"function"},{"inputs":[{"internalType":"address","name":"account","type":"address"}],"name":"getUserAccountIdentityBlob","outputs":[{"components":[{"internalType":"uint256","name":"tokenId","type":"uint256"},{"internalType":"string","name":"countryCode","type":"string"},{"internalType":"uint8","name":"userType","type":"uint8"},{"internalType":"uint8","name":"level","type":"uint8"},{"internalType":"uint256","name":"expiry","type":"uint256"}],"internalType":"struct RoleVerification.IdentityBlob","name":"userIdentityBlob","type":"tuple"}],"stateMutability":"view","type":"function"},{"inputs":[{"internalType":"address","name":"account","type":"address"}],"name":"getUserAccountLevel","outputs":[{"internalType":"uint8","name":"userAccountLevel","type":"uint8"}],"stateMutability":"view","type":"function"},{"inputs":[{"internalType":"address","name":"account","type":"address"}],"name":"getUserAccountType","outputs":[{"internalType":"uint8","name":"userAccountType","type":"uint8"}],"stateMutability":"view","type":"function"},{"inputs":[{"internalType":"address","name":"account","type":"address"}],"name":"getUserCountryCode","outputs":[{"internalType":"string","name":"userAccountCountryCode","type":"string"}],"stateMutability":"view","type":"function"},{"inputs":[{"internalType":"address","name":"account","type":"address"}],"name":"getUserExpiry","outputs":[{"internalType":"uint256","name":"","type":"uint256"}],"stateMutability":"view","type":"function"},{"inputs":[{"internalType":"address","name":"account","type":"address"}],"name":"getUserIdentityData","outputs":[{"components":[{"internalType":"uint256","name":"tokenId","type":"uint256"},{"internalType":"string","name":"countryCode","type":"string"},{"internalType":"uint8","name":"userType","type":"uint8"},{"internalType":"uint8","name":"level","type":"uint8"},{"internalType":"uint256","name":"expiry","type":"uint256"}],"internalType":"struct RoleVerification.IdentityBlob","name":"userAccountIdentityBlob","type":"tuple"}],"stateMutability":"view","type":"function"},{"inputs":[{"internalType":"address","name":"account","type":"address"}],"name":"getUserLevel","outputs":[{"internalType":"uint8","name":"userAccountLevel","type":"uint8"}],"stateMutability":"view","type":"function"},{"inputs":[{"internalType":"address","name":"account","type":"address"}],"name":"getUserType","outputs":[{"internalType":"uint8","name":"userAccountType","type":"uint8"}],"stateMutability":"view","type":"function"},{"inputs":[{"internalType":"address","name":"","type":"address"}],"name":"identityBlob","outputs":[{"internalType":"uint256","name":"tokenId","type":"uint256"},{"internalType":"string","name":"countryCode","type":"string"},{"internalType":"uint8","name":"userType","type":"uint8"},{"internalType":"uint8","name":"level","type":"uint8"},{"internalType":"uint256","name":"expiry","type":"uint256"}],"stateMutability":"view","type":"function"},{"inputs":[],"name":"owner","outputs":[{"internalType":"address","name":"","type":"address"}],"stateMutability":"view","type":"function"},{"inputs":[],"name":"renounceOwnership","outputs":[],"stateMutability":"nonpayable","type":"function"},{"inputs":[{"internalType":"uint256","name":"x","type":"uint256"}],"name":"set","outputs":[],"stateMutability":"nonpayable","type":"function"},{"inputs":[],"name":"storedData","outputs":[{"internalType":"uint256","name":"","type":"uint256"}],"stateMutability":"view","type":"function"},{"inputs":[{"internalType":"address","name":"newOwner","type":"address"}],"name":"transferOwnership","outputs":[],"stateMutability":"nonpayable","type":"function"}],"evm":{"bytecode":{"linkReferences":{},"object":"60806040523480156200001157600080fd5b50604051620021ab380380620021ab8339818101604052810190620000379190620001e0565b806200005467b16d6ce29942e4ba60c01b620000f560201b60201c565b6200007067d56ff833ce56e60460c01b620000f560201b60201c565b80600160006101000a81548173ffffffffffffffffffffffffffffffffffffffff021916908373ffffffffffffffffffffffffffffffffffffffff16021790555050620000d2620000c6620000f860201b60201c565b6200010060201b60201c565b620000ee6703ffedd62355511d60c01b620001c660201b60201c565b506200025a565b50565b600033905090565b6000600260009054906101000a900473ffffffffffffffffffffffffffffffffffffffff16905081600260006101000a81548173ffffffffffffffffffffffffffffffffffffffff021916908373ffffffffffffffffffffffffffffffffffffffff1602179055508173ffffffffffffffffffffffffffffffffffffffff168173ffffffffffffffffffffffffffffffffffffffff167f8be0079c531659141344cd1fd0a4f28419497f9722a3daafe3b4186f6b6457e060405160405180910390a35050565b50565b600081519050620001da8162000240565b92915050565b600060208284031215620001f357600080fd5b60006200020384828501620001c9565b91505092915050565b6000620002198262000220565b9050919050565b600073ffffffffffffffffffffffffffffffffffffffff82169050919050565b6200024b816200020c565b81146200025757600080fd5b50565b611f41806200026a6000396000f3fe608060405234801561001057600080fd5b50600436106101da5760003560e01c80638b3f863f11610104578063dfb24b89116100a2578063ec4d57b311610071578063ec4d57b314610603578063ec8957311461061f578063eee844871461064f578063f2fde38b1461067f576101da565b8063dfb24b8914610543578063e153ab3a14610573578063e2d07959146105a3578063e9be2f47146105d3576101da565b8063b467177f116100de578063b467177f14610483578063b7180c53146104b3578063c207e9e0146104e3578063dee4c70914610513576101da565b80638b3f863f146104195780638da5cb5b146104495780639d1a6ceb14610467576101da565b80635b24bf411161017c5780636c1937331161014b5780636c193733146103a55780636ca5fde8146103c15780636d4ce63c146103f1578063715018a61461040f576101da565b80635b24bf411461030957806360fe47b11461033957806363ff7dbf14610355578063688ea9fe14610371576101da565b806326aeeeff116101b857806326aeeeff1461026f5780632a1afcd91461029f5780632bedce42146102bd5780632deb044a146102d9576101da565b806309299ea3146101df57806315c594c01461020f57806321923bde1461023f575b600080fd5b6101f960048036038101906101f491906116d8565b61069b565b6040516102069190611b35565b60405180910390f35b61022960048036038101906102249190611701565b610722565b6040516102369190611a76565b60405180910390f35b610259600480360381019061025491906116d8565b61072d565b6040516102669190611baa565b60405180910390f35b61028960048036038101906102849190611701565b61081d565b6040516102969190611a76565b60405180910390f35b6102a7610828565b6040516102b49190611b35565b60405180910390f35b6102d760048036038101906102d2919061172a565b61082e565b005b6102f360048036038101906102ee91906116d8565b610890565b6040516103009190611b13565b60405180910390f35b610323600480360381019061031e9190611701565b61098b565b6040516103309190611a76565b60405180910390f35b610353600480360381019061034e91906117ed565b610996565b005b61036f600480360381019061036a9190611701565b610aeb565b005b61038b600480360381019061038691906116d8565b610aee565b60405161039c959493929190611b50565b60405180910390f35b6103bf60048036038101906103ba9190611701565b610bc6565b005b6103db60048036038101906103d691906116d8565b610bc9565b6040516103e89190611b13565b60405180910390f35b6103f9610d3d565b6040516104069190611b35565b60405180910390f35b610417610d83565b005b610433600480360381019061042e91906116d8565b610d97565b6040516104409190611baa565b60405180910390f35b610451610e87565b60405161045e9190611a5b565b60405180910390f35b610481600480360381019061047c9190611701565b610eb1565b005b61049d600480360381019061049891906116d8565b610eb4565b6040516104aa9190611baa565b60405180910390f35b6104cd60048036038101906104c891906116d8565b610f48565b6040516104da9190611a91565b60405180910390f35b6104fd60048036038101906104f891906116d8565b61103d565b60405161050a9190611baa565b60405180910390f35b61052d60048036038101906105289190611701565b6110d1565b60405161053a9190611a76565b60405180910390f35b61055d600480360381019061055891906116d8565b6110dc565b60405161056a9190611a91565b60405180910390f35b61058d60048036038101906105889190611701565b6111eb565b60405161059a9190611a76565b60405180910390f35b6105bd60048036038101906105b89190611701565b6111f2565b6040516105ca9190611a76565b60405180910390f35b6105ed60048036038101906105e89190611701565b6111f9565b6040516105fa9190611a76565b60405180910390f35b61061d60048036038101906106189190611701565b611200565b005b61063960048036038101906106349190611701565b611203565b6040516106469190611a76565b60405180910390f35b610669600480360381019061066491906116d8565b61120a565b6040516106769190611b35565b60405180910390f35b610699600480360381019061069491906116d8565b6112fa565b005b60006106b167c1c9ef872120ad4c60c01b611200565b6106c56722a4df8a42ceaa6160c01b611200565b6106d96794447c4bb948903360c01b611200565b6000808373ffffffffffffffffffffffffffffffffffffffff1673ffffffffffffffffffffffffffffffffffffffff168152602001908152602001600020600301549050919050565b600060019050919050565b60006107436760d432632b54e7e060c01b610eb1565b61075767094462a98232646460c01b610eb1565b61076b670ed53a805b59311c60c01b610eb1565b600160009054906101000a900473ffffffffffffffffffffffffffffffffffffffff1673ffffffffffffffffffffffffffffffffffffffff1663c207e9e0836040518263ffffffff1660e01b81526004016107c69190611a5b565b60206040518083038186803b1580156107de57600080fd5b505afa1580156107f2573d6000803e3d6000fd5b505050506040513d601f19601f82011682018060405250810190610816919061183f565b9050919050565b600060019050919050565b60045481565b6108426785ac18357870599260c01b610aeb565b610856671019554411294cab60c01b610aeb565b60016003826040516108689190611a44565b908152602001604051809103902060006101000a81548160ff02191690831515021790555050565b6108986114ca565b6108ac671f20069cdaeafcfa60c01b610eb1565b6108c067de92c71d8df9dfeb60c01b610eb1565b6108d4679bbe09d21cf49a1360c01b610eb1565b600160009054906101000a900473ffffffffffffffffffffffffffffffffffffffff1673ffffffffffffffffffffffffffffffffffffffff16636ca5fde8836040518263ffffffff1660e01b815260040161092f9190611a5b565b60006040518083038186803b15801561094757600080fd5b505afa15801561095b573d6000803e3d6000fd5b505050506040513d6000823e3d601f19601f8201168201806040525081019061098491906117ac565b9050919050565b600060019050919050565b6109aa675ed3b07ecfbc885560c01b610aeb565b6109be6796e1000bf272ed4d60c01b610aeb565b6109d26741601c5dac8d814760c01b610aeb565b60006109dd33610890565b90506109f3678367d7afa237d91d60c01b610aeb565b610a0767aaebf0b24630ef4e60c01b610aeb565b600060038260200151604051610a1d9190611a44565b908152602001604051809103902060009054906101000a900460ff169050610a4f6720f37b0ef0e815c960c01b610aeb565b610a636711ce75e913acd22c60c01b610aeb565b610a7767b6cb4f204dc5645b60c01b610aeb565b80610ab7576040517f08c379a0000000000000000000000000000000000000000000000000000000008152600401610aae90611ad3565b60405180910390fd5b610acb67936c735b5fd27ec460c01b610aeb565b610adf67464eb4a5ed0a77f260c01b610aeb565b82600481905550505050565b50565b6000602052806000526040600020600091509050806000015490806001018054610b1790611d16565b80601f0160208091040260200160405190810160405280929190818152602001828054610b4390611d16565b8015610b905780601f10610b6557610100808354040283529160200191610b90565b820191906000526020600020905b815481529060010190602001808311610b7357829003601f168201915b5050505050908060020160009054906101000a900460ff16908060020160019054906101000a900460ff16908060030154905085565b50565b610bd16114ca565b610be567a05f59d4624295fd60c01b611200565b610bf96769c1a1d6327d607160c01b611200565b610c0d67bdaf4779ff83744f60c01b611200565b6000808373ffffffffffffffffffffffffffffffffffffffff1673ffffffffffffffffffffffffffffffffffffffff1681526020019081526020016000206040518060a001604052908160008201548152602001600182018054610c7090611d16565b80601f0160208091040260200160405190810160405280929190818152602001828054610c9c90611d16565b8015610ce95780601f10610cbe57610100808354040283529160200191610ce9565b820191906000526020600020905b815481529060010190602001808311610ccc57829003601f168201915b505050505081526020016002820160009054906101000a900460ff1660ff1660ff1681526020016002820160019054906101000a900460ff1660ff1660ff1681526020016003820154815250509050919050565b6000610d53671d7007c97f9d15ab60c01b610aeb565b610d6767dbc2b6256f885e8360c01b610aeb565b610d7b67a098d7b5d664290d60c01b610aeb565b600454905090565b610d8b61137e565b610d9560006113fc565b565b6000610dad671f0cdf85f971b64560c01b610eb1565b610dc167cbfc57c0710762bc60c01b610eb1565b610dd5673790b5bfa84d84ed60c01b610eb1565b600160009054906101000a900473ffffffffffffffffffffffffffffffffffffffff1673ffffffffffffffffffffffffffffffffffffffff1663b467177f836040518263ffffffff1660e01b8152600401610e309190611a5b565b60206040518083038186803b158015610e4857600080fd5b505afa158015610e5c573d6000803e3d6000fd5b505050506040513d601f19601f82011682018060405250810190610e80919061183f565b9050919050565b6000600260009054906101000a900473ffffffffffffffffffffffffffffffffffffffff16905090565b50565b6000610eca6732c39d4afc3889c160c01b610bc6565b610ede67dae6db8ba31c013c60c01b610bc6565b610ef267b501f3a83b16752260c01b610bc6565b6000808373ffffffffffffffffffffffffffffffffffffffff1673ffffffffffffffffffffffffffffffffffffffff16815260200190815260200160002060020160009054906101000a900460ff169050919050565b6060610f5e6768b84227e30275ba60c01b610eb1565b610f7267c3e2f76f13dfeb5e60c01b610eb1565b610f8667cad76b00596ccb6e60c01b610eb1565b600160009054906101000a900473ffffffffffffffffffffffffffffffffffffffff1673ffffffffffffffffffffffffffffffffffffffff1663dfb24b89836040518263ffffffff1660e01b8152600401610fe19190611a5b565b60006040518083038186803b158015610ff957600080fd5b505afa15801561100d573d6000803e3d6000fd5b505050506040513d6000823e3d601f19601f82011682018060405250810190611036919061176b565b9050919050565b600061105367c0754c09f9d3a69e60c01b610bc6565b61106767d1e3fdb2292aa24960c01b610bc6565b61107b679561272df2bf34be60c01b610bc6565b6000808373ffffffffffffffffffffffffffffffffffffffff1673ffffffffffffffffffffffffffffffffffffffff16815260200190815260200160002060020160019054906101000a900460ff169050919050565b600060019050919050565b60606110f267371008949763f33860c01b610bc6565b61110667a5bd462cd2256c0b60c01b610bc6565b61111a67724c0f716158057260c01b610bc6565b6000808373ffffffffffffffffffffffffffffffffffffffff1673ffffffffffffffffffffffffffffffffffffffff168152602001908152602001600020600101805461116690611d16565b80601f016020809104026020016040519081016040528092919081815260200182805461119290611d16565b80156111df5780601f106111b4576101008083540402835291602001916111df565b820191906000526020600020905b8154815290600101906020018083116111c257829003601f168201915b50505050509050919050565b6000919050565b6000919050565b6000919050565b50565b6000919050565b600061122067f222f3874e6d0d2e60c01b610eb1565b6112346774385fec5ca8e27c60c01b610eb1565b611248673f25326f1d75fddf60c01b610eb1565b600160009054906101000a900473ffffffffffffffffffffffffffffffffffffffff1673ffffffffffffffffffffffffffffffffffffffff166309299ea3836040518263ffffffff1660e01b81526004016112a39190611a5b565b60206040518083038186803b1580156112bb57600080fd5b505afa1580156112cf573d6000803e3d6000fd5b505050506040513d601f19601f820116820180604052508101906112f39190611816565b9050919050565b61130261137e565b600073ffffffffffffffffffffffffffffffffffffffff168173ffffffffffffffffffffffffffffffffffffffff161415611372576040517f08c379a000000000000000000000000000000000000000000000000000000000815260040161136990611ab3565b60405180910390fd5b61137b816113fc565b50565b6113866114c2565b73ffffffffffffffffffffffffffffffffffffffff166113a4610e87565b73ffffffffffffffffffffffffffffffffffffffff16146113fa576040517f08c379a00000000000000000000000000000000000000000000000000000000081526004016113f190611af3565b60405180910390fd5b565b6000600260009054906101000a900473ffffffffffffffffffffffffffffffffffffffff16905081600260006101000a81548173ffffffffffffffffffffffffffffffffffffffff021916908373ffffffffffffffffffffffffffffffffffffffff1602179055508173ffffffffffffffffffffffffffffffffffffffff168173ffffffffffffffffffffffffffffffffffffffff167f8be0079c531659141344cd1fd0a4f28419497f9722a3daafe3b4186f6b6457e060405160405180910390a35050565b600033905090565b6040518060a001604052806000815260200160608152602001600060ff168152602001600060ff168152602001600081525090565b600061151261150d84611bea565b611bc5565b90508281526020810184848401111561152a57600080fd5b611535848285611cd4565b509392505050565b600061155061154b84611bea565b611bc5565b90508281526020810184848401111561156857600080fd5b611573848285611ce3565b509392505050565b60008135905061158a81611eaf565b92915050565b60008135905061159f81611ec6565b92915050565b600082601f8301126115b657600080fd5b81356115c68482602086016114ff565b91505092915050565b600082601f8301126115e057600080fd5b81516115f084826020860161153d565b91505092915050565b600060a0828403121561160b57600080fd5b61161560a0611bc5565b90506000611625848285016116ae565b600083015250602082015167ffffffffffffffff81111561164557600080fd5b611651848285016115cf565b6020830152506040611665848285016116c3565b6040830152506060611679848285016116c3565b606083015250608061168d848285016116ae565b60808301525092915050565b6000813590506116a881611edd565b92915050565b6000815190506116bd81611edd565b92915050565b6000815190506116d281611ef4565b92915050565b6000602082840312156116ea57600080fd5b60006116f88482850161157b565b91505092915050565b60006020828403121561171357600080fd5b600061172184828501611590565b91505092915050565b60006020828403121561173c57600080fd5b600082013567ffffffffffffffff81111561175657600080fd5b611762848285016115a5565b91505092915050565b60006020828403121561177d57600080fd5b600082015167ffffffffffffffff81111561179757600080fd5b6117a3848285016115cf565b91505092915050565b6000602082840312156117be57600080fd5b600082015167ffffffffffffffff8111156117d857600080fd5b6117e4848285016115f9565b91505092915050565b6000602082840312156117ff57600080fd5b600061180d84828501611699565b91505092915050565b60006020828403121561182857600080fd5b6000611836848285016116ae565b91505092915050565b60006020828403121561185157600080fd5b600061185f848285016116c3565b91505092915050565b61187181611c53565b82525050565b61188081611c65565b82525050565b600061189182611c1b565b61189b8185611c26565b93506118ab818560208601611ce3565b6118b481611dd7565b840191505092915050565b60006118ca82611c1b565b6118d48185611c37565b93506118e4818560208601611ce3565b6118ed81611dd7565b840191505092915050565b600061190382611c1b565b61190d8185611c48565b935061191d818560208601611ce3565b80840191505092915050565b6000611936602683611c37565b915061194182611de8565b604082019050919050565b6000611959603283611c37565b915061196482611e37565b604082019050919050565b600061197c602083611c37565b915061198782611e86565b602082019050919050565b600060a0830160008301516119aa6000860182611a08565b50602083015184820360208601526119c28282611886565b91505060408301516119d76040860182611a26565b5060608301516119ea6060860182611a26565b5060808301516119fd6080860182611a08565b508091505092915050565b611a1181611cbd565b82525050565b611a2081611cbd565b82525050565b611a2f81611cc7565b82525050565b611a3e81611cc7565b82525050565b6000611a5082846118f8565b915081905092915050565b6000602082019050611a706000830184611868565b92915050565b6000602082019050611a8b6000830184611877565b92915050565b60006020820190508181036000830152611aab81846118bf565b905092915050565b60006020820190508181036000830152611acc81611929565b9050919050565b60006020820190508181036000830152611aec8161194c565b9050919050565b60006020820190508181036000830152611b0c8161196f565b9050919050565b60006020820190508181036000830152611b2d8184611992565b905092915050565b6000602082019050611b4a6000830184611a17565b92915050565b600060a082019050611b656000830188611a17565b8181036020830152611b7781876118bf565b9050611b866040830186611a35565b611b936060830185611a35565b611ba06080830184611a17565b9695505050505050565b6000602082019050611bbf6000830184611a35565b92915050565b6000611bcf611be0565b9050611bdb8282611d48565b919050565b6000604051905090565b600067ffffffffffffffff821115611c0557611c04611da8565b5b611c0e82611dd7565b9050602081019050919050565b600081519050919050565b600082825260208201905092915050565b600082825260208201905092915050565b600081905092915050565b6000611c5e82611c9d565b9050919050565b60008115159050919050565b60007fffffffffffffffff00000000000000000000000000000000000000000000000082169050919050565b600073ffffffffffffffffffffffffffffffffffffffff82169050919050565b6000819050919050565b600060ff82169050919050565b82818337600083830152505050565b60005b83811015611d01578082015181840152602081019050611ce6565b83811115611d10576000848401525b50505050565b60006002820490506001821680611d2e57607f821691505b60208210811415611d4257611d41611d79565b5b50919050565b611d5182611dd7565b810181811067ffffffffffffffff82111715611d7057611d6f611da8565b5b80604052505050565b7f4e487b7100000000000000000000000000000000000000000000000000000000600052602260045260246000fd5b7f4e487b7100000000000000000000000000000000000000000000000000000000600052604160045260246000fd5b6000601f19601f8301169050919050565b7f4f776e61626c653a206e6577206f776e657220697320746865207a65726f206160008201527f6464726573730000000000000000000000000000000000000000000000000000602082015250565b7f4572723a20636f756e747279636f6465206e6f7420617070726f76656420666f60008201527f722074686973206170706c69636174696f6e0000000000000000000000000000602082015250565b7f4f776e61626c653a2063616c6c6572206973206e6f7420746865206f776e6572600082015250565b611eb881611c53565b8114611ec357600080fd5b50565b611ecf81611c71565b8114611eda57600080fd5b50565b611ee681611cbd565b8114611ef157600080fd5b50565b611efd81611cc7565b8114611f0857600080fd5b5056fea2646970667358221220026d5c80c53f428051089b8f74c574b2af58ab4285c99810e75f6f0498ad6f4b64736f6c63430008020033","opcodes":"PUSH1 0x80 PUSH1 0x40 MSTORE CALLVALUE DUP1 ISZERO PUSH3 0x11 JUMPI PUSH1 0x0 DUP1 REVERT JUMPDEST POP PUSH1 0x40 MLOAD PUSH3 0x21AB CODESIZE SUB DUP1 PUSH3 0x21AB DUP4 CODECOPY DUP2 DUP2 ADD PUSH1 0x40 MSTORE DUP2 ADD SWAP1 PUSH3 0x37 SWAP2 SWAP1 PUSH3 0x1E0 JUMP JUMPDEST DUP1 PUSH3 0x54 PUSH8 0xB16D6CE29942E4BA PUSH1 0xC0 SHL PUSH3 0xF5 PUSH1 0x20 SHL PUSH1 0x20 SHR JUMP JUMPDEST PUSH3 0x70 PUSH8 0xD56FF833CE56E604 PUSH1 0xC0 SHL PUSH3 0xF5 PUSH1 0x20 SHL PUSH1 0x20 SHR JUMP JUMPDEST DUP1 PUSH1 0x1 PUSH1 0x0 PUSH2 0x100 EXP DUP2 SLOAD DUP2 PUSH20 0xFFFFFFFFFFFFFFFFFFFFFFFFFFFFFFFFFFFFFFFF MUL NOT AND SWAP1 DUP4 PUSH20 0xFFFFFFFFFFFFFFFFFFFFFFFFFFFFFFFFFFFFFFFF AND MUL OR SWAP1 SSTORE POP POP PUSH3 0xD2 PUSH3 0xC6 PUSH3 0xF8 PUSH1 0x20 SHL PUSH1 0x20 SHR JUMP JUMPDEST PUSH3 0x100 PUSH1 0x20 SHL PUSH1 0x20 SHR JUMP JUMPDEST PUSH3 0xEE PUSH8 0x3FFEDD62355511D PUSH1 0xC0 SHL PUSH3 0x1C6 PUSH1 0x20 SHL PUSH1 0x20 SHR JUMP JUMPDEST POP PUSH3 0x25A JUMP JUMPDEST POP JUMP JUMPDEST PUSH1 0x0 CALLER SWAP1 POP SWAP1 JUMP JUMPDEST PUSH1 0x0 PUSH1 0x2 PUSH1 0x0 SWAP1 SLOAD SWAP1 PUSH2 0x100 EXP SWAP1 DIV PUSH20 0xFFFFFFFFFFFFFFFFFFFFFFFFFFFFFFFFFFFFFFFF AND SWAP1 POP DUP2 PUSH1 0x2 PUSH1 0x0 PUSH2 0x100 EXP DUP2 SLOAD DUP2 PUSH20 0xFFFFFFFFFFFFFFFFFFFFFFFFFFFFFFFFFFFFFFFF MUL NOT AND SWAP1 DUP4 PUSH20 0xFFFFFFFFFFFFFFFFFFFFFFFFFFFFFFFFFFFFFFFF AND MUL OR SWAP1 SSTORE POP DUP2 PUSH20 0xFFFFFFFFFFFFFFFFFFFFFFFFFFFFFFFFFFFFFFFF AND DUP2 PUSH20 0xFFFFFFFFFFFFFFFFFFFFFFFFFFFFFFFFFFFFFFFF AND PUSH32 0x8BE0079C531659141344CD1FD0A4F28419497F9722A3DAAFE3B4186F6B6457E0 PUSH1 0x40 MLOAD PUSH1 0x40 MLOAD DUP1 SWAP2 SUB SWAP1 LOG3 POP POP JUMP JUMPDEST POP JUMP JUMPDEST PUSH1 0x0 DUP2 MLOAD SWAP1 POP PUSH3 0x1DA DUP2 PUSH3 0x240 JUMP JUMPDEST SWAP3 SWAP2 POP POP JUMP JUMPDEST PUSH1 0x0 PUSH1 0x20 DUP3 DUP5 SUB SLT ISZERO PUSH3 0x1F3 JUMPI PUSH1 0x0 DUP1 REVERT JUMPDEST PUSH1 0x0 PUSH3 0x203 DUP5 DUP3 DUP6 ADD PUSH3 0x1C9 JUMP JUMPDEST SWAP2 POP POP SWAP3 SWAP2 POP POP JUMP JUMPDEST PUSH1 0x0 PUSH3 0x219 DUP3 PUSH3 0x220 JUMP JUMPDEST SWAP1 POP SWAP2 SWAP1 POP JUMP JUMPDEST PUSH1 0x0 PUSH20 0xFFFFFFFFFFFFFFFFFFFFFFFFFFFFFFFFFFFFFFFF DUP3 AND SWAP1 POP SWAP2 SWAP1 POP JUMP JUMPDEST PUSH3 0x24B DUP2 PUSH3 0x20C JUMP JUMPDEST DUP2 EQ PUSH3 0x257 JUMPI PUSH1 0x0 DUP1 REVERT JUMPDEST POP JUMP JUMPDEST PUSH2 0x1F41 DUP1 PUSH3 0x26A PUSH1 0x0 CODECOPY PUSH1 0x0 RETURN INVALID PUSH1 0x80 PUSH1 0x40 MSTORE CALLVALUE DUP1 ISZERO PUSH2 0x10 JUMPI PUSH1 0x0 DUP1 REVERT JUMPDEST POP PUSH1 0x4 CALLDATASIZE LT PUSH2 0x1DA JUMPI PUSH1 0x0 CALLDATALOAD PUSH1 0xE0 SHR DUP1 PUSH4 0x8B3F863F GT PUSH2 0x104 JUMPI DUP1 PUSH4 0xDFB24B89 GT PUSH2 0xA2 JUMPI DUP1 PUSH4 0xEC4D57B3 GT PUSH2 0x71 JUMPI DUP1 PUSH4 0xEC4D57B3 EQ PUSH2 0x603 JUMPI DUP1 PUSH4 0xEC895731 EQ PUSH2 0x61F JUMPI DUP1 PUSH4 0xEEE84487 EQ PUSH2 0x64F JUMPI DUP1 PUSH4 0xF2FDE38B EQ PUSH2 0x67F JUMPI PUSH2 0x1DA JUMP JUMPDEST DUP1 PUSH4 0xDFB24B89 EQ PUSH2 0x543 JUMPI DUP1 PUSH4 0xE153AB3A EQ PUSH2 0x573 JUMPI DUP1 PUSH4 0xE2D07959 EQ PUSH2 0x5A3 JUMPI DUP1 PUSH4 0xE9BE2F47 EQ PUSH2 0x5D3 JUMPI PUSH2 0x1DA JUMP JUMPDEST DUP1 PUSH4 0xB467177F GT PUSH2 0xDE JUMPI DUP1 PUSH4 0xB467177F EQ PUSH2 0x483 JUMPI DUP1 PUSH4 0xB7180C53 EQ PUSH2 0x4B3 JUMPI DUP1 PUSH4 0xC207E9E0 EQ PUSH2 0x4E3 JUMPI DUP1 PUSH4 0xDEE4C709 EQ PUSH2 0x513 JUMPI PUSH2 0x1DA JUMP JUMPDEST DUP1 PUSH4 0x8B3F863F EQ PUSH2 0x419 JUMPI DUP1 PUSH4 0x8DA5CB5B EQ PUSH2 0x449 JUMPI DUP1 PUSH4 0x9D1A6CEB EQ PUSH2 0x467 JUMPI PUSH2 0x1DA JUMP JUMPDEST DUP1 PUSH4 0x5B24BF41 GT PUSH2 0x17C JUMPI DUP1 PUSH4 0x6C193733 GT PUSH2 0x14B JUMPI DUP1 PUSH4 0x6C193733 EQ PUSH2 0x3A5 JUMPI DUP1 PUSH4 0x6CA5FDE8 EQ PUSH2 0x3C1 JUMPI DUP1 PUSH4 0x6D4CE63C EQ PUSH2 0x3F1 JUMPI DUP1 PUSH4 0x715018A6 EQ PUSH2 0x40F JUMPI PUSH2 0x1DA JUMP JUMPDEST DUP1 PUSH4 0x5B24BF41 EQ PUSH2 0x309 JUMPI DUP1 PUSH4 0x60FE47B1 EQ PUSH2 0x339 JUMPI DUP1 PUSH4 0x63FF7DBF EQ PUSH2 0x355 JUMPI DUP1 PUSH4 0x688EA9FE EQ PUSH2 0x371 JUMPI PUSH2 0x1DA JUMP JUMPDEST DUP1 PUSH4 0x26AEEEFF GT PUSH2 0x1B8 JUMPI DUP1 PUSH4 0x26AEEEFF EQ PUSH2 0x26F JUMPI DUP1 PUSH4 0x2A1AFCD9 EQ PUSH2 0x29F JUMPI DUP1 PUSH4 0x2BEDCE42 EQ PUSH2 0x2BD JUMPI DUP1 PUSH4 0x2DEB044A EQ PUSH2 0x2D9 JUMPI PUSH2 0x1DA JUMP JUMPDEST DUP1 PUSH4 0x9299EA3 EQ PUSH2 0x1DF JUMPI DUP1 PUSH4 0x15C594C0 EQ PUSH2 0x20F JUMPI DUP1 PUSH4 0x21923BDE EQ PUSH2 0x23F JUMPI JUMPDEST PUSH1 0x0 DUP1 REVERT JUMPDEST PUSH2 0x1F9 PUSH1 0x4 DUP1 CALLDATASIZE SUB DUP2 ADD SWAP1 PUSH2 0x1F4 SWAP2 SWAP1 PUSH2 0x16D8 JUMP JUMPDEST PUSH2 0x69B JUMP JUMPDEST PUSH1 0x40 MLOAD PUSH2 0x206 SWAP2 SWAP1 PUSH2 0x1B35 JUMP JUMPDEST PUSH1 0x40 MLOAD DUP1 SWAP2 SUB SWAP1 RETURN JUMPDEST PUSH2 0x229 PUSH1 0x4 DUP1 CALLDATASIZE SUB DUP2 ADD SWAP1 PUSH2 0x224 SWAP2 SWAP1 PUSH2 0x1701 JUMP JUMPDEST PUSH2 0x722 JUMP JUMPDEST PUSH1 0x40 MLOAD PUSH2 0x236 SWAP2 SWAP1 PUSH2 0x1A76 JUMP JUMPDEST PUSH1 0x40 MLOAD DUP1 SWAP2 SUB SWAP1 RETURN JUMPDEST PUSH2 0x259 PUSH1 0x4 DUP1 CALLDATASIZE SUB DUP2 ADD SWAP1 PUSH2 0x254 SWAP2 SWAP1 PUSH2 0x16D8 JUMP JUMPDEST PUSH2 0x72D JUMP JUMPDEST PUSH1 0x40 MLOAD PUSH2 0x266 SWAP2 SWAP1 PUSH2 0x1BAA JUMP JUMPDEST PUSH1 0x40 MLOAD DUP1 SWAP2 SUB SWAP1 RETURN JUMPDEST PUSH2 0x289 PUSH1 0x4 DUP1 CALLDATASIZE SUB DUP2 ADD SWAP1 PUSH2 0x284 SWAP2 SWAP1 PUSH2 0x1701 JUMP JUMPDEST PUSH2 0x81D JUMP JUMPDEST PUSH1 0x40 MLOAD PUSH2 0x296 SWAP2 SWAP1 PUSH2 0x1A76 JUMP JUMPDEST PUSH1 0x40 MLOAD DUP1 SWAP2 SUB SWAP1 RETURN JUMPDEST PUSH2 0x2A7 PUSH2 0x828 JUMP JUMPDEST PUSH1 0x40 MLOAD PUSH2 0x2B4 SWAP2 SWAP1 PUSH2 0x1B35 JUMP JUMPDEST PUSH1 0x40 MLOAD DUP1 SWAP2 SUB SWAP1 RETURN JUMPDEST PUSH2 0x2D7 PUSH1 0x4 DUP1 CALLDATASIZE SUB DUP2 ADD SWAP1 PUSH2 0x2D2 SWAP2 SWAP1 PUSH2 0x172A JUMP JUMPDEST PUSH2 0x82E JUMP JUMPDEST STOP JUMPDEST PUSH2 0x2F3 PUSH1 0x4 DUP1 CALLDATASIZE SUB DUP2 ADD SWAP1 PUSH2 0x2EE SWAP2 SWAP1 PUSH2 0x16D8 JUMP JUMPDEST PUSH2 0x890 JUMP JUMPDEST PUSH1 0x40 MLOAD PUSH2 0x300 SWAP2 SWAP1 PUSH2 0x1B13 JUMP JUMPDEST PUSH1 0x40 MLOAD DUP1 SWAP2 SUB SWAP1 RETURN JUMPDEST PUSH2 0x323 PUSH1 0x4 DUP1 CALLDATASIZE SUB DUP2 ADD SWAP1 PUSH2 0x31E SWAP2 SWAP1 PUSH2 0x1701 JUMP JUMPDEST PUSH2 0x98B JUMP JUMPDEST PUSH1 0x40 MLOAD PUSH2 0x330 SWAP2 SWAP1 PUSH2 0x1A76 JUMP JUMPDEST PUSH1 0x40 MLOAD DUP1 SWAP2 SUB SWAP1 RETURN JUMPDEST PUSH2 0x353 PUSH1 0x4 DUP1 CALLDATASIZE SUB DUP2 ADD SWAP1 PUSH2 0x34E SWAP2 SWAP1 PUSH2 0x17ED JUMP JUMPDEST PUSH2 0x996 JUMP JUMPDEST STOP JUMPDEST PUSH2 0x36F PUSH1 0x4 DUP1 CALLDATASIZE SUB DUP2 ADD SWAP1 PUSH2 0x36A SWAP2 SWAP1 PUSH2 0x1701 JUMP JUMPDEST PUSH2 0xAEB JUMP JUMPDEST STOP JUMPDEST PUSH2 0x38B PUSH1 0x4 DUP1 CALLDATASIZE SUB DUP2 ADD SWAP1 PUSH2 0x386 SWAP2 SWAP1 PUSH2 0x16D8 JUMP JUMPDEST PUSH2 0xAEE JUMP JUMPDEST PUSH1 0x40 MLOAD PUSH2 0x39C SWAP6 SWAP5 SWAP4 SWAP3 SWAP2 SWAP1 PUSH2 0x1B50 JUMP JUMPDEST PUSH1 0x40 MLOAD DUP1 SWAP2 SUB SWAP1 RETURN JUMPDEST PUSH2 0x3BF PUSH1 0x4 DUP1 CALLDATASIZE SUB DUP2 ADD SWAP1 PUSH2 0x3BA SWAP2 SWAP1 PUSH2 0x1701 JUMP JUMPDEST PUSH2 0xBC6 JUMP JUMPDEST STOP JUMPDEST PUSH2 0x3DB PUSH1 0x4 DUP1 CALLDATASIZE SUB DUP2 ADD SWAP1 PUSH2 0x3D6 SWAP2 SWAP1 PUSH2 0x16D8 JUMP JUMPDEST PUSH2 0xBC9 JUMP JUMPDEST PUSH1 0x40 MLOAD PUSH2 0x3E8 SWAP2 SWAP1 PUSH2 0x1B13 JUMP JUMPDEST PUSH1 0x40 MLOAD DUP1 SWAP2 SUB SWAP1 RETURN JUMPDEST PUSH2 0x3F9 PUSH2 0xD3D JUMP JUMPDEST PUSH1 0x40 MLOAD PUSH2 0x406 SWAP2 SWAP1 PUSH2 0x1B35 JUMP JUMPDEST PUSH1 0x40 MLOAD DUP1 SWAP2 SUB SWAP1 RETURN JUMPDEST PUSH2 0x417 PUSH2 0xD83 JUMP JUMPDEST STOP JUMPDEST PUSH2 0x433 PUSH1 0x4 DUP1 CALLDATASIZE SUB DUP2 ADD SWAP1 PUSH2 0x42E SWAP2 SWAP1 PUSH2 0x16D8 JUMP JUMPDEST PUSH2 0xD97 JUMP JUMPDEST PUSH1 0x40 MLOAD PUSH2 0x440 SWAP2 SWAP1 PUSH2 0x1BAA JUMP JUMPDEST PUSH1 0x40 MLOAD DUP1 SWAP2 SUB SWAP1 RETURN JUMPDEST PUSH2 0x451 PUSH2 0xE87 JUMP JUMPDEST PUSH1 0x40 MLOAD PUSH2 0x45E SWAP2 SWAP1 PUSH2 0x1A5B JUMP JUMPDEST PUSH1 0x40 MLOAD DUP1 SWAP2 SUB SWAP1 RETURN JUMPDEST PUSH2 0x481 PUSH1 0x4 DUP1 CALLDATASIZE SUB DUP2 ADD SWAP1 PUSH2 0x47C SWAP2 SWAP1 PUSH2 0x1701 JUMP JUMPDEST PUSH2 0xEB1 JUMP JUMPDEST STOP JUMPDEST PUSH2 0x49D PUSH1 0x4 DUP1 CALLDATASIZE SUB DUP2 ADD SWAP1 PUSH2 0x498 SWAP2 SWAP1 PUSH2 0x16D8 JUMP JUMPDEST PUSH2 0xEB4 JUMP JUMPDEST PUSH1 0x40 MLOAD PUSH2 0x4AA SWAP2 SWAP1 PUSH2 0x1BAA JUMP JUMPDEST PUSH1 0x40 MLOAD DUP1 SWAP2 SUB SWAP1 RETURN JUMPDEST PUSH2 0x4CD PUSH1 0x4 DUP1 CALLDATASIZE SUB DUP2 ADD SWAP1 PUSH2 0x4C8 SWAP2 SWAP1 PUSH2 0x16D8 JUMP JUMPDEST PUSH2 0xF48 JUMP JUMPDEST PUSH1 0x40 MLOAD PUSH2 0x4DA SWAP2 SWAP1 PUSH2 0x1A91 JUMP JUMPDEST PUSH1 0x40 MLOAD DUP1 SWAP2 SUB SWAP1 RETURN JUMPDEST PUSH2 0x4FD PUSH1 0x4 DUP1 CALLDATASIZE SUB DUP2 ADD SWAP1 PUSH2 0x4F8 SWAP2 SWAP1 PUSH2 0x16D8 JUMP JUMPDEST PUSH2 0x103D JUMP JUMPDEST PUSH1 0x40 MLOAD PUSH2 0x50A SWAP2 SWAP1 PUSH2 0x1BAA JUMP JUMPDEST PUSH1 0x40 MLOAD DUP1 SWAP2 SUB SWAP1 RETURN JUMPDEST PUSH2 0x52D PUSH1 0x4 DUP1 CALLDATASIZE SUB DUP2 ADD SWAP1 PUSH2 0x528 SWAP2 SWAP1 PUSH2 0x1701 JUMP JUMPDEST PUSH2 0x10D1 JUMP JUMPDEST PUSH1 0x40 MLOAD PUSH2 0x53A SWAP2 SWAP1 PUSH2 0x1A76 JUMP JUMPDEST PUSH1 0x40 MLOAD DUP1 SWAP2 SUB SWAP1 RETURN JUMPDEST PUSH2 0x55D PUSH1 0x4 DUP1 CALLDATASIZE SUB DUP2 ADD SWAP1 PUSH2 0x558 SWAP2 SWAP1 PUSH2 0x16D8 JUMP JUMPDEST PUSH2 0x10DC JUMP JUMPDEST PUSH1 0x40 MLOAD PUSH2 0x56A SWAP2 SWAP1 PUSH2 0x1A91 JUMP JUMPDEST PUSH1 0x40 MLOAD DUP1 SWAP2 SUB SWAP1 RETURN JUMPDEST PUSH2 0x58D PUSH1 0x4 DUP1 CALLDATASIZE SUB DUP2 ADD SWAP1 PUSH2 0x588 SWAP2 SWAP1 PUSH2 0x1701 JUMP JUMPDEST PUSH2 0x11EB JUMP JUMPDEST PUSH1 0x40 MLOAD PUSH2 0x59A SWAP2 SWAP1 PUSH2 0x1A76 JUMP JUMPDEST PUSH1 0x40 MLOAD DUP1 SWAP2 SUB SWAP1 RETURN JUMPDEST PUSH2 0x5BD PUSH1 0x4 DUP1 CALLDATASIZE SUB DUP2 ADD SWAP1 PUSH2 0x5B8 SWAP2 SWAP1 PUSH2 0x1701 JUMP JUMPDEST PUSH2 0x11F2 JUMP JUMPDEST PUSH1 0x40 MLOAD PUSH2 0x5CA SWAP2 SWAP1 PUSH2 0x1A76 JUMP JUMPDEST PUSH1 0x40 MLOAD DUP1 SWAP2 SUB SWAP1 RETURN JUMPDEST PUSH2 0x5ED PUSH1 0x4 DUP1 CALLDATASIZE SUB DUP2 ADD SWAP1 PUSH2 0x5E8 SWAP2 SWAP1 PUSH2 0x1701 JUMP JUMPDEST PUSH2 0x11F9 JUMP JUMPDEST PUSH1 0x40 MLOAD PUSH2 0x5FA SWAP2 SWAP1 PUSH2 0x1A76 JUMP JUMPDEST PUSH1 0x40 MLOAD DUP1 SWAP2 SUB SWAP1 RETURN JUMPDEST PUSH2 0x61D PUSH1 0x4 DUP1 CALLDATASIZE SUB DUP2 ADD SWAP1 PUSH2 0x618 SWAP2 SWAP1 PUSH2 0x1701 JUMP JUMPDEST PUSH2 0x1200 JUMP JUMPDEST STOP JUMPDEST PUSH2 0x639 PUSH1 0x4 DUP1 CALLDATASIZE SUB DUP2 ADD SWAP1 PUSH2 0x634 SWAP2 SWAP1 PUSH2 0x1701 JUMP JUMPDEST PUSH2 0x1203 JUMP JUMPDEST PUSH1 0x40 MLOAD PUSH2 0x646 SWAP2 SWAP1 PUSH2 0x1A76 JUMP JUMPDEST PUSH1 0x40 MLOAD DUP1 SWAP2 SUB SWAP1 RETURN JUMPDEST PUSH2 0x669 PUSH1 0x4 DUP1 CALLDATASIZE SUB DUP2 ADD SWAP1 PUSH2 0x664 SWAP2 SWAP1 PUSH2 0x16D8 JUMP JUMPDEST PUSH2 0x120A JUMP JUMPDEST PUSH1 0x40 MLOAD PUSH2 0x676 SWAP2 SWAP1 PUSH2 0x1B35 JUMP JUMPDEST PUSH1 0x40 MLOAD DUP1 SWAP2 SUB SWAP1 RETURN JUMPDEST PUSH2 0x699 PUSH1 0x4 DUP1 CALLDATASIZE SUB DUP2 ADD SWAP1 PUSH2 0x694 SWAP2 SWAP1 PUSH2 0x16D8 JUMP JUMPDEST PUSH2 0x12FA JUMP JUMPDEST STOP JUMPDEST PUSH1 0x0 PUSH2 0x6B1 PUSH8 0xC1C9EF872120AD4C PUSH1 0xC0 SHL PUSH2 0x1200 JUMP JUMPDEST PUSH2 0x6C5 PUSH8 0x22A4DF8A42CEAA61 PUSH1 0xC0 SHL PUSH2 0x1200 JUMP JUMPDEST PUSH2 0x6D9 PUSH8 0x94447C4BB9489033 PUSH1 0xC0 SHL PUSH2 0x1200 JUMP JUMPDEST PUSH1 0x0 DUP1 DUP4 PUSH20 0xFFFFFFFFFFFFFFFFFFFFFFFFFFFFFFFFFFFFFFFF AND PUSH20 0xFFFFFFFFFFFFFFFFFFFFFFFFFFFFFFFFFFFFFFFF AND DUP2 MSTORE PUSH1 0x20 ADD SWAP1 DUP2 MSTORE PUSH1 0x20 ADD PUSH1 0x0 KECCAK256 PUSH1 0x3 ADD SLOAD SWAP1 POP SWAP2 SWAP1 POP JUMP JUMPDEST PUSH1 0x0 PUSH1 0x1 SWAP1 POP SWAP2 SWAP1 POP JUMP JUMPDEST PUSH1 0x0 PUSH2 0x743 PUSH8 0x60D432632B54E7E0 PUSH1 0xC0 SHL PUSH2 0xEB1 JUMP JUMPDEST PUSH2 0x757 PUSH8 0x94462A982326464 PUSH1 0xC0 SHL PUSH2 0xEB1 JUMP JUMPDEST PUSH2 0x76B PUSH8 0xED53A805B59311C PUSH1 0xC0 SHL PUSH2 0xEB1 JUMP JUMPDEST PUSH1 0x1 PUSH1 0x0 SWAP1 SLOAD SWAP1 PUSH2 0x100 EXP SWAP1 DIV PUSH20 0xFFFFFFFFFFFFFFFFFFFFFFFFFFFFFFFFFFFFFFFF AND PUSH20 0xFFFFFFFFFFFFFFFFFFFFFFFFFFFFFFFFFFFFFFFF AND PUSH4 0xC207E9E0 DUP4 PUSH1 0x40 MLOAD DUP3 PUSH4 0xFFFFFFFF AND PUSH1 0xE0 SHL DUP2 MSTORE PUSH1 0x4 ADD PUSH2 0x7C6 SWAP2 SWAP1 PUSH2 0x1A5B JUMP JUMPDEST PUSH1 0x20 PUSH1 0x40 MLOAD DUP1 DUP4 SUB DUP2 DUP7 DUP1 EXTCODESIZE ISZERO DUP1 ISZERO PUSH2 0x7DE JUMPI PUSH1 0x0 DUP1 REVERT JUMPDEST POP GAS STATICCALL ISZERO DUP1 ISZERO PUSH2 0x7F2 JUMPI RETURNDATASIZE PUSH1 0x0 DUP1 RETURNDATACOPY RETURNDATASIZE PUSH1 0x0 REVERT JUMPDEST POP POP POP POP PUSH1 0x40 MLOAD RETURNDATASIZE PUSH1 0x1F NOT PUSH1 0x1F DUP3 ADD AND DUP3 ADD DUP1 PUSH1 0x40 MSTORE POP DUP2 ADD SWAP1 PUSH2 0x816 SWAP2 SWAP1 PUSH2 0x183F JUMP JUMPDEST SWAP1 POP SWAP2 SWAP1 POP JUMP JUMPDEST PUSH1 0x0 PUSH1 0x1 SWAP1 POP SWAP2 SWAP1 POP JUMP JUMPDEST PUSH1 0x4 SLOAD DUP2 JUMP JUMPDEST PUSH2 0x842 PUSH8 0x85AC183578705992 PUSH1 0xC0 SHL PUSH2 0xAEB JUMP JUMPDEST PUSH2 0x856 PUSH8 0x1019554411294CAB PUSH1 0xC0 SHL PUSH2 0xAEB JUMP JUMPDEST PUSH1 0x1 PUSH1 0x3 DUP3 PUSH1 0x40 MLOAD PUSH2 0x868 SWAP2 SWAP1 PUSH2 0x1A44 JUMP JUMPDEST SWAP1 DUP2 MSTORE PUSH1 0x20 ADD PUSH1 0x40 MLOAD DUP1 SWAP2 SUB SWAP1 KECCAK256 PUSH1 0x0 PUSH2 0x100 EXP DUP2 SLOAD DUP2 PUSH1 0xFF MUL NOT AND SWAP1 DUP4 ISZERO ISZERO MUL OR SWAP1 SSTORE POP POP JUMP JUMPDEST PUSH2 0x898 PUSH2 0x14CA JUMP JUMPDEST PUSH2 0x8AC PUSH8 0x1F20069CDAEAFCFA PUSH1 0xC0 SHL PUSH2 0xEB1 JUMP JUMPDEST PUSH2 0x8C0 PUSH8 0xDE92C71D8DF9DFEB PUSH1 0xC0 SHL PUSH2 0xEB1 JUMP JUMPDEST PUSH2 0x8D4 PUSH8 0x9BBE09D21CF49A13 PUSH1 0xC0 SHL PUSH2 0xEB1 JUMP JUMPDEST PUSH1 0x1 PUSH1 0x0 SWAP1 SLOAD SWAP1 PUSH2 0x100 EXP SWAP1 DIV PUSH20 0xFFFFFFFFFFFFFFFFFFFFFFFFFFFFFFFFFFFFFFFF AND PUSH20 0xFFFFFFFFFFFFFFFFFFFFFFFFFFFFFFFFFFFFFFFF AND PUSH4 0x6CA5FDE8 DUP4 PUSH1 0x40 MLOAD DUP3 PUSH4 0xFFFFFFFF AND PUSH1 0xE0 SHL DUP2 MSTORE PUSH1 0x4 ADD PUSH2 0x92F SWAP2 SWAP1 PUSH2 0x1A5B JUMP JUMPDEST PUSH1 0x0 PUSH1 0x40 MLOAD DUP1 DUP4 SUB DUP2 DUP7 DUP1 EXTCODESIZE ISZERO DUP1 ISZERO PUSH2 0x947 JUMPI PUSH1 0x0 DUP1 REVERT JUMPDEST POP GAS STATICCALL ISZERO DUP1 ISZERO PUSH2 0x95B JUMPI RETURNDATASIZE PUSH1 0x0 DUP1 RETURNDATACOPY RETURNDATASIZE PUSH1 0x0 REVERT JUMPDEST POP POP POP POP PUSH1 0x40 MLOAD RETURNDATASIZE PUSH1 0x0 DUP3 RETURNDATACOPY RETURNDATASIZE PUSH1 0x1F NOT PUSH1 0x1F DUP3 ADD AND DUP3 ADD DUP1 PUSH1 0x40 MSTORE POP DUP2 ADD SWAP1 PUSH2 0x984 SWAP2 SWAP1 PUSH2 0x17AC JUMP JUMPDEST SWAP1 POP SWAP2 SWAP1 POP JUMP JUMPDEST PUSH1 0x0 PUSH1 0x1 SWAP1 POP SWAP2 SWAP1 POP JUMP JUMPDEST PUSH2 0x9AA PUSH8 0x5ED3B07ECFBC8855 PUSH1 0xC0 SHL PUSH2 0xAEB JUMP JUMPDEST PUSH2 0x9BE PUSH8 0x96E1000BF272ED4D PUSH1 0xC0 SHL PUSH2 0xAEB JUMP JUMPDEST PUSH2 0x9D2 PUSH8 0x41601C5DAC8D8147 PUSH1 0xC0 SHL PUSH2 0xAEB JUMP JUMPDEST PUSH1 0x0 PUSH2 0x9DD CALLER PUSH2 0x890 JUMP JUMPDEST SWAP1 POP PUSH2 0x9F3 PUSH8 0x8367D7AFA237D91D PUSH1 0xC0 SHL PUSH2 0xAEB JUMP JUMPDEST PUSH2 0xA07 PUSH8 0xAAEBF0B24630EF4E PUSH1 0xC0 SHL PUSH2 0xAEB JUMP JUMPDEST PUSH1 0x0 PUSH1 0x3 DUP3 PUSH1 0x20 ADD MLOAD PUSH1 0x40 MLOAD PUSH2 0xA1D SWAP2 SWAP1 PUSH2 0x1A44 JUMP JUMPDEST SWAP1 DUP2 MSTORE PUSH1 0x20 ADD PUSH1 0x40 MLOAD DUP1 SWAP2 SUB SWAP1 KECCAK256 PUSH1 0x0 SWAP1 SLOAD SWAP1 PUSH2 0x100 EXP SWAP1 DIV PUSH1 0xFF AND SWAP1 POP PUSH2 0xA4F PUSH8 0x20F37B0EF0E815C9 PUSH1 0xC0 SHL PUSH2 0xAEB JUMP JUMPDEST PUSH2 0xA63 PUSH8 0x11CE75E913ACD22C PUSH1 0xC0 SHL PUSH2 0xAEB JUMP JUMPDEST PUSH2 0xA77 PUSH8 0xB6CB4F204DC5645B PUSH1 0xC0 SHL PUSH2 0xAEB JUMP JUMPDEST DUP1 PUSH2 0xAB7 JUMPI PUSH1 0x40 MLOAD PUSH32 0x8C379A000000000000000000000000000000000000000000000000000000000 DUP2 MSTORE PUSH1 0x4 ADD PUSH2 0xAAE SWAP1 PUSH2 0x1AD3 JUMP JUMPDEST PUSH1 0x40 MLOAD DUP1 SWAP2 SUB SWAP1 REVERT JUMPDEST PUSH2 0xACB PUSH8 0x936C735B5FD27EC4 PUSH1 0xC0 SHL PUSH2 0xAEB JUMP JUMPDEST PUSH2 0xADF PUSH8 0x464EB4A5ED0A77F2 PUSH1 0xC0 SHL PUSH2 0xAEB JUMP JUMPDEST DUP3 PUSH1 0x4 DUP2 SWAP1 SSTORE POP POP POP POP JUMP JUMPDEST POP JUMP JUMPDEST PUSH1 0x0 PUSH1 0x20 MSTORE DUP1 PUSH1 0x0 MSTORE PUSH1 0x40 PUSH1 0x0 KECCAK256 PUSH1 0x0 SWAP2 POP SWAP1 POP DUP1 PUSH1 0x0 ADD SLOAD SWAP1 DUP1 PUSH1 0x1 ADD DUP1 SLOAD PUSH2 0xB17 SWAP1 PUSH2 0x1D16 JUMP JUMPDEST DUP1 PUSH1 0x1F ADD PUSH1 0x20 DUP1 SWAP2 DIV MUL PUSH1 0x20 ADD PUSH1 0x40 MLOAD SWAP1 DUP2 ADD PUSH1 0x40 MSTORE DUP1 SWAP3 SWAP2 SWAP1 DUP2 DUP2 MSTORE PUSH1 0x20 ADD DUP3 DUP1 SLOAD PUSH2 0xB43 SWAP1 PUSH2 0x1D16 JUMP JUMPDEST DUP1 ISZERO PUSH2 0xB90 JUMPI DUP1 PUSH1 0x1F LT PUSH2 0xB65 JUMPI PUSH2 0x100 DUP1 DUP4 SLOAD DIV MUL DUP4 MSTORE SWAP2 PUSH1 0x20 ADD SWAP2 PUSH2 0xB90 JUMP JUMPDEST DUP3 ADD SWAP2 SWAP1 PUSH1 0x0 MSTORE PUSH1 0x20 PUSH1 0x0 KECCAK256 SWAP1 JUMPDEST DUP2 SLOAD DUP2 MSTORE SWAP1 PUSH1 0x1 ADD SWAP1 PUSH1 0x20 ADD DUP1 DUP4 GT PUSH2 0xB73 JUMPI DUP3 SWAP1 SUB PUSH1 0x1F AND DUP3 ADD SWAP2 JUMPDEST POP POP POP POP POP SWAP1 DUP1 PUSH1 0x2 ADD PUSH1 0x0 SWAP1 SLOAD SWAP1 PUSH2 0x100 EXP SWAP1 DIV PUSH1 0xFF AND SWAP1 DUP1 PUSH1 0x2 ADD PUSH1 0x1 SWAP1 SLOAD SWAP1 PUSH2 0x100 EXP SWAP1 DIV PUSH1 0xFF AND SWAP1 DUP1 PUSH1 0x3 ADD SLOAD SWAP1 POP DUP6 JUMP JUMPDEST POP JUMP JUMPDEST PUSH2 0xBD1 PUSH2 0x14CA JUMP JUMPDEST PUSH2 0xBE5 PUSH8 0xA05F59D4624295FD PUSH1 0xC0 SHL PUSH2 0x1200 JUMP JUMPDEST PUSH2 0xBF9 PUSH8 0x69C1A1D6327D6071 PUSH1 0xC0 SHL PUSH2 0x1200 JUMP JUMPDEST PUSH2 0xC0D PUSH8 0xBDAF4779FF83744F PUSH1 0xC0 SHL PUSH2 0x1200 JUMP JUMPDEST PUSH1 0x0 DUP1 DUP4 PUSH20 0xFFFFFFFFFFFFFFFFFFFFFFFFFFFFFFFFFFFFFFFF AND PUSH20 0xFFFFFFFFFFFFFFFFFFFFFFFFFFFFFFFFFFFFFFFF AND DUP2 MSTORE PUSH1 0x20 ADD SWAP1 DUP2 MSTORE PUSH1 0x20 ADD PUSH1 0x0 KECCAK256 PUSH1 0x40 MLOAD DUP1 PUSH1 0xA0 ADD PUSH1 0x40 MSTORE SWAP1 DUP2 PUSH1 0x0 DUP3 ADD SLOAD DUP2 MSTORE PUSH1 0x20 ADD PUSH1 0x1 DUP3 ADD DUP1 SLOAD PUSH2 0xC70 SWAP1 PUSH2 0x1D16 JUMP JUMPDEST DUP1 PUSH1 0x1F ADD PUSH1 0x20 DUP1 SWAP2 DIV MUL PUSH1 0x20 ADD PUSH1 0x40 MLOAD SWAP1 DUP2 ADD PUSH1 0x40 MSTORE DUP1 SWAP3 SWAP2 SWAP1 DUP2 DUP2 MSTORE PUSH1 0x20 ADD DUP3 DUP1 SLOAD PUSH2 0xC9C SWAP1 PUSH2 0x1D16 JUMP JUMPDEST DUP1 ISZERO PUSH2 0xCE9 JUMPI DUP1 PUSH1 0x1F LT PUSH2 0xCBE JUMPI PUSH2 0x100 DUP1 DUP4 SLOAD DIV MUL DUP4 MSTORE SWAP2 PUSH1 0x20 ADD SWAP2 PUSH2 0xCE9 JUMP JUMPDEST DUP3 ADD SWAP2 SWAP1 PUSH1 0x0 MSTORE PUSH1 0x20 PUSH1 0x0 KECCAK256 SWAP1 JUMPDEST DUP2 SLOAD DUP2 MSTORE SWAP1 PUSH1 0x1 ADD SWAP1 PUSH1 0x20 ADD DUP1 DUP4 GT PUSH2 0xCCC JUMPI DUP3 SWAP1 SUB PUSH1 0x1F AND DUP3 ADD SWAP2 JUMPDEST POP POP POP POP POP DUP2 MSTORE PUSH1 0x20 ADD PUSH1 0x2 DUP3 ADD PUSH1 0x0 SWAP1 SLOAD SWAP1 PUSH2 0x100 EXP SWAP1 DIV PUSH1 0xFF AND PUSH1 0xFF AND PUSH1 0xFF AND DUP2 MSTORE PUSH1 0x20 ADD PUSH1 0x2 DUP3 ADD PUSH1 0x1 SWAP1 SLOAD SWAP1 PUSH2 0x100 EXP SWAP1 DIV PUSH1 0xFF AND PUSH1 0xFF AND PUSH1 0xFF AND DUP2 MSTORE PUSH1 0x20 ADD PUSH1 0x3 DUP3 ADD SLOAD DUP2 MSTORE POP POP SWAP1 POP SWAP2 SWAP1 POP JUMP JUMPDEST PUSH1 0x0 PUSH2 0xD53 PUSH8 0x1D7007C97F9D15AB PUSH1 0xC0 SHL PUSH2 0xAEB JUMP JUMPDEST PUSH2 0xD67 PUSH8 0xDBC2B6256F885E83 PUSH1 0xC0 SHL PUSH2 0xAEB JUMP JUMPDEST PUSH2 0xD7B PUSH8 0xA098D7B5D664290D PUSH1 0xC0 SHL PUSH2 0xAEB JUMP JUMPDEST PUSH1 0x4 SLOAD SWAP1 POP SWAP1 JUMP JUMPDEST PUSH2 0xD8B PUSH2 0x137E JUMP JUMPDEST PUSH2 0xD95 PUSH1 0x0 PUSH2 0x13FC JUMP JUMPDEST JUMP JUMPDEST PUSH1 0x0 PUSH2 0xDAD PUSH8 0x1F0CDF85F971B645 PUSH1 0xC0 SHL PUSH2 0xEB1 JUMP JUMPDEST PUSH2 0xDC1 PUSH8 0xCBFC57C0710762BC PUSH1 0xC0 SHL PUSH2 0xEB1 JUMP JUMPDEST PUSH2 0xDD5 PUSH8 0x3790B5BFA84D84ED PUSH1 0xC0 SHL PUSH2 0xEB1 JUMP JUMPDEST PUSH1 0x1 PUSH1 0x0 SWAP1 SLOAD SWAP1 PUSH2 0x100 EXP SWAP1 DIV PUSH20 0xFFFFFFFFFFFFFFFFFFFFFFFFFFFFFFFFFFFFFFFF AND PUSH20 0xFFFFFFFFFFFFFFFFFFFFFFFFFFFFFFFFFFFFFFFF AND PUSH4 0xB467177F DUP4 PUSH1 0x40 MLOAD DUP3 PUSH4 0xFFFFFFFF AND PUSH1 0xE0 SHL DUP2 MSTORE PUSH1 0x4 ADD PUSH2 0xE30 SWAP2 SWAP1 PUSH2 0x1A5B JUMP JUMPDEST PUSH1 0x20 PUSH1 0x40 MLOAD DUP1 DUP4 SUB DUP2 DUP7 DUP1 EXTCODESIZE ISZERO DUP1 ISZERO PUSH2 0xE48 JUMPI PUSH1 0x0 DUP1 REVERT JUMPDEST POP GAS STATICCALL ISZERO DUP1 ISZERO PUSH2 0xE5C JUMPI RETURNDATASIZE PUSH1 0x0 DUP1 RETURNDATACOPY RETURNDATASIZE PUSH1 0x0 REVERT JUMPDEST POP POP POP POP PUSH1 0x40 MLOAD RETURNDATASIZE PUSH1 0x1F NOT PUSH1 0x1F DUP3 ADD AND DUP3 ADD DUP1 PUSH1 0x40 MSTORE POP DUP2 ADD SWAP1 PUSH2 0xE80 SWAP2 SWAP1 PUSH2 0x183F JUMP JUMPDEST SWAP1 POP SWAP2 SWAP1 POP JUMP JUMPDEST PUSH1 0x0 PUSH1 0x2 PUSH1 0x0 SWAP1 SLOAD SWAP1 PUSH2 0x100 EXP SWAP1 DIV PUSH20 0xFFFFFFFFFFFFFFFFFFFFFFFFFFFFFFFFFFFFFFFF AND SWAP1 POP SWAP1 JUMP JUMPDEST POP JUMP JUMPDEST PUSH1 0x0 PUSH2 0xECA PUSH8 0x32C39D4AFC3889C1 PUSH1 0xC0 SHL PUSH2 0xBC6 JUMP JUMPDEST PUSH2 0xEDE PUSH8 0xDAE6DB8BA31C013C PUSH1 0xC0 SHL PUSH2 0xBC6 JUMP JUMPDEST PUSH2 0xEF2 PUSH8 0xB501F3A83B167522 PUSH1 0xC0 SHL PUSH2 0xBC6 JUMP JUMPDEST PUSH1 0x0 DUP1 DUP4 PUSH20 0xFFFFFFFFFFFFFFFFFFFFFFFFFFFFFFFFFFFFFFFF AND PUSH20 0xFFFFFFFFFFFFFFFFFFFFFFFFFFFFFFFFFFFFFFFF AND DUP2 MSTORE PUSH1 0x20 ADD SWAP1 DUP2 MSTORE PUSH1 0x20 ADD PUSH1 0x0 KECCAK256 PUSH1 0x2 ADD PUSH1 0x0 SWAP1 SLOAD SWAP1 PUSH2 0x100 EXP SWAP1 DIV PUSH1 0xFF AND SWAP1 POP SWAP2 SWAP1 POP JUMP JUMPDEST PUSH1 0x60 PUSH2 0xF5E PUSH8 0x68B84227E30275BA PUSH1 0xC0 SHL PUSH2 0xEB1 JUMP JUMPDEST PUSH2 0xF72 PUSH8 0xC3E2F76F13DFEB5E PUSH1 0xC0 SHL PUSH2 0xEB1 JUMP JUMPDEST PUSH2 0xF86 PUSH8 0xCAD76B00596CCB6E PUSH1 0xC0 SHL PUSH2 0xEB1 JUMP JUMPDEST PUSH1 0x1 PUSH1 0x0 SWAP1 SLOAD SWAP1 PUSH2 0x100 EXP SWAP1 DIV PUSH20 0xFFFFFFFFFFFFFFFFFFFFFFFFFFFFFFFFFFFFFFFF AND PUSH20 0xFFFFFFFFFFFFFFFFFFFFFFFFFFFFFFFFFFFFFFFF AND PUSH4 0xDFB24B89 DUP4 PUSH1 0x40 MLOAD DUP3 PUSH4 0xFFFFFFFF AND PUSH1 0xE0 SHL DUP2 MSTORE PUSH1 0x4 ADD PUSH2 0xFE1 SWAP2 SWAP1 PUSH2 0x1A5B JUMP JUMPDEST PUSH1 0x0 PUSH1 0x40 MLOAD DUP1 DUP4 SUB DUP2 DUP7 DUP1 EXTCODESIZE ISZERO DUP1 ISZERO PUSH2 0xFF9 JUMPI PUSH1 0x0 DUP1 REVERT JUMPDEST POP GAS STATICCALL ISZERO DUP1 ISZERO PUSH2 0x100D JUMPI RETURNDATASIZE PUSH1 0x0 DUP1 RETURNDATACOPY RETURNDATASIZE PUSH1 0x0 REVERT JUMPDEST POP POP POP POP PUSH1 0x40 MLOAD RETURNDATASIZE PUSH1 0x0 DUP3 RETURNDATACOPY RETURNDATASIZE PUSH1 0x1F NOT PUSH1 0x1F DUP3 ADD AND DUP3 ADD DUP1 PUSH1 0x40 MSTORE POP DUP2 ADD SWAP1 PUSH2 0x1036 SWAP2 SWAP1 PUSH2 0x176B JUMP JUMPDEST SWAP1 POP SWAP2 SWAP1 POP JUMP JUMPDEST PUSH1 0x0 PUSH2 0x1053 PUSH8 0xC0754C09F9D3A69E PUSH1 0xC0 SHL PUSH2 0xBC6 JUMP JUMPDEST PUSH2 0x1067 PUSH8 0xD1E3FDB2292AA249 PUSH1 0xC0 SHL PUSH2 0xBC6 JUMP JUMPDEST PUSH2 0x107B PUSH8 0x9561272DF2BF34BE PUSH1 0xC0 SHL PUSH2 0xBC6 JUMP JUMPDEST PUSH1 0x0 DUP1 DUP4 PUSH20 0xFFFFFFFFFFFFFFFFFFFFFFFFFFFFFFFFFFFFFFFF AND PUSH20 0xFFFFFFFFFFFFFFFFFFFFFFFFFFFFFFFFFFFFFFFF AND DUP2 MSTORE PUSH1 0x20 ADD SWAP1 DUP2 MSTORE PUSH1 0x20 ADD PUSH1 0x0 KECCAK256 PUSH1 0x2 ADD PUSH1 0x1 SWAP1 SLOAD SWAP1 PUSH2 0x100 EXP SWAP1 DIV PUSH1 0xFF AND SWAP1 POP SWAP2 SWAP1 POP JUMP JUMPDEST PUSH1 0x0 PUSH1 0x1 SWAP1 POP SWAP2 SWAP1 POP JUMP JUMPDEST PUSH1 0x60 PUSH2 0x10F2 PUSH8 0x371008949763F338 PUSH1 0xC0 SHL PUSH2 0xBC6 JUMP JUMPDEST PUSH2 0x1106 PUSH8 0xA5BD462CD2256C0B PUSH1 0xC0 SHL PUSH2 0xBC6 JUMP JUMPDEST PUSH2 0x111A PUSH8 0x724C0F7161580572 PUSH1 0xC0 SHL PUSH2 0xBC6 JUMP JUMPDEST PUSH1 0x0 DUP1 DUP4 PUSH20 0xFFFFFFFFFFFFFFFFFFFFFFFFFFFFFFFFFFFFFFFF AND PUSH20 0xFFFFFFFFFFFFFFFFFFFFFFFFFFFFFFFFFFFFFFFF AND DUP2 MSTORE PUSH1 0x20 ADD SWAP1 DUP2 MSTORE PUSH1 0x20 ADD PUSH1 0x0 KECCAK256 PUSH1 0x1 ADD DUP1 SLOAD PUSH2 0x1166 SWAP1 PUSH2 0x1D16 JUMP JUMPDEST DUP1 PUSH1 0x1F ADD PUSH1 0x20 DUP1 SWAP2 DIV MUL PUSH1 0x20 ADD PUSH1 0x40 MLOAD SWAP1 DUP2 ADD PUSH1 0x40 MSTORE DUP1 SWAP3 SWAP2 SWAP1 DUP2 DUP2 MSTORE PUSH1 0x20 ADD DUP3 DUP1 SLOAD PUSH2 0x1192 SWAP1 PUSH2 0x1D16 JUMP JUMPDEST DUP1 ISZERO PUSH2 0x11DF JUMPI DUP1 PUSH1 0x1F LT PUSH2 0x11B4 JUMPI PUSH2 0x100 DUP1 DUP4 SLOAD DIV MUL DUP4 MSTORE SWAP2 PUSH1 0x20 ADD SWAP2 PUSH2 0x11DF JUMP JUMPDEST DUP3 ADD SWAP2 SWAP1 PUSH1 0x0 MSTORE PUSH1 0x20 PUSH1 0x0 KECCAK256 SWAP1 JUMPDEST DUP2 SLOAD DUP2 MSTORE SWAP1 PUSH1 0x1 ADD SWAP1 PUSH1 0x20 ADD DUP1 DUP4 GT PUSH2 0x11C2 JUMPI DUP3 SWAP1 SUB PUSH1 0x1F AND DUP3 ADD SWAP2 JUMPDEST POP POP POP POP POP SWAP1 POP SWAP2 SWAP1 POP JUMP JUMPDEST PUSH1 0x0 SWAP2 SWAP1 POP JUMP JUMPDEST PUSH1 0x0 SWAP2 SWAP1 POP JUMP JUMPDEST PUSH1 0x0 SWAP2 SWAP1 POP JUMP JUMPDEST POP JUMP JUMPDEST PUSH1 0x0 SWAP2 SWAP1 POP JUMP JUMPDEST PUSH1 0x0 PUSH2 0x1220 PUSH8 0xF222F3874E6D0D2E PUSH1 0xC0 SHL PUSH2 0xEB1 JUMP JUMPDEST PUSH2 0x1234 PUSH8 0x74385FEC5CA8E27C PUSH1 0xC0 SHL PUSH2 0xEB1 JUMP JUMPDEST PUSH2 0x1248 PUSH8 0x3F25326F1D75FDDF PUSH1 0xC0 SHL PUSH2 0xEB1 JUMP JUMPDEST PUSH1 0x1 PUSH1 0x0 SWAP1 SLOAD SWAP1 PUSH2 0x100 EXP SWAP1 DIV PUSH20 0xFFFFFFFFFFFFFFFFFFFFFFFFFFFFFFFFFFFFFFFF AND PUSH20 0xFFFFFFFFFFFFFFFFFFFFFFFFFFFFFFFFFFFFFFFF AND PUSH4 0x9299EA3 DUP4 PUSH1 0x40 MLOAD DUP3 PUSH4 0xFFFFFFFF AND PUSH1 0xE0 SHL DUP2 MSTORE PUSH1 0x4 ADD PUSH2 0x12A3 SWAP2 SWAP1 PUSH2 0x1A5B JUMP JUMPDEST PUSH1 0x20 PUSH1 0x40 MLOAD DUP1 DUP4 SUB DUP2 DUP7 DUP1 EXTCODESIZE ISZERO DUP1 ISZERO PUSH2 0x12BB JUMPI PUSH1 0x0 DUP1 REVERT JUMPDEST POP GAS STATICCALL ISZERO DUP1 ISZERO PUSH2 0x12CF JUMPI RETURNDATASIZE PUSH1 0x0 DUP1 RETURNDATACOPY RETURNDATASIZE PUSH1 0x0 REVERT JUMPDEST POP POP POP POP PUSH1 0x40 MLOAD RETURNDATASIZE PUSH1 0x1F NOT PUSH1 0x1F DUP3 ADD AND DUP3 ADD DUP1 PUSH1 0x40 MSTORE POP DUP2 ADD SWAP1 PUSH2 0x12F3 SWAP2 SWAP1 PUSH2 0x1816 JUMP JUMPDEST SWAP1 POP SWAP2 SWAP1 POP JUMP JUMPDEST PUSH2 0x1302 PUSH2 0x137E JUMP JUMPDEST PUSH1 0x0 PUSH20 0xFFFFFFFFFFFFFFFFFFFFFFFFFFFFFFFFFFFFFFFF AND DUP2 PUSH20 0xFFFFFFFFFFFFFFFFFFFFFFFFFFFFFFFFFFFFFFFF AND EQ ISZERO PUSH2 0x1372 JUMPI PUSH1 0x40 MLOAD PUSH32 0x8C379A000000000000000000000000000000000000000000000000000000000 DUP2 MSTORE PUSH1 0x4 ADD PUSH2 0x1369 SWAP1 PUSH2 0x1AB3 JUMP JUMPDEST PUSH1 0x40 MLOAD DUP1 SWAP2 SUB SWAP1 REVERT JUMPDEST PUSH2 0x137B DUP2 PUSH2 0x13FC JUMP JUMPDEST POP JUMP JUMPDEST PUSH2 0x1386 PUSH2 0x14C2 JUMP JUMPDEST PUSH20 0xFFFFFFFFFFFFFFFFFFFFFFFFFFFFFFFFFFFFFFFF AND PUSH2 0x13A4 PUSH2 0xE87 JUMP JUMPDEST PUSH20 0xFFFFFFFFFFFFFFFFFFFFFFFFFFFFFFFFFFFFFFFF AND EQ PUSH2 0x13FA JUMPI PUSH1 0x40 MLOAD PUSH32 0x8C379A000000000000000000000000000000000000000000000000000000000 DUP2 MSTORE PUSH1 0x4 ADD PUSH2 0x13F1 SWAP1 PUSH2 0x1AF3 JUMP JUMPDEST PUSH1 0x40 MLOAD DUP1 SWAP2 SUB SWAP1 REVERT JUMPDEST JUMP JUMPDEST PUSH1 0x0 PUSH1 0x2 PUSH1 0x0 SWAP1 SLOAD SWAP1 PUSH2 0x100 EXP SWAP1 DIV PUSH20 0xFFFFFFFFFFFFFFFFFFFFFFFFFFFFFFFFFFFFFFFF AND SWAP1 POP DUP2 PUSH1 0x2 PUSH1 0x0 PUSH2 0x100 EXP DUP2 SLOAD DUP2 PUSH20 0xFFFFFFFFFFFFFFFFFFFFFFFFFFFFFFFFFFFFFFFF MUL NOT AND SWAP1 DUP4 PUSH20 0xFFFFFFFFFFFFFFFFFFFFFFFFFFFFFFFFFFFFFFFF AND MUL OR SWAP1 SSTORE POP DUP2 PUSH20 0xFFFFFFFFFFFFFFFFFFFFFFFFFFFFFFFFFFFFFFFF AND DUP2 PUSH20 0xFFFFFFFFFFFFFFFFFFFFFFFFFFFFFFFFFFFFFFFF AND PUSH32 0x8BE0079C531659141344CD1FD0A4F28419497F9722A3DAAFE3B4186F6B6457E0 PUSH1 0x40 MLOAD PUSH1 0x40 MLOAD DUP1 SWAP2 SUB SWAP1 LOG3 POP POP JUMP JUMPDEST PUSH1 0x0 CALLER SWAP1 POP SWAP1 JUMP JUMPDEST PUSH1 0x40 MLOAD DUP1 PUSH1 0xA0 ADD PUSH1 0x40 MSTORE DUP1 PUSH1 0x0 DUP2 MSTORE PUSH1 0x20 ADD PUSH1 0x60 DUP2 MSTORE PUSH1 0x20 ADD PUSH1 0x0 PUSH1 0xFF AND DUP2 MSTORE PUSH1 0x20 ADD PUSH1 0x0 PUSH1 0xFF AND DUP2 MSTORE PUSH1 0x20 ADD PUSH1 0x0 DUP2 MSTORE POP SWAP1 JUMP JUMPDEST PUSH1 0x0 PUSH2 0x1512 PUSH2 0x150D DUP5 PUSH2 0x1BEA JUMP JUMPDEST PUSH2 0x1BC5 JUMP JUMPDEST SWAP1 POP DUP3 DUP2 MSTORE PUSH1 0x20 DUP2 ADD DUP5 DUP5 DUP5 ADD GT ISZERO PUSH2 0x152A JUMPI PUSH1 0x0 DUP1 REVERT JUMPDEST PUSH2 0x1535 DUP5 DUP3 DUP6 PUSH2 0x1CD4 JUMP JUMPDEST POP SWAP4 SWAP3 POP POP POP JUMP JUMPDEST PUSH1 0x0 PUSH2 0x1550 PUSH2 0x154B DUP5 PUSH2 0x1BEA JUMP JUMPDEST PUSH2 0x1BC5 JUMP JUMPDEST SWAP1 POP DUP3 DUP2 MSTORE PUSH1 0x20 DUP2 ADD DUP5 DUP5 DUP5 ADD GT ISZERO PUSH2 0x1568 JUMPI PUSH1 0x0 DUP1 REVERT JUMPDEST PUSH2 0x1573 DUP5 DUP3 DUP6 PUSH2 0x1CE3 JUMP JUMPDEST POP SWAP4 SWAP3 POP POP POP JUMP JUMPDEST PUSH1 0x0 DUP2 CALLDATALOAD SWAP1 POP PUSH2 0x158A DUP2 PUSH2 0x1EAF JUMP JUMPDEST SWAP3 SWAP2 POP POP JUMP JUMPDEST PUSH1 0x0 DUP2 CALLDATALOAD SWAP1 POP PUSH2 0x159F DUP2 PUSH2 0x1EC6 JUMP JUMPDEST SWAP3 SWAP2 POP POP JUMP JUMPDEST PUSH1 0x0 DUP3 PUSH1 0x1F DUP4 ADD SLT PUSH2 0x15B6 JUMPI PUSH1 0x0 DUP1 REVERT JUMPDEST DUP2 CALLDATALOAD PUSH2 0x15C6 DUP5 DUP3 PUSH1 0x20 DUP7 ADD PUSH2 0x14FF JUMP JUMPDEST SWAP2 POP POP SWAP3 SWAP2 POP POP JUMP JUMPDEST PUSH1 0x0 DUP3 PUSH1 0x1F DUP4 ADD SLT PUSH2 0x15E0 JUMPI PUSH1 0x0 DUP1 REVERT JUMPDEST DUP2 MLOAD PUSH2 0x15F0 DUP5 DUP3 PUSH1 0x20 DUP7 ADD PUSH2 0x153D JUMP JUMPDEST SWAP2 POP POP SWAP3 SWAP2 POP POP JUMP JUMPDEST PUSH1 0x0 PUSH1 0xA0 DUP3 DUP5 SUB SLT ISZERO PUSH2 0x160B JUMPI PUSH1 0x0 DUP1 REVERT JUMPDEST PUSH2 0x1615 PUSH1 0xA0 PUSH2 0x1BC5 JUMP JUMPDEST SWAP1 POP PUSH1 0x0 PUSH2 0x1625 DUP5 DUP3 DUP6 ADD PUSH2 0x16AE JUMP JUMPDEST PUSH1 0x0 DUP4 ADD MSTORE POP PUSH1 0x20 DUP3 ADD MLOAD PUSH8 0xFFFFFFFFFFFFFFFF DUP2 GT ISZERO PUSH2 0x1645 JUMPI PUSH1 0x0 DUP1 REVERT JUMPDEST PUSH2 0x1651 DUP5 DUP3 DUP6 ADD PUSH2 0x15CF JUMP JUMPDEST PUSH1 0x20 DUP4 ADD MSTORE POP PUSH1 0x40 PUSH2 0x1665 DUP5 DUP3 DUP6 ADD PUSH2 0x16C3 JUMP JUMPDEST PUSH1 0x40 DUP4 ADD MSTORE POP PUSH1 0x60 PUSH2 0x1679 DUP5 DUP3 DUP6 ADD PUSH2 0x16C3 JUMP JUMPDEST PUSH1 0x60 DUP4 ADD MSTORE POP PUSH1 0x80 PUSH2 0x168D DUP5 DUP3 DUP6 ADD PUSH2 0x16AE JUMP JUMPDEST PUSH1 0x80 DUP4 ADD MSTORE POP SWAP3 SWAP2 POP POP JUMP JUMPDEST PUSH1 0x0 DUP2 CALLDATALOAD SWAP1 POP PUSH2 0x16A8 DUP2 PUSH2 0x1EDD JUMP JUMPDEST SWAP3 SWAP2 POP POP JUMP JUMPDEST PUSH1 0x0 DUP2 MLOAD SWAP1 POP PUSH2 0x16BD DUP2 PUSH2 0x1EDD JUMP JUMPDEST SWAP3 SWAP2 POP POP JUMP JUMPDEST PUSH1 0x0 DUP2 MLOAD SWAP1 POP PUSH2 0x16D2 DUP2 PUSH2 0x1EF4 JUMP JUMPDEST SWAP3 SWAP2 POP POP JUMP JUMPDEST PUSH1 0x0 PUSH1 0x20 DUP3 DUP5 SUB SLT ISZERO PUSH2 0x16EA JUMPI PUSH1 0x0 DUP1 REVERT JUMPDEST PUSH1 0x0 PUSH2 0x16F8 DUP5 DUP3 DUP6 ADD PUSH2 0x157B JUMP JUMPDEST SWAP2 POP POP SWAP3 SWAP2 POP POP JUMP JUMPDEST PUSH1 0x0 PUSH1 0x20 DUP3 DUP5 SUB SLT ISZERO PUSH2 0x1713 JUMPI PUSH1 0x0 DUP1 REVERT JUMPDEST PUSH1 0x0 PUSH2 0x1721 DUP5 DUP3 DUP6 ADD PUSH2 0x1590 JUMP JUMPDEST SWAP2 POP POP SWAP3 SWAP2 POP POP JUMP JUMPDEST PUSH1 0x0 PUSH1 0x20 DUP3 DUP5 SUB SLT ISZERO PUSH2 0x173C JUMPI PUSH1 0x0 DUP1 REVERT JUMPDEST PUSH1 0x0 DUP3 ADD CALLDATALOAD PUSH8 0xFFFFFFFFFFFFFFFF DUP2 GT ISZERO PUSH2 0x1756 JUMPI PUSH1 0x0 DUP1 REVERT JUMPDEST PUSH2 0x1762 DUP5 DUP3 DUP6 ADD PUSH2 0x15A5 JUMP JUMPDEST SWAP2 POP POP SWAP3 SWAP2 POP POP JUMP JUMPDEST PUSH1 0x0 PUSH1 0x20 DUP3 DUP5 SUB SLT ISZERO PUSH2 0x177D JUMPI PUSH1 0x0 DUP1 REVERT JUMPDEST PUSH1 0x0 DUP3 ADD MLOAD PUSH8 0xFFFFFFFFFFFFFFFF DUP2 GT ISZERO PUSH2 0x1797 JUMPI PUSH1 0x0 DUP1 REVERT JUMPDEST PUSH2 0x17A3 DUP5 DUP3 DUP6 ADD PUSH2 0x15CF JUMP JUMPDEST SWAP2 POP POP SWAP3 SWAP2 POP POP JUMP JUMPDEST PUSH1 0x0 PUSH1 0x20 DUP3 DUP5 SUB SLT ISZERO PUSH2 0x17BE JUMPI PUSH1 0x0 DUP1 REVERT JUMPDEST PUSH1 0x0 DUP3 ADD MLOAD PUSH8 0xFFFFFFFFFFFFFFFF DUP2 GT ISZERO PUSH2 0x17D8 JUMPI PUSH1 0x0 DUP1 REVERT JUMPDEST PUSH2 0x17E4 DUP5 DUP3 DUP6 ADD PUSH2 0x15F9 JUMP JUMPDEST SWAP2 POP POP SWAP3 SWAP2 POP POP JUMP JUMPDEST PUSH1 0x0 PUSH1 0x20 DUP3 DUP5 SUB SLT ISZERO PUSH2 0x17FF JUMPI PUSH1 0x0 DUP1 REVERT JUMPDEST PUSH1 0x0 PUSH2 0x180D DUP5 DUP3 DUP6 ADD PUSH2 0x1699 JUMP JUMPDEST SWAP2 POP POP SWAP3 SWAP2 POP POP JUMP JUMPDEST PUSH1 0x0 PUSH1 0x20 DUP3 DUP5 SUB SLT ISZERO PUSH2 0x1828 JUMPI PUSH1 0x0 DUP1 REVERT JUMPDEST PUSH1 0x0 PUSH2 0x1836 DUP5 DUP3 DUP6 ADD PUSH2 0x16AE JUMP JUMPDEST SWAP2 POP POP SWAP3 SWAP2 POP POP JUMP JUMPDEST PUSH1 0x0 PUSH1 0x20 DUP3 DUP5 SUB SLT ISZERO PUSH2 0x1851 JUMPI PUSH1 0x0 DUP1 REVERT JUMPDEST PUSH1 0x0 PUSH2 0x185F DUP5 DUP3 DUP6 ADD PUSH2 0x16C3 JUMP JUMPDEST SWAP2 POP POP SWAP3 SWAP2 POP POP JUMP JUMPDEST PUSH2 0x1871 DUP2 PUSH2 0x1C53 JUMP JUMPDEST DUP3 MSTORE POP POP JUMP JUMPDEST PUSH2 0x1880 DUP2 PUSH2 0x1C65 JUMP JUMPDEST DUP3 MSTORE POP POP JUMP JUMPDEST PUSH1 0x0 PUSH2 0x1891 DUP3 PUSH2 0x1C1B JUMP JUMPDEST PUSH2 0x189B DUP2 DUP6 PUSH2 0x1C26 JUMP JUMPDEST SWAP4 POP PUSH2 0x18AB DUP2 DUP6 PUSH1 0x20 DUP7 ADD PUSH2 0x1CE3 JUMP JUMPDEST PUSH2 0x18B4 DUP2 PUSH2 0x1DD7 JUMP JUMPDEST DUP5 ADD SWAP2 POP POP SWAP3 SWAP2 POP POP JUMP JUMPDEST PUSH1 0x0 PUSH2 0x18CA DUP3 PUSH2 0x1C1B JUMP JUMPDEST PUSH2 0x18D4 DUP2 DUP6 PUSH2 0x1C37 JUMP JUMPDEST SWAP4 POP PUSH2 0x18E4 DUP2 DUP6 PUSH1 0x20 DUP7 ADD PUSH2 0x1CE3 JUMP JUMPDEST PUSH2 0x18ED DUP2 PUSH2 0x1DD7 JUMP JUMPDEST DUP5 ADD SWAP2 POP POP SWAP3 SWAP2 POP POP JUMP JUMPDEST PUSH1 0x0 PUSH2 0x1903 DUP3 PUSH2 0x1C1B JUMP JUMPDEST PUSH2 0x190D DUP2 DUP6 PUSH2 0x1C48 JUMP JUMPDEST SWAP4 POP PUSH2 0x191D DUP2 DUP6 PUSH1 0x20 DUP7 ADD PUSH2 0x1CE3 JUMP JUMPDEST DUP1 DUP5 ADD SWAP2 POP POP SWAP3 SWAP2 POP POP JUMP JUMPDEST PUSH1 0x0 PUSH2 0x1936 PUSH1 0x26 DUP4 PUSH2 0x1C37 JUMP JUMPDEST SWAP2 POP PUSH2 0x1941 DUP3 PUSH2 0x1DE8 JUMP JUMPDEST PUSH1 0x40 DUP3 ADD SWAP1 POP SWAP2 SWAP1 POP JUMP JUMPDEST PUSH1 0x0 PUSH2 0x1959 PUSH1 0x32 DUP4 PUSH2 0x1C37 JUMP JUMPDEST SWAP2 POP PUSH2 0x1964 DUP3 PUSH2 0x1E37 JUMP JUMPDEST PUSH1 0x40 DUP3 ADD SWAP1 POP SWAP2 SWAP1 POP JUMP JUMPDEST PUSH1 0x0 PUSH2 0x197C PUSH1 0x20 DUP4 PUSH2 0x1C37 JUMP JUMPDEST SWAP2 POP PUSH2 0x1987 DUP3 PUSH2 0x1E86 JUMP JUMPDEST PUSH1 0x20 DUP3 ADD SWAP1 POP SWAP2 SWAP1 POP JUMP JUMPDEST PUSH1 0x0 PUSH1 0xA0 DUP4 ADD PUSH1 0x0 DUP4 ADD MLOAD PUSH2 0x19AA PUSH1 0x0 DUP7 ADD DUP3 PUSH2 0x1A08 JUMP JUMPDEST POP PUSH1 0x20 DUP4 ADD MLOAD DUP5 DUP3 SUB PUSH1 0x20 DUP7 ADD MSTORE PUSH2 0x19C2 DUP3 DUP3 PUSH2 0x1886 JUMP JUMPDEST SWAP2 POP POP PUSH1 0x40 DUP4 ADD MLOAD PUSH2 0x19D7 PUSH1 0x40 DUP7 ADD DUP3 PUSH2 0x1A26 JUMP JUMPDEST POP PUSH1 0x60 DUP4 ADD MLOAD PUSH2 0x19EA PUSH1 0x60 DUP7 ADD DUP3 PUSH2 0x1A26 JUMP JUMPDEST POP PUSH1 0x80 DUP4 ADD MLOAD PUSH2 0x19FD PUSH1 0x80 DUP7 ADD DUP3 PUSH2 0x1A08 JUMP JUMPDEST POP DUP1 SWAP2 POP POP SWAP3 SWAP2 POP POP JUMP JUMPDEST PUSH2 0x1A11 DUP2 PUSH2 0x1CBD JUMP JUMPDEST DUP3 MSTORE POP POP JUMP JUMPDEST PUSH2 0x1A20 DUP2 PUSH2 0x1CBD JUMP JUMPDEST DUP3 MSTORE POP POP JUMP JUMPDEST PUSH2 0x1A2F DUP2 PUSH2 0x1CC7 JUMP JUMPDEST DUP3 MSTORE POP POP JUMP JUMPDEST PUSH2 0x1A3E DUP2 PUSH2 0x1CC7 JUMP JUMPDEST DUP3 MSTORE POP POP JUMP JUMPDEST PUSH1 0x0 PUSH2 0x1A50 DUP3 DUP5 PUSH2 0x18F8 JUMP JUMPDEST SWAP2 POP DUP2 SWAP1 POP SWAP3 SWAP2 POP POP JUMP JUMPDEST PUSH1 0x0 PUSH1 0x20 DUP3 ADD SWAP1 POP PUSH2 0x1A70 PUSH1 0x0 DUP4 ADD DUP5 PUSH2 0x1868 JUMP JUMPDEST SWAP3 SWAP2 POP POP JUMP JUMPDEST PUSH1 0x0 PUSH1 0x20 DUP3 ADD SWAP1 POP PUSH2 0x1A8B PUSH1 0x0 DUP4 ADD DUP5 PUSH2 0x1877 JUMP JUMPDEST SWAP3 SWAP2 POP POP JUMP JUMPDEST PUSH1 0x0 PUSH1 0x20 DUP3 ADD SWAP1 POP DUP2 DUP2 SUB PUSH1 0x0 DUP4 ADD MSTORE PUSH2 0x1AAB DUP2 DUP5 PUSH2 0x18BF JUMP JUMPDEST SWAP1 POP SWAP3 SWAP2 POP POP JUMP JUMPDEST PUSH1 0x0 PUSH1 0x20 DUP3 ADD SWAP1 POP DUP2 DUP2 SUB PUSH1 0x0 DUP4 ADD MSTORE PUSH2 0x1ACC DUP2 PUSH2 0x1929 JUMP JUMPDEST SWAP1 POP SWAP2 SWAP1 POP JUMP JUMPDEST PUSH1 0x0 PUSH1 0x20 DUP3 ADD SWAP1 POP DUP2 DUP2 SUB PUSH1 0x0 DUP4 ADD MSTORE PUSH2 0x1AEC DUP2 PUSH2 0x194C JUMP JUMPDEST SWAP1 POP SWAP2 SWAP1 POP JUMP JUMPDEST PUSH1 0x0 PUSH1 0x20 DUP3 ADD SWAP1 POP DUP2 DUP2 SUB PUSH1 0x0 DUP4 ADD MSTORE PUSH2 0x1B0C DUP2 PUSH2 0x196F JUMP JUMPDEST SWAP1 POP SWAP2 SWAP1 POP JUMP JUMPDEST PUSH1 0x0 PUSH1 0x20 DUP3 ADD SWAP1 POP DUP2 DUP2 SUB PUSH1 0x0 DUP4 ADD MSTORE PUSH2 0x1B2D DUP2 DUP5 PUSH2 0x1992 JUMP JUMPDEST SWAP1 POP SWAP3 SWAP2 POP POP JUMP JUMPDEST PUSH1 0x0 PUSH1 0x20 DUP3 ADD SWAP1 POP PUSH2 0x1B4A PUSH1 0x0 DUP4 ADD DUP5 PUSH2 0x1A17 JUMP JUMPDEST SWAP3 SWAP2 POP POP JUMP JUMPDEST PUSH1 0x0 PUSH1 0xA0 DUP3 ADD SWAP1 POP PUSH2 0x1B65 PUSH1 0x0 DUP4 ADD DUP9 PUSH2 0x1A17 JUMP JUMPDEST DUP2 DUP2 SUB PUSH1 0x20 DUP4 ADD MSTORE PUSH2 0x1B77 DUP2 DUP8 PUSH2 0x18BF JUMP JUMPDEST SWAP1 POP PUSH2 0x1B86 PUSH1 0x40 DUP4 ADD DUP7 PUSH2 0x1A35 JUMP JUMPDEST PUSH2 0x1B93 PUSH1 0x60 DUP4 ADD DUP6 PUSH2 0x1A35 JUMP JUMPDEST PUSH2 0x1BA0 PUSH1 0x80 DUP4 ADD DUP5 PUSH2 0x1A17 JUMP JUMPDEST SWAP7 SWAP6 POP POP POP POP POP POP JUMP JUMPDEST PUSH1 0x0 PUSH1 0x20 DUP3 ADD SWAP1 POP PUSH2 0x1BBF PUSH1 0x0 DUP4 ADD DUP5 PUSH2 0x1A35 JUMP JUMPDEST SWAP3 SWAP2 POP POP JUMP JUMPDEST PUSH1 0x0 PUSH2 0x1BCF PUSH2 0x1BE0 JUMP JUMPDEST SWAP1 POP PUSH2 0x1BDB DUP3 DUP3 PUSH2 0x1D48 JUMP JUMPDEST SWAP2 SWAP1 POP JUMP JUMPDEST PUSH1 0x0 PUSH1 0x40 MLOAD SWAP1 POP SWAP1 JUMP JUMPDEST PUSH1 0x0 PUSH8 0xFFFFFFFFFFFFFFFF DUP3 GT ISZERO PUSH2 0x1C05 JUMPI PUSH2 0x1C04 PUSH2 0x1DA8 JUMP JUMPDEST JUMPDEST PUSH2 0x1C0E DUP3 PUSH2 0x1DD7 JUMP JUMPDEST SWAP1 POP PUSH1 0x20 DUP2 ADD SWAP1 POP SWAP2 SWAP1 POP JUMP JUMPDEST PUSH1 0x0 DUP2 MLOAD SWAP1 POP SWAP2 SWAP1 POP JUMP JUMPDEST PUSH1 0x0 DUP3 DUP3 MSTORE PUSH1 0x20 DUP3 ADD SWAP1 POP SWAP3 SWAP2 POP POP JUMP JUMPDEST PUSH1 0x0 DUP3 DUP3 MSTORE PUSH1 0x20 DUP3 ADD SWAP1 POP SWAP3 SWAP2 POP POP JUMP JUMPDEST PUSH1 0x0 DUP2 SWAP1 POP SWAP3 SWAP2 POP POP JUMP JUMPDEST PUSH1 0x0 PUSH2 0x1C5E DUP3 PUSH2 0x1C9D JUMP JUMPDEST SWAP1 POP SWAP2 SWAP1 POP JUMP JUMPDEST PUSH1 0x0 DUP2 ISZERO ISZERO SWAP1 POP SWAP2 SWAP1 POP JUMP JUMPDEST PUSH1 0x0 PUSH32 0xFFFFFFFFFFFFFFFF000000000000000000000000000000000000000000000000 DUP3 AND SWAP1 POP SWAP2 SWAP1 POP JUMP JUMPDEST PUSH1 0x0 PUSH20 0xFFFFFFFFFFFFFFFFFFFFFFFFFFFFFFFFFFFFFFFF DUP3 AND SWAP1 POP SWAP2 SWAP1 POP JUMP JUMPDEST PUSH1 0x0 DUP2 SWAP1 POP SWAP2 SWAP1 POP JUMP JUMPDEST PUSH1 0x0 PUSH1 0xFF DUP3 AND SWAP1 POP SWAP2 SWAP1 POP JUMP JUMPDEST DUP3 DUP2 DUP4 CALLDATACOPY PUSH1 0x0 DUP4 DUP4 ADD MSTORE POP POP POP JUMP JUMPDEST PUSH1 0x0 JUMPDEST DUP4 DUP2 LT ISZERO PUSH2 0x1D01 JUMPI DUP1 DUP3 ADD MLOAD DUP2 DUP5 ADD MSTORE PUSH1 0x20 DUP2 ADD SWAP1 POP PUSH2 0x1CE6 JUMP JUMPDEST DUP4 DUP2 GT ISZERO PUSH2 0x1D10 JUMPI PUSH1 0x0 DUP5 DUP5 ADD MSTORE JUMPDEST POP POP POP POP JUMP JUMPDEST PUSH1 0x0 PUSH1 0x2 DUP3 DIV SWAP1 POP PUSH1 0x1 DUP3 AND DUP1 PUSH2 0x1D2E JUMPI PUSH1 0x7F DUP3 AND SWAP2 POP JUMPDEST PUSH1 0x20 DUP3 LT DUP2 EQ ISZERO PUSH2 0x1D42 JUMPI PUSH2 0x1D41 PUSH2 0x1D79 JUMP JUMPDEST JUMPDEST POP SWAP2 SWAP1 POP JUMP JUMPDEST PUSH2 0x1D51 DUP3 PUSH2 0x1DD7 JUMP JUMPDEST DUP2 ADD DUP2 DUP2 LT PUSH8 0xFFFFFFFFFFFFFFFF DUP3 GT OR ISZERO PUSH2 0x1D70 JUMPI PUSH2 0x1D6F PUSH2 0x1DA8 JUMP JUMPDEST JUMPDEST DUP1 PUSH1 0x40 MSTORE POP POP POP JUMP JUMPDEST PUSH32 0x4E487B7100000000000000000000000000000000000000000000000000000000 PUSH1 0x0 MSTORE PUSH1 0x22 PUSH1 0x4 MSTORE PUSH1 0x24 PUSH1 0x0 REVERT JUMPDEST PUSH32 0x4E487B7100000000000000000000000000000000000000000000000000000000 PUSH1 0x0 MSTORE PUSH1 0x41 PUSH1 0x4 MSTORE PUSH1 0x24 PUSH1 0x0 REVERT JUMPDEST PUSH1 0x0 PUSH1 0x1F NOT PUSH1 0x1F DUP4 ADD AND SWAP1 POP SWAP2 SWAP1 POP JUMP JUMPDEST PUSH32 0x4F776E61626C653A206E6577206F776E657220697320746865207A65726F2061 PUSH1 0x0 DUP3 ADD MSTORE PUSH32 0x6464726573730000000000000000000000000000000000000000000000000000 PUSH1 0x20 DUP3 ADD MSTORE POP JUMP JUMPDEST PUSH32 0x4572723A20636F756E747279636F6465206E6F7420617070726F76656420666F PUSH1 0x0 DUP3 ADD MSTORE PUSH32 0x722074686973206170706C69636174696F6E0000000000000000000000000000 PUSH1 0x20 DUP3 ADD MSTORE POP JUMP JUMPDEST PUSH32 0x4F776E61626C653A2063616C6C6572206973206E6F7420746865206F776E6572 PUSH1 0x0 DUP3 ADD MSTORE POP JUMP JUMPDEST PUSH2 0x1EB8 DUP2 PUSH2 0x1C53 JUMP JUMPDEST DUP2 EQ PUSH2 0x1EC3 JUMPI PUSH1 0x0 DUP1 REVERT JUMPDEST POP JUMP JUMPDEST PUSH2 0x1ECF DUP2 PUSH2 0x1C71 JUMP JUMPDEST DUP2 EQ PUSH2 0x1EDA JUMPI PUSH1 0x0 DUP1 REVERT JUMPDEST POP JUMP JUMPDEST PUSH2 0x1EE6 DUP2 PUSH2 0x1CBD JUMP JUMPDEST DUP2 EQ PUSH2 0x1EF1 JUMPI PUSH1 0x0 DUP1 REVERT JUMPDEST POP JUMP JUMPDEST PUSH2 0x1EFD DUP2 PUSH2 0x1CC7 JUMP JUMPDEST DUP2 EQ PUSH2 0x1F08 JUMPI PUSH1 0x0 DUP1 REVERT JUMPDEST POP JUMP INVALID LOG2 PUSH5 0x6970667358 0x22 SLT KECCAK256 MUL PUSH14 0x5C80C53F428051089B8F74C574B2 0xAF PC 0xAB TIMESTAMP DUP6 0xC9 SWAP9 LT 0xE7 0x5F PUSH16 0x498AD6F4B64736F6C63430008020033 "},"methodIdentifiers":{"approveCountryCode(string)":"2bedce42","c_28b9fbc8(bytes8)":"63ff7dbf","c_6f26603d(bytes8)":"6c193733","c_a86a9c89(bytes8)":"9d1a6ceb","c_b8c9e965(bytes8)":"ec4d57b3","c_false28b9fbc8(bytes8)":"e9be2f47","c_false6f26603d(bytes8)":"e2d07959","c_falsea86a9c89(bytes8)":"e153ab3a","c_falseb8c9e965(bytes8)":"ec895731","c_true28b9fbc8(bytes8)":"5b24bf41","c_true6f26603d(bytes8)":"26aeeeff","c_truea86a9c89(bytes8)":"15c594c0","c_trueb8c9e965(bytes8)":"dee4c709","get()":"6d4ce63c","getUserAccountCountryCode(address)":"dfb24b89","getUserAccountExpiry(address)":"09299ea3","getUserAccountIdentityBlob(address)":"6ca5fde8","getUserAccountLevel(address)":"c207e9e0","getUserAccountType(address)":"b467177f","getUserCountryCode(address)":"b7180c53","getUserExpiry(address)":"eee84487","getUserIdentityData(address)":"2deb044a","getUserLevel(address)":"21923bde","getUserType(address)":"8b3f863f","identityBlob(address)":"688ea9fe","owner()":"8da5cb5b","renounceOwnership()":"715018a6","set(uint256)":"60fe47b1","storedData()":"2a1afcd9","transferOwnership(address)":"f2fde38b"}},"storageLayout":{"storage":[{"astId":4714,"contract":"contracts/VerifiedSimpleStorage.sol:VerifiedSimpleStorage","label":"identityBlob","offset":0,"slot":"0","type":"t_mapping(t_address,t_struct(IdentityBlob)4725_storage)"},{"astId":5181,"contract":"contracts/VerifiedSimpleStorage.sol:VerifiedSimpleStorage","label":"VERIFIABLE_IDENTITY","offset":0,"slot":"1","type":"t_contract(UserInformation)4894"},{"astId":3326,"contract":"contracts/VerifiedSimpleStorage.sol:VerifiedSimpleStorage","label":"_owner","offset":0,"slot":"2","type":"t_address"},{"astId":5548,"contract":"contracts/VerifiedSimpleStorage.sol:VerifiedSimpleStorage","label":"approvedCountries","offset":0,"slot":"3","type":"t_mapping(t_string_memory_ptr,t_bool)"},{"astId":5550,"contract":"contracts/VerifiedSimpleStorage.sol:VerifiedSimpleStorage","label":"storedData","offset":0,"slot":"4","type":"t_uint256"}],"types":{"t_address":{"encoding":"inplace","label":"address","numberOfBytes":"20"},"t_bool":{"encoding":"inplace","label":"bool","numberOfBytes":"1"},"t_contract(UserInformation)4894":{"encoding":"inplace","label":"contract UserInformation","numberOfBytes":"20"},"t_mapping(t_address,t_struct(IdentityBlob)4725_storage)":{"encoding":"mapping","key":"t_address","label":"mapping(address => struct RoleVerification.IdentityBlob)","numberOfBytes":"32","value":"t_struct(IdentityBlob)4725_storage"},"t_mapping(t_string_memory_ptr,t_bool)":{"encoding":"mapping","key":"t_string_memory_ptr","label":"mapping(string => bool)","numberOfBytes":"32","value":"t_bool"},"t_string_memory_ptr":{"encoding":"bytes","label":"string","numberOfBytes":"32"},"t_string_storage":{"encoding":"bytes","label":"string","numberOfBytes":"32"},"t_struct(IdentityBlob)4725_storage":{"encoding":"inplace","label":"struct RoleVerification.IdentityBlob","members":[{"astId":4716,"contract":"contracts/VerifiedSimpleStorage.sol:VerifiedSimpleStorage","label":"tokenId","offset":0,"slot":"0","type":"t_uint256"},{"astId":4718,"contract":"contracts/VerifiedSimpleStorage.sol:VerifiedSimpleStorage","label":"countryCode","offset":0,"slot":"1","type":"t_string_storage"},{"astId":4720,"contract":"contracts/VerifiedSimpleStorage.sol:VerifiedSimpleStorage","label":"userType","offset":0,"slot":"2","type":"t_uint8"},{"astId":4722,"contract":"contracts/VerifiedSimpleStorage.sol:VerifiedSimpleStorage","label":"level","offset":1,"slot":"2","type":"t_uint8"},{"astId":4724,"contract":"contracts/VerifiedSimpleStorage.sol:VerifiedSimpleStorage","label":"expiry","offset":0,"slot":"3","type":"t_uint256"}],"numberOfBytes":"128"},"t_uint256":{"encoding":"inplace","label":"uint256","numberOfBytes":"32"},"t_uint8":{"encoding":"inplace","label":"uint8","numberOfBytes":"1"}}}}}}