{"contracts/VerifiableIdentityPreventsOnExpiry.sol":{"VerifiableIdentityPreventsOnExpiry":{"abi":[{"inputs":[{"internalType":"address","name":"proofContract","type":"address"}],"stateMutability":"nonpayable","type":"constructor"},{"inputs":[{"internalType":"bytes8","name":"c__39e378f6","type":"bytes8"}],"name":"c_39e378f6","outputs":[],"stateMutability":"pure","type":"function"},{"inputs":[{"internalType":"bytes8","name":"c__b1e09423","type":"bytes8"}],"name":"c_b1e09423","outputs":[],"stateMutability":"pure","type":"function"},{"inputs":[{"internalType":"bytes8","name":"c__b8c9e965","type":"bytes8"}],"name":"c_b8c9e965","outputs":[],"stateMutability":"pure","type":"function"},{"inputs":[{"internalType":"bytes8","name":"c__39e378f6","type":"bytes8"}],"name":"c_false39e378f6","outputs":[{"internalType":"bool","name":"","type":"bool"}],"stateMutability":"pure","type":"function"},{"inputs":[{"internalType":"bytes8","name":"c__b1e09423","type":"bytes8"}],"name":"c_falseb1e09423","outputs":[{"internalType":"bool","name":"","type":"bool"}],"stateMutability":"pure","type":"function"},{"inputs":[{"internalType":"bytes8","name":"c__b8c9e965","type":"bytes8"}],"name":"c_falseb8c9e965","outputs":[{"internalType":"bool","name":"","type":"bool"}],"stateMutability":"pure","type":"function"},{"inputs":[{"internalType":"bytes8","name":"c__39e378f6","type":"bytes8"}],"name":"c_true39e378f6","outputs":[{"internalType":"bool","name":"","type":"bool"}],"stateMutability":"pure","type":"function"},{"inputs":[{"internalType":"bytes8","name":"c__b1e09423","type":"bytes8"}],"name":"c_trueb1e09423","outputs":[{"internalType":"bool","name":"","type":"bool"}],"stateMutability":"pure","type":"function"},{"inputs":[{"internalType":"bytes8","name":"c__b8c9e965","type":"bytes8"}],"name":"c_trueb8c9e965","outputs":[{"internalType":"bool","name":"","type":"bool"}],"stateMutability":"pure","type":"function"},{"inputs":[{"internalType":"address","name":"account","type":"address"}],"name":"getUserAccountCountryCodePreventOnExpiry","outputs":[{"internalType":"string","name":"userAccountCountryCode","type":"string"}],"stateMutability":"view","type":"function"},{"inputs":[{"internalType":"address","name":"account","type":"address"}],"name":"getUserAccountExpiry","outputs":[{"internalType":"uint256","name":"userAccountExpiry","type":"uint256"}],"stateMutability":"view","type":"function"},{"inputs":[{"internalType":"address","name":"account","type":"address"}],"name":"getUserAccountIdentityBlob","outputs":[{"components":[{"internalType":"uint256","name":"tokenId","type":"uint256"},{"internalType":"string","name":"countryCode","type":"string"},{"internalType":"uint8","name":"userType","type":"uint8"},{"internalType":"uint8","name":"level","type":"uint8"},{"internalType":"uint256","name":"expiry","type":"uint256"}],"internalType":"struct RoleVerification.IdentityBlob","name":"userIdentityBlob","type":"tuple"}],"stateMutability":"view","type":"function"},{"inputs":[{"internalType":"address","name":"account","type":"address"}],"name":"getUserAccountLevelPreventOnExpiry","outputs":[{"internalType":"uint8","name":"","type":"uint8"}],"stateMutability":"view","type":"function"},{"inputs":[{"internalType":"address","name":"account","type":"address"}],"name":"getUserAccountTypePreventOnExpiry","outputs":[{"internalType":"uint8","name":"","type":"uint8"}],"stateMutability":"view","type":"function"},{"inputs":[{"internalType":"address","name":"account","type":"address"}],"name":"getUserCountryCodePreventOnExpiry","outputs":[{"internalType":"string","name":"userAccountCountryCode","type":"string"}],"stateMutability":"view","type":"function"},{"inputs":[{"internalType":"address","name":"account","type":"address"}],"name":"getUserExpiry","outputs":[{"internalType":"uint256","name":"","type":"uint256"}],"stateMutability":"view","type":"function"},{"inputs":[{"internalType":"address","name":"account","type":"address"}],"name":"getUserIdentityData","outputs":[{"components":[{"internalType":"uint256","name":"tokenId","type":"uint256"},{"internalType":"string","name":"countryCode","type":"string"},{"internalType":"uint8","name":"userType","type":"uint8"},{"internalType":"uint8","name":"level","type":"uint8"},{"internalType":"uint256","name":"expiry","type":"uint256"}],"internalType":"struct RoleVerification.IdentityBlob","name":"userAccountIdentityBlob","type":"tuple"}],"stateMutability":"view","type":"function"},{"inputs":[{"internalType":"address","name":"account","type":"address"}],"name":"getUserLevelPreventOnExpiry","outputs":[{"internalType":"uint8","name":"userAccountLevel","type":"uint8"}],"stateMutability":"view","type":"function"},{"inputs":[{"internalType":"address","name":"account","type":"address"}],"name":"getUserTypePreventOnExpiry","outputs":[{"internalType":"uint8","name":"userAccountType","type":"uint8"}],"stateMutability":"view","type":"function"},{"inputs":[{"internalType":"address","name":"","type":"address"}],"name":"identityBlob","outputs":[{"internalType":"uint256","name":"tokenId","type":"uint256"},{"internalType":"string","name":"countryCode","type":"string"},{"internalType":"uint8","name":"userType","type":"uint8"},{"internalType":"uint8","name":"level","type":"uint8"},{"internalType":"uint256","name":"expiry","type":"uint256"}],"stateMutability":"view","type":"function"}],"evm":{"bytecode":{"linkReferences":{},"object":"60806040523480156200001157600080fd5b5060405162001b5138038062001b518339818101604052810190620000379190620000d1565b6200005367114da5f07da2cbb060c01b620000b760201b60201c565b6200006f67d066f3321a485c1360c01b620000b760201b60201c565b80600160006101000a81548173ffffffffffffffffffffffffffffffffffffffff021916908373ffffffffffffffffffffffffffffffffffffffff160217905550506200014b565b50565b600081519050620000cb8162000131565b92915050565b600060208284031215620000e457600080fd5b6000620000f484828501620000ba565b91505092915050565b60006200010a8262000111565b9050919050565b600073ffffffffffffffffffffffffffffffffffffffff82169050919050565b6200013c81620000fd565b81146200014857600080fd5b50565b6119f6806200015b6000396000f3fe608060405234801561001057600080fd5b506004361061012c5760003560e01c806389254975116100ad578063dd9e939211610071578063dd9e9392146103f1578063dee4c7091461040d578063ec4d57b31461043d578063ec89573114610459578063eee84487146104895761012c565b80638925497514610301578063949cdd6e1461033157806396257e4d14610361578063bc5c908f14610391578063c8755ecf146103c15761012c565b806360f9f45b116100f457806360f9f45b14610221578063688ea9fe146102515780636ca5fde8146102855780637bdd2874146102b5578063819d1a04146102d15761012c565b806309299ea31461013157806319af90da146101615780631fe0094a146101915780632deb044a146101c15780636020c7be146101f1575b600080fd5b61014b600480360381019061014691906113e9565b6104b9565b60405161015891906116cb565b60405180910390f35b61017b600480360381019061017691906113e9565b610540565b6040516101889190611740565b60405180910390f35b6101ab60048036038101906101a691906113e9565b610630565b6040516101b89190611740565b60405180910390f35b6101db60048036038101906101d691906113e9565b6107f6565b6040516101e891906116a9565b60405180910390f35b61020b600480360381019061020691906113e9565b6108f1565b6040516102189190611687565b60405180910390f35b61023b600480360381019061023691906113e9565b6109e6565b6040516102489190611740565b60405180910390f35b61026b600480360381019061026691906113e9565b610ad6565b60405161027c9594939291906116e6565b60405180910390f35b61029f600480360381019061029a91906113e9565b610bae565b6040516102ac91906116a9565b60405180910390f35b6102cf60048036038101906102ca9190611412565b610d22565b005b6102eb60048036038101906102e69190611412565b610d25565b6040516102f8919061166c565b60405180910390f35b61031b60048036038101906103169190611412565b610d30565b604051610328919061166c565b60405180910390f35b61034b600480360381019061034691906113e9565b610d3b565b6040516103589190611740565b60405180910390f35b61037b600480360381019061037691906113e9565b610f01565b6040516103889190611687565b60405180910390f35b6103ab60048036038101906103a69190611412565b611142565b6040516103b8919061166c565b60405180910390f35b6103db60048036038101906103d69190611412565b611149565b6040516103e8919061166c565b60405180910390f35b61040b60048036038101906104069190611412565b611150565b005b61042760048036038101906104229190611412565b611153565b604051610434919061166c565b60405180910390f35b61045760048036038101906104529190611412565b61115e565b005b610473600480360381019061046e9190611412565b611161565b604051610480919061166c565b60405180910390f35b6104a3600480360381019061049e91906113e9565b611168565b6040516104b091906116cb565b60405180910390f35b60006104cf67c1c9ef872120ad4c60c01b61115e565b6104e36722a4df8a42ceaa6160c01b61115e565b6104f76794447c4bb948903360c01b61115e565b6000808373ffffffffffffffffffffffffffffffffffffffff1673ffffffffffffffffffffffffffffffffffffffff168152602001908152602001600020600301549050919050565b6000610556672edd21c6479e565160c01b610d22565b61056a67cb63dd96fa2bc4b760c01b610d22565b61057e675a4d9957dc34a73d60c01b610d22565b600160009054906101000a900473ffffffffffffffffffffffffffffffffffffffff1673ffffffffffffffffffffffffffffffffffffffff16631fe0094a836040518263ffffffff1660e01b81526004016105d99190611651565b60206040518083038186803b1580156105f157600080fd5b505afa158015610605573d6000803e3d6000fd5b505050506040513d601f19601f8201168201806040525081019061062991906114e6565b9050919050565b6000610646678a8a08e8027046c760c01b611150565b61065a6791c41a347ba64e9660c01b611150565b61066e679881f450aa1ce9eb60c01b611150565b6000808373ffffffffffffffffffffffffffffffffffffffff1673ffffffffffffffffffffffffffffffffffffffff168152602001908152602001600020600301544210610764576106ca67312e0ffaf24bb87460c01b611150565b6106de67c78863f958234bc560c01b611150565b6106f267c5c511546c50c45160c01b611150565b6040518060400160405280600381526020017f31303300000000000000000000000000000000000000000000000000000000008152506040517f08c379a000000000000000000000000000000000000000000000000000000000815260040161075b9190611687565b60405180910390fd5b6107786706dae439f14a554160c01b611150565b61078c67d9a43cd54b2554f860c01b611150565b6107a067b80c4d30135ffecc60c01b611150565b6000808373ffffffffffffffffffffffffffffffffffffffff1673ffffffffffffffffffffffffffffffffffffffff16815260200190815260200160002060020160009054906101000a900460ff169050919050565b6107fe611258565b61081267301f548dc102b43f60c01b610d22565b610826670f97fff3c86fc1ee60c01b610d22565b61083a6748fd7e7c84df656260c01b610d22565b600160009054906101000a900473ffffffffffffffffffffffffffffffffffffffff1673ffffffffffffffffffffffffffffffffffffffff16636ca5fde8836040518263ffffffff1660e01b81526004016108959190611651565b60006040518083038186803b1580156108ad57600080fd5b505afa1580156108c1573d6000803e3d6000fd5b505050506040513d6000823e3d601f19601f820116820180604052508101906108ea919061147c565b9050919050565b60606109076738df39d427da90c560c01b610d22565b61091b6724d47fc2014f851660c01b610d22565b61092f67c5ec21534b2e166f60c01b610d22565b600160009054906101000a900473ffffffffffffffffffffffffffffffffffffffff1673ffffffffffffffffffffffffffffffffffffffff166396257e4d836040518263ffffffff1660e01b815260040161098a9190611651565b60006040518083038186803b1580156109a257600080fd5b505afa1580156109b6573d6000803e3d6000fd5b505050506040513d6000823e3d601f19601f820116820180604052508101906109df919061143b565b9050919050565b60006109fc67e52a9c1fb9cd631560c01b610d22565b610a1067f172a9dc0422d27c60c01b610d22565b610a2467a75bc0529742d4d160c01b610d22565b600160009054906101000a900473ffffffffffffffffffffffffffffffffffffffff1673ffffffffffffffffffffffffffffffffffffffff1663949cdd6e836040518263ffffffff1660e01b8152600401610a7f9190611651565b60206040518083038186803b158015610a9757600080fd5b505afa158015610aab573d6000803e3d6000fd5b505050506040513d601f19601f82011682018060405250810190610acf91906114e6565b9050919050565b6000602052806000526040600020600091509050806000015490806001018054610aff90611892565b80601f0160208091040260200160405190810160405280929190818152602001828054610b2b90611892565b8015610b785780601f10610b4d57610100808354040283529160200191610b78565b820191906000526020600020905b815481529060010190602001808311610b5b57829003601f168201915b5050505050908060020160009054906101000a900460ff16908060020160019054906101000a900460ff16908060030154905085565b610bb6611258565b610bca67a05f59d4624295fd60c01b61115e565b610bde6769c1a1d6327d607160c01b61115e565b610bf267bdaf4779ff83744f60c01b61115e565b6000808373ffffffffffffffffffffffffffffffffffffffff1673ffffffffffffffffffffffffffffffffffffffff1681526020019081526020016000206040518060a001604052908160008201548152602001600182018054610c5590611892565b80601f0160208091040260200160405190810160405280929190818152602001828054610c8190611892565b8015610cce5780601f10610ca357610100808354040283529160200191610cce565b820191906000526020600020905b815481529060010190602001808311610cb157829003601f168201915b505050505081526020016002820160009054906101000a900460ff1660ff1660ff1681526020016002820160019054906101000a900460ff1660ff1660ff1681526020016003820154815250509050919050565b50565b600060019050919050565b600060019050919050565b6000610d5167e7400f8588b3b9fd60c01b611150565b610d6567218e4aadc28bad5460c01b611150565b610d796709e2c5a8a6db9e6460c01b611150565b6000808373ffffffffffffffffffffffffffffffffffffffff1673ffffffffffffffffffffffffffffffffffffffff168152602001908152602001600020600301544210610e6f57610dd567a46d03d2c5d0aae460c01b611150565b610de96759e43ca1959c0a4e60c01b611150565b610dfd67c0882176d22f194460c01b611150565b6040518060400160405280600381526020017f31303300000000000000000000000000000000000000000000000000000000008152506040517f08c379a0000000000000000000000000000000000000000000000000000000008152600401610e669190611687565b60405180910390fd5b610e836719c99830b5b4654060c01b611150565b610e976792805f3a7478451b60c01b611150565b610eab6746c027269ffad2a760c01b611150565b6000808373ffffffffffffffffffffffffffffffffffffffff1673ffffffffffffffffffffffffffffffffffffffff16815260200190815260200160002060020160019054906101000a900460ff169050919050565b6060610f1767798aa39337352c8c60c01b611150565b610f2b67dab4f449d5de2f6f60c01b611150565b610f3f6770d4d7382d2a981660c01b611150565b6000808373ffffffffffffffffffffffffffffffffffffffff1673ffffffffffffffffffffffffffffffffffffffff16815260200190815260200160002060030154421061103557610f9b67c5c834afaae4a7d160c01b611150565b610faf67282dd2059d86991c60c01b611150565b610fc367bc73e24e23818fec60c01b611150565b6040518060400160405280600381526020017f31303300000000000000000000000000000000000000000000000000000000008152506040517f08c379a000000000000000000000000000000000000000000000000000000000815260040161102c9190611687565b60405180910390fd5b611049673afbff51046f6dc960c01b611150565b61105d67dc0c995e8c89436c60c01b611150565b61107167c8c8ce89cab65bb260c01b611150565b6000808373ffffffffffffffffffffffffffffffffffffffff1673ffffffffffffffffffffffffffffffffffffffff16815260200190815260200160002060010180546110bd90611892565b80601f01602080910402602001604051908101604052809291908181526020018280546110e990611892565b80156111365780601f1061110b57610100808354040283529160200191611136565b820191906000526020600020905b81548152906001019060200180831161111957829003601f168201915b50505050509050919050565b6000919050565b6000919050565b50565b600060019050919050565b50565b6000919050565b600061117e670f88f2a0dcb65c1c60c01b610d22565b61119267b8603facb6a4a5d360c01b610d22565b6111a667c7ea2e9d9cdc4fed60c01b610d22565b600160009054906101000a900473ffffffffffffffffffffffffffffffffffffffff1673ffffffffffffffffffffffffffffffffffffffff166309299ea3836040518263ffffffff1660e01b81526004016112019190611651565b60206040518083038186803b15801561121957600080fd5b505afa15801561122d573d6000803e3d6000fd5b505050506040513d601f19601f8201168201806040525081019061125191906114bd565b9050919050565b6040518060a001604052806000815260200160608152602001600060ff168152602001600060ff168152602001600081525090565b60006112a061129b84611780565b61175b565b9050828152602081018484840111156112b857600080fd5b6112c384828561185f565b509392505050565b6000813590506112da81611964565b92915050565b6000813590506112ef8161197b565b92915050565b600082601f83011261130657600080fd5b815161131684826020860161128d565b91505092915050565b600060a0828403121561133157600080fd5b61133b60a061175b565b9050600061134b848285016113bf565b600083015250602082015167ffffffffffffffff81111561136b57600080fd5b611377848285016112f5565b602083015250604061138b848285016113d4565b604083015250606061139f848285016113d4565b60608301525060806113b3848285016113bf565b60808301525092915050565b6000815190506113ce81611992565b92915050565b6000815190506113e3816119a9565b92915050565b6000602082840312156113fb57600080fd5b6000611409848285016112cb565b91505092915050565b60006020828403121561142457600080fd5b6000611432848285016112e0565b91505092915050565b60006020828403121561144d57600080fd5b600082015167ffffffffffffffff81111561146757600080fd5b611473848285016112f5565b91505092915050565b60006020828403121561148e57600080fd5b600082015167ffffffffffffffff8111156114a857600080fd5b6114b48482850161131f565b91505092915050565b6000602082840312156114cf57600080fd5b60006114dd848285016113bf565b91505092915050565b6000602082840312156114f857600080fd5b6000611506848285016113d4565b91505092915050565b611518816117de565b82525050565b611527816117f0565b82525050565b6000611538826117b1565b61154281856117bc565b935061155281856020860161185f565b61155b81611953565b840191505092915050565b6000611571826117b1565b61157b81856117cd565b935061158b81856020860161185f565b61159481611953565b840191505092915050565b600060a0830160008301516115b76000860182611615565b50602083015184820360208601526115cf828261152d565b91505060408301516115e46040860182611633565b5060608301516115f76060860182611633565b50608083015161160a6080860182611615565b508091505092915050565b61161e81611848565b82525050565b61162d81611848565b82525050565b61163c81611852565b82525050565b61164b81611852565b82525050565b6000602082019050611666600083018461150f565b92915050565b6000602082019050611681600083018461151e565b92915050565b600060208201905081810360008301526116a18184611566565b905092915050565b600060208201905081810360008301526116c3818461159f565b905092915050565b60006020820190506116e06000830184611624565b92915050565b600060a0820190506116fb6000830188611624565b818103602083015261170d8187611566565b905061171c6040830186611642565b6117296060830185611642565b6117366080830184611624565b9695505050505050565b60006020820190506117556000830184611642565b92915050565b6000611765611776565b905061177182826118c4565b919050565b6000604051905090565b600067ffffffffffffffff82111561179b5761179a611924565b5b6117a482611953565b9050602081019050919050565b600081519050919050565b600082825260208201905092915050565b600082825260208201905092915050565b60006117e982611828565b9050919050565b60008115159050919050565b60007fffffffffffffffff00000000000000000000000000000000000000000000000082169050919050565b600073ffffffffffffffffffffffffffffffffffffffff82169050919050565b6000819050919050565b600060ff82169050919050565b60005b8381101561187d578082015181840152602081019050611862565b8381111561188c576000848401525b50505050565b600060028204905060018216806118aa57607f821691505b602082108114156118be576118bd6118f5565b5b50919050565b6118cd82611953565b810181811067ffffffffffffffff821117156118ec576118eb611924565b5b80604052505050565b7f4e487b7100000000000000000000000000000000000000000000000000000000600052602260045260246000fd5b7f4e487b7100000000000000000000000000000000000000000000000000000000600052604160045260246000fd5b6000601f19601f8301169050919050565b61196d816117de565b811461197857600080fd5b50565b611984816117fc565b811461198f57600080fd5b50565b61199b81611848565b81146119a657600080fd5b50565b6119b281611852565b81146119bd57600080fd5b5056fea26469706673582212200fc747273970b92b86468817e03b8f91e8dbb39cc1ea21f742d0e754016fc9eb64736f6c63430008020033","opcodes":"PUSH1 0x80 PUSH1 0x40 MSTORE CALLVALUE DUP1 ISZERO PUSH3 0x11 JUMPI PUSH1 0x0 DUP1 REVERT JUMPDEST POP PUSH1 0x40 MLOAD PUSH3 0x1B51 CODESIZE SUB DUP1 PUSH3 0x1B51 DUP4 CODECOPY DUP2 DUP2 ADD PUSH1 0x40 MSTORE DUP2 ADD SWAP1 PUSH3 0x37 SWAP2 SWAP1 PUSH3 0xD1 JUMP JUMPDEST PUSH3 0x53 PUSH8 0x114DA5F07DA2CBB0 PUSH1 0xC0 SHL PUSH3 0xB7 PUSH1 0x20 SHL PUSH1 0x20 SHR JUMP JUMPDEST PUSH3 0x6F PUSH8 0xD066F3321A485C13 PUSH1 0xC0 SHL PUSH3 0xB7 PUSH1 0x20 SHL PUSH1 0x20 SHR JUMP JUMPDEST DUP1 PUSH1 0x1 PUSH1 0x0 PUSH2 0x100 EXP DUP2 SLOAD DUP2 PUSH20 0xFFFFFFFFFFFFFFFFFFFFFFFFFFFFFFFFFFFFFFFF MUL NOT AND SWAP1 DUP4 PUSH20 0xFFFFFFFFFFFFFFFFFFFFFFFFFFFFFFFFFFFFFFFF AND MUL OR SWAP1 SSTORE POP POP PUSH3 0x14B JUMP JUMPDEST POP JUMP JUMPDEST PUSH1 0x0 DUP2 MLOAD SWAP1 POP PUSH3 0xCB DUP2 PUSH3 0x131 JUMP JUMPDEST SWAP3 SWAP2 POP POP JUMP JUMPDEST PUSH1 0x0 PUSH1 0x20 DUP3 DUP5 SUB SLT ISZERO PUSH3 0xE4 JUMPI PUSH1 0x0 DUP1 REVERT JUMPDEST PUSH1 0x0 PUSH3 0xF4 DUP5 DUP3 DUP6 ADD PUSH3 0xBA JUMP JUMPDEST SWAP2 POP POP SWAP3 SWAP2 POP POP JUMP JUMPDEST PUSH1 0x0 PUSH3 0x10A DUP3 PUSH3 0x111 JUMP JUMPDEST SWAP1 POP SWAP2 SWAP1 POP JUMP JUMPDEST PUSH1 0x0 PUSH20 0xFFFFFFFFFFFFFFFFFFFFFFFFFFFFFFFFFFFFFFFF DUP3 AND SWAP1 POP SWAP2 SWAP1 POP JUMP JUMPDEST PUSH3 0x13C DUP2 PUSH3 0xFD JUMP JUMPDEST DUP2 EQ PUSH3 0x148 JUMPI PUSH1 0x0 DUP1 REVERT JUMPDEST POP JUMP JUMPDEST PUSH2 0x19F6 DUP1 PUSH3 0x15B PUSH1 0x0 CODECOPY PUSH1 0x0 RETURN INVALID PUSH1 0x80 PUSH1 0x40 MSTORE CALLVALUE DUP1 ISZERO PUSH2 0x10 JUMPI PUSH1 0x0 DUP1 REVERT JUMPDEST POP PUSH1 0x4 CALLDATASIZE LT PUSH2 0x12C JUMPI PUSH1 0x0 CALLDATALOAD PUSH1 0xE0 SHR DUP1 PUSH4 0x89254975 GT PUSH2 0xAD JUMPI DUP1 PUSH4 0xDD9E9392 GT PUSH2 0x71 JUMPI DUP1 PUSH4 0xDD9E9392 EQ PUSH2 0x3F1 JUMPI DUP1 PUSH4 0xDEE4C709 EQ PUSH2 0x40D JUMPI DUP1 PUSH4 0xEC4D57B3 EQ PUSH2 0x43D JUMPI DUP1 PUSH4 0xEC895731 EQ PUSH2 0x459 JUMPI DUP1 PUSH4 0xEEE84487 EQ PUSH2 0x489 JUMPI PUSH2 0x12C JUMP JUMPDEST DUP1 PUSH4 0x89254975 EQ PUSH2 0x301 JUMPI DUP1 PUSH4 0x949CDD6E EQ PUSH2 0x331 JUMPI DUP1 PUSH4 0x96257E4D EQ PUSH2 0x361 JUMPI DUP1 PUSH4 0xBC5C908F EQ PUSH2 0x391 JUMPI DUP1 PUSH4 0xC8755ECF EQ PUSH2 0x3C1 JUMPI PUSH2 0x12C JUMP JUMPDEST DUP1 PUSH4 0x60F9F45B GT PUSH2 0xF4 JUMPI DUP1 PUSH4 0x60F9F45B EQ PUSH2 0x221 JUMPI DUP1 PUSH4 0x688EA9FE EQ PUSH2 0x251 JUMPI DUP1 PUSH4 0x6CA5FDE8 EQ PUSH2 0x285 JUMPI DUP1 PUSH4 0x7BDD2874 EQ PUSH2 0x2B5 JUMPI DUP1 PUSH4 0x819D1A04 EQ PUSH2 0x2D1 JUMPI PUSH2 0x12C JUMP JUMPDEST DUP1 PUSH4 0x9299EA3 EQ PUSH2 0x131 JUMPI DUP1 PUSH4 0x19AF90DA EQ PUSH2 0x161 JUMPI DUP1 PUSH4 0x1FE0094A EQ PUSH2 0x191 JUMPI DUP1 PUSH4 0x2DEB044A EQ PUSH2 0x1C1 JUMPI DUP1 PUSH4 0x6020C7BE EQ PUSH2 0x1F1 JUMPI JUMPDEST PUSH1 0x0 DUP1 REVERT JUMPDEST PUSH2 0x14B PUSH1 0x4 DUP1 CALLDATASIZE SUB DUP2 ADD SWAP1 PUSH2 0x146 SWAP2 SWAP1 PUSH2 0x13E9 JUMP JUMPDEST PUSH2 0x4B9 JUMP JUMPDEST PUSH1 0x40 MLOAD PUSH2 0x158 SWAP2 SWAP1 PUSH2 0x16CB JUMP JUMPDEST PUSH1 0x40 MLOAD DUP1 SWAP2 SUB SWAP1 RETURN JUMPDEST PUSH2 0x17B PUSH1 0x4 DUP1 CALLDATASIZE SUB DUP2 ADD SWAP1 PUSH2 0x176 SWAP2 SWAP1 PUSH2 0x13E9 JUMP JUMPDEST PUSH2 0x540 JUMP JUMPDEST PUSH1 0x40 MLOAD PUSH2 0x188 SWAP2 SWAP1 PUSH2 0x1740 JUMP JUMPDEST PUSH1 0x40 MLOAD DUP1 SWAP2 SUB SWAP1 RETURN JUMPDEST PUSH2 0x1AB PUSH1 0x4 DUP1 CALLDATASIZE SUB DUP2 ADD SWAP1 PUSH2 0x1A6 SWAP2 SWAP1 PUSH2 0x13E9 JUMP JUMPDEST PUSH2 0x630 JUMP JUMPDEST PUSH1 0x40 MLOAD PUSH2 0x1B8 SWAP2 SWAP1 PUSH2 0x1740 JUMP JUMPDEST PUSH1 0x40 MLOAD DUP1 SWAP2 SUB SWAP1 RETURN JUMPDEST PUSH2 0x1DB PUSH1 0x4 DUP1 CALLDATASIZE SUB DUP2 ADD SWAP1 PUSH2 0x1D6 SWAP2 SWAP1 PUSH2 0x13E9 JUMP JUMPDEST PUSH2 0x7F6 JUMP JUMPDEST PUSH1 0x40 MLOAD PUSH2 0x1E8 SWAP2 SWAP1 PUSH2 0x16A9 JUMP JUMPDEST PUSH1 0x40 MLOAD DUP1 SWAP2 SUB SWAP1 RETURN JUMPDEST PUSH2 0x20B PUSH1 0x4 DUP1 CALLDATASIZE SUB DUP2 ADD SWAP1 PUSH2 0x206 SWAP2 SWAP1 PUSH2 0x13E9 JUMP JUMPDEST PUSH2 0x8F1 JUMP JUMPDEST PUSH1 0x40 MLOAD PUSH2 0x218 SWAP2 SWAP1 PUSH2 0x1687 JUMP JUMPDEST PUSH1 0x40 MLOAD DUP1 SWAP2 SUB SWAP1 RETURN JUMPDEST PUSH2 0x23B PUSH1 0x4 DUP1 CALLDATASIZE SUB DUP2 ADD SWAP1 PUSH2 0x236 SWAP2 SWAP1 PUSH2 0x13E9 JUMP JUMPDEST PUSH2 0x9E6 JUMP JUMPDEST PUSH1 0x40 MLOAD PUSH2 0x248 SWAP2 SWAP1 PUSH2 0x1740 JUMP JUMPDEST PUSH1 0x40 MLOAD DUP1 SWAP2 SUB SWAP1 RETURN JUMPDEST PUSH2 0x26B PUSH1 0x4 DUP1 CALLDATASIZE SUB DUP2 ADD SWAP1 PUSH2 0x266 SWAP2 SWAP1 PUSH2 0x13E9 JUMP JUMPDEST PUSH2 0xAD6 JUMP JUMPDEST PUSH1 0x40 MLOAD PUSH2 0x27C SWAP6 SWAP5 SWAP4 SWAP3 SWAP2 SWAP1 PUSH2 0x16E6 JUMP JUMPDEST PUSH1 0x40 MLOAD DUP1 SWAP2 SUB SWAP1 RETURN JUMPDEST PUSH2 0x29F PUSH1 0x4 DUP1 CALLDATASIZE SUB DUP2 ADD SWAP1 PUSH2 0x29A SWAP2 SWAP1 PUSH2 0x13E9 JUMP JUMPDEST PUSH2 0xBAE JUMP JUMPDEST PUSH1 0x40 MLOAD PUSH2 0x2AC SWAP2 SWAP1 PUSH2 0x16A9 JUMP JUMPDEST PUSH1 0x40 MLOAD DUP1 SWAP2 SUB SWAP1 RETURN JUMPDEST PUSH2 0x2CF PUSH1 0x4 DUP1 CALLDATASIZE SUB DUP2 ADD SWAP1 PUSH2 0x2CA SWAP2 SWAP1 PUSH2 0x1412 JUMP JUMPDEST PUSH2 0xD22 JUMP JUMPDEST STOP JUMPDEST PUSH2 0x2EB PUSH1 0x4 DUP1 CALLDATASIZE SUB DUP2 ADD SWAP1 PUSH2 0x2E6 SWAP2 SWAP1 PUSH2 0x1412 JUMP JUMPDEST PUSH2 0xD25 JUMP JUMPDEST PUSH1 0x40 MLOAD PUSH2 0x2F8 SWAP2 SWAP1 PUSH2 0x166C JUMP JUMPDEST PUSH1 0x40 MLOAD DUP1 SWAP2 SUB SWAP1 RETURN JUMPDEST PUSH2 0x31B PUSH1 0x4 DUP1 CALLDATASIZE SUB DUP2 ADD SWAP1 PUSH2 0x316 SWAP2 SWAP1 PUSH2 0x1412 JUMP JUMPDEST PUSH2 0xD30 JUMP JUMPDEST PUSH1 0x40 MLOAD PUSH2 0x328 SWAP2 SWAP1 PUSH2 0x166C JUMP JUMPDEST PUSH1 0x40 MLOAD DUP1 SWAP2 SUB SWAP1 RETURN JUMPDEST PUSH2 0x34B PUSH1 0x4 DUP1 CALLDATASIZE SUB DUP2 ADD SWAP1 PUSH2 0x346 SWAP2 SWAP1 PUSH2 0x13E9 JUMP JUMPDEST PUSH2 0xD3B JUMP JUMPDEST PUSH1 0x40 MLOAD PUSH2 0x358 SWAP2 SWAP1 PUSH2 0x1740 JUMP JUMPDEST PUSH1 0x40 MLOAD DUP1 SWAP2 SUB SWAP1 RETURN JUMPDEST PUSH2 0x37B PUSH1 0x4 DUP1 CALLDATASIZE SUB DUP2 ADD SWAP1 PUSH2 0x376 SWAP2 SWAP1 PUSH2 0x13E9 JUMP JUMPDEST PUSH2 0xF01 JUMP JUMPDEST PUSH1 0x40 MLOAD PUSH2 0x388 SWAP2 SWAP1 PUSH2 0x1687 JUMP JUMPDEST PUSH1 0x40 MLOAD DUP1 SWAP2 SUB SWAP1 RETURN JUMPDEST PUSH2 0x3AB PUSH1 0x4 DUP1 CALLDATASIZE SUB DUP2 ADD SWAP1 PUSH2 0x3A6 SWAP2 SWAP1 PUSH2 0x1412 JUMP JUMPDEST PUSH2 0x1142 JUMP JUMPDEST PUSH1 0x40 MLOAD PUSH2 0x3B8 SWAP2 SWAP1 PUSH2 0x166C JUMP JUMPDEST PUSH1 0x40 MLOAD DUP1 SWAP2 SUB SWAP1 RETURN JUMPDEST PUSH2 0x3DB PUSH1 0x4 DUP1 CALLDATASIZE SUB DUP2 ADD SWAP1 PUSH2 0x3D6 SWAP2 SWAP1 PUSH2 0x1412 JUMP JUMPDEST PUSH2 0x1149 JUMP JUMPDEST PUSH1 0x40 MLOAD PUSH2 0x3E8 SWAP2 SWAP1 PUSH2 0x166C JUMP JUMPDEST PUSH1 0x40 MLOAD DUP1 SWAP2 SUB SWAP1 RETURN JUMPDEST PUSH2 0x40B PUSH1 0x4 DUP1 CALLDATASIZE SUB DUP2 ADD SWAP1 PUSH2 0x406 SWAP2 SWAP1 PUSH2 0x1412 JUMP JUMPDEST PUSH2 0x1150 JUMP JUMPDEST STOP JUMPDEST PUSH2 0x427 PUSH1 0x4 DUP1 CALLDATASIZE SUB DUP2 ADD SWAP1 PUSH2 0x422 SWAP2 SWAP1 PUSH2 0x1412 JUMP JUMPDEST PUSH2 0x1153 JUMP JUMPDEST PUSH1 0x40 MLOAD PUSH2 0x434 SWAP2 SWAP1 PUSH2 0x166C JUMP JUMPDEST PUSH1 0x40 MLOAD DUP1 SWAP2 SUB SWAP1 RETURN JUMPDEST PUSH2 0x457 PUSH1 0x4 DUP1 CALLDATASIZE SUB DUP2 ADD SWAP1 PUSH2 0x452 SWAP2 SWAP1 PUSH2 0x1412 JUMP JUMPDEST PUSH2 0x115E JUMP JUMPDEST STOP JUMPDEST PUSH2 0x473 PUSH1 0x4 DUP1 CALLDATASIZE SUB DUP2 ADD SWAP1 PUSH2 0x46E SWAP2 SWAP1 PUSH2 0x1412 JUMP JUMPDEST PUSH2 0x1161 JUMP JUMPDEST PUSH1 0x40 MLOAD PUSH2 0x480 SWAP2 SWAP1 PUSH2 0x166C JUMP JUMPDEST PUSH1 0x40 MLOAD DUP1 SWAP2 SUB SWAP1 RETURN JUMPDEST PUSH2 0x4A3 PUSH1 0x4 DUP1 CALLDATASIZE SUB DUP2 ADD SWAP1 PUSH2 0x49E SWAP2 SWAP1 PUSH2 0x13E9 JUMP JUMPDEST PUSH2 0x1168 JUMP JUMPDEST PUSH1 0x40 MLOAD PUSH2 0x4B0 SWAP2 SWAP1 PUSH2 0x16CB JUMP JUMPDEST PUSH1 0x40 MLOAD DUP1 SWAP2 SUB SWAP1 RETURN JUMPDEST PUSH1 0x0 PUSH2 0x4CF PUSH8 0xC1C9EF872120AD4C PUSH1 0xC0 SHL PUSH2 0x115E JUMP JUMPDEST PUSH2 0x4E3 PUSH8 0x22A4DF8A42CEAA61 PUSH1 0xC0 SHL PUSH2 0x115E JUMP JUMPDEST PUSH2 0x4F7 PUSH8 0x94447C4BB9489033 PUSH1 0xC0 SHL PUSH2 0x115E JUMP JUMPDEST PUSH1 0x0 DUP1 DUP4 PUSH20 0xFFFFFFFFFFFFFFFFFFFFFFFFFFFFFFFFFFFFFFFF AND PUSH20 0xFFFFFFFFFFFFFFFFFFFFFFFFFFFFFFFFFFFFFFFF AND DUP2 MSTORE PUSH1 0x20 ADD SWAP1 DUP2 MSTORE PUSH1 0x20 ADD PUSH1 0x0 KECCAK256 PUSH1 0x3 ADD SLOAD SWAP1 POP SWAP2 SWAP1 POP JUMP JUMPDEST PUSH1 0x0 PUSH2 0x556 PUSH8 0x2EDD21C6479E5651 PUSH1 0xC0 SHL PUSH2 0xD22 JUMP JUMPDEST PUSH2 0x56A PUSH8 0xCB63DD96FA2BC4B7 PUSH1 0xC0 SHL PUSH2 0xD22 JUMP JUMPDEST PUSH2 0x57E PUSH8 0x5A4D9957DC34A73D PUSH1 0xC0 SHL PUSH2 0xD22 JUMP JUMPDEST PUSH1 0x1 PUSH1 0x0 SWAP1 SLOAD SWAP1 PUSH2 0x100 EXP SWAP1 DIV PUSH20 0xFFFFFFFFFFFFFFFFFFFFFFFFFFFFFFFFFFFFFFFF AND PUSH20 0xFFFFFFFFFFFFFFFFFFFFFFFFFFFFFFFFFFFFFFFF AND PUSH4 0x1FE0094A DUP4 PUSH1 0x40 MLOAD DUP3 PUSH4 0xFFFFFFFF AND PUSH1 0xE0 SHL DUP2 MSTORE PUSH1 0x4 ADD PUSH2 0x5D9 SWAP2 SWAP1 PUSH2 0x1651 JUMP JUMPDEST PUSH1 0x20 PUSH1 0x40 MLOAD DUP1 DUP4 SUB DUP2 DUP7 DUP1 EXTCODESIZE ISZERO DUP1 ISZERO PUSH2 0x5F1 JUMPI PUSH1 0x0 DUP1 REVERT JUMPDEST POP GAS STATICCALL ISZERO DUP1 ISZERO PUSH2 0x605 JUMPI RETURNDATASIZE PUSH1 0x0 DUP1 RETURNDATACOPY RETURNDATASIZE PUSH1 0x0 REVERT JUMPDEST POP POP POP POP PUSH1 0x40 MLOAD RETURNDATASIZE PUSH1 0x1F NOT PUSH1 0x1F DUP3 ADD AND DUP3 ADD DUP1 PUSH1 0x40 MSTORE POP DUP2 ADD SWAP1 PUSH2 0x629 SWAP2 SWAP1 PUSH2 0x14E6 JUMP JUMPDEST SWAP1 POP SWAP2 SWAP1 POP JUMP JUMPDEST PUSH1 0x0 PUSH2 0x646 PUSH8 0x8A8A08E8027046C7 PUSH1 0xC0 SHL PUSH2 0x1150 JUMP JUMPDEST PUSH2 0x65A PUSH8 0x91C41A347BA64E96 PUSH1 0xC0 SHL PUSH2 0x1150 JUMP JUMPDEST PUSH2 0x66E PUSH8 0x9881F450AA1CE9EB PUSH1 0xC0 SHL PUSH2 0x1150 JUMP JUMPDEST PUSH1 0x0 DUP1 DUP4 PUSH20 0xFFFFFFFFFFFFFFFFFFFFFFFFFFFFFFFFFFFFFFFF AND PUSH20 0xFFFFFFFFFFFFFFFFFFFFFFFFFFFFFFFFFFFFFFFF AND DUP2 MSTORE PUSH1 0x20 ADD SWAP1 DUP2 MSTORE PUSH1 0x20 ADD PUSH1 0x0 KECCAK256 PUSH1 0x3 ADD SLOAD TIMESTAMP LT PUSH2 0x764 JUMPI PUSH2 0x6CA PUSH8 0x312E0FFAF24BB874 PUSH1 0xC0 SHL PUSH2 0x1150 JUMP JUMPDEST PUSH2 0x6DE PUSH8 0xC78863F958234BC5 PUSH1 0xC0 SHL PUSH2 0x1150 JUMP JUMPDEST PUSH2 0x6F2 PUSH8 0xC5C511546C50C451 PUSH1 0xC0 SHL PUSH2 0x1150 JUMP JUMPDEST PUSH1 0x40 MLOAD DUP1 PUSH1 0x40 ADD PUSH1 0x40 MSTORE DUP1 PUSH1 0x3 DUP2 MSTORE PUSH1 0x20 ADD PUSH32 0x3130330000000000000000000000000000000000000000000000000000000000 DUP2 MSTORE POP PUSH1 0x40 MLOAD PUSH32 0x8C379A000000000000000000000000000000000000000000000000000000000 DUP2 MSTORE PUSH1 0x4 ADD PUSH2 0x75B SWAP2 SWAP1 PUSH2 0x1687 JUMP JUMPDEST PUSH1 0x40 MLOAD DUP1 SWAP2 SUB SWAP1 REVERT JUMPDEST PUSH2 0x778 PUSH8 0x6DAE439F14A5541 PUSH1 0xC0 SHL PUSH2 0x1150 JUMP JUMPDEST PUSH2 0x78C PUSH8 0xD9A43CD54B2554F8 PUSH1 0xC0 SHL PUSH2 0x1150 JUMP JUMPDEST PUSH2 0x7A0 PUSH8 0xB80C4D30135FFECC PUSH1 0xC0 SHL PUSH2 0x1150 JUMP JUMPDEST PUSH1 0x0 DUP1 DUP4 PUSH20 0xFFFFFFFFFFFFFFFFFFFFFFFFFFFFFFFFFFFFFFFF AND PUSH20 0xFFFFFFFFFFFFFFFFFFFFFFFFFFFFFFFFFFFFFFFF AND DUP2 MSTORE PUSH1 0x20 ADD SWAP1 DUP2 MSTORE PUSH1 0x20 ADD PUSH1 0x0 KECCAK256 PUSH1 0x2 ADD PUSH1 0x0 SWAP1 SLOAD SWAP1 PUSH2 0x100 EXP SWAP1 DIV PUSH1 0xFF AND SWAP1 POP SWAP2 SWAP1 POP JUMP JUMPDEST PUSH2 0x7FE PUSH2 0x1258 JUMP JUMPDEST PUSH2 0x812 PUSH8 0x301F548DC102B43F PUSH1 0xC0 SHL PUSH2 0xD22 JUMP JUMPDEST PUSH2 0x826 PUSH8 0xF97FFF3C86FC1EE PUSH1 0xC0 SHL PUSH2 0xD22 JUMP JUMPDEST PUSH2 0x83A PUSH8 0x48FD7E7C84DF6562 PUSH1 0xC0 SHL PUSH2 0xD22 JUMP JUMPDEST PUSH1 0x1 PUSH1 0x0 SWAP1 SLOAD SWAP1 PUSH2 0x100 EXP SWAP1 DIV PUSH20 0xFFFFFFFFFFFFFFFFFFFFFFFFFFFFFFFFFFFFFFFF AND PUSH20 0xFFFFFFFFFFFFFFFFFFFFFFFFFFFFFFFFFFFFFFFF AND PUSH4 0x6CA5FDE8 DUP4 PUSH1 0x40 MLOAD DUP3 PUSH4 0xFFFFFFFF AND PUSH1 0xE0 SHL DUP2 MSTORE PUSH1 0x4 ADD PUSH2 0x895 SWAP2 SWAP1 PUSH2 0x1651 JUMP JUMPDEST PUSH1 0x0 PUSH1 0x40 MLOAD DUP1 DUP4 SUB DUP2 DUP7 DUP1 EXTCODESIZE ISZERO DUP1 ISZERO PUSH2 0x8AD JUMPI PUSH1 0x0 DUP1 REVERT JUMPDEST POP GAS STATICCALL ISZERO DUP1 ISZERO PUSH2 0x8C1 JUMPI RETURNDATASIZE PUSH1 0x0 DUP1 RETURNDATACOPY RETURNDATASIZE PUSH1 0x0 REVERT JUMPDEST POP POP POP POP PUSH1 0x40 MLOAD RETURNDATASIZE PUSH1 0x0 DUP3 RETURNDATACOPY RETURNDATASIZE PUSH1 0x1F NOT PUSH1 0x1F DUP3 ADD AND DUP3 ADD DUP1 PUSH1 0x40 MSTORE POP DUP2 ADD SWAP1 PUSH2 0x8EA SWAP2 SWAP1 PUSH2 0x147C JUMP JUMPDEST SWAP1 POP SWAP2 SWAP1 POP JUMP JUMPDEST PUSH1 0x60 PUSH2 0x907 PUSH8 0x38DF39D427DA90C5 PUSH1 0xC0 SHL PUSH2 0xD22 JUMP JUMPDEST PUSH2 0x91B PUSH8 0x24D47FC2014F8516 PUSH1 0xC0 SHL PUSH2 0xD22 JUMP JUMPDEST PUSH2 0x92F PUSH8 0xC5EC21534B2E166F PUSH1 0xC0 SHL PUSH2 0xD22 JUMP JUMPDEST PUSH1 0x1 PUSH1 0x0 SWAP1 SLOAD SWAP1 PUSH2 0x100 EXP SWAP1 DIV PUSH20 0xFFFFFFFFFFFFFFFFFFFFFFFFFFFFFFFFFFFFFFFF AND PUSH20 0xFFFFFFFFFFFFFFFFFFFFFFFFFFFFFFFFFFFFFFFF AND PUSH4 0x96257E4D DUP4 PUSH1 0x40 MLOAD DUP3 PUSH4 0xFFFFFFFF AND PUSH1 0xE0 SHL DUP2 MSTORE PUSH1 0x4 ADD PUSH2 0x98A SWAP2 SWAP1 PUSH2 0x1651 JUMP JUMPDEST PUSH1 0x0 PUSH1 0x40 MLOAD DUP1 DUP4 SUB DUP2 DUP7 DUP1 EXTCODESIZE ISZERO DUP1 ISZERO PUSH2 0x9A2 JUMPI PUSH1 0x0 DUP1 REVERT JUMPDEST POP GAS STATICCALL ISZERO DUP1 ISZERO PUSH2 0x9B6 JUMPI RETURNDATASIZE PUSH1 0x0 DUP1 RETURNDATACOPY RETURNDATASIZE PUSH1 0x0 REVERT JUMPDEST POP POP POP POP PUSH1 0x40 MLOAD RETURNDATASIZE PUSH1 0x0 DUP3 RETURNDATACOPY RETURNDATASIZE PUSH1 0x1F NOT PUSH1 0x1F DUP3 ADD AND DUP3 ADD DUP1 PUSH1 0x40 MSTORE POP DUP2 ADD SWAP1 PUSH2 0x9DF SWAP2 SWAP1 PUSH2 0x143B JUMP JUMPDEST SWAP1 POP SWAP2 SWAP1 POP JUMP JUMPDEST PUSH1 0x0 PUSH2 0x9FC PUSH8 0xE52A9C1FB9CD6315 PUSH1 0xC0 SHL PUSH2 0xD22 JUMP JUMPDEST PUSH2 0xA10 PUSH8 0xF172A9DC0422D27C PUSH1 0xC0 SHL PUSH2 0xD22 JUMP JUMPDEST PUSH2 0xA24 PUSH8 0xA75BC0529742D4D1 PUSH1 0xC0 SHL PUSH2 0xD22 JUMP JUMPDEST PUSH1 0x1 PUSH1 0x0 SWAP1 SLOAD SWAP1 PUSH2 0x100 EXP SWAP1 DIV PUSH20 0xFFFFFFFFFFFFFFFFFFFFFFFFFFFFFFFFFFFFFFFF AND PUSH20 0xFFFFFFFFFFFFFFFFFFFFFFFFFFFFFFFFFFFFFFFF AND PUSH4 0x949CDD6E DUP4 PUSH1 0x40 MLOAD DUP3 PUSH4 0xFFFFFFFF AND PUSH1 0xE0 SHL DUP2 MSTORE PUSH1 0x4 ADD PUSH2 0xA7F SWAP2 SWAP1 PUSH2 0x1651 JUMP JUMPDEST PUSH1 0x20 PUSH1 0x40 MLOAD DUP1 DUP4 SUB DUP2 DUP7 DUP1 EXTCODESIZE ISZERO DUP1 ISZERO PUSH2 0xA97 JUMPI PUSH1 0x0 DUP1 REVERT JUMPDEST POP GAS STATICCALL ISZERO DUP1 ISZERO PUSH2 0xAAB JUMPI RETURNDATASIZE PUSH1 0x0 DUP1 RETURNDATACOPY RETURNDATASIZE PUSH1 0x0 REVERT JUMPDEST POP POP POP POP PUSH1 0x40 MLOAD RETURNDATASIZE PUSH1 0x1F NOT PUSH1 0x1F DUP3 ADD AND DUP3 ADD DUP1 PUSH1 0x40 MSTORE POP DUP2 ADD SWAP1 PUSH2 0xACF SWAP2 SWAP1 PUSH2 0x14E6 JUMP JUMPDEST SWAP1 POP SWAP2 SWAP1 POP JUMP JUMPDEST PUSH1 0x0 PUSH1 0x20 MSTORE DUP1 PUSH1 0x0 MSTORE PUSH1 0x40 PUSH1 0x0 KECCAK256 PUSH1 0x0 SWAP2 POP SWAP1 POP DUP1 PUSH1 0x0 ADD SLOAD SWAP1 DUP1 PUSH1 0x1 ADD DUP1 SLOAD PUSH2 0xAFF SWAP1 PUSH2 0x1892 JUMP JUMPDEST DUP1 PUSH1 0x1F ADD PUSH1 0x20 DUP1 SWAP2 DIV MUL PUSH1 0x20 ADD PUSH1 0x40 MLOAD SWAP1 DUP2 ADD PUSH1 0x40 MSTORE DUP1 SWAP3 SWAP2 SWAP1 DUP2 DUP2 MSTORE PUSH1 0x20 ADD DUP3 DUP1 SLOAD PUSH2 0xB2B SWAP1 PUSH2 0x1892 JUMP JUMPDEST DUP1 ISZERO PUSH2 0xB78 JUMPI DUP1 PUSH1 0x1F LT PUSH2 0xB4D JUMPI PUSH2 0x100 DUP1 DUP4 SLOAD DIV MUL DUP4 MSTORE SWAP2 PUSH1 0x20 ADD SWAP2 PUSH2 0xB78 JUMP JUMPDEST DUP3 ADD SWAP2 SWAP1 PUSH1 0x0 MSTORE PUSH1 0x20 PUSH1 0x0 KECCAK256 SWAP1 JUMPDEST DUP2 SLOAD DUP2 MSTORE SWAP1 PUSH1 0x1 ADD SWAP1 PUSH1 0x20 ADD DUP1 DUP4 GT PUSH2 0xB5B JUMPI DUP3 SWAP1 SUB PUSH1 0x1F AND DUP3 ADD SWAP2 JUMPDEST POP POP POP POP POP SWAP1 DUP1 PUSH1 0x2 ADD PUSH1 0x0 SWAP1 SLOAD SWAP1 PUSH2 0x100 EXP SWAP1 DIV PUSH1 0xFF AND SWAP1 DUP1 PUSH1 0x2 ADD PUSH1 0x1 SWAP1 SLOAD SWAP1 PUSH2 0x100 EXP SWAP1 DIV PUSH1 0xFF AND SWAP1 DUP1 PUSH1 0x3 ADD SLOAD SWAP1 POP DUP6 JUMP JUMPDEST PUSH2 0xBB6 PUSH2 0x1258 JUMP JUMPDEST PUSH2 0xBCA PUSH8 0xA05F59D4624295FD PUSH1 0xC0 SHL PUSH2 0x115E JUMP JUMPDEST PUSH2 0xBDE PUSH8 0x69C1A1D6327D6071 PUSH1 0xC0 SHL PUSH2 0x115E JUMP JUMPDEST PUSH2 0xBF2 PUSH8 0xBDAF4779FF83744F PUSH1 0xC0 SHL PUSH2 0x115E JUMP JUMPDEST PUSH1 0x0 DUP1 DUP4 PUSH20 0xFFFFFFFFFFFFFFFFFFFFFFFFFFFFFFFFFFFFFFFF AND PUSH20 0xFFFFFFFFFFFFFFFFFFFFFFFFFFFFFFFFFFFFFFFF AND DUP2 MSTORE PUSH1 0x20 ADD SWAP1 DUP2 MSTORE PUSH1 0x20 ADD PUSH1 0x0 KECCAK256 PUSH1 0x40 MLOAD DUP1 PUSH1 0xA0 ADD PUSH1 0x40 MSTORE SWAP1 DUP2 PUSH1 0x0 DUP3 ADD SLOAD DUP2 MSTORE PUSH1 0x20 ADD PUSH1 0x1 DUP3 ADD DUP1 SLOAD PUSH2 0xC55 SWAP1 PUSH2 0x1892 JUMP JUMPDEST DUP1 PUSH1 0x1F ADD PUSH1 0x20 DUP1 SWAP2 DIV MUL PUSH1 0x20 ADD PUSH1 0x40 MLOAD SWAP1 DUP2 ADD PUSH1 0x40 MSTORE DUP1 SWAP3 SWAP2 SWAP1 DUP2 DUP2 MSTORE PUSH1 0x20 ADD DUP3 DUP1 SLOAD PUSH2 0xC81 SWAP1 PUSH2 0x1892 JUMP JUMPDEST DUP1 ISZERO PUSH2 0xCCE JUMPI DUP1 PUSH1 0x1F LT PUSH2 0xCA3 JUMPI PUSH2 0x100 DUP1 DUP4 SLOAD DIV MUL DUP4 MSTORE SWAP2 PUSH1 0x20 ADD SWAP2 PUSH2 0xCCE JUMP JUMPDEST DUP3 ADD SWAP2 SWAP1 PUSH1 0x0 MSTORE PUSH1 0x20 PUSH1 0x0 KECCAK256 SWAP1 JUMPDEST DUP2 SLOAD DUP2 MSTORE SWAP1 PUSH1 0x1 ADD SWAP1 PUSH1 0x20 ADD DUP1 DUP4 GT PUSH2 0xCB1 JUMPI DUP3 SWAP1 SUB PUSH1 0x1F AND DUP3 ADD SWAP2 JUMPDEST POP POP POP POP POP DUP2 MSTORE PUSH1 0x20 ADD PUSH1 0x2 DUP3 ADD PUSH1 0x0 SWAP1 SLOAD SWAP1 PUSH2 0x100 EXP SWAP1 DIV PUSH1 0xFF AND PUSH1 0xFF AND PUSH1 0xFF AND DUP2 MSTORE PUSH1 0x20 ADD PUSH1 0x2 DUP3 ADD PUSH1 0x1 SWAP1 SLOAD SWAP1 PUSH2 0x100 EXP SWAP1 DIV PUSH1 0xFF AND PUSH1 0xFF AND PUSH1 0xFF AND DUP2 MSTORE PUSH1 0x20 ADD PUSH1 0x3 DUP3 ADD SLOAD DUP2 MSTORE POP POP SWAP1 POP SWAP2 SWAP1 POP JUMP JUMPDEST POP JUMP JUMPDEST PUSH1 0x0 PUSH1 0x1 SWAP1 POP SWAP2 SWAP1 POP JUMP JUMPDEST PUSH1 0x0 PUSH1 0x1 SWAP1 POP SWAP2 SWAP1 POP JUMP JUMPDEST PUSH1 0x0 PUSH2 0xD51 PUSH8 0xE7400F8588B3B9FD PUSH1 0xC0 SHL PUSH2 0x1150 JUMP JUMPDEST PUSH2 0xD65 PUSH8 0x218E4AADC28BAD54 PUSH1 0xC0 SHL PUSH2 0x1150 JUMP JUMPDEST PUSH2 0xD79 PUSH8 0x9E2C5A8A6DB9E64 PUSH1 0xC0 SHL PUSH2 0x1150 JUMP JUMPDEST PUSH1 0x0 DUP1 DUP4 PUSH20 0xFFFFFFFFFFFFFFFFFFFFFFFFFFFFFFFFFFFFFFFF AND PUSH20 0xFFFFFFFFFFFFFFFFFFFFFFFFFFFFFFFFFFFFFFFF AND DUP2 MSTORE PUSH1 0x20 ADD SWAP1 DUP2 MSTORE PUSH1 0x20 ADD PUSH1 0x0 KECCAK256 PUSH1 0x3 ADD SLOAD TIMESTAMP LT PUSH2 0xE6F JUMPI PUSH2 0xDD5 PUSH8 0xA46D03D2C5D0AAE4 PUSH1 0xC0 SHL PUSH2 0x1150 JUMP JUMPDEST PUSH2 0xDE9 PUSH8 0x59E43CA1959C0A4E PUSH1 0xC0 SHL PUSH2 0x1150 JUMP JUMPDEST PUSH2 0xDFD PUSH8 0xC0882176D22F1944 PUSH1 0xC0 SHL PUSH2 0x1150 JUMP JUMPDEST PUSH1 0x40 MLOAD DUP1 PUSH1 0x40 ADD PUSH1 0x40 MSTORE DUP1 PUSH1 0x3 DUP2 MSTORE PUSH1 0x20 ADD PUSH32 0x3130330000000000000000000000000000000000000000000000000000000000 DUP2 MSTORE POP PUSH1 0x40 MLOAD PUSH32 0x8C379A000000000000000000000000000000000000000000000000000000000 DUP2 MSTORE PUSH1 0x4 ADD PUSH2 0xE66 SWAP2 SWAP1 PUSH2 0x1687 JUMP JUMPDEST PUSH1 0x40 MLOAD DUP1 SWAP2 SUB SWAP1 REVERT JUMPDEST PUSH2 0xE83 PUSH8 0x19C99830B5B46540 PUSH1 0xC0 SHL PUSH2 0x1150 JUMP JUMPDEST PUSH2 0xE97 PUSH8 0x92805F3A7478451B PUSH1 0xC0 SHL PUSH2 0x1150 JUMP JUMPDEST PUSH2 0xEAB PUSH8 0x46C027269FFAD2A7 PUSH1 0xC0 SHL PUSH2 0x1150 JUMP JUMPDEST PUSH1 0x0 DUP1 DUP4 PUSH20 0xFFFFFFFFFFFFFFFFFFFFFFFFFFFFFFFFFFFFFFFF AND PUSH20 0xFFFFFFFFFFFFFFFFFFFFFFFFFFFFFFFFFFFFFFFF AND DUP2 MSTORE PUSH1 0x20 ADD SWAP1 DUP2 MSTORE PUSH1 0x20 ADD PUSH1 0x0 KECCAK256 PUSH1 0x2 ADD PUSH1 0x1 SWAP1 SLOAD SWAP1 PUSH2 0x100 EXP SWAP1 DIV PUSH1 0xFF AND SWAP1 POP SWAP2 SWAP1 POP JUMP JUMPDEST PUSH1 0x60 PUSH2 0xF17 PUSH8 0x798AA39337352C8C PUSH1 0xC0 SHL PUSH2 0x1150 JUMP JUMPDEST PUSH2 0xF2B PUSH8 0xDAB4F449D5DE2F6F PUSH1 0xC0 SHL PUSH2 0x1150 JUMP JUMPDEST PUSH2 0xF3F PUSH8 0x70D4D7382D2A9816 PUSH1 0xC0 SHL PUSH2 0x1150 JUMP JUMPDEST PUSH1 0x0 DUP1 DUP4 PUSH20 0xFFFFFFFFFFFFFFFFFFFFFFFFFFFFFFFFFFFFFFFF AND PUSH20 0xFFFFFFFFFFFFFFFFFFFFFFFFFFFFFFFFFFFFFFFF AND DUP2 MSTORE PUSH1 0x20 ADD SWAP1 DUP2 MSTORE PUSH1 0x20 ADD PUSH1 0x0 KECCAK256 PUSH1 0x3 ADD SLOAD TIMESTAMP LT PUSH2 0x1035 JUMPI PUSH2 0xF9B PUSH8 0xC5C834AFAAE4A7D1 PUSH1 0xC0 SHL PUSH2 0x1150 JUMP JUMPDEST PUSH2 0xFAF PUSH8 0x282DD2059D86991C PUSH1 0xC0 SHL PUSH2 0x1150 JUMP JUMPDEST PUSH2 0xFC3 PUSH8 0xBC73E24E23818FEC PUSH1 0xC0 SHL PUSH2 0x1150 JUMP JUMPDEST PUSH1 0x40 MLOAD DUP1 PUSH1 0x40 ADD PUSH1 0x40 MSTORE DUP1 PUSH1 0x3 DUP2 MSTORE PUSH1 0x20 ADD PUSH32 0x3130330000000000000000000000000000000000000000000000000000000000 DUP2 MSTORE POP PUSH1 0x40 MLOAD PUSH32 0x8C379A000000000000000000000000000000000000000000000000000000000 DUP2 MSTORE PUSH1 0x4 ADD PUSH2 0x102C SWAP2 SWAP1 PUSH2 0x1687 JUMP JUMPDEST PUSH1 0x40 MLOAD DUP1 SWAP2 SUB SWAP1 REVERT JUMPDEST PUSH2 0x1049 PUSH8 0x3AFBFF51046F6DC9 PUSH1 0xC0 SHL PUSH2 0x1150 JUMP JUMPDEST PUSH2 0x105D PUSH8 0xDC0C995E8C89436C PUSH1 0xC0 SHL PUSH2 0x1150 JUMP JUMPDEST PUSH2 0x1071 PUSH8 0xC8C8CE89CAB65BB2 PUSH1 0xC0 SHL PUSH2 0x1150 JUMP JUMPDEST PUSH1 0x0 DUP1 DUP4 PUSH20 0xFFFFFFFFFFFFFFFFFFFFFFFFFFFFFFFFFFFFFFFF AND PUSH20 0xFFFFFFFFFFFFFFFFFFFFFFFFFFFFFFFFFFFFFFFF AND DUP2 MSTORE PUSH1 0x20 ADD SWAP1 DUP2 MSTORE PUSH1 0x20 ADD PUSH1 0x0 KECCAK256 PUSH1 0x1 ADD DUP1 SLOAD PUSH2 0x10BD SWAP1 PUSH2 0x1892 JUMP JUMPDEST DUP1 PUSH1 0x1F ADD PUSH1 0x20 DUP1 SWAP2 DIV MUL PUSH1 0x20 ADD PUSH1 0x40 MLOAD SWAP1 DUP2 ADD PUSH1 0x40 MSTORE DUP1 SWAP3 SWAP2 SWAP1 DUP2 DUP2 MSTORE PUSH1 0x20 ADD DUP3 DUP1 SLOAD PUSH2 0x10E9 SWAP1 PUSH2 0x1892 JUMP JUMPDEST DUP1 ISZERO PUSH2 0x1136 JUMPI DUP1 PUSH1 0x1F LT PUSH2 0x110B JUMPI PUSH2 0x100 DUP1 DUP4 SLOAD DIV MUL DUP4 MSTORE SWAP2 PUSH1 0x20 ADD SWAP2 PUSH2 0x1136 JUMP JUMPDEST DUP3 ADD SWAP2 SWAP1 PUSH1 0x0 MSTORE PUSH1 0x20 PUSH1 0x0 KECCAK256 SWAP1 JUMPDEST DUP2 SLOAD DUP2 MSTORE SWAP1 PUSH1 0x1 ADD SWAP1 PUSH1 0x20 ADD DUP1 DUP4 GT PUSH2 0x1119 JUMPI DUP3 SWAP1 SUB PUSH1 0x1F AND DUP3 ADD SWAP2 JUMPDEST POP POP POP POP POP SWAP1 POP SWAP2 SWAP1 POP JUMP JUMPDEST PUSH1 0x0 SWAP2 SWAP1 POP JUMP JUMPDEST PUSH1 0x0 SWAP2 SWAP1 POP JUMP JUMPDEST POP JUMP JUMPDEST PUSH1 0x0 PUSH1 0x1 SWAP1 POP SWAP2 SWAP1 POP JUMP JUMPDEST POP JUMP JUMPDEST PUSH1 0x0 SWAP2 SWAP1 POP JUMP JUMPDEST PUSH1 0x0 PUSH2 0x117E PUSH8 0xF88F2A0DCB65C1C PUSH1 0xC0 SHL PUSH2 0xD22 JUMP JUMPDEST PUSH2 0x1192 PUSH8 0xB8603FACB6A4A5D3 PUSH1 0xC0 SHL PUSH2 0xD22 JUMP JUMPDEST PUSH2 0x11A6 PUSH8 0xC7EA2E9D9CDC4FED PUSH1 0xC0 SHL PUSH2 0xD22 JUMP JUMPDEST PUSH1 0x1 PUSH1 0x0 SWAP1 SLOAD SWAP1 PUSH2 0x100 EXP SWAP1 DIV PUSH20 0xFFFFFFFFFFFFFFFFFFFFFFFFFFFFFFFFFFFFFFFF AND PUSH20 0xFFFFFFFFFFFFFFFFFFFFFFFFFFFFFFFFFFFFFFFF AND PUSH4 0x9299EA3 DUP4 PUSH1 0x40 MLOAD DUP3 PUSH4 0xFFFFFFFF AND PUSH1 0xE0 SHL DUP2 MSTORE PUSH1 0x4 ADD PUSH2 0x1201 SWAP2 SWAP1 PUSH2 0x1651 JUMP JUMPDEST PUSH1 0x20 PUSH1 0x40 MLOAD DUP1 DUP4 SUB DUP2 DUP7 DUP1 EXTCODESIZE ISZERO DUP1 ISZERO PUSH2 0x1219 JUMPI PUSH1 0x0 DUP1 REVERT JUMPDEST POP GAS STATICCALL ISZERO DUP1 ISZERO PUSH2 0x122D JUMPI RETURNDATASIZE PUSH1 0x0 DUP1 RETURNDATACOPY RETURNDATASIZE PUSH1 0x0 REVERT JUMPDEST POP POP POP POP PUSH1 0x40 MLOAD RETURNDATASIZE PUSH1 0x1F NOT PUSH1 0x1F DUP3 ADD AND DUP3 ADD DUP1 PUSH1 0x40 MSTORE POP DUP2 ADD SWAP1 PUSH2 0x1251 SWAP2 SWAP1 PUSH2 0x14BD JUMP JUMPDEST SWAP1 POP SWAP2 SWAP1 POP JUMP JUMPDEST PUSH1 0x40 MLOAD DUP1 PUSH1 0xA0 ADD PUSH1 0x40 MSTORE DUP1 PUSH1 0x0 DUP2 MSTORE PUSH1 0x20 ADD PUSH1 0x60 DUP2 MSTORE PUSH1 0x20 ADD PUSH1 0x0 PUSH1 0xFF AND DUP2 MSTORE PUSH1 0x20 ADD PUSH1 0x0 PUSH1 0xFF AND DUP2 MSTORE PUSH1 0x20 ADD PUSH1 0x0 DUP2 MSTORE POP SWAP1 JUMP JUMPDEST PUSH1 0x0 PUSH2 0x12A0 PUSH2 0x129B DUP5 PUSH2 0x1780 JUMP JUMPDEST PUSH2 0x175B JUMP JUMPDEST SWAP1 POP DUP3 DUP2 MSTORE PUSH1 0x20 DUP2 ADD DUP5 DUP5 DUP5 ADD GT ISZERO PUSH2 0x12B8 JUMPI PUSH1 0x0 DUP1 REVERT JUMPDEST PUSH2 0x12C3 DUP5 DUP3 DUP6 PUSH2 0x185F JUMP JUMPDEST POP SWAP4 SWAP3 POP POP POP JUMP JUMPDEST PUSH1 0x0 DUP2 CALLDATALOAD SWAP1 POP PUSH2 0x12DA DUP2 PUSH2 0x1964 JUMP JUMPDEST SWAP3 SWAP2 POP POP JUMP JUMPDEST PUSH1 0x0 DUP2 CALLDATALOAD SWAP1 POP PUSH2 0x12EF DUP2 PUSH2 0x197B JUMP JUMPDEST SWAP3 SWAP2 POP POP JUMP JUMPDEST PUSH1 0x0 DUP3 PUSH1 0x1F DUP4 ADD SLT PUSH2 0x1306 JUMPI PUSH1 0x0 DUP1 REVERT JUMPDEST DUP2 MLOAD PUSH2 0x1316 DUP5 DUP3 PUSH1 0x20 DUP7 ADD PUSH2 0x128D JUMP JUMPDEST SWAP2 POP POP SWAP3 SWAP2 POP POP JUMP JUMPDEST PUSH1 0x0 PUSH1 0xA0 DUP3 DUP5 SUB SLT ISZERO PUSH2 0x1331 JUMPI PUSH1 0x0 DUP1 REVERT JUMPDEST PUSH2 0x133B PUSH1 0xA0 PUSH2 0x175B JUMP JUMPDEST SWAP1 POP PUSH1 0x0 PUSH2 0x134B DUP5 DUP3 DUP6 ADD PUSH2 0x13BF JUMP JUMPDEST PUSH1 0x0 DUP4 ADD MSTORE POP PUSH1 0x20 DUP3 ADD MLOAD PUSH8 0xFFFFFFFFFFFFFFFF DUP2 GT ISZERO PUSH2 0x136B JUMPI PUSH1 0x0 DUP1 REVERT JUMPDEST PUSH2 0x1377 DUP5 DUP3 DUP6 ADD PUSH2 0x12F5 JUMP JUMPDEST PUSH1 0x20 DUP4 ADD MSTORE POP PUSH1 0x40 PUSH2 0x138B DUP5 DUP3 DUP6 ADD PUSH2 0x13D4 JUMP JUMPDEST PUSH1 0x40 DUP4 ADD MSTORE POP PUSH1 0x60 PUSH2 0x139F DUP5 DUP3 DUP6 ADD PUSH2 0x13D4 JUMP JUMPDEST PUSH1 0x60 DUP4 ADD MSTORE POP PUSH1 0x80 PUSH2 0x13B3 DUP5 DUP3 DUP6 ADD PUSH2 0x13BF JUMP JUMPDEST PUSH1 0x80 DUP4 ADD MSTORE POP SWAP3 SWAP2 POP POP JUMP JUMPDEST PUSH1 0x0 DUP2 MLOAD SWAP1 POP PUSH2 0x13CE DUP2 PUSH2 0x1992 JUMP JUMPDEST SWAP3 SWAP2 POP POP JUMP JUMPDEST PUSH1 0x0 DUP2 MLOAD SWAP1 POP PUSH2 0x13E3 DUP2 PUSH2 0x19A9 JUMP JUMPDEST SWAP3 SWAP2 POP POP JUMP JUMPDEST PUSH1 0x0 PUSH1 0x20 DUP3 DUP5 SUB SLT ISZERO PUSH2 0x13FB JUMPI PUSH1 0x0 DUP1 REVERT JUMPDEST PUSH1 0x0 PUSH2 0x1409 DUP5 DUP3 DUP6 ADD PUSH2 0x12CB JUMP JUMPDEST SWAP2 POP POP SWAP3 SWAP2 POP POP JUMP JUMPDEST PUSH1 0x0 PUSH1 0x20 DUP3 DUP5 SUB SLT ISZERO PUSH2 0x1424 JUMPI PUSH1 0x0 DUP1 REVERT JUMPDEST PUSH1 0x0 PUSH2 0x1432 DUP5 DUP3 DUP6 ADD PUSH2 0x12E0 JUMP JUMPDEST SWAP2 POP POP SWAP3 SWAP2 POP POP JUMP JUMPDEST PUSH1 0x0 PUSH1 0x20 DUP3 DUP5 SUB SLT ISZERO PUSH2 0x144D JUMPI PUSH1 0x0 DUP1 REVERT JUMPDEST PUSH1 0x0 DUP3 ADD MLOAD PUSH8 0xFFFFFFFFFFFFFFFF DUP2 GT ISZERO PUSH2 0x1467 JUMPI PUSH1 0x0 DUP1 REVERT JUMPDEST PUSH2 0x1473 DUP5 DUP3 DUP6 ADD PUSH2 0x12F5 JUMP JUMPDEST SWAP2 POP POP SWAP3 SWAP2 POP POP JUMP JUMPDEST PUSH1 0x0 PUSH1 0x20 DUP3 DUP5 SUB SLT ISZERO PUSH2 0x148E JUMPI PUSH1 0x0 DUP1 REVERT JUMPDEST PUSH1 0x0 DUP3 ADD MLOAD PUSH8 0xFFFFFFFFFFFFFFFF DUP2 GT ISZERO PUSH2 0x14A8 JUMPI PUSH1 0x0 DUP1 REVERT JUMPDEST PUSH2 0x14B4 DUP5 DUP3 DUP6 ADD PUSH2 0x131F JUMP JUMPDEST SWAP2 POP POP SWAP3 SWAP2 POP POP JUMP JUMPDEST PUSH1 0x0 PUSH1 0x20 DUP3 DUP5 SUB SLT ISZERO PUSH2 0x14CF JUMPI PUSH1 0x0 DUP1 REVERT JUMPDEST PUSH1 0x0 PUSH2 0x14DD DUP5 DUP3 DUP6 ADD PUSH2 0x13BF JUMP JUMPDEST SWAP2 POP POP SWAP3 SWAP2 POP POP JUMP JUMPDEST PUSH1 0x0 PUSH1 0x20 DUP3 DUP5 SUB SLT ISZERO PUSH2 0x14F8 JUMPI PUSH1 0x0 DUP1 REVERT JUMPDEST PUSH1 0x0 PUSH2 0x1506 DUP5 DUP3 DUP6 ADD PUSH2 0x13D4 JUMP JUMPDEST SWAP2 POP POP SWAP3 SWAP2 POP POP JUMP JUMPDEST PUSH2 0x1518 DUP2 PUSH2 0x17DE JUMP JUMPDEST DUP3 MSTORE POP POP JUMP JUMPDEST PUSH2 0x1527 DUP2 PUSH2 0x17F0 JUMP JUMPDEST DUP3 MSTORE POP POP JUMP JUMPDEST PUSH1 0x0 PUSH2 0x1538 DUP3 PUSH2 0x17B1 JUMP JUMPDEST PUSH2 0x1542 DUP2 DUP6 PUSH2 0x17BC JUMP JUMPDEST SWAP4 POP PUSH2 0x1552 DUP2 DUP6 PUSH1 0x20 DUP7 ADD PUSH2 0x185F JUMP JUMPDEST PUSH2 0x155B DUP2 PUSH2 0x1953 JUMP JUMPDEST DUP5 ADD SWAP2 POP POP SWAP3 SWAP2 POP POP JUMP JUMPDEST PUSH1 0x0 PUSH2 0x1571 DUP3 PUSH2 0x17B1 JUMP JUMPDEST PUSH2 0x157B DUP2 DUP6 PUSH2 0x17CD JUMP JUMPDEST SWAP4 POP PUSH2 0x158B DUP2 DUP6 PUSH1 0x20 DUP7 ADD PUSH2 0x185F JUMP JUMPDEST PUSH2 0x1594 DUP2 PUSH2 0x1953 JUMP JUMPDEST DUP5 ADD SWAP2 POP POP SWAP3 SWAP2 POP POP JUMP JUMPDEST PUSH1 0x0 PUSH1 0xA0 DUP4 ADD PUSH1 0x0 DUP4 ADD MLOAD PUSH2 0x15B7 PUSH1 0x0 DUP7 ADD DUP3 PUSH2 0x1615 JUMP JUMPDEST POP PUSH1 0x20 DUP4 ADD MLOAD DUP5 DUP3 SUB PUSH1 0x20 DUP7 ADD MSTORE PUSH2 0x15CF DUP3 DUP3 PUSH2 0x152D JUMP JUMPDEST SWAP2 POP POP PUSH1 0x40 DUP4 ADD MLOAD PUSH2 0x15E4 PUSH1 0x40 DUP7 ADD DUP3 PUSH2 0x1633 JUMP JUMPDEST POP PUSH1 0x60 DUP4 ADD MLOAD PUSH2 0x15F7 PUSH1 0x60 DUP7 ADD DUP3 PUSH2 0x1633 JUMP JUMPDEST POP PUSH1 0x80 DUP4 ADD MLOAD PUSH2 0x160A PUSH1 0x80 DUP7 ADD DUP3 PUSH2 0x1615 JUMP JUMPDEST POP DUP1 SWAP2 POP POP SWAP3 SWAP2 POP POP JUMP JUMPDEST PUSH2 0x161E DUP2 PUSH2 0x1848 JUMP JUMPDEST DUP3 MSTORE POP POP JUMP JUMPDEST PUSH2 0x162D DUP2 PUSH2 0x1848 JUMP JUMPDEST DUP3 MSTORE POP POP JUMP JUMPDEST PUSH2 0x163C DUP2 PUSH2 0x1852 JUMP JUMPDEST DUP3 MSTORE POP POP JUMP JUMPDEST PUSH2 0x164B DUP2 PUSH2 0x1852 JUMP JUMPDEST DUP3 MSTORE POP POP JUMP JUMPDEST PUSH1 0x0 PUSH1 0x20 DUP3 ADD SWAP1 POP PUSH2 0x1666 PUSH1 0x0 DUP4 ADD DUP5 PUSH2 0x150F JUMP JUMPDEST SWAP3 SWAP2 POP POP JUMP JUMPDEST PUSH1 0x0 PUSH1 0x20 DUP3 ADD SWAP1 POP PUSH2 0x1681 PUSH1 0x0 DUP4 ADD DUP5 PUSH2 0x151E JUMP JUMPDEST SWAP3 SWAP2 POP POP JUMP JUMPDEST PUSH1 0x0 PUSH1 0x20 DUP3 ADD SWAP1 POP DUP2 DUP2 SUB PUSH1 0x0 DUP4 ADD MSTORE PUSH2 0x16A1 DUP2 DUP5 PUSH2 0x1566 JUMP JUMPDEST SWAP1 POP SWAP3 SWAP2 POP POP JUMP JUMPDEST PUSH1 0x0 PUSH1 0x20 DUP3 ADD SWAP1 POP DUP2 DUP2 SUB PUSH1 0x0 DUP4 ADD MSTORE PUSH2 0x16C3 DUP2 DUP5 PUSH2 0x159F JUMP JUMPDEST SWAP1 POP SWAP3 SWAP2 POP POP JUMP JUMPDEST PUSH1 0x0 PUSH1 0x20 DUP3 ADD SWAP1 POP PUSH2 0x16E0 PUSH1 0x0 DUP4 ADD DUP5 PUSH2 0x1624 JUMP JUMPDEST SWAP3 SWAP2 POP POP JUMP JUMPDEST PUSH1 0x0 PUSH1 0xA0 DUP3 ADD SWAP1 POP PUSH2 0x16FB PUSH1 0x0 DUP4 ADD DUP9 PUSH2 0x1624 JUMP JUMPDEST DUP2 DUP2 SUB PUSH1 0x20 DUP4 ADD MSTORE PUSH2 0x170D DUP2 DUP8 PUSH2 0x1566 JUMP JUMPDEST SWAP1 POP PUSH2 0x171C PUSH1 0x40 DUP4 ADD DUP7 PUSH2 0x1642 JUMP JUMPDEST PUSH2 0x1729 PUSH1 0x60 DUP4 ADD DUP6 PUSH2 0x1642 JUMP JUMPDEST PUSH2 0x1736 PUSH1 0x80 DUP4 ADD DUP5 PUSH2 0x1624 JUMP JUMPDEST SWAP7 SWAP6 POP POP POP POP POP POP JUMP JUMPDEST PUSH1 0x0 PUSH1 0x20 DUP3 ADD SWAP1 POP PUSH2 0x1755 PUSH1 0x0 DUP4 ADD DUP5 PUSH2 0x1642 JUMP JUMPDEST SWAP3 SWAP2 POP POP JUMP JUMPDEST PUSH1 0x0 PUSH2 0x1765 PUSH2 0x1776 JUMP JUMPDEST SWAP1 POP PUSH2 0x1771 DUP3 DUP3 PUSH2 0x18C4 JUMP JUMPDEST SWAP2 SWAP1 POP JUMP JUMPDEST PUSH1 0x0 PUSH1 0x40 MLOAD SWAP1 POP SWAP1 JUMP JUMPDEST PUSH1 0x0 PUSH8 0xFFFFFFFFFFFFFFFF DUP3 GT ISZERO PUSH2 0x179B JUMPI PUSH2 0x179A PUSH2 0x1924 JUMP JUMPDEST JUMPDEST PUSH2 0x17A4 DUP3 PUSH2 0x1953 JUMP JUMPDEST SWAP1 POP PUSH1 0x20 DUP2 ADD SWAP1 POP SWAP2 SWAP1 POP JUMP JUMPDEST PUSH1 0x0 DUP2 MLOAD SWAP1 POP SWAP2 SWAP1 POP JUMP JUMPDEST PUSH1 0x0 DUP3 DUP3 MSTORE PUSH1 0x20 DUP3 ADD SWAP1 POP SWAP3 SWAP2 POP POP JUMP JUMPDEST PUSH1 0x0 DUP3 DUP3 MSTORE PUSH1 0x20 DUP3 ADD SWAP1 POP SWAP3 SWAP2 POP POP JUMP JUMPDEST PUSH1 0x0 PUSH2 0x17E9 DUP3 PUSH2 0x1828 JUMP JUMPDEST SWAP1 POP SWAP2 SWAP1 POP JUMP JUMPDEST PUSH1 0x0 DUP2 ISZERO ISZERO SWAP1 POP SWAP2 SWAP1 POP JUMP JUMPDEST PUSH1 0x0 PUSH32 0xFFFFFFFFFFFFFFFF000000000000000000000000000000000000000000000000 DUP3 AND SWAP1 POP SWAP2 SWAP1 POP JUMP JUMPDEST PUSH1 0x0 PUSH20 0xFFFFFFFFFFFFFFFFFFFFFFFFFFFFFFFFFFFFFFFF DUP3 AND SWAP1 POP SWAP2 SWAP1 POP JUMP JUMPDEST PUSH1 0x0 DUP2 SWAP1 POP SWAP2 SWAP1 POP JUMP JUMPDEST PUSH1 0x0 PUSH1 0xFF DUP3 AND SWAP1 POP SWAP2 SWAP1 POP JUMP JUMPDEST PUSH1 0x0 JUMPDEST DUP4 DUP2 LT ISZERO PUSH2 0x187D JUMPI DUP1 DUP3 ADD MLOAD DUP2 DUP5 ADD MSTORE PUSH1 0x20 DUP2 ADD SWAP1 POP PUSH2 0x1862 JUMP JUMPDEST DUP4 DUP2 GT ISZERO PUSH2 0x188C JUMPI PUSH1 0x0 DUP5 DUP5 ADD MSTORE JUMPDEST POP POP POP POP JUMP JUMPDEST PUSH1 0x0 PUSH1 0x2 DUP3 DIV SWAP1 POP PUSH1 0x1 DUP3 AND DUP1 PUSH2 0x18AA JUMPI PUSH1 0x7F DUP3 AND SWAP2 POP JUMPDEST PUSH1 0x20 DUP3 LT DUP2 EQ ISZERO PUSH2 0x18BE JUMPI PUSH2 0x18BD PUSH2 0x18F5 JUMP JUMPDEST JUMPDEST POP SWAP2 SWAP1 POP JUMP JUMPDEST PUSH2 0x18CD DUP3 PUSH2 0x1953 JUMP JUMPDEST DUP2 ADD DUP2 DUP2 LT PUSH8 0xFFFFFFFFFFFFFFFF DUP3 GT OR ISZERO PUSH2 0x18EC JUMPI PUSH2 0x18EB PUSH2 0x1924 JUMP JUMPDEST JUMPDEST DUP1 PUSH1 0x40 MSTORE POP POP POP JUMP JUMPDEST PUSH32 0x4E487B7100000000000000000000000000000000000000000000000000000000 PUSH1 0x0 MSTORE PUSH1 0x22 PUSH1 0x4 MSTORE PUSH1 0x24 PUSH1 0x0 REVERT JUMPDEST PUSH32 0x4E487B7100000000000000000000000000000000000000000000000000000000 PUSH1 0x0 MSTORE PUSH1 0x41 PUSH1 0x4 MSTORE PUSH1 0x24 PUSH1 0x0 REVERT JUMPDEST PUSH1 0x0 PUSH1 0x1F NOT PUSH1 0x1F DUP4 ADD AND SWAP1 POP SWAP2 SWAP1 POP JUMP JUMPDEST PUSH2 0x196D DUP2 PUSH2 0x17DE JUMP JUMPDEST DUP2 EQ PUSH2 0x1978 JUMPI PUSH1 0x0 DUP1 REVERT JUMPDEST POP JUMP JUMPDEST PUSH2 0x1984 DUP2 PUSH2 0x17FC JUMP JUMPDEST DUP2 EQ PUSH2 0x198F JUMPI PUSH1 0x0 DUP1 REVERT JUMPDEST POP JUMP JUMPDEST PUSH2 0x199B DUP2 PUSH2 0x1848 JUMP JUMPDEST DUP2 EQ PUSH2 0x19A6 JUMPI PUSH1 0x0 DUP1 REVERT JUMPDEST POP JUMP JUMPDEST PUSH2 0x19B2 DUP2 PUSH2 0x1852 JUMP JUMPDEST DUP2 EQ PUSH2 0x19BD JUMPI PUSH1 0x0 DUP1 REVERT JUMPDEST POP JUMP INVALID LOG2 PUSH5 0x6970667358 0x22 SLT KECCAK256 0xF 0xC7 SELFBALANCE 0x27 CODECOPY PUSH17 0xB92B86468817E03B8F91E8DBB39CC1EA21 0xF7 TIMESTAMP 0xD0 0xE7 SLOAD ADD PUSH16 0xC9EB64736F6C63430008020033000000 "},"methodIdentifiers":{"c_39e378f6(bytes8)":"dd9e9392","c_b1e09423(bytes8)":"7bdd2874","c_b8c9e965(bytes8)":"ec4d57b3","c_false39e378f6(bytes8)":"c8755ecf","c_falseb1e09423(bytes8)":"bc5c908f","c_falseb8c9e965(bytes8)":"ec895731","c_true39e378f6(bytes8)":"89254975","c_trueb1e09423(bytes8)":"819d1a04","c_trueb8c9e965(bytes8)":"dee4c709","getUserAccountCountryCodePreventOnExpiry(address)":"96257e4d","getUserAccountExpiry(address)":"09299ea3","getUserAccountIdentityBlob(address)":"6ca5fde8","getUserAccountLevelPreventOnExpiry(address)":"949cdd6e","getUserAccountTypePreventOnExpiry(address)":"1fe0094a","getUserCountryCodePreventOnExpiry(address)":"6020c7be","getUserExpiry(address)":"eee84487","getUserIdentityData(address)":"2deb044a","getUserLevelPreventOnExpiry(address)":"60f9f45b","getUserTypePreventOnExpiry(address)":"19af90da","identityBlob(address)":"688ea9fe"}},"storageLayout":{"storage":[{"astId":4714,"contract":"contracts/VerifiableIdentityPreventsOnExpiry.sol:VerifiableIdentityPreventsOnExpiry","label":"identityBlob","offset":0,"slot":"0","type":"t_mapping(t_address,t_struct(IdentityBlob)4725_storage)"},{"astId":5373,"contract":"contracts/VerifiableIdentityPreventsOnExpiry.sol:VerifiableIdentityPreventsOnExpiry","label":"VERIFIABLE_IDENTITY_PREVENT_ON_EXPIRY","offset":0,"slot":"1","type":"t_contract(UserInformationPreventsOnExpiry)5126"}],"types":{"t_address":{"encoding":"inplace","label":"address","numberOfBytes":"20"},"t_contract(UserInformationPreventsOnExpiry)5126":{"encoding":"inplace","label":"contract UserInformationPreventsOnExpiry","numberOfBytes":"20"},"t_mapping(t_address,t_struct(IdentityBlob)4725_storage)":{"encoding":"mapping","key":"t_address","label":"mapping(address => struct RoleVerification.IdentityBlob)","numberOfBytes":"32","value":"t_struct(IdentityBlob)4725_storage"},"t_string_storage":{"encoding":"bytes","label":"string","numberOfBytes":"32"},"t_struct(IdentityBlob)4725_storage":{"encoding":"inplace","label":"struct RoleVerification.IdentityBlob","members":[{"astId":4716,"contract":"contracts/VerifiableIdentityPreventsOnExpiry.sol:VerifiableIdentityPreventsOnExpiry","label":"tokenId","offset":0,"slot":"0","type":"t_uint256"},{"astId":4718,"contract":"contracts/VerifiableIdentityPreventsOnExpiry.sol:VerifiableIdentityPreventsOnExpiry","label":"countryCode","offset":0,"slot":"1","type":"t_string_storage"},{"astId":4720,"contract":"contracts/VerifiableIdentityPreventsOnExpiry.sol:VerifiableIdentityPreventsOnExpiry","label":"userType","offset":0,"slot":"2","type":"t_uint8"},{"astId":4722,"contract":"contracts/VerifiableIdentityPreventsOnExpiry.sol:VerifiableIdentityPreventsOnExpiry","label":"level","offset":1,"slot":"2","type":"t_uint8"},{"astId":4724,"contract":"contracts/VerifiableIdentityPreventsOnExpiry.sol:VerifiableIdentityPreventsOnExpiry","label":"expiry","offset":0,"slot":"3","type":"t_uint256"}],"numberOfBytes":"128"},"t_uint256":{"encoding":"inplace","label":"uint256","numberOfBytes":"32"},"t_uint8":{"encoding":"inplace","label":"uint8","numberOfBytes":"1"}}}}}}