{"contracts/Errors.sol":{"Errors":{"abi":[{"inputs":[],"name":"ID_DOES_NOT_EXIST","outputs":[{"internalType":"string","name":"","type":"string"}],"stateMutability":"view","type":"function"},{"inputs":[],"name":"ID_INVALID_EXPIRED","outputs":[{"internalType":"string","name":"","type":"string"}],"stateMutability":"view","type":"function"},{"inputs":[],"name":"ID_NOT_TRANSFERABLE","outputs":[{"internalType":"string","name":"","type":"string"}],"stateMutability":"view","type":"function"},{"inputs":[],"name":"INVALID_TOKEN_ID","outputs":[{"internalType":"string","name":"","type":"string"}],"stateMutability":"view","type":"function"},{"inputs":[],"name":"NOT_VALID_PROVER","outputs":[{"internalType":"string","name":"","type":"string"}],"stateMutability":"view","type":"function"},{"inputs":[],"name":"PREVIOUSLY_VERIFIED","outputs":[{"internalType":"string","name":"","type":"string"}],"stateMutability":"view","type":"function"},{"inputs":[],"name":"TOKEN_ID_ALREADY_EXISTS","outputs":[{"internalType":"string","name":"","type":"string"}],"stateMutability":"view","type":"function"},{"inputs":[],"name":"ZERO_ADDRESS_NOT_VALID_ARGUMENT","outputs":[{"internalType":"string","name":"","type":"string"}],"stateMutability":"view","type":"function"},{"inputs":[{"internalType":"bytes8","name":"c__2d64bcc3","type":"bytes8"}],"name":"c_2d64bcc3","outputs":[],"stateMutability":"pure","type":"function"},{"inputs":[{"internalType":"bytes8","name":"c__2d64bcc3","type":"bytes8"}],"name":"c_false2d64bcc3","outputs":[{"internalType":"bool","name":"","type":"bool"}],"stateMutability":"pure","type":"function"},{"inputs":[{"internalType":"bytes8","name":"c__2d64bcc3","type":"bytes8"}],"name":"c_true2d64bcc3","outputs":[{"internalType":"bool","name":"","type":"bool"}],"stateMutability":"pure","type":"function"}],"evm":{"bytecode":{"linkReferences":{},"object":"6105a9610053600b82828239805160001a607314610046577f4e487b7100000000000000000000000000000000000000000000000000000000600052600060045260246000fd5b30600052607381538281f3fe73000000000000000000000000000000000000000030146080604052600436106100b35760003560e01c80633ee6341f1161007b5780633ee6341f1461015e578063b49aa3b51461017c578063bbfb81b71461019a578063cd6ccc6e146101b8578063f86a0281146101d6578063fe58db1414610206576100b3565b806308a0293e146100b85780631b308297146100d65780631dc140ea146100f2578063231b28de1461012257806339459c8b14610140575b600080fd5b6100c0610224565b6040516100cd91906104a2565b60405180910390f35b6100f060048036038101906100eb9190610416565b61025d565b005b61010c60048036038101906101079190610416565b610260565b6040516101199190610487565b60405180910390f35b61012a61026b565b60405161013791906104a2565b60405180910390f35b6101486102a4565b60405161015591906104a2565b60405180910390f35b6101666102dd565b60405161017391906104a2565b60405180910390f35b610184610316565b60405161019191906104a2565b60405180910390f35b6101a261034f565b6040516101af91906104a2565b60405180910390f35b6101c0610388565b6040516101cd91906104a2565b60405180910390f35b6101f060048036038101906101eb9190610416565b6103c1565b6040516101fd9190610487565b60405180910390f35b61020e6103c8565b60405161021b91906104a2565b60405180910390f35b6040518060400160405280600381526020017f313035000000000000000000000000000000000000000000000000000000000081525081565b50565b600060019050919050565b6040518060400160405280600381526020017f313033000000000000000000000000000000000000000000000000000000000081525081565b6040518060400160405280600381526020017f313030000000000000000000000000000000000000000000000000000000000081525081565b6040518060400160405280600381526020017f313037000000000000000000000000000000000000000000000000000000000081525081565b6040518060400160405280600381526020017f313036000000000000000000000000000000000000000000000000000000000081525081565b6040518060400160405280600381526020017f313031000000000000000000000000000000000000000000000000000000000081525081565b6040518060400160405280600381526020017f313032000000000000000000000000000000000000000000000000000000000081525081565b6000919050565b6040518060400160405280600381526020017f313034000000000000000000000000000000000000000000000000000000000081525081565b6000813590506104108161055c565b92915050565b60006020828403121561042857600080fd5b600061043684828501610401565b91505092915050565b610448816104e0565b82525050565b6000610459826104c4565b61046381856104cf565b9350610473818560208601610518565b61047c8161054b565b840191505092915050565b600060208201905061049c600083018461043f565b92915050565b600060208201905081810360008301526104bc818461044e565b905092915050565b600081519050919050565b600082825260208201905092915050565b60008115159050919050565b60007fffffffffffffffff00000000000000000000000000000000000000000000000082169050919050565b60005b8381101561053657808201518184015260208101905061051b565b83811115610545576000848401525b50505050565b6000601f19601f8301169050919050565b610565816104ec565b811461057057600080fd5b5056fea2646970667358221220b1d21ea7abde6953b6cc091d5bfc2a6c1c9a79c2bb915cfbea7135822c75796164736f6c63430008020033","opcodes":"PUSH2 0x5A9 PUSH2 0x53 PUSH1 0xB DUP3 DUP3 DUP3 CODECOPY DUP1 MLOAD PUSH1 0x0 BYTE PUSH1 0x73 EQ PUSH2 0x46 JUMPI PUSH32 0x4E487B7100000000000000000000000000000000000000000000000000000000 PUSH1 0x0 MSTORE PUSH1 0x0 PUSH1 0x4 MSTORE PUSH1 0x24 PUSH1 0x0 REVERT JUMPDEST ADDRESS PUSH1 0x0 MSTORE PUSH1 0x73 DUP2 MSTORE8 DUP3 DUP2 RETURN INVALID PUSH20 0x0 ADDRESS EQ PUSH1 0x80 PUSH1 0x40 MSTORE PUSH1 0x4 CALLDATASIZE LT PUSH2 0xB3 JUMPI PUSH1 0x0 CALLDATALOAD PUSH1 0xE0 SHR DUP1 PUSH4 0x3EE6341F GT PUSH2 0x7B JUMPI DUP1 PUSH4 0x3EE6341F EQ PUSH2 0x15E JUMPI DUP1 PUSH4 0xB49AA3B5 EQ PUSH2 0x17C JUMPI DUP1 PUSH4 0xBBFB81B7 EQ PUSH2 0x19A JUMPI DUP1 PUSH4 0xCD6CCC6E EQ PUSH2 0x1B8 JUMPI DUP1 PUSH4 0xF86A0281 EQ PUSH2 0x1D6 JUMPI DUP1 PUSH4 0xFE58DB14 EQ PUSH2 0x206 JUMPI PUSH2 0xB3 JUMP JUMPDEST DUP1 PUSH4 0x8A0293E EQ PUSH2 0xB8 JUMPI DUP1 PUSH4 0x1B308297 EQ PUSH2 0xD6 JUMPI DUP1 PUSH4 0x1DC140EA EQ PUSH2 0xF2 JUMPI DUP1 PUSH4 0x231B28DE EQ PUSH2 0x122 JUMPI DUP1 PUSH4 0x39459C8B EQ PUSH2 0x140 JUMPI JUMPDEST PUSH1 0x0 DUP1 REVERT JUMPDEST PUSH2 0xC0 PUSH2 0x224 JUMP JUMPDEST PUSH1 0x40 MLOAD PUSH2 0xCD SWAP2 SWAP1 PUSH2 0x4A2 JUMP JUMPDEST PUSH1 0x40 MLOAD DUP1 SWAP2 SUB SWAP1 RETURN JUMPDEST PUSH2 0xF0 PUSH1 0x4 DUP1 CALLDATASIZE SUB DUP2 ADD SWAP1 PUSH2 0xEB SWAP2 SWAP1 PUSH2 0x416 JUMP JUMPDEST PUSH2 0x25D JUMP JUMPDEST STOP JUMPDEST PUSH2 0x10C PUSH1 0x4 DUP1 CALLDATASIZE SUB DUP2 ADD SWAP1 PUSH2 0x107 SWAP2 SWAP1 PUSH2 0x416 JUMP JUMPDEST PUSH2 0x260 JUMP JUMPDEST PUSH1 0x40 MLOAD PUSH2 0x119 SWAP2 SWAP1 PUSH2 0x487 JUMP JUMPDEST PUSH1 0x40 MLOAD DUP1 SWAP2 SUB SWAP1 RETURN JUMPDEST PUSH2 0x12A PUSH2 0x26B JUMP JUMPDEST PUSH1 0x40 MLOAD PUSH2 0x137 SWAP2 SWAP1 PUSH2 0x4A2 JUMP JUMPDEST PUSH1 0x40 MLOAD DUP1 SWAP2 SUB SWAP1 RETURN JUMPDEST PUSH2 0x148 PUSH2 0x2A4 JUMP JUMPDEST PUSH1 0x40 MLOAD PUSH2 0x155 SWAP2 SWAP1 PUSH2 0x4A2 JUMP JUMPDEST PUSH1 0x40 MLOAD DUP1 SWAP2 SUB SWAP1 RETURN JUMPDEST PUSH2 0x166 PUSH2 0x2DD JUMP JUMPDEST PUSH1 0x40 MLOAD PUSH2 0x173 SWAP2 SWAP1 PUSH2 0x4A2 JUMP JUMPDEST PUSH1 0x40 MLOAD DUP1 SWAP2 SUB SWAP1 RETURN JUMPDEST PUSH2 0x184 PUSH2 0x316 JUMP JUMPDEST PUSH1 0x40 MLOAD PUSH2 0x191 SWAP2 SWAP1 PUSH2 0x4A2 JUMP JUMPDEST PUSH1 0x40 MLOAD DUP1 SWAP2 SUB SWAP1 RETURN JUMPDEST PUSH2 0x1A2 PUSH2 0x34F JUMP JUMPDEST PUSH1 0x40 MLOAD PUSH2 0x1AF SWAP2 SWAP1 PUSH2 0x4A2 JUMP JUMPDEST PUSH1 0x40 MLOAD DUP1 SWAP2 SUB SWAP1 RETURN JUMPDEST PUSH2 0x1C0 PUSH2 0x388 JUMP JUMPDEST PUSH1 0x40 MLOAD PUSH2 0x1CD SWAP2 SWAP1 PUSH2 0x4A2 JUMP JUMPDEST PUSH1 0x40 MLOAD DUP1 SWAP2 SUB SWAP1 RETURN JUMPDEST PUSH2 0x1F0 PUSH1 0x4 DUP1 CALLDATASIZE SUB DUP2 ADD SWAP1 PUSH2 0x1EB SWAP2 SWAP1 PUSH2 0x416 JUMP JUMPDEST PUSH2 0x3C1 JUMP JUMPDEST PUSH1 0x40 MLOAD PUSH2 0x1FD SWAP2 SWAP1 PUSH2 0x487 JUMP JUMPDEST PUSH1 0x40 MLOAD DUP1 SWAP2 SUB SWAP1 RETURN JUMPDEST PUSH2 0x20E PUSH2 0x3C8 JUMP JUMPDEST PUSH1 0x40 MLOAD PUSH2 0x21B SWAP2 SWAP1 PUSH2 0x4A2 JUMP JUMPDEST PUSH1 0x40 MLOAD DUP1 SWAP2 SUB SWAP1 RETURN JUMPDEST PUSH1 0x40 MLOAD DUP1 PUSH1 0x40 ADD PUSH1 0x40 MSTORE DUP1 PUSH1 0x3 DUP2 MSTORE PUSH1 0x20 ADD PUSH32 0x3130350000000000000000000000000000000000000000000000000000000000 DUP2 MSTORE POP DUP2 JUMP JUMPDEST POP JUMP JUMPDEST PUSH1 0x0 PUSH1 0x1 SWAP1 POP SWAP2 SWAP1 POP JUMP JUMPDEST PUSH1 0x40 MLOAD DUP1 PUSH1 0x40 ADD PUSH1 0x40 MSTORE DUP1 PUSH1 0x3 DUP2 MSTORE PUSH1 0x20 ADD PUSH32 0x3130330000000000000000000000000000000000000000000000000000000000 DUP2 MSTORE POP DUP2 JUMP JUMPDEST PUSH1 0x40 MLOAD DUP1 PUSH1 0x40 ADD PUSH1 0x40 MSTORE DUP1 PUSH1 0x3 DUP2 MSTORE PUSH1 0x20 ADD PUSH32 0x3130300000000000000000000000000000000000000000000000000000000000 DUP2 MSTORE POP DUP2 JUMP JUMPDEST PUSH1 0x40 MLOAD DUP1 PUSH1 0x40 ADD PUSH1 0x40 MSTORE DUP1 PUSH1 0x3 DUP2 MSTORE PUSH1 0x20 ADD PUSH32 0x3130370000000000000000000000000000000000000000000000000000000000 DUP2 MSTORE POP DUP2 JUMP JUMPDEST PUSH1 0x40 MLOAD DUP1 PUSH1 0x40 ADD PUSH1 0x40 MSTORE DUP1 PUSH1 0x3 DUP2 MSTORE PUSH1 0x20 ADD PUSH32 0x3130360000000000000000000000000000000000000000000000000000000000 DUP2 MSTORE POP DUP2 JUMP JUMPDEST PUSH1 0x40 MLOAD DUP1 PUSH1 0x40 ADD PUSH1 0x40 MSTORE DUP1 PUSH1 0x3 DUP2 MSTORE PUSH1 0x20 ADD PUSH32 0x3130310000000000000000000000000000000000000000000000000000000000 DUP2 MSTORE POP DUP2 JUMP JUMPDEST PUSH1 0x40 MLOAD DUP1 PUSH1 0x40 ADD PUSH1 0x40 MSTORE DUP1 PUSH1 0x3 DUP2 MSTORE PUSH1 0x20 ADD PUSH32 0x3130320000000000000000000000000000000000000000000000000000000000 DUP2 MSTORE POP DUP2 JUMP JUMPDEST PUSH1 0x0 SWAP2 SWAP1 POP JUMP JUMPDEST PUSH1 0x40 MLOAD DUP1 PUSH1 0x40 ADD PUSH1 0x40 MSTORE DUP1 PUSH1 0x3 DUP2 MSTORE PUSH1 0x20 ADD PUSH32 0x3130340000000000000000000000000000000000000000000000000000000000 DUP2 MSTORE POP DUP2 JUMP JUMPDEST PUSH1 0x0 DUP2 CALLDATALOAD SWAP1 POP PUSH2 0x410 DUP2 PUSH2 0x55C JUMP JUMPDEST SWAP3 SWAP2 POP POP JUMP JUMPDEST PUSH1 0x0 PUSH1 0x20 DUP3 DUP5 SUB SLT ISZERO PUSH2 0x428 JUMPI PUSH1 0x0 DUP1 REVERT JUMPDEST PUSH1 0x0 PUSH2 0x436 DUP5 DUP3 DUP6 ADD PUSH2 0x401 JUMP JUMPDEST SWAP2 POP POP SWAP3 SWAP2 POP POP JUMP JUMPDEST PUSH2 0x448 DUP2 PUSH2 0x4E0 JUMP JUMPDEST DUP3 MSTORE POP POP JUMP JUMPDEST PUSH1 0x0 PUSH2 0x459 DUP3 PUSH2 0x4C4 JUMP JUMPDEST PUSH2 0x463 DUP2 DUP6 PUSH2 0x4CF JUMP JUMPDEST SWAP4 POP PUSH2 0x473 DUP2 DUP6 PUSH1 0x20 DUP7 ADD PUSH2 0x518 JUMP JUMPDEST PUSH2 0x47C DUP2 PUSH2 0x54B JUMP JUMPDEST DUP5 ADD SWAP2 POP POP SWAP3 SWAP2 POP POP JUMP JUMPDEST PUSH1 0x0 PUSH1 0x20 DUP3 ADD SWAP1 POP PUSH2 0x49C PUSH1 0x0 DUP4 ADD DUP5 PUSH2 0x43F JUMP JUMPDEST SWAP3 SWAP2 POP POP JUMP JUMPDEST PUSH1 0x0 PUSH1 0x20 DUP3 ADD SWAP1 POP DUP2 DUP2 SUB PUSH1 0x0 DUP4 ADD MSTORE PUSH2 0x4BC DUP2 DUP5 PUSH2 0x44E JUMP JUMPDEST SWAP1 POP SWAP3 SWAP2 POP POP JUMP JUMPDEST PUSH1 0x0 DUP2 MLOAD SWAP1 POP SWAP2 SWAP1 POP JUMP JUMPDEST PUSH1 0x0 DUP3 DUP3 MSTORE PUSH1 0x20 DUP3 ADD SWAP1 POP SWAP3 SWAP2 POP POP JUMP JUMPDEST PUSH1 0x0 DUP2 ISZERO ISZERO SWAP1 POP SWAP2 SWAP1 POP JUMP JUMPDEST PUSH1 0x0 PUSH32 0xFFFFFFFFFFFFFFFF000000000000000000000000000000000000000000000000 DUP3 AND SWAP1 POP SWAP2 SWAP1 POP JUMP JUMPDEST PUSH1 0x0 JUMPDEST DUP4 DUP2 LT ISZERO PUSH2 0x536 JUMPI DUP1 DUP3 ADD MLOAD DUP2 DUP5 ADD MSTORE PUSH1 0x20 DUP2 ADD SWAP1 POP PUSH2 0x51B JUMP JUMPDEST DUP4 DUP2 GT ISZERO PUSH2 0x545 JUMPI PUSH1 0x0 DUP5 DUP5 ADD MSTORE JUMPDEST POP POP POP POP JUMP JUMPDEST PUSH1 0x0 PUSH1 0x1F NOT PUSH1 0x1F DUP4 ADD AND SWAP1 POP SWAP2 SWAP1 POP JUMP JUMPDEST PUSH2 0x565 DUP2 PUSH2 0x4EC JUMP JUMPDEST DUP2 EQ PUSH2 0x570 JUMPI PUSH1 0x0 DUP1 REVERT JUMPDEST POP JUMP INVALID LOG2 PUSH5 0x6970667358 0x22 SLT KECCAK256 0xB1 0xD2 0x1E 0xA7 0xAB 0xDE PUSH10 0x53B6CC091D5BFC2A6C1C SWAP11 PUSH26 0xC2BB915CFBEA7135822C75796164736F6C634300080200330000 "},"methodIdentifiers":{"ID_DOES_NOT_EXIST()":"bbfb81b7","ID_INVALID_EXPIRED()":"231b28de","ID_NOT_TRANSFERABLE()":"cd6ccc6e","INVALID_TOKEN_ID()":"b49aa3b5","NOT_VALID_PROVER()":"fe58db14","PREVIOUSLY_VERIFIED()":"39459c8b","TOKEN_ID_ALREADY_EXISTS()":"3ee6341f","ZERO_ADDRESS_NOT_VALID_ARGUMENT()":"08a0293e","c_2d64bcc3(bytes8)":"1b308297","c_false2d64bcc3(bytes8)":"f86a0281","c_true2d64bcc3(bytes8)":"1dc140ea"}},"storageLayout":{"storage":[],"types":null}}}}