{"contracts/ProofOfIdentity.sol":{"ProofOfIdentity":{"abi":[{"anonymous":false,"inputs":[{"indexed":true,"internalType":"address","name":"account","type":"address"},{"indexed":true,"internalType":"uint256","name":"tokenId","type":"uint256"},{"indexed":true,"internalType":"string","name":"reason","type":"string"}],"name":"AccountSuspendedTokenBurned","type":"event"},{"anonymous":false,"inputs":[{"indexed":true,"internalType":"address","name":"account","type":"address"},{"indexed":true,"internalType":"string","name":"reason","type":"string"}],"name":"AccountSuspendedTokenMaintained","type":"event"},{"anonymous":false,"inputs":[{"indexed":true,"internalType":"address","name":"owner","type":"address"},{"indexed":true,"internalType":"address","name":"approved","type":"address"},{"indexed":true,"internalType":"uint256","name":"tokenId","type":"uint256"}],"name":"Approval","type":"event"},{"anonymous":false,"inputs":[{"indexed":true,"internalType":"address","name":"owner","type":"address"},{"indexed":true,"internalType":"address","name":"operator","type":"address"},{"indexed":false,"internalType":"bool","name":"approved","type":"bool"}],"name":"ApprovalForAll","type":"event"},{"anonymous":false,"inputs":[{"indexed":true,"internalType":"address","name":"account","type":"address"},{"indexed":true,"internalType":"uint256","name":"tokenId","type":"uint256"}],"name":"IdentityMinted","type":"event"},{"anonymous":false,"inputs":[{"indexed":true,"internalType":"address","name":"account","type":"address"},{"indexed":true,"internalType":"uint256","name":"tokenId","type":"uint256"}],"name":"IdentityUpdated","type":"event"},{"anonymous":false,"inputs":[{"indexed":false,"internalType":"uint8","name":"version","type":"uint8"}],"name":"Initialized","type":"event"},{"anonymous":false,"inputs":[{"indexed":true,"internalType":"bytes32","name":"role","type":"bytes32"},{"indexed":true,"internalType":"bytes32","name":"previousAdminRole","type":"bytes32"},{"indexed":true,"internalType":"bytes32","name":"newAdminRole","type":"bytes32"}],"name":"RoleAdminChanged","type":"event"},{"anonymous":false,"inputs":[{"indexed":true,"internalType":"bytes32","name":"role","type":"bytes32"},{"indexed":true,"internalType":"address","name":"account","type":"address"},{"indexed":true,"internalType":"address","name":"sender","type":"address"}],"name":"RoleGranted","type":"event"},{"anonymous":false,"inputs":[{"indexed":true,"internalType":"bytes32","name":"role","type":"bytes32"},{"indexed":true,"internalType":"address","name":"account","type":"address"},{"indexed":true,"internalType":"address","name":"sender","type":"address"}],"name":"RoleRevoked","type":"event"},{"anonymous":false,"inputs":[{"indexed":true,"internalType":"address","name":"account","type":"address"},{"indexed":true,"internalType":"uint256","name":"tokenId","type":"uint256"},{"indexed":true,"internalType":"string","name":"newURI","type":"string"}],"name":"TokenURIUpdated","type":"event"},{"anonymous":false,"inputs":[{"indexed":true,"internalType":"address","name":"from","type":"address"},{"indexed":true,"internalType":"address","name":"to","type":"address"},{"indexed":true,"internalType":"uint256","name":"tokenId","type":"uint256"}],"name":"Transfer","type":"event"},{"inputs":[],"name":"DEFAULT_ADMIN_ROLE","outputs":[{"internalType":"bytes32","name":"","type":"bytes32"}],"stateMutability":"view","type":"function"},{"inputs":[],"name":"PROVER_ROLE","outputs":[{"internalType":"bytes32","name":"","type":"bytes32"}],"stateMutability":"view","type":"function"},{"inputs":[{"internalType":"address","name":"to","type":"address"},{"internalType":"uint256","name":"tokenId","type":"uint256"}],"name":"approve","outputs":[],"stateMutability":"nonpayable","type":"function"},{"inputs":[{"internalType":"address","name":"owner","type":"address"}],"name":"balanceOf","outputs":[{"internalType":"uint256","name":"","type":"uint256"}],"stateMutability":"view","type":"function"},{"inputs":[{"internalType":"bytes8","name":"c__02edf0db","type":"bytes8"}],"name":"c_02edf0db","outputs":[],"stateMutability":"pure","type":"function"},{"inputs":[{"internalType":"bytes8","name":"c__39e378f6","type":"bytes8"}],"name":"c_39e378f6","outputs":[],"stateMutability":"pure","type":"function"},{"inputs":[{"internalType":"bytes8","name":"c__6f26603d","type":"bytes8"}],"name":"c_6f26603d","outputs":[],"stateMutability":"pure","type":"function"},{"inputs":[{"internalType":"bytes8","name":"c__b8c9e965","type":"bytes8"}],"name":"c_b8c9e965","outputs":[],"stateMutability":"pure","type":"function"},{"inputs":[{"internalType":"bytes8","name":"c__02edf0db","type":"bytes8"}],"name":"c_false02edf0db","outputs":[{"internalType":"bool","name":"","type":"bool"}],"stateMutability":"pure","type":"function"},{"inputs":[{"internalType":"bytes8","name":"c__39e378f6","type":"bytes8"}],"name":"c_false39e378f6","outputs":[{"internalType":"bool","name":"","type":"bool"}],"stateMutability":"pure","type":"function"},{"inputs":[{"internalType":"bytes8","name":"c__6f26603d","type":"bytes8"}],"name":"c_false6f26603d","outputs":[{"internalType":"bool","name":"","type":"bool"}],"stateMutability":"pure","type":"function"},{"inputs":[{"internalType":"bytes8","name":"c__b8c9e965","type":"bytes8"}],"name":"c_falseb8c9e965","outputs":[{"internalType":"bool","name":"","type":"bool"}],"stateMutability":"pure","type":"function"},{"inputs":[{"internalType":"bytes8","name":"c__02edf0db","type":"bytes8"}],"name":"c_true02edf0db","outputs":[{"internalType":"bool","name":"","type":"bool"}],"stateMutability":"pure","type":"function"},{"inputs":[{"internalType":"bytes8","name":"c__39e378f6","type":"bytes8"}],"name":"c_true39e378f6","outputs":[{"internalType":"bool","name":"","type":"bool"}],"stateMutability":"pure","type":"function"},{"inputs":[{"internalType":"bytes8","name":"c__6f26603d","type":"bytes8"}],"name":"c_true6f26603d","outputs":[{"internalType":"bool","name":"","type":"bool"}],"stateMutability":"pure","type":"function"},{"inputs":[{"internalType":"bytes8","name":"c__b8c9e965","type":"bytes8"}],"name":"c_trueb8c9e965","outputs":[{"internalType":"bool","name":"","type":"bool"}],"stateMutability":"pure","type":"function"},{"inputs":[{"internalType":"uint256","name":"tokenId","type":"uint256"}],"name":"getApproved","outputs":[{"internalType":"address","name":"","type":"address"}],"stateMutability":"view","type":"function"},{"inputs":[],"name":"getCurrentTokenId","outputs":[{"internalType":"uint256","name":"","type":"uint256"}],"stateMutability":"view","type":"function"},{"inputs":[{"internalType":"bytes32","name":"role","type":"bytes32"}],"name":"getRoleAdmin","outputs":[{"internalType":"bytes32","name":"","type":"bytes32"}],"stateMutability":"view","type":"function"},{"inputs":[{"internalType":"address","name":"account","type":"address"}],"name":"getUserAccountCountryCode","outputs":[{"internalType":"string","name":"userAccountCountryCode","type":"string"}],"stateMutability":"view","type":"function"},{"inputs":[{"internalType":"address","name":"account","type":"address"}],"name":"getUserAccountCountryCodePreventOnExpiry","outputs":[{"internalType":"string","name":"userAccountCountryCode","type":"string"}],"stateMutability":"view","type":"function"},{"inputs":[{"internalType":"address","name":"account","type":"address"}],"name":"getUserAccountExpiry","outputs":[{"internalType":"uint256","name":"userAccountExpiry","type":"uint256"}],"stateMutability":"view","type":"function"},{"inputs":[{"internalType":"address","name":"account","type":"address"}],"name":"getUserAccountIdentityBlob","outputs":[{"components":[{"internalType":"uint256","name":"tokenId","type":"uint256"},{"internalType":"string","name":"countryCode","type":"string"},{"internalType":"uint8","name":"userType","type":"uint8"},{"internalType":"uint8","name":"level","type":"uint8"},{"internalType":"uint256","name":"expiry","type":"uint256"}],"internalType":"struct RoleVerification.IdentityBlob","name":"userIdentityBlob","type":"tuple"}],"stateMutability":"view","type":"function"},{"inputs":[{"internalType":"address","name":"account","type":"address"}],"name":"getUserAccountLevel","outputs":[{"internalType":"uint8","name":"userAccountLevel","type":"uint8"}],"stateMutability":"view","type":"function"},{"inputs":[{"internalType":"address","name":"account","type":"address"}],"name":"getUserAccountLevelPreventOnExpiry","outputs":[{"internalType":"uint8","name":"","type":"uint8"}],"stateMutability":"view","type":"function"},{"inputs":[{"internalType":"address","name":"account","type":"address"}],"name":"getUserAccountType","outputs":[{"internalType":"uint8","name":"userAccountType","type":"uint8"}],"stateMutability":"view","type":"function"},{"inputs":[{"internalType":"address","name":"account","type":"address"}],"name":"getUserAccountTypePreventOnExpiry","outputs":[{"internalType":"uint8","name":"","type":"uint8"}],"stateMutability":"view","type":"function"},{"inputs":[{"internalType":"bytes32","name":"role","type":"bytes32"},{"internalType":"address","name":"account","type":"address"}],"name":"grantRole","outputs":[],"stateMutability":"nonpayable","type":"function"},{"inputs":[{"internalType":"bytes32","name":"role","type":"bytes32"},{"internalType":"address","name":"account","type":"address"}],"name":"hasRole","outputs":[{"internalType":"bool","name":"","type":"bool"}],"stateMutability":"view","type":"function"},{"inputs":[{"internalType":"address","name":"","type":"address"}],"name":"identityBlob","outputs":[{"internalType":"uint256","name":"tokenId","type":"uint256"},{"internalType":"string","name":"countryCode","type":"string"},{"internalType":"uint8","name":"userType","type":"uint8"},{"internalType":"uint8","name":"level","type":"uint8"},{"internalType":"uint256","name":"expiry","type":"uint256"}],"stateMutability":"view","type":"function"},{"inputs":[{"internalType":"address","name":"permissionsInterface","type":"address"}],"name":"initialize","outputs":[],"stateMutability":"nonpayable","type":"function"},{"inputs":[{"internalType":"address","name":"owner","type":"address"},{"internalType":"address","name":"operator","type":"address"}],"name":"isApprovedForAll","outputs":[{"internalType":"bool","name":"","type":"bool"}],"stateMutability":"view","type":"function"},{"inputs":[{"internalType":"address","name":"account","type":"address"},{"internalType":"string","name":"countryCode","type":"string"},{"internalType":"uint8","name":"userType","type":"uint8"},{"internalType":"uint8","name":"level","type":"uint8"},{"internalType":"uint256","name":"expiry","type":"uint256"},{"internalType":"string","name":"tokenUri","type":"string"}],"name":"mintIdentity","outputs":[],"stateMutability":"nonpayable","type":"function"},{"inputs":[],"name":"name","outputs":[{"internalType":"string","name":"","type":"string"}],"stateMutability":"view","type":"function"},{"inputs":[{"internalType":"uint256","name":"tokenId","type":"uint256"}],"name":"ownerOf","outputs":[{"internalType":"address","name":"","type":"address"}],"stateMutability":"view","type":"function"},{"inputs":[{"internalType":"bytes32","name":"role","type":"bytes32"},{"internalType":"address","name":"account","type":"address"}],"name":"renounceRole","outputs":[],"stateMutability":"nonpayable","type":"function"},{"inputs":[{"internalType":"bytes32","name":"role","type":"bytes32"},{"internalType":"address","name":"account","type":"address"}],"name":"revokeRole","outputs":[],"stateMutability":"nonpayable","type":"function"},{"inputs":[{"internalType":"address","name":"from","type":"address"},{"internalType":"address","name":"to","type":"address"},{"internalType":"uint256","name":"tokenId","type":"uint256"}],"name":"safeTransferFrom","outputs":[],"stateMutability":"nonpayable","type":"function"},{"inputs":[{"internalType":"address","name":"from","type":"address"},{"internalType":"address","name":"to","type":"address"},{"internalType":"uint256","name":"tokenId","type":"uint256"},{"internalType":"bytes","name":"data","type":"bytes"}],"name":"safeTransferFrom","outputs":[],"stateMutability":"nonpayable","type":"function"},{"inputs":[{"internalType":"address","name":"operator","type":"address"},{"internalType":"bool","name":"approved","type":"bool"}],"name":"setApprovalForAll","outputs":[],"stateMutability":"nonpayable","type":"function"},{"inputs":[{"internalType":"bytes4","name":"interfaceId","type":"bytes4"}],"name":"supportsInterface","outputs":[{"internalType":"bool","name":"","type":"bool"}],"stateMutability":"view","type":"function"},{"inputs":[{"internalType":"address","name":"suspendAccount","type":"address"},{"internalType":"string","name":"reason","type":"string"}],"name":"suspendAccountDeleteTokenAndIdentityBlob","outputs":[],"stateMutability":"nonpayable","type":"function"},{"inputs":[{"internalType":"address","name":"suspendAddress","type":"address"},{"internalType":"string","name":"reason","type":"string"}],"name":"suspendAccountMaintainTokenAndIdentityBlob","outputs":[],"stateMutability":"nonpayable","type":"function"},{"inputs":[],"name":"symbol","outputs":[{"internalType":"string","name":"","type":"string"}],"stateMutability":"view","type":"function"},{"inputs":[{"internalType":"uint256","name":"tokenId","type":"uint256"}],"name":"tokenURI","outputs":[{"internalType":"string","name":"","type":"string"}],"stateMutability":"view","type":"function"},{"inputs":[{"internalType":"address","name":"from","type":"address"},{"internalType":"address","name":"to","type":"address"},{"internalType":"uint256","name":"tokenId","type":"uint256"}],"name":"transferFrom","outputs":[],"stateMutability":"nonpayable","type":"function"},{"inputs":[{"internalType":"address","name":"account","type":"address"},{"internalType":"string","name":"countryCode","type":"string"},{"internalType":"uint8","name":"userType","type":"uint8"},{"internalType":"uint8","name":"level","type":"uint8"},{"internalType":"uint256","name":"expiry","type":"uint256"}],"name":"updateIdentity","outputs":[],"stateMutability":"nonpayable","type":"function"},{"inputs":[{"internalType":"address","name":"account","type":"address"},{"internalType":"string","name":"tokenUri","type":"string"}],"name":"updateTokenURI","outputs":[],"stateMutability":"nonpayable","type":"function"}],"evm":{"bytecode":{"linkReferences":{},"object":"608060405234801561001057600080fd5b5061607580620000216000396000f3fe608060405234801561001057600080fd5b50600436106102a05760003560e01c806391d1485411610167578063d4ec9096116100ce578063e2d0795911610087578063e2d0795914610903578063e86573e414610933578063e985e9c51461094f578063ec4d57b31461097f578063ec8957311461099b578063f6a4b4d7146109cb576102a0565b8063d4ec909614610831578063d547741f1461084d578063dc9a4ef614610869578063dd9e939214610887578063dee4c709146108a3578063dfb24b89146108d3576102a0565b8063b467177f11610120578063b467177f14610739578063b88d4fde14610769578063c207e9e014610785578063c4d66de8146107b5578063c8755ecf146107d1578063c87b56dd14610801576102a0565b806391d1485414610651578063949cdd6e1461068157806395d89b41146106b157806396257e4d146106cf578063a217fddf146106ff578063a22cb4651461071d576102a0565b806342842e0e1161020b5780636c193733116101c45780636c1937331461056d5780636ca5fde8146105895780636f905bfc146105b957806370a08231146105d557806380a5a896146106055780638925497514610621576102a0565b806342842e0e1461046f578063561892361461048b5780635afc5755146104a95780636352211e146104d95780636782b1b114610509578063688ea9fe14610539576102a0565b806323b872dd1161025d57806323b872dd1461039f578063248a9ca3146103bb57806326aeeeff146103eb5780632f2ff15d1461041b57806336568abe146104375780633bc2c07814610453576102a0565b806301ffc9a7146102a557806306fdde03146102d5578063081812fc146102f357806309299ea314610323578063095ea7b3146103535780631fe0094a1461036f575b600080fd5b6102bf60048036038101906102ba9190614dfe565b6109e7565b6040516102cc9190615434565b60405180910390f35b6102dd610a35565b6040516102ea9190615485565b60405180910390f35b61030d60048036038101906103089190614e79565b610ac7565b60405161031a919061538c565b60405180910390f35b61033d60048036038101906103389190614a45565b610b0d565b60405161034a91906156e5565b60405180910390f35b61036d60048036038101906103689190614d5d565b610b94565b005b61038960048036038101906103849190614a45565b610cac565b604051610396919061575a565b60405180910390f35b6103b960048036038101906103b49190614aaa565b610e72565b005b6103d560048036038101906103d09190614d99565b610f20565b6040516103e2919061544f565b60405180910390f35b61040560048036038101906104009190614e50565b610f40565b6040516104129190615434565b60405180910390f35b61043560048036038101906104309190614dc2565b610f4b565b005b610451600480360381019061044c9190614dc2565b610f6c565b005b61046d60048036038101906104689190614bb0565b610fef565b005b61048960048036038101906104849190614aaa565b6112d2565b005b610493611380565b6040516104a091906156e5565b60405180910390f35b6104c360048036038101906104be9190614e50565b6113cd565b6040516104d09190615434565b60405180910390f35b6104f360048036038101906104ee9190614e79565b6113d4565b604051610500919061538c565b60405180910390f35b610523600480360381019061051e9190614e50565b61145b565b6040516105309190615434565b60405180910390f35b610553600480360381019061054e9190614a45565b611466565b604051610564959493929190615700565b60405180910390f35b61058760048036038101906105829190614e50565b61153e565b005b6105a3600480360381019061059e9190614a45565b611541565b6040516105b091906156c3565b60405180910390f35b6105d360048036038101906105ce9190614e50565b6116b5565b005b6105ef60048036038101906105ea9190614a45565b6116b8565b6040516105fc91906156e5565b60405180910390f35b61061f600480360381019061061a9190614bb0565b611770565b005b61063b60048036038101906106369190614e50565b611917565b6040516106489190615434565b60405180910390f35b61066b60048036038101906106669190614dc2565b611922565b6040516106789190615434565b60405180910390f35b61069b60048036038101906106969190614a45565b61198d565b6040516106a8919061575a565b60405180910390f35b6106b9611b53565b6040516106c69190615485565b60405180910390f35b6106e960048036038101906106e49190614a45565b611be5565b6040516106f69190615485565b60405180910390f35b610707611e26565b604051610714919061544f565b60405180910390f35b61073760048036038101906107329190614b74565b611e2d565b005b610753600480360381019061074e9190614a45565b611e43565b604051610760919061575a565b60405180910390f35b610783600480360381019061077e9190614af9565b611ed7565b005b61079f600480360381019061079a9190614a45565b611f39565b6040516107ac919061575a565b60405180910390f35b6107cf60048036038101906107ca9190614a45565b611fcd565b005b6107eb60048036038101906107e69190614e50565b61231a565b6040516107f89190615434565b60405180910390f35b61081b60048036038101906108169190614e79565b612321565b6040516108289190615485565b60405180910390f35b61084b60048036038101906108469190614c9a565b6124d3565b005b61086760048036038101906108629190614dc2565b612a67565b005b610871612a88565b60405161087e919061544f565b60405180910390f35b6108a1600480360381019061089c9190614e50565b612aac565b005b6108bd60048036038101906108b89190614e50565b612aaf565b6040516108ca9190615434565b60405180910390f35b6108ed60048036038101906108e89190614a45565b612aba565b6040516108fa9190615485565b60405180910390f35b61091d60048036038101906109189190614e50565b612bc9565b60405161092a9190615434565b60405180910390f35b61094d60048036038101906109489190614c08565b612bd0565b005b61096960048036038101906109649190614a6e565b612f27565b6040516109769190615434565b60405180910390f35b61099960048036038101906109949190614e50565b612fbb565b005b6109b560048036038101906109b09190614e50565b612fbe565b6040516109c29190615434565b60405180910390f35b6109e560048036038101906109e09190614bb0565b612fc5565b005b60006109fd67bb394ff96495738360c01b6116b5565b610a116751deb66d5108742160c01b6116b5565b610a256740a84345ff486f4060c01b6116b5565b610a2e8261322a565b9050919050565b606060668054610a4490615a16565b80601f0160208091040260200160405190810160405280929190818152602001828054610a7090615a16565b8015610abd5780601f10610a9257610100808354040283529160200191610abd565b820191906000526020600020905b815481529060010190602001808311610aa057829003601f168201915b5050505050905090565b6000610ad2826132a4565b606a600083815260200190815260200160002060009054906101000a900473ffffffffffffffffffffffffffffffffffffffff169050919050565b6000610b2367c1c9ef872120ad4c60c01b612fbb565b610b376722a4df8a42ceaa6160c01b612fbb565b610b4b6794447c4bb948903360c01b612fbb565b6000808373ffffffffffffffffffffffffffffffffffffffff1673ffffffffffffffffffffffffffffffffffffffff168152602001908152602001600020600301549050919050565b6000610b9f826113d4565b90508073ffffffffffffffffffffffffffffffffffffffff168373ffffffffffffffffffffffffffffffffffffffff161415610c10576040517f08c379a0000000000000000000000000000000000000000000000000000000008152600401610c0790615643565b60405180910390fd5b8073ffffffffffffffffffffffffffffffffffffffff16610c2f6132ef565b73ffffffffffffffffffffffffffffffffffffffff161480610c5e5750610c5d81610c586132ef565b612f27565b5b610c9d576040517f08c379a0000000000000000000000000000000000000000000000000000000008152600401610c9490615663565b60405180910390fd5b610ca783836132f7565b505050565b6000610cc2678a8a08e8027046c760c01b612aac565b610cd66791c41a347ba64e9660c01b612aac565b610cea679881f450aa1ce9eb60c01b612aac565b6000808373ffffffffffffffffffffffffffffffffffffffff1673ffffffffffffffffffffffffffffffffffffffff168152602001908152602001600020600301544210610de057610d4667312e0ffaf24bb87460c01b612aac565b610d5a67c78863f958234bc560c01b612aac565b610d6e67c5c511546c50c45160c01b612aac565b6040518060400160405280600381526020017f31303300000000000000000000000000000000000000000000000000000000008152506040517f08c379a0000000000000000000000000000000000000000000000000000000008152600401610dd79190615485565b60405180910390fd5b610df46706dae439f14a554160c01b612aac565b610e0867d9a43cd54b2554f860c01b612aac565b610e1c67b80c4d30135ffecc60c01b612aac565b6000808373ffffffffffffffffffffffffffffffffffffffff1673ffffffffffffffffffffffffffffffffffffffff16815260200190815260200160002060020160009054906101000a900460ff169050919050565b610e866754ffdbd468219e9660c01b6116b5565b610e9a677647c4bc02b8e54e60c01b6116b5565b610eae67ae1d078a9d37a4b260c01b6116b5565b6040518060400160405280600381526020017f31303200000000000000000000000000000000000000000000000000000000008152506040517f08c379a0000000000000000000000000000000000000000000000000000000008152600401610f179190615485565b60405180910390fd5b600060986000838152602001908152602001600020600101549050919050565b600060019050919050565b610f5482610f20565b610f5d816133b0565b610f6783836133c4565b505050565b610f746132ef565b73ffffffffffffffffffffffffffffffffffffffff168173ffffffffffffffffffffffffffffffffffffffff1614610fe1576040517f08c379a0000000000000000000000000000000000000000000000000000000008152600401610fd8906156a3565b60405180910390fd5b610feb82826134a5565b5050565b61100367f194068af4ab0a2260c01b6116b5565b7f60044782a422109ac08a415e44260ad5d3bad63d96ebe1fac0363399642ee3f261102d816133b0565b611041676ddddebdc742663a60c01b6116b5565b611055676b4efcc6cca0c3fd60c01b6116b5565b61106967845d0b140a93c12560c01b6116b5565b61107d6773ee7804a611c94760c01b6116b5565b60cb60009054906101000a900473ffffffffffffffffffffffffffffffffffffffff1673ffffffffffffffffffffffffffffffffffffffff166384b7a84a8560016040518363ffffffff1660e01b81526004016110db9291906155e7565b600060405180830381600087803b1580156110f557600080fd5b505af1158015611109573d6000803e3d6000fd5b50505050611121674261c4441178f68f60c01b6116b5565b61113567147b0824d5c52d1e60c01b6116b5565b600060cc60008673ffffffffffffffffffffffffffffffffffffffff1673ffffffffffffffffffffffffffffffffffffffff16815260200190815260200160002054905061118d67ac09fd51df6bbb5460c01b6116b5565b6111a1679dac79938abcf8d060c01b6116b5565b6111aa81613587565b6111be67015076a70c0af72c60c01b6116b5565b6000808673ffffffffffffffffffffffffffffffffffffffff1673ffffffffffffffffffffffffffffffffffffffff168152602001908152602001600020600080820160009055600182016000611215919061474d565b6002820160006101000a81549060ff02191690556002820160016101000a81549060ff02191690556003820160009055505061125b672d8e3478a7d95b0560c01b6116b5565b61126f67332cd9e58174c79b60c01b6116b5565b838360405161127f929190615339565b6040518091039020818673ffffffffffffffffffffffffffffffffffffffff167f8b09fc40032762aebf578cd9202b2548559cbac190b3807076418620ef05518f60405160405180910390a45050505050565b6112e667beb2a701f24fb88460c01b6116b5565b6112fa6762fec0094c8f928a60c01b6116b5565b61130e677ab62c3941758f0660c01b6116b5565b6040518060400160405280600381526020017f31303200000000000000000000000000000000000000000000000000000000008152506040517f08c379a00000000000000000000000000000000000000000000000000000000081526004016113779190615485565b60405180910390fd5b600061139667aa04d3478398cf6f60c01b6116b5565b6113aa6724081be78105f81f60c01b6116b5565b6113be67d676a7130c06d07e60c01b6116b5565b6113c860ca6136d5565b905090565b6000919050565b6000806113e0836136e3565b9050600073ffffffffffffffffffffffffffffffffffffffff168173ffffffffffffffffffffffffffffffffffffffff161415611452576040517f08c379a000000000000000000000000000000000000000000000000000000000815260040161144990615623565b60405180910390fd5b80915050919050565b600060019050919050565b600060205280600052604060002060009150905080600001549080600101805461148f90615a16565b80601f01602080910402602001604051908101604052809291908181526020018280546114bb90615a16565b80156115085780601f106114dd57610100808354040283529160200191611508565b820191906000526020600020905b8154815290600101906020018083116114eb57829003601f168201915b5050505050908060020160009054906101000a900460ff16908060020160019054906101000a900460ff16908060030154905085565b50565b61154961478d565b61155d67a05f59d4624295fd60c01b612fbb565b6115716769c1a1d6327d607160c01b612fbb565b61158567bdaf4779ff83744f60c01b612fbb565b6000808373ffffffffffffffffffffffffffffffffffffffff1673ffffffffffffffffffffffffffffffffffffffff1681526020019081526020016000206040518060a0016040529081600082015481526020016001820180546115e890615a16565b80601f016020809104026020016040519081016040528092919081815260200182805461161490615a16565b80156116615780601f1061163657610100808354040283529160200191611661565b820191906000526020600020905b81548152906001019060200180831161164457829003601f168201915b505050505081526020016002820160009054906101000a900460ff1660ff1660ff1681526020016002820160019054906101000a900460ff1660ff1660ff1681526020016003820154815250509050919050565b50565b60008073ffffffffffffffffffffffffffffffffffffffff168273ffffffffffffffffffffffffffffffffffffffff161415611729576040517f08c379a000000000000000000000000000000000000000000000000000000000815260040161172090615587565b60405180910390fd5b606960008373ffffffffffffffffffffffffffffffffffffffff1673ffffffffffffffffffffffffffffffffffffffff168152602001908152602001600020549050919050565b611784670fa9457ef47cad9f60c01b6116b5565b7f60044782a422109ac08a415e44260ad5d3bad63d96ebe1fac0363399642ee3f26117ae816133b0565b6117c2678438ac30e1bce97760c01b6116b5565b6117d6676a18f9ca1823016a60c01b6116b5565b6117ea6789e3dfc1996b87a160c01b6116b5565b6117fe6750c948dfdb7f780c60c01b6116b5565b60cb60009054906101000a900473ffffffffffffffffffffffffffffffffffffffff1673ffffffffffffffffffffffffffffffffffffffff166384b7a84a8560016040518363ffffffff1660e01b815260040161185c9291906155e7565b600060405180830381600087803b15801561187657600080fd5b505af115801561188a573d6000803e3d6000fd5b505050506118a2674a1cce405faff74560c01b6116b5565b6118b667f5117f9257161bab60c01b6116b5565b82826040516118c6929190615339565b60405180910390208473ffffffffffffffffffffffffffffffffffffffff167f3347b0049117ab94fddf6cff81cc554c4f7489acedc7c33907a96655770e58ae60405160405180910390a350505050565b600060019050919050565b60006098600084815260200190815260200160002060000160008373ffffffffffffffffffffffffffffffffffffffff1673ffffffffffffffffffffffffffffffffffffffff16815260200190815260200160002060009054906101000a900460ff16905092915050565b60006119a367e7400f8588b3b9fd60c01b612aac565b6119b767218e4aadc28bad5460c01b612aac565b6119cb6709e2c5a8a6db9e6460c01b612aac565b6000808373ffffffffffffffffffffffffffffffffffffffff1673ffffffffffffffffffffffffffffffffffffffff168152602001908152602001600020600301544210611ac157611a2767a46d03d2c5d0aae460c01b612aac565b611a3b6759e43ca1959c0a4e60c01b612aac565b611a4f67c0882176d22f194460c01b612aac565b6040518060400160405280600381526020017f31303300000000000000000000000000000000000000000000000000000000008152506040517f08c379a0000000000000000000000000000000000000000000000000000000008152600401611ab89190615485565b60405180910390fd5b611ad56719c99830b5b4654060c01b612aac565b611ae96792805f3a7478451b60c01b612aac565b611afd6746c027269ffad2a760c01b612aac565b6000808373ffffffffffffffffffffffffffffffffffffffff1673ffffffffffffffffffffffffffffffffffffffff16815260200190815260200160002060020160019054906101000a900460ff169050919050565b606060678054611b6290615a16565b80601f0160208091040260200160405190810160405280929190818152602001828054611b8e90615a16565b8015611bdb5780601f10611bb057610100808354040283529160200191611bdb565b820191906000526020600020905b815481529060010190602001808311611bbe57829003601f168201915b5050505050905090565b6060611bfb67798aa39337352c8c60c01b612aac565b611c0f67dab4f449d5de2f6f60c01b612aac565b611c236770d4d7382d2a981660c01b612aac565b6000808373ffffffffffffffffffffffffffffffffffffffff1673ffffffffffffffffffffffffffffffffffffffff168152602001908152602001600020600301544210611d1957611c7f67c5c834afaae4a7d160c01b612aac565b611c9367282dd2059d86991c60c01b612aac565b611ca767bc73e24e23818fec60c01b612aac565b6040518060400160405280600381526020017f31303300000000000000000000000000000000000000000000000000000000008152506040517f08c379a0000000000000000000000000000000000000000000000000000000008152600401611d109190615485565b60405180910390fd5b611d2d673afbff51046f6dc960c01b612aac565b611d4167dc0c995e8c89436c60c01b612aac565b611d5567c8c8ce89cab65bb260c01b612aac565b6000808373ffffffffffffffffffffffffffffffffffffffff1673ffffffffffffffffffffffffffffffffffffffff1681526020019081526020016000206001018054611da190615a16565b80601f0160208091040260200160405190810160405280929190818152602001828054611dcd90615a16565b8015611e1a5780601f10611def57610100808354040283529160200191611e1a565b820191906000526020600020905b815481529060010190602001808311611dfd57829003601f168201915b50505050509050919050565b6000801b81565b611e3f611e386132ef565b8383613720565b5050565b6000611e596732c39d4afc3889c160c01b61153e565b611e6d67dae6db8ba31c013c60c01b61153e565b611e8167b501f3a83b16752260c01b61153e565b6000808373ffffffffffffffffffffffffffffffffffffffff1673ffffffffffffffffffffffffffffffffffffffff16815260200190815260200160002060020160009054906101000a900460ff169050919050565b611ee8611ee26132ef565b8361388d565b611f27576040517f08c379a0000000000000000000000000000000000000000000000000000000008152600401611f1e906154c7565b60405180910390fd5b611f3384848484613922565b50505050565b6000611f4f67c0754c09f9d3a69e60c01b61153e565b611f6367d1e3fdb2292aa24960c01b61153e565b611f77679561272df2bf34be60c01b61153e565b6000808373ffffffffffffffffffffffffffffffffffffffff1673ffffffffffffffffffffffffffffffffffffffff16815260200190815260200160002060020160019054906101000a900460ff169050919050565b611fe167eec4f806109b056360c01b6116b5565b600060018054906101000a900460ff16159050808015612012575060018060009054906101000a900460ff1660ff16105b8061204057506120213061397e565b15801561203f575060018060009054906101000a900460ff1660ff16145b5b61207f576040517f08c379a0000000000000000000000000000000000000000000000000000000008152600401612076906155a7565b60405180910390fd5b60018060006101000a81548160ff021916908360ff16021790555080156120bb5760018060016101000a81548160ff0219169083151502179055505b6120cf6722b7d94b1938f8cd60c01b6116b5565b6120e367845fa192e40eadf860c01b6116b5565b6120f767d6acb33fdf8f4a0e60c01b6116b5565b61210b672e1ac8ffce13240d60c01b6116b5565b6121136139a1565b61212767b2c99be2320a46f060c01b6116b5565b61213b67db5e81f582bcaad060c01b6116b5565b6121af6040518060400160405280601181526020017f50726f6f66206f66204964656e746974790000000000000000000000000000008152506040518060400160405280600581526020017f48312d49440000000000000000000000000000000000000000000000000000008152506139f0565b6121c3675531b2f2cdb00fd460c01b6116b5565b8160cb60006101000a81548173ffffffffffffffffffffffffffffffffffffffff021916908373ffffffffffffffffffffffffffffffffffffffff16021790555061221867c35260d3ca1195ec60c01b6116b5565b61222c6726aa13abf7403bea60c01b6116b5565b6122567f60044782a422109ac08a415e44260ad5d3bad63d96ebe1fac0363399642ee3f2336133c4565b61226a674c082c8f4167302160c01b6116b5565b61227e676e38d6c81f9cab4560c01b6116b5565b61228b6000801b336133c4565b61229f67508b6bb5de8f3fbc60c01b6116b5565b6122b367e9a8f8fb83dc431760c01b6116b5565b6122bd60ca613a4b565b80156123165760006001806101000a81548160ff0219169083151502179055507f7f26b83ff96e1f2b6a682f133852f6798a09c465da95921460cefb3847402498600160405161230d919061546a565b60405180910390a15b5050565b6000919050565b606061233767d9fa80327e35d49360c01b6116b5565b61234b677d940d36bbca069960c01b6116b5565b61235f671db7405e319f6de060c01b6116b5565b6123736783497ce10971c48260c01b6116b5565b61237c82613a61565b6040518060400160405280600381526020017f3130310000000000000000000000000000000000000000000000000000000000815250906123f3576040517f08c379a00000000000000000000000000000000000000000000000000000000081526004016123ea9190615485565b60405180910390fd5b506124086762590d6add00706060c01b6116b5565b61241c67082d46af2af6d0e960c01b6116b5565b6124306727c63058f90a821360c01b6116b5565b60cd6000838152602001908152602001600020805461244e90615a16565b80601f016020809104026020016040519081016040528092919081815260200182805461247a90615a16565b80156124c75780601f1061249c576101008083540402835291602001916124c7565b820191906000526020600020905b8154815290600101906020018083116124aa57829003601f168201915b50505050509050919050565b6124e7677a56ff4044e5432e60c01b6116b5565b7f60044782a422109ac08a415e44260ad5d3bad63d96ebe1fac0363399642ee3f2612511816133b0565b61252567ff7e7f248d33e56560c01b6116b5565b61253967f395fc16c3fbe06660c01b6116b5565b61254d679bbbaef6a682f66360c01b6116b5565b61256167ee7e50a6420af52a60c01b6116b5565b612575670d909d8ca32fd99460c01b6116b5565b60006125808a6116b8565b146040518060400160405280600381526020017f3130300000000000000000000000000000000000000000000000000000000000815250906125f8576040517f08c379a00000000000000000000000000000000000000000000000000000000081526004016125ef9190615485565b60405180910390fd5b5061260d6782dc340fd2ce7a3c60c01b6116b5565b61262167b936a459d9cceeb460c01b6116b5565b6126356733f80892f70f07c260c01b6116b5565b61264967751a1e09c7b26b9760c01b6116b5565b4284116040518060400160405280600381526020017f3130330000000000000000000000000000000000000000000000000000000000815250906126c3576040517f08c379a00000000000000000000000000000000000000000000000000000000081526004016126ba9190615485565b60405180910390fd5b506126d867f93752652b57fda160c01b6116b5565b6126ec6761658d08f3aed9f960c01b6116b5565b61270067ed3a0e877d7a61ba60c01b6116b5565b600061270c60ca6136d5565b9050612722673c9e84b7efa50cce60c01b6116b5565b6040518060a001604052808281526020018a8a8080601f016020809104026020016040519081016040528093929190818152602001838380828437600081840152601f19601f8201169050808301925050505050505081526020018860ff1681526020018760ff168152602001868152506000808c73ffffffffffffffffffffffffffffffffffffffff1673ffffffffffffffffffffffffffffffffffffffff1681526020019081526020016000206000820151816000015560208201518160010190805190602001906127f79291906147c2565b5060408201518160020160006101000a81548160ff021916908360ff16021790555060608201518160020160016101000a81548160ff021916908360ff1602179055506080820151816003015590505061285b6782a506ecba8b3e3660c01b6116b5565b61286f6709758a2c9186cdc960c01b6116b5565b61287960ca613a4b565b61288d67eb47a0b425aa05fa60c01b6116b5565b6128a167cea4da29c53476a760c01b6116b5565b6128ab8a82613aa2565b6128bf67fb0eb89ec11ecc9a60c01b6116b5565b838360cd600084815260200190815260200160002091906128e1929190614848565b506128f6679bec0fbaf82459fe60c01b6116b5565b8060cc60008c73ffffffffffffffffffffffffffffffffffffffff1673ffffffffffffffffffffffffffffffffffffffff1681526020019081526020016000208190555061294e67b5e9978688c1f84060c01b6116b5565b61296267c972f5a40165ec3e60c01b6116b5565b60cb60009054906101000a900473ffffffffffffffffffffffffffffffffffffffff1673ffffffffffffffffffffffffffffffffffffffff16632f7f0a128b6040518263ffffffff1660e01b81526004016129bd91906153f3565b600060405180830381600087803b1580156129d757600080fd5b505af11580156129eb573d6000803e3d6000fd5b50505050612a0367fc195f73a047bb4e60c01b6116b5565b612a1767e3169663323ecdc660c01b6116b5565b808a73ffffffffffffffffffffffffffffffffffffffff167faf62702571aa2959cc884d2d2f058f2dde9f91f8cb7b5a5c62887ec1aef856e760405160405180910390a350505050505050505050565b612a7082610f20565b612a79816133b0565b612a8383836134a5565b505050565b7f60044782a422109ac08a415e44260ad5d3bad63d96ebe1fac0363399642ee3f281565b50565b600060019050919050565b6060612ad067371008949763f33860c01b61153e565b612ae467a5bd462cd2256c0b60c01b61153e565b612af867724c0f716158057260c01b61153e565b6000808373ffffffffffffffffffffffffffffffffffffffff1673ffffffffffffffffffffffffffffffffffffffff1681526020019081526020016000206001018054612b4490615a16565b80601f0160208091040260200160405190810160405280929190818152602001828054612b7090615a16565b8015612bbd5780601f10612b9257610100808354040283529160200191612bbd565b820191906000526020600020905b815481529060010190602001808311612ba057829003601f168201915b50505050509050919050565b6000919050565b612be467d10123d8ec020c8b60c01b6116b5565b7f60044782a422109ac08a415e44260ad5d3bad63d96ebe1fac0363399642ee3f2612c0e816133b0565b612c22678c2a105861bd2b2860c01b6116b5565b612c3667243f9099585693e060c01b6116b5565b612c4a677da896f8bf1cc3cf60c01b6116b5565b612c5e67cccd7a33d4b9fa1060c01b6116b5565b612c7267d40c81e56e7696d860c01b6116b5565b6001612c7d886116b8565b146040518060400160405280600381526020017f313031000000000000000000000000000000000000000000000000000000000081525090612cf5576040517f08c379a0000000000000000000000000000000000000000000000000000000008152600401612cec9190615485565b60405180910390fd5b50612d0a67dc6f840eb155df4c60c01b6116b5565b612d1e67d146a42f7b963b6c60c01b6116b5565b612d32677957dddef68a0dbd60c01b6116b5565b60008060008973ffffffffffffffffffffffffffffffffffffffff1673ffffffffffffffffffffffffffffffffffffffff168152602001908152602001600020600001549050612d8c67071c78acf7c84dec60c01b6116b5565b6040518060a0016040528082815260200188888080601f016020809104026020016040519081016040528093929190818152602001838380828437600081840152601f19601f8201169050808301925050505050505081526020018660ff1681526020018560ff168152602001848152506000808a73ffffffffffffffffffffffffffffffffffffffff1673ffffffffffffffffffffffffffffffffffffffff168152602001908152602001600020600082015181600001556020820151816001019080519060200190612e619291906147c2565b5060408201518160020160006101000a81548160ff021916908360ff16021790555060608201518160020160016101000a81548160ff021916908360ff16021790555060808201518160030155905050612ec567cfbdbd14ea70c18960c01b6116b5565b612ed9670e894815cb1587f660c01b6116b5565b808873ffffffffffffffffffffffffffffffffffffffff167f4a1e31466f875c6fcafefabf90bce8accdf53108c4a309106058ef7aefebd5ce60405160405180910390a35050505050505050565b6000606b60008473ffffffffffffffffffffffffffffffffffffffff1673ffffffffffffffffffffffffffffffffffffffff16815260200190815260200160002060008373ffffffffffffffffffffffffffffffffffffffff1673ffffffffffffffffffffffffffffffffffffffff16815260200190815260200160002060009054906101000a900460ff16905092915050565b50565b6000919050565b612fd967b98ec7237c635eb760c01b6116b5565b7f60044782a422109ac08a415e44260ad5d3bad63d96ebe1fac0363399642ee3f2613003816133b0565b613017679bdea5fbaf414acf60c01b6116b5565b61302b67ce81be1dc86cf1b960c01b6116b5565b61303f6758e6026e0c90f46d60c01b6116b5565b6130536737c927149839212660c01b6116b5565b600060cc60008673ffffffffffffffffffffffffffffffffffffffff1673ffffffffffffffffffffffffffffffffffffffff1681526020019081526020016000205490506130ab67b7b2e8036abaf9fa60c01b6116b5565b6130bf67d884d7a2e493b52d60c01b6116b5565b6130d36714ae4ff4824cc3cb60c01b6116b5565b6130dc81613a61565b6040518060400160405280600381526020017f313031000000000000000000000000000000000000000000000000000000000081525090613153576040517f08c379a000000000000000000000000000000000000000000000000000000000815260040161314a9190615485565b60405180910390fd5b506131686741e97fe671d34fa960c01b6116b5565b61317c67069d0b154fa96c3160c01b6116b5565b838360cd6000848152602001908152602001600020919061319e929190614848565b506131b3670eaed5f196289e1060c01b6116b5565b6131c76771f2625500517a1960c01b6116b5565b83836040516131d7929190615339565b6040518091039020818673ffffffffffffffffffffffffffffffffffffffff167fe3a3e1a0be0d562dd7ec739509d30dfbca7cd174fbc576a45746fe1f3b277c2660405160405180910390a45050505050565b60007f7965db0b000000000000000000000000000000000000000000000000000000007bffffffffffffffffffffffffffffffffffffffffffffffffffffffff1916827bffffffffffffffffffffffffffffffffffffffffffffffffffffffff1916148061329d575061329c82613ac0565b5b9050919050565b6132ad81613a61565b6132ec576040517f08c379a00000000000000000000000000000000000000000000000000000000081526004016132e390615623565b60405180910390fd5b50565b600033905090565b81606a600083815260200190815260200160002060006101000a81548173ffffffffffffffffffffffffffffffffffffffff021916908373ffffffffffffffffffffffffffffffffffffffff160217905550808273ffffffffffffffffffffffffffffffffffffffff1661336a836113d4565b73ffffffffffffffffffffffffffffffffffffffff167f8c5be1e5ebec7d5bd14f71427d1e84f3dd0314c0f7b2291e5b200ac8c7c3b92560405160405180910390a45050565b6133c1816133bc6132ef565b613ba2565b50565b6133ce8282611922565b6134a15760016098600084815260200190815260200160002060000160008373ffffffffffffffffffffffffffffffffffffffff1673ffffffffffffffffffffffffffffffffffffffff16815260200190815260200160002060006101000a81548160ff0219169083151502179055506134466132ef565b73ffffffffffffffffffffffffffffffffffffffff168173ffffffffffffffffffffffffffffffffffffffff16837f2f8788117e7eff1d82e926ec794901d17c78024a50270940304540a733656f0d60405160405180910390a45b5050565b6134af8282611922565b156135835760006098600084815260200190815260200160002060000160008373ffffffffffffffffffffffffffffffffffffffff1673ffffffffffffffffffffffffffffffffffffffff16815260200190815260200160002060006101000a81548160ff0219169083151502179055506135286132ef565b73ffffffffffffffffffffffffffffffffffffffff168173ffffffffffffffffffffffffffffffffffffffff16837ff6391f5c32d9c69d2a47ea670b442974b53935d1edc7fd64eb21e047a839171b60405160405180910390a45b5050565b6000613592826113d4565b90506135a2816000846001613c27565b6135ab826113d4565b9050606a600083815260200190815260200160002060006101000a81549073ffffffffffffffffffffffffffffffffffffffff02191690556001606960008373ffffffffffffffffffffffffffffffffffffffff1673ffffffffffffffffffffffffffffffffffffffff168152602001908152602001600020600082825403925050819055506068600083815260200190815260200160002060006101000a81549073ffffffffffffffffffffffffffffffffffffffff021916905581600073ffffffffffffffffffffffffffffffffffffffff168273ffffffffffffffffffffffffffffffffffffffff167fddf252ad1be2c89b69c2b068fc378daa952ba7f163c4a11628f55a4df523b3ef60405160405180910390a46136d1816000846001613c2d565b5050565b600081600001549050919050565b60006068600083815260200190815260200160002060009054906101000a900473ffffffffffffffffffffffffffffffffffffffff169050919050565b8173ffffffffffffffffffffffffffffffffffffffff168373ffffffffffffffffffffffffffffffffffffffff16141561378f576040517f08c379a000000000000000000000000000000000000000000000000000000000815260040161378690615567565b60405180910390fd5b80606b60008573ffffffffffffffffffffffffffffffffffffffff1673ffffffffffffffffffffffffffffffffffffffff16815260200190815260200160002060008473ffffffffffffffffffffffffffffffffffffffff1673ffffffffffffffffffffffffffffffffffffffff16815260200190815260200160002060006101000a81548160ff0219169083151502179055508173ffffffffffffffffffffffffffffffffffffffff168373ffffffffffffffffffffffffffffffffffffffff167f17307eab39ab6107e8899845ad3d59bd9653f200f220920489ca2b5937696c31836040516138809190615434565b60405180910390a3505050565b600080613899836113d4565b90508073ffffffffffffffffffffffffffffffffffffffff168473ffffffffffffffffffffffffffffffffffffffff1614806138db57506138da8185612f27565b5b8061391957508373ffffffffffffffffffffffffffffffffffffffff1661390184610ac7565b73ffffffffffffffffffffffffffffffffffffffff16145b91505092915050565b61392d848484613c33565b61393984848484613f2d565b613978576040517f08c379a000000000000000000000000000000000000000000000000000000000815260040161396f906154e7565b60405180910390fd5b50505050565b6000808273ffffffffffffffffffffffffffffffffffffffff163b119050919050565b60018054906101000a900460ff166139ee576040517f08c379a00000000000000000000000000000000000000000000000000000000081526004016139e590615683565b60405180910390fd5b565b60018054906101000a900460ff16613a3d576040517f08c379a0000000000000000000000000000000000000000000000000000000008152600401613a3490615683565b60405180910390fd5b613a4782826140c4565b5050565b6001816000016000828254019250508190555050565b60008073ffffffffffffffffffffffffffffffffffffffff16613a83836136e3565b73ffffffffffffffffffffffffffffffffffffffff1614159050919050565b613abc828260405180602001604052806000815250614143565b5050565b60007f80ac58cd000000000000000000000000000000000000000000000000000000007bffffffffffffffffffffffffffffffffffffffffffffffffffffffff1916827bffffffffffffffffffffffffffffffffffffffffffffffffffffffff19161480613b8b57507f5b5e139f000000000000000000000000000000000000000000000000000000007bffffffffffffffffffffffffffffffffffffffffffffffffffffffff1916827bffffffffffffffffffffffffffffffffffffffffffffffffffffffff1916145b80613b9b5750613b9a8261419e565b5b9050919050565b613bac8282611922565b613c2357613bb981614208565b613bc78360001c6020614235565b604051602001613bd8929190615352565b6040516020818303038152906040526040517f08c379a0000000000000000000000000000000000000000000000000000000008152600401613c1a9190615485565b60405180910390fd5b5050565b50505050565b50505050565b8273ffffffffffffffffffffffffffffffffffffffff16613c53826113d4565b73ffffffffffffffffffffffffffffffffffffffff1614613ca9576040517f08c379a0000000000000000000000000000000000000000000000000000000008152600401613ca090615507565b60405180910390fd5b600073ffffffffffffffffffffffffffffffffffffffff168273ffffffffffffffffffffffffffffffffffffffff161415613d19576040517f08c379a0000000000000000000000000000000000000000000000000000000008152600401613d1090615547565b60405180910390fd5b613d268383836001613c27565b8273ffffffffffffffffffffffffffffffffffffffff16613d46826113d4565b73ffffffffffffffffffffffffffffffffffffffff1614613d9c576040517f08c379a0000000000000000000000000000000000000000000000000000000008152600401613d9390615507565b60405180910390fd5b606a600082815260200190815260200160002060006101000a81549073ffffffffffffffffffffffffffffffffffffffff02191690556001606960008573ffffffffffffffffffffffffffffffffffffffff1673ffffffffffffffffffffffffffffffffffffffff168152602001908152602001600020600082825403925050819055506001606960008473ffffffffffffffffffffffffffffffffffffffff1673ffffffffffffffffffffffffffffffffffffffff16815260200190815260200160002060008282540192505081905550816068600083815260200190815260200160002060006101000a81548173ffffffffffffffffffffffffffffffffffffffff021916908373ffffffffffffffffffffffffffffffffffffffff160217905550808273ffffffffffffffffffffffffffffffffffffffff168473ffffffffffffffffffffffffffffffffffffffff167fddf252ad1be2c89b69c2b068fc378daa952ba7f163c4a11628f55a4df523b3ef60405160405180910390a4613f288383836001613c2d565b505050565b6000613f4e8473ffffffffffffffffffffffffffffffffffffffff1661397e565b156140b7578373ffffffffffffffffffffffffffffffffffffffff1663150b7a02613f776132ef565b8786866040518563ffffffff1660e01b8152600401613f9994939291906153a7565b602060405180830381600087803b158015613fb357600080fd5b505af1925050508015613fe457506040513d601f19601f82011682018060405250810190613fe19190614e27565b60015b614067573d8060008114614014576040519150601f19603f3d011682016040523d82523d6000602084013e614019565b606091505b5060008151141561405f576040517f08c379a0000000000000000000000000000000000000000000000000000000008152600401614056906154e7565b60405180910390fd5b805181602001fd5b63150b7a0260e01b7bffffffffffffffffffffffffffffffffffffffffffffffffffffffff1916817bffffffffffffffffffffffffffffffffffffffffffffffffffffffff1916149150506140bc565b600190505b949350505050565b60018054906101000a900460ff16614111576040517f08c379a000000000000000000000000000000000000000000000000000000000815260040161410890615683565b60405180910390fd5b81606690805190602001906141279291906147c2565b50806067908051906020019061413e9291906147c2565b505050565b61414d838361452f565b61415a6000848484613f2d565b614199576040517f08c379a0000000000000000000000000000000000000000000000000000000008152600401614190906154e7565b60405180910390fd5b505050565b60007f01ffc9a7000000000000000000000000000000000000000000000000000000007bffffffffffffffffffffffffffffffffffffffffffffffffffffffff1916827bffffffffffffffffffffffffffffffffffffffffffffffffffffffff1916149050919050565b606061422e8273ffffffffffffffffffffffffffffffffffffffff16601460ff16614235565b9050919050565b6060600060028360026142489190615875565b614252919061581f565b67ffffffffffffffff811115614291577f4e487b7100000000000000000000000000000000000000000000000000000000600052604160045260246000fd5b6040519080825280601f01601f1916602001820160405280156142c35781602001600182028036833780820191505090505b5090507f300000000000000000000000000000000000000000000000000000000000000081600081518110614321577f4e487b7100000000000000000000000000000000000000000000000000000000600052603260045260246000fd5b60200101907effffffffffffffffffffffffffffffffffffffffffffffffffffffffffffff1916908160001a9053507f7800000000000000000000000000000000000000000000000000000000000000816001815181106143ab577f4e487b7100000000000000000000000000000000000000000000000000000000600052603260045260246000fd5b60200101907effffffffffffffffffffffffffffffffffffffffffffffffffffffffffffff1916908160001a905350600060018460026143eb9190615875565b6143f5919061581f565b90505b60018111156144e1577f3031323334353637383961626364656600000000000000000000000000000000600f86166010811061445d577f4e487b7100000000000000000000000000000000000000000000000000000000600052603260045260246000fd5b1a60f81b82828151811061449a577f4e487b7100000000000000000000000000000000000000000000000000000000600052603260045260246000fd5b60200101907effffffffffffffffffffffffffffffffffffffffffffffffffffffffffffff1916908160001a905350600485901c9450806144da906159ec565b90506143f8565b5060008414614525576040517f08c379a000000000000000000000000000000000000000000000000000000000815260040161451c906154a7565b60405180910390fd5b8091505092915050565b600073ffffffffffffffffffffffffffffffffffffffff168273ffffffffffffffffffffffffffffffffffffffff16141561459f576040517f08c379a0000000000000000000000000000000000000000000000000000000008152600401614596906155c7565b60405180910390fd5b6145a881613a61565b156145e8576040517f08c379a00000000000000000000000000000000000000000000000000000000081526004016145df90615527565b60405180910390fd5b6145f6600083836001613c27565b6145ff81613a61565b1561463f576040517f08c379a000000000000000000000000000000000000000000000000000000000815260040161463690615527565b60405180910390fd5b6001606960008473ffffffffffffffffffffffffffffffffffffffff1673ffffffffffffffffffffffffffffffffffffffff16815260200190815260200160002060008282540192505081905550816068600083815260200190815260200160002060006101000a81548173ffffffffffffffffffffffffffffffffffffffff021916908373ffffffffffffffffffffffffffffffffffffffff160217905550808273ffffffffffffffffffffffffffffffffffffffff16600073ffffffffffffffffffffffffffffffffffffffff167fddf252ad1be2c89b69c2b068fc378daa952ba7f163c4a11628f55a4df523b3ef60405160405180910390a4614749600083836001613c2d565b5050565b50805461475990615a16565b6000825580601f1061476b575061478a565b601f01602090049060005260206000209081019061478991906148ce565b5b50565b6040518060a001604052806000815260200160608152602001600060ff168152602001600060ff168152602001600081525090565b8280546147ce90615a16565b90600052602060002090601f0160209004810192826147f05760008555614837565b82601f1061480957805160ff1916838001178555614837565b82800160010185558215614837579182015b8281111561483657825182559160200191906001019061481b565b5b50905061484491906148ce565b5090565b82805461485490615a16565b90600052602060002090601f01602090048101928261487657600085556148bd565b82601f1061488f57803560ff19168380011785556148bd565b828001600101855582156148bd579182015b828111156148bc5782358255916020019190600101906148a1565b5b5090506148ca91906148ce565b5090565b5b808211156148e75760008160009055506001016148cf565b5090565b60006148fe6148f98461579a565b615775565b90508281526020810184848401111561491657600080fd5b6149218482856159aa565b509392505050565b60008135905061493881615f9e565b92915050565b60008135905061494d81615fb5565b92915050565b60008135905061496281615fcc565b92915050565b60008135905061497781615fe3565b92915050565b60008151905061498c81615fe3565b92915050565b6000813590506149a181615ffa565b92915050565b600082601f8301126149b857600080fd5b81356149c88482602086016148eb565b91505092915050565b60008083601f8401126149e357600080fd5b8235905067ffffffffffffffff8111156149fc57600080fd5b602083019150836001820283011115614a1457600080fd5b9250929050565b600081359050614a2a81616011565b92915050565b600081359050614a3f81616028565b92915050565b600060208284031215614a5757600080fd5b6000614a6584828501614929565b91505092915050565b60008060408385031215614a8157600080fd5b6000614a8f85828601614929565b9250506020614aa085828601614929565b9150509250929050565b600080600060608486031215614abf57600080fd5b6000614acd86828701614929565b9350506020614ade86828701614929565b9250506040614aef86828701614a1b565b9150509250925092565b60008060008060808587031215614b0f57600080fd5b6000614b1d87828801614929565b9450506020614b2e87828801614929565b9350506040614b3f87828801614a1b565b925050606085013567ffffffffffffffff811115614b5c57600080fd5b614b68878288016149a7565b91505092959194509250565b60008060408385031215614b8757600080fd5b6000614b9585828601614929565b9250506020614ba68582860161493e565b9150509250929050565b600080600060408486031215614bc557600080fd5b6000614bd386828701614929565b935050602084013567ffffffffffffffff811115614bf057600080fd5b614bfc868287016149d1565b92509250509250925092565b60008060008060008060a08789031215614c2157600080fd5b6000614c2f89828a01614929565b965050602087013567ffffffffffffffff811115614c4c57600080fd5b614c5889828a016149d1565b95509550506040614c6b89828a01614a30565b9350506060614c7c89828a01614a30565b9250506080614c8d89828a01614a1b565b9150509295509295509295565b60008060008060008060008060c0898b031215614cb657600080fd5b6000614cc48b828c01614929565b985050602089013567ffffffffffffffff811115614ce157600080fd5b614ced8b828c016149d1565b97509750506040614d008b828c01614a30565b9550506060614d118b828c01614a30565b9450506080614d228b828c01614a1b565b93505060a089013567ffffffffffffffff811115614d3f57600080fd5b614d4b8b828c016149d1565b92509250509295985092959890939650565b60008060408385031215614d7057600080fd5b6000614d7e85828601614929565b9250506020614d8f85828601614a1b565b9150509250929050565b600060208284031215614dab57600080fd5b6000614db984828501614953565b91505092915050565b60008060408385031215614dd557600080fd5b6000614de385828601614953565b9250506020614df485828601614929565b9150509250929050565b600060208284031215614e1057600080fd5b6000614e1e84828501614968565b91505092915050565b600060208284031215614e3957600080fd5b6000614e478482850161497d565b91505092915050565b600060208284031215614e6257600080fd5b6000614e7084828501614992565b91505092915050565b600060208284031215614e8b57600080fd5b6000614e9984828501614a1b565b91505092915050565b614eab816158cf565b82525050565b614eba816158e1565b82525050565b614ec9816158ed565b82525050565b6000614eda826157cb565b614ee481856157e1565b9350614ef48185602086016159b9565b614efd81615b06565b840191505092915050565b614f1181615986565b82525050565b614f2081615998565b82525050565b6000614f328385615814565b9350614f3f8385846159aa565b82840190509392505050565b6000614f56826157d6565b614f6081856157f2565b9350614f708185602086016159b9565b614f7981615b06565b840191505092915050565b6000614f8f826157d6565b614f998185615803565b9350614fa98185602086016159b9565b614fb281615b06565b840191505092915050565b6000614fc8826157d6565b614fd28185615814565b9350614fe28185602086016159b9565b80840191505092915050565b6000614ffb602083615803565b915061500682615b17565b602082019050919050565b600061501e600683615803565b915061502982615b40565b602082019050919050565b6000615041602d83615803565b915061504c82615b69565b604082019050919050565b6000615064603283615803565b915061506f82615bb8565b604082019050919050565b6000615087602583615803565b915061509282615c07565b604082019050919050565b60006150aa601c83615803565b91506150b582615c56565b602082019050919050565b60006150cd602483615803565b91506150d882615c7f565b604082019050919050565b60006150f0601983615803565b91506150fb82615cce565b602082019050919050565b6000615113602983615803565b915061511e82615cf7565b604082019050919050565b6000615136602e83615803565b915061514182615d46565b604082019050919050565b6000615159602083615803565b915061516482615d95565b602082019050919050565b600061517c600883615803565b915061518782615dbe565b602082019050919050565b600061519f601883615803565b91506151aa82615de7565b602082019050919050565b60006151c2602183615803565b91506151cd82615e10565b604082019050919050565b60006151e5603d83615803565b91506151f082615e5f565b604082019050919050565b6000615208602b83615803565b915061521382615eae565b604082019050919050565b600061522b601783615814565b915061523682615efd565b601782019050919050565b600061524e601183615814565b915061525982615f26565b601182019050919050565b6000615271602f83615803565b915061527c82615f4f565b604082019050919050565b600060a08301600083015161529f60008601826152fd565b50602083015184820360208601526152b78282614f4b565b91505060408301516152cc604086018261531b565b5060608301516152df606086018261531b565b5060808301516152f260808601826152fd565b508091505092915050565b6153068161596f565b82525050565b6153158161596f565b82525050565b61532481615979565b82525050565b61533381615979565b82525050565b6000615346828486614f26565b91508190509392505050565b600061535d8261521e565b91506153698285614fbd565b915061537482615241565b91506153808284614fbd565b91508190509392505050565b60006020820190506153a16000830184614ea2565b92915050565b60006080820190506153bc6000830187614ea2565b6153c96020830186614ea2565b6153d6604083018561530c565b81810360608301526153e88184614ecf565b905095945050505050565b60006060820190506154086000830184614ea2565b81810360208301526154198161516f565b9050818103604083015261542c81615011565b905092915050565b60006020820190506154496000830184614eb1565b92915050565b60006020820190506154646000830184614ec0565b92915050565b600060208201905061547f6000830184614f17565b92915050565b6000602082019050818103600083015261549f8184614f84565b905092915050565b600060208201905081810360008301526154c081614fee565b9050919050565b600060208201905081810360008301526154e081615034565b9050919050565b6000602082019050818103600083015261550081615057565b9050919050565b600060208201905081810360008301526155208161507a565b9050919050565b600060208201905081810360008301526155408161509d565b9050919050565b60006020820190508181036000830152615560816150c0565b9050919050565b60006020820190508181036000830152615580816150e3565b9050919050565b600060208201905081810360008301526155a081615106565b9050919050565b600060208201905081810360008301526155c081615129565b9050919050565b600060208201905081810360008301526155e08161514c565b9050919050565b600060608201905081810360008301526156008161516f565b905061560f6020830185614ea2565b61561c6040830184614f08565b9392505050565b6000602082019050818103600083015261563c81615192565b9050919050565b6000602082019050818103600083015261565c816151b5565b9050919050565b6000602082019050818103600083015261567c816151d8565b9050919050565b6000602082019050818103600083015261569c816151fb565b9050919050565b600060208201905081810360008301526156bc81615264565b9050919050565b600060208201905081810360008301526156dd8184615287565b905092915050565b60006020820190506156fa600083018461530c565b92915050565b600060a082019050615715600083018861530c565b81810360208301526157278187614f84565b9050615736604083018661532a565b615743606083018561532a565b615750608083018461530c565b9695505050505050565b600060208201905061576f600083018461532a565b92915050565b600061577f615790565b905061578b8282615a48565b919050565b6000604051905090565b600067ffffffffffffffff8211156157b5576157b4615ad7565b5b6157be82615b06565b9050602081019050919050565b600081519050919050565b600081519050919050565b600082825260208201905092915050565b600082825260208201905092915050565b600082825260208201905092915050565b600081905092915050565b600061582a8261596f565b91506158358361596f565b9250827fffffffffffffffffffffffffffffffffffffffffffffffffffffffffffffffff0382111561586a57615869615a79565b5b828201905092915050565b60006158808261596f565b915061588b8361596f565b9250817fffffffffffffffffffffffffffffffffffffffffffffffffffffffffffffffff04831182151516156158c4576158c3615a79565b5b828202905092915050565b60006158da8261594f565b9050919050565b60008115159050919050565b6000819050919050565b60007fffffffff0000000000000000000000000000000000000000000000000000000082169050919050565b60007fffffffffffffffff00000000000000000000000000000000000000000000000082169050919050565b600073ffffffffffffffffffffffffffffffffffffffff82169050919050565b6000819050919050565b600060ff82169050919050565b60006159918261596f565b9050919050565b60006159a382615979565b9050919050565b82818337600083830152505050565b60005b838110156159d75780820151818401526020810190506159bc565b838111156159e6576000848401525b50505050565b60006159f78261596f565b91506000821415615a0b57615a0a615a79565b5b600182039050919050565b60006002820490506001821680615a2e57607f821691505b60208210811415615a4257615a41615aa8565b5b50919050565b615a5182615b06565b810181811067ffffffffffffffff82111715615a7057615a6f615ad7565b5b80604052505050565b7f4e487b7100000000000000000000000000000000000000000000000000000000600052601160045260246000fd5b7f4e487b7100000000000000000000000000000000000000000000000000000000600052602260045260246000fd5b7f4e487b7100000000000000000000000000000000000000000000000000000000600052604160045260246000fd5b6000601f19601f8301169050919050565b7f537472696e67733a20686578206c656e67746820696e73756666696369656e74600082015250565b7f565443414c4c0000000000000000000000000000000000000000000000000000600082015250565b7f4552433732313a2063616c6c6572206973206e6f7420746f6b656e206f776e6560008201527f72206f7220617070726f76656400000000000000000000000000000000000000602082015250565b7f4552433732313a207472616e7366657220746f206e6f6e20455243373231526560008201527f63656976657220696d706c656d656e7465720000000000000000000000000000602082015250565b7f4552433732313a207472616e736665722066726f6d20696e636f72726563742060008201527f6f776e6572000000000000000000000000000000000000000000000000000000602082015250565b7f4552433732313a20746f6b656e20616c7265616479206d696e74656400000000600082015250565b7f4552433732313a207472616e7366657220746f20746865207a65726f2061646460008201527f7265737300000000000000000000000000000000000000000000000000000000602082015250565b7f4552433732313a20617070726f766520746f2063616c6c657200000000000000600082015250565b7f4552433732313a2061646472657373207a65726f206973206e6f74206120766160008201527f6c6964206f776e65720000000000000000000000000000000000000000000000602082015250565b7f496e697469616c697a61626c653a20636f6e747261637420697320616c72656160008201527f647920696e697469616c697a6564000000000000000000000000000000000000602082015250565b7f4552433732313a206d696e7420746f20746865207a65726f2061646472657373600082015250565b7f41444d494e4f5247000000000000000000000000000000000000000000000000600082015250565b7f4552433732313a20696e76616c696420746f6b656e2049440000000000000000600082015250565b7f4552433732313a20617070726f76616c20746f2063757272656e74206f776e6560008201527f7200000000000000000000000000000000000000000000000000000000000000602082015250565b7f4552433732313a20617070726f76652063616c6c6572206973206e6f7420746f60008201527f6b656e206f776e6572206f7220617070726f76656420666f7220616c6c000000602082015250565b7f496e697469616c697a61626c653a20636f6e7472616374206973206e6f74206960008201527f6e697469616c697a696e67000000000000000000000000000000000000000000602082015250565b7f416363657373436f6e74726f6c3a206163636f756e7420000000000000000000600082015250565b7f206973206d697373696e6720726f6c6520000000000000000000000000000000600082015250565b7f416363657373436f6e74726f6c3a2063616e206f6e6c792072656e6f756e636560008201527f20726f6c657320666f722073656c660000000000000000000000000000000000602082015250565b615fa7816158cf565b8114615fb257600080fd5b50565b615fbe816158e1565b8114615fc957600080fd5b50565b615fd5816158ed565b8114615fe057600080fd5b50565b615fec816158f7565b8114615ff757600080fd5b50565b61600381615923565b811461600e57600080fd5b50565b61601a8161596f565b811461602557600080fd5b50565b61603181615979565b811461603c57600080fd5b5056fea264697066735822122038095a7d14366ce1bc65ca666b38a9edb039cebbd1641e542672974e4310bdfc64736f6c63430008020033","opcodes":"PUSH1 0x80 PUSH1 0x40 MSTORE CALLVALUE DUP1 ISZERO PUSH2 0x10 JUMPI PUSH1 0x0 DUP1 REVERT JUMPDEST POP PUSH2 0x6075 DUP1 PUSH3 0x21 PUSH1 0x0 CODECOPY PUSH1 0x0 RETURN INVALID PUSH1 0x80 PUSH1 0x40 MSTORE CALLVALUE DUP1 ISZERO PUSH2 0x10 JUMPI PUSH1 0x0 DUP1 REVERT JUMPDEST POP PUSH1 0x4 CALLDATASIZE LT PUSH2 0x2A0 JUMPI PUSH1 0x0 CALLDATALOAD PUSH1 0xE0 SHR DUP1 PUSH4 0x91D14854 GT PUSH2 0x167 JUMPI DUP1 PUSH4 0xD4EC9096 GT PUSH2 0xCE JUMPI DUP1 PUSH4 0xE2D07959 GT PUSH2 0x87 JUMPI DUP1 PUSH4 0xE2D07959 EQ PUSH2 0x903 JUMPI DUP1 PUSH4 0xE86573E4 EQ PUSH2 0x933 JUMPI DUP1 PUSH4 0xE985E9C5 EQ PUSH2 0x94F JUMPI DUP1 PUSH4 0xEC4D57B3 EQ PUSH2 0x97F JUMPI DUP1 PUSH4 0xEC895731 EQ PUSH2 0x99B JUMPI DUP1 PUSH4 0xF6A4B4D7 EQ PUSH2 0x9CB JUMPI PUSH2 0x2A0 JUMP JUMPDEST DUP1 PUSH4 0xD4EC9096 EQ PUSH2 0x831 JUMPI DUP1 PUSH4 0xD547741F EQ PUSH2 0x84D JUMPI DUP1 PUSH4 0xDC9A4EF6 EQ PUSH2 0x869 JUMPI DUP1 PUSH4 0xDD9E9392 EQ PUSH2 0x887 JUMPI DUP1 PUSH4 0xDEE4C709 EQ PUSH2 0x8A3 JUMPI DUP1 PUSH4 0xDFB24B89 EQ PUSH2 0x8D3 JUMPI PUSH2 0x2A0 JUMP JUMPDEST DUP1 PUSH4 0xB467177F GT PUSH2 0x120 JUMPI DUP1 PUSH4 0xB467177F EQ PUSH2 0x739 JUMPI DUP1 PUSH4 0xB88D4FDE EQ PUSH2 0x769 JUMPI DUP1 PUSH4 0xC207E9E0 EQ PUSH2 0x785 JUMPI DUP1 PUSH4 0xC4D66DE8 EQ PUSH2 0x7B5 JUMPI DUP1 PUSH4 0xC8755ECF EQ PUSH2 0x7D1 JUMPI DUP1 PUSH4 0xC87B56DD EQ PUSH2 0x801 JUMPI PUSH2 0x2A0 JUMP JUMPDEST DUP1 PUSH4 0x91D14854 EQ PUSH2 0x651 JUMPI DUP1 PUSH4 0x949CDD6E EQ PUSH2 0x681 JUMPI DUP1 PUSH4 0x95D89B41 EQ PUSH2 0x6B1 JUMPI DUP1 PUSH4 0x96257E4D EQ PUSH2 0x6CF JUMPI DUP1 PUSH4 0xA217FDDF EQ PUSH2 0x6FF JUMPI DUP1 PUSH4 0xA22CB465 EQ PUSH2 0x71D JUMPI PUSH2 0x2A0 JUMP JUMPDEST DUP1 PUSH4 0x42842E0E GT PUSH2 0x20B JUMPI DUP1 PUSH4 0x6C193733 GT PUSH2 0x1C4 JUMPI DUP1 PUSH4 0x6C193733 EQ PUSH2 0x56D JUMPI DUP1 PUSH4 0x6CA5FDE8 EQ PUSH2 0x589 JUMPI DUP1 PUSH4 0x6F905BFC EQ PUSH2 0x5B9 JUMPI DUP1 PUSH4 0x70A08231 EQ PUSH2 0x5D5 JUMPI DUP1 PUSH4 0x80A5A896 EQ PUSH2 0x605 JUMPI DUP1 PUSH4 0x89254975 EQ PUSH2 0x621 JUMPI PUSH2 0x2A0 JUMP JUMPDEST DUP1 PUSH4 0x42842E0E EQ PUSH2 0x46F JUMPI DUP1 PUSH4 0x56189236 EQ PUSH2 0x48B JUMPI DUP1 PUSH4 0x5AFC5755 EQ PUSH2 0x4A9 JUMPI DUP1 PUSH4 0x6352211E EQ PUSH2 0x4D9 JUMPI DUP1 PUSH4 0x6782B1B1 EQ PUSH2 0x509 JUMPI DUP1 PUSH4 0x688EA9FE EQ PUSH2 0x539 JUMPI PUSH2 0x2A0 JUMP JUMPDEST DUP1 PUSH4 0x23B872DD GT PUSH2 0x25D JUMPI DUP1 PUSH4 0x23B872DD EQ PUSH2 0x39F JUMPI DUP1 PUSH4 0x248A9CA3 EQ PUSH2 0x3BB JUMPI DUP1 PUSH4 0x26AEEEFF EQ PUSH2 0x3EB JUMPI DUP1 PUSH4 0x2F2FF15D EQ PUSH2 0x41B JUMPI DUP1 PUSH4 0x36568ABE EQ PUSH2 0x437 JUMPI DUP1 PUSH4 0x3BC2C078 EQ PUSH2 0x453 JUMPI PUSH2 0x2A0 JUMP JUMPDEST DUP1 PUSH4 0x1FFC9A7 EQ PUSH2 0x2A5 JUMPI DUP1 PUSH4 0x6FDDE03 EQ PUSH2 0x2D5 JUMPI DUP1 PUSH4 0x81812FC EQ PUSH2 0x2F3 JUMPI DUP1 PUSH4 0x9299EA3 EQ PUSH2 0x323 JUMPI DUP1 PUSH4 0x95EA7B3 EQ PUSH2 0x353 JUMPI DUP1 PUSH4 0x1FE0094A EQ PUSH2 0x36F JUMPI JUMPDEST PUSH1 0x0 DUP1 REVERT JUMPDEST PUSH2 0x2BF PUSH1 0x4 DUP1 CALLDATASIZE SUB DUP2 ADD SWAP1 PUSH2 0x2BA SWAP2 SWAP1 PUSH2 0x4DFE JUMP JUMPDEST PUSH2 0x9E7 JUMP JUMPDEST PUSH1 0x40 MLOAD PUSH2 0x2CC SWAP2 SWAP1 PUSH2 0x5434 JUMP JUMPDEST PUSH1 0x40 MLOAD DUP1 SWAP2 SUB SWAP1 RETURN JUMPDEST PUSH2 0x2DD PUSH2 0xA35 JUMP JUMPDEST PUSH1 0x40 MLOAD PUSH2 0x2EA SWAP2 SWAP1 PUSH2 0x5485 JUMP JUMPDEST PUSH1 0x40 MLOAD DUP1 SWAP2 SUB SWAP1 RETURN JUMPDEST PUSH2 0x30D PUSH1 0x4 DUP1 CALLDATASIZE SUB DUP2 ADD SWAP1 PUSH2 0x308 SWAP2 SWAP1 PUSH2 0x4E79 JUMP JUMPDEST PUSH2 0xAC7 JUMP JUMPDEST PUSH1 0x40 MLOAD PUSH2 0x31A SWAP2 SWAP1 PUSH2 0x538C JUMP JUMPDEST PUSH1 0x40 MLOAD DUP1 SWAP2 SUB SWAP1 RETURN JUMPDEST PUSH2 0x33D PUSH1 0x4 DUP1 CALLDATASIZE SUB DUP2 ADD SWAP1 PUSH2 0x338 SWAP2 SWAP1 PUSH2 0x4A45 JUMP JUMPDEST PUSH2 0xB0D JUMP JUMPDEST PUSH1 0x40 MLOAD PUSH2 0x34A SWAP2 SWAP1 PUSH2 0x56E5 JUMP JUMPDEST PUSH1 0x40 MLOAD DUP1 SWAP2 SUB SWAP1 RETURN JUMPDEST PUSH2 0x36D PUSH1 0x4 DUP1 CALLDATASIZE SUB DUP2 ADD SWAP1 PUSH2 0x368 SWAP2 SWAP1 PUSH2 0x4D5D JUMP JUMPDEST PUSH2 0xB94 JUMP JUMPDEST STOP JUMPDEST PUSH2 0x389 PUSH1 0x4 DUP1 CALLDATASIZE SUB DUP2 ADD SWAP1 PUSH2 0x384 SWAP2 SWAP1 PUSH2 0x4A45 JUMP JUMPDEST PUSH2 0xCAC JUMP JUMPDEST PUSH1 0x40 MLOAD PUSH2 0x396 SWAP2 SWAP1 PUSH2 0x575A JUMP JUMPDEST PUSH1 0x40 MLOAD DUP1 SWAP2 SUB SWAP1 RETURN JUMPDEST PUSH2 0x3B9 PUSH1 0x4 DUP1 CALLDATASIZE SUB DUP2 ADD SWAP1 PUSH2 0x3B4 SWAP2 SWAP1 PUSH2 0x4AAA JUMP JUMPDEST PUSH2 0xE72 JUMP JUMPDEST STOP JUMPDEST PUSH2 0x3D5 PUSH1 0x4 DUP1 CALLDATASIZE SUB DUP2 ADD SWAP1 PUSH2 0x3D0 SWAP2 SWAP1 PUSH2 0x4D99 JUMP JUMPDEST PUSH2 0xF20 JUMP JUMPDEST PUSH1 0x40 MLOAD PUSH2 0x3E2 SWAP2 SWAP1 PUSH2 0x544F JUMP JUMPDEST PUSH1 0x40 MLOAD DUP1 SWAP2 SUB SWAP1 RETURN JUMPDEST PUSH2 0x405 PUSH1 0x4 DUP1 CALLDATASIZE SUB DUP2 ADD SWAP1 PUSH2 0x400 SWAP2 SWAP1 PUSH2 0x4E50 JUMP JUMPDEST PUSH2 0xF40 JUMP JUMPDEST PUSH1 0x40 MLOAD PUSH2 0x412 SWAP2 SWAP1 PUSH2 0x5434 JUMP JUMPDEST PUSH1 0x40 MLOAD DUP1 SWAP2 SUB SWAP1 RETURN JUMPDEST PUSH2 0x435 PUSH1 0x4 DUP1 CALLDATASIZE SUB DUP2 ADD SWAP1 PUSH2 0x430 SWAP2 SWAP1 PUSH2 0x4DC2 JUMP JUMPDEST PUSH2 0xF4B JUMP JUMPDEST STOP JUMPDEST PUSH2 0x451 PUSH1 0x4 DUP1 CALLDATASIZE SUB DUP2 ADD SWAP1 PUSH2 0x44C SWAP2 SWAP1 PUSH2 0x4DC2 JUMP JUMPDEST PUSH2 0xF6C JUMP JUMPDEST STOP JUMPDEST PUSH2 0x46D PUSH1 0x4 DUP1 CALLDATASIZE SUB DUP2 ADD SWAP1 PUSH2 0x468 SWAP2 SWAP1 PUSH2 0x4BB0 JUMP JUMPDEST PUSH2 0xFEF JUMP JUMPDEST STOP JUMPDEST PUSH2 0x489 PUSH1 0x4 DUP1 CALLDATASIZE SUB DUP2 ADD SWAP1 PUSH2 0x484 SWAP2 SWAP1 PUSH2 0x4AAA JUMP JUMPDEST PUSH2 0x12D2 JUMP JUMPDEST STOP JUMPDEST PUSH2 0x493 PUSH2 0x1380 JUMP JUMPDEST PUSH1 0x40 MLOAD PUSH2 0x4A0 SWAP2 SWAP1 PUSH2 0x56E5 JUMP JUMPDEST PUSH1 0x40 MLOAD DUP1 SWAP2 SUB SWAP1 RETURN JUMPDEST PUSH2 0x4C3 PUSH1 0x4 DUP1 CALLDATASIZE SUB DUP2 ADD SWAP1 PUSH2 0x4BE SWAP2 SWAP1 PUSH2 0x4E50 JUMP JUMPDEST PUSH2 0x13CD JUMP JUMPDEST PUSH1 0x40 MLOAD PUSH2 0x4D0 SWAP2 SWAP1 PUSH2 0x5434 JUMP JUMPDEST PUSH1 0x40 MLOAD DUP1 SWAP2 SUB SWAP1 RETURN JUMPDEST PUSH2 0x4F3 PUSH1 0x4 DUP1 CALLDATASIZE SUB DUP2 ADD SWAP1 PUSH2 0x4EE SWAP2 SWAP1 PUSH2 0x4E79 JUMP JUMPDEST PUSH2 0x13D4 JUMP JUMPDEST PUSH1 0x40 MLOAD PUSH2 0x500 SWAP2 SWAP1 PUSH2 0x538C JUMP JUMPDEST PUSH1 0x40 MLOAD DUP1 SWAP2 SUB SWAP1 RETURN JUMPDEST PUSH2 0x523 PUSH1 0x4 DUP1 CALLDATASIZE SUB DUP2 ADD SWAP1 PUSH2 0x51E SWAP2 SWAP1 PUSH2 0x4E50 JUMP JUMPDEST PUSH2 0x145B JUMP JUMPDEST PUSH1 0x40 MLOAD PUSH2 0x530 SWAP2 SWAP1 PUSH2 0x5434 JUMP JUMPDEST PUSH1 0x40 MLOAD DUP1 SWAP2 SUB SWAP1 RETURN JUMPDEST PUSH2 0x553 PUSH1 0x4 DUP1 CALLDATASIZE SUB DUP2 ADD SWAP1 PUSH2 0x54E SWAP2 SWAP1 PUSH2 0x4A45 JUMP JUMPDEST PUSH2 0x1466 JUMP JUMPDEST PUSH1 0x40 MLOAD PUSH2 0x564 SWAP6 SWAP5 SWAP4 SWAP3 SWAP2 SWAP1 PUSH2 0x5700 JUMP JUMPDEST PUSH1 0x40 MLOAD DUP1 SWAP2 SUB SWAP1 RETURN JUMPDEST PUSH2 0x587 PUSH1 0x4 DUP1 CALLDATASIZE SUB DUP2 ADD SWAP1 PUSH2 0x582 SWAP2 SWAP1 PUSH2 0x4E50 JUMP JUMPDEST PUSH2 0x153E JUMP JUMPDEST STOP JUMPDEST PUSH2 0x5A3 PUSH1 0x4 DUP1 CALLDATASIZE SUB DUP2 ADD SWAP1 PUSH2 0x59E SWAP2 SWAP1 PUSH2 0x4A45 JUMP JUMPDEST PUSH2 0x1541 JUMP JUMPDEST PUSH1 0x40 MLOAD PUSH2 0x5B0 SWAP2 SWAP1 PUSH2 0x56C3 JUMP JUMPDEST PUSH1 0x40 MLOAD DUP1 SWAP2 SUB SWAP1 RETURN JUMPDEST PUSH2 0x5D3 PUSH1 0x4 DUP1 CALLDATASIZE SUB DUP2 ADD SWAP1 PUSH2 0x5CE SWAP2 SWAP1 PUSH2 0x4E50 JUMP JUMPDEST PUSH2 0x16B5 JUMP JUMPDEST STOP JUMPDEST PUSH2 0x5EF PUSH1 0x4 DUP1 CALLDATASIZE SUB DUP2 ADD SWAP1 PUSH2 0x5EA SWAP2 SWAP1 PUSH2 0x4A45 JUMP JUMPDEST PUSH2 0x16B8 JUMP JUMPDEST PUSH1 0x40 MLOAD PUSH2 0x5FC SWAP2 SWAP1 PUSH2 0x56E5 JUMP JUMPDEST PUSH1 0x40 MLOAD DUP1 SWAP2 SUB SWAP1 RETURN JUMPDEST PUSH2 0x61F PUSH1 0x4 DUP1 CALLDATASIZE SUB DUP2 ADD SWAP1 PUSH2 0x61A SWAP2 SWAP1 PUSH2 0x4BB0 JUMP JUMPDEST PUSH2 0x1770 JUMP JUMPDEST STOP JUMPDEST PUSH2 0x63B PUSH1 0x4 DUP1 CALLDATASIZE SUB DUP2 ADD SWAP1 PUSH2 0x636 SWAP2 SWAP1 PUSH2 0x4E50 JUMP JUMPDEST PUSH2 0x1917 JUMP JUMPDEST PUSH1 0x40 MLOAD PUSH2 0x648 SWAP2 SWAP1 PUSH2 0x5434 JUMP JUMPDEST PUSH1 0x40 MLOAD DUP1 SWAP2 SUB SWAP1 RETURN JUMPDEST PUSH2 0x66B PUSH1 0x4 DUP1 CALLDATASIZE SUB DUP2 ADD SWAP1 PUSH2 0x666 SWAP2 SWAP1 PUSH2 0x4DC2 JUMP JUMPDEST PUSH2 0x1922 JUMP JUMPDEST PUSH1 0x40 MLOAD PUSH2 0x678 SWAP2 SWAP1 PUSH2 0x5434 JUMP JUMPDEST PUSH1 0x40 MLOAD DUP1 SWAP2 SUB SWAP1 RETURN JUMPDEST PUSH2 0x69B PUSH1 0x4 DUP1 CALLDATASIZE SUB DUP2 ADD SWAP1 PUSH2 0x696 SWAP2 SWAP1 PUSH2 0x4A45 JUMP JUMPDEST PUSH2 0x198D JUMP JUMPDEST PUSH1 0x40 MLOAD PUSH2 0x6A8 SWAP2 SWAP1 PUSH2 0x575A JUMP JUMPDEST PUSH1 0x40 MLOAD DUP1 SWAP2 SUB SWAP1 RETURN JUMPDEST PUSH2 0x6B9 PUSH2 0x1B53 JUMP JUMPDEST PUSH1 0x40 MLOAD PUSH2 0x6C6 SWAP2 SWAP1 PUSH2 0x5485 JUMP JUMPDEST PUSH1 0x40 MLOAD DUP1 SWAP2 SUB SWAP1 RETURN JUMPDEST PUSH2 0x6E9 PUSH1 0x4 DUP1 CALLDATASIZE SUB DUP2 ADD SWAP1 PUSH2 0x6E4 SWAP2 SWAP1 PUSH2 0x4A45 JUMP JUMPDEST PUSH2 0x1BE5 JUMP JUMPDEST PUSH1 0x40 MLOAD PUSH2 0x6F6 SWAP2 SWAP1 PUSH2 0x5485 JUMP JUMPDEST PUSH1 0x40 MLOAD DUP1 SWAP2 SUB SWAP1 RETURN JUMPDEST PUSH2 0x707 PUSH2 0x1E26 JUMP JUMPDEST PUSH1 0x40 MLOAD PUSH2 0x714 SWAP2 SWAP1 PUSH2 0x544F JUMP JUMPDEST PUSH1 0x40 MLOAD DUP1 SWAP2 SUB SWAP1 RETURN JUMPDEST PUSH2 0x737 PUSH1 0x4 DUP1 CALLDATASIZE SUB DUP2 ADD SWAP1 PUSH2 0x732 SWAP2 SWAP1 PUSH2 0x4B74 JUMP JUMPDEST PUSH2 0x1E2D JUMP JUMPDEST STOP JUMPDEST PUSH2 0x753 PUSH1 0x4 DUP1 CALLDATASIZE SUB DUP2 ADD SWAP1 PUSH2 0x74E SWAP2 SWAP1 PUSH2 0x4A45 JUMP JUMPDEST PUSH2 0x1E43 JUMP JUMPDEST PUSH1 0x40 MLOAD PUSH2 0x760 SWAP2 SWAP1 PUSH2 0x575A JUMP JUMPDEST PUSH1 0x40 MLOAD DUP1 SWAP2 SUB SWAP1 RETURN JUMPDEST PUSH2 0x783 PUSH1 0x4 DUP1 CALLDATASIZE SUB DUP2 ADD SWAP1 PUSH2 0x77E SWAP2 SWAP1 PUSH2 0x4AF9 JUMP JUMPDEST PUSH2 0x1ED7 JUMP JUMPDEST STOP JUMPDEST PUSH2 0x79F PUSH1 0x4 DUP1 CALLDATASIZE SUB DUP2 ADD SWAP1 PUSH2 0x79A SWAP2 SWAP1 PUSH2 0x4A45 JUMP JUMPDEST PUSH2 0x1F39 JUMP JUMPDEST PUSH1 0x40 MLOAD PUSH2 0x7AC SWAP2 SWAP1 PUSH2 0x575A JUMP JUMPDEST PUSH1 0x40 MLOAD DUP1 SWAP2 SUB SWAP1 RETURN JUMPDEST PUSH2 0x7CF PUSH1 0x4 DUP1 CALLDATASIZE SUB DUP2 ADD SWAP1 PUSH2 0x7CA SWAP2 SWAP1 PUSH2 0x4A45 JUMP JUMPDEST PUSH2 0x1FCD JUMP JUMPDEST STOP JUMPDEST PUSH2 0x7EB PUSH1 0x4 DUP1 CALLDATASIZE SUB DUP2 ADD SWAP1 PUSH2 0x7E6 SWAP2 SWAP1 PUSH2 0x4E50 JUMP JUMPDEST PUSH2 0x231A JUMP JUMPDEST PUSH1 0x40 MLOAD PUSH2 0x7F8 SWAP2 SWAP1 PUSH2 0x5434 JUMP JUMPDEST PUSH1 0x40 MLOAD DUP1 SWAP2 SUB SWAP1 RETURN JUMPDEST PUSH2 0x81B PUSH1 0x4 DUP1 CALLDATASIZE SUB DUP2 ADD SWAP1 PUSH2 0x816 SWAP2 SWAP1 PUSH2 0x4E79 JUMP JUMPDEST PUSH2 0x2321 JUMP JUMPDEST PUSH1 0x40 MLOAD PUSH2 0x828 SWAP2 SWAP1 PUSH2 0x5485 JUMP JUMPDEST PUSH1 0x40 MLOAD DUP1 SWAP2 SUB SWAP1 RETURN JUMPDEST PUSH2 0x84B PUSH1 0x4 DUP1 CALLDATASIZE SUB DUP2 ADD SWAP1 PUSH2 0x846 SWAP2 SWAP1 PUSH2 0x4C9A JUMP JUMPDEST PUSH2 0x24D3 JUMP JUMPDEST STOP JUMPDEST PUSH2 0x867 PUSH1 0x4 DUP1 CALLDATASIZE SUB DUP2 ADD SWAP1 PUSH2 0x862 SWAP2 SWAP1 PUSH2 0x4DC2 JUMP JUMPDEST PUSH2 0x2A67 JUMP JUMPDEST STOP JUMPDEST PUSH2 0x871 PUSH2 0x2A88 JUMP JUMPDEST PUSH1 0x40 MLOAD PUSH2 0x87E SWAP2 SWAP1 PUSH2 0x544F JUMP JUMPDEST PUSH1 0x40 MLOAD DUP1 SWAP2 SUB SWAP1 RETURN JUMPDEST PUSH2 0x8A1 PUSH1 0x4 DUP1 CALLDATASIZE SUB DUP2 ADD SWAP1 PUSH2 0x89C SWAP2 SWAP1 PUSH2 0x4E50 JUMP JUMPDEST PUSH2 0x2AAC JUMP JUMPDEST STOP JUMPDEST PUSH2 0x8BD PUSH1 0x4 DUP1 CALLDATASIZE SUB DUP2 ADD SWAP1 PUSH2 0x8B8 SWAP2 SWAP1 PUSH2 0x4E50 JUMP JUMPDEST PUSH2 0x2AAF JUMP JUMPDEST PUSH1 0x40 MLOAD PUSH2 0x8CA SWAP2 SWAP1 PUSH2 0x5434 JUMP JUMPDEST PUSH1 0x40 MLOAD DUP1 SWAP2 SUB SWAP1 RETURN JUMPDEST PUSH2 0x8ED PUSH1 0x4 DUP1 CALLDATASIZE SUB DUP2 ADD SWAP1 PUSH2 0x8E8 SWAP2 SWAP1 PUSH2 0x4A45 JUMP JUMPDEST PUSH2 0x2ABA JUMP JUMPDEST PUSH1 0x40 MLOAD PUSH2 0x8FA SWAP2 SWAP1 PUSH2 0x5485 JUMP JUMPDEST PUSH1 0x40 MLOAD DUP1 SWAP2 SUB SWAP1 RETURN JUMPDEST PUSH2 0x91D PUSH1 0x4 DUP1 CALLDATASIZE SUB DUP2 ADD SWAP1 PUSH2 0x918 SWAP2 SWAP1 PUSH2 0x4E50 JUMP JUMPDEST PUSH2 0x2BC9 JUMP JUMPDEST PUSH1 0x40 MLOAD PUSH2 0x92A SWAP2 SWAP1 PUSH2 0x5434 JUMP JUMPDEST PUSH1 0x40 MLOAD DUP1 SWAP2 SUB SWAP1 RETURN JUMPDEST PUSH2 0x94D PUSH1 0x4 DUP1 CALLDATASIZE SUB DUP2 ADD SWAP1 PUSH2 0x948 SWAP2 SWAP1 PUSH2 0x4C08 JUMP JUMPDEST PUSH2 0x2BD0 JUMP JUMPDEST STOP JUMPDEST PUSH2 0x969 PUSH1 0x4 DUP1 CALLDATASIZE SUB DUP2 ADD SWAP1 PUSH2 0x964 SWAP2 SWAP1 PUSH2 0x4A6E JUMP JUMPDEST PUSH2 0x2F27 JUMP JUMPDEST PUSH1 0x40 MLOAD PUSH2 0x976 SWAP2 SWAP1 PUSH2 0x5434 JUMP JUMPDEST PUSH1 0x40 MLOAD DUP1 SWAP2 SUB SWAP1 RETURN JUMPDEST PUSH2 0x999 PUSH1 0x4 DUP1 CALLDATASIZE SUB DUP2 ADD SWAP1 PUSH2 0x994 SWAP2 SWAP1 PUSH2 0x4E50 JUMP JUMPDEST PUSH2 0x2FBB JUMP JUMPDEST STOP JUMPDEST PUSH2 0x9B5 PUSH1 0x4 DUP1 CALLDATASIZE SUB DUP2 ADD SWAP1 PUSH2 0x9B0 SWAP2 SWAP1 PUSH2 0x4E50 JUMP JUMPDEST PUSH2 0x2FBE JUMP JUMPDEST PUSH1 0x40 MLOAD PUSH2 0x9C2 SWAP2 SWAP1 PUSH2 0x5434 JUMP JUMPDEST PUSH1 0x40 MLOAD DUP1 SWAP2 SUB SWAP1 RETURN JUMPDEST PUSH2 0x9E5 PUSH1 0x4 DUP1 CALLDATASIZE SUB DUP2 ADD SWAP1 PUSH2 0x9E0 SWAP2 SWAP1 PUSH2 0x4BB0 JUMP JUMPDEST PUSH2 0x2FC5 JUMP JUMPDEST STOP JUMPDEST PUSH1 0x0 PUSH2 0x9FD PUSH8 0xBB394FF964957383 PUSH1 0xC0 SHL PUSH2 0x16B5 JUMP JUMPDEST PUSH2 0xA11 PUSH8 0x51DEB66D51087421 PUSH1 0xC0 SHL PUSH2 0x16B5 JUMP JUMPDEST PUSH2 0xA25 PUSH8 0x40A84345FF486F40 PUSH1 0xC0 SHL PUSH2 0x16B5 JUMP JUMPDEST PUSH2 0xA2E DUP3 PUSH2 0x322A JUMP JUMPDEST SWAP1 POP SWAP2 SWAP1 POP JUMP JUMPDEST PUSH1 0x60 PUSH1 0x66 DUP1 SLOAD PUSH2 0xA44 SWAP1 PUSH2 0x5A16 JUMP JUMPDEST DUP1 PUSH1 0x1F ADD PUSH1 0x20 DUP1 SWAP2 DIV MUL PUSH1 0x20 ADD PUSH1 0x40 MLOAD SWAP1 DUP2 ADD PUSH1 0x40 MSTORE DUP1 SWAP3 SWAP2 SWAP1 DUP2 DUP2 MSTORE PUSH1 0x20 ADD DUP3 DUP1 SLOAD PUSH2 0xA70 SWAP1 PUSH2 0x5A16 JUMP JUMPDEST DUP1 ISZERO PUSH2 0xABD JUMPI DUP1 PUSH1 0x1F LT PUSH2 0xA92 JUMPI PUSH2 0x100 DUP1 DUP4 SLOAD DIV MUL DUP4 MSTORE SWAP2 PUSH1 0x20 ADD SWAP2 PUSH2 0xABD JUMP JUMPDEST DUP3 ADD SWAP2 SWAP1 PUSH1 0x0 MSTORE PUSH1 0x20 PUSH1 0x0 KECCAK256 SWAP1 JUMPDEST DUP2 SLOAD DUP2 MSTORE SWAP1 PUSH1 0x1 ADD SWAP1 PUSH1 0x20 ADD DUP1 DUP4 GT PUSH2 0xAA0 JUMPI DUP3 SWAP1 SUB PUSH1 0x1F AND DUP3 ADD SWAP2 JUMPDEST POP POP POP POP POP SWAP1 POP SWAP1 JUMP JUMPDEST PUSH1 0x0 PUSH2 0xAD2 DUP3 PUSH2 0x32A4 JUMP JUMPDEST PUSH1 0x6A PUSH1 0x0 DUP4 DUP2 MSTORE PUSH1 0x20 ADD SWAP1 DUP2 MSTORE PUSH1 0x20 ADD PUSH1 0x0 KECCAK256 PUSH1 0x0 SWAP1 SLOAD SWAP1 PUSH2 0x100 EXP SWAP1 DIV PUSH20 0xFFFFFFFFFFFFFFFFFFFFFFFFFFFFFFFFFFFFFFFF AND SWAP1 POP SWAP2 SWAP1 POP JUMP JUMPDEST PUSH1 0x0 PUSH2 0xB23 PUSH8 0xC1C9EF872120AD4C PUSH1 0xC0 SHL PUSH2 0x2FBB JUMP JUMPDEST PUSH2 0xB37 PUSH8 0x22A4DF8A42CEAA61 PUSH1 0xC0 SHL PUSH2 0x2FBB JUMP JUMPDEST PUSH2 0xB4B PUSH8 0x94447C4BB9489033 PUSH1 0xC0 SHL PUSH2 0x2FBB JUMP JUMPDEST PUSH1 0x0 DUP1 DUP4 PUSH20 0xFFFFFFFFFFFFFFFFFFFFFFFFFFFFFFFFFFFFFFFF AND PUSH20 0xFFFFFFFFFFFFFFFFFFFFFFFFFFFFFFFFFFFFFFFF AND DUP2 MSTORE PUSH1 0x20 ADD SWAP1 DUP2 MSTORE PUSH1 0x20 ADD PUSH1 0x0 KECCAK256 PUSH1 0x3 ADD SLOAD SWAP1 POP SWAP2 SWAP1 POP JUMP JUMPDEST PUSH1 0x0 PUSH2 0xB9F DUP3 PUSH2 0x13D4 JUMP JUMPDEST SWAP1 POP DUP1 PUSH20 0xFFFFFFFFFFFFFFFFFFFFFFFFFFFFFFFFFFFFFFFF AND DUP4 PUSH20 0xFFFFFFFFFFFFFFFFFFFFFFFFFFFFFFFFFFFFFFFF AND EQ ISZERO PUSH2 0xC10 JUMPI PUSH1 0x40 MLOAD PUSH32 0x8C379A000000000000000000000000000000000000000000000000000000000 DUP2 MSTORE PUSH1 0x4 ADD PUSH2 0xC07 SWAP1 PUSH2 0x5643 JUMP JUMPDEST PUSH1 0x40 MLOAD DUP1 SWAP2 SUB SWAP1 REVERT JUMPDEST DUP1 PUSH20 0xFFFFFFFFFFFFFFFFFFFFFFFFFFFFFFFFFFFFFFFF AND PUSH2 0xC2F PUSH2 0x32EF JUMP JUMPDEST PUSH20 0xFFFFFFFFFFFFFFFFFFFFFFFFFFFFFFFFFFFFFFFF AND EQ DUP1 PUSH2 0xC5E JUMPI POP PUSH2 0xC5D DUP2 PUSH2 0xC58 PUSH2 0x32EF JUMP JUMPDEST PUSH2 0x2F27 JUMP JUMPDEST JUMPDEST PUSH2 0xC9D JUMPI PUSH1 0x40 MLOAD PUSH32 0x8C379A000000000000000000000000000000000000000000000000000000000 DUP2 MSTORE PUSH1 0x4 ADD PUSH2 0xC94 SWAP1 PUSH2 0x5663 JUMP JUMPDEST PUSH1 0x40 MLOAD DUP1 SWAP2 SUB SWAP1 REVERT JUMPDEST PUSH2 0xCA7 DUP4 DUP4 PUSH2 0x32F7 JUMP JUMPDEST POP POP POP JUMP JUMPDEST PUSH1 0x0 PUSH2 0xCC2 PUSH8 0x8A8A08E8027046C7 PUSH1 0xC0 SHL PUSH2 0x2AAC JUMP JUMPDEST PUSH2 0xCD6 PUSH8 0x91C41A347BA64E96 PUSH1 0xC0 SHL PUSH2 0x2AAC JUMP JUMPDEST PUSH2 0xCEA PUSH8 0x9881F450AA1CE9EB PUSH1 0xC0 SHL PUSH2 0x2AAC JUMP JUMPDEST PUSH1 0x0 DUP1 DUP4 PUSH20 0xFFFFFFFFFFFFFFFFFFFFFFFFFFFFFFFFFFFFFFFF AND PUSH20 0xFFFFFFFFFFFFFFFFFFFFFFFFFFFFFFFFFFFFFFFF AND DUP2 MSTORE PUSH1 0x20 ADD SWAP1 DUP2 MSTORE PUSH1 0x20 ADD PUSH1 0x0 KECCAK256 PUSH1 0x3 ADD SLOAD TIMESTAMP LT PUSH2 0xDE0 JUMPI PUSH2 0xD46 PUSH8 0x312E0FFAF24BB874 PUSH1 0xC0 SHL PUSH2 0x2AAC JUMP JUMPDEST PUSH2 0xD5A PUSH8 0xC78863F958234BC5 PUSH1 0xC0 SHL PUSH2 0x2AAC JUMP JUMPDEST PUSH2 0xD6E PUSH8 0xC5C511546C50C451 PUSH1 0xC0 SHL PUSH2 0x2AAC JUMP JUMPDEST PUSH1 0x40 MLOAD DUP1 PUSH1 0x40 ADD PUSH1 0x40 MSTORE DUP1 PUSH1 0x3 DUP2 MSTORE PUSH1 0x20 ADD PUSH32 0x3130330000000000000000000000000000000000000000000000000000000000 DUP2 MSTORE POP PUSH1 0x40 MLOAD PUSH32 0x8C379A000000000000000000000000000000000000000000000000000000000 DUP2 MSTORE PUSH1 0x4 ADD PUSH2 0xDD7 SWAP2 SWAP1 PUSH2 0x5485 JUMP JUMPDEST PUSH1 0x40 MLOAD DUP1 SWAP2 SUB SWAP1 REVERT JUMPDEST PUSH2 0xDF4 PUSH8 0x6DAE439F14A5541 PUSH1 0xC0 SHL PUSH2 0x2AAC JUMP JUMPDEST PUSH2 0xE08 PUSH8 0xD9A43CD54B2554F8 PUSH1 0xC0 SHL PUSH2 0x2AAC JUMP JUMPDEST PUSH2 0xE1C PUSH8 0xB80C4D30135FFECC PUSH1 0xC0 SHL PUSH2 0x2AAC JUMP JUMPDEST PUSH1 0x0 DUP1 DUP4 PUSH20 0xFFFFFFFFFFFFFFFFFFFFFFFFFFFFFFFFFFFFFFFF AND PUSH20 0xFFFFFFFFFFFFFFFFFFFFFFFFFFFFFFFFFFFFFFFF AND DUP2 MSTORE PUSH1 0x20 ADD SWAP1 DUP2 MSTORE PUSH1 0x20 ADD PUSH1 0x0 KECCAK256 PUSH1 0x2 ADD PUSH1 0x0 SWAP1 SLOAD SWAP1 PUSH2 0x100 EXP SWAP1 DIV PUSH1 0xFF AND SWAP1 POP SWAP2 SWAP1 POP JUMP JUMPDEST PUSH2 0xE86 PUSH8 0x54FFDBD468219E96 PUSH1 0xC0 SHL PUSH2 0x16B5 JUMP JUMPDEST PUSH2 0xE9A PUSH8 0x7647C4BC02B8E54E PUSH1 0xC0 SHL PUSH2 0x16B5 JUMP JUMPDEST PUSH2 0xEAE PUSH8 0xAE1D078A9D37A4B2 PUSH1 0xC0 SHL PUSH2 0x16B5 JUMP JUMPDEST PUSH1 0x40 MLOAD DUP1 PUSH1 0x40 ADD PUSH1 0x40 MSTORE DUP1 PUSH1 0x3 DUP2 MSTORE PUSH1 0x20 ADD PUSH32 0x3130320000000000000000000000000000000000000000000000000000000000 DUP2 MSTORE POP PUSH1 0x40 MLOAD PUSH32 0x8C379A000000000000000000000000000000000000000000000000000000000 DUP2 MSTORE PUSH1 0x4 ADD PUSH2 0xF17 SWAP2 SWAP1 PUSH2 0x5485 JUMP JUMPDEST PUSH1 0x40 MLOAD DUP1 SWAP2 SUB SWAP1 REVERT JUMPDEST PUSH1 0x0 PUSH1 0x98 PUSH1 0x0 DUP4 DUP2 MSTORE PUSH1 0x20 ADD SWAP1 DUP2 MSTORE PUSH1 0x20 ADD PUSH1 0x0 KECCAK256 PUSH1 0x1 ADD SLOAD SWAP1 POP SWAP2 SWAP1 POP JUMP JUMPDEST PUSH1 0x0 PUSH1 0x1 SWAP1 POP SWAP2 SWAP1 POP JUMP JUMPDEST PUSH2 0xF54 DUP3 PUSH2 0xF20 JUMP JUMPDEST PUSH2 0xF5D DUP2 PUSH2 0x33B0 JUMP JUMPDEST PUSH2 0xF67 DUP4 DUP4 PUSH2 0x33C4 JUMP JUMPDEST POP POP POP JUMP JUMPDEST PUSH2 0xF74 PUSH2 0x32EF JUMP JUMPDEST PUSH20 0xFFFFFFFFFFFFFFFFFFFFFFFFFFFFFFFFFFFFFFFF AND DUP2 PUSH20 0xFFFFFFFFFFFFFFFFFFFFFFFFFFFFFFFFFFFFFFFF AND EQ PUSH2 0xFE1 JUMPI PUSH1 0x40 MLOAD PUSH32 0x8C379A000000000000000000000000000000000000000000000000000000000 DUP2 MSTORE PUSH1 0x4 ADD PUSH2 0xFD8 SWAP1 PUSH2 0x56A3 JUMP JUMPDEST PUSH1 0x40 MLOAD DUP1 SWAP2 SUB SWAP1 REVERT JUMPDEST PUSH2 0xFEB DUP3 DUP3 PUSH2 0x34A5 JUMP JUMPDEST POP POP JUMP JUMPDEST PUSH2 0x1003 PUSH8 0xF194068AF4AB0A22 PUSH1 0xC0 SHL PUSH2 0x16B5 JUMP JUMPDEST PUSH32 0x60044782A422109AC08A415E44260AD5D3BAD63D96EBE1FAC0363399642EE3F2 PUSH2 0x102D DUP2 PUSH2 0x33B0 JUMP JUMPDEST PUSH2 0x1041 PUSH8 0x6DDDDEBDC742663A PUSH1 0xC0 SHL PUSH2 0x16B5 JUMP JUMPDEST PUSH2 0x1055 PUSH8 0x6B4EFCC6CCA0C3FD PUSH1 0xC0 SHL PUSH2 0x16B5 JUMP JUMPDEST PUSH2 0x1069 PUSH8 0x845D0B140A93C125 PUSH1 0xC0 SHL PUSH2 0x16B5 JUMP JUMPDEST PUSH2 0x107D PUSH8 0x73EE7804A611C947 PUSH1 0xC0 SHL PUSH2 0x16B5 JUMP JUMPDEST PUSH1 0xCB PUSH1 0x0 SWAP1 SLOAD SWAP1 PUSH2 0x100 EXP SWAP1 DIV PUSH20 0xFFFFFFFFFFFFFFFFFFFFFFFFFFFFFFFFFFFFFFFF AND PUSH20 0xFFFFFFFFFFFFFFFFFFFFFFFFFFFFFFFFFFFFFFFF AND PUSH4 0x84B7A84A DUP6 PUSH1 0x1 PUSH1 0x40 MLOAD DUP4 PUSH4 0xFFFFFFFF AND PUSH1 0xE0 SHL DUP2 MSTORE PUSH1 0x4 ADD PUSH2 0x10DB SWAP3 SWAP2 SWAP1 PUSH2 0x55E7 JUMP JUMPDEST PUSH1 0x0 PUSH1 0x40 MLOAD DUP1 DUP4 SUB DUP2 PUSH1 0x0 DUP8 DUP1 EXTCODESIZE ISZERO DUP1 ISZERO PUSH2 0x10F5 JUMPI PUSH1 0x0 DUP1 REVERT JUMPDEST POP GAS CALL ISZERO DUP1 ISZERO PUSH2 0x1109 JUMPI RETURNDATASIZE PUSH1 0x0 DUP1 RETURNDATACOPY RETURNDATASIZE PUSH1 0x0 REVERT JUMPDEST POP POP POP POP PUSH2 0x1121 PUSH8 0x4261C4441178F68F PUSH1 0xC0 SHL PUSH2 0x16B5 JUMP JUMPDEST PUSH2 0x1135 PUSH8 0x147B0824D5C52D1E PUSH1 0xC0 SHL PUSH2 0x16B5 JUMP JUMPDEST PUSH1 0x0 PUSH1 0xCC PUSH1 0x0 DUP7 PUSH20 0xFFFFFFFFFFFFFFFFFFFFFFFFFFFFFFFFFFFFFFFF AND PUSH20 0xFFFFFFFFFFFFFFFFFFFFFFFFFFFFFFFFFFFFFFFF AND DUP2 MSTORE PUSH1 0x20 ADD SWAP1 DUP2 MSTORE PUSH1 0x20 ADD PUSH1 0x0 KECCAK256 SLOAD SWAP1 POP PUSH2 0x118D PUSH8 0xAC09FD51DF6BBB54 PUSH1 0xC0 SHL PUSH2 0x16B5 JUMP JUMPDEST PUSH2 0x11A1 PUSH8 0x9DAC79938ABCF8D0 PUSH1 0xC0 SHL PUSH2 0x16B5 JUMP JUMPDEST PUSH2 0x11AA DUP2 PUSH2 0x3587 JUMP JUMPDEST PUSH2 0x11BE PUSH8 0x15076A70C0AF72C PUSH1 0xC0 SHL PUSH2 0x16B5 JUMP JUMPDEST PUSH1 0x0 DUP1 DUP7 PUSH20 0xFFFFFFFFFFFFFFFFFFFFFFFFFFFFFFFFFFFFFFFF AND PUSH20 0xFFFFFFFFFFFFFFFFFFFFFFFFFFFFFFFFFFFFFFFF AND DUP2 MSTORE PUSH1 0x20 ADD SWAP1 DUP2 MSTORE PUSH1 0x20 ADD PUSH1 0x0 KECCAK256 PUSH1 0x0 DUP1 DUP3 ADD PUSH1 0x0 SWAP1 SSTORE PUSH1 0x1 DUP3 ADD PUSH1 0x0 PUSH2 0x1215 SWAP2 SWAP1 PUSH2 0x474D JUMP JUMPDEST PUSH1 0x2 DUP3 ADD PUSH1 0x0 PUSH2 0x100 EXP DUP2 SLOAD SWAP1 PUSH1 0xFF MUL NOT AND SWAP1 SSTORE PUSH1 0x2 DUP3 ADD PUSH1 0x1 PUSH2 0x100 EXP DUP2 SLOAD SWAP1 PUSH1 0xFF MUL NOT AND SWAP1 SSTORE PUSH1 0x3 DUP3 ADD PUSH1 0x0 SWAP1 SSTORE POP POP PUSH2 0x125B PUSH8 0x2D8E3478A7D95B05 PUSH1 0xC0 SHL PUSH2 0x16B5 JUMP JUMPDEST PUSH2 0x126F PUSH8 0x332CD9E58174C79B PUSH1 0xC0 SHL PUSH2 0x16B5 JUMP JUMPDEST DUP4 DUP4 PUSH1 0x40 MLOAD PUSH2 0x127F SWAP3 SWAP2 SWAP1 PUSH2 0x5339 JUMP JUMPDEST PUSH1 0x40 MLOAD DUP1 SWAP2 SUB SWAP1 KECCAK256 DUP2 DUP7 PUSH20 0xFFFFFFFFFFFFFFFFFFFFFFFFFFFFFFFFFFFFFFFF AND PUSH32 0x8B09FC40032762AEBF578CD9202B2548559CBAC190B3807076418620EF05518F PUSH1 0x40 MLOAD PUSH1 0x40 MLOAD DUP1 SWAP2 SUB SWAP1 LOG4 POP POP POP POP POP JUMP JUMPDEST PUSH2 0x12E6 PUSH8 0xBEB2A701F24FB884 PUSH1 0xC0 SHL PUSH2 0x16B5 JUMP JUMPDEST PUSH2 0x12FA PUSH8 0x62FEC0094C8F928A PUSH1 0xC0 SHL PUSH2 0x16B5 JUMP JUMPDEST PUSH2 0x130E PUSH8 0x7AB62C3941758F06 PUSH1 0xC0 SHL PUSH2 0x16B5 JUMP JUMPDEST PUSH1 0x40 MLOAD DUP1 PUSH1 0x40 ADD PUSH1 0x40 MSTORE DUP1 PUSH1 0x3 DUP2 MSTORE PUSH1 0x20 ADD PUSH32 0x3130320000000000000000000000000000000000000000000000000000000000 DUP2 MSTORE POP PUSH1 0x40 MLOAD PUSH32 0x8C379A000000000000000000000000000000000000000000000000000000000 DUP2 MSTORE PUSH1 0x4 ADD PUSH2 0x1377 SWAP2 SWAP1 PUSH2 0x5485 JUMP JUMPDEST PUSH1 0x40 MLOAD DUP1 SWAP2 SUB SWAP1 REVERT JUMPDEST PUSH1 0x0 PUSH2 0x1396 PUSH8 0xAA04D3478398CF6F PUSH1 0xC0 SHL PUSH2 0x16B5 JUMP JUMPDEST PUSH2 0x13AA PUSH8 0x24081BE78105F81F PUSH1 0xC0 SHL PUSH2 0x16B5 JUMP JUMPDEST PUSH2 0x13BE PUSH8 0xD676A7130C06D07E PUSH1 0xC0 SHL PUSH2 0x16B5 JUMP JUMPDEST PUSH2 0x13C8 PUSH1 0xCA PUSH2 0x36D5 JUMP JUMPDEST SWAP1 POP SWAP1 JUMP JUMPDEST PUSH1 0x0 SWAP2 SWAP1 POP JUMP JUMPDEST PUSH1 0x0 DUP1 PUSH2 0x13E0 DUP4 PUSH2 0x36E3 JUMP JUMPDEST SWAP1 POP PUSH1 0x0 PUSH20 0xFFFFFFFFFFFFFFFFFFFFFFFFFFFFFFFFFFFFFFFF AND DUP2 PUSH20 0xFFFFFFFFFFFFFFFFFFFFFFFFFFFFFFFFFFFFFFFF AND EQ ISZERO PUSH2 0x1452 JUMPI PUSH1 0x40 MLOAD PUSH32 0x8C379A000000000000000000000000000000000000000000000000000000000 DUP2 MSTORE PUSH1 0x4 ADD PUSH2 0x1449 SWAP1 PUSH2 0x5623 JUMP JUMPDEST PUSH1 0x40 MLOAD DUP1 SWAP2 SUB SWAP1 REVERT JUMPDEST DUP1 SWAP2 POP POP SWAP2 SWAP1 POP JUMP JUMPDEST PUSH1 0x0 PUSH1 0x1 SWAP1 POP SWAP2 SWAP1 POP JUMP JUMPDEST PUSH1 0x0 PUSH1 0x20 MSTORE DUP1 PUSH1 0x0 MSTORE PUSH1 0x40 PUSH1 0x0 KECCAK256 PUSH1 0x0 SWAP2 POP SWAP1 POP DUP1 PUSH1 0x0 ADD SLOAD SWAP1 DUP1 PUSH1 0x1 ADD DUP1 SLOAD PUSH2 0x148F SWAP1 PUSH2 0x5A16 JUMP JUMPDEST DUP1 PUSH1 0x1F ADD PUSH1 0x20 DUP1 SWAP2 DIV MUL PUSH1 0x20 ADD PUSH1 0x40 MLOAD SWAP1 DUP2 ADD PUSH1 0x40 MSTORE DUP1 SWAP3 SWAP2 SWAP1 DUP2 DUP2 MSTORE PUSH1 0x20 ADD DUP3 DUP1 SLOAD PUSH2 0x14BB SWAP1 PUSH2 0x5A16 JUMP JUMPDEST DUP1 ISZERO PUSH2 0x1508 JUMPI DUP1 PUSH1 0x1F LT PUSH2 0x14DD JUMPI PUSH2 0x100 DUP1 DUP4 SLOAD DIV MUL DUP4 MSTORE SWAP2 PUSH1 0x20 ADD SWAP2 PUSH2 0x1508 JUMP JUMPDEST DUP3 ADD SWAP2 SWAP1 PUSH1 0x0 MSTORE PUSH1 0x20 PUSH1 0x0 KECCAK256 SWAP1 JUMPDEST DUP2 SLOAD DUP2 MSTORE SWAP1 PUSH1 0x1 ADD SWAP1 PUSH1 0x20 ADD DUP1 DUP4 GT PUSH2 0x14EB JUMPI DUP3 SWAP1 SUB PUSH1 0x1F AND DUP3 ADD SWAP2 JUMPDEST POP POP POP POP POP SWAP1 DUP1 PUSH1 0x2 ADD PUSH1 0x0 SWAP1 SLOAD SWAP1 PUSH2 0x100 EXP SWAP1 DIV PUSH1 0xFF AND SWAP1 DUP1 PUSH1 0x2 ADD PUSH1 0x1 SWAP1 SLOAD SWAP1 PUSH2 0x100 EXP SWAP1 DIV PUSH1 0xFF AND SWAP1 DUP1 PUSH1 0x3 ADD SLOAD SWAP1 POP DUP6 JUMP JUMPDEST POP JUMP JUMPDEST PUSH2 0x1549 PUSH2 0x478D JUMP JUMPDEST PUSH2 0x155D PUSH8 0xA05F59D4624295FD PUSH1 0xC0 SHL PUSH2 0x2FBB JUMP JUMPDEST PUSH2 0x1571 PUSH8 0x69C1A1D6327D6071 PUSH1 0xC0 SHL PUSH2 0x2FBB JUMP JUMPDEST PUSH2 0x1585 PUSH8 0xBDAF4779FF83744F PUSH1 0xC0 SHL PUSH2 0x2FBB JUMP JUMPDEST PUSH1 0x0 DUP1 DUP4 PUSH20 0xFFFFFFFFFFFFFFFFFFFFFFFFFFFFFFFFFFFFFFFF AND PUSH20 0xFFFFFFFFFFFFFFFFFFFFFFFFFFFFFFFFFFFFFFFF AND DUP2 MSTORE PUSH1 0x20 ADD SWAP1 DUP2 MSTORE PUSH1 0x20 ADD PUSH1 0x0 KECCAK256 PUSH1 0x40 MLOAD DUP1 PUSH1 0xA0 ADD PUSH1 0x40 MSTORE SWAP1 DUP2 PUSH1 0x0 DUP3 ADD SLOAD DUP2 MSTORE PUSH1 0x20 ADD PUSH1 0x1 DUP3 ADD DUP1 SLOAD PUSH2 0x15E8 SWAP1 PUSH2 0x5A16 JUMP JUMPDEST DUP1 PUSH1 0x1F ADD PUSH1 0x20 DUP1 SWAP2 DIV MUL PUSH1 0x20 ADD PUSH1 0x40 MLOAD SWAP1 DUP2 ADD PUSH1 0x40 MSTORE DUP1 SWAP3 SWAP2 SWAP1 DUP2 DUP2 MSTORE PUSH1 0x20 ADD DUP3 DUP1 SLOAD PUSH2 0x1614 SWAP1 PUSH2 0x5A16 JUMP JUMPDEST DUP1 ISZERO PUSH2 0x1661 JUMPI DUP1 PUSH1 0x1F LT PUSH2 0x1636 JUMPI PUSH2 0x100 DUP1 DUP4 SLOAD DIV MUL DUP4 MSTORE SWAP2 PUSH1 0x20 ADD SWAP2 PUSH2 0x1661 JUMP JUMPDEST DUP3 ADD SWAP2 SWAP1 PUSH1 0x0 MSTORE PUSH1 0x20 PUSH1 0x0 KECCAK256 SWAP1 JUMPDEST DUP2 SLOAD DUP2 MSTORE SWAP1 PUSH1 0x1 ADD SWAP1 PUSH1 0x20 ADD DUP1 DUP4 GT PUSH2 0x1644 JUMPI DUP3 SWAP1 SUB PUSH1 0x1F AND DUP3 ADD SWAP2 JUMPDEST POP POP POP POP POP DUP2 MSTORE PUSH1 0x20 ADD PUSH1 0x2 DUP3 ADD PUSH1 0x0 SWAP1 SLOAD SWAP1 PUSH2 0x100 EXP SWAP1 DIV PUSH1 0xFF AND PUSH1 0xFF AND PUSH1 0xFF AND DUP2 MSTORE PUSH1 0x20 ADD PUSH1 0x2 DUP3 ADD PUSH1 0x1 SWAP1 SLOAD SWAP1 PUSH2 0x100 EXP SWAP1 DIV PUSH1 0xFF AND PUSH1 0xFF AND PUSH1 0xFF AND DUP2 MSTORE PUSH1 0x20 ADD PUSH1 0x3 DUP3 ADD SLOAD DUP2 MSTORE POP POP SWAP1 POP SWAP2 SWAP1 POP JUMP JUMPDEST POP JUMP JUMPDEST PUSH1 0x0 DUP1 PUSH20 0xFFFFFFFFFFFFFFFFFFFFFFFFFFFFFFFFFFFFFFFF AND DUP3 PUSH20 0xFFFFFFFFFFFFFFFFFFFFFFFFFFFFFFFFFFFFFFFF AND EQ ISZERO PUSH2 0x1729 JUMPI PUSH1 0x40 MLOAD PUSH32 0x8C379A000000000000000000000000000000000000000000000000000000000 DUP2 MSTORE PUSH1 0x4 ADD PUSH2 0x1720 SWAP1 PUSH2 0x5587 JUMP JUMPDEST PUSH1 0x40 MLOAD DUP1 SWAP2 SUB SWAP1 REVERT JUMPDEST PUSH1 0x69 PUSH1 0x0 DUP4 PUSH20 0xFFFFFFFFFFFFFFFFFFFFFFFFFFFFFFFFFFFFFFFF AND PUSH20 0xFFFFFFFFFFFFFFFFFFFFFFFFFFFFFFFFFFFFFFFF AND DUP2 MSTORE PUSH1 0x20 ADD SWAP1 DUP2 MSTORE PUSH1 0x20 ADD PUSH1 0x0 KECCAK256 SLOAD SWAP1 POP SWAP2 SWAP1 POP JUMP JUMPDEST PUSH2 0x1784 PUSH8 0xFA9457EF47CAD9F PUSH1 0xC0 SHL PUSH2 0x16B5 JUMP JUMPDEST PUSH32 0x60044782A422109AC08A415E44260AD5D3BAD63D96EBE1FAC0363399642EE3F2 PUSH2 0x17AE DUP2 PUSH2 0x33B0 JUMP JUMPDEST PUSH2 0x17C2 PUSH8 0x8438AC30E1BCE977 PUSH1 0xC0 SHL PUSH2 0x16B5 JUMP JUMPDEST PUSH2 0x17D6 PUSH8 0x6A18F9CA1823016A PUSH1 0xC0 SHL PUSH2 0x16B5 JUMP JUMPDEST PUSH2 0x17EA PUSH8 0x89E3DFC1996B87A1 PUSH1 0xC0 SHL PUSH2 0x16B5 JUMP JUMPDEST PUSH2 0x17FE PUSH8 0x50C948DFDB7F780C PUSH1 0xC0 SHL PUSH2 0x16B5 JUMP JUMPDEST PUSH1 0xCB PUSH1 0x0 SWAP1 SLOAD SWAP1 PUSH2 0x100 EXP SWAP1 DIV PUSH20 0xFFFFFFFFFFFFFFFFFFFFFFFFFFFFFFFFFFFFFFFF AND PUSH20 0xFFFFFFFFFFFFFFFFFFFFFFFFFFFFFFFFFFFFFFFF AND PUSH4 0x84B7A84A DUP6 PUSH1 0x1 PUSH1 0x40 MLOAD DUP4 PUSH4 0xFFFFFFFF AND PUSH1 0xE0 SHL DUP2 MSTORE PUSH1 0x4 ADD PUSH2 0x185C SWAP3 SWAP2 SWAP1 PUSH2 0x55E7 JUMP JUMPDEST PUSH1 0x0 PUSH1 0x40 MLOAD DUP1 DUP4 SUB DUP2 PUSH1 0x0 DUP8 DUP1 EXTCODESIZE ISZERO DUP1 ISZERO PUSH2 0x1876 JUMPI PUSH1 0x0 DUP1 REVERT JUMPDEST POP GAS CALL ISZERO DUP1 ISZERO PUSH2 0x188A JUMPI RETURNDATASIZE PUSH1 0x0 DUP1 RETURNDATACOPY RETURNDATASIZE PUSH1 0x0 REVERT JUMPDEST POP POP POP POP PUSH2 0x18A2 PUSH8 0x4A1CCE405FAFF745 PUSH1 0xC0 SHL PUSH2 0x16B5 JUMP JUMPDEST PUSH2 0x18B6 PUSH8 0xF5117F9257161BAB PUSH1 0xC0 SHL PUSH2 0x16B5 JUMP JUMPDEST DUP3 DUP3 PUSH1 0x40 MLOAD PUSH2 0x18C6 SWAP3 SWAP2 SWAP1 PUSH2 0x5339 JUMP JUMPDEST PUSH1 0x40 MLOAD DUP1 SWAP2 SUB SWAP1 KECCAK256 DUP5 PUSH20 0xFFFFFFFFFFFFFFFFFFFFFFFFFFFFFFFFFFFFFFFF AND PUSH32 0x3347B0049117AB94FDDF6CFF81CC554C4F7489ACEDC7C33907A96655770E58AE PUSH1 0x40 MLOAD PUSH1 0x40 MLOAD DUP1 SWAP2 SUB SWAP1 LOG3 POP POP POP POP JUMP JUMPDEST PUSH1 0x0 PUSH1 0x1 SWAP1 POP SWAP2 SWAP1 POP JUMP JUMPDEST PUSH1 0x0 PUSH1 0x98 PUSH1 0x0 DUP5 DUP2 MSTORE PUSH1 0x20 ADD SWAP1 DUP2 MSTORE PUSH1 0x20 ADD PUSH1 0x0 KECCAK256 PUSH1 0x0 ADD PUSH1 0x0 DUP4 PUSH20 0xFFFFFFFFFFFFFFFFFFFFFFFFFFFFFFFFFFFFFFFF AND PUSH20 0xFFFFFFFFFFFFFFFFFFFFFFFFFFFFFFFFFFFFFFFF AND DUP2 MSTORE PUSH1 0x20 ADD SWAP1 DUP2 MSTORE PUSH1 0x20 ADD PUSH1 0x0 KECCAK256 PUSH1 0x0 SWAP1 SLOAD SWAP1 PUSH2 0x100 EXP SWAP1 DIV PUSH1 0xFF AND SWAP1 POP SWAP3 SWAP2 POP POP JUMP JUMPDEST PUSH1 0x0 PUSH2 0x19A3 PUSH8 0xE7400F8588B3B9FD PUSH1 0xC0 SHL PUSH2 0x2AAC JUMP JUMPDEST PUSH2 0x19B7 PUSH8 0x218E4AADC28BAD54 PUSH1 0xC0 SHL PUSH2 0x2AAC JUMP JUMPDEST PUSH2 0x19CB PUSH8 0x9E2C5A8A6DB9E64 PUSH1 0xC0 SHL PUSH2 0x2AAC JUMP JUMPDEST PUSH1 0x0 DUP1 DUP4 PUSH20 0xFFFFFFFFFFFFFFFFFFFFFFFFFFFFFFFFFFFFFFFF AND PUSH20 0xFFFFFFFFFFFFFFFFFFFFFFFFFFFFFFFFFFFFFFFF AND DUP2 MSTORE PUSH1 0x20 ADD SWAP1 DUP2 MSTORE PUSH1 0x20 ADD PUSH1 0x0 KECCAK256 PUSH1 0x3 ADD SLOAD TIMESTAMP LT PUSH2 0x1AC1 JUMPI PUSH2 0x1A27 PUSH8 0xA46D03D2C5D0AAE4 PUSH1 0xC0 SHL PUSH2 0x2AAC JUMP JUMPDEST PUSH2 0x1A3B PUSH8 0x59E43CA1959C0A4E PUSH1 0xC0 SHL PUSH2 0x2AAC JUMP JUMPDEST PUSH2 0x1A4F PUSH8 0xC0882176D22F1944 PUSH1 0xC0 SHL PUSH2 0x2AAC JUMP JUMPDEST PUSH1 0x40 MLOAD DUP1 PUSH1 0x40 ADD PUSH1 0x40 MSTORE DUP1 PUSH1 0x3 DUP2 MSTORE PUSH1 0x20 ADD PUSH32 0x3130330000000000000000000000000000000000000000000000000000000000 DUP2 MSTORE POP PUSH1 0x40 MLOAD PUSH32 0x8C379A000000000000000000000000000000000000000000000000000000000 DUP2 MSTORE PUSH1 0x4 ADD PUSH2 0x1AB8 SWAP2 SWAP1 PUSH2 0x5485 JUMP JUMPDEST PUSH1 0x40 MLOAD DUP1 SWAP2 SUB SWAP1 REVERT JUMPDEST PUSH2 0x1AD5 PUSH8 0x19C99830B5B46540 PUSH1 0xC0 SHL PUSH2 0x2AAC JUMP JUMPDEST PUSH2 0x1AE9 PUSH8 0x92805F3A7478451B PUSH1 0xC0 SHL PUSH2 0x2AAC JUMP JUMPDEST PUSH2 0x1AFD PUSH8 0x46C027269FFAD2A7 PUSH1 0xC0 SHL PUSH2 0x2AAC JUMP JUMPDEST PUSH1 0x0 DUP1 DUP4 PUSH20 0xFFFFFFFFFFFFFFFFFFFFFFFFFFFFFFFFFFFFFFFF AND PUSH20 0xFFFFFFFFFFFFFFFFFFFFFFFFFFFFFFFFFFFFFFFF AND DUP2 MSTORE PUSH1 0x20 ADD SWAP1 DUP2 MSTORE PUSH1 0x20 ADD PUSH1 0x0 KECCAK256 PUSH1 0x2 ADD PUSH1 0x1 SWAP1 SLOAD SWAP1 PUSH2 0x100 EXP SWAP1 DIV PUSH1 0xFF AND SWAP1 POP SWAP2 SWAP1 POP JUMP JUMPDEST PUSH1 0x60 PUSH1 0x67 DUP1 SLOAD PUSH2 0x1B62 SWAP1 PUSH2 0x5A16 JUMP JUMPDEST DUP1 PUSH1 0x1F ADD PUSH1 0x20 DUP1 SWAP2 DIV MUL PUSH1 0x20 ADD PUSH1 0x40 MLOAD SWAP1 DUP2 ADD PUSH1 0x40 MSTORE DUP1 SWAP3 SWAP2 SWAP1 DUP2 DUP2 MSTORE PUSH1 0x20 ADD DUP3 DUP1 SLOAD PUSH2 0x1B8E SWAP1 PUSH2 0x5A16 JUMP JUMPDEST DUP1 ISZERO PUSH2 0x1BDB JUMPI DUP1 PUSH1 0x1F LT PUSH2 0x1BB0 JUMPI PUSH2 0x100 DUP1 DUP4 SLOAD DIV MUL DUP4 MSTORE SWAP2 PUSH1 0x20 ADD SWAP2 PUSH2 0x1BDB JUMP JUMPDEST DUP3 ADD SWAP2 SWAP1 PUSH1 0x0 MSTORE PUSH1 0x20 PUSH1 0x0 KECCAK256 SWAP1 JUMPDEST DUP2 SLOAD DUP2 MSTORE SWAP1 PUSH1 0x1 ADD SWAP1 PUSH1 0x20 ADD DUP1 DUP4 GT PUSH2 0x1BBE JUMPI DUP3 SWAP1 SUB PUSH1 0x1F AND DUP3 ADD SWAP2 JUMPDEST POP POP POP POP POP SWAP1 POP SWAP1 JUMP JUMPDEST PUSH1 0x60 PUSH2 0x1BFB PUSH8 0x798AA39337352C8C PUSH1 0xC0 SHL PUSH2 0x2AAC JUMP JUMPDEST PUSH2 0x1C0F PUSH8 0xDAB4F449D5DE2F6F PUSH1 0xC0 SHL PUSH2 0x2AAC JUMP JUMPDEST PUSH2 0x1C23 PUSH8 0x70D4D7382D2A9816 PUSH1 0xC0 SHL PUSH2 0x2AAC JUMP JUMPDEST PUSH1 0x0 DUP1 DUP4 PUSH20 0xFFFFFFFFFFFFFFFFFFFFFFFFFFFFFFFFFFFFFFFF AND PUSH20 0xFFFFFFFFFFFFFFFFFFFFFFFFFFFFFFFFFFFFFFFF AND DUP2 MSTORE PUSH1 0x20 ADD SWAP1 DUP2 MSTORE PUSH1 0x20 ADD PUSH1 0x0 KECCAK256 PUSH1 0x3 ADD SLOAD TIMESTAMP LT PUSH2 0x1D19 JUMPI PUSH2 0x1C7F PUSH8 0xC5C834AFAAE4A7D1 PUSH1 0xC0 SHL PUSH2 0x2AAC JUMP JUMPDEST PUSH2 0x1C93 PUSH8 0x282DD2059D86991C PUSH1 0xC0 SHL PUSH2 0x2AAC JUMP JUMPDEST PUSH2 0x1CA7 PUSH8 0xBC73E24E23818FEC PUSH1 0xC0 SHL PUSH2 0x2AAC JUMP JUMPDEST PUSH1 0x40 MLOAD DUP1 PUSH1 0x40 ADD PUSH1 0x40 MSTORE DUP1 PUSH1 0x3 DUP2 MSTORE PUSH1 0x20 ADD PUSH32 0x3130330000000000000000000000000000000000000000000000000000000000 DUP2 MSTORE POP PUSH1 0x40 MLOAD PUSH32 0x8C379A000000000000000000000000000000000000000000000000000000000 DUP2 MSTORE PUSH1 0x4 ADD PUSH2 0x1D10 SWAP2 SWAP1 PUSH2 0x5485 JUMP JUMPDEST PUSH1 0x40 MLOAD DUP1 SWAP2 SUB SWAP1 REVERT JUMPDEST PUSH2 0x1D2D PUSH8 0x3AFBFF51046F6DC9 PUSH1 0xC0 SHL PUSH2 0x2AAC JUMP JUMPDEST PUSH2 0x1D41 PUSH8 0xDC0C995E8C89436C PUSH1 0xC0 SHL PUSH2 0x2AAC JUMP JUMPDEST PUSH2 0x1D55 PUSH8 0xC8C8CE89CAB65BB2 PUSH1 0xC0 SHL PUSH2 0x2AAC JUMP JUMPDEST PUSH1 0x0 DUP1 DUP4 PUSH20 0xFFFFFFFFFFFFFFFFFFFFFFFFFFFFFFFFFFFFFFFF AND PUSH20 0xFFFFFFFFFFFFFFFFFFFFFFFFFFFFFFFFFFFFFFFF AND DUP2 MSTORE PUSH1 0x20 ADD SWAP1 DUP2 MSTORE PUSH1 0x20 ADD PUSH1 0x0 KECCAK256 PUSH1 0x1 ADD DUP1 SLOAD PUSH2 0x1DA1 SWAP1 PUSH2 0x5A16 JUMP JUMPDEST DUP1 PUSH1 0x1F ADD PUSH1 0x20 DUP1 SWAP2 DIV MUL PUSH1 0x20 ADD PUSH1 0x40 MLOAD SWAP1 DUP2 ADD PUSH1 0x40 MSTORE DUP1 SWAP3 SWAP2 SWAP1 DUP2 DUP2 MSTORE PUSH1 0x20 ADD DUP3 DUP1 SLOAD PUSH2 0x1DCD SWAP1 PUSH2 0x5A16 JUMP JUMPDEST DUP1 ISZERO PUSH2 0x1E1A JUMPI DUP1 PUSH1 0x1F LT PUSH2 0x1DEF JUMPI PUSH2 0x100 DUP1 DUP4 SLOAD DIV MUL DUP4 MSTORE SWAP2 PUSH1 0x20 ADD SWAP2 PUSH2 0x1E1A JUMP JUMPDEST DUP3 ADD SWAP2 SWAP1 PUSH1 0x0 MSTORE PUSH1 0x20 PUSH1 0x0 KECCAK256 SWAP1 JUMPDEST DUP2 SLOAD DUP2 MSTORE SWAP1 PUSH1 0x1 ADD SWAP1 PUSH1 0x20 ADD DUP1 DUP4 GT PUSH2 0x1DFD JUMPI DUP3 SWAP1 SUB PUSH1 0x1F AND DUP3 ADD SWAP2 JUMPDEST POP POP POP POP POP SWAP1 POP SWAP2 SWAP1 POP JUMP JUMPDEST PUSH1 0x0 DUP1 SHL DUP2 JUMP JUMPDEST PUSH2 0x1E3F PUSH2 0x1E38 PUSH2 0x32EF JUMP JUMPDEST DUP4 DUP4 PUSH2 0x3720 JUMP JUMPDEST POP POP JUMP JUMPDEST PUSH1 0x0 PUSH2 0x1E59 PUSH8 0x32C39D4AFC3889C1 PUSH1 0xC0 SHL PUSH2 0x153E JUMP JUMPDEST PUSH2 0x1E6D PUSH8 0xDAE6DB8BA31C013C PUSH1 0xC0 SHL PUSH2 0x153E JUMP JUMPDEST PUSH2 0x1E81 PUSH8 0xB501F3A83B167522 PUSH1 0xC0 SHL PUSH2 0x153E JUMP JUMPDEST PUSH1 0x0 DUP1 DUP4 PUSH20 0xFFFFFFFFFFFFFFFFFFFFFFFFFFFFFFFFFFFFFFFF AND PUSH20 0xFFFFFFFFFFFFFFFFFFFFFFFFFFFFFFFFFFFFFFFF AND DUP2 MSTORE PUSH1 0x20 ADD SWAP1 DUP2 MSTORE PUSH1 0x20 ADD PUSH1 0x0 KECCAK256 PUSH1 0x2 ADD PUSH1 0x0 SWAP1 SLOAD SWAP1 PUSH2 0x100 EXP SWAP1 DIV PUSH1 0xFF AND SWAP1 POP SWAP2 SWAP1 POP JUMP JUMPDEST PUSH2 0x1EE8 PUSH2 0x1EE2 PUSH2 0x32EF JUMP JUMPDEST DUP4 PUSH2 0x388D JUMP JUMPDEST PUSH2 0x1F27 JUMPI PUSH1 0x40 MLOAD PUSH32 0x8C379A000000000000000000000000000000000000000000000000000000000 DUP2 MSTORE PUSH1 0x4 ADD PUSH2 0x1F1E SWAP1 PUSH2 0x54C7 JUMP JUMPDEST PUSH1 0x40 MLOAD DUP1 SWAP2 SUB SWAP1 REVERT JUMPDEST PUSH2 0x1F33 DUP5 DUP5 DUP5 DUP5 PUSH2 0x3922 JUMP JUMPDEST POP POP POP POP JUMP JUMPDEST PUSH1 0x0 PUSH2 0x1F4F PUSH8 0xC0754C09F9D3A69E PUSH1 0xC0 SHL PUSH2 0x153E JUMP JUMPDEST PUSH2 0x1F63 PUSH8 0xD1E3FDB2292AA249 PUSH1 0xC0 SHL PUSH2 0x153E JUMP JUMPDEST PUSH2 0x1F77 PUSH8 0x9561272DF2BF34BE PUSH1 0xC0 SHL PUSH2 0x153E JUMP JUMPDEST PUSH1 0x0 DUP1 DUP4 PUSH20 0xFFFFFFFFFFFFFFFFFFFFFFFFFFFFFFFFFFFFFFFF AND PUSH20 0xFFFFFFFFFFFFFFFFFFFFFFFFFFFFFFFFFFFFFFFF AND DUP2 MSTORE PUSH1 0x20 ADD SWAP1 DUP2 MSTORE PUSH1 0x20 ADD PUSH1 0x0 KECCAK256 PUSH1 0x2 ADD PUSH1 0x1 SWAP1 SLOAD SWAP1 PUSH2 0x100 EXP SWAP1 DIV PUSH1 0xFF AND SWAP1 POP SWAP2 SWAP1 POP JUMP JUMPDEST PUSH2 0x1FE1 PUSH8 0xEEC4F806109B0563 PUSH1 0xC0 SHL PUSH2 0x16B5 JUMP JUMPDEST PUSH1 0x0 PUSH1 0x1 DUP1 SLOAD SWAP1 PUSH2 0x100 EXP SWAP1 DIV PUSH1 0xFF AND ISZERO SWAP1 POP DUP1 DUP1 ISZERO PUSH2 0x2012 JUMPI POP PUSH1 0x1 DUP1 PUSH1 0x0 SWAP1 SLOAD SWAP1 PUSH2 0x100 EXP SWAP1 DIV PUSH1 0xFF AND PUSH1 0xFF AND LT JUMPDEST DUP1 PUSH2 0x2040 JUMPI POP PUSH2 0x2021 ADDRESS PUSH2 0x397E JUMP JUMPDEST ISZERO DUP1 ISZERO PUSH2 0x203F JUMPI POP PUSH1 0x1 DUP1 PUSH1 0x0 SWAP1 SLOAD SWAP1 PUSH2 0x100 EXP SWAP1 DIV PUSH1 0xFF AND PUSH1 0xFF AND EQ JUMPDEST JUMPDEST PUSH2 0x207F JUMPI PUSH1 0x40 MLOAD PUSH32 0x8C379A000000000000000000000000000000000000000000000000000000000 DUP2 MSTORE PUSH1 0x4 ADD PUSH2 0x2076 SWAP1 PUSH2 0x55A7 JUMP JUMPDEST PUSH1 0x40 MLOAD DUP1 SWAP2 SUB SWAP1 REVERT JUMPDEST PUSH1 0x1 DUP1 PUSH1 0x0 PUSH2 0x100 EXP DUP2 SLOAD DUP2 PUSH1 0xFF MUL NOT AND SWAP1 DUP4 PUSH1 0xFF AND MUL OR SWAP1 SSTORE POP DUP1 ISZERO PUSH2 0x20BB JUMPI PUSH1 0x1 DUP1 PUSH1 0x1 PUSH2 0x100 EXP DUP2 SLOAD DUP2 PUSH1 0xFF MUL NOT AND SWAP1 DUP4 ISZERO ISZERO MUL OR SWAP1 SSTORE POP JUMPDEST PUSH2 0x20CF PUSH8 0x22B7D94B1938F8CD PUSH1 0xC0 SHL PUSH2 0x16B5 JUMP JUMPDEST PUSH2 0x20E3 PUSH8 0x845FA192E40EADF8 PUSH1 0xC0 SHL PUSH2 0x16B5 JUMP JUMPDEST PUSH2 0x20F7 PUSH8 0xD6ACB33FDF8F4A0E PUSH1 0xC0 SHL PUSH2 0x16B5 JUMP JUMPDEST PUSH2 0x210B PUSH8 0x2E1AC8FFCE13240D PUSH1 0xC0 SHL PUSH2 0x16B5 JUMP JUMPDEST PUSH2 0x2113 PUSH2 0x39A1 JUMP JUMPDEST PUSH2 0x2127 PUSH8 0xB2C99BE2320A46F0 PUSH1 0xC0 SHL PUSH2 0x16B5 JUMP JUMPDEST PUSH2 0x213B PUSH8 0xDB5E81F582BCAAD0 PUSH1 0xC0 SHL PUSH2 0x16B5 JUMP JUMPDEST PUSH2 0x21AF PUSH1 0x40 MLOAD DUP1 PUSH1 0x40 ADD PUSH1 0x40 MSTORE DUP1 PUSH1 0x11 DUP2 MSTORE PUSH1 0x20 ADD PUSH32 0x50726F6F66206F66204964656E74697479000000000000000000000000000000 DUP2 MSTORE POP PUSH1 0x40 MLOAD DUP1 PUSH1 0x40 ADD PUSH1 0x40 MSTORE DUP1 PUSH1 0x5 DUP2 MSTORE PUSH1 0x20 ADD PUSH32 0x48312D4944000000000000000000000000000000000000000000000000000000 DUP2 MSTORE POP PUSH2 0x39F0 JUMP JUMPDEST PUSH2 0x21C3 PUSH8 0x5531B2F2CDB00FD4 PUSH1 0xC0 SHL PUSH2 0x16B5 JUMP JUMPDEST DUP2 PUSH1 0xCB PUSH1 0x0 PUSH2 0x100 EXP DUP2 SLOAD DUP2 PUSH20 0xFFFFFFFFFFFFFFFFFFFFFFFFFFFFFFFFFFFFFFFF MUL NOT AND SWAP1 DUP4 PUSH20 0xFFFFFFFFFFFFFFFFFFFFFFFFFFFFFFFFFFFFFFFF AND MUL OR SWAP1 SSTORE POP PUSH2 0x2218 PUSH8 0xC35260D3CA1195EC PUSH1 0xC0 SHL PUSH2 0x16B5 JUMP JUMPDEST PUSH2 0x222C PUSH8 0x26AA13ABF7403BEA PUSH1 0xC0 SHL PUSH2 0x16B5 JUMP JUMPDEST PUSH2 0x2256 PUSH32 0x60044782A422109AC08A415E44260AD5D3BAD63D96EBE1FAC0363399642EE3F2 CALLER PUSH2 0x33C4 JUMP JUMPDEST PUSH2 0x226A PUSH8 0x4C082C8F41673021 PUSH1 0xC0 SHL PUSH2 0x16B5 JUMP JUMPDEST PUSH2 0x227E PUSH8 0x6E38D6C81F9CAB45 PUSH1 0xC0 SHL PUSH2 0x16B5 JUMP JUMPDEST PUSH2 0x228B PUSH1 0x0 DUP1 SHL CALLER PUSH2 0x33C4 JUMP JUMPDEST PUSH2 0x229F PUSH8 0x508B6BB5DE8F3FBC PUSH1 0xC0 SHL PUSH2 0x16B5 JUMP JUMPDEST PUSH2 0x22B3 PUSH8 0xE9A8F8FB83DC4317 PUSH1 0xC0 SHL PUSH2 0x16B5 JUMP JUMPDEST PUSH2 0x22BD PUSH1 0xCA PUSH2 0x3A4B JUMP JUMPDEST DUP1 ISZERO PUSH2 0x2316 JUMPI PUSH1 0x0 PUSH1 0x1 DUP1 PUSH2 0x100 EXP DUP2 SLOAD DUP2 PUSH1 0xFF MUL NOT AND SWAP1 DUP4 ISZERO ISZERO MUL OR SWAP1 SSTORE POP PUSH32 0x7F26B83FF96E1F2B6A682F133852F6798A09C465DA95921460CEFB3847402498 PUSH1 0x1 PUSH1 0x40 MLOAD PUSH2 0x230D SWAP2 SWAP1 PUSH2 0x546A JUMP JUMPDEST PUSH1 0x40 MLOAD DUP1 SWAP2 SUB SWAP1 LOG1 JUMPDEST POP POP JUMP JUMPDEST PUSH1 0x0 SWAP2 SWAP1 POP JUMP JUMPDEST PUSH1 0x60 PUSH2 0x2337 PUSH8 0xD9FA80327E35D493 PUSH1 0xC0 SHL PUSH2 0x16B5 JUMP JUMPDEST PUSH2 0x234B PUSH8 0x7D940D36BBCA0699 PUSH1 0xC0 SHL PUSH2 0x16B5 JUMP JUMPDEST PUSH2 0x235F PUSH8 0x1DB7405E319F6DE0 PUSH1 0xC0 SHL PUSH2 0x16B5 JUMP JUMPDEST PUSH2 0x2373 PUSH8 0x83497CE10971C482 PUSH1 0xC0 SHL PUSH2 0x16B5 JUMP JUMPDEST PUSH2 0x237C DUP3 PUSH2 0x3A61 JUMP JUMPDEST PUSH1 0x40 MLOAD DUP1 PUSH1 0x40 ADD PUSH1 0x40 MSTORE DUP1 PUSH1 0x3 DUP2 MSTORE PUSH1 0x20 ADD PUSH32 0x3130310000000000000000000000000000000000000000000000000000000000 DUP2 MSTORE POP SWAP1 PUSH2 0x23F3 JUMPI PUSH1 0x40 MLOAD PUSH32 0x8C379A000000000000000000000000000000000000000000000000000000000 DUP2 MSTORE PUSH1 0x4 ADD PUSH2 0x23EA SWAP2 SWAP1 PUSH2 0x5485 JUMP JUMPDEST PUSH1 0x40 MLOAD DUP1 SWAP2 SUB SWAP1 REVERT JUMPDEST POP PUSH2 0x2408 PUSH8 0x62590D6ADD007060 PUSH1 0xC0 SHL PUSH2 0x16B5 JUMP JUMPDEST PUSH2 0x241C PUSH8 0x82D46AF2AF6D0E9 PUSH1 0xC0 SHL PUSH2 0x16B5 JUMP JUMPDEST PUSH2 0x2430 PUSH8 0x27C63058F90A8213 PUSH1 0xC0 SHL PUSH2 0x16B5 JUMP JUMPDEST PUSH1 0xCD PUSH1 0x0 DUP4 DUP2 MSTORE PUSH1 0x20 ADD SWAP1 DUP2 MSTORE PUSH1 0x20 ADD PUSH1 0x0 KECCAK256 DUP1 SLOAD PUSH2 0x244E SWAP1 PUSH2 0x5A16 JUMP JUMPDEST DUP1 PUSH1 0x1F ADD PUSH1 0x20 DUP1 SWAP2 DIV MUL PUSH1 0x20 ADD PUSH1 0x40 MLOAD SWAP1 DUP2 ADD PUSH1 0x40 MSTORE DUP1 SWAP3 SWAP2 SWAP1 DUP2 DUP2 MSTORE PUSH1 0x20 ADD DUP3 DUP1 SLOAD PUSH2 0x247A SWAP1 PUSH2 0x5A16 JUMP JUMPDEST DUP1 ISZERO PUSH2 0x24C7 JUMPI DUP1 PUSH1 0x1F LT PUSH2 0x249C JUMPI PUSH2 0x100 DUP1 DUP4 SLOAD DIV MUL DUP4 MSTORE SWAP2 PUSH1 0x20 ADD SWAP2 PUSH2 0x24C7 JUMP JUMPDEST DUP3 ADD SWAP2 SWAP1 PUSH1 0x0 MSTORE PUSH1 0x20 PUSH1 0x0 KECCAK256 SWAP1 JUMPDEST DUP2 SLOAD DUP2 MSTORE SWAP1 PUSH1 0x1 ADD SWAP1 PUSH1 0x20 ADD DUP1 DUP4 GT PUSH2 0x24AA JUMPI DUP3 SWAP1 SUB PUSH1 0x1F AND DUP3 ADD SWAP2 JUMPDEST POP POP POP POP POP SWAP1 POP SWAP2 SWAP1 POP JUMP JUMPDEST PUSH2 0x24E7 PUSH8 0x7A56FF4044E5432E PUSH1 0xC0 SHL PUSH2 0x16B5 JUMP JUMPDEST PUSH32 0x60044782A422109AC08A415E44260AD5D3BAD63D96EBE1FAC0363399642EE3F2 PUSH2 0x2511 DUP2 PUSH2 0x33B0 JUMP JUMPDEST PUSH2 0x2525 PUSH8 0xFF7E7F248D33E565 PUSH1 0xC0 SHL PUSH2 0x16B5 JUMP JUMPDEST PUSH2 0x2539 PUSH8 0xF395FC16C3FBE066 PUSH1 0xC0 SHL PUSH2 0x16B5 JUMP JUMPDEST PUSH2 0x254D PUSH8 0x9BBBAEF6A682F663 PUSH1 0xC0 SHL PUSH2 0x16B5 JUMP JUMPDEST PUSH2 0x2561 PUSH8 0xEE7E50A6420AF52A PUSH1 0xC0 SHL PUSH2 0x16B5 JUMP JUMPDEST PUSH2 0x2575 PUSH8 0xD909D8CA32FD994 PUSH1 0xC0 SHL PUSH2 0x16B5 JUMP JUMPDEST PUSH1 0x0 PUSH2 0x2580 DUP11 PUSH2 0x16B8 JUMP JUMPDEST EQ PUSH1 0x40 MLOAD DUP1 PUSH1 0x40 ADD PUSH1 0x40 MSTORE DUP1 PUSH1 0x3 DUP2 MSTORE PUSH1 0x20 ADD PUSH32 0x3130300000000000000000000000000000000000000000000000000000000000 DUP2 MSTORE POP SWAP1 PUSH2 0x25F8 JUMPI PUSH1 0x40 MLOAD PUSH32 0x8C379A000000000000000000000000000000000000000000000000000000000 DUP2 MSTORE PUSH1 0x4 ADD PUSH2 0x25EF SWAP2 SWAP1 PUSH2 0x5485 JUMP JUMPDEST PUSH1 0x40 MLOAD DUP1 SWAP2 SUB SWAP1 REVERT JUMPDEST POP PUSH2 0x260D PUSH8 0x82DC340FD2CE7A3C PUSH1 0xC0 SHL PUSH2 0x16B5 JUMP JUMPDEST PUSH2 0x2621 PUSH8 0xB936A459D9CCEEB4 PUSH1 0xC0 SHL PUSH2 0x16B5 JUMP JUMPDEST PUSH2 0x2635 PUSH8 0x33F80892F70F07C2 PUSH1 0xC0 SHL PUSH2 0x16B5 JUMP JUMPDEST PUSH2 0x2649 PUSH8 0x751A1E09C7B26B97 PUSH1 0xC0 SHL PUSH2 0x16B5 JUMP JUMPDEST TIMESTAMP DUP5 GT PUSH1 0x40 MLOAD DUP1 PUSH1 0x40 ADD PUSH1 0x40 MSTORE DUP1 PUSH1 0x3 DUP2 MSTORE PUSH1 0x20 ADD PUSH32 0x3130330000000000000000000000000000000000000000000000000000000000 DUP2 MSTORE POP SWAP1 PUSH2 0x26C3 JUMPI PUSH1 0x40 MLOAD PUSH32 0x8C379A000000000000000000000000000000000000000000000000000000000 DUP2 MSTORE PUSH1 0x4 ADD PUSH2 0x26BA SWAP2 SWAP1 PUSH2 0x5485 JUMP JUMPDEST PUSH1 0x40 MLOAD DUP1 SWAP2 SUB SWAP1 REVERT JUMPDEST POP PUSH2 0x26D8 PUSH8 0xF93752652B57FDA1 PUSH1 0xC0 SHL PUSH2 0x16B5 JUMP JUMPDEST PUSH2 0x26EC PUSH8 0x61658D08F3AED9F9 PUSH1 0xC0 SHL PUSH2 0x16B5 JUMP JUMPDEST PUSH2 0x2700 PUSH8 0xED3A0E877D7A61BA PUSH1 0xC0 SHL PUSH2 0x16B5 JUMP JUMPDEST PUSH1 0x0 PUSH2 0x270C PUSH1 0xCA PUSH2 0x36D5 JUMP JUMPDEST SWAP1 POP PUSH2 0x2722 PUSH8 0x3C9E84B7EFA50CCE PUSH1 0xC0 SHL PUSH2 0x16B5 JUMP JUMPDEST PUSH1 0x40 MLOAD DUP1 PUSH1 0xA0 ADD PUSH1 0x40 MSTORE DUP1 DUP3 DUP2 MSTORE PUSH1 0x20 ADD DUP11 DUP11 DUP1 DUP1 PUSH1 0x1F ADD PUSH1 0x20 DUP1 SWAP2 DIV MUL PUSH1 0x20 ADD PUSH1 0x40 MLOAD SWAP1 DUP2 ADD PUSH1 0x40 MSTORE DUP1 SWAP4 SWAP3 SWAP2 SWAP1 DUP2 DUP2 MSTORE PUSH1 0x20 ADD DUP4 DUP4 DUP1 DUP3 DUP5 CALLDATACOPY PUSH1 0x0 DUP2 DUP5 ADD MSTORE PUSH1 0x1F NOT PUSH1 0x1F DUP3 ADD AND SWAP1 POP DUP1 DUP4 ADD SWAP3 POP POP POP POP POP POP POP DUP2 MSTORE PUSH1 0x20 ADD DUP9 PUSH1 0xFF AND DUP2 MSTORE PUSH1 0x20 ADD DUP8 PUSH1 0xFF AND DUP2 MSTORE PUSH1 0x20 ADD DUP7 DUP2 MSTORE POP PUSH1 0x0 DUP1 DUP13 PUSH20 0xFFFFFFFFFFFFFFFFFFFFFFFFFFFFFFFFFFFFFFFF AND PUSH20 0xFFFFFFFFFFFFFFFFFFFFFFFFFFFFFFFFFFFFFFFF AND DUP2 MSTORE PUSH1 0x20 ADD SWAP1 DUP2 MSTORE PUSH1 0x20 ADD PUSH1 0x0 KECCAK256 PUSH1 0x0 DUP3 ADD MLOAD DUP2 PUSH1 0x0 ADD SSTORE PUSH1 0x20 DUP3 ADD MLOAD DUP2 PUSH1 0x1 ADD SWAP1 DUP1 MLOAD SWAP1 PUSH1 0x20 ADD SWAP1 PUSH2 0x27F7 SWAP3 SWAP2 SWAP1 PUSH2 0x47C2 JUMP JUMPDEST POP PUSH1 0x40 DUP3 ADD MLOAD DUP2 PUSH1 0x2 ADD PUSH1 0x0 PUSH2 0x100 EXP DUP2 SLOAD DUP2 PUSH1 0xFF MUL NOT AND SWAP1 DUP4 PUSH1 0xFF AND MUL OR SWAP1 SSTORE POP PUSH1 0x60 DUP3 ADD MLOAD DUP2 PUSH1 0x2 ADD PUSH1 0x1 PUSH2 0x100 EXP DUP2 SLOAD DUP2 PUSH1 0xFF MUL NOT AND SWAP1 DUP4 PUSH1 0xFF AND MUL OR SWAP1 SSTORE POP PUSH1 0x80 DUP3 ADD MLOAD DUP2 PUSH1 0x3 ADD SSTORE SWAP1 POP POP PUSH2 0x285B PUSH8 0x82A506ECBA8B3E36 PUSH1 0xC0 SHL PUSH2 0x16B5 JUMP JUMPDEST PUSH2 0x286F PUSH8 0x9758A2C9186CDC9 PUSH1 0xC0 SHL PUSH2 0x16B5 JUMP JUMPDEST PUSH2 0x2879 PUSH1 0xCA PUSH2 0x3A4B JUMP JUMPDEST PUSH2 0x288D PUSH8 0xEB47A0B425AA05FA PUSH1 0xC0 SHL PUSH2 0x16B5 JUMP JUMPDEST PUSH2 0x28A1 PUSH8 0xCEA4DA29C53476A7 PUSH1 0xC0 SHL PUSH2 0x16B5 JUMP JUMPDEST PUSH2 0x28AB DUP11 DUP3 PUSH2 0x3AA2 JUMP JUMPDEST PUSH2 0x28BF PUSH8 0xFB0EB89EC11ECC9A PUSH1 0xC0 SHL PUSH2 0x16B5 JUMP JUMPDEST DUP4 DUP4 PUSH1 0xCD PUSH1 0x0 DUP5 DUP2 MSTORE PUSH1 0x20 ADD SWAP1 DUP2 MSTORE PUSH1 0x20 ADD PUSH1 0x0 KECCAK256 SWAP2 SWAP1 PUSH2 0x28E1 SWAP3 SWAP2 SWAP1 PUSH2 0x4848 JUMP JUMPDEST POP PUSH2 0x28F6 PUSH8 0x9BEC0FBAF82459FE PUSH1 0xC0 SHL PUSH2 0x16B5 JUMP JUMPDEST DUP1 PUSH1 0xCC PUSH1 0x0 DUP13 PUSH20 0xFFFFFFFFFFFFFFFFFFFFFFFFFFFFFFFFFFFFFFFF AND PUSH20 0xFFFFFFFFFFFFFFFFFFFFFFFFFFFFFFFFFFFFFFFF AND DUP2 MSTORE PUSH1 0x20 ADD SWAP1 DUP2 MSTORE PUSH1 0x20 ADD PUSH1 0x0 KECCAK256 DUP2 SWAP1 SSTORE POP PUSH2 0x294E PUSH8 0xB5E9978688C1F840 PUSH1 0xC0 SHL PUSH2 0x16B5 JUMP JUMPDEST PUSH2 0x2962 PUSH8 0xC972F5A40165EC3E PUSH1 0xC0 SHL PUSH2 0x16B5 JUMP JUMPDEST PUSH1 0xCB PUSH1 0x0 SWAP1 SLOAD SWAP1 PUSH2 0x100 EXP SWAP1 DIV PUSH20 0xFFFFFFFFFFFFFFFFFFFFFFFFFFFFFFFFFFFFFFFF AND PUSH20 0xFFFFFFFFFFFFFFFFFFFFFFFFFFFFFFFFFFFFFFFF AND PUSH4 0x2F7F0A12 DUP12 PUSH1 0x40 MLOAD DUP3 PUSH4 0xFFFFFFFF AND PUSH1 0xE0 SHL DUP2 MSTORE PUSH1 0x4 ADD PUSH2 0x29BD SWAP2 SWAP1 PUSH2 0x53F3 JUMP JUMPDEST PUSH1 0x0 PUSH1 0x40 MLOAD DUP1 DUP4 SUB DUP2 PUSH1 0x0 DUP8 DUP1 EXTCODESIZE ISZERO DUP1 ISZERO PUSH2 0x29D7 JUMPI PUSH1 0x0 DUP1 REVERT JUMPDEST POP GAS CALL ISZERO DUP1 ISZERO PUSH2 0x29EB JUMPI RETURNDATASIZE PUSH1 0x0 DUP1 RETURNDATACOPY RETURNDATASIZE PUSH1 0x0 REVERT JUMPDEST POP POP POP POP PUSH2 0x2A03 PUSH8 0xFC195F73A047BB4E PUSH1 0xC0 SHL PUSH2 0x16B5 JUMP JUMPDEST PUSH2 0x2A17 PUSH8 0xE3169663323ECDC6 PUSH1 0xC0 SHL PUSH2 0x16B5 JUMP JUMPDEST DUP1 DUP11 PUSH20 0xFFFFFFFFFFFFFFFFFFFFFFFFFFFFFFFFFFFFFFFF AND PUSH32 0xAF62702571AA2959CC884D2D2F058F2DDE9F91F8CB7B5A5C62887EC1AEF856E7 PUSH1 0x40 MLOAD PUSH1 0x40 MLOAD DUP1 SWAP2 SUB SWAP1 LOG3 POP POP POP POP POP POP POP POP POP POP JUMP JUMPDEST PUSH2 0x2A70 DUP3 PUSH2 0xF20 JUMP JUMPDEST PUSH2 0x2A79 DUP2 PUSH2 0x33B0 JUMP JUMPDEST PUSH2 0x2A83 DUP4 DUP4 PUSH2 0x34A5 JUMP JUMPDEST POP POP POP JUMP JUMPDEST PUSH32 0x60044782A422109AC08A415E44260AD5D3BAD63D96EBE1FAC0363399642EE3F2 DUP2 JUMP JUMPDEST POP JUMP JUMPDEST PUSH1 0x0 PUSH1 0x1 SWAP1 POP SWAP2 SWAP1 POP JUMP JUMPDEST PUSH1 0x60 PUSH2 0x2AD0 PUSH8 0x371008949763F338 PUSH1 0xC0 SHL PUSH2 0x153E JUMP JUMPDEST PUSH2 0x2AE4 PUSH8 0xA5BD462CD2256C0B PUSH1 0xC0 SHL PUSH2 0x153E JUMP JUMPDEST PUSH2 0x2AF8 PUSH8 0x724C0F7161580572 PUSH1 0xC0 SHL PUSH2 0x153E JUMP JUMPDEST PUSH1 0x0 DUP1 DUP4 PUSH20 0xFFFFFFFFFFFFFFFFFFFFFFFFFFFFFFFFFFFFFFFF AND PUSH20 0xFFFFFFFFFFFFFFFFFFFFFFFFFFFFFFFFFFFFFFFF AND DUP2 MSTORE PUSH1 0x20 ADD SWAP1 DUP2 MSTORE PUSH1 0x20 ADD PUSH1 0x0 KECCAK256 PUSH1 0x1 ADD DUP1 SLOAD PUSH2 0x2B44 SWAP1 PUSH2 0x5A16 JUMP JUMPDEST DUP1 PUSH1 0x1F ADD PUSH1 0x20 DUP1 SWAP2 DIV MUL PUSH1 0x20 ADD PUSH1 0x40 MLOAD SWAP1 DUP2 ADD PUSH1 0x40 MSTORE DUP1 SWAP3 SWAP2 SWAP1 DUP2 DUP2 MSTORE PUSH1 0x20 ADD DUP3 DUP1 SLOAD PUSH2 0x2B70 SWAP1 PUSH2 0x5A16 JUMP JUMPDEST DUP1 ISZERO PUSH2 0x2BBD JUMPI DUP1 PUSH1 0x1F LT PUSH2 0x2B92 JUMPI PUSH2 0x100 DUP1 DUP4 SLOAD DIV MUL DUP4 MSTORE SWAP2 PUSH1 0x20 ADD SWAP2 PUSH2 0x2BBD JUMP JUMPDEST DUP3 ADD SWAP2 SWAP1 PUSH1 0x0 MSTORE PUSH1 0x20 PUSH1 0x0 KECCAK256 SWAP1 JUMPDEST DUP2 SLOAD DUP2 MSTORE SWAP1 PUSH1 0x1 ADD SWAP1 PUSH1 0x20 ADD DUP1 DUP4 GT PUSH2 0x2BA0 JUMPI DUP3 SWAP1 SUB PUSH1 0x1F AND DUP3 ADD SWAP2 JUMPDEST POP POP POP POP POP SWAP1 POP SWAP2 SWAP1 POP JUMP JUMPDEST PUSH1 0x0 SWAP2 SWAP1 POP JUMP JUMPDEST PUSH2 0x2BE4 PUSH8 0xD10123D8EC020C8B PUSH1 0xC0 SHL PUSH2 0x16B5 JUMP JUMPDEST PUSH32 0x60044782A422109AC08A415E44260AD5D3BAD63D96EBE1FAC0363399642EE3F2 PUSH2 0x2C0E DUP2 PUSH2 0x33B0 JUMP JUMPDEST PUSH2 0x2C22 PUSH8 0x8C2A105861BD2B28 PUSH1 0xC0 SHL PUSH2 0x16B5 JUMP JUMPDEST PUSH2 0x2C36 PUSH8 0x243F9099585693E0 PUSH1 0xC0 SHL PUSH2 0x16B5 JUMP JUMPDEST PUSH2 0x2C4A PUSH8 0x7DA896F8BF1CC3CF PUSH1 0xC0 SHL PUSH2 0x16B5 JUMP JUMPDEST PUSH2 0x2C5E PUSH8 0xCCCD7A33D4B9FA10 PUSH1 0xC0 SHL PUSH2 0x16B5 JUMP JUMPDEST PUSH2 0x2C72 PUSH8 0xD40C81E56E7696D8 PUSH1 0xC0 SHL PUSH2 0x16B5 JUMP JUMPDEST PUSH1 0x1 PUSH2 0x2C7D DUP9 PUSH2 0x16B8 JUMP JUMPDEST EQ PUSH1 0x40 MLOAD DUP1 PUSH1 0x40 ADD PUSH1 0x40 MSTORE DUP1 PUSH1 0x3 DUP2 MSTORE PUSH1 0x20 ADD PUSH32 0x3130310000000000000000000000000000000000000000000000000000000000 DUP2 MSTORE POP SWAP1 PUSH2 0x2CF5 JUMPI PUSH1 0x40 MLOAD PUSH32 0x8C379A000000000000000000000000000000000000000000000000000000000 DUP2 MSTORE PUSH1 0x4 ADD PUSH2 0x2CEC SWAP2 SWAP1 PUSH2 0x5485 JUMP JUMPDEST PUSH1 0x40 MLOAD DUP1 SWAP2 SUB SWAP1 REVERT JUMPDEST POP PUSH2 0x2D0A PUSH8 0xDC6F840EB155DF4C PUSH1 0xC0 SHL PUSH2 0x16B5 JUMP JUMPDEST PUSH2 0x2D1E PUSH8 0xD146A42F7B963B6C PUSH1 0xC0 SHL PUSH2 0x16B5 JUMP JUMPDEST PUSH2 0x2D32 PUSH8 0x7957DDDEF68A0DBD PUSH1 0xC0 SHL PUSH2 0x16B5 JUMP JUMPDEST PUSH1 0x0 DUP1 PUSH1 0x0 DUP10 PUSH20 0xFFFFFFFFFFFFFFFFFFFFFFFFFFFFFFFFFFFFFFFF AND PUSH20 0xFFFFFFFFFFFFFFFFFFFFFFFFFFFFFFFFFFFFFFFF AND DUP2 MSTORE PUSH1 0x20 ADD SWAP1 DUP2 MSTORE PUSH1 0x20 ADD PUSH1 0x0 KECCAK256 PUSH1 0x0 ADD SLOAD SWAP1 POP PUSH2 0x2D8C PUSH8 0x71C78ACF7C84DEC PUSH1 0xC0 SHL PUSH2 0x16B5 JUMP JUMPDEST PUSH1 0x40 MLOAD DUP1 PUSH1 0xA0 ADD PUSH1 0x40 MSTORE DUP1 DUP3 DUP2 MSTORE PUSH1 0x20 ADD DUP9 DUP9 DUP1 DUP1 PUSH1 0x1F ADD PUSH1 0x20 DUP1 SWAP2 DIV MUL PUSH1 0x20 ADD PUSH1 0x40 MLOAD SWAP1 DUP2 ADD PUSH1 0x40 MSTORE DUP1 SWAP4 SWAP3 SWAP2 SWAP1 DUP2 DUP2 MSTORE PUSH1 0x20 ADD DUP4 DUP4 DUP1 DUP3 DUP5 CALLDATACOPY PUSH1 0x0 DUP2 DUP5 ADD MSTORE PUSH1 0x1F NOT PUSH1 0x1F DUP3 ADD AND SWAP1 POP DUP1 DUP4 ADD SWAP3 POP POP POP POP POP POP POP DUP2 MSTORE PUSH1 0x20 ADD DUP7 PUSH1 0xFF AND DUP2 MSTORE PUSH1 0x20 ADD DUP6 PUSH1 0xFF AND DUP2 MSTORE PUSH1 0x20 ADD DUP5 DUP2 MSTORE POP PUSH1 0x0 DUP1 DUP11 PUSH20 0xFFFFFFFFFFFFFFFFFFFFFFFFFFFFFFFFFFFFFFFF AND PUSH20 0xFFFFFFFFFFFFFFFFFFFFFFFFFFFFFFFFFFFFFFFF AND DUP2 MSTORE PUSH1 0x20 ADD SWAP1 DUP2 MSTORE PUSH1 0x20 ADD PUSH1 0x0 KECCAK256 PUSH1 0x0 DUP3 ADD MLOAD DUP2 PUSH1 0x0 ADD SSTORE PUSH1 0x20 DUP3 ADD MLOAD DUP2 PUSH1 0x1 ADD SWAP1 DUP1 MLOAD SWAP1 PUSH1 0x20 ADD SWAP1 PUSH2 0x2E61 SWAP3 SWAP2 SWAP1 PUSH2 0x47C2 JUMP JUMPDEST POP PUSH1 0x40 DUP3 ADD MLOAD DUP2 PUSH1 0x2 ADD PUSH1 0x0 PUSH2 0x100 EXP DUP2 SLOAD DUP2 PUSH1 0xFF MUL NOT AND SWAP1 DUP4 PUSH1 0xFF AND MUL OR SWAP1 SSTORE POP PUSH1 0x60 DUP3 ADD MLOAD DUP2 PUSH1 0x2 ADD PUSH1 0x1 PUSH2 0x100 EXP DUP2 SLOAD DUP2 PUSH1 0xFF MUL NOT AND SWAP1 DUP4 PUSH1 0xFF AND MUL OR SWAP1 SSTORE POP PUSH1 0x80 DUP3 ADD MLOAD DUP2 PUSH1 0x3 ADD SSTORE SWAP1 POP POP PUSH2 0x2EC5 PUSH8 0xCFBDBD14EA70C189 PUSH1 0xC0 SHL PUSH2 0x16B5 JUMP JUMPDEST PUSH2 0x2ED9 PUSH8 0xE894815CB1587F6 PUSH1 0xC0 SHL PUSH2 0x16B5 JUMP JUMPDEST DUP1 DUP9 PUSH20 0xFFFFFFFFFFFFFFFFFFFFFFFFFFFFFFFFFFFFFFFF AND PUSH32 0x4A1E31466F875C6FCAFEFABF90BCE8ACCDF53108C4A309106058EF7AEFEBD5CE PUSH1 0x40 MLOAD PUSH1 0x40 MLOAD DUP1 SWAP2 SUB SWAP1 LOG3 POP POP POP POP POP POP POP POP JUMP JUMPDEST PUSH1 0x0 PUSH1 0x6B PUSH1 0x0 DUP5 PUSH20 0xFFFFFFFFFFFFFFFFFFFFFFFFFFFFFFFFFFFFFFFF AND PUSH20 0xFFFFFFFFFFFFFFFFFFFFFFFFFFFFFFFFFFFFFFFF AND DUP2 MSTORE PUSH1 0x20 ADD SWAP1 DUP2 MSTORE PUSH1 0x20 ADD PUSH1 0x0 KECCAK256 PUSH1 0x0 DUP4 PUSH20 0xFFFFFFFFFFFFFFFFFFFFFFFFFFFFFFFFFFFFFFFF AND PUSH20 0xFFFFFFFFFFFFFFFFFFFFFFFFFFFFFFFFFFFFFFFF AND DUP2 MSTORE PUSH1 0x20 ADD SWAP1 DUP2 MSTORE PUSH1 0x20 ADD PUSH1 0x0 KECCAK256 PUSH1 0x0 SWAP1 SLOAD SWAP1 PUSH2 0x100 EXP SWAP1 DIV PUSH1 0xFF AND SWAP1 POP SWAP3 SWAP2 POP POP JUMP JUMPDEST POP JUMP JUMPDEST PUSH1 0x0 SWAP2 SWAP1 POP JUMP JUMPDEST PUSH2 0x2FD9 PUSH8 0xB98EC7237C635EB7 PUSH1 0xC0 SHL PUSH2 0x16B5 JUMP JUMPDEST PUSH32 0x60044782A422109AC08A415E44260AD5D3BAD63D96EBE1FAC0363399642EE3F2 PUSH2 0x3003 DUP2 PUSH2 0x33B0 JUMP JUMPDEST PUSH2 0x3017 PUSH8 0x9BDEA5FBAF414ACF PUSH1 0xC0 SHL PUSH2 0x16B5 JUMP JUMPDEST PUSH2 0x302B PUSH8 0xCE81BE1DC86CF1B9 PUSH1 0xC0 SHL PUSH2 0x16B5 JUMP JUMPDEST PUSH2 0x303F PUSH8 0x58E6026E0C90F46D PUSH1 0xC0 SHL PUSH2 0x16B5 JUMP JUMPDEST PUSH2 0x3053 PUSH8 0x37C9271498392126 PUSH1 0xC0 SHL PUSH2 0x16B5 JUMP JUMPDEST PUSH1 0x0 PUSH1 0xCC PUSH1 0x0 DUP7 PUSH20 0xFFFFFFFFFFFFFFFFFFFFFFFFFFFFFFFFFFFFFFFF AND PUSH20 0xFFFFFFFFFFFFFFFFFFFFFFFFFFFFFFFFFFFFFFFF AND DUP2 MSTORE PUSH1 0x20 ADD SWAP1 DUP2 MSTORE PUSH1 0x20 ADD PUSH1 0x0 KECCAK256 SLOAD SWAP1 POP PUSH2 0x30AB PUSH8 0xB7B2E8036ABAF9FA PUSH1 0xC0 SHL PUSH2 0x16B5 JUMP JUMPDEST PUSH2 0x30BF PUSH8 0xD884D7A2E493B52D PUSH1 0xC0 SHL PUSH2 0x16B5 JUMP JUMPDEST PUSH2 0x30D3 PUSH8 0x14AE4FF4824CC3CB PUSH1 0xC0 SHL PUSH2 0x16B5 JUMP JUMPDEST PUSH2 0x30DC DUP2 PUSH2 0x3A61 JUMP JUMPDEST PUSH1 0x40 MLOAD DUP1 PUSH1 0x40 ADD PUSH1 0x40 MSTORE DUP1 PUSH1 0x3 DUP2 MSTORE PUSH1 0x20 ADD PUSH32 0x3130310000000000000000000000000000000000000000000000000000000000 DUP2 MSTORE POP SWAP1 PUSH2 0x3153 JUMPI PUSH1 0x40 MLOAD PUSH32 0x8C379A000000000000000000000000000000000000000000000000000000000 DUP2 MSTORE PUSH1 0x4 ADD PUSH2 0x314A SWAP2 SWAP1 PUSH2 0x5485 JUMP JUMPDEST PUSH1 0x40 MLOAD DUP1 SWAP2 SUB SWAP1 REVERT JUMPDEST POP PUSH2 0x3168 PUSH8 0x41E97FE671D34FA9 PUSH1 0xC0 SHL PUSH2 0x16B5 JUMP JUMPDEST PUSH2 0x317C PUSH8 0x69D0B154FA96C31 PUSH1 0xC0 SHL PUSH2 0x16B5 JUMP JUMPDEST DUP4 DUP4 PUSH1 0xCD PUSH1 0x0 DUP5 DUP2 MSTORE PUSH1 0x20 ADD SWAP1 DUP2 MSTORE PUSH1 0x20 ADD PUSH1 0x0 KECCAK256 SWAP2 SWAP1 PUSH2 0x319E SWAP3 SWAP2 SWAP1 PUSH2 0x4848 JUMP JUMPDEST POP PUSH2 0x31B3 PUSH8 0xEAED5F196289E10 PUSH1 0xC0 SHL PUSH2 0x16B5 JUMP JUMPDEST PUSH2 0x31C7 PUSH8 0x71F2625500517A19 PUSH1 0xC0 SHL PUSH2 0x16B5 JUMP JUMPDEST DUP4 DUP4 PUSH1 0x40 MLOAD PUSH2 0x31D7 SWAP3 SWAP2 SWAP1 PUSH2 0x5339 JUMP JUMPDEST PUSH1 0x40 MLOAD DUP1 SWAP2 SUB SWAP1 KECCAK256 DUP2 DUP7 PUSH20 0xFFFFFFFFFFFFFFFFFFFFFFFFFFFFFFFFFFFFFFFF AND PUSH32 0xE3A3E1A0BE0D562DD7EC739509D30DFBCA7CD174FBC576A45746FE1F3B277C26 PUSH1 0x40 MLOAD PUSH1 0x40 MLOAD DUP1 SWAP2 SUB SWAP1 LOG4 POP POP POP POP POP JUMP JUMPDEST PUSH1 0x0 PUSH32 0x7965DB0B00000000000000000000000000000000000000000000000000000000 PUSH28 0xFFFFFFFFFFFFFFFFFFFFFFFFFFFFFFFFFFFFFFFFFFFFFFFFFFFFFFFF NOT AND DUP3 PUSH28 0xFFFFFFFFFFFFFFFFFFFFFFFFFFFFFFFFFFFFFFFFFFFFFFFFFFFFFFFF NOT AND EQ DUP1 PUSH2 0x329D JUMPI POP PUSH2 0x329C DUP3 PUSH2 0x3AC0 JUMP JUMPDEST JUMPDEST SWAP1 POP SWAP2 SWAP1 POP JUMP JUMPDEST PUSH2 0x32AD DUP2 PUSH2 0x3A61 JUMP JUMPDEST PUSH2 0x32EC JUMPI PUSH1 0x40 MLOAD PUSH32 0x8C379A000000000000000000000000000000000000000000000000000000000 DUP2 MSTORE PUSH1 0x4 ADD PUSH2 0x32E3 SWAP1 PUSH2 0x5623 JUMP JUMPDEST PUSH1 0x40 MLOAD DUP1 SWAP2 SUB SWAP1 REVERT JUMPDEST POP JUMP JUMPDEST PUSH1 0x0 CALLER SWAP1 POP SWAP1 JUMP JUMPDEST DUP2 PUSH1 0x6A PUSH1 0x0 DUP4 DUP2 MSTORE PUSH1 0x20 ADD SWAP1 DUP2 MSTORE PUSH1 0x20 ADD PUSH1 0x0 KECCAK256 PUSH1 0x0 PUSH2 0x100 EXP DUP2 SLOAD DUP2 PUSH20 0xFFFFFFFFFFFFFFFFFFFFFFFFFFFFFFFFFFFFFFFF MUL NOT AND SWAP1 DUP4 PUSH20 0xFFFFFFFFFFFFFFFFFFFFFFFFFFFFFFFFFFFFFFFF AND MUL OR SWAP1 SSTORE POP DUP1 DUP3 PUSH20 0xFFFFFFFFFFFFFFFFFFFFFFFFFFFFFFFFFFFFFFFF AND PUSH2 0x336A DUP4 PUSH2 0x13D4 JUMP JUMPDEST PUSH20 0xFFFFFFFFFFFFFFFFFFFFFFFFFFFFFFFFFFFFFFFF AND PUSH32 0x8C5BE1E5EBEC7D5BD14F71427D1E84F3DD0314C0F7B2291E5B200AC8C7C3B925 PUSH1 0x40 MLOAD PUSH1 0x40 MLOAD DUP1 SWAP2 SUB SWAP1 LOG4 POP POP JUMP JUMPDEST PUSH2 0x33C1 DUP2 PUSH2 0x33BC PUSH2 0x32EF JUMP JUMPDEST PUSH2 0x3BA2 JUMP JUMPDEST POP JUMP JUMPDEST PUSH2 0x33CE DUP3 DUP3 PUSH2 0x1922 JUMP JUMPDEST PUSH2 0x34A1 JUMPI PUSH1 0x1 PUSH1 0x98 PUSH1 0x0 DUP5 DUP2 MSTORE PUSH1 0x20 ADD SWAP1 DUP2 MSTORE PUSH1 0x20 ADD PUSH1 0x0 KECCAK256 PUSH1 0x0 ADD PUSH1 0x0 DUP4 PUSH20 0xFFFFFFFFFFFFFFFFFFFFFFFFFFFFFFFFFFFFFFFF AND PUSH20 0xFFFFFFFFFFFFFFFFFFFFFFFFFFFFFFFFFFFFFFFF AND DUP2 MSTORE PUSH1 0x20 ADD SWAP1 DUP2 MSTORE PUSH1 0x20 ADD PUSH1 0x0 KECCAK256 PUSH1 0x0 PUSH2 0x100 EXP DUP2 SLOAD DUP2 PUSH1 0xFF MUL NOT AND SWAP1 DUP4 ISZERO ISZERO MUL OR SWAP1 SSTORE POP PUSH2 0x3446 PUSH2 0x32EF JUMP JUMPDEST PUSH20 0xFFFFFFFFFFFFFFFFFFFFFFFFFFFFFFFFFFFFFFFF AND DUP2 PUSH20 0xFFFFFFFFFFFFFFFFFFFFFFFFFFFFFFFFFFFFFFFF AND DUP4 PUSH32 0x2F8788117E7EFF1D82E926EC794901D17C78024A50270940304540A733656F0D PUSH1 0x40 MLOAD PUSH1 0x40 MLOAD DUP1 SWAP2 SUB SWAP1 LOG4 JUMPDEST POP POP JUMP JUMPDEST PUSH2 0x34AF DUP3 DUP3 PUSH2 0x1922 JUMP JUMPDEST ISZERO PUSH2 0x3583 JUMPI PUSH1 0x0 PUSH1 0x98 PUSH1 0x0 DUP5 DUP2 MSTORE PUSH1 0x20 ADD SWAP1 DUP2 MSTORE PUSH1 0x20 ADD PUSH1 0x0 KECCAK256 PUSH1 0x0 ADD PUSH1 0x0 DUP4 PUSH20 0xFFFFFFFFFFFFFFFFFFFFFFFFFFFFFFFFFFFFFFFF AND PUSH20 0xFFFFFFFFFFFFFFFFFFFFFFFFFFFFFFFFFFFFFFFF AND DUP2 MSTORE PUSH1 0x20 ADD SWAP1 DUP2 MSTORE PUSH1 0x20 ADD PUSH1 0x0 KECCAK256 PUSH1 0x0 PUSH2 0x100 EXP DUP2 SLOAD DUP2 PUSH1 0xFF MUL NOT AND SWAP1 DUP4 ISZERO ISZERO MUL OR SWAP1 SSTORE POP PUSH2 0x3528 PUSH2 0x32EF JUMP JUMPDEST PUSH20 0xFFFFFFFFFFFFFFFFFFFFFFFFFFFFFFFFFFFFFFFF AND DUP2 PUSH20 0xFFFFFFFFFFFFFFFFFFFFFFFFFFFFFFFFFFFFFFFF AND DUP4 PUSH32 0xF6391F5C32D9C69D2A47EA670B442974B53935D1EDC7FD64EB21E047A839171B PUSH1 0x40 MLOAD PUSH1 0x40 MLOAD DUP1 SWAP2 SUB SWAP1 LOG4 JUMPDEST POP POP JUMP JUMPDEST PUSH1 0x0 PUSH2 0x3592 DUP3 PUSH2 0x13D4 JUMP JUMPDEST SWAP1 POP PUSH2 0x35A2 DUP2 PUSH1 0x0 DUP5 PUSH1 0x1 PUSH2 0x3C27 JUMP JUMPDEST PUSH2 0x35AB DUP3 PUSH2 0x13D4 JUMP JUMPDEST SWAP1 POP PUSH1 0x6A PUSH1 0x0 DUP4 DUP2 MSTORE PUSH1 0x20 ADD SWAP1 DUP2 MSTORE PUSH1 0x20 ADD PUSH1 0x0 KECCAK256 PUSH1 0x0 PUSH2 0x100 EXP DUP2 SLOAD SWAP1 PUSH20 0xFFFFFFFFFFFFFFFFFFFFFFFFFFFFFFFFFFFFFFFF MUL NOT AND SWAP1 SSTORE PUSH1 0x1 PUSH1 0x69 PUSH1 0x0 DUP4 PUSH20 0xFFFFFFFFFFFFFFFFFFFFFFFFFFFFFFFFFFFFFFFF AND PUSH20 0xFFFFFFFFFFFFFFFFFFFFFFFFFFFFFFFFFFFFFFFF AND DUP2 MSTORE PUSH1 0x20 ADD SWAP1 DUP2 MSTORE PUSH1 0x20 ADD PUSH1 0x0 KECCAK256 PUSH1 0x0 DUP3 DUP3 SLOAD SUB SWAP3 POP POP DUP2 SWAP1 SSTORE POP PUSH1 0x68 PUSH1 0x0 DUP4 DUP2 MSTORE PUSH1 0x20 ADD SWAP1 DUP2 MSTORE PUSH1 0x20 ADD PUSH1 0x0 KECCAK256 PUSH1 0x0 PUSH2 0x100 EXP DUP2 SLOAD SWAP1 PUSH20 0xFFFFFFFFFFFFFFFFFFFFFFFFFFFFFFFFFFFFFFFF MUL NOT AND SWAP1 SSTORE DUP2 PUSH1 0x0 PUSH20 0xFFFFFFFFFFFFFFFFFFFFFFFFFFFFFFFFFFFFFFFF AND DUP3 PUSH20 0xFFFFFFFFFFFFFFFFFFFFFFFFFFFFFFFFFFFFFFFF AND PUSH32 0xDDF252AD1BE2C89B69C2B068FC378DAA952BA7F163C4A11628F55A4DF523B3EF PUSH1 0x40 MLOAD PUSH1 0x40 MLOAD DUP1 SWAP2 SUB SWAP1 LOG4 PUSH2 0x36D1 DUP2 PUSH1 0x0 DUP5 PUSH1 0x1 PUSH2 0x3C2D JUMP JUMPDEST POP POP JUMP JUMPDEST PUSH1 0x0 DUP2 PUSH1 0x0 ADD SLOAD SWAP1 POP SWAP2 SWAP1 POP JUMP JUMPDEST PUSH1 0x0 PUSH1 0x68 PUSH1 0x0 DUP4 DUP2 MSTORE PUSH1 0x20 ADD SWAP1 DUP2 MSTORE PUSH1 0x20 ADD PUSH1 0x0 KECCAK256 PUSH1 0x0 SWAP1 SLOAD SWAP1 PUSH2 0x100 EXP SWAP1 DIV PUSH20 0xFFFFFFFFFFFFFFFFFFFFFFFFFFFFFFFFFFFFFFFF AND SWAP1 POP SWAP2 SWAP1 POP JUMP JUMPDEST DUP2 PUSH20 0xFFFFFFFFFFFFFFFFFFFFFFFFFFFFFFFFFFFFFFFF AND DUP4 PUSH20 0xFFFFFFFFFFFFFFFFFFFFFFFFFFFFFFFFFFFFFFFF AND EQ ISZERO PUSH2 0x378F JUMPI PUSH1 0x40 MLOAD PUSH32 0x8C379A000000000000000000000000000000000000000000000000000000000 DUP2 MSTORE PUSH1 0x4 ADD PUSH2 0x3786 SWAP1 PUSH2 0x5567 JUMP JUMPDEST PUSH1 0x40 MLOAD DUP1 SWAP2 SUB SWAP1 REVERT JUMPDEST DUP1 PUSH1 0x6B PUSH1 0x0 DUP6 PUSH20 0xFFFFFFFFFFFFFFFFFFFFFFFFFFFFFFFFFFFFFFFF AND PUSH20 0xFFFFFFFFFFFFFFFFFFFFFFFFFFFFFFFFFFFFFFFF AND DUP2 MSTORE PUSH1 0x20 ADD SWAP1 DUP2 MSTORE PUSH1 0x20 ADD PUSH1 0x0 KECCAK256 PUSH1 0x0 DUP5 PUSH20 0xFFFFFFFFFFFFFFFFFFFFFFFFFFFFFFFFFFFFFFFF AND PUSH20 0xFFFFFFFFFFFFFFFFFFFFFFFFFFFFFFFFFFFFFFFF AND DUP2 MSTORE PUSH1 0x20 ADD SWAP1 DUP2 MSTORE PUSH1 0x20 ADD PUSH1 0x0 KECCAK256 PUSH1 0x0 PUSH2 0x100 EXP DUP2 SLOAD DUP2 PUSH1 0xFF MUL NOT AND SWAP1 DUP4 ISZERO ISZERO MUL OR SWAP1 SSTORE POP DUP2 PUSH20 0xFFFFFFFFFFFFFFFFFFFFFFFFFFFFFFFFFFFFFFFF AND DUP4 PUSH20 0xFFFFFFFFFFFFFFFFFFFFFFFFFFFFFFFFFFFFFFFF AND PUSH32 0x17307EAB39AB6107E8899845AD3D59BD9653F200F220920489CA2B5937696C31 DUP4 PUSH1 0x40 MLOAD PUSH2 0x3880 SWAP2 SWAP1 PUSH2 0x5434 JUMP JUMPDEST PUSH1 0x40 MLOAD DUP1 SWAP2 SUB SWAP1 LOG3 POP POP POP JUMP JUMPDEST PUSH1 0x0 DUP1 PUSH2 0x3899 DUP4 PUSH2 0x13D4 JUMP JUMPDEST SWAP1 POP DUP1 PUSH20 0xFFFFFFFFFFFFFFFFFFFFFFFFFFFFFFFFFFFFFFFF AND DUP5 PUSH20 0xFFFFFFFFFFFFFFFFFFFFFFFFFFFFFFFFFFFFFFFF AND EQ DUP1 PUSH2 0x38DB JUMPI POP PUSH2 0x38DA DUP2 DUP6 PUSH2 0x2F27 JUMP JUMPDEST JUMPDEST DUP1 PUSH2 0x3919 JUMPI POP DUP4 PUSH20 0xFFFFFFFFFFFFFFFFFFFFFFFFFFFFFFFFFFFFFFFF AND PUSH2 0x3901 DUP5 PUSH2 0xAC7 JUMP JUMPDEST PUSH20 0xFFFFFFFFFFFFFFFFFFFFFFFFFFFFFFFFFFFFFFFF AND EQ JUMPDEST SWAP2 POP POP SWAP3 SWAP2 POP POP JUMP JUMPDEST PUSH2 0x392D DUP5 DUP5 DUP5 PUSH2 0x3C33 JUMP JUMPDEST PUSH2 0x3939 DUP5 DUP5 DUP5 DUP5 PUSH2 0x3F2D JUMP JUMPDEST PUSH2 0x3978 JUMPI PUSH1 0x40 MLOAD PUSH32 0x8C379A000000000000000000000000000000000000000000000000000000000 DUP2 MSTORE PUSH1 0x4 ADD PUSH2 0x396F SWAP1 PUSH2 0x54E7 JUMP JUMPDEST PUSH1 0x40 MLOAD DUP1 SWAP2 SUB SWAP1 REVERT JUMPDEST POP POP POP POP JUMP JUMPDEST PUSH1 0x0 DUP1 DUP3 PUSH20 0xFFFFFFFFFFFFFFFFFFFFFFFFFFFFFFFFFFFFFFFF AND EXTCODESIZE GT SWAP1 POP SWAP2 SWAP1 POP JUMP JUMPDEST PUSH1 0x1 DUP1 SLOAD SWAP1 PUSH2 0x100 EXP SWAP1 DIV PUSH1 0xFF AND PUSH2 0x39EE JUMPI PUSH1 0x40 MLOAD PUSH32 0x8C379A000000000000000000000000000000000000000000000000000000000 DUP2 MSTORE PUSH1 0x4 ADD PUSH2 0x39E5 SWAP1 PUSH2 0x5683 JUMP JUMPDEST PUSH1 0x40 MLOAD DUP1 SWAP2 SUB SWAP1 REVERT JUMPDEST JUMP JUMPDEST PUSH1 0x1 DUP1 SLOAD SWAP1 PUSH2 0x100 EXP SWAP1 DIV PUSH1 0xFF AND PUSH2 0x3A3D JUMPI PUSH1 0x40 MLOAD PUSH32 0x8C379A000000000000000000000000000000000000000000000000000000000 DUP2 MSTORE PUSH1 0x4 ADD PUSH2 0x3A34 SWAP1 PUSH2 0x5683 JUMP JUMPDEST PUSH1 0x40 MLOAD DUP1 SWAP2 SUB SWAP1 REVERT JUMPDEST PUSH2 0x3A47 DUP3 DUP3 PUSH2 0x40C4 JUMP JUMPDEST POP POP JUMP JUMPDEST PUSH1 0x1 DUP2 PUSH1 0x0 ADD PUSH1 0x0 DUP3 DUP3 SLOAD ADD SWAP3 POP POP DUP2 SWAP1 SSTORE POP POP JUMP JUMPDEST PUSH1 0x0 DUP1 PUSH20 0xFFFFFFFFFFFFFFFFFFFFFFFFFFFFFFFFFFFFFFFF AND PUSH2 0x3A83 DUP4 PUSH2 0x36E3 JUMP JUMPDEST PUSH20 0xFFFFFFFFFFFFFFFFFFFFFFFFFFFFFFFFFFFFFFFF AND EQ ISZERO SWAP1 POP SWAP2 SWAP1 POP JUMP JUMPDEST PUSH2 0x3ABC DUP3 DUP3 PUSH1 0x40 MLOAD DUP1 PUSH1 0x20 ADD PUSH1 0x40 MSTORE DUP1 PUSH1 0x0 DUP2 MSTORE POP PUSH2 0x4143 JUMP JUMPDEST POP POP JUMP JUMPDEST PUSH1 0x0 PUSH32 0x80AC58CD00000000000000000000000000000000000000000000000000000000 PUSH28 0xFFFFFFFFFFFFFFFFFFFFFFFFFFFFFFFFFFFFFFFFFFFFFFFFFFFFFFFF NOT AND DUP3 PUSH28 0xFFFFFFFFFFFFFFFFFFFFFFFFFFFFFFFFFFFFFFFFFFFFFFFFFFFFFFFF NOT AND EQ DUP1 PUSH2 0x3B8B JUMPI POP PUSH32 0x5B5E139F00000000000000000000000000000000000000000000000000000000 PUSH28 0xFFFFFFFFFFFFFFFFFFFFFFFFFFFFFFFFFFFFFFFFFFFFFFFFFFFFFFFF NOT AND DUP3 PUSH28 0xFFFFFFFFFFFFFFFFFFFFFFFFFFFFFFFFFFFFFFFFFFFFFFFFFFFFFFFF NOT AND EQ JUMPDEST DUP1 PUSH2 0x3B9B JUMPI POP PUSH2 0x3B9A DUP3 PUSH2 0x419E JUMP JUMPDEST JUMPDEST SWAP1 POP SWAP2 SWAP1 POP JUMP JUMPDEST PUSH2 0x3BAC DUP3 DUP3 PUSH2 0x1922 JUMP JUMPDEST PUSH2 0x3C23 JUMPI PUSH2 0x3BB9 DUP2 PUSH2 0x4208 JUMP JUMPDEST PUSH2 0x3BC7 DUP4 PUSH1 0x0 SHR PUSH1 0x20 PUSH2 0x4235 JUMP JUMPDEST PUSH1 0x40 MLOAD PUSH1 0x20 ADD PUSH2 0x3BD8 SWAP3 SWAP2 SWAP1 PUSH2 0x5352 JUMP JUMPDEST PUSH1 0x40 MLOAD PUSH1 0x20 DUP2 DUP4 SUB SUB DUP2 MSTORE SWAP1 PUSH1 0x40 MSTORE PUSH1 0x40 MLOAD PUSH32 0x8C379A000000000000000000000000000000000000000000000000000000000 DUP2 MSTORE PUSH1 0x4 ADD PUSH2 0x3C1A SWAP2 SWAP1 PUSH2 0x5485 JUMP JUMPDEST PUSH1 0x40 MLOAD DUP1 SWAP2 SUB SWAP1 REVERT JUMPDEST POP POP JUMP JUMPDEST POP POP POP POP JUMP JUMPDEST POP POP POP POP JUMP JUMPDEST DUP3 PUSH20 0xFFFFFFFFFFFFFFFFFFFFFFFFFFFFFFFFFFFFFFFF AND PUSH2 0x3C53 DUP3 PUSH2 0x13D4 JUMP JUMPDEST PUSH20 0xFFFFFFFFFFFFFFFFFFFFFFFFFFFFFFFFFFFFFFFF AND EQ PUSH2 0x3CA9 JUMPI PUSH1 0x40 MLOAD PUSH32 0x8C379A000000000000000000000000000000000000000000000000000000000 DUP2 MSTORE PUSH1 0x4 ADD PUSH2 0x3CA0 SWAP1 PUSH2 0x5507 JUMP JUMPDEST PUSH1 0x40 MLOAD DUP1 SWAP2 SUB SWAP1 REVERT JUMPDEST PUSH1 0x0 PUSH20 0xFFFFFFFFFFFFFFFFFFFFFFFFFFFFFFFFFFFFFFFF AND DUP3 PUSH20 0xFFFFFFFFFFFFFFFFFFFFFFFFFFFFFFFFFFFFFFFF AND EQ ISZERO PUSH2 0x3D19 JUMPI PUSH1 0x40 MLOAD PUSH32 0x8C379A000000000000000000000000000000000000000000000000000000000 DUP2 MSTORE PUSH1 0x4 ADD PUSH2 0x3D10 SWAP1 PUSH2 0x5547 JUMP JUMPDEST PUSH1 0x40 MLOAD DUP1 SWAP2 SUB SWAP1 REVERT JUMPDEST PUSH2 0x3D26 DUP4 DUP4 DUP4 PUSH1 0x1 PUSH2 0x3C27 JUMP JUMPDEST DUP3 PUSH20 0xFFFFFFFFFFFFFFFFFFFFFFFFFFFFFFFFFFFFFFFF AND PUSH2 0x3D46 DUP3 PUSH2 0x13D4 JUMP JUMPDEST PUSH20 0xFFFFFFFFFFFFFFFFFFFFFFFFFFFFFFFFFFFFFFFF AND EQ PUSH2 0x3D9C JUMPI PUSH1 0x40 MLOAD PUSH32 0x8C379A000000000000000000000000000000000000000000000000000000000 DUP2 MSTORE PUSH1 0x4 ADD PUSH2 0x3D93 SWAP1 PUSH2 0x5507 JUMP JUMPDEST PUSH1 0x40 MLOAD DUP1 SWAP2 SUB SWAP1 REVERT JUMPDEST PUSH1 0x6A PUSH1 0x0 DUP3 DUP2 MSTORE PUSH1 0x20 ADD SWAP1 DUP2 MSTORE PUSH1 0x20 ADD PUSH1 0x0 KECCAK256 PUSH1 0x0 PUSH2 0x100 EXP DUP2 SLOAD SWAP1 PUSH20 0xFFFFFFFFFFFFFFFFFFFFFFFFFFFFFFFFFFFFFFFF MUL NOT AND SWAP1 SSTORE PUSH1 0x1 PUSH1 0x69 PUSH1 0x0 DUP6 PUSH20 0xFFFFFFFFFFFFFFFFFFFFFFFFFFFFFFFFFFFFFFFF AND PUSH20 0xFFFFFFFFFFFFFFFFFFFFFFFFFFFFFFFFFFFFFFFF AND DUP2 MSTORE PUSH1 0x20 ADD SWAP1 DUP2 MSTORE PUSH1 0x20 ADD PUSH1 0x0 KECCAK256 PUSH1 0x0 DUP3 DUP3 SLOAD SUB SWAP3 POP POP DUP2 SWAP1 SSTORE POP PUSH1 0x1 PUSH1 0x69 PUSH1 0x0 DUP5 PUSH20 0xFFFFFFFFFFFFFFFFFFFFFFFFFFFFFFFFFFFFFFFF AND PUSH20 0xFFFFFFFFFFFFFFFFFFFFFFFFFFFFFFFFFFFFFFFF AND DUP2 MSTORE PUSH1 0x20 ADD SWAP1 DUP2 MSTORE PUSH1 0x20 ADD PUSH1 0x0 KECCAK256 PUSH1 0x0 DUP3 DUP3 SLOAD ADD SWAP3 POP POP DUP2 SWAP1 SSTORE POP DUP2 PUSH1 0x68 PUSH1 0x0 DUP4 DUP2 MSTORE PUSH1 0x20 ADD SWAP1 DUP2 MSTORE PUSH1 0x20 ADD PUSH1 0x0 KECCAK256 PUSH1 0x0 PUSH2 0x100 EXP DUP2 SLOAD DUP2 PUSH20 0xFFFFFFFFFFFFFFFFFFFFFFFFFFFFFFFFFFFFFFFF MUL NOT AND SWAP1 DUP4 PUSH20 0xFFFFFFFFFFFFFFFFFFFFFFFFFFFFFFFFFFFFFFFF AND MUL OR SWAP1 SSTORE POP DUP1 DUP3 PUSH20 0xFFFFFFFFFFFFFFFFFFFFFFFFFFFFFFFFFFFFFFFF AND DUP5 PUSH20 0xFFFFFFFFFFFFFFFFFFFFFFFFFFFFFFFFFFFFFFFF AND PUSH32 0xDDF252AD1BE2C89B69C2B068FC378DAA952BA7F163C4A11628F55A4DF523B3EF PUSH1 0x40 MLOAD PUSH1 0x40 MLOAD DUP1 SWAP2 SUB SWAP1 LOG4 PUSH2 0x3F28 DUP4 DUP4 DUP4 PUSH1 0x1 PUSH2 0x3C2D JUMP JUMPDEST POP POP POP JUMP JUMPDEST PUSH1 0x0 PUSH2 0x3F4E DUP5 PUSH20 0xFFFFFFFFFFFFFFFFFFFFFFFFFFFFFFFFFFFFFFFF AND PUSH2 0x397E JUMP JUMPDEST ISZERO PUSH2 0x40B7 JUMPI DUP4 PUSH20 0xFFFFFFFFFFFFFFFFFFFFFFFFFFFFFFFFFFFFFFFF AND PUSH4 0x150B7A02 PUSH2 0x3F77 PUSH2 0x32EF JUMP JUMPDEST DUP8 DUP7 DUP7 PUSH1 0x40 MLOAD DUP6 PUSH4 0xFFFFFFFF AND PUSH1 0xE0 SHL DUP2 MSTORE PUSH1 0x4 ADD PUSH2 0x3F99 SWAP5 SWAP4 SWAP3 SWAP2 SWAP1 PUSH2 0x53A7 JUMP JUMPDEST PUSH1 0x20 PUSH1 0x40 MLOAD DUP1 DUP4 SUB DUP2 PUSH1 0x0 DUP8 DUP1 EXTCODESIZE ISZERO DUP1 ISZERO PUSH2 0x3FB3 JUMPI PUSH1 0x0 DUP1 REVERT JUMPDEST POP GAS CALL SWAP3 POP POP POP DUP1 ISZERO PUSH2 0x3FE4 JUMPI POP PUSH1 0x40 MLOAD RETURNDATASIZE PUSH1 0x1F NOT PUSH1 0x1F DUP3 ADD AND DUP3 ADD DUP1 PUSH1 0x40 MSTORE POP DUP2 ADD SWAP1 PUSH2 0x3FE1 SWAP2 SWAP1 PUSH2 0x4E27 JUMP JUMPDEST PUSH1 0x1 JUMPDEST PUSH2 0x4067 JUMPI RETURNDATASIZE DUP1 PUSH1 0x0 DUP2 EQ PUSH2 0x4014 JUMPI PUSH1 0x40 MLOAD SWAP2 POP PUSH1 0x1F NOT PUSH1 0x3F RETURNDATASIZE ADD AND DUP3 ADD PUSH1 0x40 MSTORE RETURNDATASIZE DUP3 MSTORE RETURNDATASIZE PUSH1 0x0 PUSH1 0x20 DUP5 ADD RETURNDATACOPY PUSH2 0x4019 JUMP JUMPDEST PUSH1 0x60 SWAP2 POP JUMPDEST POP PUSH1 0x0 DUP2 MLOAD EQ ISZERO PUSH2 0x405F JUMPI PUSH1 0x40 MLOAD PUSH32 0x8C379A000000000000000000000000000000000000000000000000000000000 DUP2 MSTORE PUSH1 0x4 ADD PUSH2 0x4056 SWAP1 PUSH2 0x54E7 JUMP JUMPDEST PUSH1 0x40 MLOAD DUP1 SWAP2 SUB SWAP1 REVERT JUMPDEST DUP1 MLOAD DUP2 PUSH1 0x20 ADD REVERT JUMPDEST PUSH4 0x150B7A02 PUSH1 0xE0 SHL PUSH28 0xFFFFFFFFFFFFFFFFFFFFFFFFFFFFFFFFFFFFFFFFFFFFFFFFFFFFFFFF NOT AND DUP2 PUSH28 0xFFFFFFFFFFFFFFFFFFFFFFFFFFFFFFFFFFFFFFFFFFFFFFFFFFFFFFFF NOT AND EQ SWAP2 POP POP PUSH2 0x40BC JUMP JUMPDEST PUSH1 0x1 SWAP1 POP JUMPDEST SWAP5 SWAP4 POP POP POP POP JUMP JUMPDEST PUSH1 0x1 DUP1 SLOAD SWAP1 PUSH2 0x100 EXP SWAP1 DIV PUSH1 0xFF AND PUSH2 0x4111 JUMPI PUSH1 0x40 MLOAD PUSH32 0x8C379A000000000000000000000000000000000000000000000000000000000 DUP2 MSTORE PUSH1 0x4 ADD PUSH2 0x4108 SWAP1 PUSH2 0x5683 JUMP JUMPDEST PUSH1 0x40 MLOAD DUP1 SWAP2 SUB SWAP1 REVERT JUMPDEST DUP2 PUSH1 0x66 SWAP1 DUP1 MLOAD SWAP1 PUSH1 0x20 ADD SWAP1 PUSH2 0x4127 SWAP3 SWAP2 SWAP1 PUSH2 0x47C2 JUMP JUMPDEST POP DUP1 PUSH1 0x67 SWAP1 DUP1 MLOAD SWAP1 PUSH1 0x20 ADD SWAP1 PUSH2 0x413E SWAP3 SWAP2 SWAP1 PUSH2 0x47C2 JUMP JUMPDEST POP POP POP JUMP JUMPDEST PUSH2 0x414D DUP4 DUP4 PUSH2 0x452F JUMP JUMPDEST PUSH2 0x415A PUSH1 0x0 DUP5 DUP5 DUP5 PUSH2 0x3F2D JUMP JUMPDEST PUSH2 0x4199 JUMPI PUSH1 0x40 MLOAD PUSH32 0x8C379A000000000000000000000000000000000000000000000000000000000 DUP2 MSTORE PUSH1 0x4 ADD PUSH2 0x4190 SWAP1 PUSH2 0x54E7 JUMP JUMPDEST PUSH1 0x40 MLOAD DUP1 SWAP2 SUB SWAP1 REVERT JUMPDEST POP POP POP JUMP JUMPDEST PUSH1 0x0 PUSH32 0x1FFC9A700000000000000000000000000000000000000000000000000000000 PUSH28 0xFFFFFFFFFFFFFFFFFFFFFFFFFFFFFFFFFFFFFFFFFFFFFFFFFFFFFFFF NOT AND DUP3 PUSH28 0xFFFFFFFFFFFFFFFFFFFFFFFFFFFFFFFFFFFFFFFFFFFFFFFFFFFFFFFF NOT AND EQ SWAP1 POP SWAP2 SWAP1 POP JUMP JUMPDEST PUSH1 0x60 PUSH2 0x422E DUP3 PUSH20 0xFFFFFFFFFFFFFFFFFFFFFFFFFFFFFFFFFFFFFFFF AND PUSH1 0x14 PUSH1 0xFF AND PUSH2 0x4235 JUMP JUMPDEST SWAP1 POP SWAP2 SWAP1 POP JUMP JUMPDEST PUSH1 0x60 PUSH1 0x0 PUSH1 0x2 DUP4 PUSH1 0x2 PUSH2 0x4248 SWAP2 SWAP1 PUSH2 0x5875 JUMP JUMPDEST PUSH2 0x4252 SWAP2 SWAP1 PUSH2 0x581F JUMP JUMPDEST PUSH8 0xFFFFFFFFFFFFFFFF DUP2 GT ISZERO PUSH2 0x4291 JUMPI PUSH32 0x4E487B7100000000000000000000000000000000000000000000000000000000 PUSH1 0x0 MSTORE PUSH1 0x41 PUSH1 0x4 MSTORE PUSH1 0x24 PUSH1 0x0 REVERT JUMPDEST PUSH1 0x40 MLOAD SWAP1 DUP1 DUP3 MSTORE DUP1 PUSH1 0x1F ADD PUSH1 0x1F NOT AND PUSH1 0x20 ADD DUP3 ADD PUSH1 0x40 MSTORE DUP1 ISZERO PUSH2 0x42C3 JUMPI DUP2 PUSH1 0x20 ADD PUSH1 0x1 DUP3 MUL DUP1 CALLDATASIZE DUP4 CALLDATACOPY DUP1 DUP3 ADD SWAP2 POP POP SWAP1 POP JUMPDEST POP SWAP1 POP PUSH32 0x3000000000000000000000000000000000000000000000000000000000000000 DUP2 PUSH1 0x0 DUP2 MLOAD DUP2 LT PUSH2 0x4321 JUMPI PUSH32 0x4E487B7100000000000000000000000000000000000000000000000000000000 PUSH1 0x0 MSTORE PUSH1 0x32 PUSH1 0x4 MSTORE PUSH1 0x24 PUSH1 0x0 REVERT JUMPDEST PUSH1 0x20 ADD ADD SWAP1 PUSH31 0xFFFFFFFFFFFFFFFFFFFFFFFFFFFFFFFFFFFFFFFFFFFFFFFFFFFFFFFFFFFFFF NOT AND SWAP1 DUP2 PUSH1 0x0 BYTE SWAP1 MSTORE8 POP PUSH32 0x7800000000000000000000000000000000000000000000000000000000000000 DUP2 PUSH1 0x1 DUP2 MLOAD DUP2 LT PUSH2 0x43AB JUMPI PUSH32 0x4E487B7100000000000000000000000000000000000000000000000000000000 PUSH1 0x0 MSTORE PUSH1 0x32 PUSH1 0x4 MSTORE PUSH1 0x24 PUSH1 0x0 REVERT JUMPDEST PUSH1 0x20 ADD ADD SWAP1 PUSH31 0xFFFFFFFFFFFFFFFFFFFFFFFFFFFFFFFFFFFFFFFFFFFFFFFFFFFFFFFFFFFFFF NOT AND SWAP1 DUP2 PUSH1 0x0 BYTE SWAP1 MSTORE8 POP PUSH1 0x0 PUSH1 0x1 DUP5 PUSH1 0x2 PUSH2 0x43EB SWAP2 SWAP1 PUSH2 0x5875 JUMP JUMPDEST PUSH2 0x43F5 SWAP2 SWAP1 PUSH2 0x581F JUMP JUMPDEST SWAP1 POP JUMPDEST PUSH1 0x1 DUP2 GT ISZERO PUSH2 0x44E1 JUMPI PUSH32 0x3031323334353637383961626364656600000000000000000000000000000000 PUSH1 0xF DUP7 AND PUSH1 0x10 DUP2 LT PUSH2 0x445D JUMPI PUSH32 0x4E487B7100000000000000000000000000000000000000000000000000000000 PUSH1 0x0 MSTORE PUSH1 0x32 PUSH1 0x4 MSTORE PUSH1 0x24 PUSH1 0x0 REVERT JUMPDEST BYTE PUSH1 0xF8 SHL DUP3 DUP3 DUP2 MLOAD DUP2 LT PUSH2 0x449A JUMPI PUSH32 0x4E487B7100000000000000000000000000000000000000000000000000000000 PUSH1 0x0 MSTORE PUSH1 0x32 PUSH1 0x4 MSTORE PUSH1 0x24 PUSH1 0x0 REVERT JUMPDEST PUSH1 0x20 ADD ADD SWAP1 PUSH31 0xFFFFFFFFFFFFFFFFFFFFFFFFFFFFFFFFFFFFFFFFFFFFFFFFFFFFFFFFFFFFFF NOT AND SWAP1 DUP2 PUSH1 0x0 BYTE SWAP1 MSTORE8 POP PUSH1 0x4 DUP6 SWAP1 SHR SWAP5 POP DUP1 PUSH2 0x44DA SWAP1 PUSH2 0x59EC JUMP JUMPDEST SWAP1 POP PUSH2 0x43F8 JUMP JUMPDEST POP PUSH1 0x0 DUP5 EQ PUSH2 0x4525 JUMPI PUSH1 0x40 MLOAD PUSH32 0x8C379A000000000000000000000000000000000000000000000000000000000 DUP2 MSTORE PUSH1 0x4 ADD PUSH2 0x451C SWAP1 PUSH2 0x54A7 JUMP JUMPDEST PUSH1 0x40 MLOAD DUP1 SWAP2 SUB SWAP1 REVERT JUMPDEST DUP1 SWAP2 POP POP SWAP3 SWAP2 POP POP JUMP JUMPDEST PUSH1 0x0 PUSH20 0xFFFFFFFFFFFFFFFFFFFFFFFFFFFFFFFFFFFFFFFF AND DUP3 PUSH20 0xFFFFFFFFFFFFFFFFFFFFFFFFFFFFFFFFFFFFFFFF AND EQ ISZERO PUSH2 0x459F JUMPI PUSH1 0x40 MLOAD PUSH32 0x8C379A000000000000000000000000000000000000000000000000000000000 DUP2 MSTORE PUSH1 0x4 ADD PUSH2 0x4596 SWAP1 PUSH2 0x55C7 JUMP JUMPDEST PUSH1 0x40 MLOAD DUP1 SWAP2 SUB SWAP1 REVERT JUMPDEST PUSH2 0x45A8 DUP2 PUSH2 0x3A61 JUMP JUMPDEST ISZERO PUSH2 0x45E8 JUMPI PUSH1 0x40 MLOAD PUSH32 0x8C379A000000000000000000000000000000000000000000000000000000000 DUP2 MSTORE PUSH1 0x4 ADD PUSH2 0x45DF SWAP1 PUSH2 0x5527 JUMP JUMPDEST PUSH1 0x40 MLOAD DUP1 SWAP2 SUB SWAP1 REVERT JUMPDEST PUSH2 0x45F6 PUSH1 0x0 DUP4 DUP4 PUSH1 0x1 PUSH2 0x3C27 JUMP JUMPDEST PUSH2 0x45FF DUP2 PUSH2 0x3A61 JUMP JUMPDEST ISZERO PUSH2 0x463F JUMPI PUSH1 0x40 MLOAD PUSH32 0x8C379A000000000000000000000000000000000000000000000000000000000 DUP2 MSTORE PUSH1 0x4 ADD PUSH2 0x4636 SWAP1 PUSH2 0x5527 JUMP JUMPDEST PUSH1 0x40 MLOAD DUP1 SWAP2 SUB SWAP1 REVERT JUMPDEST PUSH1 0x1 PUSH1 0x69 PUSH1 0x0 DUP5 PUSH20 0xFFFFFFFFFFFFFFFFFFFFFFFFFFFFFFFFFFFFFFFF AND PUSH20 0xFFFFFFFFFFFFFFFFFFFFFFFFFFFFFFFFFFFFFFFF AND DUP2 MSTORE PUSH1 0x20 ADD SWAP1 DUP2 MSTORE PUSH1 0x20 ADD PUSH1 0x0 KECCAK256 PUSH1 0x0 DUP3 DUP3 SLOAD ADD SWAP3 POP POP DUP2 SWAP1 SSTORE POP DUP2 PUSH1 0x68 PUSH1 0x0 DUP4 DUP2 MSTORE PUSH1 0x20 ADD SWAP1 DUP2 MSTORE PUSH1 0x20 ADD PUSH1 0x0 KECCAK256 PUSH1 0x0 PUSH2 0x100 EXP DUP2 SLOAD DUP2 PUSH20 0xFFFFFFFFFFFFFFFFFFFFFFFFFFFFFFFFFFFFFFFF MUL NOT AND SWAP1 DUP4 PUSH20 0xFFFFFFFFFFFFFFFFFFFFFFFFFFFFFFFFFFFFFFFF AND MUL OR SWAP1 SSTORE POP DUP1 DUP3 PUSH20 0xFFFFFFFFFFFFFFFFFFFFFFFFFFFFFFFFFFFFFFFF AND PUSH1 0x0 PUSH20 0xFFFFFFFFFFFFFFFFFFFFFFFFFFFFFFFFFFFFFFFF AND PUSH32 0xDDF252AD1BE2C89B69C2B068FC378DAA952BA7F163C4A11628F55A4DF523B3EF PUSH1 0x40 MLOAD PUSH1 0x40 MLOAD DUP1 SWAP2 SUB SWAP1 LOG4 PUSH2 0x4749 PUSH1 0x0 DUP4 DUP4 PUSH1 0x1 PUSH2 0x3C2D JUMP JUMPDEST POP POP JUMP JUMPDEST POP DUP1 SLOAD PUSH2 0x4759 SWAP1 PUSH2 0x5A16 JUMP JUMPDEST PUSH1 0x0 DUP3 SSTORE DUP1 PUSH1 0x1F LT PUSH2 0x476B JUMPI POP PUSH2 0x478A JUMP JUMPDEST PUSH1 0x1F ADD PUSH1 0x20 SWAP1 DIV SWAP1 PUSH1 0x0 MSTORE PUSH1 0x20 PUSH1 0x0 KECCAK256 SWAP1 DUP2 ADD SWAP1 PUSH2 0x4789 SWAP2 SWAP1 PUSH2 0x48CE JUMP JUMPDEST JUMPDEST POP JUMP JUMPDEST PUSH1 0x40 MLOAD DUP1 PUSH1 0xA0 ADD PUSH1 0x40 MSTORE DUP1 PUSH1 0x0 DUP2 MSTORE PUSH1 0x20 ADD PUSH1 0x60 DUP2 MSTORE PUSH1 0x20 ADD PUSH1 0x0 PUSH1 0xFF AND DUP2 MSTORE PUSH1 0x20 ADD PUSH1 0x0 PUSH1 0xFF AND DUP2 MSTORE PUSH1 0x20 ADD PUSH1 0x0 DUP2 MSTORE POP SWAP1 JUMP JUMPDEST DUP3 DUP1 SLOAD PUSH2 0x47CE SWAP1 PUSH2 0x5A16 JUMP JUMPDEST SWAP1 PUSH1 0x0 MSTORE PUSH1 0x20 PUSH1 0x0 KECCAK256 SWAP1 PUSH1 0x1F ADD PUSH1 0x20 SWAP1 DIV DUP2 ADD SWAP3 DUP3 PUSH2 0x47F0 JUMPI PUSH1 0x0 DUP6 SSTORE PUSH2 0x4837 JUMP JUMPDEST DUP3 PUSH1 0x1F LT PUSH2 0x4809 JUMPI DUP1 MLOAD PUSH1 0xFF NOT AND DUP4 DUP1 ADD OR DUP6 SSTORE PUSH2 0x4837 JUMP JUMPDEST DUP3 DUP1 ADD PUSH1 0x1 ADD DUP6 SSTORE DUP3 ISZERO PUSH2 0x4837 JUMPI SWAP2 DUP3 ADD JUMPDEST DUP3 DUP2 GT ISZERO PUSH2 0x4836 JUMPI DUP3 MLOAD DUP3 SSTORE SWAP2 PUSH1 0x20 ADD SWAP2 SWAP1 PUSH1 0x1 ADD SWAP1 PUSH2 0x481B JUMP JUMPDEST JUMPDEST POP SWAP1 POP PUSH2 0x4844 SWAP2 SWAP1 PUSH2 0x48CE JUMP JUMPDEST POP SWAP1 JUMP JUMPDEST DUP3 DUP1 SLOAD PUSH2 0x4854 SWAP1 PUSH2 0x5A16 JUMP JUMPDEST SWAP1 PUSH1 0x0 MSTORE PUSH1 0x20 PUSH1 0x0 KECCAK256 SWAP1 PUSH1 0x1F ADD PUSH1 0x20 SWAP1 DIV DUP2 ADD SWAP3 DUP3 PUSH2 0x4876 JUMPI PUSH1 0x0 DUP6 SSTORE PUSH2 0x48BD JUMP JUMPDEST DUP3 PUSH1 0x1F LT PUSH2 0x488F JUMPI DUP1 CALLDATALOAD PUSH1 0xFF NOT AND DUP4 DUP1 ADD OR DUP6 SSTORE PUSH2 0x48BD JUMP JUMPDEST DUP3 DUP1 ADD PUSH1 0x1 ADD DUP6 SSTORE DUP3 ISZERO PUSH2 0x48BD JUMPI SWAP2 DUP3 ADD JUMPDEST DUP3 DUP2 GT ISZERO PUSH2 0x48BC JUMPI DUP3 CALLDATALOAD DUP3 SSTORE SWAP2 PUSH1 0x20 ADD SWAP2 SWAP1 PUSH1 0x1 ADD SWAP1 PUSH2 0x48A1 JUMP JUMPDEST JUMPDEST POP SWAP1 POP PUSH2 0x48CA SWAP2 SWAP1 PUSH2 0x48CE JUMP JUMPDEST POP SWAP1 JUMP JUMPDEST JUMPDEST DUP1 DUP3 GT ISZERO PUSH2 0x48E7 JUMPI PUSH1 0x0 DUP2 PUSH1 0x0 SWAP1 SSTORE POP PUSH1 0x1 ADD PUSH2 0x48CF JUMP JUMPDEST POP SWAP1 JUMP JUMPDEST PUSH1 0x0 PUSH2 0x48FE PUSH2 0x48F9 DUP5 PUSH2 0x579A JUMP JUMPDEST PUSH2 0x5775 JUMP JUMPDEST SWAP1 POP DUP3 DUP2 MSTORE PUSH1 0x20 DUP2 ADD DUP5 DUP5 DUP5 ADD GT ISZERO PUSH2 0x4916 JUMPI PUSH1 0x0 DUP1 REVERT JUMPDEST PUSH2 0x4921 DUP5 DUP3 DUP6 PUSH2 0x59AA JUMP JUMPDEST POP SWAP4 SWAP3 POP POP POP JUMP JUMPDEST PUSH1 0x0 DUP2 CALLDATALOAD SWAP1 POP PUSH2 0x4938 DUP2 PUSH2 0x5F9E JUMP JUMPDEST SWAP3 SWAP2 POP POP JUMP JUMPDEST PUSH1 0x0 DUP2 CALLDATALOAD SWAP1 POP PUSH2 0x494D DUP2 PUSH2 0x5FB5 JUMP JUMPDEST SWAP3 SWAP2 POP POP JUMP JUMPDEST PUSH1 0x0 DUP2 CALLDATALOAD SWAP1 POP PUSH2 0x4962 DUP2 PUSH2 0x5FCC JUMP JUMPDEST SWAP3 SWAP2 POP POP JUMP JUMPDEST PUSH1 0x0 DUP2 CALLDATALOAD SWAP1 POP PUSH2 0x4977 DUP2 PUSH2 0x5FE3 JUMP JUMPDEST SWAP3 SWAP2 POP POP JUMP JUMPDEST PUSH1 0x0 DUP2 MLOAD SWAP1 POP PUSH2 0x498C DUP2 PUSH2 0x5FE3 JUMP JUMPDEST SWAP3 SWAP2 POP POP JUMP JUMPDEST PUSH1 0x0 DUP2 CALLDATALOAD SWAP1 POP PUSH2 0x49A1 DUP2 PUSH2 0x5FFA JUMP JUMPDEST SWAP3 SWAP2 POP POP JUMP JUMPDEST PUSH1 0x0 DUP3 PUSH1 0x1F DUP4 ADD SLT PUSH2 0x49B8 JUMPI PUSH1 0x0 DUP1 REVERT JUMPDEST DUP2 CALLDATALOAD PUSH2 0x49C8 DUP5 DUP3 PUSH1 0x20 DUP7 ADD PUSH2 0x48EB JUMP JUMPDEST SWAP2 POP POP SWAP3 SWAP2 POP POP JUMP JUMPDEST PUSH1 0x0 DUP1 DUP4 PUSH1 0x1F DUP5 ADD SLT PUSH2 0x49E3 JUMPI PUSH1 0x0 DUP1 REVERT JUMPDEST DUP3 CALLDATALOAD SWAP1 POP PUSH8 0xFFFFFFFFFFFFFFFF DUP2 GT ISZERO PUSH2 0x49FC JUMPI PUSH1 0x0 DUP1 REVERT JUMPDEST PUSH1 0x20 DUP4 ADD SWAP2 POP DUP4 PUSH1 0x1 DUP3 MUL DUP4 ADD GT ISZERO PUSH2 0x4A14 JUMPI PUSH1 0x0 DUP1 REVERT JUMPDEST SWAP3 POP SWAP3 SWAP1 POP JUMP JUMPDEST PUSH1 0x0 DUP2 CALLDATALOAD SWAP1 POP PUSH2 0x4A2A DUP2 PUSH2 0x6011 JUMP JUMPDEST SWAP3 SWAP2 POP POP JUMP JUMPDEST PUSH1 0x0 DUP2 CALLDATALOAD SWAP1 POP PUSH2 0x4A3F DUP2 PUSH2 0x6028 JUMP JUMPDEST SWAP3 SWAP2 POP POP JUMP JUMPDEST PUSH1 0x0 PUSH1 0x20 DUP3 DUP5 SUB SLT ISZERO PUSH2 0x4A57 JUMPI PUSH1 0x0 DUP1 REVERT JUMPDEST PUSH1 0x0 PUSH2 0x4A65 DUP5 DUP3 DUP6 ADD PUSH2 0x4929 JUMP JUMPDEST SWAP2 POP POP SWAP3 SWAP2 POP POP JUMP JUMPDEST PUSH1 0x0 DUP1 PUSH1 0x40 DUP4 DUP6 SUB SLT ISZERO PUSH2 0x4A81 JUMPI PUSH1 0x0 DUP1 REVERT JUMPDEST PUSH1 0x0 PUSH2 0x4A8F DUP6 DUP3 DUP7 ADD PUSH2 0x4929 JUMP JUMPDEST SWAP3 POP POP PUSH1 0x20 PUSH2 0x4AA0 DUP6 DUP3 DUP7 ADD PUSH2 0x4929 JUMP JUMPDEST SWAP2 POP POP SWAP3 POP SWAP3 SWAP1 POP JUMP JUMPDEST PUSH1 0x0 DUP1 PUSH1 0x0 PUSH1 0x60 DUP5 DUP7 SUB SLT ISZERO PUSH2 0x4ABF JUMPI PUSH1 0x0 DUP1 REVERT JUMPDEST PUSH1 0x0 PUSH2 0x4ACD DUP7 DUP3 DUP8 ADD PUSH2 0x4929 JUMP JUMPDEST SWAP4 POP POP PUSH1 0x20 PUSH2 0x4ADE DUP7 DUP3 DUP8 ADD PUSH2 0x4929 JUMP JUMPDEST SWAP3 POP POP PUSH1 0x40 PUSH2 0x4AEF DUP7 DUP3 DUP8 ADD PUSH2 0x4A1B JUMP JUMPDEST SWAP2 POP POP SWAP3 POP SWAP3 POP SWAP3 JUMP JUMPDEST PUSH1 0x0 DUP1 PUSH1 0x0 DUP1 PUSH1 0x80 DUP6 DUP8 SUB SLT ISZERO PUSH2 0x4B0F JUMPI PUSH1 0x0 DUP1 REVERT JUMPDEST PUSH1 0x0 PUSH2 0x4B1D DUP8 DUP3 DUP9 ADD PUSH2 0x4929 JUMP JUMPDEST SWAP5 POP POP PUSH1 0x20 PUSH2 0x4B2E DUP8 DUP3 DUP9 ADD PUSH2 0x4929 JUMP JUMPDEST SWAP4 POP POP PUSH1 0x40 PUSH2 0x4B3F DUP8 DUP3 DUP9 ADD PUSH2 0x4A1B JUMP JUMPDEST SWAP3 POP POP PUSH1 0x60 DUP6 ADD CALLDATALOAD PUSH8 0xFFFFFFFFFFFFFFFF DUP2 GT ISZERO PUSH2 0x4B5C JUMPI PUSH1 0x0 DUP1 REVERT JUMPDEST PUSH2 0x4B68 DUP8 DUP3 DUP9 ADD PUSH2 0x49A7 JUMP JUMPDEST SWAP2 POP POP SWAP3 SWAP6 SWAP2 SWAP5 POP SWAP3 POP JUMP JUMPDEST PUSH1 0x0 DUP1 PUSH1 0x40 DUP4 DUP6 SUB SLT ISZERO PUSH2 0x4B87 JUMPI PUSH1 0x0 DUP1 REVERT JUMPDEST PUSH1 0x0 PUSH2 0x4B95 DUP6 DUP3 DUP7 ADD PUSH2 0x4929 JUMP JUMPDEST SWAP3 POP POP PUSH1 0x20 PUSH2 0x4BA6 DUP6 DUP3 DUP7 ADD PUSH2 0x493E JUMP JUMPDEST SWAP2 POP POP SWAP3 POP SWAP3 SWAP1 POP JUMP JUMPDEST PUSH1 0x0 DUP1 PUSH1 0x0 PUSH1 0x40 DUP5 DUP7 SUB SLT ISZERO PUSH2 0x4BC5 JUMPI PUSH1 0x0 DUP1 REVERT JUMPDEST PUSH1 0x0 PUSH2 0x4BD3 DUP7 DUP3 DUP8 ADD PUSH2 0x4929 JUMP JUMPDEST SWAP4 POP POP PUSH1 0x20 DUP5 ADD CALLDATALOAD PUSH8 0xFFFFFFFFFFFFFFFF DUP2 GT ISZERO PUSH2 0x4BF0 JUMPI PUSH1 0x0 DUP1 REVERT JUMPDEST PUSH2 0x4BFC DUP7 DUP3 DUP8 ADD PUSH2 0x49D1 JUMP JUMPDEST SWAP3 POP SWAP3 POP POP SWAP3 POP SWAP3 POP SWAP3 JUMP JUMPDEST PUSH1 0x0 DUP1 PUSH1 0x0 DUP1 PUSH1 0x0 DUP1 PUSH1 0xA0 DUP8 DUP10 SUB SLT ISZERO PUSH2 0x4C21 JUMPI PUSH1 0x0 DUP1 REVERT JUMPDEST PUSH1 0x0 PUSH2 0x4C2F DUP10 DUP3 DUP11 ADD PUSH2 0x4929 JUMP JUMPDEST SWAP7 POP POP PUSH1 0x20 DUP8 ADD CALLDATALOAD PUSH8 0xFFFFFFFFFFFFFFFF DUP2 GT ISZERO PUSH2 0x4C4C JUMPI PUSH1 0x0 DUP1 REVERT JUMPDEST PUSH2 0x4C58 DUP10 DUP3 DUP11 ADD PUSH2 0x49D1 JUMP JUMPDEST SWAP6 POP SWAP6 POP POP PUSH1 0x40 PUSH2 0x4C6B DUP10 DUP3 DUP11 ADD PUSH2 0x4A30 JUMP JUMPDEST SWAP4 POP POP PUSH1 0x60 PUSH2 0x4C7C DUP10 DUP3 DUP11 ADD PUSH2 0x4A30 JUMP JUMPDEST SWAP3 POP POP PUSH1 0x80 PUSH2 0x4C8D DUP10 DUP3 DUP11 ADD PUSH2 0x4A1B JUMP JUMPDEST SWAP2 POP POP SWAP3 SWAP6 POP SWAP3 SWAP6 POP SWAP3 SWAP6 JUMP JUMPDEST PUSH1 0x0 DUP1 PUSH1 0x0 DUP1 PUSH1 0x0 DUP1 PUSH1 0x0 DUP1 PUSH1 0xC0 DUP10 DUP12 SUB SLT ISZERO PUSH2 0x4CB6 JUMPI PUSH1 0x0 DUP1 REVERT JUMPDEST PUSH1 0x0 PUSH2 0x4CC4 DUP12 DUP3 DUP13 ADD PUSH2 0x4929 JUMP JUMPDEST SWAP9 POP POP PUSH1 0x20 DUP10 ADD CALLDATALOAD PUSH8 0xFFFFFFFFFFFFFFFF DUP2 GT ISZERO PUSH2 0x4CE1 JUMPI PUSH1 0x0 DUP1 REVERT JUMPDEST PUSH2 0x4CED DUP12 DUP3 DUP13 ADD PUSH2 0x49D1 JUMP JUMPDEST SWAP8 POP SWAP8 POP POP PUSH1 0x40 PUSH2 0x4D00 DUP12 DUP3 DUP13 ADD PUSH2 0x4A30 JUMP JUMPDEST SWAP6 POP POP PUSH1 0x60 PUSH2 0x4D11 DUP12 DUP3 DUP13 ADD PUSH2 0x4A30 JUMP JUMPDEST SWAP5 POP POP PUSH1 0x80 PUSH2 0x4D22 DUP12 DUP3 DUP13 ADD PUSH2 0x4A1B JUMP JUMPDEST SWAP4 POP POP PUSH1 0xA0 DUP10 ADD CALLDATALOAD PUSH8 0xFFFFFFFFFFFFFFFF DUP2 GT ISZERO PUSH2 0x4D3F JUMPI PUSH1 0x0 DUP1 REVERT JUMPDEST PUSH2 0x4D4B DUP12 DUP3 DUP13 ADD PUSH2 0x49D1 JUMP JUMPDEST SWAP3 POP SWAP3 POP POP SWAP3 SWAP6 SWAP9 POP SWAP3 SWAP6 SWAP9 SWAP1 SWAP4 SWAP7 POP JUMP JUMPDEST PUSH1 0x0 DUP1 PUSH1 0x40 DUP4 DUP6 SUB SLT ISZERO PUSH2 0x4D70 JUMPI PUSH1 0x0 DUP1 REVERT JUMPDEST PUSH1 0x0 PUSH2 0x4D7E DUP6 DUP3 DUP7 ADD PUSH2 0x4929 JUMP JUMPDEST SWAP3 POP POP PUSH1 0x20 PUSH2 0x4D8F DUP6 DUP3 DUP7 ADD PUSH2 0x4A1B JUMP JUMPDEST SWAP2 POP POP SWAP3 POP SWAP3 SWAP1 POP JUMP JUMPDEST PUSH1 0x0 PUSH1 0x20 DUP3 DUP5 SUB SLT ISZERO PUSH2 0x4DAB JUMPI PUSH1 0x0 DUP1 REVERT JUMPDEST PUSH1 0x0 PUSH2 0x4DB9 DUP5 DUP3 DUP6 ADD PUSH2 0x4953 JUMP JUMPDEST SWAP2 POP POP SWAP3 SWAP2 POP POP JUMP JUMPDEST PUSH1 0x0 DUP1 PUSH1 0x40 DUP4 DUP6 SUB SLT ISZERO PUSH2 0x4DD5 JUMPI PUSH1 0x0 DUP1 REVERT JUMPDEST PUSH1 0x0 PUSH2 0x4DE3 DUP6 DUP3 DUP7 ADD PUSH2 0x4953 JUMP JUMPDEST SWAP3 POP POP PUSH1 0x20 PUSH2 0x4DF4 DUP6 DUP3 DUP7 ADD PUSH2 0x4929 JUMP JUMPDEST SWAP2 POP POP SWAP3 POP SWAP3 SWAP1 POP JUMP JUMPDEST PUSH1 0x0 PUSH1 0x20 DUP3 DUP5 SUB SLT ISZERO PUSH2 0x4E10 JUMPI PUSH1 0x0 DUP1 REVERT JUMPDEST PUSH1 0x0 PUSH2 0x4E1E DUP5 DUP3 DUP6 ADD PUSH2 0x4968 JUMP JUMPDEST SWAP2 POP POP SWAP3 SWAP2 POP POP JUMP JUMPDEST PUSH1 0x0 PUSH1 0x20 DUP3 DUP5 SUB SLT ISZERO PUSH2 0x4E39 JUMPI PUSH1 0x0 DUP1 REVERT JUMPDEST PUSH1 0x0 PUSH2 0x4E47 DUP5 DUP3 DUP6 ADD PUSH2 0x497D JUMP JUMPDEST SWAP2 POP POP SWAP3 SWAP2 POP POP JUMP JUMPDEST PUSH1 0x0 PUSH1 0x20 DUP3 DUP5 SUB SLT ISZERO PUSH2 0x4E62 JUMPI PUSH1 0x0 DUP1 REVERT JUMPDEST PUSH1 0x0 PUSH2 0x4E70 DUP5 DUP3 DUP6 ADD PUSH2 0x4992 JUMP JUMPDEST SWAP2 POP POP SWAP3 SWAP2 POP POP JUMP JUMPDEST PUSH1 0x0 PUSH1 0x20 DUP3 DUP5 SUB SLT ISZERO PUSH2 0x4E8B JUMPI PUSH1 0x0 DUP1 REVERT JUMPDEST PUSH1 0x0 PUSH2 0x4E99 DUP5 DUP3 DUP6 ADD PUSH2 0x4A1B JUMP JUMPDEST SWAP2 POP POP SWAP3 SWAP2 POP POP JUMP JUMPDEST PUSH2 0x4EAB DUP2 PUSH2 0x58CF JUMP JUMPDEST DUP3 MSTORE POP POP JUMP JUMPDEST PUSH2 0x4EBA DUP2 PUSH2 0x58E1 JUMP JUMPDEST DUP3 MSTORE POP POP JUMP JUMPDEST PUSH2 0x4EC9 DUP2 PUSH2 0x58ED JUMP JUMPDEST DUP3 MSTORE POP POP JUMP JUMPDEST PUSH1 0x0 PUSH2 0x4EDA DUP3 PUSH2 0x57CB JUMP JUMPDEST PUSH2 0x4EE4 DUP2 DUP6 PUSH2 0x57E1 JUMP JUMPDEST SWAP4 POP PUSH2 0x4EF4 DUP2 DUP6 PUSH1 0x20 DUP7 ADD PUSH2 0x59B9 JUMP JUMPDEST PUSH2 0x4EFD DUP2 PUSH2 0x5B06 JUMP JUMPDEST DUP5 ADD SWAP2 POP POP SWAP3 SWAP2 POP POP JUMP JUMPDEST PUSH2 0x4F11 DUP2 PUSH2 0x5986 JUMP JUMPDEST DUP3 MSTORE POP POP JUMP JUMPDEST PUSH2 0x4F20 DUP2 PUSH2 0x5998 JUMP JUMPDEST DUP3 MSTORE POP POP JUMP JUMPDEST PUSH1 0x0 PUSH2 0x4F32 DUP4 DUP6 PUSH2 0x5814 JUMP JUMPDEST SWAP4 POP PUSH2 0x4F3F DUP4 DUP6 DUP5 PUSH2 0x59AA JUMP JUMPDEST DUP3 DUP5 ADD SWAP1 POP SWAP4 SWAP3 POP POP POP JUMP JUMPDEST PUSH1 0x0 PUSH2 0x4F56 DUP3 PUSH2 0x57D6 JUMP JUMPDEST PUSH2 0x4F60 DUP2 DUP6 PUSH2 0x57F2 JUMP JUMPDEST SWAP4 POP PUSH2 0x4F70 DUP2 DUP6 PUSH1 0x20 DUP7 ADD PUSH2 0x59B9 JUMP JUMPDEST PUSH2 0x4F79 DUP2 PUSH2 0x5B06 JUMP JUMPDEST DUP5 ADD SWAP2 POP POP SWAP3 SWAP2 POP POP JUMP JUMPDEST PUSH1 0x0 PUSH2 0x4F8F DUP3 PUSH2 0x57D6 JUMP JUMPDEST PUSH2 0x4F99 DUP2 DUP6 PUSH2 0x5803 JUMP JUMPDEST SWAP4 POP PUSH2 0x4FA9 DUP2 DUP6 PUSH1 0x20 DUP7 ADD PUSH2 0x59B9 JUMP JUMPDEST PUSH2 0x4FB2 DUP2 PUSH2 0x5B06 JUMP JUMPDEST DUP5 ADD SWAP2 POP POP SWAP3 SWAP2 POP POP JUMP JUMPDEST PUSH1 0x0 PUSH2 0x4FC8 DUP3 PUSH2 0x57D6 JUMP JUMPDEST PUSH2 0x4FD2 DUP2 DUP6 PUSH2 0x5814 JUMP JUMPDEST SWAP4 POP PUSH2 0x4FE2 DUP2 DUP6 PUSH1 0x20 DUP7 ADD PUSH2 0x59B9 JUMP JUMPDEST DUP1 DUP5 ADD SWAP2 POP POP SWAP3 SWAP2 POP POP JUMP JUMPDEST PUSH1 0x0 PUSH2 0x4FFB PUSH1 0x20 DUP4 PUSH2 0x5803 JUMP JUMPDEST SWAP2 POP PUSH2 0x5006 DUP3 PUSH2 0x5B17 JUMP JUMPDEST PUSH1 0x20 DUP3 ADD SWAP1 POP SWAP2 SWAP1 POP JUMP JUMPDEST PUSH1 0x0 PUSH2 0x501E PUSH1 0x6 DUP4 PUSH2 0x5803 JUMP JUMPDEST SWAP2 POP PUSH2 0x5029 DUP3 PUSH2 0x5B40 JUMP JUMPDEST PUSH1 0x20 DUP3 ADD SWAP1 POP SWAP2 SWAP1 POP JUMP JUMPDEST PUSH1 0x0 PUSH2 0x5041 PUSH1 0x2D DUP4 PUSH2 0x5803 JUMP JUMPDEST SWAP2 POP PUSH2 0x504C DUP3 PUSH2 0x5B69 JUMP JUMPDEST PUSH1 0x40 DUP3 ADD SWAP1 POP SWAP2 SWAP1 POP JUMP JUMPDEST PUSH1 0x0 PUSH2 0x5064 PUSH1 0x32 DUP4 PUSH2 0x5803 JUMP JUMPDEST SWAP2 POP PUSH2 0x506F DUP3 PUSH2 0x5BB8 JUMP JUMPDEST PUSH1 0x40 DUP3 ADD SWAP1 POP SWAP2 SWAP1 POP JUMP JUMPDEST PUSH1 0x0 PUSH2 0x5087 PUSH1 0x25 DUP4 PUSH2 0x5803 JUMP JUMPDEST SWAP2 POP PUSH2 0x5092 DUP3 PUSH2 0x5C07 JUMP JUMPDEST PUSH1 0x40 DUP3 ADD SWAP1 POP SWAP2 SWAP1 POP JUMP JUMPDEST PUSH1 0x0 PUSH2 0x50AA PUSH1 0x1C DUP4 PUSH2 0x5803 JUMP JUMPDEST SWAP2 POP PUSH2 0x50B5 DUP3 PUSH2 0x5C56 JUMP JUMPDEST PUSH1 0x20 DUP3 ADD SWAP1 POP SWAP2 SWAP1 POP JUMP JUMPDEST PUSH1 0x0 PUSH2 0x50CD PUSH1 0x24 DUP4 PUSH2 0x5803 JUMP JUMPDEST SWAP2 POP PUSH2 0x50D8 DUP3 PUSH2 0x5C7F JUMP JUMPDEST PUSH1 0x40 DUP3 ADD SWAP1 POP SWAP2 SWAP1 POP JUMP JUMPDEST PUSH1 0x0 PUSH2 0x50F0 PUSH1 0x19 DUP4 PUSH2 0x5803 JUMP JUMPDEST SWAP2 POP PUSH2 0x50FB DUP3 PUSH2 0x5CCE JUMP JUMPDEST PUSH1 0x20 DUP3 ADD SWAP1 POP SWAP2 SWAP1 POP JUMP JUMPDEST PUSH1 0x0 PUSH2 0x5113 PUSH1 0x29 DUP4 PUSH2 0x5803 JUMP JUMPDEST SWAP2 POP PUSH2 0x511E DUP3 PUSH2 0x5CF7 JUMP JUMPDEST PUSH1 0x40 DUP3 ADD SWAP1 POP SWAP2 SWAP1 POP JUMP JUMPDEST PUSH1 0x0 PUSH2 0x5136 PUSH1 0x2E DUP4 PUSH2 0x5803 JUMP JUMPDEST SWAP2 POP PUSH2 0x5141 DUP3 PUSH2 0x5D46 JUMP JUMPDEST PUSH1 0x40 DUP3 ADD SWAP1 POP SWAP2 SWAP1 POP JUMP JUMPDEST PUSH1 0x0 PUSH2 0x5159 PUSH1 0x20 DUP4 PUSH2 0x5803 JUMP JUMPDEST SWAP2 POP PUSH2 0x5164 DUP3 PUSH2 0x5D95 JUMP JUMPDEST PUSH1 0x20 DUP3 ADD SWAP1 POP SWAP2 SWAP1 POP JUMP JUMPDEST PUSH1 0x0 PUSH2 0x517C PUSH1 0x8 DUP4 PUSH2 0x5803 JUMP JUMPDEST SWAP2 POP PUSH2 0x5187 DUP3 PUSH2 0x5DBE JUMP JUMPDEST PUSH1 0x20 DUP3 ADD SWAP1 POP SWAP2 SWAP1 POP JUMP JUMPDEST PUSH1 0x0 PUSH2 0x519F PUSH1 0x18 DUP4 PUSH2 0x5803 JUMP JUMPDEST SWAP2 POP PUSH2 0x51AA DUP3 PUSH2 0x5DE7 JUMP JUMPDEST PUSH1 0x20 DUP3 ADD SWAP1 POP SWAP2 SWAP1 POP JUMP JUMPDEST PUSH1 0x0 PUSH2 0x51C2 PUSH1 0x21 DUP4 PUSH2 0x5803 JUMP JUMPDEST SWAP2 POP PUSH2 0x51CD DUP3 PUSH2 0x5E10 JUMP JUMPDEST PUSH1 0x40 DUP3 ADD SWAP1 POP SWAP2 SWAP1 POP JUMP JUMPDEST PUSH1 0x0 PUSH2 0x51E5 PUSH1 0x3D DUP4 PUSH2 0x5803 JUMP JUMPDEST SWAP2 POP PUSH2 0x51F0 DUP3 PUSH2 0x5E5F JUMP JUMPDEST PUSH1 0x40 DUP3 ADD SWAP1 POP SWAP2 SWAP1 POP JUMP JUMPDEST PUSH1 0x0 PUSH2 0x5208 PUSH1 0x2B DUP4 PUSH2 0x5803 JUMP JUMPDEST SWAP2 POP PUSH2 0x5213 DUP3 PUSH2 0x5EAE JUMP JUMPDEST PUSH1 0x40 DUP3 ADD SWAP1 POP SWAP2 SWAP1 POP JUMP JUMPDEST PUSH1 0x0 PUSH2 0x522B PUSH1 0x17 DUP4 PUSH2 0x5814 JUMP JUMPDEST SWAP2 POP PUSH2 0x5236 DUP3 PUSH2 0x5EFD JUMP JUMPDEST PUSH1 0x17 DUP3 ADD SWAP1 POP SWAP2 SWAP1 POP JUMP JUMPDEST PUSH1 0x0 PUSH2 0x524E PUSH1 0x11 DUP4 PUSH2 0x5814 JUMP JUMPDEST SWAP2 POP PUSH2 0x5259 DUP3 PUSH2 0x5F26 JUMP JUMPDEST PUSH1 0x11 DUP3 ADD SWAP1 POP SWAP2 SWAP1 POP JUMP JUMPDEST PUSH1 0x0 PUSH2 0x5271 PUSH1 0x2F DUP4 PUSH2 0x5803 JUMP JUMPDEST SWAP2 POP PUSH2 0x527C DUP3 PUSH2 0x5F4F JUMP JUMPDEST PUSH1 0x40 DUP3 ADD SWAP1 POP SWAP2 SWAP1 POP JUMP JUMPDEST PUSH1 0x0 PUSH1 0xA0 DUP4 ADD PUSH1 0x0 DUP4 ADD MLOAD PUSH2 0x529F PUSH1 0x0 DUP7 ADD DUP3 PUSH2 0x52FD JUMP JUMPDEST POP PUSH1 0x20 DUP4 ADD MLOAD DUP5 DUP3 SUB PUSH1 0x20 DUP7 ADD MSTORE PUSH2 0x52B7 DUP3 DUP3 PUSH2 0x4F4B JUMP JUMPDEST SWAP2 POP POP PUSH1 0x40 DUP4 ADD MLOAD PUSH2 0x52CC PUSH1 0x40 DUP7 ADD DUP3 PUSH2 0x531B JUMP JUMPDEST POP PUSH1 0x60 DUP4 ADD MLOAD PUSH2 0x52DF PUSH1 0x60 DUP7 ADD DUP3 PUSH2 0x531B JUMP JUMPDEST POP PUSH1 0x80 DUP4 ADD MLOAD PUSH2 0x52F2 PUSH1 0x80 DUP7 ADD DUP3 PUSH2 0x52FD JUMP JUMPDEST POP DUP1 SWAP2 POP POP SWAP3 SWAP2 POP POP JUMP JUMPDEST PUSH2 0x5306 DUP2 PUSH2 0x596F JUMP JUMPDEST DUP3 MSTORE POP POP JUMP JUMPDEST PUSH2 0x5315 DUP2 PUSH2 0x596F JUMP JUMPDEST DUP3 MSTORE POP POP JUMP JUMPDEST PUSH2 0x5324 DUP2 PUSH2 0x5979 JUMP JUMPDEST DUP3 MSTORE POP POP JUMP JUMPDEST PUSH2 0x5333 DUP2 PUSH2 0x5979 JUMP JUMPDEST DUP3 MSTORE POP POP JUMP JUMPDEST PUSH1 0x0 PUSH2 0x5346 DUP3 DUP5 DUP7 PUSH2 0x4F26 JUMP JUMPDEST SWAP2 POP DUP2 SWAP1 POP SWAP4 SWAP3 POP POP POP JUMP JUMPDEST PUSH1 0x0 PUSH2 0x535D DUP3 PUSH2 0x521E JUMP JUMPDEST SWAP2 POP PUSH2 0x5369 DUP3 DUP6 PUSH2 0x4FBD JUMP JUMPDEST SWAP2 POP PUSH2 0x5374 DUP3 PUSH2 0x5241 JUMP JUMPDEST SWAP2 POP PUSH2 0x5380 DUP3 DUP5 PUSH2 0x4FBD JUMP JUMPDEST SWAP2 POP DUP2 SWAP1 POP SWAP4 SWAP3 POP POP POP JUMP JUMPDEST PUSH1 0x0 PUSH1 0x20 DUP3 ADD SWAP1 POP PUSH2 0x53A1 PUSH1 0x0 DUP4 ADD DUP5 PUSH2 0x4EA2 JUMP JUMPDEST SWAP3 SWAP2 POP POP JUMP JUMPDEST PUSH1 0x0 PUSH1 0x80 DUP3 ADD SWAP1 POP PUSH2 0x53BC PUSH1 0x0 DUP4 ADD DUP8 PUSH2 0x4EA2 JUMP JUMPDEST PUSH2 0x53C9 PUSH1 0x20 DUP4 ADD DUP7 PUSH2 0x4EA2 JUMP JUMPDEST PUSH2 0x53D6 PUSH1 0x40 DUP4 ADD DUP6 PUSH2 0x530C JUMP JUMPDEST DUP2 DUP2 SUB PUSH1 0x60 DUP4 ADD MSTORE PUSH2 0x53E8 DUP2 DUP5 PUSH2 0x4ECF JUMP JUMPDEST SWAP1 POP SWAP6 SWAP5 POP POP POP POP POP JUMP JUMPDEST PUSH1 0x0 PUSH1 0x60 DUP3 ADD SWAP1 POP PUSH2 0x5408 PUSH1 0x0 DUP4 ADD DUP5 PUSH2 0x4EA2 JUMP JUMPDEST DUP2 DUP2 SUB PUSH1 0x20 DUP4 ADD MSTORE PUSH2 0x5419 DUP2 PUSH2 0x516F JUMP JUMPDEST SWAP1 POP DUP2 DUP2 SUB PUSH1 0x40 DUP4 ADD MSTORE PUSH2 0x542C DUP2 PUSH2 0x5011 JUMP JUMPDEST SWAP1 POP SWAP3 SWAP2 POP POP JUMP JUMPDEST PUSH1 0x0 PUSH1 0x20 DUP3 ADD SWAP1 POP PUSH2 0x5449 PUSH1 0x0 DUP4 ADD DUP5 PUSH2 0x4EB1 JUMP JUMPDEST SWAP3 SWAP2 POP POP JUMP JUMPDEST PUSH1 0x0 PUSH1 0x20 DUP3 ADD SWAP1 POP PUSH2 0x5464 PUSH1 0x0 DUP4 ADD DUP5 PUSH2 0x4EC0 JUMP JUMPDEST SWAP3 SWAP2 POP POP JUMP JUMPDEST PUSH1 0x0 PUSH1 0x20 DUP3 ADD SWAP1 POP PUSH2 0x547F PUSH1 0x0 DUP4 ADD DUP5 PUSH2 0x4F17 JUMP JUMPDEST SWAP3 SWAP2 POP POP JUMP JUMPDEST PUSH1 0x0 PUSH1 0x20 DUP3 ADD SWAP1 POP DUP2 DUP2 SUB PUSH1 0x0 DUP4 ADD MSTORE PUSH2 0x549F DUP2 DUP5 PUSH2 0x4F84 JUMP JUMPDEST SWAP1 POP SWAP3 SWAP2 POP POP JUMP JUMPDEST PUSH1 0x0 PUSH1 0x20 DUP3 ADD SWAP1 POP DUP2 DUP2 SUB PUSH1 0x0 DUP4 ADD MSTORE PUSH2 0x54C0 DUP2 PUSH2 0x4FEE JUMP JUMPDEST SWAP1 POP SWAP2 SWAP1 POP JUMP JUMPDEST PUSH1 0x0 PUSH1 0x20 DUP3 ADD SWAP1 POP DUP2 DUP2 SUB PUSH1 0x0 DUP4 ADD MSTORE PUSH2 0x54E0 DUP2 PUSH2 0x5034 JUMP JUMPDEST SWAP1 POP SWAP2 SWAP1 POP JUMP JUMPDEST PUSH1 0x0 PUSH1 0x20 DUP3 ADD SWAP1 POP DUP2 DUP2 SUB PUSH1 0x0 DUP4 ADD MSTORE PUSH2 0x5500 DUP2 PUSH2 0x5057 JUMP JUMPDEST SWAP1 POP SWAP2 SWAP1 POP JUMP JUMPDEST PUSH1 0x0 PUSH1 0x20 DUP3 ADD SWAP1 POP DUP2 DUP2 SUB PUSH1 0x0 DUP4 ADD MSTORE PUSH2 0x5520 DUP2 PUSH2 0x507A JUMP JUMPDEST SWAP1 POP SWAP2 SWAP1 POP JUMP JUMPDEST PUSH1 0x0 PUSH1 0x20 DUP3 ADD SWAP1 POP DUP2 DUP2 SUB PUSH1 0x0 DUP4 ADD MSTORE PUSH2 0x5540 DUP2 PUSH2 0x509D JUMP JUMPDEST SWAP1 POP SWAP2 SWAP1 POP JUMP JUMPDEST PUSH1 0x0 PUSH1 0x20 DUP3 ADD SWAP1 POP DUP2 DUP2 SUB PUSH1 0x0 DUP4 ADD MSTORE PUSH2 0x5560 DUP2 PUSH2 0x50C0 JUMP JUMPDEST SWAP1 POP SWAP2 SWAP1 POP JUMP JUMPDEST PUSH1 0x0 PUSH1 0x20 DUP3 ADD SWAP1 POP DUP2 DUP2 SUB PUSH1 0x0 DUP4 ADD MSTORE PUSH2 0x5580 DUP2 PUSH2 0x50E3 JUMP JUMPDEST SWAP1 POP SWAP2 SWAP1 POP JUMP JUMPDEST PUSH1 0x0 PUSH1 0x20 DUP3 ADD SWAP1 POP DUP2 DUP2 SUB PUSH1 0x0 DUP4 ADD MSTORE PUSH2 0x55A0 DUP2 PUSH2 0x5106 JUMP JUMPDEST SWAP1 POP SWAP2 SWAP1 POP JUMP JUMPDEST PUSH1 0x0 PUSH1 0x20 DUP3 ADD SWAP1 POP DUP2 DUP2 SUB PUSH1 0x0 DUP4 ADD MSTORE PUSH2 0x55C0 DUP2 PUSH2 0x5129 JUMP JUMPDEST SWAP1 POP SWAP2 SWAP1 POP JUMP JUMPDEST PUSH1 0x0 PUSH1 0x20 DUP3 ADD SWAP1 POP DUP2 DUP2 SUB PUSH1 0x0 DUP4 ADD MSTORE PUSH2 0x55E0 DUP2 PUSH2 0x514C JUMP JUMPDEST SWAP1 POP SWAP2 SWAP1 POP JUMP JUMPDEST PUSH1 0x0 PUSH1 0x60 DUP3 ADD SWAP1 POP DUP2 DUP2 SUB PUSH1 0x0 DUP4 ADD MSTORE PUSH2 0x5600 DUP2 PUSH2 0x516F JUMP JUMPDEST SWAP1 POP PUSH2 0x560F PUSH1 0x20 DUP4 ADD DUP6 PUSH2 0x4EA2 JUMP JUMPDEST PUSH2 0x561C PUSH1 0x40 DUP4 ADD DUP5 PUSH2 0x4F08 JUMP JUMPDEST SWAP4 SWAP3 POP POP POP JUMP JUMPDEST PUSH1 0x0 PUSH1 0x20 DUP3 ADD SWAP1 POP DUP2 DUP2 SUB PUSH1 0x0 DUP4 ADD MSTORE PUSH2 0x563C DUP2 PUSH2 0x5192 JUMP JUMPDEST SWAP1 POP SWAP2 SWAP1 POP JUMP JUMPDEST PUSH1 0x0 PUSH1 0x20 DUP3 ADD SWAP1 POP DUP2 DUP2 SUB PUSH1 0x0 DUP4 ADD MSTORE PUSH2 0x565C DUP2 PUSH2 0x51B5 JUMP JUMPDEST SWAP1 POP SWAP2 SWAP1 POP JUMP JUMPDEST PUSH1 0x0 PUSH1 0x20 DUP3 ADD SWAP1 POP DUP2 DUP2 SUB PUSH1 0x0 DUP4 ADD MSTORE PUSH2 0x567C DUP2 PUSH2 0x51D8 JUMP JUMPDEST SWAP1 POP SWAP2 SWAP1 POP JUMP JUMPDEST PUSH1 0x0 PUSH1 0x20 DUP3 ADD SWAP1 POP DUP2 DUP2 SUB PUSH1 0x0 DUP4 ADD MSTORE PUSH2 0x569C DUP2 PUSH2 0x51FB JUMP JUMPDEST SWAP1 POP SWAP2 SWAP1 POP JUMP JUMPDEST PUSH1 0x0 PUSH1 0x20 DUP3 ADD SWAP1 POP DUP2 DUP2 SUB PUSH1 0x0 DUP4 ADD MSTORE PUSH2 0x56BC DUP2 PUSH2 0x5264 JUMP JUMPDEST SWAP1 POP SWAP2 SWAP1 POP JUMP JUMPDEST PUSH1 0x0 PUSH1 0x20 DUP3 ADD SWAP1 POP DUP2 DUP2 SUB PUSH1 0x0 DUP4 ADD MSTORE PUSH2 0x56DD DUP2 DUP5 PUSH2 0x5287 JUMP JUMPDEST SWAP1 POP SWAP3 SWAP2 POP POP JUMP JUMPDEST PUSH1 0x0 PUSH1 0x20 DUP3 ADD SWAP1 POP PUSH2 0x56FA PUSH1 0x0 DUP4 ADD DUP5 PUSH2 0x530C JUMP JUMPDEST SWAP3 SWAP2 POP POP JUMP JUMPDEST PUSH1 0x0 PUSH1 0xA0 DUP3 ADD SWAP1 POP PUSH2 0x5715 PUSH1 0x0 DUP4 ADD DUP9 PUSH2 0x530C JUMP JUMPDEST DUP2 DUP2 SUB PUSH1 0x20 DUP4 ADD MSTORE PUSH2 0x5727 DUP2 DUP8 PUSH2 0x4F84 JUMP JUMPDEST SWAP1 POP PUSH2 0x5736 PUSH1 0x40 DUP4 ADD DUP7 PUSH2 0x532A JUMP JUMPDEST PUSH2 0x5743 PUSH1 0x60 DUP4 ADD DUP6 PUSH2 0x532A JUMP JUMPDEST PUSH2 0x5750 PUSH1 0x80 DUP4 ADD DUP5 PUSH2 0x530C JUMP JUMPDEST SWAP7 SWAP6 POP POP POP POP POP POP JUMP JUMPDEST PUSH1 0x0 PUSH1 0x20 DUP3 ADD SWAP1 POP PUSH2 0x576F PUSH1 0x0 DUP4 ADD DUP5 PUSH2 0x532A JUMP JUMPDEST SWAP3 SWAP2 POP POP JUMP JUMPDEST PUSH1 0x0 PUSH2 0x577F PUSH2 0x5790 JUMP JUMPDEST SWAP1 POP PUSH2 0x578B DUP3 DUP3 PUSH2 0x5A48 JUMP JUMPDEST SWAP2 SWAP1 POP JUMP JUMPDEST PUSH1 0x0 PUSH1 0x40 MLOAD SWAP1 POP SWAP1 JUMP JUMPDEST PUSH1 0x0 PUSH8 0xFFFFFFFFFFFFFFFF DUP3 GT ISZERO PUSH2 0x57B5 JUMPI PUSH2 0x57B4 PUSH2 0x5AD7 JUMP JUMPDEST JUMPDEST PUSH2 0x57BE DUP3 PUSH2 0x5B06 JUMP JUMPDEST SWAP1 POP PUSH1 0x20 DUP2 ADD SWAP1 POP SWAP2 SWAP1 POP JUMP JUMPDEST PUSH1 0x0 DUP2 MLOAD SWAP1 POP SWAP2 SWAP1 POP JUMP JUMPDEST PUSH1 0x0 DUP2 MLOAD SWAP1 POP SWAP2 SWAP1 POP JUMP JUMPDEST PUSH1 0x0 DUP3 DUP3 MSTORE PUSH1 0x20 DUP3 ADD SWAP1 POP SWAP3 SWAP2 POP POP JUMP JUMPDEST PUSH1 0x0 DUP3 DUP3 MSTORE PUSH1 0x20 DUP3 ADD SWAP1 POP SWAP3 SWAP2 POP POP JUMP JUMPDEST PUSH1 0x0 DUP3 DUP3 MSTORE PUSH1 0x20 DUP3 ADD SWAP1 POP SWAP3 SWAP2 POP POP JUMP JUMPDEST PUSH1 0x0 DUP2 SWAP1 POP SWAP3 SWAP2 POP POP JUMP JUMPDEST PUSH1 0x0 PUSH2 0x582A DUP3 PUSH2 0x596F JUMP JUMPDEST SWAP2 POP PUSH2 0x5835 DUP4 PUSH2 0x596F JUMP JUMPDEST SWAP3 POP DUP3 PUSH32 0xFFFFFFFFFFFFFFFFFFFFFFFFFFFFFFFFFFFFFFFFFFFFFFFFFFFFFFFFFFFFFFFF SUB DUP3 GT ISZERO PUSH2 0x586A JUMPI PUSH2 0x5869 PUSH2 0x5A79 JUMP JUMPDEST JUMPDEST DUP3 DUP3 ADD SWAP1 POP SWAP3 SWAP2 POP POP JUMP JUMPDEST PUSH1 0x0 PUSH2 0x5880 DUP3 PUSH2 0x596F JUMP JUMPDEST SWAP2 POP PUSH2 0x588B DUP4 PUSH2 0x596F JUMP JUMPDEST SWAP3 POP DUP2 PUSH32 0xFFFFFFFFFFFFFFFFFFFFFFFFFFFFFFFFFFFFFFFFFFFFFFFFFFFFFFFFFFFFFFFF DIV DUP4 GT DUP3 ISZERO ISZERO AND ISZERO PUSH2 0x58C4 JUMPI PUSH2 0x58C3 PUSH2 0x5A79 JUMP JUMPDEST JUMPDEST DUP3 DUP3 MUL SWAP1 POP SWAP3 SWAP2 POP POP JUMP JUMPDEST PUSH1 0x0 PUSH2 0x58DA DUP3 PUSH2 0x594F JUMP JUMPDEST SWAP1 POP SWAP2 SWAP1 POP JUMP JUMPDEST PUSH1 0x0 DUP2 ISZERO ISZERO SWAP1 POP SWAP2 SWAP1 POP JUMP JUMPDEST PUSH1 0x0 DUP2 SWAP1 POP SWAP2 SWAP1 POP JUMP JUMPDEST PUSH1 0x0 PUSH32 0xFFFFFFFF00000000000000000000000000000000000000000000000000000000 DUP3 AND SWAP1 POP SWAP2 SWAP1 POP JUMP JUMPDEST PUSH1 0x0 PUSH32 0xFFFFFFFFFFFFFFFF000000000000000000000000000000000000000000000000 DUP3 AND SWAP1 POP SWAP2 SWAP1 POP JUMP JUMPDEST PUSH1 0x0 PUSH20 0xFFFFFFFFFFFFFFFFFFFFFFFFFFFFFFFFFFFFFFFF DUP3 AND SWAP1 POP SWAP2 SWAP1 POP JUMP JUMPDEST PUSH1 0x0 DUP2 SWAP1 POP SWAP2 SWAP1 POP JUMP JUMPDEST PUSH1 0x0 PUSH1 0xFF DUP3 AND SWAP1 POP SWAP2 SWAP1 POP JUMP JUMPDEST PUSH1 0x0 PUSH2 0x5991 DUP3 PUSH2 0x596F JUMP JUMPDEST SWAP1 POP SWAP2 SWAP1 POP JUMP JUMPDEST PUSH1 0x0 PUSH2 0x59A3 DUP3 PUSH2 0x5979 JUMP JUMPDEST SWAP1 POP SWAP2 SWAP1 POP JUMP JUMPDEST DUP3 DUP2 DUP4 CALLDATACOPY PUSH1 0x0 DUP4 DUP4 ADD MSTORE POP POP POP JUMP JUMPDEST PUSH1 0x0 JUMPDEST DUP4 DUP2 LT ISZERO PUSH2 0x59D7 JUMPI DUP1 DUP3 ADD MLOAD DUP2 DUP5 ADD MSTORE PUSH1 0x20 DUP2 ADD SWAP1 POP PUSH2 0x59BC JUMP JUMPDEST DUP4 DUP2 GT ISZERO PUSH2 0x59E6 JUMPI PUSH1 0x0 DUP5 DUP5 ADD MSTORE JUMPDEST POP POP POP POP JUMP JUMPDEST PUSH1 0x0 PUSH2 0x59F7 DUP3 PUSH2 0x596F JUMP JUMPDEST SWAP2 POP PUSH1 0x0 DUP3 EQ ISZERO PUSH2 0x5A0B JUMPI PUSH2 0x5A0A PUSH2 0x5A79 JUMP JUMPDEST JUMPDEST PUSH1 0x1 DUP3 SUB SWAP1 POP SWAP2 SWAP1 POP JUMP JUMPDEST PUSH1 0x0 PUSH1 0x2 DUP3 DIV SWAP1 POP PUSH1 0x1 DUP3 AND DUP1 PUSH2 0x5A2E JUMPI PUSH1 0x7F DUP3 AND SWAP2 POP JUMPDEST PUSH1 0x20 DUP3 LT DUP2 EQ ISZERO PUSH2 0x5A42 JUMPI PUSH2 0x5A41 PUSH2 0x5AA8 JUMP JUMPDEST JUMPDEST POP SWAP2 SWAP1 POP JUMP JUMPDEST PUSH2 0x5A51 DUP3 PUSH2 0x5B06 JUMP JUMPDEST DUP2 ADD DUP2 DUP2 LT PUSH8 0xFFFFFFFFFFFFFFFF DUP3 GT OR ISZERO PUSH2 0x5A70 JUMPI PUSH2 0x5A6F PUSH2 0x5AD7 JUMP JUMPDEST JUMPDEST DUP1 PUSH1 0x40 MSTORE POP POP POP JUMP JUMPDEST PUSH32 0x4E487B7100000000000000000000000000000000000000000000000000000000 PUSH1 0x0 MSTORE PUSH1 0x11 PUSH1 0x4 MSTORE PUSH1 0x24 PUSH1 0x0 REVERT JUMPDEST PUSH32 0x4E487B7100000000000000000000000000000000000000000000000000000000 PUSH1 0x0 MSTORE PUSH1 0x22 PUSH1 0x4 MSTORE PUSH1 0x24 PUSH1 0x0 REVERT JUMPDEST PUSH32 0x4E487B7100000000000000000000000000000000000000000000000000000000 PUSH1 0x0 MSTORE PUSH1 0x41 PUSH1 0x4 MSTORE PUSH1 0x24 PUSH1 0x0 REVERT JUMPDEST PUSH1 0x0 PUSH1 0x1F NOT PUSH1 0x1F DUP4 ADD AND SWAP1 POP SWAP2 SWAP1 POP JUMP JUMPDEST PUSH32 0x537472696E67733A20686578206C656E67746820696E73756666696369656E74 PUSH1 0x0 DUP3 ADD MSTORE POP JUMP JUMPDEST PUSH32 0x565443414C4C0000000000000000000000000000000000000000000000000000 PUSH1 0x0 DUP3 ADD MSTORE POP JUMP JUMPDEST PUSH32 0x4552433732313A2063616C6C6572206973206E6F7420746F6B656E206F776E65 PUSH1 0x0 DUP3 ADD MSTORE PUSH32 0x72206F7220617070726F76656400000000000000000000000000000000000000 PUSH1 0x20 DUP3 ADD MSTORE POP JUMP JUMPDEST PUSH32 0x4552433732313A207472616E7366657220746F206E6F6E204552433732315265 PUSH1 0x0 DUP3 ADD MSTORE PUSH32 0x63656976657220696D706C656D656E7465720000000000000000000000000000 PUSH1 0x20 DUP3 ADD MSTORE POP JUMP JUMPDEST PUSH32 0x4552433732313A207472616E736665722066726F6D20696E636F727265637420 PUSH1 0x0 DUP3 ADD MSTORE PUSH32 0x6F776E6572000000000000000000000000000000000000000000000000000000 PUSH1 0x20 DUP3 ADD MSTORE POP JUMP JUMPDEST PUSH32 0x4552433732313A20746F6B656E20616C7265616479206D696E74656400000000 PUSH1 0x0 DUP3 ADD MSTORE POP JUMP JUMPDEST PUSH32 0x4552433732313A207472616E7366657220746F20746865207A65726F20616464 PUSH1 0x0 DUP3 ADD MSTORE PUSH32 0x7265737300000000000000000000000000000000000000000000000000000000 PUSH1 0x20 DUP3 ADD MSTORE POP JUMP JUMPDEST PUSH32 0x4552433732313A20617070726F766520746F2063616C6C657200000000000000 PUSH1 0x0 DUP3 ADD MSTORE POP JUMP JUMPDEST PUSH32 0x4552433732313A2061646472657373207A65726F206973206E6F742061207661 PUSH1 0x0 DUP3 ADD MSTORE PUSH32 0x6C6964206F776E65720000000000000000000000000000000000000000000000 PUSH1 0x20 DUP3 ADD MSTORE POP JUMP JUMPDEST PUSH32 0x496E697469616C697A61626C653A20636F6E747261637420697320616C726561 PUSH1 0x0 DUP3 ADD MSTORE PUSH32 0x647920696E697469616C697A6564000000000000000000000000000000000000 PUSH1 0x20 DUP3 ADD MSTORE POP JUMP JUMPDEST PUSH32 0x4552433732313A206D696E7420746F20746865207A65726F2061646472657373 PUSH1 0x0 DUP3 ADD MSTORE POP JUMP JUMPDEST PUSH32 0x41444D494E4F5247000000000000000000000000000000000000000000000000 PUSH1 0x0 DUP3 ADD MSTORE POP JUMP JUMPDEST PUSH32 0x4552433732313A20696E76616C696420746F6B656E2049440000000000000000 PUSH1 0x0 DUP3 ADD MSTORE POP JUMP JUMPDEST PUSH32 0x4552433732313A20617070726F76616C20746F2063757272656E74206F776E65 PUSH1 0x0 DUP3 ADD MSTORE PUSH32 0x7200000000000000000000000000000000000000000000000000000000000000 PUSH1 0x20 DUP3 ADD MSTORE POP JUMP JUMPDEST PUSH32 0x4552433732313A20617070726F76652063616C6C6572206973206E6F7420746F PUSH1 0x0 DUP3 ADD MSTORE PUSH32 0x6B656E206F776E6572206F7220617070726F76656420666F7220616C6C000000 PUSH1 0x20 DUP3 ADD MSTORE POP JUMP JUMPDEST PUSH32 0x496E697469616C697A61626C653A20636F6E7472616374206973206E6F742069 PUSH1 0x0 DUP3 ADD MSTORE PUSH32 0x6E697469616C697A696E67000000000000000000000000000000000000000000 PUSH1 0x20 DUP3 ADD MSTORE POP JUMP JUMPDEST PUSH32 0x416363657373436F6E74726F6C3A206163636F756E7420000000000000000000 PUSH1 0x0 DUP3 ADD MSTORE POP JUMP JUMPDEST PUSH32 0x206973206D697373696E6720726F6C6520000000000000000000000000000000 PUSH1 0x0 DUP3 ADD MSTORE POP JUMP JUMPDEST PUSH32 0x416363657373436F6E74726F6C3A2063616E206F6E6C792072656E6F756E6365 PUSH1 0x0 DUP3 ADD MSTORE PUSH32 0x20726F6C657320666F722073656C660000000000000000000000000000000000 PUSH1 0x20 DUP3 ADD MSTORE POP JUMP JUMPDEST PUSH2 0x5FA7 DUP2 PUSH2 0x58CF JUMP JUMPDEST DUP2 EQ PUSH2 0x5FB2 JUMPI PUSH1 0x0 DUP1 REVERT JUMPDEST POP JUMP JUMPDEST PUSH2 0x5FBE DUP2 PUSH2 0x58E1 JUMP JUMPDEST DUP2 EQ PUSH2 0x5FC9 JUMPI PUSH1 0x0 DUP1 REVERT JUMPDEST POP JUMP JUMPDEST PUSH2 0x5FD5 DUP2 PUSH2 0x58ED JUMP JUMPDEST DUP2 EQ PUSH2 0x5FE0 JUMPI PUSH1 0x0 DUP1 REVERT JUMPDEST POP JUMP JUMPDEST PUSH2 0x5FEC DUP2 PUSH2 0x58F7 JUMP JUMPDEST DUP2 EQ PUSH2 0x5FF7 JUMPI PUSH1 0x0 DUP1 REVERT JUMPDEST POP JUMP JUMPDEST PUSH2 0x6003 DUP2 PUSH2 0x5923 JUMP JUMPDEST DUP2 EQ PUSH2 0x600E JUMPI PUSH1 0x0 DUP1 REVERT JUMPDEST POP JUMP JUMPDEST PUSH2 0x601A DUP2 PUSH2 0x596F JUMP JUMPDEST DUP2 EQ PUSH2 0x6025 JUMPI PUSH1 0x0 DUP1 REVERT JUMPDEST POP JUMP JUMPDEST PUSH2 0x6031 DUP2 PUSH2 0x5979 JUMP JUMPDEST DUP2 EQ PUSH2 0x603C JUMPI PUSH1 0x0 DUP1 REVERT JUMPDEST POP JUMP INVALID LOG2 PUSH5 0x6970667358 0x22 SLT KECCAK256 CODESIZE MULMOD GAS PUSH30 0x14366CE1BC65CA666B38A9EDB039CEBBD1641E542672974E4310BDFC6473 PUSH16 0x6C634300080200330000000000000000 "},"methodIdentifiers":{"DEFAULT_ADMIN_ROLE()":"a217fddf","PROVER_ROLE()":"dc9a4ef6","approve(address,uint256)":"095ea7b3","balanceOf(address)":"70a08231","c_02edf0db(bytes8)":"6f905bfc","c_39e378f6(bytes8)":"dd9e9392","c_6f26603d(bytes8)":"6c193733","c_b8c9e965(bytes8)":"ec4d57b3","c_false02edf0db(bytes8)":"5afc5755","c_false39e378f6(bytes8)":"c8755ecf","c_false6f26603d(bytes8)":"e2d07959","c_falseb8c9e965(bytes8)":"ec895731","c_true02edf0db(bytes8)":"6782b1b1","c_true39e378f6(bytes8)":"89254975","c_true6f26603d(bytes8)":"26aeeeff","c_trueb8c9e965(bytes8)":"dee4c709","getApproved(uint256)":"081812fc","getCurrentTokenId()":"56189236","getRoleAdmin(bytes32)":"248a9ca3","getUserAccountCountryCode(address)":"dfb24b89","getUserAccountCountryCodePreventOnExpiry(address)":"96257e4d","getUserAccountExpiry(address)":"09299ea3","getUserAccountIdentityBlob(address)":"6ca5fde8","getUserAccountLevel(address)":"c207e9e0","getUserAccountLevelPreventOnExpiry(address)":"949cdd6e","getUserAccountType(address)":"b467177f","getUserAccountTypePreventOnExpiry(address)":"1fe0094a","grantRole(bytes32,address)":"2f2ff15d","hasRole(bytes32,address)":"91d14854","identityBlob(address)":"688ea9fe","initialize(address)":"c4d66de8","isApprovedForAll(address,address)":"e985e9c5","mintIdentity(address,string,uint8,uint8,uint256,string)":"d4ec9096","name()":"06fdde03","ownerOf(uint256)":"6352211e","renounceRole(bytes32,address)":"36568abe","revokeRole(bytes32,address)":"d547741f","safeTransferFrom(address,address,uint256)":"42842e0e","safeTransferFrom(address,address,uint256,bytes)":"b88d4fde","setApprovalForAll(address,bool)":"a22cb465","supportsInterface(bytes4)":"01ffc9a7","suspendAccountDeleteTokenAndIdentityBlob(address,string)":"3bc2c078","suspendAccountMaintainTokenAndIdentityBlob(address,string)":"80a5a896","symbol()":"95d89b41","tokenURI(uint256)":"c87b56dd","transferFrom(address,address,uint256)":"23b872dd","updateIdentity(address,string,uint8,uint8,uint256)":"e86573e4","updateTokenURI(address,string)":"f6a4b4d7"}},"storageLayout":{"storage":[{"astId":4714,"contract":"contracts/ProofOfIdentity.sol:ProofOfIdentity","label":"identityBlob","offset":0,"slot":"0","type":"t_mapping(t_address,t_struct(IdentityBlob)4725_storage)"},{"astId":415,"contract":"contracts/ProofOfIdentity.sol:ProofOfIdentity","label":"_initialized","offset":0,"slot":"1","type":"t_uint8"},{"astId":418,"contract":"contracts/ProofOfIdentity.sol:ProofOfIdentity","label":"_initializing","offset":1,"slot":"1","type":"t_bool"},{"astId":2061,"contract":"contracts/ProofOfIdentity.sol:ProofOfIdentity","label":"__gap","offset":0,"slot":"2","type":"t_array(t_uint256)50_storage"},{"astId":2334,"contract":"contracts/ProofOfIdentity.sol:ProofOfIdentity","label":"__gap","offset":0,"slot":"52","type":"t_array(t_uint256)50_storage"},{"astId":606,"contract":"contracts/ProofOfIdentity.sol:ProofOfIdentity","label":"_name","offset":0,"slot":"102","type":"t_string_storage"},{"astId":608,"contract":"contracts/ProofOfIdentity.sol:ProofOfIdentity","label":"_symbol","offset":0,"slot":"103","type":"t_string_storage"},{"astId":612,"contract":"contracts/ProofOfIdentity.sol:ProofOfIdentity","label":"_owners","offset":0,"slot":"104","type":"t_mapping(t_uint256,t_address)"},{"astId":616,"contract":"contracts/ProofOfIdentity.sol:ProofOfIdentity","label":"_balances","offset":0,"slot":"105","type":"t_mapping(t_address,t_uint256)"},{"astId":620,"contract":"contracts/ProofOfIdentity.sol:ProofOfIdentity","label":"_tokenApprovals","offset":0,"slot":"106","type":"t_mapping(t_uint256,t_address)"},{"astId":626,"contract":"contracts/ProofOfIdentity.sol:ProofOfIdentity","label":"_operatorApprovals","offset":0,"slot":"107","type":"t_mapping(t_address,t_mapping(t_address,t_bool))"},{"astId":1528,"contract":"contracts/ProofOfIdentity.sol:ProofOfIdentity","label":"__gap","offset":0,"slot":"108","type":"t_array(t_uint256)44_storage"},{"astId":39,"contract":"contracts/ProofOfIdentity.sol:ProofOfIdentity","label":"_roles","offset":0,"slot":"152","type":"t_mapping(t_bytes32,t_struct(RoleData)34_storage)"},{"astId":334,"contract":"contracts/ProofOfIdentity.sol:ProofOfIdentity","label":"__gap","offset":0,"slot":"153","type":"t_array(t_uint256)49_storage"},{"astId":3874,"contract":"contracts/ProofOfIdentity.sol:ProofOfIdentity","label":"_tokenIdCounter","offset":0,"slot":"202","type":"t_struct(Counter)3459_storage"},{"astId":3916,"contract":"contracts/ProofOfIdentity.sol:ProofOfIdentity","label":"_permissionsInterface","offset":0,"slot":"203","type":"t_contract(IPermissionsInterface)3724"},{"astId":3920,"contract":"contracts/ProofOfIdentity.sol:ProofOfIdentity","label":"_tokenOfHolder","offset":0,"slot":"204","type":"t_mapping(t_address,t_uint256)"},{"astId":3924,"contract":"contracts/ProofOfIdentity.sol:ProofOfIdentity","label":"_tokenURI","offset":0,"slot":"205","type":"t_mapping(t_uint256,t_string_storage)"}],"types":{"t_address":{"encoding":"inplace","label":"address","numberOfBytes":"20"},"t_array(t_uint256)44_storage":{"base":"t_uint256","encoding":"inplace","label":"uint256[44]","numberOfBytes":"1408"},"t_array(t_uint256)49_storage":{"base":"t_uint256","encoding":"inplace","label":"uint256[49]","numberOfBytes":"1568"},"t_array(t_uint256)50_storage":{"base":"t_uint256","encoding":"inplace","label":"uint256[50]","numberOfBytes":"1600"},"t_bool":{"encoding":"inplace","label":"bool","numberOfBytes":"1"},"t_bytes32":{"encoding":"inplace","label":"bytes32","numberOfBytes":"32"},"t_contract(IPermissionsInterface)3724":{"encoding":"inplace","label":"contract IPermissionsInterface","numberOfBytes":"20"},"t_mapping(t_address,t_bool)":{"encoding":"mapping","key":"t_address","label":"mapping(address => bool)","numberOfBytes":"32","value":"t_bool"},"t_mapping(t_address,t_mapping(t_address,t_bool))":{"encoding":"mapping","key":"t_address","label":"mapping(address => mapping(address => bool))","numberOfBytes":"32","value":"t_mapping(t_address,t_bool)"},"t_mapping(t_address,t_struct(IdentityBlob)4725_storage)":{"encoding":"mapping","key":"t_address","label":"mapping(address => struct RoleVerification.IdentityBlob)","numberOfBytes":"32","value":"t_struct(IdentityBlob)4725_storage"},"t_mapping(t_address,t_uint256)":{"encoding":"mapping","key":"t_address","label":"mapping(address => uint256)","numberOfBytes":"32","value":"t_uint256"},"t_mapping(t_bytes32,t_struct(RoleData)34_storage)":{"encoding":"mapping","key":"t_bytes32","label":"mapping(bytes32 => struct AccessControlUpgradeable.RoleData)","numberOfBytes":"32","value":"t_struct(RoleData)34_storage"},"t_mapping(t_uint256,t_address)":{"encoding":"mapping","key":"t_uint256","label":"mapping(uint256 => address)","numberOfBytes":"32","value":"t_address"},"t_mapping(t_uint256,t_string_storage)":{"encoding":"mapping","key":"t_uint256","label":"mapping(uint256 => string)","numberOfBytes":"32","value":"t_string_storage"},"t_string_storage":{"encoding":"bytes","label":"string","numberOfBytes":"32"},"t_struct(Counter)3459_storage":{"encoding":"inplace","label":"struct Counters.Counter","members":[{"astId":3458,"contract":"contracts/ProofOfIdentity.sol:ProofOfIdentity","label":"_value","offset":0,"slot":"0","type":"t_uint256"}],"numberOfBytes":"32"},"t_struct(IdentityBlob)4725_storage":{"encoding":"inplace","label":"struct RoleVerification.IdentityBlob","members":[{"astId":4716,"contract":"contracts/ProofOfIdentity.sol:ProofOfIdentity","label":"tokenId","offset":0,"slot":"0","type":"t_uint256"},{"astId":4718,"contract":"contracts/ProofOfIdentity.sol:ProofOfIdentity","label":"countryCode","offset":0,"slot":"1","type":"t_string_storage"},{"astId":4720,"contract":"contracts/ProofOfIdentity.sol:ProofOfIdentity","label":"userType","offset":0,"slot":"2","type":"t_uint8"},{"astId":4722,"contract":"contracts/ProofOfIdentity.sol:ProofOfIdentity","label":"level","offset":1,"slot":"2","type":"t_uint8"},{"astId":4724,"contract":"contracts/ProofOfIdentity.sol:ProofOfIdentity","label":"expiry","offset":0,"slot":"3","type":"t_uint256"}],"numberOfBytes":"128"},"t_struct(RoleData)34_storage":{"encoding":"inplace","label":"struct AccessControlUpgradeable.RoleData","members":[{"astId":31,"contract":"contracts/ProofOfIdentity.sol:ProofOfIdentity","label":"members","offset":0,"slot":"0","type":"t_mapping(t_address,t_bool)"},{"astId":33,"contract":"contracts/ProofOfIdentity.sol:ProofOfIdentity","label":"adminRole","offset":0,"slot":"1","type":"t_bytes32"}],"numberOfBytes":"64"},"t_uint256":{"encoding":"inplace","label":"uint256","numberOfBytes":"32"},"t_uint8":{"encoding":"inplace","label":"uint8","numberOfBytes":"1"}}}}}}