{
  "_format": "hh-sol-artifact-1",
  "contractName": "ProofOfIdentity",
  "sourceName": "contracts/ProofOfIdentity.sol",
  "abi": [
    {
      "inputs": [],
      "stateMutability": "nonpayable",
      "type": "constructor"
    },
    {
      "anonymous": false,
      "inputs": [
        {
          "indexed": true,
          "internalType": "address",
          "name": "account",
          "type": "address"
        },
        {
          "indexed": true,
          "internalType": "uint256",
          "name": "tokenId",
          "type": "uint256"
        },
        {
          "indexed": true,
          "internalType": "string",
          "name": "reason",
          "type": "string"
        }
      ],
      "name": "AccountSuspendedTokenBurned",
      "type": "event"
    },
    {
      "anonymous": false,
      "inputs": [
        {
          "indexed": true,
          "internalType": "address",
          "name": "account",
          "type": "address"
        },
        {
          "indexed": true,
          "internalType": "string",
          "name": "reason",
          "type": "string"
        }
      ],
      "name": "AccountSuspendedTokenMaintained",
      "type": "event"
    },
    {
      "anonymous": false,
      "inputs": [
        {
          "indexed": false,
          "internalType": "address",
          "name": "previousAdmin",
          "type": "address"
        },
        {
          "indexed": false,
          "internalType": "address",
          "name": "newAdmin",
          "type": "address"
        }
      ],
      "name": "AdminChanged",
      "type": "event"
    },
    {
      "anonymous": false,
      "inputs": [
        {
          "indexed": true,
          "internalType": "address",
          "name": "owner",
          "type": "address"
        },
        {
          "indexed": true,
          "internalType": "address",
          "name": "approved",
          "type": "address"
        },
        {
          "indexed": true,
          "internalType": "uint256",
          "name": "tokenId",
          "type": "uint256"
        }
      ],
      "name": "Approval",
      "type": "event"
    },
    {
      "anonymous": false,
      "inputs": [
        {
          "indexed": true,
          "internalType": "address",
          "name": "owner",
          "type": "address"
        },
        {
          "indexed": true,
          "internalType": "address",
          "name": "operator",
          "type": "address"
        },
        {
          "indexed": false,
          "internalType": "bool",
          "name": "approved",
          "type": "bool"
        }
      ],
      "name": "ApprovalForAll",
      "type": "event"
    },
    {
      "anonymous": false,
      "inputs": [
        {
          "indexed": true,
          "internalType": "address",
          "name": "beacon",
          "type": "address"
        }
      ],
      "name": "BeaconUpgraded",
      "type": "event"
    },
    {
      "anonymous": false,
      "inputs": [
        {
          "indexed": true,
          "internalType": "address",
          "name": "account",
          "type": "address"
        },
        {
          "indexed": true,
          "internalType": "uint256",
          "name": "tokenId",
          "type": "uint256"
        }
      ],
      "name": "IdentityIssued",
      "type": "event"
    },
    {
      "anonymous": false,
      "inputs": [
        {
          "indexed": true,
          "internalType": "address",
          "name": "account",
          "type": "address"
        },
        {
          "indexed": true,
          "internalType": "uint256",
          "name": "tokenId",
          "type": "uint256"
        }
      ],
      "name": "IdentityUpdated",
      "type": "event"
    },
    {
      "anonymous": false,
      "inputs": [
        {
          "indexed": false,
          "internalType": "uint8",
          "name": "version",
          "type": "uint8"
        }
      ],
      "name": "Initialized",
      "type": "event"
    },
    {
      "anonymous": false,
      "inputs": [
        {
          "indexed": true,
          "internalType": "bytes32",
          "name": "role",
          "type": "bytes32"
        },
        {
          "indexed": true,
          "internalType": "bytes32",
          "name": "previousAdminRole",
          "type": "bytes32"
        },
        {
          "indexed": true,
          "internalType": "bytes32",
          "name": "newAdminRole",
          "type": "bytes32"
        }
      ],
      "name": "RoleAdminChanged",
      "type": "event"
    },
    {
      "anonymous": false,
      "inputs": [
        {
          "indexed": true,
          "internalType": "bytes32",
          "name": "role",
          "type": "bytes32"
        },
        {
          "indexed": true,
          "internalType": "address",
          "name": "account",
          "type": "address"
        },
        {
          "indexed": true,
          "internalType": "address",
          "name": "sender",
          "type": "address"
        }
      ],
      "name": "RoleGranted",
      "type": "event"
    },
    {
      "anonymous": false,
      "inputs": [
        {
          "indexed": true,
          "internalType": "bytes32",
          "name": "role",
          "type": "bytes32"
        },
        {
          "indexed": true,
          "internalType": "address",
          "name": "account",
          "type": "address"
        },
        {
          "indexed": true,
          "internalType": "address",
          "name": "sender",
          "type": "address"
        }
      ],
      "name": "RoleRevoked",
      "type": "event"
    },
    {
      "anonymous": false,
      "inputs": [
        {
          "indexed": true,
          "internalType": "address",
          "name": "account",
          "type": "address"
        },
        {
          "indexed": true,
          "internalType": "uint256",
          "name": "tokenId",
          "type": "uint256"
        },
        {
          "indexed": true,
          "internalType": "string",
          "name": "newURI",
          "type": "string"
        }
      ],
      "name": "TokenURIUpdated",
      "type": "event"
    },
    {
      "anonymous": false,
      "inputs": [
        {
          "indexed": true,
          "internalType": "address",
          "name": "from",
          "type": "address"
        },
        {
          "indexed": true,
          "internalType": "address",
          "name": "to",
          "type": "address"
        },
        {
          "indexed": true,
          "internalType": "uint256",
          "name": "tokenId",
          "type": "uint256"
        }
      ],
      "name": "Transfer",
      "type": "event"
    },
    {
      "anonymous": false,
      "inputs": [
        {
          "indexed": true,
          "internalType": "address",
          "name": "implementation",
          "type": "address"
        }
      ],
      "name": "Upgraded",
      "type": "event"
    },
    {
      "inputs": [],
      "name": "DEFAULT_ADMIN_ROLE",
      "outputs": [
        {
          "internalType": "bytes32",
          "name": "",
          "type": "bytes32"
        }
      ],
      "stateMutability": "view",
      "type": "function"
    },
    {
      "inputs": [],
      "name": "OPERATOR_ROLE",
      "outputs": [
        {
          "internalType": "bytes32",
          "name": "",
          "type": "bytes32"
        }
      ],
      "stateMutability": "view",
      "type": "function"
    },
    {
      "inputs": [
        {
          "internalType": "address",
          "name": "to",
          "type": "address"
        },
        {
          "internalType": "uint256",
          "name": "tokenId",
          "type": "uint256"
        }
      ],
      "name": "approve",
      "outputs": [],
      "stateMutability": "nonpayable",
      "type": "function"
    },
    {
      "inputs": [
        {
          "internalType": "address",
          "name": "owner",
          "type": "address"
        }
      ],
      "name": "balanceOf",
      "outputs": [
        {
          "internalType": "uint256",
          "name": "",
          "type": "uint256"
        }
      ],
      "stateMutability": "view",
      "type": "function"
    },
    {
      "inputs": [
        {
          "internalType": "uint256",
          "name": "tokenId",
          "type": "uint256"
        }
      ],
      "name": "getApproved",
      "outputs": [
        {
          "internalType": "address",
          "name": "",
          "type": "address"
        }
      ],
      "stateMutability": "view",
      "type": "function"
    },
    {
      "inputs": [
        {
          "internalType": "bytes32",
          "name": "role",
          "type": "bytes32"
        }
      ],
      "name": "getRoleAdmin",
      "outputs": [
        {
          "internalType": "bytes32",
          "name": "",
          "type": "bytes32"
        }
      ],
      "stateMutability": "view",
      "type": "function"
    },
    {
      "inputs": [
        {
          "internalType": "address",
          "name": "account",
          "type": "address"
        }
      ],
      "name": "getUserAccountCountryCode",
      "outputs": [
        {
          "internalType": "string",
          "name": "userAccountCountryCode",
          "type": "string"
        }
      ],
      "stateMutability": "view",
      "type": "function"
    },
    {
      "inputs": [
        {
          "internalType": "address",
          "name": "account",
          "type": "address"
        }
      ],
      "name": "getUserAccountCountryCodePreventOnExpiry",
      "outputs": [
        {
          "internalType": "string",
          "name": "userAccountCountryCode",
          "type": "string"
        }
      ],
      "stateMutability": "view",
      "type": "function"
    },
    {
      "inputs": [
        {
          "internalType": "address",
          "name": "account",
          "type": "address"
        }
      ],
      "name": "getUserAccountExpiry",
      "outputs": [
        {
          "internalType": "uint256",
          "name": "userAccountExpiry",
          "type": "uint256"
        }
      ],
      "stateMutability": "view",
      "type": "function"
    },
    {
      "inputs": [
        {
          "internalType": "address",
          "name": "account",
          "type": "address"
        }
      ],
      "name": "getUserAccountIdentityBlob",
      "outputs": [
        {
          "components": [
            {
              "internalType": "uint256",
              "name": "tokenId",
              "type": "uint256"
            },
            {
              "internalType": "string",
              "name": "countryCode",
              "type": "string"
            },
            {
              "internalType": "uint8",
              "name": "userType",
              "type": "uint8"
            },
            {
              "internalType": "uint8",
              "name": "level",
              "type": "uint8"
            },
            {
              "internalType": "uint256",
              "name": "expiry",
              "type": "uint256"
            }
          ],
          "internalType": "struct RoleVerification.IdentityBlob",
          "name": "userIdentityBlob",
          "type": "tuple"
        }
      ],
      "stateMutability": "view",
      "type": "function"
    },
    {
      "inputs": [
        {
          "internalType": "address",
          "name": "account",
          "type": "address"
        }
      ],
      "name": "getUserAccountLevel",
      "outputs": [
        {
          "internalType": "uint8",
          "name": "userAccountLevel",
          "type": "uint8"
        }
      ],
      "stateMutability": "view",
      "type": "function"
    },
    {
      "inputs": [
        {
          "internalType": "address",
          "name": "account",
          "type": "address"
        }
      ],
      "name": "getUserAccountLevelPreventOnExpiry",
      "outputs": [
        {
          "internalType": "uint8",
          "name": "",
          "type": "uint8"
        }
      ],
      "stateMutability": "view",
      "type": "function"
    },
    {
      "inputs": [
        {
          "internalType": "address",
          "name": "account",
          "type": "address"
        }
      ],
      "name": "getUserAccountType",
      "outputs": [
        {
          "internalType": "uint8",
          "name": "userAccountType",
          "type": "uint8"
        }
      ],
      "stateMutability": "view",
      "type": "function"
    },
    {
      "inputs": [
        {
          "internalType": "address",
          "name": "account",
          "type": "address"
        }
      ],
      "name": "getUserAccountTypePreventOnExpiry",
      "outputs": [
        {
          "internalType": "uint8",
          "name": "",
          "type": "uint8"
        }
      ],
      "stateMutability": "view",
      "type": "function"
    },
    {
      "inputs": [
        {
          "internalType": "bytes32",
          "name": "role",
          "type": "bytes32"
        },
        {
          "internalType": "address",
          "name": "account",
          "type": "address"
        }
      ],
      "name": "grantRole",
      "outputs": [],
      "stateMutability": "nonpayable",
      "type": "function"
    },
    {
      "inputs": [
        {
          "internalType": "bytes32",
          "name": "role",
          "type": "bytes32"
        },
        {
          "internalType": "address",
          "name": "account",
          "type": "address"
        }
      ],
      "name": "hasRole",
      "outputs": [
        {
          "internalType": "bool",
          "name": "",
          "type": "bool"
        }
      ],
      "stateMutability": "view",
      "type": "function"
    },
    {
      "inputs": [
        {
          "internalType": "address",
          "name": "",
          "type": "address"
        }
      ],
      "name": "identityBlob",
      "outputs": [
        {
          "internalType": "uint256",
          "name": "tokenId",
          "type": "uint256"
        },
        {
          "internalType": "string",
          "name": "countryCode",
          "type": "string"
        },
        {
          "internalType": "uint8",
          "name": "userType",
          "type": "uint8"
        },
        {
          "internalType": "uint8",
          "name": "level",
          "type": "uint8"
        },
        {
          "internalType": "uint256",
          "name": "expiry",
          "type": "uint256"
        }
      ],
      "stateMutability": "view",
      "type": "function"
    },
    {
      "inputs": [
        {
          "internalType": "address",
          "name": "permissionsInterface",
          "type": "address"
        },
        {
          "internalType": "address",
          "name": "networkAdmin",
          "type": "address"
        },
        {
          "internalType": "address",
          "name": "networkOperator",
          "type": "address"
        }
      ],
      "name": "initialize",
      "outputs": [],
      "stateMutability": "nonpayable",
      "type": "function"
    },
    {
      "inputs": [
        {
          "internalType": "address",
          "name": "owner",
          "type": "address"
        },
        {
          "internalType": "address",
          "name": "operator",
          "type": "address"
        }
      ],
      "name": "isApprovedForAll",
      "outputs": [
        {
          "internalType": "bool",
          "name": "",
          "type": "bool"
        }
      ],
      "stateMutability": "view",
      "type": "function"
    },
    {
      "inputs": [
        {
          "internalType": "address",
          "name": "account",
          "type": "address"
        },
        {
          "internalType": "string",
          "name": "countryCode",
          "type": "string"
        },
        {
          "internalType": "uint8",
          "name": "userType",
          "type": "uint8"
        },
        {
          "internalType": "uint8",
          "name": "level",
          "type": "uint8"
        },
        {
          "internalType": "uint256",
          "name": "expiry",
          "type": "uint256"
        },
        {
          "internalType": "string",
          "name": "tokenUri",
          "type": "string"
        }
      ],
      "name": "issueIdentity",
      "outputs": [
        {
          "internalType": "uint256",
          "name": "",
          "type": "uint256"
        }
      ],
      "stateMutability": "nonpayable",
      "type": "function"
    },
    {
      "inputs": [],
      "name": "name",
      "outputs": [
        {
          "internalType": "string",
          "name": "",
          "type": "string"
        }
      ],
      "stateMutability": "view",
      "type": "function"
    },
    {
      "inputs": [
        {
          "internalType": "uint256",
          "name": "tokenId",
          "type": "uint256"
        }
      ],
      "name": "ownerOf",
      "outputs": [
        {
          "internalType": "address",
          "name": "",
          "type": "address"
        }
      ],
      "stateMutability": "view",
      "type": "function"
    },
    {
      "inputs": [],
      "name": "proxiableUUID",
      "outputs": [
        {
          "internalType": "bytes32",
          "name": "",
          "type": "bytes32"
        }
      ],
      "stateMutability": "view",
      "type": "function"
    },
    {
      "inputs": [
        {
          "internalType": "bytes32",
          "name": "role",
          "type": "bytes32"
        },
        {
          "internalType": "address",
          "name": "account",
          "type": "address"
        }
      ],
      "name": "renounceRole",
      "outputs": [],
      "stateMutability": "nonpayable",
      "type": "function"
    },
    {
      "inputs": [
        {
          "internalType": "bytes32",
          "name": "role",
          "type": "bytes32"
        },
        {
          "internalType": "address",
          "name": "account",
          "type": "address"
        }
      ],
      "name": "revokeRole",
      "outputs": [],
      "stateMutability": "nonpayable",
      "type": "function"
    },
    {
      "inputs": [
        {
          "internalType": "address",
          "name": "from",
          "type": "address"
        },
        {
          "internalType": "address",
          "name": "to",
          "type": "address"
        },
        {
          "internalType": "uint256",
          "name": "tokenId",
          "type": "uint256"
        }
      ],
      "name": "safeTransferFrom",
      "outputs": [],
      "stateMutability": "pure",
      "type": "function"
    },
    {
      "inputs": [
        {
          "internalType": "address",
          "name": "from",
          "type": "address"
        },
        {
          "internalType": "address",
          "name": "to",
          "type": "address"
        },
        {
          "internalType": "uint256",
          "name": "tokenId",
          "type": "uint256"
        },
        {
          "internalType": "bytes",
          "name": "data",
          "type": "bytes"
        }
      ],
      "name": "safeTransferFrom",
      "outputs": [],
      "stateMutability": "nonpayable",
      "type": "function"
    },
    {
      "inputs": [
        {
          "internalType": "address",
          "name": "operator",
          "type": "address"
        },
        {
          "internalType": "bool",
          "name": "approved",
          "type": "bool"
        }
      ],
      "name": "setApprovalForAll",
      "outputs": [],
      "stateMutability": "nonpayable",
      "type": "function"
    },
    {
      "inputs": [
        {
          "internalType": "bytes4",
          "name": "interfaceId",
          "type": "bytes4"
        }
      ],
      "name": "supportsInterface",
      "outputs": [
        {
          "internalType": "bool",
          "name": "",
          "type": "bool"
        }
      ],
      "stateMutability": "view",
      "type": "function"
    },
    {
      "inputs": [
        {
          "internalType": "address",
          "name": "suspendAddress",
          "type": "address"
        },
        {
          "internalType": "string",
          "name": "reason",
          "type": "string"
        }
      ],
      "name": "suspendAccountMaintainTokenAndIdentityBlob",
      "outputs": [],
      "stateMutability": "nonpayable",
      "type": "function"
    },
    {
      "inputs": [],
      "name": "symbol",
      "outputs": [
        {
          "internalType": "string",
          "name": "",
          "type": "string"
        }
      ],
      "stateMutability": "view",
      "type": "function"
    },
    {
      "inputs": [
        {
          "internalType": "uint256",
          "name": "tokenId",
          "type": "uint256"
        }
      ],
      "name": "tokenURI",
      "outputs": [
        {
          "internalType": "string",
          "name": "tokenUri",
          "type": "string"
        }
      ],
      "stateMutability": "view",
      "type": "function"
    },
    {
      "inputs": [],
      "name": "totalSupply",
      "outputs": [
        {
          "internalType": "uint256",
          "name": "",
          "type": "uint256"
        }
      ],
      "stateMutability": "view",
      "type": "function"
    },
    {
      "inputs": [
        {
          "internalType": "address",
          "name": "from",
          "type": "address"
        },
        {
          "internalType": "address",
          "name": "to",
          "type": "address"
        },
        {
          "internalType": "uint256",
          "name": "tokenId",
          "type": "uint256"
        }
      ],
      "name": "transferFrom",
      "outputs": [],
      "stateMutability": "pure",
      "type": "function"
    },
    {
      "inputs": [
        {
          "internalType": "address",
          "name": "account",
          "type": "address"
        },
        {
          "internalType": "string",
          "name": "countryCode",
          "type": "string"
        },
        {
          "internalType": "uint8",
          "name": "userType",
          "type": "uint8"
        },
        {
          "internalType": "uint8",
          "name": "level",
          "type": "uint8"
        },
        {
          "internalType": "uint256",
          "name": "expiry",
          "type": "uint256"
        },
        {
          "internalType": "string",
          "name": "tokenUri",
          "type": "string"
        }
      ],
      "name": "updateIdentity",
      "outputs": [],
      "stateMutability": "nonpayable",
      "type": "function"
    },
    {
      "inputs": [
        {
          "internalType": "address",
          "name": "account",
          "type": "address"
        },
        {
          "internalType": "uint256",
          "name": "tokenId",
          "type": "uint256"
        },
        {
          "internalType": "string",
          "name": "tokenUri",
          "type": "string"
        }
      ],
      "name": "updateTokenURI",
      "outputs": [],
      "stateMutability": "nonpayable",
      "type": "function"
    },
    {
      "inputs": [
        {
          "internalType": "address",
          "name": "newImplementation",
          "type": "address"
        }
      ],
      "name": "upgradeTo",
      "outputs": [],
      "stateMutability": "nonpayable",
      "type": "function"
    },
    {
      "inputs": [
        {
          "internalType": "address",
          "name": "newImplementation",
          "type": "address"
        },
        {
          "internalType": "bytes",
          "name": "data",
          "type": "bytes"
        }
      ],
      "name": "upgradeToAndCall",
      "outputs": [],
      "stateMutability": "payable",
      "type": "function"
    }
  ],
  "bytecode": "0x60a06040523060601b6080523480156200001857600080fd5b506200002362000029565b620000ea565b600154610100900460ff1615620000965760405162461bcd60e51b815260206004820152602760248201527f496e697469616c697a61626c653a20636f6e747261637420697320696e697469604482015266616c697a696e6760c81b606482015260840160405180910390fd5b60015460ff90811614620000e8576001805460ff191660ff9081179091556040519081527f7f26b83ff96e1f2b6a682f133852f6798a09c465da95921460cefb38474024989060200160405180910390a15b565b60805160601c6139376200012560003960008181610ca701528181610d2c015281816110e50152818161116a015261125001526139376000f3fe6080604052600436106102855760003560e01c80636ca5fde811610153578063a22cb465116100cb578063c87b56dd1161007f578063dfb24b8911610064578063dfb24b891461078c578063e985e9c5146107ac578063f5b541a6146107f557610285565b8063c87b56dd1461074c578063d547741f1461076c57610285565b8063b88d4fde116100b0578063b88d4fde146106cb578063c0c53b8b146106eb578063c207e9e01461070b57610285565b8063a22cb4651461066f578063b467177f1461068f57610285565b806391d148541161012257806395d89b411161010757806395d89b411461062557806396257e4d1461063a578063a217fddf1461065a57610285565b806391d14854146105bf578063949cdd6e1461060557610285565b80636ca5fde81461053257806370a082311461055f57806380a5a8961461057f57806380ea719a1461059f57610285565b8063248a9ca31161020157806342842e0e116101b557806352d1902d1161019a57806352d1902d146104cc5780636352211e146104e1578063688ea9fe1461050157610285565b806342842e0e146103e95780634f1ef286146104b957610285565b806336568abe116101e657806336568abe146104595780633659cfe61461047957806340f378e51461049957610285565b8063248a9ca3146104095780632f2ff15d1461043957610285565b8063095ea7b31161025857806318160ddd1161023d57806318160ddd146103a25780631fe0094a146103b757806323b872dd146103e957610285565b8063095ea7b3146103605780630fcd7f8f1461038257610285565b806301ffc9a71461028a57806306fdde03146102bf578063081812fc146102e157806309299ea314610319575b600080fd5b34801561029657600080fd5b506102aa6102a536600461354f565b610829565b60405190151581526020015b60405180910390f35b3480156102cb57600080fd5b506102d461083c565b6040516102b69190613704565b3480156102ed57600080fd5b506103016102fc3660046134fd565b6108ce565b6040516001600160a01b0390911681526020016102b6565b34801561032557600080fd5b506103526103343660046131cb565b6001600160a01b031660009081526020819052604090206003015490565b6040519081526020016102b6565b34801561036c57600080fd5b5061038061037b36600461347c565b6108f5565b005b34801561038e57600080fd5b5061038061039d3660046134a5565b610a2c565b3480156103ae57600080fd5b50610352610b1a565b3480156103c357600080fd5b506103d76103d23660046131cb565b610b2b565b60405160ff90911681526020016102b6565b3480156103f557600080fd5b50610380610404366004613259565b610ba0565b34801561041557600080fd5b506103526104243660046134fd565b60009081526098602052604090206001015490565b34801561044557600080fd5b5061038061045436600461352d565b610beb565b34801561046557600080fd5b5061038061047436600461352d565b610c10565b34801561048557600080fd5b506103806104943660046131cb565b610c9c565b3480156104a557600080fd5b506103526104b43660046133d1565b610e18565b6103806104c7366004613334565b6110da565b3480156104d857600080fd5b50610352611243565b3480156104ed57600080fd5b506103016104fc3660046134fd565b611308565b34801561050d57600080fd5b5061052161051c3660046131cb565b61136d565b6040516102b69594939291906137ac565b34801561053e57600080fd5b5061055261054d3660046131cb565b61142b565b6040516102b69190613756565b34801561056b57600080fd5b5061035261057a3660046131cb565b61154c565b34801561058b57600080fd5b5061038061059a366004613380565b6115e6565b3480156105ab57600080fd5b506103806105ba3660046133d1565b6116e0565b3480156105cb57600080fd5b506102aa6105da36600461352d565b60009182526098602090815260408084206001600160a01b0393909316845291905290205460ff1690565b34801561061157600080fd5b506103d76106203660046131cb565b61189d565b34801561063157600080fd5b506102d4611917565b34801561064657600080fd5b506102d46106553660046131cb565b611926565b34801561066657600080fd5b50610352600081565b34801561067b57600080fd5b5061038061068a3660046132fa565b611a27565b34801561069b57600080fd5b506103d76106aa3660046131cb565b6001600160a01b031660009081526020819052604090206002015460ff1690565b3480156106d757600080fd5b506103806106e6366004613294565b611a32565b3480156106f757600080fd5b50610380610706366004613217565b611ac0565b34801561071757600080fd5b506103d76107263660046131cb565b6001600160a01b0316600090815260208190526040902060020154610100900460ff1690565b34801561075857600080fd5b506102d46107673660046134fd565b611ca9565b34801561077857600080fd5b5061038061078736600461352d565b611d1b565b34801561079857600080fd5b506102d46107a73660046131cb565b611d40565b3480156107b857600080fd5b506102aa6107c73660046131e5565b6001600160a01b039182166000908152606b6020908152604080832093909416825291909152205460ff1690565b34801561080157600080fd5b506103527f97667070c54ef182b0f5858b034beac1b6f3089aa2d3188bb1e8929f4fa9b92981565b600061083482611d6a565b90505b919050565b60606066805461084b9061385d565b80601f01602080910402602001604051908101604052809291908181526020018280546108779061385d565b80156108c45780601f10610899576101008083540402835291602001916108c4565b820191906000526020600020905b8154815290600101906020018083116108a757829003601f168201915b5050505050905090565b60006108d982611da8565b506000908152606a60205260409020546001600160a01b031690565b600061090082611308565b9050806001600160a01b0316836001600160a01b0316141561098f5760405162461bcd60e51b815260206004820152602160248201527f4552433732313a20617070726f76616c20746f2063757272656e74206f776e6560448201527f720000000000000000000000000000000000000000000000000000000000000060648201526084015b60405180910390fd5b336001600160a01b03821614806109ab57506109ab81336107c7565b610a1d5760405162461bcd60e51b815260206004820152603d60248201527f4552433732313a20617070726f76652063616c6c6572206973206e6f7420746f60448201527f6b656e206f776e6572206f7220617070726f76656420666f7220616c6c0000006064820152608401610986565b610a278383611e0c565b505050565b7f97667070c54ef182b0f5858b034beac1b6f3089aa2d3188bb1e8929f4fa9b929610a5681611e7a565b6000848152606860205260409020546001600160a01b031615156040518060400160405280600381526020016231303160e81b81525090610aaa5760405162461bcd60e51b81526004016109869190613704565b50600084815261013060205260409020610ac5908484612fc8565b508282604051610ad69291906135cf565b6040519081900381209085906001600160a01b038816907fe3a3e1a0be0d562dd7ec739509d30dfbca7cd174fbc576a45746fe1f3b277c2690600090a45050505050565b6000610b2661012e5490565b905090565b6001600160a01b0381166000908152602081905260408120600301544210610b7e57604080518082018252600381526231303360e81b6020820152905162461bcd60e51b81526109869190600401613704565b506001600160a01b031660009081526020819052604090206002015460ff1690565b604080518082018252600381527f31303200000000000000000000000000000000000000000000000000000000006020820152905162461bcd60e51b81526109869190600401613704565b600082815260986020526040902060010154610c0681611e7a565b610a278383611e84565b6001600160a01b0381163314610c8e5760405162461bcd60e51b815260206004820152602f60248201527f416363657373436f6e74726f6c3a2063616e206f6e6c792072656e6f756e636560448201527f20726f6c657320666f722073656c6600000000000000000000000000000000006064820152608401610986565b610c988282611f26565b5050565b306001600160a01b037f0000000000000000000000000000000000000000000000000000000000000000161415610d2a5760405162461bcd60e51b815260206004820152602c60248201527f46756e6374696f6e206d7573742062652063616c6c6564207468726f7567682060448201526b19195b1959d85d1958d85b1b60a21b6064820152608401610986565b7f00000000000000000000000000000000000000000000000000000000000000006001600160a01b0316610d857f360894a13ba1a3210667c828492db98dca3e2076cc3735a920a3ca505d382bbc546001600160a01b031690565b6001600160a01b031614610df05760405162461bcd60e51b815260206004820152602c60248201527f46756e6374696f6e206d7573742062652063616c6c6564207468726f7567682060448201526b6163746976652070726f787960a01b6064820152608401610986565b610df981611fa9565b60408051600080825260208201909252610e1591839190611fb4565b50565b60007f97667070c54ef182b0f5858b034beac1b6f3089aa2d3188bb1e8929f4fa9b929610e4481611e7a565b610e4d8a61154c565b60408051808201909152600381527f313030000000000000000000000000000000000000000000000000000000000060208201529015610ea05760405162461bcd60e51b81526004016109869190613704565b5060408051808201909152600381526231303360e81b6020820152428611610edb5760405162461bcd60e51b81526004016109869190613704565b50610eeb61012e80546001019055565b6040518060a00160405280610f0061012e5490565b81526020018a8a8080601f016020809104026020016040519081016040528093929190818152602001838380828437600092018290525093855250505060ff808b16602080850191909152908a1660408085019190915260609093018990526001600160a01b038e168252818152919020825181558282015180519192610f8f9260018501929091019061304c565b506040820151600282018054606085015160ff9081166101000261ff00199190941660ff199092169190911716919091179055608090910151600390910155610fe18a610fdc61012e5490565b612168565b83836101306000610ff261012e5490565b8152602001908152602001600020919061100d929190612fc8565b5061012f546040517f2f7f0a120000000000000000000000000000000000000000000000000000000081526001600160a01b0390911690632f7f0a1290611058908d90600401613692565b600060405180830381600087803b15801561107257600080fd5b505af1158015611086573d6000803e3d6000fd5b5050505061109461012e5490565b6040516001600160a01b038c16907fae1b84af5e96bd9fa84e791c6b59125d1c17f73ef00e5a9d1fd8c0cc41e0489690600090a361012e549a9950505050505050505050565b306001600160a01b037f00000000000000000000000000000000000000000000000000000000000000001614156111685760405162461bcd60e51b815260206004820152602c60248201527f46756e6374696f6e206d7573742062652063616c6c6564207468726f7567682060448201526b19195b1959d85d1958d85b1b60a21b6064820152608401610986565b7f00000000000000000000000000000000000000000000000000000000000000006001600160a01b03166111c37f360894a13ba1a3210667c828492db98dca3e2076cc3735a920a3ca505d382bbc546001600160a01b031690565b6001600160a01b03161461122e5760405162461bcd60e51b815260206004820152602c60248201527f46756e6374696f6e206d7573742062652063616c6c6564207468726f7567682060448201526b6163746976652070726f787960a01b6064820152608401610986565b61123782611fa9565b610c9882826001611fb4565b6000306001600160a01b037f000000000000000000000000000000000000000000000000000000000000000016146112e35760405162461bcd60e51b815260206004820152603860248201527f555550535570677261646561626c653a206d757374206e6f742062652063616c60448201527f6c6564207468726f7567682064656c656761746563616c6c00000000000000006064820152608401610986565b507f360894a13ba1a3210667c828492db98dca3e2076cc3735a920a3ca505d382bbc90565b6000818152606860205260408120546001600160a01b0316806108345760405162461bcd60e51b815260206004820152601860248201527f4552433732313a20696e76616c696420746f6b656e20494400000000000000006044820152606401610986565b6000602081905290815260409020805460018201805491929161138f9061385d565b80601f01602080910402602001604051908101604052809291908181526020018280546113bb9061385d565b80156114085780601f106113dd57610100808354040283529160200191611408565b820191906000526020600020905b8154815290600101906020018083116113eb57829003601f168201915b505050506002830154600390930154919260ff8082169361010090920416915085565b6114636040518060a001604052806000815260200160608152602001600060ff168152602001600060ff168152602001600081525090565b6001600160a01b03821660009081526020818152604091829020825160a0810190935280548352600181018054919284019161149e9061385d565b80601f01602080910402602001604051908101604052809291908181526020018280546114ca9061385d565b80156115175780601f106114ec57610100808354040283529160200191611517565b820191906000526020600020905b8154815290600101906020018083116114fa57829003601f168201915b5050509183525050600282015460ff808216602084015261010090910416604082015260039091015460609091015292915050565b60006001600160a01b0382166115ca5760405162461bcd60e51b815260206004820152602960248201527f4552433732313a2061646472657373207a65726f206973206e6f74206120766160448201527f6c6964206f776e657200000000000000000000000000000000000000000000006064820152608401610986565b506001600160a01b031660009081526069602052604090205490565b7f97667070c54ef182b0f5858b034beac1b6f3089aa2d3188bb1e8929f4fa9b92961161081611e7a565b61012f546040517f84b7a84a0000000000000000000000000000000000000000000000000000000081526001600160a01b03909116906384b7a84a9061165d908790600190600401613717565b600060405180830381600087803b15801561167757600080fd5b505af115801561168b573d6000803e3d6000fd5b50505050828260405161169f9291906135cf565b604051908190038120906001600160a01b038616907f3347b0049117ab94fddf6cff81cc554c4f7489acedc7c33907a96655770e58ae90600090a350505050565b7f97667070c54ef182b0f5858b034beac1b6f3089aa2d3188bb1e8929f4fa9b92961170a81611e7a565b6117138961154c565b6001146040518060400160405280600381526020016231303160e81b815250906117505760405162461bcd60e51b81526004016109869190613704565b506001600160a01b0389166000908152602081815260409182902054825160a0810184528181528351601f8c018490048402810184019094528a84529092909182810191908c908c9081908401838280828437600092018290525093855250505060ff808b16602080850191909152908a1660408085019190915260609093018990526001600160a01b038e1682528181529190208251815582820151805191926118039260018501929091019061304c565b50604082810151600283018054606086015160ff9081166101000261ff00199190941660ff19909216919091171691909117905560809092015160039091015560008281526101306020522061185a908585612fc8565b5060405181906001600160a01b038c16907f4a1e31466f875c6fcafefabf90bce8accdf53108c4a309106058ef7aefebd5ce90600090a350505050505050505050565b6001600160a01b03811660009081526020819052604081206003015442106118f057604080518082018252600381526231303360e81b6020820152905162461bcd60e51b81526109869190600401613704565b506001600160a01b0316600090815260208190526040902060020154610100900460ff1690565b60606067805461084b9061385d565b6001600160a01b038116600090815260208190526040902060030154606090421061197c57604080518082018252600381526231303360e81b6020820152905162461bcd60e51b81526109869190600401613704565b6001600160a01b038216600090815260208190526040902060010180546119a29061385d565b80601f01602080910402602001604051908101604052809291908181526020018280546119ce9061385d565b8015611a1b5780601f106119f057610100808354040283529160200191611a1b565b820191906000526020600020905b8154815290600101906020018083116119fe57829003601f168201915b50505050509050919050565b610c98338383612182565b611a3c3383612251565b611aae5760405162461bcd60e51b815260206004820152602d60248201527f4552433732313a2063616c6c6572206973206e6f7420746f6b656e206f776e6560448201527f72206f7220617070726f766564000000000000000000000000000000000000006064820152608401610986565b611aba848484846122d0565b50505050565b600154610100900460ff1615808015611add57506001805460ff16105b80611af65750303b158015611af657506001805460ff16145b611b685760405162461bcd60e51b815260206004820152602e60248201527f496e697469616c697a61626c653a20636f6e747261637420697320616c72656160448201527f647920696e697469616c697a65640000000000000000000000000000000000006064820152608401610986565b6001805460ff1916811790558015611b8a576001805461ff0019166101001790555b611b9261234e565b611c066040518060400160405280601181526020017f50726f6f66206f66204964656e746974790000000000000000000000000000008152506040518060400160405280600581526020017f48312d49440000000000000000000000000000000000000000000000000000008152506123bb565b611c0e61234e565b61012f80546001600160a01b0319166001600160a01b038616179055611c35600084611e84565b611c5f7f97667070c54ef182b0f5858b034beac1b6f3089aa2d3188bb1e8929f4fa9b92983611e84565b8015611aba576001805461ff00191681556040519081527f7f26b83ff96e1f2b6a682f133852f6798a09c465da95921460cefb38474024989060200160405180910390a150505050565b6000818152606860205260409020546060906001600160a01b031615156040518060400160405280600381526020016231303160e81b81525090611d005760405162461bcd60e51b81526004016109869190613704565b5060008281526101306020526040902080546119a29061385d565b600082815260986020526040902060010154611d3681611e7a565b610a278383611f26565b6001600160a01b03811660009081526020819052604090206001018054606091906119a29061385d565b60006001600160e01b031982167f7965db0b000000000000000000000000000000000000000000000000000000001480610834575061083482612430565b6000818152606860205260409020546001600160a01b0316610e155760405162461bcd60e51b815260206004820152601860248201527f4552433732313a20696e76616c696420746f6b656e20494400000000000000006044820152606401610986565b6000818152606a6020526040902080546001600160a01b0319166001600160a01b0384169081179091558190611e4182611308565b6001600160a01b03167f8c5be1e5ebec7d5bd14f71427d1e84f3dd0314c0f7b2291e5b200ac8c7c3b92560405160405180910390a45050565b610e1581336124cb565b60008281526098602090815260408083206001600160a01b038516845290915290205460ff16610c985760008281526098602090815260408083206001600160a01b03851684529091529020805460ff19166001179055611ee23390565b6001600160a01b0316816001600160a01b0316837f2f8788117e7eff1d82e926ec794901d17c78024a50270940304540a733656f0d60405160405180910390a45050565b60008281526098602090815260408083206001600160a01b038516845290915290205460ff1615610c985760008281526098602090815260408083206001600160a01b0385168085529252808320805460ff1916905551339285917ff6391f5c32d9c69d2a47ea670b442974b53935d1edc7fd64eb21e047a839171b9190a45050565b6000610c9881611e7a565b7f4910fdfa16fed3260ed0e7147f7cc6da11a60208b5b9406d12a635614ffd91435460ff1615611fec57611fe783612540565b610a27565b826001600160a01b03166352d1902d6040518163ffffffff1660e01b815260040160206040518083038186803b15801561202557600080fd5b505afa925050508015612055575060408051601f3d908101601f1916820190925261205291810190613515565b60015b6120c75760405162461bcd60e51b815260206004820152602e60248201527f45524331393637557067726164653a206e657720696d706c656d656e7461746960448201527f6f6e206973206e6f7420555550530000000000000000000000000000000000006064820152608401610986565b7f360894a13ba1a3210667c828492db98dca3e2076cc3735a920a3ca505d382bbc811461215c5760405162461bcd60e51b815260206004820152602960248201527f45524331393637557067726164653a20756e737570706f727465642070726f7860448201527f6961626c655555494400000000000000000000000000000000000000000000006064820152608401610986565b50610a278383836125fe565b610c98828260405180602001604052806000815250612623565b816001600160a01b0316836001600160a01b031614156121e45760405162461bcd60e51b815260206004820152601960248201527f4552433732313a20617070726f766520746f2063616c6c6572000000000000006044820152606401610986565b6001600160a01b038381166000818152606b6020908152604080832094871680845294825291829020805460ff191686151590811790915591519182527f17307eab39ab6107e8899845ad3d59bd9653f200f220920489ca2b5937696c31910160405180910390a3505050565b60008061225d83611308565b9050806001600160a01b0316846001600160a01b031614806122a457506001600160a01b038082166000908152606b602090815260408083209388168352929052205460ff165b806122c85750836001600160a01b03166122bd846108ce565b6001600160a01b0316145b949350505050565b6122db8484846126a1565b6122e78484848461289a565b611aba5760405162461bcd60e51b815260206004820152603260248201527f4552433732313a207472616e7366657220746f206e6f6e20455243373231526560448201527131b2b4bb32b91034b6b83632b6b2b73a32b960711b6064820152608401610986565b600154610100900460ff166123b95760405162461bcd60e51b815260206004820152602b60248201527f496e697469616c697a61626c653a20636f6e7472616374206973206e6f74206960448201526a6e697469616c697a696e6760a81b6064820152608401610986565b565b600154610100900460ff166124265760405162461bcd60e51b815260206004820152602b60248201527f496e697469616c697a61626c653a20636f6e7472616374206973206e6f74206960448201526a6e697469616c697a696e6760a81b6064820152608401610986565b610c9882826129f2565b60006001600160e01b031982167f80ac58cd00000000000000000000000000000000000000000000000000000000148061249357506001600160e01b031982167f5b5e139f00000000000000000000000000000000000000000000000000000000145b8061083457507f01ffc9a7000000000000000000000000000000000000000000000000000000006001600160e01b0319831614610834565b60008281526098602090815260408083206001600160a01b038516845290915290205460ff16610c98576124fe81612a84565b612509836020612a96565b60405160200161251a9291906135df565b60408051601f198184030181529082905262461bcd60e51b825261098691600401613704565b6001600160a01b0381163b6125bd5760405162461bcd60e51b815260206004820152602d60248201527f455243313936373a206e657720696d706c656d656e746174696f6e206973206e60448201527f6f74206120636f6e7472616374000000000000000000000000000000000000006064820152608401610986565b7f360894a13ba1a3210667c828492db98dca3e2076cc3735a920a3ca505d382bbc80546001600160a01b0319166001600160a01b0392909216919091179055565b61260783612cc4565b6000825111806126145750805b15610a2757611aba8383612d04565b61262d8383612d29565b61263a600084848461289a565b610a275760405162461bcd60e51b815260206004820152603260248201527f4552433732313a207472616e7366657220746f206e6f6e20455243373231526560448201527131b2b4bb32b91034b6b83632b6b2b73a32b960711b6064820152608401610986565b826001600160a01b03166126b482611308565b6001600160a01b0316146127185760405162461bcd60e51b815260206004820152602560248201527f4552433732313a207472616e736665722066726f6d20696e636f72726563742060448201526437bbb732b960d91b6064820152608401610986565b6001600160a01b0382166127935760405162461bcd60e51b8152602060048201526024808201527f4552433732313a207472616e7366657220746f20746865207a65726f2061646460448201527f72657373000000000000000000000000000000000000000000000000000000006064820152608401610986565b826001600160a01b03166127a682611308565b6001600160a01b03161461280a5760405162461bcd60e51b815260206004820152602560248201527f4552433732313a207472616e736665722066726f6d20696e636f72726563742060448201526437bbb732b960d91b6064820152608401610986565b6000818152606a6020908152604080832080546001600160a01b03199081169091556001600160a01b0387811680865260698552838620805460001901905590871680865283862080546001019055868652606890945282852080549092168417909155905184937fddf252ad1be2c89b69c2b068fc378daa952ba7f163c4a11628f55a4df523b3ef91a4610a27565b60006001600160a01b0384163b156129e757604051630a85bd0160e11b81526001600160a01b0385169063150b7a02906128de903390899088908890600401613660565b602060405180830381600087803b1580156128f857600080fd5b505af1925050508015612928575060408051601f3d908101601f191682019092526129259181019061356b565b60015b6129cd573d808015612956576040519150601f19603f3d011682016040523d82523d6000602084013e61295b565b606091505b5080516129c55760405162461bcd60e51b815260206004820152603260248201527f4552433732313a207472616e7366657220746f206e6f6e20455243373231526560448201527131b2b4bb32b91034b6b83632b6b2b73a32b960711b6064820152608401610986565b805181602001fd5b6001600160e01b031916630a85bd0160e11b1490506122c8565b506001949350505050565b600154610100900460ff16612a5d5760405162461bcd60e51b815260206004820152602b60248201527f496e697469616c697a61626c653a20636f6e7472616374206973206e6f74206960448201526a6e697469616c697a696e6760a81b6064820152608401610986565b8151612a7090606690602085019061304c565b508051610a2790606790602084019061304c565b60606108346001600160a01b03831660145b60606000612aa58360026137fb565b612ab09060026137e3565b67ffffffffffffffff811115612ad657634e487b7160e01b600052604160045260246000fd5b6040519080825280601f01601f191660200182016040528015612b00576020820181803683370190505b5090507f300000000000000000000000000000000000000000000000000000000000000081600081518110612b4557634e487b7160e01b600052603260045260246000fd5b60200101906001600160f81b031916908160001a9053507f780000000000000000000000000000000000000000000000000000000000000081600181518110612b9e57634e487b7160e01b600052603260045260246000fd5b60200101906001600160f81b031916908160001a9053506000612bc28460026137fb565b612bcd9060016137e3565b90505b6001811115612c6e577f303132333435363738396162636465660000000000000000000000000000000085600f1660108110612c1c57634e487b7160e01b600052603260045260246000fd5b1a60f81b828281518110612c4057634e487b7160e01b600052603260045260246000fd5b60200101906001600160f81b031916908160001a90535060049490941c93612c6781613846565b9050612bd0565b508315612cbd5760405162461bcd60e51b815260206004820181905260248201527f537472696e67733a20686578206c656e67746820696e73756666696369656e746044820152606401610986565b9392505050565b612ccd81612540565b6040516001600160a01b038216907fbc7cd75a20ee27fd9adebab32041f755214dbc6bffa90cc0225b39da2e5c2d3b90600090a250565b6060612cbd83836040518060600160405280602781526020016138db60279139612eb5565b6001600160a01b038216612d7f5760405162461bcd60e51b815260206004820181905260248201527f4552433732313a206d696e7420746f20746865207a65726f20616464726573736044820152606401610986565b6000818152606860205260409020546001600160a01b031615612de45760405162461bcd60e51b815260206004820152601c60248201527f4552433732313a20746f6b656e20616c7265616479206d696e746564000000006044820152606401610986565b6000818152606860205260409020546001600160a01b031615612e495760405162461bcd60e51b815260206004820152601c60248201527f4552433732313a20746f6b656e20616c7265616479206d696e746564000000006044820152606401610986565b6001600160a01b038216600081815260696020908152604080832080546001019055848352606890915280822080546001600160a01b0319168417905551839291907fddf252ad1be2c89b69c2b068fc378daa952ba7f163c4a11628f55a4df523b3ef908290a4610c98565b6060600080856001600160a01b031685604051612ed291906135b3565b600060405180830381855af49150503d8060008114612f0d576040519150601f19603f3d011682016040523d82523d6000602084013e612f12565b606091505b5091509150612f2386838387612f2d565b9695505050505050565b60608315612f99578251612f92576001600160a01b0385163b612f925760405162461bcd60e51b815260206004820152601d60248201527f416464726573733a2063616c6c20746f206e6f6e2d636f6e74726163740000006044820152606401610986565b50816122c8565b6122c88383815115612fae5781518083602001fd5b8060405162461bcd60e51b81526004016109869190613704565b828054612fd49061385d565b90600052602060002090601f016020900481019282612ff6576000855561303c565b82601f1061300f5782800160ff1982351617855561303c565b8280016001018555821561303c579182015b8281111561303c578235825591602001919060010190613021565b506130489291506130c0565b5090565b8280546130589061385d565b90600052602060002090601f01602090048101928261307a576000855561303c565b82601f1061309357805160ff191683800117855561303c565b8280016001018555821561303c579182015b8281111561303c5782518255916020019190600101906130a5565b5b8082111561304857600081556001016130c1565b80356001600160a01b038116811461083757600080fd5b600082601f8301126130fc578081fd5b813567ffffffffffffffff80821115613117576131176138ae565b604051601f8301601f19908116603f0116810190828211818310171561313f5761313f6138ae565b81604052838152866020858801011115613157578485fd5b8360208701602083013792830160200193909352509392505050565b60008083601f840112613184578182fd5b50813567ffffffffffffffff81111561319b578182fd5b6020830191508360208285010111156131b357600080fd5b9250929050565b803560ff8116811461083757600080fd5b6000602082840312156131dc578081fd5b612cbd826130d5565b600080604083850312156131f7578081fd5b613200836130d5565b915061320e602084016130d5565b90509250929050565b60008060006060848603121561322b578081fd5b613234846130d5565b9250613242602085016130d5565b9150613250604085016130d5565b90509250925092565b60008060006060848603121561326d578283fd5b613276846130d5565b9250613284602085016130d5565b9150604084013590509250925092565b600080600080608085870312156132a9578081fd5b6132b2856130d5565b93506132c0602086016130d5565b925060408501359150606085013567ffffffffffffffff8111156132e2578182fd5b6132ee878288016130ec565b91505092959194509250565b6000806040838503121561330c578182fd5b613315836130d5565b915060208301358015158114613329578182fd5b809150509250929050565b60008060408385031215613346578182fd5b61334f836130d5565b9150602083013567ffffffffffffffff81111561336a578182fd5b613376858286016130ec565b9150509250929050565b600080600060408486031215613394578283fd5b61339d846130d5565b9250602084013567ffffffffffffffff8111156133b8578283fd5b6133c486828701613173565b9497909650939450505050565b60008060008060008060008060c0898b0312156133ec578384fd5b6133f5896130d5565b9750602089013567ffffffffffffffff80821115613411578586fd5b61341d8c838d01613173565b909950975087915061343160408c016131ba565b965061343f60608c016131ba565b955060808b0135945060a08b013591508082111561345b578384fd5b506134688b828c01613173565b999c989b5096995094979396929594505050565b6000806040838503121561348e578182fd5b613497836130d5565b946020939093013593505050565b600080600080606085870312156134ba578182fd5b6134c3856130d5565b935060208501359250604085013567ffffffffffffffff8111156134e5578283fd5b6134f187828801613173565b95989497509550505050565b60006020828403121561350e578081fd5b5035919050565b600060208284031215613526578081fd5b5051919050565b6000806040838503121561353f578182fd5b8235915061320e602084016130d5565b600060208284031215613560578081fd5b8135612cbd816138c4565b60006020828403121561357c578081fd5b8151612cbd816138c4565b6000815180845261359f81602086016020860161381a565b601f01601f19169290920160200192915050565b600082516135c581846020870161381a565b9190910192915050565b6000828483379101908152919050565b60007f416363657373436f6e74726f6c3a206163636f756e74200000000000000000008252835161361781601785016020880161381a565b7f206973206d697373696e6720726f6c6520000000000000000000000000000000601791840191820152835161365481602884016020880161381a565b01602801949350505050565b60006001600160a01b03808716835280861660208401525083604083015260806060830152612f236080830184613587565b60006001600160a01b0383168252606060208301526136c7606083016006815265484156454e3160d01b602082015260400190565b828103604093840152600681527f565443414c4c000000000000000000000000000000000000000000000000000060208201529190910192915050565b600060208252612cbd6020830184613587565b60006060825261373d606083016006815265484156454e3160d01b602082015260400190565b6001600160a01b03949094166020830152506040015290565b60006020825282516020830152602083015160a0604084015261377c60c0840182613587565b905060ff604085015116606084015260ff6060850151166080840152608084015160a08401528091505092915050565b600086825260a060208301526137c560a0830187613587565b60ff9586166040840152939094166060820152608001529392505050565b600082198211156137f6576137f6613898565b500190565b600081600019048311821515161561381557613815613898565b500290565b60005b8381101561383557818101518382015260200161381d565b83811115611aba5750506000910152565b60008161385557613855613898565b506000190190565b60028104600182168061387157607f821691505b6020821081141561389257634e487b7160e01b600052602260045260246000fd5b50919050565b634e487b7160e01b600052601160045260246000fd5b634e487b7160e01b600052604160045260246000fd5b6001600160e01b031981168114610e1557600080fdfe416464726573733a206c6f772d6c6576656c2064656c65676174652063616c6c206661696c6564a26469706673582212200757efef5200e9c3ff8595f321ffffe6a9ca0eef51e08bb4959864e6621e1fe564736f6c63430008020033",
  "linkReferences": {},
  "deployedLinkReferences": {}
}