{
  "_format": "hh-sol-artifact-1",
  "contractName": "ProofOfIdentity",
  "sourceName": "contracts/ProofOfIdentity.sol",
  "abi": [
    {
      "inputs": [],
      "stateMutability": "nonpayable",
      "type": "constructor"
    },
    {
      "anonymous": false,
      "inputs": [
        {
          "indexed": true,
          "internalType": "address",
          "name": "account",
          "type": "address"
        },
        {
          "indexed": true,
          "internalType": "string",
          "name": "reason",
          "type": "string"
        }
      ],
      "name": "AccountSuspendedTokenMaintained",
      "type": "event"
    },
    {
      "anonymous": false,
      "inputs": [
        {
          "indexed": false,
          "internalType": "address",
          "name": "previousAdmin",
          "type": "address"
        },
        {
          "indexed": false,
          "internalType": "address",
          "name": "newAdmin",
          "type": "address"
        }
      ],
      "name": "AdminChanged",
      "type": "event"
    },
    {
      "anonymous": false,
      "inputs": [
        {
          "indexed": true,
          "internalType": "address",
          "name": "owner",
          "type": "address"
        },
        {
          "indexed": true,
          "internalType": "address",
          "name": "approved",
          "type": "address"
        },
        {
          "indexed": true,
          "internalType": "uint256",
          "name": "tokenId",
          "type": "uint256"
        }
      ],
      "name": "Approval",
      "type": "event"
    },
    {
      "anonymous": false,
      "inputs": [
        {
          "indexed": true,
          "internalType": "address",
          "name": "owner",
          "type": "address"
        },
        {
          "indexed": true,
          "internalType": "address",
          "name": "operator",
          "type": "address"
        },
        {
          "indexed": false,
          "internalType": "bool",
          "name": "approved",
          "type": "bool"
        }
      ],
      "name": "ApprovalForAll",
      "type": "event"
    },
    {
      "anonymous": false,
      "inputs": [
        {
          "indexed": true,
          "internalType": "address",
          "name": "beacon",
          "type": "address"
        }
      ],
      "name": "BeaconUpgraded",
      "type": "event"
    },
    {
      "anonymous": false,
      "inputs": [
        {
          "indexed": true,
          "internalType": "address",
          "name": "account",
          "type": "address"
        },
        {
          "indexed": true,
          "internalType": "uint256",
          "name": "tokenId",
          "type": "uint256"
        }
      ],
      "name": "IdentityIssued",
      "type": "event"
    },
    {
      "anonymous": false,
      "inputs": [
        {
          "indexed": true,
          "internalType": "address",
          "name": "account",
          "type": "address"
        },
        {
          "indexed": true,
          "internalType": "uint256",
          "name": "tokenId",
          "type": "uint256"
        }
      ],
      "name": "IdentityUpdated",
      "type": "event"
    },
    {
      "anonymous": false,
      "inputs": [
        {
          "indexed": false,
          "internalType": "uint8",
          "name": "version",
          "type": "uint8"
        }
      ],
      "name": "Initialized",
      "type": "event"
    },
    {
      "anonymous": false,
      "inputs": [
        {
          "indexed": true,
          "internalType": "bytes32",
          "name": "role",
          "type": "bytes32"
        },
        {
          "indexed": true,
          "internalType": "bytes32",
          "name": "previousAdminRole",
          "type": "bytes32"
        },
        {
          "indexed": true,
          "internalType": "bytes32",
          "name": "newAdminRole",
          "type": "bytes32"
        }
      ],
      "name": "RoleAdminChanged",
      "type": "event"
    },
    {
      "anonymous": false,
      "inputs": [
        {
          "indexed": true,
          "internalType": "bytes32",
          "name": "role",
          "type": "bytes32"
        },
        {
          "indexed": true,
          "internalType": "address",
          "name": "account",
          "type": "address"
        },
        {
          "indexed": true,
          "internalType": "address",
          "name": "sender",
          "type": "address"
        }
      ],
      "name": "RoleGranted",
      "type": "event"
    },
    {
      "anonymous": false,
      "inputs": [
        {
          "indexed": true,
          "internalType": "bytes32",
          "name": "role",
          "type": "bytes32"
        },
        {
          "indexed": true,
          "internalType": "address",
          "name": "account",
          "type": "address"
        },
        {
          "indexed": true,
          "internalType": "address",
          "name": "sender",
          "type": "address"
        }
      ],
      "name": "RoleRevoked",
      "type": "event"
    },
    {
      "anonymous": false,
      "inputs": [
        {
          "indexed": true,
          "internalType": "address",
          "name": "account",
          "type": "address"
        },
        {
          "indexed": true,
          "internalType": "uint256",
          "name": "tokenId",
          "type": "uint256"
        },
        {
          "indexed": true,
          "internalType": "string",
          "name": "newURI",
          "type": "string"
        }
      ],
      "name": "TokenURIUpdated",
      "type": "event"
    },
    {
      "anonymous": false,
      "inputs": [
        {
          "indexed": true,
          "internalType": "address",
          "name": "from",
          "type": "address"
        },
        {
          "indexed": true,
          "internalType": "address",
          "name": "to",
          "type": "address"
        },
        {
          "indexed": true,
          "internalType": "uint256",
          "name": "tokenId",
          "type": "uint256"
        }
      ],
      "name": "Transfer",
      "type": "event"
    },
    {
      "anonymous": false,
      "inputs": [
        {
          "indexed": true,
          "internalType": "address",
          "name": "implementation",
          "type": "address"
        }
      ],
      "name": "Upgraded",
      "type": "event"
    },
    {
      "inputs": [],
      "name": "DEFAULT_ADMIN_ROLE",
      "outputs": [
        {
          "internalType": "bytes32",
          "name": "",
          "type": "bytes32"
        }
      ],
      "stateMutability": "view",
      "type": "function"
    },
    {
      "inputs": [],
      "name": "OPERATOR_ROLE",
      "outputs": [
        {
          "internalType": "bytes32",
          "name": "",
          "type": "bytes32"
        }
      ],
      "stateMutability": "view",
      "type": "function"
    },
    {
      "inputs": [
        {
          "internalType": "address",
          "name": "to",
          "type": "address"
        },
        {
          "internalType": "uint256",
          "name": "tokenId",
          "type": "uint256"
        }
      ],
      "name": "approve",
      "outputs": [],
      "stateMutability": "nonpayable",
      "type": "function"
    },
    {
      "inputs": [
        {
          "internalType": "address",
          "name": "owner",
          "type": "address"
        }
      ],
      "name": "balanceOf",
      "outputs": [
        {
          "internalType": "uint256",
          "name": "",
          "type": "uint256"
        }
      ],
      "stateMutability": "view",
      "type": "function"
    },
    {
      "inputs": [
        {
          "internalType": "uint256",
          "name": "tokenId",
          "type": "uint256"
        }
      ],
      "name": "getApproved",
      "outputs": [
        {
          "internalType": "address",
          "name": "",
          "type": "address"
        }
      ],
      "stateMutability": "view",
      "type": "function"
    },
    {
      "inputs": [
        {
          "internalType": "bytes32",
          "name": "role",
          "type": "bytes32"
        }
      ],
      "name": "getRoleAdmin",
      "outputs": [
        {
          "internalType": "bytes32",
          "name": "",
          "type": "bytes32"
        }
      ],
      "stateMutability": "view",
      "type": "function"
    },
    {
      "inputs": [
        {
          "internalType": "address",
          "name": "account",
          "type": "address"
        }
      ],
      "name": "getUserAccountCountryCode",
      "outputs": [
        {
          "internalType": "string",
          "name": "userAccountCountryCode",
          "type": "string"
        }
      ],
      "stateMutability": "view",
      "type": "function"
    },
    {
      "inputs": [
        {
          "internalType": "address",
          "name": "account",
          "type": "address"
        }
      ],
      "name": "getUserAccountCountryCodePreventOnExpiry",
      "outputs": [
        {
          "internalType": "string",
          "name": "userAccountCountryCode",
          "type": "string"
        }
      ],
      "stateMutability": "view",
      "type": "function"
    },
    {
      "inputs": [
        {
          "internalType": "address",
          "name": "account",
          "type": "address"
        }
      ],
      "name": "getUserAccountExpiry",
      "outputs": [
        {
          "internalType": "uint256",
          "name": "userAccountExpiry",
          "type": "uint256"
        }
      ],
      "stateMutability": "view",
      "type": "function"
    },
    {
      "inputs": [
        {
          "internalType": "address",
          "name": "account",
          "type": "address"
        }
      ],
      "name": "getUserAccountIdentityBlob",
      "outputs": [
        {
          "components": [
            {
              "internalType": "uint256",
              "name": "tokenId",
              "type": "uint256"
            },
            {
              "internalType": "string",
              "name": "countryCode",
              "type": "string"
            },
            {
              "internalType": "uint8",
              "name": "userType",
              "type": "uint8"
            },
            {
              "internalType": "uint8",
              "name": "level",
              "type": "uint8"
            },
            {
              "internalType": "uint256",
              "name": "expiry",
              "type": "uint256"
            }
          ],
          "internalType": "struct RoleVerification.IdentityBlob",
          "name": "userIdentityBlob",
          "type": "tuple"
        }
      ],
      "stateMutability": "view",
      "type": "function"
    },
    {
      "inputs": [
        {
          "internalType": "address",
          "name": "account",
          "type": "address"
        }
      ],
      "name": "getUserAccountLevel",
      "outputs": [
        {
          "internalType": "uint8",
          "name": "userAccountLevel",
          "type": "uint8"
        }
      ],
      "stateMutability": "view",
      "type": "function"
    },
    {
      "inputs": [
        {
          "internalType": "address",
          "name": "account",
          "type": "address"
        }
      ],
      "name": "getUserAccountLevelPreventOnExpiry",
      "outputs": [
        {
          "internalType": "uint8",
          "name": "",
          "type": "uint8"
        }
      ],
      "stateMutability": "view",
      "type": "function"
    },
    {
      "inputs": [
        {
          "internalType": "address",
          "name": "account",
          "type": "address"
        }
      ],
      "name": "getUserAccountType",
      "outputs": [
        {
          "internalType": "uint8",
          "name": "userAccountType",
          "type": "uint8"
        }
      ],
      "stateMutability": "view",
      "type": "function"
    },
    {
      "inputs": [
        {
          "internalType": "address",
          "name": "account",
          "type": "address"
        }
      ],
      "name": "getUserAccountTypePreventOnExpiry",
      "outputs": [
        {
          "internalType": "uint8",
          "name": "",
          "type": "uint8"
        }
      ],
      "stateMutability": "view",
      "type": "function"
    },
    {
      "inputs": [
        {
          "internalType": "bytes32",
          "name": "role",
          "type": "bytes32"
        },
        {
          "internalType": "address",
          "name": "account",
          "type": "address"
        }
      ],
      "name": "grantRole",
      "outputs": [],
      "stateMutability": "nonpayable",
      "type": "function"
    },
    {
      "inputs": [
        {
          "internalType": "bytes32",
          "name": "role",
          "type": "bytes32"
        },
        {
          "internalType": "address",
          "name": "account",
          "type": "address"
        }
      ],
      "name": "hasRole",
      "outputs": [
        {
          "internalType": "bool",
          "name": "",
          "type": "bool"
        }
      ],
      "stateMutability": "view",
      "type": "function"
    },
    {
      "inputs": [
        {
          "internalType": "address",
          "name": "",
          "type": "address"
        }
      ],
      "name": "identityBlob",
      "outputs": [
        {
          "internalType": "uint256",
          "name": "tokenId",
          "type": "uint256"
        },
        {
          "internalType": "string",
          "name": "countryCode",
          "type": "string"
        },
        {
          "internalType": "uint8",
          "name": "userType",
          "type": "uint8"
        },
        {
          "internalType": "uint8",
          "name": "level",
          "type": "uint8"
        },
        {
          "internalType": "uint256",
          "name": "expiry",
          "type": "uint256"
        }
      ],
      "stateMutability": "view",
      "type": "function"
    },
    {
      "inputs": [
        {
          "internalType": "address",
          "name": "permissionsInterface",
          "type": "address"
        },
        {
          "internalType": "address",
          "name": "networkAdmin",
          "type": "address"
        },
        {
          "internalType": "address",
          "name": "networkOperator",
          "type": "address"
        }
      ],
      "name": "initialize",
      "outputs": [],
      "stateMutability": "nonpayable",
      "type": "function"
    },
    {
      "inputs": [
        {
          "internalType": "address",
          "name": "owner",
          "type": "address"
        },
        {
          "internalType": "address",
          "name": "operator",
          "type": "address"
        }
      ],
      "name": "isApprovedForAll",
      "outputs": [
        {
          "internalType": "bool",
          "name": "",
          "type": "bool"
        }
      ],
      "stateMutability": "view",
      "type": "function"
    },
    {
      "inputs": [
        {
          "internalType": "address",
          "name": "account",
          "type": "address"
        },
        {
          "internalType": "string",
          "name": "countryCode",
          "type": "string"
        },
        {
          "internalType": "uint8",
          "name": "userType",
          "type": "uint8"
        },
        {
          "internalType": "uint8",
          "name": "level",
          "type": "uint8"
        },
        {
          "internalType": "uint256",
          "name": "expiry",
          "type": "uint256"
        },
        {
          "internalType": "string",
          "name": "tokenUri",
          "type": "string"
        }
      ],
      "name": "issueIdentity",
      "outputs": [
        {
          "internalType": "uint256",
          "name": "",
          "type": "uint256"
        }
      ],
      "stateMutability": "nonpayable",
      "type": "function"
    },
    {
      "inputs": [],
      "name": "name",
      "outputs": [
        {
          "internalType": "string",
          "name": "",
          "type": "string"
        }
      ],
      "stateMutability": "view",
      "type": "function"
    },
    {
      "inputs": [
        {
          "internalType": "uint256",
          "name": "tokenId",
          "type": "uint256"
        }
      ],
      "name": "ownerOf",
      "outputs": [
        {
          "internalType": "address",
          "name": "",
          "type": "address"
        }
      ],
      "stateMutability": "view",
      "type": "function"
    },
    {
      "inputs": [],
      "name": "proxiableUUID",
      "outputs": [
        {
          "internalType": "bytes32",
          "name": "",
          "type": "bytes32"
        }
      ],
      "stateMutability": "view",
      "type": "function"
    },
    {
      "inputs": [
        {
          "internalType": "bytes32",
          "name": "role",
          "type": "bytes32"
        },
        {
          "internalType": "address",
          "name": "account",
          "type": "address"
        }
      ],
      "name": "renounceRole",
      "outputs": [],
      "stateMutability": "nonpayable",
      "type": "function"
    },
    {
      "inputs": [
        {
          "internalType": "bytes32",
          "name": "role",
          "type": "bytes32"
        },
        {
          "internalType": "address",
          "name": "account",
          "type": "address"
        }
      ],
      "name": "revokeRole",
      "outputs": [],
      "stateMutability": "nonpayable",
      "type": "function"
    },
    {
      "inputs": [
        {
          "internalType": "address",
          "name": "from",
          "type": "address"
        },
        {
          "internalType": "address",
          "name": "to",
          "type": "address"
        },
        {
          "internalType": "uint256",
          "name": "tokenId",
          "type": "uint256"
        }
      ],
      "name": "safeTransferFrom",
      "outputs": [],
      "stateMutability": "pure",
      "type": "function"
    },
    {
      "inputs": [
        {
          "internalType": "address",
          "name": "from",
          "type": "address"
        },
        {
          "internalType": "address",
          "name": "to",
          "type": "address"
        },
        {
          "internalType": "uint256",
          "name": "tokenId",
          "type": "uint256"
        },
        {
          "internalType": "bytes",
          "name": "data",
          "type": "bytes"
        }
      ],
      "name": "safeTransferFrom",
      "outputs": [],
      "stateMutability": "nonpayable",
      "type": "function"
    },
    {
      "inputs": [
        {
          "internalType": "address",
          "name": "operator",
          "type": "address"
        },
        {
          "internalType": "bool",
          "name": "approved",
          "type": "bool"
        }
      ],
      "name": "setApprovalForAll",
      "outputs": [],
      "stateMutability": "nonpayable",
      "type": "function"
    },
    {
      "inputs": [
        {
          "internalType": "bytes4",
          "name": "interfaceId",
          "type": "bytes4"
        }
      ],
      "name": "supportsInterface",
      "outputs": [
        {
          "internalType": "bool",
          "name": "",
          "type": "bool"
        }
      ],
      "stateMutability": "view",
      "type": "function"
    },
    {
      "inputs": [
        {
          "internalType": "address",
          "name": "suspendAddress",
          "type": "address"
        },
        {
          "internalType": "string",
          "name": "reason",
          "type": "string"
        }
      ],
      "name": "suspendAccountMaintainTokenAndIdentityBlob",
      "outputs": [],
      "stateMutability": "nonpayable",
      "type": "function"
    },
    {
      "inputs": [],
      "name": "symbol",
      "outputs": [
        {
          "internalType": "string",
          "name": "",
          "type": "string"
        }
      ],
      "stateMutability": "view",
      "type": "function"
    },
    {
      "inputs": [
        {
          "internalType": "uint256",
          "name": "tokenId",
          "type": "uint256"
        }
      ],
      "name": "tokenURI",
      "outputs": [
        {
          "internalType": "string",
          "name": "tokenUri",
          "type": "string"
        }
      ],
      "stateMutability": "view",
      "type": "function"
    },
    {
      "inputs": [],
      "name": "totalSupply",
      "outputs": [
        {
          "internalType": "uint256",
          "name": "",
          "type": "uint256"
        }
      ],
      "stateMutability": "view",
      "type": "function"
    },
    {
      "inputs": [
        {
          "internalType": "address",
          "name": "from",
          "type": "address"
        },
        {
          "internalType": "address",
          "name": "to",
          "type": "address"
        },
        {
          "internalType": "uint256",
          "name": "tokenId",
          "type": "uint256"
        }
      ],
      "name": "transferFrom",
      "outputs": [],
      "stateMutability": "pure",
      "type": "function"
    },
    {
      "inputs": [
        {
          "internalType": "address",
          "name": "account",
          "type": "address"
        },
        {
          "internalType": "string",
          "name": "countryCode",
          "type": "string"
        },
        {
          "internalType": "uint8",
          "name": "userType",
          "type": "uint8"
        },
        {
          "internalType": "uint8",
          "name": "level",
          "type": "uint8"
        },
        {
          "internalType": "uint256",
          "name": "expiry",
          "type": "uint256"
        },
        {
          "internalType": "string",
          "name": "tokenUri",
          "type": "string"
        }
      ],
      "name": "updateIdentity",
      "outputs": [],
      "stateMutability": "nonpayable",
      "type": "function"
    },
    {
      "inputs": [
        {
          "internalType": "address",
          "name": "account",
          "type": "address"
        },
        {
          "internalType": "uint256",
          "name": "tokenId",
          "type": "uint256"
        },
        {
          "internalType": "string",
          "name": "tokenUri",
          "type": "string"
        }
      ],
      "name": "updateTokenURI",
      "outputs": [],
      "stateMutability": "nonpayable",
      "type": "function"
    },
    {
      "inputs": [
        {
          "internalType": "address",
          "name": "newImplementation",
          "type": "address"
        }
      ],
      "name": "upgradeTo",
      "outputs": [],
      "stateMutability": "nonpayable",
      "type": "function"
    },
    {
      "inputs": [
        {
          "internalType": "address",
          "name": "newImplementation",
          "type": "address"
        },
        {
          "internalType": "bytes",
          "name": "data",
          "type": "bytes"
        }
      ],
      "name": "upgradeToAndCall",
      "outputs": [],
      "stateMutability": "payable",
      "type": "function"
    }
  ],
  "bytecode": "0x60a06040523073ffffffffffffffffffffffffffffffffffffffff1660809073ffffffffffffffffffffffffffffffffffffffff1660601b8152503480156200004757600080fd5b506200006467db5e81f582bcaad060c01b620000b260201b60201c565b62000080675531b2f2cdb00fd460c01b620000b260201b60201c565b6200009c67c35260d3ca1195ec60c01b620000b260201b60201c565b620000ac620000b560201b60201c565b62000260565b50565b60018054906101000a900460ff161562000106576040517f08c379a0000000000000000000000000000000000000000000000000000000008152600401620000fd90620001b4565b60405180910390fd5b60ff8016600160009054906101000a900460ff1660ff16146200017a5760ff600160006101000a81548160ff021916908360ff1602179055507f7f26b83ff96e1f2b6a682f133852f6798a09c465da95921460cefb384740249860ff604051620001719190620001d6565b60405180910390a15b565b60006200018b602783620001f3565b9150620001988262000211565b604082019050919050565b620001ae8162000204565b82525050565b60006020820190508181036000830152620001cf816200017c565b9050919050565b6000602082019050620001ed6000830184620001a3565b92915050565b600082825260208201905092915050565b600060ff82169050919050565b7f496e697469616c697a61626c653a20636f6e747261637420697320696e69746960008201527f616c697a696e6700000000000000000000000000000000000000000000000000602082015250565b60805160601c6168906200029b60003960008181611252015281816112e101528181611916015281816119a50152611a5501526168906000f3fe6080604052600436106102855760003560e01c80636ca5fde811610153578063a22cb465116100cb578063c87b56dd1161007f578063dfb24b8911610064578063dfb24b8914610966578063e985e9c5146109a3578063f5b541a6146109e057610285565b8063c87b56dd14610900578063d547741f1461093d57610285565b8063b88d4fde116100b0578063b88d4fde14610871578063c0c53b8b1461089a578063c207e9e0146108c357610285565b8063a22cb4651461080b578063b467177f1461083457610285565b806391d148541161012257806395d89b411161010757806395d89b411461077857806396257e4d146107a3578063a217fddf146107e057610285565b806391d14854146106fe578063949cdd6e1461073b57610285565b80636ca5fde81461063257806370a082311461066f57806380a5a896146106ac57806380ea719a146106d557610285565b8063248a9ca31161020157806342842e0e116101b557806352d1902d1161019a57806352d1902d146105895780636352211e146105b4578063688ea9fe146105f157610285565b806342842e0e146105445780634f1ef2861461056d57610285565b806336568abe116101e657806336568abe146104b55780633659cfe6146104de57806340f378e51461050757610285565b8063248a9ca31461044f5780632f2ff15d1461048c57610285565b8063095ea7b31161025857806318160ddd1161023d57806318160ddd146103be5780631fe0094a146103e957806323b872dd1461042657610285565b8063095ea7b31461036c5780630fcd7f8f1461039557610285565b806301ffc9a71461028a57806306fdde03146102c7578063081812fc146102f257806309299ea31461032f575b600080fd5b34801561029657600080fd5b506102b160048036038101906102ac9190615233565b610a0b565b6040516102be919061597d565b60405180910390f35b3480156102d357600080fd5b506102dc610a59565b6040516102e991906159ce565b60405180910390f35b3480156102fe57600080fd5b5061031960048036038101906103149190615285565b610aeb565b60405161032691906158d5565b60405180910390f35b34801561033b57600080fd5b5061035660048036038101906103519190614dd4565b610b31565b6040516103639190615d0e565b60405180910390f35b34801561037857600080fd5b50610393600480360381019061038e91906150fd565b610bb8565b005b3480156103a157600080fd5b506103bc60048036038101906103b79190615139565b610cd0565b005b3480156103ca57600080fd5b506103d3610eca565b6040516103e09190615d0e565b60405180910390f35b3480156103f557600080fd5b50610410600480360381019061040b9190614dd4565b610f18565b60405161041d9190615d83565b60405180910390f35b34801561043257600080fd5b5061044d60048036038101906104489190614e88565b6110de565b005b34801561045b57600080fd5b50610476600480360381019061047191906151a5565b61118c565b6040516104839190615998565b60405180910390f35b34801561049857600080fd5b506104b360048036038101906104ae91906151f7565b6111ac565b005b3480156104c157600080fd5b506104dc60048036038101906104d791906151f7565b6111cd565b005b3480156104ea57600080fd5b5061050560048036038101906105009190614dd4565b611250565b005b34801561051357600080fd5b5061052e6004803603810190610529919061503a565b6113ff565b60405161053b9190615d0e565b60405180910390f35b34801561055057600080fd5b5061056b60048036038101906105669190614e88565b611866565b005b61058760048036038101906105829190614f8e565b611914565b005b34801561059557600080fd5b5061059e611a51565b6040516105ab9190615998565b60405180910390f35b3480156105c057600080fd5b506105db60048036038101906105d69190615285565b611b0a565b6040516105e891906158d5565b60405180910390f35b3480156105fd57600080fd5b5061061860048036038101906106139190614dd4565b611b91565b604051610629959493929190615d29565b60405180910390f35b34801561063e57600080fd5b5061065960048036038101906106549190614dd4565b611c69565b6040516106669190615cec565b60405180910390f35b34801561067b57600080fd5b5061069660048036038101906106919190614dd4565b611ddd565b6040516106a39190615d0e565b60405180910390f35b3480156106b857600080fd5b506106d360048036038101906106ce9190614fe2565b611e95565b005b3480156106e157600080fd5b506106fc60048036038101906106f7919061503a565b61203d565b005b34801561070a57600080fd5b50610725600480360381019061072091906151f7565b612320565b604051610732919061597d565b60405180910390f35b34801561074757600080fd5b50610762600480360381019061075d9190614dd4565b61238b565b60405161076f9190615d83565b60405180910390f35b34801561078457600080fd5b5061078d612551565b60405161079a91906159ce565b60405180910390f35b3480156107af57600080fd5b506107ca60048036038101906107c59190614dd4565b6125e3565b6040516107d791906159ce565b60405180910390f35b3480156107ec57600080fd5b506107f5612824565b6040516108029190615998565b60405180910390f35b34801561081757600080fd5b50610832600480360381019061082d9190614f52565b61282b565b005b34801561084057600080fd5b5061085b60048036038101906108569190614dd4565b612841565b6040516108689190615d83565b60405180910390f35b34801561087d57600080fd5b5061089860048036038101906108939190614ed7565b6128d5565b005b3480156108a657600080fd5b506108c160048036038101906108bc9190614e39565b612937565b005b3480156108cf57600080fd5b506108ea60048036038101906108e59190614dd4565b612c85565b6040516108f79190615d83565b60405180910390f35b34801561090c57600080fd5b5061092760048036038101906109229190615285565b612d19565b60405161093491906159ce565b60405180910390f35b34801561094957600080fd5b50610964600480360381019061095f91906151f7565b612ecc565b005b34801561097257600080fd5b5061098d60048036038101906109889190614dd4565b612eed565b60405161099a91906159ce565b60405180910390f35b3480156109af57600080fd5b506109ca60048036038101906109c59190614dfd565b612ffc565b6040516109d7919061597d565b60405180910390f35b3480156109ec57600080fd5b506109f5613090565b604051610a029190615998565b60405180910390f35b6000610a2167bb394ff96495738360c01b6130b4565b610a356751deb66d5108742160c01b6130b4565b610a496740a84345ff486f4060c01b6130b4565b610a52826130b7565b9050919050565b606060668054610a689061601e565b80601f0160208091040260200160405190810160405280929190818152602001828054610a949061601e565b8015610ae15780601f10610ab657610100808354040283529160200191610ae1565b820191906000526020600020905b815481529060010190602001808311610ac457829003601f168201915b5050505050905090565b6000610af682613131565b606a600083815260200190815260200160002060009054906101000a900473ffffffffffffffffffffffffffffffffffffffff169050919050565b6000610b476702cf5f66176fa53960c01b61317c565b610b5b67b12611fe05def76260c01b61317c565b610b6f678420dd018e3ed1a260c01b61317c565b6000808373ffffffffffffffffffffffffffffffffffffffff1673ffffffffffffffffffffffffffffffffffffffff168152602001908152602001600020600301549050919050565b6000610bc382611b0a565b90508073ffffffffffffffffffffffffffffffffffffffff168373ffffffffffffffffffffffffffffffffffffffff161415610c34576040517f08c379a0000000000000000000000000000000000000000000000000000000008152600401610c2b90615c10565b60405180910390fd5b8073ffffffffffffffffffffffffffffffffffffffff16610c5361317f565b73ffffffffffffffffffffffffffffffffffffffff161480610c825750610c8181610c7c61317f565b612ffc565b5b610cc1576040517f08c379a0000000000000000000000000000000000000000000000000000000008152600401610cb890615c30565b60405180910390fd5b610ccb8383613187565b505050565b610ce4679dfaa7d551d5ad4f60c01b6130b4565b7f97667070c54ef182b0f5858b034beac1b6f3089aa2d3188bb1e8929f4fa9b929610d0e81613240565b610d226738a8ec127f39f4b760c01b6130b4565b610d366771f2625500517a1960c01b6130b4565b610d4a67ba0150cf54235b5b60c01b6130b4565b610d5e674ba6cb7dd2ddecb460c01b6130b4565b610d72676b4efcc6cca0c3fd60c01b6130b4565b610d7b84613254565b6040518060400160405280600381526020017f313031000000000000000000000000000000000000000000000000000000000081525090610df2576040517f08c379a0000000000000000000000000000000000000000000000000000000008152600401610de991906159ce565b60405180910390fd5b50610e0767845d0b140a93c12560c01b6130b4565b610e1b6773ee7804a611c94760c01b6130b4565b828261013060008781526020019081526020016000209190610e3e929190614b1c565b50610e53674261c4441178f68f60c01b6130b4565b610e6767147b0824d5c52d1e60c01b6130b4565b8282604051610e77929190615882565b6040518091039020848673ffffffffffffffffffffffffffffffffffffffff167fe3a3e1a0be0d562dd7ec739509d30dfbca7cd174fbc576a45746fe1f3b277c2660405160405180910390a45050505050565b6000610ee0676a18f9ca1823016a60c01b6130b4565b610ef46789e3dfc1996b87a160c01b6130b4565b610f086750c948dfdb7f780c60c01b6130b4565b610f1361012e613295565b905090565b6000610f2e6719c99830b5b4654060c01b6132a3565b610f426792805f3a7478451b60c01b6132a3565b610f566746c027269ffad2a760c01b6132a3565b6000808373ffffffffffffffffffffffffffffffffffffffff1673ffffffffffffffffffffffffffffffffffffffff16815260200190815260200160002060030154421061104c57610fb267c0f7dab06875d32960c01b6132a3565b610fc667749dbadd8151278160c01b6132a3565b610fda673e104cf77e5bc49f60c01b6132a3565b6040518060400160405280600381526020017f31303300000000000000000000000000000000000000000000000000000000008152506040517f08c379a000000000000000000000000000000000000000000000000000000000815260040161104391906159ce565b60405180910390fd5b61106067e679f23c5e234df160c01b6132a3565b611074674f9d839449945cab60c01b6132a3565b611088677afa349be258a49b60c01b6132a3565b6000808373ffffffffffffffffffffffffffffffffffffffff1673ffffffffffffffffffffffffffffffffffffffff16815260200190815260200160002060020160009054906101000a900460ff169050919050565b6110f2671db7405e319f6de060c01b6130b4565b6111066783497ce10971c48260c01b6130b4565b61111a6762590d6add00706060c01b6130b4565b6040518060400160405280600381526020017f31303200000000000000000000000000000000000000000000000000000000008152506040517f08c379a000000000000000000000000000000000000000000000000000000000815260040161118391906159ce565b60405180910390fd5b600060986000838152602001908152602001600020600101549050919050565b6111b58261118c565b6111be81613240565b6111c883836132a6565b505050565b6111d561317f565b73ffffffffffffffffffffffffffffffffffffffff168173ffffffffffffffffffffffffffffffffffffffff1614611242576040517f08c379a000000000000000000000000000000000000000000000000000000000815260040161123990615ccc565b60405180910390fd5b61124c8282613387565b5050565b7f000000000000000000000000000000000000000000000000000000000000000073ffffffffffffffffffffffffffffffffffffffff163073ffffffffffffffffffffffffffffffffffffffff1614156112df576040517f08c379a00000000000000000000000000000000000000000000000000000000081526004016112d690615a90565b60405180910390fd5b7f000000000000000000000000000000000000000000000000000000000000000073ffffffffffffffffffffffffffffffffffffffff1661131e613469565b73ffffffffffffffffffffffffffffffffffffffff1614611374576040517f08c379a000000000000000000000000000000000000000000000000000000000815260040161136b90615af0565b60405180910390fd5b61137d816134c0565b6113fc81600067ffffffffffffffff8111156113c2577f4e487b7100000000000000000000000000000000000000000000000000000000600052604160045260246000fd5b6040519080825280601f01601f1916602001820160405280156113f45781602001600182028036833780820191505090505b50600061350d565b50565b600061141567b2bb5be2da0fed7f60c01b6130b4565b7f97667070c54ef182b0f5858b034beac1b6f3089aa2d3188bb1e8929f4fa9b92961143f81613240565b6114536767092182785dbe1660c01b6130b4565b6114676761658d08f3aed9f960c01b6130b4565b61147b67ed3a0e877d7a61ba60c01b6130b4565b61148f673c9e84b7efa50cce60c01b6130b4565b6114a36782a506ecba8b3e3660c01b6130b4565b60006114ae8b611ddd565b146040518060400160405280600381526020017f313030000000000000000000000000000000000000000000000000000000000081525090611526576040517f08c379a000000000000000000000000000000000000000000000000000000000815260040161151d91906159ce565b60405180910390fd5b5061153b6709758a2c9186cdc960c01b6130b4565b61154f67eb47a0b425aa05fa60c01b6130b4565b61156367cea4da29c53476a760c01b6130b4565b61157767fb0eb89ec11ecc9a60c01b6130b4565b4285116040518060400160405280600381526020017f3130330000000000000000000000000000000000000000000000000000000000815250906115f1576040517f08c379a00000000000000000000000000000000000000000000000000000000081526004016115e891906159ce565b60405180910390fd5b50611606679bec0fbaf82459fe60c01b6130b4565b61161a67b5e9978688c1f84060c01b6130b4565b61162e67c972f5a40165ec3e60c01b6130b4565b61163961012e61368a565b61164d67fc195f73a047bb4e60c01b6130b4565b61166167e3169663323ecdc660c01b6130b4565b61167a8a61167061012e613295565b8b8b8b8b8b6136a0565b61168e67093fce267e58b39060c01b6130b4565b6116a2674b069043e127c18560c01b6130b4565b6116b68a6116b161012e613295565b6137f6565b6116ca67243f9099585693e060c01b6130b4565b838361013060006116dc61012e613295565b815260200190815260200160002091906116f7929190614b1c565b5061170c677da896f8bf1cc3cf60c01b6130b4565b61172067cccd7a33d4b9fa1060c01b6130b4565b61012f60009054906101000a900473ffffffffffffffffffffffffffffffffffffffff1673ffffffffffffffffffffffffffffffffffffffff16632f7f0a128b6040518263ffffffff1660e01b815260040161177c919061593c565b600060405180830381600087803b15801561179657600080fd5b505af11580156117aa573d6000803e3d6000fd5b505050506117c267d40c81e56e7696d860c01b6130b4565b6117d667dc6f840eb155df4c60c01b6130b4565b6117e161012e613295565b8a73ffffffffffffffffffffffffffffffffffffffff167fae1b84af5e96bd9fa84e791c6b59125d1c17f73ef00e5a9d1fd8c0cc41e0489660405160405180910390a361183867d146a42f7b963b6c60c01b6130b4565b61184c677957dddef68a0dbd60c01b6130b4565b61185761012e613295565b91505098975050505050505050565b61187a67082d46af2af6d0e960c01b6130b4565b61188e6727c63058f90a821360c01b6130b4565b6118a26754ffdbd468219e9660c01b6130b4565b6040518060400160405280600381526020017f31303200000000000000000000000000000000000000000000000000000000008152506040517f08c379a000000000000000000000000000000000000000000000000000000000815260040161190b91906159ce565b60405180910390fd5b7f000000000000000000000000000000000000000000000000000000000000000073ffffffffffffffffffffffffffffffffffffffff163073ffffffffffffffffffffffffffffffffffffffff1614156119a3576040517f08c379a000000000000000000000000000000000000000000000000000000000815260040161199a90615a90565b60405180910390fd5b7f000000000000000000000000000000000000000000000000000000000000000073ffffffffffffffffffffffffffffffffffffffff166119e2613469565b73ffffffffffffffffffffffffffffffffffffffff1614611a38576040517f08c379a0000000000000000000000000000000000000000000000000000000008152600401611a2f90615af0565b60405180910390fd5b611a41826134c0565b611a4d8282600161350d565b5050565b60007f000000000000000000000000000000000000000000000000000000000000000073ffffffffffffffffffffffffffffffffffffffff163073ffffffffffffffffffffffffffffffffffffffff1614611ae1576040517f08c379a0000000000000000000000000000000000000000000000000000000008152600401611ad890615b10565b60405180910390fd5b7f360894a13ba1a3210667c828492db98dca3e2076cc3735a920a3ca505d382bbc60001b905090565b600080611b1683613814565b9050600073ffffffffffffffffffffffffffffffffffffffff168173ffffffffffffffffffffffffffffffffffffffff161415611b88576040517f08c379a0000000000000000000000000000000000000000000000000000000008152600401611b7f90615bf0565b60405180910390fd5b80915050919050565b6000602052806000526040600020600091509050806000015490806001018054611bba9061601e565b80601f0160208091040260200160405190810160405280929190818152602001828054611be69061601e565b8015611c335780601f10611c0857610100808354040283529160200191611c33565b820191906000526020600020905b815481529060010190602001808311611c1657829003601f168201915b5050505050908060020160009054906101000a900460ff16908060020160019054906101000a900460ff16908060030154905085565b611c71614ba2565b611c856755a4e72e54d4a35560c01b61317c565b611c9967216e60ddb2fb734860c01b61317c565b611cad67feff6f6de487094c60c01b61317c565b6000808373ffffffffffffffffffffffffffffffffffffffff1673ffffffffffffffffffffffffffffffffffffffff1681526020019081526020016000206040518060a001604052908160008201548152602001600182018054611d109061601e565b80601f0160208091040260200160405190810160405280929190818152602001828054611d3c9061601e565b8015611d895780601f10611d5e57610100808354040283529160200191611d89565b820191906000526020600020905b815481529060010190602001808311611d6c57829003601f168201915b505050505081526020016002820160009054906101000a900460ff1660ff1660ff1681526020016002820160019054906101000a900460ff1660ff1660ff1681526020016003820154815250509050919050565b60008073ffffffffffffffffffffffffffffffffffffffff168273ffffffffffffffffffffffffffffffffffffffff161415611e4e576040517f08c379a0000000000000000000000000000000000000000000000000000000008152600401611e4590615b30565b60405180910390fd5b606960008373ffffffffffffffffffffffffffffffffffffffff1673ffffffffffffffffffffffffffffffffffffffff168152602001908152602001600020549050919050565b611ea967e05775cc30b3a4c360c01b6130b4565b7f97667070c54ef182b0f5858b034beac1b6f3089aa2d3188bb1e8929f4fa9b929611ed381613240565b611ee767340f1028f226dd0a60c01b6130b4565b611efb67015076a70c0af72c60c01b6130b4565b611f0f672d8e3478a7d95b0560c01b6130b4565b611f2367332cd9e58174c79b60c01b6130b4565b61012f60009054906101000a900473ffffffffffffffffffffffffffffffffffffffff1673ffffffffffffffffffffffffffffffffffffffff166384b7a84a8560016040518363ffffffff1660e01b8152600401611f82929190615c50565b600060405180830381600087803b158015611f9c57600080fd5b505af1158015611fb0573d6000803e3d6000fd5b50505050611fc867f51dc90604f812b460c01b6130b4565b611fdc67c5acc4d33c6c9be560c01b6130b4565b8282604051611fec929190615882565b60405180910390208473ffffffffffffffffffffffffffffffffffffffff167f3347b0049117ab94fddf6cff81cc554c4f7489acedc7c33907a96655770e58ae60405160405180910390a350505050565b6120516744ba5879932d6b6b60c01b6130b4565b7f97667070c54ef182b0f5858b034beac1b6f3089aa2d3188bb1e8929f4fa9b92961207b81613240565b61208f67262ed81284bcd46160c01b6130b4565b6120a3670e894815cb1587f660c01b6130b4565b6120b767a1427b684ba1107960c01b6130b4565b6120cb6720bdcac9aa05193660c01b6130b4565b6120df67ce81be1dc86cf1b960c01b6130b4565b60016120ea8a611ddd565b146040518060400160405280600381526020017f313031000000000000000000000000000000000000000000000000000000000081525090612162576040517f08c379a000000000000000000000000000000000000000000000000000000000815260040161215991906159ce565b60405180910390fd5b506121776758e6026e0c90f46d60c01b6130b4565b61218b6737c927149839212660c01b6130b4565b61219f67b7b2e8036abaf9fa60c01b6130b4565b6121ef896000808c73ffffffffffffffffffffffffffffffffffffffff1673ffffffffffffffffffffffffffffffffffffffff168152602001908152602001600020600001548a8a8a8a8a6136a0565b61220367d884d7a2e493b52d60c01b6130b4565b828261013060008060008e73ffffffffffffffffffffffffffffffffffffffff1673ffffffffffffffffffffffffffffffffffffffff1681526020019081526020016000206000015481526020019081526020016000209190612267929190614b1c565b5061227c6714ae4ff4824cc3cb60c01b6130b4565b6122906741e97fe671d34fa960c01b6130b4565b6000808a73ffffffffffffffffffffffffffffffffffffffff1673ffffffffffffffffffffffffffffffffffffffff168152602001908152602001600020600001548973ffffffffffffffffffffffffffffffffffffffff167f4a1e31466f875c6fcafefabf90bce8accdf53108c4a309106058ef7aefebd5ce60405160405180910390a3505050505050505050565b60006098600084815260200190815260200160002060000160008373ffffffffffffffffffffffffffffffffffffffff1673ffffffffffffffffffffffffffffffffffffffff16815260200190815260200160002060009054906101000a900460ff16905092915050565b60006123a16706dae439f14a554160c01b6132a3565b6123b567d9a43cd54b2554f860c01b6132a3565b6123c967b80c4d30135ffecc60c01b6132a3565b6000808373ffffffffffffffffffffffffffffffffffffffff1673ffffffffffffffffffffffffffffffffffffffff1681526020019081526020016000206003015442106124bf5761242567e7400f8588b3b9fd60c01b6132a3565b61243967218e4aadc28bad5460c01b6132a3565b61244d6709e2c5a8a6db9e6460c01b6132a3565b6040518060400160405280600381526020017f31303300000000000000000000000000000000000000000000000000000000008152506040517f08c379a00000000000000000000000000000000000000000000000000000000081526004016124b691906159ce565b60405180910390fd5b6124d367a46d03d2c5d0aae460c01b6132a3565b6124e76759e43ca1959c0a4e60c01b6132a3565b6124fb67c0882176d22f194460c01b6132a3565b6000808373ffffffffffffffffffffffffffffffffffffffff1673ffffffffffffffffffffffffffffffffffffffff16815260200190815260200160002060020160019054906101000a900460ff169050919050565b6060606780546125609061601e565b80601f016020809104026020016040519081016040528092919081815260200182805461258c9061601e565b80156125d95780601f106125ae576101008083540402835291602001916125d9565b820191906000526020600020905b8154815290600101906020018083116125bc57829003601f168201915b5050505050905090565b60606125f9673afbff51046f6dc960c01b6132a3565b61260d67dc0c995e8c89436c60c01b6132a3565b61262167c8c8ce89cab65bb260c01b6132a3565b6000808373ffffffffffffffffffffffffffffffffffffffff1673ffffffffffffffffffffffffffffffffffffffff1681526020019081526020016000206003015442106127175761267d678a8a08e8027046c760c01b6132a3565b6126916791c41a347ba64e9660c01b6132a3565b6126a5679881f450aa1ce9eb60c01b6132a3565b6040518060400160405280600381526020017f31303300000000000000000000000000000000000000000000000000000000008152506040517f08c379a000000000000000000000000000000000000000000000000000000000815260040161270e91906159ce565b60405180910390fd5b61272b67312e0ffaf24bb87460c01b6132a3565b61273f67c78863f958234bc560c01b6132a3565b61275367c5c511546c50c45160c01b6132a3565b6000808373ffffffffffffffffffffffffffffffffffffffff1673ffffffffffffffffffffffffffffffffffffffff168152602001908152602001600020600101805461279f9061601e565b80601f01602080910402602001604051908101604052809291908181526020018280546127cb9061601e565b80156128185780601f106127ed57610100808354040283529160200191612818565b820191906000526020600020905b8154815290600101906020018083116127fb57829003601f168201915b50505050509050919050565b6000801b81565b61283d61283661317f565b8383613851565b5050565b60006128576792d60679391b87e860c01b6139be565b61286b67bd855aee701b278060c01b6139be565b61287f67b09e1e596f53805a60c01b6139be565b6000808373ffffffffffffffffffffffffffffffffffffffff1673ffffffffffffffffffffffffffffffffffffffff16815260200190815260200160002060020160009054906101000a900460ff169050919050565b6128e66128e061317f565b836139c1565b612925576040517f08c379a000000000000000000000000000000000000000000000000000000000815260040161291c90615a10565b60405180910390fd5b61293184848484613a56565b50505050565b61294b67a0187eab247b371c60c01b6130b4565b600060018054906101000a900460ff1615905080801561297c575060018060009054906101000a900460ff1660ff16105b806129aa575061298b30613ab2565b1580156129a9575060018060009054906101000a900460ff1660ff16145b5b6129e9576040517f08c379a00000000000000000000000000000000000000000000000000000000081526004016129e090615b70565b60405180910390fd5b60018060006101000a81548160ff021916908360ff1602179055508015612a255760018060016101000a81548160ff0219169083151502179055505b612a3967abcf63c6fb83844e60c01b6130b4565b612a4d676e38d6c81f9cab4560c01b6130b4565b612a6167508b6bb5de8f3fbc60c01b6130b4565b612a7567e9a8f8fb83dc431760c01b6130b4565b612a7d613ad5565b612a916767eb0c282638a7f860c01b6130b4565b612aa567be8f3cc64b37fc8660c01b6130b4565b612b196040518060400160405280601181526020017f50726f6f66206f66204964656e746974790000000000000000000000000000008152506040518060400160405280600581526020017f48312d4944000000000000000000000000000000000000000000000000000000815250613b24565b612b2d67f395fc16c3fbe06660c01b6130b4565b612b41679bbbaef6a682f66360c01b6130b4565b612b49613b7f565b612b5d67ee7e50a6420af52a60c01b6130b4565b8361012f60006101000a81548173ffffffffffffffffffffffffffffffffffffffff021916908373ffffffffffffffffffffffffffffffffffffffff160217905550612bb3670d909d8ca32fd99460c01b6130b4565b612bc76782dc340fd2ce7a3c60c01b6130b4565b612bd46000801b846132a6565b612be867b936a459d9cceeb460c01b6130b4565b612bfc6733f80892f70f07c260c01b6130b4565b612c267f97667070c54ef182b0f5858b034beac1b6f3089aa2d3188bb1e8929f4fa9b929836132a6565b8015612c7f5760006001806101000a81548160ff0219169083151502179055507f7f26b83ff96e1f2b6a682f133852f6798a09c465da95921460cefb38474024986001604051612c7691906159b3565b60405180910390a15b50505050565b6000612c9b673a22c2818bb20d1a60c01b6139be565b612caf67fbb2d96654b535de60c01b6139be565b612cc36739ec579a6c67c80e60c01b6139be565b6000808373ffffffffffffffffffffffffffffffffffffffff1673ffffffffffffffffffffffffffffffffffffffff16815260200190815260200160002060020160019054906101000a900460ff169050919050565b6060612d2f674a1cce405faff74560c01b6130b4565b612d4367f5117f9257161bab60c01b6130b4565b612d5767aa04d3478398cf6f60c01b6130b4565b612d6b6724081be78105f81f60c01b6130b4565b612d7482613254565b6040518060400160405280600381526020017f313031000000000000000000000000000000000000000000000000000000000081525090612deb576040517f08c379a0000000000000000000000000000000000000000000000000000000008152600401612de291906159ce565b60405180910390fd5b50612e0067d676a7130c06d07e60c01b6130b4565b612e1467d9fa80327e35d49360c01b6130b4565b612e28677d940d36bbca069960c01b6130b4565b61013060008381526020019081526020016000208054612e479061601e565b80601f0160208091040260200160405190810160405280929190818152602001828054612e739061601e565b8015612ec05780601f10612e9557610100808354040283529160200191612ec0565b820191906000526020600020905b815481529060010190602001808311612ea357829003601f168201915b50505050509050919050565b612ed58261118c565b612ede81613240565b612ee88383613387565b505050565b6060612f036732c39d4afc3889c160c01b6139be565b612f1767dae6db8ba31c013c60c01b6139be565b612f2b67b501f3a83b16752260c01b6139be565b6000808373ffffffffffffffffffffffffffffffffffffffff1673ffffffffffffffffffffffffffffffffffffffff1681526020019081526020016000206001018054612f779061601e565b80601f0160208091040260200160405190810160405280929190818152602001828054612fa39061601e565b8015612ff05780601f10612fc557610100808354040283529160200191612ff0565b820191906000526020600020905b815481529060010190602001808311612fd357829003601f168201915b50505050509050919050565b6000606b60008473ffffffffffffffffffffffffffffffffffffffff1673ffffffffffffffffffffffffffffffffffffffff16815260200190815260200160002060008373ffffffffffffffffffffffffffffffffffffffff1673ffffffffffffffffffffffffffffffffffffffff16815260200190815260200160002060009054906101000a900460ff16905092915050565b7f97667070c54ef182b0f5858b034beac1b6f3089aa2d3188bb1e8929f4fa9b92981565b50565b60007f7965db0b000000000000000000000000000000000000000000000000000000007bffffffffffffffffffffffffffffffffffffffffffffffffffffffff1916827bffffffffffffffffffffffffffffffffffffffffffffffffffffffff1916148061312a575061312982613bce565b5b9050919050565b61313a81613254565b613179576040517f08c379a000000000000000000000000000000000000000000000000000000000815260040161317090615bf0565b60405180910390fd5b50565b50565b600033905090565b81606a600083815260200190815260200160002060006101000a81548173ffffffffffffffffffffffffffffffffffffffff021916908373ffffffffffffffffffffffffffffffffffffffff160217905550808273ffffffffffffffffffffffffffffffffffffffff166131fa83611b0a565b73ffffffffffffffffffffffffffffffffffffffff167f8c5be1e5ebec7d5bd14f71427d1e84f3dd0314c0f7b2291e5b200ac8c7c3b92560405160405180910390a45050565b6132518161324c61317f565b613cb0565b50565b60008073ffffffffffffffffffffffffffffffffffffffff1661327683613814565b73ffffffffffffffffffffffffffffffffffffffff1614159050919050565b600081600001549050919050565b50565b6132b08282612320565b6133835760016098600084815260200190815260200160002060000160008373ffffffffffffffffffffffffffffffffffffffff1673ffffffffffffffffffffffffffffffffffffffff16815260200190815260200160002060006101000a81548160ff02191690831515021790555061332861317f565b73ffffffffffffffffffffffffffffffffffffffff168173ffffffffffffffffffffffffffffffffffffffff16837f2f8788117e7eff1d82e926ec794901d17c78024a50270940304540a733656f0d60405160405180910390a45b5050565b6133918282612320565b156134655760006098600084815260200190815260200160002060000160008373ffffffffffffffffffffffffffffffffffffffff1673ffffffffffffffffffffffffffffffffffffffff16815260200190815260200160002060006101000a81548160ff02191690831515021790555061340a61317f565b73ffffffffffffffffffffffffffffffffffffffff168173ffffffffffffffffffffffffffffffffffffffff16837ff6391f5c32d9c69d2a47ea670b442974b53935d1edc7fd64eb21e047a839171b60405160405180910390a45b5050565b60006134977f360894a13ba1a3210667c828492db98dca3e2076cc3735a920a3ca505d382bbc60001b613d35565b60000160009054906101000a900473ffffffffffffffffffffffffffffffffffffffff16905090565b6134d4677465adab6bb2473a60c01b6130b4565b6000801b6134e181613240565b6134f567902ffbf5db34675460c01b6130b4565b613509677ab62c3941758f0660c01b6130b4565b5050565b6135397f4910fdfa16fed3260ed0e7147f7cc6da11a60208b5b9406d12a635614ffd914360001b613d3f565b60000160009054906101000a900460ff161561355d5761355883613d49565b613685565b8273ffffffffffffffffffffffffffffffffffffffff166352d1902d6040518163ffffffff1660e01b815260040160206040518083038186803b1580156135a357600080fd5b505afa9250505080156135d457506040513d601f19601f820116820180604052508101906135d191906151ce565b60015b613613576040517f08c379a000000000000000000000000000000000000000000000000000000000815260040161360a90615bb0565b60405180910390fd5b7f360894a13ba1a3210667c828492db98dca3e2076cc3735a920a3ca505d382bbc60001b8114613678576040517f08c379a000000000000000000000000000000000000000000000000000000000815260040161366f90615b50565b60405180910390fd5b50613684838383613e02565b5b505050565b6001816000016000828254019250508190555050565b6136b4677647c4bc02b8e54e60c01b6130b4565b6136c867ae1d078a9d37a4b260c01b6130b4565b6040518060a0016040528087815260200186868080601f016020809104026020016040519081016040528093929190818152602001838380828437600081840152601f19601f8201169050808301925050505050505081526020018460ff1681526020018360ff168152602001828152506000808973ffffffffffffffffffffffffffffffffffffffff1673ffffffffffffffffffffffffffffffffffffffff16815260200190815260200160002060008201518160000155602082015181600101908051906020019061379d929190614bd7565b5060408201518160020160006101000a81548160ff021916908360ff16021790555060608201518160020160016101000a81548160ff021916908360ff1602179055506080820151816003015590505050505050505050565b613810828260405180602001604052806000815250613e2e565b5050565b60006068600083815260200190815260200160002060009054906101000a900473ffffffffffffffffffffffffffffffffffffffff169050919050565b8173ffffffffffffffffffffffffffffffffffffffff168373ffffffffffffffffffffffffffffffffffffffff1614156138c0576040517f08c379a00000000000000000000000000000000000000000000000000000000081526004016138b790615ad0565b60405180910390fd5b80606b60008573ffffffffffffffffffffffffffffffffffffffff1673ffffffffffffffffffffffffffffffffffffffff16815260200190815260200160002060008473ffffffffffffffffffffffffffffffffffffffff1673ffffffffffffffffffffffffffffffffffffffff16815260200190815260200160002060006101000a81548160ff0219169083151502179055508173ffffffffffffffffffffffffffffffffffffffff168373ffffffffffffffffffffffffffffffffffffffff167f17307eab39ab6107e8899845ad3d59bd9653f200f220920489ca2b5937696c31836040516139b1919061597d565b60405180910390a3505050565b50565b6000806139cd83611b0a565b90508073ffffffffffffffffffffffffffffffffffffffff168473ffffffffffffffffffffffffffffffffffffffff161480613a0f5750613a0e8185612ffc565b5b80613a4d57508373ffffffffffffffffffffffffffffffffffffffff16613a3584610aeb565b73ffffffffffffffffffffffffffffffffffffffff16145b91505092915050565b613a61848484613e89565b613a6d84848484614183565b613aac576040517f08c379a0000000000000000000000000000000000000000000000000000000008152600401613aa390615a30565b60405180910390fd5b50505050565b6000808273ffffffffffffffffffffffffffffffffffffffff163b119050919050565b60018054906101000a900460ff16613b22576040517f08c379a0000000000000000000000000000000000000000000000000000000008152600401613b1990615cac565b60405180910390fd5b565b60018054906101000a900460ff16613b71576040517f08c379a0000000000000000000000000000000000000000000000000000000008152600401613b6890615cac565b60405180910390fd5b613b7b828261431a565b5050565b60018054906101000a900460ff16613bcc576040517f08c379a0000000000000000000000000000000000000000000000000000000008152600401613bc390615cac565b60405180910390fd5b565b60007f80ac58cd000000000000000000000000000000000000000000000000000000007bffffffffffffffffffffffffffffffffffffffffffffffffffffffff1916827bffffffffffffffffffffffffffffffffffffffffffffffffffffffff19161480613c9957507f5b5e139f000000000000000000000000000000000000000000000000000000007bffffffffffffffffffffffffffffffffffffffffffffffffffffffff1916827bffffffffffffffffffffffffffffffffffffffffffffffffffffffff1916145b80613ca95750613ca882614399565b5b9050919050565b613cba8282612320565b613d3157613cc781614403565b613cd58360001c6020614430565b604051602001613ce692919061589b565b6040516020818303038152906040526040517f08c379a0000000000000000000000000000000000000000000000000000000008152600401613d2891906159ce565b60405180910390fd5b5050565b6000819050919050565b6000819050919050565b613d5281613ab2565b613d91576040517f08c379a0000000000000000000000000000000000000000000000000000000008152600401613d8890615bd0565b60405180910390fd5b80613dbe7f360894a13ba1a3210667c828492db98dca3e2076cc3735a920a3ca505d382bbc60001b613d35565b60000160006101000a81548173ffffffffffffffffffffffffffffffffffffffff021916908373ffffffffffffffffffffffffffffffffffffffff16021790555050565b613e0b8361472a565b600082511180613e185750805b15613e2957613e278383614779565b505b505050565b613e3883836147a6565b613e456000848484614183565b613e84576040517f08c379a0000000000000000000000000000000000000000000000000000000008152600401613e7b90615a30565b60405180910390fd5b505050565b8273ffffffffffffffffffffffffffffffffffffffff16613ea982611b0a565b73ffffffffffffffffffffffffffffffffffffffff1614613eff576040517f08c379a0000000000000000000000000000000000000000000000000000000008152600401613ef690615a50565b60405180910390fd5b600073ffffffffffffffffffffffffffffffffffffffff168273ffffffffffffffffffffffffffffffffffffffff161415613f6f576040517f08c379a0000000000000000000000000000000000000000000000000000000008152600401613f6690615ab0565b60405180910390fd5b613f7c83838360016149c4565b8273ffffffffffffffffffffffffffffffffffffffff16613f9c82611b0a565b73ffffffffffffffffffffffffffffffffffffffff1614613ff2576040517f08c379a0000000000000000000000000000000000000000000000000000000008152600401613fe990615a50565b60405180910390fd5b606a600082815260200190815260200160002060006101000a81549073ffffffffffffffffffffffffffffffffffffffff02191690556001606960008573ffffffffffffffffffffffffffffffffffffffff1673ffffffffffffffffffffffffffffffffffffffff168152602001908152602001600020600082825403925050819055506001606960008473ffffffffffffffffffffffffffffffffffffffff1673ffffffffffffffffffffffffffffffffffffffff16815260200190815260200160002060008282540192505081905550816068600083815260200190815260200160002060006101000a81548173ffffffffffffffffffffffffffffffffffffffff021916908373ffffffffffffffffffffffffffffffffffffffff160217905550808273ffffffffffffffffffffffffffffffffffffffff168473ffffffffffffffffffffffffffffffffffffffff167fddf252ad1be2c89b69c2b068fc378daa952ba7f163c4a11628f55a4df523b3ef60405160405180910390a461417e83838360016149ca565b505050565b60006141a48473ffffffffffffffffffffffffffffffffffffffff16613ab2565b1561430d578373ffffffffffffffffffffffffffffffffffffffff1663150b7a026141cd61317f565b8786866040518563ffffffff1660e01b81526004016141ef94939291906158f0565b602060405180830381600087803b15801561420957600080fd5b505af192505050801561423a57506040513d601f19601f82011682018060405250810190614237919061525c565b60015b6142bd573d806000811461426a576040519150601f19603f3d011682016040523d82523d6000602084013e61426f565b606091505b506000815114156142b5576040517f08c379a00000000000000000000000000000000000000000000000000000000081526004016142ac90615a30565b60405180910390fd5b805181602001fd5b63150b7a0260e01b7bffffffffffffffffffffffffffffffffffffffffffffffffffffffff1916817bffffffffffffffffffffffffffffffffffffffffffffffffffffffff191614915050614312565b600190505b949350505050565b60018054906101000a900460ff16614367576040517f08c379a000000000000000000000000000000000000000000000000000000000815260040161435e90615cac565b60405180910390fd5b816066908051906020019061437d929190614bd7565b508060679080519060200190614394929190614bd7565b505050565b60007f01ffc9a7000000000000000000000000000000000000000000000000000000007bffffffffffffffffffffffffffffffffffffffffffffffffffffffff1916827bffffffffffffffffffffffffffffffffffffffffffffffffffffffff1916149050919050565b60606144298273ffffffffffffffffffffffffffffffffffffffff16601460ff16614430565b9050919050565b6060600060028360026144439190615ea9565b61444d9190615e53565b67ffffffffffffffff81111561448c577f4e487b7100000000000000000000000000000000000000000000000000000000600052604160045260246000fd5b6040519080825280601f01601f1916602001820160405280156144be5781602001600182028036833780820191505090505b5090507f30000000000000000000000000000000000000000000000000000000000000008160008151811061451c577f4e487b7100000000000000000000000000000000000000000000000000000000600052603260045260246000fd5b60200101907effffffffffffffffffffffffffffffffffffffffffffffffffffffffffffff1916908160001a9053507f7800000000000000000000000000000000000000000000000000000000000000816001815181106145a6577f4e487b7100000000000000000000000000000000000000000000000000000000600052603260045260246000fd5b60200101907effffffffffffffffffffffffffffffffffffffffffffffffffffffffffffff1916908160001a905350600060018460026145e69190615ea9565b6145f09190615e53565b90505b60018111156146dc577f3031323334353637383961626364656600000000000000000000000000000000600f861660108110614658577f4e487b7100000000000000000000000000000000000000000000000000000000600052603260045260246000fd5b1a60f81b828281518110614695577f4e487b7100000000000000000000000000000000000000000000000000000000600052603260045260246000fd5b60200101907effffffffffffffffffffffffffffffffffffffffffffffffffffffffffffff1916908160001a905350600485901c9450806146d590615ff4565b90506145f3565b5060008414614720576040517f08c379a0000000000000000000000000000000000000000000000000000000008152600401614717906159f0565b60405180910390fd5b8091505092915050565b61473381613d49565b8073ffffffffffffffffffffffffffffffffffffffff167fbc7cd75a20ee27fd9adebab32041f755214dbc6bffa90cc0225b39da2e5c2d3b60405160405180910390a250565b606061479e8383604051806060016040528060278152602001616834602791396149d0565b905092915050565b600073ffffffffffffffffffffffffffffffffffffffff168273ffffffffffffffffffffffffffffffffffffffff161415614816576040517f08c379a000000000000000000000000000000000000000000000000000000000815260040161480d90615b90565b60405180910390fd5b61481f81613254565b1561485f576040517f08c379a000000000000000000000000000000000000000000000000000000000815260040161485690615a70565b60405180910390fd5b61486d6000838360016149c4565b61487681613254565b156148b6576040517f08c379a00000000000000000000000000000000000000000000000000000000081526004016148ad90615a70565b60405180910390fd5b6001606960008473ffffffffffffffffffffffffffffffffffffffff1673ffffffffffffffffffffffffffffffffffffffff16815260200190815260200160002060008282540192505081905550816068600083815260200190815260200160002060006101000a81548173ffffffffffffffffffffffffffffffffffffffff021916908373ffffffffffffffffffffffffffffffffffffffff160217905550808273ffffffffffffffffffffffffffffffffffffffff16600073ffffffffffffffffffffffffffffffffffffffff167fddf252ad1be2c89b69c2b068fc378daa952ba7f163c4a11628f55a4df523b3ef60405160405180910390a46149c06000838360016149ca565b5050565b50505050565b50505050565b60606000808573ffffffffffffffffffffffffffffffffffffffff16856040516149fa919061586b565b600060405180830381855af49150503d8060008114614a35576040519150601f19603f3d011682016040523d82523d6000602084013e614a3a565b606091505b5091509150614a4b86838387614a56565b925050509392505050565b60608315614ab957600083511415614ab157614a7185613ab2565b614ab0576040517f08c379a0000000000000000000000000000000000000000000000000000000008152600401614aa790615c8c565b60405180910390fd5b5b829050614ac4565b614ac38383614acc565b5b949350505050565b600082511115614adf5781518083602001fd5b806040517f08c379a0000000000000000000000000000000000000000000000000000000008152600401614b1391906159ce565b60405180910390fd5b828054614b289061601e565b90600052602060002090601f016020900481019282614b4a5760008555614b91565b82601f10614b6357803560ff1916838001178555614b91565b82800160010185558215614b91579182015b82811115614b90578235825591602001919060010190614b75565b5b509050614b9e9190614c5d565b5090565b6040518060a001604052806000815260200160608152602001600060ff168152602001600060ff168152602001600081525090565b828054614be39061601e565b90600052602060002090601f016020900481019282614c055760008555614c4c565b82601f10614c1e57805160ff1916838001178555614c4c565b82800160010185558215614c4c579182015b82811115614c4b578251825591602001919060010190614c30565b5b509050614c599190614c5d565b5090565b5b80821115614c76576000816000905550600101614c5e565b5090565b6000614c8d614c8884615dc3565b615d9e565b905082815260208101848484011115614ca557600080fd5b614cb0848285615fb2565b509392505050565b600081359050614cc7816167a9565b92915050565b600081359050614cdc816167c0565b92915050565b600081359050614cf1816167d7565b92915050565b600081519050614d06816167d7565b92915050565b600081359050614d1b816167ee565b92915050565b600081519050614d30816167ee565b92915050565b600082601f830112614d4757600080fd5b8135614d57848260208601614c7a565b91505092915050565b60008083601f840112614d7257600080fd5b8235905067ffffffffffffffff811115614d8b57600080fd5b602083019150836001820283011115614da357600080fd5b9250929050565b600081359050614db981616805565b92915050565b600081359050614dce8161681c565b92915050565b600060208284031215614de657600080fd5b6000614df484828501614cb8565b91505092915050565b60008060408385031215614e1057600080fd5b6000614e1e85828601614cb8565b9250506020614e2f85828601614cb8565b9150509250929050565b600080600060608486031215614e4e57600080fd5b6000614e5c86828701614cb8565b9350506020614e6d86828701614cb8565b9250506040614e7e86828701614cb8565b9150509250925092565b600080600060608486031215614e9d57600080fd5b6000614eab86828701614cb8565b9350506020614ebc86828701614cb8565b9250506040614ecd86828701614daa565b9150509250925092565b60008060008060808587031215614eed57600080fd5b6000614efb87828801614cb8565b9450506020614f0c87828801614cb8565b9350506040614f1d87828801614daa565b925050606085013567ffffffffffffffff811115614f3a57600080fd5b614f4687828801614d36565b91505092959194509250565b60008060408385031215614f6557600080fd5b6000614f7385828601614cb8565b9250506020614f8485828601614ccd565b9150509250929050565b60008060408385031215614fa157600080fd5b6000614faf85828601614cb8565b925050602083013567ffffffffffffffff811115614fcc57600080fd5b614fd885828601614d36565b9150509250929050565b600080600060408486031215614ff757600080fd5b600061500586828701614cb8565b935050602084013567ffffffffffffffff81111561502257600080fd5b61502e86828701614d60565b92509250509250925092565b60008060008060008060008060c0898b03121561505657600080fd5b60006150648b828c01614cb8565b985050602089013567ffffffffffffffff81111561508157600080fd5b61508d8b828c01614d60565b975097505060406150a08b828c01614dbf565b95505060606150b18b828c01614dbf565b94505060806150c28b828c01614daa565b93505060a089013567ffffffffffffffff8111156150df57600080fd5b6150eb8b828c01614d60565b92509250509295985092959890939650565b6000806040838503121561511057600080fd5b600061511e85828601614cb8565b925050602061512f85828601614daa565b9150509250929050565b6000806000806060858703121561514f57600080fd5b600061515d87828801614cb8565b945050602061516e87828801614daa565b935050604085013567ffffffffffffffff81111561518b57600080fd5b61519787828801614d60565b925092505092959194509250565b6000602082840312156151b757600080fd5b60006151c584828501614ce2565b91505092915050565b6000602082840312156151e057600080fd5b60006151ee84828501614cf7565b91505092915050565b6000806040838503121561520a57600080fd5b600061521885828601614ce2565b925050602061522985828601614cb8565b9150509250929050565b60006020828403121561524557600080fd5b600061525384828501614d0c565b91505092915050565b60006020828403121561526e57600080fd5b600061527c84828501614d21565b91505092915050565b60006020828403121561529757600080fd5b60006152a584828501614daa565b91505092915050565b6152b781615f03565b82525050565b6152c681615f15565b82525050565b6152d581615f21565b82525050565b60006152e682615df4565b6152f08185615e0a565b9350615300818560208601615fc1565b6153098161610e565b840191505092915050565b600061531f82615df4565b6153298185615e1b565b9350615339818560208601615fc1565b80840191505092915050565b61534e81615f8e565b82525050565b61535d81615fa0565b82525050565b600061536f8385615e48565b935061537c838584615fb2565b82840190509392505050565b600061539382615dff565b61539d8185615e26565b93506153ad818560208601615fc1565b6153b68161610e565b840191505092915050565b60006153cc82615dff565b6153d68185615e37565b93506153e6818560208601615fc1565b6153ef8161610e565b840191505092915050565b600061540582615dff565b61540f8185615e48565b935061541f818560208601615fc1565b80840191505092915050565b6000615438602083615e37565b91506154438261611f565b602082019050919050565b600061545b600683615e37565b915061546682616148565b602082019050919050565b600061547e602d83615e37565b915061548982616171565b604082019050919050565b60006154a1603283615e37565b91506154ac826161c0565b604082019050919050565b60006154c4602583615e37565b91506154cf8261620f565b604082019050919050565b60006154e7601c83615e37565b91506154f28261625e565b602082019050919050565b600061550a602c83615e37565b915061551582616287565b604082019050919050565b600061552d602483615e37565b9150615538826162d6565b604082019050919050565b6000615550601983615e37565b915061555b82616325565b602082019050919050565b6000615573602c83615e37565b915061557e8261634e565b604082019050919050565b6000615596603883615e37565b91506155a18261639d565b604082019050919050565b60006155b9602983615e37565b91506155c4826163ec565b604082019050919050565b60006155dc602983615e37565b91506155e78261643b565b604082019050919050565b60006155ff602e83615e37565b915061560a8261648a565b604082019050919050565b6000615622602083615e37565b915061562d826164d9565b602082019050919050565b6000615645602e83615e37565b915061565082616502565b604082019050919050565b6000615668602d83615e37565b915061567382616551565b604082019050919050565b600061568b601883615e37565b9150615696826165a0565b602082019050919050565b60006156ae602183615e37565b91506156b9826165c9565b604082019050919050565b60006156d1603d83615e37565b91506156dc82616618565b604082019050919050565b60006156f4600683615e37565b91506156ff82616667565b602082019050919050565b6000615717601d83615e37565b915061572282616690565b602082019050919050565b600061573a602b83615e37565b9150615745826166b9565b604082019050919050565b600061575d601783615e48565b915061576882616708565b601782019050919050565b6000615780601183615e48565b915061578b82616731565b601182019050919050565b60006157a3602f83615e37565b91506157ae8261675a565b604082019050919050565b600060a0830160008301516157d1600086018261582f565b50602083015184820360208601526157e98282615388565b91505060408301516157fe604086018261584d565b506060830151615811606086018261584d565b506080830151615824608086018261582f565b508091505092915050565b61583881615f77565b82525050565b61584781615f77565b82525050565b61585681615f81565b82525050565b61586581615f81565b82525050565b60006158778284615314565b915081905092915050565b600061588f828486615363565b91508190509392505050565b60006158a682615750565b91506158b282856153fa565b91506158bd82615773565b91506158c982846153fa565b91508190509392505050565b60006020820190506158ea60008301846152ae565b92915050565b600060808201905061590560008301876152ae565b61591260208301866152ae565b61591f604083018561583e565b818103606083015261593181846152db565b905095945050505050565b600060608201905061595160008301846152ae565b8181036020830152615962816156e7565b905081810360408301526159758161544e565b905092915050565b600060208201905061599260008301846152bd565b92915050565b60006020820190506159ad60008301846152cc565b92915050565b60006020820190506159c86000830184615354565b92915050565b600060208201905081810360008301526159e881846153c1565b905092915050565b60006020820190508181036000830152615a098161542b565b9050919050565b60006020820190508181036000830152615a2981615471565b9050919050565b60006020820190508181036000830152615a4981615494565b9050919050565b60006020820190508181036000830152615a69816154b7565b9050919050565b60006020820190508181036000830152615a89816154da565b9050919050565b60006020820190508181036000830152615aa9816154fd565b9050919050565b60006020820190508181036000830152615ac981615520565b9050919050565b60006020820190508181036000830152615ae981615543565b9050919050565b60006020820190508181036000830152615b0981615566565b9050919050565b60006020820190508181036000830152615b2981615589565b9050919050565b60006020820190508181036000830152615b49816155ac565b9050919050565b60006020820190508181036000830152615b69816155cf565b9050919050565b60006020820190508181036000830152615b89816155f2565b9050919050565b60006020820190508181036000830152615ba981615615565b9050919050565b60006020820190508181036000830152615bc981615638565b9050919050565b60006020820190508181036000830152615be98161565b565b9050919050565b60006020820190508181036000830152615c098161567e565b9050919050565b60006020820190508181036000830152615c29816156a1565b9050919050565b60006020820190508181036000830152615c49816156c4565b9050919050565b60006060820190508181036000830152615c69816156e7565b9050615c7860208301856152ae565b615c856040830184615345565b9392505050565b60006020820190508181036000830152615ca58161570a565b9050919050565b60006020820190508181036000830152615cc58161572d565b9050919050565b60006020820190508181036000830152615ce581615796565b9050919050565b60006020820190508181036000830152615d0681846157b9565b905092915050565b6000602082019050615d23600083018461583e565b92915050565b600060a082019050615d3e600083018861583e565b8181036020830152615d5081876153c1565b9050615d5f604083018661585c565b615d6c606083018561585c565b615d79608083018461583e565b9695505050505050565b6000602082019050615d98600083018461585c565b92915050565b6000615da8615db9565b9050615db48282616050565b919050565b6000604051905090565b600067ffffffffffffffff821115615dde57615ddd6160df565b5b615de78261610e565b9050602081019050919050565b600081519050919050565b600081519050919050565b600082825260208201905092915050565b600081905092915050565b600082825260208201905092915050565b600082825260208201905092915050565b600081905092915050565b6000615e5e82615f77565b9150615e6983615f77565b9250827fffffffffffffffffffffffffffffffffffffffffffffffffffffffffffffffff03821115615e9e57615e9d616081565b5b828201905092915050565b6000615eb482615f77565b9150615ebf83615f77565b9250817fffffffffffffffffffffffffffffffffffffffffffffffffffffffffffffffff0483118215151615615ef857615ef7616081565b5b828202905092915050565b6000615f0e82615f57565b9050919050565b60008115159050919050565b6000819050919050565b60007fffffffff0000000000000000000000000000000000000000000000000000000082169050919050565b600073ffffffffffffffffffffffffffffffffffffffff82169050919050565b6000819050919050565b600060ff82169050919050565b6000615f9982615f77565b9050919050565b6000615fab82615f81565b9050919050565b82818337600083830152505050565b60005b83811015615fdf578082015181840152602081019050615fc4565b83811115615fee576000848401525b50505050565b6000615fff82615f77565b9150600082141561601357616012616081565b5b600182039050919050565b6000600282049050600182168061603657607f821691505b6020821081141561604a576160496160b0565b5b50919050565b6160598261610e565b810181811067ffffffffffffffff82111715616078576160776160df565b5b80604052505050565b7f4e487b7100000000000000000000000000000000000000000000000000000000600052601160045260246000fd5b7f4e487b7100000000000000000000000000000000000000000000000000000000600052602260045260246000fd5b7f4e487b7100000000000000000000000000000000000000000000000000000000600052604160045260246000fd5b6000601f19601f8301169050919050565b7f537472696e67733a20686578206c656e67746820696e73756666696369656e74600082015250565b7f565443414c4c0000000000000000000000000000000000000000000000000000600082015250565b7f4552433732313a2063616c6c6572206973206e6f7420746f6b656e206f776e6560008201527f72206f7220617070726f76656400000000000000000000000000000000000000602082015250565b7f4552433732313a207472616e7366657220746f206e6f6e20455243373231526560008201527f63656976657220696d706c656d656e7465720000000000000000000000000000602082015250565b7f4552433732313a207472616e736665722066726f6d20696e636f72726563742060008201527f6f776e6572000000000000000000000000000000000000000000000000000000602082015250565b7f4552433732313a20746f6b656e20616c7265616479206d696e74656400000000600082015250565b7f46756e6374696f6e206d7573742062652063616c6c6564207468726f7567682060008201527f64656c656761746563616c6c0000000000000000000000000000000000000000602082015250565b7f4552433732313a207472616e7366657220746f20746865207a65726f2061646460008201527f7265737300000000000000000000000000000000000000000000000000000000602082015250565b7f4552433732313a20617070726f766520746f2063616c6c657200000000000000600082015250565b7f46756e6374696f6e206d7573742062652063616c6c6564207468726f7567682060008201527f6163746976652070726f78790000000000000000000000000000000000000000602082015250565b7f555550535570677261646561626c653a206d757374206e6f742062652063616c60008201527f6c6564207468726f7567682064656c656761746563616c6c0000000000000000602082015250565b7f4552433732313a2061646472657373207a65726f206973206e6f74206120766160008201527f6c6964206f776e65720000000000000000000000000000000000000000000000602082015250565b7f45524331393637557067726164653a20756e737570706f727465642070726f7860008201527f6961626c65555549440000000000000000000000000000000000000000000000602082015250565b7f496e697469616c697a61626c653a20636f6e747261637420697320616c72656160008201527f647920696e697469616c697a6564000000000000000000000000000000000000602082015250565b7f4552433732313a206d696e7420746f20746865207a65726f2061646472657373600082015250565b7f45524331393637557067726164653a206e657720696d706c656d656e7461746960008201527f6f6e206973206e6f742055555053000000000000000000000000000000000000602082015250565b7f455243313936373a206e657720696d706c656d656e746174696f6e206973206e60008201527f6f74206120636f6e747261637400000000000000000000000000000000000000602082015250565b7f4552433732313a20696e76616c696420746f6b656e2049440000000000000000600082015250565b7f4552433732313a20617070726f76616c20746f2063757272656e74206f776e6560008201527f7200000000000000000000000000000000000000000000000000000000000000602082015250565b7f4552433732313a20617070726f76652063616c6c6572206973206e6f7420746f60008201527f6b656e206f776e6572206f7220617070726f76656420666f7220616c6c000000602082015250565b7f484156454e310000000000000000000000000000000000000000000000000000600082015250565b7f416464726573733a2063616c6c20746f206e6f6e2d636f6e7472616374000000600082015250565b7f496e697469616c697a61626c653a20636f6e7472616374206973206e6f74206960008201527f6e697469616c697a696e67000000000000000000000000000000000000000000602082015250565b7f416363657373436f6e74726f6c3a206163636f756e7420000000000000000000600082015250565b7f206973206d697373696e6720726f6c6520000000000000000000000000000000600082015250565b7f416363657373436f6e74726f6c3a2063616e206f6e6c792072656e6f756e636560008201527f20726f6c657320666f722073656c660000000000000000000000000000000000602082015250565b6167b281615f03565b81146167bd57600080fd5b50565b6167c981615f15565b81146167d457600080fd5b50565b6167e081615f21565b81146167eb57600080fd5b50565b6167f781615f2b565b811461680257600080fd5b50565b61680e81615f77565b811461681957600080fd5b50565b61682581615f81565b811461683057600080fd5b5056fe416464726573733a206c6f772d6c6576656c2064656c65676174652063616c6c206661696c6564a2646970667358221220a2bd658a0850e996fc31bdcedee0d2e3e713512d6acc6ee6e54af8bbd78b9cef64736f6c63430008020033",
  "linkReferences": {},
  "deployedLinkReferences": {}
}