{
  "_format": "hh-sol-artifact-1",
  "contractName": "ProofOfIdentity",
  "sourceName": "contracts/ProofOfIdentity.sol",
  "abi": [
    {
      "anonymous": false,
      "inputs": [
        {
          "indexed": true,
          "internalType": "address",
          "name": "account",
          "type": "address"
        },
        {
          "indexed": true,
          "internalType": "uint256",
          "name": "tokenId",
          "type": "uint256"
        },
        {
          "indexed": true,
          "internalType": "string",
          "name": "reason",
          "type": "string"
        }
      ],
      "name": "AccountSuspendedTokenBurned",
      "type": "event"
    },
    {
      "anonymous": false,
      "inputs": [
        {
          "indexed": true,
          "internalType": "address",
          "name": "account",
          "type": "address"
        },
        {
          "indexed": true,
          "internalType": "string",
          "name": "reason",
          "type": "string"
        }
      ],
      "name": "AccountSuspendedTokenMaintained",
      "type": "event"
    },
    {
      "anonymous": false,
      "inputs": [
        {
          "indexed": false,
          "internalType": "address",
          "name": "previousAdmin",
          "type": "address"
        },
        {
          "indexed": false,
          "internalType": "address",
          "name": "newAdmin",
          "type": "address"
        }
      ],
      "name": "AdminChanged",
      "type": "event"
    },
    {
      "anonymous": false,
      "inputs": [
        {
          "indexed": true,
          "internalType": "address",
          "name": "owner",
          "type": "address"
        },
        {
          "indexed": true,
          "internalType": "address",
          "name": "approved",
          "type": "address"
        },
        {
          "indexed": true,
          "internalType": "uint256",
          "name": "tokenId",
          "type": "uint256"
        }
      ],
      "name": "Approval",
      "type": "event"
    },
    {
      "anonymous": false,
      "inputs": [
        {
          "indexed": true,
          "internalType": "address",
          "name": "owner",
          "type": "address"
        },
        {
          "indexed": true,
          "internalType": "address",
          "name": "operator",
          "type": "address"
        },
        {
          "indexed": false,
          "internalType": "bool",
          "name": "approved",
          "type": "bool"
        }
      ],
      "name": "ApprovalForAll",
      "type": "event"
    },
    {
      "anonymous": false,
      "inputs": [
        {
          "indexed": true,
          "internalType": "address",
          "name": "beacon",
          "type": "address"
        }
      ],
      "name": "BeaconUpgraded",
      "type": "event"
    },
    {
      "anonymous": false,
      "inputs": [
        {
          "indexed": true,
          "internalType": "address",
          "name": "account",
          "type": "address"
        },
        {
          "indexed": true,
          "internalType": "uint256",
          "name": "tokenId",
          "type": "uint256"
        }
      ],
      "name": "IdentityMinted",
      "type": "event"
    },
    {
      "anonymous": false,
      "inputs": [
        {
          "indexed": true,
          "internalType": "address",
          "name": "account",
          "type": "address"
        },
        {
          "indexed": true,
          "internalType": "uint256",
          "name": "tokenId",
          "type": "uint256"
        }
      ],
      "name": "IdentityUpdated",
      "type": "event"
    },
    {
      "anonymous": false,
      "inputs": [
        {
          "indexed": false,
          "internalType": "uint8",
          "name": "version",
          "type": "uint8"
        }
      ],
      "name": "Initialized",
      "type": "event"
    },
    {
      "anonymous": false,
      "inputs": [
        {
          "indexed": true,
          "internalType": "bytes32",
          "name": "role",
          "type": "bytes32"
        },
        {
          "indexed": true,
          "internalType": "bytes32",
          "name": "previousAdminRole",
          "type": "bytes32"
        },
        {
          "indexed": true,
          "internalType": "bytes32",
          "name": "newAdminRole",
          "type": "bytes32"
        }
      ],
      "name": "RoleAdminChanged",
      "type": "event"
    },
    {
      "anonymous": false,
      "inputs": [
        {
          "indexed": true,
          "internalType": "bytes32",
          "name": "role",
          "type": "bytes32"
        },
        {
          "indexed": true,
          "internalType": "address",
          "name": "account",
          "type": "address"
        },
        {
          "indexed": true,
          "internalType": "address",
          "name": "sender",
          "type": "address"
        }
      ],
      "name": "RoleGranted",
      "type": "event"
    },
    {
      "anonymous": false,
      "inputs": [
        {
          "indexed": true,
          "internalType": "bytes32",
          "name": "role",
          "type": "bytes32"
        },
        {
          "indexed": true,
          "internalType": "address",
          "name": "account",
          "type": "address"
        },
        {
          "indexed": true,
          "internalType": "address",
          "name": "sender",
          "type": "address"
        }
      ],
      "name": "RoleRevoked",
      "type": "event"
    },
    {
      "anonymous": false,
      "inputs": [
        {
          "indexed": true,
          "internalType": "address",
          "name": "account",
          "type": "address"
        },
        {
          "indexed": true,
          "internalType": "uint256",
          "name": "tokenId",
          "type": "uint256"
        },
        {
          "indexed": true,
          "internalType": "string",
          "name": "newURI",
          "type": "string"
        }
      ],
      "name": "TokenURIUpdated",
      "type": "event"
    },
    {
      "anonymous": false,
      "inputs": [
        {
          "indexed": true,
          "internalType": "address",
          "name": "from",
          "type": "address"
        },
        {
          "indexed": true,
          "internalType": "address",
          "name": "to",
          "type": "address"
        },
        {
          "indexed": true,
          "internalType": "uint256",
          "name": "tokenId",
          "type": "uint256"
        }
      ],
      "name": "Transfer",
      "type": "event"
    },
    {
      "anonymous": false,
      "inputs": [
        {
          "indexed": true,
          "internalType": "address",
          "name": "implementation",
          "type": "address"
        }
      ],
      "name": "Upgraded",
      "type": "event"
    },
    {
      "inputs": [],
      "name": "DEFAULT_ADMIN_ROLE",
      "outputs": [
        {
          "internalType": "bytes32",
          "name": "",
          "type": "bytes32"
        }
      ],
      "stateMutability": "view",
      "type": "function"
    },
    {
      "inputs": [],
      "name": "PROVER_ROLE",
      "outputs": [
        {
          "internalType": "bytes32",
          "name": "",
          "type": "bytes32"
        }
      ],
      "stateMutability": "view",
      "type": "function"
    },
    {
      "inputs": [],
      "name": "UPGRADER_ROLE",
      "outputs": [
        {
          "internalType": "bytes32",
          "name": "",
          "type": "bytes32"
        }
      ],
      "stateMutability": "view",
      "type": "function"
    },
    {
      "inputs": [
        {
          "internalType": "address",
          "name": "to",
          "type": "address"
        },
        {
          "internalType": "uint256",
          "name": "tokenId",
          "type": "uint256"
        }
      ],
      "name": "approve",
      "outputs": [],
      "stateMutability": "nonpayable",
      "type": "function"
    },
    {
      "inputs": [
        {
          "internalType": "address",
          "name": "owner",
          "type": "address"
        }
      ],
      "name": "balanceOf",
      "outputs": [
        {
          "internalType": "uint256",
          "name": "",
          "type": "uint256"
        }
      ],
      "stateMutability": "view",
      "type": "function"
    },
    {
      "inputs": [
        {
          "internalType": "uint256",
          "name": "tokenId",
          "type": "uint256"
        }
      ],
      "name": "getApproved",
      "outputs": [
        {
          "internalType": "address",
          "name": "",
          "type": "address"
        }
      ],
      "stateMutability": "view",
      "type": "function"
    },
    {
      "inputs": [],
      "name": "getCurrentTokenId",
      "outputs": [
        {
          "internalType": "uint256",
          "name": "",
          "type": "uint256"
        }
      ],
      "stateMutability": "view",
      "type": "function"
    },
    {
      "inputs": [
        {
          "internalType": "bytes32",
          "name": "role",
          "type": "bytes32"
        }
      ],
      "name": "getRoleAdmin",
      "outputs": [
        {
          "internalType": "bytes32",
          "name": "",
          "type": "bytes32"
        }
      ],
      "stateMutability": "view",
      "type": "function"
    },
    {
      "inputs": [
        {
          "internalType": "address",
          "name": "account",
          "type": "address"
        }
      ],
      "name": "getUserAccountCountryCode",
      "outputs": [
        {
          "internalType": "string",
          "name": "userAccountCountryCode",
          "type": "string"
        }
      ],
      "stateMutability": "view",
      "type": "function"
    },
    {
      "inputs": [
        {
          "internalType": "address",
          "name": "account",
          "type": "address"
        }
      ],
      "name": "getUserAccountCountryCodePreventOnExpiry",
      "outputs": [
        {
          "internalType": "string",
          "name": "userAccountCountryCode",
          "type": "string"
        }
      ],
      "stateMutability": "view",
      "type": "function"
    },
    {
      "inputs": [
        {
          "internalType": "address",
          "name": "account",
          "type": "address"
        }
      ],
      "name": "getUserAccountExpiry",
      "outputs": [
        {
          "internalType": "uint256",
          "name": "userAccountExpiry",
          "type": "uint256"
        }
      ],
      "stateMutability": "view",
      "type": "function"
    },
    {
      "inputs": [
        {
          "internalType": "address",
          "name": "account",
          "type": "address"
        }
      ],
      "name": "getUserAccountIdentityBlob",
      "outputs": [
        {
          "components": [
            {
              "internalType": "uint256",
              "name": "tokenId",
              "type": "uint256"
            },
            {
              "internalType": "string",
              "name": "countryCode",
              "type": "string"
            },
            {
              "internalType": "uint8",
              "name": "userType",
              "type": "uint8"
            },
            {
              "internalType": "uint8",
              "name": "level",
              "type": "uint8"
            },
            {
              "internalType": "uint256",
              "name": "expiry",
              "type": "uint256"
            }
          ],
          "internalType": "struct RoleVerification.IdentityBlob",
          "name": "userIdentityBlob",
          "type": "tuple"
        }
      ],
      "stateMutability": "view",
      "type": "function"
    },
    {
      "inputs": [
        {
          "internalType": "address",
          "name": "account",
          "type": "address"
        }
      ],
      "name": "getUserAccountLevel",
      "outputs": [
        {
          "internalType": "uint8",
          "name": "userAccountLevel",
          "type": "uint8"
        }
      ],
      "stateMutability": "view",
      "type": "function"
    },
    {
      "inputs": [
        {
          "internalType": "address",
          "name": "account",
          "type": "address"
        }
      ],
      "name": "getUserAccountLevelPreventOnExpiry",
      "outputs": [
        {
          "internalType": "uint8",
          "name": "",
          "type": "uint8"
        }
      ],
      "stateMutability": "view",
      "type": "function"
    },
    {
      "inputs": [
        {
          "internalType": "address",
          "name": "account",
          "type": "address"
        }
      ],
      "name": "getUserAccountType",
      "outputs": [
        {
          "internalType": "uint8",
          "name": "userAccountType",
          "type": "uint8"
        }
      ],
      "stateMutability": "view",
      "type": "function"
    },
    {
      "inputs": [
        {
          "internalType": "address",
          "name": "account",
          "type": "address"
        }
      ],
      "name": "getUserAccountTypePreventOnExpiry",
      "outputs": [
        {
          "internalType": "uint8",
          "name": "",
          "type": "uint8"
        }
      ],
      "stateMutability": "view",
      "type": "function"
    },
    {
      "inputs": [
        {
          "internalType": "bytes32",
          "name": "role",
          "type": "bytes32"
        },
        {
          "internalType": "address",
          "name": "account",
          "type": "address"
        }
      ],
      "name": "grantRole",
      "outputs": [],
      "stateMutability": "nonpayable",
      "type": "function"
    },
    {
      "inputs": [
        {
          "internalType": "bytes32",
          "name": "role",
          "type": "bytes32"
        },
        {
          "internalType": "address",
          "name": "account",
          "type": "address"
        }
      ],
      "name": "hasRole",
      "outputs": [
        {
          "internalType": "bool",
          "name": "",
          "type": "bool"
        }
      ],
      "stateMutability": "view",
      "type": "function"
    },
    {
      "inputs": [
        {
          "internalType": "address",
          "name": "",
          "type": "address"
        }
      ],
      "name": "identityBlob",
      "outputs": [
        {
          "internalType": "uint256",
          "name": "tokenId",
          "type": "uint256"
        },
        {
          "internalType": "string",
          "name": "countryCode",
          "type": "string"
        },
        {
          "internalType": "uint8",
          "name": "userType",
          "type": "uint8"
        },
        {
          "internalType": "uint8",
          "name": "level",
          "type": "uint8"
        },
        {
          "internalType": "uint256",
          "name": "expiry",
          "type": "uint256"
        }
      ],
      "stateMutability": "view",
      "type": "function"
    },
    {
      "inputs": [
        {
          "internalType": "address",
          "name": "permissionsInterface",
          "type": "address"
        },
        {
          "internalType": "address",
          "name": "admin",
          "type": "address"
        },
        {
          "internalType": "address",
          "name": "prover",
          "type": "address"
        },
        {
          "internalType": "address",
          "name": "upgrader",
          "type": "address"
        }
      ],
      "name": "initialize",
      "outputs": [],
      "stateMutability": "nonpayable",
      "type": "function"
    },
    {
      "inputs": [
        {
          "internalType": "address",
          "name": "owner",
          "type": "address"
        },
        {
          "internalType": "address",
          "name": "operator",
          "type": "address"
        }
      ],
      "name": "isApprovedForAll",
      "outputs": [
        {
          "internalType": "bool",
          "name": "",
          "type": "bool"
        }
      ],
      "stateMutability": "view",
      "type": "function"
    },
    {
      "inputs": [
        {
          "internalType": "address",
          "name": "account",
          "type": "address"
        },
        {
          "internalType": "string",
          "name": "countryCode",
          "type": "string"
        },
        {
          "internalType": "uint8",
          "name": "userType",
          "type": "uint8"
        },
        {
          "internalType": "uint8",
          "name": "level",
          "type": "uint8"
        },
        {
          "internalType": "uint256",
          "name": "expiry",
          "type": "uint256"
        },
        {
          "internalType": "string",
          "name": "tokenUri",
          "type": "string"
        }
      ],
      "name": "mintIdentity",
      "outputs": [],
      "stateMutability": "nonpayable",
      "type": "function"
    },
    {
      "inputs": [],
      "name": "name",
      "outputs": [
        {
          "internalType": "string",
          "name": "",
          "type": "string"
        }
      ],
      "stateMutability": "view",
      "type": "function"
    },
    {
      "inputs": [
        {
          "internalType": "uint256",
          "name": "tokenId",
          "type": "uint256"
        }
      ],
      "name": "ownerOf",
      "outputs": [
        {
          "internalType": "address",
          "name": "",
          "type": "address"
        }
      ],
      "stateMutability": "view",
      "type": "function"
    },
    {
      "inputs": [],
      "name": "proxiableUUID",
      "outputs": [
        {
          "internalType": "bytes32",
          "name": "",
          "type": "bytes32"
        }
      ],
      "stateMutability": "view",
      "type": "function"
    },
    {
      "inputs": [
        {
          "internalType": "bytes32",
          "name": "role",
          "type": "bytes32"
        },
        {
          "internalType": "address",
          "name": "account",
          "type": "address"
        }
      ],
      "name": "renounceRole",
      "outputs": [],
      "stateMutability": "nonpayable",
      "type": "function"
    },
    {
      "inputs": [
        {
          "internalType": "bytes32",
          "name": "role",
          "type": "bytes32"
        },
        {
          "internalType": "address",
          "name": "account",
          "type": "address"
        }
      ],
      "name": "revokeRole",
      "outputs": [],
      "stateMutability": "nonpayable",
      "type": "function"
    },
    {
      "inputs": [
        {
          "internalType": "address",
          "name": "from",
          "type": "address"
        },
        {
          "internalType": "address",
          "name": "to",
          "type": "address"
        },
        {
          "internalType": "uint256",
          "name": "tokenId",
          "type": "uint256"
        }
      ],
      "name": "safeTransferFrom",
      "outputs": [],
      "stateMutability": "nonpayable",
      "type": "function"
    },
    {
      "inputs": [
        {
          "internalType": "address",
          "name": "from",
          "type": "address"
        },
        {
          "internalType": "address",
          "name": "to",
          "type": "address"
        },
        {
          "internalType": "uint256",
          "name": "tokenId",
          "type": "uint256"
        },
        {
          "internalType": "bytes",
          "name": "data",
          "type": "bytes"
        }
      ],
      "name": "safeTransferFrom",
      "outputs": [],
      "stateMutability": "nonpayable",
      "type": "function"
    },
    {
      "inputs": [
        {
          "internalType": "address",
          "name": "operator",
          "type": "address"
        },
        {
          "internalType": "bool",
          "name": "approved",
          "type": "bool"
        }
      ],
      "name": "setApprovalForAll",
      "outputs": [],
      "stateMutability": "nonpayable",
      "type": "function"
    },
    {
      "inputs": [
        {
          "internalType": "bytes4",
          "name": "interfaceId",
          "type": "bytes4"
        }
      ],
      "name": "supportsInterface",
      "outputs": [
        {
          "internalType": "bool",
          "name": "",
          "type": "bool"
        }
      ],
      "stateMutability": "view",
      "type": "function"
    },
    {
      "inputs": [
        {
          "internalType": "address",
          "name": "suspendAccount",
          "type": "address"
        },
        {
          "internalType": "string",
          "name": "reason",
          "type": "string"
        }
      ],
      "name": "suspendAccountDeleteTokenAndIdentityBlob",
      "outputs": [],
      "stateMutability": "nonpayable",
      "type": "function"
    },
    {
      "inputs": [
        {
          "internalType": "address",
          "name": "suspendAddress",
          "type": "address"
        },
        {
          "internalType": "string",
          "name": "reason",
          "type": "string"
        }
      ],
      "name": "suspendAccountMaintainTokenAndIdentityBlob",
      "outputs": [],
      "stateMutability": "nonpayable",
      "type": "function"
    },
    {
      "inputs": [],
      "name": "symbol",
      "outputs": [
        {
          "internalType": "string",
          "name": "",
          "type": "string"
        }
      ],
      "stateMutability": "view",
      "type": "function"
    },
    {
      "inputs": [
        {
          "internalType": "uint256",
          "name": "tokenId",
          "type": "uint256"
        }
      ],
      "name": "tokenURI",
      "outputs": [
        {
          "internalType": "string",
          "name": "",
          "type": "string"
        }
      ],
      "stateMutability": "view",
      "type": "function"
    },
    {
      "inputs": [
        {
          "internalType": "address",
          "name": "from",
          "type": "address"
        },
        {
          "internalType": "address",
          "name": "to",
          "type": "address"
        },
        {
          "internalType": "uint256",
          "name": "tokenId",
          "type": "uint256"
        }
      ],
      "name": "transferFrom",
      "outputs": [],
      "stateMutability": "nonpayable",
      "type": "function"
    },
    {
      "inputs": [
        {
          "internalType": "address",
          "name": "account",
          "type": "address"
        },
        {
          "internalType": "string",
          "name": "countryCode",
          "type": "string"
        },
        {
          "internalType": "uint8",
          "name": "userType",
          "type": "uint8"
        },
        {
          "internalType": "uint8",
          "name": "level",
          "type": "uint8"
        },
        {
          "internalType": "uint256",
          "name": "expiry",
          "type": "uint256"
        }
      ],
      "name": "updateIdentity",
      "outputs": [],
      "stateMutability": "nonpayable",
      "type": "function"
    },
    {
      "inputs": [
        {
          "internalType": "address",
          "name": "account",
          "type": "address"
        },
        {
          "internalType": "string",
          "name": "tokenUri",
          "type": "string"
        }
      ],
      "name": "updateTokenURI",
      "outputs": [],
      "stateMutability": "nonpayable",
      "type": "function"
    },
    {
      "inputs": [
        {
          "internalType": "address",
          "name": "newImplementation",
          "type": "address"
        }
      ],
      "name": "upgradeTo",
      "outputs": [],
      "stateMutability": "nonpayable",
      "type": "function"
    },
    {
      "inputs": [
        {
          "internalType": "address",
          "name": "newImplementation",
          "type": "address"
        },
        {
          "internalType": "bytes",
          "name": "data",
          "type": "bytes"
        }
      ],
      "name": "upgradeToAndCall",
      "outputs": [],
      "stateMutability": "payable",
      "type": "function"
    }
  ],
  "bytecode": "0x60a06040523073ffffffffffffffffffffffffffffffffffffffff1660809073ffffffffffffffffffffffffffffffffffffffff1660601b81525034801561004657600080fd5b5060805160601c61707a62000082600039600081816110800152818161110f015281816115c2015281816116510152611701015261707a6000f3fe6080604052600436106102bb5760003560e01c806380a5a8961161016e578063c87b56dd116100cb578063e86573e41161007f578063f6a4b4d711610064578063f6a4b4d714610a04578063f72c0d8b14610a2d578063f8c8765e14610a58576102bb565b8063e86573e41461099e578063e985e9c5146109c7576102bb565b8063d547741f116100b0578063d547741f1461090d578063dc9a4ef614610936578063dfb24b8914610961576102bb565b8063c87b56dd146108a7578063d4ec9096146108e4576102bb565b8063a217fddf11610122578063b467177f11610107578063b467177f14610804578063b88d4fde14610841578063c207e9e01461086a576102bb565b8063a217fddf146107b0578063a22cb465146107db576102bb565b8063949cdd6e11610153578063949cdd6e1461070b57806395d89b411461074857806396257e4d14610773576102bb565b806380a5a896146106a557806391d14854146106ce576102bb565b80633659cfe61161021c57806356189236116101d0578063688ea9fe116101b5578063688ea9fe146105ea5780636ca5fde81461062b57806370a0823114610668576102bb565b806356189236146105825780636352211e146105ad576102bb565b806342842e0e1161020157806342842e0e146105125780634f1ef2861461053b57806352d1902d14610557576102bb565b80633659cfe6146104c05780633bc2c078146104e9576102bb565b80631fe0094a11610273578063248a9ca311610258578063248a9ca3146104315780632f2ff15d1461046e57806336568abe14610497576102bb565b80631fe0094a146103cb57806323b872dd14610408576102bb565b8063081812fc116102a4578063081812fc1461032857806309299ea314610365578063095ea7b3146103a2576102bb565b806301ffc9a7146102c057806306fdde03146102fd575b600080fd5b3480156102cc57600080fd5b506102e760048036038101906102e29190615a1d565b610a81565b6040516102f49190616167565b60405180910390f35b34801561030957600080fd5b50610312610acf565b60405161031f91906161b8565b60405180910390f35b34801561033457600080fd5b5061034f600480360381019061034a9190615a6f565b610b61565b60405161035c91906160bf565b60405180910390f35b34801561037157600080fd5b5061038c60048036038101906103879190615584565b610ba7565b60405161039991906164f8565b60405180910390f35b3480156103ae57600080fd5b506103c960048036038101906103c49190615953565b610c2e565b005b3480156103d757600080fd5b506103f260048036038101906103ed9190615584565b610d46565b6040516103ff919061656d565b60405180910390f35b34801561041457600080fd5b5061042f600480360381019061042a919061564c565b610f0c565b005b34801561043d57600080fd5b506104586004803603810190610453919061598f565b610fba565b6040516104659190616182565b60405180910390f35b34801561047a57600080fd5b50610495600480360381019061049091906159e1565b610fda565b005b3480156104a357600080fd5b506104be60048036038101906104b991906159e1565b610ffb565b005b3480156104cc57600080fd5b506104e760048036038101906104e29190615584565b61107e565b005b3480156104f557600080fd5b50610510600480360381019061050b91906157a6565b61122d565b005b34801561051e57600080fd5b506105396004803603810190610534919061564c565b611512565b005b61055560048036038101906105509190615752565b6115c0565b005b34801561056357600080fd5b5061056c6116fd565b6040516105799190616182565b60405180910390f35b34801561058e57600080fd5b506105976117b6565b6040516105a491906164f8565b60405180910390f35b3480156105b957600080fd5b506105d460048036038101906105cf9190615a6f565b611804565b6040516105e191906160bf565b60405180910390f35b3480156105f657600080fd5b50610611600480360381019061060c9190615584565b61188b565b604051610622959493929190616513565b60405180910390f35b34801561063757600080fd5b50610652600480360381019061064d9190615584565b611963565b60405161065f91906164d6565b60405180910390f35b34801561067457600080fd5b5061068f600480360381019061068a9190615584565b611ad7565b60405161069c91906164f8565b60405180910390f35b3480156106b157600080fd5b506106cc60048036038101906106c791906157a6565b611b8f565b005b3480156106da57600080fd5b506106f560048036038101906106f091906159e1565b611d37565b6040516107029190616167565b60405180910390f35b34801561071757600080fd5b50610732600480360381019061072d9190615584565b611da2565b60405161073f919061656d565b60405180910390f35b34801561075457600080fd5b5061075d611f68565b60405161076a91906161b8565b60405180910390f35b34801561077f57600080fd5b5061079a60048036038101906107959190615584565b611ffa565b6040516107a791906161b8565b60405180910390f35b3480156107bc57600080fd5b506107c561223b565b6040516107d29190616182565b60405180910390f35b3480156107e757600080fd5b5061080260048036038101906107fd9190615716565b612242565b005b34801561081057600080fd5b5061082b60048036038101906108269190615584565b612258565b604051610838919061656d565b60405180910390f35b34801561084d57600080fd5b506108686004803603810190610863919061569b565b6122ec565b005b34801561087657600080fd5b50610891600480360381019061088c9190615584565b61234e565b60405161089e919061656d565b60405180910390f35b3480156108b357600080fd5b506108ce60048036038101906108c99190615a6f565b6123e2565b6040516108db91906161b8565b60405180910390f35b3480156108f057600080fd5b5061090b60048036038101906109069190615890565b612595565b005b34801561091957600080fd5b50610934600480360381019061092f91906159e1565b612b2e565b005b34801561094257600080fd5b5061094b612b4f565b6040516109589190616182565b60405180910390f35b34801561096d57600080fd5b5061098860048036038101906109839190615584565b612b73565b60405161099591906161b8565b60405180910390f35b3480156109aa57600080fd5b506109c560048036038101906109c091906157fe565b612c82565b005b3480156109d357600080fd5b506109ee60048036038101906109e991906155ad565b612fd9565b6040516109fb9190616167565b60405180910390f35b348015610a1057600080fd5b50610a2b6004803603810190610a2691906157a6565b61306d565b005b348015610a3957600080fd5b50610a426132d4565b604051610a4f9190616182565b60405180910390f35b348015610a6457600080fd5b50610a7f6004803603810190610a7a91906155e9565b6132f8565b005b6000610a9767bb394ff96495738360c01b61380f565b610aab6751deb66d5108742160c01b61380f565b610abf6740a84345ff486f4060c01b61380f565b610ac882613812565b9050919050565b606060668054610ade90616808565b80601f0160208091040260200160405190810160405280929190818152602001828054610b0a90616808565b8015610b575780601f10610b2c57610100808354040283529160200191610b57565b820191906000526020600020905b815481529060010190602001808311610b3a57829003601f168201915b5050505050905090565b6000610b6c8261388c565b606a600083815260200190815260200160002060009054906101000a900473ffffffffffffffffffffffffffffffffffffffff169050919050565b6000610bbd6719ff33da0d2623bd60c01b6138d7565b610bd16713cffe67b7d3fd8760c01b6138d7565b610be567b4b9502f0d71befc60c01b6138d7565b6000808373ffffffffffffffffffffffffffffffffffffffff1673ffffffffffffffffffffffffffffffffffffffff168152602001908152602001600020600301549050919050565b6000610c3982611804565b90508073ffffffffffffffffffffffffffffffffffffffff168373ffffffffffffffffffffffffffffffffffffffff161415610caa576040517f08c379a0000000000000000000000000000000000000000000000000000000008152600401610ca1906163fa565b60405180910390fd5b8073ffffffffffffffffffffffffffffffffffffffff16610cc96138da565b73ffffffffffffffffffffffffffffffffffffffff161480610cf85750610cf781610cf26138da565b612fd9565b5b610d37576040517f08c379a0000000000000000000000000000000000000000000000000000000008152600401610d2e9061641a565b60405180910390fd5b610d4183836138e2565b505050565b6000610d5c67851ce08bbb5fdc7760c01b61399b565b610d7067bd3675e02c992c1660c01b61399b565b610d84670cde526be14a6db460c01b61399b565b6000808373ffffffffffffffffffffffffffffffffffffffff1673ffffffffffffffffffffffffffffffffffffffff168152602001908152602001600020600301544210610e7a57610de0673c6b79fc465eb4b560c01b61399b565b610df46736d5288223516a5c60c01b61399b565b610e086798ed96ddd8780abe60c01b61399b565b6040518060400160405280600381526020017f31303300000000000000000000000000000000000000000000000000000000008152506040517f08c379a0000000000000000000000000000000000000000000000000000000008152600401610e7191906161b8565b60405180910390fd5b610e8e674ea67b1600bb2b2360c01b61399b565b610ea267d626027f6bcabd3460c01b61399b565b610eb667bcb792c7ec738dce60c01b61399b565b6000808373ffffffffffffffffffffffffffffffffffffffff1673ffffffffffffffffffffffffffffffffffffffff16815260200190815260200160002060020160009054906101000a900460ff169050919050565b610f206762590d6add00706060c01b61380f565b610f3467082d46af2af6d0e960c01b61380f565b610f486727c63058f90a821360c01b61380f565b6040518060400160405280600381526020017f31303200000000000000000000000000000000000000000000000000000000008152506040517f08c379a0000000000000000000000000000000000000000000000000000000008152600401610fb191906161b8565b60405180910390fd5b600060986000838152602001908152602001600020600101549050919050565b610fe382610fba565b610fec8161399e565b610ff683836139b2565b505050565b6110036138da565b73ffffffffffffffffffffffffffffffffffffffff168173ffffffffffffffffffffffffffffffffffffffff1614611070576040517f08c379a0000000000000000000000000000000000000000000000000000000008152600401611067906164b6565b60405180910390fd5b61107a8282613a93565b5050565b7f000000000000000000000000000000000000000000000000000000000000000073ffffffffffffffffffffffffffffffffffffffff163073ffffffffffffffffffffffffffffffffffffffff16141561110d576040517f08c379a00000000000000000000000000000000000000000000000000000000081526004016111049061627a565b60405180910390fd5b7f000000000000000000000000000000000000000000000000000000000000000073ffffffffffffffffffffffffffffffffffffffff1661114c613b75565b73ffffffffffffffffffffffffffffffffffffffff16146111a2576040517f08c379a0000000000000000000000000000000000000000000000000000000008152600401611199906162da565b60405180910390fd5b6111ab81613bcc565b61122a81600067ffffffffffffffff8111156111f0577f4e487b7100000000000000000000000000000000000000000000000000000000600052604160045260246000fd5b6040519080825280601f01601f1916602001820160405280156112225781602001600182028036833780820191505090505b506000613c36565b50565b61124167979f9020338fd8c160c01b61380f565b7f60044782a422109ac08a415e44260ad5d3bad63d96ebe1fac0363399642ee3f261126b8161399e565b61127f67a3390ed506d83ed860c01b61380f565b6112936771f2625500517a1960c01b61380f565b6112a767ba0150cf54235b5b60c01b61380f565b6112bb674ba6cb7dd2ddecb460c01b61380f565b61012f60009054906101000a900473ffffffffffffffffffffffffffffffffffffffff1673ffffffffffffffffffffffffffffffffffffffff166384b7a84a8560016040518363ffffffff1660e01b815260040161131a92919061643a565b600060405180830381600087803b15801561133457600080fd5b505af1158015611348573d6000803e3d6000fd5b50505050611360676b4efcc6cca0c3fd60c01b61380f565b61137467845d0b140a93c12560c01b61380f565b600061013060008673ffffffffffffffffffffffffffffffffffffffff1673ffffffffffffffffffffffffffffffffffffffff1681526020019081526020016000205490506113cd6773ee7804a611c94760c01b61380f565b6113e1674261c4441178f68f60c01b61380f565b6113ea81613db3565b6113fe67147b0824d5c52d1e60c01b61380f565b6000808673ffffffffffffffffffffffffffffffffffffffff1673ffffffffffffffffffffffffffffffffffffffff168152602001908152602001600020600080820160009055600182016000611455919061528c565b6002820160006101000a81549060ff02191690556002820160016101000a81549060ff02191690556003820160009055505061149b67ac09fd51df6bbb5460c01b61380f565b6114af679dac79938abcf8d060c01b61380f565b83836040516114bf92919061606c565b6040518091039020818673ffffffffffffffffffffffffffffffffffffffff167f8b09fc40032762aebf578cd9202b2548559cbac190b3807076418620ef05518f60405160405180910390a45050505050565b6115266754ffdbd468219e9660c01b61380f565b61153a677647c4bc02b8e54e60c01b61380f565b61154e67ae1d078a9d37a4b260c01b61380f565b6040518060400160405280600381526020017f31303200000000000000000000000000000000000000000000000000000000008152506040517f08c379a00000000000000000000000000000000000000000000000000000000081526004016115b791906161b8565b60405180910390fd5b7f000000000000000000000000000000000000000000000000000000000000000073ffffffffffffffffffffffffffffffffffffffff163073ffffffffffffffffffffffffffffffffffffffff16141561164f576040517f08c379a00000000000000000000000000000000000000000000000000000000081526004016116469061627a565b60405180910390fd5b7f000000000000000000000000000000000000000000000000000000000000000073ffffffffffffffffffffffffffffffffffffffff1661168e613b75565b73ffffffffffffffffffffffffffffffffffffffff16146116e4576040517f08c379a00000000000000000000000000000000000000000000000000000000081526004016116db906162da565b60405180910390fd5b6116ed82613bcc565b6116f982826001613c36565b5050565b60007f000000000000000000000000000000000000000000000000000000000000000073ffffffffffffffffffffffffffffffffffffffff163073ffffffffffffffffffffffffffffffffffffffff161461178d576040517f08c379a0000000000000000000000000000000000000000000000000000000008152600401611784906162fa565b60405180910390fd5b7f360894a13ba1a3210667c828492db98dca3e2076cc3735a920a3ca505d382bbc60001b905090565b60006117cc6750c948dfdb7f780c60c01b61380f565b6117e0674a1cce405faff74560c01b61380f565b6117f467f5117f9257161bab60c01b61380f565b6117ff61012e613f01565b905090565b60008061181083613f0f565b9050600073ffffffffffffffffffffffffffffffffffffffff168173ffffffffffffffffffffffffffffffffffffffff161415611882576040517f08c379a0000000000000000000000000000000000000000000000000000000008152600401611879906163da565b60405180910390fd5b80915050919050565b60006020528060005260406000206000915090508060000154908060010180546118b490616808565b80601f01602080910402602001604051908101604052809291908181526020018280546118e090616808565b801561192d5780601f106119025761010080835404028352916020019161192d565b820191906000526020600020905b81548152906001019060200180831161191057829003601f168201915b5050505050908060020160009054906101000a900460ff16908060020160019054906101000a900460ff16908060030154905085565b61196b6152cc565b61197f67097535db0ce6dd3360c01b6138d7565b61199367cda2b7cac5c967b760c01b6138d7565b6119a7677185f9235ba413aa60c01b6138d7565b6000808373ffffffffffffffffffffffffffffffffffffffff1673ffffffffffffffffffffffffffffffffffffffff1681526020019081526020016000206040518060a001604052908160008201548152602001600182018054611a0a90616808565b80601f0160208091040260200160405190810160405280929190818152602001828054611a3690616808565b8015611a835780601f10611a5857610100808354040283529160200191611a83565b820191906000526020600020905b815481529060010190602001808311611a6657829003601f168201915b505050505081526020016002820160009054906101000a900460ff1660ff1660ff1681526020016002820160019054906101000a900460ff1660ff1660ff1681526020016003820154815250509050919050565b60008073ffffffffffffffffffffffffffffffffffffffff168273ffffffffffffffffffffffffffffffffffffffff161415611b48576040517f08c379a0000000000000000000000000000000000000000000000000000000008152600401611b3f9061631a565b60405180910390fd5b606960008373ffffffffffffffffffffffffffffffffffffffff1673ffffffffffffffffffffffffffffffffffffffff168152602001908152602001600020549050919050565b611ba3677cbbe4fc60f97b6560c01b61380f565b7f60044782a422109ac08a415e44260ad5d3bad63d96ebe1fac0363399642ee3f2611bcd8161399e565b611be167413d05402864b35760c01b61380f565b611bf567332cd9e58174c79b60c01b61380f565b611c0967f51dc90604f812b460c01b61380f565b611c1d67c5acc4d33c6c9be560c01b61380f565b61012f60009054906101000a900473ffffffffffffffffffffffffffffffffffffffff1673ffffffffffffffffffffffffffffffffffffffff166384b7a84a8560016040518363ffffffff1660e01b8152600401611c7c92919061643a565b600060405180830381600087803b158015611c9657600080fd5b505af1158015611caa573d6000803e3d6000fd5b50505050611cc2676a18f9ca1823016a60c01b61380f565b611cd66789e3dfc1996b87a160c01b61380f565b8282604051611ce692919061606c565b60405180910390208473ffffffffffffffffffffffffffffffffffffffff167f3347b0049117ab94fddf6cff81cc554c4f7489acedc7c33907a96655770e58ae60405160405180910390a350505050565b60006098600084815260200190815260200160002060000160008373ffffffffffffffffffffffffffffffffffffffff1673ffffffffffffffffffffffffffffffffffffffff16815260200190815260200160002060009054906101000a900460ff16905092915050565b6000611db867de6cb27c8a37b37a60c01b61399b565b611dcc67798aa39337352c8c60c01b61399b565b611de067dab4f449d5de2f6f60c01b61399b565b6000808373ffffffffffffffffffffffffffffffffffffffff1673ffffffffffffffffffffffffffffffffffffffff168152602001908152602001600020600301544210611ed657611e3c6770d4d7382d2a981660c01b61399b565b611e5067c5c834afaae4a7d160c01b61399b565b611e6467282dd2059d86991c60c01b61399b565b6040518060400160405280600381526020017f31303300000000000000000000000000000000000000000000000000000000008152506040517f08c379a0000000000000000000000000000000000000000000000000000000008152600401611ecd91906161b8565b60405180910390fd5b611eea67bc73e24e23818fec60c01b61399b565b611efe673afbff51046f6dc960c01b61399b565b611f1267dc0c995e8c89436c60c01b61399b565b6000808373ffffffffffffffffffffffffffffffffffffffff1673ffffffffffffffffffffffffffffffffffffffff16815260200190815260200160002060020160019054906101000a900460ff169050919050565b606060678054611f7790616808565b80601f0160208091040260200160405190810160405280929190818152602001828054611fa390616808565b8015611ff05780601f10611fc557610100808354040283529160200191611ff0565b820191906000526020600020905b815481529060010190602001808311611fd357829003601f168201915b5050505050905090565b6060612010679c9bd3f2358d504a60c01b61399b565b61202467f47a81a42083816360c01b61399b565b612038673ad3e5133eb70edf60c01b61399b565b6000808373ffffffffffffffffffffffffffffffffffffffff1673ffffffffffffffffffffffffffffffffffffffff16815260200190815260200160002060030154421061212e57612094674bf6d64bc4b9ee5060c01b61399b565b6120a86770bacd676ef2c35460c01b61399b565b6120bc67d5cd80444d6b6a1d60c01b61399b565b6040518060400160405280600381526020017f31303300000000000000000000000000000000000000000000000000000000008152506040517f08c379a000000000000000000000000000000000000000000000000000000000815260040161212591906161b8565b60405180910390fd5b612142674b77fdf8c10bdb8660c01b61399b565b61215667b0e0e037a9089fb660c01b61399b565b61216a67e8b6052ed7a9362460c01b61399b565b6000808373ffffffffffffffffffffffffffffffffffffffff1673ffffffffffffffffffffffffffffffffffffffff16815260200190815260200160002060010180546121b690616808565b80601f01602080910402602001604051908101604052809291908181526020018280546121e290616808565b801561222f5780601f106122045761010080835404028352916020019161222f565b820191906000526020600020905b81548152906001019060200180831161221257829003601f168201915b50505050509050919050565b6000801b81565b61225461224d6138da565b8383613f4c565b5050565b600061226e67444889debeb075e560c01b6140b9565b61228267cbaf72e3ee1dac7c60c01b6140b9565b61229667214b15373f199fad60c01b6140b9565b6000808373ffffffffffffffffffffffffffffffffffffffff1673ffffffffffffffffffffffffffffffffffffffff16815260200190815260200160002060020160009054906101000a900460ff169050919050565b6122fd6122f76138da565b836140bc565b61233c576040517f08c379a0000000000000000000000000000000000000000000000000000000008152600401612333906161fa565b60405180910390fd5b61234884848484614151565b50505050565b6000612364677b242c27a28a915660c01b6140b9565b61237867dac97000a46d5add60c01b6140b9565b61238c673d482b32731003c160c01b6140b9565b6000808373ffffffffffffffffffffffffffffffffffffffff1673ffffffffffffffffffffffffffffffffffffffff16815260200190815260200160002060020160019054906101000a900460ff169050919050565b60606123f867aa04d3478398cf6f60c01b61380f565b61240c6724081be78105f81f60c01b61380f565b61242067d676a7130c06d07e60c01b61380f565b61243467d9fa80327e35d49360c01b61380f565b61243d826141ad565b6040518060400160405280600381526020017f3130310000000000000000000000000000000000000000000000000000000000815250906124b4576040517f08c379a00000000000000000000000000000000000000000000000000000000081526004016124ab91906161b8565b60405180910390fd5b506124c9677d940d36bbca069960c01b61380f565b6124dd671db7405e319f6de060c01b61380f565b6124f16783497ce10971c48260c01b61380f565b6101316000838152602001908152602001600020805461251090616808565b80601f016020809104026020016040519081016040528092919081815260200182805461253c90616808565b80156125895780601f1061255e57610100808354040283529160200191612589565b820191906000526020600020905b81548152906001019060200180831161256c57829003601f168201915b50505050509050919050565b6125a96779b64c2168fcfc3360c01b61380f565b7f60044782a422109ac08a415e44260ad5d3bad63d96ebe1fac0363399642ee3f26125d38161399e565b6125e76762bc8d4519a5c1ad60c01b61380f565b6125fb67e9a8f8fb83dc431760c01b61380f565b61260f6767eb0c282638a7f860c01b61380f565b61262367be8f3cc64b37fc8660c01b61380f565b61263767f395fc16c3fbe06660c01b61380f565b60006126428a611ad7565b146040518060400160405280600381526020017f3130300000000000000000000000000000000000000000000000000000000000815250906126ba576040517f08c379a00000000000000000000000000000000000000000000000000000000081526004016126b191906161b8565b60405180910390fd5b506126cf679bbbaef6a682f66360c01b61380f565b6126e367ee7e50a6420af52a60c01b61380f565b6126f7670d909d8ca32fd99460c01b61380f565b61270b6782dc340fd2ce7a3c60c01b61380f565b4284116040518060400160405280600381526020017f313033000000000000000000000000000000000000000000000000000000000081525090612785576040517f08c379a000000000000000000000000000000000000000000000000000000000815260040161277c91906161b8565b60405180910390fd5b5061279a67b936a459d9cceeb460c01b61380f565b6127ae6733f80892f70f07c260c01b61380f565b6127c267751a1e09c7b26b9760c01b61380f565b60006127cf61012e613f01565b90506127e567f93752652b57fda160c01b61380f565b6040518060a001604052808281526020018a8a8080601f016020809104026020016040519081016040528093929190818152602001838380828437600081840152601f19601f8201169050808301925050505050505081526020018860ff1681526020018760ff168152602001868152506000808c73ffffffffffffffffffffffffffffffffffffffff1673ffffffffffffffffffffffffffffffffffffffff1681526020019081526020016000206000820151816000015560208201518160010190805190602001906128ba929190615301565b5060408201518160020160006101000a81548160ff021916908360ff16021790555060608201518160020160016101000a81548160ff021916908360ff1602179055506080820151816003015590505061291e6761658d08f3aed9f960c01b61380f565b61293267ed3a0e877d7a61ba60c01b61380f565b61293d61012e6141ee565b612951673c9e84b7efa50cce60c01b61380f565b6129656782a506ecba8b3e3660c01b61380f565b61296f8a82614204565b6129836709758a2c9186cdc960c01b61380f565b8383610131600084815260200190815260200160002091906129a6929190615387565b506129bb67eb47a0b425aa05fa60c01b61380f565b8061013060008c73ffffffffffffffffffffffffffffffffffffffff1673ffffffffffffffffffffffffffffffffffffffff16815260200190815260200160002081905550612a1467cea4da29c53476a760c01b61380f565b612a2867fb0eb89ec11ecc9a60c01b61380f565b61012f60009054906101000a900473ffffffffffffffffffffffffffffffffffffffff1673ffffffffffffffffffffffffffffffffffffffff16632f7f0a128b6040518263ffffffff1660e01b8152600401612a849190616126565b600060405180830381600087803b158015612a9e57600080fd5b505af1158015612ab2573d6000803e3d6000fd5b50505050612aca679bec0fbaf82459fe60c01b61380f565b612ade67b5e9978688c1f84060c01b61380f565b808a73ffffffffffffffffffffffffffffffffffffffff167faf62702571aa2959cc884d2d2f058f2dde9f91f8cb7b5a5c62887ec1aef856e760405160405180910390a350505050505050505050565b612b3782610fba565b612b408161399e565b612b4a8383613a93565b505050565b7f60044782a422109ac08a415e44260ad5d3bad63d96ebe1fac0363399642ee3f281565b6060612b89673257476b0f82530b60c01b6140b9565b612b9d6779cf78790c1f533860c01b6140b9565b612bb16790cb770aada93fcf60c01b6140b9565b6000808373ffffffffffffffffffffffffffffffffffffffff1673ffffffffffffffffffffffffffffffffffffffff1681526020019081526020016000206001018054612bfd90616808565b80601f0160208091040260200160405190810160405280929190818152602001828054612c2990616808565b8015612c765780601f10612c4b57610100808354040283529160200191612c76565b820191906000526020600020905b815481529060010190602001808311612c5957829003601f168201915b50505050509050919050565b612c9667d788cbd89fea7d2660c01b61380f565b7f60044782a422109ac08a415e44260ad5d3bad63d96ebe1fac0363399642ee3f2612cc08161399e565b612cd4676990fc206fbb1bfc60c01b61380f565b612ce867e3169663323ecdc660c01b61380f565b612cfc67093fce267e58b39060c01b61380f565b612d10674b069043e127c18560c01b61380f565b612d2467243f9099585693e060c01b61380f565b6001612d2f88611ad7565b146040518060400160405280600381526020017f313031000000000000000000000000000000000000000000000000000000000081525090612da7576040517f08c379a0000000000000000000000000000000000000000000000000000000008152600401612d9e91906161b8565b60405180910390fd5b50612dbc677da896f8bf1cc3cf60c01b61380f565b612dd067cccd7a33d4b9fa1060c01b61380f565b612de467d40c81e56e7696d860c01b61380f565b60008060008973ffffffffffffffffffffffffffffffffffffffff1673ffffffffffffffffffffffffffffffffffffffff168152602001908152602001600020600001549050612e3e67dc6f840eb155df4c60c01b61380f565b6040518060a0016040528082815260200188888080601f016020809104026020016040519081016040528093929190818152602001838380828437600081840152601f19601f8201169050808301925050505050505081526020018660ff1681526020018560ff168152602001848152506000808a73ffffffffffffffffffffffffffffffffffffffff1673ffffffffffffffffffffffffffffffffffffffff168152602001908152602001600020600082015181600001556020820151816001019080519060200190612f13929190615301565b5060408201518160020160006101000a81548160ff021916908360ff16021790555060608201518160020160016101000a81548160ff021916908360ff16021790555060808201518160030155905050612f7767d146a42f7b963b6c60c01b61380f565b612f8b677957dddef68a0dbd60c01b61380f565b808873ffffffffffffffffffffffffffffffffffffffff167f4a1e31466f875c6fcafefabf90bce8accdf53108c4a309106058ef7aefebd5ce60405160405180910390a35050505050505050565b6000606b60008473ffffffffffffffffffffffffffffffffffffffff1673ffffffffffffffffffffffffffffffffffffffff16815260200190815260200160002060008373ffffffffffffffffffffffffffffffffffffffff1673ffffffffffffffffffffffffffffffffffffffff16815260200190815260200160002060009054906101000a900460ff16905092915050565b6130816723ca02e94a126f2660c01b61380f565b7f60044782a422109ac08a415e44260ad5d3bad63d96ebe1fac0363399642ee3f26130ab8161399e565b6130bf67720c7b708f2accd560c01b61380f565b6130d3670e894815cb1587f660c01b61380f565b6130e767a1427b684ba1107960c01b61380f565b6130fb6720bdcac9aa05193660c01b61380f565b600061013060008673ffffffffffffffffffffffffffffffffffffffff1673ffffffffffffffffffffffffffffffffffffffff16815260200190815260200160002054905061315467ce81be1dc86cf1b960c01b61380f565b6131686758e6026e0c90f46d60c01b61380f565b61317c6737c927149839212660c01b61380f565b613185816141ad565b6040518060400160405280600381526020017f3130310000000000000000000000000000000000000000000000000000000000815250906131fc576040517f08c379a00000000000000000000000000000000000000000000000000000000081526004016131f391906161b8565b60405180910390fd5b5061321167b7b2e8036abaf9fa60c01b61380f565b61322567d884d7a2e493b52d60c01b61380f565b838361013160008481526020019081526020016000209190613248929190615387565b5061325d6714ae4ff4824cc3cb60c01b61380f565b6132716741e97fe671d34fa960c01b61380f565b838360405161328192919061606c565b6040518091039020818673ffffffffffffffffffffffffffffffffffffffff167fe3a3e1a0be0d562dd7ec739509d30dfbca7cd174fbc576a45746fe1f3b277c2660405160405180910390a45050505050565b7f189ab7a9244df0848122154315af71fe140f3db0fe014031783b0946b8c9d2e381565b61330c6721b8ebf8949da14160c01b61380f565b600060018054906101000a900460ff1615905080801561333d575060018060009054906101000a900460ff1660ff16105b8061336b575061334c30614222565b15801561336a575060018060009054906101000a900460ff1660ff16145b5b6133aa576040517f08c379a00000000000000000000000000000000000000000000000000000000081526004016133a19061635a565b60405180910390fd5b60018060006101000a81548160ff021916908360ff16021790555080156133e65760018060016101000a81548160ff0219169083151502179055505b6133fa678fb0a7bc996a865460c01b61380f565b61340e67e7d2f3571316c8c460c01b61380f565b6134226780b876180755a45e60c01b61380f565b613436676740704b10e7975960c01b61380f565b6134436000801b33613a93565b61345767501035b5c678b7fb60c01b61380f565b61346b67c6d73f433f65c6e060c01b61380f565b6134957f189ab7a9244df0848122154315af71fe140f3db0fe014031783b0946b8c9d2e3836139b2565b6134a96722ff8fb311cec32260c01b61380f565b6134bd671bdfaa735ea4da0560c01b61380f565b6134ca6000801b856139b2565b6134de67d76eb19a648b089c60c01b61380f565b6134f267a85feb8ca828b38a60c01b61380f565b61351c7f60044782a422109ac08a415e44260ad5d3bad63d96ebe1fac0363399642ee3f2846139b2565b61353067a3a5db79abf44b8060c01b61380f565b61354467e8bd79d989513f3c60c01b61380f565b61354c614245565b61356067214a159ae1899fd260c01b61380f565b6135746783fb21b4c56fa26060c01b61380f565b6135e86040518060400160405280601181526020017f50726f6f66206f66204964656e746974790000000000000000000000000000008152506040518060400160405280600581526020017f48312d4944000000000000000000000000000000000000000000000000000000815250614294565b6135fc676cd8a1b146cb234060c01b61380f565b613610677b6ce0c4cfd7bcf960c01b61380f565b6136186142ef565b61362c679088bcc77126f54460c01b61380f565b8461012f60006101000a81548173ffffffffffffffffffffffffffffffffffffffff021916908373ffffffffffffffffffffffffffffffffffffffff160217905550613682677604481fbb6a266e60c01b61380f565b61369667845fa192e40eadf860c01b61380f565b6136a36000801b33613a93565b6136b767d6acb33fdf8f4a0e60c01b61380f565b6136cb672e1ac8ffce13240d60c01b61380f565b6136d86000801b856139b2565b6136ec67b2c99be2320a46f060c01b61380f565b61370067db5e81f582bcaad060c01b61380f565b61372a7f60044782a422109ac08a415e44260ad5d3bad63d96ebe1fac0363399642ee3f2846139b2565b61373e675531b2f2cdb00fd460c01b61380f565b61375267c35260d3ca1195ec60c01b61380f565b61377c7f189ab7a9244df0848122154315af71fe140f3db0fe014031783b0946b8c9d2e3836139b2565b6137906726aa13abf7403bea60c01b61380f565b6137a4674c082c8f4167302160c01b61380f565b6137af61012e6141ee565b80156138085760006001806101000a81548160ff0219169083151502179055507f7f26b83ff96e1f2b6a682f133852f6798a09c465da95921460cefb384740249860016040516137ff919061619d565b60405180910390a15b5050505050565b50565b60007f7965db0b000000000000000000000000000000000000000000000000000000007bffffffffffffffffffffffffffffffffffffffffffffffffffffffff1916827bffffffffffffffffffffffffffffffffffffffffffffffffffffffff1916148061388557506138848261433e565b5b9050919050565b613895816141ad565b6138d4576040517f08c379a00000000000000000000000000000000000000000000000000000000081526004016138cb906163da565b60405180910390fd5b50565b50565b600033905090565b81606a600083815260200190815260200160002060006101000a81548173ffffffffffffffffffffffffffffffffffffffff021916908373ffffffffffffffffffffffffffffffffffffffff160217905550808273ffffffffffffffffffffffffffffffffffffffff1661395583611804565b73ffffffffffffffffffffffffffffffffffffffff167f8c5be1e5ebec7d5bd14f71427d1e84f3dd0314c0f7b2291e5b200ac8c7c3b92560405160405180910390a45050565b50565b6139af816139aa6138da565b614420565b50565b6139bc8282611d37565b613a8f5760016098600084815260200190815260200160002060000160008373ffffffffffffffffffffffffffffffffffffffff1673ffffffffffffffffffffffffffffffffffffffff16815260200190815260200160002060006101000a81548160ff021916908315150217905550613a346138da565b73ffffffffffffffffffffffffffffffffffffffff168173ffffffffffffffffffffffffffffffffffffffff16837f2f8788117e7eff1d82e926ec794901d17c78024a50270940304540a733656f0d60405160405180910390a45b5050565b613a9d8282611d37565b15613b715760006098600084815260200190815260200160002060000160008373ffffffffffffffffffffffffffffffffffffffff1673ffffffffffffffffffffffffffffffffffffffff16815260200190815260200160002060006101000a81548160ff021916908315150217905550613b166138da565b73ffffffffffffffffffffffffffffffffffffffff168173ffffffffffffffffffffffffffffffffffffffff16837ff6391f5c32d9c69d2a47ea670b442974b53935d1edc7fd64eb21e047a839171b60405160405180910390a45b5050565b6000613ba37f360894a13ba1a3210667c828492db98dca3e2076cc3735a920a3ca505d382bbc60001b6144a5565b60000160009054906101000a900473ffffffffffffffffffffffffffffffffffffffff16905090565b613be0671dbbf6e40e5883de60c01b61380f565b7f189ab7a9244df0848122154315af71fe140f3db0fe014031783b0946b8c9d2e3613c0a8161399e565b613c1e6724e947414409aae760c01b61380f565b613c32677ab62c3941758f0660c01b61380f565b5050565b613c627f4910fdfa16fed3260ed0e7147f7cc6da11a60208b5b9406d12a635614ffd914360001b6144af565b60000160009054906101000a900460ff1615613c8657613c81836144b9565b613dae565b8273ffffffffffffffffffffffffffffffffffffffff166352d1902d6040518163ffffffff1660e01b815260040160206040518083038186803b158015613ccc57600080fd5b505afa925050508015613cfd57506040513d601f19601f82011682018060405250810190613cfa91906159b8565b60015b613d3c576040517f08c379a0000000000000000000000000000000000000000000000000000000008152600401613d339061639a565b60405180910390fd5b7f360894a13ba1a3210667c828492db98dca3e2076cc3735a920a3ca505d382bbc60001b8114613da1576040517f08c379a0000000000000000000000000000000000000000000000000000000008152600401613d989061633a565b60405180910390fd5b50613dad838383614572565b5b505050565b6000613dbe82611804565b9050613dce81600084600161459e565b613dd782611804565b9050606a600083815260200190815260200160002060006101000a81549073ffffffffffffffffffffffffffffffffffffffff02191690556001606960008373ffffffffffffffffffffffffffffffffffffffff1673ffffffffffffffffffffffffffffffffffffffff168152602001908152602001600020600082825403925050819055506068600083815260200190815260200160002060006101000a81549073ffffffffffffffffffffffffffffffffffffffff021916905581600073ffffffffffffffffffffffffffffffffffffffff168273ffffffffffffffffffffffffffffffffffffffff167fddf252ad1be2c89b69c2b068fc378daa952ba7f163c4a11628f55a4df523b3ef60405160405180910390a4613efd8160008460016145a4565b5050565b600081600001549050919050565b60006068600083815260200190815260200160002060009054906101000a900473ffffffffffffffffffffffffffffffffffffffff169050919050565b8173ffffffffffffffffffffffffffffffffffffffff168373ffffffffffffffffffffffffffffffffffffffff161415613fbb576040517f08c379a0000000000000000000000000000000000000000000000000000000008152600401613fb2906162ba565b60405180910390fd5b80606b60008573ffffffffffffffffffffffffffffffffffffffff1673ffffffffffffffffffffffffffffffffffffffff16815260200190815260200160002060008473ffffffffffffffffffffffffffffffffffffffff1673ffffffffffffffffffffffffffffffffffffffff16815260200190815260200160002060006101000a81548160ff0219169083151502179055508173ffffffffffffffffffffffffffffffffffffffff168373ffffffffffffffffffffffffffffffffffffffff167f17307eab39ab6107e8899845ad3d59bd9653f200f220920489ca2b5937696c31836040516140ac9190616167565b60405180910390a3505050565b50565b6000806140c883611804565b90508073ffffffffffffffffffffffffffffffffffffffff168473ffffffffffffffffffffffffffffffffffffffff16148061410a57506141098185612fd9565b5b8061414857508373ffffffffffffffffffffffffffffffffffffffff1661413084610b61565b73ffffffffffffffffffffffffffffffffffffffff16145b91505092915050565b61415c8484846145aa565b614168848484846148a4565b6141a7576040517f08c379a000000000000000000000000000000000000000000000000000000000815260040161419e9061621a565b60405180910390fd5b50505050565b60008073ffffffffffffffffffffffffffffffffffffffff166141cf83613f0f565b73ffffffffffffffffffffffffffffffffffffffff1614159050919050565b6001816000016000828254019250508190555050565b61421e828260405180602001604052806000815250614a3b565b5050565b6000808273ffffffffffffffffffffffffffffffffffffffff163b119050919050565b60018054906101000a900460ff16614292576040517f08c379a000000000000000000000000000000000000000000000000000000000815260040161428990616496565b60405180910390fd5b565b60018054906101000a900460ff166142e1576040517f08c379a00000000000000000000000000000000000000000000000000000000081526004016142d890616496565b60405180910390fd5b6142eb8282614a96565b5050565b60018054906101000a900460ff1661433c576040517f08c379a000000000000000000000000000000000000000000000000000000000815260040161433390616496565b60405180910390fd5b565b60007f80ac58cd000000000000000000000000000000000000000000000000000000007bffffffffffffffffffffffffffffffffffffffffffffffffffffffff1916827bffffffffffffffffffffffffffffffffffffffffffffffffffffffff1916148061440957507f5b5e139f000000000000000000000000000000000000000000000000000000007bffffffffffffffffffffffffffffffffffffffffffffffffffffffff1916827bffffffffffffffffffffffffffffffffffffffffffffffffffffffff1916145b80614419575061441882614b15565b5b9050919050565b61442a8282611d37565b6144a15761443781614b7f565b6144458360001c6020614bac565b604051602001614456929190616085565b6040516020818303038152906040526040517f08c379a000000000000000000000000000000000000000000000000000000000815260040161449891906161b8565b60405180910390fd5b5050565b6000819050919050565b6000819050919050565b6144c281614222565b614501576040517f08c379a00000000000000000000000000000000000000000000000000000000081526004016144f8906163ba565b60405180910390fd5b8061452e7f360894a13ba1a3210667c828492db98dca3e2076cc3735a920a3ca505d382bbc60001b6144a5565b60000160006101000a81548173ffffffffffffffffffffffffffffffffffffffff021916908373ffffffffffffffffffffffffffffffffffffffff16021790555050565b61457b83614ea6565b6000825111806145885750805b15614599576145978383614ef5565b505b505050565b50505050565b50505050565b8273ffffffffffffffffffffffffffffffffffffffff166145ca82611804565b73ffffffffffffffffffffffffffffffffffffffff1614614620576040517f08c379a00000000000000000000000000000000000000000000000000000000081526004016146179061623a565b60405180910390fd5b600073ffffffffffffffffffffffffffffffffffffffff168273ffffffffffffffffffffffffffffffffffffffff161415614690576040517f08c379a00000000000000000000000000000000000000000000000000000000081526004016146879061629a565b60405180910390fd5b61469d838383600161459e565b8273ffffffffffffffffffffffffffffffffffffffff166146bd82611804565b73ffffffffffffffffffffffffffffffffffffffff1614614713576040517f08c379a000000000000000000000000000000000000000000000000000000000815260040161470a9061623a565b60405180910390fd5b606a600082815260200190815260200160002060006101000a81549073ffffffffffffffffffffffffffffffffffffffff02191690556001606960008573ffffffffffffffffffffffffffffffffffffffff1673ffffffffffffffffffffffffffffffffffffffff168152602001908152602001600020600082825403925050819055506001606960008473ffffffffffffffffffffffffffffffffffffffff1673ffffffffffffffffffffffffffffffffffffffff16815260200190815260200160002060008282540192505081905550816068600083815260200190815260200160002060006101000a81548173ffffffffffffffffffffffffffffffffffffffff021916908373ffffffffffffffffffffffffffffffffffffffff160217905550808273ffffffffffffffffffffffffffffffffffffffff168473ffffffffffffffffffffffffffffffffffffffff167fddf252ad1be2c89b69c2b068fc378daa952ba7f163c4a11628f55a4df523b3ef60405160405180910390a461489f83838360016145a4565b505050565b60006148c58473ffffffffffffffffffffffffffffffffffffffff16614222565b15614a2e578373ffffffffffffffffffffffffffffffffffffffff1663150b7a026148ee6138da565b8786866040518563ffffffff1660e01b815260040161491094939291906160da565b602060405180830381600087803b15801561492a57600080fd5b505af192505050801561495b57506040513d601f19601f820116820180604052508101906149589190615a46565b60015b6149de573d806000811461498b576040519150601f19603f3d011682016040523d82523d6000602084013e614990565b606091505b506000815114156149d6576040517f08c379a00000000000000000000000000000000000000000000000000000000081526004016149cd9061621a565b60405180910390fd5b805181602001fd5b63150b7a0260e01b7bffffffffffffffffffffffffffffffffffffffffffffffffffffffff1916817bffffffffffffffffffffffffffffffffffffffffffffffffffffffff191614915050614a33565b600190505b949350505050565b614a458383614f22565b614a5260008484846148a4565b614a91576040517f08c379a0000000000000000000000000000000000000000000000000000000008152600401614a889061621a565b60405180910390fd5b505050565b60018054906101000a900460ff16614ae3576040517f08c379a0000000000000000000000000000000000000000000000000000000008152600401614ada90616496565b60405180910390fd5b8160669080519060200190614af9929190615301565b508060679080519060200190614b10929190615301565b505050565b60007f01ffc9a7000000000000000000000000000000000000000000000000000000007bffffffffffffffffffffffffffffffffffffffffffffffffffffffff1916827bffffffffffffffffffffffffffffffffffffffffffffffffffffffff1916149050919050565b6060614ba58273ffffffffffffffffffffffffffffffffffffffff16601460ff16614bac565b9050919050565b606060006002836002614bbf9190616693565b614bc9919061663d565b67ffffffffffffffff811115614c08577f4e487b7100000000000000000000000000000000000000000000000000000000600052604160045260246000fd5b6040519080825280601f01601f191660200182016040528015614c3a5781602001600182028036833780820191505090505b5090507f300000000000000000000000000000000000000000000000000000000000000081600081518110614c98577f4e487b7100000000000000000000000000000000000000000000000000000000600052603260045260246000fd5b60200101907effffffffffffffffffffffffffffffffffffffffffffffffffffffffffffff1916908160001a9053507f780000000000000000000000000000000000000000000000000000000000000081600181518110614d22577f4e487b7100000000000000000000000000000000000000000000000000000000600052603260045260246000fd5b60200101907effffffffffffffffffffffffffffffffffffffffffffffffffffffffffffff1916908160001a90535060006001846002614d629190616693565b614d6c919061663d565b90505b6001811115614e58577f3031323334353637383961626364656600000000000000000000000000000000600f861660108110614dd4577f4e487b7100000000000000000000000000000000000000000000000000000000600052603260045260246000fd5b1a60f81b828281518110614e11577f4e487b7100000000000000000000000000000000000000000000000000000000600052603260045260246000fd5b60200101907effffffffffffffffffffffffffffffffffffffffffffffffffffffffffffff1916908160001a905350600485901c945080614e51906167de565b9050614d6f565b5060008414614e9c576040517f08c379a0000000000000000000000000000000000000000000000000000000008152600401614e93906161da565b60405180910390fd5b8091505092915050565b614eaf816144b9565b8073ffffffffffffffffffffffffffffffffffffffff167fbc7cd75a20ee27fd9adebab32041f755214dbc6bffa90cc0225b39da2e5c2d3b60405160405180910390a250565b6060614f1a838360405180606001604052806027815260200161701e60279139615140565b905092915050565b600073ffffffffffffffffffffffffffffffffffffffff168273ffffffffffffffffffffffffffffffffffffffff161415614f92576040517f08c379a0000000000000000000000000000000000000000000000000000000008152600401614f899061637a565b60405180910390fd5b614f9b816141ad565b15614fdb576040517f08c379a0000000000000000000000000000000000000000000000000000000008152600401614fd29061625a565b60405180910390fd5b614fe960008383600161459e565b614ff2816141ad565b15615032576040517f08c379a00000000000000000000000000000000000000000000000000000000081526004016150299061625a565b60405180910390fd5b6001606960008473ffffffffffffffffffffffffffffffffffffffff1673ffffffffffffffffffffffffffffffffffffffff16815260200190815260200160002060008282540192505081905550816068600083815260200190815260200160002060006101000a81548173ffffffffffffffffffffffffffffffffffffffff021916908373ffffffffffffffffffffffffffffffffffffffff160217905550808273ffffffffffffffffffffffffffffffffffffffff16600073ffffffffffffffffffffffffffffffffffffffff167fddf252ad1be2c89b69c2b068fc378daa952ba7f163c4a11628f55a4df523b3ef60405160405180910390a461513c6000838360016145a4565b5050565b60606000808573ffffffffffffffffffffffffffffffffffffffff168560405161516a9190616055565b600060405180830381855af49150503d80600081146151a5576040519150601f19603f3d011682016040523d82523d6000602084013e6151aa565b606091505b50915091506151bb868383876151c6565b925050509392505050565b6060831561522957600083511415615221576151e185614222565b615220576040517f08c379a000000000000000000000000000000000000000000000000000000000815260040161521790616476565b60405180910390fd5b5b829050615234565b615233838361523c565b5b949350505050565b60008251111561524f5781518083602001fd5b806040517f08c379a000000000000000000000000000000000000000000000000000000000815260040161528391906161b8565b60405180910390fd5b50805461529890616808565b6000825580601f106152aa57506152c9565b601f0160209004906000526020600020908101906152c8919061540d565b5b50565b6040518060a001604052806000815260200160608152602001600060ff168152602001600060ff168152602001600081525090565b82805461530d90616808565b90600052602060002090601f01602090048101928261532f5760008555615376565b82601f1061534857805160ff1916838001178555615376565b82800160010185558215615376579182015b8281111561537557825182559160200191906001019061535a565b5b509050615383919061540d565b5090565b82805461539390616808565b90600052602060002090601f0160209004810192826153b557600085556153fc565b82601f106153ce57803560ff19168380011785556153fc565b828001600101855582156153fc579182015b828111156153fb5782358255916020019190600101906153e0565b5b509050615409919061540d565b5090565b5b8082111561542657600081600090555060010161540e565b5090565b600061543d615438846165ad565b616588565b90508281526020810184848401111561545557600080fd5b61546084828561679c565b509392505050565b60008135905061547781616f93565b92915050565b60008135905061548c81616faa565b92915050565b6000813590506154a181616fc1565b92915050565b6000815190506154b681616fc1565b92915050565b6000813590506154cb81616fd8565b92915050565b6000815190506154e081616fd8565b92915050565b600082601f8301126154f757600080fd5b813561550784826020860161542a565b91505092915050565b60008083601f84011261552257600080fd5b8235905067ffffffffffffffff81111561553b57600080fd5b60208301915083600182028301111561555357600080fd5b9250929050565b60008135905061556981616fef565b92915050565b60008135905061557e81617006565b92915050565b60006020828403121561559657600080fd5b60006155a484828501615468565b91505092915050565b600080604083850312156155c057600080fd5b60006155ce85828601615468565b92505060206155df85828601615468565b9150509250929050565b600080600080608085870312156155ff57600080fd5b600061560d87828801615468565b945050602061561e87828801615468565b935050604061562f87828801615468565b925050606061564087828801615468565b91505092959194509250565b60008060006060848603121561566157600080fd5b600061566f86828701615468565b935050602061568086828701615468565b92505060406156918682870161555a565b9150509250925092565b600080600080608085870312156156b157600080fd5b60006156bf87828801615468565b94505060206156d087828801615468565b93505060406156e18782880161555a565b925050606085013567ffffffffffffffff8111156156fe57600080fd5b61570a878288016154e6565b91505092959194509250565b6000806040838503121561572957600080fd5b600061573785828601615468565b92505060206157488582860161547d565b9150509250929050565b6000806040838503121561576557600080fd5b600061577385828601615468565b925050602083013567ffffffffffffffff81111561579057600080fd5b61579c858286016154e6565b9150509250929050565b6000806000604084860312156157bb57600080fd5b60006157c986828701615468565b935050602084013567ffffffffffffffff8111156157e657600080fd5b6157f286828701615510565b92509250509250925092565b60008060008060008060a0878903121561581757600080fd5b600061582589828a01615468565b965050602087013567ffffffffffffffff81111561584257600080fd5b61584e89828a01615510565b9550955050604061586189828a0161556f565b935050606061587289828a0161556f565b925050608061588389828a0161555a565b9150509295509295509295565b60008060008060008060008060c0898b0312156158ac57600080fd5b60006158ba8b828c01615468565b985050602089013567ffffffffffffffff8111156158d757600080fd5b6158e38b828c01615510565b975097505060406158f68b828c0161556f565b95505060606159078b828c0161556f565b94505060806159188b828c0161555a565b93505060a089013567ffffffffffffffff81111561593557600080fd5b6159418b828c01615510565b92509250509295985092959890939650565b6000806040838503121561596657600080fd5b600061597485828601615468565b92505060206159858582860161555a565b9150509250929050565b6000602082840312156159a157600080fd5b60006159af84828501615492565b91505092915050565b6000602082840312156159ca57600080fd5b60006159d8848285016154a7565b91505092915050565b600080604083850312156159f457600080fd5b6000615a0285828601615492565b9250506020615a1385828601615468565b9150509250929050565b600060208284031215615a2f57600080fd5b6000615a3d848285016154bc565b91505092915050565b600060208284031215615a5857600080fd5b6000615a66848285016154d1565b91505092915050565b600060208284031215615a8157600080fd5b6000615a8f8482850161555a565b91505092915050565b615aa1816166ed565b82525050565b615ab0816166ff565b82525050565b615abf8161670b565b82525050565b6000615ad0826165de565b615ada81856165f4565b9350615aea8185602086016167ab565b615af3816168f8565b840191505092915050565b6000615b09826165de565b615b138185616605565b9350615b238185602086016167ab565b80840191505092915050565b615b3881616778565b82525050565b615b478161678a565b82525050565b6000615b598385616632565b9350615b6683858461679c565b82840190509392505050565b6000615b7d826165e9565b615b878185616610565b9350615b978185602086016167ab565b615ba0816168f8565b840191505092915050565b6000615bb6826165e9565b615bc08185616621565b9350615bd08185602086016167ab565b615bd9816168f8565b840191505092915050565b6000615bef826165e9565b615bf98185616632565b9350615c098185602086016167ab565b80840191505092915050565b6000615c22602083616621565b9150615c2d82616909565b602082019050919050565b6000615c45600683616621565b9150615c5082616932565b602082019050919050565b6000615c68602d83616621565b9150615c738261695b565b604082019050919050565b6000615c8b603283616621565b9150615c96826169aa565b604082019050919050565b6000615cae602583616621565b9150615cb9826169f9565b604082019050919050565b6000615cd1601c83616621565b9150615cdc82616a48565b602082019050919050565b6000615cf4602c83616621565b9150615cff82616a71565b604082019050919050565b6000615d17602483616621565b9150615d2282616ac0565b604082019050919050565b6000615d3a601983616621565b9150615d4582616b0f565b602082019050919050565b6000615d5d602c83616621565b9150615d6882616b38565b604082019050919050565b6000615d80603883616621565b9150615d8b82616b87565b604082019050919050565b6000615da3602983616621565b9150615dae82616bd6565b604082019050919050565b6000615dc6602983616621565b9150615dd182616c25565b604082019050919050565b6000615de9602e83616621565b9150615df482616c74565b604082019050919050565b6000615e0c602083616621565b9150615e1782616cc3565b602082019050919050565b6000615e2f602e83616621565b9150615e3a82616cec565b604082019050919050565b6000615e52602d83616621565b9150615e5d82616d3b565b604082019050919050565b6000615e75601883616621565b9150615e8082616d8a565b602082019050919050565b6000615e98602183616621565b9150615ea382616db3565b604082019050919050565b6000615ebb603d83616621565b9150615ec682616e02565b604082019050919050565b6000615ede600683616621565b9150615ee982616e51565b602082019050919050565b6000615f01601d83616621565b9150615f0c82616e7a565b602082019050919050565b6000615f24602b83616621565b9150615f2f82616ea3565b604082019050919050565b6000615f47601783616632565b9150615f5282616ef2565b601782019050919050565b6000615f6a601183616632565b9150615f7582616f1b565b601182019050919050565b6000615f8d602f83616621565b9150615f9882616f44565b604082019050919050565b600060a083016000830151615fbb6000860182616019565b5060208301518482036020860152615fd38282615b72565b9150506040830151615fe86040860182616037565b506060830151615ffb6060860182616037565b50608083015161600e6080860182616019565b508091505092915050565b61602281616761565b82525050565b61603181616761565b82525050565b6160408161676b565b82525050565b61604f8161676b565b82525050565b60006160618284615afe565b915081905092915050565b6000616079828486615b4d565b91508190509392505050565b600061609082615f3a565b915061609c8285615be4565b91506160a782615f5d565b91506160b38284615be4565b91508190509392505050565b60006020820190506160d46000830184615a98565b92915050565b60006080820190506160ef6000830187615a98565b6160fc6020830186615a98565b6161096040830185616028565b818103606083015261611b8184615ac5565b905095945050505050565b600060608201905061613b6000830184615a98565b818103602083015261614c81615ed1565b9050818103604083015261615f81615c38565b905092915050565b600060208201905061617c6000830184615aa7565b92915050565b60006020820190506161976000830184615ab6565b92915050565b60006020820190506161b26000830184615b3e565b92915050565b600060208201905081810360008301526161d28184615bab565b905092915050565b600060208201905081810360008301526161f381615c15565b9050919050565b6000602082019050818103600083015261621381615c5b565b9050919050565b6000602082019050818103600083015261623381615c7e565b9050919050565b6000602082019050818103600083015261625381615ca1565b9050919050565b6000602082019050818103600083015261627381615cc4565b9050919050565b6000602082019050818103600083015261629381615ce7565b9050919050565b600060208201905081810360008301526162b381615d0a565b9050919050565b600060208201905081810360008301526162d381615d2d565b9050919050565b600060208201905081810360008301526162f381615d50565b9050919050565b6000602082019050818103600083015261631381615d73565b9050919050565b6000602082019050818103600083015261633381615d96565b9050919050565b6000602082019050818103600083015261635381615db9565b9050919050565b6000602082019050818103600083015261637381615ddc565b9050919050565b6000602082019050818103600083015261639381615dff565b9050919050565b600060208201905081810360008301526163b381615e22565b9050919050565b600060208201905081810360008301526163d381615e45565b9050919050565b600060208201905081810360008301526163f381615e68565b9050919050565b6000602082019050818103600083015261641381615e8b565b9050919050565b6000602082019050818103600083015261643381615eae565b9050919050565b6000606082019050818103600083015261645381615ed1565b90506164626020830185615a98565b61646f6040830184615b2f565b9392505050565b6000602082019050818103600083015261648f81615ef4565b9050919050565b600060208201905081810360008301526164af81615f17565b9050919050565b600060208201905081810360008301526164cf81615f80565b9050919050565b600060208201905081810360008301526164f08184615fa3565b905092915050565b600060208201905061650d6000830184616028565b92915050565b600060a0820190506165286000830188616028565b818103602083015261653a8187615bab565b90506165496040830186616046565b6165566060830185616046565b6165636080830184616028565b9695505050505050565b60006020820190506165826000830184616046565b92915050565b60006165926165a3565b905061659e828261683a565b919050565b6000604051905090565b600067ffffffffffffffff8211156165c8576165c76168c9565b5b6165d1826168f8565b9050602081019050919050565b600081519050919050565b600081519050919050565b600082825260208201905092915050565b600081905092915050565b600082825260208201905092915050565b600082825260208201905092915050565b600081905092915050565b600061664882616761565b915061665383616761565b9250827fffffffffffffffffffffffffffffffffffffffffffffffffffffffffffffffff038211156166885761668761686b565b5b828201905092915050565b600061669e82616761565b91506166a983616761565b9250817fffffffffffffffffffffffffffffffffffffffffffffffffffffffffffffffff04831182151516156166e2576166e161686b565b5b828202905092915050565b60006166f882616741565b9050919050565b60008115159050919050565b6000819050919050565b60007fffffffff0000000000000000000000000000000000000000000000000000000082169050919050565b600073ffffffffffffffffffffffffffffffffffffffff82169050919050565b6000819050919050565b600060ff82169050919050565b600061678382616761565b9050919050565b60006167958261676b565b9050919050565b82818337600083830152505050565b60005b838110156167c95780820151818401526020810190506167ae565b838111156167d8576000848401525b50505050565b60006167e982616761565b915060008214156167fd576167fc61686b565b5b600182039050919050565b6000600282049050600182168061682057607f821691505b602082108114156168345761683361689a565b5b50919050565b616843826168f8565b810181811067ffffffffffffffff82111715616862576168616168c9565b5b80604052505050565b7f4e487b7100000000000000000000000000000000000000000000000000000000600052601160045260246000fd5b7f4e487b7100000000000000000000000000000000000000000000000000000000600052602260045260246000fd5b7f4e487b7100000000000000000000000000000000000000000000000000000000600052604160045260246000fd5b6000601f19601f8301169050919050565b7f537472696e67733a20686578206c656e67746820696e73756666696369656e74600082015250565b7f565443414c4c0000000000000000000000000000000000000000000000000000600082015250565b7f4552433732313a2063616c6c6572206973206e6f7420746f6b656e206f776e6560008201527f72206f7220617070726f76656400000000000000000000000000000000000000602082015250565b7f4552433732313a207472616e7366657220746f206e6f6e20455243373231526560008201527f63656976657220696d706c656d656e7465720000000000000000000000000000602082015250565b7f4552433732313a207472616e736665722066726f6d20696e636f72726563742060008201527f6f776e6572000000000000000000000000000000000000000000000000000000602082015250565b7f4552433732313a20746f6b656e20616c7265616479206d696e74656400000000600082015250565b7f46756e6374696f6e206d7573742062652063616c6c6564207468726f7567682060008201527f64656c656761746563616c6c0000000000000000000000000000000000000000602082015250565b7f4552433732313a207472616e7366657220746f20746865207a65726f2061646460008201527f7265737300000000000000000000000000000000000000000000000000000000602082015250565b7f4552433732313a20617070726f766520746f2063616c6c657200000000000000600082015250565b7f46756e6374696f6e206d7573742062652063616c6c6564207468726f7567682060008201527f6163746976652070726f78790000000000000000000000000000000000000000602082015250565b7f555550535570677261646561626c653a206d757374206e6f742062652063616c60008201527f6c6564207468726f7567682064656c656761746563616c6c0000000000000000602082015250565b7f4552433732313a2061646472657373207a65726f206973206e6f74206120766160008201527f6c6964206f776e65720000000000000000000000000000000000000000000000602082015250565b7f45524331393637557067726164653a20756e737570706f727465642070726f7860008201527f6961626c65555549440000000000000000000000000000000000000000000000602082015250565b7f496e697469616c697a61626c653a20636f6e747261637420697320616c72656160008201527f647920696e697469616c697a6564000000000000000000000000000000000000602082015250565b7f4552433732313a206d696e7420746f20746865207a65726f2061646472657373600082015250565b7f45524331393637557067726164653a206e657720696d706c656d656e7461746960008201527f6f6e206973206e6f742055555053000000000000000000000000000000000000602082015250565b7f455243313936373a206e657720696d706c656d656e746174696f6e206973206e60008201527f6f74206120636f6e747261637400000000000000000000000000000000000000602082015250565b7f4552433732313a20696e76616c696420746f6b656e2049440000000000000000600082015250565b7f4552433732313a20617070726f76616c20746f2063757272656e74206f776e6560008201527f7200000000000000000000000000000000000000000000000000000000000000602082015250565b7f4552433732313a20617070726f76652063616c6c6572206973206e6f7420746f60008201527f6b656e206f776e6572206f7220617070726f76656420666f7220616c6c000000602082015250565b7f484156454e310000000000000000000000000000000000000000000000000000600082015250565b7f416464726573733a2063616c6c20746f206e6f6e2d636f6e7472616374000000600082015250565b7f496e697469616c697a61626c653a20636f6e7472616374206973206e6f74206960008201527f6e697469616c697a696e67000000000000000000000000000000000000000000602082015250565b7f416363657373436f6e74726f6c3a206163636f756e7420000000000000000000600082015250565b7f206973206d697373696e6720726f6c6520000000000000000000000000000000600082015250565b7f416363657373436f6e74726f6c3a2063616e206f6e6c792072656e6f756e636560008201527f20726f6c657320666f722073656c660000000000000000000000000000000000602082015250565b616f9c816166ed565b8114616fa757600080fd5b50565b616fb3816166ff565b8114616fbe57600080fd5b50565b616fca8161670b565b8114616fd557600080fd5b50565b616fe181616715565b8114616fec57600080fd5b50565b616ff881616761565b811461700357600080fd5b50565b61700f8161676b565b811461701a57600080fd5b5056fe416464726573733a206c6f772d6c6576656c2064656c65676174652063616c6c206661696c6564a2646970667358221220724c07cdea7842da568b46193c404772d18276a0c581d85273f3c702aae195d764736f6c63430008020033",
  "linkReferences": {},
  "deployedLinkReferences": {}
}