{
  "_format": "hh-sol-artifact-1",
  "contractName": "ProofOfIdentity",
  "sourceName": "contracts/ProofOfIdentity.sol",
  "abi": [
    {
      "inputs": [],
      "stateMutability": "nonpayable",
      "type": "constructor"
    },
    {
      "anonymous": false,
      "inputs": [
        {
          "indexed": true,
          "internalType": "address",
          "name": "account",
          "type": "address"
        },
        {
          "indexed": true,
          "internalType": "uint256",
          "name": "tokenId",
          "type": "uint256"
        },
        {
          "indexed": true,
          "internalType": "string",
          "name": "reason",
          "type": "string"
        }
      ],
      "name": "AccountSuspendedTokenBurned",
      "type": "event"
    },
    {
      "anonymous": false,
      "inputs": [
        {
          "indexed": true,
          "internalType": "address",
          "name": "account",
          "type": "address"
        },
        {
          "indexed": true,
          "internalType": "string",
          "name": "reason",
          "type": "string"
        }
      ],
      "name": "AccountSuspendedTokenMaintained",
      "type": "event"
    },
    {
      "anonymous": false,
      "inputs": [
        {
          "indexed": false,
          "internalType": "address",
          "name": "previousAdmin",
          "type": "address"
        },
        {
          "indexed": false,
          "internalType": "address",
          "name": "newAdmin",
          "type": "address"
        }
      ],
      "name": "AdminChanged",
      "type": "event"
    },
    {
      "anonymous": false,
      "inputs": [
        {
          "indexed": true,
          "internalType": "address",
          "name": "owner",
          "type": "address"
        },
        {
          "indexed": true,
          "internalType": "address",
          "name": "approved",
          "type": "address"
        },
        {
          "indexed": true,
          "internalType": "uint256",
          "name": "tokenId",
          "type": "uint256"
        }
      ],
      "name": "Approval",
      "type": "event"
    },
    {
      "anonymous": false,
      "inputs": [
        {
          "indexed": true,
          "internalType": "address",
          "name": "owner",
          "type": "address"
        },
        {
          "indexed": true,
          "internalType": "address",
          "name": "operator",
          "type": "address"
        },
        {
          "indexed": false,
          "internalType": "bool",
          "name": "approved",
          "type": "bool"
        }
      ],
      "name": "ApprovalForAll",
      "type": "event"
    },
    {
      "anonymous": false,
      "inputs": [
        {
          "indexed": true,
          "internalType": "address",
          "name": "beacon",
          "type": "address"
        }
      ],
      "name": "BeaconUpgraded",
      "type": "event"
    },
    {
      "anonymous": false,
      "inputs": [
        {
          "indexed": true,
          "internalType": "address",
          "name": "account",
          "type": "address"
        },
        {
          "indexed": true,
          "internalType": "uint256",
          "name": "tokenId",
          "type": "uint256"
        }
      ],
      "name": "IdentityIssued",
      "type": "event"
    },
    {
      "anonymous": false,
      "inputs": [
        {
          "indexed": true,
          "internalType": "address",
          "name": "account",
          "type": "address"
        },
        {
          "indexed": true,
          "internalType": "uint256",
          "name": "tokenId",
          "type": "uint256"
        }
      ],
      "name": "IdentityUpdated",
      "type": "event"
    },
    {
      "anonymous": false,
      "inputs": [
        {
          "indexed": false,
          "internalType": "uint8",
          "name": "version",
          "type": "uint8"
        }
      ],
      "name": "Initialized",
      "type": "event"
    },
    {
      "anonymous": false,
      "inputs": [
        {
          "indexed": true,
          "internalType": "bytes32",
          "name": "role",
          "type": "bytes32"
        },
        {
          "indexed": true,
          "internalType": "bytes32",
          "name": "previousAdminRole",
          "type": "bytes32"
        },
        {
          "indexed": true,
          "internalType": "bytes32",
          "name": "newAdminRole",
          "type": "bytes32"
        }
      ],
      "name": "RoleAdminChanged",
      "type": "event"
    },
    {
      "anonymous": false,
      "inputs": [
        {
          "indexed": true,
          "internalType": "bytes32",
          "name": "role",
          "type": "bytes32"
        },
        {
          "indexed": true,
          "internalType": "address",
          "name": "account",
          "type": "address"
        },
        {
          "indexed": true,
          "internalType": "address",
          "name": "sender",
          "type": "address"
        }
      ],
      "name": "RoleGranted",
      "type": "event"
    },
    {
      "anonymous": false,
      "inputs": [
        {
          "indexed": true,
          "internalType": "bytes32",
          "name": "role",
          "type": "bytes32"
        },
        {
          "indexed": true,
          "internalType": "address",
          "name": "account",
          "type": "address"
        },
        {
          "indexed": true,
          "internalType": "address",
          "name": "sender",
          "type": "address"
        }
      ],
      "name": "RoleRevoked",
      "type": "event"
    },
    {
      "anonymous": false,
      "inputs": [
        {
          "indexed": true,
          "internalType": "address",
          "name": "account",
          "type": "address"
        },
        {
          "indexed": true,
          "internalType": "uint256",
          "name": "tokenId",
          "type": "uint256"
        },
        {
          "indexed": true,
          "internalType": "string",
          "name": "newURI",
          "type": "string"
        }
      ],
      "name": "TokenURIUpdated",
      "type": "event"
    },
    {
      "anonymous": false,
      "inputs": [
        {
          "indexed": true,
          "internalType": "address",
          "name": "from",
          "type": "address"
        },
        {
          "indexed": true,
          "internalType": "address",
          "name": "to",
          "type": "address"
        },
        {
          "indexed": true,
          "internalType": "uint256",
          "name": "tokenId",
          "type": "uint256"
        }
      ],
      "name": "Transfer",
      "type": "event"
    },
    {
      "anonymous": false,
      "inputs": [
        {
          "indexed": true,
          "internalType": "address",
          "name": "implementation",
          "type": "address"
        }
      ],
      "name": "Upgraded",
      "type": "event"
    },
    {
      "inputs": [],
      "name": "DEFAULT_ADMIN_ROLE",
      "outputs": [
        {
          "internalType": "bytes32",
          "name": "",
          "type": "bytes32"
        }
      ],
      "stateMutability": "view",
      "type": "function"
    },
    {
      "inputs": [],
      "name": "OPERATOR_ROLE",
      "outputs": [
        {
          "internalType": "bytes32",
          "name": "",
          "type": "bytes32"
        }
      ],
      "stateMutability": "view",
      "type": "function"
    },
    {
      "inputs": [
        {
          "internalType": "address",
          "name": "to",
          "type": "address"
        },
        {
          "internalType": "uint256",
          "name": "tokenId",
          "type": "uint256"
        }
      ],
      "name": "approve",
      "outputs": [],
      "stateMutability": "nonpayable",
      "type": "function"
    },
    {
      "inputs": [
        {
          "internalType": "address",
          "name": "owner",
          "type": "address"
        }
      ],
      "name": "balanceOf",
      "outputs": [
        {
          "internalType": "uint256",
          "name": "",
          "type": "uint256"
        }
      ],
      "stateMutability": "view",
      "type": "function"
    },
    {
      "inputs": [
        {
          "internalType": "uint256",
          "name": "tokenId",
          "type": "uint256"
        }
      ],
      "name": "getApproved",
      "outputs": [
        {
          "internalType": "address",
          "name": "",
          "type": "address"
        }
      ],
      "stateMutability": "view",
      "type": "function"
    },
    {
      "inputs": [
        {
          "internalType": "bytes32",
          "name": "role",
          "type": "bytes32"
        }
      ],
      "name": "getRoleAdmin",
      "outputs": [
        {
          "internalType": "bytes32",
          "name": "",
          "type": "bytes32"
        }
      ],
      "stateMutability": "view",
      "type": "function"
    },
    {
      "inputs": [
        {
          "internalType": "address",
          "name": "account",
          "type": "address"
        }
      ],
      "name": "getUserAccountCountryCode",
      "outputs": [
        {
          "internalType": "string",
          "name": "userAccountCountryCode",
          "type": "string"
        }
      ],
      "stateMutability": "view",
      "type": "function"
    },
    {
      "inputs": [
        {
          "internalType": "address",
          "name": "account",
          "type": "address"
        }
      ],
      "name": "getUserAccountCountryCodePreventOnExpiry",
      "outputs": [
        {
          "internalType": "string",
          "name": "userAccountCountryCode",
          "type": "string"
        }
      ],
      "stateMutability": "view",
      "type": "function"
    },
    {
      "inputs": [
        {
          "internalType": "address",
          "name": "account",
          "type": "address"
        }
      ],
      "name": "getUserAccountExpiry",
      "outputs": [
        {
          "internalType": "uint256",
          "name": "userAccountExpiry",
          "type": "uint256"
        }
      ],
      "stateMutability": "view",
      "type": "function"
    },
    {
      "inputs": [
        {
          "internalType": "address",
          "name": "account",
          "type": "address"
        }
      ],
      "name": "getUserAccountIdentityBlob",
      "outputs": [
        {
          "components": [
            {
              "internalType": "uint256",
              "name": "tokenId",
              "type": "uint256"
            },
            {
              "internalType": "string",
              "name": "countryCode",
              "type": "string"
            },
            {
              "internalType": "uint8",
              "name": "userType",
              "type": "uint8"
            },
            {
              "internalType": "uint8",
              "name": "level",
              "type": "uint8"
            },
            {
              "internalType": "uint256",
              "name": "expiry",
              "type": "uint256"
            }
          ],
          "internalType": "struct RoleVerification.IdentityBlob",
          "name": "userIdentityBlob",
          "type": "tuple"
        }
      ],
      "stateMutability": "view",
      "type": "function"
    },
    {
      "inputs": [
        {
          "internalType": "address",
          "name": "account",
          "type": "address"
        }
      ],
      "name": "getUserAccountLevel",
      "outputs": [
        {
          "internalType": "uint8",
          "name": "userAccountLevel",
          "type": "uint8"
        }
      ],
      "stateMutability": "view",
      "type": "function"
    },
    {
      "inputs": [
        {
          "internalType": "address",
          "name": "account",
          "type": "address"
        }
      ],
      "name": "getUserAccountLevelPreventOnExpiry",
      "outputs": [
        {
          "internalType": "uint8",
          "name": "",
          "type": "uint8"
        }
      ],
      "stateMutability": "view",
      "type": "function"
    },
    {
      "inputs": [
        {
          "internalType": "address",
          "name": "account",
          "type": "address"
        }
      ],
      "name": "getUserAccountType",
      "outputs": [
        {
          "internalType": "uint8",
          "name": "userAccountType",
          "type": "uint8"
        }
      ],
      "stateMutability": "view",
      "type": "function"
    },
    {
      "inputs": [
        {
          "internalType": "address",
          "name": "account",
          "type": "address"
        }
      ],
      "name": "getUserAccountTypePreventOnExpiry",
      "outputs": [
        {
          "internalType": "uint8",
          "name": "",
          "type": "uint8"
        }
      ],
      "stateMutability": "view",
      "type": "function"
    },
    {
      "inputs": [
        {
          "internalType": "bytes32",
          "name": "role",
          "type": "bytes32"
        },
        {
          "internalType": "address",
          "name": "account",
          "type": "address"
        }
      ],
      "name": "grantRole",
      "outputs": [],
      "stateMutability": "nonpayable",
      "type": "function"
    },
    {
      "inputs": [
        {
          "internalType": "bytes32",
          "name": "role",
          "type": "bytes32"
        },
        {
          "internalType": "address",
          "name": "account",
          "type": "address"
        }
      ],
      "name": "hasRole",
      "outputs": [
        {
          "internalType": "bool",
          "name": "",
          "type": "bool"
        }
      ],
      "stateMutability": "view",
      "type": "function"
    },
    {
      "inputs": [
        {
          "internalType": "address",
          "name": "",
          "type": "address"
        }
      ],
      "name": "identityBlob",
      "outputs": [
        {
          "internalType": "uint256",
          "name": "tokenId",
          "type": "uint256"
        },
        {
          "internalType": "string",
          "name": "countryCode",
          "type": "string"
        },
        {
          "internalType": "uint8",
          "name": "userType",
          "type": "uint8"
        },
        {
          "internalType": "uint8",
          "name": "level",
          "type": "uint8"
        },
        {
          "internalType": "uint256",
          "name": "expiry",
          "type": "uint256"
        }
      ],
      "stateMutability": "view",
      "type": "function"
    },
    {
      "inputs": [
        {
          "internalType": "address",
          "name": "permissionsInterface",
          "type": "address"
        },
        {
          "internalType": "address",
          "name": "networkAdmin",
          "type": "address"
        },
        {
          "internalType": "address",
          "name": "networkOperator",
          "type": "address"
        }
      ],
      "name": "initialize",
      "outputs": [],
      "stateMutability": "nonpayable",
      "type": "function"
    },
    {
      "inputs": [
        {
          "internalType": "address",
          "name": "owner",
          "type": "address"
        },
        {
          "internalType": "address",
          "name": "operator",
          "type": "address"
        }
      ],
      "name": "isApprovedForAll",
      "outputs": [
        {
          "internalType": "bool",
          "name": "",
          "type": "bool"
        }
      ],
      "stateMutability": "view",
      "type": "function"
    },
    {
      "inputs": [
        {
          "internalType": "address",
          "name": "account",
          "type": "address"
        },
        {
          "internalType": "string",
          "name": "countryCode",
          "type": "string"
        },
        {
          "internalType": "uint8",
          "name": "userType",
          "type": "uint8"
        },
        {
          "internalType": "uint8",
          "name": "level",
          "type": "uint8"
        },
        {
          "internalType": "uint256",
          "name": "expiry",
          "type": "uint256"
        },
        {
          "internalType": "string",
          "name": "tokenUri",
          "type": "string"
        }
      ],
      "name": "issueIdentity",
      "outputs": [
        {
          "internalType": "uint256",
          "name": "",
          "type": "uint256"
        }
      ],
      "stateMutability": "nonpayable",
      "type": "function"
    },
    {
      "inputs": [],
      "name": "name",
      "outputs": [
        {
          "internalType": "string",
          "name": "",
          "type": "string"
        }
      ],
      "stateMutability": "view",
      "type": "function"
    },
    {
      "inputs": [
        {
          "internalType": "uint256",
          "name": "tokenId",
          "type": "uint256"
        }
      ],
      "name": "ownerOf",
      "outputs": [
        {
          "internalType": "address",
          "name": "",
          "type": "address"
        }
      ],
      "stateMutability": "view",
      "type": "function"
    },
    {
      "inputs": [],
      "name": "proxiableUUID",
      "outputs": [
        {
          "internalType": "bytes32",
          "name": "",
          "type": "bytes32"
        }
      ],
      "stateMutability": "view",
      "type": "function"
    },
    {
      "inputs": [
        {
          "internalType": "bytes32",
          "name": "role",
          "type": "bytes32"
        },
        {
          "internalType": "address",
          "name": "account",
          "type": "address"
        }
      ],
      "name": "renounceRole",
      "outputs": [],
      "stateMutability": "nonpayable",
      "type": "function"
    },
    {
      "inputs": [
        {
          "internalType": "bytes32",
          "name": "role",
          "type": "bytes32"
        },
        {
          "internalType": "address",
          "name": "account",
          "type": "address"
        }
      ],
      "name": "revokeRole",
      "outputs": [],
      "stateMutability": "nonpayable",
      "type": "function"
    },
    {
      "inputs": [
        {
          "internalType": "address",
          "name": "from",
          "type": "address"
        },
        {
          "internalType": "address",
          "name": "to",
          "type": "address"
        },
        {
          "internalType": "uint256",
          "name": "tokenId",
          "type": "uint256"
        }
      ],
      "name": "safeTransferFrom",
      "outputs": [],
      "stateMutability": "pure",
      "type": "function"
    },
    {
      "inputs": [
        {
          "internalType": "address",
          "name": "from",
          "type": "address"
        },
        {
          "internalType": "address",
          "name": "to",
          "type": "address"
        },
        {
          "internalType": "uint256",
          "name": "tokenId",
          "type": "uint256"
        },
        {
          "internalType": "bytes",
          "name": "data",
          "type": "bytes"
        }
      ],
      "name": "safeTransferFrom",
      "outputs": [],
      "stateMutability": "nonpayable",
      "type": "function"
    },
    {
      "inputs": [
        {
          "internalType": "address",
          "name": "operator",
          "type": "address"
        },
        {
          "internalType": "bool",
          "name": "approved",
          "type": "bool"
        }
      ],
      "name": "setApprovalForAll",
      "outputs": [],
      "stateMutability": "nonpayable",
      "type": "function"
    },
    {
      "inputs": [
        {
          "internalType": "bytes4",
          "name": "interfaceId",
          "type": "bytes4"
        }
      ],
      "name": "supportsInterface",
      "outputs": [
        {
          "internalType": "bool",
          "name": "",
          "type": "bool"
        }
      ],
      "stateMutability": "view",
      "type": "function"
    },
    {
      "inputs": [
        {
          "internalType": "address",
          "name": "suspendAddress",
          "type": "address"
        },
        {
          "internalType": "string",
          "name": "reason",
          "type": "string"
        }
      ],
      "name": "suspendAccountMaintainTokenAndIdentityBlob",
      "outputs": [],
      "stateMutability": "nonpayable",
      "type": "function"
    },
    {
      "inputs": [],
      "name": "symbol",
      "outputs": [
        {
          "internalType": "string",
          "name": "",
          "type": "string"
        }
      ],
      "stateMutability": "view",
      "type": "function"
    },
    {
      "inputs": [
        {
          "internalType": "uint256",
          "name": "tokenId",
          "type": "uint256"
        }
      ],
      "name": "tokenURI",
      "outputs": [
        {
          "internalType": "string",
          "name": "tokenUri",
          "type": "string"
        }
      ],
      "stateMutability": "view",
      "type": "function"
    },
    {
      "inputs": [],
      "name": "totalSupply",
      "outputs": [
        {
          "internalType": "uint256",
          "name": "",
          "type": "uint256"
        }
      ],
      "stateMutability": "view",
      "type": "function"
    },
    {
      "inputs": [
        {
          "internalType": "address",
          "name": "from",
          "type": "address"
        },
        {
          "internalType": "address",
          "name": "to",
          "type": "address"
        },
        {
          "internalType": "uint256",
          "name": "tokenId",
          "type": "uint256"
        }
      ],
      "name": "transferFrom",
      "outputs": [],
      "stateMutability": "pure",
      "type": "function"
    },
    {
      "inputs": [
        {
          "internalType": "address",
          "name": "account",
          "type": "address"
        },
        {
          "internalType": "string",
          "name": "countryCode",
          "type": "string"
        },
        {
          "internalType": "uint8",
          "name": "userType",
          "type": "uint8"
        },
        {
          "internalType": "uint8",
          "name": "level",
          "type": "uint8"
        },
        {
          "internalType": "uint256",
          "name": "expiry",
          "type": "uint256"
        },
        {
          "internalType": "string",
          "name": "tokenUri",
          "type": "string"
        }
      ],
      "name": "updateIdentity",
      "outputs": [],
      "stateMutability": "nonpayable",
      "type": "function"
    },
    {
      "inputs": [
        {
          "internalType": "address",
          "name": "account",
          "type": "address"
        },
        {
          "internalType": "string",
          "name": "tokenUri",
          "type": "string"
        }
      ],
      "name": "updateTokenURI",
      "outputs": [],
      "stateMutability": "nonpayable",
      "type": "function"
    },
    {
      "inputs": [
        {
          "internalType": "address",
          "name": "newImplementation",
          "type": "address"
        }
      ],
      "name": "upgradeTo",
      "outputs": [],
      "stateMutability": "nonpayable",
      "type": "function"
    },
    {
      "inputs": [
        {
          "internalType": "address",
          "name": "newImplementation",
          "type": "address"
        },
        {
          "internalType": "bytes",
          "name": "data",
          "type": "bytes"
        }
      ],
      "name": "upgradeToAndCall",
      "outputs": [],
      "stateMutability": "payable",
      "type": "function"
    }
  ],
  "bytecode": "0x60a06040523073ffffffffffffffffffffffffffffffffffffffff1660809073ffffffffffffffffffffffffffffffffffffffff1660601b8152503480156200004757600080fd5b506200006467b2c99be2320a46f060c01b620000b260201b60201c565b6200008067db5e81f582bcaad060c01b620000b260201b60201c565b6200009c675531b2f2cdb00fd460c01b620000b260201b60201c565b620000ac620000b560201b60201c565b62000260565b50565b60018054906101000a900460ff161562000106576040517f08c379a0000000000000000000000000000000000000000000000000000000008152600401620000fd90620001b4565b60405180910390fd5b60ff8016600160009054906101000a900460ff1660ff16146200017a5760ff600160006101000a81548160ff021916908360ff1602179055507f7f26b83ff96e1f2b6a682f133852f6798a09c465da95921460cefb384740249860ff604051620001719190620001d6565b60405180910390a15b565b60006200018b602783620001f3565b9150620001988262000211565b604082019050919050565b620001ae8162000204565b82525050565b60006020820190508181036000830152620001cf816200017c565b9050919050565b6000602082019050620001ed6000830184620001a3565b92915050565b600082825260208201905092915050565b600060ff82169050919050565b7f496e697469616c697a61626c653a20636f6e747261637420697320696e69746960008201527f616c697a696e6700000000000000000000000000000000000000000000000000602082015250565b60805160601c61694e6200029b60003960008181611058015281816110e7015281816118810152818161191001526119c0015261694e6000f3fe6080604052600436106102855760003560e01c806370a0823111610153578063b467177f116100cb578063d547741f1161007f578063e985e9c511610064578063e985e9c51461097a578063f5b541a6146109b7578063f6a4b4d7146109e257610285565b8063d547741f14610914578063dfb24b891461093d57610285565b8063c0c53b8b116100b0578063c0c53b8b14610871578063c207e9e01461089a578063c87b56dd146108d757610285565b8063b467177f1461080b578063b88d4fde1461084857610285565b8063949cdd6e1161012257806396257e4d1161010757806396257e4d1461077a578063a217fddf146107b7578063a22cb465146107e257610285565b8063949cdd6e1461071257806395d89b411461074f57610285565b806370a082311461064657806380a5a8961461068357806380ea719a146106ac57806391d14854146106d557610285565b80632f2ff15d116102015780634f1ef286116101b55780636352211e1161019a5780636352211e1461058b578063688ea9fe146105c85780636ca5fde81461060957610285565b80634f1ef2861461054457806352d1902d1461056057610285565b80633659cfe6116101e65780633659cfe6146104b557806340f378e5146104de57806342842e0e1461051b57610285565b80632f2ff15d1461046357806336568abe1461048c57610285565b8063095ea7b3116102585780631fe0094a1161023d5780631fe0094a146103c057806323b872dd146103fd578063248a9ca31461042657610285565b8063095ea7b31461036c57806318160ddd1461039557610285565b806301ffc9a71461028a57806306fdde03146102c7578063081812fc146102f257806309299ea31461032f575b600080fd5b34801561029657600080fd5b506102b160048036038101906102ac91906152f1565b610a0b565b6040516102be9190615a3b565b60405180910390f35b3480156102d357600080fd5b506102dc610a59565b6040516102e99190615a8c565b60405180910390f35b3480156102fe57600080fd5b5061031960048036038101906103149190615343565b610aeb565b6040516103269190615993565b60405180910390f35b34801561033b57600080fd5b5061035660048036038101906103519190614efe565b610b31565b6040516103639190615dcc565b60405180910390f35b34801561037857600080fd5b50610393600480360381019061038e9190615227565b610bb8565b005b3480156103a157600080fd5b506103aa610cd0565b6040516103b79190615dcc565b60405180910390f35b3480156103cc57600080fd5b506103e760048036038101906103e29190614efe565b610d1e565b6040516103f49190615e41565b60405180910390f35b34801561040957600080fd5b50610424600480360381019061041f9190614fb2565b610ee4565b005b34801561043257600080fd5b5061044d60048036038101906104489190615263565b610f92565b60405161045a9190615a56565b60405180910390f35b34801561046f57600080fd5b5061048a600480360381019061048591906152b5565b610fb2565b005b34801561049857600080fd5b506104b360048036038101906104ae91906152b5565b610fd3565b005b3480156104c157600080fd5b506104dc60048036038101906104d79190614efe565b611056565b005b3480156104ea57600080fd5b5061050560048036038101906105009190615164565b611205565b6040516105129190615dcc565b60405180910390f35b34801561052757600080fd5b50610542600480360381019061053d9190614fb2565b6117d1565b005b61055e600480360381019061055991906150b8565b61187f565b005b34801561056c57600080fd5b506105756119bc565b6040516105829190615a56565b60405180910390f35b34801561059757600080fd5b506105b260048036038101906105ad9190615343565b611a75565b6040516105bf9190615993565b60405180910390f35b3480156105d457600080fd5b506105ef60048036038101906105ea9190614efe565b611afc565b604051610600959493929190615de7565b60405180910390f35b34801561061557600080fd5b50610630600480360381019061062b9190614efe565b611bd4565b60405161063d9190615daa565b60405180910390f35b34801561065257600080fd5b5061066d60048036038101906106689190614efe565b611d48565b60405161067a9190615dcc565b60405180910390f35b34801561068f57600080fd5b506106aa60048036038101906106a5919061510c565b611e00565b005b3480156106b857600080fd5b506106d360048036038101906106ce9190615164565b611fa8565b005b3480156106e157600080fd5b506106fc60048036038101906106f791906152b5565b612339565b6040516107099190615a3b565b60405180910390f35b34801561071e57600080fd5b5061073960048036038101906107349190614efe565b6123a4565b6040516107469190615e41565b60405180910390f35b34801561075b57600080fd5b5061076461256a565b6040516107719190615a8c565b60405180910390f35b34801561078657600080fd5b506107a1600480360381019061079c9190614efe565b6125fc565b6040516107ae9190615a8c565b60405180910390f35b3480156107c357600080fd5b506107cc61283d565b6040516107d99190615a56565b60405180910390f35b3480156107ee57600080fd5b506108096004803603810190610804919061507c565b612844565b005b34801561081757600080fd5b50610832600480360381019061082d9190614efe565b61285a565b60405161083f9190615e41565b60405180910390f35b34801561085457600080fd5b5061086f600480360381019061086a9190615001565b6128ee565b005b34801561087d57600080fd5b5061089860048036038101906108939190614f63565b612950565b005b3480156108a657600080fd5b506108c160048036038101906108bc9190614efe565b612c9e565b6040516108ce9190615e41565b60405180910390f35b3480156108e357600080fd5b506108fe60048036038101906108f99190615343565b612d32565b60405161090b9190615a8c565b60405180910390f35b34801561092057600080fd5b5061093b600480360381019061093691906152b5565b612ee5565b005b34801561094957600080fd5b50610964600480360381019061095f9190614efe565b612f06565b6040516109719190615a8c565b60405180910390f35b34801561098657600080fd5b506109a1600480360381019061099c9190614f27565b613015565b6040516109ae9190615a3b565b60405180910390f35b3480156109c357600080fd5b506109cc6130a9565b6040516109d99190615a56565b60405180910390f35b3480156109ee57600080fd5b50610a096004803603810190610a04919061510c565b6130cd565b005b6000610a2167bb394ff96495738360c01b613334565b610a356751deb66d5108742160c01b613334565b610a496740a84345ff486f4060c01b613334565b610a5282613337565b9050919050565b606060668054610a68906160dc565b80601f0160208091040260200160405190810160405280929190818152602001828054610a94906160dc565b8015610ae15780601f10610ab657610100808354040283529160200191610ae1565b820191906000526020600020905b815481529060010190602001808311610ac457829003601f168201915b5050505050905090565b6000610af6826133b1565b606a600083815260200190815260200160002060009054906101000a900473ffffffffffffffffffffffffffffffffffffffff169050919050565b6000610b476794447c4bb948903360c01b6133fc565b610b5b6702cf5f66176fa53960c01b6133fc565b610b6f67b12611fe05def76260c01b6133fc565b6000808373ffffffffffffffffffffffffffffffffffffffff1673ffffffffffffffffffffffffffffffffffffffff168152602001908152602001600020600301549050919050565b6000610bc382611a75565b90508073ffffffffffffffffffffffffffffffffffffffff168373ffffffffffffffffffffffffffffffffffffffff161415610c34576040517f08c379a0000000000000000000000000000000000000000000000000000000008152600401610c2b90615cce565b60405180910390fd5b8073ffffffffffffffffffffffffffffffffffffffff16610c536133ff565b73ffffffffffffffffffffffffffffffffffffffff161480610c825750610c8181610c7c6133ff565b613015565b5b610cc1576040517f08c379a0000000000000000000000000000000000000000000000000000000008152600401610cb890615cee565b60405180910390fd5b610ccb8383613407565b505050565b6000610ce66750c948dfdb7f780c60c01b613334565b610cfa674a1cce405faff74560c01b613334565b610d0e67f5117f9257161bab60c01b613334565b610d1961012e6134c0565b905090565b6000610d3467c0882176d22f194460c01b6134ce565b610d486719c99830b5b4654060c01b6134ce565b610d5c6792805f3a7478451b60c01b6134ce565b6000808373ffffffffffffffffffffffffffffffffffffffff1673ffffffffffffffffffffffffffffffffffffffff168152602001908152602001600020600301544210610e5257610db86746c027269ffad2a760c01b6134ce565b610dcc67c0f7dab06875d32960c01b6134ce565b610de067749dbadd8151278160c01b6134ce565b6040518060400160405280600381526020017f31303300000000000000000000000000000000000000000000000000000000008152506040517f08c379a0000000000000000000000000000000000000000000000000000000008152600401610e499190615a8c565b60405180910390fd5b610e66673e104cf77e5bc49f60c01b6134ce565b610e7a67e679f23c5e234df160c01b6134ce565b610e8e674f9d839449945cab60c01b6134ce565b6000808373ffffffffffffffffffffffffffffffffffffffff1673ffffffffffffffffffffffffffffffffffffffff16815260200190815260200160002060020160009054906101000a900460ff169050919050565b610ef86762590d6add00706060c01b613334565b610f0c67082d46af2af6d0e960c01b613334565b610f206727c63058f90a821360c01b613334565b6040518060400160405280600381526020017f31303200000000000000000000000000000000000000000000000000000000008152506040517f08c379a0000000000000000000000000000000000000000000000000000000008152600401610f899190615a8c565b60405180910390fd5b600060986000838152602001908152602001600020600101549050919050565b610fbb82610f92565b610fc4816134d1565b610fce83836134e5565b505050565b610fdb6133ff565b73ffffffffffffffffffffffffffffffffffffffff168173ffffffffffffffffffffffffffffffffffffffff1614611048576040517f08c379a000000000000000000000000000000000000000000000000000000000815260040161103f90615d8a565b60405180910390fd5b61105282826135c6565b5050565b7f000000000000000000000000000000000000000000000000000000000000000073ffffffffffffffffffffffffffffffffffffffff163073ffffffffffffffffffffffffffffffffffffffff1614156110e5576040517f08c379a00000000000000000000000000000000000000000000000000000000081526004016110dc90615b4e565b60405180910390fd5b7f000000000000000000000000000000000000000000000000000000000000000073ffffffffffffffffffffffffffffffffffffffff166111246136a8565b73ffffffffffffffffffffffffffffffffffffffff161461117a576040517f08c379a000000000000000000000000000000000000000000000000000000000815260040161117190615bae565b60405180910390fd5b611183816136ff565b61120281600067ffffffffffffffff8111156111c8577f4e487b7100000000000000000000000000000000000000000000000000000000600052604160045260246000fd5b6040519080825280601f01601f1916602001820160405280156111fa5781602001600182028036833780820191505090505b50600061374c565b50565b600061121b670956310fd06566cd60c01b613334565b7f97667070c54ef182b0f5858b034beac1b6f3089aa2d3188bb1e8929f4fa9b929611245816134d1565b61125967d3dc5d602404314360c01b613334565b61126d67f93752652b57fda160c01b613334565b6112816761658d08f3aed9f960c01b613334565b61129567ed3a0e877d7a61ba60c01b613334565b6112a9673c9e84b7efa50cce60c01b613334565b60006112b48b611d48565b146040518060400160405280600381526020017f31303000000000000000000000000000000000000000000000000000000000008152509061132c576040517f08c379a00000000000000000000000000000000000000000000000000000000081526004016113239190615a8c565b60405180910390fd5b506113416782a506ecba8b3e3660c01b613334565b6113556709758a2c9186cdc960c01b613334565b61136967eb47a0b425aa05fa60c01b613334565b61137d67cea4da29c53476a760c01b613334565b4285116040518060400160405280600381526020017f3130330000000000000000000000000000000000000000000000000000000000815250906113f7576040517f08c379a00000000000000000000000000000000000000000000000000000000081526004016113ee9190615a8c565b60405180910390fd5b5061140c67fb0eb89ec11ecc9a60c01b613334565b611420679bec0fbaf82459fe60c01b613334565b61143467b5e9978688c1f84060c01b613334565b61143f61012e6138c9565b61145367c972f5a40165ec3e60c01b613334565b6040518060a0016040528061146961012e6134c0565b81526020018a8a8080601f016020809104026020016040519081016040528093929190818152602001838380828437600081840152601f19601f8201169050808301925050505050505081526020018860ff1681526020018760ff168152602001868152506000808c73ffffffffffffffffffffffffffffffffffffffff1673ffffffffffffffffffffffffffffffffffffffff168152602001908152602001600020600082015181600001556020820151816001019080519060200190611532929190614c46565b5060408201518160020160006101000a81548160ff021916908360ff16021790555060608201518160020160016101000a81548160ff021916908360ff1602179055506080820151816003015590505061159667fc195f73a047bb4e60c01b613334565b6115aa67e3169663323ecdc660c01b613334565b6115be8a6115b961012e6134c0565b6138df565b6115d267093fce267e58b39060c01b613334565b838361013160006115e461012e6134c0565b815260200190815260200160002091906115ff929190614ccc565b50611614674b069043e127c18560c01b613334565b61161f61012e6134c0565b61013060008c73ffffffffffffffffffffffffffffffffffffffff1673ffffffffffffffffffffffffffffffffffffffff1681526020019081526020016000208190555061167767243f9099585693e060c01b613334565b61168b677da896f8bf1cc3cf60c01b613334565b61012f60009054906101000a900473ffffffffffffffffffffffffffffffffffffffff1673ffffffffffffffffffffffffffffffffffffffff16632f7f0a128b6040518263ffffffff1660e01b81526004016116e791906159fa565b600060405180830381600087803b15801561170157600080fd5b505af1158015611715573d6000803e3d6000fd5b5050505061172d67cccd7a33d4b9fa1060c01b613334565b61174167d40c81e56e7696d860c01b613334565b61174c61012e6134c0565b8a73ffffffffffffffffffffffffffffffffffffffff167fae1b84af5e96bd9fa84e791c6b59125d1c17f73ef00e5a9d1fd8c0cc41e0489660405160405180910390a36117a367dc6f840eb155df4c60c01b613334565b6117b767d146a42f7b963b6c60c01b613334565b6117c261012e6134c0565b91505098975050505050505050565b6117e56754ffdbd468219e9660c01b613334565b6117f9677647c4bc02b8e54e60c01b613334565b61180d67ae1d078a9d37a4b260c01b613334565b6040518060400160405280600381526020017f31303200000000000000000000000000000000000000000000000000000000008152506040517f08c379a00000000000000000000000000000000000000000000000000000000081526004016118769190615a8c565b60405180910390fd5b7f000000000000000000000000000000000000000000000000000000000000000073ffffffffffffffffffffffffffffffffffffffff163073ffffffffffffffffffffffffffffffffffffffff16141561190e576040517f08c379a000000000000000000000000000000000000000000000000000000000815260040161190590615b4e565b60405180910390fd5b7f000000000000000000000000000000000000000000000000000000000000000073ffffffffffffffffffffffffffffffffffffffff1661194d6136a8565b73ffffffffffffffffffffffffffffffffffffffff16146119a3576040517f08c379a000000000000000000000000000000000000000000000000000000000815260040161199a90615bae565b60405180910390fd5b6119ac826136ff565b6119b88282600161374c565b5050565b60007f000000000000000000000000000000000000000000000000000000000000000073ffffffffffffffffffffffffffffffffffffffff163073ffffffffffffffffffffffffffffffffffffffff1614611a4c576040517f08c379a0000000000000000000000000000000000000000000000000000000008152600401611a4390615bce565b60405180910390fd5b7f360894a13ba1a3210667c828492db98dca3e2076cc3735a920a3ca505d382bbc60001b905090565b600080611a81836138fd565b9050600073ffffffffffffffffffffffffffffffffffffffff168173ffffffffffffffffffffffffffffffffffffffff161415611af3576040517f08c379a0000000000000000000000000000000000000000000000000000000008152600401611aea90615cae565b60405180910390fd5b80915050919050565b6000602052806000526040600020600091509050806000015490806001018054611b25906160dc565b80601f0160208091040260200160405190810160405280929190818152602001828054611b51906160dc565b8015611b9e5780601f10611b7357610100808354040283529160200191611b9e565b820191906000526020600020905b815481529060010190602001808311611b8157829003601f168201915b5050505050908060020160009054906101000a900460ff16908060020160019054906101000a900460ff16908060030154905085565b611bdc614d52565b611bf0678420dd018e3ed1a260c01b6133fc565b611c046755a4e72e54d4a35560c01b6133fc565b611c1867216e60ddb2fb734860c01b6133fc565b6000808373ffffffffffffffffffffffffffffffffffffffff1673ffffffffffffffffffffffffffffffffffffffff1681526020019081526020016000206040518060a001604052908160008201548152602001600182018054611c7b906160dc565b80601f0160208091040260200160405190810160405280929190818152602001828054611ca7906160dc565b8015611cf45780601f10611cc957610100808354040283529160200191611cf4565b820191906000526020600020905b815481529060010190602001808311611cd757829003601f168201915b505050505081526020016002820160009054906101000a900460ff1660ff1660ff1681526020016002820160019054906101000a900460ff1660ff1660ff1681526020016003820154815250509050919050565b60008073ffffffffffffffffffffffffffffffffffffffff168273ffffffffffffffffffffffffffffffffffffffff161415611db9576040517f08c379a0000000000000000000000000000000000000000000000000000000008152600401611db090615bee565b60405180910390fd5b606960008373ffffffffffffffffffffffffffffffffffffffff1673ffffffffffffffffffffffffffffffffffffffff168152602001908152602001600020549050919050565b611e14671883163a153128bc60c01b613334565b7f97667070c54ef182b0f5858b034beac1b6f3089aa2d3188bb1e8929f4fa9b929611e3e816134d1565b611e52672e22adec88faa4e960c01b613334565b611e6667332cd9e58174c79b60c01b613334565b611e7a67f51dc90604f812b460c01b613334565b611e8e67c5acc4d33c6c9be560c01b613334565b61012f60009054906101000a900473ffffffffffffffffffffffffffffffffffffffff1673ffffffffffffffffffffffffffffffffffffffff166384b7a84a8560016040518363ffffffff1660e01b8152600401611eed929190615d0e565b600060405180830381600087803b158015611f0757600080fd5b505af1158015611f1b573d6000803e3d6000fd5b50505050611f33676a18f9ca1823016a60c01b613334565b611f476789e3dfc1996b87a160c01b613334565b8282604051611f57929190615940565b60405180910390208473ffffffffffffffffffffffffffffffffffffffff167f3347b0049117ab94fddf6cff81cc554c4f7489acedc7c33907a96655770e58ae60405160405180910390a350505050565b611fbc67967589d7ab174afc60c01b613334565b7f97667070c54ef182b0f5858b034beac1b6f3089aa2d3188bb1e8929f4fa9b929611fe6816134d1565b611ffa67f5dabda735d6230b60c01b613334565b61200e67cfbdbd14ea70c18960c01b613334565b612022670e894815cb1587f660c01b613334565b61203667a1427b684ba1107960c01b613334565b61204a6720bdcac9aa05193660c01b613334565b60016120558a611d48565b146040518060400160405280600381526020017f3130310000000000000000000000000000000000000000000000000000000000815250906120cd576040517f08c379a00000000000000000000000000000000000000000000000000000000081526004016120c49190615a8c565b60405180910390fd5b506120e267ce81be1dc86cf1b960c01b613334565b6120f66758e6026e0c90f46d60c01b613334565b61210a6737c927149839212660c01b613334565b60008060008b73ffffffffffffffffffffffffffffffffffffffff1673ffffffffffffffffffffffffffffffffffffffff16815260200190815260200160002060000154905061216467b7b2e8036abaf9fa60c01b613334565b6040518060a001604052808281526020018a8a8080601f016020809104026020016040519081016040528093929190818152602001838380828437600081840152601f19601f8201169050808301925050505050505081526020018860ff1681526020018760ff168152602001868152506000808c73ffffffffffffffffffffffffffffffffffffffff1673ffffffffffffffffffffffffffffffffffffffff168152602001908152602001600020600082015181600001556020820151816001019080519060200190612239929190614c46565b5060408201518160020160006101000a81548160ff021916908360ff16021790555060608201518160020160016101000a81548160ff021916908360ff1602179055506080820151816003015590505061229d67d884d7a2e493b52d60c01b613334565b8383610131600084815260200190815260200160002091906122c0929190614ccc565b506122d56714ae4ff4824cc3cb60c01b613334565b6122e96741e97fe671d34fa960c01b613334565b808a73ffffffffffffffffffffffffffffffffffffffff167f4a1e31466f875c6fcafefabf90bce8accdf53108c4a309106058ef7aefebd5ce60405160405180910390a350505050505050505050565b60006098600084815260200190815260200160002060000160008373ffffffffffffffffffffffffffffffffffffffff1673ffffffffffffffffffffffffffffffffffffffff16815260200190815260200160002060009054906101000a900460ff16905092915050565b60006123ba67c5c511546c50c45160c01b6134ce565b6123ce6706dae439f14a554160c01b6134ce565b6123e267d9a43cd54b2554f860c01b6134ce565b6000808373ffffffffffffffffffffffffffffffffffffffff1673ffffffffffffffffffffffffffffffffffffffff1681526020019081526020016000206003015442106124d85761243e67b80c4d30135ffecc60c01b6134ce565b61245267e7400f8588b3b9fd60c01b6134ce565b61246667218e4aadc28bad5460c01b6134ce565b6040518060400160405280600381526020017f31303300000000000000000000000000000000000000000000000000000000008152506040517f08c379a00000000000000000000000000000000000000000000000000000000081526004016124cf9190615a8c565b60405180910390fd5b6124ec6709e2c5a8a6db9e6460c01b6134ce565b61250067a46d03d2c5d0aae460c01b6134ce565b6125146759e43ca1959c0a4e60c01b6134ce565b6000808373ffffffffffffffffffffffffffffffffffffffff1673ffffffffffffffffffffffffffffffffffffffff16815260200190815260200160002060020160019054906101000a900460ff169050919050565b606060678054612579906160dc565b80601f01602080910402602001604051908101604052809291908181526020018280546125a5906160dc565b80156125f25780601f106125c7576101008083540402835291602001916125f2565b820191906000526020600020905b8154815290600101906020018083116125d557829003601f168201915b5050505050905090565b606061261267bc73e24e23818fec60c01b6134ce565b612626673afbff51046f6dc960c01b6134ce565b61263a67dc0c995e8c89436c60c01b6134ce565b6000808373ffffffffffffffffffffffffffffffffffffffff1673ffffffffffffffffffffffffffffffffffffffff1681526020019081526020016000206003015442106127305761269667c8c8ce89cab65bb260c01b6134ce565b6126aa678a8a08e8027046c760c01b6134ce565b6126be6791c41a347ba64e9660c01b6134ce565b6040518060400160405280600381526020017f31303300000000000000000000000000000000000000000000000000000000008152506040517f08c379a00000000000000000000000000000000000000000000000000000000081526004016127279190615a8c565b60405180910390fd5b612744679881f450aa1ce9eb60c01b6134ce565b61275867312e0ffaf24bb87460c01b6134ce565b61276c67c78863f958234bc560c01b6134ce565b6000808373ffffffffffffffffffffffffffffffffffffffff1673ffffffffffffffffffffffffffffffffffffffff16815260200190815260200160002060010180546127b8906160dc565b80601f01602080910402602001604051908101604052809291908181526020018280546127e4906160dc565b80156128315780601f1061280657610100808354040283529160200191612831565b820191906000526020600020905b81548152906001019060200180831161281457829003601f168201915b50505050509050919050565b6000801b81565b61285661284f6133ff565b838361393a565b5050565b60006128706739ec579a6c67c80e60c01b613aa7565b6128846792d60679391b87e860c01b613aa7565b61289867bd855aee701b278060c01b613aa7565b6000808373ffffffffffffffffffffffffffffffffffffffff1673ffffffffffffffffffffffffffffffffffffffff16815260200190815260200160002060020160009054906101000a900460ff169050919050565b6128ff6128f96133ff565b83613aaa565b61293e576040517f08c379a000000000000000000000000000000000000000000000000000000000815260040161293590615ace565b60405180910390fd5b61294a84848484613b3f565b50505050565b61296467ed3c87f1900780b160c01b613334565b600060018054906101000a900460ff16159050808015612995575060018060009054906101000a900460ff1660ff16105b806129c357506129a430613b9b565b1580156129c2575060018060009054906101000a900460ff1660ff16145b5b612a02576040517f08c379a00000000000000000000000000000000000000000000000000000000081526004016129f990615c2e565b60405180910390fd5b60018060006101000a81548160ff021916908360ff1602179055508015612a3e5760018060016101000a81548160ff0219169083151502179055505b612a5267270af8f819bac62d60c01b613334565b612a66674c082c8f4167302160c01b613334565b612a7a676e38d6c81f9cab4560c01b613334565b612a8e67508b6bb5de8f3fbc60c01b613334565b612a96613bbe565b612aaa67e9a8f8fb83dc431760c01b613334565b612abe6767eb0c282638a7f860c01b613334565b612b326040518060400160405280601181526020017f50726f6f66206f66204964656e746974790000000000000000000000000000008152506040518060400160405280600581526020017f48312d4944000000000000000000000000000000000000000000000000000000815250613c0d565b612b4667be8f3cc64b37fc8660c01b613334565b612b5a67f395fc16c3fbe06660c01b613334565b612b62613c68565b612b76679bbbaef6a682f66360c01b613334565b8361012f60006101000a81548173ffffffffffffffffffffffffffffffffffffffff021916908373ffffffffffffffffffffffffffffffffffffffff160217905550612bcc67ee7e50a6420af52a60c01b613334565b612be0670d909d8ca32fd99460c01b613334565b612bed6000801b846134e5565b612c016782dc340fd2ce7a3c60c01b613334565b612c1567b936a459d9cceeb460c01b613334565b612c3f7f97667070c54ef182b0f5858b034beac1b6f3089aa2d3188bb1e8929f4fa9b929836134e5565b8015612c985760006001806101000a81548160ff0219169083151502179055507f7f26b83ff96e1f2b6a682f133852f6798a09c465da95921460cefb38474024986001604051612c8f9190615a71565b60405180910390a15b50505050565b6000612cb467b501f3a83b16752260c01b613aa7565b612cc8673a22c2818bb20d1a60c01b613aa7565b612cdc67fbb2d96654b535de60c01b613aa7565b6000808373ffffffffffffffffffffffffffffffffffffffff1673ffffffffffffffffffffffffffffffffffffffff16815260200190815260200160002060020160019054906101000a900460ff169050919050565b6060612d4867aa04d3478398cf6f60c01b613334565b612d5c6724081be78105f81f60c01b613334565b612d7067d676a7130c06d07e60c01b613334565b612d8467d9fa80327e35d49360c01b613334565b612d8d82613cb7565b6040518060400160405280600381526020017f313031000000000000000000000000000000000000000000000000000000000081525090612e04576040517f08c379a0000000000000000000000000000000000000000000000000000000008152600401612dfb9190615a8c565b60405180910390fd5b50612e19677d940d36bbca069960c01b613334565b612e2d671db7405e319f6de060c01b613334565b612e416783497ce10971c48260c01b613334565b61013160008381526020019081526020016000208054612e60906160dc565b80601f0160208091040260200160405190810160405280929190818152602001828054612e8c906160dc565b8015612ed95780601f10612eae57610100808354040283529160200191612ed9565b820191906000526020600020905b815481529060010190602001808311612ebc57829003601f168201915b50505050509050919050565b612eee82610f92565b612ef7816134d1565b612f0183836135c6565b505050565b6060612f1c679561272df2bf34be60c01b613aa7565b612f306732c39d4afc3889c160c01b613aa7565b612f4467dae6db8ba31c013c60c01b613aa7565b6000808373ffffffffffffffffffffffffffffffffffffffff1673ffffffffffffffffffffffffffffffffffffffff1681526020019081526020016000206001018054612f90906160dc565b80601f0160208091040260200160405190810160405280929190818152602001828054612fbc906160dc565b80156130095780601f10612fde57610100808354040283529160200191613009565b820191906000526020600020905b815481529060010190602001808311612fec57829003601f168201915b50505050509050919050565b6000606b60008473ffffffffffffffffffffffffffffffffffffffff1673ffffffffffffffffffffffffffffffffffffffff16815260200190815260200160002060008373ffffffffffffffffffffffffffffffffffffffff1673ffffffffffffffffffffffffffffffffffffffff16815260200190815260200160002060009054906101000a900460ff16905092915050565b7f97667070c54ef182b0f5858b034beac1b6f3089aa2d3188bb1e8929f4fa9b92981565b6130e167f5453776455ca0b660c01b613334565b7f97667070c54ef182b0f5858b034beac1b6f3089aa2d3188bb1e8929f4fa9b92961310b816134d1565b61311f67a8d44a96448253ef60c01b613334565b6131336771f2625500517a1960c01b613334565b61314767ba0150cf54235b5b60c01b613334565b61315b674ba6cb7dd2ddecb460c01b613334565b600061013060008673ffffffffffffffffffffffffffffffffffffffff1673ffffffffffffffffffffffffffffffffffffffff1681526020019081526020016000205490506131b4676b4efcc6cca0c3fd60c01b613334565b6131c867845d0b140a93c12560c01b613334565b6131dc6773ee7804a611c94760c01b613334565b6131e581613cb7565b6040518060400160405280600381526020017f31303100000000000000000000000000000000000000000000000000000000008152509061325c576040517f08c379a00000000000000000000000000000000000000000000000000000000081526004016132539190615a8c565b60405180910390fd5b50613271674261c4441178f68f60c01b613334565b61328567147b0824d5c52d1e60c01b613334565b8383610131600084815260200190815260200160002091906132a8929190614ccc565b506132bd67ac09fd51df6bbb5460c01b613334565b6132d1679dac79938abcf8d060c01b613334565b83836040516132e1929190615940565b6040518091039020818673ffffffffffffffffffffffffffffffffffffffff167fe3a3e1a0be0d562dd7ec739509d30dfbca7cd174fbc576a45746fe1f3b277c2660405160405180910390a45050505050565b50565b60007f7965db0b000000000000000000000000000000000000000000000000000000007bffffffffffffffffffffffffffffffffffffffffffffffffffffffff1916827bffffffffffffffffffffffffffffffffffffffffffffffffffffffff191614806133aa57506133a982613cf8565b5b9050919050565b6133ba81613cb7565b6133f9576040517f08c379a00000000000000000000000000000000000000000000000000000000081526004016133f090615cae565b60405180910390fd5b50565b50565b600033905090565b81606a600083815260200190815260200160002060006101000a81548173ffffffffffffffffffffffffffffffffffffffff021916908373ffffffffffffffffffffffffffffffffffffffff160217905550808273ffffffffffffffffffffffffffffffffffffffff1661347a83611a75565b73ffffffffffffffffffffffffffffffffffffffff167f8c5be1e5ebec7d5bd14f71427d1e84f3dd0314c0f7b2291e5b200ac8c7c3b92560405160405180910390a45050565b600081600001549050919050565b50565b6134e2816134dd6133ff565b613dda565b50565b6134ef8282612339565b6135c25760016098600084815260200190815260200160002060000160008373ffffffffffffffffffffffffffffffffffffffff1673ffffffffffffffffffffffffffffffffffffffff16815260200190815260200160002060006101000a81548160ff0219169083151502179055506135676133ff565b73ffffffffffffffffffffffffffffffffffffffff168173ffffffffffffffffffffffffffffffffffffffff16837f2f8788117e7eff1d82e926ec794901d17c78024a50270940304540a733656f0d60405160405180910390a45b5050565b6135d08282612339565b156136a45760006098600084815260200190815260200160002060000160008373ffffffffffffffffffffffffffffffffffffffff1673ffffffffffffffffffffffffffffffffffffffff16815260200190815260200160002060006101000a81548160ff0219169083151502179055506136496133ff565b73ffffffffffffffffffffffffffffffffffffffff168173ffffffffffffffffffffffffffffffffffffffff16837ff6391f5c32d9c69d2a47ea670b442974b53935d1edc7fd64eb21e047a839171b60405160405180910390a45b5050565b60006136d67f360894a13ba1a3210667c828492db98dca3e2076cc3735a920a3ca505d382bbc60001b613e5f565b60000160009054906101000a900473ffffffffffffffffffffffffffffffffffffffff16905090565b61371367c14dcc5b17171cc360c01b613334565b6000801b613720816134d1565b61373467757533c26d9deca160c01b613334565b613748677ab62c3941758f0660c01b613334565b5050565b6137787f4910fdfa16fed3260ed0e7147f7cc6da11a60208b5b9406d12a635614ffd914360001b613e69565b60000160009054906101000a900460ff161561379c5761379783613e73565b6138c4565b8273ffffffffffffffffffffffffffffffffffffffff166352d1902d6040518163ffffffff1660e01b815260040160206040518083038186803b1580156137e257600080fd5b505afa92505050801561381357506040513d601f19601f82011682018060405250810190613810919061528c565b60015b613852576040517f08c379a000000000000000000000000000000000000000000000000000000000815260040161384990615c6e565b60405180910390fd5b7f360894a13ba1a3210667c828492db98dca3e2076cc3735a920a3ca505d382bbc60001b81146138b7576040517f08c379a00000000000000000000000000000000000000000000000000000000081526004016138ae90615c0e565b60405180910390fd5b506138c3838383613f2c565b5b505050565b6001816000016000828254019250508190555050565b6138f9828260405180602001604052806000815250613f58565b5050565b60006068600083815260200190815260200160002060009054906101000a900473ffffffffffffffffffffffffffffffffffffffff169050919050565b8173ffffffffffffffffffffffffffffffffffffffff168373ffffffffffffffffffffffffffffffffffffffff1614156139a9576040517f08c379a00000000000000000000000000000000000000000000000000000000081526004016139a090615b8e565b60405180910390fd5b80606b60008573ffffffffffffffffffffffffffffffffffffffff1673ffffffffffffffffffffffffffffffffffffffff16815260200190815260200160002060008473ffffffffffffffffffffffffffffffffffffffff1673ffffffffffffffffffffffffffffffffffffffff16815260200190815260200160002060006101000a81548160ff0219169083151502179055508173ffffffffffffffffffffffffffffffffffffffff168373ffffffffffffffffffffffffffffffffffffffff167f17307eab39ab6107e8899845ad3d59bd9653f200f220920489ca2b5937696c3183604051613a9a9190615a3b565b60405180910390a3505050565b50565b600080613ab683611a75565b90508073ffffffffffffffffffffffffffffffffffffffff168473ffffffffffffffffffffffffffffffffffffffff161480613af85750613af78185613015565b5b80613b3657508373ffffffffffffffffffffffffffffffffffffffff16613b1e84610aeb565b73ffffffffffffffffffffffffffffffffffffffff16145b91505092915050565b613b4a848484613fb3565b613b56848484846142ad565b613b95576040517f08c379a0000000000000000000000000000000000000000000000000000000008152600401613b8c90615aee565b60405180910390fd5b50505050565b6000808273ffffffffffffffffffffffffffffffffffffffff163b119050919050565b60018054906101000a900460ff16613c0b576040517f08c379a0000000000000000000000000000000000000000000000000000000008152600401613c0290615d6a565b60405180910390fd5b565b60018054906101000a900460ff16613c5a576040517f08c379a0000000000000000000000000000000000000000000000000000000008152600401613c5190615d6a565b60405180910390fd5b613c648282614444565b5050565b60018054906101000a900460ff16613cb5576040517f08c379a0000000000000000000000000000000000000000000000000000000008152600401613cac90615d6a565b60405180910390fd5b565b60008073ffffffffffffffffffffffffffffffffffffffff16613cd9836138fd565b73ffffffffffffffffffffffffffffffffffffffff1614159050919050565b60007f80ac58cd000000000000000000000000000000000000000000000000000000007bffffffffffffffffffffffffffffffffffffffffffffffffffffffff1916827bffffffffffffffffffffffffffffffffffffffffffffffffffffffff19161480613dc357507f5b5e139f000000000000000000000000000000000000000000000000000000007bffffffffffffffffffffffffffffffffffffffffffffffffffffffff1916827bffffffffffffffffffffffffffffffffffffffffffffffffffffffff1916145b80613dd35750613dd2826144c3565b5b9050919050565b613de48282612339565b613e5b57613df18161452d565b613dff8360001c602061455a565b604051602001613e10929190615959565b6040516020818303038152906040526040517f08c379a0000000000000000000000000000000000000000000000000000000008152600401613e529190615a8c565b60405180910390fd5b5050565b6000819050919050565b6000819050919050565b613e7c81613b9b565b613ebb576040517f08c379a0000000000000000000000000000000000000000000000000000000008152600401613eb290615c8e565b60405180910390fd5b80613ee87f360894a13ba1a3210667c828492db98dca3e2076cc3735a920a3ca505d382bbc60001b613e5f565b60000160006101000a81548173ffffffffffffffffffffffffffffffffffffffff021916908373ffffffffffffffffffffffffffffffffffffffff16021790555050565b613f3583614854565b600082511180613f425750805b15613f5357613f5183836148a3565b505b505050565b613f6283836148d0565b613f6f60008484846142ad565b613fae576040517f08c379a0000000000000000000000000000000000000000000000000000000008152600401613fa590615aee565b60405180910390fd5b505050565b8273ffffffffffffffffffffffffffffffffffffffff16613fd382611a75565b73ffffffffffffffffffffffffffffffffffffffff1614614029576040517f08c379a000000000000000000000000000000000000000000000000000000000815260040161402090615b0e565b60405180910390fd5b600073ffffffffffffffffffffffffffffffffffffffff168273ffffffffffffffffffffffffffffffffffffffff161415614099576040517f08c379a000000000000000000000000000000000000000000000000000000000815260040161409090615b6e565b60405180910390fd5b6140a68383836001614aee565b8273ffffffffffffffffffffffffffffffffffffffff166140c682611a75565b73ffffffffffffffffffffffffffffffffffffffff161461411c576040517f08c379a000000000000000000000000000000000000000000000000000000000815260040161411390615b0e565b60405180910390fd5b606a600082815260200190815260200160002060006101000a81549073ffffffffffffffffffffffffffffffffffffffff02191690556001606960008573ffffffffffffffffffffffffffffffffffffffff1673ffffffffffffffffffffffffffffffffffffffff168152602001908152602001600020600082825403925050819055506001606960008473ffffffffffffffffffffffffffffffffffffffff1673ffffffffffffffffffffffffffffffffffffffff16815260200190815260200160002060008282540192505081905550816068600083815260200190815260200160002060006101000a81548173ffffffffffffffffffffffffffffffffffffffff021916908373ffffffffffffffffffffffffffffffffffffffff160217905550808273ffffffffffffffffffffffffffffffffffffffff168473ffffffffffffffffffffffffffffffffffffffff167fddf252ad1be2c89b69c2b068fc378daa952ba7f163c4a11628f55a4df523b3ef60405160405180910390a46142a88383836001614af4565b505050565b60006142ce8473ffffffffffffffffffffffffffffffffffffffff16613b9b565b15614437578373ffffffffffffffffffffffffffffffffffffffff1663150b7a026142f76133ff565b8786866040518563ffffffff1660e01b815260040161431994939291906159ae565b602060405180830381600087803b15801561433357600080fd5b505af192505050801561436457506040513d601f19601f82011682018060405250810190614361919061531a565b60015b6143e7573d8060008114614394576040519150601f19603f3d011682016040523d82523d6000602084013e614399565b606091505b506000815114156143df576040517f08c379a00000000000000000000000000000000000000000000000000000000081526004016143d690615aee565b60405180910390fd5b805181602001fd5b63150b7a0260e01b7bffffffffffffffffffffffffffffffffffffffffffffffffffffffff1916817bffffffffffffffffffffffffffffffffffffffffffffffffffffffff19161491505061443c565b600190505b949350505050565b60018054906101000a900460ff16614491576040517f08c379a000000000000000000000000000000000000000000000000000000000815260040161448890615d6a565b60405180910390fd5b81606690805190602001906144a7929190614c46565b5080606790805190602001906144be929190614c46565b505050565b60007f01ffc9a7000000000000000000000000000000000000000000000000000000007bffffffffffffffffffffffffffffffffffffffffffffffffffffffff1916827bffffffffffffffffffffffffffffffffffffffffffffffffffffffff1916149050919050565b60606145538273ffffffffffffffffffffffffffffffffffffffff16601460ff1661455a565b9050919050565b60606000600283600261456d9190615f67565b6145779190615f11565b67ffffffffffffffff8111156145b6577f4e487b7100000000000000000000000000000000000000000000000000000000600052604160045260246000fd5b6040519080825280601f01601f1916602001820160405280156145e85781602001600182028036833780820191505090505b5090507f300000000000000000000000000000000000000000000000000000000000000081600081518110614646577f4e487b7100000000000000000000000000000000000000000000000000000000600052603260045260246000fd5b60200101907effffffffffffffffffffffffffffffffffffffffffffffffffffffffffffff1916908160001a9053507f7800000000000000000000000000000000000000000000000000000000000000816001815181106146d0577f4e487b7100000000000000000000000000000000000000000000000000000000600052603260045260246000fd5b60200101907effffffffffffffffffffffffffffffffffffffffffffffffffffffffffffff1916908160001a905350600060018460026147109190615f67565b61471a9190615f11565b90505b6001811115614806577f3031323334353637383961626364656600000000000000000000000000000000600f861660108110614782577f4e487b7100000000000000000000000000000000000000000000000000000000600052603260045260246000fd5b1a60f81b8282815181106147bf577f4e487b7100000000000000000000000000000000000000000000000000000000600052603260045260246000fd5b60200101907effffffffffffffffffffffffffffffffffffffffffffffffffffffffffffff1916908160001a905350600485901c9450806147ff906160b2565b905061471d565b506000841461484a576040517f08c379a000000000000000000000000000000000000000000000000000000000815260040161484190615aae565b60405180910390fd5b8091505092915050565b61485d81613e73565b8073ffffffffffffffffffffffffffffffffffffffff167fbc7cd75a20ee27fd9adebab32041f755214dbc6bffa90cc0225b39da2e5c2d3b60405160405180910390a250565b60606148c883836040518060600160405280602781526020016168f260279139614afa565b905092915050565b600073ffffffffffffffffffffffffffffffffffffffff168273ffffffffffffffffffffffffffffffffffffffff161415614940576040517f08c379a000000000000000000000000000000000000000000000000000000000815260040161493790615c4e565b60405180910390fd5b61494981613cb7565b15614989576040517f08c379a000000000000000000000000000000000000000000000000000000000815260040161498090615b2e565b60405180910390fd5b614997600083836001614aee565b6149a081613cb7565b156149e0576040517f08c379a00000000000000000000000000000000000000000000000000000000081526004016149d790615b2e565b60405180910390fd5b6001606960008473ffffffffffffffffffffffffffffffffffffffff1673ffffffffffffffffffffffffffffffffffffffff16815260200190815260200160002060008282540192505081905550816068600083815260200190815260200160002060006101000a81548173ffffffffffffffffffffffffffffffffffffffff021916908373ffffffffffffffffffffffffffffffffffffffff160217905550808273ffffffffffffffffffffffffffffffffffffffff16600073ffffffffffffffffffffffffffffffffffffffff167fddf252ad1be2c89b69c2b068fc378daa952ba7f163c4a11628f55a4df523b3ef60405160405180910390a4614aea600083836001614af4565b5050565b50505050565b50505050565b60606000808573ffffffffffffffffffffffffffffffffffffffff1685604051614b249190615929565b600060405180830381855af49150503d8060008114614b5f576040519150601f19603f3d011682016040523d82523d6000602084013e614b64565b606091505b5091509150614b7586838387614b80565b925050509392505050565b60608315614be357600083511415614bdb57614b9b85613b9b565b614bda576040517f08c379a0000000000000000000000000000000000000000000000000000000008152600401614bd190615d4a565b60405180910390fd5b5b829050614bee565b614bed8383614bf6565b5b949350505050565b600082511115614c095781518083602001fd5b806040517f08c379a0000000000000000000000000000000000000000000000000000000008152600401614c3d9190615a8c565b60405180910390fd5b828054614c52906160dc565b90600052602060002090601f016020900481019282614c745760008555614cbb565b82601f10614c8d57805160ff1916838001178555614cbb565b82800160010185558215614cbb579182015b82811115614cba578251825591602001919060010190614c9f565b5b509050614cc89190614d87565b5090565b828054614cd8906160dc565b90600052602060002090601f016020900481019282614cfa5760008555614d41565b82601f10614d1357803560ff1916838001178555614d41565b82800160010185558215614d41579182015b82811115614d40578235825591602001919060010190614d25565b5b509050614d4e9190614d87565b5090565b6040518060a001604052806000815260200160608152602001600060ff168152602001600060ff168152602001600081525090565b5b80821115614da0576000816000905550600101614d88565b5090565b6000614db7614db284615e81565b615e5c565b905082815260208101848484011115614dcf57600080fd5b614dda848285616070565b509392505050565b600081359050614df181616867565b92915050565b600081359050614e068161687e565b92915050565b600081359050614e1b81616895565b92915050565b600081519050614e3081616895565b92915050565b600081359050614e45816168ac565b92915050565b600081519050614e5a816168ac565b92915050565b600082601f830112614e7157600080fd5b8135614e81848260208601614da4565b91505092915050565b60008083601f840112614e9c57600080fd5b8235905067ffffffffffffffff811115614eb557600080fd5b602083019150836001820283011115614ecd57600080fd5b9250929050565b600081359050614ee3816168c3565b92915050565b600081359050614ef8816168da565b92915050565b600060208284031215614f1057600080fd5b6000614f1e84828501614de2565b91505092915050565b60008060408385031215614f3a57600080fd5b6000614f4885828601614de2565b9250506020614f5985828601614de2565b9150509250929050565b600080600060608486031215614f7857600080fd5b6000614f8686828701614de2565b9350506020614f9786828701614de2565b9250506040614fa886828701614de2565b9150509250925092565b600080600060608486031215614fc757600080fd5b6000614fd586828701614de2565b9350506020614fe686828701614de2565b9250506040614ff786828701614ed4565b9150509250925092565b6000806000806080858703121561501757600080fd5b600061502587828801614de2565b945050602061503687828801614de2565b935050604061504787828801614ed4565b925050606085013567ffffffffffffffff81111561506457600080fd5b61507087828801614e60565b91505092959194509250565b6000806040838503121561508f57600080fd5b600061509d85828601614de2565b92505060206150ae85828601614df7565b9150509250929050565b600080604083850312156150cb57600080fd5b60006150d985828601614de2565b925050602083013567ffffffffffffffff8111156150f657600080fd5b61510285828601614e60565b9150509250929050565b60008060006040848603121561512157600080fd5b600061512f86828701614de2565b935050602084013567ffffffffffffffff81111561514c57600080fd5b61515886828701614e8a565b92509250509250925092565b60008060008060008060008060c0898b03121561518057600080fd5b600061518e8b828c01614de2565b985050602089013567ffffffffffffffff8111156151ab57600080fd5b6151b78b828c01614e8a565b975097505060406151ca8b828c01614ee9565b95505060606151db8b828c01614ee9565b94505060806151ec8b828c01614ed4565b93505060a089013567ffffffffffffffff81111561520957600080fd5b6152158b828c01614e8a565b92509250509295985092959890939650565b6000806040838503121561523a57600080fd5b600061524885828601614de2565b925050602061525985828601614ed4565b9150509250929050565b60006020828403121561527557600080fd5b600061528384828501614e0c565b91505092915050565b60006020828403121561529e57600080fd5b60006152ac84828501614e21565b91505092915050565b600080604083850312156152c857600080fd5b60006152d685828601614e0c565b92505060206152e785828601614de2565b9150509250929050565b60006020828403121561530357600080fd5b600061531184828501614e36565b91505092915050565b60006020828403121561532c57600080fd5b600061533a84828501614e4b565b91505092915050565b60006020828403121561535557600080fd5b600061536384828501614ed4565b91505092915050565b61537581615fc1565b82525050565b61538481615fd3565b82525050565b61539381615fdf565b82525050565b60006153a482615eb2565b6153ae8185615ec8565b93506153be81856020860161607f565b6153c7816161cc565b840191505092915050565b60006153dd82615eb2565b6153e78185615ed9565b93506153f781856020860161607f565b80840191505092915050565b61540c8161604c565b82525050565b61541b8161605e565b82525050565b600061542d8385615f06565b935061543a838584616070565b82840190509392505050565b600061545182615ebd565b61545b8185615ee4565b935061546b81856020860161607f565b615474816161cc565b840191505092915050565b600061548a82615ebd565b6154948185615ef5565b93506154a481856020860161607f565b6154ad816161cc565b840191505092915050565b60006154c382615ebd565b6154cd8185615f06565b93506154dd81856020860161607f565b80840191505092915050565b60006154f6602083615ef5565b9150615501826161dd565b602082019050919050565b6000615519600683615ef5565b915061552482616206565b602082019050919050565b600061553c602d83615ef5565b91506155478261622f565b604082019050919050565b600061555f603283615ef5565b915061556a8261627e565b604082019050919050565b6000615582602583615ef5565b915061558d826162cd565b604082019050919050565b60006155a5601c83615ef5565b91506155b08261631c565b602082019050919050565b60006155c8602c83615ef5565b91506155d382616345565b604082019050919050565b60006155eb602483615ef5565b91506155f682616394565b604082019050919050565b600061560e601983615ef5565b9150615619826163e3565b602082019050919050565b6000615631602c83615ef5565b915061563c8261640c565b604082019050919050565b6000615654603883615ef5565b915061565f8261645b565b604082019050919050565b6000615677602983615ef5565b9150615682826164aa565b604082019050919050565b600061569a602983615ef5565b91506156a5826164f9565b604082019050919050565b60006156bd602e83615ef5565b91506156c882616548565b604082019050919050565b60006156e0602083615ef5565b91506156eb82616597565b602082019050919050565b6000615703602e83615ef5565b915061570e826165c0565b604082019050919050565b6000615726602d83615ef5565b91506157318261660f565b604082019050919050565b6000615749601883615ef5565b91506157548261665e565b602082019050919050565b600061576c602183615ef5565b915061577782616687565b604082019050919050565b600061578f603d83615ef5565b915061579a826166d6565b604082019050919050565b60006157b2600683615ef5565b91506157bd82616725565b602082019050919050565b60006157d5601d83615ef5565b91506157e08261674e565b602082019050919050565b60006157f8602b83615ef5565b915061580382616777565b604082019050919050565b600061581b601783615f06565b9150615826826167c6565b601782019050919050565b600061583e601183615f06565b9150615849826167ef565b601182019050919050565b6000615861602f83615ef5565b915061586c82616818565b604082019050919050565b600060a08301600083015161588f60008601826158ed565b50602083015184820360208601526158a78282615446565b91505060408301516158bc604086018261590b565b5060608301516158cf606086018261590b565b5060808301516158e260808601826158ed565b508091505092915050565b6158f681616035565b82525050565b61590581616035565b82525050565b6159148161603f565b82525050565b6159238161603f565b82525050565b600061593582846153d2565b915081905092915050565b600061594d828486615421565b91508190509392505050565b60006159648261580e565b915061597082856154b8565b915061597b82615831565b915061598782846154b8565b91508190509392505050565b60006020820190506159a8600083018461536c565b92915050565b60006080820190506159c3600083018761536c565b6159d0602083018661536c565b6159dd60408301856158fc565b81810360608301526159ef8184615399565b905095945050505050565b6000606082019050615a0f600083018461536c565b8181036020830152615a20816157a5565b90508181036040830152615a338161550c565b905092915050565b6000602082019050615a50600083018461537b565b92915050565b6000602082019050615a6b600083018461538a565b92915050565b6000602082019050615a866000830184615412565b92915050565b60006020820190508181036000830152615aa6818461547f565b905092915050565b60006020820190508181036000830152615ac7816154e9565b9050919050565b60006020820190508181036000830152615ae78161552f565b9050919050565b60006020820190508181036000830152615b0781615552565b9050919050565b60006020820190508181036000830152615b2781615575565b9050919050565b60006020820190508181036000830152615b4781615598565b9050919050565b60006020820190508181036000830152615b67816155bb565b9050919050565b60006020820190508181036000830152615b87816155de565b9050919050565b60006020820190508181036000830152615ba781615601565b9050919050565b60006020820190508181036000830152615bc781615624565b9050919050565b60006020820190508181036000830152615be781615647565b9050919050565b60006020820190508181036000830152615c078161566a565b9050919050565b60006020820190508181036000830152615c278161568d565b9050919050565b60006020820190508181036000830152615c47816156b0565b9050919050565b60006020820190508181036000830152615c67816156d3565b9050919050565b60006020820190508181036000830152615c87816156f6565b9050919050565b60006020820190508181036000830152615ca781615719565b9050919050565b60006020820190508181036000830152615cc78161573c565b9050919050565b60006020820190508181036000830152615ce78161575f565b9050919050565b60006020820190508181036000830152615d0781615782565b9050919050565b60006060820190508181036000830152615d27816157a5565b9050615d36602083018561536c565b615d436040830184615403565b9392505050565b60006020820190508181036000830152615d63816157c8565b9050919050565b60006020820190508181036000830152615d83816157eb565b9050919050565b60006020820190508181036000830152615da381615854565b9050919050565b60006020820190508181036000830152615dc48184615877565b905092915050565b6000602082019050615de160008301846158fc565b92915050565b600060a082019050615dfc60008301886158fc565b8181036020830152615e0e818761547f565b9050615e1d604083018661591a565b615e2a606083018561591a565b615e3760808301846158fc565b9695505050505050565b6000602082019050615e56600083018461591a565b92915050565b6000615e66615e77565b9050615e72828261610e565b919050565b6000604051905090565b600067ffffffffffffffff821115615e9c57615e9b61619d565b5b615ea5826161cc565b9050602081019050919050565b600081519050919050565b600081519050919050565b600082825260208201905092915050565b600081905092915050565b600082825260208201905092915050565b600082825260208201905092915050565b600081905092915050565b6000615f1c82616035565b9150615f2783616035565b9250827fffffffffffffffffffffffffffffffffffffffffffffffffffffffffffffffff03821115615f5c57615f5b61613f565b5b828201905092915050565b6000615f7282616035565b9150615f7d83616035565b9250817fffffffffffffffffffffffffffffffffffffffffffffffffffffffffffffffff0483118215151615615fb657615fb561613f565b5b828202905092915050565b6000615fcc82616015565b9050919050565b60008115159050919050565b6000819050919050565b60007fffffffff0000000000000000000000000000000000000000000000000000000082169050919050565b600073ffffffffffffffffffffffffffffffffffffffff82169050919050565b6000819050919050565b600060ff82169050919050565b600061605782616035565b9050919050565b60006160698261603f565b9050919050565b82818337600083830152505050565b60005b8381101561609d578082015181840152602081019050616082565b838111156160ac576000848401525b50505050565b60006160bd82616035565b915060008214156160d1576160d061613f565b5b600182039050919050565b600060028204905060018216806160f457607f821691505b602082108114156161085761610761616e565b5b50919050565b616117826161cc565b810181811067ffffffffffffffff821117156161365761613561619d565b5b80604052505050565b7f4e487b7100000000000000000000000000000000000000000000000000000000600052601160045260246000fd5b7f4e487b7100000000000000000000000000000000000000000000000000000000600052602260045260246000fd5b7f4e487b7100000000000000000000000000000000000000000000000000000000600052604160045260246000fd5b6000601f19601f8301169050919050565b7f537472696e67733a20686578206c656e67746820696e73756666696369656e74600082015250565b7f565443414c4c0000000000000000000000000000000000000000000000000000600082015250565b7f4552433732313a2063616c6c6572206973206e6f7420746f6b656e206f776e6560008201527f72206f7220617070726f76656400000000000000000000000000000000000000602082015250565b7f4552433732313a207472616e7366657220746f206e6f6e20455243373231526560008201527f63656976657220696d706c656d656e7465720000000000000000000000000000602082015250565b7f4552433732313a207472616e736665722066726f6d20696e636f72726563742060008201527f6f776e6572000000000000000000000000000000000000000000000000000000602082015250565b7f4552433732313a20746f6b656e20616c7265616479206d696e74656400000000600082015250565b7f46756e6374696f6e206d7573742062652063616c6c6564207468726f7567682060008201527f64656c656761746563616c6c0000000000000000000000000000000000000000602082015250565b7f4552433732313a207472616e7366657220746f20746865207a65726f2061646460008201527f7265737300000000000000000000000000000000000000000000000000000000602082015250565b7f4552433732313a20617070726f766520746f2063616c6c657200000000000000600082015250565b7f46756e6374696f6e206d7573742062652063616c6c6564207468726f7567682060008201527f6163746976652070726f78790000000000000000000000000000000000000000602082015250565b7f555550535570677261646561626c653a206d757374206e6f742062652063616c60008201527f6c6564207468726f7567682064656c656761746563616c6c0000000000000000602082015250565b7f4552433732313a2061646472657373207a65726f206973206e6f74206120766160008201527f6c6964206f776e65720000000000000000000000000000000000000000000000602082015250565b7f45524331393637557067726164653a20756e737570706f727465642070726f7860008201527f6961626c65555549440000000000000000000000000000000000000000000000602082015250565b7f496e697469616c697a61626c653a20636f6e747261637420697320616c72656160008201527f647920696e697469616c697a6564000000000000000000000000000000000000602082015250565b7f4552433732313a206d696e7420746f20746865207a65726f2061646472657373600082015250565b7f45524331393637557067726164653a206e657720696d706c656d656e7461746960008201527f6f6e206973206e6f742055555053000000000000000000000000000000000000602082015250565b7f455243313936373a206e657720696d706c656d656e746174696f6e206973206e60008201527f6f74206120636f6e747261637400000000000000000000000000000000000000602082015250565b7f4552433732313a20696e76616c696420746f6b656e2049440000000000000000600082015250565b7f4552433732313a20617070726f76616c20746f2063757272656e74206f776e6560008201527f7200000000000000000000000000000000000000000000000000000000000000602082015250565b7f4552433732313a20617070726f76652063616c6c6572206973206e6f7420746f60008201527f6b656e206f776e6572206f7220617070726f76656420666f7220616c6c000000602082015250565b7f484156454e310000000000000000000000000000000000000000000000000000600082015250565b7f416464726573733a2063616c6c20746f206e6f6e2d636f6e7472616374000000600082015250565b7f496e697469616c697a61626c653a20636f6e7472616374206973206e6f74206960008201527f6e697469616c697a696e67000000000000000000000000000000000000000000602082015250565b7f416363657373436f6e74726f6c3a206163636f756e7420000000000000000000600082015250565b7f206973206d697373696e6720726f6c6520000000000000000000000000000000600082015250565b7f416363657373436f6e74726f6c3a2063616e206f6e6c792072656e6f756e636560008201527f20726f6c657320666f722073656c660000000000000000000000000000000000602082015250565b61687081615fc1565b811461687b57600080fd5b50565b61688781615fd3565b811461689257600080fd5b50565b61689e81615fdf565b81146168a957600080fd5b50565b6168b581615fe9565b81146168c057600080fd5b50565b6168cc81616035565b81146168d757600080fd5b50565b6168e38161603f565b81146168ee57600080fd5b5056fe416464726573733a206c6f772d6c6576656c2064656c65676174652063616c6c206661696c6564a26469706673582212202e4114c3fa68982cf795ecbb5abe9eca7cfaa94d2b7911a4102087dd2994b4df64736f6c63430008020033",
  "linkReferences": {},
  "deployedLinkReferences": {}
}