{
  "_format": "hh-sol-artifact-1",
  "contractName": "ProofOfIdentity",
  "sourceName": "contracts/ProofOfIdentity.sol",
  "abi": [
    {
      "anonymous": false,
      "inputs": [
        {
          "indexed": true,
          "internalType": "address",
          "name": "account",
          "type": "address"
        },
        {
          "indexed": true,
          "internalType": "uint256",
          "name": "tokenId",
          "type": "uint256"
        },
        {
          "indexed": true,
          "internalType": "string",
          "name": "reason",
          "type": "string"
        }
      ],
      "name": "AccountSuspendedTokenBurned",
      "type": "event"
    },
    {
      "anonymous": false,
      "inputs": [
        {
          "indexed": true,
          "internalType": "address",
          "name": "account",
          "type": "address"
        },
        {
          "indexed": true,
          "internalType": "string",
          "name": "reason",
          "type": "string"
        }
      ],
      "name": "AccountSuspendedTokenMaintained",
      "type": "event"
    },
    {
      "anonymous": false,
      "inputs": [
        {
          "indexed": false,
          "internalType": "address",
          "name": "previousAdmin",
          "type": "address"
        },
        {
          "indexed": false,
          "internalType": "address",
          "name": "newAdmin",
          "type": "address"
        }
      ],
      "name": "AdminChanged",
      "type": "event"
    },
    {
      "anonymous": false,
      "inputs": [
        {
          "indexed": true,
          "internalType": "address",
          "name": "owner",
          "type": "address"
        },
        {
          "indexed": true,
          "internalType": "address",
          "name": "approved",
          "type": "address"
        },
        {
          "indexed": true,
          "internalType": "uint256",
          "name": "tokenId",
          "type": "uint256"
        }
      ],
      "name": "Approval",
      "type": "event"
    },
    {
      "anonymous": false,
      "inputs": [
        {
          "indexed": true,
          "internalType": "address",
          "name": "owner",
          "type": "address"
        },
        {
          "indexed": true,
          "internalType": "address",
          "name": "operator",
          "type": "address"
        },
        {
          "indexed": false,
          "internalType": "bool",
          "name": "approved",
          "type": "bool"
        }
      ],
      "name": "ApprovalForAll",
      "type": "event"
    },
    {
      "anonymous": false,
      "inputs": [
        {
          "indexed": true,
          "internalType": "address",
          "name": "beacon",
          "type": "address"
        }
      ],
      "name": "BeaconUpgraded",
      "type": "event"
    },
    {
      "anonymous": false,
      "inputs": [
        {
          "indexed": true,
          "internalType": "address",
          "name": "account",
          "type": "address"
        },
        {
          "indexed": true,
          "internalType": "uint256",
          "name": "tokenId",
          "type": "uint256"
        }
      ],
      "name": "IdentityMinted",
      "type": "event"
    },
    {
      "anonymous": false,
      "inputs": [
        {
          "indexed": true,
          "internalType": "address",
          "name": "account",
          "type": "address"
        },
        {
          "indexed": true,
          "internalType": "uint256",
          "name": "tokenId",
          "type": "uint256"
        }
      ],
      "name": "IdentityUpdated",
      "type": "event"
    },
    {
      "anonymous": false,
      "inputs": [
        {
          "indexed": false,
          "internalType": "uint8",
          "name": "version",
          "type": "uint8"
        }
      ],
      "name": "Initialized",
      "type": "event"
    },
    {
      "anonymous": false,
      "inputs": [
        {
          "indexed": true,
          "internalType": "bytes32",
          "name": "role",
          "type": "bytes32"
        },
        {
          "indexed": true,
          "internalType": "bytes32",
          "name": "previousAdminRole",
          "type": "bytes32"
        },
        {
          "indexed": true,
          "internalType": "bytes32",
          "name": "newAdminRole",
          "type": "bytes32"
        }
      ],
      "name": "RoleAdminChanged",
      "type": "event"
    },
    {
      "anonymous": false,
      "inputs": [
        {
          "indexed": true,
          "internalType": "bytes32",
          "name": "role",
          "type": "bytes32"
        },
        {
          "indexed": true,
          "internalType": "address",
          "name": "account",
          "type": "address"
        },
        {
          "indexed": true,
          "internalType": "address",
          "name": "sender",
          "type": "address"
        }
      ],
      "name": "RoleGranted",
      "type": "event"
    },
    {
      "anonymous": false,
      "inputs": [
        {
          "indexed": true,
          "internalType": "bytes32",
          "name": "role",
          "type": "bytes32"
        },
        {
          "indexed": true,
          "internalType": "address",
          "name": "account",
          "type": "address"
        },
        {
          "indexed": true,
          "internalType": "address",
          "name": "sender",
          "type": "address"
        }
      ],
      "name": "RoleRevoked",
      "type": "event"
    },
    {
      "anonymous": false,
      "inputs": [
        {
          "indexed": true,
          "internalType": "address",
          "name": "account",
          "type": "address"
        },
        {
          "indexed": true,
          "internalType": "uint256",
          "name": "tokenId",
          "type": "uint256"
        },
        {
          "indexed": true,
          "internalType": "string",
          "name": "newURI",
          "type": "string"
        }
      ],
      "name": "TokenURIUpdated",
      "type": "event"
    },
    {
      "anonymous": false,
      "inputs": [
        {
          "indexed": true,
          "internalType": "address",
          "name": "from",
          "type": "address"
        },
        {
          "indexed": true,
          "internalType": "address",
          "name": "to",
          "type": "address"
        },
        {
          "indexed": true,
          "internalType": "uint256",
          "name": "tokenId",
          "type": "uint256"
        }
      ],
      "name": "Transfer",
      "type": "event"
    },
    {
      "anonymous": false,
      "inputs": [
        {
          "indexed": true,
          "internalType": "address",
          "name": "implementation",
          "type": "address"
        }
      ],
      "name": "Upgraded",
      "type": "event"
    },
    {
      "inputs": [],
      "name": "DEFAULT_ADMIN_ROLE",
      "outputs": [
        {
          "internalType": "bytes32",
          "name": "",
          "type": "bytes32"
        }
      ],
      "stateMutability": "view",
      "type": "function"
    },
    {
      "inputs": [],
      "name": "PROVER_ROLE",
      "outputs": [
        {
          "internalType": "bytes32",
          "name": "",
          "type": "bytes32"
        }
      ],
      "stateMutability": "view",
      "type": "function"
    },
    {
      "inputs": [],
      "name": "UPGRADER_ROLE",
      "outputs": [
        {
          "internalType": "bytes32",
          "name": "",
          "type": "bytes32"
        }
      ],
      "stateMutability": "view",
      "type": "function"
    },
    {
      "inputs": [
        {
          "internalType": "address",
          "name": "to",
          "type": "address"
        },
        {
          "internalType": "uint256",
          "name": "tokenId",
          "type": "uint256"
        }
      ],
      "name": "approve",
      "outputs": [],
      "stateMutability": "nonpayable",
      "type": "function"
    },
    {
      "inputs": [
        {
          "internalType": "address",
          "name": "owner",
          "type": "address"
        }
      ],
      "name": "balanceOf",
      "outputs": [
        {
          "internalType": "uint256",
          "name": "",
          "type": "uint256"
        }
      ],
      "stateMutability": "view",
      "type": "function"
    },
    {
      "inputs": [
        {
          "internalType": "uint256",
          "name": "tokenId",
          "type": "uint256"
        }
      ],
      "name": "getApproved",
      "outputs": [
        {
          "internalType": "address",
          "name": "",
          "type": "address"
        }
      ],
      "stateMutability": "view",
      "type": "function"
    },
    {
      "inputs": [],
      "name": "getCurrentTokenId",
      "outputs": [
        {
          "internalType": "uint256",
          "name": "",
          "type": "uint256"
        }
      ],
      "stateMutability": "view",
      "type": "function"
    },
    {
      "inputs": [
        {
          "internalType": "bytes32",
          "name": "role",
          "type": "bytes32"
        }
      ],
      "name": "getRoleAdmin",
      "outputs": [
        {
          "internalType": "bytes32",
          "name": "",
          "type": "bytes32"
        }
      ],
      "stateMutability": "view",
      "type": "function"
    },
    {
      "inputs": [
        {
          "internalType": "address",
          "name": "account",
          "type": "address"
        }
      ],
      "name": "getUserAccountCountryCode",
      "outputs": [
        {
          "internalType": "string",
          "name": "userAccountCountryCode",
          "type": "string"
        }
      ],
      "stateMutability": "view",
      "type": "function"
    },
    {
      "inputs": [
        {
          "internalType": "address",
          "name": "account",
          "type": "address"
        }
      ],
      "name": "getUserAccountCountryCodePreventOnExpiry",
      "outputs": [
        {
          "internalType": "string",
          "name": "userAccountCountryCode",
          "type": "string"
        }
      ],
      "stateMutability": "view",
      "type": "function"
    },
    {
      "inputs": [
        {
          "internalType": "address",
          "name": "account",
          "type": "address"
        }
      ],
      "name": "getUserAccountExpiry",
      "outputs": [
        {
          "internalType": "uint256",
          "name": "userAccountExpiry",
          "type": "uint256"
        }
      ],
      "stateMutability": "view",
      "type": "function"
    },
    {
      "inputs": [
        {
          "internalType": "address",
          "name": "account",
          "type": "address"
        }
      ],
      "name": "getUserAccountIdentityBlob",
      "outputs": [
        {
          "components": [
            {
              "internalType": "uint256",
              "name": "tokenId",
              "type": "uint256"
            },
            {
              "internalType": "string",
              "name": "countryCode",
              "type": "string"
            },
            {
              "internalType": "uint8",
              "name": "userType",
              "type": "uint8"
            },
            {
              "internalType": "uint8",
              "name": "level",
              "type": "uint8"
            },
            {
              "internalType": "uint256",
              "name": "expiry",
              "type": "uint256"
            }
          ],
          "internalType": "struct RoleVerification.IdentityBlob",
          "name": "userIdentityBlob",
          "type": "tuple"
        }
      ],
      "stateMutability": "view",
      "type": "function"
    },
    {
      "inputs": [
        {
          "internalType": "address",
          "name": "account",
          "type": "address"
        }
      ],
      "name": "getUserAccountLevel",
      "outputs": [
        {
          "internalType": "uint8",
          "name": "userAccountLevel",
          "type": "uint8"
        }
      ],
      "stateMutability": "view",
      "type": "function"
    },
    {
      "inputs": [
        {
          "internalType": "address",
          "name": "account",
          "type": "address"
        }
      ],
      "name": "getUserAccountLevelPreventOnExpiry",
      "outputs": [
        {
          "internalType": "uint8",
          "name": "",
          "type": "uint8"
        }
      ],
      "stateMutability": "view",
      "type": "function"
    },
    {
      "inputs": [
        {
          "internalType": "address",
          "name": "account",
          "type": "address"
        }
      ],
      "name": "getUserAccountType",
      "outputs": [
        {
          "internalType": "uint8",
          "name": "userAccountType",
          "type": "uint8"
        }
      ],
      "stateMutability": "view",
      "type": "function"
    },
    {
      "inputs": [
        {
          "internalType": "address",
          "name": "account",
          "type": "address"
        }
      ],
      "name": "getUserAccountTypePreventOnExpiry",
      "outputs": [
        {
          "internalType": "uint8",
          "name": "",
          "type": "uint8"
        }
      ],
      "stateMutability": "view",
      "type": "function"
    },
    {
      "inputs": [
        {
          "internalType": "bytes32",
          "name": "role",
          "type": "bytes32"
        },
        {
          "internalType": "address",
          "name": "account",
          "type": "address"
        }
      ],
      "name": "grantRole",
      "outputs": [],
      "stateMutability": "nonpayable",
      "type": "function"
    },
    {
      "inputs": [
        {
          "internalType": "bytes32",
          "name": "role",
          "type": "bytes32"
        },
        {
          "internalType": "address",
          "name": "account",
          "type": "address"
        }
      ],
      "name": "hasRole",
      "outputs": [
        {
          "internalType": "bool",
          "name": "",
          "type": "bool"
        }
      ],
      "stateMutability": "view",
      "type": "function"
    },
    {
      "inputs": [
        {
          "internalType": "address",
          "name": "",
          "type": "address"
        }
      ],
      "name": "identityBlob",
      "outputs": [
        {
          "internalType": "uint256",
          "name": "tokenId",
          "type": "uint256"
        },
        {
          "internalType": "string",
          "name": "countryCode",
          "type": "string"
        },
        {
          "internalType": "uint8",
          "name": "userType",
          "type": "uint8"
        },
        {
          "internalType": "uint8",
          "name": "level",
          "type": "uint8"
        },
        {
          "internalType": "uint256",
          "name": "expiry",
          "type": "uint256"
        }
      ],
      "stateMutability": "view",
      "type": "function"
    },
    {
      "inputs": [
        {
          "internalType": "address",
          "name": "permissionsInterface",
          "type": "address"
        },
        {
          "internalType": "address",
          "name": "admin",
          "type": "address"
        },
        {
          "internalType": "address",
          "name": "prover",
          "type": "address"
        },
        {
          "internalType": "address",
          "name": "upgrader",
          "type": "address"
        }
      ],
      "name": "initialize",
      "outputs": [],
      "stateMutability": "nonpayable",
      "type": "function"
    },
    {
      "inputs": [
        {
          "internalType": "address",
          "name": "owner",
          "type": "address"
        },
        {
          "internalType": "address",
          "name": "operator",
          "type": "address"
        }
      ],
      "name": "isApprovedForAll",
      "outputs": [
        {
          "internalType": "bool",
          "name": "",
          "type": "bool"
        }
      ],
      "stateMutability": "view",
      "type": "function"
    },
    {
      "inputs": [
        {
          "internalType": "address",
          "name": "account",
          "type": "address"
        },
        {
          "internalType": "string",
          "name": "countryCode",
          "type": "string"
        },
        {
          "internalType": "uint8",
          "name": "userType",
          "type": "uint8"
        },
        {
          "internalType": "uint8",
          "name": "level",
          "type": "uint8"
        },
        {
          "internalType": "uint256",
          "name": "expiry",
          "type": "uint256"
        },
        {
          "internalType": "string",
          "name": "tokenUri",
          "type": "string"
        }
      ],
      "name": "mintIdentity",
      "outputs": [],
      "stateMutability": "nonpayable",
      "type": "function"
    },
    {
      "inputs": [],
      "name": "name",
      "outputs": [
        {
          "internalType": "string",
          "name": "",
          "type": "string"
        }
      ],
      "stateMutability": "view",
      "type": "function"
    },
    {
      "inputs": [
        {
          "internalType": "uint256",
          "name": "tokenId",
          "type": "uint256"
        }
      ],
      "name": "ownerOf",
      "outputs": [
        {
          "internalType": "address",
          "name": "",
          "type": "address"
        }
      ],
      "stateMutability": "view",
      "type": "function"
    },
    {
      "inputs": [],
      "name": "proxiableUUID",
      "outputs": [
        {
          "internalType": "bytes32",
          "name": "",
          "type": "bytes32"
        }
      ],
      "stateMutability": "view",
      "type": "function"
    },
    {
      "inputs": [
        {
          "internalType": "bytes32",
          "name": "role",
          "type": "bytes32"
        },
        {
          "internalType": "address",
          "name": "account",
          "type": "address"
        }
      ],
      "name": "renounceRole",
      "outputs": [],
      "stateMutability": "nonpayable",
      "type": "function"
    },
    {
      "inputs": [
        {
          "internalType": "bytes32",
          "name": "role",
          "type": "bytes32"
        },
        {
          "internalType": "address",
          "name": "account",
          "type": "address"
        }
      ],
      "name": "revokeRole",
      "outputs": [],
      "stateMutability": "nonpayable",
      "type": "function"
    },
    {
      "inputs": [
        {
          "internalType": "address",
          "name": "from",
          "type": "address"
        },
        {
          "internalType": "address",
          "name": "to",
          "type": "address"
        },
        {
          "internalType": "uint256",
          "name": "tokenId",
          "type": "uint256"
        }
      ],
      "name": "safeTransferFrom",
      "outputs": [],
      "stateMutability": "nonpayable",
      "type": "function"
    },
    {
      "inputs": [
        {
          "internalType": "address",
          "name": "from",
          "type": "address"
        },
        {
          "internalType": "address",
          "name": "to",
          "type": "address"
        },
        {
          "internalType": "uint256",
          "name": "tokenId",
          "type": "uint256"
        },
        {
          "internalType": "bytes",
          "name": "data",
          "type": "bytes"
        }
      ],
      "name": "safeTransferFrom",
      "outputs": [],
      "stateMutability": "nonpayable",
      "type": "function"
    },
    {
      "inputs": [
        {
          "internalType": "address",
          "name": "operator",
          "type": "address"
        },
        {
          "internalType": "bool",
          "name": "approved",
          "type": "bool"
        }
      ],
      "name": "setApprovalForAll",
      "outputs": [],
      "stateMutability": "nonpayable",
      "type": "function"
    },
    {
      "inputs": [
        {
          "internalType": "bytes4",
          "name": "interfaceId",
          "type": "bytes4"
        }
      ],
      "name": "supportsInterface",
      "outputs": [
        {
          "internalType": "bool",
          "name": "",
          "type": "bool"
        }
      ],
      "stateMutability": "view",
      "type": "function"
    },
    {
      "inputs": [
        {
          "internalType": "address",
          "name": "suspendAccount",
          "type": "address"
        },
        {
          "internalType": "string",
          "name": "reason",
          "type": "string"
        }
      ],
      "name": "suspendAccountDeleteTokenAndIdentityBlob",
      "outputs": [],
      "stateMutability": "nonpayable",
      "type": "function"
    },
    {
      "inputs": [
        {
          "internalType": "address",
          "name": "suspendAddress",
          "type": "address"
        },
        {
          "internalType": "string",
          "name": "reason",
          "type": "string"
        }
      ],
      "name": "suspendAccountMaintainTokenAndIdentityBlob",
      "outputs": [],
      "stateMutability": "nonpayable",
      "type": "function"
    },
    {
      "inputs": [],
      "name": "symbol",
      "outputs": [
        {
          "internalType": "string",
          "name": "",
          "type": "string"
        }
      ],
      "stateMutability": "view",
      "type": "function"
    },
    {
      "inputs": [
        {
          "internalType": "uint256",
          "name": "tokenId",
          "type": "uint256"
        }
      ],
      "name": "tokenURI",
      "outputs": [
        {
          "internalType": "string",
          "name": "",
          "type": "string"
        }
      ],
      "stateMutability": "view",
      "type": "function"
    },
    {
      "inputs": [
        {
          "internalType": "address",
          "name": "from",
          "type": "address"
        },
        {
          "internalType": "address",
          "name": "to",
          "type": "address"
        },
        {
          "internalType": "uint256",
          "name": "tokenId",
          "type": "uint256"
        }
      ],
      "name": "transferFrom",
      "outputs": [],
      "stateMutability": "nonpayable",
      "type": "function"
    },
    {
      "inputs": [
        {
          "internalType": "address",
          "name": "account",
          "type": "address"
        },
        {
          "internalType": "string",
          "name": "countryCode",
          "type": "string"
        },
        {
          "internalType": "uint8",
          "name": "userType",
          "type": "uint8"
        },
        {
          "internalType": "uint8",
          "name": "level",
          "type": "uint8"
        },
        {
          "internalType": "uint256",
          "name": "expiry",
          "type": "uint256"
        }
      ],
      "name": "updateIdentity",
      "outputs": [],
      "stateMutability": "nonpayable",
      "type": "function"
    },
    {
      "inputs": [
        {
          "internalType": "address",
          "name": "account",
          "type": "address"
        },
        {
          "internalType": "string",
          "name": "tokenUri",
          "type": "string"
        }
      ],
      "name": "updateTokenURI",
      "outputs": [],
      "stateMutability": "nonpayable",
      "type": "function"
    },
    {
      "inputs": [
        {
          "internalType": "address",
          "name": "newImplementation",
          "type": "address"
        }
      ],
      "name": "upgradeTo",
      "outputs": [],
      "stateMutability": "nonpayable",
      "type": "function"
    },
    {
      "inputs": [
        {
          "internalType": "address",
          "name": "newImplementation",
          "type": "address"
        },
        {
          "internalType": "bytes",
          "name": "data",
          "type": "bytes"
        }
      ],
      "name": "upgradeToAndCall",
      "outputs": [],
      "stateMutability": "payable",
      "type": "function"
    }
  ],
  "bytecode": "0x60a06040523060601b60805234801561001757600080fd5b5060805160601c613c8e61005260003960008181610c3201528181610cb701528181610ef401528181610f79015261105f0152613c8e6000f3fe6080604052600436106102bb5760003560e01c806380a5a8961161016e578063c87b56dd116100cb578063e86573e41161007f578063f6a4b4d711610064578063f6a4b4d71461083f578063f72c0d8b1461085f578063f8c8765e14610893576102bb565b8063e86573e4146107d6578063e985e9c5146107f6576102bb565b8063d547741f116100b0578063d547741f14610762578063dc9a4ef614610782578063dfb24b89146107b6576102bb565b8063c87b56dd14610722578063d4ec909614610742576102bb565b8063a217fddf11610122578063b467177f11610107578063b467177f14610685578063b88d4fde146106c1578063c207e9e0146106e1576102bb565b8063a217fddf14610650578063a22cb46514610665576102bb565b8063949cdd6e11610153578063949cdd6e146105fb57806395d89b411461061b57806396257e4d14610630576102bb565b806380a5a8961461059557806391d14854146105b5576102bb565b80633659cfe61161021c57806356189236116101d0578063688ea9fe116101b5578063688ea9fe146105175780636ca5fde81461054857806370a0823114610575576102bb565b806356189236146104e25780636352211e146104f7576102bb565b806342842e0e1161020157806342842e0e146103ea5780634f1ef286146104ba57806352d1902d146104cd576102bb565b80633659cfe61461047a5780633bc2c0781461049a576102bb565b80631fe0094a11610273578063248a9ca311610258578063248a9ca31461040a5780632f2ff15d1461043a57806336568abe1461045a576102bb565b80631fe0094a146103b857806323b872dd146103ea576102bb565b8063081812fc116102a4578063081812fc1461031757806309299ea31461034f578063095ea7b314610396576102bb565b806301ffc9a7146102c057806306fdde03146102f5575b600080fd5b3480156102cc57600080fd5b506102e06102db3660046138a6565b6108b3565b60405190151581526020015b60405180910390f35b34801561030157600080fd5b5061030a6108c6565b6040516102ec9190613a5b565b34801561032357600080fd5b50610337610332366004613854565b610958565b6040516001600160a01b0390911681526020016102ec565b34801561035b57600080fd5b5061038861036a3660046134ed565b6001600160a01b031660009081526020819052604090206003015490565b6040519081526020016102ec565b3480156103a257600080fd5b506103b66103b136600461382b565b61097f565b005b3480156103c457600080fd5b506103d86103d33660046134ed565b610ab6565b60405160ff90911681526020016102ec565b3480156103f657600080fd5b506103b661040536600461358c565b610b2b565b34801561041657600080fd5b50610388610425366004613854565b60009081526098602052604090206001015490565b34801561044657600080fd5b506103b6610455366004613884565b610b76565b34801561046657600080fd5b506103b6610475366004613884565b610b9b565b34801561048657600080fd5b506103b66104953660046134ed565b610c27565b3480156104a657600080fd5b506103b66104b53660046136b3565b610da3565b6103b66104c8366004613667565b610ee9565b3480156104d957600080fd5b50610388611052565b3480156104ee57600080fd5b50610388611117565b34801561050357600080fd5b50610337610512366004613854565b611128565b34801561052357600080fd5b506105376105323660046134ed565b61118d565b6040516102ec959493929190613b03565b34801561055457600080fd5b506105686105633660046134ed565b61124b565b6040516102ec9190613aad565b34801561058157600080fd5b506103886105903660046134ed565b61136c565b3480156105a157600080fd5b506103b66105b03660046136b3565b611406565b3480156105c157600080fd5b506102e06105d0366004613884565b60009182526098602090815260408084206001600160a01b0393909316845291905290205460ff1690565b34801561060757600080fd5b506103d86106163660046134ed565b6114e7565b34801561062757600080fd5b5061030a611561565b34801561063c57600080fd5b5061030a61064b3660046134ed565b611570565b34801561065c57600080fd5b50610388600081565b34801561067157600080fd5b506103b661068036600461362d565b611671565b34801561069157600080fd5b506103d86106a03660046134ed565b6001600160a01b031660009081526020819052604090206002015460ff1690565b3480156106cd57600080fd5b506103b66106dc3660046135c7565b61167c565b3480156106ed57600080fd5b506103d86106fc3660046134ed565b6001600160a01b0316600090815260208190526040902060020154610100900460ff1690565b34801561072e57600080fd5b5061030a61073d366004613854565b61170a565b34801561074e57600080fd5b506103b661075d366004613780565b61177c565b34801561076e57600080fd5b506103b661077d366004613884565b611a2d565b34801561078e57600080fd5b506103887f60044782a422109ac08a415e44260ad5d3bad63d96ebe1fac0363399642ee3f281565b3480156107c257600080fd5b5061030a6107d13660046134ed565b611a52565b3480156107e257600080fd5b506103b66107f1366004613704565b611a7c565b34801561080257600080fd5b506102e0610811366004613507565b6001600160a01b039182166000908152606b6020908152604080832093909416825291909152205460ff1690565b34801561084b57600080fd5b506103b661085a3660046136b3565b611c1d565b34801561086b57600080fd5b506103887f189ab7a9244df0848122154315af71fe140f3db0fe014031783b0946b8c9d2e381565b34801561089f57600080fd5b506103b66108ae366004613539565b611d2c565b60006108be82611f9b565b90505b919050565b6060606680546108d590613bb4565b80601f016020809104026020016040519081016040528092919081815260200182805461090190613bb4565b801561094e5780601f106109235761010080835404028352916020019161094e565b820191906000526020600020905b81548152906001019060200180831161093157829003601f168201915b5050505050905090565b600061096382611fd9565b506000908152606a60205260409020546001600160a01b031690565b600061098a82611128565b9050806001600160a01b0316836001600160a01b03161415610a195760405162461bcd60e51b815260206004820152602160248201527f4552433732313a20617070726f76616c20746f2063757272656e74206f776e6560448201527f720000000000000000000000000000000000000000000000000000000000000060648201526084015b60405180910390fd5b336001600160a01b0382161480610a355750610a358133610811565b610aa75760405162461bcd60e51b815260206004820152603d60248201527f4552433732313a20617070726f76652063616c6c6572206973206e6f7420746f60448201527f6b656e206f776e6572206f7220617070726f76656420666f7220616c6c0000006064820152608401610a10565b610ab1838361203d565b505050565b6001600160a01b0381166000908152602081905260408120600301544210610b0957604080518082018252600381526231303360e81b6020820152905162461bcd60e51b8152610a109190600401613a5b565b506001600160a01b031660009081526020819052604090206002015460ff1690565b604080518082018252600381527f31303200000000000000000000000000000000000000000000000000000000006020820152905162461bcd60e51b8152610a109190600401613a5b565b600082815260986020526040902060010154610b91816120ab565b610ab183836120b5565b6001600160a01b0381163314610c195760405162461bcd60e51b815260206004820152602f60248201527f416363657373436f6e74726f6c3a2063616e206f6e6c792072656e6f756e636560448201527f20726f6c657320666f722073656c6600000000000000000000000000000000006064820152608401610a10565b610c238282612157565b5050565b306001600160a01b037f0000000000000000000000000000000000000000000000000000000000000000161415610cb55760405162461bcd60e51b815260206004820152602c60248201527f46756e6374696f6e206d7573742062652063616c6c6564207468726f7567682060448201526b19195b1959d85d1958d85b1b60a21b6064820152608401610a10565b7f00000000000000000000000000000000000000000000000000000000000000006001600160a01b0316610d107f360894a13ba1a3210667c828492db98dca3e2076cc3735a920a3ca505d382bbc546001600160a01b031690565b6001600160a01b031614610d7b5760405162461bcd60e51b815260206004820152602c60248201527f46756e6374696f6e206d7573742062652063616c6c6564207468726f7567682060448201526b6163746976652070726f787960a01b6064820152608401610a10565b610d84816121da565b60408051600080825260208201909252610da091839190612204565b50565b7f60044782a422109ac08a415e44260ad5d3bad63d96ebe1fac0363399642ee3f2610dcd816120ab565b61012f5460405163425bd42560e11b81526001600160a01b03909116906384b7a84a90610e01908790600190600401613a6e565b600060405180830381600087803b158015610e1b57600080fd5b505af1158015610e2f573d6000803e3d6000fd5b505050506001600160a01b03841660009081526101306020526040902054610e56816123b8565b6001600160a01b038516600090815260208190526040812081815590610e7f60018301826132ae565b5060028101805461ffff191690556000600390910155604051610ea59085908590613926565b6040519081900381209082906001600160a01b038816907f8b09fc40032762aebf578cd9202b2548559cbac190b3807076418620ef05518f90600090a45050505050565b306001600160a01b037f0000000000000000000000000000000000000000000000000000000000000000161415610f775760405162461bcd60e51b815260206004820152602c60248201527f46756e6374696f6e206d7573742062652063616c6c6564207468726f7567682060448201526b19195b1959d85d1958d85b1b60a21b6064820152608401610a10565b7f00000000000000000000000000000000000000000000000000000000000000006001600160a01b0316610fd27f360894a13ba1a3210667c828492db98dca3e2076cc3735a920a3ca505d382bbc546001600160a01b031690565b6001600160a01b03161461103d5760405162461bcd60e51b815260206004820152602c60248201527f46756e6374696f6e206d7573742062652063616c6c6564207468726f7567682060448201526b6163746976652070726f787960a01b6064820152608401610a10565b611046826121da565b610c2382826001612204565b6000306001600160a01b037f000000000000000000000000000000000000000000000000000000000000000016146110f25760405162461bcd60e51b815260206004820152603860248201527f555550535570677261646561626c653a206d757374206e6f742062652063616c60448201527f6c6564207468726f7567682064656c656761746563616c6c00000000000000006064820152608401610a10565b507f360894a13ba1a3210667c828492db98dca3e2076cc3735a920a3ca505d382bbc90565b600061112361012e5490565b905090565b6000818152606860205260408120546001600160a01b0316806108be5760405162461bcd60e51b815260206004820152601860248201527f4552433732313a20696e76616c696420746f6b656e20494400000000000000006044820152606401610a10565b600060208190529081526040902080546001820180549192916111af90613bb4565b80601f01602080910402602001604051908101604052809291908181526020018280546111db90613bb4565b80156112285780601f106111fd57610100808354040283529160200191611228565b820191906000526020600020905b81548152906001019060200180831161120b57829003601f168201915b505050506002830154600390930154919260ff8082169361010090920416915085565b6112836040518060a001604052806000815260200160608152602001600060ff168152602001600060ff168152602001600081525090565b6001600160a01b03821660009081526020818152604091829020825160a081019093528054835260018101805491928401916112be90613bb4565b80601f01602080910402602001604051908101604052809291908181526020018280546112ea90613bb4565b80156113375780601f1061130c57610100808354040283529160200191611337565b820191906000526020600020905b81548152906001019060200180831161131a57829003601f168201915b5050509183525050600282015460ff808216602084015261010090910416604082015260039091015460609091015292915050565b60006001600160a01b0382166113ea5760405162461bcd60e51b815260206004820152602960248201527f4552433732313a2061646472657373207a65726f206973206e6f74206120766160448201527f6c6964206f776e657200000000000000000000000000000000000000000000006064820152608401610a10565b506001600160a01b031660009081526069602052604090205490565b7f60044782a422109ac08a415e44260ad5d3bad63d96ebe1fac0363399642ee3f2611430816120ab565b61012f5460405163425bd42560e11b81526001600160a01b03909116906384b7a84a90611464908790600190600401613a6e565b600060405180830381600087803b15801561147e57600080fd5b505af1158015611492573d6000803e3d6000fd5b5050505082826040516114a6929190613926565b604051908190038120906001600160a01b038616907f3347b0049117ab94fddf6cff81cc554c4f7489acedc7c33907a96655770e58ae90600090a350505050565b6001600160a01b038116600090815260208190526040812060030154421061153a57604080518082018252600381526231303360e81b6020820152905162461bcd60e51b8152610a109190600401613a5b565b506001600160a01b0316600090815260208190526040902060020154610100900460ff1690565b6060606780546108d590613bb4565b6001600160a01b03811660009081526020819052604090206003015460609042106115c657604080518082018252600381526231303360e81b6020820152905162461bcd60e51b8152610a109190600401613a5b565b6001600160a01b038216600090815260208190526040902060010180546115ec90613bb4565b80601f016020809104026020016040519081016040528092919081815260200182805461161890613bb4565b80156116655780601f1061163a57610100808354040283529160200191611665565b820191906000526020600020905b81548152906001019060200180831161164857829003601f168201915b50505050509050919050565b610c2333838361244e565b611686338361251d565b6116f85760405162461bcd60e51b815260206004820152602d60248201527f4552433732313a2063616c6c6572206973206e6f7420746f6b656e206f776e6560448201527f72206f7220617070726f766564000000000000000000000000000000000000006064820152608401610a10565b6117048484848461259c565b50505050565b6000818152606860205260409020546060906001600160a01b031615156040518060400160405280600381526020016231303160e81b815250906117615760405162461bcd60e51b8152600401610a109190613a5b565b5060008281526101316020526040902080546115ec90613bb4565b7f60044782a422109ac08a415e44260ad5d3bad63d96ebe1fac0363399642ee3f26117a6816120ab565b6117af8961136c565b60408051808201909152600381527f3130300000000000000000000000000000000000000000000000000000000000602082015290156118025760405162461bcd60e51b8152600401610a109190613a5b565b5060408051808201909152600381526231303360e81b602082015242851161183d5760405162461bcd60e51b8152600401610a109190613a5b565b50600061184a61012e5490565b90506040518060a001604052808281526020018a8a8080601f016020809104026020016040519081016040528093929190818152602001838380828437600092018290525093855250505060ff808b16602080850191909152908a1660408085019190915260609093018990526001600160a01b038e1682528181529190208251815582820151805191926118e7926001850192909101906132ea565b506040820151600282018054606085015160ff9081166101000261ff00199190941660ff19909216919091171691909117905560809091015160039091015561193561012e80546001019055565b61193f8a8261261a565b60008181526101316020526040902061195990858561336e565b506001600160a01b03808b16600090815261013060205260409081902083905561012f5490517f2f7f0a12000000000000000000000000000000000000000000000000000000008152911690632f7f0a12906119b9908d906004016139e9565b600060405180830381600087803b1580156119d357600080fd5b505af11580156119e7573d6000803e3d6000fd5b50506040518392506001600160a01b038d1691507faf62702571aa2959cc884d2d2f058f2dde9f91f8cb7b5a5c62887ec1aef856e790600090a350505050505050505050565b600082815260986020526040902060010154611a48816120ab565b610ab18383612157565b6001600160a01b03811660009081526020819052604090206001018054606091906115ec90613bb4565b7f60044782a422109ac08a415e44260ad5d3bad63d96ebe1fac0363399642ee3f2611aa6816120ab565b611aaf8761136c565b6001146040518060400160405280600381526020016231303160e81b81525090611aec5760405162461bcd60e51b8152600401610a109190613a5b565b506001600160a01b0387166000908152602081815260409182902054825160a0810184528181528351601f8a018490048402810184019094528884529092909182810191908a908a9081908401838280828437600092018290525093855250505060ff80891660208085019190915290881660408085019190915260609093018790526001600160a01b038c168252818152919020825181558282015180519192611b9f926001850192909101906132ea565b50604082810151600283018054606086015160ff9081166101000261ff00199190941660ff1990921691909117169190911790556080909201516003909101555181906001600160a01b038a16907f4a1e31466f875c6fcafefabf90bce8accdf53108c4a309106058ef7aefebd5ce90600090a35050505050505050565b7f60044782a422109ac08a415e44260ad5d3bad63d96ebe1fac0363399642ee3f2611c47816120ab565b6001600160a01b03841660009081526101306020526040902054611c82816000908152606860205260409020546001600160a01b0316151590565b6040518060400160405280600381526020016231303160e81b81525090611cbc5760405162461bcd60e51b8152600401610a109190613a5b565b50600081815261013160205260409020611cd790858561336e565b508383604051611ce8929190613926565b6040519081900381209082906001600160a01b038816907fe3a3e1a0be0d562dd7ec739509d30dfbca7cd174fbc576a45746fe1f3b277c2690600090a45050505050565b600154610100900460ff1615808015611d4957506001805460ff16105b80611d625750303b158015611d6257506001805460ff16145b611dd45760405162461bcd60e51b815260206004820152602e60248201527f496e697469616c697a61626c653a20636f6e747261637420697320616c72656160448201527f647920696e697469616c697a65640000000000000000000000000000000000006064820152608401610a10565b6001805460ff1916811790558015611df6576001805461ff0019166101001790555b611e01600033612157565b611e2b7f189ab7a9244df0848122154315af71fe140f3db0fe014031783b0946b8c9d2e3836120b5565b611e366000856120b5565b611e607f60044782a422109ac08a415e44260ad5d3bad63d96ebe1fac0363399642ee3f2846120b5565b611e68612634565b611edc6040518060400160405280601181526020017f50726f6f66206f66204964656e746974790000000000000000000000000000008152506040518060400160405280600581526020017f48312d49440000000000000000000000000000000000000000000000000000008152506126a1565b611ee4612634565b61012f80546001600160a01b0319166001600160a01b038716179055611f0b600033612157565b611f166000856120b5565b611f407f60044782a422109ac08a415e44260ad5d3bad63d96ebe1fac0363399642ee3f2846120b5565b611f4f61012e80546001019055565b8015611f94576001805461ff00191681556040519081527f7f26b83ff96e1f2b6a682f133852f6798a09c465da95921460cefb38474024989060200160405180910390a15b5050505050565b60006001600160e01b031982167f7965db0b0000000000000000000000000000000000000000000000000000000014806108be57506108be82612716565b6000818152606860205260409020546001600160a01b0316610da05760405162461bcd60e51b815260206004820152601860248201527f4552433732313a20696e76616c696420746f6b656e20494400000000000000006044820152606401610a10565b6000818152606a6020526040902080546001600160a01b0319166001600160a01b038416908117909155819061207282611128565b6001600160a01b03167f8c5be1e5ebec7d5bd14f71427d1e84f3dd0314c0f7b2291e5b200ac8c7c3b92560405160405180910390a45050565b610da081336127b1565b60008281526098602090815260408083206001600160a01b038516845290915290205460ff16610c235760008281526098602090815260408083206001600160a01b03851684529091529020805460ff191660011790556121133390565b6001600160a01b0316816001600160a01b0316837f2f8788117e7eff1d82e926ec794901d17c78024a50270940304540a733656f0d60405160405180910390a45050565b60008281526098602090815260408083206001600160a01b038516845290915290205460ff1615610c235760008281526098602090815260408083206001600160a01b0385168085529252808320805460ff1916905551339285917ff6391f5c32d9c69d2a47ea670b442974b53935d1edc7fd64eb21e047a839171b9190a45050565b7f189ab7a9244df0848122154315af71fe140f3db0fe014031783b0946b8c9d2e3610c23816120ab565b7f4910fdfa16fed3260ed0e7147f7cc6da11a60208b5b9406d12a635614ffd91435460ff161561223c5761223783612826565b610ab1565b826001600160a01b03166352d1902d6040518163ffffffff1660e01b815260040160206040518083038186803b15801561227557600080fd5b505afa9250505080156122a5575060408051601f3d908101601f191682019092526122a29181019061386c565b60015b6123175760405162461bcd60e51b815260206004820152602e60248201527f45524331393637557067726164653a206e657720696d706c656d656e7461746960448201527f6f6e206973206e6f7420555550530000000000000000000000000000000000006064820152608401610a10565b7f360894a13ba1a3210667c828492db98dca3e2076cc3735a920a3ca505d382bbc81146123ac5760405162461bcd60e51b815260206004820152602960248201527f45524331393637557067726164653a20756e737570706f727465642070726f7860448201527f6961626c655555494400000000000000000000000000000000000000000000006064820152608401610a10565b50610ab18383836128e4565b60006123c382611128565b90506123ce82611128565b6000838152606a6020908152604080832080546001600160a01b03199081169091556001600160a01b0385168085526069845282852080546000190190558785526068909352818420805490911690555192935084927fddf252ad1be2c89b69c2b068fc378daa952ba7f163c4a11628f55a4df523b3ef908390a4610c23565b816001600160a01b0316836001600160a01b031614156124b05760405162461bcd60e51b815260206004820152601960248201527f4552433732313a20617070726f766520746f2063616c6c6572000000000000006044820152606401610a10565b6001600160a01b038381166000818152606b6020908152604080832094871680845294825291829020805460ff191686151590811790915591519182527f17307eab39ab6107e8899845ad3d59bd9653f200f220920489ca2b5937696c31910160405180910390a3505050565b60008061252983611128565b9050806001600160a01b0316846001600160a01b0316148061257057506001600160a01b038082166000908152606b602090815260408083209388168352929052205460ff165b806125945750836001600160a01b031661258984610958565b6001600160a01b0316145b949350505050565b6125a7848484612909565b6125b384848484612b02565b6117045760405162461bcd60e51b815260206004820152603260248201527f4552433732313a207472616e7366657220746f206e6f6e20455243373231526560448201527131b2b4bb32b91034b6b83632b6b2b73a32b960711b6064820152608401610a10565b610c23828260405180602001604052806000815250612c5a565b600154610100900460ff1661269f5760405162461bcd60e51b815260206004820152602b60248201527f496e697469616c697a61626c653a20636f6e7472616374206973206e6f74206960448201526a6e697469616c697a696e6760a81b6064820152608401610a10565b565b600154610100900460ff1661270c5760405162461bcd60e51b815260206004820152602b60248201527f496e697469616c697a61626c653a20636f6e7472616374206973206e6f74206960448201526a6e697469616c697a696e6760a81b6064820152608401610a10565b610c238282612cd8565b60006001600160e01b031982167f80ac58cd00000000000000000000000000000000000000000000000000000000148061277957506001600160e01b031982167f5b5e139f00000000000000000000000000000000000000000000000000000000145b806108be57507f01ffc9a7000000000000000000000000000000000000000000000000000000006001600160e01b03198316146108be565b60008281526098602090815260408083206001600160a01b038516845290915290205460ff16610c23576127e481612d6a565b6127ef836020612d7c565b604051602001612800929190613936565b60408051601f198184030181529082905262461bcd60e51b8252610a1091600401613a5b565b6001600160a01b0381163b6128a35760405162461bcd60e51b815260206004820152602d60248201527f455243313936373a206e657720696d706c656d656e746174696f6e206973206e60448201527f6f74206120636f6e7472616374000000000000000000000000000000000000006064820152608401610a10565b7f360894a13ba1a3210667c828492db98dca3e2076cc3735a920a3ca505d382bbc80546001600160a01b0319166001600160a01b0392909216919091179055565b6128ed83612faa565b6000825111806128fa5750805b15610ab1576117048383612fea565b826001600160a01b031661291c82611128565b6001600160a01b0316146129805760405162461bcd60e51b815260206004820152602560248201527f4552433732313a207472616e736665722066726f6d20696e636f72726563742060448201526437bbb732b960d91b6064820152608401610a10565b6001600160a01b0382166129fb5760405162461bcd60e51b8152602060048201526024808201527f4552433732313a207472616e7366657220746f20746865207a65726f2061646460448201527f72657373000000000000000000000000000000000000000000000000000000006064820152608401610a10565b826001600160a01b0316612a0e82611128565b6001600160a01b031614612a725760405162461bcd60e51b815260206004820152602560248201527f4552433732313a207472616e736665722066726f6d20696e636f72726563742060448201526437bbb732b960d91b6064820152608401610a10565b6000818152606a6020908152604080832080546001600160a01b03199081169091556001600160a01b0387811680865260698552838620805460001901905590871680865283862080546001019055868652606890945282852080549092168417909155905184937fddf252ad1be2c89b69c2b068fc378daa952ba7f163c4a11628f55a4df523b3ef91a4610ab1565b60006001600160a01b0384163b15612c4f57604051630a85bd0160e11b81526001600160a01b0385169063150b7a0290612b469033908990889088906004016139b7565b602060405180830381600087803b158015612b6057600080fd5b505af1925050508015612b90575060408051601f3d908101601f19168201909252612b8d918101906138c2565b60015b612c35573d808015612bbe576040519150601f19603f3d011682016040523d82523d6000602084013e612bc3565b606091505b508051612c2d5760405162461bcd60e51b815260206004820152603260248201527f4552433732313a207472616e7366657220746f206e6f6e20455243373231526560448201527131b2b4bb32b91034b6b83632b6b2b73a32b960711b6064820152608401610a10565b805181602001fd5b6001600160e01b031916630a85bd0160e11b149050612594565b506001949350505050565b612c64838361300f565b612c716000848484612b02565b610ab15760405162461bcd60e51b815260206004820152603260248201527f4552433732313a207472616e7366657220746f206e6f6e20455243373231526560448201527131b2b4bb32b91034b6b83632b6b2b73a32b960711b6064820152608401610a10565b600154610100900460ff16612d435760405162461bcd60e51b815260206004820152602b60248201527f496e697469616c697a61626c653a20636f6e7472616374206973206e6f74206960448201526a6e697469616c697a696e6760a81b6064820152608401610a10565b8151612d569060669060208501906132ea565b508051610ab19060679060208401906132ea565b60606108be6001600160a01b03831660145b60606000612d8b836002613b52565b612d96906002613b3a565b67ffffffffffffffff811115612dbc57634e487b7160e01b600052604160045260246000fd5b6040519080825280601f01601f191660200182016040528015612de6576020820181803683370190505b5090507f300000000000000000000000000000000000000000000000000000000000000081600081518110612e2b57634e487b7160e01b600052603260045260246000fd5b60200101906001600160f81b031916908160001a9053507f780000000000000000000000000000000000000000000000000000000000000081600181518110612e8457634e487b7160e01b600052603260045260246000fd5b60200101906001600160f81b031916908160001a9053506000612ea8846002613b52565b612eb3906001613b3a565b90505b6001811115612f54577f303132333435363738396162636465660000000000000000000000000000000085600f1660108110612f0257634e487b7160e01b600052603260045260246000fd5b1a60f81b828281518110612f2657634e487b7160e01b600052603260045260246000fd5b60200101906001600160f81b031916908160001a90535060049490941c93612f4d81613b9d565b9050612eb6565b508315612fa35760405162461bcd60e51b815260206004820181905260248201527f537472696e67733a20686578206c656e67746820696e73756666696369656e746044820152606401610a10565b9392505050565b612fb381612826565b6040516001600160a01b038216907fbc7cd75a20ee27fd9adebab32041f755214dbc6bffa90cc0225b39da2e5c2d3b90600090a250565b6060612fa38383604051806060016040528060278152602001613c326027913961319b565b6001600160a01b0382166130655760405162461bcd60e51b815260206004820181905260248201527f4552433732313a206d696e7420746f20746865207a65726f20616464726573736044820152606401610a10565b6000818152606860205260409020546001600160a01b0316156130ca5760405162461bcd60e51b815260206004820152601c60248201527f4552433732313a20746f6b656e20616c7265616479206d696e746564000000006044820152606401610a10565b6000818152606860205260409020546001600160a01b03161561312f5760405162461bcd60e51b815260206004820152601c60248201527f4552433732313a20746f6b656e20616c7265616479206d696e746564000000006044820152606401610a10565b6001600160a01b038216600081815260696020908152604080832080546001019055848352606890915280822080546001600160a01b0319168417905551839291907fddf252ad1be2c89b69c2b068fc378daa952ba7f163c4a11628f55a4df523b3ef908290a4610c23565b6060600080856001600160a01b0316856040516131b8919061390a565b600060405180830381855af49150503d80600081146131f3576040519150601f19603f3d011682016040523d82523d6000602084013e6131f8565b606091505b509150915061320986838387613213565b9695505050505050565b6060831561327f578251613278576001600160a01b0385163b6132785760405162461bcd60e51b815260206004820152601d60248201527f416464726573733a2063616c6c20746f206e6f6e2d636f6e74726163740000006044820152606401610a10565b5081612594565b61259483838151156132945781518083602001fd5b8060405162461bcd60e51b8152600401610a109190613a5b565b5080546132ba90613bb4565b6000825580601f106132cc5750610da0565b601f016020900490600052602060002090810190610da091906133e2565b8280546132f690613bb4565b90600052602060002090601f016020900481019282613318576000855561335e565b82601f1061333157805160ff191683800117855561335e565b8280016001018555821561335e579182015b8281111561335e578251825591602001919060010190613343565b5061336a9291506133e2565b5090565b82805461337a90613bb4565b90600052602060002090601f01602090048101928261339c576000855561335e565b82601f106133b55782800160ff1982351617855561335e565b8280016001018555821561335e579182015b8281111561335e5782358255916020019190600101906133c7565b5b8082111561336a57600081556001016133e3565b80356001600160a01b03811681146108c157600080fd5b600082601f83011261341e578081fd5b813567ffffffffffffffff8082111561343957613439613c05565b604051601f8301601f19908116603f0116810190828211818310171561346157613461613c05565b81604052838152866020858801011115613479578485fd5b8360208701602083013792830160200193909352509392505050565b60008083601f8401126134a6578182fd5b50813567ffffffffffffffff8111156134bd578182fd5b6020830191508360208285010111156134d557600080fd5b9250929050565b803560ff811681146108c157600080fd5b6000602082840312156134fe578081fd5b612fa3826133f7565b60008060408385031215613519578081fd5b613522836133f7565b9150613530602084016133f7565b90509250929050565b6000806000806080858703121561354e578182fd5b613557856133f7565b9350613565602086016133f7565b9250613573604086016133f7565b9150613581606086016133f7565b905092959194509250565b6000806000606084860312156135a0578283fd5b6135a9846133f7565b92506135b7602085016133f7565b9150604084013590509250925092565b600080600080608085870312156135dc578384fd5b6135e5856133f7565b93506135f3602086016133f7565b925060408501359150606085013567ffffffffffffffff811115613615578182fd5b6136218782880161340e565b91505092959194509250565b6000806040838503121561363f578182fd5b613648836133f7565b91506020830135801515811461365c578182fd5b809150509250929050565b60008060408385031215613679578182fd5b613682836133f7565b9150602083013567ffffffffffffffff81111561369d578182fd5b6136a98582860161340e565b9150509250929050565b6000806000604084860312156136c7578283fd5b6136d0846133f7565b9250602084013567ffffffffffffffff8111156136eb578283fd5b6136f786828701613495565b9497909650939450505050565b60008060008060008060a0878903121561371c578182fd5b613725876133f7565b9550602087013567ffffffffffffffff811115613740578283fd5b61374c89828a01613495565b909650945061375f9050604088016134dc565b925061376d606088016134dc565b9150608087013590509295509295509295565b60008060008060008060008060c0898b03121561379b578182fd5b6137a4896133f7565b9750602089013567ffffffffffffffff808211156137c0578384fd5b6137cc8c838d01613495565b90995097508791506137e060408c016134dc565b96506137ee60608c016134dc565b955060808b0135945060a08b013591508082111561380a578384fd5b506138178b828c01613495565b999c989b5096995094979396929594505050565b6000806040838503121561383d578182fd5b613846836133f7565b946020939093013593505050565b600060208284031215613865578081fd5b5035919050565b60006020828403121561387d578081fd5b5051919050565b60008060408385031215613896578182fd5b82359150613530602084016133f7565b6000602082840312156138b7578081fd5b8135612fa381613c1b565b6000602082840312156138d3578081fd5b8151612fa381613c1b565b600081518084526138f6816020860160208601613b71565b601f01601f19169290920160200192915050565b6000825161391c818460208701613b71565b9190910192915050565b6000828483379101908152919050565b60007f416363657373436f6e74726f6c3a206163636f756e74200000000000000000008252835161396e816017850160208801613b71565b7f206973206d697373696e6720726f6c652000000000000000000000000000000060179184019182015283516139ab816028840160208801613b71565b01602801949350505050565b60006001600160a01b0380871683528086166020840152508360408301526080606083015261320960808301846138de565b60006001600160a01b038316825260606020830152613a1e606083016006815265484156454e3160d01b602082015260400190565b828103604093840152600681527f565443414c4c000000000000000000000000000000000000000000000000000060208201529190910192915050565b600060208252612fa360208301846138de565b600060608252613a94606083016006815265484156454e3160d01b602082015260400190565b6001600160a01b03949094166020830152506040015290565b60006020825282516020830152602083015160a06040840152613ad360c08401826138de565b905060ff604085015116606084015260ff6060850151166080840152608084015160a08401528091505092915050565b600086825260a06020830152613b1c60a08301876138de565b60ff9586166040840152939094166060820152608001529392505050565b60008219821115613b4d57613b4d613bef565b500190565b6000816000190483118215151615613b6c57613b6c613bef565b500290565b60005b83811015613b8c578181015183820152602001613b74565b838111156117045750506000910152565b600081613bac57613bac613bef565b506000190190565b600281046001821680613bc857607f821691505b60208210811415613be957634e487b7160e01b600052602260045260246000fd5b50919050565b634e487b7160e01b600052601160045260246000fd5b634e487b7160e01b600052604160045260246000fd5b6001600160e01b031981168114610da057600080fdfe416464726573733a206c6f772d6c6576656c2064656c65676174652063616c6c206661696c6564a2646970667358221220556bb4420643e7cf92239342aaca0d51cd059ceaea16ef6bfb6e781c2e2e665164736f6c63430008020033",
  "linkReferences": {},
  "deployedLinkReferences": {}
}