{
  "_format": "hh-sol-artifact-1",
  "contractName": "ProofOfIdentity",
  "sourceName": "contracts/ProofOfIdentity.sol",
  "abi": [
    {
      "anonymous": false,
      "inputs": [
        {
          "indexed": true,
          "internalType": "address",
          "name": "account",
          "type": "address"
        },
        {
          "indexed": true,
          "internalType": "uint256",
          "name": "tokenId",
          "type": "uint256"
        },
        {
          "indexed": true,
          "internalType": "string",
          "name": "reason",
          "type": "string"
        }
      ],
      "name": "AccountSuspendedTokenBurned",
      "type": "event"
    },
    {
      "anonymous": false,
      "inputs": [
        {
          "indexed": true,
          "internalType": "address",
          "name": "account",
          "type": "address"
        },
        {
          "indexed": true,
          "internalType": "string",
          "name": "reason",
          "type": "string"
        }
      ],
      "name": "AccountSuspendedTokenMaintained",
      "type": "event"
    },
    {
      "anonymous": false,
      "inputs": [
        {
          "indexed": true,
          "internalType": "address",
          "name": "owner",
          "type": "address"
        },
        {
          "indexed": true,
          "internalType": "address",
          "name": "approved",
          "type": "address"
        },
        {
          "indexed": true,
          "internalType": "uint256",
          "name": "tokenId",
          "type": "uint256"
        }
      ],
      "name": "Approval",
      "type": "event"
    },
    {
      "anonymous": false,
      "inputs": [
        {
          "indexed": true,
          "internalType": "address",
          "name": "owner",
          "type": "address"
        },
        {
          "indexed": true,
          "internalType": "address",
          "name": "operator",
          "type": "address"
        },
        {
          "indexed": false,
          "internalType": "bool",
          "name": "approved",
          "type": "bool"
        }
      ],
      "name": "ApprovalForAll",
      "type": "event"
    },
    {
      "anonymous": false,
      "inputs": [
        {
          "indexed": true,
          "internalType": "address",
          "name": "account",
          "type": "address"
        },
        {
          "indexed": true,
          "internalType": "uint256",
          "name": "tokenId",
          "type": "uint256"
        }
      ],
      "name": "IdentityMinted",
      "type": "event"
    },
    {
      "anonymous": false,
      "inputs": [
        {
          "indexed": true,
          "internalType": "address",
          "name": "account",
          "type": "address"
        },
        {
          "indexed": true,
          "internalType": "uint256",
          "name": "tokenId",
          "type": "uint256"
        }
      ],
      "name": "IdentityUpdated",
      "type": "event"
    },
    {
      "anonymous": false,
      "inputs": [
        {
          "indexed": false,
          "internalType": "uint8",
          "name": "version",
          "type": "uint8"
        }
      ],
      "name": "Initialized",
      "type": "event"
    },
    {
      "anonymous": false,
      "inputs": [
        {
          "indexed": true,
          "internalType": "bytes32",
          "name": "role",
          "type": "bytes32"
        },
        {
          "indexed": true,
          "internalType": "bytes32",
          "name": "previousAdminRole",
          "type": "bytes32"
        },
        {
          "indexed": true,
          "internalType": "bytes32",
          "name": "newAdminRole",
          "type": "bytes32"
        }
      ],
      "name": "RoleAdminChanged",
      "type": "event"
    },
    {
      "anonymous": false,
      "inputs": [
        {
          "indexed": true,
          "internalType": "bytes32",
          "name": "role",
          "type": "bytes32"
        },
        {
          "indexed": true,
          "internalType": "address",
          "name": "account",
          "type": "address"
        },
        {
          "indexed": true,
          "internalType": "address",
          "name": "sender",
          "type": "address"
        }
      ],
      "name": "RoleGranted",
      "type": "event"
    },
    {
      "anonymous": false,
      "inputs": [
        {
          "indexed": true,
          "internalType": "bytes32",
          "name": "role",
          "type": "bytes32"
        },
        {
          "indexed": true,
          "internalType": "address",
          "name": "account",
          "type": "address"
        },
        {
          "indexed": true,
          "internalType": "address",
          "name": "sender",
          "type": "address"
        }
      ],
      "name": "RoleRevoked",
      "type": "event"
    },
    {
      "anonymous": false,
      "inputs": [
        {
          "indexed": true,
          "internalType": "address",
          "name": "account",
          "type": "address"
        },
        {
          "indexed": true,
          "internalType": "uint256",
          "name": "tokenId",
          "type": "uint256"
        },
        {
          "indexed": true,
          "internalType": "string",
          "name": "newURI",
          "type": "string"
        }
      ],
      "name": "TokenURIUpdated",
      "type": "event"
    },
    {
      "anonymous": false,
      "inputs": [
        {
          "indexed": true,
          "internalType": "address",
          "name": "from",
          "type": "address"
        },
        {
          "indexed": true,
          "internalType": "address",
          "name": "to",
          "type": "address"
        },
        {
          "indexed": true,
          "internalType": "uint256",
          "name": "tokenId",
          "type": "uint256"
        }
      ],
      "name": "Transfer",
      "type": "event"
    },
    {
      "inputs": [],
      "name": "DEFAULT_ADMIN_ROLE",
      "outputs": [
        {
          "internalType": "bytes32",
          "name": "",
          "type": "bytes32"
        }
      ],
      "stateMutability": "view",
      "type": "function"
    },
    {
      "inputs": [],
      "name": "PROVER_ROLE",
      "outputs": [
        {
          "internalType": "bytes32",
          "name": "",
          "type": "bytes32"
        }
      ],
      "stateMutability": "view",
      "type": "function"
    },
    {
      "inputs": [
        {
          "internalType": "address",
          "name": "to",
          "type": "address"
        },
        {
          "internalType": "uint256",
          "name": "tokenId",
          "type": "uint256"
        }
      ],
      "name": "approve",
      "outputs": [],
      "stateMutability": "nonpayable",
      "type": "function"
    },
    {
      "inputs": [
        {
          "internalType": "address",
          "name": "owner",
          "type": "address"
        }
      ],
      "name": "balanceOf",
      "outputs": [
        {
          "internalType": "uint256",
          "name": "",
          "type": "uint256"
        }
      ],
      "stateMutability": "view",
      "type": "function"
    },
    {
      "inputs": [
        {
          "internalType": "uint256",
          "name": "tokenId",
          "type": "uint256"
        }
      ],
      "name": "getApproved",
      "outputs": [
        {
          "internalType": "address",
          "name": "",
          "type": "address"
        }
      ],
      "stateMutability": "view",
      "type": "function"
    },
    {
      "inputs": [],
      "name": "getCurrentTokenId",
      "outputs": [
        {
          "internalType": "uint256",
          "name": "",
          "type": "uint256"
        }
      ],
      "stateMutability": "view",
      "type": "function"
    },
    {
      "inputs": [
        {
          "internalType": "bytes32",
          "name": "role",
          "type": "bytes32"
        }
      ],
      "name": "getRoleAdmin",
      "outputs": [
        {
          "internalType": "bytes32",
          "name": "",
          "type": "bytes32"
        }
      ],
      "stateMutability": "view",
      "type": "function"
    },
    {
      "inputs": [
        {
          "internalType": "address",
          "name": "account",
          "type": "address"
        }
      ],
      "name": "getUserAccountCountryCode",
      "outputs": [
        {
          "internalType": "string",
          "name": "userAccountCountryCode",
          "type": "string"
        }
      ],
      "stateMutability": "view",
      "type": "function"
    },
    {
      "inputs": [
        {
          "internalType": "address",
          "name": "account",
          "type": "address"
        }
      ],
      "name": "getUserAccountCountryCodePreventOnExpiry",
      "outputs": [
        {
          "internalType": "string",
          "name": "userAccountCountryCode",
          "type": "string"
        }
      ],
      "stateMutability": "view",
      "type": "function"
    },
    {
      "inputs": [
        {
          "internalType": "address",
          "name": "account",
          "type": "address"
        }
      ],
      "name": "getUserAccountExpiry",
      "outputs": [
        {
          "internalType": "uint256",
          "name": "userAccountExpiry",
          "type": "uint256"
        }
      ],
      "stateMutability": "view",
      "type": "function"
    },
    {
      "inputs": [
        {
          "internalType": "address",
          "name": "account",
          "type": "address"
        }
      ],
      "name": "getUserAccountIdentityBlob",
      "outputs": [
        {
          "components": [
            {
              "internalType": "uint256",
              "name": "tokenId",
              "type": "uint256"
            },
            {
              "internalType": "string",
              "name": "countryCode",
              "type": "string"
            },
            {
              "internalType": "uint8",
              "name": "userType",
              "type": "uint8"
            },
            {
              "internalType": "uint8",
              "name": "level",
              "type": "uint8"
            },
            {
              "internalType": "uint256",
              "name": "expiry",
              "type": "uint256"
            }
          ],
          "internalType": "struct RoleVerification.IdentityBlob",
          "name": "userIdentityBlob",
          "type": "tuple"
        }
      ],
      "stateMutability": "view",
      "type": "function"
    },
    {
      "inputs": [
        {
          "internalType": "address",
          "name": "account",
          "type": "address"
        }
      ],
      "name": "getUserAccountLevel",
      "outputs": [
        {
          "internalType": "uint8",
          "name": "userAccountLevel",
          "type": "uint8"
        }
      ],
      "stateMutability": "view",
      "type": "function"
    },
    {
      "inputs": [
        {
          "internalType": "address",
          "name": "account",
          "type": "address"
        }
      ],
      "name": "getUserAccountLevelPreventOnExpiry",
      "outputs": [
        {
          "internalType": "uint8",
          "name": "",
          "type": "uint8"
        }
      ],
      "stateMutability": "view",
      "type": "function"
    },
    {
      "inputs": [
        {
          "internalType": "address",
          "name": "account",
          "type": "address"
        }
      ],
      "name": "getUserAccountType",
      "outputs": [
        {
          "internalType": "uint8",
          "name": "userAccountType",
          "type": "uint8"
        }
      ],
      "stateMutability": "view",
      "type": "function"
    },
    {
      "inputs": [
        {
          "internalType": "address",
          "name": "account",
          "type": "address"
        }
      ],
      "name": "getUserAccountTypePreventOnExpiry",
      "outputs": [
        {
          "internalType": "uint8",
          "name": "",
          "type": "uint8"
        }
      ],
      "stateMutability": "view",
      "type": "function"
    },
    {
      "inputs": [
        {
          "internalType": "bytes32",
          "name": "role",
          "type": "bytes32"
        },
        {
          "internalType": "address",
          "name": "account",
          "type": "address"
        }
      ],
      "name": "grantRole",
      "outputs": [],
      "stateMutability": "nonpayable",
      "type": "function"
    },
    {
      "inputs": [
        {
          "internalType": "bytes32",
          "name": "role",
          "type": "bytes32"
        },
        {
          "internalType": "address",
          "name": "account",
          "type": "address"
        }
      ],
      "name": "hasRole",
      "outputs": [
        {
          "internalType": "bool",
          "name": "",
          "type": "bool"
        }
      ],
      "stateMutability": "view",
      "type": "function"
    },
    {
      "inputs": [
        {
          "internalType": "address",
          "name": "",
          "type": "address"
        }
      ],
      "name": "identityBlob",
      "outputs": [
        {
          "internalType": "uint256",
          "name": "tokenId",
          "type": "uint256"
        },
        {
          "internalType": "string",
          "name": "countryCode",
          "type": "string"
        },
        {
          "internalType": "uint8",
          "name": "userType",
          "type": "uint8"
        },
        {
          "internalType": "uint8",
          "name": "level",
          "type": "uint8"
        },
        {
          "internalType": "uint256",
          "name": "expiry",
          "type": "uint256"
        }
      ],
      "stateMutability": "view",
      "type": "function"
    },
    {
      "inputs": [
        {
          "internalType": "address",
          "name": "permissionsInterface",
          "type": "address"
        }
      ],
      "name": "initialize",
      "outputs": [],
      "stateMutability": "nonpayable",
      "type": "function"
    },
    {
      "inputs": [
        {
          "internalType": "address",
          "name": "owner",
          "type": "address"
        },
        {
          "internalType": "address",
          "name": "operator",
          "type": "address"
        }
      ],
      "name": "isApprovedForAll",
      "outputs": [
        {
          "internalType": "bool",
          "name": "",
          "type": "bool"
        }
      ],
      "stateMutability": "view",
      "type": "function"
    },
    {
      "inputs": [
        {
          "internalType": "address",
          "name": "account",
          "type": "address"
        },
        {
          "internalType": "string",
          "name": "countryCode",
          "type": "string"
        },
        {
          "internalType": "uint8",
          "name": "userType",
          "type": "uint8"
        },
        {
          "internalType": "uint8",
          "name": "level",
          "type": "uint8"
        },
        {
          "internalType": "uint256",
          "name": "expiry",
          "type": "uint256"
        },
        {
          "internalType": "string",
          "name": "tokenUri",
          "type": "string"
        }
      ],
      "name": "mintIdentity",
      "outputs": [],
      "stateMutability": "nonpayable",
      "type": "function"
    },
    {
      "inputs": [],
      "name": "name",
      "outputs": [
        {
          "internalType": "string",
          "name": "",
          "type": "string"
        }
      ],
      "stateMutability": "view",
      "type": "function"
    },
    {
      "inputs": [
        {
          "internalType": "uint256",
          "name": "tokenId",
          "type": "uint256"
        }
      ],
      "name": "ownerOf",
      "outputs": [
        {
          "internalType": "address",
          "name": "",
          "type": "address"
        }
      ],
      "stateMutability": "view",
      "type": "function"
    },
    {
      "inputs": [
        {
          "internalType": "bytes32",
          "name": "role",
          "type": "bytes32"
        },
        {
          "internalType": "address",
          "name": "account",
          "type": "address"
        }
      ],
      "name": "renounceRole",
      "outputs": [],
      "stateMutability": "nonpayable",
      "type": "function"
    },
    {
      "inputs": [
        {
          "internalType": "bytes32",
          "name": "role",
          "type": "bytes32"
        },
        {
          "internalType": "address",
          "name": "account",
          "type": "address"
        }
      ],
      "name": "revokeRole",
      "outputs": [],
      "stateMutability": "nonpayable",
      "type": "function"
    },
    {
      "inputs": [
        {
          "internalType": "address",
          "name": "from",
          "type": "address"
        },
        {
          "internalType": "address",
          "name": "to",
          "type": "address"
        },
        {
          "internalType": "uint256",
          "name": "tokenId",
          "type": "uint256"
        }
      ],
      "name": "safeTransferFrom",
      "outputs": [],
      "stateMutability": "nonpayable",
      "type": "function"
    },
    {
      "inputs": [
        {
          "internalType": "address",
          "name": "from",
          "type": "address"
        },
        {
          "internalType": "address",
          "name": "to",
          "type": "address"
        },
        {
          "internalType": "uint256",
          "name": "tokenId",
          "type": "uint256"
        },
        {
          "internalType": "bytes",
          "name": "data",
          "type": "bytes"
        }
      ],
      "name": "safeTransferFrom",
      "outputs": [],
      "stateMutability": "nonpayable",
      "type": "function"
    },
    {
      "inputs": [
        {
          "internalType": "address",
          "name": "operator",
          "type": "address"
        },
        {
          "internalType": "bool",
          "name": "approved",
          "type": "bool"
        }
      ],
      "name": "setApprovalForAll",
      "outputs": [],
      "stateMutability": "nonpayable",
      "type": "function"
    },
    {
      "inputs": [
        {
          "internalType": "bytes4",
          "name": "interfaceId",
          "type": "bytes4"
        }
      ],
      "name": "supportsInterface",
      "outputs": [
        {
          "internalType": "bool",
          "name": "",
          "type": "bool"
        }
      ],
      "stateMutability": "view",
      "type": "function"
    },
    {
      "inputs": [
        {
          "internalType": "address",
          "name": "suspendAccount",
          "type": "address"
        },
        {
          "internalType": "string",
          "name": "reason",
          "type": "string"
        }
      ],
      "name": "suspendAccountDeleteTokenAndIdentityBlob",
      "outputs": [],
      "stateMutability": "nonpayable",
      "type": "function"
    },
    {
      "inputs": [
        {
          "internalType": "address",
          "name": "suspendAddress",
          "type": "address"
        },
        {
          "internalType": "string",
          "name": "reason",
          "type": "string"
        }
      ],
      "name": "suspendAccountMaintainTokenAndIdentityBlob",
      "outputs": [],
      "stateMutability": "nonpayable",
      "type": "function"
    },
    {
      "inputs": [],
      "name": "symbol",
      "outputs": [
        {
          "internalType": "string",
          "name": "",
          "type": "string"
        }
      ],
      "stateMutability": "view",
      "type": "function"
    },
    {
      "inputs": [
        {
          "internalType": "uint256",
          "name": "tokenId",
          "type": "uint256"
        }
      ],
      "name": "tokenURI",
      "outputs": [
        {
          "internalType": "string",
          "name": "",
          "type": "string"
        }
      ],
      "stateMutability": "view",
      "type": "function"
    },
    {
      "inputs": [
        {
          "internalType": "address",
          "name": "from",
          "type": "address"
        },
        {
          "internalType": "address",
          "name": "to",
          "type": "address"
        },
        {
          "internalType": "uint256",
          "name": "tokenId",
          "type": "uint256"
        }
      ],
      "name": "transferFrom",
      "outputs": [],
      "stateMutability": "nonpayable",
      "type": "function"
    },
    {
      "inputs": [
        {
          "internalType": "address",
          "name": "account",
          "type": "address"
        },
        {
          "internalType": "string",
          "name": "countryCode",
          "type": "string"
        },
        {
          "internalType": "uint8",
          "name": "userType",
          "type": "uint8"
        },
        {
          "internalType": "uint8",
          "name": "level",
          "type": "uint8"
        },
        {
          "internalType": "uint256",
          "name": "expiry",
          "type": "uint256"
        }
      ],
      "name": "updateIdentity",
      "outputs": [],
      "stateMutability": "nonpayable",
      "type": "function"
    },
    {
      "inputs": [
        {
          "internalType": "address",
          "name": "account",
          "type": "address"
        },
        {
          "internalType": "string",
          "name": "tokenUri",
          "type": "string"
        }
      ],
      "name": "updateTokenURI",
      "outputs": [],
      "stateMutability": "nonpayable",
      "type": "function"
    }
  ],
  "bytecode": "0x608060405234801561001057600080fd5b50615214806100206000396000f3fe608060405234801561001057600080fd5b506004361061021c5760003560e01c806391d1485411610125578063c4d66de8116100ad578063dc9a4ef61161007c578063dc9a4ef6146106bd578063dfb24b89146106db578063e86573e41461070b578063e985e9c514610727578063f6a4b4d7146107575761021c565b8063c4d66de814610639578063c87b56dd14610655578063d4ec909614610685578063d547741f146106a15761021c565b8063a217fddf116100f4578063a217fddf14610583578063a22cb465146105a1578063b467177f146105bd578063b88d4fde146105ed578063c207e9e0146106095761021c565b806391d14854146104d5578063949cdd6e1461050557806395d89b411461053557806396257e4d146105535761021c565b806336568abe116101a85780636352211e116101775780636352211e146103f5578063688ea9fe146104255780636ca5fde81461045957806370a082311461048957806380a5a896146104b95761021c565b806336568abe146103835780633bc2c0781461039f57806342842e0e146103bb57806356189236146103d75761021c565b8063095ea7b3116101ef578063095ea7b3146102cf5780631fe0094a146102eb57806323b872dd1461031b578063248a9ca3146103375780632f2ff15d146103675761021c565b806301ffc9a71461022157806306fdde0314610251578063081812fc1461026f57806309299ea31461029f575b600080fd5b61023b60048036038101906102369190614009565b610773565b6040516102489190614616565b60405180910390f35b610259610785565b6040516102669190614667565b60405180910390f35b6102896004803603810190610284919061405b565b610817565b604051610296919061456e565b60405180910390f35b6102b960048036038101906102b49190613c50565b61085d565b6040516102c691906148c7565b60405180910390f35b6102e960048036038101906102e49190613f68565b6108a8565b005b61030560048036038101906103009190613c50565b6109c0565b604051610312919061493c565b60405180910390f35b61033560048036038101906103309190613cb5565b610ad2565b005b610351600480360381019061034c9190613fa4565b610b44565b60405161035e9190614631565b60405180910390f35b610381600480360381019061037c9190613fcd565b610b64565b005b61039d60048036038101906103989190613fcd565b610b85565b005b6103b960048036038101906103b49190613dbb565b610c08565b005b6103d560048036038101906103d09190613cb5565b610dfb565b005b6103df610e6d565b6040516103ec91906148c7565b60405180910390f35b61040f600480360381019061040a919061405b565b610e7e565b60405161041c919061456e565b60405180910390f35b61043f600480360381019061043a9190613c50565b610f05565b6040516104509594939291906148e2565b60405180910390f35b610473600480360381019061046e9190613c50565b610fdd565b60405161048091906148a5565b60405180910390f35b6104a3600480360381019061049e9190613c50565b611115565b6040516104b091906148c7565b60405180910390f35b6104d360048036038101906104ce9190613dbb565b6111cd565b005b6104ef60048036038101906104ea9190613fcd565b6112e8565b6040516104fc9190614616565b60405180910390f35b61051f600480360381019061051a9190613c50565b611353565b60405161052c919061493c565b60405180910390f35b61053d611465565b60405161054a9190614667565b60405180910390f35b61056d60048036038101906105689190613c50565b6114f7565b60405161057a9190614667565b60405180910390f35b61058b611684565b6040516105989190614631565b60405180910390f35b6105bb60048036038101906105b69190613d7f565b61168b565b005b6105d760048036038101906105d29190613c50565b6116a1565b6040516105e4919061493c565b60405180910390f35b61060760048036038101906106029190613d04565b6116f9565b005b610623600480360381019061061e9190613c50565b61175b565b604051610630919061493c565b60405180910390f35b610653600480360381019061064e9190613c50565b6117b3565b005b61066f600480360381019061066a919061405b565b6119e8565b60405161067c9190614667565b60405180910390f35b61069f600480360381019061069a9190613ea5565b611b0e565b005b6106bb60048036038101906106b69190613fcd565b611ec2565b005b6106c5611ee3565b6040516106d29190614631565b60405180910390f35b6106f560048036038101906106f09190613c50565b611f07565b6040516107029190614667565b60405180910390f35b61072560048036038101906107209190613e13565b611fda565b005b610741600480360381019061073c9190613c79565b612241565b60405161074e9190614616565b60405180910390f35b610771600480360381019061076c9190613dbb565b6122d5565b005b600061077e8261244a565b9050919050565b60606066805461079490614bcc565b80601f01602080910402602001604051908101604052809291908181526020018280546107c090614bcc565b801561080d5780601f106107e25761010080835404028352916020019161080d565b820191906000526020600020905b8154815290600101906020018083116107f057829003601f168201915b5050505050905090565b6000610822826124c4565b606a600083815260200190815260200160002060009054906101000a900473ffffffffffffffffffffffffffffffffffffffff169050919050565b60008060008373ffffffffffffffffffffffffffffffffffffffff1673ffffffffffffffffffffffffffffffffffffffff168152602001908152602001600020600301549050919050565b60006108b382610e7e565b90508073ffffffffffffffffffffffffffffffffffffffff168373ffffffffffffffffffffffffffffffffffffffff161415610924576040517f08c379a000000000000000000000000000000000000000000000000000000000815260040161091b90614825565b60405180910390fd5b8073ffffffffffffffffffffffffffffffffffffffff1661094361250f565b73ffffffffffffffffffffffffffffffffffffffff16148061097257506109718161096c61250f565b612241565b5b6109b1576040517f08c379a00000000000000000000000000000000000000000000000000000000081526004016109a890614845565b60405180910390fd5b6109bb8383612517565b505050565b60008060008373ffffffffffffffffffffffffffffffffffffffff1673ffffffffffffffffffffffffffffffffffffffff168152602001908152602001600020600301544210610a7c576040518060400160405280600381526020017f31303300000000000000000000000000000000000000000000000000000000008152506040517f08c379a0000000000000000000000000000000000000000000000000000000008152600401610a739190614667565b60405180910390fd5b6000808373ffffffffffffffffffffffffffffffffffffffff1673ffffffffffffffffffffffffffffffffffffffff16815260200190815260200160002060020160009054906101000a900460ff169050919050565b6040518060400160405280600381526020017f31303200000000000000000000000000000000000000000000000000000000008152506040517f08c379a0000000000000000000000000000000000000000000000000000000008152600401610b3b9190614667565b60405180910390fd5b600060986000838152602001908152602001600020600101549050919050565b610b6d82610b44565b610b76816125d0565b610b8083836125e4565b505050565b610b8d61250f565b73ffffffffffffffffffffffffffffffffffffffff168173ffffffffffffffffffffffffffffffffffffffff1614610bfa576040517f08c379a0000000000000000000000000000000000000000000000000000000008152600401610bf190614885565b60405180910390fd5b610c0482826126c5565b5050565b7f60044782a422109ac08a415e44260ad5d3bad63d96ebe1fac0363399642ee3f2610c32816125d0565b60cb60009054906101000a900473ffffffffffffffffffffffffffffffffffffffff1673ffffffffffffffffffffffffffffffffffffffff166384b7a84a8560016040518363ffffffff1660e01b8152600401610c909291906147c9565b600060405180830381600087803b158015610caa57600080fd5b505af1158015610cbe573d6000803e3d6000fd5b50505050600060cc60008673ffffffffffffffffffffffffffffffffffffffff1673ffffffffffffffffffffffffffffffffffffffff168152602001908152602001600020549050610d0f816127a7565b6000808673ffffffffffffffffffffffffffffffffffffffff1673ffffffffffffffffffffffffffffffffffffffff168152602001908152602001600020600080820160009055600182016000610d66919061396d565b6002820160006101000a81549060ff02191690556002820160016101000a81549060ff0219169055600382016000905550508383604051610da892919061451b565b6040518091039020818673ffffffffffffffffffffffffffffffffffffffff167f8b09fc40032762aebf578cd9202b2548559cbac190b3807076418620ef05518f60405160405180910390a45050505050565b6040518060400160405280600381526020017f31303200000000000000000000000000000000000000000000000000000000008152506040517f08c379a0000000000000000000000000000000000000000000000000000000008152600401610e649190614667565b60405180910390fd5b6000610e7960ca6128f5565b905090565b600080610e8a83612903565b9050600073ffffffffffffffffffffffffffffffffffffffff168173ffffffffffffffffffffffffffffffffffffffff161415610efc576040517f08c379a0000000000000000000000000000000000000000000000000000000008152600401610ef390614805565b60405180910390fd5b80915050919050565b6000602052806000526040600020600091509050806000015490806001018054610f2e90614bcc565b80601f0160208091040260200160405190810160405280929190818152602001828054610f5a90614bcc565b8015610fa75780601f10610f7c57610100808354040283529160200191610fa7565b820191906000526020600020905b815481529060010190602001808311610f8a57829003601f168201915b5050505050908060020160009054906101000a900460ff16908060020160019054906101000a900460ff16908060030154905085565b610fe56139ad565b6000808373ffffffffffffffffffffffffffffffffffffffff1673ffffffffffffffffffffffffffffffffffffffff1681526020019081526020016000206040518060a00160405290816000820154815260200160018201805461104890614bcc565b80601f016020809104026020016040519081016040528092919081815260200182805461107490614bcc565b80156110c15780601f10611096576101008083540402835291602001916110c1565b820191906000526020600020905b8154815290600101906020018083116110a457829003601f168201915b505050505081526020016002820160009054906101000a900460ff1660ff1660ff1681526020016002820160019054906101000a900460ff1660ff1660ff1681526020016003820154815250509050919050565b60008073ffffffffffffffffffffffffffffffffffffffff168273ffffffffffffffffffffffffffffffffffffffff161415611186576040517f08c379a000000000000000000000000000000000000000000000000000000000815260040161117d90614769565b60405180910390fd5b606960008373ffffffffffffffffffffffffffffffffffffffff1673ffffffffffffffffffffffffffffffffffffffff168152602001908152602001600020549050919050565b7f60044782a422109ac08a415e44260ad5d3bad63d96ebe1fac0363399642ee3f26111f7816125d0565b60cb60009054906101000a900473ffffffffffffffffffffffffffffffffffffffff1673ffffffffffffffffffffffffffffffffffffffff166384b7a84a8560016040518363ffffffff1660e01b81526004016112559291906147c9565b600060405180830381600087803b15801561126f57600080fd5b505af1158015611283573d6000803e3d6000fd5b50505050828260405161129792919061451b565b60405180910390208473ffffffffffffffffffffffffffffffffffffffff167f3347b0049117ab94fddf6cff81cc554c4f7489acedc7c33907a96655770e58ae60405160405180910390a350505050565b60006098600084815260200190815260200160002060000160008373ffffffffffffffffffffffffffffffffffffffff1673ffffffffffffffffffffffffffffffffffffffff16815260200190815260200160002060009054906101000a900460ff16905092915050565b60008060008373ffffffffffffffffffffffffffffffffffffffff1673ffffffffffffffffffffffffffffffffffffffff16815260200190815260200160002060030154421061140f576040518060400160405280600381526020017f31303300000000000000000000000000000000000000000000000000000000008152506040517f08c379a00000000000000000000000000000000000000000000000000000000081526004016114069190614667565b60405180910390fd5b6000808373ffffffffffffffffffffffffffffffffffffffff1673ffffffffffffffffffffffffffffffffffffffff16815260200190815260200160002060020160019054906101000a900460ff169050919050565b60606067805461147490614bcc565b80601f01602080910402602001604051908101604052809291908181526020018280546114a090614bcc565b80156114ed5780601f106114c2576101008083540402835291602001916114ed565b820191906000526020600020905b8154815290600101906020018083116114d057829003601f168201915b5050505050905090565b60606000808373ffffffffffffffffffffffffffffffffffffffff1673ffffffffffffffffffffffffffffffffffffffff1681526020019081526020016000206003015442106115b3576040518060400160405280600381526020017f31303300000000000000000000000000000000000000000000000000000000008152506040517f08c379a00000000000000000000000000000000000000000000000000000000081526004016115aa9190614667565b60405180910390fd5b6000808373ffffffffffffffffffffffffffffffffffffffff1673ffffffffffffffffffffffffffffffffffffffff16815260200190815260200160002060010180546115ff90614bcc565b80601f016020809104026020016040519081016040528092919081815260200182805461162b90614bcc565b80156116785780601f1061164d57610100808354040283529160200191611678565b820191906000526020600020905b81548152906001019060200180831161165b57829003601f168201915b50505050509050919050565b6000801b81565b61169d61169661250f565b8383612940565b5050565b60008060008373ffffffffffffffffffffffffffffffffffffffff1673ffffffffffffffffffffffffffffffffffffffff16815260200190815260200160002060020160009054906101000a900460ff169050919050565b61170a61170461250f565b83612aad565b611749576040517f08c379a0000000000000000000000000000000000000000000000000000000008152600401611740906146a9565b60405180910390fd5b61175584848484612b42565b50505050565b60008060008373ffffffffffffffffffffffffffffffffffffffff1673ffffffffffffffffffffffffffffffffffffffff16815260200190815260200160002060020160019054906101000a900460ff169050919050565b600060018054906101000a900460ff161590508080156117e4575060018060009054906101000a900460ff1660ff16105b8061181257506117f330612b9e565b158015611811575060018060009054906101000a900460ff1660ff16145b5b611851576040517f08c379a000000000000000000000000000000000000000000000000000000000815260040161184890614789565b60405180910390fd5b60018060006101000a81548160ff021916908360ff160217905550801561188d5760018060016101000a81548160ff0219169083151502179055505b611895612bc1565b6119096040518060400160405280601181526020017f50726f6f66206f66204964656e746974790000000000000000000000000000008152506040518060400160405280600581526020017f48312d4944000000000000000000000000000000000000000000000000000000815250612c10565b8160cb60006101000a81548173ffffffffffffffffffffffffffffffffffffffff021916908373ffffffffffffffffffffffffffffffffffffffff1602179055506119747f60044782a422109ac08a415e44260ad5d3bad63d96ebe1fac0363399642ee3f2336125e4565b6119816000801b336125e4565b61198b60ca612c6b565b80156119e45760006001806101000a81548160ff0219169083151502179055507f7f26b83ff96e1f2b6a682f133852f6798a09c465da95921460cefb384740249860016040516119db919061464c565b60405180910390a15b5050565b60606119f382612c81565b6040518060400160405280600381526020017f313031000000000000000000000000000000000000000000000000000000000081525090611a6a576040517f08c379a0000000000000000000000000000000000000000000000000000000008152600401611a619190614667565b60405180910390fd5b5060cd60008381526020019081526020016000208054611a8990614bcc565b80601f0160208091040260200160405190810160405280929190818152602001828054611ab590614bcc565b8015611b025780601f10611ad757610100808354040283529160200191611b02565b820191906000526020600020905b815481529060010190602001808311611ae557829003601f168201915b50505050509050919050565b7f60044782a422109ac08a415e44260ad5d3bad63d96ebe1fac0363399642ee3f2611b38816125d0565b6000611b438a611115565b146040518060400160405280600381526020017f313030000000000000000000000000000000000000000000000000000000000081525090611bbb576040517f08c379a0000000000000000000000000000000000000000000000000000000008152600401611bb29190614667565b60405180910390fd5b504284116040518060400160405280600381526020017f313033000000000000000000000000000000000000000000000000000000000081525090611c36576040517f08c379a0000000000000000000000000000000000000000000000000000000008152600401611c2d9190614667565b60405180910390fd5b506000611c4360ca6128f5565b90506040518060a001604052808281526020018a8a8080601f016020809104026020016040519081016040528093929190818152602001838380828437600081840152601f19601f8201169050808301925050505050505081526020018860ff1681526020018760ff168152602001868152506000808c73ffffffffffffffffffffffffffffffffffffffff1673ffffffffffffffffffffffffffffffffffffffff168152602001908152602001600020600082015181600001556020820151816001019080519060200190611d1a9291906139e2565b5060408201518160020160006101000a81548160ff021916908360ff16021790555060608201518160020160016101000a81548160ff021916908360ff16021790555060808201518160030155905050611d7460ca612c6b565b611d7e8a82612cc2565b838360cd60008481526020019081526020016000209190611da0929190613a68565b508060cc60008c73ffffffffffffffffffffffffffffffffffffffff1673ffffffffffffffffffffffffffffffffffffffff1681526020019081526020016000208190555060cb60009054906101000a900473ffffffffffffffffffffffffffffffffffffffff1673ffffffffffffffffffffffffffffffffffffffff16632f7f0a128b6040518263ffffffff1660e01b8152600401611e4091906145d5565b600060405180830381600087803b158015611e5a57600080fd5b505af1158015611e6e573d6000803e3d6000fd5b50505050808a73ffffffffffffffffffffffffffffffffffffffff167faf62702571aa2959cc884d2d2f058f2dde9f91f8cb7b5a5c62887ec1aef856e760405160405180910390a350505050505050505050565b611ecb82610b44565b611ed4816125d0565b611ede83836126c5565b505050565b7f60044782a422109ac08a415e44260ad5d3bad63d96ebe1fac0363399642ee3f281565b60606000808373ffffffffffffffffffffffffffffffffffffffff1673ffffffffffffffffffffffffffffffffffffffff1681526020019081526020016000206001018054611f5590614bcc565b80601f0160208091040260200160405190810160405280929190818152602001828054611f8190614bcc565b8015611fce5780601f10611fa357610100808354040283529160200191611fce565b820191906000526020600020905b815481529060010190602001808311611fb157829003601f168201915b50505050509050919050565b7f60044782a422109ac08a415e44260ad5d3bad63d96ebe1fac0363399642ee3f2612004816125d0565b600161200f88611115565b146040518060400160405280600381526020017f313031000000000000000000000000000000000000000000000000000000000081525090612087576040517f08c379a000000000000000000000000000000000000000000000000000000000815260040161207e9190614667565b60405180910390fd5b5060008060008973ffffffffffffffffffffffffffffffffffffffff1673ffffffffffffffffffffffffffffffffffffffff1681526020019081526020016000206000015490506040518060a0016040528082815260200188888080601f016020809104026020016040519081016040528093929190818152602001838380828437600081840152601f19601f8201169050808301925050505050505081526020018660ff1681526020018560ff168152602001848152506000808a73ffffffffffffffffffffffffffffffffffffffff1673ffffffffffffffffffffffffffffffffffffffff1681526020019081526020016000206000820151816000015560208201518160010190805190602001906121a39291906139e2565b5060408201518160020160006101000a81548160ff021916908360ff16021790555060608201518160020160016101000a81548160ff021916908360ff16021790555060808201518160030155905050808873ffffffffffffffffffffffffffffffffffffffff167f4a1e31466f875c6fcafefabf90bce8accdf53108c4a309106058ef7aefebd5ce60405160405180910390a35050505050505050565b6000606b60008473ffffffffffffffffffffffffffffffffffffffff1673ffffffffffffffffffffffffffffffffffffffff16815260200190815260200160002060008373ffffffffffffffffffffffffffffffffffffffff1673ffffffffffffffffffffffffffffffffffffffff16815260200190815260200160002060009054906101000a900460ff16905092915050565b7f60044782a422109ac08a415e44260ad5d3bad63d96ebe1fac0363399642ee3f26122ff816125d0565b600060cc60008673ffffffffffffffffffffffffffffffffffffffff1673ffffffffffffffffffffffffffffffffffffffff16815260200190815260200160002054905061234c81612c81565b6040518060400160405280600381526020017f3130310000000000000000000000000000000000000000000000000000000000815250906123c3576040517f08c379a00000000000000000000000000000000000000000000000000000000081526004016123ba9190614667565b60405180910390fd5b50838360cd600084815260200190815260200160002091906123e6929190613a68565b5083836040516123f792919061451b565b6040518091039020818673ffffffffffffffffffffffffffffffffffffffff167fe3a3e1a0be0d562dd7ec739509d30dfbca7cd174fbc576a45746fe1f3b277c2660405160405180910390a45050505050565b60007f7965db0b000000000000000000000000000000000000000000000000000000007bffffffffffffffffffffffffffffffffffffffffffffffffffffffff1916827bffffffffffffffffffffffffffffffffffffffffffffffffffffffff191614806124bd57506124bc82612ce0565b5b9050919050565b6124cd81612c81565b61250c576040517f08c379a000000000000000000000000000000000000000000000000000000000815260040161250390614805565b60405180910390fd5b50565b600033905090565b81606a600083815260200190815260200160002060006101000a81548173ffffffffffffffffffffffffffffffffffffffff021916908373ffffffffffffffffffffffffffffffffffffffff160217905550808273ffffffffffffffffffffffffffffffffffffffff1661258a83610e7e565b73ffffffffffffffffffffffffffffffffffffffff167f8c5be1e5ebec7d5bd14f71427d1e84f3dd0314c0f7b2291e5b200ac8c7c3b92560405160405180910390a45050565b6125e1816125dc61250f565b612dc2565b50565b6125ee82826112e8565b6126c15760016098600084815260200190815260200160002060000160008373ffffffffffffffffffffffffffffffffffffffff1673ffffffffffffffffffffffffffffffffffffffff16815260200190815260200160002060006101000a81548160ff02191690831515021790555061266661250f565b73ffffffffffffffffffffffffffffffffffffffff168173ffffffffffffffffffffffffffffffffffffffff16837f2f8788117e7eff1d82e926ec794901d17c78024a50270940304540a733656f0d60405160405180910390a45b5050565b6126cf82826112e8565b156127a35760006098600084815260200190815260200160002060000160008373ffffffffffffffffffffffffffffffffffffffff1673ffffffffffffffffffffffffffffffffffffffff16815260200190815260200160002060006101000a81548160ff02191690831515021790555061274861250f565b73ffffffffffffffffffffffffffffffffffffffff168173ffffffffffffffffffffffffffffffffffffffff16837ff6391f5c32d9c69d2a47ea670b442974b53935d1edc7fd64eb21e047a839171b60405160405180910390a45b5050565b60006127b282610e7e565b90506127c2816000846001612e47565b6127cb82610e7e565b9050606a600083815260200190815260200160002060006101000a81549073ffffffffffffffffffffffffffffffffffffffff02191690556001606960008373ffffffffffffffffffffffffffffffffffffffff1673ffffffffffffffffffffffffffffffffffffffff168152602001908152602001600020600082825403925050819055506068600083815260200190815260200160002060006101000a81549073ffffffffffffffffffffffffffffffffffffffff021916905581600073ffffffffffffffffffffffffffffffffffffffff168273ffffffffffffffffffffffffffffffffffffffff167fddf252ad1be2c89b69c2b068fc378daa952ba7f163c4a11628f55a4df523b3ef60405160405180910390a46128f1816000846001612e4d565b5050565b600081600001549050919050565b60006068600083815260200190815260200160002060009054906101000a900473ffffffffffffffffffffffffffffffffffffffff169050919050565b8173ffffffffffffffffffffffffffffffffffffffff168373ffffffffffffffffffffffffffffffffffffffff1614156129af576040517f08c379a00000000000000000000000000000000000000000000000000000000081526004016129a690614749565b60405180910390fd5b80606b60008573ffffffffffffffffffffffffffffffffffffffff1673ffffffffffffffffffffffffffffffffffffffff16815260200190815260200160002060008473ffffffffffffffffffffffffffffffffffffffff1673ffffffffffffffffffffffffffffffffffffffff16815260200190815260200160002060006101000a81548160ff0219169083151502179055508173ffffffffffffffffffffffffffffffffffffffff168373ffffffffffffffffffffffffffffffffffffffff167f17307eab39ab6107e8899845ad3d59bd9653f200f220920489ca2b5937696c3183604051612aa09190614616565b60405180910390a3505050565b600080612ab983610e7e565b90508073ffffffffffffffffffffffffffffffffffffffff168473ffffffffffffffffffffffffffffffffffffffff161480612afb5750612afa8185612241565b5b80612b3957508373ffffffffffffffffffffffffffffffffffffffff16612b2184610817565b73ffffffffffffffffffffffffffffffffffffffff16145b91505092915050565b612b4d848484612e53565b612b598484848461314d565b612b98576040517f08c379a0000000000000000000000000000000000000000000000000000000008152600401612b8f906146c9565b60405180910390fd5b50505050565b6000808273ffffffffffffffffffffffffffffffffffffffff163b119050919050565b60018054906101000a900460ff16612c0e576040517f08c379a0000000000000000000000000000000000000000000000000000000008152600401612c0590614865565b60405180910390fd5b565b60018054906101000a900460ff16612c5d576040517f08c379a0000000000000000000000000000000000000000000000000000000008152600401612c5490614865565b60405180910390fd5b612c6782826132e4565b5050565b6001816000016000828254019250508190555050565b60008073ffffffffffffffffffffffffffffffffffffffff16612ca383612903565b73ffffffffffffffffffffffffffffffffffffffff1614159050919050565b612cdc828260405180602001604052806000815250613363565b5050565b60007f80ac58cd000000000000000000000000000000000000000000000000000000007bffffffffffffffffffffffffffffffffffffffffffffffffffffffff1916827bffffffffffffffffffffffffffffffffffffffffffffffffffffffff19161480612dab57507f5b5e139f000000000000000000000000000000000000000000000000000000007bffffffffffffffffffffffffffffffffffffffffffffffffffffffff1916827bffffffffffffffffffffffffffffffffffffffffffffffffffffffff1916145b80612dbb5750612dba826133be565b5b9050919050565b612dcc82826112e8565b612e4357612dd981613428565b612de78360001c6020613455565b604051602001612df8929190614534565b6040516020818303038152906040526040517f08c379a0000000000000000000000000000000000000000000000000000000008152600401612e3a9190614667565b60405180910390fd5b5050565b50505050565b50505050565b8273ffffffffffffffffffffffffffffffffffffffff16612e7382610e7e565b73ffffffffffffffffffffffffffffffffffffffff1614612ec9576040517f08c379a0000000000000000000000000000000000000000000000000000000008152600401612ec0906146e9565b60405180910390fd5b600073ffffffffffffffffffffffffffffffffffffffff168273ffffffffffffffffffffffffffffffffffffffff161415612f39576040517f08c379a0000000000000000000000000000000000000000000000000000000008152600401612f3090614729565b60405180910390fd5b612f468383836001612e47565b8273ffffffffffffffffffffffffffffffffffffffff16612f6682610e7e565b73ffffffffffffffffffffffffffffffffffffffff1614612fbc576040517f08c379a0000000000000000000000000000000000000000000000000000000008152600401612fb3906146e9565b60405180910390fd5b606a600082815260200190815260200160002060006101000a81549073ffffffffffffffffffffffffffffffffffffffff02191690556001606960008573ffffffffffffffffffffffffffffffffffffffff1673ffffffffffffffffffffffffffffffffffffffff168152602001908152602001600020600082825403925050819055506001606960008473ffffffffffffffffffffffffffffffffffffffff1673ffffffffffffffffffffffffffffffffffffffff16815260200190815260200160002060008282540192505081905550816068600083815260200190815260200160002060006101000a81548173ffffffffffffffffffffffffffffffffffffffff021916908373ffffffffffffffffffffffffffffffffffffffff160217905550808273ffffffffffffffffffffffffffffffffffffffff168473ffffffffffffffffffffffffffffffffffffffff167fddf252ad1be2c89b69c2b068fc378daa952ba7f163c4a11628f55a4df523b3ef60405160405180910390a46131488383836001612e4d565b505050565b600061316e8473ffffffffffffffffffffffffffffffffffffffff16612b9e565b156132d7578373ffffffffffffffffffffffffffffffffffffffff1663150b7a0261319761250f565b8786866040518563ffffffff1660e01b81526004016131b99493929190614589565b602060405180830381600087803b1580156131d357600080fd5b505af192505050801561320457506040513d601f19601f820116820180604052508101906132019190614032565b60015b613287573d8060008114613234576040519150601f19603f3d011682016040523d82523d6000602084013e613239565b606091505b5060008151141561327f576040517f08c379a0000000000000000000000000000000000000000000000000000000008152600401613276906146c9565b60405180910390fd5b805181602001fd5b63150b7a0260e01b7bffffffffffffffffffffffffffffffffffffffffffffffffffffffff1916817bffffffffffffffffffffffffffffffffffffffffffffffffffffffff1916149150506132dc565b600190505b949350505050565b60018054906101000a900460ff16613331576040517f08c379a000000000000000000000000000000000000000000000000000000000815260040161332890614865565b60405180910390fd5b81606690805190602001906133479291906139e2565b50806067908051906020019061335e9291906139e2565b505050565b61336d838361374f565b61337a600084848461314d565b6133b9576040517f08c379a00000000000000000000000000000000000000000000000000000000081526004016133b0906146c9565b60405180910390fd5b505050565b60007f01ffc9a7000000000000000000000000000000000000000000000000000000007bffffffffffffffffffffffffffffffffffffffffffffffffffffffff1916827bffffffffffffffffffffffffffffffffffffffffffffffffffffffff1916149050919050565b606061344e8273ffffffffffffffffffffffffffffffffffffffff16601460ff16613455565b9050919050565b6060600060028360026134689190614a57565b6134729190614a01565b67ffffffffffffffff8111156134b1577f4e487b7100000000000000000000000000000000000000000000000000000000600052604160045260246000fd5b6040519080825280601f01601f1916602001820160405280156134e35781602001600182028036833780820191505090505b5090507f300000000000000000000000000000000000000000000000000000000000000081600081518110613541577f4e487b7100000000000000000000000000000000000000000000000000000000600052603260045260246000fd5b60200101907effffffffffffffffffffffffffffffffffffffffffffffffffffffffffffff1916908160001a9053507f7800000000000000000000000000000000000000000000000000000000000000816001815181106135cb577f4e487b7100000000000000000000000000000000000000000000000000000000600052603260045260246000fd5b60200101907effffffffffffffffffffffffffffffffffffffffffffffffffffffffffffff1916908160001a9053506000600184600261360b9190614a57565b6136159190614a01565b90505b6001811115613701577f3031323334353637383961626364656600000000000000000000000000000000600f86166010811061367d577f4e487b7100000000000000000000000000000000000000000000000000000000600052603260045260246000fd5b1a60f81b8282815181106136ba577f4e487b7100000000000000000000000000000000000000000000000000000000600052603260045260246000fd5b60200101907effffffffffffffffffffffffffffffffffffffffffffffffffffffffffffff1916908160001a905350600485901c9450806136fa90614ba2565b9050613618565b5060008414613745576040517f08c379a000000000000000000000000000000000000000000000000000000000815260040161373c90614689565b60405180910390fd5b8091505092915050565b600073ffffffffffffffffffffffffffffffffffffffff168273ffffffffffffffffffffffffffffffffffffffff1614156137bf576040517f08c379a00000000000000000000000000000000000000000000000000000000081526004016137b6906147a9565b60405180910390fd5b6137c881612c81565b15613808576040517f08c379a00000000000000000000000000000000000000000000000000000000081526004016137ff90614709565b60405180910390fd5b613816600083836001612e47565b61381f81612c81565b1561385f576040517f08c379a000000000000000000000000000000000000000000000000000000000815260040161385690614709565b60405180910390fd5b6001606960008473ffffffffffffffffffffffffffffffffffffffff1673ffffffffffffffffffffffffffffffffffffffff16815260200190815260200160002060008282540192505081905550816068600083815260200190815260200160002060006101000a81548173ffffffffffffffffffffffffffffffffffffffff021916908373ffffffffffffffffffffffffffffffffffffffff160217905550808273ffffffffffffffffffffffffffffffffffffffff16600073ffffffffffffffffffffffffffffffffffffffff167fddf252ad1be2c89b69c2b068fc378daa952ba7f163c4a11628f55a4df523b3ef60405160405180910390a4613969600083836001612e4d565b5050565b50805461397990614bcc565b6000825580601f1061398b57506139aa565b601f0160209004906000526020600020908101906139a99190613aee565b5b50565b6040518060a001604052806000815260200160608152602001600060ff168152602001600060ff168152602001600081525090565b8280546139ee90614bcc565b90600052602060002090601f016020900481019282613a105760008555613a57565b82601f10613a2957805160ff1916838001178555613a57565b82800160010185558215613a57579182015b82811115613a56578251825591602001919060010190613a3b565b5b509050613a649190613aee565b5090565b828054613a7490614bcc565b90600052602060002090601f016020900481019282613a965760008555613add565b82601f10613aaf57803560ff1916838001178555613add565b82800160010185558215613add579182015b82811115613adc578235825591602001919060010190613ac1565b5b509050613aea9190613aee565b5090565b5b80821115613b07576000816000905550600101613aef565b5090565b6000613b1e613b198461497c565b614957565b905082815260208101848484011115613b3657600080fd5b613b41848285614b60565b509392505050565b600081359050613b5881615154565b92915050565b600081359050613b6d8161516b565b92915050565b600081359050613b8281615182565b92915050565b600081359050613b9781615199565b92915050565b600081519050613bac81615199565b92915050565b600082601f830112613bc357600080fd5b8135613bd3848260208601613b0b565b91505092915050565b60008083601f840112613bee57600080fd5b8235905067ffffffffffffffff811115613c0757600080fd5b602083019150836001820283011115613c1f57600080fd5b9250929050565b600081359050613c35816151b0565b92915050565b600081359050613c4a816151c7565b92915050565b600060208284031215613c6257600080fd5b6000613c7084828501613b49565b91505092915050565b60008060408385031215613c8c57600080fd5b6000613c9a85828601613b49565b9250506020613cab85828601613b49565b9150509250929050565b600080600060608486031215613cca57600080fd5b6000613cd886828701613b49565b9350506020613ce986828701613b49565b9250506040613cfa86828701613c26565b9150509250925092565b60008060008060808587031215613d1a57600080fd5b6000613d2887828801613b49565b9450506020613d3987828801613b49565b9350506040613d4a87828801613c26565b925050606085013567ffffffffffffffff811115613d6757600080fd5b613d7387828801613bb2565b91505092959194509250565b60008060408385031215613d9257600080fd5b6000613da085828601613b49565b9250506020613db185828601613b5e565b9150509250929050565b600080600060408486031215613dd057600080fd5b6000613dde86828701613b49565b935050602084013567ffffffffffffffff811115613dfb57600080fd5b613e0786828701613bdc565b92509250509250925092565b60008060008060008060a08789031215613e2c57600080fd5b6000613e3a89828a01613b49565b965050602087013567ffffffffffffffff811115613e5757600080fd5b613e6389828a01613bdc565b95509550506040613e7689828a01613c3b565b9350506060613e8789828a01613c3b565b9250506080613e9889828a01613c26565b9150509295509295509295565b60008060008060008060008060c0898b031215613ec157600080fd5b6000613ecf8b828c01613b49565b985050602089013567ffffffffffffffff811115613eec57600080fd5b613ef88b828c01613bdc565b97509750506040613f0b8b828c01613c3b565b9550506060613f1c8b828c01613c3b565b9450506080613f2d8b828c01613c26565b93505060a089013567ffffffffffffffff811115613f4a57600080fd5b613f568b828c01613bdc565b92509250509295985092959890939650565b60008060408385031215613f7b57600080fd5b6000613f8985828601613b49565b9250506020613f9a85828601613c26565b9150509250929050565b600060208284031215613fb657600080fd5b6000613fc484828501613b73565b91505092915050565b60008060408385031215613fe057600080fd5b6000613fee85828601613b73565b9250506020613fff85828601613b49565b9150509250929050565b60006020828403121561401b57600080fd5b600061402984828501613b88565b91505092915050565b60006020828403121561404457600080fd5b600061405284828501613b9d565b91505092915050565b60006020828403121561406d57600080fd5b600061407b84828501613c26565b91505092915050565b61408d81614ab1565b82525050565b61409c81614ac3565b82525050565b6140ab81614acf565b82525050565b60006140bc826149ad565b6140c681856149c3565b93506140d6818560208601614b6f565b6140df81614cbc565b840191505092915050565b6140f381614b3c565b82525050565b61410281614b4e565b82525050565b600061411483856149f6565b9350614121838584614b60565b82840190509392505050565b6000614138826149b8565b61414281856149d4565b9350614152818560208601614b6f565b61415b81614cbc565b840191505092915050565b6000614171826149b8565b61417b81856149e5565b935061418b818560208601614b6f565b61419481614cbc565b840191505092915050565b60006141aa826149b8565b6141b481856149f6565b93506141c4818560208601614b6f565b80840191505092915050565b60006141dd6020836149e5565b91506141e882614ccd565b602082019050919050565b60006142006006836149e5565b915061420b82614cf6565b602082019050919050565b6000614223602d836149e5565b915061422e82614d1f565b604082019050919050565b60006142466032836149e5565b915061425182614d6e565b604082019050919050565b60006142696025836149e5565b915061427482614dbd565b604082019050919050565b600061428c601c836149e5565b915061429782614e0c565b602082019050919050565b60006142af6024836149e5565b91506142ba82614e35565b604082019050919050565b60006142d26019836149e5565b91506142dd82614e84565b602082019050919050565b60006142f56029836149e5565b915061430082614ead565b604082019050919050565b6000614318602e836149e5565b915061432382614efc565b604082019050919050565b600061433b6020836149e5565b915061434682614f4b565b602082019050919050565b600061435e6008836149e5565b915061436982614f74565b602082019050919050565b60006143816018836149e5565b915061438c82614f9d565b602082019050919050565b60006143a46021836149e5565b91506143af82614fc6565b604082019050919050565b60006143c7603d836149e5565b91506143d282615015565b604082019050919050565b60006143ea602b836149e5565b91506143f582615064565b604082019050919050565b600061440d6017836149f6565b9150614418826150b3565b601782019050919050565b60006144306011836149f6565b915061443b826150dc565b601182019050919050565b6000614453602f836149e5565b915061445e82615105565b604082019050919050565b600060a08301600083015161448160008601826144df565b5060208301518482036020860152614499828261412d565b91505060408301516144ae60408601826144fd565b5060608301516144c160608601826144fd565b5060808301516144d460808601826144df565b508091505092915050565b6144e881614b25565b82525050565b6144f781614b25565b82525050565b61450681614b2f565b82525050565b61451581614b2f565b82525050565b6000614528828486614108565b91508190509392505050565b600061453f82614400565b915061454b828561419f565b915061455682614423565b9150614562828461419f565b91508190509392505050565b60006020820190506145836000830184614084565b92915050565b600060808201905061459e6000830187614084565b6145ab6020830186614084565b6145b860408301856144ee565b81810360608301526145ca81846140b1565b905095945050505050565b60006060820190506145ea6000830184614084565b81810360208301526145fb81614351565b9050818103604083015261460e816141f3565b905092915050565b600060208201905061462b6000830184614093565b92915050565b600060208201905061464660008301846140a2565b92915050565b600060208201905061466160008301846140f9565b92915050565b600060208201905081810360008301526146818184614166565b905092915050565b600060208201905081810360008301526146a2816141d0565b9050919050565b600060208201905081810360008301526146c281614216565b9050919050565b600060208201905081810360008301526146e281614239565b9050919050565b600060208201905081810360008301526147028161425c565b9050919050565b600060208201905081810360008301526147228161427f565b9050919050565b60006020820190508181036000830152614742816142a2565b9050919050565b60006020820190508181036000830152614762816142c5565b9050919050565b60006020820190508181036000830152614782816142e8565b9050919050565b600060208201905081810360008301526147a28161430b565b9050919050565b600060208201905081810360008301526147c28161432e565b9050919050565b600060608201905081810360008301526147e281614351565b90506147f16020830185614084565b6147fe60408301846140ea565b9392505050565b6000602082019050818103600083015261481e81614374565b9050919050565b6000602082019050818103600083015261483e81614397565b9050919050565b6000602082019050818103600083015261485e816143ba565b9050919050565b6000602082019050818103600083015261487e816143dd565b9050919050565b6000602082019050818103600083015261489e81614446565b9050919050565b600060208201905081810360008301526148bf8184614469565b905092915050565b60006020820190506148dc60008301846144ee565b92915050565b600060a0820190506148f760008301886144ee565b81810360208301526149098187614166565b9050614918604083018661450c565b614925606083018561450c565b61493260808301846144ee565b9695505050505050565b6000602082019050614951600083018461450c565b92915050565b6000614961614972565b905061496d8282614bfe565b919050565b6000604051905090565b600067ffffffffffffffff82111561499757614996614c8d565b5b6149a082614cbc565b9050602081019050919050565b600081519050919050565b600081519050919050565b600082825260208201905092915050565b600082825260208201905092915050565b600082825260208201905092915050565b600081905092915050565b6000614a0c82614b25565b9150614a1783614b25565b9250827fffffffffffffffffffffffffffffffffffffffffffffffffffffffffffffffff03821115614a4c57614a4b614c2f565b5b828201905092915050565b6000614a6282614b25565b9150614a6d83614b25565b9250817fffffffffffffffffffffffffffffffffffffffffffffffffffffffffffffffff0483118215151615614aa657614aa5614c2f565b5b828202905092915050565b6000614abc82614b05565b9050919050565b60008115159050919050565b6000819050919050565b60007fffffffff0000000000000000000000000000000000000000000000000000000082169050919050565b600073ffffffffffffffffffffffffffffffffffffffff82169050919050565b6000819050919050565b600060ff82169050919050565b6000614b4782614b25565b9050919050565b6000614b5982614b2f565b9050919050565b82818337600083830152505050565b60005b83811015614b8d578082015181840152602081019050614b72565b83811115614b9c576000848401525b50505050565b6000614bad82614b25565b91506000821415614bc157614bc0614c2f565b5b600182039050919050565b60006002820490506001821680614be457607f821691505b60208210811415614bf857614bf7614c5e565b5b50919050565b614c0782614cbc565b810181811067ffffffffffffffff82111715614c2657614c25614c8d565b5b80604052505050565b7f4e487b7100000000000000000000000000000000000000000000000000000000600052601160045260246000fd5b7f4e487b7100000000000000000000000000000000000000000000000000000000600052602260045260246000fd5b7f4e487b7100000000000000000000000000000000000000000000000000000000600052604160045260246000fd5b6000601f19601f8301169050919050565b7f537472696e67733a20686578206c656e67746820696e73756666696369656e74600082015250565b7f565443414c4c0000000000000000000000000000000000000000000000000000600082015250565b7f4552433732313a2063616c6c6572206973206e6f7420746f6b656e206f776e6560008201527f72206f7220617070726f76656400000000000000000000000000000000000000602082015250565b7f4552433732313a207472616e7366657220746f206e6f6e20455243373231526560008201527f63656976657220696d706c656d656e7465720000000000000000000000000000602082015250565b7f4552433732313a207472616e736665722066726f6d20696e636f72726563742060008201527f6f776e6572000000000000000000000000000000000000000000000000000000602082015250565b7f4552433732313a20746f6b656e20616c7265616479206d696e74656400000000600082015250565b7f4552433732313a207472616e7366657220746f20746865207a65726f2061646460008201527f7265737300000000000000000000000000000000000000000000000000000000602082015250565b7f4552433732313a20617070726f766520746f2063616c6c657200000000000000600082015250565b7f4552433732313a2061646472657373207a65726f206973206e6f74206120766160008201527f6c6964206f776e65720000000000000000000000000000000000000000000000602082015250565b7f496e697469616c697a61626c653a20636f6e747261637420697320616c72656160008201527f647920696e697469616c697a6564000000000000000000000000000000000000602082015250565b7f4552433732313a206d696e7420746f20746865207a65726f2061646472657373600082015250565b7f41444d494e4f5247000000000000000000000000000000000000000000000000600082015250565b7f4552433732313a20696e76616c696420746f6b656e2049440000000000000000600082015250565b7f4552433732313a20617070726f76616c20746f2063757272656e74206f776e6560008201527f7200000000000000000000000000000000000000000000000000000000000000602082015250565b7f4552433732313a20617070726f76652063616c6c6572206973206e6f7420746f60008201527f6b656e206f776e6572206f7220617070726f76656420666f7220616c6c000000602082015250565b7f496e697469616c697a61626c653a20636f6e7472616374206973206e6f74206960008201527f6e697469616c697a696e67000000000000000000000000000000000000000000602082015250565b7f416363657373436f6e74726f6c3a206163636f756e7420000000000000000000600082015250565b7f206973206d697373696e6720726f6c6520000000000000000000000000000000600082015250565b7f416363657373436f6e74726f6c3a2063616e206f6e6c792072656e6f756e636560008201527f20726f6c657320666f722073656c660000000000000000000000000000000000602082015250565b61515d81614ab1565b811461516857600080fd5b50565b61517481614ac3565b811461517f57600080fd5b50565b61518b81614acf565b811461519657600080fd5b50565b6151a281614ad9565b81146151ad57600080fd5b50565b6151b981614b25565b81146151c457600080fd5b50565b6151d081614b2f565b81146151db57600080fd5b5056fea2646970667358221220fb1c2a75b5e954e8fe1f2da45ce3cc1b0009077363b79e59ce508741c2e5371964736f6c63430008020033",
  "linkReferences": {},
  "deployedLinkReferences": {}
}