{
  "_format": "hh-sol-artifact-1",
  "contractName": "ProofOfIdentity",
  "sourceName": "contracts/ProofOfIdentity.sol",
  "abi": [
    {
      "anonymous": false,
      "inputs": [
        {
          "indexed": true,
          "internalType": "address",
          "name": "account",
          "type": "address"
        },
        {
          "indexed": true,
          "internalType": "uint256",
          "name": "tokenId",
          "type": "uint256"
        },
        {
          "indexed": true,
          "internalType": "string",
          "name": "reason",
          "type": "string"
        }
      ],
      "name": "AccountSuspendedTokenBurned",
      "type": "event"
    },
    {
      "anonymous": false,
      "inputs": [
        {
          "indexed": true,
          "internalType": "address",
          "name": "account",
          "type": "address"
        },
        {
          "indexed": true,
          "internalType": "string",
          "name": "reason",
          "type": "string"
        }
      ],
      "name": "AccountSuspendedTokenMaintained",
      "type": "event"
    },
    {
      "anonymous": false,
      "inputs": [
        {
          "indexed": true,
          "internalType": "address",
          "name": "owner",
          "type": "address"
        },
        {
          "indexed": true,
          "internalType": "address",
          "name": "approved",
          "type": "address"
        },
        {
          "indexed": true,
          "internalType": "uint256",
          "name": "tokenId",
          "type": "uint256"
        }
      ],
      "name": "Approval",
      "type": "event"
    },
    {
      "anonymous": false,
      "inputs": [
        {
          "indexed": true,
          "internalType": "address",
          "name": "owner",
          "type": "address"
        },
        {
          "indexed": true,
          "internalType": "address",
          "name": "operator",
          "type": "address"
        },
        {
          "indexed": false,
          "internalType": "bool",
          "name": "approved",
          "type": "bool"
        }
      ],
      "name": "ApprovalForAll",
      "type": "event"
    },
    {
      "anonymous": false,
      "inputs": [
        {
          "indexed": true,
          "internalType": "address",
          "name": "account",
          "type": "address"
        },
        {
          "indexed": true,
          "internalType": "uint256",
          "name": "tokenId",
          "type": "uint256"
        }
      ],
      "name": "IdentityMinted",
      "type": "event"
    },
    {
      "anonymous": false,
      "inputs": [
        {
          "indexed": true,
          "internalType": "address",
          "name": "account",
          "type": "address"
        },
        {
          "indexed": true,
          "internalType": "uint256",
          "name": "tokenId",
          "type": "uint256"
        }
      ],
      "name": "IdentityUpdated",
      "type": "event"
    },
    {
      "anonymous": false,
      "inputs": [
        {
          "indexed": false,
          "internalType": "uint8",
          "name": "version",
          "type": "uint8"
        }
      ],
      "name": "Initialized",
      "type": "event"
    },
    {
      "anonymous": false,
      "inputs": [
        {
          "indexed": true,
          "internalType": "bytes32",
          "name": "role",
          "type": "bytes32"
        },
        {
          "indexed": true,
          "internalType": "bytes32",
          "name": "previousAdminRole",
          "type": "bytes32"
        },
        {
          "indexed": true,
          "internalType": "bytes32",
          "name": "newAdminRole",
          "type": "bytes32"
        }
      ],
      "name": "RoleAdminChanged",
      "type": "event"
    },
    {
      "anonymous": false,
      "inputs": [
        {
          "indexed": true,
          "internalType": "bytes32",
          "name": "role",
          "type": "bytes32"
        },
        {
          "indexed": true,
          "internalType": "address",
          "name": "account",
          "type": "address"
        },
        {
          "indexed": true,
          "internalType": "address",
          "name": "sender",
          "type": "address"
        }
      ],
      "name": "RoleGranted",
      "type": "event"
    },
    {
      "anonymous": false,
      "inputs": [
        {
          "indexed": true,
          "internalType": "bytes32",
          "name": "role",
          "type": "bytes32"
        },
        {
          "indexed": true,
          "internalType": "address",
          "name": "account",
          "type": "address"
        },
        {
          "indexed": true,
          "internalType": "address",
          "name": "sender",
          "type": "address"
        }
      ],
      "name": "RoleRevoked",
      "type": "event"
    },
    {
      "anonymous": false,
      "inputs": [
        {
          "indexed": true,
          "internalType": "address",
          "name": "account",
          "type": "address"
        },
        {
          "indexed": true,
          "internalType": "uint256",
          "name": "tokenId",
          "type": "uint256"
        },
        {
          "indexed": true,
          "internalType": "string",
          "name": "newURI",
          "type": "string"
        }
      ],
      "name": "TokenURIUpdated",
      "type": "event"
    },
    {
      "anonymous": false,
      "inputs": [
        {
          "indexed": true,
          "internalType": "address",
          "name": "from",
          "type": "address"
        },
        {
          "indexed": true,
          "internalType": "address",
          "name": "to",
          "type": "address"
        },
        {
          "indexed": true,
          "internalType": "uint256",
          "name": "tokenId",
          "type": "uint256"
        }
      ],
      "name": "Transfer",
      "type": "event"
    },
    {
      "inputs": [],
      "name": "DEFAULT_ADMIN_ROLE",
      "outputs": [
        {
          "internalType": "bytes32",
          "name": "",
          "type": "bytes32"
        }
      ],
      "stateMutability": "view",
      "type": "function"
    },
    {
      "inputs": [],
      "name": "PROVER_ROLE",
      "outputs": [
        {
          "internalType": "bytes32",
          "name": "",
          "type": "bytes32"
        }
      ],
      "stateMutability": "view",
      "type": "function"
    },
    {
      "inputs": [
        {
          "internalType": "address",
          "name": "to",
          "type": "address"
        },
        {
          "internalType": "uint256",
          "name": "tokenId",
          "type": "uint256"
        }
      ],
      "name": "approve",
      "outputs": [],
      "stateMutability": "nonpayable",
      "type": "function"
    },
    {
      "inputs": [
        {
          "internalType": "address",
          "name": "owner",
          "type": "address"
        }
      ],
      "name": "balanceOf",
      "outputs": [
        {
          "internalType": "uint256",
          "name": "",
          "type": "uint256"
        }
      ],
      "stateMutability": "view",
      "type": "function"
    },
    {
      "inputs": [
        {
          "internalType": "uint256",
          "name": "tokenId",
          "type": "uint256"
        }
      ],
      "name": "getApproved",
      "outputs": [
        {
          "internalType": "address",
          "name": "",
          "type": "address"
        }
      ],
      "stateMutability": "view",
      "type": "function"
    },
    {
      "inputs": [],
      "name": "getCurrentTokenId",
      "outputs": [
        {
          "internalType": "uint256",
          "name": "",
          "type": "uint256"
        }
      ],
      "stateMutability": "view",
      "type": "function"
    },
    {
      "inputs": [
        {
          "internalType": "bytes32",
          "name": "role",
          "type": "bytes32"
        }
      ],
      "name": "getRoleAdmin",
      "outputs": [
        {
          "internalType": "bytes32",
          "name": "",
          "type": "bytes32"
        }
      ],
      "stateMutability": "view",
      "type": "function"
    },
    {
      "inputs": [
        {
          "internalType": "address",
          "name": "account",
          "type": "address"
        }
      ],
      "name": "getUserAccountCountryCode",
      "outputs": [
        {
          "internalType": "string",
          "name": "userAccountCountryCode",
          "type": "string"
        }
      ],
      "stateMutability": "view",
      "type": "function"
    },
    {
      "inputs": [
        {
          "internalType": "address",
          "name": "account",
          "type": "address"
        }
      ],
      "name": "getUserAccountCountryCodePreventOnExpiry",
      "outputs": [
        {
          "internalType": "string",
          "name": "userAccountCountryCode",
          "type": "string"
        }
      ],
      "stateMutability": "view",
      "type": "function"
    },
    {
      "inputs": [
        {
          "internalType": "address",
          "name": "account",
          "type": "address"
        }
      ],
      "name": "getUserAccountExpiry",
      "outputs": [
        {
          "internalType": "uint256",
          "name": "userAccountExpiry",
          "type": "uint256"
        }
      ],
      "stateMutability": "view",
      "type": "function"
    },
    {
      "inputs": [
        {
          "internalType": "address",
          "name": "account",
          "type": "address"
        }
      ],
      "name": "getUserAccountIdentityBlob",
      "outputs": [
        {
          "components": [
            {
              "internalType": "uint256",
              "name": "tokenId",
              "type": "uint256"
            },
            {
              "internalType": "string",
              "name": "countryCode",
              "type": "string"
            },
            {
              "internalType": "uint8",
              "name": "userType",
              "type": "uint8"
            },
            {
              "internalType": "uint8",
              "name": "level",
              "type": "uint8"
            },
            {
              "internalType": "uint256",
              "name": "expiry",
              "type": "uint256"
            }
          ],
          "internalType": "struct RoleVerification.IdentityBlob",
          "name": "userIdentityBlob",
          "type": "tuple"
        }
      ],
      "stateMutability": "view",
      "type": "function"
    },
    {
      "inputs": [
        {
          "internalType": "address",
          "name": "account",
          "type": "address"
        }
      ],
      "name": "getUserAccountLevel",
      "outputs": [
        {
          "internalType": "uint8",
          "name": "userAccountLevel",
          "type": "uint8"
        }
      ],
      "stateMutability": "view",
      "type": "function"
    },
    {
      "inputs": [
        {
          "internalType": "address",
          "name": "account",
          "type": "address"
        }
      ],
      "name": "getUserAccountLevelPreventOnExpiry",
      "outputs": [
        {
          "internalType": "uint8",
          "name": "",
          "type": "uint8"
        }
      ],
      "stateMutability": "view",
      "type": "function"
    },
    {
      "inputs": [
        {
          "internalType": "address",
          "name": "account",
          "type": "address"
        }
      ],
      "name": "getUserAccountType",
      "outputs": [
        {
          "internalType": "uint8",
          "name": "userAccountType",
          "type": "uint8"
        }
      ],
      "stateMutability": "view",
      "type": "function"
    },
    {
      "inputs": [
        {
          "internalType": "address",
          "name": "account",
          "type": "address"
        }
      ],
      "name": "getUserAccountTypePreventOnExpiry",
      "outputs": [
        {
          "internalType": "uint8",
          "name": "",
          "type": "uint8"
        }
      ],
      "stateMutability": "view",
      "type": "function"
    },
    {
      "inputs": [
        {
          "internalType": "bytes32",
          "name": "role",
          "type": "bytes32"
        },
        {
          "internalType": "address",
          "name": "account",
          "type": "address"
        }
      ],
      "name": "grantRole",
      "outputs": [],
      "stateMutability": "nonpayable",
      "type": "function"
    },
    {
      "inputs": [
        {
          "internalType": "bytes32",
          "name": "role",
          "type": "bytes32"
        },
        {
          "internalType": "address",
          "name": "account",
          "type": "address"
        }
      ],
      "name": "hasRole",
      "outputs": [
        {
          "internalType": "bool",
          "name": "",
          "type": "bool"
        }
      ],
      "stateMutability": "view",
      "type": "function"
    },
    {
      "inputs": [
        {
          "internalType": "address",
          "name": "",
          "type": "address"
        }
      ],
      "name": "identityBlob",
      "outputs": [
        {
          "internalType": "uint256",
          "name": "tokenId",
          "type": "uint256"
        },
        {
          "internalType": "string",
          "name": "countryCode",
          "type": "string"
        },
        {
          "internalType": "uint8",
          "name": "userType",
          "type": "uint8"
        },
        {
          "internalType": "uint8",
          "name": "level",
          "type": "uint8"
        },
        {
          "internalType": "uint256",
          "name": "expiry",
          "type": "uint256"
        }
      ],
      "stateMutability": "view",
      "type": "function"
    },
    {
      "inputs": [
        {
          "internalType": "address",
          "name": "permissionsInterface",
          "type": "address"
        },
        {
          "internalType": "address",
          "name": "prover",
          "type": "address"
        },
        {
          "internalType": "address",
          "name": "admin",
          "type": "address"
        }
      ],
      "name": "initialize",
      "outputs": [],
      "stateMutability": "nonpayable",
      "type": "function"
    },
    {
      "inputs": [
        {
          "internalType": "address",
          "name": "owner",
          "type": "address"
        },
        {
          "internalType": "address",
          "name": "operator",
          "type": "address"
        }
      ],
      "name": "isApprovedForAll",
      "outputs": [
        {
          "internalType": "bool",
          "name": "",
          "type": "bool"
        }
      ],
      "stateMutability": "view",
      "type": "function"
    },
    {
      "inputs": [
        {
          "internalType": "address",
          "name": "account",
          "type": "address"
        },
        {
          "internalType": "string",
          "name": "countryCode",
          "type": "string"
        },
        {
          "internalType": "uint8",
          "name": "userType",
          "type": "uint8"
        },
        {
          "internalType": "uint8",
          "name": "level",
          "type": "uint8"
        },
        {
          "internalType": "uint256",
          "name": "expiry",
          "type": "uint256"
        },
        {
          "internalType": "string",
          "name": "tokenUri",
          "type": "string"
        }
      ],
      "name": "mintIdentity",
      "outputs": [],
      "stateMutability": "nonpayable",
      "type": "function"
    },
    {
      "inputs": [],
      "name": "name",
      "outputs": [
        {
          "internalType": "string",
          "name": "",
          "type": "string"
        }
      ],
      "stateMutability": "view",
      "type": "function"
    },
    {
      "inputs": [
        {
          "internalType": "uint256",
          "name": "tokenId",
          "type": "uint256"
        }
      ],
      "name": "ownerOf",
      "outputs": [
        {
          "internalType": "address",
          "name": "",
          "type": "address"
        }
      ],
      "stateMutability": "view",
      "type": "function"
    },
    {
      "inputs": [
        {
          "internalType": "bytes32",
          "name": "role",
          "type": "bytes32"
        },
        {
          "internalType": "address",
          "name": "account",
          "type": "address"
        }
      ],
      "name": "renounceRole",
      "outputs": [],
      "stateMutability": "nonpayable",
      "type": "function"
    },
    {
      "inputs": [
        {
          "internalType": "bytes32",
          "name": "role",
          "type": "bytes32"
        },
        {
          "internalType": "address",
          "name": "account",
          "type": "address"
        }
      ],
      "name": "revokeRole",
      "outputs": [],
      "stateMutability": "nonpayable",
      "type": "function"
    },
    {
      "inputs": [
        {
          "internalType": "address",
          "name": "from",
          "type": "address"
        },
        {
          "internalType": "address",
          "name": "to",
          "type": "address"
        },
        {
          "internalType": "uint256",
          "name": "tokenId",
          "type": "uint256"
        }
      ],
      "name": "safeTransferFrom",
      "outputs": [],
      "stateMutability": "nonpayable",
      "type": "function"
    },
    {
      "inputs": [
        {
          "internalType": "address",
          "name": "from",
          "type": "address"
        },
        {
          "internalType": "address",
          "name": "to",
          "type": "address"
        },
        {
          "internalType": "uint256",
          "name": "tokenId",
          "type": "uint256"
        },
        {
          "internalType": "bytes",
          "name": "data",
          "type": "bytes"
        }
      ],
      "name": "safeTransferFrom",
      "outputs": [],
      "stateMutability": "nonpayable",
      "type": "function"
    },
    {
      "inputs": [
        {
          "internalType": "address",
          "name": "operator",
          "type": "address"
        },
        {
          "internalType": "bool",
          "name": "approved",
          "type": "bool"
        }
      ],
      "name": "setApprovalForAll",
      "outputs": [],
      "stateMutability": "nonpayable",
      "type": "function"
    },
    {
      "inputs": [
        {
          "internalType": "bytes4",
          "name": "interfaceId",
          "type": "bytes4"
        }
      ],
      "name": "supportsInterface",
      "outputs": [
        {
          "internalType": "bool",
          "name": "",
          "type": "bool"
        }
      ],
      "stateMutability": "view",
      "type": "function"
    },
    {
      "inputs": [
        {
          "internalType": "address",
          "name": "suspendAccount",
          "type": "address"
        },
        {
          "internalType": "string",
          "name": "reason",
          "type": "string"
        }
      ],
      "name": "suspendAccountDeleteTokenAndIdentityBlob",
      "outputs": [],
      "stateMutability": "nonpayable",
      "type": "function"
    },
    {
      "inputs": [
        {
          "internalType": "address",
          "name": "suspendAddress",
          "type": "address"
        },
        {
          "internalType": "string",
          "name": "reason",
          "type": "string"
        }
      ],
      "name": "suspendAccountMaintainTokenAndIdentityBlob",
      "outputs": [],
      "stateMutability": "nonpayable",
      "type": "function"
    },
    {
      "inputs": [],
      "name": "symbol",
      "outputs": [
        {
          "internalType": "string",
          "name": "",
          "type": "string"
        }
      ],
      "stateMutability": "view",
      "type": "function"
    },
    {
      "inputs": [
        {
          "internalType": "uint256",
          "name": "tokenId",
          "type": "uint256"
        }
      ],
      "name": "tokenURI",
      "outputs": [
        {
          "internalType": "string",
          "name": "",
          "type": "string"
        }
      ],
      "stateMutability": "view",
      "type": "function"
    },
    {
      "inputs": [
        {
          "internalType": "address",
          "name": "from",
          "type": "address"
        },
        {
          "internalType": "address",
          "name": "to",
          "type": "address"
        },
        {
          "internalType": "uint256",
          "name": "tokenId",
          "type": "uint256"
        }
      ],
      "name": "transferFrom",
      "outputs": [],
      "stateMutability": "nonpayable",
      "type": "function"
    },
    {
      "inputs": [
        {
          "internalType": "address",
          "name": "account",
          "type": "address"
        },
        {
          "internalType": "string",
          "name": "countryCode",
          "type": "string"
        },
        {
          "internalType": "uint8",
          "name": "userType",
          "type": "uint8"
        },
        {
          "internalType": "uint8",
          "name": "level",
          "type": "uint8"
        },
        {
          "internalType": "uint256",
          "name": "expiry",
          "type": "uint256"
        }
      ],
      "name": "updateIdentity",
      "outputs": [],
      "stateMutability": "nonpayable",
      "type": "function"
    },
    {
      "inputs": [
        {
          "internalType": "address",
          "name": "account",
          "type": "address"
        },
        {
          "internalType": "string",
          "name": "tokenUri",
          "type": "string"
        }
      ],
      "name": "updateTokenURI",
      "outputs": [],
      "stateMutability": "nonpayable",
      "type": "function"
    }
  ],
  "bytecode": "0x608060405234801561001057600080fd5b50615272806100206000396000f3fe608060405234801561001057600080fd5b506004361061021c5760003560e01c806391d1485411610125578063c207e9e0116100ad578063dc9a4ef61161007c578063dc9a4ef6146106bd578063dfb24b89146106db578063e86573e41461070b578063e985e9c514610727578063f6a4b4d7146107575761021c565b8063c207e9e014610625578063c87b56dd14610655578063d4ec909614610685578063d547741f146106a15761021c565b8063a217fddf116100f4578063a217fddf14610583578063a22cb465146105a1578063b467177f146105bd578063b88d4fde146105ed578063c0c53b8b146106095761021c565b806391d14854146104d5578063949cdd6e1461050557806395d89b411461053557806396257e4d146105535761021c565b806336568abe116101a85780636352211e116101775780636352211e146103f5578063688ea9fe146104255780636ca5fde81461045957806370a082311461048957806380a5a896146104b95761021c565b806336568abe146103835780633bc2c0781461039f57806342842e0e146103bb57806356189236146103d75761021c565b8063095ea7b3116101ef578063095ea7b3146102cf5780631fe0094a146102eb57806323b872dd1461031b578063248a9ca3146103375780632f2ff15d146103675761021c565b806301ffc9a71461022157806306fdde0314610251578063081812fc1461026f57806309299ea31461029f575b600080fd5b61023b60048036038101906102369190614067565b610773565b6040516102489190614674565b60405180910390f35b610259610785565b60405161026691906146c5565b60405180910390f35b610289600480360381019061028491906140b9565b610817565b60405161029691906145cc565b60405180910390f35b6102b960048036038101906102b49190613c5f565b61085d565b6040516102c69190614925565b60405180910390f35b6102e960048036038101906102e49190613fc6565b6108a8565b005b61030560048036038101906103009190613c5f565b6109c0565b604051610312919061499a565b60405180910390f35b61033560048036038101906103309190613d13565b610ad2565b005b610351600480360381019061034c9190614002565b610b44565b60405161035e919061468f565b60405180910390f35b610381600480360381019061037c919061402b565b610b64565b005b61039d6004803603810190610398919061402b565b610b85565b005b6103b960048036038101906103b49190613e19565b610c08565b005b6103d560048036038101906103d09190613d13565b610dfb565b005b6103df610e6d565b6040516103ec9190614925565b60405180910390f35b61040f600480360381019061040a91906140b9565b610e7e565b60405161041c91906145cc565b60405180910390f35b61043f600480360381019061043a9190613c5f565b610f05565b604051610450959493929190614940565b60405180910390f35b610473600480360381019061046e9190613c5f565b610fdd565b6040516104809190614903565b60405180910390f35b6104a3600480360381019061049e9190613c5f565b611115565b6040516104b09190614925565b60405180910390f35b6104d360048036038101906104ce9190613e19565b6111cd565b005b6104ef60048036038101906104ea919061402b565b6112e8565b6040516104fc9190614674565b60405180910390f35b61051f600480360381019061051a9190613c5f565b611353565b60405161052c919061499a565b60405180910390f35b61053d611465565b60405161054a91906146c5565b60405180910390f35b61056d60048036038101906105689190613c5f565b6114f7565b60405161057a91906146c5565b60405180910390f35b61058b611684565b604051610598919061468f565b60405180910390f35b6105bb60048036038101906105b69190613ddd565b61168b565b005b6105d760048036038101906105d29190613c5f565b6116a1565b6040516105e4919061499a565b60405180910390f35b61060760048036038101906106029190613d62565b6116f9565b005b610623600480360381019061061e9190613cc4565b61175b565b005b61063f600480360381019061063a9190613c5f565b61199f565b60405161064c919061499a565b60405180910390f35b61066f600480360381019061066a91906140b9565b6119f7565b60405161067c91906146c5565b60405180910390f35b61069f600480360381019061069a9190613f03565b611b1d565b005b6106bb60048036038101906106b6919061402b565b611ed1565b005b6106c5611ef2565b6040516106d2919061468f565b60405180910390f35b6106f560048036038101906106f09190613c5f565b611f16565b60405161070291906146c5565b60405180910390f35b61072560048036038101906107209190613e71565b611fe9565b005b610741600480360381019061073c9190613c88565b612250565b60405161074e9190614674565b60405180910390f35b610771600480360381019061076c9190613e19565b6122e4565b005b600061077e82612459565b9050919050565b60606066805461079490614c2a565b80601f01602080910402602001604051908101604052809291908181526020018280546107c090614c2a565b801561080d5780601f106107e25761010080835404028352916020019161080d565b820191906000526020600020905b8154815290600101906020018083116107f057829003601f168201915b5050505050905090565b6000610822826124d3565b606a600083815260200190815260200160002060009054906101000a900473ffffffffffffffffffffffffffffffffffffffff169050919050565b60008060008373ffffffffffffffffffffffffffffffffffffffff1673ffffffffffffffffffffffffffffffffffffffff168152602001908152602001600020600301549050919050565b60006108b382610e7e565b90508073ffffffffffffffffffffffffffffffffffffffff168373ffffffffffffffffffffffffffffffffffffffff161415610924576040517f08c379a000000000000000000000000000000000000000000000000000000000815260040161091b90614847565b60405180910390fd5b8073ffffffffffffffffffffffffffffffffffffffff1661094361251e565b73ffffffffffffffffffffffffffffffffffffffff16148061097257506109718161096c61251e565b612250565b5b6109b1576040517f08c379a00000000000000000000000000000000000000000000000000000000081526004016109a890614867565b60405180910390fd5b6109bb8383612526565b505050565b60008060008373ffffffffffffffffffffffffffffffffffffffff1673ffffffffffffffffffffffffffffffffffffffff168152602001908152602001600020600301544210610a7c576040518060400160405280600381526020017f31303300000000000000000000000000000000000000000000000000000000008152506040517f08c379a0000000000000000000000000000000000000000000000000000000008152600401610a7391906146c5565b60405180910390fd5b6000808373ffffffffffffffffffffffffffffffffffffffff1673ffffffffffffffffffffffffffffffffffffffff16815260200190815260200160002060020160009054906101000a900460ff169050919050565b6040518060400160405280600381526020017f31303200000000000000000000000000000000000000000000000000000000008152506040517f08c379a0000000000000000000000000000000000000000000000000000000008152600401610b3b91906146c5565b60405180910390fd5b600060986000838152602001908152602001600020600101549050919050565b610b6d82610b44565b610b76816125df565b610b8083836125f3565b505050565b610b8d61251e565b73ffffffffffffffffffffffffffffffffffffffff168173ffffffffffffffffffffffffffffffffffffffff1614610bfa576040517f08c379a0000000000000000000000000000000000000000000000000000000008152600401610bf1906148e3565b60405180910390fd5b610c0482826126d4565b5050565b7f60044782a422109ac08a415e44260ad5d3bad63d96ebe1fac0363399642ee3f2610c32816125df565b60cb60009054906101000a900473ffffffffffffffffffffffffffffffffffffffff1673ffffffffffffffffffffffffffffffffffffffff166384b7a84a8560016040518363ffffffff1660e01b8152600401610c90929190614887565b600060405180830381600087803b158015610caa57600080fd5b505af1158015610cbe573d6000803e3d6000fd5b50505050600060cc60008673ffffffffffffffffffffffffffffffffffffffff1673ffffffffffffffffffffffffffffffffffffffff168152602001908152602001600020549050610d0f816127b6565b6000808673ffffffffffffffffffffffffffffffffffffffff1673ffffffffffffffffffffffffffffffffffffffff168152602001908152602001600020600080820160009055600182016000610d66919061397c565b6002820160006101000a81549060ff02191690556002820160016101000a81549060ff0219169055600382016000905550508383604051610da8929190614579565b6040518091039020818673ffffffffffffffffffffffffffffffffffffffff167f8b09fc40032762aebf578cd9202b2548559cbac190b3807076418620ef05518f60405160405180910390a45050505050565b6040518060400160405280600381526020017f31303200000000000000000000000000000000000000000000000000000000008152506040517f08c379a0000000000000000000000000000000000000000000000000000000008152600401610e6491906146c5565b60405180910390fd5b6000610e7960ca612904565b905090565b600080610e8a83612912565b9050600073ffffffffffffffffffffffffffffffffffffffff168173ffffffffffffffffffffffffffffffffffffffff161415610efc576040517f08c379a0000000000000000000000000000000000000000000000000000000008152600401610ef390614827565b60405180910390fd5b80915050919050565b6000602052806000526040600020600091509050806000015490806001018054610f2e90614c2a565b80601f0160208091040260200160405190810160405280929190818152602001828054610f5a90614c2a565b8015610fa75780601f10610f7c57610100808354040283529160200191610fa7565b820191906000526020600020905b815481529060010190602001808311610f8a57829003601f168201915b5050505050908060020160009054906101000a900460ff16908060020160019054906101000a900460ff16908060030154905085565b610fe56139bc565b6000808373ffffffffffffffffffffffffffffffffffffffff1673ffffffffffffffffffffffffffffffffffffffff1681526020019081526020016000206040518060a00160405290816000820154815260200160018201805461104890614c2a565b80601f016020809104026020016040519081016040528092919081815260200182805461107490614c2a565b80156110c15780601f10611096576101008083540402835291602001916110c1565b820191906000526020600020905b8154815290600101906020018083116110a457829003601f168201915b505050505081526020016002820160009054906101000a900460ff1660ff1660ff1681526020016002820160019054906101000a900460ff1660ff1660ff1681526020016003820154815250509050919050565b60008073ffffffffffffffffffffffffffffffffffffffff168273ffffffffffffffffffffffffffffffffffffffff161415611186576040517f08c379a000000000000000000000000000000000000000000000000000000000815260040161117d906147c7565b60405180910390fd5b606960008373ffffffffffffffffffffffffffffffffffffffff1673ffffffffffffffffffffffffffffffffffffffff168152602001908152602001600020549050919050565b7f60044782a422109ac08a415e44260ad5d3bad63d96ebe1fac0363399642ee3f26111f7816125df565b60cb60009054906101000a900473ffffffffffffffffffffffffffffffffffffffff1673ffffffffffffffffffffffffffffffffffffffff166384b7a84a8560016040518363ffffffff1660e01b8152600401611255929190614887565b600060405180830381600087803b15801561126f57600080fd5b505af1158015611283573d6000803e3d6000fd5b505050508282604051611297929190614579565b60405180910390208473ffffffffffffffffffffffffffffffffffffffff167f3347b0049117ab94fddf6cff81cc554c4f7489acedc7c33907a96655770e58ae60405160405180910390a350505050565b60006098600084815260200190815260200160002060000160008373ffffffffffffffffffffffffffffffffffffffff1673ffffffffffffffffffffffffffffffffffffffff16815260200190815260200160002060009054906101000a900460ff16905092915050565b60008060008373ffffffffffffffffffffffffffffffffffffffff1673ffffffffffffffffffffffffffffffffffffffff16815260200190815260200160002060030154421061140f576040518060400160405280600381526020017f31303300000000000000000000000000000000000000000000000000000000008152506040517f08c379a000000000000000000000000000000000000000000000000000000000815260040161140691906146c5565b60405180910390fd5b6000808373ffffffffffffffffffffffffffffffffffffffff1673ffffffffffffffffffffffffffffffffffffffff16815260200190815260200160002060020160019054906101000a900460ff169050919050565b60606067805461147490614c2a565b80601f01602080910402602001604051908101604052809291908181526020018280546114a090614c2a565b80156114ed5780601f106114c2576101008083540402835291602001916114ed565b820191906000526020600020905b8154815290600101906020018083116114d057829003601f168201915b5050505050905090565b60606000808373ffffffffffffffffffffffffffffffffffffffff1673ffffffffffffffffffffffffffffffffffffffff1681526020019081526020016000206003015442106115b3576040518060400160405280600381526020017f31303300000000000000000000000000000000000000000000000000000000008152506040517f08c379a00000000000000000000000000000000000000000000000000000000081526004016115aa91906146c5565b60405180910390fd5b6000808373ffffffffffffffffffffffffffffffffffffffff1673ffffffffffffffffffffffffffffffffffffffff16815260200190815260200160002060010180546115ff90614c2a565b80601f016020809104026020016040519081016040528092919081815260200182805461162b90614c2a565b80156116785780601f1061164d57610100808354040283529160200191611678565b820191906000526020600020905b81548152906001019060200180831161165b57829003601f168201915b50505050509050919050565b6000801b81565b61169d61169661251e565b838361294f565b5050565b60008060008373ffffffffffffffffffffffffffffffffffffffff1673ffffffffffffffffffffffffffffffffffffffff16815260200190815260200160002060020160009054906101000a900460ff169050919050565b61170a61170461251e565b83612abc565b611749576040517f08c379a000000000000000000000000000000000000000000000000000000000815260040161174090614707565b60405180910390fd5b61175584848484612b51565b50505050565b600060018054906101000a900460ff1615905080801561178c575060018060009054906101000a900460ff1660ff16105b806117ba575061179b30612bad565b1580156117b9575060018060009054906101000a900460ff1660ff16145b5b6117f9576040517f08c379a00000000000000000000000000000000000000000000000000000000081526004016117f0906147e7565b60405180910390fd5b60018060006101000a81548160ff021916908360ff16021790555080156118355760018060016101000a81548160ff0219169083151502179055505b61183d612bd0565b6118b16040518060400160405280601181526020017f50726f6f66206f66204964656e746974790000000000000000000000000000008152506040518060400160405280600581526020017f48312d4944000000000000000000000000000000000000000000000000000000815250612c1f565b8360cb60006101000a81548173ffffffffffffffffffffffffffffffffffffffff021916908373ffffffffffffffffffffffffffffffffffffffff16021790555061191c7f60044782a422109ac08a415e44260ad5d3bad63d96ebe1fac0363399642ee3f2846125f3565b6119296000801b836125f3565b6119366000801b336126d4565b61194060ca612c7a565b80156119995760006001806101000a81548160ff0219169083151502179055507f7f26b83ff96e1f2b6a682f133852f6798a09c465da95921460cefb3847402498600160405161199091906146aa565b60405180910390a15b50505050565b60008060008373ffffffffffffffffffffffffffffffffffffffff1673ffffffffffffffffffffffffffffffffffffffff16815260200190815260200160002060020160019054906101000a900460ff169050919050565b6060611a0282612c90565b6040518060400160405280600381526020017f313031000000000000000000000000000000000000000000000000000000000081525090611a79576040517f08c379a0000000000000000000000000000000000000000000000000000000008152600401611a7091906146c5565b60405180910390fd5b5060cd60008381526020019081526020016000208054611a9890614c2a565b80601f0160208091040260200160405190810160405280929190818152602001828054611ac490614c2a565b8015611b115780601f10611ae657610100808354040283529160200191611b11565b820191906000526020600020905b815481529060010190602001808311611af457829003601f168201915b50505050509050919050565b7f60044782a422109ac08a415e44260ad5d3bad63d96ebe1fac0363399642ee3f2611b47816125df565b6000611b528a611115565b146040518060400160405280600381526020017f313030000000000000000000000000000000000000000000000000000000000081525090611bca576040517f08c379a0000000000000000000000000000000000000000000000000000000008152600401611bc191906146c5565b60405180910390fd5b504284116040518060400160405280600381526020017f313033000000000000000000000000000000000000000000000000000000000081525090611c45576040517f08c379a0000000000000000000000000000000000000000000000000000000008152600401611c3c91906146c5565b60405180910390fd5b506000611c5260ca612904565b90506040518060a001604052808281526020018a8a8080601f016020809104026020016040519081016040528093929190818152602001838380828437600081840152601f19601f8201169050808301925050505050505081526020018860ff1681526020018760ff168152602001868152506000808c73ffffffffffffffffffffffffffffffffffffffff1673ffffffffffffffffffffffffffffffffffffffff168152602001908152602001600020600082015181600001556020820151816001019080519060200190611d299291906139f1565b5060408201518160020160006101000a81548160ff021916908360ff16021790555060608201518160020160016101000a81548160ff021916908360ff16021790555060808201518160030155905050611d8360ca612c7a565b611d8d8a82612cd1565b838360cd60008481526020019081526020016000209190611daf929190613a77565b508060cc60008c73ffffffffffffffffffffffffffffffffffffffff1673ffffffffffffffffffffffffffffffffffffffff1681526020019081526020016000208190555060cb60009054906101000a900473ffffffffffffffffffffffffffffffffffffffff1673ffffffffffffffffffffffffffffffffffffffff16632f7f0a128b6040518263ffffffff1660e01b8152600401611e4f9190614633565b600060405180830381600087803b158015611e6957600080fd5b505af1158015611e7d573d6000803e3d6000fd5b50505050808a73ffffffffffffffffffffffffffffffffffffffff167faf62702571aa2959cc884d2d2f058f2dde9f91f8cb7b5a5c62887ec1aef856e760405160405180910390a350505050505050505050565b611eda82610b44565b611ee3816125df565b611eed83836126d4565b505050565b7f60044782a422109ac08a415e44260ad5d3bad63d96ebe1fac0363399642ee3f281565b60606000808373ffffffffffffffffffffffffffffffffffffffff1673ffffffffffffffffffffffffffffffffffffffff1681526020019081526020016000206001018054611f6490614c2a565b80601f0160208091040260200160405190810160405280929190818152602001828054611f9090614c2a565b8015611fdd5780601f10611fb257610100808354040283529160200191611fdd565b820191906000526020600020905b815481529060010190602001808311611fc057829003601f168201915b50505050509050919050565b7f60044782a422109ac08a415e44260ad5d3bad63d96ebe1fac0363399642ee3f2612013816125df565b600161201e88611115565b146040518060400160405280600381526020017f313031000000000000000000000000000000000000000000000000000000000081525090612096576040517f08c379a000000000000000000000000000000000000000000000000000000000815260040161208d91906146c5565b60405180910390fd5b5060008060008973ffffffffffffffffffffffffffffffffffffffff1673ffffffffffffffffffffffffffffffffffffffff1681526020019081526020016000206000015490506040518060a0016040528082815260200188888080601f016020809104026020016040519081016040528093929190818152602001838380828437600081840152601f19601f8201169050808301925050505050505081526020018660ff1681526020018560ff168152602001848152506000808a73ffffffffffffffffffffffffffffffffffffffff1673ffffffffffffffffffffffffffffffffffffffff1681526020019081526020016000206000820151816000015560208201518160010190805190602001906121b29291906139f1565b5060408201518160020160006101000a81548160ff021916908360ff16021790555060608201518160020160016101000a81548160ff021916908360ff16021790555060808201518160030155905050808873ffffffffffffffffffffffffffffffffffffffff167f4a1e31466f875c6fcafefabf90bce8accdf53108c4a309106058ef7aefebd5ce60405160405180910390a35050505050505050565b6000606b60008473ffffffffffffffffffffffffffffffffffffffff1673ffffffffffffffffffffffffffffffffffffffff16815260200190815260200160002060008373ffffffffffffffffffffffffffffffffffffffff1673ffffffffffffffffffffffffffffffffffffffff16815260200190815260200160002060009054906101000a900460ff16905092915050565b7f60044782a422109ac08a415e44260ad5d3bad63d96ebe1fac0363399642ee3f261230e816125df565b600060cc60008673ffffffffffffffffffffffffffffffffffffffff1673ffffffffffffffffffffffffffffffffffffffff16815260200190815260200160002054905061235b81612c90565b6040518060400160405280600381526020017f3130310000000000000000000000000000000000000000000000000000000000815250906123d2576040517f08c379a00000000000000000000000000000000000000000000000000000000081526004016123c991906146c5565b60405180910390fd5b50838360cd600084815260200190815260200160002091906123f5929190613a77565b508383604051612406929190614579565b6040518091039020818673ffffffffffffffffffffffffffffffffffffffff167fe3a3e1a0be0d562dd7ec739509d30dfbca7cd174fbc576a45746fe1f3b277c2660405160405180910390a45050505050565b60007f7965db0b000000000000000000000000000000000000000000000000000000007bffffffffffffffffffffffffffffffffffffffffffffffffffffffff1916827bffffffffffffffffffffffffffffffffffffffffffffffffffffffff191614806124cc57506124cb82612cef565b5b9050919050565b6124dc81612c90565b61251b576040517f08c379a000000000000000000000000000000000000000000000000000000000815260040161251290614827565b60405180910390fd5b50565b600033905090565b81606a600083815260200190815260200160002060006101000a81548173ffffffffffffffffffffffffffffffffffffffff021916908373ffffffffffffffffffffffffffffffffffffffff160217905550808273ffffffffffffffffffffffffffffffffffffffff1661259983610e7e565b73ffffffffffffffffffffffffffffffffffffffff167f8c5be1e5ebec7d5bd14f71427d1e84f3dd0314c0f7b2291e5b200ac8c7c3b92560405160405180910390a45050565b6125f0816125eb61251e565b612dd1565b50565b6125fd82826112e8565b6126d05760016098600084815260200190815260200160002060000160008373ffffffffffffffffffffffffffffffffffffffff1673ffffffffffffffffffffffffffffffffffffffff16815260200190815260200160002060006101000a81548160ff02191690831515021790555061267561251e565b73ffffffffffffffffffffffffffffffffffffffff168173ffffffffffffffffffffffffffffffffffffffff16837f2f8788117e7eff1d82e926ec794901d17c78024a50270940304540a733656f0d60405160405180910390a45b5050565b6126de82826112e8565b156127b25760006098600084815260200190815260200160002060000160008373ffffffffffffffffffffffffffffffffffffffff1673ffffffffffffffffffffffffffffffffffffffff16815260200190815260200160002060006101000a81548160ff02191690831515021790555061275761251e565b73ffffffffffffffffffffffffffffffffffffffff168173ffffffffffffffffffffffffffffffffffffffff16837ff6391f5c32d9c69d2a47ea670b442974b53935d1edc7fd64eb21e047a839171b60405160405180910390a45b5050565b60006127c182610e7e565b90506127d1816000846001612e56565b6127da82610e7e565b9050606a600083815260200190815260200160002060006101000a81549073ffffffffffffffffffffffffffffffffffffffff02191690556001606960008373ffffffffffffffffffffffffffffffffffffffff1673ffffffffffffffffffffffffffffffffffffffff168152602001908152602001600020600082825403925050819055506068600083815260200190815260200160002060006101000a81549073ffffffffffffffffffffffffffffffffffffffff021916905581600073ffffffffffffffffffffffffffffffffffffffff168273ffffffffffffffffffffffffffffffffffffffff167fddf252ad1be2c89b69c2b068fc378daa952ba7f163c4a11628f55a4df523b3ef60405160405180910390a4612900816000846001612e5c565b5050565b600081600001549050919050565b60006068600083815260200190815260200160002060009054906101000a900473ffffffffffffffffffffffffffffffffffffffff169050919050565b8173ffffffffffffffffffffffffffffffffffffffff168373ffffffffffffffffffffffffffffffffffffffff1614156129be576040517f08c379a00000000000000000000000000000000000000000000000000000000081526004016129b5906147a7565b60405180910390fd5b80606b60008573ffffffffffffffffffffffffffffffffffffffff1673ffffffffffffffffffffffffffffffffffffffff16815260200190815260200160002060008473ffffffffffffffffffffffffffffffffffffffff1673ffffffffffffffffffffffffffffffffffffffff16815260200190815260200160002060006101000a81548160ff0219169083151502179055508173ffffffffffffffffffffffffffffffffffffffff168373ffffffffffffffffffffffffffffffffffffffff167f17307eab39ab6107e8899845ad3d59bd9653f200f220920489ca2b5937696c3183604051612aaf9190614674565b60405180910390a3505050565b600080612ac883610e7e565b90508073ffffffffffffffffffffffffffffffffffffffff168473ffffffffffffffffffffffffffffffffffffffff161480612b0a5750612b098185612250565b5b80612b4857508373ffffffffffffffffffffffffffffffffffffffff16612b3084610817565b73ffffffffffffffffffffffffffffffffffffffff16145b91505092915050565b612b5c848484612e62565b612b688484848461315c565b612ba7576040517f08c379a0000000000000000000000000000000000000000000000000000000008152600401612b9e90614727565b60405180910390fd5b50505050565b6000808273ffffffffffffffffffffffffffffffffffffffff163b119050919050565b60018054906101000a900460ff16612c1d576040517f08c379a0000000000000000000000000000000000000000000000000000000008152600401612c14906148c3565b60405180910390fd5b565b60018054906101000a900460ff16612c6c576040517f08c379a0000000000000000000000000000000000000000000000000000000008152600401612c63906148c3565b60405180910390fd5b612c7682826132f3565b5050565b6001816000016000828254019250508190555050565b60008073ffffffffffffffffffffffffffffffffffffffff16612cb283612912565b73ffffffffffffffffffffffffffffffffffffffff1614159050919050565b612ceb828260405180602001604052806000815250613372565b5050565b60007f80ac58cd000000000000000000000000000000000000000000000000000000007bffffffffffffffffffffffffffffffffffffffffffffffffffffffff1916827bffffffffffffffffffffffffffffffffffffffffffffffffffffffff19161480612dba57507f5b5e139f000000000000000000000000000000000000000000000000000000007bffffffffffffffffffffffffffffffffffffffffffffffffffffffff1916827bffffffffffffffffffffffffffffffffffffffffffffffffffffffff1916145b80612dca5750612dc9826133cd565b5b9050919050565b612ddb82826112e8565b612e5257612de881613437565b612df68360001c6020613464565b604051602001612e07929190614592565b6040516020818303038152906040526040517f08c379a0000000000000000000000000000000000000000000000000000000008152600401612e4991906146c5565b60405180910390fd5b5050565b50505050565b50505050565b8273ffffffffffffffffffffffffffffffffffffffff16612e8282610e7e565b73ffffffffffffffffffffffffffffffffffffffff1614612ed8576040517f08c379a0000000000000000000000000000000000000000000000000000000008152600401612ecf90614747565b60405180910390fd5b600073ffffffffffffffffffffffffffffffffffffffff168273ffffffffffffffffffffffffffffffffffffffff161415612f48576040517f08c379a0000000000000000000000000000000000000000000000000000000008152600401612f3f90614787565b60405180910390fd5b612f558383836001612e56565b8273ffffffffffffffffffffffffffffffffffffffff16612f7582610e7e565b73ffffffffffffffffffffffffffffffffffffffff1614612fcb576040517f08c379a0000000000000000000000000000000000000000000000000000000008152600401612fc290614747565b60405180910390fd5b606a600082815260200190815260200160002060006101000a81549073ffffffffffffffffffffffffffffffffffffffff02191690556001606960008573ffffffffffffffffffffffffffffffffffffffff1673ffffffffffffffffffffffffffffffffffffffff168152602001908152602001600020600082825403925050819055506001606960008473ffffffffffffffffffffffffffffffffffffffff1673ffffffffffffffffffffffffffffffffffffffff16815260200190815260200160002060008282540192505081905550816068600083815260200190815260200160002060006101000a81548173ffffffffffffffffffffffffffffffffffffffff021916908373ffffffffffffffffffffffffffffffffffffffff160217905550808273ffffffffffffffffffffffffffffffffffffffff168473ffffffffffffffffffffffffffffffffffffffff167fddf252ad1be2c89b69c2b068fc378daa952ba7f163c4a11628f55a4df523b3ef60405160405180910390a46131578383836001612e5c565b505050565b600061317d8473ffffffffffffffffffffffffffffffffffffffff16612bad565b156132e6578373ffffffffffffffffffffffffffffffffffffffff1663150b7a026131a661251e565b8786866040518563ffffffff1660e01b81526004016131c894939291906145e7565b602060405180830381600087803b1580156131e257600080fd5b505af192505050801561321357506040513d601f19601f820116820180604052508101906132109190614090565b60015b613296573d8060008114613243576040519150601f19603f3d011682016040523d82523d6000602084013e613248565b606091505b5060008151141561328e576040517f08c379a000000000000000000000000000000000000000000000000000000000815260040161328590614727565b60405180910390fd5b805181602001fd5b63150b7a0260e01b7bffffffffffffffffffffffffffffffffffffffffffffffffffffffff1916817bffffffffffffffffffffffffffffffffffffffffffffffffffffffff1916149150506132eb565b600190505b949350505050565b60018054906101000a900460ff16613340576040517f08c379a0000000000000000000000000000000000000000000000000000000008152600401613337906148c3565b60405180910390fd5b81606690805190602001906133569291906139f1565b50806067908051906020019061336d9291906139f1565b505050565b61337c838361375e565b613389600084848461315c565b6133c8576040517f08c379a00000000000000000000000000000000000000000000000000000000081526004016133bf90614727565b60405180910390fd5b505050565b60007f01ffc9a7000000000000000000000000000000000000000000000000000000007bffffffffffffffffffffffffffffffffffffffffffffffffffffffff1916827bffffffffffffffffffffffffffffffffffffffffffffffffffffffff1916149050919050565b606061345d8273ffffffffffffffffffffffffffffffffffffffff16601460ff16613464565b9050919050565b6060600060028360026134779190614ab5565b6134819190614a5f565b67ffffffffffffffff8111156134c0577f4e487b7100000000000000000000000000000000000000000000000000000000600052604160045260246000fd5b6040519080825280601f01601f1916602001820160405280156134f25781602001600182028036833780820191505090505b5090507f300000000000000000000000000000000000000000000000000000000000000081600081518110613550577f4e487b7100000000000000000000000000000000000000000000000000000000600052603260045260246000fd5b60200101907effffffffffffffffffffffffffffffffffffffffffffffffffffffffffffff1916908160001a9053507f7800000000000000000000000000000000000000000000000000000000000000816001815181106135da577f4e487b7100000000000000000000000000000000000000000000000000000000600052603260045260246000fd5b60200101907effffffffffffffffffffffffffffffffffffffffffffffffffffffffffffff1916908160001a9053506000600184600261361a9190614ab5565b6136249190614a5f565b90505b6001811115613710577f3031323334353637383961626364656600000000000000000000000000000000600f86166010811061368c577f4e487b7100000000000000000000000000000000000000000000000000000000600052603260045260246000fd5b1a60f81b8282815181106136c9577f4e487b7100000000000000000000000000000000000000000000000000000000600052603260045260246000fd5b60200101907effffffffffffffffffffffffffffffffffffffffffffffffffffffffffffff1916908160001a905350600485901c94508061370990614c00565b9050613627565b5060008414613754576040517f08c379a000000000000000000000000000000000000000000000000000000000815260040161374b906146e7565b60405180910390fd5b8091505092915050565b600073ffffffffffffffffffffffffffffffffffffffff168273ffffffffffffffffffffffffffffffffffffffff1614156137ce576040517f08c379a00000000000000000000000000000000000000000000000000000000081526004016137c590614807565b60405180910390fd5b6137d781612c90565b15613817576040517f08c379a000000000000000000000000000000000000000000000000000000000815260040161380e90614767565b60405180910390fd5b613825600083836001612e56565b61382e81612c90565b1561386e576040517f08c379a000000000000000000000000000000000000000000000000000000000815260040161386590614767565b60405180910390fd5b6001606960008473ffffffffffffffffffffffffffffffffffffffff1673ffffffffffffffffffffffffffffffffffffffff16815260200190815260200160002060008282540192505081905550816068600083815260200190815260200160002060006101000a81548173ffffffffffffffffffffffffffffffffffffffff021916908373ffffffffffffffffffffffffffffffffffffffff160217905550808273ffffffffffffffffffffffffffffffffffffffff16600073ffffffffffffffffffffffffffffffffffffffff167fddf252ad1be2c89b69c2b068fc378daa952ba7f163c4a11628f55a4df523b3ef60405160405180910390a4613978600083836001612e5c565b5050565b50805461398890614c2a565b6000825580601f1061399a57506139b9565b601f0160209004906000526020600020908101906139b89190613afd565b5b50565b6040518060a001604052806000815260200160608152602001600060ff168152602001600060ff168152602001600081525090565b8280546139fd90614c2a565b90600052602060002090601f016020900481019282613a1f5760008555613a66565b82601f10613a3857805160ff1916838001178555613a66565b82800160010185558215613a66579182015b82811115613a65578251825591602001919060010190613a4a565b5b509050613a739190613afd565b5090565b828054613a8390614c2a565b90600052602060002090601f016020900481019282613aa55760008555613aec565b82601f10613abe57803560ff1916838001178555613aec565b82800160010185558215613aec579182015b82811115613aeb578235825591602001919060010190613ad0565b5b509050613af99190613afd565b5090565b5b80821115613b16576000816000905550600101613afe565b5090565b6000613b2d613b28846149da565b6149b5565b905082815260208101848484011115613b4557600080fd5b613b50848285614bbe565b509392505050565b600081359050613b67816151b2565b92915050565b600081359050613b7c816151c9565b92915050565b600081359050613b91816151e0565b92915050565b600081359050613ba6816151f7565b92915050565b600081519050613bbb816151f7565b92915050565b600082601f830112613bd257600080fd5b8135613be2848260208601613b1a565b91505092915050565b60008083601f840112613bfd57600080fd5b8235905067ffffffffffffffff811115613c1657600080fd5b602083019150836001820283011115613c2e57600080fd5b9250929050565b600081359050613c448161520e565b92915050565b600081359050613c5981615225565b92915050565b600060208284031215613c7157600080fd5b6000613c7f84828501613b58565b91505092915050565b60008060408385031215613c9b57600080fd5b6000613ca985828601613b58565b9250506020613cba85828601613b58565b9150509250929050565b600080600060608486031215613cd957600080fd5b6000613ce786828701613b58565b9350506020613cf886828701613b58565b9250506040613d0986828701613b58565b9150509250925092565b600080600060608486031215613d2857600080fd5b6000613d3686828701613b58565b9350506020613d4786828701613b58565b9250506040613d5886828701613c35565b9150509250925092565b60008060008060808587031215613d7857600080fd5b6000613d8687828801613b58565b9450506020613d9787828801613b58565b9350506040613da887828801613c35565b925050606085013567ffffffffffffffff811115613dc557600080fd5b613dd187828801613bc1565b91505092959194509250565b60008060408385031215613df057600080fd5b6000613dfe85828601613b58565b9250506020613e0f85828601613b6d565b9150509250929050565b600080600060408486031215613e2e57600080fd5b6000613e3c86828701613b58565b935050602084013567ffffffffffffffff811115613e5957600080fd5b613e6586828701613beb565b92509250509250925092565b60008060008060008060a08789031215613e8a57600080fd5b6000613e9889828a01613b58565b965050602087013567ffffffffffffffff811115613eb557600080fd5b613ec189828a01613beb565b95509550506040613ed489828a01613c4a565b9350506060613ee589828a01613c4a565b9250506080613ef689828a01613c35565b9150509295509295509295565b60008060008060008060008060c0898b031215613f1f57600080fd5b6000613f2d8b828c01613b58565b985050602089013567ffffffffffffffff811115613f4a57600080fd5b613f568b828c01613beb565b97509750506040613f698b828c01613c4a565b9550506060613f7a8b828c01613c4a565b9450506080613f8b8b828c01613c35565b93505060a089013567ffffffffffffffff811115613fa857600080fd5b613fb48b828c01613beb565b92509250509295985092959890939650565b60008060408385031215613fd957600080fd5b6000613fe785828601613b58565b9250506020613ff885828601613c35565b9150509250929050565b60006020828403121561401457600080fd5b600061402284828501613b82565b91505092915050565b6000806040838503121561403e57600080fd5b600061404c85828601613b82565b925050602061405d85828601613b58565b9150509250929050565b60006020828403121561407957600080fd5b600061408784828501613b97565b91505092915050565b6000602082840312156140a257600080fd5b60006140b084828501613bac565b91505092915050565b6000602082840312156140cb57600080fd5b60006140d984828501613c35565b91505092915050565b6140eb81614b0f565b82525050565b6140fa81614b21565b82525050565b61410981614b2d565b82525050565b600061411a82614a0b565b6141248185614a21565b9350614134818560208601614bcd565b61413d81614d1a565b840191505092915050565b61415181614b9a565b82525050565b61416081614bac565b82525050565b60006141728385614a54565b935061417f838584614bbe565b82840190509392505050565b600061419682614a16565b6141a08185614a32565b93506141b0818560208601614bcd565b6141b981614d1a565b840191505092915050565b60006141cf82614a16565b6141d98185614a43565b93506141e9818560208601614bcd565b6141f281614d1a565b840191505092915050565b600061420882614a16565b6142128185614a54565b9350614222818560208601614bcd565b80840191505092915050565b600061423b602083614a43565b915061424682614d2b565b602082019050919050565b600061425e600683614a43565b915061426982614d54565b602082019050919050565b6000614281602d83614a43565b915061428c82614d7d565b604082019050919050565b60006142a4603283614a43565b91506142af82614dcc565b604082019050919050565b60006142c7602583614a43565b91506142d282614e1b565b604082019050919050565b60006142ea601c83614a43565b91506142f582614e6a565b602082019050919050565b600061430d602483614a43565b915061431882614e93565b604082019050919050565b6000614330601983614a43565b915061433b82614ee2565b602082019050919050565b6000614353602983614a43565b915061435e82614f0b565b604082019050919050565b6000614376602e83614a43565b915061438182614f5a565b604082019050919050565b6000614399602083614a43565b91506143a482614fa9565b602082019050919050565b60006143bc601883614a43565b91506143c782614fd2565b602082019050919050565b60006143df602183614a43565b91506143ea82614ffb565b604082019050919050565b6000614402603d83614a43565b915061440d8261504a565b604082019050919050565b6000614425600683614a43565b915061443082615099565b602082019050919050565b6000614448602b83614a43565b9150614453826150c2565b604082019050919050565b600061446b601783614a54565b915061447682615111565b601782019050919050565b600061448e601183614a54565b91506144998261513a565b601182019050919050565b60006144b1602f83614a43565b91506144bc82615163565b604082019050919050565b600060a0830160008301516144df600086018261453d565b50602083015184820360208601526144f7828261418b565b915050604083015161450c604086018261455b565b50606083015161451f606086018261455b565b506080830151614532608086018261453d565b508091505092915050565b61454681614b83565b82525050565b61455581614b83565b82525050565b61456481614b8d565b82525050565b61457381614b8d565b82525050565b6000614586828486614166565b91508190509392505050565b600061459d8261445e565b91506145a982856141fd565b91506145b482614481565b91506145c082846141fd565b91508190509392505050565b60006020820190506145e160008301846140e2565b92915050565b60006080820190506145fc60008301876140e2565b61460960208301866140e2565b614616604083018561454c565b8181036060830152614628818461410f565b905095945050505050565b600060608201905061464860008301846140e2565b818103602083015261465981614418565b9050818103604083015261466c81614251565b905092915050565b600060208201905061468960008301846140f1565b92915050565b60006020820190506146a46000830184614100565b92915050565b60006020820190506146bf6000830184614157565b92915050565b600060208201905081810360008301526146df81846141c4565b905092915050565b600060208201905081810360008301526147008161422e565b9050919050565b6000602082019050818103600083015261472081614274565b9050919050565b6000602082019050818103600083015261474081614297565b9050919050565b60006020820190508181036000830152614760816142ba565b9050919050565b60006020820190508181036000830152614780816142dd565b9050919050565b600060208201905081810360008301526147a081614300565b9050919050565b600060208201905081810360008301526147c081614323565b9050919050565b600060208201905081810360008301526147e081614346565b9050919050565b6000602082019050818103600083015261480081614369565b9050919050565b600060208201905081810360008301526148208161438c565b9050919050565b60006020820190508181036000830152614840816143af565b9050919050565b60006020820190508181036000830152614860816143d2565b9050919050565b60006020820190508181036000830152614880816143f5565b9050919050565b600060608201905081810360008301526148a081614418565b90506148af60208301856140e2565b6148bc6040830184614148565b9392505050565b600060208201905081810360008301526148dc8161443b565b9050919050565b600060208201905081810360008301526148fc816144a4565b9050919050565b6000602082019050818103600083015261491d81846144c7565b905092915050565b600060208201905061493a600083018461454c565b92915050565b600060a082019050614955600083018861454c565b818103602083015261496781876141c4565b9050614976604083018661456a565b614983606083018561456a565b614990608083018461454c565b9695505050505050565b60006020820190506149af600083018461456a565b92915050565b60006149bf6149d0565b90506149cb8282614c5c565b919050565b6000604051905090565b600067ffffffffffffffff8211156149f5576149f4614ceb565b5b6149fe82614d1a565b9050602081019050919050565b600081519050919050565b600081519050919050565b600082825260208201905092915050565b600082825260208201905092915050565b600082825260208201905092915050565b600081905092915050565b6000614a6a82614b83565b9150614a7583614b83565b9250827fffffffffffffffffffffffffffffffffffffffffffffffffffffffffffffffff03821115614aaa57614aa9614c8d565b5b828201905092915050565b6000614ac082614b83565b9150614acb83614b83565b9250817fffffffffffffffffffffffffffffffffffffffffffffffffffffffffffffffff0483118215151615614b0457614b03614c8d565b5b828202905092915050565b6000614b1a82614b63565b9050919050565b60008115159050919050565b6000819050919050565b60007fffffffff0000000000000000000000000000000000000000000000000000000082169050919050565b600073ffffffffffffffffffffffffffffffffffffffff82169050919050565b6000819050919050565b600060ff82169050919050565b6000614ba582614b83565b9050919050565b6000614bb782614b8d565b9050919050565b82818337600083830152505050565b60005b83811015614beb578082015181840152602081019050614bd0565b83811115614bfa576000848401525b50505050565b6000614c0b82614b83565b91506000821415614c1f57614c1e614c8d565b5b600182039050919050565b60006002820490506001821680614c4257607f821691505b60208210811415614c5657614c55614cbc565b5b50919050565b614c6582614d1a565b810181811067ffffffffffffffff82111715614c8457614c83614ceb565b5b80604052505050565b7f4e487b7100000000000000000000000000000000000000000000000000000000600052601160045260246000fd5b7f4e487b7100000000000000000000000000000000000000000000000000000000600052602260045260246000fd5b7f4e487b7100000000000000000000000000000000000000000000000000000000600052604160045260246000fd5b6000601f19601f8301169050919050565b7f537472696e67733a20686578206c656e67746820696e73756666696369656e74600082015250565b7f565443414c4c0000000000000000000000000000000000000000000000000000600082015250565b7f4552433732313a2063616c6c6572206973206e6f7420746f6b656e206f776e6560008201527f72206f7220617070726f76656400000000000000000000000000000000000000602082015250565b7f4552433732313a207472616e7366657220746f206e6f6e20455243373231526560008201527f63656976657220696d706c656d656e7465720000000000000000000000000000602082015250565b7f4552433732313a207472616e736665722066726f6d20696e636f72726563742060008201527f6f776e6572000000000000000000000000000000000000000000000000000000602082015250565b7f4552433732313a20746f6b656e20616c7265616479206d696e74656400000000600082015250565b7f4552433732313a207472616e7366657220746f20746865207a65726f2061646460008201527f7265737300000000000000000000000000000000000000000000000000000000602082015250565b7f4552433732313a20617070726f766520746f2063616c6c657200000000000000600082015250565b7f4552433732313a2061646472657373207a65726f206973206e6f74206120766160008201527f6c6964206f776e65720000000000000000000000000000000000000000000000602082015250565b7f496e697469616c697a61626c653a20636f6e747261637420697320616c72656160008201527f647920696e697469616c697a6564000000000000000000000000000000000000602082015250565b7f4552433732313a206d696e7420746f20746865207a65726f2061646472657373600082015250565b7f4552433732313a20696e76616c696420746f6b656e2049440000000000000000600082015250565b7f4552433732313a20617070726f76616c20746f2063757272656e74206f776e6560008201527f7200000000000000000000000000000000000000000000000000000000000000602082015250565b7f4552433732313a20617070726f76652063616c6c6572206973206e6f7420746f60008201527f6b656e206f776e6572206f7220617070726f76656420666f7220616c6c000000602082015250565b7f484156454e310000000000000000000000000000000000000000000000000000600082015250565b7f496e697469616c697a61626c653a20636f6e7472616374206973206e6f74206960008201527f6e697469616c697a696e67000000000000000000000000000000000000000000602082015250565b7f416363657373436f6e74726f6c3a206163636f756e7420000000000000000000600082015250565b7f206973206d697373696e6720726f6c6520000000000000000000000000000000600082015250565b7f416363657373436f6e74726f6c3a2063616e206f6e6c792072656e6f756e636560008201527f20726f6c657320666f722073656c660000000000000000000000000000000000602082015250565b6151bb81614b0f565b81146151c657600080fd5b50565b6151d281614b21565b81146151dd57600080fd5b50565b6151e981614b2d565b81146151f457600080fd5b50565b61520081614b37565b811461520b57600080fd5b50565b61521781614b83565b811461522257600080fd5b50565b61522e81614b8d565b811461523957600080fd5b5056fea26469706673582212204cc12729e8f28517d7059340527df48135d18f695345dba0299095dbe5f6110064736f6c63430008020033",
  "linkReferences": {},
  "deployedLinkReferences": {}
}