{
  "_format": "hh-sol-artifact-1",
  "contractName": "ProofOfIdentity",
  "sourceName": "contracts/ProofOfIdentity.sol",
  "abi": [
    {
      "inputs": [],
      "stateMutability": "nonpayable",
      "type": "constructor"
    },
    {
      "anonymous": false,
      "inputs": [
        {
          "indexed": true,
          "internalType": "address",
          "name": "account",
          "type": "address"
        },
        {
          "indexed": true,
          "internalType": "string",
          "name": "reason",
          "type": "string"
        }
      ],
      "name": "AccountSuspendedTokenMaintained",
      "type": "event"
    },
    {
      "anonymous": false,
      "inputs": [
        {
          "indexed": false,
          "internalType": "address",
          "name": "previousAdmin",
          "type": "address"
        },
        {
          "indexed": false,
          "internalType": "address",
          "name": "newAdmin",
          "type": "address"
        }
      ],
      "name": "AdminChanged",
      "type": "event"
    },
    {
      "anonymous": false,
      "inputs": [
        {
          "indexed": true,
          "internalType": "address",
          "name": "owner",
          "type": "address"
        },
        {
          "indexed": true,
          "internalType": "address",
          "name": "approved",
          "type": "address"
        },
        {
          "indexed": true,
          "internalType": "uint256",
          "name": "tokenId",
          "type": "uint256"
        }
      ],
      "name": "Approval",
      "type": "event"
    },
    {
      "anonymous": false,
      "inputs": [
        {
          "indexed": true,
          "internalType": "address",
          "name": "owner",
          "type": "address"
        },
        {
          "indexed": true,
          "internalType": "address",
          "name": "operator",
          "type": "address"
        },
        {
          "indexed": false,
          "internalType": "bool",
          "name": "approved",
          "type": "bool"
        }
      ],
      "name": "ApprovalForAll",
      "type": "event"
    },
    {
      "anonymous": false,
      "inputs": [
        {
          "indexed": true,
          "internalType": "address",
          "name": "beacon",
          "type": "address"
        }
      ],
      "name": "BeaconUpgraded",
      "type": "event"
    },
    {
      "anonymous": false,
      "inputs": [
        {
          "indexed": true,
          "internalType": "address",
          "name": "account",
          "type": "address"
        },
        {
          "indexed": true,
          "internalType": "uint256",
          "name": "tokenId",
          "type": "uint256"
        }
      ],
      "name": "IdentityIssued",
      "type": "event"
    },
    {
      "anonymous": false,
      "inputs": [
        {
          "indexed": true,
          "internalType": "address",
          "name": "account",
          "type": "address"
        },
        {
          "indexed": true,
          "internalType": "uint256",
          "name": "tokenId",
          "type": "uint256"
        }
      ],
      "name": "IdentityUpdated",
      "type": "event"
    },
    {
      "anonymous": false,
      "inputs": [
        {
          "indexed": false,
          "internalType": "uint8",
          "name": "version",
          "type": "uint8"
        }
      ],
      "name": "Initialized",
      "type": "event"
    },
    {
      "anonymous": false,
      "inputs": [
        {
          "indexed": true,
          "internalType": "bytes32",
          "name": "role",
          "type": "bytes32"
        },
        {
          "indexed": true,
          "internalType": "bytes32",
          "name": "previousAdminRole",
          "type": "bytes32"
        },
        {
          "indexed": true,
          "internalType": "bytes32",
          "name": "newAdminRole",
          "type": "bytes32"
        }
      ],
      "name": "RoleAdminChanged",
      "type": "event"
    },
    {
      "anonymous": false,
      "inputs": [
        {
          "indexed": true,
          "internalType": "bytes32",
          "name": "role",
          "type": "bytes32"
        },
        {
          "indexed": true,
          "internalType": "address",
          "name": "account",
          "type": "address"
        },
        {
          "indexed": true,
          "internalType": "address",
          "name": "sender",
          "type": "address"
        }
      ],
      "name": "RoleGranted",
      "type": "event"
    },
    {
      "anonymous": false,
      "inputs": [
        {
          "indexed": true,
          "internalType": "bytes32",
          "name": "role",
          "type": "bytes32"
        },
        {
          "indexed": true,
          "internalType": "address",
          "name": "account",
          "type": "address"
        },
        {
          "indexed": true,
          "internalType": "address",
          "name": "sender",
          "type": "address"
        }
      ],
      "name": "RoleRevoked",
      "type": "event"
    },
    {
      "anonymous": false,
      "inputs": [
        {
          "indexed": true,
          "internalType": "address",
          "name": "account",
          "type": "address"
        },
        {
          "indexed": true,
          "internalType": "uint256",
          "name": "tokenId",
          "type": "uint256"
        },
        {
          "indexed": true,
          "internalType": "string",
          "name": "newURI",
          "type": "string"
        }
      ],
      "name": "TokenURIUpdated",
      "type": "event"
    },
    {
      "anonymous": false,
      "inputs": [
        {
          "indexed": true,
          "internalType": "address",
          "name": "from",
          "type": "address"
        },
        {
          "indexed": true,
          "internalType": "address",
          "name": "to",
          "type": "address"
        },
        {
          "indexed": true,
          "internalType": "uint256",
          "name": "tokenId",
          "type": "uint256"
        }
      ],
      "name": "Transfer",
      "type": "event"
    },
    {
      "anonymous": false,
      "inputs": [
        {
          "indexed": true,
          "internalType": "address",
          "name": "implementation",
          "type": "address"
        }
      ],
      "name": "Upgraded",
      "type": "event"
    },
    {
      "inputs": [],
      "name": "DEFAULT_ADMIN_ROLE",
      "outputs": [
        {
          "internalType": "bytes32",
          "name": "",
          "type": "bytes32"
        }
      ],
      "stateMutability": "view",
      "type": "function"
    },
    {
      "inputs": [],
      "name": "OPERATOR_ROLE",
      "outputs": [
        {
          "internalType": "bytes32",
          "name": "",
          "type": "bytes32"
        }
      ],
      "stateMutability": "view",
      "type": "function"
    },
    {
      "inputs": [
        {
          "internalType": "address",
          "name": "to",
          "type": "address"
        },
        {
          "internalType": "uint256",
          "name": "tokenId",
          "type": "uint256"
        }
      ],
      "name": "approve",
      "outputs": [],
      "stateMutability": "nonpayable",
      "type": "function"
    },
    {
      "inputs": [
        {
          "internalType": "address",
          "name": "owner",
          "type": "address"
        }
      ],
      "name": "balanceOf",
      "outputs": [
        {
          "internalType": "uint256",
          "name": "",
          "type": "uint256"
        }
      ],
      "stateMutability": "view",
      "type": "function"
    },
    {
      "inputs": [
        {
          "internalType": "address",
          "name": "account",
          "type": "address"
        },
        {
          "internalType": "uint8",
          "name": "score",
          "type": "uint8"
        }
      ],
      "name": "establishCompetencyRating",
      "outputs": [],
      "stateMutability": "nonpayable",
      "type": "function"
    },
    {
      "inputs": [
        {
          "internalType": "uint256",
          "name": "tokenId",
          "type": "uint256"
        }
      ],
      "name": "getApproved",
      "outputs": [
        {
          "internalType": "address",
          "name": "",
          "type": "address"
        }
      ],
      "stateMutability": "view",
      "type": "function"
    },
    {
      "inputs": [
        {
          "internalType": "bytes32",
          "name": "role",
          "type": "bytes32"
        }
      ],
      "name": "getRoleAdmin",
      "outputs": [
        {
          "internalType": "bytes32",
          "name": "",
          "type": "bytes32"
        }
      ],
      "stateMutability": "view",
      "type": "function"
    },
    {
      "inputs": [
        {
          "internalType": "address",
          "name": "account",
          "type": "address"
        }
      ],
      "name": "getUserAccountCompetencyRating",
      "outputs": [
        {
          "internalType": "uint8",
          "name": "",
          "type": "uint8"
        }
      ],
      "stateMutability": "view",
      "type": "function"
    },
    {
      "inputs": [
        {
          "internalType": "address",
          "name": "account",
          "type": "address"
        }
      ],
      "name": "getUserAccountCompetencyRatingPreventOnExpiry",
      "outputs": [
        {
          "internalType": "uint8",
          "name": "",
          "type": "uint8"
        }
      ],
      "stateMutability": "view",
      "type": "function"
    },
    {
      "inputs": [
        {
          "internalType": "address",
          "name": "account",
          "type": "address"
        }
      ],
      "name": "getUserAccountCountryCode",
      "outputs": [
        {
          "internalType": "string",
          "name": "userAccountCountryCode",
          "type": "string"
        }
      ],
      "stateMutability": "view",
      "type": "function"
    },
    {
      "inputs": [
        {
          "internalType": "address",
          "name": "account",
          "type": "address"
        }
      ],
      "name": "getUserAccountCountryCodePreventOnExpiry",
      "outputs": [
        {
          "internalType": "string",
          "name": "userAccountCountryCode",
          "type": "string"
        }
      ],
      "stateMutability": "view",
      "type": "function"
    },
    {
      "inputs": [
        {
          "internalType": "address",
          "name": "account",
          "type": "address"
        }
      ],
      "name": "getUserAccountExpiry",
      "outputs": [
        {
          "internalType": "uint256",
          "name": "userAccountExpiry",
          "type": "uint256"
        }
      ],
      "stateMutability": "view",
      "type": "function"
    },
    {
      "inputs": [
        {
          "internalType": "address",
          "name": "account",
          "type": "address"
        }
      ],
      "name": "getUserAccountIdentityBlob",
      "outputs": [
        {
          "components": [
            {
              "internalType": "uint256",
              "name": "tokenId",
              "type": "uint256"
            },
            {
              "internalType": "string",
              "name": "countryCode",
              "type": "string"
            },
            {
              "internalType": "uint8",
              "name": "userType",
              "type": "uint8"
            },
            {
              "internalType": "uint8",
              "name": "level",
              "type": "uint8"
            },
            {
              "internalType": "uint256",
              "name": "expiry",
              "type": "uint256"
            },
            {
              "internalType": "uint8",
              "name": "competencyRating",
              "type": "uint8"
            }
          ],
          "internalType": "struct RoleVerification.IdentityBlob",
          "name": "userIdentityBlob",
          "type": "tuple"
        }
      ],
      "stateMutability": "view",
      "type": "function"
    },
    {
      "inputs": [
        {
          "internalType": "address",
          "name": "account",
          "type": "address"
        }
      ],
      "name": "getUserAccountLevel",
      "outputs": [
        {
          "internalType": "uint8",
          "name": "userAccountLevel",
          "type": "uint8"
        }
      ],
      "stateMutability": "view",
      "type": "function"
    },
    {
      "inputs": [
        {
          "internalType": "address",
          "name": "account",
          "type": "address"
        }
      ],
      "name": "getUserAccountLevelPreventOnExpiry",
      "outputs": [
        {
          "internalType": "uint8",
          "name": "",
          "type": "uint8"
        }
      ],
      "stateMutability": "view",
      "type": "function"
    },
    {
      "inputs": [
        {
          "internalType": "address",
          "name": "account",
          "type": "address"
        }
      ],
      "name": "getUserAccountType",
      "outputs": [
        {
          "internalType": "uint8",
          "name": "userAccountType",
          "type": "uint8"
        }
      ],
      "stateMutability": "view",
      "type": "function"
    },
    {
      "inputs": [
        {
          "internalType": "address",
          "name": "account",
          "type": "address"
        }
      ],
      "name": "getUserAccountTypePreventOnExpiry",
      "outputs": [
        {
          "internalType": "uint8",
          "name": "",
          "type": "uint8"
        }
      ],
      "stateMutability": "view",
      "type": "function"
    },
    {
      "inputs": [
        {
          "internalType": "bytes32",
          "name": "role",
          "type": "bytes32"
        },
        {
          "internalType": "address",
          "name": "account",
          "type": "address"
        }
      ],
      "name": "grantRole",
      "outputs": [],
      "stateMutability": "nonpayable",
      "type": "function"
    },
    {
      "inputs": [
        {
          "internalType": "bytes32",
          "name": "role",
          "type": "bytes32"
        },
        {
          "internalType": "address",
          "name": "account",
          "type": "address"
        }
      ],
      "name": "hasRole",
      "outputs": [
        {
          "internalType": "bool",
          "name": "",
          "type": "bool"
        }
      ],
      "stateMutability": "view",
      "type": "function"
    },
    {
      "inputs": [
        {
          "internalType": "address",
          "name": "",
          "type": "address"
        }
      ],
      "name": "identityBlob",
      "outputs": [
        {
          "internalType": "uint256",
          "name": "tokenId",
          "type": "uint256"
        },
        {
          "internalType": "string",
          "name": "countryCode",
          "type": "string"
        },
        {
          "internalType": "uint8",
          "name": "userType",
          "type": "uint8"
        },
        {
          "internalType": "uint8",
          "name": "level",
          "type": "uint8"
        },
        {
          "internalType": "uint256",
          "name": "expiry",
          "type": "uint256"
        },
        {
          "internalType": "uint8",
          "name": "competencyRating",
          "type": "uint8"
        }
      ],
      "stateMutability": "view",
      "type": "function"
    },
    {
      "inputs": [
        {
          "internalType": "address",
          "name": "permissionsInterface",
          "type": "address"
        },
        {
          "internalType": "address",
          "name": "networkAdmin",
          "type": "address"
        },
        {
          "internalType": "address",
          "name": "networkOperator",
          "type": "address"
        }
      ],
      "name": "initialize",
      "outputs": [],
      "stateMutability": "nonpayable",
      "type": "function"
    },
    {
      "inputs": [
        {
          "internalType": "address",
          "name": "owner",
          "type": "address"
        },
        {
          "internalType": "address",
          "name": "operator",
          "type": "address"
        }
      ],
      "name": "isApprovedForAll",
      "outputs": [
        {
          "internalType": "bool",
          "name": "",
          "type": "bool"
        }
      ],
      "stateMutability": "view",
      "type": "function"
    },
    {
      "inputs": [
        {
          "internalType": "address",
          "name": "account",
          "type": "address"
        },
        {
          "internalType": "string",
          "name": "countryCode",
          "type": "string"
        },
        {
          "internalType": "uint8",
          "name": "userType",
          "type": "uint8"
        },
        {
          "internalType": "uint8",
          "name": "level",
          "type": "uint8"
        },
        {
          "internalType": "uint256",
          "name": "expiry",
          "type": "uint256"
        },
        {
          "internalType": "string",
          "name": "tokenUri",
          "type": "string"
        }
      ],
      "name": "issueIdentity",
      "outputs": [
        {
          "internalType": "uint256",
          "name": "",
          "type": "uint256"
        }
      ],
      "stateMutability": "nonpayable",
      "type": "function"
    },
    {
      "inputs": [],
      "name": "name",
      "outputs": [
        {
          "internalType": "string",
          "name": "",
          "type": "string"
        }
      ],
      "stateMutability": "view",
      "type": "function"
    },
    {
      "inputs": [
        {
          "internalType": "uint256",
          "name": "tokenId",
          "type": "uint256"
        }
      ],
      "name": "ownerOf",
      "outputs": [
        {
          "internalType": "address",
          "name": "",
          "type": "address"
        }
      ],
      "stateMutability": "view",
      "type": "function"
    },
    {
      "inputs": [],
      "name": "proxiableUUID",
      "outputs": [
        {
          "internalType": "bytes32",
          "name": "",
          "type": "bytes32"
        }
      ],
      "stateMutability": "view",
      "type": "function"
    },
    {
      "inputs": [
        {
          "internalType": "bytes32",
          "name": "role",
          "type": "bytes32"
        },
        {
          "internalType": "address",
          "name": "account",
          "type": "address"
        }
      ],
      "name": "renounceRole",
      "outputs": [],
      "stateMutability": "nonpayable",
      "type": "function"
    },
    {
      "inputs": [
        {
          "internalType": "bytes32",
          "name": "role",
          "type": "bytes32"
        },
        {
          "internalType": "address",
          "name": "account",
          "type": "address"
        }
      ],
      "name": "revokeRole",
      "outputs": [],
      "stateMutability": "nonpayable",
      "type": "function"
    },
    {
      "inputs": [
        {
          "internalType": "address",
          "name": "from",
          "type": "address"
        },
        {
          "internalType": "address",
          "name": "to",
          "type": "address"
        },
        {
          "internalType": "uint256",
          "name": "tokenId",
          "type": "uint256"
        }
      ],
      "name": "safeTransferFrom",
      "outputs": [],
      "stateMutability": "nonpayable",
      "type": "function"
    },
    {
      "inputs": [
        {
          "internalType": "address",
          "name": "from",
          "type": "address"
        },
        {
          "internalType": "address",
          "name": "to",
          "type": "address"
        },
        {
          "internalType": "uint256",
          "name": "tokenId",
          "type": "uint256"
        },
        {
          "internalType": "bytes",
          "name": "data",
          "type": "bytes"
        }
      ],
      "name": "safeTransferFrom",
      "outputs": [],
      "stateMutability": "nonpayable",
      "type": "function"
    },
    {
      "inputs": [
        {
          "internalType": "address",
          "name": "operator",
          "type": "address"
        },
        {
          "internalType": "bool",
          "name": "approved",
          "type": "bool"
        }
      ],
      "name": "setApprovalForAll",
      "outputs": [],
      "stateMutability": "nonpayable",
      "type": "function"
    },
    {
      "inputs": [
        {
          "internalType": "bytes4",
          "name": "interfaceId",
          "type": "bytes4"
        }
      ],
      "name": "supportsInterface",
      "outputs": [
        {
          "internalType": "bool",
          "name": "",
          "type": "bool"
        }
      ],
      "stateMutability": "view",
      "type": "function"
    },
    {
      "inputs": [
        {
          "internalType": "address",
          "name": "suspendAddress",
          "type": "address"
        },
        {
          "internalType": "string",
          "name": "reason",
          "type": "string"
        }
      ],
      "name": "suspendAccountMaintainTokenAndIdentityBlob",
      "outputs": [],
      "stateMutability": "nonpayable",
      "type": "function"
    },
    {
      "inputs": [],
      "name": "symbol",
      "outputs": [
        {
          "internalType": "string",
          "name": "",
          "type": "string"
        }
      ],
      "stateMutability": "view",
      "type": "function"
    },
    {
      "inputs": [
        {
          "internalType": "uint256",
          "name": "tokenId",
          "type": "uint256"
        }
      ],
      "name": "tokenURI",
      "outputs": [
        {
          "internalType": "string",
          "name": "tokenUri",
          "type": "string"
        }
      ],
      "stateMutability": "view",
      "type": "function"
    },
    {
      "inputs": [],
      "name": "totalSupply",
      "outputs": [
        {
          "internalType": "uint256",
          "name": "",
          "type": "uint256"
        }
      ],
      "stateMutability": "view",
      "type": "function"
    },
    {
      "inputs": [
        {
          "internalType": "address",
          "name": "from",
          "type": "address"
        },
        {
          "internalType": "address",
          "name": "to",
          "type": "address"
        },
        {
          "internalType": "uint256",
          "name": "tokenId",
          "type": "uint256"
        }
      ],
      "name": "transferFrom",
      "outputs": [],
      "stateMutability": "nonpayable",
      "type": "function"
    },
    {
      "inputs": [
        {
          "internalType": "address",
          "name": "account",
          "type": "address"
        },
        {
          "internalType": "string",
          "name": "countryCode",
          "type": "string"
        },
        {
          "internalType": "uint8",
          "name": "userType",
          "type": "uint8"
        },
        {
          "internalType": "uint8",
          "name": "level",
          "type": "uint8"
        },
        {
          "internalType": "uint256",
          "name": "expiry",
          "type": "uint256"
        },
        {
          "internalType": "uint8",
          "name": "competencyRating",
          "type": "uint8"
        },
        {
          "internalType": "string",
          "name": "tokenUri",
          "type": "string"
        }
      ],
      "name": "updateIdentity",
      "outputs": [],
      "stateMutability": "nonpayable",
      "type": "function"
    },
    {
      "inputs": [
        {
          "internalType": "address",
          "name": "account",
          "type": "address"
        },
        {
          "internalType": "uint256",
          "name": "tokenId",
          "type": "uint256"
        },
        {
          "internalType": "string",
          "name": "tokenUri",
          "type": "string"
        }
      ],
      "name": "updateTokenURI",
      "outputs": [],
      "stateMutability": "nonpayable",
      "type": "function"
    },
    {
      "inputs": [
        {
          "internalType": "address",
          "name": "newImplementation",
          "type": "address"
        }
      ],
      "name": "upgradeTo",
      "outputs": [],
      "stateMutability": "nonpayable",
      "type": "function"
    },
    {
      "inputs": [
        {
          "internalType": "address",
          "name": "newImplementation",
          "type": "address"
        },
        {
          "internalType": "bytes",
          "name": "data",
          "type": "bytes"
        }
      ],
      "name": "upgradeToAndCall",
      "outputs": [],
      "stateMutability": "payable",
      "type": "function"
    }
  ],
  "bytecode": "0x60a06040523060601b6080523480156200001857600080fd5b506200002362000029565b620000ea565b600154610100900460ff1615620000965760405162461bcd60e51b815260206004820152602760248201527f496e697469616c697a61626c653a20636f6e747261637420697320696e697469604482015266616c697a696e6760c81b606482015260840160405180910390fd5b60015460ff90811614620000e8576001805460ff191660ff9081179091556040519081527f7f26b83ff96e1f2b6a682f133852f6798a09c465da95921460cefb38474024989060200160405180910390a15b565b60805160601c613d0f6200012560003960008181610db101528181610e36015281816114180152818161149d01526115830152613d0f6000f3fe6080604052600436106102c65760003560e01c80636ca5fde811610179578063b467177f116100d6578063d510b7121161008a578063e985e9c511610064578063e985e9c51461086a578063f5b541a6146108b3578063f853018f146108e7576102c6565b8063d510b7121461080a578063d547741f1461082a578063dfb24b891461084a576102c6565b8063c0c53b8b116100bb578063c0c53b8b14610789578063c207e9e0146107a9578063c87b56dd146107ea576102c6565b8063b467177f1461072d578063b88d4fde14610769576102c6565b806394e2dc101161012d57806396257e4d1161011257806396257e4d146106d8578063a217fddf146106f8578063a22cb4651461070d576102c6565b806394e2dc101461068757806395d89b41146106c3576102c6565b806380a5a8961161015e57806380a5a8961461060157806391d1485414610621578063949cdd6e14610667576102c6565b80636ca5fde8146105b457806370a08231146105e1576102c6565b80632f2ff15d1161022757806342842e0e116101db57806352d1902d116101c057806352d1902d1461054d5780636352211e14610562578063688ea9fe14610582576102c6565b806342842e0e1461051a5780634f1ef2861461053a576102c6565b80633659cfe61161020c5780633659cfe6146104ba57806337273724146104da57806340f378e5146104fa576102c6565b80632f2ff15d1461047a57806336568abe1461049a576102c6565b80630fcd7f8f1161027e5780631fe0094a116102635780631fe0094a146103f857806323b872dd1461042a578063248a9ca31461044a576102c6565b80630fcd7f8f146103c357806318160ddd146103e3576102c6565b8063081812fc116102af578063081812fc1461032257806309299ea31461035a578063095ea7b3146103a1576102c6565b806301ffc9a7146102cb57806306fdde0314610300575b600080fd5b3480156102d757600080fd5b506102eb6102e636600461390a565b610907565b60405190151581526020015b60405180910390f35b34801561030c57600080fd5b5061031561091a565b6040516102f79190613abf565b34801561032e57600080fd5b5061034261033d3660046138b8565b6109ac565b6040516001600160a01b0390911681526020016102f7565b34801561036657600080fd5b5061039361037536600461349f565b6001600160a01b031660009081526020819052604090206003015490565b6040519081526020016102f7565b3480156103ad57600080fd5b506103c16103bc36600461380e565b6109d3565b005b3480156103cf57600080fd5b506103c16103de366004613837565b610b0a565b3480156103ef57600080fd5b50610393610bf8565b34801561040457600080fd5b5061041861041336600461349f565b610c09565b60405160ff90911681526020016102f7565b34801561043657600080fd5b506103c161044536600461352d565b610c7e565b34801561045657600080fd5b506103936104653660046138b8565b60009081526098602052604090206001015490565b34801561048657600080fd5b506103c16104953660046138e8565b610cf5565b3480156104a657600080fd5b506103c16104b53660046138e8565b610d1a565b3480156104c657600080fd5b506103c16104d536600461349f565b610da6565b3480156104e657600080fd5b506103c16104f5366004613750565b610f22565b34801561050657600080fd5b506103936105153660046136a5565b611119565b34801561052657600080fd5b506103c161053536600461352d565b6113f2565b6103c1610548366004613608565b61140d565b34801561055957600080fd5b50610393611576565b34801561056e57600080fd5b5061034261057d3660046138b8565b61163b565b34801561058e57600080fd5b506105a261059d36600461349f565b6116a0565b6040516102f796959493929190613b74565b3480156105c057600080fd5b506105d46105cf36600461349f565b611767565b6040516102f79190613b11565b3480156105ed57600080fd5b506103936105fc36600461349f565b6118a0565b34801561060d57600080fd5b506103c161061c366004613654565b61193a565b34801561062d57600080fd5b506102eb61063c3660046138e8565b60009182526098602090815260408084206001600160a01b0393909316845291905290205460ff1690565b34801561067357600080fd5b5061041861068236600461349f565b611a34565b34801561069357600080fd5b506104186106a236600461349f565b6001600160a01b031660009081526020819052604090206004015460ff1690565b3480156106cf57600080fd5b50610315611aae565b3480156106e457600080fd5b506103156106f336600461349f565b611abd565b34801561070457600080fd5b50610393600081565b34801561071957600080fd5b506103c16107283660046135ce565b611bbe565b34801561073957600080fd5b5061041861074836600461349f565b6001600160a01b031660009081526020819052604090206002015460ff1690565b34801561077557600080fd5b506103c1610784366004613568565b611bc9565b34801561079557600080fd5b506103c16107a43660046134eb565b611c47565b3480156107b557600080fd5b506104186107c436600461349f565b6001600160a01b0316600090815260208190526040902060020154610100900460ff1690565b3480156107f657600080fd5b506103156108053660046138b8565b611e30565b34801561081657600080fd5b5061041861082536600461349f565b611ea2565b34801561083657600080fd5b506103c16108453660046138e8565b611f17565b34801561085657600080fd5b5061031561086536600461349f565b611f3c565b34801561087657600080fd5b506102eb6108853660046134b9565b6001600160a01b039182166000908152606b6020908152604080832093909416825291909152205460ff1690565b3480156108bf57600080fd5b506103937f97667070c54ef182b0f5858b034beac1b6f3089aa2d3188bb1e8929f4fa9b92981565b3480156108f357600080fd5b506103c161090236600461388f565b611f66565b600061091282611fc1565b90505b919050565b60606066805461092990613c35565b80601f016020809104026020016040519081016040528092919081815260200182805461095590613c35565b80156109a25780601f10610977576101008083540402835291602001916109a2565b820191906000526020600020905b81548152906001019060200180831161098557829003601f168201915b5050505050905090565b60006109b782611fff565b506000908152606a60205260409020546001600160a01b031690565b60006109de8261163b565b9050806001600160a01b0316836001600160a01b03161415610a6d5760405162461bcd60e51b815260206004820152602160248201527f4552433732313a20617070726f76616c20746f2063757272656e74206f776e6560448201527f720000000000000000000000000000000000000000000000000000000000000060648201526084015b60405180910390fd5b336001600160a01b0382161480610a895750610a898133610885565b610afb5760405162461bcd60e51b815260206004820152603d60248201527f4552433732313a20617070726f76652063616c6c6572206973206e6f7420746f60448201527f6b656e206f776e6572206f7220617070726f76656420666f7220616c6c0000006064820152608401610a64565b610b058383612063565b505050565b7f97667070c54ef182b0f5858b034beac1b6f3089aa2d3188bb1e8929f4fa9b929610b34816120d1565b6000848152606860205260409020546001600160a01b031615156040518060400160405280600381526020016231303160e81b81525090610b885760405162461bcd60e51b8152600401610a649190613abf565b50600084815261013060205260409020610ba390848461329c565b508282604051610bb492919061398a565b6040519081900381209085906001600160a01b038816907fe3a3e1a0be0d562dd7ec739509d30dfbca7cd174fbc576a45746fe1f3b277c2690600090a45050505050565b6000610c0461012e5490565b905090565b6001600160a01b0381166000908152602081905260408120600301544210610c5c57604080518082018252600381526231303360e81b6020820152905162461bcd60e51b8152610a649190600401613abf565b506001600160a01b031660009081526020819052604090206002015460ff1690565b610c8833826120db565b610cea5760405162461bcd60e51b815260206004820152602d60248201527f4552433732313a2063616c6c6572206973206e6f7420746f6b656e206f776e6560448201526c1c881bdc88185c1c1c9bdd9959609a1b6064820152608401610a64565b610b0583838361215a565b600082815260986020526040902060010154610d10816120d1565b610b058383612360565b6001600160a01b0381163314610d985760405162461bcd60e51b815260206004820152602f60248201527f416363657373436f6e74726f6c3a2063616e206f6e6c792072656e6f756e636560448201527f20726f6c657320666f722073656c6600000000000000000000000000000000006064820152608401610a64565b610da28282612402565b5050565b306001600160a01b037f0000000000000000000000000000000000000000000000000000000000000000161415610e345760405162461bcd60e51b815260206004820152602c60248201527f46756e6374696f6e206d7573742062652063616c6c6564207468726f7567682060448201526b19195b1959d85d1958d85b1b60a21b6064820152608401610a64565b7f00000000000000000000000000000000000000000000000000000000000000006001600160a01b0316610e8f7f360894a13ba1a3210667c828492db98dca3e2076cc3735a920a3ca505d382bbc546001600160a01b031690565b6001600160a01b031614610efa5760405162461bcd60e51b815260206004820152602c60248201527f46756e6374696f6e206d7573742062652063616c6c6564207468726f7567682060448201526b6163746976652070726f787960a01b6064820152608401610a64565b610f0381612485565b60408051600080825260208201909252610f1f91839190612490565b50565b7f97667070c54ef182b0f5858b034beac1b6f3089aa2d3188bb1e8929f4fa9b929610f4c816120d1565b610f558a6118a0565b6001146040518060400160405280600381526020016231303160e81b81525090610f925760405162461bcd60e51b8152600401610a649190613abf565b506040805160c0810182526001600160a01b038c1660009081526020818152908390205482528251601f8c018290048202810182019093528a83529091818301918c908c9081908401838280828437600092018290525093855250505060ff808b166020808501919091528a8216604080860191909152606085018b90529189166080909401939093526001600160a01b038e168252818352902082518155828201518051919261104b92600185019290910190613320565b50604082810151600283018054606086015160ff1991821660ff9485161761ff00191661010091851691909102179091556080850151600385015560a090940151600490930180549094169216919091179091556001600160a01b038b16600090815260208181528282205482526101309052206110ca90848461329c565b506001600160a01b038a166000818152602081905260408082205490519092917f4a1e31466f875c6fcafefabf90bce8accdf53108c4a309106058ef7aefebd5ce91a350505050505050505050565b60007f97667070c54ef182b0f5858b034beac1b6f3089aa2d3188bb1e8929f4fa9b929611145816120d1565b61114e8a6118a0565b60408051808201909152600381527f3130300000000000000000000000000000000000000000000000000000000000602082015290156111a15760405162461bcd60e51b8152600401610a649190613abf565b5060408051808201909152600381526231303360e81b60208201524286116111dc5760405162461bcd60e51b8152600401610a649190613abf565b506111ec61012e80546001019055565b6040518060c0016040528061120161012e5490565b81526020018a8a8080601f016020809104026020016040519081016040528093929190818152602001838380828437600092018290525093855250505060ff808b16602080850191909152908a16604080850191909152606084018a905260809093018290526001600160a01b038e16825281815291902082518155828201518051919261129792600185019290910190613320565b506040820151600282018054606085015160ff1991821660ff9485161761ff00191661010091851691909102179091556080840151600384015560a0909301516004909201805490931691161790556112f98a6112f461012e5490565b612644565b8383610130600061130a61012e5490565b8152602001908152602001600020919061132592919061329c565b5061012f546040517f2f7f0a120000000000000000000000000000000000000000000000000000000081526001600160a01b0390911690632f7f0a1290611370908d90600401613a4d565b600060405180830381600087803b15801561138a57600080fd5b505af115801561139e573d6000803e3d6000fd5b505050506113ac61012e5490565b6040516001600160a01b038c16907fae1b84af5e96bd9fa84e791c6b59125d1c17f73ef00e5a9d1fd8c0cc41e0489690600090a361012e549a9950505050505050505050565b610b0583838360405180602001604052806000815250611bc9565b306001600160a01b037f000000000000000000000000000000000000000000000000000000000000000016141561149b5760405162461bcd60e51b815260206004820152602c60248201527f46756e6374696f6e206d7573742062652063616c6c6564207468726f7567682060448201526b19195b1959d85d1958d85b1b60a21b6064820152608401610a64565b7f00000000000000000000000000000000000000000000000000000000000000006001600160a01b03166114f67f360894a13ba1a3210667c828492db98dca3e2076cc3735a920a3ca505d382bbc546001600160a01b031690565b6001600160a01b0316146115615760405162461bcd60e51b815260206004820152602c60248201527f46756e6374696f6e206d7573742062652063616c6c6564207468726f7567682060448201526b6163746976652070726f787960a01b6064820152608401610a64565b61156a82612485565b610da282826001612490565b6000306001600160a01b037f000000000000000000000000000000000000000000000000000000000000000016146116165760405162461bcd60e51b815260206004820152603860248201527f555550535570677261646561626c653a206d757374206e6f742062652063616c60448201527f6c6564207468726f7567682064656c656761746563616c6c00000000000000006064820152608401610a64565b507f360894a13ba1a3210667c828492db98dca3e2076cc3735a920a3ca505d382bbc90565b6000818152606860205260408120546001600160a01b0316806109125760405162461bcd60e51b815260206004820152601860248201527f4552433732313a20696e76616c696420746f6b656e20494400000000000000006044820152606401610a64565b600060208190529081526040902080546001820180549192916116c290613c35565b80601f01602080910402602001604051908101604052809291908181526020018280546116ee90613c35565b801561173b5780601f106117105761010080835404028352916020019161173b565b820191906000526020600020905b81548152906001019060200180831161171e57829003601f168201915b50505060028401546003850154600490950154939460ff80831695610100909304811694509092501686565b6117a96040518060c001604052806000815260200160608152602001600060ff168152602001600060ff16815260200160008152602001600060ff1681525090565b6001600160a01b03821660009081526020818152604091829020825160c081019093528054835260018101805491928401916117e490613c35565b80601f016020809104026020016040519081016040528092919081815260200182805461181090613c35565b801561185d5780601f106118325761010080835404028352916020019161185d565b820191906000526020600020905b81548152906001019060200180831161184057829003601f168201915b5050509183525050600282015460ff8082166020840152610100909104811660408301526003830154606083015260049092015490911660809091015292915050565b60006001600160a01b03821661191e5760405162461bcd60e51b815260206004820152602960248201527f4552433732313a2061646472657373207a65726f206973206e6f74206120766160448201527f6c6964206f776e657200000000000000000000000000000000000000000000006064820152608401610a64565b506001600160a01b031660009081526069602052604090205490565b7f97667070c54ef182b0f5858b034beac1b6f3089aa2d3188bb1e8929f4fa9b929611964816120d1565b61012f546040517f84b7a84a0000000000000000000000000000000000000000000000000000000081526001600160a01b03909116906384b7a84a906119b1908790600190600401613ad2565b600060405180830381600087803b1580156119cb57600080fd5b505af11580156119df573d6000803e3d6000fd5b5050505082826040516119f392919061398a565b604051908190038120906001600160a01b038616907f3347b0049117ab94fddf6cff81cc554c4f7489acedc7c33907a96655770e58ae90600090a350505050565b6001600160a01b0381166000908152602081905260408120600301544210611a8757604080518082018252600381526231303360e81b6020820152905162461bcd60e51b8152610a649190600401613abf565b506001600160a01b0316600090815260208190526040902060020154610100900460ff1690565b60606067805461092990613c35565b6001600160a01b0381166000908152602081905260409020600301546060904210611b1357604080518082018252600381526231303360e81b6020820152905162461bcd60e51b8152610a649190600401613abf565b6001600160a01b03821660009081526020819052604090206001018054611b3990613c35565b80601f0160208091040260200160405190810160405280929190818152602001828054611b6590613c35565b8015611bb25780601f10611b8757610100808354040283529160200191611bb2565b820191906000526020600020905b815481529060010190602001808311611b9557829003601f168201915b50505050509050919050565b610da233838361265e565b611bd333836120db565b611c355760405162461bcd60e51b815260206004820152602d60248201527f4552433732313a2063616c6c6572206973206e6f7420746f6b656e206f776e6560448201526c1c881bdc88185c1c1c9bdd9959609a1b6064820152608401610a64565b611c418484848461272d565b50505050565b600154610100900460ff1615808015611c6457506001805460ff16105b80611c7d5750303b158015611c7d57506001805460ff16145b611cef5760405162461bcd60e51b815260206004820152602e60248201527f496e697469616c697a61626c653a20636f6e747261637420697320616c72656160448201527f647920696e697469616c697a65640000000000000000000000000000000000006064820152608401610a64565b6001805460ff1916811790558015611d11576001805461ff0019166101001790555b611d196127ab565b611d8d6040518060400160405280601181526020017f50726f6f66206f66204964656e746974790000000000000000000000000000008152506040518060400160405280600581526020017f48312d4944000000000000000000000000000000000000000000000000000000815250612818565b611d956127ab565b61012f80546001600160a01b0319166001600160a01b038616179055611dbc600084612360565b611de67f97667070c54ef182b0f5858b034beac1b6f3089aa2d3188bb1e8929f4fa9b92983612360565b8015611c41576001805461ff00191681556040519081527f7f26b83ff96e1f2b6a682f133852f6798a09c465da95921460cefb38474024989060200160405180910390a150505050565b6000818152606860205260409020546060906001600160a01b031615156040518060400160405280600381526020016231303160e81b81525090611e875760405162461bcd60e51b8152600401610a649190613abf565b506000828152610130602052604090208054611b3990613c35565b6001600160a01b0381166000908152602081905260408120600301544210611ef557604080518082018252600381526231303360e81b6020820152905162461bcd60e51b8152610a649190600401613abf565b506001600160a01b031660009081526020819052604090206004015460ff1690565b600082815260986020526040902060010154611f32816120d1565b610b058383612402565b6001600160a01b0381166000908152602081905260409020600101805460609190611b3990613c35565b7f97667070c54ef182b0f5858b034beac1b6f3089aa2d3188bb1e8929f4fa9b929611f90816120d1565b506001600160a01b03919091166000908152602081905260409020600401805460ff191660ff909216919091179055565b60006001600160e01b031982167f7965db0b00000000000000000000000000000000000000000000000000000000148061091257506109128261288d565b6000818152606860205260409020546001600160a01b0316610f1f5760405162461bcd60e51b815260206004820152601860248201527f4552433732313a20696e76616c696420746f6b656e20494400000000000000006044820152606401610a64565b6000818152606a6020526040902080546001600160a01b0319166001600160a01b03841690811790915581906120988261163b565b6001600160a01b03167f8c5be1e5ebec7d5bd14f71427d1e84f3dd0314c0f7b2291e5b200ac8c7c3b92560405160405180910390a45050565b610f1f8133612928565b6000806120e78361163b565b9050806001600160a01b0316846001600160a01b0316148061212e57506001600160a01b038082166000908152606b602090815260408083209388168352929052205460ff165b806121525750836001600160a01b0316612147846109ac565b6001600160a01b0316145b949350505050565b826001600160a01b031661216d8261163b565b6001600160a01b0316146121d15760405162461bcd60e51b815260206004820152602560248201527f4552433732313a207472616e736665722066726f6d20696e636f72726563742060448201526437bbb732b960d91b6064820152608401610a64565b6001600160a01b03821661224c5760405162461bcd60e51b8152602060048201526024808201527f4552433732313a207472616e7366657220746f20746865207a65726f2061646460448201527f72657373000000000000000000000000000000000000000000000000000000006064820152608401610a64565b612259838383600161299d565b826001600160a01b031661226c8261163b565b6001600160a01b0316146122d05760405162461bcd60e51b815260206004820152602560248201527f4552433732313a207472616e736665722066726f6d20696e636f72726563742060448201526437bbb732b960d91b6064820152608401610a64565b6000818152606a6020908152604080832080546001600160a01b03199081169091556001600160a01b0387811680865260698552838620805460001901905590871680865283862080546001019055868652606890945282852080549092168417909155905184937fddf252ad1be2c89b69c2b068fc378daa952ba7f163c4a11628f55a4df523b3ef91a4610b05565b60008281526098602090815260408083206001600160a01b038516845290915290205460ff16610da25760008281526098602090815260408083206001600160a01b03851684529091529020805460ff191660011790556123be3390565b6001600160a01b0316816001600160a01b0316837f2f8788117e7eff1d82e926ec794901d17c78024a50270940304540a733656f0d60405160405180910390a45050565b60008281526098602090815260408083206001600160a01b038516845290915290205460ff1615610da25760008281526098602090815260408083206001600160a01b0385168085529252808320805460ff1916905551339285917ff6391f5c32d9c69d2a47ea670b442974b53935d1edc7fd64eb21e047a839171b9190a45050565b6000610da2816120d1565b7f4910fdfa16fed3260ed0e7147f7cc6da11a60208b5b9406d12a635614ffd91435460ff16156124c8576124c3836129ff565b610b05565b826001600160a01b03166352d1902d6040518163ffffffff1660e01b815260040160206040518083038186803b15801561250157600080fd5b505afa925050508015612531575060408051601f3d908101601f1916820190925261252e918101906138d0565b60015b6125a35760405162461bcd60e51b815260206004820152602e60248201527f45524331393637557067726164653a206e657720696d706c656d656e7461746960448201527f6f6e206973206e6f7420555550530000000000000000000000000000000000006064820152608401610a64565b7f360894a13ba1a3210667c828492db98dca3e2076cc3735a920a3ca505d382bbc81146126385760405162461bcd60e51b815260206004820152602960248201527f45524331393637557067726164653a20756e737570706f727465642070726f7860448201527f6961626c655555494400000000000000000000000000000000000000000000006064820152608401610a64565b50610b05838383612abd565b610da2828260405180602001604052806000815250612ae2565b816001600160a01b0316836001600160a01b031614156126c05760405162461bcd60e51b815260206004820152601960248201527f4552433732313a20617070726f766520746f2063616c6c6572000000000000006044820152606401610a64565b6001600160a01b038381166000818152606b6020908152604080832094871680845294825291829020805460ff191686151590811790915591519182527f17307eab39ab6107e8899845ad3d59bd9653f200f220920489ca2b5937696c31910160405180910390a3505050565b61273884848461215a565b61274484848484612b60565b611c415760405162461bcd60e51b815260206004820152603260248201527f4552433732313a207472616e7366657220746f206e6f6e20455243373231526560448201527131b2b4bb32b91034b6b83632b6b2b73a32b960711b6064820152608401610a64565b600154610100900460ff166128165760405162461bcd60e51b815260206004820152602b60248201527f496e697469616c697a61626c653a20636f6e7472616374206973206e6f74206960448201526a6e697469616c697a696e6760a81b6064820152608401610a64565b565b600154610100900460ff166128835760405162461bcd60e51b815260206004820152602b60248201527f496e697469616c697a61626c653a20636f6e7472616374206973206e6f74206960448201526a6e697469616c697a696e6760a81b6064820152608401610a64565b610da28282612cb8565b60006001600160e01b031982167f80ac58cd0000000000000000000000000000000000000000000000000000000014806128f057506001600160e01b031982167f5b5e139f00000000000000000000000000000000000000000000000000000000145b8061091257507f01ffc9a7000000000000000000000000000000000000000000000000000000006001600160e01b0319831614610912565b60008281526098602090815260408083206001600160a01b038516845290915290205460ff16610da25761295b81612d4a565b612966836020612d5c565b60405160200161297792919061399a565b60408051601f198184030181529082905262461bcd60e51b8252610a6491600401613abf565b60408051808201909152600381527f313032000000000000000000000000000000000000000000000000000000000060208201526001600160a01b038516156129f95760405162461bcd60e51b8152600401610a649190613abf565b50611c41565b6001600160a01b0381163b612a7c5760405162461bcd60e51b815260206004820152602d60248201527f455243313936373a206e657720696d706c656d656e746174696f6e206973206e60448201527f6f74206120636f6e7472616374000000000000000000000000000000000000006064820152608401610a64565b7f360894a13ba1a3210667c828492db98dca3e2076cc3735a920a3ca505d382bbc80546001600160a01b0319166001600160a01b0392909216919091179055565b612ac683612f8a565b600082511180612ad35750805b15610b0557611c418383612fca565b612aec8383612fef565b612af96000848484612b60565b610b055760405162461bcd60e51b815260206004820152603260248201527f4552433732313a207472616e7366657220746f206e6f6e20455243373231526560448201527131b2b4bb32b91034b6b83632b6b2b73a32b960711b6064820152608401610a64565b60006001600160a01b0384163b15612cad57604051630a85bd0160e11b81526001600160a01b0385169063150b7a0290612ba4903390899088908890600401613a1b565b602060405180830381600087803b158015612bbe57600080fd5b505af1925050508015612bee575060408051601f3d908101601f19168201909252612beb91810190613926565b60015b612c93573d808015612c1c576040519150601f19603f3d011682016040523d82523d6000602084013e612c21565b606091505b508051612c8b5760405162461bcd60e51b815260206004820152603260248201527f4552433732313a207472616e7366657220746f206e6f6e20455243373231526560448201527131b2b4bb32b91034b6b83632b6b2b73a32b960711b6064820152608401610a64565b805181602001fd5b6001600160e01b031916630a85bd0160e11b149050612152565b506001949350505050565b600154610100900460ff16612d235760405162461bcd60e51b815260206004820152602b60248201527f496e697469616c697a61626c653a20636f6e7472616374206973206e6f74206960448201526a6e697469616c697a696e6760a81b6064820152608401610a64565b8151612d36906066906020850190613320565b508051610b05906067906020840190613320565b60606109126001600160a01b03831660145b60606000612d6b836002613bd3565b612d76906002613bbb565b67ffffffffffffffff811115612d9c57634e487b7160e01b600052604160045260246000fd5b6040519080825280601f01601f191660200182016040528015612dc6576020820181803683370190505b5090507f300000000000000000000000000000000000000000000000000000000000000081600081518110612e0b57634e487b7160e01b600052603260045260246000fd5b60200101906001600160f81b031916908160001a9053507f780000000000000000000000000000000000000000000000000000000000000081600181518110612e6457634e487b7160e01b600052603260045260246000fd5b60200101906001600160f81b031916908160001a9053506000612e88846002613bd3565b612e93906001613bbb565b90505b6001811115612f34577f303132333435363738396162636465660000000000000000000000000000000085600f1660108110612ee257634e487b7160e01b600052603260045260246000fd5b1a60f81b828281518110612f0657634e487b7160e01b600052603260045260246000fd5b60200101906001600160f81b031916908160001a90535060049490941c93612f2d81613c1e565b9050612e96565b508315612f835760405162461bcd60e51b815260206004820181905260248201527f537472696e67733a20686578206c656e67746820696e73756666696369656e746044820152606401610a64565b9392505050565b612f93816129ff565b6040516001600160a01b038216907fbc7cd75a20ee27fd9adebab32041f755214dbc6bffa90cc0225b39da2e5c2d3b90600090a250565b6060612f838383604051806060016040528060278152602001613cb360279139613189565b6001600160a01b0382166130455760405162461bcd60e51b815260206004820181905260248201527f4552433732313a206d696e7420746f20746865207a65726f20616464726573736044820152606401610a64565b6000818152606860205260409020546001600160a01b0316156130aa5760405162461bcd60e51b815260206004820152601c60248201527f4552433732313a20746f6b656e20616c7265616479206d696e746564000000006044820152606401610a64565b6130b860008383600161299d565b6000818152606860205260409020546001600160a01b03161561311d5760405162461bcd60e51b815260206004820152601c60248201527f4552433732313a20746f6b656e20616c7265616479206d696e746564000000006044820152606401610a64565b6001600160a01b038216600081815260696020908152604080832080546001019055848352606890915280822080546001600160a01b0319168417905551839291907fddf252ad1be2c89b69c2b068fc378daa952ba7f163c4a11628f55a4df523b3ef908290a4610da2565b6060600080856001600160a01b0316856040516131a6919061396e565b600060405180830381855af49150503d80600081146131e1576040519150601f19603f3d011682016040523d82523d6000602084013e6131e6565b606091505b50915091506131f786838387613201565b9695505050505050565b6060831561326d578251613266576001600160a01b0385163b6132665760405162461bcd60e51b815260206004820152601d60248201527f416464726573733a2063616c6c20746f206e6f6e2d636f6e74726163740000006044820152606401610a64565b5081612152565b61215283838151156132825781518083602001fd5b8060405162461bcd60e51b8152600401610a649190613abf565b8280546132a890613c35565b90600052602060002090601f0160209004810192826132ca5760008555613310565b82601f106132e35782800160ff19823516178555613310565b82800160010185558215613310579182015b828111156133105782358255916020019190600101906132f5565b5061331c929150613394565b5090565b82805461332c90613c35565b90600052602060002090601f01602090048101928261334e5760008555613310565b82601f1061336757805160ff1916838001178555613310565b82800160010185558215613310579182015b82811115613310578251825591602001919060010190613379565b5b8082111561331c5760008155600101613395565b80356001600160a01b038116811461091557600080fd5b600082601f8301126133d0578081fd5b813567ffffffffffffffff808211156133eb576133eb613c86565b604051601f8301601f19908116603f0116810190828211818310171561341357613413613c86565b8160405283815286602085880101111561342b578485fd5b8360208701602083013792830160200193909352509392505050565b60008083601f840112613458578182fd5b50813567ffffffffffffffff81111561346f578182fd5b60208301915083602082850101111561348757600080fd5b9250929050565b803560ff8116811461091557600080fd5b6000602082840312156134b0578081fd5b612f83826133a9565b600080604083850312156134cb578081fd5b6134d4836133a9565b91506134e2602084016133a9565b90509250929050565b6000806000606084860312156134ff578081fd5b613508846133a9565b9250613516602085016133a9565b9150613524604085016133a9565b90509250925092565b600080600060608486031215613541578283fd5b61354a846133a9565b9250613558602085016133a9565b9150604084013590509250925092565b6000806000806080858703121561357d578081fd5b613586856133a9565b9350613594602086016133a9565b925060408501359150606085013567ffffffffffffffff8111156135b6578182fd5b6135c2878288016133c0565b91505092959194509250565b600080604083850312156135e0578182fd5b6135e9836133a9565b9150602083013580151581146135fd578182fd5b809150509250929050565b6000806040838503121561361a578182fd5b613623836133a9565b9150602083013567ffffffffffffffff81111561363e578182fd5b61364a858286016133c0565b9150509250929050565b600080600060408486031215613668578283fd5b613671846133a9565b9250602084013567ffffffffffffffff81111561368c578283fd5b61369886828701613447565b9497909650939450505050565b60008060008060008060008060c0898b0312156136c0578384fd5b6136c9896133a9565b9750602089013567ffffffffffffffff808211156136e5578586fd5b6136f18c838d01613447565b909950975087915061370560408c0161348e565b965061371360608c0161348e565b955060808b0135945060a08b013591508082111561372f578384fd5b5061373c8b828c01613447565b999c989b5096995094979396929594505050565b600080600080600080600080600060e08a8c03121561376d578081fd5b6137768a6133a9565b985060208a013567ffffffffffffffff80821115613792578283fd5b61379e8d838e01613447565b909a5098508891506137b260408d0161348e565b97506137c060608d0161348e565b965060808c013595506137d560a08d0161348e565b945060c08c01359150808211156137ea578283fd5b506137f78c828d01613447565b915080935050809150509295985092959850929598565b60008060408385031215613820578182fd5b613829836133a9565b946020939093013593505050565b6000806000806060858703121561384c578182fd5b613855856133a9565b935060208501359250604085013567ffffffffffffffff811115613877578283fd5b61388387828801613447565b95989497509550505050565b600080604083850312156138a1578182fd5b6138aa836133a9565b91506134e26020840161348e565b6000602082840312156138c9578081fd5b5035919050565b6000602082840312156138e1578081fd5b5051919050565b600080604083850312156138fa578182fd5b823591506134e2602084016133a9565b60006020828403121561391b578081fd5b8135612f8381613c9c565b600060208284031215613937578081fd5b8151612f8381613c9c565b6000815180845261395a816020860160208601613bf2565b601f01601f19169290920160200192915050565b60008251613980818460208701613bf2565b9190910192915050565b6000828483379101908152919050565b60007f416363657373436f6e74726f6c3a206163636f756e7420000000000000000000825283516139d2816017850160208801613bf2565b7f206973206d697373696e6720726f6c65200000000000000000000000000000006017918401918201528351613a0f816028840160208801613bf2565b01602801949350505050565b60006001600160a01b038087168352808616602084015250836040830152608060608301526131f76080830184613942565b60006001600160a01b038316825260606020830152613a82606083016006815265484156454e3160d01b602082015260400190565b828103604093840152600681527f565443414c4c000000000000000000000000000000000000000000000000000060208201529190910192915050565b600060208252612f836020830184613942565b600060608252613af8606083016006815265484156454e3160d01b602082015260400190565b6001600160a01b03949094166020830152506040015290565b60006020825282516020830152602083015160c06040840152613b3760e0840182613942565b905060ff604085015116606084015260ff6060850151166080840152608084015160a084015260ff60a08501511660c08401528091505092915050565b600087825260c06020830152613b8d60c0830188613942565b905060ff8616604083015260ff8516606083015283608083015260ff831660a0830152979650505050505050565b60008219821115613bce57613bce613c70565b500190565b6000816000190483118215151615613bed57613bed613c70565b500290565b60005b83811015613c0d578181015183820152602001613bf5565b83811115611c415750506000910152565b600081613c2d57613c2d613c70565b506000190190565b600281046001821680613c4957607f821691505b60208210811415613c6a57634e487b7160e01b600052602260045260246000fd5b50919050565b634e487b7160e01b600052601160045260246000fd5b634e487b7160e01b600052604160045260246000fd5b6001600160e01b031981168114610f1f57600080fdfe416464726573733a206c6f772d6c6576656c2064656c65676174652063616c6c206661696c6564a2646970667358221220c7435df677383c9b5ece625bae28a22d25cfebb42a11e2918e2bc945feb3afc864736f6c63430008020033",
  "linkReferences": {},
  "deployedLinkReferences": {}
}