{
  "_format": "hh-sol-artifact-1",
  "contractName": "ProofOfIdentity",
  "sourceName": "contracts/ProofOfIdentity.sol",
  "abi": [
    {
      "anonymous": false,
      "inputs": [
        {
          "indexed": true,
          "internalType": "address",
          "name": "account",
          "type": "address"
        },
        {
          "indexed": true,
          "internalType": "uint256",
          "name": "tokenId",
          "type": "uint256"
        },
        {
          "indexed": true,
          "internalType": "string",
          "name": "reason",
          "type": "string"
        }
      ],
      "name": "AccountSuspendedTokenBurned",
      "type": "event"
    },
    {
      "anonymous": false,
      "inputs": [
        {
          "indexed": true,
          "internalType": "address",
          "name": "account",
          "type": "address"
        },
        {
          "indexed": true,
          "internalType": "string",
          "name": "reason",
          "type": "string"
        }
      ],
      "name": "AccountSuspendedTokenMaintained",
      "type": "event"
    },
    {
      "anonymous": false,
      "inputs": [
        {
          "indexed": false,
          "internalType": "address",
          "name": "previousAdmin",
          "type": "address"
        },
        {
          "indexed": false,
          "internalType": "address",
          "name": "newAdmin",
          "type": "address"
        }
      ],
      "name": "AdminChanged",
      "type": "event"
    },
    {
      "anonymous": false,
      "inputs": [
        {
          "indexed": true,
          "internalType": "address",
          "name": "owner",
          "type": "address"
        },
        {
          "indexed": true,
          "internalType": "address",
          "name": "approved",
          "type": "address"
        },
        {
          "indexed": true,
          "internalType": "uint256",
          "name": "tokenId",
          "type": "uint256"
        }
      ],
      "name": "Approval",
      "type": "event"
    },
    {
      "anonymous": false,
      "inputs": [
        {
          "indexed": true,
          "internalType": "address",
          "name": "owner",
          "type": "address"
        },
        {
          "indexed": true,
          "internalType": "address",
          "name": "operator",
          "type": "address"
        },
        {
          "indexed": false,
          "internalType": "bool",
          "name": "approved",
          "type": "bool"
        }
      ],
      "name": "ApprovalForAll",
      "type": "event"
    },
    {
      "anonymous": false,
      "inputs": [
        {
          "indexed": true,
          "internalType": "address",
          "name": "beacon",
          "type": "address"
        }
      ],
      "name": "BeaconUpgraded",
      "type": "event"
    },
    {
      "anonymous": false,
      "inputs": [
        {
          "indexed": true,
          "internalType": "address",
          "name": "account",
          "type": "address"
        },
        {
          "indexed": true,
          "internalType": "uint256",
          "name": "tokenId",
          "type": "uint256"
        }
      ],
      "name": "IdentityIssued",
      "type": "event"
    },
    {
      "anonymous": false,
      "inputs": [
        {
          "indexed": true,
          "internalType": "address",
          "name": "account",
          "type": "address"
        },
        {
          "indexed": true,
          "internalType": "uint256",
          "name": "tokenId",
          "type": "uint256"
        }
      ],
      "name": "IdentityUpdated",
      "type": "event"
    },
    {
      "anonymous": false,
      "inputs": [
        {
          "indexed": false,
          "internalType": "uint8",
          "name": "version",
          "type": "uint8"
        }
      ],
      "name": "Initialized",
      "type": "event"
    },
    {
      "anonymous": false,
      "inputs": [
        {
          "indexed": true,
          "internalType": "bytes32",
          "name": "role",
          "type": "bytes32"
        },
        {
          "indexed": true,
          "internalType": "bytes32",
          "name": "previousAdminRole",
          "type": "bytes32"
        },
        {
          "indexed": true,
          "internalType": "bytes32",
          "name": "newAdminRole",
          "type": "bytes32"
        }
      ],
      "name": "RoleAdminChanged",
      "type": "event"
    },
    {
      "anonymous": false,
      "inputs": [
        {
          "indexed": true,
          "internalType": "bytes32",
          "name": "role",
          "type": "bytes32"
        },
        {
          "indexed": true,
          "internalType": "address",
          "name": "account",
          "type": "address"
        },
        {
          "indexed": true,
          "internalType": "address",
          "name": "sender",
          "type": "address"
        }
      ],
      "name": "RoleGranted",
      "type": "event"
    },
    {
      "anonymous": false,
      "inputs": [
        {
          "indexed": true,
          "internalType": "bytes32",
          "name": "role",
          "type": "bytes32"
        },
        {
          "indexed": true,
          "internalType": "address",
          "name": "account",
          "type": "address"
        },
        {
          "indexed": true,
          "internalType": "address",
          "name": "sender",
          "type": "address"
        }
      ],
      "name": "RoleRevoked",
      "type": "event"
    },
    {
      "anonymous": false,
      "inputs": [
        {
          "indexed": true,
          "internalType": "address",
          "name": "account",
          "type": "address"
        },
        {
          "indexed": true,
          "internalType": "uint256",
          "name": "tokenId",
          "type": "uint256"
        },
        {
          "indexed": true,
          "internalType": "string",
          "name": "newURI",
          "type": "string"
        }
      ],
      "name": "TokenURIUpdated",
      "type": "event"
    },
    {
      "anonymous": false,
      "inputs": [
        {
          "indexed": true,
          "internalType": "address",
          "name": "from",
          "type": "address"
        },
        {
          "indexed": true,
          "internalType": "address",
          "name": "to",
          "type": "address"
        },
        {
          "indexed": true,
          "internalType": "uint256",
          "name": "tokenId",
          "type": "uint256"
        }
      ],
      "name": "Transfer",
      "type": "event"
    },
    {
      "anonymous": false,
      "inputs": [
        {
          "indexed": true,
          "internalType": "address",
          "name": "implementation",
          "type": "address"
        }
      ],
      "name": "Upgraded",
      "type": "event"
    },
    {
      "inputs": [],
      "name": "DEFAULT_ADMIN_ROLE",
      "outputs": [
        {
          "internalType": "bytes32",
          "name": "",
          "type": "bytes32"
        }
      ],
      "stateMutability": "view",
      "type": "function"
    },
    {
      "inputs": [],
      "name": "PROVER_ROLE",
      "outputs": [
        {
          "internalType": "bytes32",
          "name": "",
          "type": "bytes32"
        }
      ],
      "stateMutability": "view",
      "type": "function"
    },
    {
      "inputs": [],
      "name": "UPGRADER_ROLE",
      "outputs": [
        {
          "internalType": "bytes32",
          "name": "",
          "type": "bytes32"
        }
      ],
      "stateMutability": "view",
      "type": "function"
    },
    {
      "inputs": [
        {
          "internalType": "address",
          "name": "to",
          "type": "address"
        },
        {
          "internalType": "uint256",
          "name": "tokenId",
          "type": "uint256"
        }
      ],
      "name": "approve",
      "outputs": [],
      "stateMutability": "nonpayable",
      "type": "function"
    },
    {
      "inputs": [
        {
          "internalType": "address",
          "name": "owner",
          "type": "address"
        }
      ],
      "name": "balanceOf",
      "outputs": [
        {
          "internalType": "uint256",
          "name": "",
          "type": "uint256"
        }
      ],
      "stateMutability": "view",
      "type": "function"
    },
    {
      "inputs": [
        {
          "internalType": "uint256",
          "name": "tokenId",
          "type": "uint256"
        }
      ],
      "name": "getApproved",
      "outputs": [
        {
          "internalType": "address",
          "name": "",
          "type": "address"
        }
      ],
      "stateMutability": "view",
      "type": "function"
    },
    {
      "inputs": [
        {
          "internalType": "bytes32",
          "name": "role",
          "type": "bytes32"
        }
      ],
      "name": "getRoleAdmin",
      "outputs": [
        {
          "internalType": "bytes32",
          "name": "",
          "type": "bytes32"
        }
      ],
      "stateMutability": "view",
      "type": "function"
    },
    {
      "inputs": [
        {
          "internalType": "address",
          "name": "account",
          "type": "address"
        }
      ],
      "name": "getUserAccountCountryCode",
      "outputs": [
        {
          "internalType": "string",
          "name": "userAccountCountryCode",
          "type": "string"
        }
      ],
      "stateMutability": "view",
      "type": "function"
    },
    {
      "inputs": [
        {
          "internalType": "address",
          "name": "account",
          "type": "address"
        }
      ],
      "name": "getUserAccountCountryCodePreventOnExpiry",
      "outputs": [
        {
          "internalType": "string",
          "name": "userAccountCountryCode",
          "type": "string"
        }
      ],
      "stateMutability": "view",
      "type": "function"
    },
    {
      "inputs": [
        {
          "internalType": "address",
          "name": "account",
          "type": "address"
        }
      ],
      "name": "getUserAccountExpiry",
      "outputs": [
        {
          "internalType": "uint256",
          "name": "userAccountExpiry",
          "type": "uint256"
        }
      ],
      "stateMutability": "view",
      "type": "function"
    },
    {
      "inputs": [
        {
          "internalType": "address",
          "name": "account",
          "type": "address"
        }
      ],
      "name": "getUserAccountIdentityBlob",
      "outputs": [
        {
          "components": [
            {
              "internalType": "uint256",
              "name": "tokenId",
              "type": "uint256"
            },
            {
              "internalType": "string",
              "name": "countryCode",
              "type": "string"
            },
            {
              "internalType": "uint8",
              "name": "userType",
              "type": "uint8"
            },
            {
              "internalType": "uint8",
              "name": "level",
              "type": "uint8"
            },
            {
              "internalType": "uint256",
              "name": "expiry",
              "type": "uint256"
            }
          ],
          "internalType": "struct RoleVerification.IdentityBlob",
          "name": "userIdentityBlob",
          "type": "tuple"
        }
      ],
      "stateMutability": "view",
      "type": "function"
    },
    {
      "inputs": [
        {
          "internalType": "address",
          "name": "account",
          "type": "address"
        }
      ],
      "name": "getUserAccountLevel",
      "outputs": [
        {
          "internalType": "uint8",
          "name": "userAccountLevel",
          "type": "uint8"
        }
      ],
      "stateMutability": "view",
      "type": "function"
    },
    {
      "inputs": [
        {
          "internalType": "address",
          "name": "account",
          "type": "address"
        }
      ],
      "name": "getUserAccountLevelPreventOnExpiry",
      "outputs": [
        {
          "internalType": "uint8",
          "name": "",
          "type": "uint8"
        }
      ],
      "stateMutability": "view",
      "type": "function"
    },
    {
      "inputs": [
        {
          "internalType": "address",
          "name": "account",
          "type": "address"
        }
      ],
      "name": "getUserAccountType",
      "outputs": [
        {
          "internalType": "uint8",
          "name": "userAccountType",
          "type": "uint8"
        }
      ],
      "stateMutability": "view",
      "type": "function"
    },
    {
      "inputs": [
        {
          "internalType": "address",
          "name": "account",
          "type": "address"
        }
      ],
      "name": "getUserAccountTypePreventOnExpiry",
      "outputs": [
        {
          "internalType": "uint8",
          "name": "",
          "type": "uint8"
        }
      ],
      "stateMutability": "view",
      "type": "function"
    },
    {
      "inputs": [
        {
          "internalType": "bytes32",
          "name": "role",
          "type": "bytes32"
        },
        {
          "internalType": "address",
          "name": "account",
          "type": "address"
        }
      ],
      "name": "grantRole",
      "outputs": [],
      "stateMutability": "nonpayable",
      "type": "function"
    },
    {
      "inputs": [
        {
          "internalType": "bytes32",
          "name": "role",
          "type": "bytes32"
        },
        {
          "internalType": "address",
          "name": "account",
          "type": "address"
        }
      ],
      "name": "hasRole",
      "outputs": [
        {
          "internalType": "bool",
          "name": "",
          "type": "bool"
        }
      ],
      "stateMutability": "view",
      "type": "function"
    },
    {
      "inputs": [
        {
          "internalType": "address",
          "name": "",
          "type": "address"
        }
      ],
      "name": "identityBlob",
      "outputs": [
        {
          "internalType": "uint256",
          "name": "tokenId",
          "type": "uint256"
        },
        {
          "internalType": "string",
          "name": "countryCode",
          "type": "string"
        },
        {
          "internalType": "uint8",
          "name": "userType",
          "type": "uint8"
        },
        {
          "internalType": "uint8",
          "name": "level",
          "type": "uint8"
        },
        {
          "internalType": "uint256",
          "name": "expiry",
          "type": "uint256"
        }
      ],
      "stateMutability": "view",
      "type": "function"
    },
    {
      "inputs": [
        {
          "internalType": "address",
          "name": "permissionsInterface",
          "type": "address"
        },
        {
          "internalType": "address",
          "name": "networkOperator",
          "type": "address"
        },
        {
          "internalType": "address",
          "name": "prover",
          "type": "address"
        },
        {
          "internalType": "address",
          "name": "upgrader",
          "type": "address"
        }
      ],
      "name": "initialize",
      "outputs": [],
      "stateMutability": "nonpayable",
      "type": "function"
    },
    {
      "inputs": [
        {
          "internalType": "address",
          "name": "owner",
          "type": "address"
        },
        {
          "internalType": "address",
          "name": "operator",
          "type": "address"
        }
      ],
      "name": "isApprovedForAll",
      "outputs": [
        {
          "internalType": "bool",
          "name": "",
          "type": "bool"
        }
      ],
      "stateMutability": "view",
      "type": "function"
    },
    {
      "inputs": [
        {
          "internalType": "address",
          "name": "account",
          "type": "address"
        },
        {
          "internalType": "string",
          "name": "countryCode",
          "type": "string"
        },
        {
          "internalType": "uint8",
          "name": "userType",
          "type": "uint8"
        },
        {
          "internalType": "uint8",
          "name": "level",
          "type": "uint8"
        },
        {
          "internalType": "uint256",
          "name": "expiry",
          "type": "uint256"
        },
        {
          "internalType": "string",
          "name": "tokenUri",
          "type": "string"
        }
      ],
      "name": "issueIdentity",
      "outputs": [
        {
          "internalType": "uint256",
          "name": "",
          "type": "uint256"
        }
      ],
      "stateMutability": "nonpayable",
      "type": "function"
    },
    {
      "inputs": [],
      "name": "name",
      "outputs": [
        {
          "internalType": "string",
          "name": "",
          "type": "string"
        }
      ],
      "stateMutability": "view",
      "type": "function"
    },
    {
      "inputs": [
        {
          "internalType": "uint256",
          "name": "tokenId",
          "type": "uint256"
        }
      ],
      "name": "ownerOf",
      "outputs": [
        {
          "internalType": "address",
          "name": "",
          "type": "address"
        }
      ],
      "stateMutability": "view",
      "type": "function"
    },
    {
      "inputs": [],
      "name": "proxiableUUID",
      "outputs": [
        {
          "internalType": "bytes32",
          "name": "",
          "type": "bytes32"
        }
      ],
      "stateMutability": "view",
      "type": "function"
    },
    {
      "inputs": [
        {
          "internalType": "bytes32",
          "name": "role",
          "type": "bytes32"
        },
        {
          "internalType": "address",
          "name": "account",
          "type": "address"
        }
      ],
      "name": "renounceRole",
      "outputs": [],
      "stateMutability": "nonpayable",
      "type": "function"
    },
    {
      "inputs": [
        {
          "internalType": "bytes32",
          "name": "role",
          "type": "bytes32"
        },
        {
          "internalType": "address",
          "name": "account",
          "type": "address"
        }
      ],
      "name": "revokeRole",
      "outputs": [],
      "stateMutability": "nonpayable",
      "type": "function"
    },
    {
      "inputs": [
        {
          "internalType": "address",
          "name": "from",
          "type": "address"
        },
        {
          "internalType": "address",
          "name": "to",
          "type": "address"
        },
        {
          "internalType": "uint256",
          "name": "tokenId",
          "type": "uint256"
        }
      ],
      "name": "safeTransferFrom",
      "outputs": [],
      "stateMutability": "nonpayable",
      "type": "function"
    },
    {
      "inputs": [
        {
          "internalType": "address",
          "name": "from",
          "type": "address"
        },
        {
          "internalType": "address",
          "name": "to",
          "type": "address"
        },
        {
          "internalType": "uint256",
          "name": "tokenId",
          "type": "uint256"
        },
        {
          "internalType": "bytes",
          "name": "data",
          "type": "bytes"
        }
      ],
      "name": "safeTransferFrom",
      "outputs": [],
      "stateMutability": "nonpayable",
      "type": "function"
    },
    {
      "inputs": [
        {
          "internalType": "address",
          "name": "operator",
          "type": "address"
        },
        {
          "internalType": "bool",
          "name": "approved",
          "type": "bool"
        }
      ],
      "name": "setApprovalForAll",
      "outputs": [],
      "stateMutability": "nonpayable",
      "type": "function"
    },
    {
      "inputs": [
        {
          "internalType": "bytes4",
          "name": "interfaceId",
          "type": "bytes4"
        }
      ],
      "name": "supportsInterface",
      "outputs": [
        {
          "internalType": "bool",
          "name": "",
          "type": "bool"
        }
      ],
      "stateMutability": "view",
      "type": "function"
    },
    {
      "inputs": [
        {
          "internalType": "address",
          "name": "suspendAddress",
          "type": "address"
        },
        {
          "internalType": "string",
          "name": "reason",
          "type": "string"
        }
      ],
      "name": "suspendAccountMaintainTokenAndIdentityBlob",
      "outputs": [],
      "stateMutability": "nonpayable",
      "type": "function"
    },
    {
      "inputs": [],
      "name": "symbol",
      "outputs": [
        {
          "internalType": "string",
          "name": "",
          "type": "string"
        }
      ],
      "stateMutability": "view",
      "type": "function"
    },
    {
      "inputs": [
        {
          "internalType": "uint256",
          "name": "tokenId",
          "type": "uint256"
        }
      ],
      "name": "tokenURI",
      "outputs": [
        {
          "internalType": "string",
          "name": "tokenUri",
          "type": "string"
        }
      ],
      "stateMutability": "view",
      "type": "function"
    },
    {
      "inputs": [],
      "name": "totalSupply",
      "outputs": [
        {
          "internalType": "uint256",
          "name": "",
          "type": "uint256"
        }
      ],
      "stateMutability": "view",
      "type": "function"
    },
    {
      "inputs": [
        {
          "internalType": "address",
          "name": "from",
          "type": "address"
        },
        {
          "internalType": "address",
          "name": "to",
          "type": "address"
        },
        {
          "internalType": "uint256",
          "name": "tokenId",
          "type": "uint256"
        }
      ],
      "name": "transferFrom",
      "outputs": [],
      "stateMutability": "nonpayable",
      "type": "function"
    },
    {
      "inputs": [
        {
          "internalType": "address",
          "name": "account",
          "type": "address"
        },
        {
          "internalType": "string",
          "name": "countryCode",
          "type": "string"
        },
        {
          "internalType": "uint8",
          "name": "userType",
          "type": "uint8"
        },
        {
          "internalType": "uint8",
          "name": "level",
          "type": "uint8"
        },
        {
          "internalType": "uint256",
          "name": "expiry",
          "type": "uint256"
        },
        {
          "internalType": "string",
          "name": "tokenUri",
          "type": "string"
        }
      ],
      "name": "updateIdentity",
      "outputs": [],
      "stateMutability": "nonpayable",
      "type": "function"
    },
    {
      "inputs": [
        {
          "internalType": "address",
          "name": "account",
          "type": "address"
        },
        {
          "internalType": "string",
          "name": "tokenUri",
          "type": "string"
        }
      ],
      "name": "updateTokenURI",
      "outputs": [],
      "stateMutability": "nonpayable",
      "type": "function"
    },
    {
      "inputs": [
        {
          "internalType": "address",
          "name": "newImplementation",
          "type": "address"
        }
      ],
      "name": "upgradeTo",
      "outputs": [],
      "stateMutability": "nonpayable",
      "type": "function"
    },
    {
      "inputs": [
        {
          "internalType": "address",
          "name": "newImplementation",
          "type": "address"
        },
        {
          "internalType": "bytes",
          "name": "data",
          "type": "bytes"
        }
      ],
      "name": "upgradeToAndCall",
      "outputs": [],
      "stateMutability": "payable",
      "type": "function"
    }
  ],
  "bytecode": "0x60a06040523073ffffffffffffffffffffffffffffffffffffffff1660809073ffffffffffffffffffffffffffffffffffffffff1660601b81525034801561004657600080fd5b5060805160601c616a6d620000826000396000818161109e0152818161112d015281816118c3015281816119520152611a020152616a6d6000f3fe6080604052600436106102a05760003560e01c806370a082311161016e578063b88d4fde116100cb578063dfb24b891161007f578063f6a4b4d711610064578063f6a4b4d7146109d4578063f72c0d8b146109fd578063f8c8765e14610a28576102a0565b8063dfb24b891461095a578063e985e9c514610997576102a0565b8063c87b56dd116100b0578063c87b56dd146108c9578063d547741f14610906578063dc9a4ef61461092f576102a0565b8063b88d4fde14610863578063c207e9e01461088c576102a0565b806395d89b4111610122578063a217fddf11610107578063a217fddf146107d2578063a22cb465146107fd578063b467177f14610826576102a0565b806395d89b411461076a57806396257e4d14610795576102a0565b806380ea719a1161015357806380ea719a146106c757806391d14854146106f0578063949cdd6e1461072d576102a0565b806370a082311461066157806380a5a8961461069e576102a0565b80632f2ff15d1161021c5780634f1ef286116101d05780636352211e116101b55780636352211e146105a6578063688ea9fe146105e35780636ca5fde814610624576102a0565b80634f1ef2861461055f57806352d1902d1461057b576102a0565b80633659cfe6116102015780633659cfe6146104d057806340f378e5146104f957806342842e0e14610536576102a0565b80632f2ff15d1461047e57806336568abe146104a7576102a0565b8063095ea7b3116102735780631fe0094a116102585780631fe0094a146103db57806323b872dd14610418578063248a9ca314610441576102a0565b8063095ea7b31461038757806318160ddd146103b0576102a0565b806301ffc9a7146102a557806306fdde03146102e2578063081812fc1461030d57806309299ea31461034a575b600080fd5b3480156102b157600080fd5b506102cc60048036038101906102c79190615410565b610a51565b6040516102d99190615b5a565b60405180910390f35b3480156102ee57600080fd5b506102f7610a9f565b6040516103049190615bab565b60405180910390f35b34801561031957600080fd5b50610334600480360381019061032f9190615462565b610b31565b6040516103419190615ab2565b60405180910390f35b34801561035657600080fd5b50610371600480360381019061036c9190615009565b610b77565b60405161037e9190615eeb565b60405180910390f35b34801561039357600080fd5b506103ae60048036038101906103a99190615346565b610bfe565b005b3480156103bc57600080fd5b506103c5610d16565b6040516103d29190615eeb565b60405180910390f35b3480156103e757600080fd5b5061040260048036038101906103fd9190615009565b610d64565b60405161040f9190615f60565b60405180910390f35b34801561042457600080fd5b5061043f600480360381019061043a91906150d1565b610f2a565b005b34801561044d57600080fd5b5061046860048036038101906104639190615382565b610fd8565b6040516104759190615b75565b60405180910390f35b34801561048a57600080fd5b506104a560048036038101906104a091906153d4565b610ff8565b005b3480156104b357600080fd5b506104ce60048036038101906104c991906153d4565b611019565b005b3480156104dc57600080fd5b506104f760048036038101906104f29190615009565b61109c565b005b34801561050557600080fd5b50610520600480360381019061051b9190615283565b61124b565b60405161052d9190615eeb565b60405180910390f35b34801561054257600080fd5b5061055d600480360381019061055891906150d1565b611813565b005b610579600480360381019061057491906151d7565b6118c1565b005b34801561058757600080fd5b506105906119fe565b60405161059d9190615b75565b60405180910390f35b3480156105b257600080fd5b506105cd60048036038101906105c89190615462565b611ab7565b6040516105da9190615ab2565b60405180910390f35b3480156105ef57600080fd5b5061060a60048036038101906106059190615009565b611b3e565b60405161061b959493929190615f06565b60405180910390f35b34801561063057600080fd5b5061064b60048036038101906106469190615009565b611c16565b6040516106589190615ec9565b60405180910390f35b34801561066d57600080fd5b5061068860048036038101906106839190615009565b611d8a565b6040516106959190615eeb565b60405180910390f35b3480156106aa57600080fd5b506106c560048036038101906106c0919061522b565b611e42565b005b3480156106d357600080fd5b506106ee60048036038101906106e99190615283565b611fea565b005b3480156106fc57600080fd5b50610717600480360381019061071291906153d4565b61237b565b6040516107249190615b5a565b60405180910390f35b34801561073957600080fd5b50610754600480360381019061074f9190615009565b6123e6565b6040516107619190615f60565b60405180910390f35b34801561077657600080fd5b5061077f6125ac565b60405161078c9190615bab565b60405180910390f35b3480156107a157600080fd5b506107bc60048036038101906107b79190615009565b61263e565b6040516107c99190615bab565b60405180910390f35b3480156107de57600080fd5b506107e761287f565b6040516107f49190615b75565b60405180910390f35b34801561080957600080fd5b50610824600480360381019061081f919061519b565b612886565b005b34801561083257600080fd5b5061084d60048036038101906108489190615009565b61289c565b60405161085a9190615f60565b60405180910390f35b34801561086f57600080fd5b5061088a60048036038101906108859190615120565b612930565b005b34801561089857600080fd5b506108b360048036038101906108ae9190615009565b612992565b6040516108c09190615f60565b60405180910390f35b3480156108d557600080fd5b506108f060048036038101906108eb9190615462565b612a26565b6040516108fd9190615bab565b60405180910390f35b34801561091257600080fd5b5061092d600480360381019061092891906153d4565b612bd9565b005b34801561093b57600080fd5b50610944612bfa565b6040516109519190615b75565b60405180910390f35b34801561096657600080fd5b50610981600480360381019061097c9190615009565b612c1e565b60405161098e9190615bab565b60405180910390f35b3480156109a357600080fd5b506109be60048036038101906109b99190615032565b612d2d565b6040516109cb9190615b5a565b60405180910390f35b3480156109e057600080fd5b506109fb60048036038101906109f6919061522b565b612dc1565b005b348015610a0957600080fd5b50610a12613028565b604051610a1f9190615b75565b60405180910390f35b348015610a3457600080fd5b50610a4f6004803603810190610a4a919061506e565b61304c565b005b6000610a6767bb394ff96495738360c01b613422565b610a7b6751deb66d5108742160c01b613422565b610a8f6740a84345ff486f4060c01b613422565b610a9882613425565b9050919050565b606060668054610aae906161fb565b80601f0160208091040260200160405190810160405280929190818152602001828054610ada906161fb565b8015610b275780601f10610afc57610100808354040283529160200191610b27565b820191906000526020600020905b815481529060010190602001808311610b0a57829003601f168201915b5050505050905090565b6000610b3c8261349f565b606a600083815260200190815260200160002060009054906101000a900473ffffffffffffffffffffffffffffffffffffffff169050919050565b6000610b8d67bdaf4779ff83744f60c01b6134ea565b610ba167c1c9ef872120ad4c60c01b6134ea565b610bb56722a4df8a42ceaa6160c01b6134ea565b6000808373ffffffffffffffffffffffffffffffffffffffff1673ffffffffffffffffffffffffffffffffffffffff168152602001908152602001600020600301549050919050565b6000610c0982611ab7565b90508073ffffffffffffffffffffffffffffffffffffffff168373ffffffffffffffffffffffffffffffffffffffff161415610c7a576040517f08c379a0000000000000000000000000000000000000000000000000000000008152600401610c7190615ded565b60405180910390fd5b8073ffffffffffffffffffffffffffffffffffffffff16610c996134ed565b73ffffffffffffffffffffffffffffffffffffffff161480610cc85750610cc781610cc26134ed565b612d2d565b5b610d07576040517f08c379a0000000000000000000000000000000000000000000000000000000008152600401610cfe90615e0d565b60405180910390fd5b610d1183836134f5565b505050565b6000610d2c6750c948dfdb7f780c60c01b613422565b610d40674a1cce405faff74560c01b613422565b610d5467f5117f9257161bab60c01b613422565b610d5f61012e6135ae565b905090565b6000610d7a6709e2c5a8a6db9e6460c01b6135bc565b610d8e67a46d03d2c5d0aae460c01b6135bc565b610da26759e43ca1959c0a4e60c01b6135bc565b6000808373ffffffffffffffffffffffffffffffffffffffff1673ffffffffffffffffffffffffffffffffffffffff168152602001908152602001600020600301544210610e9857610dfe67c0882176d22f194460c01b6135bc565b610e126719c99830b5b4654060c01b6135bc565b610e266792805f3a7478451b60c01b6135bc565b6040518060400160405280600381526020017f31303300000000000000000000000000000000000000000000000000000000008152506040517f08c379a0000000000000000000000000000000000000000000000000000000008152600401610e8f9190615bab565b60405180910390fd5b610eac6746c027269ffad2a760c01b6135bc565b610ec067c0f7dab06875d32960c01b6135bc565b610ed467749dbadd8151278160c01b6135bc565b6000808373ffffffffffffffffffffffffffffffffffffffff1673ffffffffffffffffffffffffffffffffffffffff16815260200190815260200160002060020160009054906101000a900460ff169050919050565b610f3e6762590d6add00706060c01b613422565b610f5267082d46af2af6d0e960c01b613422565b610f666727c63058f90a821360c01b613422565b6040518060400160405280600381526020017f31303200000000000000000000000000000000000000000000000000000000008152506040517f08c379a0000000000000000000000000000000000000000000000000000000008152600401610fcf9190615bab565b60405180910390fd5b600060986000838152602001908152602001600020600101549050919050565b61100182610fd8565b61100a816135bf565b61101483836135d3565b505050565b6110216134ed565b73ffffffffffffffffffffffffffffffffffffffff168173ffffffffffffffffffffffffffffffffffffffff161461108e576040517f08c379a000000000000000000000000000000000000000000000000000000000815260040161108590615ea9565b60405180910390fd5b61109882826136b4565b5050565b7f000000000000000000000000000000000000000000000000000000000000000073ffffffffffffffffffffffffffffffffffffffff163073ffffffffffffffffffffffffffffffffffffffff16141561112b576040517f08c379a000000000000000000000000000000000000000000000000000000000815260040161112290615c6d565b60405180910390fd5b7f000000000000000000000000000000000000000000000000000000000000000073ffffffffffffffffffffffffffffffffffffffff1661116a613796565b73ffffffffffffffffffffffffffffffffffffffff16146111c0576040517f08c379a00000000000000000000000000000000000000000000000000000000081526004016111b790615ccd565b60405180910390fd5b6111c9816137ed565b61124881600067ffffffffffffffff81111561120e577f4e487b7100000000000000000000000000000000000000000000000000000000600052604160045260246000fd5b6040519080825280601f01601f1916602001820160405280156112405781602001600182028036833780820191505090505b506000613857565b50565b600061126167123ea54096abb0e060c01b613422565b7f60044782a422109ac08a415e44260ad5d3bad63d96ebe1fac0363399642ee3f261128b816135bf565b61129f67a508d1da6a8a01a560c01b613422565b6112b36733f80892f70f07c260c01b613422565b6112c767751a1e09c7b26b9760c01b613422565b6112db67f93752652b57fda160c01b613422565b6112ef6761658d08f3aed9f960c01b613422565b60006112fa8b611d8a565b146040518060400160405280600381526020017f313030000000000000000000000000000000000000000000000000000000000081525090611372576040517f08c379a00000000000000000000000000000000000000000000000000000000081526004016113699190615bab565b60405180910390fd5b5061138767ed3a0e877d7a61ba60c01b613422565b61139b673c9e84b7efa50cce60c01b613422565b6113af6782a506ecba8b3e3660c01b613422565b6113c36709758a2c9186cdc960c01b613422565b4285116040518060400160405280600381526020017f31303300000000000000000000000000000000000000000000000000000000008152509061143d576040517f08c379a00000000000000000000000000000000000000000000000000000000081526004016114349190615bab565b60405180910390fd5b5061145267eb47a0b425aa05fa60c01b613422565b61146667cea4da29c53476a760c01b613422565b61147a67fb0eb89ec11ecc9a60c01b613422565b61148561012e6139d4565b611499679bec0fbaf82459fe60c01b613422565b6114ad67b5e9978688c1f84060c01b613422565b60006114ba61012e6135ae565b90506114d067c972f5a40165ec3e60c01b613422565b6040518060a001604052808281526020018b8b8080601f016020809104026020016040519081016040528093929190818152602001838380828437600081840152601f19601f8201169050808301925050505050505081526020018960ff1681526020018860ff168152602001878152506000808d73ffffffffffffffffffffffffffffffffffffffff1673ffffffffffffffffffffffffffffffffffffffff1681526020019081526020016000206000820151816000015560208201518160010190805190602001906115a5929190614d51565b5060408201518160020160006101000a81548160ff021916908360ff16021790555060608201518160020160016101000a81548160ff021916908360ff1602179055506080820151816003015590505061160967fc195f73a047bb4e60c01b613422565b61161d67e3169663323ecdc660c01b613422565b6116278b826139ea565b61163b67093fce267e58b39060c01b613422565b84846101316000848152602001908152602001600020919061165e929190614dd7565b50611673674b069043e127c18560c01b613422565b8061013060008d73ffffffffffffffffffffffffffffffffffffffff1673ffffffffffffffffffffffffffffffffffffffff168152602001908152602001600020819055506116cc67243f9099585693e060c01b613422565b6116e0677da896f8bf1cc3cf60c01b613422565b61012f60009054906101000a900473ffffffffffffffffffffffffffffffffffffffff1673ffffffffffffffffffffffffffffffffffffffff16632f7f0a128c6040518263ffffffff1660e01b815260040161173c9190615b19565b600060405180830381600087803b15801561175657600080fd5b505af115801561176a573d6000803e3d6000fd5b5050505061178267cccd7a33d4b9fa1060c01b613422565b61179667d40c81e56e7696d860c01b613422565b808b73ffffffffffffffffffffffffffffffffffffffff167fae1b84af5e96bd9fa84e791c6b59125d1c17f73ef00e5a9d1fd8c0cc41e0489660405160405180910390a36117ee67dc6f840eb155df4c60c01b613422565b61180267d146a42f7b963b6c60c01b613422565b809250505098975050505050505050565b6118276754ffdbd468219e9660c01b613422565b61183b677647c4bc02b8e54e60c01b613422565b61184f67ae1d078a9d37a4b260c01b613422565b6040518060400160405280600381526020017f31303200000000000000000000000000000000000000000000000000000000008152506040517f08c379a00000000000000000000000000000000000000000000000000000000081526004016118b89190615bab565b60405180910390fd5b7f000000000000000000000000000000000000000000000000000000000000000073ffffffffffffffffffffffffffffffffffffffff163073ffffffffffffffffffffffffffffffffffffffff161415611950576040517f08c379a000000000000000000000000000000000000000000000000000000000815260040161194790615c6d565b60405180910390fd5b7f000000000000000000000000000000000000000000000000000000000000000073ffffffffffffffffffffffffffffffffffffffff1661198f613796565b73ffffffffffffffffffffffffffffffffffffffff16146119e5576040517f08c379a00000000000000000000000000000000000000000000000000000000081526004016119dc90615ccd565b60405180910390fd5b6119ee826137ed565b6119fa82826001613857565b5050565b60007f000000000000000000000000000000000000000000000000000000000000000073ffffffffffffffffffffffffffffffffffffffff163073ffffffffffffffffffffffffffffffffffffffff1614611a8e576040517f08c379a0000000000000000000000000000000000000000000000000000000008152600401611a8590615ced565b60405180910390fd5b7f360894a13ba1a3210667c828492db98dca3e2076cc3735a920a3ca505d382bbc60001b905090565b600080611ac383613a08565b9050600073ffffffffffffffffffffffffffffffffffffffff168173ffffffffffffffffffffffffffffffffffffffff161415611b35576040517f08c379a0000000000000000000000000000000000000000000000000000000008152600401611b2c90615dcd565b60405180910390fd5b80915050919050565b6000602052806000526040600020600091509050806000015490806001018054611b67906161fb565b80601f0160208091040260200160405190810160405280929190818152602001828054611b93906161fb565b8015611be05780601f10611bb557610100808354040283529160200191611be0565b820191906000526020600020905b815481529060010190602001808311611bc357829003601f168201915b5050505050908060020160009054906101000a900460ff16908060020160019054906101000a900460ff16908060030154905085565b611c1e614e5d565b611c326794447c4bb948903360c01b6134ea565b611c466702cf5f66176fa53960c01b6134ea565b611c5a67b12611fe05def76260c01b6134ea565b6000808373ffffffffffffffffffffffffffffffffffffffff1673ffffffffffffffffffffffffffffffffffffffff1681526020019081526020016000206040518060a001604052908160008201548152602001600182018054611cbd906161fb565b80601f0160208091040260200160405190810160405280929190818152602001828054611ce9906161fb565b8015611d365780601f10611d0b57610100808354040283529160200191611d36565b820191906000526020600020905b815481529060010190602001808311611d1957829003601f168201915b505050505081526020016002820160009054906101000a900460ff1660ff1660ff1681526020016002820160019054906101000a900460ff1660ff1660ff1681526020016003820154815250509050919050565b60008073ffffffffffffffffffffffffffffffffffffffff168273ffffffffffffffffffffffffffffffffffffffff161415611dfb576040517f08c379a0000000000000000000000000000000000000000000000000000000008152600401611df290615d0d565b60405180910390fd5b606960008373ffffffffffffffffffffffffffffffffffffffff1673ffffffffffffffffffffffffffffffffffffffff168152602001908152602001600020549050919050565b611e5667cba09b2fb45ba3bc60c01b613422565b7f60044782a422109ac08a415e44260ad5d3bad63d96ebe1fac0363399642ee3f2611e80816135bf565b611e9467dc9ca0111ffb3dfe60c01b613422565b611ea867332cd9e58174c79b60c01b613422565b611ebc67f51dc90604f812b460c01b613422565b611ed067c5acc4d33c6c9be560c01b613422565b61012f60009054906101000a900473ffffffffffffffffffffffffffffffffffffffff1673ffffffffffffffffffffffffffffffffffffffff166384b7a84a8560016040518363ffffffff1660e01b8152600401611f2f929190615e2d565b600060405180830381600087803b158015611f4957600080fd5b505af1158015611f5d573d6000803e3d6000fd5b50505050611f75676a18f9ca1823016a60c01b613422565b611f896789e3dfc1996b87a160c01b613422565b8282604051611f99929190615a5f565b60405180910390208473ffffffffffffffffffffffffffffffffffffffff167f3347b0049117ab94fddf6cff81cc554c4f7489acedc7c33907a96655770e58ae60405160405180910390a350505050565b611ffe679ef062d5ad03d3b960c01b613422565b7f60044782a422109ac08a415e44260ad5d3bad63d96ebe1fac0363399642ee3f2612028816135bf565b61203c672176ee74f0670b1560c01b613422565b61205067cfbdbd14ea70c18960c01b613422565b612064670e894815cb1587f660c01b613422565b61207867a1427b684ba1107960c01b613422565b61208c6720bdcac9aa05193660c01b613422565b60016120978a611d8a565b146040518060400160405280600381526020017f31303100000000000000000000000000000000000000000000000000000000008152509061210f576040517f08c379a00000000000000000000000000000000000000000000000000000000081526004016121069190615bab565b60405180910390fd5b5061212467ce81be1dc86cf1b960c01b613422565b6121386758e6026e0c90f46d60c01b613422565b61214c6737c927149839212660c01b613422565b60008060008b73ffffffffffffffffffffffffffffffffffffffff1673ffffffffffffffffffffffffffffffffffffffff1681526020019081526020016000206000015490506121a667b7b2e8036abaf9fa60c01b613422565b6040518060a001604052808281526020018a8a8080601f016020809104026020016040519081016040528093929190818152602001838380828437600081840152601f19601f8201169050808301925050505050505081526020018860ff1681526020018760ff168152602001868152506000808c73ffffffffffffffffffffffffffffffffffffffff1673ffffffffffffffffffffffffffffffffffffffff16815260200190815260200160002060008201518160000155602082015181600101908051906020019061227b929190614d51565b5060408201518160020160006101000a81548160ff021916908360ff16021790555060608201518160020160016101000a81548160ff021916908360ff160217905550608082015181600301559050506122df67d884d7a2e493b52d60c01b613422565b838361013160008481526020019081526020016000209190612302929190614dd7565b506123176714ae4ff4824cc3cb60c01b613422565b61232b6741e97fe671d34fa960c01b613422565b808a73ffffffffffffffffffffffffffffffffffffffff167f4a1e31466f875c6fcafefabf90bce8accdf53108c4a309106058ef7aefebd5ce60405160405180910390a350505050505050505050565b60006098600084815260200190815260200160002060000160008373ffffffffffffffffffffffffffffffffffffffff1673ffffffffffffffffffffffffffffffffffffffff16815260200190815260200160002060009054906101000a900460ff16905092915050565b60006123fc679881f450aa1ce9eb60c01b6135bc565b61241067312e0ffaf24bb87460c01b6135bc565b61242467c78863f958234bc560c01b6135bc565b6000808373ffffffffffffffffffffffffffffffffffffffff1673ffffffffffffffffffffffffffffffffffffffff16815260200190815260200160002060030154421061251a5761248067c5c511546c50c45160c01b6135bc565b6124946706dae439f14a554160c01b6135bc565b6124a867d9a43cd54b2554f860c01b6135bc565b6040518060400160405280600381526020017f31303300000000000000000000000000000000000000000000000000000000008152506040517f08c379a00000000000000000000000000000000000000000000000000000000081526004016125119190615bab565b60405180910390fd5b61252e67b80c4d30135ffecc60c01b6135bc565b61254267e7400f8588b3b9fd60c01b6135bc565b61255667218e4aadc28bad5460c01b6135bc565b6000808373ffffffffffffffffffffffffffffffffffffffff1673ffffffffffffffffffffffffffffffffffffffff16815260200190815260200160002060020160019054906101000a900460ff169050919050565b6060606780546125bb906161fb565b80601f01602080910402602001604051908101604052809291908181526020018280546125e7906161fb565b80156126345780601f1061260957610100808354040283529160200191612634565b820191906000526020600020905b81548152906001019060200180831161261757829003601f168201915b5050505050905090565b60606126546770d4d7382d2a981660c01b6135bc565b61266867c5c834afaae4a7d160c01b6135bc565b61267c67282dd2059d86991c60c01b6135bc565b6000808373ffffffffffffffffffffffffffffffffffffffff1673ffffffffffffffffffffffffffffffffffffffff168152602001908152602001600020600301544210612772576126d867bc73e24e23818fec60c01b6135bc565b6126ec673afbff51046f6dc960c01b6135bc565b61270067dc0c995e8c89436c60c01b6135bc565b6040518060400160405280600381526020017f31303300000000000000000000000000000000000000000000000000000000008152506040517f08c379a00000000000000000000000000000000000000000000000000000000081526004016127699190615bab565b60405180910390fd5b61278667c8c8ce89cab65bb260c01b6135bc565b61279a678a8a08e8027046c760c01b6135bc565b6127ae6791c41a347ba64e9660c01b6135bc565b6000808373ffffffffffffffffffffffffffffffffffffffff1673ffffffffffffffffffffffffffffffffffffffff16815260200190815260200160002060010180546127fa906161fb565b80601f0160208091040260200160405190810160405280929190818152602001828054612826906161fb565b80156128735780601f1061284857610100808354040283529160200191612873565b820191906000526020600020905b81548152906001019060200180831161285657829003601f168201915b50505050509050919050565b6000801b81565b6128986128916134ed565b8383613a45565b5050565b60006128b267b501f3a83b16752260c01b613bb2565b6128c6673a22c2818bb20d1a60c01b613bb2565b6128da67fbb2d96654b535de60c01b613bb2565b6000808373ffffffffffffffffffffffffffffffffffffffff1673ffffffffffffffffffffffffffffffffffffffff16815260200190815260200160002060020160009054906101000a900460ff169050919050565b61294161293b6134ed565b83613bb5565b612980576040517f08c379a000000000000000000000000000000000000000000000000000000000815260040161297790615bed565b60405180910390fd5b61298c84848484613c4a565b50505050565b60006129a8679561272df2bf34be60c01b613bb2565b6129bc6732c39d4afc3889c160c01b613bb2565b6129d067dae6db8ba31c013c60c01b613bb2565b6000808373ffffffffffffffffffffffffffffffffffffffff1673ffffffffffffffffffffffffffffffffffffffff16815260200190815260200160002060020160019054906101000a900460ff169050919050565b6060612a3c67aa04d3478398cf6f60c01b613422565b612a506724081be78105f81f60c01b613422565b612a6467d676a7130c06d07e60c01b613422565b612a7867d9fa80327e35d49360c01b613422565b612a8182613ca6565b6040518060400160405280600381526020017f313031000000000000000000000000000000000000000000000000000000000081525090612af8576040517f08c379a0000000000000000000000000000000000000000000000000000000008152600401612aef9190615bab565b60405180910390fd5b50612b0d677d940d36bbca069960c01b613422565b612b21671db7405e319f6de060c01b613422565b612b356783497ce10971c48260c01b613422565b61013160008381526020019081526020016000208054612b54906161fb565b80601f0160208091040260200160405190810160405280929190818152602001828054612b80906161fb565b8015612bcd5780601f10612ba257610100808354040283529160200191612bcd565b820191906000526020600020905b815481529060010190602001808311612bb057829003601f168201915b50505050509050919050565b612be282610fd8565b612beb816135bf565b612bf583836136b4565b505050565b7f60044782a422109ac08a415e44260ad5d3bad63d96ebe1fac0363399642ee3f281565b6060612c3467724c0f716158057260c01b613bb2565b612c4867c0754c09f9d3a69e60c01b613bb2565b612c5c67d1e3fdb2292aa24960c01b613bb2565b6000808373ffffffffffffffffffffffffffffffffffffffff1673ffffffffffffffffffffffffffffffffffffffff1681526020019081526020016000206001018054612ca8906161fb565b80601f0160208091040260200160405190810160405280929190818152602001828054612cd4906161fb565b8015612d215780601f10612cf657610100808354040283529160200191612d21565b820191906000526020600020905b815481529060010190602001808311612d0457829003601f168201915b50505050509050919050565b6000606b60008473ffffffffffffffffffffffffffffffffffffffff1673ffffffffffffffffffffffffffffffffffffffff16815260200190815260200160002060008373ffffffffffffffffffffffffffffffffffffffff1673ffffffffffffffffffffffffffffffffffffffff16815260200190815260200160002060009054906101000a900460ff16905092915050565b612dd567d6445ca9075e48fe60c01b613422565b7f60044782a422109ac08a415e44260ad5d3bad63d96ebe1fac0363399642ee3f2612dff816135bf565b612e1367e20045f6f91b22f160c01b613422565b612e276771f2625500517a1960c01b613422565b612e3b67ba0150cf54235b5b60c01b613422565b612e4f674ba6cb7dd2ddecb460c01b613422565b600061013060008673ffffffffffffffffffffffffffffffffffffffff1673ffffffffffffffffffffffffffffffffffffffff168152602001908152602001600020549050612ea8676b4efcc6cca0c3fd60c01b613422565b612ebc67845d0b140a93c12560c01b613422565b612ed06773ee7804a611c94760c01b613422565b612ed981613ca6565b6040518060400160405280600381526020017f313031000000000000000000000000000000000000000000000000000000000081525090612f50576040517f08c379a0000000000000000000000000000000000000000000000000000000008152600401612f479190615bab565b60405180910390fd5b50612f65674261c4441178f68f60c01b613422565b612f7967147b0824d5c52d1e60c01b613422565b838361013160008481526020019081526020016000209190612f9c929190614dd7565b50612fb167ac09fd51df6bbb5460c01b613422565b612fc5679dac79938abcf8d060c01b613422565b8383604051612fd5929190615a5f565b6040518091039020818673ffffffffffffffffffffffffffffffffffffffff167fe3a3e1a0be0d562dd7ec739509d30dfbca7cd174fbc576a45746fe1f3b277c2660405160405180910390a45050505050565b7f189ab7a9244df0848122154315af71fe140f3db0fe014031783b0946b8c9d2e381565b61306067eb4bc5ee20f541b760c01b613422565b600060018054906101000a900460ff16159050808015613091575060018060009054906101000a900460ff1660ff16105b806130bf57506130a030613ce7565b1580156130be575060018060009054906101000a900460ff1660ff16145b5b6130fe576040517f08c379a00000000000000000000000000000000000000000000000000000000081526004016130f590615d4d565b60405180910390fd5b60018060006101000a81548160ff021916908360ff160217905550801561313a5760018060016101000a81548160ff0219169083151502179055505b61314e671d82a59355634de760c01b613422565b613162672e1ac8ffce13240d60c01b613422565b61317667b2c99be2320a46f060c01b613422565b61318a67db5e81f582bcaad060c01b613422565b613192613d0a565b6131a6675531b2f2cdb00fd460c01b613422565b6131ba67c35260d3ca1195ec60c01b613422565b61322e6040518060400160405280601181526020017f50726f6f66206f66204964656e746974790000000000000000000000000000008152506040518060400160405280600581526020017f48312d4944000000000000000000000000000000000000000000000000000000815250613d59565b6132426726aa13abf7403bea60c01b613422565b613256674c082c8f4167302160c01b613422565b61325e613db4565b613272676e38d6c81f9cab4560c01b613422565b8461012f60006101000a81548173ffffffffffffffffffffffffffffffffffffffff021916908373ffffffffffffffffffffffffffffffffffffffff1602179055506132c867508b6bb5de8f3fbc60c01b613422565b6132dc67e9a8f8fb83dc431760c01b613422565b6132e96000801b336136b4565b6132fd6767eb0c282638a7f860c01b613422565b61331167be8f3cc64b37fc8660c01b613422565b61331e6000801b856135d3565b61333267f395fc16c3fbe06660c01b613422565b613346679bbbaef6a682f66360c01b613422565b6133707f60044782a422109ac08a415e44260ad5d3bad63d96ebe1fac0363399642ee3f2846135d3565b61338467ee7e50a6420af52a60c01b613422565b613398670d909d8ca32fd99460c01b613422565b6133c27f189ab7a9244df0848122154315af71fe140f3db0fe014031783b0946b8c9d2e3836135d3565b801561341b5760006001806101000a81548160ff0219169083151502179055507f7f26b83ff96e1f2b6a682f133852f6798a09c465da95921460cefb384740249860016040516134129190615b90565b60405180910390a15b5050505050565b50565b60007f7965db0b000000000000000000000000000000000000000000000000000000007bffffffffffffffffffffffffffffffffffffffffffffffffffffffff1916827bffffffffffffffffffffffffffffffffffffffffffffffffffffffff19161480613498575061349782613e03565b5b9050919050565b6134a881613ca6565b6134e7576040517f08c379a00000000000000000000000000000000000000000000000000000000081526004016134de90615dcd565b60405180910390fd5b50565b50565b600033905090565b81606a600083815260200190815260200160002060006101000a81548173ffffffffffffffffffffffffffffffffffffffff021916908373ffffffffffffffffffffffffffffffffffffffff160217905550808273ffffffffffffffffffffffffffffffffffffffff1661356883611ab7565b73ffffffffffffffffffffffffffffffffffffffff167f8c5be1e5ebec7d5bd14f71427d1e84f3dd0314c0f7b2291e5b200ac8c7c3b92560405160405180910390a45050565b600081600001549050919050565b50565b6135d0816135cb6134ed565b613ee5565b50565b6135dd828261237b565b6136b05760016098600084815260200190815260200160002060000160008373ffffffffffffffffffffffffffffffffffffffff1673ffffffffffffffffffffffffffffffffffffffff16815260200190815260200160002060006101000a81548160ff0219169083151502179055506136556134ed565b73ffffffffffffffffffffffffffffffffffffffff168173ffffffffffffffffffffffffffffffffffffffff16837f2f8788117e7eff1d82e926ec794901d17c78024a50270940304540a733656f0d60405160405180910390a45b5050565b6136be828261237b565b156137925760006098600084815260200190815260200160002060000160008373ffffffffffffffffffffffffffffffffffffffff1673ffffffffffffffffffffffffffffffffffffffff16815260200190815260200160002060006101000a81548160ff0219169083151502179055506137376134ed565b73ffffffffffffffffffffffffffffffffffffffff168173ffffffffffffffffffffffffffffffffffffffff16837ff6391f5c32d9c69d2a47ea670b442974b53935d1edc7fd64eb21e047a839171b60405160405180910390a45b5050565b60006137c47f360894a13ba1a3210667c828492db98dca3e2076cc3735a920a3ca505d382bbc60001b613f6a565b60000160009054906101000a900473ffffffffffffffffffffffffffffffffffffffff16905090565b613801678006009d109f5f2660c01b613422565b7f189ab7a9244df0848122154315af71fe140f3db0fe014031783b0946b8c9d2e361382b816135bf565b61383f676bf8859aabcb4ac160c01b613422565b613853677ab62c3941758f0660c01b613422565b5050565b6138837f4910fdfa16fed3260ed0e7147f7cc6da11a60208b5b9406d12a635614ffd914360001b613f74565b60000160009054906101000a900460ff16156138a7576138a283613f7e565b6139cf565b8273ffffffffffffffffffffffffffffffffffffffff166352d1902d6040518163ffffffff1660e01b815260040160206040518083038186803b1580156138ed57600080fd5b505afa92505050801561391e57506040513d601f19601f8201168201806040525081019061391b91906153ab565b60015b61395d576040517f08c379a000000000000000000000000000000000000000000000000000000000815260040161395490615d8d565b60405180910390fd5b7f360894a13ba1a3210667c828492db98dca3e2076cc3735a920a3ca505d382bbc60001b81146139c2576040517f08c379a00000000000000000000000000000000000000000000000000000000081526004016139b990615d2d565b60405180910390fd5b506139ce838383614037565b5b505050565b6001816000016000828254019250508190555050565b613a04828260405180602001604052806000815250614063565b5050565b60006068600083815260200190815260200160002060009054906101000a900473ffffffffffffffffffffffffffffffffffffffff169050919050565b8173ffffffffffffffffffffffffffffffffffffffff168373ffffffffffffffffffffffffffffffffffffffff161415613ab4576040517f08c379a0000000000000000000000000000000000000000000000000000000008152600401613aab90615cad565b60405180910390fd5b80606b60008573ffffffffffffffffffffffffffffffffffffffff1673ffffffffffffffffffffffffffffffffffffffff16815260200190815260200160002060008473ffffffffffffffffffffffffffffffffffffffff1673ffffffffffffffffffffffffffffffffffffffff16815260200190815260200160002060006101000a81548160ff0219169083151502179055508173ffffffffffffffffffffffffffffffffffffffff168373ffffffffffffffffffffffffffffffffffffffff167f17307eab39ab6107e8899845ad3d59bd9653f200f220920489ca2b5937696c3183604051613ba59190615b5a565b60405180910390a3505050565b50565b600080613bc183611ab7565b90508073ffffffffffffffffffffffffffffffffffffffff168473ffffffffffffffffffffffffffffffffffffffff161480613c035750613c028185612d2d565b5b80613c4157508373ffffffffffffffffffffffffffffffffffffffff16613c2984610b31565b73ffffffffffffffffffffffffffffffffffffffff16145b91505092915050565b613c558484846140be565b613c61848484846143b8565b613ca0576040517f08c379a0000000000000000000000000000000000000000000000000000000008152600401613c9790615c0d565b60405180910390fd5b50505050565b60008073ffffffffffffffffffffffffffffffffffffffff16613cc883613a08565b73ffffffffffffffffffffffffffffffffffffffff1614159050919050565b6000808273ffffffffffffffffffffffffffffffffffffffff163b119050919050565b60018054906101000a900460ff16613d57576040517f08c379a0000000000000000000000000000000000000000000000000000000008152600401613d4e90615e89565b60405180910390fd5b565b60018054906101000a900460ff16613da6576040517f08c379a0000000000000000000000000000000000000000000000000000000008152600401613d9d90615e89565b60405180910390fd5b613db0828261454f565b5050565b60018054906101000a900460ff16613e01576040517f08c379a0000000000000000000000000000000000000000000000000000000008152600401613df890615e89565b60405180910390fd5b565b60007f80ac58cd000000000000000000000000000000000000000000000000000000007bffffffffffffffffffffffffffffffffffffffffffffffffffffffff1916827bffffffffffffffffffffffffffffffffffffffffffffffffffffffff19161480613ece57507f5b5e139f000000000000000000000000000000000000000000000000000000007bffffffffffffffffffffffffffffffffffffffffffffffffffffffff1916827bffffffffffffffffffffffffffffffffffffffffffffffffffffffff1916145b80613ede5750613edd826145ce565b5b9050919050565b613eef828261237b565b613f6657613efc81614638565b613f0a8360001c6020614665565b604051602001613f1b929190615a78565b6040516020818303038152906040526040517f08c379a0000000000000000000000000000000000000000000000000000000008152600401613f5d9190615bab565b60405180910390fd5b5050565b6000819050919050565b6000819050919050565b613f8781613ce7565b613fc6576040517f08c379a0000000000000000000000000000000000000000000000000000000008152600401613fbd90615dad565b60405180910390fd5b80613ff37f360894a13ba1a3210667c828492db98dca3e2076cc3735a920a3ca505d382bbc60001b613f6a565b60000160006101000a81548173ffffffffffffffffffffffffffffffffffffffff021916908373ffffffffffffffffffffffffffffffffffffffff16021790555050565b6140408361495f565b60008251118061404d5750805b1561405e5761405c83836149ae565b505b505050565b61406d83836149db565b61407a60008484846143b8565b6140b9576040517f08c379a00000000000000000000000000000000000000000000000000000000081526004016140b090615c0d565b60405180910390fd5b505050565b8273ffffffffffffffffffffffffffffffffffffffff166140de82611ab7565b73ffffffffffffffffffffffffffffffffffffffff1614614134576040517f08c379a000000000000000000000000000000000000000000000000000000000815260040161412b90615c2d565b60405180910390fd5b600073ffffffffffffffffffffffffffffffffffffffff168273ffffffffffffffffffffffffffffffffffffffff1614156141a4576040517f08c379a000000000000000000000000000000000000000000000000000000000815260040161419b90615c8d565b60405180910390fd5b6141b18383836001614bf9565b8273ffffffffffffffffffffffffffffffffffffffff166141d182611ab7565b73ffffffffffffffffffffffffffffffffffffffff1614614227576040517f08c379a000000000000000000000000000000000000000000000000000000000815260040161421e90615c2d565b60405180910390fd5b606a600082815260200190815260200160002060006101000a81549073ffffffffffffffffffffffffffffffffffffffff02191690556001606960008573ffffffffffffffffffffffffffffffffffffffff1673ffffffffffffffffffffffffffffffffffffffff168152602001908152602001600020600082825403925050819055506001606960008473ffffffffffffffffffffffffffffffffffffffff1673ffffffffffffffffffffffffffffffffffffffff16815260200190815260200160002060008282540192505081905550816068600083815260200190815260200160002060006101000a81548173ffffffffffffffffffffffffffffffffffffffff021916908373ffffffffffffffffffffffffffffffffffffffff160217905550808273ffffffffffffffffffffffffffffffffffffffff168473ffffffffffffffffffffffffffffffffffffffff167fddf252ad1be2c89b69c2b068fc378daa952ba7f163c4a11628f55a4df523b3ef60405160405180910390a46143b38383836001614bff565b505050565b60006143d98473ffffffffffffffffffffffffffffffffffffffff16613ce7565b15614542578373ffffffffffffffffffffffffffffffffffffffff1663150b7a026144026134ed565b8786866040518563ffffffff1660e01b81526004016144249493929190615acd565b602060405180830381600087803b15801561443e57600080fd5b505af192505050801561446f57506040513d601f19601f8201168201806040525081019061446c9190615439565b60015b6144f2573d806000811461449f576040519150601f19603f3d011682016040523d82523d6000602084013e6144a4565b606091505b506000815114156144ea576040517f08c379a00000000000000000000000000000000000000000000000000000000081526004016144e190615c0d565b60405180910390fd5b805181602001fd5b63150b7a0260e01b7bffffffffffffffffffffffffffffffffffffffffffffffffffffffff1916817bffffffffffffffffffffffffffffffffffffffffffffffffffffffff191614915050614547565b600190505b949350505050565b60018054906101000a900460ff1661459c576040517f08c379a000000000000000000000000000000000000000000000000000000000815260040161459390615e89565b60405180910390fd5b81606690805190602001906145b2929190614d51565b5080606790805190602001906145c9929190614d51565b505050565b60007f01ffc9a7000000000000000000000000000000000000000000000000000000007bffffffffffffffffffffffffffffffffffffffffffffffffffffffff1916827bffffffffffffffffffffffffffffffffffffffffffffffffffffffff1916149050919050565b606061465e8273ffffffffffffffffffffffffffffffffffffffff16601460ff16614665565b9050919050565b6060600060028360026146789190616086565b6146829190616030565b67ffffffffffffffff8111156146c1577f4e487b7100000000000000000000000000000000000000000000000000000000600052604160045260246000fd5b6040519080825280601f01601f1916602001820160405280156146f35781602001600182028036833780820191505090505b5090507f300000000000000000000000000000000000000000000000000000000000000081600081518110614751577f4e487b7100000000000000000000000000000000000000000000000000000000600052603260045260246000fd5b60200101907effffffffffffffffffffffffffffffffffffffffffffffffffffffffffffff1916908160001a9053507f7800000000000000000000000000000000000000000000000000000000000000816001815181106147db577f4e487b7100000000000000000000000000000000000000000000000000000000600052603260045260246000fd5b60200101907effffffffffffffffffffffffffffffffffffffffffffffffffffffffffffff1916908160001a9053506000600184600261481b9190616086565b6148259190616030565b90505b6001811115614911577f3031323334353637383961626364656600000000000000000000000000000000600f86166010811061488d577f4e487b7100000000000000000000000000000000000000000000000000000000600052603260045260246000fd5b1a60f81b8282815181106148ca577f4e487b7100000000000000000000000000000000000000000000000000000000600052603260045260246000fd5b60200101907effffffffffffffffffffffffffffffffffffffffffffffffffffffffffffff1916908160001a905350600485901c94508061490a906161d1565b9050614828565b5060008414614955576040517f08c379a000000000000000000000000000000000000000000000000000000000815260040161494c90615bcd565b60405180910390fd5b8091505092915050565b61496881613f7e565b8073ffffffffffffffffffffffffffffffffffffffff167fbc7cd75a20ee27fd9adebab32041f755214dbc6bffa90cc0225b39da2e5c2d3b60405160405180910390a250565b60606149d38383604051806060016040528060278152602001616a1160279139614c05565b905092915050565b600073ffffffffffffffffffffffffffffffffffffffff168273ffffffffffffffffffffffffffffffffffffffff161415614a4b576040517f08c379a0000000000000000000000000000000000000000000000000000000008152600401614a4290615d6d565b60405180910390fd5b614a5481613ca6565b15614a94576040517f08c379a0000000000000000000000000000000000000000000000000000000008152600401614a8b90615c4d565b60405180910390fd5b614aa2600083836001614bf9565b614aab81613ca6565b15614aeb576040517f08c379a0000000000000000000000000000000000000000000000000000000008152600401614ae290615c4d565b60405180910390fd5b6001606960008473ffffffffffffffffffffffffffffffffffffffff1673ffffffffffffffffffffffffffffffffffffffff16815260200190815260200160002060008282540192505081905550816068600083815260200190815260200160002060006101000a81548173ffffffffffffffffffffffffffffffffffffffff021916908373ffffffffffffffffffffffffffffffffffffffff160217905550808273ffffffffffffffffffffffffffffffffffffffff16600073ffffffffffffffffffffffffffffffffffffffff167fddf252ad1be2c89b69c2b068fc378daa952ba7f163c4a11628f55a4df523b3ef60405160405180910390a4614bf5600083836001614bff565b5050565b50505050565b50505050565b60606000808573ffffffffffffffffffffffffffffffffffffffff1685604051614c2f9190615a48565b600060405180830381855af49150503d8060008114614c6a576040519150601f19603f3d011682016040523d82523d6000602084013e614c6f565b606091505b5091509150614c8086838387614c8b565b925050509392505050565b60608315614cee57600083511415614ce657614ca685613ce7565b614ce5576040517f08c379a0000000000000000000000000000000000000000000000000000000008152600401614cdc90615e69565b60405180910390fd5b5b829050614cf9565b614cf88383614d01565b5b949350505050565b600082511115614d145781518083602001fd5b806040517f08c379a0000000000000000000000000000000000000000000000000000000008152600401614d489190615bab565b60405180910390fd5b828054614d5d906161fb565b90600052602060002090601f016020900481019282614d7f5760008555614dc6565b82601f10614d9857805160ff1916838001178555614dc6565b82800160010185558215614dc6579182015b82811115614dc5578251825591602001919060010190614daa565b5b509050614dd39190614e92565b5090565b828054614de3906161fb565b90600052602060002090601f016020900481019282614e055760008555614e4c565b82601f10614e1e57803560ff1916838001178555614e4c565b82800160010185558215614e4c579182015b82811115614e4b578235825591602001919060010190614e30565b5b509050614e599190614e92565b5090565b6040518060a001604052806000815260200160608152602001600060ff168152602001600060ff168152602001600081525090565b5b80821115614eab576000816000905550600101614e93565b5090565b6000614ec2614ebd84615fa0565b615f7b565b905082815260208101848484011115614eda57600080fd5b614ee584828561618f565b509392505050565b600081359050614efc81616986565b92915050565b600081359050614f118161699d565b92915050565b600081359050614f26816169b4565b92915050565b600081519050614f3b816169b4565b92915050565b600081359050614f50816169cb565b92915050565b600081519050614f65816169cb565b92915050565b600082601f830112614f7c57600080fd5b8135614f8c848260208601614eaf565b91505092915050565b60008083601f840112614fa757600080fd5b8235905067ffffffffffffffff811115614fc057600080fd5b602083019150836001820283011115614fd857600080fd5b9250929050565b600081359050614fee816169e2565b92915050565b600081359050615003816169f9565b92915050565b60006020828403121561501b57600080fd5b600061502984828501614eed565b91505092915050565b6000806040838503121561504557600080fd5b600061505385828601614eed565b925050602061506485828601614eed565b9150509250929050565b6000806000806080858703121561508457600080fd5b600061509287828801614eed565b94505060206150a387828801614eed565b93505060406150b487828801614eed565b92505060606150c587828801614eed565b91505092959194509250565b6000806000606084860312156150e657600080fd5b60006150f486828701614eed565b935050602061510586828701614eed565b925050604061511686828701614fdf565b9150509250925092565b6000806000806080858703121561513657600080fd5b600061514487828801614eed565b945050602061515587828801614eed565b935050604061516687828801614fdf565b925050606085013567ffffffffffffffff81111561518357600080fd5b61518f87828801614f6b565b91505092959194509250565b600080604083850312156151ae57600080fd5b60006151bc85828601614eed565b92505060206151cd85828601614f02565b9150509250929050565b600080604083850312156151ea57600080fd5b60006151f885828601614eed565b925050602083013567ffffffffffffffff81111561521557600080fd5b61522185828601614f6b565b9150509250929050565b60008060006040848603121561524057600080fd5b600061524e86828701614eed565b935050602084013567ffffffffffffffff81111561526b57600080fd5b61527786828701614f95565b92509250509250925092565b60008060008060008060008060c0898b03121561529f57600080fd5b60006152ad8b828c01614eed565b985050602089013567ffffffffffffffff8111156152ca57600080fd5b6152d68b828c01614f95565b975097505060406152e98b828c01614ff4565b95505060606152fa8b828c01614ff4565b945050608061530b8b828c01614fdf565b93505060a089013567ffffffffffffffff81111561532857600080fd5b6153348b828c01614f95565b92509250509295985092959890939650565b6000806040838503121561535957600080fd5b600061536785828601614eed565b925050602061537885828601614fdf565b9150509250929050565b60006020828403121561539457600080fd5b60006153a284828501614f17565b91505092915050565b6000602082840312156153bd57600080fd5b60006153cb84828501614f2c565b91505092915050565b600080604083850312156153e757600080fd5b60006153f585828601614f17565b925050602061540685828601614eed565b9150509250929050565b60006020828403121561542257600080fd5b600061543084828501614f41565b91505092915050565b60006020828403121561544b57600080fd5b600061545984828501614f56565b91505092915050565b60006020828403121561547457600080fd5b600061548284828501614fdf565b91505092915050565b615494816160e0565b82525050565b6154a3816160f2565b82525050565b6154b2816160fe565b82525050565b60006154c382615fd1565b6154cd8185615fe7565b93506154dd81856020860161619e565b6154e6816162eb565b840191505092915050565b60006154fc82615fd1565b6155068185615ff8565b935061551681856020860161619e565b80840191505092915050565b61552b8161616b565b82525050565b61553a8161617d565b82525050565b600061554c8385616025565b935061555983858461618f565b82840190509392505050565b600061557082615fdc565b61557a8185616003565b935061558a81856020860161619e565b615593816162eb565b840191505092915050565b60006155a982615fdc565b6155b38185616014565b93506155c381856020860161619e565b6155cc816162eb565b840191505092915050565b60006155e282615fdc565b6155ec8185616025565b93506155fc81856020860161619e565b80840191505092915050565b6000615615602083616014565b9150615620826162fc565b602082019050919050565b6000615638600683616014565b915061564382616325565b602082019050919050565b600061565b602d83616014565b91506156668261634e565b604082019050919050565b600061567e603283616014565b91506156898261639d565b604082019050919050565b60006156a1602583616014565b91506156ac826163ec565b604082019050919050565b60006156c4601c83616014565b91506156cf8261643b565b602082019050919050565b60006156e7602c83616014565b91506156f282616464565b604082019050919050565b600061570a602483616014565b9150615715826164b3565b604082019050919050565b600061572d601983616014565b915061573882616502565b602082019050919050565b6000615750602c83616014565b915061575b8261652b565b604082019050919050565b6000615773603883616014565b915061577e8261657a565b604082019050919050565b6000615796602983616014565b91506157a1826165c9565b604082019050919050565b60006157b9602983616014565b91506157c482616618565b604082019050919050565b60006157dc602e83616014565b91506157e782616667565b604082019050919050565b60006157ff602083616014565b915061580a826166b6565b602082019050919050565b6000615822602e83616014565b915061582d826166df565b604082019050919050565b6000615845602d83616014565b91506158508261672e565b604082019050919050565b6000615868601883616014565b91506158738261677d565b602082019050919050565b600061588b602183616014565b9150615896826167a6565b604082019050919050565b60006158ae603d83616014565b91506158b9826167f5565b604082019050919050565b60006158d1600683616014565b91506158dc82616844565b602082019050919050565b60006158f4601d83616014565b91506158ff8261686d565b602082019050919050565b6000615917602b83616014565b915061592282616896565b604082019050919050565b600061593a601783616025565b9150615945826168e5565b601782019050919050565b600061595d601183616025565b91506159688261690e565b601182019050919050565b6000615980602f83616014565b915061598b82616937565b604082019050919050565b600060a0830160008301516159ae6000860182615a0c565b50602083015184820360208601526159c68282615565565b91505060408301516159db6040860182615a2a565b5060608301516159ee6060860182615a2a565b506080830151615a016080860182615a0c565b508091505092915050565b615a1581616154565b82525050565b615a2481616154565b82525050565b615a338161615e565b82525050565b615a428161615e565b82525050565b6000615a5482846154f1565b915081905092915050565b6000615a6c828486615540565b91508190509392505050565b6000615a838261592d565b9150615a8f82856155d7565b9150615a9a82615950565b9150615aa682846155d7565b91508190509392505050565b6000602082019050615ac7600083018461548b565b92915050565b6000608082019050615ae2600083018761548b565b615aef602083018661548b565b615afc6040830185615a1b565b8181036060830152615b0e81846154b8565b905095945050505050565b6000606082019050615b2e600083018461548b565b8181036020830152615b3f816158c4565b90508181036040830152615b528161562b565b905092915050565b6000602082019050615b6f600083018461549a565b92915050565b6000602082019050615b8a60008301846154a9565b92915050565b6000602082019050615ba56000830184615531565b92915050565b60006020820190508181036000830152615bc5818461559e565b905092915050565b60006020820190508181036000830152615be681615608565b9050919050565b60006020820190508181036000830152615c068161564e565b9050919050565b60006020820190508181036000830152615c2681615671565b9050919050565b60006020820190508181036000830152615c4681615694565b9050919050565b60006020820190508181036000830152615c66816156b7565b9050919050565b60006020820190508181036000830152615c86816156da565b9050919050565b60006020820190508181036000830152615ca6816156fd565b9050919050565b60006020820190508181036000830152615cc681615720565b9050919050565b60006020820190508181036000830152615ce681615743565b9050919050565b60006020820190508181036000830152615d0681615766565b9050919050565b60006020820190508181036000830152615d2681615789565b9050919050565b60006020820190508181036000830152615d46816157ac565b9050919050565b60006020820190508181036000830152615d66816157cf565b9050919050565b60006020820190508181036000830152615d86816157f2565b9050919050565b60006020820190508181036000830152615da681615815565b9050919050565b60006020820190508181036000830152615dc681615838565b9050919050565b60006020820190508181036000830152615de68161585b565b9050919050565b60006020820190508181036000830152615e068161587e565b9050919050565b60006020820190508181036000830152615e26816158a1565b9050919050565b60006060820190508181036000830152615e46816158c4565b9050615e55602083018561548b565b615e626040830184615522565b9392505050565b60006020820190508181036000830152615e82816158e7565b9050919050565b60006020820190508181036000830152615ea28161590a565b9050919050565b60006020820190508181036000830152615ec281615973565b9050919050565b60006020820190508181036000830152615ee38184615996565b905092915050565b6000602082019050615f006000830184615a1b565b92915050565b600060a082019050615f1b6000830188615a1b565b8181036020830152615f2d818761559e565b9050615f3c6040830186615a39565b615f496060830185615a39565b615f566080830184615a1b565b9695505050505050565b6000602082019050615f756000830184615a39565b92915050565b6000615f85615f96565b9050615f91828261622d565b919050565b6000604051905090565b600067ffffffffffffffff821115615fbb57615fba6162bc565b5b615fc4826162eb565b9050602081019050919050565b600081519050919050565b600081519050919050565b600082825260208201905092915050565b600081905092915050565b600082825260208201905092915050565b600082825260208201905092915050565b600081905092915050565b600061603b82616154565b915061604683616154565b9250827fffffffffffffffffffffffffffffffffffffffffffffffffffffffffffffffff0382111561607b5761607a61625e565b5b828201905092915050565b600061609182616154565b915061609c83616154565b9250817fffffffffffffffffffffffffffffffffffffffffffffffffffffffffffffffff04831182151516156160d5576160d461625e565b5b828202905092915050565b60006160eb82616134565b9050919050565b60008115159050919050565b6000819050919050565b60007fffffffff0000000000000000000000000000000000000000000000000000000082169050919050565b600073ffffffffffffffffffffffffffffffffffffffff82169050919050565b6000819050919050565b600060ff82169050919050565b600061617682616154565b9050919050565b60006161888261615e565b9050919050565b82818337600083830152505050565b60005b838110156161bc5780820151818401526020810190506161a1565b838111156161cb576000848401525b50505050565b60006161dc82616154565b915060008214156161f0576161ef61625e565b5b600182039050919050565b6000600282049050600182168061621357607f821691505b602082108114156162275761622661628d565b5b50919050565b616236826162eb565b810181811067ffffffffffffffff82111715616255576162546162bc565b5b80604052505050565b7f4e487b7100000000000000000000000000000000000000000000000000000000600052601160045260246000fd5b7f4e487b7100000000000000000000000000000000000000000000000000000000600052602260045260246000fd5b7f4e487b7100000000000000000000000000000000000000000000000000000000600052604160045260246000fd5b6000601f19601f8301169050919050565b7f537472696e67733a20686578206c656e67746820696e73756666696369656e74600082015250565b7f565443414c4c0000000000000000000000000000000000000000000000000000600082015250565b7f4552433732313a2063616c6c6572206973206e6f7420746f6b656e206f776e6560008201527f72206f7220617070726f76656400000000000000000000000000000000000000602082015250565b7f4552433732313a207472616e7366657220746f206e6f6e20455243373231526560008201527f63656976657220696d706c656d656e7465720000000000000000000000000000602082015250565b7f4552433732313a207472616e736665722066726f6d20696e636f72726563742060008201527f6f776e6572000000000000000000000000000000000000000000000000000000602082015250565b7f4552433732313a20746f6b656e20616c7265616479206d696e74656400000000600082015250565b7f46756e6374696f6e206d7573742062652063616c6c6564207468726f7567682060008201527f64656c656761746563616c6c0000000000000000000000000000000000000000602082015250565b7f4552433732313a207472616e7366657220746f20746865207a65726f2061646460008201527f7265737300000000000000000000000000000000000000000000000000000000602082015250565b7f4552433732313a20617070726f766520746f2063616c6c657200000000000000600082015250565b7f46756e6374696f6e206d7573742062652063616c6c6564207468726f7567682060008201527f6163746976652070726f78790000000000000000000000000000000000000000602082015250565b7f555550535570677261646561626c653a206d757374206e6f742062652063616c60008201527f6c6564207468726f7567682064656c656761746563616c6c0000000000000000602082015250565b7f4552433732313a2061646472657373207a65726f206973206e6f74206120766160008201527f6c6964206f776e65720000000000000000000000000000000000000000000000602082015250565b7f45524331393637557067726164653a20756e737570706f727465642070726f7860008201527f6961626c65555549440000000000000000000000000000000000000000000000602082015250565b7f496e697469616c697a61626c653a20636f6e747261637420697320616c72656160008201527f647920696e697469616c697a6564000000000000000000000000000000000000602082015250565b7f4552433732313a206d696e7420746f20746865207a65726f2061646472657373600082015250565b7f45524331393637557067726164653a206e657720696d706c656d656e7461746960008201527f6f6e206973206e6f742055555053000000000000000000000000000000000000602082015250565b7f455243313936373a206e657720696d706c656d656e746174696f6e206973206e60008201527f6f74206120636f6e747261637400000000000000000000000000000000000000602082015250565b7f4552433732313a20696e76616c696420746f6b656e2049440000000000000000600082015250565b7f4552433732313a20617070726f76616c20746f2063757272656e74206f776e6560008201527f7200000000000000000000000000000000000000000000000000000000000000602082015250565b7f4552433732313a20617070726f76652063616c6c6572206973206e6f7420746f60008201527f6b656e206f776e6572206f7220617070726f76656420666f7220616c6c000000602082015250565b7f484156454e310000000000000000000000000000000000000000000000000000600082015250565b7f416464726573733a2063616c6c20746f206e6f6e2d636f6e7472616374000000600082015250565b7f496e697469616c697a61626c653a20636f6e7472616374206973206e6f74206960008201527f6e697469616c697a696e67000000000000000000000000000000000000000000602082015250565b7f416363657373436f6e74726f6c3a206163636f756e7420000000000000000000600082015250565b7f206973206d697373696e6720726f6c6520000000000000000000000000000000600082015250565b7f416363657373436f6e74726f6c3a2063616e206f6e6c792072656e6f756e636560008201527f20726f6c657320666f722073656c660000000000000000000000000000000000602082015250565b61698f816160e0565b811461699a57600080fd5b50565b6169a6816160f2565b81146169b157600080fd5b50565b6169bd816160fe565b81146169c857600080fd5b50565b6169d481616108565b81146169df57600080fd5b50565b6169eb81616154565b81146169f657600080fd5b50565b616a028161615e565b8114616a0d57600080fd5b5056fe416464726573733a206c6f772d6c6576656c2064656c65676174652063616c6c206661696c6564a2646970667358221220285c6d927957543721e46c00be61e49ac659386e1ef91e0689e8bf0451d981fd64736f6c63430008020033",
  "linkReferences": {},
  "deployedLinkReferences": {}
}