{
  "_format": "hh-sol-artifact-1",
  "contractName": "ProofOfIdentity",
  "sourceName": "contracts/ProofOfIdentity.sol",
  "abi": [
    {
      "inputs": [],
      "stateMutability": "nonpayable",
      "type": "constructor"
    },
    {
      "anonymous": false,
      "inputs": [
        {
          "indexed": true,
          "internalType": "address",
          "name": "account",
          "type": "address"
        },
        {
          "indexed": true,
          "internalType": "string",
          "name": "reason",
          "type": "string"
        }
      ],
      "name": "AccountSuspendedTokenMaintained",
      "type": "event"
    },
    {
      "anonymous": false,
      "inputs": [
        {
          "indexed": false,
          "internalType": "address",
          "name": "previousAdmin",
          "type": "address"
        },
        {
          "indexed": false,
          "internalType": "address",
          "name": "newAdmin",
          "type": "address"
        }
      ],
      "name": "AdminChanged",
      "type": "event"
    },
    {
      "anonymous": false,
      "inputs": [
        {
          "indexed": true,
          "internalType": "address",
          "name": "owner",
          "type": "address"
        },
        {
          "indexed": true,
          "internalType": "address",
          "name": "approved",
          "type": "address"
        },
        {
          "indexed": true,
          "internalType": "uint256",
          "name": "tokenId",
          "type": "uint256"
        }
      ],
      "name": "Approval",
      "type": "event"
    },
    {
      "anonymous": false,
      "inputs": [
        {
          "indexed": true,
          "internalType": "address",
          "name": "owner",
          "type": "address"
        },
        {
          "indexed": true,
          "internalType": "address",
          "name": "operator",
          "type": "address"
        },
        {
          "indexed": false,
          "internalType": "bool",
          "name": "approved",
          "type": "bool"
        }
      ],
      "name": "ApprovalForAll",
      "type": "event"
    },
    {
      "anonymous": false,
      "inputs": [
        {
          "indexed": true,
          "internalType": "address",
          "name": "beacon",
          "type": "address"
        }
      ],
      "name": "BeaconUpgraded",
      "type": "event"
    },
    {
      "anonymous": false,
      "inputs": [
        {
          "indexed": true,
          "internalType": "address",
          "name": "account",
          "type": "address"
        },
        {
          "indexed": true,
          "internalType": "uint256",
          "name": "tokenId",
          "type": "uint256"
        }
      ],
      "name": "IdentityIssued",
      "type": "event"
    },
    {
      "anonymous": false,
      "inputs": [
        {
          "indexed": true,
          "internalType": "address",
          "name": "account",
          "type": "address"
        },
        {
          "indexed": true,
          "internalType": "uint256",
          "name": "tokenId",
          "type": "uint256"
        }
      ],
      "name": "IdentityUpdated",
      "type": "event"
    },
    {
      "anonymous": false,
      "inputs": [
        {
          "indexed": false,
          "internalType": "uint8",
          "name": "version",
          "type": "uint8"
        }
      ],
      "name": "Initialized",
      "type": "event"
    },
    {
      "anonymous": false,
      "inputs": [
        {
          "indexed": true,
          "internalType": "bytes32",
          "name": "role",
          "type": "bytes32"
        },
        {
          "indexed": true,
          "internalType": "bytes32",
          "name": "previousAdminRole",
          "type": "bytes32"
        },
        {
          "indexed": true,
          "internalType": "bytes32",
          "name": "newAdminRole",
          "type": "bytes32"
        }
      ],
      "name": "RoleAdminChanged",
      "type": "event"
    },
    {
      "anonymous": false,
      "inputs": [
        {
          "indexed": true,
          "internalType": "bytes32",
          "name": "role",
          "type": "bytes32"
        },
        {
          "indexed": true,
          "internalType": "address",
          "name": "account",
          "type": "address"
        },
        {
          "indexed": true,
          "internalType": "address",
          "name": "sender",
          "type": "address"
        }
      ],
      "name": "RoleGranted",
      "type": "event"
    },
    {
      "anonymous": false,
      "inputs": [
        {
          "indexed": true,
          "internalType": "bytes32",
          "name": "role",
          "type": "bytes32"
        },
        {
          "indexed": true,
          "internalType": "address",
          "name": "account",
          "type": "address"
        },
        {
          "indexed": true,
          "internalType": "address",
          "name": "sender",
          "type": "address"
        }
      ],
      "name": "RoleRevoked",
      "type": "event"
    },
    {
      "anonymous": false,
      "inputs": [
        {
          "indexed": true,
          "internalType": "address",
          "name": "account",
          "type": "address"
        },
        {
          "indexed": true,
          "internalType": "uint256",
          "name": "tokenId",
          "type": "uint256"
        },
        {
          "indexed": true,
          "internalType": "string",
          "name": "newURI",
          "type": "string"
        }
      ],
      "name": "TokenURIUpdated",
      "type": "event"
    },
    {
      "anonymous": false,
      "inputs": [
        {
          "indexed": true,
          "internalType": "address",
          "name": "from",
          "type": "address"
        },
        {
          "indexed": true,
          "internalType": "address",
          "name": "to",
          "type": "address"
        },
        {
          "indexed": true,
          "internalType": "uint256",
          "name": "tokenId",
          "type": "uint256"
        }
      ],
      "name": "Transfer",
      "type": "event"
    },
    {
      "anonymous": false,
      "inputs": [
        {
          "indexed": true,
          "internalType": "address",
          "name": "implementation",
          "type": "address"
        }
      ],
      "name": "Upgraded",
      "type": "event"
    },
    {
      "inputs": [],
      "name": "DEFAULT_ADMIN_ROLE",
      "outputs": [
        {
          "internalType": "bytes32",
          "name": "",
          "type": "bytes32"
        }
      ],
      "stateMutability": "view",
      "type": "function"
    },
    {
      "inputs": [],
      "name": "OPERATOR_ROLE",
      "outputs": [
        {
          "internalType": "bytes32",
          "name": "",
          "type": "bytes32"
        }
      ],
      "stateMutability": "view",
      "type": "function"
    },
    {
      "inputs": [
        {
          "internalType": "address",
          "name": "to",
          "type": "address"
        },
        {
          "internalType": "uint256",
          "name": "tokenId",
          "type": "uint256"
        }
      ],
      "name": "approve",
      "outputs": [],
      "stateMutability": "nonpayable",
      "type": "function"
    },
    {
      "inputs": [
        {
          "internalType": "address",
          "name": "owner",
          "type": "address"
        }
      ],
      "name": "balanceOf",
      "outputs": [
        {
          "internalType": "uint256",
          "name": "",
          "type": "uint256"
        }
      ],
      "stateMutability": "view",
      "type": "function"
    },
    {
      "inputs": [
        {
          "internalType": "address",
          "name": "account",
          "type": "address"
        },
        {
          "internalType": "uint8",
          "name": "score",
          "type": "uint8"
        }
      ],
      "name": "establishCompetencyRating",
      "outputs": [],
      "stateMutability": "nonpayable",
      "type": "function"
    },
    {
      "inputs": [
        {
          "internalType": "uint256",
          "name": "tokenId",
          "type": "uint256"
        }
      ],
      "name": "getApproved",
      "outputs": [
        {
          "internalType": "address",
          "name": "",
          "type": "address"
        }
      ],
      "stateMutability": "view",
      "type": "function"
    },
    {
      "inputs": [
        {
          "internalType": "bytes32",
          "name": "role",
          "type": "bytes32"
        }
      ],
      "name": "getRoleAdmin",
      "outputs": [
        {
          "internalType": "bytes32",
          "name": "",
          "type": "bytes32"
        }
      ],
      "stateMutability": "view",
      "type": "function"
    },
    {
      "inputs": [
        {
          "internalType": "address",
          "name": "account",
          "type": "address"
        }
      ],
      "name": "getUserAccountCompetencyRating",
      "outputs": [
        {
          "internalType": "uint8",
          "name": "",
          "type": "uint8"
        }
      ],
      "stateMutability": "view",
      "type": "function"
    },
    {
      "inputs": [
        {
          "internalType": "address",
          "name": "account",
          "type": "address"
        }
      ],
      "name": "getUserAccountCompetencyRatingPreventOnExpiry",
      "outputs": [
        {
          "internalType": "uint8",
          "name": "",
          "type": "uint8"
        }
      ],
      "stateMutability": "view",
      "type": "function"
    },
    {
      "inputs": [
        {
          "internalType": "address",
          "name": "account",
          "type": "address"
        }
      ],
      "name": "getUserAccountCountryCode",
      "outputs": [
        {
          "internalType": "string",
          "name": "userAccountCountryCode",
          "type": "string"
        }
      ],
      "stateMutability": "view",
      "type": "function"
    },
    {
      "inputs": [
        {
          "internalType": "address",
          "name": "account",
          "type": "address"
        }
      ],
      "name": "getUserAccountCountryCodePreventOnExpiry",
      "outputs": [
        {
          "internalType": "string",
          "name": "userAccountCountryCode",
          "type": "string"
        }
      ],
      "stateMutability": "view",
      "type": "function"
    },
    {
      "inputs": [
        {
          "internalType": "address",
          "name": "account",
          "type": "address"
        }
      ],
      "name": "getUserAccountExpiry",
      "outputs": [
        {
          "internalType": "uint256",
          "name": "userAccountExpiry",
          "type": "uint256"
        }
      ],
      "stateMutability": "view",
      "type": "function"
    },
    {
      "inputs": [
        {
          "internalType": "address",
          "name": "account",
          "type": "address"
        }
      ],
      "name": "getUserAccountIdentityBlob",
      "outputs": [
        {
          "components": [
            {
              "internalType": "uint256",
              "name": "tokenId",
              "type": "uint256"
            },
            {
              "internalType": "string",
              "name": "countryCode",
              "type": "string"
            },
            {
              "internalType": "uint8",
              "name": "userType",
              "type": "uint8"
            },
            {
              "internalType": "uint8",
              "name": "level",
              "type": "uint8"
            },
            {
              "internalType": "uint256",
              "name": "expiry",
              "type": "uint256"
            },
            {
              "internalType": "uint8",
              "name": "competencyRating",
              "type": "uint8"
            }
          ],
          "internalType": "struct RoleVerification.IdentityBlob",
          "name": "userIdentityBlob",
          "type": "tuple"
        }
      ],
      "stateMutability": "view",
      "type": "function"
    },
    {
      "inputs": [
        {
          "internalType": "address",
          "name": "account",
          "type": "address"
        }
      ],
      "name": "getUserAccountLevel",
      "outputs": [
        {
          "internalType": "uint8",
          "name": "userAccountLevel",
          "type": "uint8"
        }
      ],
      "stateMutability": "view",
      "type": "function"
    },
    {
      "inputs": [
        {
          "internalType": "address",
          "name": "account",
          "type": "address"
        }
      ],
      "name": "getUserAccountLevelPreventOnExpiry",
      "outputs": [
        {
          "internalType": "uint8",
          "name": "",
          "type": "uint8"
        }
      ],
      "stateMutability": "view",
      "type": "function"
    },
    {
      "inputs": [
        {
          "internalType": "address",
          "name": "account",
          "type": "address"
        }
      ],
      "name": "getUserAccountType",
      "outputs": [
        {
          "internalType": "uint8",
          "name": "userAccountType",
          "type": "uint8"
        }
      ],
      "stateMutability": "view",
      "type": "function"
    },
    {
      "inputs": [
        {
          "internalType": "address",
          "name": "account",
          "type": "address"
        }
      ],
      "name": "getUserAccountTypePreventOnExpiry",
      "outputs": [
        {
          "internalType": "uint8",
          "name": "",
          "type": "uint8"
        }
      ],
      "stateMutability": "view",
      "type": "function"
    },
    {
      "inputs": [
        {
          "internalType": "bytes32",
          "name": "role",
          "type": "bytes32"
        },
        {
          "internalType": "address",
          "name": "account",
          "type": "address"
        }
      ],
      "name": "grantRole",
      "outputs": [],
      "stateMutability": "nonpayable",
      "type": "function"
    },
    {
      "inputs": [
        {
          "internalType": "bytes32",
          "name": "role",
          "type": "bytes32"
        },
        {
          "internalType": "address",
          "name": "account",
          "type": "address"
        }
      ],
      "name": "hasRole",
      "outputs": [
        {
          "internalType": "bool",
          "name": "",
          "type": "bool"
        }
      ],
      "stateMutability": "view",
      "type": "function"
    },
    {
      "inputs": [
        {
          "internalType": "address",
          "name": "permissionsInterface",
          "type": "address"
        },
        {
          "internalType": "address",
          "name": "networkAdmin",
          "type": "address"
        },
        {
          "internalType": "address",
          "name": "networkOperator",
          "type": "address"
        }
      ],
      "name": "initialize",
      "outputs": [],
      "stateMutability": "nonpayable",
      "type": "function"
    },
    {
      "inputs": [
        {
          "internalType": "address",
          "name": "owner",
          "type": "address"
        },
        {
          "internalType": "address",
          "name": "operator",
          "type": "address"
        }
      ],
      "name": "isApprovedForAll",
      "outputs": [
        {
          "internalType": "bool",
          "name": "",
          "type": "bool"
        }
      ],
      "stateMutability": "view",
      "type": "function"
    },
    {
      "inputs": [
        {
          "internalType": "address",
          "name": "account",
          "type": "address"
        },
        {
          "internalType": "string",
          "name": "countryCode",
          "type": "string"
        },
        {
          "internalType": "uint8",
          "name": "userType",
          "type": "uint8"
        },
        {
          "internalType": "uint8",
          "name": "level",
          "type": "uint8"
        },
        {
          "internalType": "uint256",
          "name": "expiry",
          "type": "uint256"
        },
        {
          "internalType": "string",
          "name": "tokenUri",
          "type": "string"
        }
      ],
      "name": "issueIdentity",
      "outputs": [
        {
          "internalType": "uint256",
          "name": "",
          "type": "uint256"
        }
      ],
      "stateMutability": "nonpayable",
      "type": "function"
    },
    {
      "inputs": [],
      "name": "name",
      "outputs": [
        {
          "internalType": "string",
          "name": "",
          "type": "string"
        }
      ],
      "stateMutability": "view",
      "type": "function"
    },
    {
      "inputs": [
        {
          "internalType": "uint256",
          "name": "tokenId",
          "type": "uint256"
        }
      ],
      "name": "ownerOf",
      "outputs": [
        {
          "internalType": "address",
          "name": "",
          "type": "address"
        }
      ],
      "stateMutability": "view",
      "type": "function"
    },
    {
      "inputs": [],
      "name": "proxiableUUID",
      "outputs": [
        {
          "internalType": "bytes32",
          "name": "",
          "type": "bytes32"
        }
      ],
      "stateMutability": "view",
      "type": "function"
    },
    {
      "inputs": [
        {
          "internalType": "bytes32",
          "name": "role",
          "type": "bytes32"
        },
        {
          "internalType": "address",
          "name": "account",
          "type": "address"
        }
      ],
      "name": "renounceRole",
      "outputs": [],
      "stateMutability": "nonpayable",
      "type": "function"
    },
    {
      "inputs": [
        {
          "internalType": "bytes32",
          "name": "role",
          "type": "bytes32"
        },
        {
          "internalType": "address",
          "name": "account",
          "type": "address"
        }
      ],
      "name": "revokeRole",
      "outputs": [],
      "stateMutability": "nonpayable",
      "type": "function"
    },
    {
      "inputs": [
        {
          "internalType": "address",
          "name": "from",
          "type": "address"
        },
        {
          "internalType": "address",
          "name": "to",
          "type": "address"
        },
        {
          "internalType": "uint256",
          "name": "tokenId",
          "type": "uint256"
        }
      ],
      "name": "safeTransferFrom",
      "outputs": [],
      "stateMutability": "nonpayable",
      "type": "function"
    },
    {
      "inputs": [
        {
          "internalType": "address",
          "name": "from",
          "type": "address"
        },
        {
          "internalType": "address",
          "name": "to",
          "type": "address"
        },
        {
          "internalType": "uint256",
          "name": "tokenId",
          "type": "uint256"
        },
        {
          "internalType": "bytes",
          "name": "data",
          "type": "bytes"
        }
      ],
      "name": "safeTransferFrom",
      "outputs": [],
      "stateMutability": "nonpayable",
      "type": "function"
    },
    {
      "inputs": [
        {
          "internalType": "address",
          "name": "operator",
          "type": "address"
        },
        {
          "internalType": "bool",
          "name": "approved",
          "type": "bool"
        }
      ],
      "name": "setApprovalForAll",
      "outputs": [],
      "stateMutability": "nonpayable",
      "type": "function"
    },
    {
      "inputs": [
        {
          "internalType": "bytes4",
          "name": "interfaceId",
          "type": "bytes4"
        }
      ],
      "name": "supportsInterface",
      "outputs": [
        {
          "internalType": "bool",
          "name": "",
          "type": "bool"
        }
      ],
      "stateMutability": "view",
      "type": "function"
    },
    {
      "inputs": [
        {
          "internalType": "address",
          "name": "suspendAddress",
          "type": "address"
        },
        {
          "internalType": "string",
          "name": "reason",
          "type": "string"
        }
      ],
      "name": "suspendAccountMaintainTokenAndIdentityBlob",
      "outputs": [],
      "stateMutability": "nonpayable",
      "type": "function"
    },
    {
      "inputs": [],
      "name": "symbol",
      "outputs": [
        {
          "internalType": "string",
          "name": "",
          "type": "string"
        }
      ],
      "stateMutability": "view",
      "type": "function"
    },
    {
      "inputs": [
        {
          "internalType": "uint256",
          "name": "tokenId",
          "type": "uint256"
        }
      ],
      "name": "tokenURI",
      "outputs": [
        {
          "internalType": "string",
          "name": "tokenUri",
          "type": "string"
        }
      ],
      "stateMutability": "view",
      "type": "function"
    },
    {
      "inputs": [],
      "name": "totalSupply",
      "outputs": [
        {
          "internalType": "uint256",
          "name": "",
          "type": "uint256"
        }
      ],
      "stateMutability": "view",
      "type": "function"
    },
    {
      "inputs": [
        {
          "internalType": "address",
          "name": "from",
          "type": "address"
        },
        {
          "internalType": "address",
          "name": "to",
          "type": "address"
        },
        {
          "internalType": "uint256",
          "name": "tokenId",
          "type": "uint256"
        }
      ],
      "name": "transferFrom",
      "outputs": [],
      "stateMutability": "nonpayable",
      "type": "function"
    },
    {
      "inputs": [
        {
          "internalType": "address",
          "name": "account",
          "type": "address"
        },
        {
          "internalType": "string",
          "name": "countryCode",
          "type": "string"
        },
        {
          "internalType": "uint8",
          "name": "userType",
          "type": "uint8"
        },
        {
          "internalType": "uint8",
          "name": "level",
          "type": "uint8"
        },
        {
          "internalType": "uint256",
          "name": "expiry",
          "type": "uint256"
        },
        {
          "internalType": "uint8",
          "name": "competencyRating",
          "type": "uint8"
        },
        {
          "internalType": "string",
          "name": "tokenUri",
          "type": "string"
        }
      ],
      "name": "updateIdentity",
      "outputs": [],
      "stateMutability": "nonpayable",
      "type": "function"
    },
    {
      "inputs": [
        {
          "internalType": "address",
          "name": "account",
          "type": "address"
        },
        {
          "internalType": "uint256",
          "name": "tokenId",
          "type": "uint256"
        },
        {
          "internalType": "string",
          "name": "tokenUri",
          "type": "string"
        }
      ],
      "name": "updateTokenURI",
      "outputs": [],
      "stateMutability": "nonpayable",
      "type": "function"
    },
    {
      "inputs": [
        {
          "internalType": "address",
          "name": "newImplementation",
          "type": "address"
        }
      ],
      "name": "upgradeTo",
      "outputs": [],
      "stateMutability": "nonpayable",
      "type": "function"
    },
    {
      "inputs": [
        {
          "internalType": "address",
          "name": "newImplementation",
          "type": "address"
        },
        {
          "internalType": "bytes",
          "name": "data",
          "type": "bytes"
        }
      ],
      "name": "upgradeToAndCall",
      "outputs": [],
      "stateMutability": "payable",
      "type": "function"
    }
  ],
  "bytecode": "0x60a06040523060601b6080523480156200001857600080fd5b506200002362000029565b620000ea565b600154610100900460ff1615620000965760405162461bcd60e51b815260206004820152602760248201527f496e697469616c697a61626c653a20636f6e747261637420697320696e697469604482015266616c697a696e6760c81b606482015260840160405180910390fd5b60015460ff90811614620000e8576001805460ff191660ff9081179091556040519081527f7f26b83ff96e1f2b6a682f133852f6798a09c465da95921460cefb38474024989060200160405180910390a15b565b60805160601c613bc46200012560003960008181610d7401528181610df9015281816113db0152818161146001526115460152613bc46000f3fe6080604052600436106102bb5760003560e01c806370a082311161016e578063b88d4fde116100cb578063d547741f1161007f578063e985e9c511610064578063e985e9c51461082d578063f5b541a614610876578063f853018f146108aa576102bb565b8063d547741f146107ed578063dfb24b891461080d576102bb565b8063c207e9e0116100b0578063c207e9e01461076c578063c87b56dd146107ad578063d510b712146107cd576102bb565b8063b88d4fde1461072c578063c0c53b8b1461074c576102bb565b806395d89b4111610122578063a217fddf11610107578063a217fddf146106bb578063a22cb465146106d0578063b467177f146106f0576102bb565b806395d89b411461068657806396257e4d1461069b576102bb565b806391d148541161015357806391d14854146105e4578063949cdd6e1461062a57806394e2dc101461064a576102bb565b806370a08231146105a457806380a5a896146105c4576102bb565b80632f2ff15d1161021c57806342842e0e116101d057806352d1902d116101b557806352d1902d146105425780636352211e146105575780636ca5fde814610577576102bb565b806342842e0e1461050f5780634f1ef2861461052f576102bb565b80633659cfe6116102015780633659cfe6146104af57806337273724146104cf57806340f378e5146104ef576102bb565b80632f2ff15d1461046f57806336568abe1461048f576102bb565b80630fcd7f8f116102735780631fe0094a116102585780631fe0094a146103ed57806323b872dd1461041f578063248a9ca31461043f576102bb565b80630fcd7f8f146103b857806318160ddd146103d8576102bb565b8063081812fc116102a4578063081812fc1461031757806309299ea31461034f578063095ea7b314610396576102bb565b806301ffc9a7146102c057806306fdde03146102f5575b600080fd5b3480156102cc57600080fd5b506102e06102db366004613806565b6108ca565b60405190151581526020015b60405180910390f35b34801561030157600080fd5b5061030a6108dd565b6040516102ec91906139bb565b34801561032357600080fd5b506103376103323660046137b4565b61096f565b6040516001600160a01b0390911681526020016102ec565b34801561035b57600080fd5b5061038861036a36600461339b565b6001600160a01b031660009081526020819052604090206003015490565b6040519081526020016102ec565b3480156103a257600080fd5b506103b66103b136600461370a565b610996565b005b3480156103c457600080fd5b506103b66103d3366004613733565b610acd565b3480156103e457600080fd5b50610388610bbb565b3480156103f957600080fd5b5061040d61040836600461339b565b610bcc565b60405160ff90911681526020016102ec565b34801561042b57600080fd5b506103b661043a366004613429565b610c41565b34801561044b57600080fd5b5061038861045a3660046137b4565b60009081526098602052604090206001015490565b34801561047b57600080fd5b506103b661048a3660046137e4565b610cb8565b34801561049b57600080fd5b506103b66104aa3660046137e4565b610cdd565b3480156104bb57600080fd5b506103b66104ca36600461339b565b610d69565b3480156104db57600080fd5b506103b66104ea36600461364c565b610ee5565b3480156104fb57600080fd5b5061038861050a3660046135a1565b6110dc565b34801561051b57600080fd5b506103b661052a366004613429565b6113b5565b6103b661053d366004613504565b6113d0565b34801561054e57600080fd5b50610388611539565b34801561056357600080fd5b506103376105723660046137b4565b6115fe565b34801561058357600080fd5b5061059761059236600461339b565b611663565b6040516102ec9190613a0d565b3480156105b057600080fd5b506103886105bf36600461339b565b61179c565b3480156105d057600080fd5b506103b66105df366004613550565b611836565b3480156105f057600080fd5b506102e06105ff3660046137e4565b60009182526098602090815260408084206001600160a01b0393909316845291905290205460ff1690565b34801561063657600080fd5b5061040d61064536600461339b565b611930565b34801561065657600080fd5b5061040d61066536600461339b565b6001600160a01b031660009081526020819052604090206004015460ff1690565b34801561069257600080fd5b5061030a6119aa565b3480156106a757600080fd5b5061030a6106b636600461339b565b6119b9565b3480156106c757600080fd5b50610388600081565b3480156106dc57600080fd5b506103b66106eb3660046134ca565b611aba565b3480156106fc57600080fd5b5061040d61070b36600461339b565b6001600160a01b031660009081526020819052604090206002015460ff1690565b34801561073857600080fd5b506103b6610747366004613464565b611ac5565b34801561075857600080fd5b506103b66107673660046133e7565b611b43565b34801561077857600080fd5b5061040d61078736600461339b565b6001600160a01b0316600090815260208190526040902060020154610100900460ff1690565b3480156107b957600080fd5b5061030a6107c83660046137b4565b611d2c565b3480156107d957600080fd5b5061040d6107e836600461339b565b611d9e565b3480156107f957600080fd5b506103b66108083660046137e4565b611e13565b34801561081957600080fd5b5061030a61082836600461339b565b611e38565b34801561083957600080fd5b506102e06108483660046133b5565b6001600160a01b039182166000908152606b6020908152604080832093909416825291909152205460ff1690565b34801561088257600080fd5b506103887f97667070c54ef182b0f5858b034beac1b6f3089aa2d3188bb1e8929f4fa9b92981565b3480156108b657600080fd5b506103b66108c536600461378b565b611e62565b60006108d582611ebd565b90505b919050565b6060606680546108ec90613aea565b80601f016020809104026020016040519081016040528092919081815260200182805461091890613aea565b80156109655780601f1061093a57610100808354040283529160200191610965565b820191906000526020600020905b81548152906001019060200180831161094857829003601f168201915b5050505050905090565b600061097a82611efb565b506000908152606a60205260409020546001600160a01b031690565b60006109a1826115fe565b9050806001600160a01b0316836001600160a01b03161415610a305760405162461bcd60e51b815260206004820152602160248201527f4552433732313a20617070726f76616c20746f2063757272656e74206f776e6560448201527f720000000000000000000000000000000000000000000000000000000000000060648201526084015b60405180910390fd5b336001600160a01b0382161480610a4c5750610a4c8133610848565b610abe5760405162461bcd60e51b815260206004820152603d60248201527f4552433732313a20617070726f76652063616c6c6572206973206e6f7420746f60448201527f6b656e206f776e6572206f7220617070726f76656420666f7220616c6c0000006064820152608401610a27565b610ac88383611f5f565b505050565b7f97667070c54ef182b0f5858b034beac1b6f3089aa2d3188bb1e8929f4fa9b929610af781611fcd565b6000848152606860205260409020546001600160a01b031615156040518060400160405280600381526020016231303160e81b81525090610b4b5760405162461bcd60e51b8152600401610a2791906139bb565b50600084815261013060205260409020610b66908484613198565b508282604051610b77929190613886565b6040519081900381209085906001600160a01b038816907fe3a3e1a0be0d562dd7ec739509d30dfbca7cd174fbc576a45746fe1f3b277c2690600090a45050505050565b6000610bc761012e5490565b905090565b6001600160a01b0381166000908152602081905260408120600301544210610c1f57604080518082018252600381526231303360e81b6020820152905162461bcd60e51b8152610a2791906004016139bb565b506001600160a01b031660009081526020819052604090206002015460ff1690565b610c4b3382611fd7565b610cad5760405162461bcd60e51b815260206004820152602d60248201527f4552433732313a2063616c6c6572206973206e6f7420746f6b656e206f776e6560448201526c1c881bdc88185c1c1c9bdd9959609a1b6064820152608401610a27565b610ac8838383612056565b600082815260986020526040902060010154610cd381611fcd565b610ac8838361225c565b6001600160a01b0381163314610d5b5760405162461bcd60e51b815260206004820152602f60248201527f416363657373436f6e74726f6c3a2063616e206f6e6c792072656e6f756e636560448201527f20726f6c657320666f722073656c6600000000000000000000000000000000006064820152608401610a27565b610d6582826122fe565b5050565b306001600160a01b037f0000000000000000000000000000000000000000000000000000000000000000161415610df75760405162461bcd60e51b815260206004820152602c60248201527f46756e6374696f6e206d7573742062652063616c6c6564207468726f7567682060448201526b19195b1959d85d1958d85b1b60a21b6064820152608401610a27565b7f00000000000000000000000000000000000000000000000000000000000000006001600160a01b0316610e527f360894a13ba1a3210667c828492db98dca3e2076cc3735a920a3ca505d382bbc546001600160a01b031690565b6001600160a01b031614610ebd5760405162461bcd60e51b815260206004820152602c60248201527f46756e6374696f6e206d7573742062652063616c6c6564207468726f7567682060448201526b6163746976652070726f787960a01b6064820152608401610a27565b610ec681612381565b60408051600080825260208201909252610ee29183919061238c565b50565b7f97667070c54ef182b0f5858b034beac1b6f3089aa2d3188bb1e8929f4fa9b929610f0f81611fcd565b610f188a61179c565b6001146040518060400160405280600381526020016231303160e81b81525090610f555760405162461bcd60e51b8152600401610a2791906139bb565b506040805160c0810182526001600160a01b038c1660009081526020818152908390205482528251601f8c018290048202810182019093528a83529091818301918c908c9081908401838280828437600092018290525093855250505060ff808b166020808501919091528a8216604080860191909152606085018b90529189166080909401939093526001600160a01b038e168252818352902082518155828201518051919261100e9260018501929091019061321c565b50604082810151600283018054606086015160ff1991821660ff9485161761ff00191661010091851691909102179091556080850151600385015560a090940151600490930180549094169216919091179091556001600160a01b038b166000908152602081815282822054825261013090522061108d908484613198565b506001600160a01b038a166000818152602081905260408082205490519092917f4a1e31466f875c6fcafefabf90bce8accdf53108c4a309106058ef7aefebd5ce91a350505050505050505050565b60007f97667070c54ef182b0f5858b034beac1b6f3089aa2d3188bb1e8929f4fa9b92961110881611fcd565b6111118a61179c565b60408051808201909152600381527f3130300000000000000000000000000000000000000000000000000000000000602082015290156111645760405162461bcd60e51b8152600401610a2791906139bb565b5060408051808201909152600381526231303360e81b602082015242861161119f5760405162461bcd60e51b8152600401610a2791906139bb565b506111af61012e80546001019055565b6040518060c001604052806111c461012e5490565b81526020018a8a8080601f016020809104026020016040519081016040528093929190818152602001838380828437600092018290525093855250505060ff808b16602080850191909152908a16604080850191909152606084018a905260809093018290526001600160a01b038e16825281815291902082518155828201518051919261125a9260018501929091019061321c565b506040820151600282018054606085015160ff1991821660ff9485161761ff00191661010091851691909102179091556080840151600384015560a0909301516004909201805490931691161790556112bc8a6112b761012e5490565b612540565b838361013060006112cd61012e5490565b815260200190815260200160002091906112e8929190613198565b5061012f546040517f2f7f0a120000000000000000000000000000000000000000000000000000000081526001600160a01b0390911690632f7f0a1290611333908d90600401613949565b600060405180830381600087803b15801561134d57600080fd5b505af1158015611361573d6000803e3d6000fd5b5050505061136f61012e5490565b6040516001600160a01b038c16907fae1b84af5e96bd9fa84e791c6b59125d1c17f73ef00e5a9d1fd8c0cc41e0489690600090a361012e549a9950505050505050505050565b610ac883838360405180602001604052806000815250611ac5565b306001600160a01b037f000000000000000000000000000000000000000000000000000000000000000016141561145e5760405162461bcd60e51b815260206004820152602c60248201527f46756e6374696f6e206d7573742062652063616c6c6564207468726f7567682060448201526b19195b1959d85d1958d85b1b60a21b6064820152608401610a27565b7f00000000000000000000000000000000000000000000000000000000000000006001600160a01b03166114b97f360894a13ba1a3210667c828492db98dca3e2076cc3735a920a3ca505d382bbc546001600160a01b031690565b6001600160a01b0316146115245760405162461bcd60e51b815260206004820152602c60248201527f46756e6374696f6e206d7573742062652063616c6c6564207468726f7567682060448201526b6163746976652070726f787960a01b6064820152608401610a27565b61152d82612381565b610d658282600161238c565b6000306001600160a01b037f000000000000000000000000000000000000000000000000000000000000000016146115d95760405162461bcd60e51b815260206004820152603860248201527f555550535570677261646561626c653a206d757374206e6f742062652063616c60448201527f6c6564207468726f7567682064656c656761746563616c6c00000000000000006064820152608401610a27565b507f360894a13ba1a3210667c828492db98dca3e2076cc3735a920a3ca505d382bbc90565b6000818152606860205260408120546001600160a01b0316806108d55760405162461bcd60e51b815260206004820152601860248201527f4552433732313a20696e76616c696420746f6b656e20494400000000000000006044820152606401610a27565b6116a56040518060c001604052806000815260200160608152602001600060ff168152602001600060ff16815260200160008152602001600060ff1681525090565b6001600160a01b03821660009081526020818152604091829020825160c081019093528054835260018101805491928401916116e090613aea565b80601f016020809104026020016040519081016040528092919081815260200182805461170c90613aea565b80156117595780601f1061172e57610100808354040283529160200191611759565b820191906000526020600020905b81548152906001019060200180831161173c57829003601f168201915b5050509183525050600282015460ff8082166020840152610100909104811660408301526003830154606083015260049092015490911660809091015292915050565b60006001600160a01b03821661181a5760405162461bcd60e51b815260206004820152602960248201527f4552433732313a2061646472657373207a65726f206973206e6f74206120766160448201527f6c6964206f776e657200000000000000000000000000000000000000000000006064820152608401610a27565b506001600160a01b031660009081526069602052604090205490565b7f97667070c54ef182b0f5858b034beac1b6f3089aa2d3188bb1e8929f4fa9b92961186081611fcd565b61012f546040517f84b7a84a0000000000000000000000000000000000000000000000000000000081526001600160a01b03909116906384b7a84a906118ad9087906001906004016139ce565b600060405180830381600087803b1580156118c757600080fd5b505af11580156118db573d6000803e3d6000fd5b5050505082826040516118ef929190613886565b604051908190038120906001600160a01b038616907f3347b0049117ab94fddf6cff81cc554c4f7489acedc7c33907a96655770e58ae90600090a350505050565b6001600160a01b038116600090815260208190526040812060030154421061198357604080518082018252600381526231303360e81b6020820152905162461bcd60e51b8152610a2791906004016139bb565b506001600160a01b0316600090815260208190526040902060020154610100900460ff1690565b6060606780546108ec90613aea565b6001600160a01b0381166000908152602081905260409020600301546060904210611a0f57604080518082018252600381526231303360e81b6020820152905162461bcd60e51b8152610a2791906004016139bb565b6001600160a01b03821660009081526020819052604090206001018054611a3590613aea565b80601f0160208091040260200160405190810160405280929190818152602001828054611a6190613aea565b8015611aae5780601f10611a8357610100808354040283529160200191611aae565b820191906000526020600020905b815481529060010190602001808311611a9157829003601f168201915b50505050509050919050565b610d6533838361255a565b611acf3383611fd7565b611b315760405162461bcd60e51b815260206004820152602d60248201527f4552433732313a2063616c6c6572206973206e6f7420746f6b656e206f776e6560448201526c1c881bdc88185c1c1c9bdd9959609a1b6064820152608401610a27565b611b3d84848484612629565b50505050565b600154610100900460ff1615808015611b6057506001805460ff16105b80611b795750303b158015611b7957506001805460ff16145b611beb5760405162461bcd60e51b815260206004820152602e60248201527f496e697469616c697a61626c653a20636f6e747261637420697320616c72656160448201527f647920696e697469616c697a65640000000000000000000000000000000000006064820152608401610a27565b6001805460ff1916811790558015611c0d576001805461ff0019166101001790555b611c156126a7565b611c896040518060400160405280601181526020017f50726f6f66206f66204964656e746974790000000000000000000000000000008152506040518060400160405280600581526020017f48312d4944000000000000000000000000000000000000000000000000000000815250612714565b611c916126a7565b61012f80546001600160a01b0319166001600160a01b038616179055611cb860008461225c565b611ce27f97667070c54ef182b0f5858b034beac1b6f3089aa2d3188bb1e8929f4fa9b9298361225c565b8015611b3d576001805461ff00191681556040519081527f7f26b83ff96e1f2b6a682f133852f6798a09c465da95921460cefb38474024989060200160405180910390a150505050565b6000818152606860205260409020546060906001600160a01b031615156040518060400160405280600381526020016231303160e81b81525090611d835760405162461bcd60e51b8152600401610a2791906139bb565b506000828152610130602052604090208054611a3590613aea565b6001600160a01b0381166000908152602081905260408120600301544210611df157604080518082018252600381526231303360e81b6020820152905162461bcd60e51b8152610a2791906004016139bb565b506001600160a01b031660009081526020819052604090206004015460ff1690565b600082815260986020526040902060010154611e2e81611fcd565b610ac883836122fe565b6001600160a01b0381166000908152602081905260409020600101805460609190611a3590613aea565b7f97667070c54ef182b0f5858b034beac1b6f3089aa2d3188bb1e8929f4fa9b929611e8c81611fcd565b506001600160a01b03919091166000908152602081905260409020600401805460ff191660ff909216919091179055565b60006001600160e01b031982167f7965db0b0000000000000000000000000000000000000000000000000000000014806108d557506108d582612789565b6000818152606860205260409020546001600160a01b0316610ee25760405162461bcd60e51b815260206004820152601860248201527f4552433732313a20696e76616c696420746f6b656e20494400000000000000006044820152606401610a27565b6000818152606a6020526040902080546001600160a01b0319166001600160a01b0384169081179091558190611f94826115fe565b6001600160a01b03167f8c5be1e5ebec7d5bd14f71427d1e84f3dd0314c0f7b2291e5b200ac8c7c3b92560405160405180910390a45050565b610ee28133612824565b600080611fe3836115fe565b9050806001600160a01b0316846001600160a01b0316148061202a57506001600160a01b038082166000908152606b602090815260408083209388168352929052205460ff165b8061204e5750836001600160a01b03166120438461096f565b6001600160a01b0316145b949350505050565b826001600160a01b0316612069826115fe565b6001600160a01b0316146120cd5760405162461bcd60e51b815260206004820152602560248201527f4552433732313a207472616e736665722066726f6d20696e636f72726563742060448201526437bbb732b960d91b6064820152608401610a27565b6001600160a01b0382166121485760405162461bcd60e51b8152602060048201526024808201527f4552433732313a207472616e7366657220746f20746865207a65726f2061646460448201527f72657373000000000000000000000000000000000000000000000000000000006064820152608401610a27565b6121558383836001612899565b826001600160a01b0316612168826115fe565b6001600160a01b0316146121cc5760405162461bcd60e51b815260206004820152602560248201527f4552433732313a207472616e736665722066726f6d20696e636f72726563742060448201526437bbb732b960d91b6064820152608401610a27565b6000818152606a6020908152604080832080546001600160a01b03199081169091556001600160a01b0387811680865260698552838620805460001901905590871680865283862080546001019055868652606890945282852080549092168417909155905184937fddf252ad1be2c89b69c2b068fc378daa952ba7f163c4a11628f55a4df523b3ef91a4610ac8565b60008281526098602090815260408083206001600160a01b038516845290915290205460ff16610d655760008281526098602090815260408083206001600160a01b03851684529091529020805460ff191660011790556122ba3390565b6001600160a01b0316816001600160a01b0316837f2f8788117e7eff1d82e926ec794901d17c78024a50270940304540a733656f0d60405160405180910390a45050565b60008281526098602090815260408083206001600160a01b038516845290915290205460ff1615610d655760008281526098602090815260408083206001600160a01b0385168085529252808320805460ff1916905551339285917ff6391f5c32d9c69d2a47ea670b442974b53935d1edc7fd64eb21e047a839171b9190a45050565b6000610d6581611fcd565b7f4910fdfa16fed3260ed0e7147f7cc6da11a60208b5b9406d12a635614ffd91435460ff16156123c4576123bf836128fb565b610ac8565b826001600160a01b03166352d1902d6040518163ffffffff1660e01b815260040160206040518083038186803b1580156123fd57600080fd5b505afa92505050801561242d575060408051601f3d908101601f1916820190925261242a918101906137cc565b60015b61249f5760405162461bcd60e51b815260206004820152602e60248201527f45524331393637557067726164653a206e657720696d706c656d656e7461746960448201527f6f6e206973206e6f7420555550530000000000000000000000000000000000006064820152608401610a27565b7f360894a13ba1a3210667c828492db98dca3e2076cc3735a920a3ca505d382bbc81146125345760405162461bcd60e51b815260206004820152602960248201527f45524331393637557067726164653a20756e737570706f727465642070726f7860448201527f6961626c655555494400000000000000000000000000000000000000000000006064820152608401610a27565b50610ac88383836129b9565b610d658282604051806020016040528060008152506129de565b816001600160a01b0316836001600160a01b031614156125bc5760405162461bcd60e51b815260206004820152601960248201527f4552433732313a20617070726f766520746f2063616c6c6572000000000000006044820152606401610a27565b6001600160a01b038381166000818152606b6020908152604080832094871680845294825291829020805460ff191686151590811790915591519182527f17307eab39ab6107e8899845ad3d59bd9653f200f220920489ca2b5937696c31910160405180910390a3505050565b612634848484612056565b61264084848484612a5c565b611b3d5760405162461bcd60e51b815260206004820152603260248201527f4552433732313a207472616e7366657220746f206e6f6e20455243373231526560448201527131b2b4bb32b91034b6b83632b6b2b73a32b960711b6064820152608401610a27565b600154610100900460ff166127125760405162461bcd60e51b815260206004820152602b60248201527f496e697469616c697a61626c653a20636f6e7472616374206973206e6f74206960448201526a6e697469616c697a696e6760a81b6064820152608401610a27565b565b600154610100900460ff1661277f5760405162461bcd60e51b815260206004820152602b60248201527f496e697469616c697a61626c653a20636f6e7472616374206973206e6f74206960448201526a6e697469616c697a696e6760a81b6064820152608401610a27565b610d658282612bb4565b60006001600160e01b031982167f80ac58cd0000000000000000000000000000000000000000000000000000000014806127ec57506001600160e01b031982167f5b5e139f00000000000000000000000000000000000000000000000000000000145b806108d557507f01ffc9a7000000000000000000000000000000000000000000000000000000006001600160e01b03198316146108d5565b60008281526098602090815260408083206001600160a01b038516845290915290205460ff16610d655761285781612c46565b612862836020612c58565b604051602001612873929190613896565b60408051601f198184030181529082905262461bcd60e51b8252610a27916004016139bb565b60408051808201909152600381527f313032000000000000000000000000000000000000000000000000000000000060208201526001600160a01b038516156128f55760405162461bcd60e51b8152600401610a2791906139bb565b50611b3d565b6001600160a01b0381163b6129785760405162461bcd60e51b815260206004820152602d60248201527f455243313936373a206e657720696d706c656d656e746174696f6e206973206e60448201527f6f74206120636f6e7472616374000000000000000000000000000000000000006064820152608401610a27565b7f360894a13ba1a3210667c828492db98dca3e2076cc3735a920a3ca505d382bbc80546001600160a01b0319166001600160a01b0392909216919091179055565b6129c283612e86565b6000825111806129cf5750805b15610ac857611b3d8383612ec6565b6129e88383612eeb565b6129f56000848484612a5c565b610ac85760405162461bcd60e51b815260206004820152603260248201527f4552433732313a207472616e7366657220746f206e6f6e20455243373231526560448201527131b2b4bb32b91034b6b83632b6b2b73a32b960711b6064820152608401610a27565b60006001600160a01b0384163b15612ba957604051630a85bd0160e11b81526001600160a01b0385169063150b7a0290612aa0903390899088908890600401613917565b602060405180830381600087803b158015612aba57600080fd5b505af1925050508015612aea575060408051601f3d908101601f19168201909252612ae791810190613822565b60015b612b8f573d808015612b18576040519150601f19603f3d011682016040523d82523d6000602084013e612b1d565b606091505b508051612b875760405162461bcd60e51b815260206004820152603260248201527f4552433732313a207472616e7366657220746f206e6f6e20455243373231526560448201527131b2b4bb32b91034b6b83632b6b2b73a32b960711b6064820152608401610a27565b805181602001fd5b6001600160e01b031916630a85bd0160e11b14905061204e565b506001949350505050565b600154610100900460ff16612c1f5760405162461bcd60e51b815260206004820152602b60248201527f496e697469616c697a61626c653a20636f6e7472616374206973206e6f74206960448201526a6e697469616c697a696e6760a81b6064820152608401610a27565b8151612c3290606690602085019061321c565b508051610ac890606790602084019061321c565b60606108d56001600160a01b03831660145b60606000612c67836002613a88565b612c72906002613a70565b67ffffffffffffffff811115612c9857634e487b7160e01b600052604160045260246000fd5b6040519080825280601f01601f191660200182016040528015612cc2576020820181803683370190505b5090507f300000000000000000000000000000000000000000000000000000000000000081600081518110612d0757634e487b7160e01b600052603260045260246000fd5b60200101906001600160f81b031916908160001a9053507f780000000000000000000000000000000000000000000000000000000000000081600181518110612d6057634e487b7160e01b600052603260045260246000fd5b60200101906001600160f81b031916908160001a9053506000612d84846002613a88565b612d8f906001613a70565b90505b6001811115612e30577f303132333435363738396162636465660000000000000000000000000000000085600f1660108110612dde57634e487b7160e01b600052603260045260246000fd5b1a60f81b828281518110612e0257634e487b7160e01b600052603260045260246000fd5b60200101906001600160f81b031916908160001a90535060049490941c93612e2981613ad3565b9050612d92565b508315612e7f5760405162461bcd60e51b815260206004820181905260248201527f537472696e67733a20686578206c656e67746820696e73756666696369656e746044820152606401610a27565b9392505050565b612e8f816128fb565b6040516001600160a01b038216907fbc7cd75a20ee27fd9adebab32041f755214dbc6bffa90cc0225b39da2e5c2d3b90600090a250565b6060612e7f8383604051806060016040528060278152602001613b6860279139613085565b6001600160a01b038216612f415760405162461bcd60e51b815260206004820181905260248201527f4552433732313a206d696e7420746f20746865207a65726f20616464726573736044820152606401610a27565b6000818152606860205260409020546001600160a01b031615612fa65760405162461bcd60e51b815260206004820152601c60248201527f4552433732313a20746f6b656e20616c7265616479206d696e746564000000006044820152606401610a27565b612fb4600083836001612899565b6000818152606860205260409020546001600160a01b0316156130195760405162461bcd60e51b815260206004820152601c60248201527f4552433732313a20746f6b656e20616c7265616479206d696e746564000000006044820152606401610a27565b6001600160a01b038216600081815260696020908152604080832080546001019055848352606890915280822080546001600160a01b0319168417905551839291907fddf252ad1be2c89b69c2b068fc378daa952ba7f163c4a11628f55a4df523b3ef908290a4610d65565b6060600080856001600160a01b0316856040516130a2919061386a565b600060405180830381855af49150503d80600081146130dd576040519150601f19603f3d011682016040523d82523d6000602084013e6130e2565b606091505b50915091506130f3868383876130fd565b9695505050505050565b60608315613169578251613162576001600160a01b0385163b6131625760405162461bcd60e51b815260206004820152601d60248201527f416464726573733a2063616c6c20746f206e6f6e2d636f6e74726163740000006044820152606401610a27565b508161204e565b61204e838381511561317e5781518083602001fd5b8060405162461bcd60e51b8152600401610a2791906139bb565b8280546131a490613aea565b90600052602060002090601f0160209004810192826131c6576000855561320c565b82601f106131df5782800160ff1982351617855561320c565b8280016001018555821561320c579182015b8281111561320c5782358255916020019190600101906131f1565b50613218929150613290565b5090565b82805461322890613aea565b90600052602060002090601f01602090048101928261324a576000855561320c565b82601f1061326357805160ff191683800117855561320c565b8280016001018555821561320c579182015b8281111561320c578251825591602001919060010190613275565b5b808211156132185760008155600101613291565b80356001600160a01b03811681146108d857600080fd5b600082601f8301126132cc578081fd5b813567ffffffffffffffff808211156132e7576132e7613b3b565b604051601f8301601f19908116603f0116810190828211818310171561330f5761330f613b3b565b81604052838152866020858801011115613327578485fd5b8360208701602083013792830160200193909352509392505050565b60008083601f840112613354578182fd5b50813567ffffffffffffffff81111561336b578182fd5b60208301915083602082850101111561338357600080fd5b9250929050565b803560ff811681146108d857600080fd5b6000602082840312156133ac578081fd5b612e7f826132a5565b600080604083850312156133c7578081fd5b6133d0836132a5565b91506133de602084016132a5565b90509250929050565b6000806000606084860312156133fb578081fd5b613404846132a5565b9250613412602085016132a5565b9150613420604085016132a5565b90509250925092565b60008060006060848603121561343d578283fd5b613446846132a5565b9250613454602085016132a5565b9150604084013590509250925092565b60008060008060808587031215613479578081fd5b613482856132a5565b9350613490602086016132a5565b925060408501359150606085013567ffffffffffffffff8111156134b2578182fd5b6134be878288016132bc565b91505092959194509250565b600080604083850312156134dc578182fd5b6134e5836132a5565b9150602083013580151581146134f9578182fd5b809150509250929050565b60008060408385031215613516578182fd5b61351f836132a5565b9150602083013567ffffffffffffffff81111561353a578182fd5b613546858286016132bc565b9150509250929050565b600080600060408486031215613564578283fd5b61356d846132a5565b9250602084013567ffffffffffffffff811115613588578283fd5b61359486828701613343565b9497909650939450505050565b60008060008060008060008060c0898b0312156135bc578384fd5b6135c5896132a5565b9750602089013567ffffffffffffffff808211156135e1578586fd5b6135ed8c838d01613343565b909950975087915061360160408c0161338a565b965061360f60608c0161338a565b955060808b0135945060a08b013591508082111561362b578384fd5b506136388b828c01613343565b999c989b5096995094979396929594505050565b600080600080600080600080600060e08a8c031215613669578081fd5b6136728a6132a5565b985060208a013567ffffffffffffffff8082111561368e578283fd5b61369a8d838e01613343565b909a5098508891506136ae60408d0161338a565b97506136bc60608d0161338a565b965060808c013595506136d160a08d0161338a565b945060c08c01359150808211156136e6578283fd5b506136f38c828d01613343565b915080935050809150509295985092959850929598565b6000806040838503121561371c578182fd5b613725836132a5565b946020939093013593505050565b60008060008060608587031215613748578182fd5b613751856132a5565b935060208501359250604085013567ffffffffffffffff811115613773578283fd5b61377f87828801613343565b95989497509550505050565b6000806040838503121561379d578182fd5b6137a6836132a5565b91506133de6020840161338a565b6000602082840312156137c5578081fd5b5035919050565b6000602082840312156137dd578081fd5b5051919050565b600080604083850312156137f6578182fd5b823591506133de602084016132a5565b600060208284031215613817578081fd5b8135612e7f81613b51565b600060208284031215613833578081fd5b8151612e7f81613b51565b60008151808452613856816020860160208601613aa7565b601f01601f19169290920160200192915050565b6000825161387c818460208701613aa7565b9190910192915050565b6000828483379101908152919050565b60007f416363657373436f6e74726f6c3a206163636f756e7420000000000000000000825283516138ce816017850160208801613aa7565b7f206973206d697373696e6720726f6c6520000000000000000000000000000000601791840191820152835161390b816028840160208801613aa7565b01602801949350505050565b60006001600160a01b038087168352808616602084015250836040830152608060608301526130f3608083018461383e565b60006001600160a01b03831682526060602083015261397e606083016006815265484156454e3160d01b602082015260400190565b828103604093840152600681527f565443414c4c000000000000000000000000000000000000000000000000000060208201529190910192915050565b600060208252612e7f602083018461383e565b6000606082526139f4606083016006815265484156454e3160d01b602082015260400190565b6001600160a01b03949094166020830152506040015290565b60006020825282516020830152602083015160c06040840152613a3360e084018261383e565b905060ff604085015116606084015260ff6060850151166080840152608084015160a084015260ff60a08501511660c08401528091505092915050565b60008219821115613a8357613a83613b25565b500190565b6000816000190483118215151615613aa257613aa2613b25565b500290565b60005b83811015613ac2578181015183820152602001613aaa565b83811115611b3d5750506000910152565b600081613ae257613ae2613b25565b506000190190565b600281046001821680613afe57607f821691505b60208210811415613b1f57634e487b7160e01b600052602260045260246000fd5b50919050565b634e487b7160e01b600052601160045260246000fd5b634e487b7160e01b600052604160045260246000fd5b6001600160e01b031981168114610ee257600080fdfe416464726573733a206c6f772d6c6576656c2064656c65676174652063616c6c206661696c6564a264697066735822122016231fa300a7c93e8249d29e44db99edab9830f7dc47d8b042c815657a1b198564736f6c63430008020033",
  "linkReferences": {},
  "deployedLinkReferences": {}
}