{
  "_format": "hh-sol-artifact-1",
  "contractName": "ProofOfIdentity",
  "sourceName": "contracts/ProofOfIdentity.sol",
  "abi": [
    {
      "anonymous": false,
      "inputs": [
        {
          "indexed": true,
          "internalType": "address",
          "name": "account",
          "type": "address"
        },
        {
          "indexed": true,
          "internalType": "uint256",
          "name": "tokenId",
          "type": "uint256"
        },
        {
          "indexed": true,
          "internalType": "string",
          "name": "reason",
          "type": "string"
        }
      ],
      "name": "AccountSuspendedTokenBurned",
      "type": "event"
    },
    {
      "anonymous": false,
      "inputs": [
        {
          "indexed": true,
          "internalType": "address",
          "name": "account",
          "type": "address"
        },
        {
          "indexed": true,
          "internalType": "string",
          "name": "reason",
          "type": "string"
        }
      ],
      "name": "AccountSuspendedTokenMaintained",
      "type": "event"
    },
    {
      "anonymous": false,
      "inputs": [
        {
          "indexed": true,
          "internalType": "address",
          "name": "owner",
          "type": "address"
        },
        {
          "indexed": true,
          "internalType": "address",
          "name": "approved",
          "type": "address"
        },
        {
          "indexed": true,
          "internalType": "uint256",
          "name": "tokenId",
          "type": "uint256"
        }
      ],
      "name": "Approval",
      "type": "event"
    },
    {
      "anonymous": false,
      "inputs": [
        {
          "indexed": true,
          "internalType": "address",
          "name": "owner",
          "type": "address"
        },
        {
          "indexed": true,
          "internalType": "address",
          "name": "operator",
          "type": "address"
        },
        {
          "indexed": false,
          "internalType": "bool",
          "name": "approved",
          "type": "bool"
        }
      ],
      "name": "ApprovalForAll",
      "type": "event"
    },
    {
      "anonymous": false,
      "inputs": [
        {
          "indexed": true,
          "internalType": "address",
          "name": "account",
          "type": "address"
        },
        {
          "indexed": true,
          "internalType": "uint256",
          "name": "tokenId",
          "type": "uint256"
        }
      ],
      "name": "IdentityMinted",
      "type": "event"
    },
    {
      "anonymous": false,
      "inputs": [
        {
          "indexed": true,
          "internalType": "address",
          "name": "account",
          "type": "address"
        },
        {
          "indexed": true,
          "internalType": "uint256",
          "name": "tokenId",
          "type": "uint256"
        }
      ],
      "name": "IdentityUpdated",
      "type": "event"
    },
    {
      "anonymous": false,
      "inputs": [
        {
          "indexed": false,
          "internalType": "uint8",
          "name": "version",
          "type": "uint8"
        }
      ],
      "name": "Initialized",
      "type": "event"
    },
    {
      "anonymous": false,
      "inputs": [
        {
          "indexed": true,
          "internalType": "bytes32",
          "name": "role",
          "type": "bytes32"
        },
        {
          "indexed": true,
          "internalType": "bytes32",
          "name": "previousAdminRole",
          "type": "bytes32"
        },
        {
          "indexed": true,
          "internalType": "bytes32",
          "name": "newAdminRole",
          "type": "bytes32"
        }
      ],
      "name": "RoleAdminChanged",
      "type": "event"
    },
    {
      "anonymous": false,
      "inputs": [
        {
          "indexed": true,
          "internalType": "bytes32",
          "name": "role",
          "type": "bytes32"
        },
        {
          "indexed": true,
          "internalType": "address",
          "name": "account",
          "type": "address"
        },
        {
          "indexed": true,
          "internalType": "address",
          "name": "sender",
          "type": "address"
        }
      ],
      "name": "RoleGranted",
      "type": "event"
    },
    {
      "anonymous": false,
      "inputs": [
        {
          "indexed": true,
          "internalType": "bytes32",
          "name": "role",
          "type": "bytes32"
        },
        {
          "indexed": true,
          "internalType": "address",
          "name": "account",
          "type": "address"
        },
        {
          "indexed": true,
          "internalType": "address",
          "name": "sender",
          "type": "address"
        }
      ],
      "name": "RoleRevoked",
      "type": "event"
    },
    {
      "anonymous": false,
      "inputs": [
        {
          "indexed": true,
          "internalType": "address",
          "name": "account",
          "type": "address"
        },
        {
          "indexed": true,
          "internalType": "uint256",
          "name": "tokenId",
          "type": "uint256"
        },
        {
          "indexed": true,
          "internalType": "string",
          "name": "newURI",
          "type": "string"
        }
      ],
      "name": "TokenURIUpdated",
      "type": "event"
    },
    {
      "anonymous": false,
      "inputs": [
        {
          "indexed": true,
          "internalType": "address",
          "name": "from",
          "type": "address"
        },
        {
          "indexed": true,
          "internalType": "address",
          "name": "to",
          "type": "address"
        },
        {
          "indexed": true,
          "internalType": "uint256",
          "name": "tokenId",
          "type": "uint256"
        }
      ],
      "name": "Transfer",
      "type": "event"
    },
    {
      "inputs": [],
      "name": "DEFAULT_ADMIN_ROLE",
      "outputs": [
        {
          "internalType": "bytes32",
          "name": "",
          "type": "bytes32"
        }
      ],
      "stateMutability": "view",
      "type": "function"
    },
    {
      "inputs": [],
      "name": "PROVER_ROLE",
      "outputs": [
        {
          "internalType": "bytes32",
          "name": "",
          "type": "bytes32"
        }
      ],
      "stateMutability": "view",
      "type": "function"
    },
    {
      "inputs": [
        {
          "internalType": "address",
          "name": "to",
          "type": "address"
        },
        {
          "internalType": "uint256",
          "name": "tokenId",
          "type": "uint256"
        }
      ],
      "name": "approve",
      "outputs": [],
      "stateMutability": "nonpayable",
      "type": "function"
    },
    {
      "inputs": [
        {
          "internalType": "address",
          "name": "owner",
          "type": "address"
        }
      ],
      "name": "balanceOf",
      "outputs": [
        {
          "internalType": "uint256",
          "name": "",
          "type": "uint256"
        }
      ],
      "stateMutability": "view",
      "type": "function"
    },
    {
      "inputs": [
        {
          "internalType": "bytes8",
          "name": "c__02edf0db",
          "type": "bytes8"
        }
      ],
      "name": "c_02edf0db",
      "outputs": [],
      "stateMutability": "pure",
      "type": "function"
    },
    {
      "inputs": [
        {
          "internalType": "bytes8",
          "name": "c__39e378f6",
          "type": "bytes8"
        }
      ],
      "name": "c_39e378f6",
      "outputs": [],
      "stateMutability": "pure",
      "type": "function"
    },
    {
      "inputs": [
        {
          "internalType": "bytes8",
          "name": "c__6f26603d",
          "type": "bytes8"
        }
      ],
      "name": "c_6f26603d",
      "outputs": [],
      "stateMutability": "pure",
      "type": "function"
    },
    {
      "inputs": [
        {
          "internalType": "bytes8",
          "name": "c__b8c9e965",
          "type": "bytes8"
        }
      ],
      "name": "c_b8c9e965",
      "outputs": [],
      "stateMutability": "pure",
      "type": "function"
    },
    {
      "inputs": [
        {
          "internalType": "bytes8",
          "name": "c__02edf0db",
          "type": "bytes8"
        }
      ],
      "name": "c_false02edf0db",
      "outputs": [
        {
          "internalType": "bool",
          "name": "",
          "type": "bool"
        }
      ],
      "stateMutability": "pure",
      "type": "function"
    },
    {
      "inputs": [
        {
          "internalType": "bytes8",
          "name": "c__39e378f6",
          "type": "bytes8"
        }
      ],
      "name": "c_false39e378f6",
      "outputs": [
        {
          "internalType": "bool",
          "name": "",
          "type": "bool"
        }
      ],
      "stateMutability": "pure",
      "type": "function"
    },
    {
      "inputs": [
        {
          "internalType": "bytes8",
          "name": "c__6f26603d",
          "type": "bytes8"
        }
      ],
      "name": "c_false6f26603d",
      "outputs": [
        {
          "internalType": "bool",
          "name": "",
          "type": "bool"
        }
      ],
      "stateMutability": "pure",
      "type": "function"
    },
    {
      "inputs": [
        {
          "internalType": "bytes8",
          "name": "c__b8c9e965",
          "type": "bytes8"
        }
      ],
      "name": "c_falseb8c9e965",
      "outputs": [
        {
          "internalType": "bool",
          "name": "",
          "type": "bool"
        }
      ],
      "stateMutability": "pure",
      "type": "function"
    },
    {
      "inputs": [
        {
          "internalType": "bytes8",
          "name": "c__02edf0db",
          "type": "bytes8"
        }
      ],
      "name": "c_true02edf0db",
      "outputs": [
        {
          "internalType": "bool",
          "name": "",
          "type": "bool"
        }
      ],
      "stateMutability": "pure",
      "type": "function"
    },
    {
      "inputs": [
        {
          "internalType": "bytes8",
          "name": "c__39e378f6",
          "type": "bytes8"
        }
      ],
      "name": "c_true39e378f6",
      "outputs": [
        {
          "internalType": "bool",
          "name": "",
          "type": "bool"
        }
      ],
      "stateMutability": "pure",
      "type": "function"
    },
    {
      "inputs": [
        {
          "internalType": "bytes8",
          "name": "c__6f26603d",
          "type": "bytes8"
        }
      ],
      "name": "c_true6f26603d",
      "outputs": [
        {
          "internalType": "bool",
          "name": "",
          "type": "bool"
        }
      ],
      "stateMutability": "pure",
      "type": "function"
    },
    {
      "inputs": [
        {
          "internalType": "bytes8",
          "name": "c__b8c9e965",
          "type": "bytes8"
        }
      ],
      "name": "c_trueb8c9e965",
      "outputs": [
        {
          "internalType": "bool",
          "name": "",
          "type": "bool"
        }
      ],
      "stateMutability": "pure",
      "type": "function"
    },
    {
      "inputs": [
        {
          "internalType": "uint256",
          "name": "tokenId",
          "type": "uint256"
        }
      ],
      "name": "getApproved",
      "outputs": [
        {
          "internalType": "address",
          "name": "",
          "type": "address"
        }
      ],
      "stateMutability": "view",
      "type": "function"
    },
    {
      "inputs": [],
      "name": "getCurrentTokenId",
      "outputs": [
        {
          "internalType": "uint256",
          "name": "",
          "type": "uint256"
        }
      ],
      "stateMutability": "view",
      "type": "function"
    },
    {
      "inputs": [
        {
          "internalType": "bytes32",
          "name": "role",
          "type": "bytes32"
        }
      ],
      "name": "getRoleAdmin",
      "outputs": [
        {
          "internalType": "bytes32",
          "name": "",
          "type": "bytes32"
        }
      ],
      "stateMutability": "view",
      "type": "function"
    },
    {
      "inputs": [
        {
          "internalType": "address",
          "name": "account",
          "type": "address"
        }
      ],
      "name": "getUserAccountCountryCode",
      "outputs": [
        {
          "internalType": "string",
          "name": "userAccountCountryCode",
          "type": "string"
        }
      ],
      "stateMutability": "view",
      "type": "function"
    },
    {
      "inputs": [
        {
          "internalType": "address",
          "name": "account",
          "type": "address"
        }
      ],
      "name": "getUserAccountCountryCodePreventOnExpiry",
      "outputs": [
        {
          "internalType": "string",
          "name": "userAccountCountryCode",
          "type": "string"
        }
      ],
      "stateMutability": "view",
      "type": "function"
    },
    {
      "inputs": [
        {
          "internalType": "address",
          "name": "account",
          "type": "address"
        }
      ],
      "name": "getUserAccountExpiry",
      "outputs": [
        {
          "internalType": "uint256",
          "name": "userAccountExpiry",
          "type": "uint256"
        }
      ],
      "stateMutability": "view",
      "type": "function"
    },
    {
      "inputs": [
        {
          "internalType": "address",
          "name": "account",
          "type": "address"
        }
      ],
      "name": "getUserAccountIdentityBlob",
      "outputs": [
        {
          "components": [
            {
              "internalType": "uint256",
              "name": "tokenId",
              "type": "uint256"
            },
            {
              "internalType": "string",
              "name": "countryCode",
              "type": "string"
            },
            {
              "internalType": "uint8",
              "name": "userType",
              "type": "uint8"
            },
            {
              "internalType": "uint8",
              "name": "level",
              "type": "uint8"
            },
            {
              "internalType": "uint256",
              "name": "expiry",
              "type": "uint256"
            }
          ],
          "internalType": "struct RoleVerification.IdentityBlob",
          "name": "userIdentityBlob",
          "type": "tuple"
        }
      ],
      "stateMutability": "view",
      "type": "function"
    },
    {
      "inputs": [
        {
          "internalType": "address",
          "name": "account",
          "type": "address"
        }
      ],
      "name": "getUserAccountLevel",
      "outputs": [
        {
          "internalType": "uint8",
          "name": "userAccountLevel",
          "type": "uint8"
        }
      ],
      "stateMutability": "view",
      "type": "function"
    },
    {
      "inputs": [
        {
          "internalType": "address",
          "name": "account",
          "type": "address"
        }
      ],
      "name": "getUserAccountLevelPreventOnExpiry",
      "outputs": [
        {
          "internalType": "uint8",
          "name": "",
          "type": "uint8"
        }
      ],
      "stateMutability": "view",
      "type": "function"
    },
    {
      "inputs": [
        {
          "internalType": "address",
          "name": "account",
          "type": "address"
        }
      ],
      "name": "getUserAccountType",
      "outputs": [
        {
          "internalType": "uint8",
          "name": "userAccountType",
          "type": "uint8"
        }
      ],
      "stateMutability": "view",
      "type": "function"
    },
    {
      "inputs": [
        {
          "internalType": "address",
          "name": "account",
          "type": "address"
        }
      ],
      "name": "getUserAccountTypePreventOnExpiry",
      "outputs": [
        {
          "internalType": "uint8",
          "name": "",
          "type": "uint8"
        }
      ],
      "stateMutability": "view",
      "type": "function"
    },
    {
      "inputs": [
        {
          "internalType": "bytes32",
          "name": "role",
          "type": "bytes32"
        },
        {
          "internalType": "address",
          "name": "account",
          "type": "address"
        }
      ],
      "name": "grantRole",
      "outputs": [],
      "stateMutability": "nonpayable",
      "type": "function"
    },
    {
      "inputs": [
        {
          "internalType": "bytes32",
          "name": "role",
          "type": "bytes32"
        },
        {
          "internalType": "address",
          "name": "account",
          "type": "address"
        }
      ],
      "name": "hasRole",
      "outputs": [
        {
          "internalType": "bool",
          "name": "",
          "type": "bool"
        }
      ],
      "stateMutability": "view",
      "type": "function"
    },
    {
      "inputs": [
        {
          "internalType": "address",
          "name": "",
          "type": "address"
        }
      ],
      "name": "identityBlob",
      "outputs": [
        {
          "internalType": "uint256",
          "name": "tokenId",
          "type": "uint256"
        },
        {
          "internalType": "string",
          "name": "countryCode",
          "type": "string"
        },
        {
          "internalType": "uint8",
          "name": "userType",
          "type": "uint8"
        },
        {
          "internalType": "uint8",
          "name": "level",
          "type": "uint8"
        },
        {
          "internalType": "uint256",
          "name": "expiry",
          "type": "uint256"
        }
      ],
      "stateMutability": "view",
      "type": "function"
    },
    {
      "inputs": [
        {
          "internalType": "address",
          "name": "permissionsInterface",
          "type": "address"
        }
      ],
      "name": "initialize",
      "outputs": [],
      "stateMutability": "nonpayable",
      "type": "function"
    },
    {
      "inputs": [
        {
          "internalType": "address",
          "name": "owner",
          "type": "address"
        },
        {
          "internalType": "address",
          "name": "operator",
          "type": "address"
        }
      ],
      "name": "isApprovedForAll",
      "outputs": [
        {
          "internalType": "bool",
          "name": "",
          "type": "bool"
        }
      ],
      "stateMutability": "view",
      "type": "function"
    },
    {
      "inputs": [
        {
          "internalType": "address",
          "name": "account",
          "type": "address"
        },
        {
          "internalType": "string",
          "name": "countryCode",
          "type": "string"
        },
        {
          "internalType": "uint8",
          "name": "userType",
          "type": "uint8"
        },
        {
          "internalType": "uint8",
          "name": "level",
          "type": "uint8"
        },
        {
          "internalType": "uint256",
          "name": "expiry",
          "type": "uint256"
        },
        {
          "internalType": "string",
          "name": "tokenUri",
          "type": "string"
        }
      ],
      "name": "mintIdentity",
      "outputs": [],
      "stateMutability": "nonpayable",
      "type": "function"
    },
    {
      "inputs": [],
      "name": "name",
      "outputs": [
        {
          "internalType": "string",
          "name": "",
          "type": "string"
        }
      ],
      "stateMutability": "view",
      "type": "function"
    },
    {
      "inputs": [
        {
          "internalType": "uint256",
          "name": "tokenId",
          "type": "uint256"
        }
      ],
      "name": "ownerOf",
      "outputs": [
        {
          "internalType": "address",
          "name": "",
          "type": "address"
        }
      ],
      "stateMutability": "view",
      "type": "function"
    },
    {
      "inputs": [
        {
          "internalType": "bytes32",
          "name": "role",
          "type": "bytes32"
        },
        {
          "internalType": "address",
          "name": "account",
          "type": "address"
        }
      ],
      "name": "renounceRole",
      "outputs": [],
      "stateMutability": "nonpayable",
      "type": "function"
    },
    {
      "inputs": [
        {
          "internalType": "bytes32",
          "name": "role",
          "type": "bytes32"
        },
        {
          "internalType": "address",
          "name": "account",
          "type": "address"
        }
      ],
      "name": "revokeRole",
      "outputs": [],
      "stateMutability": "nonpayable",
      "type": "function"
    },
    {
      "inputs": [
        {
          "internalType": "address",
          "name": "from",
          "type": "address"
        },
        {
          "internalType": "address",
          "name": "to",
          "type": "address"
        },
        {
          "internalType": "uint256",
          "name": "tokenId",
          "type": "uint256"
        }
      ],
      "name": "safeTransferFrom",
      "outputs": [],
      "stateMutability": "nonpayable",
      "type": "function"
    },
    {
      "inputs": [
        {
          "internalType": "address",
          "name": "from",
          "type": "address"
        },
        {
          "internalType": "address",
          "name": "to",
          "type": "address"
        },
        {
          "internalType": "uint256",
          "name": "tokenId",
          "type": "uint256"
        },
        {
          "internalType": "bytes",
          "name": "data",
          "type": "bytes"
        }
      ],
      "name": "safeTransferFrom",
      "outputs": [],
      "stateMutability": "nonpayable",
      "type": "function"
    },
    {
      "inputs": [
        {
          "internalType": "address",
          "name": "operator",
          "type": "address"
        },
        {
          "internalType": "bool",
          "name": "approved",
          "type": "bool"
        }
      ],
      "name": "setApprovalForAll",
      "outputs": [],
      "stateMutability": "nonpayable",
      "type": "function"
    },
    {
      "inputs": [
        {
          "internalType": "bytes4",
          "name": "interfaceId",
          "type": "bytes4"
        }
      ],
      "name": "supportsInterface",
      "outputs": [
        {
          "internalType": "bool",
          "name": "",
          "type": "bool"
        }
      ],
      "stateMutability": "view",
      "type": "function"
    },
    {
      "inputs": [
        {
          "internalType": "address",
          "name": "suspendAccount",
          "type": "address"
        },
        {
          "internalType": "string",
          "name": "reason",
          "type": "string"
        }
      ],
      "name": "suspendAccountDeleteTokenAndIdentityBlob",
      "outputs": [],
      "stateMutability": "nonpayable",
      "type": "function"
    },
    {
      "inputs": [
        {
          "internalType": "address",
          "name": "suspendAddress",
          "type": "address"
        },
        {
          "internalType": "string",
          "name": "reason",
          "type": "string"
        }
      ],
      "name": "suspendAccountMaintainTokenAndIdentityBlob",
      "outputs": [],
      "stateMutability": "nonpayable",
      "type": "function"
    },
    {
      "inputs": [],
      "name": "symbol",
      "outputs": [
        {
          "internalType": "string",
          "name": "",
          "type": "string"
        }
      ],
      "stateMutability": "view",
      "type": "function"
    },
    {
      "inputs": [
        {
          "internalType": "uint256",
          "name": "tokenId",
          "type": "uint256"
        }
      ],
      "name": "tokenURI",
      "outputs": [
        {
          "internalType": "string",
          "name": "",
          "type": "string"
        }
      ],
      "stateMutability": "view",
      "type": "function"
    },
    {
      "inputs": [
        {
          "internalType": "address",
          "name": "from",
          "type": "address"
        },
        {
          "internalType": "address",
          "name": "to",
          "type": "address"
        },
        {
          "internalType": "uint256",
          "name": "tokenId",
          "type": "uint256"
        }
      ],
      "name": "transferFrom",
      "outputs": [],
      "stateMutability": "nonpayable",
      "type": "function"
    },
    {
      "inputs": [
        {
          "internalType": "address",
          "name": "account",
          "type": "address"
        },
        {
          "internalType": "string",
          "name": "countryCode",
          "type": "string"
        },
        {
          "internalType": "uint8",
          "name": "userType",
          "type": "uint8"
        },
        {
          "internalType": "uint8",
          "name": "level",
          "type": "uint8"
        },
        {
          "internalType": "uint256",
          "name": "expiry",
          "type": "uint256"
        }
      ],
      "name": "updateIdentity",
      "outputs": [],
      "stateMutability": "nonpayable",
      "type": "function"
    },
    {
      "inputs": [
        {
          "internalType": "address",
          "name": "account",
          "type": "address"
        },
        {
          "internalType": "string",
          "name": "tokenUri",
          "type": "string"
        }
      ],
      "name": "updateTokenURI",
      "outputs": [],
      "stateMutability": "nonpayable",
      "type": "function"
    }
  ],
  "bytecode": "0x608060405234801561001057600080fd5b5061607580620000216000396000f3fe608060405234801561001057600080fd5b50600436106102a05760003560e01c806391d1485411610167578063d4ec9096116100ce578063e2d0795911610087578063e2d0795914610903578063e86573e414610933578063e985e9c51461094f578063ec4d57b31461097f578063ec8957311461099b578063f6a4b4d7146109cb576102a0565b8063d4ec909614610831578063d547741f1461084d578063dc9a4ef614610869578063dd9e939214610887578063dee4c709146108a3578063dfb24b89146108d3576102a0565b8063b467177f11610120578063b467177f14610739578063b88d4fde14610769578063c207e9e014610785578063c4d66de8146107b5578063c8755ecf146107d1578063c87b56dd14610801576102a0565b806391d1485414610651578063949cdd6e1461068157806395d89b41146106b157806396257e4d146106cf578063a217fddf146106ff578063a22cb4651461071d576102a0565b806342842e0e1161020b5780636c193733116101c45780636c1937331461056d5780636ca5fde8146105895780636f905bfc146105b957806370a08231146105d557806380a5a896146106055780638925497514610621576102a0565b806342842e0e1461046f578063561892361461048b5780635afc5755146104a95780636352211e146104d95780636782b1b114610509578063688ea9fe14610539576102a0565b806323b872dd1161025d57806323b872dd1461039f578063248a9ca3146103bb57806326aeeeff146103eb5780632f2ff15d1461041b57806336568abe146104375780633bc2c07814610453576102a0565b806301ffc9a7146102a557806306fdde03146102d5578063081812fc146102f357806309299ea314610323578063095ea7b3146103535780631fe0094a1461036f575b600080fd5b6102bf60048036038101906102ba9190614dfe565b6109e7565b6040516102cc9190615434565b60405180910390f35b6102dd610a35565b6040516102ea9190615485565b60405180910390f35b61030d60048036038101906103089190614e79565b610ac7565b60405161031a919061538c565b60405180910390f35b61033d60048036038101906103389190614a45565b610b0d565b60405161034a91906156e5565b60405180910390f35b61036d60048036038101906103689190614d5d565b610b94565b005b61038960048036038101906103849190614a45565b610cac565b604051610396919061575a565b60405180910390f35b6103b960048036038101906103b49190614aaa565b610e72565b005b6103d560048036038101906103d09190614d99565b610f20565b6040516103e2919061544f565b60405180910390f35b61040560048036038101906104009190614e50565b610f40565b6040516104129190615434565b60405180910390f35b61043560048036038101906104309190614dc2565b610f4b565b005b610451600480360381019061044c9190614dc2565b610f6c565b005b61046d60048036038101906104689190614bb0565b610fef565b005b61048960048036038101906104849190614aaa565b6112d2565b005b610493611380565b6040516104a091906156e5565b60405180910390f35b6104c360048036038101906104be9190614e50565b6113cd565b6040516104d09190615434565b60405180910390f35b6104f360048036038101906104ee9190614e79565b6113d4565b604051610500919061538c565b60405180910390f35b610523600480360381019061051e9190614e50565b61145b565b6040516105309190615434565b60405180910390f35b610553600480360381019061054e9190614a45565b611466565b604051610564959493929190615700565b60405180910390f35b61058760048036038101906105829190614e50565b61153e565b005b6105a3600480360381019061059e9190614a45565b611541565b6040516105b091906156c3565b60405180910390f35b6105d360048036038101906105ce9190614e50565b6116b5565b005b6105ef60048036038101906105ea9190614a45565b6116b8565b6040516105fc91906156e5565b60405180910390f35b61061f600480360381019061061a9190614bb0565b611770565b005b61063b60048036038101906106369190614e50565b611917565b6040516106489190615434565b60405180910390f35b61066b60048036038101906106669190614dc2565b611922565b6040516106789190615434565b60405180910390f35b61069b60048036038101906106969190614a45565b61198d565b6040516106a8919061575a565b60405180910390f35b6106b9611b53565b6040516106c69190615485565b60405180910390f35b6106e960048036038101906106e49190614a45565b611be5565b6040516106f69190615485565b60405180910390f35b610707611e26565b604051610714919061544f565b60405180910390f35b61073760048036038101906107329190614b74565b611e2d565b005b610753600480360381019061074e9190614a45565b611e43565b604051610760919061575a565b60405180910390f35b610783600480360381019061077e9190614af9565b611ed7565b005b61079f600480360381019061079a9190614a45565b611f39565b6040516107ac919061575a565b60405180910390f35b6107cf60048036038101906107ca9190614a45565b611fcd565b005b6107eb60048036038101906107e69190614e50565b61231a565b6040516107f89190615434565b60405180910390f35b61081b60048036038101906108169190614e79565b612321565b6040516108289190615485565b60405180910390f35b61084b60048036038101906108469190614c9a565b6124d3565b005b61086760048036038101906108629190614dc2565b612a67565b005b610871612a88565b60405161087e919061544f565b60405180910390f35b6108a1600480360381019061089c9190614e50565b612aac565b005b6108bd60048036038101906108b89190614e50565b612aaf565b6040516108ca9190615434565b60405180910390f35b6108ed60048036038101906108e89190614a45565b612aba565b6040516108fa9190615485565b60405180910390f35b61091d60048036038101906109189190614e50565b612bc9565b60405161092a9190615434565b60405180910390f35b61094d60048036038101906109489190614c08565b612bd0565b005b61096960048036038101906109649190614a6e565b612f27565b6040516109769190615434565b60405180910390f35b61099960048036038101906109949190614e50565b612fbb565b005b6109b560048036038101906109b09190614e50565b612fbe565b6040516109c29190615434565b60405180910390f35b6109e560048036038101906109e09190614bb0565b612fc5565b005b60006109fd67bb394ff96495738360c01b6116b5565b610a116751deb66d5108742160c01b6116b5565b610a256740a84345ff486f4060c01b6116b5565b610a2e8261322a565b9050919050565b606060668054610a4490615a16565b80601f0160208091040260200160405190810160405280929190818152602001828054610a7090615a16565b8015610abd5780601f10610a9257610100808354040283529160200191610abd565b820191906000526020600020905b815481529060010190602001808311610aa057829003601f168201915b5050505050905090565b6000610ad2826132a4565b606a600083815260200190815260200160002060009054906101000a900473ffffffffffffffffffffffffffffffffffffffff169050919050565b6000610b2367c1c9ef872120ad4c60c01b612fbb565b610b376722a4df8a42ceaa6160c01b612fbb565b610b4b6794447c4bb948903360c01b612fbb565b6000808373ffffffffffffffffffffffffffffffffffffffff1673ffffffffffffffffffffffffffffffffffffffff168152602001908152602001600020600301549050919050565b6000610b9f826113d4565b90508073ffffffffffffffffffffffffffffffffffffffff168373ffffffffffffffffffffffffffffffffffffffff161415610c10576040517f08c379a0000000000000000000000000000000000000000000000000000000008152600401610c0790615643565b60405180910390fd5b8073ffffffffffffffffffffffffffffffffffffffff16610c2f6132ef565b73ffffffffffffffffffffffffffffffffffffffff161480610c5e5750610c5d81610c586132ef565b612f27565b5b610c9d576040517f08c379a0000000000000000000000000000000000000000000000000000000008152600401610c9490615663565b60405180910390fd5b610ca783836132f7565b505050565b6000610cc2678a8a08e8027046c760c01b612aac565b610cd66791c41a347ba64e9660c01b612aac565b610cea679881f450aa1ce9eb60c01b612aac565b6000808373ffffffffffffffffffffffffffffffffffffffff1673ffffffffffffffffffffffffffffffffffffffff168152602001908152602001600020600301544210610de057610d4667312e0ffaf24bb87460c01b612aac565b610d5a67c78863f958234bc560c01b612aac565b610d6e67c5c511546c50c45160c01b612aac565b6040518060400160405280600381526020017f31303300000000000000000000000000000000000000000000000000000000008152506040517f08c379a0000000000000000000000000000000000000000000000000000000008152600401610dd79190615485565b60405180910390fd5b610df46706dae439f14a554160c01b612aac565b610e0867d9a43cd54b2554f860c01b612aac565b610e1c67b80c4d30135ffecc60c01b612aac565b6000808373ffffffffffffffffffffffffffffffffffffffff1673ffffffffffffffffffffffffffffffffffffffff16815260200190815260200160002060020160009054906101000a900460ff169050919050565b610e866754ffdbd468219e9660c01b6116b5565b610e9a677647c4bc02b8e54e60c01b6116b5565b610eae67ae1d078a9d37a4b260c01b6116b5565b6040518060400160405280600381526020017f31303200000000000000000000000000000000000000000000000000000000008152506040517f08c379a0000000000000000000000000000000000000000000000000000000008152600401610f179190615485565b60405180910390fd5b600060986000838152602001908152602001600020600101549050919050565b600060019050919050565b610f5482610f20565b610f5d816133b0565b610f6783836133c4565b505050565b610f746132ef565b73ffffffffffffffffffffffffffffffffffffffff168173ffffffffffffffffffffffffffffffffffffffff1614610fe1576040517f08c379a0000000000000000000000000000000000000000000000000000000008152600401610fd8906156a3565b60405180910390fd5b610feb82826134a5565b5050565b61100367f194068af4ab0a2260c01b6116b5565b7f60044782a422109ac08a415e44260ad5d3bad63d96ebe1fac0363399642ee3f261102d816133b0565b611041676ddddebdc742663a60c01b6116b5565b611055676b4efcc6cca0c3fd60c01b6116b5565b61106967845d0b140a93c12560c01b6116b5565b61107d6773ee7804a611c94760c01b6116b5565b60cb60009054906101000a900473ffffffffffffffffffffffffffffffffffffffff1673ffffffffffffffffffffffffffffffffffffffff166384b7a84a8560016040518363ffffffff1660e01b81526004016110db9291906155e7565b600060405180830381600087803b1580156110f557600080fd5b505af1158015611109573d6000803e3d6000fd5b50505050611121674261c4441178f68f60c01b6116b5565b61113567147b0824d5c52d1e60c01b6116b5565b600060cc60008673ffffffffffffffffffffffffffffffffffffffff1673ffffffffffffffffffffffffffffffffffffffff16815260200190815260200160002054905061118d67ac09fd51df6bbb5460c01b6116b5565b6111a1679dac79938abcf8d060c01b6116b5565b6111aa81613587565b6111be67015076a70c0af72c60c01b6116b5565b6000808673ffffffffffffffffffffffffffffffffffffffff1673ffffffffffffffffffffffffffffffffffffffff168152602001908152602001600020600080820160009055600182016000611215919061474d565b6002820160006101000a81549060ff02191690556002820160016101000a81549060ff02191690556003820160009055505061125b672d8e3478a7d95b0560c01b6116b5565b61126f67332cd9e58174c79b60c01b6116b5565b838360405161127f929190615339565b6040518091039020818673ffffffffffffffffffffffffffffffffffffffff167f8b09fc40032762aebf578cd9202b2548559cbac190b3807076418620ef05518f60405160405180910390a45050505050565b6112e667beb2a701f24fb88460c01b6116b5565b6112fa6762fec0094c8f928a60c01b6116b5565b61130e677ab62c3941758f0660c01b6116b5565b6040518060400160405280600381526020017f31303200000000000000000000000000000000000000000000000000000000008152506040517f08c379a00000000000000000000000000000000000000000000000000000000081526004016113779190615485565b60405180910390fd5b600061139667aa04d3478398cf6f60c01b6116b5565b6113aa6724081be78105f81f60c01b6116b5565b6113be67d676a7130c06d07e60c01b6116b5565b6113c860ca6136d5565b905090565b6000919050565b6000806113e0836136e3565b9050600073ffffffffffffffffffffffffffffffffffffffff168173ffffffffffffffffffffffffffffffffffffffff161415611452576040517f08c379a000000000000000000000000000000000000000000000000000000000815260040161144990615623565b60405180910390fd5b80915050919050565b600060019050919050565b600060205280600052604060002060009150905080600001549080600101805461148f90615a16565b80601f01602080910402602001604051908101604052809291908181526020018280546114bb90615a16565b80156115085780601f106114dd57610100808354040283529160200191611508565b820191906000526020600020905b8154815290600101906020018083116114eb57829003601f168201915b5050505050908060020160009054906101000a900460ff16908060020160019054906101000a900460ff16908060030154905085565b50565b61154961478d565b61155d67a05f59d4624295fd60c01b612fbb565b6115716769c1a1d6327d607160c01b612fbb565b61158567bdaf4779ff83744f60c01b612fbb565b6000808373ffffffffffffffffffffffffffffffffffffffff1673ffffffffffffffffffffffffffffffffffffffff1681526020019081526020016000206040518060a0016040529081600082015481526020016001820180546115e890615a16565b80601f016020809104026020016040519081016040528092919081815260200182805461161490615a16565b80156116615780601f1061163657610100808354040283529160200191611661565b820191906000526020600020905b81548152906001019060200180831161164457829003601f168201915b505050505081526020016002820160009054906101000a900460ff1660ff1660ff1681526020016002820160019054906101000a900460ff1660ff1660ff1681526020016003820154815250509050919050565b50565b60008073ffffffffffffffffffffffffffffffffffffffff168273ffffffffffffffffffffffffffffffffffffffff161415611729576040517f08c379a000000000000000000000000000000000000000000000000000000000815260040161172090615587565b60405180910390fd5b606960008373ffffffffffffffffffffffffffffffffffffffff1673ffffffffffffffffffffffffffffffffffffffff168152602001908152602001600020549050919050565b611784670fa9457ef47cad9f60c01b6116b5565b7f60044782a422109ac08a415e44260ad5d3bad63d96ebe1fac0363399642ee3f26117ae816133b0565b6117c2678438ac30e1bce97760c01b6116b5565b6117d6676a18f9ca1823016a60c01b6116b5565b6117ea6789e3dfc1996b87a160c01b6116b5565b6117fe6750c948dfdb7f780c60c01b6116b5565b60cb60009054906101000a900473ffffffffffffffffffffffffffffffffffffffff1673ffffffffffffffffffffffffffffffffffffffff166384b7a84a8560016040518363ffffffff1660e01b815260040161185c9291906155e7565b600060405180830381600087803b15801561187657600080fd5b505af115801561188a573d6000803e3d6000fd5b505050506118a2674a1cce405faff74560c01b6116b5565b6118b667f5117f9257161bab60c01b6116b5565b82826040516118c6929190615339565b60405180910390208473ffffffffffffffffffffffffffffffffffffffff167f3347b0049117ab94fddf6cff81cc554c4f7489acedc7c33907a96655770e58ae60405160405180910390a350505050565b600060019050919050565b60006098600084815260200190815260200160002060000160008373ffffffffffffffffffffffffffffffffffffffff1673ffffffffffffffffffffffffffffffffffffffff16815260200190815260200160002060009054906101000a900460ff16905092915050565b60006119a367e7400f8588b3b9fd60c01b612aac565b6119b767218e4aadc28bad5460c01b612aac565b6119cb6709e2c5a8a6db9e6460c01b612aac565b6000808373ffffffffffffffffffffffffffffffffffffffff1673ffffffffffffffffffffffffffffffffffffffff168152602001908152602001600020600301544210611ac157611a2767a46d03d2c5d0aae460c01b612aac565b611a3b6759e43ca1959c0a4e60c01b612aac565b611a4f67c0882176d22f194460c01b612aac565b6040518060400160405280600381526020017f31303300000000000000000000000000000000000000000000000000000000008152506040517f08c379a0000000000000000000000000000000000000000000000000000000008152600401611ab89190615485565b60405180910390fd5b611ad56719c99830b5b4654060c01b612aac565b611ae96792805f3a7478451b60c01b612aac565b611afd6746c027269ffad2a760c01b612aac565b6000808373ffffffffffffffffffffffffffffffffffffffff1673ffffffffffffffffffffffffffffffffffffffff16815260200190815260200160002060020160019054906101000a900460ff169050919050565b606060678054611b6290615a16565b80601f0160208091040260200160405190810160405280929190818152602001828054611b8e90615a16565b8015611bdb5780601f10611bb057610100808354040283529160200191611bdb565b820191906000526020600020905b815481529060010190602001808311611bbe57829003601f168201915b5050505050905090565b6060611bfb67798aa39337352c8c60c01b612aac565b611c0f67dab4f449d5de2f6f60c01b612aac565b611c236770d4d7382d2a981660c01b612aac565b6000808373ffffffffffffffffffffffffffffffffffffffff1673ffffffffffffffffffffffffffffffffffffffff168152602001908152602001600020600301544210611d1957611c7f67c5c834afaae4a7d160c01b612aac565b611c9367282dd2059d86991c60c01b612aac565b611ca767bc73e24e23818fec60c01b612aac565b6040518060400160405280600381526020017f31303300000000000000000000000000000000000000000000000000000000008152506040517f08c379a0000000000000000000000000000000000000000000000000000000008152600401611d109190615485565b60405180910390fd5b611d2d673afbff51046f6dc960c01b612aac565b611d4167dc0c995e8c89436c60c01b612aac565b611d5567c8c8ce89cab65bb260c01b612aac565b6000808373ffffffffffffffffffffffffffffffffffffffff1673ffffffffffffffffffffffffffffffffffffffff1681526020019081526020016000206001018054611da190615a16565b80601f0160208091040260200160405190810160405280929190818152602001828054611dcd90615a16565b8015611e1a5780601f10611def57610100808354040283529160200191611e1a565b820191906000526020600020905b815481529060010190602001808311611dfd57829003601f168201915b50505050509050919050565b6000801b81565b611e3f611e386132ef565b8383613720565b5050565b6000611e596732c39d4afc3889c160c01b61153e565b611e6d67dae6db8ba31c013c60c01b61153e565b611e8167b501f3a83b16752260c01b61153e565b6000808373ffffffffffffffffffffffffffffffffffffffff1673ffffffffffffffffffffffffffffffffffffffff16815260200190815260200160002060020160009054906101000a900460ff169050919050565b611ee8611ee26132ef565b8361388d565b611f27576040517f08c379a0000000000000000000000000000000000000000000000000000000008152600401611f1e906154c7565b60405180910390fd5b611f3384848484613922565b50505050565b6000611f4f67c0754c09f9d3a69e60c01b61153e565b611f6367d1e3fdb2292aa24960c01b61153e565b611f77679561272df2bf34be60c01b61153e565b6000808373ffffffffffffffffffffffffffffffffffffffff1673ffffffffffffffffffffffffffffffffffffffff16815260200190815260200160002060020160019054906101000a900460ff169050919050565b611fe167eec4f806109b056360c01b6116b5565b600060018054906101000a900460ff16159050808015612012575060018060009054906101000a900460ff1660ff16105b8061204057506120213061397e565b15801561203f575060018060009054906101000a900460ff1660ff16145b5b61207f576040517f08c379a0000000000000000000000000000000000000000000000000000000008152600401612076906155a7565b60405180910390fd5b60018060006101000a81548160ff021916908360ff16021790555080156120bb5760018060016101000a81548160ff0219169083151502179055505b6120cf6722b7d94b1938f8cd60c01b6116b5565b6120e367845fa192e40eadf860c01b6116b5565b6120f767d6acb33fdf8f4a0e60c01b6116b5565b61210b672e1ac8ffce13240d60c01b6116b5565b6121136139a1565b61212767b2c99be2320a46f060c01b6116b5565b61213b67db5e81f582bcaad060c01b6116b5565b6121af6040518060400160405280601181526020017f50726f6f66206f66204964656e746974790000000000000000000000000000008152506040518060400160405280600581526020017f48312d49440000000000000000000000000000000000000000000000000000008152506139f0565b6121c3675531b2f2cdb00fd460c01b6116b5565b8160cb60006101000a81548173ffffffffffffffffffffffffffffffffffffffff021916908373ffffffffffffffffffffffffffffffffffffffff16021790555061221867c35260d3ca1195ec60c01b6116b5565b61222c6726aa13abf7403bea60c01b6116b5565b6122567f60044782a422109ac08a415e44260ad5d3bad63d96ebe1fac0363399642ee3f2336133c4565b61226a674c082c8f4167302160c01b6116b5565b61227e676e38d6c81f9cab4560c01b6116b5565b61228b6000801b336133c4565b61229f67508b6bb5de8f3fbc60c01b6116b5565b6122b367e9a8f8fb83dc431760c01b6116b5565b6122bd60ca613a4b565b80156123165760006001806101000a81548160ff0219169083151502179055507f7f26b83ff96e1f2b6a682f133852f6798a09c465da95921460cefb3847402498600160405161230d919061546a565b60405180910390a15b5050565b6000919050565b606061233767d9fa80327e35d49360c01b6116b5565b61234b677d940d36bbca069960c01b6116b5565b61235f671db7405e319f6de060c01b6116b5565b6123736783497ce10971c48260c01b6116b5565b61237c82613a61565b6040518060400160405280600381526020017f3130310000000000000000000000000000000000000000000000000000000000815250906123f3576040517f08c379a00000000000000000000000000000000000000000000000000000000081526004016123ea9190615485565b60405180910390fd5b506124086762590d6add00706060c01b6116b5565b61241c67082d46af2af6d0e960c01b6116b5565b6124306727c63058f90a821360c01b6116b5565b60cd6000838152602001908152602001600020805461244e90615a16565b80601f016020809104026020016040519081016040528092919081815260200182805461247a90615a16565b80156124c75780601f1061249c576101008083540402835291602001916124c7565b820191906000526020600020905b8154815290600101906020018083116124aa57829003601f168201915b50505050509050919050565b6124e7677a56ff4044e5432e60c01b6116b5565b7f60044782a422109ac08a415e44260ad5d3bad63d96ebe1fac0363399642ee3f2612511816133b0565b61252567ff7e7f248d33e56560c01b6116b5565b61253967f395fc16c3fbe06660c01b6116b5565b61254d679bbbaef6a682f66360c01b6116b5565b61256167ee7e50a6420af52a60c01b6116b5565b612575670d909d8ca32fd99460c01b6116b5565b60006125808a6116b8565b146040518060400160405280600381526020017f3130300000000000000000000000000000000000000000000000000000000000815250906125f8576040517f08c379a00000000000000000000000000000000000000000000000000000000081526004016125ef9190615485565b60405180910390fd5b5061260d6782dc340fd2ce7a3c60c01b6116b5565b61262167b936a459d9cceeb460c01b6116b5565b6126356733f80892f70f07c260c01b6116b5565b61264967751a1e09c7b26b9760c01b6116b5565b4284116040518060400160405280600381526020017f3130330000000000000000000000000000000000000000000000000000000000815250906126c3576040517f08c379a00000000000000000000000000000000000000000000000000000000081526004016126ba9190615485565b60405180910390fd5b506126d867f93752652b57fda160c01b6116b5565b6126ec6761658d08f3aed9f960c01b6116b5565b61270067ed3a0e877d7a61ba60c01b6116b5565b600061270c60ca6136d5565b9050612722673c9e84b7efa50cce60c01b6116b5565b6040518060a001604052808281526020018a8a8080601f016020809104026020016040519081016040528093929190818152602001838380828437600081840152601f19601f8201169050808301925050505050505081526020018860ff1681526020018760ff168152602001868152506000808c73ffffffffffffffffffffffffffffffffffffffff1673ffffffffffffffffffffffffffffffffffffffff1681526020019081526020016000206000820151816000015560208201518160010190805190602001906127f79291906147c2565b5060408201518160020160006101000a81548160ff021916908360ff16021790555060608201518160020160016101000a81548160ff021916908360ff1602179055506080820151816003015590505061285b6782a506ecba8b3e3660c01b6116b5565b61286f6709758a2c9186cdc960c01b6116b5565b61287960ca613a4b565b61288d67eb47a0b425aa05fa60c01b6116b5565b6128a167cea4da29c53476a760c01b6116b5565b6128ab8a82613aa2565b6128bf67fb0eb89ec11ecc9a60c01b6116b5565b838360cd600084815260200190815260200160002091906128e1929190614848565b506128f6679bec0fbaf82459fe60c01b6116b5565b8060cc60008c73ffffffffffffffffffffffffffffffffffffffff1673ffffffffffffffffffffffffffffffffffffffff1681526020019081526020016000208190555061294e67b5e9978688c1f84060c01b6116b5565b61296267c972f5a40165ec3e60c01b6116b5565b60cb60009054906101000a900473ffffffffffffffffffffffffffffffffffffffff1673ffffffffffffffffffffffffffffffffffffffff16632f7f0a128b6040518263ffffffff1660e01b81526004016129bd91906153f3565b600060405180830381600087803b1580156129d757600080fd5b505af11580156129eb573d6000803e3d6000fd5b50505050612a0367fc195f73a047bb4e60c01b6116b5565b612a1767e3169663323ecdc660c01b6116b5565b808a73ffffffffffffffffffffffffffffffffffffffff167faf62702571aa2959cc884d2d2f058f2dde9f91f8cb7b5a5c62887ec1aef856e760405160405180910390a350505050505050505050565b612a7082610f20565b612a79816133b0565b612a8383836134a5565b505050565b7f60044782a422109ac08a415e44260ad5d3bad63d96ebe1fac0363399642ee3f281565b50565b600060019050919050565b6060612ad067371008949763f33860c01b61153e565b612ae467a5bd462cd2256c0b60c01b61153e565b612af867724c0f716158057260c01b61153e565b6000808373ffffffffffffffffffffffffffffffffffffffff1673ffffffffffffffffffffffffffffffffffffffff1681526020019081526020016000206001018054612b4490615a16565b80601f0160208091040260200160405190810160405280929190818152602001828054612b7090615a16565b8015612bbd5780601f10612b9257610100808354040283529160200191612bbd565b820191906000526020600020905b815481529060010190602001808311612ba057829003601f168201915b50505050509050919050565b6000919050565b612be467d10123d8ec020c8b60c01b6116b5565b7f60044782a422109ac08a415e44260ad5d3bad63d96ebe1fac0363399642ee3f2612c0e816133b0565b612c22678c2a105861bd2b2860c01b6116b5565b612c3667243f9099585693e060c01b6116b5565b612c4a677da896f8bf1cc3cf60c01b6116b5565b612c5e67cccd7a33d4b9fa1060c01b6116b5565b612c7267d40c81e56e7696d860c01b6116b5565b6001612c7d886116b8565b146040518060400160405280600381526020017f313031000000000000000000000000000000000000000000000000000000000081525090612cf5576040517f08c379a0000000000000000000000000000000000000000000000000000000008152600401612cec9190615485565b60405180910390fd5b50612d0a67dc6f840eb155df4c60c01b6116b5565b612d1e67d146a42f7b963b6c60c01b6116b5565b612d32677957dddef68a0dbd60c01b6116b5565b60008060008973ffffffffffffffffffffffffffffffffffffffff1673ffffffffffffffffffffffffffffffffffffffff168152602001908152602001600020600001549050612d8c67071c78acf7c84dec60c01b6116b5565b6040518060a0016040528082815260200188888080601f016020809104026020016040519081016040528093929190818152602001838380828437600081840152601f19601f8201169050808301925050505050505081526020018660ff1681526020018560ff168152602001848152506000808a73ffffffffffffffffffffffffffffffffffffffff1673ffffffffffffffffffffffffffffffffffffffff168152602001908152602001600020600082015181600001556020820151816001019080519060200190612e619291906147c2565b5060408201518160020160006101000a81548160ff021916908360ff16021790555060608201518160020160016101000a81548160ff021916908360ff16021790555060808201518160030155905050612ec567cfbdbd14ea70c18960c01b6116b5565b612ed9670e894815cb1587f660c01b6116b5565b808873ffffffffffffffffffffffffffffffffffffffff167f4a1e31466f875c6fcafefabf90bce8accdf53108c4a309106058ef7aefebd5ce60405160405180910390a35050505050505050565b6000606b60008473ffffffffffffffffffffffffffffffffffffffff1673ffffffffffffffffffffffffffffffffffffffff16815260200190815260200160002060008373ffffffffffffffffffffffffffffffffffffffff1673ffffffffffffffffffffffffffffffffffffffff16815260200190815260200160002060009054906101000a900460ff16905092915050565b50565b6000919050565b612fd967b98ec7237c635eb760c01b6116b5565b7f60044782a422109ac08a415e44260ad5d3bad63d96ebe1fac0363399642ee3f2613003816133b0565b613017679bdea5fbaf414acf60c01b6116b5565b61302b67ce81be1dc86cf1b960c01b6116b5565b61303f6758e6026e0c90f46d60c01b6116b5565b6130536737c927149839212660c01b6116b5565b600060cc60008673ffffffffffffffffffffffffffffffffffffffff1673ffffffffffffffffffffffffffffffffffffffff1681526020019081526020016000205490506130ab67b7b2e8036abaf9fa60c01b6116b5565b6130bf67d884d7a2e493b52d60c01b6116b5565b6130d36714ae4ff4824cc3cb60c01b6116b5565b6130dc81613a61565b6040518060400160405280600381526020017f313031000000000000000000000000000000000000000000000000000000000081525090613153576040517f08c379a000000000000000000000000000000000000000000000000000000000815260040161314a9190615485565b60405180910390fd5b506131686741e97fe671d34fa960c01b6116b5565b61317c67069d0b154fa96c3160c01b6116b5565b838360cd6000848152602001908152602001600020919061319e929190614848565b506131b3670eaed5f196289e1060c01b6116b5565b6131c76771f2625500517a1960c01b6116b5565b83836040516131d7929190615339565b6040518091039020818673ffffffffffffffffffffffffffffffffffffffff167fe3a3e1a0be0d562dd7ec739509d30dfbca7cd174fbc576a45746fe1f3b277c2660405160405180910390a45050505050565b60007f7965db0b000000000000000000000000000000000000000000000000000000007bffffffffffffffffffffffffffffffffffffffffffffffffffffffff1916827bffffffffffffffffffffffffffffffffffffffffffffffffffffffff1916148061329d575061329c82613ac0565b5b9050919050565b6132ad81613a61565b6132ec576040517f08c379a00000000000000000000000000000000000000000000000000000000081526004016132e390615623565b60405180910390fd5b50565b600033905090565b81606a600083815260200190815260200160002060006101000a81548173ffffffffffffffffffffffffffffffffffffffff021916908373ffffffffffffffffffffffffffffffffffffffff160217905550808273ffffffffffffffffffffffffffffffffffffffff1661336a836113d4565b73ffffffffffffffffffffffffffffffffffffffff167f8c5be1e5ebec7d5bd14f71427d1e84f3dd0314c0f7b2291e5b200ac8c7c3b92560405160405180910390a45050565b6133c1816133bc6132ef565b613ba2565b50565b6133ce8282611922565b6134a15760016098600084815260200190815260200160002060000160008373ffffffffffffffffffffffffffffffffffffffff1673ffffffffffffffffffffffffffffffffffffffff16815260200190815260200160002060006101000a81548160ff0219169083151502179055506134466132ef565b73ffffffffffffffffffffffffffffffffffffffff168173ffffffffffffffffffffffffffffffffffffffff16837f2f8788117e7eff1d82e926ec794901d17c78024a50270940304540a733656f0d60405160405180910390a45b5050565b6134af8282611922565b156135835760006098600084815260200190815260200160002060000160008373ffffffffffffffffffffffffffffffffffffffff1673ffffffffffffffffffffffffffffffffffffffff16815260200190815260200160002060006101000a81548160ff0219169083151502179055506135286132ef565b73ffffffffffffffffffffffffffffffffffffffff168173ffffffffffffffffffffffffffffffffffffffff16837ff6391f5c32d9c69d2a47ea670b442974b53935d1edc7fd64eb21e047a839171b60405160405180910390a45b5050565b6000613592826113d4565b90506135a2816000846001613c27565b6135ab826113d4565b9050606a600083815260200190815260200160002060006101000a81549073ffffffffffffffffffffffffffffffffffffffff02191690556001606960008373ffffffffffffffffffffffffffffffffffffffff1673ffffffffffffffffffffffffffffffffffffffff168152602001908152602001600020600082825403925050819055506068600083815260200190815260200160002060006101000a81549073ffffffffffffffffffffffffffffffffffffffff021916905581600073ffffffffffffffffffffffffffffffffffffffff168273ffffffffffffffffffffffffffffffffffffffff167fddf252ad1be2c89b69c2b068fc378daa952ba7f163c4a11628f55a4df523b3ef60405160405180910390a46136d1816000846001613c2d565b5050565b600081600001549050919050565b60006068600083815260200190815260200160002060009054906101000a900473ffffffffffffffffffffffffffffffffffffffff169050919050565b8173ffffffffffffffffffffffffffffffffffffffff168373ffffffffffffffffffffffffffffffffffffffff16141561378f576040517f08c379a000000000000000000000000000000000000000000000000000000000815260040161378690615567565b60405180910390fd5b80606b60008573ffffffffffffffffffffffffffffffffffffffff1673ffffffffffffffffffffffffffffffffffffffff16815260200190815260200160002060008473ffffffffffffffffffffffffffffffffffffffff1673ffffffffffffffffffffffffffffffffffffffff16815260200190815260200160002060006101000a81548160ff0219169083151502179055508173ffffffffffffffffffffffffffffffffffffffff168373ffffffffffffffffffffffffffffffffffffffff167f17307eab39ab6107e8899845ad3d59bd9653f200f220920489ca2b5937696c31836040516138809190615434565b60405180910390a3505050565b600080613899836113d4565b90508073ffffffffffffffffffffffffffffffffffffffff168473ffffffffffffffffffffffffffffffffffffffff1614806138db57506138da8185612f27565b5b8061391957508373ffffffffffffffffffffffffffffffffffffffff1661390184610ac7565b73ffffffffffffffffffffffffffffffffffffffff16145b91505092915050565b61392d848484613c33565b61393984848484613f2d565b613978576040517f08c379a000000000000000000000000000000000000000000000000000000000815260040161396f906154e7565b60405180910390fd5b50505050565b6000808273ffffffffffffffffffffffffffffffffffffffff163b119050919050565b60018054906101000a900460ff166139ee576040517f08c379a00000000000000000000000000000000000000000000000000000000081526004016139e590615683565b60405180910390fd5b565b60018054906101000a900460ff16613a3d576040517f08c379a0000000000000000000000000000000000000000000000000000000008152600401613a3490615683565b60405180910390fd5b613a4782826140c4565b5050565b6001816000016000828254019250508190555050565b60008073ffffffffffffffffffffffffffffffffffffffff16613a83836136e3565b73ffffffffffffffffffffffffffffffffffffffff1614159050919050565b613abc828260405180602001604052806000815250614143565b5050565b60007f80ac58cd000000000000000000000000000000000000000000000000000000007bffffffffffffffffffffffffffffffffffffffffffffffffffffffff1916827bffffffffffffffffffffffffffffffffffffffffffffffffffffffff19161480613b8b57507f5b5e139f000000000000000000000000000000000000000000000000000000007bffffffffffffffffffffffffffffffffffffffffffffffffffffffff1916827bffffffffffffffffffffffffffffffffffffffffffffffffffffffff1916145b80613b9b5750613b9a8261419e565b5b9050919050565b613bac8282611922565b613c2357613bb981614208565b613bc78360001c6020614235565b604051602001613bd8929190615352565b6040516020818303038152906040526040517f08c379a0000000000000000000000000000000000000000000000000000000008152600401613c1a9190615485565b60405180910390fd5b5050565b50505050565b50505050565b8273ffffffffffffffffffffffffffffffffffffffff16613c53826113d4565b73ffffffffffffffffffffffffffffffffffffffff1614613ca9576040517f08c379a0000000000000000000000000000000000000000000000000000000008152600401613ca090615507565b60405180910390fd5b600073ffffffffffffffffffffffffffffffffffffffff168273ffffffffffffffffffffffffffffffffffffffff161415613d19576040517f08c379a0000000000000000000000000000000000000000000000000000000008152600401613d1090615547565b60405180910390fd5b613d268383836001613c27565b8273ffffffffffffffffffffffffffffffffffffffff16613d46826113d4565b73ffffffffffffffffffffffffffffffffffffffff1614613d9c576040517f08c379a0000000000000000000000000000000000000000000000000000000008152600401613d9390615507565b60405180910390fd5b606a600082815260200190815260200160002060006101000a81549073ffffffffffffffffffffffffffffffffffffffff02191690556001606960008573ffffffffffffffffffffffffffffffffffffffff1673ffffffffffffffffffffffffffffffffffffffff168152602001908152602001600020600082825403925050819055506001606960008473ffffffffffffffffffffffffffffffffffffffff1673ffffffffffffffffffffffffffffffffffffffff16815260200190815260200160002060008282540192505081905550816068600083815260200190815260200160002060006101000a81548173ffffffffffffffffffffffffffffffffffffffff021916908373ffffffffffffffffffffffffffffffffffffffff160217905550808273ffffffffffffffffffffffffffffffffffffffff168473ffffffffffffffffffffffffffffffffffffffff167fddf252ad1be2c89b69c2b068fc378daa952ba7f163c4a11628f55a4df523b3ef60405160405180910390a4613f288383836001613c2d565b505050565b6000613f4e8473ffffffffffffffffffffffffffffffffffffffff1661397e565b156140b7578373ffffffffffffffffffffffffffffffffffffffff1663150b7a02613f776132ef565b8786866040518563ffffffff1660e01b8152600401613f9994939291906153a7565b602060405180830381600087803b158015613fb357600080fd5b505af1925050508015613fe457506040513d601f19601f82011682018060405250810190613fe19190614e27565b60015b614067573d8060008114614014576040519150601f19603f3d011682016040523d82523d6000602084013e614019565b606091505b5060008151141561405f576040517f08c379a0000000000000000000000000000000000000000000000000000000008152600401614056906154e7565b60405180910390fd5b805181602001fd5b63150b7a0260e01b7bffffffffffffffffffffffffffffffffffffffffffffffffffffffff1916817bffffffffffffffffffffffffffffffffffffffffffffffffffffffff1916149150506140bc565b600190505b949350505050565b60018054906101000a900460ff16614111576040517f08c379a000000000000000000000000000000000000000000000000000000000815260040161410890615683565b60405180910390fd5b81606690805190602001906141279291906147c2565b50806067908051906020019061413e9291906147c2565b505050565b61414d838361452f565b61415a6000848484613f2d565b614199576040517f08c379a0000000000000000000000000000000000000000000000000000000008152600401614190906154e7565b60405180910390fd5b505050565b60007f01ffc9a7000000000000000000000000000000000000000000000000000000007bffffffffffffffffffffffffffffffffffffffffffffffffffffffff1916827bffffffffffffffffffffffffffffffffffffffffffffffffffffffff1916149050919050565b606061422e8273ffffffffffffffffffffffffffffffffffffffff16601460ff16614235565b9050919050565b6060600060028360026142489190615875565b614252919061581f565b67ffffffffffffffff811115614291577f4e487b7100000000000000000000000000000000000000000000000000000000600052604160045260246000fd5b6040519080825280601f01601f1916602001820160405280156142c35781602001600182028036833780820191505090505b5090507f300000000000000000000000000000000000000000000000000000000000000081600081518110614321577f4e487b7100000000000000000000000000000000000000000000000000000000600052603260045260246000fd5b60200101907effffffffffffffffffffffffffffffffffffffffffffffffffffffffffffff1916908160001a9053507f7800000000000000000000000000000000000000000000000000000000000000816001815181106143ab577f4e487b7100000000000000000000000000000000000000000000000000000000600052603260045260246000fd5b60200101907effffffffffffffffffffffffffffffffffffffffffffffffffffffffffffff1916908160001a905350600060018460026143eb9190615875565b6143f5919061581f565b90505b60018111156144e1577f3031323334353637383961626364656600000000000000000000000000000000600f86166010811061445d577f4e487b7100000000000000000000000000000000000000000000000000000000600052603260045260246000fd5b1a60f81b82828151811061449a577f4e487b7100000000000000000000000000000000000000000000000000000000600052603260045260246000fd5b60200101907effffffffffffffffffffffffffffffffffffffffffffffffffffffffffffff1916908160001a905350600485901c9450806144da906159ec565b90506143f8565b5060008414614525576040517f08c379a000000000000000000000000000000000000000000000000000000000815260040161451c906154a7565b60405180910390fd5b8091505092915050565b600073ffffffffffffffffffffffffffffffffffffffff168273ffffffffffffffffffffffffffffffffffffffff16141561459f576040517f08c379a0000000000000000000000000000000000000000000000000000000008152600401614596906155c7565b60405180910390fd5b6145a881613a61565b156145e8576040517f08c379a00000000000000000000000000000000000000000000000000000000081526004016145df90615527565b60405180910390fd5b6145f6600083836001613c27565b6145ff81613a61565b1561463f576040517f08c379a000000000000000000000000000000000000000000000000000000000815260040161463690615527565b60405180910390fd5b6001606960008473ffffffffffffffffffffffffffffffffffffffff1673ffffffffffffffffffffffffffffffffffffffff16815260200190815260200160002060008282540192505081905550816068600083815260200190815260200160002060006101000a81548173ffffffffffffffffffffffffffffffffffffffff021916908373ffffffffffffffffffffffffffffffffffffffff160217905550808273ffffffffffffffffffffffffffffffffffffffff16600073ffffffffffffffffffffffffffffffffffffffff167fddf252ad1be2c89b69c2b068fc378daa952ba7f163c4a11628f55a4df523b3ef60405160405180910390a4614749600083836001613c2d565b5050565b50805461475990615a16565b6000825580601f1061476b575061478a565b601f01602090049060005260206000209081019061478991906148ce565b5b50565b6040518060a001604052806000815260200160608152602001600060ff168152602001600060ff168152602001600081525090565b8280546147ce90615a16565b90600052602060002090601f0160209004810192826147f05760008555614837565b82601f1061480957805160ff1916838001178555614837565b82800160010185558215614837579182015b8281111561483657825182559160200191906001019061481b565b5b50905061484491906148ce565b5090565b82805461485490615a16565b90600052602060002090601f01602090048101928261487657600085556148bd565b82601f1061488f57803560ff19168380011785556148bd565b828001600101855582156148bd579182015b828111156148bc5782358255916020019190600101906148a1565b5b5090506148ca91906148ce565b5090565b5b808211156148e75760008160009055506001016148cf565b5090565b60006148fe6148f98461579a565b615775565b90508281526020810184848401111561491657600080fd5b6149218482856159aa565b509392505050565b60008135905061493881615f9e565b92915050565b60008135905061494d81615fb5565b92915050565b60008135905061496281615fcc565b92915050565b60008135905061497781615fe3565b92915050565b60008151905061498c81615fe3565b92915050565b6000813590506149a181615ffa565b92915050565b600082601f8301126149b857600080fd5b81356149c88482602086016148eb565b91505092915050565b60008083601f8401126149e357600080fd5b8235905067ffffffffffffffff8111156149fc57600080fd5b602083019150836001820283011115614a1457600080fd5b9250929050565b600081359050614a2a81616011565b92915050565b600081359050614a3f81616028565b92915050565b600060208284031215614a5757600080fd5b6000614a6584828501614929565b91505092915050565b60008060408385031215614a8157600080fd5b6000614a8f85828601614929565b9250506020614aa085828601614929565b9150509250929050565b600080600060608486031215614abf57600080fd5b6000614acd86828701614929565b9350506020614ade86828701614929565b9250506040614aef86828701614a1b565b9150509250925092565b60008060008060808587031215614b0f57600080fd5b6000614b1d87828801614929565b9450506020614b2e87828801614929565b9350506040614b3f87828801614a1b565b925050606085013567ffffffffffffffff811115614b5c57600080fd5b614b68878288016149a7565b91505092959194509250565b60008060408385031215614b8757600080fd5b6000614b9585828601614929565b9250506020614ba68582860161493e565b9150509250929050565b600080600060408486031215614bc557600080fd5b6000614bd386828701614929565b935050602084013567ffffffffffffffff811115614bf057600080fd5b614bfc868287016149d1565b92509250509250925092565b60008060008060008060a08789031215614c2157600080fd5b6000614c2f89828a01614929565b965050602087013567ffffffffffffffff811115614c4c57600080fd5b614c5889828a016149d1565b95509550506040614c6b89828a01614a30565b9350506060614c7c89828a01614a30565b9250506080614c8d89828a01614a1b565b9150509295509295509295565b60008060008060008060008060c0898b031215614cb657600080fd5b6000614cc48b828c01614929565b985050602089013567ffffffffffffffff811115614ce157600080fd5b614ced8b828c016149d1565b97509750506040614d008b828c01614a30565b9550506060614d118b828c01614a30565b9450506080614d228b828c01614a1b565b93505060a089013567ffffffffffffffff811115614d3f57600080fd5b614d4b8b828c016149d1565b92509250509295985092959890939650565b60008060408385031215614d7057600080fd5b6000614d7e85828601614929565b9250506020614d8f85828601614a1b565b9150509250929050565b600060208284031215614dab57600080fd5b6000614db984828501614953565b91505092915050565b60008060408385031215614dd557600080fd5b6000614de385828601614953565b9250506020614df485828601614929565b9150509250929050565b600060208284031215614e1057600080fd5b6000614e1e84828501614968565b91505092915050565b600060208284031215614e3957600080fd5b6000614e478482850161497d565b91505092915050565b600060208284031215614e6257600080fd5b6000614e7084828501614992565b91505092915050565b600060208284031215614e8b57600080fd5b6000614e9984828501614a1b565b91505092915050565b614eab816158cf565b82525050565b614eba816158e1565b82525050565b614ec9816158ed565b82525050565b6000614eda826157cb565b614ee481856157e1565b9350614ef48185602086016159b9565b614efd81615b06565b840191505092915050565b614f1181615986565b82525050565b614f2081615998565b82525050565b6000614f328385615814565b9350614f3f8385846159aa565b82840190509392505050565b6000614f56826157d6565b614f6081856157f2565b9350614f708185602086016159b9565b614f7981615b06565b840191505092915050565b6000614f8f826157d6565b614f998185615803565b9350614fa98185602086016159b9565b614fb281615b06565b840191505092915050565b6000614fc8826157d6565b614fd28185615814565b9350614fe28185602086016159b9565b80840191505092915050565b6000614ffb602083615803565b915061500682615b17565b602082019050919050565b600061501e600683615803565b915061502982615b40565b602082019050919050565b6000615041602d83615803565b915061504c82615b69565b604082019050919050565b6000615064603283615803565b915061506f82615bb8565b604082019050919050565b6000615087602583615803565b915061509282615c07565b604082019050919050565b60006150aa601c83615803565b91506150b582615c56565b602082019050919050565b60006150cd602483615803565b91506150d882615c7f565b604082019050919050565b60006150f0601983615803565b91506150fb82615cce565b602082019050919050565b6000615113602983615803565b915061511e82615cf7565b604082019050919050565b6000615136602e83615803565b915061514182615d46565b604082019050919050565b6000615159602083615803565b915061516482615d95565b602082019050919050565b600061517c600883615803565b915061518782615dbe565b602082019050919050565b600061519f601883615803565b91506151aa82615de7565b602082019050919050565b60006151c2602183615803565b91506151cd82615e10565b604082019050919050565b60006151e5603d83615803565b91506151f082615e5f565b604082019050919050565b6000615208602b83615803565b915061521382615eae565b604082019050919050565b600061522b601783615814565b915061523682615efd565b601782019050919050565b600061524e601183615814565b915061525982615f26565b601182019050919050565b6000615271602f83615803565b915061527c82615f4f565b604082019050919050565b600060a08301600083015161529f60008601826152fd565b50602083015184820360208601526152b78282614f4b565b91505060408301516152cc604086018261531b565b5060608301516152df606086018261531b565b5060808301516152f260808601826152fd565b508091505092915050565b6153068161596f565b82525050565b6153158161596f565b82525050565b61532481615979565b82525050565b61533381615979565b82525050565b6000615346828486614f26565b91508190509392505050565b600061535d8261521e565b91506153698285614fbd565b915061537482615241565b91506153808284614fbd565b91508190509392505050565b60006020820190506153a16000830184614ea2565b92915050565b60006080820190506153bc6000830187614ea2565b6153c96020830186614ea2565b6153d6604083018561530c565b81810360608301526153e88184614ecf565b905095945050505050565b60006060820190506154086000830184614ea2565b81810360208301526154198161516f565b9050818103604083015261542c81615011565b905092915050565b60006020820190506154496000830184614eb1565b92915050565b60006020820190506154646000830184614ec0565b92915050565b600060208201905061547f6000830184614f17565b92915050565b6000602082019050818103600083015261549f8184614f84565b905092915050565b600060208201905081810360008301526154c081614fee565b9050919050565b600060208201905081810360008301526154e081615034565b9050919050565b6000602082019050818103600083015261550081615057565b9050919050565b600060208201905081810360008301526155208161507a565b9050919050565b600060208201905081810360008301526155408161509d565b9050919050565b60006020820190508181036000830152615560816150c0565b9050919050565b60006020820190508181036000830152615580816150e3565b9050919050565b600060208201905081810360008301526155a081615106565b9050919050565b600060208201905081810360008301526155c081615129565b9050919050565b600060208201905081810360008301526155e08161514c565b9050919050565b600060608201905081810360008301526156008161516f565b905061560f6020830185614ea2565b61561c6040830184614f08565b9392505050565b6000602082019050818103600083015261563c81615192565b9050919050565b6000602082019050818103600083015261565c816151b5565b9050919050565b6000602082019050818103600083015261567c816151d8565b9050919050565b6000602082019050818103600083015261569c816151fb565b9050919050565b600060208201905081810360008301526156bc81615264565b9050919050565b600060208201905081810360008301526156dd8184615287565b905092915050565b60006020820190506156fa600083018461530c565b92915050565b600060a082019050615715600083018861530c565b81810360208301526157278187614f84565b9050615736604083018661532a565b615743606083018561532a565b615750608083018461530c565b9695505050505050565b600060208201905061576f600083018461532a565b92915050565b600061577f615790565b905061578b8282615a48565b919050565b6000604051905090565b600067ffffffffffffffff8211156157b5576157b4615ad7565b5b6157be82615b06565b9050602081019050919050565b600081519050919050565b600081519050919050565b600082825260208201905092915050565b600082825260208201905092915050565b600082825260208201905092915050565b600081905092915050565b600061582a8261596f565b91506158358361596f565b9250827fffffffffffffffffffffffffffffffffffffffffffffffffffffffffffffffff0382111561586a57615869615a79565b5b828201905092915050565b60006158808261596f565b915061588b8361596f565b9250817fffffffffffffffffffffffffffffffffffffffffffffffffffffffffffffffff04831182151516156158c4576158c3615a79565b5b828202905092915050565b60006158da8261594f565b9050919050565b60008115159050919050565b6000819050919050565b60007fffffffff0000000000000000000000000000000000000000000000000000000082169050919050565b60007fffffffffffffffff00000000000000000000000000000000000000000000000082169050919050565b600073ffffffffffffffffffffffffffffffffffffffff82169050919050565b6000819050919050565b600060ff82169050919050565b60006159918261596f565b9050919050565b60006159a382615979565b9050919050565b82818337600083830152505050565b60005b838110156159d75780820151818401526020810190506159bc565b838111156159e6576000848401525b50505050565b60006159f78261596f565b91506000821415615a0b57615a0a615a79565b5b600182039050919050565b60006002820490506001821680615a2e57607f821691505b60208210811415615a4257615a41615aa8565b5b50919050565b615a5182615b06565b810181811067ffffffffffffffff82111715615a7057615a6f615ad7565b5b80604052505050565b7f4e487b7100000000000000000000000000000000000000000000000000000000600052601160045260246000fd5b7f4e487b7100000000000000000000000000000000000000000000000000000000600052602260045260246000fd5b7f4e487b7100000000000000000000000000000000000000000000000000000000600052604160045260246000fd5b6000601f19601f8301169050919050565b7f537472696e67733a20686578206c656e67746820696e73756666696369656e74600082015250565b7f565443414c4c0000000000000000000000000000000000000000000000000000600082015250565b7f4552433732313a2063616c6c6572206973206e6f7420746f6b656e206f776e6560008201527f72206f7220617070726f76656400000000000000000000000000000000000000602082015250565b7f4552433732313a207472616e7366657220746f206e6f6e20455243373231526560008201527f63656976657220696d706c656d656e7465720000000000000000000000000000602082015250565b7f4552433732313a207472616e736665722066726f6d20696e636f72726563742060008201527f6f776e6572000000000000000000000000000000000000000000000000000000602082015250565b7f4552433732313a20746f6b656e20616c7265616479206d696e74656400000000600082015250565b7f4552433732313a207472616e7366657220746f20746865207a65726f2061646460008201527f7265737300000000000000000000000000000000000000000000000000000000602082015250565b7f4552433732313a20617070726f766520746f2063616c6c657200000000000000600082015250565b7f4552433732313a2061646472657373207a65726f206973206e6f74206120766160008201527f6c6964206f776e65720000000000000000000000000000000000000000000000602082015250565b7f496e697469616c697a61626c653a20636f6e747261637420697320616c72656160008201527f647920696e697469616c697a6564000000000000000000000000000000000000602082015250565b7f4552433732313a206d696e7420746f20746865207a65726f2061646472657373600082015250565b7f41444d494e4f5247000000000000000000000000000000000000000000000000600082015250565b7f4552433732313a20696e76616c696420746f6b656e2049440000000000000000600082015250565b7f4552433732313a20617070726f76616c20746f2063757272656e74206f776e6560008201527f7200000000000000000000000000000000000000000000000000000000000000602082015250565b7f4552433732313a20617070726f76652063616c6c6572206973206e6f7420746f60008201527f6b656e206f776e6572206f7220617070726f76656420666f7220616c6c000000602082015250565b7f496e697469616c697a61626c653a20636f6e7472616374206973206e6f74206960008201527f6e697469616c697a696e67000000000000000000000000000000000000000000602082015250565b7f416363657373436f6e74726f6c3a206163636f756e7420000000000000000000600082015250565b7f206973206d697373696e6720726f6c6520000000000000000000000000000000600082015250565b7f416363657373436f6e74726f6c3a2063616e206f6e6c792072656e6f756e636560008201527f20726f6c657320666f722073656c660000000000000000000000000000000000602082015250565b615fa7816158cf565b8114615fb257600080fd5b50565b615fbe816158e1565b8114615fc957600080fd5b50565b615fd5816158ed565b8114615fe057600080fd5b50565b615fec816158f7565b8114615ff757600080fd5b50565b61600381615923565b811461600e57600080fd5b50565b61601a8161596f565b811461602557600080fd5b50565b61603181615979565b811461603c57600080fd5b5056fea264697066735822122038095a7d14366ce1bc65ca666b38a9edb039cebbd1641e542672974e4310bdfc64736f6c63430008020033",
  "linkReferences": {},
  "deployedLinkReferences": {}
}