{
  "_format": "hh-sol-artifact-1",
  "contractName": "ProofOfIdentity",
  "sourceName": "contracts/ProofOfIdentity.sol",
  "abi": [
    {
      "anonymous": false,
      "inputs": [
        {
          "indexed": true,
          "internalType": "address",
          "name": "account",
          "type": "address"
        },
        {
          "indexed": true,
          "internalType": "uint256",
          "name": "tokenId",
          "type": "uint256"
        },
        {
          "indexed": true,
          "internalType": "string",
          "name": "reason",
          "type": "string"
        }
      ],
      "name": "AccountSuspendedTokenBurned",
      "type": "event"
    },
    {
      "anonymous": false,
      "inputs": [
        {
          "indexed": true,
          "internalType": "address",
          "name": "account",
          "type": "address"
        },
        {
          "indexed": true,
          "internalType": "string",
          "name": "reason",
          "type": "string"
        }
      ],
      "name": "AccountSuspendedTokenMaintained",
      "type": "event"
    },
    {
      "anonymous": false,
      "inputs": [
        {
          "indexed": true,
          "internalType": "address",
          "name": "owner",
          "type": "address"
        },
        {
          "indexed": true,
          "internalType": "address",
          "name": "approved",
          "type": "address"
        },
        {
          "indexed": true,
          "internalType": "uint256",
          "name": "tokenId",
          "type": "uint256"
        }
      ],
      "name": "Approval",
      "type": "event"
    },
    {
      "anonymous": false,
      "inputs": [
        {
          "indexed": true,
          "internalType": "address",
          "name": "owner",
          "type": "address"
        },
        {
          "indexed": true,
          "internalType": "address",
          "name": "operator",
          "type": "address"
        },
        {
          "indexed": false,
          "internalType": "bool",
          "name": "approved",
          "type": "bool"
        }
      ],
      "name": "ApprovalForAll",
      "type": "event"
    },
    {
      "anonymous": false,
      "inputs": [
        {
          "indexed": true,
          "internalType": "address",
          "name": "account",
          "type": "address"
        },
        {
          "indexed": true,
          "internalType": "uint256",
          "name": "tokenId",
          "type": "uint256"
        }
      ],
      "name": "IdentityMinted",
      "type": "event"
    },
    {
      "anonymous": false,
      "inputs": [
        {
          "indexed": true,
          "internalType": "address",
          "name": "account",
          "type": "address"
        },
        {
          "indexed": true,
          "internalType": "uint256",
          "name": "tokenId",
          "type": "uint256"
        }
      ],
      "name": "IdentityUpdated",
      "type": "event"
    },
    {
      "anonymous": false,
      "inputs": [
        {
          "indexed": false,
          "internalType": "uint8",
          "name": "version",
          "type": "uint8"
        }
      ],
      "name": "Initialized",
      "type": "event"
    },
    {
      "anonymous": false,
      "inputs": [
        {
          "indexed": true,
          "internalType": "bytes32",
          "name": "role",
          "type": "bytes32"
        },
        {
          "indexed": true,
          "internalType": "bytes32",
          "name": "previousAdminRole",
          "type": "bytes32"
        },
        {
          "indexed": true,
          "internalType": "bytes32",
          "name": "newAdminRole",
          "type": "bytes32"
        }
      ],
      "name": "RoleAdminChanged",
      "type": "event"
    },
    {
      "anonymous": false,
      "inputs": [
        {
          "indexed": true,
          "internalType": "bytes32",
          "name": "role",
          "type": "bytes32"
        },
        {
          "indexed": true,
          "internalType": "address",
          "name": "account",
          "type": "address"
        },
        {
          "indexed": true,
          "internalType": "address",
          "name": "sender",
          "type": "address"
        }
      ],
      "name": "RoleGranted",
      "type": "event"
    },
    {
      "anonymous": false,
      "inputs": [
        {
          "indexed": true,
          "internalType": "bytes32",
          "name": "role",
          "type": "bytes32"
        },
        {
          "indexed": true,
          "internalType": "address",
          "name": "account",
          "type": "address"
        },
        {
          "indexed": true,
          "internalType": "address",
          "name": "sender",
          "type": "address"
        }
      ],
      "name": "RoleRevoked",
      "type": "event"
    },
    {
      "anonymous": false,
      "inputs": [
        {
          "indexed": true,
          "internalType": "address",
          "name": "account",
          "type": "address"
        },
        {
          "indexed": true,
          "internalType": "uint256",
          "name": "tokenId",
          "type": "uint256"
        },
        {
          "indexed": true,
          "internalType": "string",
          "name": "newURI",
          "type": "string"
        }
      ],
      "name": "TokenURIUpdated",
      "type": "event"
    },
    {
      "anonymous": false,
      "inputs": [
        {
          "indexed": true,
          "internalType": "address",
          "name": "from",
          "type": "address"
        },
        {
          "indexed": true,
          "internalType": "address",
          "name": "to",
          "type": "address"
        },
        {
          "indexed": true,
          "internalType": "uint256",
          "name": "tokenId",
          "type": "uint256"
        }
      ],
      "name": "Transfer",
      "type": "event"
    },
    {
      "inputs": [],
      "name": "DEFAULT_ADMIN_ROLE",
      "outputs": [
        {
          "internalType": "bytes32",
          "name": "",
          "type": "bytes32"
        }
      ],
      "stateMutability": "view",
      "type": "function"
    },
    {
      "inputs": [],
      "name": "PROVER_ROLE",
      "outputs": [
        {
          "internalType": "bytes32",
          "name": "",
          "type": "bytes32"
        }
      ],
      "stateMutability": "view",
      "type": "function"
    },
    {
      "inputs": [
        {
          "internalType": "address",
          "name": "to",
          "type": "address"
        },
        {
          "internalType": "uint256",
          "name": "tokenId",
          "type": "uint256"
        }
      ],
      "name": "approve",
      "outputs": [],
      "stateMutability": "nonpayable",
      "type": "function"
    },
    {
      "inputs": [
        {
          "internalType": "address",
          "name": "owner",
          "type": "address"
        }
      ],
      "name": "balanceOf",
      "outputs": [
        {
          "internalType": "uint256",
          "name": "",
          "type": "uint256"
        }
      ],
      "stateMutability": "view",
      "type": "function"
    },
    {
      "inputs": [
        {
          "internalType": "uint256",
          "name": "tokenId",
          "type": "uint256"
        }
      ],
      "name": "getApproved",
      "outputs": [
        {
          "internalType": "address",
          "name": "",
          "type": "address"
        }
      ],
      "stateMutability": "view",
      "type": "function"
    },
    {
      "inputs": [],
      "name": "getCurrentTokenId",
      "outputs": [
        {
          "internalType": "uint256",
          "name": "",
          "type": "uint256"
        }
      ],
      "stateMutability": "view",
      "type": "function"
    },
    {
      "inputs": [
        {
          "internalType": "bytes32",
          "name": "role",
          "type": "bytes32"
        }
      ],
      "name": "getRoleAdmin",
      "outputs": [
        {
          "internalType": "bytes32",
          "name": "",
          "type": "bytes32"
        }
      ],
      "stateMutability": "view",
      "type": "function"
    },
    {
      "inputs": [
        {
          "internalType": "address",
          "name": "account",
          "type": "address"
        }
      ],
      "name": "getUserAccountCountryCode",
      "outputs": [
        {
          "internalType": "string",
          "name": "userAccountCountryCode",
          "type": "string"
        }
      ],
      "stateMutability": "view",
      "type": "function"
    },
    {
      "inputs": [
        {
          "internalType": "address",
          "name": "account",
          "type": "address"
        }
      ],
      "name": "getUserAccountCountryCodePreventOnExpiry",
      "outputs": [
        {
          "internalType": "string",
          "name": "userAccountCountryCode",
          "type": "string"
        }
      ],
      "stateMutability": "view",
      "type": "function"
    },
    {
      "inputs": [
        {
          "internalType": "address",
          "name": "account",
          "type": "address"
        }
      ],
      "name": "getUserAccountExpiry",
      "outputs": [
        {
          "internalType": "uint256",
          "name": "userAccountExpiry",
          "type": "uint256"
        }
      ],
      "stateMutability": "view",
      "type": "function"
    },
    {
      "inputs": [
        {
          "internalType": "address",
          "name": "account",
          "type": "address"
        }
      ],
      "name": "getUserAccountIdentityBlob",
      "outputs": [
        {
          "components": [
            {
              "internalType": "uint256",
              "name": "tokenId",
              "type": "uint256"
            },
            {
              "internalType": "string",
              "name": "countryCode",
              "type": "string"
            },
            {
              "internalType": "uint8",
              "name": "userType",
              "type": "uint8"
            },
            {
              "internalType": "uint8",
              "name": "level",
              "type": "uint8"
            },
            {
              "internalType": "uint256",
              "name": "expiry",
              "type": "uint256"
            }
          ],
          "internalType": "struct RoleVerification.IdentityBlob",
          "name": "userIdentityBlob",
          "type": "tuple"
        }
      ],
      "stateMutability": "view",
      "type": "function"
    },
    {
      "inputs": [
        {
          "internalType": "address",
          "name": "account",
          "type": "address"
        }
      ],
      "name": "getUserAccountLevel",
      "outputs": [
        {
          "internalType": "uint8",
          "name": "userAccountLevel",
          "type": "uint8"
        }
      ],
      "stateMutability": "view",
      "type": "function"
    },
    {
      "inputs": [
        {
          "internalType": "address",
          "name": "account",
          "type": "address"
        }
      ],
      "name": "getUserAccountLevelPreventOnExpiry",
      "outputs": [
        {
          "internalType": "uint8",
          "name": "",
          "type": "uint8"
        }
      ],
      "stateMutability": "view",
      "type": "function"
    },
    {
      "inputs": [
        {
          "internalType": "address",
          "name": "account",
          "type": "address"
        }
      ],
      "name": "getUserAccountType",
      "outputs": [
        {
          "internalType": "uint8",
          "name": "userAccountType",
          "type": "uint8"
        }
      ],
      "stateMutability": "view",
      "type": "function"
    },
    {
      "inputs": [
        {
          "internalType": "address",
          "name": "account",
          "type": "address"
        }
      ],
      "name": "getUserAccountTypePreventOnExpiry",
      "outputs": [
        {
          "internalType": "uint8",
          "name": "",
          "type": "uint8"
        }
      ],
      "stateMutability": "view",
      "type": "function"
    },
    {
      "inputs": [
        {
          "internalType": "bytes32",
          "name": "role",
          "type": "bytes32"
        },
        {
          "internalType": "address",
          "name": "account",
          "type": "address"
        }
      ],
      "name": "grantRole",
      "outputs": [],
      "stateMutability": "nonpayable",
      "type": "function"
    },
    {
      "inputs": [
        {
          "internalType": "bytes32",
          "name": "role",
          "type": "bytes32"
        },
        {
          "internalType": "address",
          "name": "account",
          "type": "address"
        }
      ],
      "name": "hasRole",
      "outputs": [
        {
          "internalType": "bool",
          "name": "",
          "type": "bool"
        }
      ],
      "stateMutability": "view",
      "type": "function"
    },
    {
      "inputs": [
        {
          "internalType": "address",
          "name": "",
          "type": "address"
        }
      ],
      "name": "identityBlob",
      "outputs": [
        {
          "internalType": "uint256",
          "name": "tokenId",
          "type": "uint256"
        },
        {
          "internalType": "string",
          "name": "countryCode",
          "type": "string"
        },
        {
          "internalType": "uint8",
          "name": "userType",
          "type": "uint8"
        },
        {
          "internalType": "uint8",
          "name": "level",
          "type": "uint8"
        },
        {
          "internalType": "uint256",
          "name": "expiry",
          "type": "uint256"
        }
      ],
      "stateMutability": "view",
      "type": "function"
    },
    {
      "inputs": [
        {
          "internalType": "address",
          "name": "permissionsInterface",
          "type": "address"
        },
        {
          "internalType": "address",
          "name": "admin",
          "type": "address"
        },
        {
          "internalType": "address",
          "name": "prover",
          "type": "address"
        }
      ],
      "name": "initialize",
      "outputs": [],
      "stateMutability": "nonpayable",
      "type": "function"
    },
    {
      "inputs": [
        {
          "internalType": "address",
          "name": "owner",
          "type": "address"
        },
        {
          "internalType": "address",
          "name": "operator",
          "type": "address"
        }
      ],
      "name": "isApprovedForAll",
      "outputs": [
        {
          "internalType": "bool",
          "name": "",
          "type": "bool"
        }
      ],
      "stateMutability": "view",
      "type": "function"
    },
    {
      "inputs": [
        {
          "internalType": "address",
          "name": "account",
          "type": "address"
        },
        {
          "internalType": "string",
          "name": "countryCode",
          "type": "string"
        },
        {
          "internalType": "uint8",
          "name": "userType",
          "type": "uint8"
        },
        {
          "internalType": "uint8",
          "name": "level",
          "type": "uint8"
        },
        {
          "internalType": "uint256",
          "name": "expiry",
          "type": "uint256"
        },
        {
          "internalType": "string",
          "name": "tokenUri",
          "type": "string"
        }
      ],
      "name": "mintIdentity",
      "outputs": [],
      "stateMutability": "nonpayable",
      "type": "function"
    },
    {
      "inputs": [],
      "name": "name",
      "outputs": [
        {
          "internalType": "string",
          "name": "",
          "type": "string"
        }
      ],
      "stateMutability": "view",
      "type": "function"
    },
    {
      "inputs": [
        {
          "internalType": "uint256",
          "name": "tokenId",
          "type": "uint256"
        }
      ],
      "name": "ownerOf",
      "outputs": [
        {
          "internalType": "address",
          "name": "",
          "type": "address"
        }
      ],
      "stateMutability": "view",
      "type": "function"
    },
    {
      "inputs": [
        {
          "internalType": "bytes32",
          "name": "role",
          "type": "bytes32"
        },
        {
          "internalType": "address",
          "name": "account",
          "type": "address"
        }
      ],
      "name": "renounceRole",
      "outputs": [],
      "stateMutability": "nonpayable",
      "type": "function"
    },
    {
      "inputs": [
        {
          "internalType": "bytes32",
          "name": "role",
          "type": "bytes32"
        },
        {
          "internalType": "address",
          "name": "account",
          "type": "address"
        }
      ],
      "name": "revokeRole",
      "outputs": [],
      "stateMutability": "nonpayable",
      "type": "function"
    },
    {
      "inputs": [
        {
          "internalType": "address",
          "name": "from",
          "type": "address"
        },
        {
          "internalType": "address",
          "name": "to",
          "type": "address"
        },
        {
          "internalType": "uint256",
          "name": "tokenId",
          "type": "uint256"
        }
      ],
      "name": "safeTransferFrom",
      "outputs": [],
      "stateMutability": "nonpayable",
      "type": "function"
    },
    {
      "inputs": [
        {
          "internalType": "address",
          "name": "from",
          "type": "address"
        },
        {
          "internalType": "address",
          "name": "to",
          "type": "address"
        },
        {
          "internalType": "uint256",
          "name": "tokenId",
          "type": "uint256"
        },
        {
          "internalType": "bytes",
          "name": "data",
          "type": "bytes"
        }
      ],
      "name": "safeTransferFrom",
      "outputs": [],
      "stateMutability": "nonpayable",
      "type": "function"
    },
    {
      "inputs": [
        {
          "internalType": "address",
          "name": "operator",
          "type": "address"
        },
        {
          "internalType": "bool",
          "name": "approved",
          "type": "bool"
        }
      ],
      "name": "setApprovalForAll",
      "outputs": [],
      "stateMutability": "nonpayable",
      "type": "function"
    },
    {
      "inputs": [
        {
          "internalType": "bytes4",
          "name": "interfaceId",
          "type": "bytes4"
        }
      ],
      "name": "supportsInterface",
      "outputs": [
        {
          "internalType": "bool",
          "name": "",
          "type": "bool"
        }
      ],
      "stateMutability": "view",
      "type": "function"
    },
    {
      "inputs": [
        {
          "internalType": "address",
          "name": "suspendAccount",
          "type": "address"
        },
        {
          "internalType": "string",
          "name": "reason",
          "type": "string"
        }
      ],
      "name": "suspendAccountDeleteTokenAndIdentityBlob",
      "outputs": [],
      "stateMutability": "nonpayable",
      "type": "function"
    },
    {
      "inputs": [
        {
          "internalType": "address",
          "name": "suspendAddress",
          "type": "address"
        },
        {
          "internalType": "string",
          "name": "reason",
          "type": "string"
        }
      ],
      "name": "suspendAccountMaintainTokenAndIdentityBlob",
      "outputs": [],
      "stateMutability": "nonpayable",
      "type": "function"
    },
    {
      "inputs": [],
      "name": "symbol",
      "outputs": [
        {
          "internalType": "string",
          "name": "",
          "type": "string"
        }
      ],
      "stateMutability": "view",
      "type": "function"
    },
    {
      "inputs": [
        {
          "internalType": "uint256",
          "name": "tokenId",
          "type": "uint256"
        }
      ],
      "name": "tokenURI",
      "outputs": [
        {
          "internalType": "string",
          "name": "",
          "type": "string"
        }
      ],
      "stateMutability": "view",
      "type": "function"
    },
    {
      "inputs": [
        {
          "internalType": "address",
          "name": "from",
          "type": "address"
        },
        {
          "internalType": "address",
          "name": "to",
          "type": "address"
        },
        {
          "internalType": "uint256",
          "name": "tokenId",
          "type": "uint256"
        }
      ],
      "name": "transferFrom",
      "outputs": [],
      "stateMutability": "nonpayable",
      "type": "function"
    },
    {
      "inputs": [
        {
          "internalType": "address",
          "name": "account",
          "type": "address"
        },
        {
          "internalType": "string",
          "name": "countryCode",
          "type": "string"
        },
        {
          "internalType": "uint8",
          "name": "userType",
          "type": "uint8"
        },
        {
          "internalType": "uint8",
          "name": "level",
          "type": "uint8"
        },
        {
          "internalType": "uint256",
          "name": "expiry",
          "type": "uint256"
        }
      ],
      "name": "updateIdentity",
      "outputs": [],
      "stateMutability": "nonpayable",
      "type": "function"
    },
    {
      "inputs": [
        {
          "internalType": "address",
          "name": "account",
          "type": "address"
        },
        {
          "internalType": "string",
          "name": "tokenUri",
          "type": "string"
        }
      ],
      "name": "updateTokenURI",
      "outputs": [],
      "stateMutability": "nonpayable",
      "type": "function"
    }
  ],
  "bytecode": "0x608060405234801561001057600080fd5b50615dbe80620000216000396000f3fe608060405234801561001057600080fd5b506004361061021c5760003560e01c806391d1485411610125578063c207e9e0116100ad578063dc9a4ef61161007c578063dc9a4ef6146106bd578063dfb24b89146106db578063e86573e41461070b578063e985e9c514610727578063f6a4b4d7146107575761021c565b8063c207e9e014610625578063c87b56dd14610655578063d4ec909614610685578063d547741f146106a15761021c565b8063a217fddf116100f4578063a217fddf14610583578063a22cb465146105a1578063b467177f146105bd578063b88d4fde146105ed578063c0c53b8b146106095761021c565b806391d14854146104d5578063949cdd6e1461050557806395d89b411461053557806396257e4d146105535761021c565b806336568abe116101a85780636352211e116101775780636352211e146103f5578063688ea9fe146104255780636ca5fde81461045957806370a082311461048957806380a5a896146104b95761021c565b806336568abe146103835780633bc2c0781461039f57806342842e0e146103bb57806356189236146103d75761021c565b8063095ea7b3116101ef578063095ea7b3146102cf5780631fe0094a146102eb57806323b872dd1461031b578063248a9ca3146103375780632f2ff15d146103675761021c565b806301ffc9a71461022157806306fdde0314610251578063081812fc1461026f57806309299ea31461029f575b600080fd5b61023b60048036038101906102369190614bb3565b610773565b60405161024891906151c0565b60405180910390f35b6102596107c1565b6040516102669190615211565b60405180910390f35b61028960048036038101906102849190614c05565b610853565b6040516102969190615118565b60405180910390f35b6102b960048036038101906102b491906147ab565b610899565b6040516102c69190615471565b60405180910390f35b6102e960048036038101906102e49190614b12565b610920565b005b610305600480360381019061030091906147ab565b610a38565b60405161031291906154e6565b60405180910390f35b6103356004803603810190610330919061485f565b610bfe565b005b610351600480360381019061034c9190614b4e565b610cac565b60405161035e91906151db565b60405180910390f35b610381600480360381019061037c9190614b77565b610ccc565b005b61039d60048036038101906103989190614b77565b610ced565b005b6103b960048036038101906103b49190614965565b610d70565b005b6103d560048036038101906103d0919061485f565b611053565b005b6103df611101565b6040516103ec9190615471565b60405180910390f35b61040f600480360381019061040a9190614c05565b61114e565b60405161041c9190615118565b60405180910390f35b61043f600480360381019061043a91906147ab565b6111d5565b60405161045095949392919061548c565b60405180910390f35b610473600480360381019061046e91906147ab565b6112ad565b604051610480919061544f565b60405180910390f35b6104a3600480360381019061049e91906147ab565b611421565b6040516104b09190615471565b60405180910390f35b6104d360048036038101906104ce9190614965565b6114d9565b005b6104ef60048036038101906104ea9190614b77565b611680565b6040516104fc91906151c0565b60405180910390f35b61051f600480360381019061051a91906147ab565b6116eb565b60405161052c91906154e6565b60405180910390f35b61053d6118b1565b60405161054a9190615211565b60405180910390f35b61056d600480360381019061056891906147ab565b611943565b60405161057a9190615211565b60405180910390f35b61058b611b84565b60405161059891906151db565b60405180910390f35b6105bb60048036038101906105b69190614929565b611b8b565b005b6105d760048036038101906105d291906147ab565b611ba1565b6040516105e491906154e6565b60405180910390f35b610607600480360381019061060291906148ae565b611c35565b005b610623600480360381019061061e9190614810565b611c97565b005b61063f600480360381019061063a91906147ab565b61201b565b60405161064c91906154e6565b60405180910390f35b61066f600480360381019061066a9190614c05565b6120af565b60405161067c9190615211565b60405180910390f35b61069f600480360381019061069a9190614a4f565b612261565b005b6106bb60048036038101906106b69190614b77565b6127f5565b005b6106c5612816565b6040516106d291906151db565b60405180910390f35b6106f560048036038101906106f091906147ab565b61283a565b6040516107029190615211565b60405180910390f35b610725600480360381019061072091906149bd565b612949565b005b610741600480360381019061073c91906147d4565b612ca0565b60405161074e91906151c0565b60405180910390f35b610771600480360381019061076c9190614965565b612d34565b005b600061078967bb394ff96495738360c01b612f99565b61079d6751deb66d5108742160c01b612f99565b6107b16740a84345ff486f4060c01b612f99565b6107ba82612f9c565b9050919050565b6060606680546107d090615776565b80601f01602080910402602001604051908101604052809291908181526020018280546107fc90615776565b80156108495780601f1061081e57610100808354040283529160200191610849565b820191906000526020600020905b81548152906001019060200180831161082c57829003601f168201915b5050505050905090565b600061085e82613016565b606a600083815260200190815260200160002060009054906101000a900473ffffffffffffffffffffffffffffffffffffffff169050919050565b60006108af6769c1a1d6327d607160c01b613061565b6108c367bdaf4779ff83744f60c01b613061565b6108d767c1c9ef872120ad4c60c01b613061565b6000808373ffffffffffffffffffffffffffffffffffffffff1673ffffffffffffffffffffffffffffffffffffffff168152602001908152602001600020600301549050919050565b600061092b8261114e565b90508073ffffffffffffffffffffffffffffffffffffffff168373ffffffffffffffffffffffffffffffffffffffff16141561099c576040517f08c379a000000000000000000000000000000000000000000000000000000000815260040161099390615393565b60405180910390fd5b8073ffffffffffffffffffffffffffffffffffffffff166109bb613064565b73ffffffffffffffffffffffffffffffffffffffff1614806109ea57506109e9816109e4613064565b612ca0565b5b610a29576040517f08c379a0000000000000000000000000000000000000000000000000000000008152600401610a20906153b3565b60405180910390fd5b610a33838361306c565b505050565b6000610a4e67dc0c995e8c89436c60c01b613125565b610a6267c8c8ce89cab65bb260c01b613125565b610a76678a8a08e8027046c760c01b613125565b6000808373ffffffffffffffffffffffffffffffffffffffff1673ffffffffffffffffffffffffffffffffffffffff168152602001908152602001600020600301544210610b6c57610ad26791c41a347ba64e9660c01b613125565b610ae6679881f450aa1ce9eb60c01b613125565b610afa67312e0ffaf24bb87460c01b613125565b6040518060400160405280600381526020017f31303300000000000000000000000000000000000000000000000000000000008152506040517f08c379a0000000000000000000000000000000000000000000000000000000008152600401610b639190615211565b60405180910390fd5b610b8067c78863f958234bc560c01b613125565b610b9467c5c511546c50c45160c01b613125565b610ba86706dae439f14a554160c01b613125565b6000808373ffffffffffffffffffffffffffffffffffffffff1673ffffffffffffffffffffffffffffffffffffffff16815260200190815260200160002060020160009054906101000a900460ff169050919050565b610c126754ffdbd468219e9660c01b612f99565b610c26677647c4bc02b8e54e60c01b612f99565b610c3a67ae1d078a9d37a4b260c01b612f99565b6040518060400160405280600381526020017f31303200000000000000000000000000000000000000000000000000000000008152506040517f08c379a0000000000000000000000000000000000000000000000000000000008152600401610ca39190615211565b60405180910390fd5b600060986000838152602001908152602001600020600101549050919050565b610cd582610cac565b610cde81613128565b610ce8838361313c565b505050565b610cf5613064565b73ffffffffffffffffffffffffffffffffffffffff168173ffffffffffffffffffffffffffffffffffffffff1614610d62576040517f08c379a0000000000000000000000000000000000000000000000000000000008152600401610d599061542f565b60405180910390fd5b610d6c828261321d565b5050565b610d84677b5c33ecf3727f4a60c01b612f99565b7f60044782a422109ac08a415e44260ad5d3bad63d96ebe1fac0363399642ee3f2610dae81613128565b610dc267bbd200de44e24c9b60c01b612f99565b610dd6676b4efcc6cca0c3fd60c01b612f99565b610dea67845d0b140a93c12560c01b612f99565b610dfe6773ee7804a611c94760c01b612f99565b60cb60009054906101000a900473ffffffffffffffffffffffffffffffffffffffff1673ffffffffffffffffffffffffffffffffffffffff166384b7a84a8560016040518363ffffffff1660e01b8152600401610e5c9291906153d3565b600060405180830381600087803b158015610e7657600080fd5b505af1158015610e8a573d6000803e3d6000fd5b50505050610ea2674261c4441178f68f60c01b612f99565b610eb667147b0824d5c52d1e60c01b612f99565b600060cc60008673ffffffffffffffffffffffffffffffffffffffff1673ffffffffffffffffffffffffffffffffffffffff168152602001908152602001600020549050610f0e67ac09fd51df6bbb5460c01b612f99565b610f22679dac79938abcf8d060c01b612f99565b610f2b816132ff565b610f3f67015076a70c0af72c60c01b612f99565b6000808673ffffffffffffffffffffffffffffffffffffffff1673ffffffffffffffffffffffffffffffffffffffff168152602001908152602001600020600080820160009055600182016000610f9691906144c8565b6002820160006101000a81549060ff02191690556002820160016101000a81549060ff021916905560038201600090555050610fdc672d8e3478a7d95b0560c01b612f99565b610ff067332cd9e58174c79b60c01b612f99565b83836040516110009291906150c5565b6040518091039020818673ffffffffffffffffffffffffffffffffffffffff167f8b09fc40032762aebf578cd9202b2548559cbac190b3807076418620ef05518f60405160405180910390a45050505050565b61106767beb2a701f24fb88460c01b612f99565b61107b6762fec0094c8f928a60c01b612f99565b61108f677ab62c3941758f0660c01b612f99565b6040518060400160405280600381526020017f31303200000000000000000000000000000000000000000000000000000000008152506040517f08c379a00000000000000000000000000000000000000000000000000000000081526004016110f89190615211565b60405180910390fd5b600061111767aa04d3478398cf6f60c01b612f99565b61112b6724081be78105f81f60c01b612f99565b61113f67d676a7130c06d07e60c01b612f99565b61114960ca61344d565b905090565b60008061115a8361345b565b9050600073ffffffffffffffffffffffffffffffffffffffff168173ffffffffffffffffffffffffffffffffffffffff1614156111cc576040517f08c379a00000000000000000000000000000000000000000000000000000000081526004016111c390615373565b60405180910390fd5b80915050919050565b60006020528060005260406000206000915090508060000154908060010180546111fe90615776565b80601f016020809104026020016040519081016040528092919081815260200182805461122a90615776565b80156112775780601f1061124c57610100808354040283529160200191611277565b820191906000526020600020905b81548152906001019060200180831161125a57829003601f168201915b5050505050908060020160009054906101000a900460ff16908060020160019054906101000a900460ff16908060030154905085565b6112b5614508565b6112c967e5723316c2f371a060c01b613061565b6112dd672ee488aae38977c460c01b613061565b6112f167a05f59d4624295fd60c01b613061565b6000808373ffffffffffffffffffffffffffffffffffffffff1673ffffffffffffffffffffffffffffffffffffffff1681526020019081526020016000206040518060a00160405290816000820154815260200160018201805461135490615776565b80601f016020809104026020016040519081016040528092919081815260200182805461138090615776565b80156113cd5780601f106113a2576101008083540402835291602001916113cd565b820191906000526020600020905b8154815290600101906020018083116113b057829003601f168201915b505050505081526020016002820160009054906101000a900460ff1660ff1660ff1681526020016002820160019054906101000a900460ff1660ff1660ff1681526020016003820154815250509050919050565b60008073ffffffffffffffffffffffffffffffffffffffff168273ffffffffffffffffffffffffffffffffffffffff161415611492576040517f08c379a000000000000000000000000000000000000000000000000000000000815260040161148990615313565b60405180910390fd5b606960008373ffffffffffffffffffffffffffffffffffffffff1673ffffffffffffffffffffffffffffffffffffffff168152602001908152602001600020549050919050565b6114ed672a6a7f0de763f6a760c01b612f99565b7f60044782a422109ac08a415e44260ad5d3bad63d96ebe1fac0363399642ee3f261151781613128565b61152b67d52e5a607cd2dd4560c01b612f99565b61153f676a18f9ca1823016a60c01b612f99565b6115536789e3dfc1996b87a160c01b612f99565b6115676750c948dfdb7f780c60c01b612f99565b60cb60009054906101000a900473ffffffffffffffffffffffffffffffffffffffff1673ffffffffffffffffffffffffffffffffffffffff166384b7a84a8560016040518363ffffffff1660e01b81526004016115c59291906153d3565b600060405180830381600087803b1580156115df57600080fd5b505af11580156115f3573d6000803e3d6000fd5b5050505061160b674a1cce405faff74560c01b612f99565b61161f67f5117f9257161bab60c01b612f99565b828260405161162f9291906150c5565b60405180910390208473ffffffffffffffffffffffffffffffffffffffff167f3347b0049117ab94fddf6cff81cc554c4f7489acedc7c33907a96655770e58ae60405160405180910390a350505050565b60006098600084815260200190815260200160002060000160008373ffffffffffffffffffffffffffffffffffffffff1673ffffffffffffffffffffffffffffffffffffffff16815260200190815260200160002060009054906101000a900460ff16905092915050565b600061170167d9a43cd54b2554f860c01b613125565b61171567b80c4d30135ffecc60c01b613125565b61172967e7400f8588b3b9fd60c01b613125565b6000808373ffffffffffffffffffffffffffffffffffffffff1673ffffffffffffffffffffffffffffffffffffffff16815260200190815260200160002060030154421061181f5761178567218e4aadc28bad5460c01b613125565b6117996709e2c5a8a6db9e6460c01b613125565b6117ad67a46d03d2c5d0aae460c01b613125565b6040518060400160405280600381526020017f31303300000000000000000000000000000000000000000000000000000000008152506040517f08c379a00000000000000000000000000000000000000000000000000000000081526004016118169190615211565b60405180910390fd5b6118336759e43ca1959c0a4e60c01b613125565b61184767c0882176d22f194460c01b613125565b61185b6719c99830b5b4654060c01b613125565b6000808373ffffffffffffffffffffffffffffffffffffffff1673ffffffffffffffffffffffffffffffffffffffff16815260200190815260200160002060020160019054906101000a900460ff169050919050565b6060606780546118c090615776565b80601f01602080910402602001604051908101604052809291908181526020018280546118ec90615776565b80156119395780601f1061190e57610100808354040283529160200191611939565b820191906000526020600020905b81548152906001019060200180831161191c57829003601f168201915b5050505050905090565b606061195967bcb792c7ec738dce60c01b613125565b61196d67de6cb27c8a37b37a60c01b613125565b61198167798aa39337352c8c60c01b613125565b6000808373ffffffffffffffffffffffffffffffffffffffff1673ffffffffffffffffffffffffffffffffffffffff168152602001908152602001600020600301544210611a77576119dd67dab4f449d5de2f6f60c01b613125565b6119f16770d4d7382d2a981660c01b613125565b611a0567c5c834afaae4a7d160c01b613125565b6040518060400160405280600381526020017f31303300000000000000000000000000000000000000000000000000000000008152506040517f08c379a0000000000000000000000000000000000000000000000000000000008152600401611a6e9190615211565b60405180910390fd5b611a8b67282dd2059d86991c60c01b613125565b611a9f67bc73e24e23818fec60c01b613125565b611ab3673afbff51046f6dc960c01b613125565b6000808373ffffffffffffffffffffffffffffffffffffffff1673ffffffffffffffffffffffffffffffffffffffff1681526020019081526020016000206001018054611aff90615776565b80601f0160208091040260200160405190810160405280929190818152602001828054611b2b90615776565b8015611b785780601f10611b4d57610100808354040283529160200191611b78565b820191906000526020600020905b815481529060010190602001808311611b5b57829003601f168201915b50505050509050919050565b6000801b81565b611b9d611b96613064565b8383613498565b5050565b6000611bb767d1e3fdb2292aa24960c01b613605565b611bcb679561272df2bf34be60c01b613605565b611bdf6732c39d4afc3889c160c01b613605565b6000808373ffffffffffffffffffffffffffffffffffffffff1673ffffffffffffffffffffffffffffffffffffffff16815260200190815260200160002060020160009054906101000a900460ff169050919050565b611c46611c40613064565b83613608565b611c85576040517f08c379a0000000000000000000000000000000000000000000000000000000008152600401611c7c90615253565b60405180910390fd5b611c918484848461369d565b50505050565b611cab67e9e781af018d0c6260c01b612f99565b600060018054906101000a900460ff16159050808015611cdc575060018060009054906101000a900460ff1660ff16105b80611d0a5750611ceb306136f9565b158015611d09575060018060009054906101000a900460ff1660ff16145b5b611d49576040517f08c379a0000000000000000000000000000000000000000000000000000000008152600401611d4090615333565b60405180910390fd5b60018060006101000a81548160ff021916908360ff1602179055508015611d855760018060016101000a81548160ff0219169083151502179055505b611d9967caee5dff65a33afa60c01b612f99565b611dad679088bcc77126f54460c01b612f99565b611dc1677604481fbb6a266e60c01b612f99565b611dd567845fa192e40eadf860c01b612f99565b611ddd61371c565b611df167d6acb33fdf8f4a0e60c01b612f99565b611e05672e1ac8ffce13240d60c01b612f99565b611e796040518060400160405280601181526020017f50726f6f66206f66204964656e746974790000000000000000000000000000008152506040518060400160405280600581526020017f48312d494400000000000000000000000000000000000000000000000000000081525061376b565b611e8d67b2c99be2320a46f060c01b612f99565b8360cb60006101000a81548173ffffffffffffffffffffffffffffffffffffffff021916908373ffffffffffffffffffffffffffffffffffffffff160217905550611ee267db5e81f582bcaad060c01b612f99565b611ef6675531b2f2cdb00fd460c01b612f99565b611f036000801b3361321d565b611f1767c35260d3ca1195ec60c01b612f99565b611f2b6726aa13abf7403bea60c01b612f99565b611f386000801b8461313c565b611f4c674c082c8f4167302160c01b612f99565b611f60676e38d6c81f9cab4560c01b612f99565b611f8a7f60044782a422109ac08a415e44260ad5d3bad63d96ebe1fac0363399642ee3f28361313c565b611f9e67508b6bb5de8f3fbc60c01b612f99565b611fb267e9a8f8fb83dc431760c01b612f99565b611fbc60ca6137c6565b80156120155760006001806101000a81548160ff0219169083151502179055507f7f26b83ff96e1f2b6a682f133852f6798a09c465da95921460cefb3847402498600160405161200c91906151f6565b60405180910390a15b50505050565b600061203167a5bd462cd2256c0b60c01b613605565b61204567724c0f716158057260c01b613605565b61205967c0754c09f9d3a69e60c01b613605565b6000808373ffffffffffffffffffffffffffffffffffffffff1673ffffffffffffffffffffffffffffffffffffffff16815260200190815260200160002060020160019054906101000a900460ff169050919050565b60606120c567d9fa80327e35d49360c01b612f99565b6120d9677d940d36bbca069960c01b612f99565b6120ed671db7405e319f6de060c01b612f99565b6121016783497ce10971c48260c01b612f99565b61210a826137dc565b6040518060400160405280600381526020017f313031000000000000000000000000000000000000000000000000000000000081525090612181576040517f08c379a00000000000000000000000000000000000000000000000000000000081526004016121789190615211565b60405180910390fd5b506121966762590d6add00706060c01b612f99565b6121aa67082d46af2af6d0e960c01b612f99565b6121be6727c63058f90a821360c01b612f99565b60cd600083815260200190815260200160002080546121dc90615776565b80601f016020809104026020016040519081016040528092919081815260200182805461220890615776565b80156122555780601f1061222a57610100808354040283529160200191612255565b820191906000526020600020905b81548152906001019060200180831161223857829003601f168201915b50505050509050919050565b61227567fa511d69cd7182cc60c01b612f99565b7f60044782a422109ac08a415e44260ad5d3bad63d96ebe1fac0363399642ee3f261229f81613128565b6122b367392f0d43f4d4891e60c01b612f99565b6122c767f395fc16c3fbe06660c01b612f99565b6122db679bbbaef6a682f66360c01b612f99565b6122ef67ee7e50a6420af52a60c01b612f99565b612303670d909d8ca32fd99460c01b612f99565b600061230e8a611421565b146040518060400160405280600381526020017f313030000000000000000000000000000000000000000000000000000000000081525090612386576040517f08c379a000000000000000000000000000000000000000000000000000000000815260040161237d9190615211565b60405180910390fd5b5061239b6782dc340fd2ce7a3c60c01b612f99565b6123af67b936a459d9cceeb460c01b612f99565b6123c36733f80892f70f07c260c01b612f99565b6123d767751a1e09c7b26b9760c01b612f99565b4284116040518060400160405280600381526020017f313033000000000000000000000000000000000000000000000000000000000081525090612451576040517f08c379a00000000000000000000000000000000000000000000000000000000081526004016124489190615211565b60405180910390fd5b5061246667f93752652b57fda160c01b612f99565b61247a6761658d08f3aed9f960c01b612f99565b61248e67ed3a0e877d7a61ba60c01b612f99565b600061249a60ca61344d565b90506124b0673c9e84b7efa50cce60c01b612f99565b6040518060a001604052808281526020018a8a8080601f016020809104026020016040519081016040528093929190818152602001838380828437600081840152601f19601f8201169050808301925050505050505081526020018860ff1681526020018760ff168152602001868152506000808c73ffffffffffffffffffffffffffffffffffffffff1673ffffffffffffffffffffffffffffffffffffffff16815260200190815260200160002060008201518160000155602082015181600101908051906020019061258592919061453d565b5060408201518160020160006101000a81548160ff021916908360ff16021790555060608201518160020160016101000a81548160ff021916908360ff160217905550608082015181600301559050506125e96782a506ecba8b3e3660c01b612f99565b6125fd6709758a2c9186cdc960c01b612f99565b61260760ca6137c6565b61261b67eb47a0b425aa05fa60c01b612f99565b61262f67cea4da29c53476a760c01b612f99565b6126398a8261381d565b61264d67fb0eb89ec11ecc9a60c01b612f99565b838360cd6000848152602001908152602001600020919061266f9291906145c3565b50612684679bec0fbaf82459fe60c01b612f99565b8060cc60008c73ffffffffffffffffffffffffffffffffffffffff1673ffffffffffffffffffffffffffffffffffffffff168152602001908152602001600020819055506126dc67b5e9978688c1f84060c01b612f99565b6126f067c972f5a40165ec3e60c01b612f99565b60cb60009054906101000a900473ffffffffffffffffffffffffffffffffffffffff1673ffffffffffffffffffffffffffffffffffffffff16632f7f0a128b6040518263ffffffff1660e01b815260040161274b919061517f565b600060405180830381600087803b15801561276557600080fd5b505af1158015612779573d6000803e3d6000fd5b5050505061279167fc195f73a047bb4e60c01b612f99565b6127a567e3169663323ecdc660c01b612f99565b808a73ffffffffffffffffffffffffffffffffffffffff167faf62702571aa2959cc884d2d2f058f2dde9f91f8cb7b5a5c62887ec1aef856e760405160405180910390a350505050505050505050565b6127fe82610cac565b61280781613128565b612811838361321d565b505050565b7f60044782a422109ac08a415e44260ad5d3bad63d96ebe1fac0363399642ee3f281565b606061285067abc250f3a5af737460c01b613605565b612864678cdca69b2002840960c01b613605565b61287867371008949763f33860c01b613605565b6000808373ffffffffffffffffffffffffffffffffffffffff1673ffffffffffffffffffffffffffffffffffffffff16815260200190815260200160002060010180546128c490615776565b80601f01602080910402602001604051908101604052809291908181526020018280546128f090615776565b801561293d5780601f106129125761010080835404028352916020019161293d565b820191906000526020600020905b81548152906001019060200180831161292057829003601f168201915b50505050509050919050565b61295d6710afa83ca1c3d58560c01b612f99565b7f60044782a422109ac08a415e44260ad5d3bad63d96ebe1fac0363399642ee3f261298781613128565b61299b675a0aac7b2b3f951560c01b612f99565b6129af67243f9099585693e060c01b612f99565b6129c3677da896f8bf1cc3cf60c01b612f99565b6129d767cccd7a33d4b9fa1060c01b612f99565b6129eb67d40c81e56e7696d860c01b612f99565b60016129f688611421565b146040518060400160405280600381526020017f313031000000000000000000000000000000000000000000000000000000000081525090612a6e576040517f08c379a0000000000000000000000000000000000000000000000000000000008152600401612a659190615211565b60405180910390fd5b50612a8367dc6f840eb155df4c60c01b612f99565b612a9767d146a42f7b963b6c60c01b612f99565b612aab677957dddef68a0dbd60c01b612f99565b60008060008973ffffffffffffffffffffffffffffffffffffffff1673ffffffffffffffffffffffffffffffffffffffff168152602001908152602001600020600001549050612b0567071c78acf7c84dec60c01b612f99565b6040518060a0016040528082815260200188888080601f016020809104026020016040519081016040528093929190818152602001838380828437600081840152601f19601f8201169050808301925050505050505081526020018660ff1681526020018560ff168152602001848152506000808a73ffffffffffffffffffffffffffffffffffffffff1673ffffffffffffffffffffffffffffffffffffffff168152602001908152602001600020600082015181600001556020820151816001019080519060200190612bda92919061453d565b5060408201518160020160006101000a81548160ff021916908360ff16021790555060608201518160020160016101000a81548160ff021916908360ff16021790555060808201518160030155905050612c3e67cfbdbd14ea70c18960c01b612f99565b612c52670e894815cb1587f660c01b612f99565b808873ffffffffffffffffffffffffffffffffffffffff167f4a1e31466f875c6fcafefabf90bce8accdf53108c4a309106058ef7aefebd5ce60405160405180910390a35050505050505050565b6000606b60008473ffffffffffffffffffffffffffffffffffffffff1673ffffffffffffffffffffffffffffffffffffffff16815260200190815260200160002060008373ffffffffffffffffffffffffffffffffffffffff1673ffffffffffffffffffffffffffffffffffffffff16815260200190815260200160002060009054906101000a900460ff16905092915050565b612d4867a1274e712c67e94160c01b612f99565b7f60044782a422109ac08a415e44260ad5d3bad63d96ebe1fac0363399642ee3f2612d7281613128565b612d86679e18eedf841235ba60c01b612f99565b612d9a67ce81be1dc86cf1b960c01b612f99565b612dae6758e6026e0c90f46d60c01b612f99565b612dc26737c927149839212660c01b612f99565b600060cc60008673ffffffffffffffffffffffffffffffffffffffff1673ffffffffffffffffffffffffffffffffffffffff168152602001908152602001600020549050612e1a67b7b2e8036abaf9fa60c01b612f99565b612e2e67d884d7a2e493b52d60c01b612f99565b612e426714ae4ff4824cc3cb60c01b612f99565b612e4b816137dc565b6040518060400160405280600381526020017f313031000000000000000000000000000000000000000000000000000000000081525090612ec2576040517f08c379a0000000000000000000000000000000000000000000000000000000008152600401612eb99190615211565b60405180910390fd5b50612ed76741e97fe671d34fa960c01b612f99565b612eeb67069d0b154fa96c3160c01b612f99565b838360cd60008481526020019081526020016000209190612f0d9291906145c3565b50612f22670eaed5f196289e1060c01b612f99565b612f366771f2625500517a1960c01b612f99565b8383604051612f469291906150c5565b6040518091039020818673ffffffffffffffffffffffffffffffffffffffff167fe3a3e1a0be0d562dd7ec739509d30dfbca7cd174fbc576a45746fe1f3b277c2660405160405180910390a45050505050565b50565b60007f7965db0b000000000000000000000000000000000000000000000000000000007bffffffffffffffffffffffffffffffffffffffffffffffffffffffff1916827bffffffffffffffffffffffffffffffffffffffffffffffffffffffff1916148061300f575061300e8261383b565b5b9050919050565b61301f816137dc565b61305e576040517f08c379a000000000000000000000000000000000000000000000000000000000815260040161305590615373565b60405180910390fd5b50565b50565b600033905090565b81606a600083815260200190815260200160002060006101000a81548173ffffffffffffffffffffffffffffffffffffffff021916908373ffffffffffffffffffffffffffffffffffffffff160217905550808273ffffffffffffffffffffffffffffffffffffffff166130df8361114e565b73ffffffffffffffffffffffffffffffffffffffff167f8c5be1e5ebec7d5bd14f71427d1e84f3dd0314c0f7b2291e5b200ac8c7c3b92560405160405180910390a45050565b50565b61313981613134613064565b61391d565b50565b6131468282611680565b6132195760016098600084815260200190815260200160002060000160008373ffffffffffffffffffffffffffffffffffffffff1673ffffffffffffffffffffffffffffffffffffffff16815260200190815260200160002060006101000a81548160ff0219169083151502179055506131be613064565b73ffffffffffffffffffffffffffffffffffffffff168173ffffffffffffffffffffffffffffffffffffffff16837f2f8788117e7eff1d82e926ec794901d17c78024a50270940304540a733656f0d60405160405180910390a45b5050565b6132278282611680565b156132fb5760006098600084815260200190815260200160002060000160008373ffffffffffffffffffffffffffffffffffffffff1673ffffffffffffffffffffffffffffffffffffffff16815260200190815260200160002060006101000a81548160ff0219169083151502179055506132a0613064565b73ffffffffffffffffffffffffffffffffffffffff168173ffffffffffffffffffffffffffffffffffffffff16837ff6391f5c32d9c69d2a47ea670b442974b53935d1edc7fd64eb21e047a839171b60405160405180910390a45b5050565b600061330a8261114e565b905061331a8160008460016139a2565b6133238261114e565b9050606a600083815260200190815260200160002060006101000a81549073ffffffffffffffffffffffffffffffffffffffff02191690556001606960008373ffffffffffffffffffffffffffffffffffffffff1673ffffffffffffffffffffffffffffffffffffffff168152602001908152602001600020600082825403925050819055506068600083815260200190815260200160002060006101000a81549073ffffffffffffffffffffffffffffffffffffffff021916905581600073ffffffffffffffffffffffffffffffffffffffff168273ffffffffffffffffffffffffffffffffffffffff167fddf252ad1be2c89b69c2b068fc378daa952ba7f163c4a11628f55a4df523b3ef60405160405180910390a46134498160008460016139a8565b5050565b600081600001549050919050565b60006068600083815260200190815260200160002060009054906101000a900473ffffffffffffffffffffffffffffffffffffffff169050919050565b8173ffffffffffffffffffffffffffffffffffffffff168373ffffffffffffffffffffffffffffffffffffffff161415613507576040517f08c379a00000000000000000000000000000000000000000000000000000000081526004016134fe906152f3565b60405180910390fd5b80606b60008573ffffffffffffffffffffffffffffffffffffffff1673ffffffffffffffffffffffffffffffffffffffff16815260200190815260200160002060008473ffffffffffffffffffffffffffffffffffffffff1673ffffffffffffffffffffffffffffffffffffffff16815260200190815260200160002060006101000a81548160ff0219169083151502179055508173ffffffffffffffffffffffffffffffffffffffff168373ffffffffffffffffffffffffffffffffffffffff167f17307eab39ab6107e8899845ad3d59bd9653f200f220920489ca2b5937696c31836040516135f891906151c0565b60405180910390a3505050565b50565b6000806136148361114e565b90508073ffffffffffffffffffffffffffffffffffffffff168473ffffffffffffffffffffffffffffffffffffffff16148061365657506136558185612ca0565b5b8061369457508373ffffffffffffffffffffffffffffffffffffffff1661367c84610853565b73ffffffffffffffffffffffffffffffffffffffff16145b91505092915050565b6136a88484846139ae565b6136b484848484613ca8565b6136f3576040517f08c379a00000000000000000000000000000000000000000000000000000000081526004016136ea90615273565b60405180910390fd5b50505050565b6000808273ffffffffffffffffffffffffffffffffffffffff163b119050919050565b60018054906101000a900460ff16613769576040517f08c379a00000000000000000000000000000000000000000000000000000000081526004016137609061540f565b60405180910390fd5b565b60018054906101000a900460ff166137b8576040517f08c379a00000000000000000000000000000000000000000000000000000000081526004016137af9061540f565b60405180910390fd5b6137c28282613e3f565b5050565b6001816000016000828254019250508190555050565b60008073ffffffffffffffffffffffffffffffffffffffff166137fe8361345b565b73ffffffffffffffffffffffffffffffffffffffff1614159050919050565b613837828260405180602001604052806000815250613ebe565b5050565b60007f80ac58cd000000000000000000000000000000000000000000000000000000007bffffffffffffffffffffffffffffffffffffffffffffffffffffffff1916827bffffffffffffffffffffffffffffffffffffffffffffffffffffffff1916148061390657507f5b5e139f000000000000000000000000000000000000000000000000000000007bffffffffffffffffffffffffffffffffffffffffffffffffffffffff1916827bffffffffffffffffffffffffffffffffffffffffffffffffffffffff1916145b80613916575061391582613f19565b5b9050919050565b6139278282611680565b61399e5761393481613f83565b6139428360001c6020613fb0565b6040516020016139539291906150de565b6040516020818303038152906040526040517f08c379a00000000000000000000000000000000000000000000000000000000081526004016139959190615211565b60405180910390fd5b5050565b50505050565b50505050565b8273ffffffffffffffffffffffffffffffffffffffff166139ce8261114e565b73ffffffffffffffffffffffffffffffffffffffff1614613a24576040517f08c379a0000000000000000000000000000000000000000000000000000000008152600401613a1b90615293565b60405180910390fd5b600073ffffffffffffffffffffffffffffffffffffffff168273ffffffffffffffffffffffffffffffffffffffff161415613a94576040517f08c379a0000000000000000000000000000000000000000000000000000000008152600401613a8b906152d3565b60405180910390fd5b613aa183838360016139a2565b8273ffffffffffffffffffffffffffffffffffffffff16613ac18261114e565b73ffffffffffffffffffffffffffffffffffffffff1614613b17576040517f08c379a0000000000000000000000000000000000000000000000000000000008152600401613b0e90615293565b60405180910390fd5b606a600082815260200190815260200160002060006101000a81549073ffffffffffffffffffffffffffffffffffffffff02191690556001606960008573ffffffffffffffffffffffffffffffffffffffff1673ffffffffffffffffffffffffffffffffffffffff168152602001908152602001600020600082825403925050819055506001606960008473ffffffffffffffffffffffffffffffffffffffff1673ffffffffffffffffffffffffffffffffffffffff16815260200190815260200160002060008282540192505081905550816068600083815260200190815260200160002060006101000a81548173ffffffffffffffffffffffffffffffffffffffff021916908373ffffffffffffffffffffffffffffffffffffffff160217905550808273ffffffffffffffffffffffffffffffffffffffff168473ffffffffffffffffffffffffffffffffffffffff167fddf252ad1be2c89b69c2b068fc378daa952ba7f163c4a11628f55a4df523b3ef60405160405180910390a4613ca383838360016139a8565b505050565b6000613cc98473ffffffffffffffffffffffffffffffffffffffff166136f9565b15613e32578373ffffffffffffffffffffffffffffffffffffffff1663150b7a02613cf2613064565b8786866040518563ffffffff1660e01b8152600401613d149493929190615133565b602060405180830381600087803b158015613d2e57600080fd5b505af1925050508015613d5f57506040513d601f19601f82011682018060405250810190613d5c9190614bdc565b60015b613de2573d8060008114613d8f576040519150601f19603f3d011682016040523d82523d6000602084013e613d94565b606091505b50600081511415613dda576040517f08c379a0000000000000000000000000000000000000000000000000000000008152600401613dd190615273565b60405180910390fd5b805181602001fd5b63150b7a0260e01b7bffffffffffffffffffffffffffffffffffffffffffffffffffffffff1916817bffffffffffffffffffffffffffffffffffffffffffffffffffffffff191614915050613e37565b600190505b949350505050565b60018054906101000a900460ff16613e8c576040517f08c379a0000000000000000000000000000000000000000000000000000000008152600401613e839061540f565b60405180910390fd5b8160669080519060200190613ea292919061453d565b508060679080519060200190613eb992919061453d565b505050565b613ec883836142aa565b613ed56000848484613ca8565b613f14576040517f08c379a0000000000000000000000000000000000000000000000000000000008152600401613f0b90615273565b60405180910390fd5b505050565b60007f01ffc9a7000000000000000000000000000000000000000000000000000000007bffffffffffffffffffffffffffffffffffffffffffffffffffffffff1916827bffffffffffffffffffffffffffffffffffffffffffffffffffffffff1916149050919050565b6060613fa98273ffffffffffffffffffffffffffffffffffffffff16601460ff16613fb0565b9050919050565b606060006002836002613fc39190615601565b613fcd91906155ab565b67ffffffffffffffff81111561400c577f4e487b7100000000000000000000000000000000000000000000000000000000600052604160045260246000fd5b6040519080825280601f01601f19166020018201604052801561403e5781602001600182028036833780820191505090505b5090507f30000000000000000000000000000000000000000000000000000000000000008160008151811061409c577f4e487b7100000000000000000000000000000000000000000000000000000000600052603260045260246000fd5b60200101907effffffffffffffffffffffffffffffffffffffffffffffffffffffffffffff1916908160001a9053507f780000000000000000000000000000000000000000000000000000000000000081600181518110614126577f4e487b7100000000000000000000000000000000000000000000000000000000600052603260045260246000fd5b60200101907effffffffffffffffffffffffffffffffffffffffffffffffffffffffffffff1916908160001a905350600060018460026141669190615601565b61417091906155ab565b90505b600181111561425c577f3031323334353637383961626364656600000000000000000000000000000000600f8616601081106141d8577f4e487b7100000000000000000000000000000000000000000000000000000000600052603260045260246000fd5b1a60f81b828281518110614215577f4e487b7100000000000000000000000000000000000000000000000000000000600052603260045260246000fd5b60200101907effffffffffffffffffffffffffffffffffffffffffffffffffffffffffffff1916908160001a905350600485901c9450806142559061574c565b9050614173565b50600084146142a0576040517f08c379a000000000000000000000000000000000000000000000000000000000815260040161429790615233565b60405180910390fd5b8091505092915050565b600073ffffffffffffffffffffffffffffffffffffffff168273ffffffffffffffffffffffffffffffffffffffff16141561431a576040517f08c379a000000000000000000000000000000000000000000000000000000000815260040161431190615353565b60405180910390fd5b614323816137dc565b15614363576040517f08c379a000000000000000000000000000000000000000000000000000000000815260040161435a906152b3565b60405180910390fd5b6143716000838360016139a2565b61437a816137dc565b156143ba576040517f08c379a00000000000000000000000000000000000000000000000000000000081526004016143b1906152b3565b60405180910390fd5b6001606960008473ffffffffffffffffffffffffffffffffffffffff1673ffffffffffffffffffffffffffffffffffffffff16815260200190815260200160002060008282540192505081905550816068600083815260200190815260200160002060006101000a81548173ffffffffffffffffffffffffffffffffffffffff021916908373ffffffffffffffffffffffffffffffffffffffff160217905550808273ffffffffffffffffffffffffffffffffffffffff16600073ffffffffffffffffffffffffffffffffffffffff167fddf252ad1be2c89b69c2b068fc378daa952ba7f163c4a11628f55a4df523b3ef60405160405180910390a46144c46000838360016139a8565b5050565b5080546144d490615776565b6000825580601f106144e65750614505565b601f0160209004906000526020600020908101906145049190614649565b5b50565b6040518060a001604052806000815260200160608152602001600060ff168152602001600060ff168152602001600081525090565b82805461454990615776565b90600052602060002090601f01602090048101928261456b57600085556145b2565b82601f1061458457805160ff19168380011785556145b2565b828001600101855582156145b2579182015b828111156145b1578251825591602001919060010190614596565b5b5090506145bf9190614649565b5090565b8280546145cf90615776565b90600052602060002090601f0160209004810192826145f15760008555614638565b82601f1061460a57803560ff1916838001178555614638565b82800160010185558215614638579182015b8281111561463757823582559160200191906001019061461c565b5b5090506146459190614649565b5090565b5b8082111561466257600081600090555060010161464a565b5090565b600061467961467484615526565b615501565b90508281526020810184848401111561469157600080fd5b61469c84828561570a565b509392505050565b6000813590506146b381615cfe565b92915050565b6000813590506146c881615d15565b92915050565b6000813590506146dd81615d2c565b92915050565b6000813590506146f281615d43565b92915050565b60008151905061470781615d43565b92915050565b600082601f83011261471e57600080fd5b813561472e848260208601614666565b91505092915050565b60008083601f84011261474957600080fd5b8235905067ffffffffffffffff81111561476257600080fd5b60208301915083600182028301111561477a57600080fd5b9250929050565b60008135905061479081615d5a565b92915050565b6000813590506147a581615d71565b92915050565b6000602082840312156147bd57600080fd5b60006147cb848285016146a4565b91505092915050565b600080604083850312156147e757600080fd5b60006147f5858286016146a4565b9250506020614806858286016146a4565b9150509250929050565b60008060006060848603121561482557600080fd5b6000614833868287016146a4565b9350506020614844868287016146a4565b9250506040614855868287016146a4565b9150509250925092565b60008060006060848603121561487457600080fd5b6000614882868287016146a4565b9350506020614893868287016146a4565b92505060406148a486828701614781565b9150509250925092565b600080600080608085870312156148c457600080fd5b60006148d2878288016146a4565b94505060206148e3878288016146a4565b93505060406148f487828801614781565b925050606085013567ffffffffffffffff81111561491157600080fd5b61491d8782880161470d565b91505092959194509250565b6000806040838503121561493c57600080fd5b600061494a858286016146a4565b925050602061495b858286016146b9565b9150509250929050565b60008060006040848603121561497a57600080fd5b6000614988868287016146a4565b935050602084013567ffffffffffffffff8111156149a557600080fd5b6149b186828701614737565b92509250509250925092565b60008060008060008060a087890312156149d657600080fd5b60006149e489828a016146a4565b965050602087013567ffffffffffffffff811115614a0157600080fd5b614a0d89828a01614737565b95509550506040614a2089828a01614796565b9350506060614a3189828a01614796565b9250506080614a4289828a01614781565b9150509295509295509295565b60008060008060008060008060c0898b031215614a6b57600080fd5b6000614a798b828c016146a4565b985050602089013567ffffffffffffffff811115614a9657600080fd5b614aa28b828c01614737565b97509750506040614ab58b828c01614796565b9550506060614ac68b828c01614796565b9450506080614ad78b828c01614781565b93505060a089013567ffffffffffffffff811115614af457600080fd5b614b008b828c01614737565b92509250509295985092959890939650565b60008060408385031215614b2557600080fd5b6000614b33858286016146a4565b9250506020614b4485828601614781565b9150509250929050565b600060208284031215614b6057600080fd5b6000614b6e848285016146ce565b91505092915050565b60008060408385031215614b8a57600080fd5b6000614b98858286016146ce565b9250506020614ba9858286016146a4565b9150509250929050565b600060208284031215614bc557600080fd5b6000614bd3848285016146e3565b91505092915050565b600060208284031215614bee57600080fd5b6000614bfc848285016146f8565b91505092915050565b600060208284031215614c1757600080fd5b6000614c2584828501614781565b91505092915050565b614c378161565b565b82525050565b614c468161566d565b82525050565b614c5581615679565b82525050565b6000614c6682615557565b614c70818561556d565b9350614c80818560208601615719565b614c8981615866565b840191505092915050565b614c9d816156e6565b82525050565b614cac816156f8565b82525050565b6000614cbe83856155a0565b9350614ccb83858461570a565b82840190509392505050565b6000614ce282615562565b614cec818561557e565b9350614cfc818560208601615719565b614d0581615866565b840191505092915050565b6000614d1b82615562565b614d25818561558f565b9350614d35818560208601615719565b614d3e81615866565b840191505092915050565b6000614d5482615562565b614d5e81856155a0565b9350614d6e818560208601615719565b80840191505092915050565b6000614d8760208361558f565b9150614d9282615877565b602082019050919050565b6000614daa60068361558f565b9150614db5826158a0565b602082019050919050565b6000614dcd602d8361558f565b9150614dd8826158c9565b604082019050919050565b6000614df060328361558f565b9150614dfb82615918565b604082019050919050565b6000614e1360258361558f565b9150614e1e82615967565b604082019050919050565b6000614e36601c8361558f565b9150614e41826159b6565b602082019050919050565b6000614e5960248361558f565b9150614e64826159df565b604082019050919050565b6000614e7c60198361558f565b9150614e8782615a2e565b602082019050919050565b6000614e9f60298361558f565b9150614eaa82615a57565b604082019050919050565b6000614ec2602e8361558f565b9150614ecd82615aa6565b604082019050919050565b6000614ee560208361558f565b9150614ef082615af5565b602082019050919050565b6000614f0860188361558f565b9150614f1382615b1e565b602082019050919050565b6000614f2b60218361558f565b9150614f3682615b47565b604082019050919050565b6000614f4e603d8361558f565b9150614f5982615b96565b604082019050919050565b6000614f7160068361558f565b9150614f7c82615be5565b602082019050919050565b6000614f94602b8361558f565b9150614f9f82615c0e565b604082019050919050565b6000614fb76017836155a0565b9150614fc282615c5d565b601782019050919050565b6000614fda6011836155a0565b9150614fe582615c86565b601182019050919050565b6000614ffd602f8361558f565b915061500882615caf565b604082019050919050565b600060a08301600083015161502b6000860182615089565b50602083015184820360208601526150438282614cd7565b915050604083015161505860408601826150a7565b50606083015161506b60608601826150a7565b50608083015161507e6080860182615089565b508091505092915050565b615092816156cf565b82525050565b6150a1816156cf565b82525050565b6150b0816156d9565b82525050565b6150bf816156d9565b82525050565b60006150d2828486614cb2565b91508190509392505050565b60006150e982614faa565b91506150f58285614d49565b915061510082614fcd565b915061510c8284614d49565b91508190509392505050565b600060208201905061512d6000830184614c2e565b92915050565b60006080820190506151486000830187614c2e565b6151556020830186614c2e565b6151626040830185615098565b81810360608301526151748184614c5b565b905095945050505050565b60006060820190506151946000830184614c2e565b81810360208301526151a581614f64565b905081810360408301526151b881614d9d565b905092915050565b60006020820190506151d56000830184614c3d565b92915050565b60006020820190506151f06000830184614c4c565b92915050565b600060208201905061520b6000830184614ca3565b92915050565b6000602082019050818103600083015261522b8184614d10565b905092915050565b6000602082019050818103600083015261524c81614d7a565b9050919050565b6000602082019050818103600083015261526c81614dc0565b9050919050565b6000602082019050818103600083015261528c81614de3565b9050919050565b600060208201905081810360008301526152ac81614e06565b9050919050565b600060208201905081810360008301526152cc81614e29565b9050919050565b600060208201905081810360008301526152ec81614e4c565b9050919050565b6000602082019050818103600083015261530c81614e6f565b9050919050565b6000602082019050818103600083015261532c81614e92565b9050919050565b6000602082019050818103600083015261534c81614eb5565b9050919050565b6000602082019050818103600083015261536c81614ed8565b9050919050565b6000602082019050818103600083015261538c81614efb565b9050919050565b600060208201905081810360008301526153ac81614f1e565b9050919050565b600060208201905081810360008301526153cc81614f41565b9050919050565b600060608201905081810360008301526153ec81614f64565b90506153fb6020830185614c2e565b6154086040830184614c94565b9392505050565b6000602082019050818103600083015261542881614f87565b9050919050565b6000602082019050818103600083015261544881614ff0565b9050919050565b600060208201905081810360008301526154698184615013565b905092915050565b60006020820190506154866000830184615098565b92915050565b600060a0820190506154a16000830188615098565b81810360208301526154b38187614d10565b90506154c260408301866150b6565b6154cf60608301856150b6565b6154dc6080830184615098565b9695505050505050565b60006020820190506154fb60008301846150b6565b92915050565b600061550b61551c565b905061551782826157a8565b919050565b6000604051905090565b600067ffffffffffffffff82111561554157615540615837565b5b61554a82615866565b9050602081019050919050565b600081519050919050565b600081519050919050565b600082825260208201905092915050565b600082825260208201905092915050565b600082825260208201905092915050565b600081905092915050565b60006155b6826156cf565b91506155c1836156cf565b9250827fffffffffffffffffffffffffffffffffffffffffffffffffffffffffffffffff038211156155f6576155f56157d9565b5b828201905092915050565b600061560c826156cf565b9150615617836156cf565b9250817fffffffffffffffffffffffffffffffffffffffffffffffffffffffffffffffff04831182151516156156505761564f6157d9565b5b828202905092915050565b6000615666826156af565b9050919050565b60008115159050919050565b6000819050919050565b60007fffffffff0000000000000000000000000000000000000000000000000000000082169050919050565b600073ffffffffffffffffffffffffffffffffffffffff82169050919050565b6000819050919050565b600060ff82169050919050565b60006156f1826156cf565b9050919050565b6000615703826156d9565b9050919050565b82818337600083830152505050565b60005b8381101561573757808201518184015260208101905061571c565b83811115615746576000848401525b50505050565b6000615757826156cf565b9150600082141561576b5761576a6157d9565b5b600182039050919050565b6000600282049050600182168061578e57607f821691505b602082108114156157a2576157a1615808565b5b50919050565b6157b182615866565b810181811067ffffffffffffffff821117156157d0576157cf615837565b5b80604052505050565b7f4e487b7100000000000000000000000000000000000000000000000000000000600052601160045260246000fd5b7f4e487b7100000000000000000000000000000000000000000000000000000000600052602260045260246000fd5b7f4e487b7100000000000000000000000000000000000000000000000000000000600052604160045260246000fd5b6000601f19601f8301169050919050565b7f537472696e67733a20686578206c656e67746820696e73756666696369656e74600082015250565b7f565443414c4c0000000000000000000000000000000000000000000000000000600082015250565b7f4552433732313a2063616c6c6572206973206e6f7420746f6b656e206f776e6560008201527f72206f7220617070726f76656400000000000000000000000000000000000000602082015250565b7f4552433732313a207472616e7366657220746f206e6f6e20455243373231526560008201527f63656976657220696d706c656d656e7465720000000000000000000000000000602082015250565b7f4552433732313a207472616e736665722066726f6d20696e636f72726563742060008201527f6f776e6572000000000000000000000000000000000000000000000000000000602082015250565b7f4552433732313a20746f6b656e20616c7265616479206d696e74656400000000600082015250565b7f4552433732313a207472616e7366657220746f20746865207a65726f2061646460008201527f7265737300000000000000000000000000000000000000000000000000000000602082015250565b7f4552433732313a20617070726f766520746f2063616c6c657200000000000000600082015250565b7f4552433732313a2061646472657373207a65726f206973206e6f74206120766160008201527f6c6964206f776e65720000000000000000000000000000000000000000000000602082015250565b7f496e697469616c697a61626c653a20636f6e747261637420697320616c72656160008201527f647920696e697469616c697a6564000000000000000000000000000000000000602082015250565b7f4552433732313a206d696e7420746f20746865207a65726f2061646472657373600082015250565b7f4552433732313a20696e76616c696420746f6b656e2049440000000000000000600082015250565b7f4552433732313a20617070726f76616c20746f2063757272656e74206f776e6560008201527f7200000000000000000000000000000000000000000000000000000000000000602082015250565b7f4552433732313a20617070726f76652063616c6c6572206973206e6f7420746f60008201527f6b656e206f776e6572206f7220617070726f76656420666f7220616c6c000000602082015250565b7f484156454e310000000000000000000000000000000000000000000000000000600082015250565b7f496e697469616c697a61626c653a20636f6e7472616374206973206e6f74206960008201527f6e697469616c697a696e67000000000000000000000000000000000000000000602082015250565b7f416363657373436f6e74726f6c3a206163636f756e7420000000000000000000600082015250565b7f206973206d697373696e6720726f6c6520000000000000000000000000000000600082015250565b7f416363657373436f6e74726f6c3a2063616e206f6e6c792072656e6f756e636560008201527f20726f6c657320666f722073656c660000000000000000000000000000000000602082015250565b615d078161565b565b8114615d1257600080fd5b50565b615d1e8161566d565b8114615d2957600080fd5b50565b615d3581615679565b8114615d4057600080fd5b50565b615d4c81615683565b8114615d5757600080fd5b50565b615d63816156cf565b8114615d6e57600080fd5b50565b615d7a816156d9565b8114615d8557600080fd5b5056fea26469706673582212204334551a4ade998268166a7047b2fd9d30f75b4880a14ddf673b2d7eed96abe164736f6c63430008020033",
  "linkReferences": {},
  "deployedLinkReferences": {}
}