{
  "_format": "hh-sol-artifact-1",
  "contractName": "ProofOfIdentity",
  "sourceName": "contracts/ProofOfIdentity.sol",
  "abi": [
    {
      "anonymous": false,
      "inputs": [
        {
          "indexed": true,
          "internalType": "address",
          "name": "account",
          "type": "address"
        },
        {
          "indexed": true,
          "internalType": "uint256",
          "name": "tokenId",
          "type": "uint256"
        },
        {
          "indexed": true,
          "internalType": "string",
          "name": "reason",
          "type": "string"
        }
      ],
      "name": "AccountSuspendedTokenBurned",
      "type": "event"
    },
    {
      "anonymous": false,
      "inputs": [
        {
          "indexed": true,
          "internalType": "address",
          "name": "account",
          "type": "address"
        },
        {
          "indexed": true,
          "internalType": "string",
          "name": "reason",
          "type": "string"
        }
      ],
      "name": "AccountSuspendedTokenMaintained",
      "type": "event"
    },
    {
      "anonymous": false,
      "inputs": [
        {
          "indexed": false,
          "internalType": "address",
          "name": "previousAdmin",
          "type": "address"
        },
        {
          "indexed": false,
          "internalType": "address",
          "name": "newAdmin",
          "type": "address"
        }
      ],
      "name": "AdminChanged",
      "type": "event"
    },
    {
      "anonymous": false,
      "inputs": [
        {
          "indexed": true,
          "internalType": "address",
          "name": "owner",
          "type": "address"
        },
        {
          "indexed": true,
          "internalType": "address",
          "name": "approved",
          "type": "address"
        },
        {
          "indexed": true,
          "internalType": "uint256",
          "name": "tokenId",
          "type": "uint256"
        }
      ],
      "name": "Approval",
      "type": "event"
    },
    {
      "anonymous": false,
      "inputs": [
        {
          "indexed": true,
          "internalType": "address",
          "name": "owner",
          "type": "address"
        },
        {
          "indexed": true,
          "internalType": "address",
          "name": "operator",
          "type": "address"
        },
        {
          "indexed": false,
          "internalType": "bool",
          "name": "approved",
          "type": "bool"
        }
      ],
      "name": "ApprovalForAll",
      "type": "event"
    },
    {
      "anonymous": false,
      "inputs": [
        {
          "indexed": true,
          "internalType": "address",
          "name": "beacon",
          "type": "address"
        }
      ],
      "name": "BeaconUpgraded",
      "type": "event"
    },
    {
      "anonymous": false,
      "inputs": [
        {
          "indexed": true,
          "internalType": "address",
          "name": "account",
          "type": "address"
        },
        {
          "indexed": true,
          "internalType": "uint256",
          "name": "tokenId",
          "type": "uint256"
        }
      ],
      "name": "IdentityIssued",
      "type": "event"
    },
    {
      "anonymous": false,
      "inputs": [
        {
          "indexed": true,
          "internalType": "address",
          "name": "account",
          "type": "address"
        },
        {
          "indexed": true,
          "internalType": "uint256",
          "name": "tokenId",
          "type": "uint256"
        }
      ],
      "name": "IdentityUpdated",
      "type": "event"
    },
    {
      "anonymous": false,
      "inputs": [
        {
          "indexed": false,
          "internalType": "uint8",
          "name": "version",
          "type": "uint8"
        }
      ],
      "name": "Initialized",
      "type": "event"
    },
    {
      "anonymous": false,
      "inputs": [
        {
          "indexed": true,
          "internalType": "bytes32",
          "name": "role",
          "type": "bytes32"
        },
        {
          "indexed": true,
          "internalType": "bytes32",
          "name": "previousAdminRole",
          "type": "bytes32"
        },
        {
          "indexed": true,
          "internalType": "bytes32",
          "name": "newAdminRole",
          "type": "bytes32"
        }
      ],
      "name": "RoleAdminChanged",
      "type": "event"
    },
    {
      "anonymous": false,
      "inputs": [
        {
          "indexed": true,
          "internalType": "bytes32",
          "name": "role",
          "type": "bytes32"
        },
        {
          "indexed": true,
          "internalType": "address",
          "name": "account",
          "type": "address"
        },
        {
          "indexed": true,
          "internalType": "address",
          "name": "sender",
          "type": "address"
        }
      ],
      "name": "RoleGranted",
      "type": "event"
    },
    {
      "anonymous": false,
      "inputs": [
        {
          "indexed": true,
          "internalType": "bytes32",
          "name": "role",
          "type": "bytes32"
        },
        {
          "indexed": true,
          "internalType": "address",
          "name": "account",
          "type": "address"
        },
        {
          "indexed": true,
          "internalType": "address",
          "name": "sender",
          "type": "address"
        }
      ],
      "name": "RoleRevoked",
      "type": "event"
    },
    {
      "anonymous": false,
      "inputs": [
        {
          "indexed": true,
          "internalType": "address",
          "name": "account",
          "type": "address"
        },
        {
          "indexed": true,
          "internalType": "uint256",
          "name": "tokenId",
          "type": "uint256"
        },
        {
          "indexed": true,
          "internalType": "string",
          "name": "newURI",
          "type": "string"
        }
      ],
      "name": "TokenURIUpdated",
      "type": "event"
    },
    {
      "anonymous": false,
      "inputs": [
        {
          "indexed": true,
          "internalType": "address",
          "name": "from",
          "type": "address"
        },
        {
          "indexed": true,
          "internalType": "address",
          "name": "to",
          "type": "address"
        },
        {
          "indexed": true,
          "internalType": "uint256",
          "name": "tokenId",
          "type": "uint256"
        }
      ],
      "name": "Transfer",
      "type": "event"
    },
    {
      "anonymous": false,
      "inputs": [
        {
          "indexed": true,
          "internalType": "address",
          "name": "implementation",
          "type": "address"
        }
      ],
      "name": "Upgraded",
      "type": "event"
    },
    {
      "inputs": [],
      "name": "DEFAULT_ADMIN_ROLE",
      "outputs": [
        {
          "internalType": "bytes32",
          "name": "",
          "type": "bytes32"
        }
      ],
      "stateMutability": "view",
      "type": "function"
    },
    {
      "inputs": [],
      "name": "PROVER_ROLE",
      "outputs": [
        {
          "internalType": "bytes32",
          "name": "",
          "type": "bytes32"
        }
      ],
      "stateMutability": "view",
      "type": "function"
    },
    {
      "inputs": [],
      "name": "UPGRADER_ROLE",
      "outputs": [
        {
          "internalType": "bytes32",
          "name": "",
          "type": "bytes32"
        }
      ],
      "stateMutability": "view",
      "type": "function"
    },
    {
      "inputs": [
        {
          "internalType": "address",
          "name": "to",
          "type": "address"
        },
        {
          "internalType": "uint256",
          "name": "tokenId",
          "type": "uint256"
        }
      ],
      "name": "approve",
      "outputs": [],
      "stateMutability": "nonpayable",
      "type": "function"
    },
    {
      "inputs": [
        {
          "internalType": "address",
          "name": "owner",
          "type": "address"
        }
      ],
      "name": "balanceOf",
      "outputs": [
        {
          "internalType": "uint256",
          "name": "",
          "type": "uint256"
        }
      ],
      "stateMutability": "view",
      "type": "function"
    },
    {
      "inputs": [
        {
          "internalType": "uint256",
          "name": "tokenId",
          "type": "uint256"
        }
      ],
      "name": "getApproved",
      "outputs": [
        {
          "internalType": "address",
          "name": "",
          "type": "address"
        }
      ],
      "stateMutability": "view",
      "type": "function"
    },
    {
      "inputs": [
        {
          "internalType": "bytes32",
          "name": "role",
          "type": "bytes32"
        }
      ],
      "name": "getRoleAdmin",
      "outputs": [
        {
          "internalType": "bytes32",
          "name": "",
          "type": "bytes32"
        }
      ],
      "stateMutability": "view",
      "type": "function"
    },
    {
      "inputs": [
        {
          "internalType": "address",
          "name": "account",
          "type": "address"
        }
      ],
      "name": "getUserAccountCountryCode",
      "outputs": [
        {
          "internalType": "string",
          "name": "userAccountCountryCode",
          "type": "string"
        }
      ],
      "stateMutability": "view",
      "type": "function"
    },
    {
      "inputs": [
        {
          "internalType": "address",
          "name": "account",
          "type": "address"
        }
      ],
      "name": "getUserAccountCountryCodePreventOnExpiry",
      "outputs": [
        {
          "internalType": "string",
          "name": "userAccountCountryCode",
          "type": "string"
        }
      ],
      "stateMutability": "view",
      "type": "function"
    },
    {
      "inputs": [
        {
          "internalType": "address",
          "name": "account",
          "type": "address"
        }
      ],
      "name": "getUserAccountExpiry",
      "outputs": [
        {
          "internalType": "uint256",
          "name": "userAccountExpiry",
          "type": "uint256"
        }
      ],
      "stateMutability": "view",
      "type": "function"
    },
    {
      "inputs": [
        {
          "internalType": "address",
          "name": "account",
          "type": "address"
        }
      ],
      "name": "getUserAccountIdentityBlob",
      "outputs": [
        {
          "components": [
            {
              "internalType": "uint256",
              "name": "tokenId",
              "type": "uint256"
            },
            {
              "internalType": "string",
              "name": "countryCode",
              "type": "string"
            },
            {
              "internalType": "uint8",
              "name": "userType",
              "type": "uint8"
            },
            {
              "internalType": "uint8",
              "name": "level",
              "type": "uint8"
            },
            {
              "internalType": "uint256",
              "name": "expiry",
              "type": "uint256"
            }
          ],
          "internalType": "struct RoleVerification.IdentityBlob",
          "name": "userIdentityBlob",
          "type": "tuple"
        }
      ],
      "stateMutability": "view",
      "type": "function"
    },
    {
      "inputs": [
        {
          "internalType": "address",
          "name": "account",
          "type": "address"
        }
      ],
      "name": "getUserAccountLevel",
      "outputs": [
        {
          "internalType": "uint8",
          "name": "userAccountLevel",
          "type": "uint8"
        }
      ],
      "stateMutability": "view",
      "type": "function"
    },
    {
      "inputs": [
        {
          "internalType": "address",
          "name": "account",
          "type": "address"
        }
      ],
      "name": "getUserAccountLevelPreventOnExpiry",
      "outputs": [
        {
          "internalType": "uint8",
          "name": "",
          "type": "uint8"
        }
      ],
      "stateMutability": "view",
      "type": "function"
    },
    {
      "inputs": [
        {
          "internalType": "address",
          "name": "account",
          "type": "address"
        }
      ],
      "name": "getUserAccountType",
      "outputs": [
        {
          "internalType": "uint8",
          "name": "userAccountType",
          "type": "uint8"
        }
      ],
      "stateMutability": "view",
      "type": "function"
    },
    {
      "inputs": [
        {
          "internalType": "address",
          "name": "account",
          "type": "address"
        }
      ],
      "name": "getUserAccountTypePreventOnExpiry",
      "outputs": [
        {
          "internalType": "uint8",
          "name": "",
          "type": "uint8"
        }
      ],
      "stateMutability": "view",
      "type": "function"
    },
    {
      "inputs": [
        {
          "internalType": "bytes32",
          "name": "role",
          "type": "bytes32"
        },
        {
          "internalType": "address",
          "name": "account",
          "type": "address"
        }
      ],
      "name": "grantRole",
      "outputs": [],
      "stateMutability": "nonpayable",
      "type": "function"
    },
    {
      "inputs": [
        {
          "internalType": "bytes32",
          "name": "role",
          "type": "bytes32"
        },
        {
          "internalType": "address",
          "name": "account",
          "type": "address"
        }
      ],
      "name": "hasRole",
      "outputs": [
        {
          "internalType": "bool",
          "name": "",
          "type": "bool"
        }
      ],
      "stateMutability": "view",
      "type": "function"
    },
    {
      "inputs": [
        {
          "internalType": "address",
          "name": "",
          "type": "address"
        }
      ],
      "name": "identityBlob",
      "outputs": [
        {
          "internalType": "uint256",
          "name": "tokenId",
          "type": "uint256"
        },
        {
          "internalType": "string",
          "name": "countryCode",
          "type": "string"
        },
        {
          "internalType": "uint8",
          "name": "userType",
          "type": "uint8"
        },
        {
          "internalType": "uint8",
          "name": "level",
          "type": "uint8"
        },
        {
          "internalType": "uint256",
          "name": "expiry",
          "type": "uint256"
        }
      ],
      "stateMutability": "view",
      "type": "function"
    },
    {
      "inputs": [
        {
          "internalType": "address",
          "name": "permissionsInterface",
          "type": "address"
        },
        {
          "internalType": "address",
          "name": "networkOperator",
          "type": "address"
        },
        {
          "internalType": "address",
          "name": "prover",
          "type": "address"
        },
        {
          "internalType": "address",
          "name": "upgrader",
          "type": "address"
        }
      ],
      "name": "initialize",
      "outputs": [],
      "stateMutability": "nonpayable",
      "type": "function"
    },
    {
      "inputs": [
        {
          "internalType": "address",
          "name": "owner",
          "type": "address"
        },
        {
          "internalType": "address",
          "name": "operator",
          "type": "address"
        }
      ],
      "name": "isApprovedForAll",
      "outputs": [
        {
          "internalType": "bool",
          "name": "",
          "type": "bool"
        }
      ],
      "stateMutability": "view",
      "type": "function"
    },
    {
      "inputs": [
        {
          "internalType": "address",
          "name": "account",
          "type": "address"
        },
        {
          "internalType": "string",
          "name": "countryCode",
          "type": "string"
        },
        {
          "internalType": "uint8",
          "name": "userType",
          "type": "uint8"
        },
        {
          "internalType": "uint8",
          "name": "level",
          "type": "uint8"
        },
        {
          "internalType": "uint256",
          "name": "expiry",
          "type": "uint256"
        },
        {
          "internalType": "string",
          "name": "tokenUri",
          "type": "string"
        }
      ],
      "name": "issueIdentity",
      "outputs": [
        {
          "internalType": "uint256",
          "name": "",
          "type": "uint256"
        }
      ],
      "stateMutability": "nonpayable",
      "type": "function"
    },
    {
      "inputs": [],
      "name": "name",
      "outputs": [
        {
          "internalType": "string",
          "name": "",
          "type": "string"
        }
      ],
      "stateMutability": "view",
      "type": "function"
    },
    {
      "inputs": [
        {
          "internalType": "uint256",
          "name": "tokenId",
          "type": "uint256"
        }
      ],
      "name": "ownerOf",
      "outputs": [
        {
          "internalType": "address",
          "name": "",
          "type": "address"
        }
      ],
      "stateMutability": "view",
      "type": "function"
    },
    {
      "inputs": [],
      "name": "proxiableUUID",
      "outputs": [
        {
          "internalType": "bytes32",
          "name": "",
          "type": "bytes32"
        }
      ],
      "stateMutability": "view",
      "type": "function"
    },
    {
      "inputs": [
        {
          "internalType": "bytes32",
          "name": "role",
          "type": "bytes32"
        },
        {
          "internalType": "address",
          "name": "account",
          "type": "address"
        }
      ],
      "name": "renounceRole",
      "outputs": [],
      "stateMutability": "nonpayable",
      "type": "function"
    },
    {
      "inputs": [
        {
          "internalType": "bytes32",
          "name": "role",
          "type": "bytes32"
        },
        {
          "internalType": "address",
          "name": "account",
          "type": "address"
        }
      ],
      "name": "revokeRole",
      "outputs": [],
      "stateMutability": "nonpayable",
      "type": "function"
    },
    {
      "inputs": [
        {
          "internalType": "address",
          "name": "from",
          "type": "address"
        },
        {
          "internalType": "address",
          "name": "to",
          "type": "address"
        },
        {
          "internalType": "uint256",
          "name": "tokenId",
          "type": "uint256"
        }
      ],
      "name": "safeTransferFrom",
      "outputs": [],
      "stateMutability": "nonpayable",
      "type": "function"
    },
    {
      "inputs": [
        {
          "internalType": "address",
          "name": "from",
          "type": "address"
        },
        {
          "internalType": "address",
          "name": "to",
          "type": "address"
        },
        {
          "internalType": "uint256",
          "name": "tokenId",
          "type": "uint256"
        },
        {
          "internalType": "bytes",
          "name": "data",
          "type": "bytes"
        }
      ],
      "name": "safeTransferFrom",
      "outputs": [],
      "stateMutability": "nonpayable",
      "type": "function"
    },
    {
      "inputs": [
        {
          "internalType": "address",
          "name": "operator",
          "type": "address"
        },
        {
          "internalType": "bool",
          "name": "approved",
          "type": "bool"
        }
      ],
      "name": "setApprovalForAll",
      "outputs": [],
      "stateMutability": "nonpayable",
      "type": "function"
    },
    {
      "inputs": [
        {
          "internalType": "bytes4",
          "name": "interfaceId",
          "type": "bytes4"
        }
      ],
      "name": "supportsInterface",
      "outputs": [
        {
          "internalType": "bool",
          "name": "",
          "type": "bool"
        }
      ],
      "stateMutability": "view",
      "type": "function"
    },
    {
      "inputs": [
        {
          "internalType": "address",
          "name": "suspendAddress",
          "type": "address"
        },
        {
          "internalType": "string",
          "name": "reason",
          "type": "string"
        }
      ],
      "name": "suspendAccountMaintainTokenAndIdentityBlob",
      "outputs": [],
      "stateMutability": "nonpayable",
      "type": "function"
    },
    {
      "inputs": [],
      "name": "symbol",
      "outputs": [
        {
          "internalType": "string",
          "name": "",
          "type": "string"
        }
      ],
      "stateMutability": "view",
      "type": "function"
    },
    {
      "inputs": [
        {
          "internalType": "uint256",
          "name": "tokenId",
          "type": "uint256"
        }
      ],
      "name": "tokenURI",
      "outputs": [
        {
          "internalType": "string",
          "name": "tokenUri",
          "type": "string"
        }
      ],
      "stateMutability": "view",
      "type": "function"
    },
    {
      "inputs": [],
      "name": "totalSupply",
      "outputs": [
        {
          "internalType": "uint256",
          "name": "",
          "type": "uint256"
        }
      ],
      "stateMutability": "view",
      "type": "function"
    },
    {
      "inputs": [
        {
          "internalType": "address",
          "name": "from",
          "type": "address"
        },
        {
          "internalType": "address",
          "name": "to",
          "type": "address"
        },
        {
          "internalType": "uint256",
          "name": "tokenId",
          "type": "uint256"
        }
      ],
      "name": "transferFrom",
      "outputs": [],
      "stateMutability": "nonpayable",
      "type": "function"
    },
    {
      "inputs": [
        {
          "internalType": "address",
          "name": "account",
          "type": "address"
        },
        {
          "internalType": "string",
          "name": "countryCode",
          "type": "string"
        },
        {
          "internalType": "uint8",
          "name": "userType",
          "type": "uint8"
        },
        {
          "internalType": "uint8",
          "name": "level",
          "type": "uint8"
        },
        {
          "internalType": "uint256",
          "name": "expiry",
          "type": "uint256"
        },
        {
          "internalType": "string",
          "name": "tokenUri",
          "type": "string"
        }
      ],
      "name": "updateIdentity",
      "outputs": [],
      "stateMutability": "nonpayable",
      "type": "function"
    },
    {
      "inputs": [
        {
          "internalType": "address",
          "name": "account",
          "type": "address"
        },
        {
          "internalType": "string",
          "name": "tokenUri",
          "type": "string"
        }
      ],
      "name": "updateTokenURI",
      "outputs": [],
      "stateMutability": "nonpayable",
      "type": "function"
    },
    {
      "inputs": [
        {
          "internalType": "address",
          "name": "newImplementation",
          "type": "address"
        }
      ],
      "name": "upgradeTo",
      "outputs": [],
      "stateMutability": "nonpayable",
      "type": "function"
    },
    {
      "inputs": [
        {
          "internalType": "address",
          "name": "newImplementation",
          "type": "address"
        },
        {
          "internalType": "bytes",
          "name": "data",
          "type": "bytes"
        }
      ],
      "name": "upgradeToAndCall",
      "outputs": [],
      "stateMutability": "payable",
      "type": "function"
    }
  ],
  "bytecode": "0x60a06040523060601b60805234801561001757600080fd5b5060805160601c6139a961005260003960008181610c0801528181610c8d01528181611039015281816110be01526111a401526139a96000f3fe6080604052600436106102a05760003560e01c806370a082311161016e578063b88d4fde116100cb578063dfb24b891161007f578063f6a4b4d711610064578063f6a4b4d714610804578063f72c0d8b14610824578063f8c8765e14610858576102a0565b8063dfb24b891461079b578063e985e9c5146107bb576102a0565b8063c87b56dd116100b0578063c87b56dd14610727578063d547741f14610747578063dc9a4ef614610767576102a0565b8063b88d4fde146106c6578063c207e9e0146106e6576102a0565b806395d89b4111610122578063a217fddf11610107578063a217fddf14610655578063a22cb4651461066a578063b467177f1461068a576102a0565b806395d89b411461062057806396257e4d14610635576102a0565b806380ea719a1161015357806380ea719a1461059a57806391d14854146105ba578063949cdd6e14610600576102a0565b806370a082311461055a57806380a5a8961461057a576102a0565b80632f2ff15d1161021c5780634f1ef286116101d05780636352211e116101b55780636352211e146104dc578063688ea9fe146104fc5780636ca5fde81461052d576102a0565b80634f1ef286146104b457806352d1902d146104c7576102a0565b80633659cfe6116102015780633659cfe61461047457806340f378e51461049457806342842e0e146103e4576102a0565b80632f2ff15d1461043457806336568abe14610454576102a0565b8063095ea7b3116102735780631fe0094a116102585780631fe0094a146103b257806323b872dd146103e4578063248a9ca314610404576102a0565b8063095ea7b31461037b57806318160ddd1461039d576102a0565b806301ffc9a7146102a557806306fdde03146102da578063081812fc146102fc57806309299ea314610334575b600080fd5b3480156102b157600080fd5b506102c56102c03660046135c1565b610878565b60405190151581526020015b60405180910390f35b3480156102e657600080fd5b506102ef61088b565b6040516102d19190613776565b34801561030857600080fd5b5061031c61031736600461356f565b61091d565b6040516001600160a01b0390911681526020016102d1565b34801561034057600080fd5b5061036d61034f366004613284565b6001600160a01b031660009081526020819052604090206003015490565b6040519081526020016102d1565b34801561038757600080fd5b5061039b610396366004613546565b610944565b005b3480156103a957600080fd5b5061036d610a7b565b3480156103be57600080fd5b506103d26103cd366004613284565b610a8c565b60405160ff90911681526020016102d1565b3480156103f057600080fd5b5061039b6103ff366004613323565b610b01565b34801561041057600080fd5b5061036d61041f36600461356f565b60009081526098602052604090206001015490565b34801561044057600080fd5b5061039b61044f36600461359f565b610b4c565b34801561046057600080fd5b5061039b61046f36600461359f565b610b71565b34801561048057600080fd5b5061039b61048f366004613284565b610bfd565b3480156104a057600080fd5b5061036d6104af36600461349b565b610d79565b61039b6104c23660046133fe565b61102e565b3480156104d357600080fd5b5061036d611197565b3480156104e857600080fd5b5061031c6104f736600461356f565b61125c565b34801561050857600080fd5b5061051c610517366004613284565b6112c1565b6040516102d195949392919061381e565b34801561053957600080fd5b5061054d610548366004613284565b61137f565b6040516102d191906137c8565b34801561056657600080fd5b5061036d610575366004613284565b6114a0565b34801561058657600080fd5b5061039b61059536600461344a565b61153a565b3480156105a657600080fd5b5061039b6105b536600461349b565b611634565b3480156105c657600080fd5b506102c56105d536600461359f565b60009182526098602090815260408084206001600160a01b0393909316845291905290205460ff1690565b34801561060c57600080fd5b506103d261061b366004613284565b6117f1565b34801561062c57600080fd5b506102ef61186b565b34801561064157600080fd5b506102ef610650366004613284565b61187a565b34801561066157600080fd5b5061036d600081565b34801561067657600080fd5b5061039b6106853660046133c4565b61197b565b34801561069657600080fd5b506103d26106a5366004613284565b6001600160a01b031660009081526020819052604090206002015460ff1690565b3480156106d257600080fd5b5061039b6106e136600461335e565b611986565b3480156106f257600080fd5b506103d2610701366004613284565b6001600160a01b0316600090815260208190526040902060020154610100900460ff1690565b34801561073357600080fd5b506102ef61074236600461356f565b611a14565b34801561075357600080fd5b5061039b61076236600461359f565b611a86565b34801561077357600080fd5b5061036d7f60044782a422109ac08a415e44260ad5d3bad63d96ebe1fac0363399642ee3f281565b3480156107a757600080fd5b506102ef6107b6366004613284565b611aab565b3480156107c757600080fd5b506102c56107d636600461329e565b6001600160a01b039182166000908152606b6020908152604080832093909416825291909152205460ff1690565b34801561081057600080fd5b5061039b61081f36600461344a565b611ad5565b34801561083057600080fd5b5061036d7f189ab7a9244df0848122154315af71fe140f3db0fe014031783b0946b8c9d2e381565b34801561086457600080fd5b5061039b6108733660046132d0565b611be4565b600061088382611e04565b90505b919050565b60606066805461089a906138cf565b80601f01602080910402602001604051908101604052809291908181526020018280546108c6906138cf565b80156109135780601f106108e857610100808354040283529160200191610913565b820191906000526020600020905b8154815290600101906020018083116108f657829003601f168201915b5050505050905090565b600061092882611e42565b506000908152606a60205260409020546001600160a01b031690565b600061094f8261125c565b9050806001600160a01b0316836001600160a01b031614156109de5760405162461bcd60e51b815260206004820152602160248201527f4552433732313a20617070726f76616c20746f2063757272656e74206f776e6560448201527f720000000000000000000000000000000000000000000000000000000000000060648201526084015b60405180910390fd5b336001600160a01b03821614806109fa57506109fa81336107d6565b610a6c5760405162461bcd60e51b815260206004820152603d60248201527f4552433732313a20617070726f76652063616c6c6572206973206e6f7420746f60448201527f6b656e206f776e6572206f7220617070726f76656420666f7220616c6c00000060648201526084016109d5565b610a768383611ea6565b505050565b6000610a8761012e5490565b905090565b6001600160a01b0381166000908152602081905260408120600301544210610adf57604080518082018252600381526231303360e81b6020820152905162461bcd60e51b81526109d59190600401613776565b506001600160a01b031660009081526020819052604090206002015460ff1690565b604080518082018252600381527f31303200000000000000000000000000000000000000000000000000000000006020820152905162461bcd60e51b81526109d59190600401613776565b600082815260986020526040902060010154610b6781611f14565b610a768383611f1e565b6001600160a01b0381163314610bef5760405162461bcd60e51b815260206004820152602f60248201527f416363657373436f6e74726f6c3a2063616e206f6e6c792072656e6f756e636560448201527f20726f6c657320666f722073656c66000000000000000000000000000000000060648201526084016109d5565b610bf98282611fc0565b5050565b306001600160a01b037f0000000000000000000000000000000000000000000000000000000000000000161415610c8b5760405162461bcd60e51b815260206004820152602c60248201527f46756e6374696f6e206d7573742062652063616c6c6564207468726f7567682060448201526b19195b1959d85d1958d85b1b60a21b60648201526084016109d5565b7f00000000000000000000000000000000000000000000000000000000000000006001600160a01b0316610ce67f360894a13ba1a3210667c828492db98dca3e2076cc3735a920a3ca505d382bbc546001600160a01b031690565b6001600160a01b031614610d515760405162461bcd60e51b815260206004820152602c60248201527f46756e6374696f6e206d7573742062652063616c6c6564207468726f7567682060448201526b6163746976652070726f787960a01b60648201526084016109d5565b610d5a81612043565b60408051600080825260208201909252610d769183919061206d565b50565b60007f60044782a422109ac08a415e44260ad5d3bad63d96ebe1fac0363399642ee3f2610da581611f14565b610dae8a6114a0565b60408051808201909152600381527f313030000000000000000000000000000000000000000000000000000000000060208201529015610e015760405162461bcd60e51b81526004016109d59190613776565b5060408051808201909152600381526231303360e81b6020820152428611610e3c5760405162461bcd60e51b81526004016109d59190613776565b50610e4c61012e80546001019055565b6000610e5861012e5490565b90506040518060a001604052808281526020018b8b8080601f016020809104026020016040519081016040528093929190818152602001838380828437600092018290525093855250505060ff808c16602080850191909152908b1660408085019190915260609093018a90526001600160a01b038f168252818152919020825181558282015180519192610ef592600185019290910190613081565b506040820151600282018054606085015160ff9081166101000261ff00199190941660ff199092169190911716919091179055608090910151600390910155610f3e8b82612221565b600081815261013160205260409020610f58908686613105565b506001600160a01b03808c16600090815261013060205260409081902083905561012f5490517f2f7f0a12000000000000000000000000000000000000000000000000000000008152911690632f7f0a1290610fb8908e90600401613704565b600060405180830381600087803b158015610fd257600080fd5b505af1158015610fe6573d6000803e3d6000fd5b50506040518392506001600160a01b038e1691507fae1b84af5e96bd9fa84e791c6b59125d1c17f73ef00e5a9d1fd8c0cc41e0489690600090a39a9950505050505050505050565b306001600160a01b037f00000000000000000000000000000000000000000000000000000000000000001614156110bc5760405162461bcd60e51b815260206004820152602c60248201527f46756e6374696f6e206d7573742062652063616c6c6564207468726f7567682060448201526b19195b1959d85d1958d85b1b60a21b60648201526084016109d5565b7f00000000000000000000000000000000000000000000000000000000000000006001600160a01b03166111177f360894a13ba1a3210667c828492db98dca3e2076cc3735a920a3ca505d382bbc546001600160a01b031690565b6001600160a01b0316146111825760405162461bcd60e51b815260206004820152602c60248201527f46756e6374696f6e206d7573742062652063616c6c6564207468726f7567682060448201526b6163746976652070726f787960a01b60648201526084016109d5565b61118b82612043565b610bf98282600161206d565b6000306001600160a01b037f000000000000000000000000000000000000000000000000000000000000000016146112375760405162461bcd60e51b815260206004820152603860248201527f555550535570677261646561626c653a206d757374206e6f742062652063616c60448201527f6c6564207468726f7567682064656c656761746563616c6c000000000000000060648201526084016109d5565b507f360894a13ba1a3210667c828492db98dca3e2076cc3735a920a3ca505d382bbc90565b6000818152606860205260408120546001600160a01b0316806108835760405162461bcd60e51b815260206004820152601860248201527f4552433732313a20696e76616c696420746f6b656e204944000000000000000060448201526064016109d5565b600060208190529081526040902080546001820180549192916112e3906138cf565b80601f016020809104026020016040519081016040528092919081815260200182805461130f906138cf565b801561135c5780601f106113315761010080835404028352916020019161135c565b820191906000526020600020905b81548152906001019060200180831161133f57829003601f168201915b505050506002830154600390930154919260ff8082169361010090920416915085565b6113b76040518060a001604052806000815260200160608152602001600060ff168152602001600060ff168152602001600081525090565b6001600160a01b03821660009081526020818152604091829020825160a081019093528054835260018101805491928401916113f2906138cf565b80601f016020809104026020016040519081016040528092919081815260200182805461141e906138cf565b801561146b5780601f106114405761010080835404028352916020019161146b565b820191906000526020600020905b81548152906001019060200180831161144e57829003601f168201915b5050509183525050600282015460ff808216602084015261010090910416604082015260039091015460609091015292915050565b60006001600160a01b03821661151e5760405162461bcd60e51b815260206004820152602960248201527f4552433732313a2061646472657373207a65726f206973206e6f74206120766160448201527f6c6964206f776e6572000000000000000000000000000000000000000000000060648201526084016109d5565b506001600160a01b031660009081526069602052604090205490565b7f60044782a422109ac08a415e44260ad5d3bad63d96ebe1fac0363399642ee3f261156481611f14565b61012f546040517f84b7a84a0000000000000000000000000000000000000000000000000000000081526001600160a01b03909116906384b7a84a906115b1908790600190600401613789565b600060405180830381600087803b1580156115cb57600080fd5b505af11580156115df573d6000803e3d6000fd5b5050505082826040516115f3929190613641565b604051908190038120906001600160a01b038616907f3347b0049117ab94fddf6cff81cc554c4f7489acedc7c33907a96655770e58ae90600090a350505050565b7f60044782a422109ac08a415e44260ad5d3bad63d96ebe1fac0363399642ee3f261165e81611f14565b611667896114a0565b6001146040518060400160405280600381526020016231303160e81b815250906116a45760405162461bcd60e51b81526004016109d59190613776565b506001600160a01b0389166000908152602081815260409182902054825160a0810184528181528351601f8c018490048402810184019094528a84529092909182810191908c908c9081908401838280828437600092018290525093855250505060ff808b16602080850191909152908a1660408085019190915260609093018990526001600160a01b038e16825281815291902082518155828201518051919261175792600185019290910190613081565b50604082810151600283018054606086015160ff9081166101000261ff00199190941660ff1990921691909117169190911790556080909201516003909101556000828152610131602052206117ae908585613105565b5060405181906001600160a01b038c16907f4a1e31466f875c6fcafefabf90bce8accdf53108c4a309106058ef7aefebd5ce90600090a350505050505050505050565b6001600160a01b038116600090815260208190526040812060030154421061184457604080518082018252600381526231303360e81b6020820152905162461bcd60e51b81526109d59190600401613776565b506001600160a01b0316600090815260208190526040902060020154610100900460ff1690565b60606067805461089a906138cf565b6001600160a01b03811660009081526020819052604090206003015460609042106118d057604080518082018252600381526231303360e81b6020820152905162461bcd60e51b81526109d59190600401613776565b6001600160a01b038216600090815260208190526040902060010180546118f6906138cf565b80601f0160208091040260200160405190810160405280929190818152602001828054611922906138cf565b801561196f5780601f106119445761010080835404028352916020019161196f565b820191906000526020600020905b81548152906001019060200180831161195257829003601f168201915b50505050509050919050565b610bf933838361223b565b611990338361230a565b611a025760405162461bcd60e51b815260206004820152602d60248201527f4552433732313a2063616c6c6572206973206e6f7420746f6b656e206f776e6560448201527f72206f7220617070726f7665640000000000000000000000000000000000000060648201526084016109d5565b611a0e84848484612389565b50505050565b6000818152606860205260409020546060906001600160a01b031615156040518060400160405280600381526020016231303160e81b81525090611a6b5760405162461bcd60e51b81526004016109d59190613776565b5060008281526101316020526040902080546118f6906138cf565b600082815260986020526040902060010154611aa181611f14565b610a768383611fc0565b6001600160a01b03811660009081526020819052604090206001018054606091906118f6906138cf565b7f60044782a422109ac08a415e44260ad5d3bad63d96ebe1fac0363399642ee3f2611aff81611f14565b6001600160a01b03841660009081526101306020526040902054611b3a816000908152606860205260409020546001600160a01b0316151590565b6040518060400160405280600381526020016231303160e81b81525090611b745760405162461bcd60e51b81526004016109d59190613776565b50600081815261013160205260409020611b8f908585613105565b508383604051611ba0929190613641565b6040519081900381209082906001600160a01b038816907fe3a3e1a0be0d562dd7ec739509d30dfbca7cd174fbc576a45746fe1f3b277c2690600090a45050505050565b600154610100900460ff1615808015611c0157506001805460ff16105b80611c1a5750303b158015611c1a57506001805460ff16145b611c8c5760405162461bcd60e51b815260206004820152602e60248201527f496e697469616c697a61626c653a20636f6e747261637420697320616c72656160448201527f647920696e697469616c697a656400000000000000000000000000000000000060648201526084016109d5565b6001805460ff1916811790558015611cae576001805461ff0019166101001790555b611cb6612407565b611d2a6040518060400160405280601181526020017f50726f6f66206f66204964656e746974790000000000000000000000000000008152506040518060400160405280600581526020017f48312d4944000000000000000000000000000000000000000000000000000000815250612474565b611d32612407565b61012f80546001600160a01b0319166001600160a01b038716179055611d59600033611fc0565b611d64600085611f1e565b611d8e7f60044782a422109ac08a415e44260ad5d3bad63d96ebe1fac0363399642ee3f284611f1e565b611db87f189ab7a9244df0848122154315af71fe140f3db0fe014031783b0946b8c9d2e383611f1e565b8015611dfd576001805461ff00191681556040519081527f7f26b83ff96e1f2b6a682f133852f6798a09c465da95921460cefb38474024989060200160405180910390a15b5050505050565b60006001600160e01b031982167f7965db0b0000000000000000000000000000000000000000000000000000000014806108835750610883826124e9565b6000818152606860205260409020546001600160a01b0316610d765760405162461bcd60e51b815260206004820152601860248201527f4552433732313a20696e76616c696420746f6b656e204944000000000000000060448201526064016109d5565b6000818152606a6020526040902080546001600160a01b0319166001600160a01b0384169081179091558190611edb8261125c565b6001600160a01b03167f8c5be1e5ebec7d5bd14f71427d1e84f3dd0314c0f7b2291e5b200ac8c7c3b92560405160405180910390a45050565b610d768133612584565b60008281526098602090815260408083206001600160a01b038516845290915290205460ff16610bf95760008281526098602090815260408083206001600160a01b03851684529091529020805460ff19166001179055611f7c3390565b6001600160a01b0316816001600160a01b0316837f2f8788117e7eff1d82e926ec794901d17c78024a50270940304540a733656f0d60405160405180910390a45050565b60008281526098602090815260408083206001600160a01b038516845290915290205460ff1615610bf95760008281526098602090815260408083206001600160a01b0385168085529252808320805460ff1916905551339285917ff6391f5c32d9c69d2a47ea670b442974b53935d1edc7fd64eb21e047a839171b9190a45050565b7f189ab7a9244df0848122154315af71fe140f3db0fe014031783b0946b8c9d2e3610bf981611f14565b7f4910fdfa16fed3260ed0e7147f7cc6da11a60208b5b9406d12a635614ffd91435460ff16156120a5576120a0836125f9565b610a76565b826001600160a01b03166352d1902d6040518163ffffffff1660e01b815260040160206040518083038186803b1580156120de57600080fd5b505afa92505050801561210e575060408051601f3d908101601f1916820190925261210b91810190613587565b60015b6121805760405162461bcd60e51b815260206004820152602e60248201527f45524331393637557067726164653a206e657720696d706c656d656e7461746960448201527f6f6e206973206e6f74205555505300000000000000000000000000000000000060648201526084016109d5565b7f360894a13ba1a3210667c828492db98dca3e2076cc3735a920a3ca505d382bbc81146122155760405162461bcd60e51b815260206004820152602960248201527f45524331393637557067726164653a20756e737570706f727465642070726f7860448201527f6961626c6555554944000000000000000000000000000000000000000000000060648201526084016109d5565b50610a768383836126b7565b610bf98282604051806020016040528060008152506126dc565b816001600160a01b0316836001600160a01b0316141561229d5760405162461bcd60e51b815260206004820152601960248201527f4552433732313a20617070726f766520746f2063616c6c65720000000000000060448201526064016109d5565b6001600160a01b038381166000818152606b6020908152604080832094871680845294825291829020805460ff191686151590811790915591519182527f17307eab39ab6107e8899845ad3d59bd9653f200f220920489ca2b5937696c31910160405180910390a3505050565b6000806123168361125c565b9050806001600160a01b0316846001600160a01b0316148061235d57506001600160a01b038082166000908152606b602090815260408083209388168352929052205460ff165b806123815750836001600160a01b03166123768461091d565b6001600160a01b0316145b949350505050565b61239484848461275a565b6123a084848484612953565b611a0e5760405162461bcd60e51b815260206004820152603260248201527f4552433732313a207472616e7366657220746f206e6f6e20455243373231526560448201527131b2b4bb32b91034b6b83632b6b2b73a32b960711b60648201526084016109d5565b600154610100900460ff166124725760405162461bcd60e51b815260206004820152602b60248201527f496e697469616c697a61626c653a20636f6e7472616374206973206e6f74206960448201526a6e697469616c697a696e6760a81b60648201526084016109d5565b565b600154610100900460ff166124df5760405162461bcd60e51b815260206004820152602b60248201527f496e697469616c697a61626c653a20636f6e7472616374206973206e6f74206960448201526a6e697469616c697a696e6760a81b60648201526084016109d5565b610bf98282612aab565b60006001600160e01b031982167f80ac58cd00000000000000000000000000000000000000000000000000000000148061254c57506001600160e01b031982167f5b5e139f00000000000000000000000000000000000000000000000000000000145b8061088357507f01ffc9a7000000000000000000000000000000000000000000000000000000006001600160e01b0319831614610883565b60008281526098602090815260408083206001600160a01b038516845290915290205460ff16610bf9576125b781612b3d565b6125c2836020612b4f565b6040516020016125d3929190613651565b60408051601f198184030181529082905262461bcd60e51b82526109d591600401613776565b6001600160a01b0381163b6126765760405162461bcd60e51b815260206004820152602d60248201527f455243313936373a206e657720696d706c656d656e746174696f6e206973206e60448201527f6f74206120636f6e74726163740000000000000000000000000000000000000060648201526084016109d5565b7f360894a13ba1a3210667c828492db98dca3e2076cc3735a920a3ca505d382bbc80546001600160a01b0319166001600160a01b0392909216919091179055565b6126c083612d7d565b6000825111806126cd5750805b15610a7657611a0e8383612dbd565b6126e68383612de2565b6126f36000848484612953565b610a765760405162461bcd60e51b815260206004820152603260248201527f4552433732313a207472616e7366657220746f206e6f6e20455243373231526560448201527131b2b4bb32b91034b6b83632b6b2b73a32b960711b60648201526084016109d5565b826001600160a01b031661276d8261125c565b6001600160a01b0316146127d15760405162461bcd60e51b815260206004820152602560248201527f4552433732313a207472616e736665722066726f6d20696e636f72726563742060448201526437bbb732b960d91b60648201526084016109d5565b6001600160a01b03821661284c5760405162461bcd60e51b8152602060048201526024808201527f4552433732313a207472616e7366657220746f20746865207a65726f2061646460448201527f726573730000000000000000000000000000000000000000000000000000000060648201526084016109d5565b826001600160a01b031661285f8261125c565b6001600160a01b0316146128c35760405162461bcd60e51b815260206004820152602560248201527f4552433732313a207472616e736665722066726f6d20696e636f72726563742060448201526437bbb732b960d91b60648201526084016109d5565b6000818152606a6020908152604080832080546001600160a01b03199081169091556001600160a01b0387811680865260698552838620805460001901905590871680865283862080546001019055868652606890945282852080549092168417909155905184937fddf252ad1be2c89b69c2b068fc378daa952ba7f163c4a11628f55a4df523b3ef91a4610a76565b60006001600160a01b0384163b15612aa057604051630a85bd0160e11b81526001600160a01b0385169063150b7a02906129979033908990889088906004016136d2565b602060405180830381600087803b1580156129b157600080fd5b505af19250505080156129e1575060408051601f3d908101601f191682019092526129de918101906135dd565b60015b612a86573d808015612a0f576040519150601f19603f3d011682016040523d82523d6000602084013e612a14565b606091505b508051612a7e5760405162461bcd60e51b815260206004820152603260248201527f4552433732313a207472616e7366657220746f206e6f6e20455243373231526560448201527131b2b4bb32b91034b6b83632b6b2b73a32b960711b60648201526084016109d5565b805181602001fd5b6001600160e01b031916630a85bd0160e11b149050612381565b506001949350505050565b600154610100900460ff16612b165760405162461bcd60e51b815260206004820152602b60248201527f496e697469616c697a61626c653a20636f6e7472616374206973206e6f74206960448201526a6e697469616c697a696e6760a81b60648201526084016109d5565b8151612b29906066906020850190613081565b508051610a76906067906020840190613081565b60606108836001600160a01b03831660145b60606000612b5e83600261386d565b612b69906002613855565b67ffffffffffffffff811115612b8f57634e487b7160e01b600052604160045260246000fd5b6040519080825280601f01601f191660200182016040528015612bb9576020820181803683370190505b5090507f300000000000000000000000000000000000000000000000000000000000000081600081518110612bfe57634e487b7160e01b600052603260045260246000fd5b60200101906001600160f81b031916908160001a9053507f780000000000000000000000000000000000000000000000000000000000000081600181518110612c5757634e487b7160e01b600052603260045260246000fd5b60200101906001600160f81b031916908160001a9053506000612c7b84600261386d565b612c86906001613855565b90505b6001811115612d27577f303132333435363738396162636465660000000000000000000000000000000085600f1660108110612cd557634e487b7160e01b600052603260045260246000fd5b1a60f81b828281518110612cf957634e487b7160e01b600052603260045260246000fd5b60200101906001600160f81b031916908160001a90535060049490941c93612d20816138b8565b9050612c89565b508315612d765760405162461bcd60e51b815260206004820181905260248201527f537472696e67733a20686578206c656e67746820696e73756666696369656e7460448201526064016109d5565b9392505050565b612d86816125f9565b6040516001600160a01b038216907fbc7cd75a20ee27fd9adebab32041f755214dbc6bffa90cc0225b39da2e5c2d3b90600090a250565b6060612d76838360405180606001604052806027815260200161394d60279139612f6e565b6001600160a01b038216612e385760405162461bcd60e51b815260206004820181905260248201527f4552433732313a206d696e7420746f20746865207a65726f206164647265737360448201526064016109d5565b6000818152606860205260409020546001600160a01b031615612e9d5760405162461bcd60e51b815260206004820152601c60248201527f4552433732313a20746f6b656e20616c7265616479206d696e7465640000000060448201526064016109d5565b6000818152606860205260409020546001600160a01b031615612f025760405162461bcd60e51b815260206004820152601c60248201527f4552433732313a20746f6b656e20616c7265616479206d696e7465640000000060448201526064016109d5565b6001600160a01b038216600081815260696020908152604080832080546001019055848352606890915280822080546001600160a01b0319168417905551839291907fddf252ad1be2c89b69c2b068fc378daa952ba7f163c4a11628f55a4df523b3ef908290a4610bf9565b6060600080856001600160a01b031685604051612f8b9190613625565b600060405180830381855af49150503d8060008114612fc6576040519150601f19603f3d011682016040523d82523d6000602084013e612fcb565b606091505b5091509150612fdc86838387612fe6565b9695505050505050565b6060831561305257825161304b576001600160a01b0385163b61304b5760405162461bcd60e51b815260206004820152601d60248201527f416464726573733a2063616c6c20746f206e6f6e2d636f6e747261637400000060448201526064016109d5565b5081612381565b61238183838151156130675781518083602001fd5b8060405162461bcd60e51b81526004016109d59190613776565b82805461308d906138cf565b90600052602060002090601f0160209004810192826130af57600085556130f5565b82601f106130c857805160ff19168380011785556130f5565b828001600101855582156130f5579182015b828111156130f55782518255916020019190600101906130da565b50613101929150613179565b5090565b828054613111906138cf565b90600052602060002090601f01602090048101928261313357600085556130f5565b82601f1061314c5782800160ff198235161785556130f5565b828001600101855582156130f5579182015b828111156130f557823582559160200191906001019061315e565b5b80821115613101576000815560010161317a565b80356001600160a01b038116811461088657600080fd5b600082601f8301126131b5578081fd5b813567ffffffffffffffff808211156131d0576131d0613920565b604051601f8301601f19908116603f011681019082821181831017156131f8576131f8613920565b81604052838152866020858801011115613210578485fd5b8360208701602083013792830160200193909352509392505050565b60008083601f84011261323d578182fd5b50813567ffffffffffffffff811115613254578182fd5b60208301915083602082850101111561326c57600080fd5b9250929050565b803560ff8116811461088657600080fd5b600060208284031215613295578081fd5b612d768261318e565b600080604083850312156132b0578081fd5b6132b98361318e565b91506132c76020840161318e565b90509250929050565b600080600080608085870312156132e5578182fd5b6132ee8561318e565b93506132fc6020860161318e565b925061330a6040860161318e565b91506133186060860161318e565b905092959194509250565b600080600060608486031215613337578283fd5b6133408461318e565b925061334e6020850161318e565b9150604084013590509250925092565b60008060008060808587031215613373578384fd5b61337c8561318e565b935061338a6020860161318e565b925060408501359150606085013567ffffffffffffffff8111156133ac578182fd5b6133b8878288016131a5565b91505092959194509250565b600080604083850312156133d6578182fd5b6133df8361318e565b9150602083013580151581146133f3578182fd5b809150509250929050565b60008060408385031215613410578182fd5b6134198361318e565b9150602083013567ffffffffffffffff811115613434578182fd5b613440858286016131a5565b9150509250929050565b60008060006040848603121561345e578283fd5b6134678461318e565b9250602084013567ffffffffffffffff811115613482578283fd5b61348e8682870161322c565b9497909650939450505050565b60008060008060008060008060c0898b0312156134b6578384fd5b6134bf8961318e565b9750602089013567ffffffffffffffff808211156134db578586fd5b6134e78c838d0161322c565b90995097508791506134fb60408c01613273565b965061350960608c01613273565b955060808b0135945060a08b0135915080821115613525578384fd5b506135328b828c0161322c565b999c989b5096995094979396929594505050565b60008060408385031215613558578182fd5b6135618361318e565b946020939093013593505050565b600060208284031215613580578081fd5b5035919050565b600060208284031215613598578081fd5b5051919050565b600080604083850312156135b1578182fd5b823591506132c76020840161318e565b6000602082840312156135d2578081fd5b8135612d7681613936565b6000602082840312156135ee578081fd5b8151612d7681613936565b6000815180845261361181602086016020860161388c565b601f01601f19169290920160200192915050565b6000825161363781846020870161388c565b9190910192915050565b6000828483379101908152919050565b60007f416363657373436f6e74726f6c3a206163636f756e74200000000000000000008252835161368981601785016020880161388c565b7f206973206d697373696e6720726f6c652000000000000000000000000000000060179184019182015283516136c681602884016020880161388c565b01602801949350505050565b60006001600160a01b03808716835280861660208401525083604083015260806060830152612fdc60808301846135f9565b60006001600160a01b038316825260606020830152613739606083016006815265484156454e3160d01b602082015260400190565b828103604093840152600681527f565443414c4c000000000000000000000000000000000000000000000000000060208201529190910192915050565b600060208252612d7660208301846135f9565b6000606082526137af606083016006815265484156454e3160d01b602082015260400190565b6001600160a01b03949094166020830152506040015290565b60006020825282516020830152602083015160a060408401526137ee60c08401826135f9565b905060ff604085015116606084015260ff6060850151166080840152608084015160a08401528091505092915050565b600086825260a0602083015261383760a08301876135f9565b60ff9586166040840152939094166060820152608001529392505050565b600082198211156138685761386861390a565b500190565b60008160001904831182151516156138875761388761390a565b500290565b60005b838110156138a757818101518382015260200161388f565b83811115611a0e5750506000910152565b6000816138c7576138c761390a565b506000190190565b6002810460018216806138e357607f821691505b6020821081141561390457634e487b7160e01b600052602260045260246000fd5b50919050565b634e487b7160e01b600052601160045260246000fd5b634e487b7160e01b600052604160045260246000fd5b6001600160e01b031981168114610d7657600080fdfe416464726573733a206c6f772d6c6576656c2064656c65676174652063616c6c206661696c6564a2646970667358221220df343540d5a100d878f97e3e6c86c82ae5a06af454e0f8a6a1cf8d19d9d49b6464736f6c63430008020033",
  "linkReferences": {},
  "deployedLinkReferences": {}
}