{
  "_format": "hh-sol-artifact-1",
  "contractName": "ProofOfIdentity",
  "sourceName": "contracts/ProofOfIdentity.sol",
  "abi": [
    {
      "inputs": [],
      "stateMutability": "nonpayable",
      "type": "constructor"
    },
    {
      "anonymous": false,
      "inputs": [
        {
          "indexed": true,
          "internalType": "address",
          "name": "account",
          "type": "address"
        },
        {
          "indexed": true,
          "internalType": "string",
          "name": "reason",
          "type": "string"
        }
      ],
      "name": "AccountSuspendedTokenMaintained",
      "type": "event"
    },
    {
      "anonymous": false,
      "inputs": [
        {
          "indexed": false,
          "internalType": "address",
          "name": "previousAdmin",
          "type": "address"
        },
        {
          "indexed": false,
          "internalType": "address",
          "name": "newAdmin",
          "type": "address"
        }
      ],
      "name": "AdminChanged",
      "type": "event"
    },
    {
      "anonymous": false,
      "inputs": [
        {
          "indexed": true,
          "internalType": "address",
          "name": "owner",
          "type": "address"
        },
        {
          "indexed": true,
          "internalType": "address",
          "name": "approved",
          "type": "address"
        },
        {
          "indexed": true,
          "internalType": "uint256",
          "name": "tokenId",
          "type": "uint256"
        }
      ],
      "name": "Approval",
      "type": "event"
    },
    {
      "anonymous": false,
      "inputs": [
        {
          "indexed": true,
          "internalType": "address",
          "name": "owner",
          "type": "address"
        },
        {
          "indexed": true,
          "internalType": "address",
          "name": "operator",
          "type": "address"
        },
        {
          "indexed": false,
          "internalType": "bool",
          "name": "approved",
          "type": "bool"
        }
      ],
      "name": "ApprovalForAll",
      "type": "event"
    },
    {
      "anonymous": false,
      "inputs": [
        {
          "indexed": true,
          "internalType": "address",
          "name": "beacon",
          "type": "address"
        }
      ],
      "name": "BeaconUpgraded",
      "type": "event"
    },
    {
      "anonymous": false,
      "inputs": [
        {
          "indexed": true,
          "internalType": "address",
          "name": "account",
          "type": "address"
        },
        {
          "indexed": true,
          "internalType": "uint256",
          "name": "tokenId",
          "type": "uint256"
        }
      ],
      "name": "IdentityIssued",
      "type": "event"
    },
    {
      "anonymous": false,
      "inputs": [
        {
          "indexed": true,
          "internalType": "address",
          "name": "account",
          "type": "address"
        },
        {
          "indexed": true,
          "internalType": "uint256",
          "name": "tokenId",
          "type": "uint256"
        }
      ],
      "name": "IdentityUpdated",
      "type": "event"
    },
    {
      "anonymous": false,
      "inputs": [
        {
          "indexed": false,
          "internalType": "uint8",
          "name": "version",
          "type": "uint8"
        }
      ],
      "name": "Initialized",
      "type": "event"
    },
    {
      "anonymous": false,
      "inputs": [
        {
          "indexed": true,
          "internalType": "bytes32",
          "name": "role",
          "type": "bytes32"
        },
        {
          "indexed": true,
          "internalType": "bytes32",
          "name": "previousAdminRole",
          "type": "bytes32"
        },
        {
          "indexed": true,
          "internalType": "bytes32",
          "name": "newAdminRole",
          "type": "bytes32"
        }
      ],
      "name": "RoleAdminChanged",
      "type": "event"
    },
    {
      "anonymous": false,
      "inputs": [
        {
          "indexed": true,
          "internalType": "bytes32",
          "name": "role",
          "type": "bytes32"
        },
        {
          "indexed": true,
          "internalType": "address",
          "name": "account",
          "type": "address"
        },
        {
          "indexed": true,
          "internalType": "address",
          "name": "sender",
          "type": "address"
        }
      ],
      "name": "RoleGranted",
      "type": "event"
    },
    {
      "anonymous": false,
      "inputs": [
        {
          "indexed": true,
          "internalType": "bytes32",
          "name": "role",
          "type": "bytes32"
        },
        {
          "indexed": true,
          "internalType": "address",
          "name": "account",
          "type": "address"
        },
        {
          "indexed": true,
          "internalType": "address",
          "name": "sender",
          "type": "address"
        }
      ],
      "name": "RoleRevoked",
      "type": "event"
    },
    {
      "anonymous": false,
      "inputs": [
        {
          "indexed": true,
          "internalType": "address",
          "name": "account",
          "type": "address"
        },
        {
          "indexed": true,
          "internalType": "uint256",
          "name": "tokenId",
          "type": "uint256"
        },
        {
          "indexed": true,
          "internalType": "string",
          "name": "newURI",
          "type": "string"
        }
      ],
      "name": "TokenURIUpdated",
      "type": "event"
    },
    {
      "anonymous": false,
      "inputs": [
        {
          "indexed": true,
          "internalType": "address",
          "name": "from",
          "type": "address"
        },
        {
          "indexed": true,
          "internalType": "address",
          "name": "to",
          "type": "address"
        },
        {
          "indexed": true,
          "internalType": "uint256",
          "name": "tokenId",
          "type": "uint256"
        }
      ],
      "name": "Transfer",
      "type": "event"
    },
    {
      "anonymous": false,
      "inputs": [
        {
          "indexed": true,
          "internalType": "address",
          "name": "implementation",
          "type": "address"
        }
      ],
      "name": "Upgraded",
      "type": "event"
    },
    {
      "inputs": [],
      "name": "DEFAULT_ADMIN_ROLE",
      "outputs": [
        {
          "internalType": "bytes32",
          "name": "",
          "type": "bytes32"
        }
      ],
      "stateMutability": "view",
      "type": "function"
    },
    {
      "inputs": [],
      "name": "OPERATOR_ROLE",
      "outputs": [
        {
          "internalType": "bytes32",
          "name": "",
          "type": "bytes32"
        }
      ],
      "stateMutability": "view",
      "type": "function"
    },
    {
      "inputs": [
        {
          "internalType": "address",
          "name": "to",
          "type": "address"
        },
        {
          "internalType": "uint256",
          "name": "tokenId",
          "type": "uint256"
        }
      ],
      "name": "approve",
      "outputs": [],
      "stateMutability": "nonpayable",
      "type": "function"
    },
    {
      "inputs": [
        {
          "internalType": "address",
          "name": "owner",
          "type": "address"
        }
      ],
      "name": "balanceOf",
      "outputs": [
        {
          "internalType": "uint256",
          "name": "",
          "type": "uint256"
        }
      ],
      "stateMutability": "view",
      "type": "function"
    },
    {
      "inputs": [
        {
          "internalType": "address",
          "name": "account",
          "type": "address"
        },
        {
          "internalType": "uint8",
          "name": "score",
          "type": "uint8"
        }
      ],
      "name": "establishCompetencyRating",
      "outputs": [],
      "stateMutability": "nonpayable",
      "type": "function"
    },
    {
      "inputs": [
        {
          "internalType": "uint256",
          "name": "tokenId",
          "type": "uint256"
        }
      ],
      "name": "getApproved",
      "outputs": [
        {
          "internalType": "address",
          "name": "",
          "type": "address"
        }
      ],
      "stateMutability": "view",
      "type": "function"
    },
    {
      "inputs": [
        {
          "internalType": "bytes32",
          "name": "role",
          "type": "bytes32"
        }
      ],
      "name": "getRoleAdmin",
      "outputs": [
        {
          "internalType": "bytes32",
          "name": "",
          "type": "bytes32"
        }
      ],
      "stateMutability": "view",
      "type": "function"
    },
    {
      "inputs": [
        {
          "internalType": "address",
          "name": "account",
          "type": "address"
        }
      ],
      "name": "getUserAccountCompetencyRating",
      "outputs": [
        {
          "internalType": "uint8",
          "name": "",
          "type": "uint8"
        }
      ],
      "stateMutability": "view",
      "type": "function"
    },
    {
      "inputs": [
        {
          "internalType": "address",
          "name": "account",
          "type": "address"
        }
      ],
      "name": "getUserAccountCompetencyRatingPreventOnExpiry",
      "outputs": [
        {
          "internalType": "uint8",
          "name": "",
          "type": "uint8"
        }
      ],
      "stateMutability": "view",
      "type": "function"
    },
    {
      "inputs": [
        {
          "internalType": "address",
          "name": "account",
          "type": "address"
        }
      ],
      "name": "getUserAccountCountryCode",
      "outputs": [
        {
          "internalType": "string",
          "name": "userAccountCountryCode",
          "type": "string"
        }
      ],
      "stateMutability": "view",
      "type": "function"
    },
    {
      "inputs": [
        {
          "internalType": "address",
          "name": "account",
          "type": "address"
        }
      ],
      "name": "getUserAccountCountryCodePreventOnExpiry",
      "outputs": [
        {
          "internalType": "string",
          "name": "userAccountCountryCode",
          "type": "string"
        }
      ],
      "stateMutability": "view",
      "type": "function"
    },
    {
      "inputs": [
        {
          "internalType": "address",
          "name": "account",
          "type": "address"
        }
      ],
      "name": "getUserAccountExpiry",
      "outputs": [
        {
          "internalType": "uint256",
          "name": "userAccountExpiry",
          "type": "uint256"
        }
      ],
      "stateMutability": "view",
      "type": "function"
    },
    {
      "inputs": [
        {
          "internalType": "address",
          "name": "account",
          "type": "address"
        }
      ],
      "name": "getUserAccountIdentityBlob",
      "outputs": [
        {
          "components": [
            {
              "internalType": "uint256",
              "name": "tokenId",
              "type": "uint256"
            },
            {
              "internalType": "string",
              "name": "countryCode",
              "type": "string"
            },
            {
              "internalType": "uint8",
              "name": "userType",
              "type": "uint8"
            },
            {
              "internalType": "uint8",
              "name": "level",
              "type": "uint8"
            },
            {
              "internalType": "uint256",
              "name": "expiry",
              "type": "uint256"
            },
            {
              "internalType": "uint8",
              "name": "competencyRating",
              "type": "uint8"
            }
          ],
          "internalType": "struct RoleVerification.IdentityBlob",
          "name": "userIdentityBlob",
          "type": "tuple"
        }
      ],
      "stateMutability": "view",
      "type": "function"
    },
    {
      "inputs": [
        {
          "internalType": "address",
          "name": "account",
          "type": "address"
        }
      ],
      "name": "getUserAccountLevel",
      "outputs": [
        {
          "internalType": "uint8",
          "name": "userAccountLevel",
          "type": "uint8"
        }
      ],
      "stateMutability": "view",
      "type": "function"
    },
    {
      "inputs": [
        {
          "internalType": "address",
          "name": "account",
          "type": "address"
        }
      ],
      "name": "getUserAccountLevelPreventOnExpiry",
      "outputs": [
        {
          "internalType": "uint8",
          "name": "",
          "type": "uint8"
        }
      ],
      "stateMutability": "view",
      "type": "function"
    },
    {
      "inputs": [
        {
          "internalType": "address",
          "name": "account",
          "type": "address"
        }
      ],
      "name": "getUserAccountType",
      "outputs": [
        {
          "internalType": "uint8",
          "name": "userAccountType",
          "type": "uint8"
        }
      ],
      "stateMutability": "view",
      "type": "function"
    },
    {
      "inputs": [
        {
          "internalType": "address",
          "name": "account",
          "type": "address"
        }
      ],
      "name": "getUserAccountTypePreventOnExpiry",
      "outputs": [
        {
          "internalType": "uint8",
          "name": "",
          "type": "uint8"
        }
      ],
      "stateMutability": "view",
      "type": "function"
    },
    {
      "inputs": [
        {
          "internalType": "bytes32",
          "name": "role",
          "type": "bytes32"
        },
        {
          "internalType": "address",
          "name": "account",
          "type": "address"
        }
      ],
      "name": "grantRole",
      "outputs": [],
      "stateMutability": "nonpayable",
      "type": "function"
    },
    {
      "inputs": [
        {
          "internalType": "bytes32",
          "name": "role",
          "type": "bytes32"
        },
        {
          "internalType": "address",
          "name": "account",
          "type": "address"
        }
      ],
      "name": "hasRole",
      "outputs": [
        {
          "internalType": "bool",
          "name": "",
          "type": "bool"
        }
      ],
      "stateMutability": "view",
      "type": "function"
    },
    {
      "inputs": [
        {
          "internalType": "address",
          "name": "permissionsInterface",
          "type": "address"
        },
        {
          "internalType": "address",
          "name": "networkAdmin",
          "type": "address"
        },
        {
          "internalType": "address",
          "name": "networkOperator",
          "type": "address"
        }
      ],
      "name": "initialize",
      "outputs": [],
      "stateMutability": "nonpayable",
      "type": "function"
    },
    {
      "inputs": [
        {
          "internalType": "address",
          "name": "owner",
          "type": "address"
        },
        {
          "internalType": "address",
          "name": "operator",
          "type": "address"
        }
      ],
      "name": "isApprovedForAll",
      "outputs": [
        {
          "internalType": "bool",
          "name": "",
          "type": "bool"
        }
      ],
      "stateMutability": "view",
      "type": "function"
    },
    {
      "inputs": [
        {
          "internalType": "address",
          "name": "account",
          "type": "address"
        },
        {
          "internalType": "string",
          "name": "countryCode",
          "type": "string"
        },
        {
          "internalType": "uint8",
          "name": "userType",
          "type": "uint8"
        },
        {
          "internalType": "uint8",
          "name": "level",
          "type": "uint8"
        },
        {
          "internalType": "uint256",
          "name": "expiry",
          "type": "uint256"
        },
        {
          "internalType": "string",
          "name": "tokenUri",
          "type": "string"
        }
      ],
      "name": "issueIdentity",
      "outputs": [
        {
          "internalType": "uint256",
          "name": "",
          "type": "uint256"
        }
      ],
      "stateMutability": "nonpayable",
      "type": "function"
    },
    {
      "inputs": [],
      "name": "name",
      "outputs": [
        {
          "internalType": "string",
          "name": "",
          "type": "string"
        }
      ],
      "stateMutability": "view",
      "type": "function"
    },
    {
      "inputs": [
        {
          "internalType": "uint256",
          "name": "tokenId",
          "type": "uint256"
        }
      ],
      "name": "ownerOf",
      "outputs": [
        {
          "internalType": "address",
          "name": "",
          "type": "address"
        }
      ],
      "stateMutability": "view",
      "type": "function"
    },
    {
      "inputs": [],
      "name": "proxiableUUID",
      "outputs": [
        {
          "internalType": "bytes32",
          "name": "",
          "type": "bytes32"
        }
      ],
      "stateMutability": "view",
      "type": "function"
    },
    {
      "inputs": [
        {
          "internalType": "bytes32",
          "name": "role",
          "type": "bytes32"
        },
        {
          "internalType": "address",
          "name": "account",
          "type": "address"
        }
      ],
      "name": "renounceRole",
      "outputs": [],
      "stateMutability": "nonpayable",
      "type": "function"
    },
    {
      "inputs": [
        {
          "internalType": "bytes32",
          "name": "role",
          "type": "bytes32"
        },
        {
          "internalType": "address",
          "name": "account",
          "type": "address"
        }
      ],
      "name": "revokeRole",
      "outputs": [],
      "stateMutability": "nonpayable",
      "type": "function"
    },
    {
      "inputs": [
        {
          "internalType": "address",
          "name": "from",
          "type": "address"
        },
        {
          "internalType": "address",
          "name": "to",
          "type": "address"
        },
        {
          "internalType": "uint256",
          "name": "tokenId",
          "type": "uint256"
        }
      ],
      "name": "safeTransferFrom",
      "outputs": [],
      "stateMutability": "nonpayable",
      "type": "function"
    },
    {
      "inputs": [
        {
          "internalType": "address",
          "name": "from",
          "type": "address"
        },
        {
          "internalType": "address",
          "name": "to",
          "type": "address"
        },
        {
          "internalType": "uint256",
          "name": "tokenId",
          "type": "uint256"
        },
        {
          "internalType": "bytes",
          "name": "data",
          "type": "bytes"
        }
      ],
      "name": "safeTransferFrom",
      "outputs": [],
      "stateMutability": "nonpayable",
      "type": "function"
    },
    {
      "inputs": [
        {
          "internalType": "address",
          "name": "operator",
          "type": "address"
        },
        {
          "internalType": "bool",
          "name": "approved",
          "type": "bool"
        }
      ],
      "name": "setApprovalForAll",
      "outputs": [],
      "stateMutability": "nonpayable",
      "type": "function"
    },
    {
      "inputs": [
        {
          "internalType": "bytes4",
          "name": "interfaceId",
          "type": "bytes4"
        }
      ],
      "name": "supportsInterface",
      "outputs": [
        {
          "internalType": "bool",
          "name": "",
          "type": "bool"
        }
      ],
      "stateMutability": "view",
      "type": "function"
    },
    {
      "inputs": [
        {
          "internalType": "address",
          "name": "suspendAddress",
          "type": "address"
        },
        {
          "internalType": "string",
          "name": "reason",
          "type": "string"
        }
      ],
      "name": "suspendAccountMaintainTokenAndIdentityBlob",
      "outputs": [],
      "stateMutability": "nonpayable",
      "type": "function"
    },
    {
      "inputs": [],
      "name": "symbol",
      "outputs": [
        {
          "internalType": "string",
          "name": "",
          "type": "string"
        }
      ],
      "stateMutability": "view",
      "type": "function"
    },
    {
      "inputs": [
        {
          "internalType": "uint256",
          "name": "tokenId",
          "type": "uint256"
        }
      ],
      "name": "tokenURI",
      "outputs": [
        {
          "internalType": "string",
          "name": "tokenUri",
          "type": "string"
        }
      ],
      "stateMutability": "view",
      "type": "function"
    },
    {
      "inputs": [],
      "name": "totalSupply",
      "outputs": [
        {
          "internalType": "uint256",
          "name": "",
          "type": "uint256"
        }
      ],
      "stateMutability": "view",
      "type": "function"
    },
    {
      "inputs": [
        {
          "internalType": "address",
          "name": "from",
          "type": "address"
        },
        {
          "internalType": "address",
          "name": "to",
          "type": "address"
        },
        {
          "internalType": "uint256",
          "name": "tokenId",
          "type": "uint256"
        }
      ],
      "name": "transferFrom",
      "outputs": [],
      "stateMutability": "nonpayable",
      "type": "function"
    },
    {
      "inputs": [
        {
          "internalType": "address",
          "name": "account",
          "type": "address"
        },
        {
          "internalType": "string",
          "name": "countryCode",
          "type": "string"
        },
        {
          "internalType": "uint8",
          "name": "userType",
          "type": "uint8"
        },
        {
          "internalType": "uint8",
          "name": "level",
          "type": "uint8"
        },
        {
          "internalType": "uint256",
          "name": "expiry",
          "type": "uint256"
        },
        {
          "internalType": "uint8",
          "name": "competencyRating",
          "type": "uint8"
        },
        {
          "internalType": "string",
          "name": "tokenUri",
          "type": "string"
        }
      ],
      "name": "updateIdentity",
      "outputs": [],
      "stateMutability": "nonpayable",
      "type": "function"
    },
    {
      "inputs": [
        {
          "internalType": "address",
          "name": "account",
          "type": "address"
        },
        {
          "internalType": "uint256",
          "name": "tokenId",
          "type": "uint256"
        },
        {
          "internalType": "string",
          "name": "tokenUri",
          "type": "string"
        }
      ],
      "name": "updateTokenURI",
      "outputs": [],
      "stateMutability": "nonpayable",
      "type": "function"
    },
    {
      "inputs": [
        {
          "internalType": "address",
          "name": "newImplementation",
          "type": "address"
        }
      ],
      "name": "upgradeTo",
      "outputs": [],
      "stateMutability": "nonpayable",
      "type": "function"
    },
    {
      "inputs": [
        {
          "internalType": "address",
          "name": "newImplementation",
          "type": "address"
        },
        {
          "internalType": "bytes",
          "name": "data",
          "type": "bytes"
        }
      ],
      "name": "upgradeToAndCall",
      "outputs": [],
      "stateMutability": "payable",
      "type": "function"
    }
  ],
  "bytecode": "0x60a06040523060601b6080523480156200001857600080fd5b506200002362000029565b620000ea565b600154610100900460ff1615620000965760405162461bcd60e51b815260206004820152602760248201527f496e697469616c697a61626c653a20636f6e747261637420697320696e697469604482015266616c697a696e6760c81b606482015260840160405180910390fd5b60015460ff90811614620000e8576001805460ff191660ff9081179091556040519081527f7f26b83ff96e1f2b6a682f133852f6798a09c465da95921460cefb38474024989060200160405180910390a15b565b60805160601c613ba26200012560003960008181610d7401528181610df9015281816113b90152818161143e01526115240152613ba26000f3fe6080604052600436106102bb5760003560e01c806370a082311161016e578063b88d4fde116100cb578063d547741f1161007f578063e985e9c511610064578063e985e9c51461082d578063f5b541a614610876578063f853018f146108aa576102bb565b8063d547741f146107ed578063dfb24b891461080d576102bb565b8063c207e9e0116100b0578063c207e9e01461076c578063c87b56dd146107ad578063d510b712146107cd576102bb565b8063b88d4fde1461072c578063c0c53b8b1461074c576102bb565b806395d89b4111610122578063a217fddf11610107578063a217fddf146106bb578063a22cb465146106d0578063b467177f146106f0576102bb565b806395d89b411461068657806396257e4d1461069b576102bb565b806391d148541161015357806391d14854146105e4578063949cdd6e1461062a57806394e2dc101461064a576102bb565b806370a08231146105a457806380a5a896146105c4576102bb565b80632f2ff15d1161021c57806342842e0e116101d057806352d1902d116101b557806352d1902d146105425780636352211e146105575780636ca5fde814610577576102bb565b806342842e0e1461050f5780634f1ef2861461052f576102bb565b80633659cfe6116102015780633659cfe6146104af57806337273724146104cf57806340f378e5146104ef576102bb565b80632f2ff15d1461046f57806336568abe1461048f576102bb565b80630fcd7f8f116102735780631fe0094a116102585780631fe0094a146103ed57806323b872dd1461041f578063248a9ca31461043f576102bb565b80630fcd7f8f146103b857806318160ddd146103d8576102bb565b8063081812fc116102a4578063081812fc1461031757806309299ea31461034f578063095ea7b314610396576102bb565b806301ffc9a7146102c057806306fdde03146102f5575b600080fd5b3480156102cc57600080fd5b506102e06102db3660046137e4565b6108ca565b60405190151581526020015b60405180910390f35b34801561030157600080fd5b5061030a6108dd565b6040516102ec9190613999565b34801561032357600080fd5b50610337610332366004613792565b61096f565b6040516001600160a01b0390911681526020016102ec565b34801561035b57600080fd5b5061038861036a366004613379565b6001600160a01b031660009081526020819052604090206003015490565b6040519081526020016102ec565b3480156103a257600080fd5b506103b66103b13660046136e8565b610996565b005b3480156103c457600080fd5b506103b66103d3366004613711565b610acd565b3480156103e457600080fd5b50610388610bbb565b3480156103f957600080fd5b5061040d610408366004613379565b610bcc565b60405160ff90911681526020016102ec565b34801561042b57600080fd5b506103b661043a366004613407565b610c41565b34801561044b57600080fd5b5061038861045a366004613792565b60009081526098602052604090206001015490565b34801561047b57600080fd5b506103b661048a3660046137c2565b610cb8565b34801561049b57600080fd5b506103b66104aa3660046137c2565b610cdd565b3480156104bb57600080fd5b506103b66104ca366004613379565b610d69565b3480156104db57600080fd5b506103b66104ea36600461362a565b610ee5565b3480156104fb57600080fd5b5061038861050a36600461357f565b6110dc565b34801561051b57600080fd5b506103b661052a366004613407565b611393565b6103b661053d3660046134e2565b6113ae565b34801561054e57600080fd5b50610388611517565b34801561056357600080fd5b50610337610572366004613792565b6115dc565b34801561058357600080fd5b50610597610592366004613379565b611641565b6040516102ec91906139eb565b3480156105b057600080fd5b506103886105bf366004613379565b61177a565b3480156105d057600080fd5b506103b66105df36600461352e565b611814565b3480156105f057600080fd5b506102e06105ff3660046137c2565b60009182526098602090815260408084206001600160a01b0393909316845291905290205460ff1690565b34801561063657600080fd5b5061040d610645366004613379565b61190e565b34801561065657600080fd5b5061040d610665366004613379565b6001600160a01b031660009081526020819052604090206004015460ff1690565b34801561069257600080fd5b5061030a611988565b3480156106a757600080fd5b5061030a6106b6366004613379565b611997565b3480156106c757600080fd5b50610388600081565b3480156106dc57600080fd5b506103b66106eb3660046134a8565b611a98565b3480156106fc57600080fd5b5061040d61070b366004613379565b6001600160a01b031660009081526020819052604090206002015460ff1690565b34801561073857600080fd5b506103b6610747366004613442565b611aa3565b34801561075857600080fd5b506103b66107673660046133c5565b611b21565b34801561077857600080fd5b5061040d610787366004613379565b6001600160a01b0316600090815260208190526040902060020154610100900460ff1690565b3480156107b957600080fd5b5061030a6107c8366004613792565b611d0a565b3480156107d957600080fd5b5061040d6107e8366004613379565b611d7c565b3480156107f957600080fd5b506103b66108083660046137c2565b611df1565b34801561081957600080fd5b5061030a610828366004613379565b611e16565b34801561083957600080fd5b506102e0610848366004613393565b6001600160a01b039182166000908152606b6020908152604080832093909416825291909152205460ff1690565b34801561088257600080fd5b506103887f97667070c54ef182b0f5858b034beac1b6f3089aa2d3188bb1e8929f4fa9b92981565b3480156108b657600080fd5b506103b66108c5366004613769565b611e40565b60006108d582611e9b565b90505b919050565b6060606680546108ec90613ac8565b80601f016020809104026020016040519081016040528092919081815260200182805461091890613ac8565b80156109655780601f1061093a57610100808354040283529160200191610965565b820191906000526020600020905b81548152906001019060200180831161094857829003601f168201915b5050505050905090565b600061097a82611ed9565b506000908152606a60205260409020546001600160a01b031690565b60006109a1826115dc565b9050806001600160a01b0316836001600160a01b03161415610a305760405162461bcd60e51b815260206004820152602160248201527f4552433732313a20617070726f76616c20746f2063757272656e74206f776e6560448201527f720000000000000000000000000000000000000000000000000000000000000060648201526084015b60405180910390fd5b336001600160a01b0382161480610a4c5750610a4c8133610848565b610abe5760405162461bcd60e51b815260206004820152603d60248201527f4552433732313a20617070726f76652063616c6c6572206973206e6f7420746f60448201527f6b656e206f776e6572206f7220617070726f76656420666f7220616c6c0000006064820152608401610a27565b610ac88383611f3d565b505050565b7f97667070c54ef182b0f5858b034beac1b6f3089aa2d3188bb1e8929f4fa9b929610af781611fab565b6000848152606860205260409020546001600160a01b031615156040518060400160405280600381526020016231303160e81b81525090610b4b5760405162461bcd60e51b8152600401610a279190613999565b50600084815261013060205260409020610b66908484613176565b508282604051610b77929190613864565b6040519081900381209085906001600160a01b038816907fe3a3e1a0be0d562dd7ec739509d30dfbca7cd174fbc576a45746fe1f3b277c2690600090a45050505050565b6000610bc761012e5490565b905090565b6001600160a01b0381166000908152602081905260408120600301544210610c1f57604080518082018252600381526231303360e81b6020820152905162461bcd60e51b8152610a279190600401613999565b506001600160a01b031660009081526020819052604090206002015460ff1690565b610c4b3382611fb5565b610cad5760405162461bcd60e51b815260206004820152602d60248201527f4552433732313a2063616c6c6572206973206e6f7420746f6b656e206f776e6560448201526c1c881bdc88185c1c1c9bdd9959609a1b6064820152608401610a27565b610ac8838383612034565b600082815260986020526040902060010154610cd381611fab565b610ac8838361223a565b6001600160a01b0381163314610d5b5760405162461bcd60e51b815260206004820152602f60248201527f416363657373436f6e74726f6c3a2063616e206f6e6c792072656e6f756e636560448201527f20726f6c657320666f722073656c6600000000000000000000000000000000006064820152608401610a27565b610d6582826122dc565b5050565b306001600160a01b037f0000000000000000000000000000000000000000000000000000000000000000161415610df75760405162461bcd60e51b815260206004820152602c60248201527f46756e6374696f6e206d7573742062652063616c6c6564207468726f7567682060448201526b19195b1959d85d1958d85b1b60a21b6064820152608401610a27565b7f00000000000000000000000000000000000000000000000000000000000000006001600160a01b0316610e527f360894a13ba1a3210667c828492db98dca3e2076cc3735a920a3ca505d382bbc546001600160a01b031690565b6001600160a01b031614610ebd5760405162461bcd60e51b815260206004820152602c60248201527f46756e6374696f6e206d7573742062652063616c6c6564207468726f7567682060448201526b6163746976652070726f787960a01b6064820152608401610a27565b610ec68161235f565b60408051600080825260208201909252610ee29183919061236a565b50565b7f97667070c54ef182b0f5858b034beac1b6f3089aa2d3188bb1e8929f4fa9b929610f0f81611fab565b610f188a61177a565b6001146040518060400160405280600381526020016231303160e81b81525090610f555760405162461bcd60e51b8152600401610a279190613999565b506040805160c0810182526001600160a01b038c1660009081526020818152908390205482528251601f8c018290048202810182019093528a83529091818301918c908c9081908401838280828437600092018290525093855250505060ff808b166020808501919091528a8216604080860191909152606085018b90529189166080909401939093526001600160a01b038e168252818352902082518155828201518051919261100e926001850192909101906131fa565b50604082810151600283018054606086015160ff1991821660ff9485161761ff00191661010091851691909102179091556080850151600385015560a090940151600490930180549094169216919091179091556001600160a01b038b166000908152602081815282822054825261013090522061108d908484613176565b506001600160a01b038a166000818152602081905260408082205490519092917f4a1e31466f875c6fcafefabf90bce8accdf53108c4a309106058ef7aefebd5ce91a350505050505050505050565b60007f97667070c54ef182b0f5858b034beac1b6f3089aa2d3188bb1e8929f4fa9b92961110881611fab565b6111118a61177a565b60408051808201909152600381527f3130300000000000000000000000000000000000000000000000000000000000602082015290156111645760405162461bcd60e51b8152600401610a279190613999565b5060408051808201909152600381526231303360e81b602082015242861161119f5760405162461bcd60e51b8152600401610a279190613999565b506111af61012e80546001019055565b60006111bb61012e5490565b90506040518060c001604052808281526020018b8b8080601f016020809104026020016040519081016040528093929190818152602001838380828437600092018290525093855250505060ff808c16602080850191909152908b16604080850191909152606084018b905260809093018290526001600160a01b038f16825281815291902082518155828201518051919261125f926001850192909101906131fa565b506040820151600282018054606085015160ff1991821660ff9485161761ff00191661010091851691909102179091556080840151600384015560a0909301516004909201805490931691161790556112b88b8261251e565b6000818152610130602052604090206112d2908686613176565b5061012f546040517f2f7f0a120000000000000000000000000000000000000000000000000000000081526001600160a01b0390911690632f7f0a129061131d908e90600401613927565b600060405180830381600087803b15801561133757600080fd5b505af115801561134b573d6000803e3d6000fd5b50506040518392506001600160a01b038e1691507fae1b84af5e96bd9fa84e791c6b59125d1c17f73ef00e5a9d1fd8c0cc41e0489690600090a39a9950505050505050505050565b610ac883838360405180602001604052806000815250611aa3565b306001600160a01b037f000000000000000000000000000000000000000000000000000000000000000016141561143c5760405162461bcd60e51b815260206004820152602c60248201527f46756e6374696f6e206d7573742062652063616c6c6564207468726f7567682060448201526b19195b1959d85d1958d85b1b60a21b6064820152608401610a27565b7f00000000000000000000000000000000000000000000000000000000000000006001600160a01b03166114977f360894a13ba1a3210667c828492db98dca3e2076cc3735a920a3ca505d382bbc546001600160a01b031690565b6001600160a01b0316146115025760405162461bcd60e51b815260206004820152602c60248201527f46756e6374696f6e206d7573742062652063616c6c6564207468726f7567682060448201526b6163746976652070726f787960a01b6064820152608401610a27565b61150b8261235f565b610d658282600161236a565b6000306001600160a01b037f000000000000000000000000000000000000000000000000000000000000000016146115b75760405162461bcd60e51b815260206004820152603860248201527f555550535570677261646561626c653a206d757374206e6f742062652063616c60448201527f6c6564207468726f7567682064656c656761746563616c6c00000000000000006064820152608401610a27565b507f360894a13ba1a3210667c828492db98dca3e2076cc3735a920a3ca505d382bbc90565b6000818152606860205260408120546001600160a01b0316806108d55760405162461bcd60e51b815260206004820152601860248201527f4552433732313a20696e76616c696420746f6b656e20494400000000000000006044820152606401610a27565b6116836040518060c001604052806000815260200160608152602001600060ff168152602001600060ff16815260200160008152602001600060ff1681525090565b6001600160a01b03821660009081526020818152604091829020825160c081019093528054835260018101805491928401916116be90613ac8565b80601f01602080910402602001604051908101604052809291908181526020018280546116ea90613ac8565b80156117375780601f1061170c57610100808354040283529160200191611737565b820191906000526020600020905b81548152906001019060200180831161171a57829003601f168201915b5050509183525050600282015460ff8082166020840152610100909104811660408301526003830154606083015260049092015490911660809091015292915050565b60006001600160a01b0382166117f85760405162461bcd60e51b815260206004820152602960248201527f4552433732313a2061646472657373207a65726f206973206e6f74206120766160448201527f6c6964206f776e657200000000000000000000000000000000000000000000006064820152608401610a27565b506001600160a01b031660009081526069602052604090205490565b7f97667070c54ef182b0f5858b034beac1b6f3089aa2d3188bb1e8929f4fa9b92961183e81611fab565b61012f546040517f84b7a84a0000000000000000000000000000000000000000000000000000000081526001600160a01b03909116906384b7a84a9061188b9087906001906004016139ac565b600060405180830381600087803b1580156118a557600080fd5b505af11580156118b9573d6000803e3d6000fd5b5050505082826040516118cd929190613864565b604051908190038120906001600160a01b038616907f3347b0049117ab94fddf6cff81cc554c4f7489acedc7c33907a96655770e58ae90600090a350505050565b6001600160a01b038116600090815260208190526040812060030154421061196157604080518082018252600381526231303360e81b6020820152905162461bcd60e51b8152610a279190600401613999565b506001600160a01b0316600090815260208190526040902060020154610100900460ff1690565b6060606780546108ec90613ac8565b6001600160a01b03811660009081526020819052604090206003015460609042106119ed57604080518082018252600381526231303360e81b6020820152905162461bcd60e51b8152610a279190600401613999565b6001600160a01b03821660009081526020819052604090206001018054611a1390613ac8565b80601f0160208091040260200160405190810160405280929190818152602001828054611a3f90613ac8565b8015611a8c5780601f10611a6157610100808354040283529160200191611a8c565b820191906000526020600020905b815481529060010190602001808311611a6f57829003601f168201915b50505050509050919050565b610d65338383612538565b611aad3383611fb5565b611b0f5760405162461bcd60e51b815260206004820152602d60248201527f4552433732313a2063616c6c6572206973206e6f7420746f6b656e206f776e6560448201526c1c881bdc88185c1c1c9bdd9959609a1b6064820152608401610a27565b611b1b84848484612607565b50505050565b600154610100900460ff1615808015611b3e57506001805460ff16105b80611b575750303b158015611b5757506001805460ff16145b611bc95760405162461bcd60e51b815260206004820152602e60248201527f496e697469616c697a61626c653a20636f6e747261637420697320616c72656160448201527f647920696e697469616c697a65640000000000000000000000000000000000006064820152608401610a27565b6001805460ff1916811790558015611beb576001805461ff0019166101001790555b611bf3612685565b611c676040518060400160405280601181526020017f50726f6f66206f66204964656e746974790000000000000000000000000000008152506040518060400160405280600581526020017f48312d49440000000000000000000000000000000000000000000000000000008152506126f2565b611c6f612685565b61012f80546001600160a01b0319166001600160a01b038616179055611c9660008461223a565b611cc07f97667070c54ef182b0f5858b034beac1b6f3089aa2d3188bb1e8929f4fa9b9298361223a565b8015611b1b576001805461ff00191681556040519081527f7f26b83ff96e1f2b6a682f133852f6798a09c465da95921460cefb38474024989060200160405180910390a150505050565b6000818152606860205260409020546060906001600160a01b031615156040518060400160405280600381526020016231303160e81b81525090611d615760405162461bcd60e51b8152600401610a279190613999565b506000828152610130602052604090208054611a1390613ac8565b6001600160a01b0381166000908152602081905260408120600301544210611dcf57604080518082018252600381526231303360e81b6020820152905162461bcd60e51b8152610a279190600401613999565b506001600160a01b031660009081526020819052604090206004015460ff1690565b600082815260986020526040902060010154611e0c81611fab565b610ac883836122dc565b6001600160a01b0381166000908152602081905260409020600101805460609190611a1390613ac8565b7f97667070c54ef182b0f5858b034beac1b6f3089aa2d3188bb1e8929f4fa9b929611e6a81611fab565b506001600160a01b03919091166000908152602081905260409020600401805460ff191660ff909216919091179055565b60006001600160e01b031982167f7965db0b0000000000000000000000000000000000000000000000000000000014806108d557506108d582612767565b6000818152606860205260409020546001600160a01b0316610ee25760405162461bcd60e51b815260206004820152601860248201527f4552433732313a20696e76616c696420746f6b656e20494400000000000000006044820152606401610a27565b6000818152606a6020526040902080546001600160a01b0319166001600160a01b0384169081179091558190611f72826115dc565b6001600160a01b03167f8c5be1e5ebec7d5bd14f71427d1e84f3dd0314c0f7b2291e5b200ac8c7c3b92560405160405180910390a45050565b610ee28133612802565b600080611fc1836115dc565b9050806001600160a01b0316846001600160a01b0316148061200857506001600160a01b038082166000908152606b602090815260408083209388168352929052205460ff165b8061202c5750836001600160a01b03166120218461096f565b6001600160a01b0316145b949350505050565b826001600160a01b0316612047826115dc565b6001600160a01b0316146120ab5760405162461bcd60e51b815260206004820152602560248201527f4552433732313a207472616e736665722066726f6d20696e636f72726563742060448201526437bbb732b960d91b6064820152608401610a27565b6001600160a01b0382166121265760405162461bcd60e51b8152602060048201526024808201527f4552433732313a207472616e7366657220746f20746865207a65726f2061646460448201527f72657373000000000000000000000000000000000000000000000000000000006064820152608401610a27565b6121338383836001612877565b826001600160a01b0316612146826115dc565b6001600160a01b0316146121aa5760405162461bcd60e51b815260206004820152602560248201527f4552433732313a207472616e736665722066726f6d20696e636f72726563742060448201526437bbb732b960d91b6064820152608401610a27565b6000818152606a6020908152604080832080546001600160a01b03199081169091556001600160a01b0387811680865260698552838620805460001901905590871680865283862080546001019055868652606890945282852080549092168417909155905184937fddf252ad1be2c89b69c2b068fc378daa952ba7f163c4a11628f55a4df523b3ef91a4610ac8565b60008281526098602090815260408083206001600160a01b038516845290915290205460ff16610d655760008281526098602090815260408083206001600160a01b03851684529091529020805460ff191660011790556122983390565b6001600160a01b0316816001600160a01b0316837f2f8788117e7eff1d82e926ec794901d17c78024a50270940304540a733656f0d60405160405180910390a45050565b60008281526098602090815260408083206001600160a01b038516845290915290205460ff1615610d655760008281526098602090815260408083206001600160a01b0385168085529252808320805460ff1916905551339285917ff6391f5c32d9c69d2a47ea670b442974b53935d1edc7fd64eb21e047a839171b9190a45050565b6000610d6581611fab565b7f4910fdfa16fed3260ed0e7147f7cc6da11a60208b5b9406d12a635614ffd91435460ff16156123a25761239d836128d9565b610ac8565b826001600160a01b03166352d1902d6040518163ffffffff1660e01b815260040160206040518083038186803b1580156123db57600080fd5b505afa92505050801561240b575060408051601f3d908101601f19168201909252612408918101906137aa565b60015b61247d5760405162461bcd60e51b815260206004820152602e60248201527f45524331393637557067726164653a206e657720696d706c656d656e7461746960448201527f6f6e206973206e6f7420555550530000000000000000000000000000000000006064820152608401610a27565b7f360894a13ba1a3210667c828492db98dca3e2076cc3735a920a3ca505d382bbc81146125125760405162461bcd60e51b815260206004820152602960248201527f45524331393637557067726164653a20756e737570706f727465642070726f7860448201527f6961626c655555494400000000000000000000000000000000000000000000006064820152608401610a27565b50610ac8838383612997565b610d658282604051806020016040528060008152506129bc565b816001600160a01b0316836001600160a01b0316141561259a5760405162461bcd60e51b815260206004820152601960248201527f4552433732313a20617070726f766520746f2063616c6c6572000000000000006044820152606401610a27565b6001600160a01b038381166000818152606b6020908152604080832094871680845294825291829020805460ff191686151590811790915591519182527f17307eab39ab6107e8899845ad3d59bd9653f200f220920489ca2b5937696c31910160405180910390a3505050565b612612848484612034565b61261e84848484612a3a565b611b1b5760405162461bcd60e51b815260206004820152603260248201527f4552433732313a207472616e7366657220746f206e6f6e20455243373231526560448201527131b2b4bb32b91034b6b83632b6b2b73a32b960711b6064820152608401610a27565b600154610100900460ff166126f05760405162461bcd60e51b815260206004820152602b60248201527f496e697469616c697a61626c653a20636f6e7472616374206973206e6f74206960448201526a6e697469616c697a696e6760a81b6064820152608401610a27565b565b600154610100900460ff1661275d5760405162461bcd60e51b815260206004820152602b60248201527f496e697469616c697a61626c653a20636f6e7472616374206973206e6f74206960448201526a6e697469616c697a696e6760a81b6064820152608401610a27565b610d658282612b92565b60006001600160e01b031982167f80ac58cd0000000000000000000000000000000000000000000000000000000014806127ca57506001600160e01b031982167f5b5e139f00000000000000000000000000000000000000000000000000000000145b806108d557507f01ffc9a7000000000000000000000000000000000000000000000000000000006001600160e01b03198316146108d5565b60008281526098602090815260408083206001600160a01b038516845290915290205460ff16610d655761283581612c24565b612840836020612c36565b604051602001612851929190613874565b60408051601f198184030181529082905262461bcd60e51b8252610a2791600401613999565b60408051808201909152600381527f313032000000000000000000000000000000000000000000000000000000000060208201526001600160a01b038516156128d35760405162461bcd60e51b8152600401610a279190613999565b50611b1b565b6001600160a01b0381163b6129565760405162461bcd60e51b815260206004820152602d60248201527f455243313936373a206e657720696d706c656d656e746174696f6e206973206e60448201527f6f74206120636f6e7472616374000000000000000000000000000000000000006064820152608401610a27565b7f360894a13ba1a3210667c828492db98dca3e2076cc3735a920a3ca505d382bbc80546001600160a01b0319166001600160a01b0392909216919091179055565b6129a083612e64565b6000825111806129ad5750805b15610ac857611b1b8383612ea4565b6129c68383612ec9565b6129d36000848484612a3a565b610ac85760405162461bcd60e51b815260206004820152603260248201527f4552433732313a207472616e7366657220746f206e6f6e20455243373231526560448201527131b2b4bb32b91034b6b83632b6b2b73a32b960711b6064820152608401610a27565b60006001600160a01b0384163b15612b8757604051630a85bd0160e11b81526001600160a01b0385169063150b7a0290612a7e9033908990889088906004016138f5565b602060405180830381600087803b158015612a9857600080fd5b505af1925050508015612ac8575060408051601f3d908101601f19168201909252612ac591810190613800565b60015b612b6d573d808015612af6576040519150601f19603f3d011682016040523d82523d6000602084013e612afb565b606091505b508051612b655760405162461bcd60e51b815260206004820152603260248201527f4552433732313a207472616e7366657220746f206e6f6e20455243373231526560448201527131b2b4bb32b91034b6b83632b6b2b73a32b960711b6064820152608401610a27565b805181602001fd5b6001600160e01b031916630a85bd0160e11b14905061202c565b506001949350505050565b600154610100900460ff16612bfd5760405162461bcd60e51b815260206004820152602b60248201527f496e697469616c697a61626c653a20636f6e7472616374206973206e6f74206960448201526a6e697469616c697a696e6760a81b6064820152608401610a27565b8151612c109060669060208501906131fa565b508051610ac89060679060208401906131fa565b60606108d56001600160a01b03831660145b60606000612c45836002613a66565b612c50906002613a4e565b67ffffffffffffffff811115612c7657634e487b7160e01b600052604160045260246000fd5b6040519080825280601f01601f191660200182016040528015612ca0576020820181803683370190505b5090507f300000000000000000000000000000000000000000000000000000000000000081600081518110612ce557634e487b7160e01b600052603260045260246000fd5b60200101906001600160f81b031916908160001a9053507f780000000000000000000000000000000000000000000000000000000000000081600181518110612d3e57634e487b7160e01b600052603260045260246000fd5b60200101906001600160f81b031916908160001a9053506000612d62846002613a66565b612d6d906001613a4e565b90505b6001811115612e0e577f303132333435363738396162636465660000000000000000000000000000000085600f1660108110612dbc57634e487b7160e01b600052603260045260246000fd5b1a60f81b828281518110612de057634e487b7160e01b600052603260045260246000fd5b60200101906001600160f81b031916908160001a90535060049490941c93612e0781613ab1565b9050612d70565b508315612e5d5760405162461bcd60e51b815260206004820181905260248201527f537472696e67733a20686578206c656e67746820696e73756666696369656e746044820152606401610a27565b9392505050565b612e6d816128d9565b6040516001600160a01b038216907fbc7cd75a20ee27fd9adebab32041f755214dbc6bffa90cc0225b39da2e5c2d3b90600090a250565b6060612e5d8383604051806060016040528060278152602001613b4660279139613063565b6001600160a01b038216612f1f5760405162461bcd60e51b815260206004820181905260248201527f4552433732313a206d696e7420746f20746865207a65726f20616464726573736044820152606401610a27565b6000818152606860205260409020546001600160a01b031615612f845760405162461bcd60e51b815260206004820152601c60248201527f4552433732313a20746f6b656e20616c7265616479206d696e746564000000006044820152606401610a27565b612f92600083836001612877565b6000818152606860205260409020546001600160a01b031615612ff75760405162461bcd60e51b815260206004820152601c60248201527f4552433732313a20746f6b656e20616c7265616479206d696e746564000000006044820152606401610a27565b6001600160a01b038216600081815260696020908152604080832080546001019055848352606890915280822080546001600160a01b0319168417905551839291907fddf252ad1be2c89b69c2b068fc378daa952ba7f163c4a11628f55a4df523b3ef908290a4610d65565b6060600080856001600160a01b0316856040516130809190613848565b600060405180830381855af49150503d80600081146130bb576040519150601f19603f3d011682016040523d82523d6000602084013e6130c0565b606091505b50915091506130d1868383876130db565b9695505050505050565b60608315613147578251613140576001600160a01b0385163b6131405760405162461bcd60e51b815260206004820152601d60248201527f416464726573733a2063616c6c20746f206e6f6e2d636f6e74726163740000006044820152606401610a27565b508161202c565b61202c838381511561315c5781518083602001fd5b8060405162461bcd60e51b8152600401610a279190613999565b82805461318290613ac8565b90600052602060002090601f0160209004810192826131a457600085556131ea565b82601f106131bd5782800160ff198235161785556131ea565b828001600101855582156131ea579182015b828111156131ea5782358255916020019190600101906131cf565b506131f692915061326e565b5090565b82805461320690613ac8565b90600052602060002090601f01602090048101928261322857600085556131ea565b82601f1061324157805160ff19168380011785556131ea565b828001600101855582156131ea579182015b828111156131ea578251825591602001919060010190613253565b5b808211156131f6576000815560010161326f565b80356001600160a01b03811681146108d857600080fd5b600082601f8301126132aa578081fd5b813567ffffffffffffffff808211156132c5576132c5613b19565b604051601f8301601f19908116603f011681019082821181831017156132ed576132ed613b19565b81604052838152866020858801011115613305578485fd5b8360208701602083013792830160200193909352509392505050565b60008083601f840112613332578182fd5b50813567ffffffffffffffff811115613349578182fd5b60208301915083602082850101111561336157600080fd5b9250929050565b803560ff811681146108d857600080fd5b60006020828403121561338a578081fd5b612e5d82613283565b600080604083850312156133a5578081fd5b6133ae83613283565b91506133bc60208401613283565b90509250929050565b6000806000606084860312156133d9578081fd5b6133e284613283565b92506133f060208501613283565b91506133fe60408501613283565b90509250925092565b60008060006060848603121561341b578283fd5b61342484613283565b925061343260208501613283565b9150604084013590509250925092565b60008060008060808587031215613457578081fd5b61346085613283565b935061346e60208601613283565b925060408501359150606085013567ffffffffffffffff811115613490578182fd5b61349c8782880161329a565b91505092959194509250565b600080604083850312156134ba578182fd5b6134c383613283565b9150602083013580151581146134d7578182fd5b809150509250929050565b600080604083850312156134f4578182fd5b6134fd83613283565b9150602083013567ffffffffffffffff811115613518578182fd5b6135248582860161329a565b9150509250929050565b600080600060408486031215613542578283fd5b61354b84613283565b9250602084013567ffffffffffffffff811115613566578283fd5b61357286828701613321565b9497909650939450505050565b60008060008060008060008060c0898b03121561359a578384fd5b6135a389613283565b9750602089013567ffffffffffffffff808211156135bf578586fd5b6135cb8c838d01613321565b90995097508791506135df60408c01613368565b96506135ed60608c01613368565b955060808b0135945060a08b0135915080821115613609578384fd5b506136168b828c01613321565b999c989b5096995094979396929594505050565b600080600080600080600080600060e08a8c031215613647578081fd5b6136508a613283565b985060208a013567ffffffffffffffff8082111561366c578283fd5b6136788d838e01613321565b909a50985088915061368c60408d01613368565b975061369a60608d01613368565b965060808c013595506136af60a08d01613368565b945060c08c01359150808211156136c4578283fd5b506136d18c828d01613321565b915080935050809150509295985092959850929598565b600080604083850312156136fa578182fd5b61370383613283565b946020939093013593505050565b60008060008060608587031215613726578182fd5b61372f85613283565b935060208501359250604085013567ffffffffffffffff811115613751578283fd5b61375d87828801613321565b95989497509550505050565b6000806040838503121561377b578182fd5b61378483613283565b91506133bc60208401613368565b6000602082840312156137a3578081fd5b5035919050565b6000602082840312156137bb578081fd5b5051919050565b600080604083850312156137d4578182fd5b823591506133bc60208401613283565b6000602082840312156137f5578081fd5b8135612e5d81613b2f565b600060208284031215613811578081fd5b8151612e5d81613b2f565b60008151808452613834816020860160208601613a85565b601f01601f19169290920160200192915050565b6000825161385a818460208701613a85565b9190910192915050565b6000828483379101908152919050565b60007f416363657373436f6e74726f6c3a206163636f756e7420000000000000000000825283516138ac816017850160208801613a85565b7f206973206d697373696e6720726f6c652000000000000000000000000000000060179184019182015283516138e9816028840160208801613a85565b01602801949350505050565b60006001600160a01b038087168352808616602084015250836040830152608060608301526130d1608083018461381c565b60006001600160a01b03831682526060602083015261395c606083016006815265484156454e3160d01b602082015260400190565b828103604093840152600681527f565443414c4c000000000000000000000000000000000000000000000000000060208201529190910192915050565b600060208252612e5d602083018461381c565b6000606082526139d2606083016006815265484156454e3160d01b602082015260400190565b6001600160a01b03949094166020830152506040015290565b60006020825282516020830152602083015160c06040840152613a1160e084018261381c565b905060ff604085015116606084015260ff6060850151166080840152608084015160a084015260ff60a08501511660c08401528091505092915050565b60008219821115613a6157613a61613b03565b500190565b6000816000190483118215151615613a8057613a80613b03565b500290565b60005b83811015613aa0578181015183820152602001613a88565b83811115611b1b5750506000910152565b600081613ac057613ac0613b03565b506000190190565b600281046001821680613adc57607f821691505b60208210811415613afd57634e487b7160e01b600052602260045260246000fd5b50919050565b634e487b7160e01b600052601160045260246000fd5b634e487b7160e01b600052604160045260246000fd5b6001600160e01b031981168114610ee257600080fdfe416464726573733a206c6f772d6c6576656c2064656c65676174652063616c6c206661696c6564a2646970667358221220fe60908a9fc029603fb393581036f96d223c27c6ca748843c30681ce7039a87864736f6c63430008020033",
  "linkReferences": {},
  "deployedLinkReferences": {}
}