{
  "_format": "hh-sol-artifact-1",
  "contractName": "ProofOfIdentity",
  "sourceName": "contracts/ProofOfIdentity.sol",
  "abi": [
    {
      "inputs": [],
      "stateMutability": "nonpayable",
      "type": "constructor"
    },
    {
      "anonymous": false,
      "inputs": [
        {
          "indexed": true,
          "internalType": "address",
          "name": "account",
          "type": "address"
        },
        {
          "indexed": true,
          "internalType": "string",
          "name": "reason",
          "type": "string"
        }
      ],
      "name": "AccountSuspendedTokenMaintained",
      "type": "event"
    },
    {
      "anonymous": false,
      "inputs": [
        {
          "indexed": false,
          "internalType": "address",
          "name": "previousAdmin",
          "type": "address"
        },
        {
          "indexed": false,
          "internalType": "address",
          "name": "newAdmin",
          "type": "address"
        }
      ],
      "name": "AdminChanged",
      "type": "event"
    },
    {
      "anonymous": false,
      "inputs": [
        {
          "indexed": true,
          "internalType": "address",
          "name": "owner",
          "type": "address"
        },
        {
          "indexed": true,
          "internalType": "address",
          "name": "approved",
          "type": "address"
        },
        {
          "indexed": true,
          "internalType": "uint256",
          "name": "tokenId",
          "type": "uint256"
        }
      ],
      "name": "Approval",
      "type": "event"
    },
    {
      "anonymous": false,
      "inputs": [
        {
          "indexed": true,
          "internalType": "address",
          "name": "owner",
          "type": "address"
        },
        {
          "indexed": true,
          "internalType": "address",
          "name": "operator",
          "type": "address"
        },
        {
          "indexed": false,
          "internalType": "bool",
          "name": "approved",
          "type": "bool"
        }
      ],
      "name": "ApprovalForAll",
      "type": "event"
    },
    {
      "anonymous": false,
      "inputs": [
        {
          "indexed": true,
          "internalType": "address",
          "name": "beacon",
          "type": "address"
        }
      ],
      "name": "BeaconUpgraded",
      "type": "event"
    },
    {
      "anonymous": false,
      "inputs": [
        {
          "indexed": true,
          "internalType": "address",
          "name": "account",
          "type": "address"
        },
        {
          "indexed": true,
          "internalType": "uint256",
          "name": "tokenId",
          "type": "uint256"
        }
      ],
      "name": "IdentityIssued",
      "type": "event"
    },
    {
      "anonymous": false,
      "inputs": [
        {
          "indexed": true,
          "internalType": "address",
          "name": "account",
          "type": "address"
        },
        {
          "indexed": true,
          "internalType": "uint256",
          "name": "tokenId",
          "type": "uint256"
        }
      ],
      "name": "IdentityUpdated",
      "type": "event"
    },
    {
      "anonymous": false,
      "inputs": [
        {
          "indexed": false,
          "internalType": "uint8",
          "name": "version",
          "type": "uint8"
        }
      ],
      "name": "Initialized",
      "type": "event"
    },
    {
      "anonymous": false,
      "inputs": [
        {
          "indexed": true,
          "internalType": "bytes32",
          "name": "role",
          "type": "bytes32"
        },
        {
          "indexed": true,
          "internalType": "bytes32",
          "name": "previousAdminRole",
          "type": "bytes32"
        },
        {
          "indexed": true,
          "internalType": "bytes32",
          "name": "newAdminRole",
          "type": "bytes32"
        }
      ],
      "name": "RoleAdminChanged",
      "type": "event"
    },
    {
      "anonymous": false,
      "inputs": [
        {
          "indexed": true,
          "internalType": "bytes32",
          "name": "role",
          "type": "bytes32"
        },
        {
          "indexed": true,
          "internalType": "address",
          "name": "account",
          "type": "address"
        },
        {
          "indexed": true,
          "internalType": "address",
          "name": "sender",
          "type": "address"
        }
      ],
      "name": "RoleGranted",
      "type": "event"
    },
    {
      "anonymous": false,
      "inputs": [
        {
          "indexed": true,
          "internalType": "bytes32",
          "name": "role",
          "type": "bytes32"
        },
        {
          "indexed": true,
          "internalType": "address",
          "name": "account",
          "type": "address"
        },
        {
          "indexed": true,
          "internalType": "address",
          "name": "sender",
          "type": "address"
        }
      ],
      "name": "RoleRevoked",
      "type": "event"
    },
    {
      "anonymous": false,
      "inputs": [
        {
          "indexed": true,
          "internalType": "address",
          "name": "account",
          "type": "address"
        },
        {
          "indexed": true,
          "internalType": "uint256",
          "name": "tokenId",
          "type": "uint256"
        },
        {
          "indexed": true,
          "internalType": "string",
          "name": "newURI",
          "type": "string"
        }
      ],
      "name": "TokenURIUpdated",
      "type": "event"
    },
    {
      "anonymous": false,
      "inputs": [
        {
          "indexed": true,
          "internalType": "address",
          "name": "from",
          "type": "address"
        },
        {
          "indexed": true,
          "internalType": "address",
          "name": "to",
          "type": "address"
        },
        {
          "indexed": true,
          "internalType": "uint256",
          "name": "tokenId",
          "type": "uint256"
        }
      ],
      "name": "Transfer",
      "type": "event"
    },
    {
      "anonymous": false,
      "inputs": [
        {
          "indexed": true,
          "internalType": "address",
          "name": "implementation",
          "type": "address"
        }
      ],
      "name": "Upgraded",
      "type": "event"
    },
    {
      "inputs": [],
      "name": "DEFAULT_ADMIN_ROLE",
      "outputs": [
        {
          "internalType": "bytes32",
          "name": "",
          "type": "bytes32"
        }
      ],
      "stateMutability": "view",
      "type": "function"
    },
    {
      "inputs": [],
      "name": "OPERATOR_ROLE",
      "outputs": [
        {
          "internalType": "bytes32",
          "name": "",
          "type": "bytes32"
        }
      ],
      "stateMutability": "view",
      "type": "function"
    },
    {
      "inputs": [
        {
          "internalType": "address",
          "name": "to",
          "type": "address"
        },
        {
          "internalType": "uint256",
          "name": "tokenId",
          "type": "uint256"
        }
      ],
      "name": "approve",
      "outputs": [],
      "stateMutability": "nonpayable",
      "type": "function"
    },
    {
      "inputs": [
        {
          "internalType": "address",
          "name": "owner",
          "type": "address"
        }
      ],
      "name": "balanceOf",
      "outputs": [
        {
          "internalType": "uint256",
          "name": "",
          "type": "uint256"
        }
      ],
      "stateMutability": "view",
      "type": "function"
    },
    {
      "inputs": [
        {
          "internalType": "address",
          "name": "account",
          "type": "address"
        },
        {
          "internalType": "uint8",
          "name": "score",
          "type": "uint8"
        }
      ],
      "name": "establishCompetencyRating",
      "outputs": [],
      "stateMutability": "nonpayable",
      "type": "function"
    },
    {
      "inputs": [
        {
          "internalType": "uint256",
          "name": "tokenId",
          "type": "uint256"
        }
      ],
      "name": "getApproved",
      "outputs": [
        {
          "internalType": "address",
          "name": "",
          "type": "address"
        }
      ],
      "stateMutability": "view",
      "type": "function"
    },
    {
      "inputs": [
        {
          "internalType": "bytes32",
          "name": "role",
          "type": "bytes32"
        }
      ],
      "name": "getRoleAdmin",
      "outputs": [
        {
          "internalType": "bytes32",
          "name": "",
          "type": "bytes32"
        }
      ],
      "stateMutability": "view",
      "type": "function"
    },
    {
      "inputs": [
        {
          "internalType": "address",
          "name": "account",
          "type": "address"
        }
      ],
      "name": "getUserAccountCompetencyRating",
      "outputs": [
        {
          "internalType": "uint8",
          "name": "",
          "type": "uint8"
        }
      ],
      "stateMutability": "view",
      "type": "function"
    },
    {
      "inputs": [
        {
          "internalType": "address",
          "name": "account",
          "type": "address"
        }
      ],
      "name": "getUserAccountCompetencyRatingPreventOnExpiry",
      "outputs": [
        {
          "internalType": "uint8",
          "name": "",
          "type": "uint8"
        }
      ],
      "stateMutability": "view",
      "type": "function"
    },
    {
      "inputs": [
        {
          "internalType": "address",
          "name": "account",
          "type": "address"
        }
      ],
      "name": "getUserAccountCountryCode",
      "outputs": [
        {
          "internalType": "string",
          "name": "userAccountCountryCode",
          "type": "string"
        }
      ],
      "stateMutability": "view",
      "type": "function"
    },
    {
      "inputs": [
        {
          "internalType": "address",
          "name": "account",
          "type": "address"
        }
      ],
      "name": "getUserAccountCountryCodePreventOnExpiry",
      "outputs": [
        {
          "internalType": "string",
          "name": "userAccountCountryCode",
          "type": "string"
        }
      ],
      "stateMutability": "view",
      "type": "function"
    },
    {
      "inputs": [
        {
          "internalType": "address",
          "name": "account",
          "type": "address"
        }
      ],
      "name": "getUserAccountExpiry",
      "outputs": [
        {
          "internalType": "uint256",
          "name": "userAccountExpiry",
          "type": "uint256"
        }
      ],
      "stateMutability": "view",
      "type": "function"
    },
    {
      "inputs": [
        {
          "internalType": "address",
          "name": "account",
          "type": "address"
        }
      ],
      "name": "getUserAccountIdentityBlob",
      "outputs": [
        {
          "components": [
            {
              "internalType": "uint256",
              "name": "tokenId",
              "type": "uint256"
            },
            {
              "internalType": "string",
              "name": "countryCode",
              "type": "string"
            },
            {
              "internalType": "uint8",
              "name": "userType",
              "type": "uint8"
            },
            {
              "internalType": "uint8",
              "name": "level",
              "type": "uint8"
            },
            {
              "internalType": "uint256",
              "name": "expiry",
              "type": "uint256"
            },
            {
              "internalType": "uint8",
              "name": "competencyRating",
              "type": "uint8"
            }
          ],
          "internalType": "struct RoleVerification.IdentityBlob",
          "name": "userIdentityBlob",
          "type": "tuple"
        }
      ],
      "stateMutability": "view",
      "type": "function"
    },
    {
      "inputs": [
        {
          "internalType": "address",
          "name": "account",
          "type": "address"
        }
      ],
      "name": "getUserAccountLevel",
      "outputs": [
        {
          "internalType": "uint8",
          "name": "userAccountLevel",
          "type": "uint8"
        }
      ],
      "stateMutability": "view",
      "type": "function"
    },
    {
      "inputs": [
        {
          "internalType": "address",
          "name": "account",
          "type": "address"
        }
      ],
      "name": "getUserAccountLevelPreventOnExpiry",
      "outputs": [
        {
          "internalType": "uint8",
          "name": "",
          "type": "uint8"
        }
      ],
      "stateMutability": "view",
      "type": "function"
    },
    {
      "inputs": [
        {
          "internalType": "address",
          "name": "account",
          "type": "address"
        }
      ],
      "name": "getUserAccountType",
      "outputs": [
        {
          "internalType": "uint8",
          "name": "userAccountType",
          "type": "uint8"
        }
      ],
      "stateMutability": "view",
      "type": "function"
    },
    {
      "inputs": [
        {
          "internalType": "address",
          "name": "account",
          "type": "address"
        }
      ],
      "name": "getUserAccountTypePreventOnExpiry",
      "outputs": [
        {
          "internalType": "uint8",
          "name": "",
          "type": "uint8"
        }
      ],
      "stateMutability": "view",
      "type": "function"
    },
    {
      "inputs": [
        {
          "internalType": "bytes32",
          "name": "role",
          "type": "bytes32"
        },
        {
          "internalType": "address",
          "name": "account",
          "type": "address"
        }
      ],
      "name": "grantRole",
      "outputs": [],
      "stateMutability": "nonpayable",
      "type": "function"
    },
    {
      "inputs": [
        {
          "internalType": "bytes32",
          "name": "role",
          "type": "bytes32"
        },
        {
          "internalType": "address",
          "name": "account",
          "type": "address"
        }
      ],
      "name": "hasRole",
      "outputs": [
        {
          "internalType": "bool",
          "name": "",
          "type": "bool"
        }
      ],
      "stateMutability": "view",
      "type": "function"
    },
    {
      "inputs": [
        {
          "internalType": "address",
          "name": "",
          "type": "address"
        }
      ],
      "name": "identityBlob",
      "outputs": [
        {
          "internalType": "uint256",
          "name": "tokenId",
          "type": "uint256"
        },
        {
          "internalType": "string",
          "name": "countryCode",
          "type": "string"
        },
        {
          "internalType": "uint8",
          "name": "userType",
          "type": "uint8"
        },
        {
          "internalType": "uint8",
          "name": "level",
          "type": "uint8"
        },
        {
          "internalType": "uint256",
          "name": "expiry",
          "type": "uint256"
        },
        {
          "internalType": "uint8",
          "name": "competencyRating",
          "type": "uint8"
        }
      ],
      "stateMutability": "view",
      "type": "function"
    },
    {
      "inputs": [
        {
          "internalType": "address",
          "name": "permissionsInterface",
          "type": "address"
        },
        {
          "internalType": "address",
          "name": "networkAdmin",
          "type": "address"
        },
        {
          "internalType": "address",
          "name": "networkOperator",
          "type": "address"
        }
      ],
      "name": "initialize",
      "outputs": [],
      "stateMutability": "nonpayable",
      "type": "function"
    },
    {
      "inputs": [
        {
          "internalType": "address",
          "name": "owner",
          "type": "address"
        },
        {
          "internalType": "address",
          "name": "operator",
          "type": "address"
        }
      ],
      "name": "isApprovedForAll",
      "outputs": [
        {
          "internalType": "bool",
          "name": "",
          "type": "bool"
        }
      ],
      "stateMutability": "view",
      "type": "function"
    },
    {
      "inputs": [
        {
          "internalType": "address",
          "name": "account",
          "type": "address"
        },
        {
          "internalType": "string",
          "name": "countryCode",
          "type": "string"
        },
        {
          "internalType": "uint8",
          "name": "userType",
          "type": "uint8"
        },
        {
          "internalType": "uint8",
          "name": "level",
          "type": "uint8"
        },
        {
          "internalType": "uint256",
          "name": "expiry",
          "type": "uint256"
        },
        {
          "internalType": "string",
          "name": "tokenUri",
          "type": "string"
        }
      ],
      "name": "issueIdentity",
      "outputs": [
        {
          "internalType": "uint256",
          "name": "",
          "type": "uint256"
        }
      ],
      "stateMutability": "nonpayable",
      "type": "function"
    },
    {
      "inputs": [],
      "name": "name",
      "outputs": [
        {
          "internalType": "string",
          "name": "",
          "type": "string"
        }
      ],
      "stateMutability": "view",
      "type": "function"
    },
    {
      "inputs": [
        {
          "internalType": "uint256",
          "name": "tokenId",
          "type": "uint256"
        }
      ],
      "name": "ownerOf",
      "outputs": [
        {
          "internalType": "address",
          "name": "",
          "type": "address"
        }
      ],
      "stateMutability": "view",
      "type": "function"
    },
    {
      "inputs": [],
      "name": "proxiableUUID",
      "outputs": [
        {
          "internalType": "bytes32",
          "name": "",
          "type": "bytes32"
        }
      ],
      "stateMutability": "view",
      "type": "function"
    },
    {
      "inputs": [
        {
          "internalType": "bytes32",
          "name": "role",
          "type": "bytes32"
        },
        {
          "internalType": "address",
          "name": "account",
          "type": "address"
        }
      ],
      "name": "renounceRole",
      "outputs": [],
      "stateMutability": "nonpayable",
      "type": "function"
    },
    {
      "inputs": [
        {
          "internalType": "bytes32",
          "name": "role",
          "type": "bytes32"
        },
        {
          "internalType": "address",
          "name": "account",
          "type": "address"
        }
      ],
      "name": "revokeRole",
      "outputs": [],
      "stateMutability": "nonpayable",
      "type": "function"
    },
    {
      "inputs": [
        {
          "internalType": "address",
          "name": "from",
          "type": "address"
        },
        {
          "internalType": "address",
          "name": "to",
          "type": "address"
        },
        {
          "internalType": "uint256",
          "name": "tokenId",
          "type": "uint256"
        }
      ],
      "name": "safeTransferFrom",
      "outputs": [],
      "stateMutability": "pure",
      "type": "function"
    },
    {
      "inputs": [
        {
          "internalType": "address",
          "name": "from",
          "type": "address"
        },
        {
          "internalType": "address",
          "name": "to",
          "type": "address"
        },
        {
          "internalType": "uint256",
          "name": "tokenId",
          "type": "uint256"
        },
        {
          "internalType": "bytes",
          "name": "data",
          "type": "bytes"
        }
      ],
      "name": "safeTransferFrom",
      "outputs": [],
      "stateMutability": "nonpayable",
      "type": "function"
    },
    {
      "inputs": [
        {
          "internalType": "address",
          "name": "operator",
          "type": "address"
        },
        {
          "internalType": "bool",
          "name": "approved",
          "type": "bool"
        }
      ],
      "name": "setApprovalForAll",
      "outputs": [],
      "stateMutability": "nonpayable",
      "type": "function"
    },
    {
      "inputs": [
        {
          "internalType": "bytes4",
          "name": "interfaceId",
          "type": "bytes4"
        }
      ],
      "name": "supportsInterface",
      "outputs": [
        {
          "internalType": "bool",
          "name": "",
          "type": "bool"
        }
      ],
      "stateMutability": "view",
      "type": "function"
    },
    {
      "inputs": [
        {
          "internalType": "address",
          "name": "suspendAddress",
          "type": "address"
        },
        {
          "internalType": "string",
          "name": "reason",
          "type": "string"
        }
      ],
      "name": "suspendAccountMaintainTokenAndIdentityBlob",
      "outputs": [],
      "stateMutability": "nonpayable",
      "type": "function"
    },
    {
      "inputs": [],
      "name": "symbol",
      "outputs": [
        {
          "internalType": "string",
          "name": "",
          "type": "string"
        }
      ],
      "stateMutability": "view",
      "type": "function"
    },
    {
      "inputs": [
        {
          "internalType": "uint256",
          "name": "tokenId",
          "type": "uint256"
        }
      ],
      "name": "tokenURI",
      "outputs": [
        {
          "internalType": "string",
          "name": "tokenUri",
          "type": "string"
        }
      ],
      "stateMutability": "view",
      "type": "function"
    },
    {
      "inputs": [],
      "name": "totalSupply",
      "outputs": [
        {
          "internalType": "uint256",
          "name": "",
          "type": "uint256"
        }
      ],
      "stateMutability": "view",
      "type": "function"
    },
    {
      "inputs": [
        {
          "internalType": "address",
          "name": "from",
          "type": "address"
        },
        {
          "internalType": "address",
          "name": "to",
          "type": "address"
        },
        {
          "internalType": "uint256",
          "name": "tokenId",
          "type": "uint256"
        }
      ],
      "name": "transferFrom",
      "outputs": [],
      "stateMutability": "pure",
      "type": "function"
    },
    {
      "inputs": [
        {
          "internalType": "address",
          "name": "account",
          "type": "address"
        },
        {
          "internalType": "string",
          "name": "countryCode",
          "type": "string"
        },
        {
          "internalType": "uint8",
          "name": "userType",
          "type": "uint8"
        },
        {
          "internalType": "uint8",
          "name": "level",
          "type": "uint8"
        },
        {
          "internalType": "uint256",
          "name": "expiry",
          "type": "uint256"
        },
        {
          "internalType": "uint8",
          "name": "competencyRating",
          "type": "uint8"
        },
        {
          "internalType": "string",
          "name": "tokenUri",
          "type": "string"
        }
      ],
      "name": "updateIdentity",
      "outputs": [],
      "stateMutability": "nonpayable",
      "type": "function"
    },
    {
      "inputs": [
        {
          "internalType": "address",
          "name": "account",
          "type": "address"
        },
        {
          "internalType": "uint256",
          "name": "tokenId",
          "type": "uint256"
        },
        {
          "internalType": "string",
          "name": "tokenUri",
          "type": "string"
        }
      ],
      "name": "updateTokenURI",
      "outputs": [],
      "stateMutability": "nonpayable",
      "type": "function"
    },
    {
      "inputs": [
        {
          "internalType": "address",
          "name": "newImplementation",
          "type": "address"
        }
      ],
      "name": "upgradeTo",
      "outputs": [],
      "stateMutability": "nonpayable",
      "type": "function"
    },
    {
      "inputs": [
        {
          "internalType": "address",
          "name": "newImplementation",
          "type": "address"
        },
        {
          "internalType": "bytes",
          "name": "data",
          "type": "bytes"
        }
      ],
      "name": "upgradeToAndCall",
      "outputs": [],
      "stateMutability": "payable",
      "type": "function"
    }
  ],
  "bytecode": "0x60a06040523060601b6080523480156200001857600080fd5b506200002362000029565b620000ea565b600154610100900460ff1615620000965760405162461bcd60e51b815260206004820152602760248201527f496e697469616c697a61626c653a20636f6e747261637420697320696e697469604482015266616c697a696e6760c81b606482015260840160405180910390fd5b60015460ff90811614620000e8576001805460ff191660ff9081179091556040519081527f7f26b83ff96e1f2b6a682f133852f6798a09c465da95921460cefb38474024989060200160405180910390a15b565b60805160601c613c3b6200012560003960008181610d6501528181610dea015281816113b101528181611436015261151c0152613c3b6000f3fe6080604052600436106102c65760003560e01c80636ca5fde811610179578063b467177f116100d6578063d510b7121161008a578063e985e9c511610064578063e985e9c51461084a578063f5b541a614610893578063f853018f146108c7576102c6565b8063d510b712146107ea578063d547741f1461080a578063dfb24b891461082a576102c6565b8063c0c53b8b116100bb578063c0c53b8b14610769578063c207e9e014610789578063c87b56dd146107ca576102c6565b8063b467177f1461070d578063b88d4fde14610749576102c6565b806394e2dc101161012d57806396257e4d1161011257806396257e4d146106b8578063a217fddf146106d8578063a22cb465146106ed576102c6565b806394e2dc101461066757806395d89b41146106a3576102c6565b806380a5a8961161015e57806380a5a896146105e157806391d1485414610601578063949cdd6e14610647576102c6565b80636ca5fde81461059457806370a08231146105c1576102c6565b80632f2ff15d1161022757806342842e0e116101db57806352d1902d116101c057806352d1902d1461052d5780636352211e14610542578063688ea9fe14610562576102c6565b806342842e0e1461042a5780634f1ef2861461051a576102c6565b80633659cfe61161020c5780633659cfe6146104ba57806337273724146104da57806340f378e5146104fa576102c6565b80632f2ff15d1461047a57806336568abe1461049a576102c6565b80630fcd7f8f1161027e5780631fe0094a116102635780631fe0094a146103f857806323b872dd1461042a578063248a9ca31461044a576102c6565b80630fcd7f8f146103c357806318160ddd146103e3576102c6565b8063081812fc116102af578063081812fc1461032257806309299ea31461035a578063095ea7b3146103a1576102c6565b806301ffc9a7146102cb57806306fdde0314610300575b600080fd5b3480156102d757600080fd5b506102eb6102e6366004613836565b6108e7565b60405190151581526020015b60405180910390f35b34801561030c57600080fd5b506103156108fa565b6040516102f791906139eb565b34801561032e57600080fd5b5061034261033d3660046137e4565b61098c565b6040516001600160a01b0390911681526020016102f7565b34801561036657600080fd5b506103936103753660046133cb565b6001600160a01b031660009081526020819052604090206003015490565b6040519081526020016102f7565b3480156103ad57600080fd5b506103c16103bc36600461373a565b6109b3565b005b3480156103cf57600080fd5b506103c16103de366004613763565b610aea565b3480156103ef57600080fd5b50610393610bd8565b34801561040457600080fd5b506104186104133660046133cb565b610be9565b60405160ff90911681526020016102f7565b34801561043657600080fd5b506103c1610445366004613459565b610c5e565b34801561045657600080fd5b506103936104653660046137e4565b60009081526098602052604090206001015490565b34801561048657600080fd5b506103c1610495366004613814565b610ca9565b3480156104a657600080fd5b506103c16104b5366004613814565b610cce565b3480156104c657600080fd5b506103c16104d53660046133cb565b610d5a565b3480156104e657600080fd5b506103c16104f536600461367c565b610ed6565b34801561050657600080fd5b506103936105153660046135d1565b6110cd565b6103c1610528366004613534565b6113a6565b34801561053957600080fd5b5061039361150f565b34801561054e57600080fd5b5061034261055d3660046137e4565b6115d4565b34801561056e57600080fd5b5061058261057d3660046133cb565b611639565b6040516102f796959493929190613aa0565b3480156105a057600080fd5b506105b46105af3660046133cb565b611700565b6040516102f79190613a3d565b3480156105cd57600080fd5b506103936105dc3660046133cb565b611839565b3480156105ed57600080fd5b506103c16105fc366004613580565b6118d3565b34801561060d57600080fd5b506102eb61061c366004613814565b60009182526098602090815260408084206001600160a01b0393909316845291905290205460ff1690565b34801561065357600080fd5b506104186106623660046133cb565b6119cd565b34801561067357600080fd5b506104186106823660046133cb565b6001600160a01b031660009081526020819052604090206004015460ff1690565b3480156106af57600080fd5b50610315611a47565b3480156106c457600080fd5b506103156106d33660046133cb565b611a56565b3480156106e457600080fd5b50610393600081565b3480156106f957600080fd5b506103c16107083660046134fa565b611b57565b34801561071957600080fd5b506104186107283660046133cb565b6001600160a01b031660009081526020819052604090206002015460ff1690565b34801561075557600080fd5b506103c1610764366004613494565b611b62565b34801561077557600080fd5b506103c1610784366004613417565b611bf0565b34801561079557600080fd5b506104186107a43660046133cb565b6001600160a01b0316600090815260208190526040902060020154610100900460ff1690565b3480156107d657600080fd5b506103156107e53660046137e4565b611dd9565b3480156107f657600080fd5b506104186108053660046133cb565b611e4b565b34801561081657600080fd5b506103c1610825366004613814565b611ec0565b34801561083657600080fd5b506103156108453660046133cb565b611ee5565b34801561085657600080fd5b506102eb6108653660046133e5565b6001600160a01b039182166000908152606b6020908152604080832093909416825291909152205460ff1690565b34801561089f57600080fd5b506103937f97667070c54ef182b0f5858b034beac1b6f3089aa2d3188bb1e8929f4fa9b92981565b3480156108d357600080fd5b506103c16108e23660046137bb565b611f0f565b60006108f282611f6a565b90505b919050565b60606066805461090990613b61565b80601f016020809104026020016040519081016040528092919081815260200182805461093590613b61565b80156109825780601f1061095757610100808354040283529160200191610982565b820191906000526020600020905b81548152906001019060200180831161096557829003601f168201915b5050505050905090565b600061099782611fa8565b506000908152606a60205260409020546001600160a01b031690565b60006109be826115d4565b9050806001600160a01b0316836001600160a01b03161415610a4d5760405162461bcd60e51b815260206004820152602160248201527f4552433732313a20617070726f76616c20746f2063757272656e74206f776e6560448201527f720000000000000000000000000000000000000000000000000000000000000060648201526084015b60405180910390fd5b336001600160a01b0382161480610a695750610a698133610865565b610adb5760405162461bcd60e51b815260206004820152603d60248201527f4552433732313a20617070726f76652063616c6c6572206973206e6f7420746f60448201527f6b656e206f776e6572206f7220617070726f76656420666f7220616c6c0000006064820152608401610a44565b610ae5838361200c565b505050565b7f97667070c54ef182b0f5858b034beac1b6f3089aa2d3188bb1e8929f4fa9b929610b148161207a565b6000848152606860205260409020546001600160a01b031615156040518060400160405280600381526020016231303160e81b81525090610b685760405162461bcd60e51b8152600401610a4491906139eb565b50600084815261013060205260409020610b839084846131c8565b508282604051610b949291906138b6565b6040519081900381209085906001600160a01b038816907fe3a3e1a0be0d562dd7ec739509d30dfbca7cd174fbc576a45746fe1f3b277c2690600090a45050505050565b6000610be461012e5490565b905090565b6001600160a01b0381166000908152602081905260408120600301544210610c3c57604080518082018252600381526231303360e81b6020820152905162461bcd60e51b8152610a4491906004016139eb565b506001600160a01b031660009081526020819052604090206002015460ff1690565b604080518082018252600381527f31303200000000000000000000000000000000000000000000000000000000006020820152905162461bcd60e51b8152610a4491906004016139eb565b600082815260986020526040902060010154610cc48161207a565b610ae58383612084565b6001600160a01b0381163314610d4c5760405162461bcd60e51b815260206004820152602f60248201527f416363657373436f6e74726f6c3a2063616e206f6e6c792072656e6f756e636560448201527f20726f6c657320666f722073656c6600000000000000000000000000000000006064820152608401610a44565b610d568282612126565b5050565b306001600160a01b037f0000000000000000000000000000000000000000000000000000000000000000161415610de85760405162461bcd60e51b815260206004820152602c60248201527f46756e6374696f6e206d7573742062652063616c6c6564207468726f7567682060448201526b19195b1959d85d1958d85b1b60a21b6064820152608401610a44565b7f00000000000000000000000000000000000000000000000000000000000000006001600160a01b0316610e437f360894a13ba1a3210667c828492db98dca3e2076cc3735a920a3ca505d382bbc546001600160a01b031690565b6001600160a01b031614610eae5760405162461bcd60e51b815260206004820152602c60248201527f46756e6374696f6e206d7573742062652063616c6c6564207468726f7567682060448201526b6163746976652070726f787960a01b6064820152608401610a44565b610eb7816121a9565b60408051600080825260208201909252610ed3918391906121b4565b50565b7f97667070c54ef182b0f5858b034beac1b6f3089aa2d3188bb1e8929f4fa9b929610f008161207a565b610f098a611839565b6001146040518060400160405280600381526020016231303160e81b81525090610f465760405162461bcd60e51b8152600401610a4491906139eb565b506040805160c0810182526001600160a01b038c1660009081526020818152908390205482528251601f8c018290048202810182019093528a83529091818301918c908c9081908401838280828437600092018290525093855250505060ff808b166020808501919091528a8216604080860191909152606085018b90529189166080909401939093526001600160a01b038e1682528183529020825181558282015180519192610fff9260018501929091019061324c565b50604082810151600283018054606086015160ff1991821660ff9485161761ff00191661010091851691909102179091556080850151600385015560a090940151600490930180549094169216919091179091556001600160a01b038b166000908152602081815282822054825261013090522061107e9084846131c8565b506001600160a01b038a166000818152602081905260408082205490519092917f4a1e31466f875c6fcafefabf90bce8accdf53108c4a309106058ef7aefebd5ce91a350505050505050505050565b60007f97667070c54ef182b0f5858b034beac1b6f3089aa2d3188bb1e8929f4fa9b9296110f98161207a565b6111028a611839565b60408051808201909152600381527f3130300000000000000000000000000000000000000000000000000000000000602082015290156111555760405162461bcd60e51b8152600401610a4491906139eb565b5060408051808201909152600381526231303360e81b60208201524286116111905760405162461bcd60e51b8152600401610a4491906139eb565b506111a061012e80546001019055565b6040518060c001604052806111b561012e5490565b81526020018a8a8080601f016020809104026020016040519081016040528093929190818152602001838380828437600092018290525093855250505060ff808b16602080850191909152908a16604080850191909152606084018a905260809093018290526001600160a01b038e16825281815291902082518155828201518051919261124b9260018501929091019061324c565b506040820151600282018054606085015160ff1991821660ff9485161761ff00191661010091851691909102179091556080840151600384015560a0909301516004909201805490931691161790556112ad8a6112a861012e5490565b612368565b838361013060006112be61012e5490565b815260200190815260200160002091906112d99291906131c8565b5061012f546040517f2f7f0a120000000000000000000000000000000000000000000000000000000081526001600160a01b0390911690632f7f0a1290611324908d90600401613979565b600060405180830381600087803b15801561133e57600080fd5b505af1158015611352573d6000803e3d6000fd5b5050505061136061012e5490565b6040516001600160a01b038c16907fae1b84af5e96bd9fa84e791c6b59125d1c17f73ef00e5a9d1fd8c0cc41e0489690600090a361012e549a9950505050505050505050565b306001600160a01b037f00000000000000000000000000000000000000000000000000000000000000001614156114345760405162461bcd60e51b815260206004820152602c60248201527f46756e6374696f6e206d7573742062652063616c6c6564207468726f7567682060448201526b19195b1959d85d1958d85b1b60a21b6064820152608401610a44565b7f00000000000000000000000000000000000000000000000000000000000000006001600160a01b031661148f7f360894a13ba1a3210667c828492db98dca3e2076cc3735a920a3ca505d382bbc546001600160a01b031690565b6001600160a01b0316146114fa5760405162461bcd60e51b815260206004820152602c60248201527f46756e6374696f6e206d7573742062652063616c6c6564207468726f7567682060448201526b6163746976652070726f787960a01b6064820152608401610a44565b611503826121a9565b610d56828260016121b4565b6000306001600160a01b037f000000000000000000000000000000000000000000000000000000000000000016146115af5760405162461bcd60e51b815260206004820152603860248201527f555550535570677261646561626c653a206d757374206e6f742062652063616c60448201527f6c6564207468726f7567682064656c656761746563616c6c00000000000000006064820152608401610a44565b507f360894a13ba1a3210667c828492db98dca3e2076cc3735a920a3ca505d382bbc90565b6000818152606860205260408120546001600160a01b0316806108f25760405162461bcd60e51b815260206004820152601860248201527f4552433732313a20696e76616c696420746f6b656e20494400000000000000006044820152606401610a44565b6000602081905290815260409020805460018201805491929161165b90613b61565b80601f016020809104026020016040519081016040528092919081815260200182805461168790613b61565b80156116d45780601f106116a9576101008083540402835291602001916116d4565b820191906000526020600020905b8154815290600101906020018083116116b757829003601f168201915b50505060028401546003850154600490950154939460ff80831695610100909304811694509092501686565b6117426040518060c001604052806000815260200160608152602001600060ff168152602001600060ff16815260200160008152602001600060ff1681525090565b6001600160a01b03821660009081526020818152604091829020825160c0810190935280548352600181018054919284019161177d90613b61565b80601f01602080910402602001604051908101604052809291908181526020018280546117a990613b61565b80156117f65780601f106117cb576101008083540402835291602001916117f6565b820191906000526020600020905b8154815290600101906020018083116117d957829003601f168201915b5050509183525050600282015460ff8082166020840152610100909104811660408301526003830154606083015260049092015490911660809091015292915050565b60006001600160a01b0382166118b75760405162461bcd60e51b815260206004820152602960248201527f4552433732313a2061646472657373207a65726f206973206e6f74206120766160448201527f6c6964206f776e657200000000000000000000000000000000000000000000006064820152608401610a44565b506001600160a01b031660009081526069602052604090205490565b7f97667070c54ef182b0f5858b034beac1b6f3089aa2d3188bb1e8929f4fa9b9296118fd8161207a565b61012f546040517f84b7a84a0000000000000000000000000000000000000000000000000000000081526001600160a01b03909116906384b7a84a9061194a9087906001906004016139fe565b600060405180830381600087803b15801561196457600080fd5b505af1158015611978573d6000803e3d6000fd5b50505050828260405161198c9291906138b6565b604051908190038120906001600160a01b038616907f3347b0049117ab94fddf6cff81cc554c4f7489acedc7c33907a96655770e58ae90600090a350505050565b6001600160a01b0381166000908152602081905260408120600301544210611a2057604080518082018252600381526231303360e81b6020820152905162461bcd60e51b8152610a4491906004016139eb565b506001600160a01b0316600090815260208190526040902060020154610100900460ff1690565b60606067805461090990613b61565b6001600160a01b0381166000908152602081905260409020600301546060904210611aac57604080518082018252600381526231303360e81b6020820152905162461bcd60e51b8152610a4491906004016139eb565b6001600160a01b03821660009081526020819052604090206001018054611ad290613b61565b80601f0160208091040260200160405190810160405280929190818152602001828054611afe90613b61565b8015611b4b5780601f10611b2057610100808354040283529160200191611b4b565b820191906000526020600020905b815481529060010190602001808311611b2e57829003601f168201915b50505050509050919050565b610d56338383612382565b611b6c3383612451565b611bde5760405162461bcd60e51b815260206004820152602d60248201527f4552433732313a2063616c6c6572206973206e6f7420746f6b656e206f776e6560448201527f72206f7220617070726f766564000000000000000000000000000000000000006064820152608401610a44565b611bea848484846124d0565b50505050565b600154610100900460ff1615808015611c0d57506001805460ff16105b80611c265750303b158015611c2657506001805460ff16145b611c985760405162461bcd60e51b815260206004820152602e60248201527f496e697469616c697a61626c653a20636f6e747261637420697320616c72656160448201527f647920696e697469616c697a65640000000000000000000000000000000000006064820152608401610a44565b6001805460ff1916811790558015611cba576001805461ff0019166101001790555b611cc261254e565b611d366040518060400160405280601181526020017f50726f6f66206f66204964656e746974790000000000000000000000000000008152506040518060400160405280600581526020017f48312d49440000000000000000000000000000000000000000000000000000008152506125bb565b611d3e61254e565b61012f80546001600160a01b0319166001600160a01b038616179055611d65600084612084565b611d8f7f97667070c54ef182b0f5858b034beac1b6f3089aa2d3188bb1e8929f4fa9b92983612084565b8015611bea576001805461ff00191681556040519081527f7f26b83ff96e1f2b6a682f133852f6798a09c465da95921460cefb38474024989060200160405180910390a150505050565b6000818152606860205260409020546060906001600160a01b031615156040518060400160405280600381526020016231303160e81b81525090611e305760405162461bcd60e51b8152600401610a4491906139eb565b506000828152610130602052604090208054611ad290613b61565b6001600160a01b0381166000908152602081905260408120600301544210611e9e57604080518082018252600381526231303360e81b6020820152905162461bcd60e51b8152610a4491906004016139eb565b506001600160a01b031660009081526020819052604090206004015460ff1690565b600082815260986020526040902060010154611edb8161207a565b610ae58383612126565b6001600160a01b0381166000908152602081905260409020600101805460609190611ad290613b61565b7f97667070c54ef182b0f5858b034beac1b6f3089aa2d3188bb1e8929f4fa9b929611f398161207a565b506001600160a01b03919091166000908152602081905260409020600401805460ff191660ff909216919091179055565b60006001600160e01b031982167f7965db0b0000000000000000000000000000000000000000000000000000000014806108f257506108f282612630565b6000818152606860205260409020546001600160a01b0316610ed35760405162461bcd60e51b815260206004820152601860248201527f4552433732313a20696e76616c696420746f6b656e20494400000000000000006044820152606401610a44565b6000818152606a6020526040902080546001600160a01b0319166001600160a01b0384169081179091558190612041826115d4565b6001600160a01b03167f8c5be1e5ebec7d5bd14f71427d1e84f3dd0314c0f7b2291e5b200ac8c7c3b92560405160405180910390a45050565b610ed381336126cb565b60008281526098602090815260408083206001600160a01b038516845290915290205460ff16610d565760008281526098602090815260408083206001600160a01b03851684529091529020805460ff191660011790556120e23390565b6001600160a01b0316816001600160a01b0316837f2f8788117e7eff1d82e926ec794901d17c78024a50270940304540a733656f0d60405160405180910390a45050565b60008281526098602090815260408083206001600160a01b038516845290915290205460ff1615610d565760008281526098602090815260408083206001600160a01b0385168085529252808320805460ff1916905551339285917ff6391f5c32d9c69d2a47ea670b442974b53935d1edc7fd64eb21e047a839171b9190a45050565b6000610d568161207a565b7f4910fdfa16fed3260ed0e7147f7cc6da11a60208b5b9406d12a635614ffd91435460ff16156121ec576121e783612740565b610ae5565b826001600160a01b03166352d1902d6040518163ffffffff1660e01b815260040160206040518083038186803b15801561222557600080fd5b505afa925050508015612255575060408051601f3d908101601f19168201909252612252918101906137fc565b60015b6122c75760405162461bcd60e51b815260206004820152602e60248201527f45524331393637557067726164653a206e657720696d706c656d656e7461746960448201527f6f6e206973206e6f7420555550530000000000000000000000000000000000006064820152608401610a44565b7f360894a13ba1a3210667c828492db98dca3e2076cc3735a920a3ca505d382bbc811461235c5760405162461bcd60e51b815260206004820152602960248201527f45524331393637557067726164653a20756e737570706f727465642070726f7860448201527f6961626c655555494400000000000000000000000000000000000000000000006064820152608401610a44565b50610ae58383836127fe565b610d56828260405180602001604052806000815250612823565b816001600160a01b0316836001600160a01b031614156123e45760405162461bcd60e51b815260206004820152601960248201527f4552433732313a20617070726f766520746f2063616c6c6572000000000000006044820152606401610a44565b6001600160a01b038381166000818152606b6020908152604080832094871680845294825291829020805460ff191686151590811790915591519182527f17307eab39ab6107e8899845ad3d59bd9653f200f220920489ca2b5937696c31910160405180910390a3505050565b60008061245d836115d4565b9050806001600160a01b0316846001600160a01b031614806124a457506001600160a01b038082166000908152606b602090815260408083209388168352929052205460ff165b806124c85750836001600160a01b03166124bd8461098c565b6001600160a01b0316145b949350505050565b6124db8484846128a1565b6124e784848484612a9a565b611bea5760405162461bcd60e51b815260206004820152603260248201527f4552433732313a207472616e7366657220746f206e6f6e20455243373231526560448201527131b2b4bb32b91034b6b83632b6b2b73a32b960711b6064820152608401610a44565b600154610100900460ff166125b95760405162461bcd60e51b815260206004820152602b60248201527f496e697469616c697a61626c653a20636f6e7472616374206973206e6f74206960448201526a6e697469616c697a696e6760a81b6064820152608401610a44565b565b600154610100900460ff166126265760405162461bcd60e51b815260206004820152602b60248201527f496e697469616c697a61626c653a20636f6e7472616374206973206e6f74206960448201526a6e697469616c697a696e6760a81b6064820152608401610a44565b610d568282612bf2565b60006001600160e01b031982167f80ac58cd00000000000000000000000000000000000000000000000000000000148061269357506001600160e01b031982167f5b5e139f00000000000000000000000000000000000000000000000000000000145b806108f257507f01ffc9a7000000000000000000000000000000000000000000000000000000006001600160e01b03198316146108f2565b60008281526098602090815260408083206001600160a01b038516845290915290205460ff16610d56576126fe81612c84565b612709836020612c96565b60405160200161271a9291906138c6565b60408051601f198184030181529082905262461bcd60e51b8252610a44916004016139eb565b6001600160a01b0381163b6127bd5760405162461bcd60e51b815260206004820152602d60248201527f455243313936373a206e657720696d706c656d656e746174696f6e206973206e60448201527f6f74206120636f6e7472616374000000000000000000000000000000000000006064820152608401610a44565b7f360894a13ba1a3210667c828492db98dca3e2076cc3735a920a3ca505d382bbc80546001600160a01b0319166001600160a01b0392909216919091179055565b61280783612ec4565b6000825111806128145750805b15610ae557611bea8383612f04565b61282d8383612f29565b61283a6000848484612a9a565b610ae55760405162461bcd60e51b815260206004820152603260248201527f4552433732313a207472616e7366657220746f206e6f6e20455243373231526560448201527131b2b4bb32b91034b6b83632b6b2b73a32b960711b6064820152608401610a44565b826001600160a01b03166128b4826115d4565b6001600160a01b0316146129185760405162461bcd60e51b815260206004820152602560248201527f4552433732313a207472616e736665722066726f6d20696e636f72726563742060448201526437bbb732b960d91b6064820152608401610a44565b6001600160a01b0382166129935760405162461bcd60e51b8152602060048201526024808201527f4552433732313a207472616e7366657220746f20746865207a65726f2061646460448201527f72657373000000000000000000000000000000000000000000000000000000006064820152608401610a44565b826001600160a01b03166129a6826115d4565b6001600160a01b031614612a0a5760405162461bcd60e51b815260206004820152602560248201527f4552433732313a207472616e736665722066726f6d20696e636f72726563742060448201526437bbb732b960d91b6064820152608401610a44565b6000818152606a6020908152604080832080546001600160a01b03199081169091556001600160a01b0387811680865260698552838620805460001901905590871680865283862080546001019055868652606890945282852080549092168417909155905184937fddf252ad1be2c89b69c2b068fc378daa952ba7f163c4a11628f55a4df523b3ef91a4610ae5565b60006001600160a01b0384163b15612be757604051630a85bd0160e11b81526001600160a01b0385169063150b7a0290612ade903390899088908890600401613947565b602060405180830381600087803b158015612af857600080fd5b505af1925050508015612b28575060408051601f3d908101601f19168201909252612b2591810190613852565b60015b612bcd573d808015612b56576040519150601f19603f3d011682016040523d82523d6000602084013e612b5b565b606091505b508051612bc55760405162461bcd60e51b815260206004820152603260248201527f4552433732313a207472616e7366657220746f206e6f6e20455243373231526560448201527131b2b4bb32b91034b6b83632b6b2b73a32b960711b6064820152608401610a44565b805181602001fd5b6001600160e01b031916630a85bd0160e11b1490506124c8565b506001949350505050565b600154610100900460ff16612c5d5760405162461bcd60e51b815260206004820152602b60248201527f496e697469616c697a61626c653a20636f6e7472616374206973206e6f74206960448201526a6e697469616c697a696e6760a81b6064820152608401610a44565b8151612c7090606690602085019061324c565b508051610ae590606790602084019061324c565b60606108f26001600160a01b03831660145b60606000612ca5836002613aff565b612cb0906002613ae7565b67ffffffffffffffff811115612cd657634e487b7160e01b600052604160045260246000fd5b6040519080825280601f01601f191660200182016040528015612d00576020820181803683370190505b5090507f300000000000000000000000000000000000000000000000000000000000000081600081518110612d4557634e487b7160e01b600052603260045260246000fd5b60200101906001600160f81b031916908160001a9053507f780000000000000000000000000000000000000000000000000000000000000081600181518110612d9e57634e487b7160e01b600052603260045260246000fd5b60200101906001600160f81b031916908160001a9053506000612dc2846002613aff565b612dcd906001613ae7565b90505b6001811115612e6e577f303132333435363738396162636465660000000000000000000000000000000085600f1660108110612e1c57634e487b7160e01b600052603260045260246000fd5b1a60f81b828281518110612e4057634e487b7160e01b600052603260045260246000fd5b60200101906001600160f81b031916908160001a90535060049490941c93612e6781613b4a565b9050612dd0565b508315612ebd5760405162461bcd60e51b815260206004820181905260248201527f537472696e67733a20686578206c656e67746820696e73756666696369656e746044820152606401610a44565b9392505050565b612ecd81612740565b6040516001600160a01b038216907fbc7cd75a20ee27fd9adebab32041f755214dbc6bffa90cc0225b39da2e5c2d3b90600090a250565b6060612ebd8383604051806060016040528060278152602001613bdf602791396130b5565b6001600160a01b038216612f7f5760405162461bcd60e51b815260206004820181905260248201527f4552433732313a206d696e7420746f20746865207a65726f20616464726573736044820152606401610a44565b6000818152606860205260409020546001600160a01b031615612fe45760405162461bcd60e51b815260206004820152601c60248201527f4552433732313a20746f6b656e20616c7265616479206d696e746564000000006044820152606401610a44565b6000818152606860205260409020546001600160a01b0316156130495760405162461bcd60e51b815260206004820152601c60248201527f4552433732313a20746f6b656e20616c7265616479206d696e746564000000006044820152606401610a44565b6001600160a01b038216600081815260696020908152604080832080546001019055848352606890915280822080546001600160a01b0319168417905551839291907fddf252ad1be2c89b69c2b068fc378daa952ba7f163c4a11628f55a4df523b3ef908290a4610d56565b6060600080856001600160a01b0316856040516130d2919061389a565b600060405180830381855af49150503d806000811461310d576040519150601f19603f3d011682016040523d82523d6000602084013e613112565b606091505b50915091506131238683838761312d565b9695505050505050565b60608315613199578251613192576001600160a01b0385163b6131925760405162461bcd60e51b815260206004820152601d60248201527f416464726573733a2063616c6c20746f206e6f6e2d636f6e74726163740000006044820152606401610a44565b50816124c8565b6124c883838151156131ae5781518083602001fd5b8060405162461bcd60e51b8152600401610a4491906139eb565b8280546131d490613b61565b90600052602060002090601f0160209004810192826131f6576000855561323c565b82601f1061320f5782800160ff1982351617855561323c565b8280016001018555821561323c579182015b8281111561323c578235825591602001919060010190613221565b506132489291506132c0565b5090565b82805461325890613b61565b90600052602060002090601f01602090048101928261327a576000855561323c565b82601f1061329357805160ff191683800117855561323c565b8280016001018555821561323c579182015b8281111561323c5782518255916020019190600101906132a5565b5b8082111561324857600081556001016132c1565b80356001600160a01b03811681146108f557600080fd5b600082601f8301126132fc578081fd5b813567ffffffffffffffff8082111561331757613317613bb2565b604051601f8301601f19908116603f0116810190828211818310171561333f5761333f613bb2565b81604052838152866020858801011115613357578485fd5b8360208701602083013792830160200193909352509392505050565b60008083601f840112613384578182fd5b50813567ffffffffffffffff81111561339b578182fd5b6020830191508360208285010111156133b357600080fd5b9250929050565b803560ff811681146108f557600080fd5b6000602082840312156133dc578081fd5b612ebd826132d5565b600080604083850312156133f7578081fd5b613400836132d5565b915061340e602084016132d5565b90509250929050565b60008060006060848603121561342b578081fd5b613434846132d5565b9250613442602085016132d5565b9150613450604085016132d5565b90509250925092565b60008060006060848603121561346d578283fd5b613476846132d5565b9250613484602085016132d5565b9150604084013590509250925092565b600080600080608085870312156134a9578081fd5b6134b2856132d5565b93506134c0602086016132d5565b925060408501359150606085013567ffffffffffffffff8111156134e2578182fd5b6134ee878288016132ec565b91505092959194509250565b6000806040838503121561350c578182fd5b613515836132d5565b915060208301358015158114613529578182fd5b809150509250929050565b60008060408385031215613546578182fd5b61354f836132d5565b9150602083013567ffffffffffffffff81111561356a578182fd5b613576858286016132ec565b9150509250929050565b600080600060408486031215613594578283fd5b61359d846132d5565b9250602084013567ffffffffffffffff8111156135b8578283fd5b6135c486828701613373565b9497909650939450505050565b60008060008060008060008060c0898b0312156135ec578384fd5b6135f5896132d5565b9750602089013567ffffffffffffffff80821115613611578586fd5b61361d8c838d01613373565b909950975087915061363160408c016133ba565b965061363f60608c016133ba565b955060808b0135945060a08b013591508082111561365b578384fd5b506136688b828c01613373565b999c989b5096995094979396929594505050565b600080600080600080600080600060e08a8c031215613699578081fd5b6136a28a6132d5565b985060208a013567ffffffffffffffff808211156136be578283fd5b6136ca8d838e01613373565b909a5098508891506136de60408d016133ba565b97506136ec60608d016133ba565b965060808c0135955061370160a08d016133ba565b945060c08c0135915080821115613716578283fd5b506137238c828d01613373565b915080935050809150509295985092959850929598565b6000806040838503121561374c578182fd5b613755836132d5565b946020939093013593505050565b60008060008060608587031215613778578182fd5b613781856132d5565b935060208501359250604085013567ffffffffffffffff8111156137a3578283fd5b6137af87828801613373565b95989497509550505050565b600080604083850312156137cd578182fd5b6137d6836132d5565b915061340e602084016133ba565b6000602082840312156137f5578081fd5b5035919050565b60006020828403121561380d578081fd5b5051919050565b60008060408385031215613826578182fd5b8235915061340e602084016132d5565b600060208284031215613847578081fd5b8135612ebd81613bc8565b600060208284031215613863578081fd5b8151612ebd81613bc8565b60008151808452613886816020860160208601613b1e565b601f01601f19169290920160200192915050565b600082516138ac818460208701613b1e565b9190910192915050565b6000828483379101908152919050565b60007f416363657373436f6e74726f6c3a206163636f756e7420000000000000000000825283516138fe816017850160208801613b1e565b7f206973206d697373696e6720726f6c6520000000000000000000000000000000601791840191820152835161393b816028840160208801613b1e565b01602801949350505050565b60006001600160a01b03808716835280861660208401525083604083015260806060830152613123608083018461386e565b60006001600160a01b0383168252606060208301526139ae606083016006815265484156454e3160d01b602082015260400190565b828103604093840152600681527f565443414c4c000000000000000000000000000000000000000000000000000060208201529190910192915050565b600060208252612ebd602083018461386e565b600060608252613a24606083016006815265484156454e3160d01b602082015260400190565b6001600160a01b03949094166020830152506040015290565b60006020825282516020830152602083015160c06040840152613a6360e084018261386e565b905060ff604085015116606084015260ff6060850151166080840152608084015160a084015260ff60a08501511660c08401528091505092915050565b600087825260c06020830152613ab960c083018861386e565b905060ff8616604083015260ff8516606083015283608083015260ff831660a0830152979650505050505050565b60008219821115613afa57613afa613b9c565b500190565b6000816000190483118215151615613b1957613b19613b9c565b500290565b60005b83811015613b39578181015183820152602001613b21565b83811115611bea5750506000910152565b600081613b5957613b59613b9c565b506000190190565b600281046001821680613b7557607f821691505b60208210811415613b9657634e487b7160e01b600052602260045260246000fd5b50919050565b634e487b7160e01b600052601160045260246000fd5b634e487b7160e01b600052604160045260246000fd5b6001600160e01b031981168114610ed357600080fdfe416464726573733a206c6f772d6c6576656c2064656c65676174652063616c6c206661696c6564a264697066735822122013af8c9ade32401d5ea8e9b98d7deb426d0e944188e362eb1bef70a5fa458f2964736f6c63430008020033",
  "linkReferences": {},
  "deployedLinkReferences": {}
}