{
  "_format": "hh-sol-artifact-1",
  "contractName": "ProofOfIdentity",
  "sourceName": "contracts/ProofOfIdentity.sol",
  "abi": [
    {
      "inputs": [],
      "stateMutability": "nonpayable",
      "type": "constructor"
    },
    {
      "anonymous": false,
      "inputs": [
        {
          "indexed": true,
          "internalType": "address",
          "name": "account",
          "type": "address"
        },
        {
          "indexed": true,
          "internalType": "uint256",
          "name": "tokenId",
          "type": "uint256"
        },
        {
          "indexed": true,
          "internalType": "string",
          "name": "reason",
          "type": "string"
        }
      ],
      "name": "AccountSuspendedTokenBurned",
      "type": "event"
    },
    {
      "anonymous": false,
      "inputs": [
        {
          "indexed": true,
          "internalType": "address",
          "name": "account",
          "type": "address"
        },
        {
          "indexed": true,
          "internalType": "string",
          "name": "reason",
          "type": "string"
        }
      ],
      "name": "AccountSuspendedTokenMaintained",
      "type": "event"
    },
    {
      "anonymous": false,
      "inputs": [
        {
          "indexed": false,
          "internalType": "address",
          "name": "previousAdmin",
          "type": "address"
        },
        {
          "indexed": false,
          "internalType": "address",
          "name": "newAdmin",
          "type": "address"
        }
      ],
      "name": "AdminChanged",
      "type": "event"
    },
    {
      "anonymous": false,
      "inputs": [
        {
          "indexed": true,
          "internalType": "address",
          "name": "owner",
          "type": "address"
        },
        {
          "indexed": true,
          "internalType": "address",
          "name": "approved",
          "type": "address"
        },
        {
          "indexed": true,
          "internalType": "uint256",
          "name": "tokenId",
          "type": "uint256"
        }
      ],
      "name": "Approval",
      "type": "event"
    },
    {
      "anonymous": false,
      "inputs": [
        {
          "indexed": true,
          "internalType": "address",
          "name": "owner",
          "type": "address"
        },
        {
          "indexed": true,
          "internalType": "address",
          "name": "operator",
          "type": "address"
        },
        {
          "indexed": false,
          "internalType": "bool",
          "name": "approved",
          "type": "bool"
        }
      ],
      "name": "ApprovalForAll",
      "type": "event"
    },
    {
      "anonymous": false,
      "inputs": [
        {
          "indexed": true,
          "internalType": "address",
          "name": "beacon",
          "type": "address"
        }
      ],
      "name": "BeaconUpgraded",
      "type": "event"
    },
    {
      "anonymous": false,
      "inputs": [
        {
          "indexed": true,
          "internalType": "address",
          "name": "account",
          "type": "address"
        },
        {
          "indexed": true,
          "internalType": "uint256",
          "name": "tokenId",
          "type": "uint256"
        }
      ],
      "name": "IdentityIssued",
      "type": "event"
    },
    {
      "anonymous": false,
      "inputs": [
        {
          "indexed": true,
          "internalType": "address",
          "name": "account",
          "type": "address"
        },
        {
          "indexed": true,
          "internalType": "uint256",
          "name": "tokenId",
          "type": "uint256"
        }
      ],
      "name": "IdentityUpdated",
      "type": "event"
    },
    {
      "anonymous": false,
      "inputs": [
        {
          "indexed": false,
          "internalType": "uint8",
          "name": "version",
          "type": "uint8"
        }
      ],
      "name": "Initialized",
      "type": "event"
    },
    {
      "anonymous": false,
      "inputs": [
        {
          "indexed": true,
          "internalType": "bytes32",
          "name": "role",
          "type": "bytes32"
        },
        {
          "indexed": true,
          "internalType": "bytes32",
          "name": "previousAdminRole",
          "type": "bytes32"
        },
        {
          "indexed": true,
          "internalType": "bytes32",
          "name": "newAdminRole",
          "type": "bytes32"
        }
      ],
      "name": "RoleAdminChanged",
      "type": "event"
    },
    {
      "anonymous": false,
      "inputs": [
        {
          "indexed": true,
          "internalType": "bytes32",
          "name": "role",
          "type": "bytes32"
        },
        {
          "indexed": true,
          "internalType": "address",
          "name": "account",
          "type": "address"
        },
        {
          "indexed": true,
          "internalType": "address",
          "name": "sender",
          "type": "address"
        }
      ],
      "name": "RoleGranted",
      "type": "event"
    },
    {
      "anonymous": false,
      "inputs": [
        {
          "indexed": true,
          "internalType": "bytes32",
          "name": "role",
          "type": "bytes32"
        },
        {
          "indexed": true,
          "internalType": "address",
          "name": "account",
          "type": "address"
        },
        {
          "indexed": true,
          "internalType": "address",
          "name": "sender",
          "type": "address"
        }
      ],
      "name": "RoleRevoked",
      "type": "event"
    },
    {
      "anonymous": false,
      "inputs": [
        {
          "indexed": true,
          "internalType": "address",
          "name": "account",
          "type": "address"
        },
        {
          "indexed": true,
          "internalType": "uint256",
          "name": "tokenId",
          "type": "uint256"
        },
        {
          "indexed": true,
          "internalType": "string",
          "name": "newURI",
          "type": "string"
        }
      ],
      "name": "TokenURIUpdated",
      "type": "event"
    },
    {
      "anonymous": false,
      "inputs": [
        {
          "indexed": true,
          "internalType": "address",
          "name": "from",
          "type": "address"
        },
        {
          "indexed": true,
          "internalType": "address",
          "name": "to",
          "type": "address"
        },
        {
          "indexed": true,
          "internalType": "uint256",
          "name": "tokenId",
          "type": "uint256"
        }
      ],
      "name": "Transfer",
      "type": "event"
    },
    {
      "anonymous": false,
      "inputs": [
        {
          "indexed": true,
          "internalType": "address",
          "name": "implementation",
          "type": "address"
        }
      ],
      "name": "Upgraded",
      "type": "event"
    },
    {
      "inputs": [],
      "name": "DEFAULT_ADMIN_ROLE",
      "outputs": [
        {
          "internalType": "bytes32",
          "name": "",
          "type": "bytes32"
        }
      ],
      "stateMutability": "view",
      "type": "function"
    },
    {
      "inputs": [],
      "name": "OPERATOR_ROLE",
      "outputs": [
        {
          "internalType": "bytes32",
          "name": "",
          "type": "bytes32"
        }
      ],
      "stateMutability": "view",
      "type": "function"
    },
    {
      "inputs": [
        {
          "internalType": "address",
          "name": "to",
          "type": "address"
        },
        {
          "internalType": "uint256",
          "name": "tokenId",
          "type": "uint256"
        }
      ],
      "name": "approve",
      "outputs": [],
      "stateMutability": "nonpayable",
      "type": "function"
    },
    {
      "inputs": [
        {
          "internalType": "address",
          "name": "owner",
          "type": "address"
        }
      ],
      "name": "balanceOf",
      "outputs": [
        {
          "internalType": "uint256",
          "name": "",
          "type": "uint256"
        }
      ],
      "stateMutability": "view",
      "type": "function"
    },
    {
      "inputs": [
        {
          "internalType": "uint256",
          "name": "tokenId",
          "type": "uint256"
        }
      ],
      "name": "getApproved",
      "outputs": [
        {
          "internalType": "address",
          "name": "",
          "type": "address"
        }
      ],
      "stateMutability": "view",
      "type": "function"
    },
    {
      "inputs": [
        {
          "internalType": "bytes32",
          "name": "role",
          "type": "bytes32"
        }
      ],
      "name": "getRoleAdmin",
      "outputs": [
        {
          "internalType": "bytes32",
          "name": "",
          "type": "bytes32"
        }
      ],
      "stateMutability": "view",
      "type": "function"
    },
    {
      "inputs": [
        {
          "internalType": "address",
          "name": "account",
          "type": "address"
        }
      ],
      "name": "getUserAccountCountryCode",
      "outputs": [
        {
          "internalType": "string",
          "name": "userAccountCountryCode",
          "type": "string"
        }
      ],
      "stateMutability": "view",
      "type": "function"
    },
    {
      "inputs": [
        {
          "internalType": "address",
          "name": "account",
          "type": "address"
        }
      ],
      "name": "getUserAccountCountryCodePreventOnExpiry",
      "outputs": [
        {
          "internalType": "string",
          "name": "userAccountCountryCode",
          "type": "string"
        }
      ],
      "stateMutability": "view",
      "type": "function"
    },
    {
      "inputs": [
        {
          "internalType": "address",
          "name": "account",
          "type": "address"
        }
      ],
      "name": "getUserAccountExpiry",
      "outputs": [
        {
          "internalType": "uint256",
          "name": "userAccountExpiry",
          "type": "uint256"
        }
      ],
      "stateMutability": "view",
      "type": "function"
    },
    {
      "inputs": [
        {
          "internalType": "address",
          "name": "account",
          "type": "address"
        }
      ],
      "name": "getUserAccountIdentityBlob",
      "outputs": [
        {
          "components": [
            {
              "internalType": "uint256",
              "name": "tokenId",
              "type": "uint256"
            },
            {
              "internalType": "string",
              "name": "countryCode",
              "type": "string"
            },
            {
              "internalType": "uint8",
              "name": "userType",
              "type": "uint8"
            },
            {
              "internalType": "uint8",
              "name": "level",
              "type": "uint8"
            },
            {
              "internalType": "uint256",
              "name": "expiry",
              "type": "uint256"
            }
          ],
          "internalType": "struct RoleVerification.IdentityBlob",
          "name": "userIdentityBlob",
          "type": "tuple"
        }
      ],
      "stateMutability": "view",
      "type": "function"
    },
    {
      "inputs": [
        {
          "internalType": "address",
          "name": "account",
          "type": "address"
        }
      ],
      "name": "getUserAccountLevel",
      "outputs": [
        {
          "internalType": "uint8",
          "name": "userAccountLevel",
          "type": "uint8"
        }
      ],
      "stateMutability": "view",
      "type": "function"
    },
    {
      "inputs": [
        {
          "internalType": "address",
          "name": "account",
          "type": "address"
        }
      ],
      "name": "getUserAccountLevelPreventOnExpiry",
      "outputs": [
        {
          "internalType": "uint8",
          "name": "",
          "type": "uint8"
        }
      ],
      "stateMutability": "view",
      "type": "function"
    },
    {
      "inputs": [
        {
          "internalType": "address",
          "name": "account",
          "type": "address"
        }
      ],
      "name": "getUserAccountType",
      "outputs": [
        {
          "internalType": "uint8",
          "name": "userAccountType",
          "type": "uint8"
        }
      ],
      "stateMutability": "view",
      "type": "function"
    },
    {
      "inputs": [
        {
          "internalType": "address",
          "name": "account",
          "type": "address"
        }
      ],
      "name": "getUserAccountTypePreventOnExpiry",
      "outputs": [
        {
          "internalType": "uint8",
          "name": "",
          "type": "uint8"
        }
      ],
      "stateMutability": "view",
      "type": "function"
    },
    {
      "inputs": [
        {
          "internalType": "bytes32",
          "name": "role",
          "type": "bytes32"
        },
        {
          "internalType": "address",
          "name": "account",
          "type": "address"
        }
      ],
      "name": "grantRole",
      "outputs": [],
      "stateMutability": "nonpayable",
      "type": "function"
    },
    {
      "inputs": [
        {
          "internalType": "bytes32",
          "name": "role",
          "type": "bytes32"
        },
        {
          "internalType": "address",
          "name": "account",
          "type": "address"
        }
      ],
      "name": "hasRole",
      "outputs": [
        {
          "internalType": "bool",
          "name": "",
          "type": "bool"
        }
      ],
      "stateMutability": "view",
      "type": "function"
    },
    {
      "inputs": [
        {
          "internalType": "address",
          "name": "",
          "type": "address"
        }
      ],
      "name": "identityBlob",
      "outputs": [
        {
          "internalType": "uint256",
          "name": "tokenId",
          "type": "uint256"
        },
        {
          "internalType": "string",
          "name": "countryCode",
          "type": "string"
        },
        {
          "internalType": "uint8",
          "name": "userType",
          "type": "uint8"
        },
        {
          "internalType": "uint8",
          "name": "level",
          "type": "uint8"
        },
        {
          "internalType": "uint256",
          "name": "expiry",
          "type": "uint256"
        }
      ],
      "stateMutability": "view",
      "type": "function"
    },
    {
      "inputs": [
        {
          "internalType": "address",
          "name": "permissionsInterface",
          "type": "address"
        },
        {
          "internalType": "address",
          "name": "networkAdmin",
          "type": "address"
        },
        {
          "internalType": "address",
          "name": "networkOperator",
          "type": "address"
        }
      ],
      "name": "initialize",
      "outputs": [],
      "stateMutability": "nonpayable",
      "type": "function"
    },
    {
      "inputs": [
        {
          "internalType": "address",
          "name": "owner",
          "type": "address"
        },
        {
          "internalType": "address",
          "name": "operator",
          "type": "address"
        }
      ],
      "name": "isApprovedForAll",
      "outputs": [
        {
          "internalType": "bool",
          "name": "",
          "type": "bool"
        }
      ],
      "stateMutability": "view",
      "type": "function"
    },
    {
      "inputs": [
        {
          "internalType": "address",
          "name": "account",
          "type": "address"
        },
        {
          "internalType": "string",
          "name": "countryCode",
          "type": "string"
        },
        {
          "internalType": "uint8",
          "name": "userType",
          "type": "uint8"
        },
        {
          "internalType": "uint8",
          "name": "level",
          "type": "uint8"
        },
        {
          "internalType": "uint256",
          "name": "expiry",
          "type": "uint256"
        },
        {
          "internalType": "string",
          "name": "tokenUri",
          "type": "string"
        }
      ],
      "name": "issueIdentity",
      "outputs": [
        {
          "internalType": "uint256",
          "name": "",
          "type": "uint256"
        }
      ],
      "stateMutability": "nonpayable",
      "type": "function"
    },
    {
      "inputs": [],
      "name": "name",
      "outputs": [
        {
          "internalType": "string",
          "name": "",
          "type": "string"
        }
      ],
      "stateMutability": "view",
      "type": "function"
    },
    {
      "inputs": [
        {
          "internalType": "uint256",
          "name": "tokenId",
          "type": "uint256"
        }
      ],
      "name": "ownerOf",
      "outputs": [
        {
          "internalType": "address",
          "name": "",
          "type": "address"
        }
      ],
      "stateMutability": "view",
      "type": "function"
    },
    {
      "inputs": [],
      "name": "proxiableUUID",
      "outputs": [
        {
          "internalType": "bytes32",
          "name": "",
          "type": "bytes32"
        }
      ],
      "stateMutability": "view",
      "type": "function"
    },
    {
      "inputs": [
        {
          "internalType": "bytes32",
          "name": "role",
          "type": "bytes32"
        },
        {
          "internalType": "address",
          "name": "account",
          "type": "address"
        }
      ],
      "name": "renounceRole",
      "outputs": [],
      "stateMutability": "nonpayable",
      "type": "function"
    },
    {
      "inputs": [
        {
          "internalType": "bytes32",
          "name": "role",
          "type": "bytes32"
        },
        {
          "internalType": "address",
          "name": "account",
          "type": "address"
        }
      ],
      "name": "revokeRole",
      "outputs": [],
      "stateMutability": "nonpayable",
      "type": "function"
    },
    {
      "inputs": [
        {
          "internalType": "address",
          "name": "from",
          "type": "address"
        },
        {
          "internalType": "address",
          "name": "to",
          "type": "address"
        },
        {
          "internalType": "uint256",
          "name": "tokenId",
          "type": "uint256"
        }
      ],
      "name": "safeTransferFrom",
      "outputs": [],
      "stateMutability": "pure",
      "type": "function"
    },
    {
      "inputs": [
        {
          "internalType": "address",
          "name": "from",
          "type": "address"
        },
        {
          "internalType": "address",
          "name": "to",
          "type": "address"
        },
        {
          "internalType": "uint256",
          "name": "tokenId",
          "type": "uint256"
        },
        {
          "internalType": "bytes",
          "name": "data",
          "type": "bytes"
        }
      ],
      "name": "safeTransferFrom",
      "outputs": [],
      "stateMutability": "nonpayable",
      "type": "function"
    },
    {
      "inputs": [
        {
          "internalType": "address",
          "name": "operator",
          "type": "address"
        },
        {
          "internalType": "bool",
          "name": "approved",
          "type": "bool"
        }
      ],
      "name": "setApprovalForAll",
      "outputs": [],
      "stateMutability": "nonpayable",
      "type": "function"
    },
    {
      "inputs": [
        {
          "internalType": "bytes4",
          "name": "interfaceId",
          "type": "bytes4"
        }
      ],
      "name": "supportsInterface",
      "outputs": [
        {
          "internalType": "bool",
          "name": "",
          "type": "bool"
        }
      ],
      "stateMutability": "view",
      "type": "function"
    },
    {
      "inputs": [
        {
          "internalType": "address",
          "name": "suspendAddress",
          "type": "address"
        },
        {
          "internalType": "string",
          "name": "reason",
          "type": "string"
        }
      ],
      "name": "suspendAccountMaintainTokenAndIdentityBlob",
      "outputs": [],
      "stateMutability": "nonpayable",
      "type": "function"
    },
    {
      "inputs": [],
      "name": "symbol",
      "outputs": [
        {
          "internalType": "string",
          "name": "",
          "type": "string"
        }
      ],
      "stateMutability": "view",
      "type": "function"
    },
    {
      "inputs": [
        {
          "internalType": "uint256",
          "name": "tokenId",
          "type": "uint256"
        }
      ],
      "name": "tokenURI",
      "outputs": [
        {
          "internalType": "string",
          "name": "tokenUri",
          "type": "string"
        }
      ],
      "stateMutability": "view",
      "type": "function"
    },
    {
      "inputs": [],
      "name": "totalSupply",
      "outputs": [
        {
          "internalType": "uint256",
          "name": "",
          "type": "uint256"
        }
      ],
      "stateMutability": "view",
      "type": "function"
    },
    {
      "inputs": [
        {
          "internalType": "address",
          "name": "from",
          "type": "address"
        },
        {
          "internalType": "address",
          "name": "to",
          "type": "address"
        },
        {
          "internalType": "uint256",
          "name": "tokenId",
          "type": "uint256"
        }
      ],
      "name": "transferFrom",
      "outputs": [],
      "stateMutability": "pure",
      "type": "function"
    },
    {
      "inputs": [
        {
          "internalType": "address",
          "name": "account",
          "type": "address"
        },
        {
          "internalType": "string",
          "name": "countryCode",
          "type": "string"
        },
        {
          "internalType": "uint8",
          "name": "userType",
          "type": "uint8"
        },
        {
          "internalType": "uint8",
          "name": "level",
          "type": "uint8"
        },
        {
          "internalType": "uint256",
          "name": "expiry",
          "type": "uint256"
        },
        {
          "internalType": "string",
          "name": "tokenUri",
          "type": "string"
        }
      ],
      "name": "updateIdentity",
      "outputs": [],
      "stateMutability": "nonpayable",
      "type": "function"
    },
    {
      "inputs": [
        {
          "internalType": "address",
          "name": "account",
          "type": "address"
        },
        {
          "internalType": "string",
          "name": "tokenUri",
          "type": "string"
        }
      ],
      "name": "updateTokenURI",
      "outputs": [],
      "stateMutability": "nonpayable",
      "type": "function"
    },
    {
      "inputs": [
        {
          "internalType": "address",
          "name": "newImplementation",
          "type": "address"
        }
      ],
      "name": "upgradeTo",
      "outputs": [],
      "stateMutability": "nonpayable",
      "type": "function"
    },
    {
      "inputs": [
        {
          "internalType": "address",
          "name": "newImplementation",
          "type": "address"
        },
        {
          "internalType": "bytes",
          "name": "data",
          "type": "bytes"
        }
      ],
      "name": "upgradeToAndCall",
      "outputs": [],
      "stateMutability": "payable",
      "type": "function"
    }
  ],
  "bytecode": "0x60a06040523073ffffffffffffffffffffffffffffffffffffffff1660809073ffffffffffffffffffffffffffffffffffffffff1660601b8152503480156200004757600080fd5b506200006467d6acb33fdf8f4a0e60c01b620000b260201b60201c565b62000080672e1ac8ffce13240d60c01b620000b260201b60201c565b6200009c67b2c99be2320a46f060c01b620000b260201b60201c565b620000ac620000b560201b60201c565b62000260565b50565b60018054906101000a900460ff161562000106576040517f08c379a0000000000000000000000000000000000000000000000000000000008152600401620000fd90620001b4565b60405180910390fd5b60ff8016600160009054906101000a900460ff1660ff16146200017a5760ff600160006101000a81548160ff021916908360ff1602179055507f7f26b83ff96e1f2b6a682f133852f6798a09c465da95921460cefb384740249860ff604051620001719190620001d6565b60405180910390a15b565b60006200018b602783620001f3565b9150620001988262000211565b604082019050919050565b620001ae8162000204565b82525050565b60006020820190508181036000830152620001cf816200017c565b9050919050565b6000602082019050620001ed6000830184620001a3565b92915050565b600082825260208201905092915050565b600060ff82169050919050565b7f496e697469616c697a61626c653a20636f6e747261637420697320696e69746960008201527f616c697a696e6700000000000000000000000000000000000000000000000000602082015250565b60805160601c61694a6200029b60003960008181611058015281816110e70152818161187d0152818161190c01526119bc015261694a6000f3fe6080604052600436106102855760003560e01c806370a0823111610153578063b467177f116100cb578063d547741f1161007f578063e985e9c511610064578063e985e9c51461097a578063f5b541a6146109b7578063f6a4b4d7146109e257610285565b8063d547741f14610914578063dfb24b891461093d57610285565b8063c0c53b8b116100b0578063c0c53b8b14610871578063c207e9e01461089a578063c87b56dd146108d757610285565b8063b467177f1461080b578063b88d4fde1461084857610285565b8063949cdd6e1161012257806396257e4d1161010757806396257e4d1461077a578063a217fddf146107b7578063a22cb465146107e257610285565b8063949cdd6e1461071257806395d89b411461074f57610285565b806370a082311461064657806380a5a8961461068357806380ea719a146106ac57806391d14854146106d557610285565b80632f2ff15d116102015780634f1ef286116101b55780636352211e1161019a5780636352211e1461058b578063688ea9fe146105c85780636ca5fde81461060957610285565b80634f1ef2861461054457806352d1902d1461056057610285565b80633659cfe6116101e65780633659cfe6146104b557806340f378e5146104de57806342842e0e1461051b57610285565b80632f2ff15d1461046357806336568abe1461048c57610285565b8063095ea7b3116102585780631fe0094a1161023d5780631fe0094a146103c057806323b872dd146103fd578063248a9ca31461042657610285565b8063095ea7b31461036c57806318160ddd1461039557610285565b806301ffc9a71461028a57806306fdde03146102c7578063081812fc146102f257806309299ea31461032f575b600080fd5b34801561029657600080fd5b506102b160048036038101906102ac91906152ed565b610a0b565b6040516102be9190615a37565b60405180910390f35b3480156102d357600080fd5b506102dc610a59565b6040516102e99190615a88565b60405180910390f35b3480156102fe57600080fd5b506103196004803603810190610314919061533f565b610aeb565b604051610326919061598f565b60405180910390f35b34801561033b57600080fd5b5061035660048036038101906103519190614efa565b610b31565b6040516103639190615dc8565b60405180910390f35b34801561037857600080fd5b50610393600480360381019061038e9190615223565b610bb8565b005b3480156103a157600080fd5b506103aa610cd0565b6040516103b79190615dc8565b60405180910390f35b3480156103cc57600080fd5b506103e760048036038101906103e29190614efa565b610d1e565b6040516103f49190615e3d565b60405180910390f35b34801561040957600080fd5b50610424600480360381019061041f9190614fae565b610ee4565b005b34801561043257600080fd5b5061044d6004803603810190610448919061525f565b610f92565b60405161045a9190615a52565b60405180910390f35b34801561046f57600080fd5b5061048a600480360381019061048591906152b1565b610fb2565b005b34801561049857600080fd5b506104b360048036038101906104ae91906152b1565b610fd3565b005b3480156104c157600080fd5b506104dc60048036038101906104d79190614efa565b611056565b005b3480156104ea57600080fd5b5061050560048036038101906105009190615160565b611205565b6040516105129190615dc8565b60405180910390f35b34801561052757600080fd5b50610542600480360381019061053d9190614fae565b6117cd565b005b61055e600480360381019061055991906150b4565b61187b565b005b34801561056c57600080fd5b506105756119b8565b6040516105829190615a52565b60405180910390f35b34801561059757600080fd5b506105b260048036038101906105ad919061533f565b611a71565b6040516105bf919061598f565b60405180910390f35b3480156105d457600080fd5b506105ef60048036038101906105ea9190614efa565b611af8565b604051610600959493929190615de3565b60405180910390f35b34801561061557600080fd5b50610630600480360381019061062b9190614efa565b611bd0565b60405161063d9190615da6565b60405180910390f35b34801561065257600080fd5b5061066d60048036038101906106689190614efa565b611d44565b60405161067a9190615dc8565b60405180910390f35b34801561068f57600080fd5b506106aa60048036038101906106a59190615108565b611dfc565b005b3480156106b857600080fd5b506106d360048036038101906106ce9190615160565b611fa4565b005b3480156106e157600080fd5b506106fc60048036038101906106f791906152b1565b612335565b6040516107099190615a37565b60405180910390f35b34801561071e57600080fd5b5061073960048036038101906107349190614efa565b6123a0565b6040516107469190615e3d565b60405180910390f35b34801561075b57600080fd5b50610764612566565b6040516107719190615a88565b60405180910390f35b34801561078657600080fd5b506107a1600480360381019061079c9190614efa565b6125f8565b6040516107ae9190615a88565b60405180910390f35b3480156107c357600080fd5b506107cc612839565b6040516107d99190615a52565b60405180910390f35b3480156107ee57600080fd5b5061080960048036038101906108049190615078565b612840565b005b34801561081757600080fd5b50610832600480360381019061082d9190614efa565b612856565b60405161083f9190615e3d565b60405180910390f35b34801561085457600080fd5b5061086f600480360381019061086a9190614ffd565b6128ea565b005b34801561087d57600080fd5b5061089860048036038101906108939190614f5f565b61294c565b005b3480156108a657600080fd5b506108c160048036038101906108bc9190614efa565b612c9a565b6040516108ce9190615e3d565b60405180910390f35b3480156108e357600080fd5b506108fe60048036038101906108f9919061533f565b612d2e565b60405161090b9190615a88565b60405180910390f35b34801561092057600080fd5b5061093b600480360381019061093691906152b1565b612ee1565b005b34801561094957600080fd5b50610964600480360381019061095f9190614efa565b612f02565b6040516109719190615a88565b60405180910390f35b34801561098657600080fd5b506109a1600480360381019061099c9190614f23565b613011565b6040516109ae9190615a37565b60405180910390f35b3480156109c357600080fd5b506109cc6130a5565b6040516109d99190615a52565b60405180910390f35b3480156109ee57600080fd5b50610a096004803603810190610a049190615108565b6130c9565b005b6000610a2167bb394ff96495738360c01b613330565b610a356751deb66d5108742160c01b613330565b610a496740a84345ff486f4060c01b613330565b610a5282613333565b9050919050565b606060668054610a68906160d8565b80601f0160208091040260200160405190810160405280929190818152602001828054610a94906160d8565b8015610ae15780601f10610ab657610100808354040283529160200191610ae1565b820191906000526020600020905b815481529060010190602001808311610ac457829003601f168201915b5050505050905090565b6000610af6826133ad565b606a600083815260200190815260200160002060009054906101000a900473ffffffffffffffffffffffffffffffffffffffff169050919050565b6000610b4767c1c9ef872120ad4c60c01b6133f8565b610b5b6722a4df8a42ceaa6160c01b6133f8565b610b6f6794447c4bb948903360c01b6133f8565b6000808373ffffffffffffffffffffffffffffffffffffffff1673ffffffffffffffffffffffffffffffffffffffff168152602001908152602001600020600301549050919050565b6000610bc382611a71565b90508073ffffffffffffffffffffffffffffffffffffffff168373ffffffffffffffffffffffffffffffffffffffff161415610c34576040517f08c379a0000000000000000000000000000000000000000000000000000000008152600401610c2b90615cca565b60405180910390fd5b8073ffffffffffffffffffffffffffffffffffffffff16610c536133fb565b73ffffffffffffffffffffffffffffffffffffffff161480610c825750610c8181610c7c6133fb565b613011565b5b610cc1576040517f08c379a0000000000000000000000000000000000000000000000000000000008152600401610cb890615cea565b60405180910390fd5b610ccb8383613403565b505050565b6000610ce66750c948dfdb7f780c60c01b613330565b610cfa674a1cce405faff74560c01b613330565b610d0e67f5117f9257161bab60c01b613330565b610d1961012e6134bc565b905090565b6000610d3467a46d03d2c5d0aae460c01b6134ca565b610d486759e43ca1959c0a4e60c01b6134ca565b610d5c67c0882176d22f194460c01b6134ca565b6000808373ffffffffffffffffffffffffffffffffffffffff1673ffffffffffffffffffffffffffffffffffffffff168152602001908152602001600020600301544210610e5257610db86719c99830b5b4654060c01b6134ca565b610dcc6792805f3a7478451b60c01b6134ca565b610de06746c027269ffad2a760c01b6134ca565b6040518060400160405280600381526020017f31303300000000000000000000000000000000000000000000000000000000008152506040517f08c379a0000000000000000000000000000000000000000000000000000000008152600401610e499190615a88565b60405180910390fd5b610e6667c0f7dab06875d32960c01b6134ca565b610e7a67749dbadd8151278160c01b6134ca565b610e8e673e104cf77e5bc49f60c01b6134ca565b6000808373ffffffffffffffffffffffffffffffffffffffff1673ffffffffffffffffffffffffffffffffffffffff16815260200190815260200160002060020160009054906101000a900460ff169050919050565b610ef86762590d6add00706060c01b613330565b610f0c67082d46af2af6d0e960c01b613330565b610f206727c63058f90a821360c01b613330565b6040518060400160405280600381526020017f31303200000000000000000000000000000000000000000000000000000000008152506040517f08c379a0000000000000000000000000000000000000000000000000000000008152600401610f899190615a88565b60405180910390fd5b600060986000838152602001908152602001600020600101549050919050565b610fbb82610f92565b610fc4816134cd565b610fce83836134e1565b505050565b610fdb6133fb565b73ffffffffffffffffffffffffffffffffffffffff168173ffffffffffffffffffffffffffffffffffffffff1614611048576040517f08c379a000000000000000000000000000000000000000000000000000000000815260040161103f90615d86565b60405180910390fd5b61105282826135c2565b5050565b7f000000000000000000000000000000000000000000000000000000000000000073ffffffffffffffffffffffffffffffffffffffff163073ffffffffffffffffffffffffffffffffffffffff1614156110e5576040517f08c379a00000000000000000000000000000000000000000000000000000000081526004016110dc90615b4a565b60405180910390fd5b7f000000000000000000000000000000000000000000000000000000000000000073ffffffffffffffffffffffffffffffffffffffff166111246136a4565b73ffffffffffffffffffffffffffffffffffffffff161461117a576040517f08c379a000000000000000000000000000000000000000000000000000000000815260040161117190615baa565b60405180910390fd5b611183816136fb565b61120281600067ffffffffffffffff8111156111c8577f4e487b7100000000000000000000000000000000000000000000000000000000600052604160045260246000fd5b6040519080825280601f01601f1916602001820160405280156111fa5781602001600182028036833780820191505090505b506000613748565b50565b600061121b67d247ec739d89d59260c01b613330565b7f97667070c54ef182b0f5858b034beac1b6f3089aa2d3188bb1e8929f4fa9b929611245816134cd565b611259678174720fb9133cad60c01b613330565b61126d6733f80892f70f07c260c01b613330565b61128167751a1e09c7b26b9760c01b613330565b61129567f93752652b57fda160c01b613330565b6112a96761658d08f3aed9f960c01b613330565b60006112b48b611d44565b146040518060400160405280600381526020017f31303000000000000000000000000000000000000000000000000000000000008152509061132c576040517f08c379a00000000000000000000000000000000000000000000000000000000081526004016113239190615a88565b60405180910390fd5b5061134167ed3a0e877d7a61ba60c01b613330565b611355673c9e84b7efa50cce60c01b613330565b6113696782a506ecba8b3e3660c01b613330565b61137d6709758a2c9186cdc960c01b613330565b4285116040518060400160405280600381526020017f3130330000000000000000000000000000000000000000000000000000000000815250906113f7576040517f08c379a00000000000000000000000000000000000000000000000000000000081526004016113ee9190615a88565b60405180910390fd5b5061140c67eb47a0b425aa05fa60c01b613330565b61142067cea4da29c53476a760c01b613330565b61143467fb0eb89ec11ecc9a60c01b613330565b61143f61012e6138c5565b611453679bec0fbaf82459fe60c01b613330565b61146767b5e9978688c1f84060c01b613330565b600061147461012e6134bc565b905061148a67c972f5a40165ec3e60c01b613330565b6040518060a001604052808281526020018b8b8080601f016020809104026020016040519081016040528093929190818152602001838380828437600081840152601f19601f8201169050808301925050505050505081526020018960ff1681526020018860ff168152602001878152506000808d73ffffffffffffffffffffffffffffffffffffffff1673ffffffffffffffffffffffffffffffffffffffff16815260200190815260200160002060008201518160000155602082015181600101908051906020019061155f929190614c42565b5060408201518160020160006101000a81548160ff021916908360ff16021790555060608201518160020160016101000a81548160ff021916908360ff160217905550608082015181600301559050506115c367fc195f73a047bb4e60c01b613330565b6115d767e3169663323ecdc660c01b613330565b6115e18b826138db565b6115f567093fce267e58b39060c01b613330565b848461013160008481526020019081526020016000209190611618929190614cc8565b5061162d674b069043e127c18560c01b613330565b8061013060008d73ffffffffffffffffffffffffffffffffffffffff1673ffffffffffffffffffffffffffffffffffffffff1681526020019081526020016000208190555061168667243f9099585693e060c01b613330565b61169a677da896f8bf1cc3cf60c01b613330565b61012f60009054906101000a900473ffffffffffffffffffffffffffffffffffffffff1673ffffffffffffffffffffffffffffffffffffffff16632f7f0a128c6040518263ffffffff1660e01b81526004016116f691906159f6565b600060405180830381600087803b15801561171057600080fd5b505af1158015611724573d6000803e3d6000fd5b5050505061173c67cccd7a33d4b9fa1060c01b613330565b61175067d40c81e56e7696d860c01b613330565b808b73ffffffffffffffffffffffffffffffffffffffff167fae1b84af5e96bd9fa84e791c6b59125d1c17f73ef00e5a9d1fd8c0cc41e0489660405160405180910390a36117a867dc6f840eb155df4c60c01b613330565b6117bc67d146a42f7b963b6c60c01b613330565b809250505098975050505050505050565b6117e16754ffdbd468219e9660c01b613330565b6117f5677647c4bc02b8e54e60c01b613330565b61180967ae1d078a9d37a4b260c01b613330565b6040518060400160405280600381526020017f31303200000000000000000000000000000000000000000000000000000000008152506040517f08c379a00000000000000000000000000000000000000000000000000000000081526004016118729190615a88565b60405180910390fd5b7f000000000000000000000000000000000000000000000000000000000000000073ffffffffffffffffffffffffffffffffffffffff163073ffffffffffffffffffffffffffffffffffffffff16141561190a576040517f08c379a000000000000000000000000000000000000000000000000000000000815260040161190190615b4a565b60405180910390fd5b7f000000000000000000000000000000000000000000000000000000000000000073ffffffffffffffffffffffffffffffffffffffff166119496136a4565b73ffffffffffffffffffffffffffffffffffffffff161461199f576040517f08c379a000000000000000000000000000000000000000000000000000000000815260040161199690615baa565b60405180910390fd5b6119a8826136fb565b6119b482826001613748565b5050565b60007f000000000000000000000000000000000000000000000000000000000000000073ffffffffffffffffffffffffffffffffffffffff163073ffffffffffffffffffffffffffffffffffffffff1614611a48576040517f08c379a0000000000000000000000000000000000000000000000000000000008152600401611a3f90615bca565b60405180910390fd5b7f360894a13ba1a3210667c828492db98dca3e2076cc3735a920a3ca505d382bbc60001b905090565b600080611a7d836138f9565b9050600073ffffffffffffffffffffffffffffffffffffffff168173ffffffffffffffffffffffffffffffffffffffff161415611aef576040517f08c379a0000000000000000000000000000000000000000000000000000000008152600401611ae690615caa565b60405180910390fd5b80915050919050565b6000602052806000526040600020600091509050806000015490806001018054611b21906160d8565b80601f0160208091040260200160405190810160405280929190818152602001828054611b4d906160d8565b8015611b9a5780601f10611b6f57610100808354040283529160200191611b9a565b820191906000526020600020905b815481529060010190602001808311611b7d57829003601f168201915b5050505050908060020160009054906101000a900460ff16908060020160019054906101000a900460ff16908060030154905085565b611bd8614d4e565b611bec6702cf5f66176fa53960c01b6133f8565b611c0067b12611fe05def76260c01b6133f8565b611c14678420dd018e3ed1a260c01b6133f8565b6000808373ffffffffffffffffffffffffffffffffffffffff1673ffffffffffffffffffffffffffffffffffffffff1681526020019081526020016000206040518060a001604052908160008201548152602001600182018054611c77906160d8565b80601f0160208091040260200160405190810160405280929190818152602001828054611ca3906160d8565b8015611cf05780601f10611cc557610100808354040283529160200191611cf0565b820191906000526020600020905b815481529060010190602001808311611cd357829003601f168201915b505050505081526020016002820160009054906101000a900460ff1660ff1660ff1681526020016002820160019054906101000a900460ff1660ff1660ff1681526020016003820154815250509050919050565b60008073ffffffffffffffffffffffffffffffffffffffff168273ffffffffffffffffffffffffffffffffffffffff161415611db5576040517f08c379a0000000000000000000000000000000000000000000000000000000008152600401611dac90615bea565b60405180910390fd5b606960008373ffffffffffffffffffffffffffffffffffffffff1673ffffffffffffffffffffffffffffffffffffffff168152602001908152602001600020549050919050565b611e1067069e2836fffb185460c01b613330565b7f97667070c54ef182b0f5858b034beac1b6f3089aa2d3188bb1e8929f4fa9b929611e3a816134cd565b611e4e6777811ef25e75537260c01b613330565b611e6267332cd9e58174c79b60c01b613330565b611e7667f51dc90604f812b460c01b613330565b611e8a67c5acc4d33c6c9be560c01b613330565b61012f60009054906101000a900473ffffffffffffffffffffffffffffffffffffffff1673ffffffffffffffffffffffffffffffffffffffff166384b7a84a8560016040518363ffffffff1660e01b8152600401611ee9929190615d0a565b600060405180830381600087803b158015611f0357600080fd5b505af1158015611f17573d6000803e3d6000fd5b50505050611f2f676a18f9ca1823016a60c01b613330565b611f436789e3dfc1996b87a160c01b613330565b8282604051611f5392919061593c565b60405180910390208473ffffffffffffffffffffffffffffffffffffffff167f3347b0049117ab94fddf6cff81cc554c4f7489acedc7c33907a96655770e58ae60405160405180910390a350505050565b611fb867a9875fdf87ebc89160c01b613330565b7f97667070c54ef182b0f5858b034beac1b6f3089aa2d3188bb1e8929f4fa9b929611fe2816134cd565b611ff6675c96eba38735429460c01b613330565b61200a67cfbdbd14ea70c18960c01b613330565b61201e670e894815cb1587f660c01b613330565b61203267a1427b684ba1107960c01b613330565b6120466720bdcac9aa05193660c01b613330565b60016120518a611d44565b146040518060400160405280600381526020017f3130310000000000000000000000000000000000000000000000000000000000815250906120c9576040517f08c379a00000000000000000000000000000000000000000000000000000000081526004016120c09190615a88565b60405180910390fd5b506120de67ce81be1dc86cf1b960c01b613330565b6120f26758e6026e0c90f46d60c01b613330565b6121066737c927149839212660c01b613330565b60008060008b73ffffffffffffffffffffffffffffffffffffffff1673ffffffffffffffffffffffffffffffffffffffff16815260200190815260200160002060000154905061216067b7b2e8036abaf9fa60c01b613330565b6040518060a001604052808281526020018a8a8080601f016020809104026020016040519081016040528093929190818152602001838380828437600081840152601f19601f8201169050808301925050505050505081526020018860ff1681526020018760ff168152602001868152506000808c73ffffffffffffffffffffffffffffffffffffffff1673ffffffffffffffffffffffffffffffffffffffff168152602001908152602001600020600082015181600001556020820151816001019080519060200190612235929190614c42565b5060408201518160020160006101000a81548160ff021916908360ff16021790555060608201518160020160016101000a81548160ff021916908360ff1602179055506080820151816003015590505061229967d884d7a2e493b52d60c01b613330565b8383610131600084815260200190815260200160002091906122bc929190614cc8565b506122d16714ae4ff4824cc3cb60c01b613330565b6122e56741e97fe671d34fa960c01b613330565b808a73ffffffffffffffffffffffffffffffffffffffff167f4a1e31466f875c6fcafefabf90bce8accdf53108c4a309106058ef7aefebd5ce60405160405180910390a350505050505050505050565b60006098600084815260200190815260200160002060000160008373ffffffffffffffffffffffffffffffffffffffff1673ffffffffffffffffffffffffffffffffffffffff16815260200190815260200160002060009054906101000a900460ff16905092915050565b60006123b667312e0ffaf24bb87460c01b6134ca565b6123ca67c78863f958234bc560c01b6134ca565b6123de67c5c511546c50c45160c01b6134ca565b6000808373ffffffffffffffffffffffffffffffffffffffff1673ffffffffffffffffffffffffffffffffffffffff1681526020019081526020016000206003015442106124d45761243a6706dae439f14a554160c01b6134ca565b61244e67d9a43cd54b2554f860c01b6134ca565b61246267b80c4d30135ffecc60c01b6134ca565b6040518060400160405280600381526020017f31303300000000000000000000000000000000000000000000000000000000008152506040517f08c379a00000000000000000000000000000000000000000000000000000000081526004016124cb9190615a88565b60405180910390fd5b6124e867e7400f8588b3b9fd60c01b6134ca565b6124fc67218e4aadc28bad5460c01b6134ca565b6125106709e2c5a8a6db9e6460c01b6134ca565b6000808373ffffffffffffffffffffffffffffffffffffffff1673ffffffffffffffffffffffffffffffffffffffff16815260200190815260200160002060020160019054906101000a900460ff169050919050565b606060678054612575906160d8565b80601f01602080910402602001604051908101604052809291908181526020018280546125a1906160d8565b80156125ee5780601f106125c3576101008083540402835291602001916125ee565b820191906000526020600020905b8154815290600101906020018083116125d157829003601f168201915b5050505050905090565b606061260e67c5c834afaae4a7d160c01b6134ca565b61262267282dd2059d86991c60c01b6134ca565b61263667bc73e24e23818fec60c01b6134ca565b6000808373ffffffffffffffffffffffffffffffffffffffff1673ffffffffffffffffffffffffffffffffffffffff16815260200190815260200160002060030154421061272c57612692673afbff51046f6dc960c01b6134ca565b6126a667dc0c995e8c89436c60c01b6134ca565b6126ba67c8c8ce89cab65bb260c01b6134ca565b6040518060400160405280600381526020017f31303300000000000000000000000000000000000000000000000000000000008152506040517f08c379a00000000000000000000000000000000000000000000000000000000081526004016127239190615a88565b60405180910390fd5b612740678a8a08e8027046c760c01b6134ca565b6127546791c41a347ba64e9660c01b6134ca565b612768679881f450aa1ce9eb60c01b6134ca565b6000808373ffffffffffffffffffffffffffffffffffffffff1673ffffffffffffffffffffffffffffffffffffffff16815260200190815260200160002060010180546127b4906160d8565b80601f01602080910402602001604051908101604052809291908181526020018280546127e0906160d8565b801561282d5780601f106128025761010080835404028352916020019161282d565b820191906000526020600020905b81548152906001019060200180831161281057829003601f168201915b50505050509050919050565b6000801b81565b61285261284b6133fb565b8383613936565b5050565b600061286c673a22c2818bb20d1a60c01b613aa3565b61288067fbb2d96654b535de60c01b613aa3565b6128946739ec579a6c67c80e60c01b613aa3565b6000808373ffffffffffffffffffffffffffffffffffffffff1673ffffffffffffffffffffffffffffffffffffffff16815260200190815260200160002060020160009054906101000a900460ff169050919050565b6128fb6128f56133fb565b83613aa6565b61293a576040517f08c379a000000000000000000000000000000000000000000000000000000000815260040161293190615aca565b60405180910390fd5b61294684848484613b3b565b50505050565b61296067118ab74c598b328160c01b613330565b600060018054906101000a900460ff16159050808015612991575060018060009054906101000a900460ff1660ff16105b806129bf57506129a030613b97565b1580156129be575060018060009054906101000a900460ff1660ff16145b5b6129fe576040517f08c379a00000000000000000000000000000000000000000000000000000000081526004016129f590615c2a565b60405180910390fd5b60018060006101000a81548160ff021916908360ff1602179055508015612a3a5760018060016101000a81548160ff0219169083151502179055505b612a4e67af9f2601c833e34d60c01b613330565b612a6267c35260d3ca1195ec60c01b613330565b612a766726aa13abf7403bea60c01b613330565b612a8a674c082c8f4167302160c01b613330565b612a92613bba565b612aa6676e38d6c81f9cab4560c01b613330565b612aba67508b6bb5de8f3fbc60c01b613330565b612b2e6040518060400160405280601181526020017f50726f6f66206f66204964656e746974790000000000000000000000000000008152506040518060400160405280600581526020017f48312d4944000000000000000000000000000000000000000000000000000000815250613c09565b612b4267e9a8f8fb83dc431760c01b613330565b612b566767eb0c282638a7f860c01b613330565b612b5e613c64565b612b7267be8f3cc64b37fc8660c01b613330565b8361012f60006101000a81548173ffffffffffffffffffffffffffffffffffffffff021916908373ffffffffffffffffffffffffffffffffffffffff160217905550612bc867f395fc16c3fbe06660c01b613330565b612bdc679bbbaef6a682f66360c01b613330565b612be96000801b846134e1565b612bfd67ee7e50a6420af52a60c01b613330565b612c11670d909d8ca32fd99460c01b613330565b612c3b7f97667070c54ef182b0f5858b034beac1b6f3089aa2d3188bb1e8929f4fa9b929836134e1565b8015612c945760006001806101000a81548160ff0219169083151502179055507f7f26b83ff96e1f2b6a682f133852f6798a09c465da95921460cefb38474024986001604051612c8b9190615a6d565b60405180910390a15b50505050565b6000612cb06732c39d4afc3889c160c01b613aa3565b612cc467dae6db8ba31c013c60c01b613aa3565b612cd867b501f3a83b16752260c01b613aa3565b6000808373ffffffffffffffffffffffffffffffffffffffff1673ffffffffffffffffffffffffffffffffffffffff16815260200190815260200160002060020160019054906101000a900460ff169050919050565b6060612d4467aa04d3478398cf6f60c01b613330565b612d586724081be78105f81f60c01b613330565b612d6c67d676a7130c06d07e60c01b613330565b612d8067d9fa80327e35d49360c01b613330565b612d8982613cb3565b6040518060400160405280600381526020017f313031000000000000000000000000000000000000000000000000000000000081525090612e00576040517f08c379a0000000000000000000000000000000000000000000000000000000008152600401612df79190615a88565b60405180910390fd5b50612e15677d940d36bbca069960c01b613330565b612e29671db7405e319f6de060c01b613330565b612e3d6783497ce10971c48260c01b613330565b61013160008381526020019081526020016000208054612e5c906160d8565b80601f0160208091040260200160405190810160405280929190818152602001828054612e88906160d8565b8015612ed55780601f10612eaa57610100808354040283529160200191612ed5565b820191906000526020600020905b815481529060010190602001808311612eb857829003601f168201915b50505050509050919050565b612eea82610f92565b612ef3816134cd565b612efd83836135c2565b505050565b6060612f1867c0754c09f9d3a69e60c01b613aa3565b612f2c67d1e3fdb2292aa24960c01b613aa3565b612f40679561272df2bf34be60c01b613aa3565b6000808373ffffffffffffffffffffffffffffffffffffffff1673ffffffffffffffffffffffffffffffffffffffff1681526020019081526020016000206001018054612f8c906160d8565b80601f0160208091040260200160405190810160405280929190818152602001828054612fb8906160d8565b80156130055780601f10612fda57610100808354040283529160200191613005565b820191906000526020600020905b815481529060010190602001808311612fe857829003601f168201915b50505050509050919050565b6000606b60008473ffffffffffffffffffffffffffffffffffffffff1673ffffffffffffffffffffffffffffffffffffffff16815260200190815260200160002060008373ffffffffffffffffffffffffffffffffffffffff1673ffffffffffffffffffffffffffffffffffffffff16815260200190815260200160002060009054906101000a900460ff16905092915050565b7f97667070c54ef182b0f5858b034beac1b6f3089aa2d3188bb1e8929f4fa9b92981565b6130dd6756515b8972f832a360c01b613330565b7f97667070c54ef182b0f5858b034beac1b6f3089aa2d3188bb1e8929f4fa9b929613107816134cd565b61311b672f06f6831df9fe6e60c01b613330565b61312f6771f2625500517a1960c01b613330565b61314367ba0150cf54235b5b60c01b613330565b613157674ba6cb7dd2ddecb460c01b613330565b600061013060008673ffffffffffffffffffffffffffffffffffffffff1673ffffffffffffffffffffffffffffffffffffffff1681526020019081526020016000205490506131b0676b4efcc6cca0c3fd60c01b613330565b6131c467845d0b140a93c12560c01b613330565b6131d86773ee7804a611c94760c01b613330565b6131e181613cb3565b6040518060400160405280600381526020017f313031000000000000000000000000000000000000000000000000000000000081525090613258576040517f08c379a000000000000000000000000000000000000000000000000000000000815260040161324f9190615a88565b60405180910390fd5b5061326d674261c4441178f68f60c01b613330565b61328167147b0824d5c52d1e60c01b613330565b8383610131600084815260200190815260200160002091906132a4929190614cc8565b506132b967ac09fd51df6bbb5460c01b613330565b6132cd679dac79938abcf8d060c01b613330565b83836040516132dd92919061593c565b6040518091039020818673ffffffffffffffffffffffffffffffffffffffff167fe3a3e1a0be0d562dd7ec739509d30dfbca7cd174fbc576a45746fe1f3b277c2660405160405180910390a45050505050565b50565b60007f7965db0b000000000000000000000000000000000000000000000000000000007bffffffffffffffffffffffffffffffffffffffffffffffffffffffff1916827bffffffffffffffffffffffffffffffffffffffffffffffffffffffff191614806133a657506133a582613cf4565b5b9050919050565b6133b681613cb3565b6133f5576040517f08c379a00000000000000000000000000000000000000000000000000000000081526004016133ec90615caa565b60405180910390fd5b50565b50565b600033905090565b81606a600083815260200190815260200160002060006101000a81548173ffffffffffffffffffffffffffffffffffffffff021916908373ffffffffffffffffffffffffffffffffffffffff160217905550808273ffffffffffffffffffffffffffffffffffffffff1661347683611a71565b73ffffffffffffffffffffffffffffffffffffffff167f8c5be1e5ebec7d5bd14f71427d1e84f3dd0314c0f7b2291e5b200ac8c7c3b92560405160405180910390a45050565b600081600001549050919050565b50565b6134de816134d96133fb565b613dd6565b50565b6134eb8282612335565b6135be5760016098600084815260200190815260200160002060000160008373ffffffffffffffffffffffffffffffffffffffff1673ffffffffffffffffffffffffffffffffffffffff16815260200190815260200160002060006101000a81548160ff0219169083151502179055506135636133fb565b73ffffffffffffffffffffffffffffffffffffffff168173ffffffffffffffffffffffffffffffffffffffff16837f2f8788117e7eff1d82e926ec794901d17c78024a50270940304540a733656f0d60405160405180910390a45b5050565b6135cc8282612335565b156136a05760006098600084815260200190815260200160002060000160008373ffffffffffffffffffffffffffffffffffffffff1673ffffffffffffffffffffffffffffffffffffffff16815260200190815260200160002060006101000a81548160ff0219169083151502179055506136456133fb565b73ffffffffffffffffffffffffffffffffffffffff168173ffffffffffffffffffffffffffffffffffffffff16837ff6391f5c32d9c69d2a47ea670b442974b53935d1edc7fd64eb21e047a839171b60405160405180910390a45b5050565b60006136d27f360894a13ba1a3210667c828492db98dca3e2076cc3735a920a3ca505d382bbc60001b613e5b565b60000160009054906101000a900473ffffffffffffffffffffffffffffffffffffffff16905090565b61370f671f0efb767fdfce7760c01b613330565b6000801b61371c816134cd565b613730678254ff6239d8b78d60c01b613330565b613744677ab62c3941758f0660c01b613330565b5050565b6137747f4910fdfa16fed3260ed0e7147f7cc6da11a60208b5b9406d12a635614ffd914360001b613e65565b60000160009054906101000a900460ff16156137985761379383613e6f565b6138c0565b8273ffffffffffffffffffffffffffffffffffffffff166352d1902d6040518163ffffffff1660e01b815260040160206040518083038186803b1580156137de57600080fd5b505afa92505050801561380f57506040513d601f19601f8201168201806040525081019061380c9190615288565b60015b61384e576040517f08c379a000000000000000000000000000000000000000000000000000000000815260040161384590615c6a565b60405180910390fd5b7f360894a13ba1a3210667c828492db98dca3e2076cc3735a920a3ca505d382bbc60001b81146138b3576040517f08c379a00000000000000000000000000000000000000000000000000000000081526004016138aa90615c0a565b60405180910390fd5b506138bf838383613f28565b5b505050565b6001816000016000828254019250508190555050565b6138f5828260405180602001604052806000815250613f54565b5050565b60006068600083815260200190815260200160002060009054906101000a900473ffffffffffffffffffffffffffffffffffffffff169050919050565b8173ffffffffffffffffffffffffffffffffffffffff168373ffffffffffffffffffffffffffffffffffffffff1614156139a5576040517f08c379a000000000000000000000000000000000000000000000000000000000815260040161399c90615b8a565b60405180910390fd5b80606b60008573ffffffffffffffffffffffffffffffffffffffff1673ffffffffffffffffffffffffffffffffffffffff16815260200190815260200160002060008473ffffffffffffffffffffffffffffffffffffffff1673ffffffffffffffffffffffffffffffffffffffff16815260200190815260200160002060006101000a81548160ff0219169083151502179055508173ffffffffffffffffffffffffffffffffffffffff168373ffffffffffffffffffffffffffffffffffffffff167f17307eab39ab6107e8899845ad3d59bd9653f200f220920489ca2b5937696c3183604051613a969190615a37565b60405180910390a3505050565b50565b600080613ab283611a71565b90508073ffffffffffffffffffffffffffffffffffffffff168473ffffffffffffffffffffffffffffffffffffffff161480613af45750613af38185613011565b5b80613b3257508373ffffffffffffffffffffffffffffffffffffffff16613b1a84610aeb565b73ffffffffffffffffffffffffffffffffffffffff16145b91505092915050565b613b46848484613faf565b613b52848484846142a9565b613b91576040517f08c379a0000000000000000000000000000000000000000000000000000000008152600401613b8890615aea565b60405180910390fd5b50505050565b6000808273ffffffffffffffffffffffffffffffffffffffff163b119050919050565b60018054906101000a900460ff16613c07576040517f08c379a0000000000000000000000000000000000000000000000000000000008152600401613bfe90615d66565b60405180910390fd5b565b60018054906101000a900460ff16613c56576040517f08c379a0000000000000000000000000000000000000000000000000000000008152600401613c4d90615d66565b60405180910390fd5b613c608282614440565b5050565b60018054906101000a900460ff16613cb1576040517f08c379a0000000000000000000000000000000000000000000000000000000008152600401613ca890615d66565b60405180910390fd5b565b60008073ffffffffffffffffffffffffffffffffffffffff16613cd5836138f9565b73ffffffffffffffffffffffffffffffffffffffff1614159050919050565b60007f80ac58cd000000000000000000000000000000000000000000000000000000007bffffffffffffffffffffffffffffffffffffffffffffffffffffffff1916827bffffffffffffffffffffffffffffffffffffffffffffffffffffffff19161480613dbf57507f5b5e139f000000000000000000000000000000000000000000000000000000007bffffffffffffffffffffffffffffffffffffffffffffffffffffffff1916827bffffffffffffffffffffffffffffffffffffffffffffffffffffffff1916145b80613dcf5750613dce826144bf565b5b9050919050565b613de08282612335565b613e5757613ded81614529565b613dfb8360001c6020614556565b604051602001613e0c929190615955565b6040516020818303038152906040526040517f08c379a0000000000000000000000000000000000000000000000000000000008152600401613e4e9190615a88565b60405180910390fd5b5050565b6000819050919050565b6000819050919050565b613e7881613b97565b613eb7576040517f08c379a0000000000000000000000000000000000000000000000000000000008152600401613eae90615c8a565b60405180910390fd5b80613ee47f360894a13ba1a3210667c828492db98dca3e2076cc3735a920a3ca505d382bbc60001b613e5b565b60000160006101000a81548173ffffffffffffffffffffffffffffffffffffffff021916908373ffffffffffffffffffffffffffffffffffffffff16021790555050565b613f3183614850565b600082511180613f3e5750805b15613f4f57613f4d838361489f565b505b505050565b613f5e83836148cc565b613f6b60008484846142a9565b613faa576040517f08c379a0000000000000000000000000000000000000000000000000000000008152600401613fa190615aea565b60405180910390fd5b505050565b8273ffffffffffffffffffffffffffffffffffffffff16613fcf82611a71565b73ffffffffffffffffffffffffffffffffffffffff1614614025576040517f08c379a000000000000000000000000000000000000000000000000000000000815260040161401c90615b0a565b60405180910390fd5b600073ffffffffffffffffffffffffffffffffffffffff168273ffffffffffffffffffffffffffffffffffffffff161415614095576040517f08c379a000000000000000000000000000000000000000000000000000000000815260040161408c90615b6a565b60405180910390fd5b6140a28383836001614aea565b8273ffffffffffffffffffffffffffffffffffffffff166140c282611a71565b73ffffffffffffffffffffffffffffffffffffffff1614614118576040517f08c379a000000000000000000000000000000000000000000000000000000000815260040161410f90615b0a565b60405180910390fd5b606a600082815260200190815260200160002060006101000a81549073ffffffffffffffffffffffffffffffffffffffff02191690556001606960008573ffffffffffffffffffffffffffffffffffffffff1673ffffffffffffffffffffffffffffffffffffffff168152602001908152602001600020600082825403925050819055506001606960008473ffffffffffffffffffffffffffffffffffffffff1673ffffffffffffffffffffffffffffffffffffffff16815260200190815260200160002060008282540192505081905550816068600083815260200190815260200160002060006101000a81548173ffffffffffffffffffffffffffffffffffffffff021916908373ffffffffffffffffffffffffffffffffffffffff160217905550808273ffffffffffffffffffffffffffffffffffffffff168473ffffffffffffffffffffffffffffffffffffffff167fddf252ad1be2c89b69c2b068fc378daa952ba7f163c4a11628f55a4df523b3ef60405160405180910390a46142a48383836001614af0565b505050565b60006142ca8473ffffffffffffffffffffffffffffffffffffffff16613b97565b15614433578373ffffffffffffffffffffffffffffffffffffffff1663150b7a026142f36133fb565b8786866040518563ffffffff1660e01b815260040161431594939291906159aa565b602060405180830381600087803b15801561432f57600080fd5b505af192505050801561436057506040513d601f19601f8201168201806040525081019061435d9190615316565b60015b6143e3573d8060008114614390576040519150601f19603f3d011682016040523d82523d6000602084013e614395565b606091505b506000815114156143db576040517f08c379a00000000000000000000000000000000000000000000000000000000081526004016143d290615aea565b60405180910390fd5b805181602001fd5b63150b7a0260e01b7bffffffffffffffffffffffffffffffffffffffffffffffffffffffff1916817bffffffffffffffffffffffffffffffffffffffffffffffffffffffff191614915050614438565b600190505b949350505050565b60018054906101000a900460ff1661448d576040517f08c379a000000000000000000000000000000000000000000000000000000000815260040161448490615d66565b60405180910390fd5b81606690805190602001906144a3929190614c42565b5080606790805190602001906144ba929190614c42565b505050565b60007f01ffc9a7000000000000000000000000000000000000000000000000000000007bffffffffffffffffffffffffffffffffffffffffffffffffffffffff1916827bffffffffffffffffffffffffffffffffffffffffffffffffffffffff1916149050919050565b606061454f8273ffffffffffffffffffffffffffffffffffffffff16601460ff16614556565b9050919050565b6060600060028360026145699190615f63565b6145739190615f0d565b67ffffffffffffffff8111156145b2577f4e487b7100000000000000000000000000000000000000000000000000000000600052604160045260246000fd5b6040519080825280601f01601f1916602001820160405280156145e45781602001600182028036833780820191505090505b5090507f300000000000000000000000000000000000000000000000000000000000000081600081518110614642577f4e487b7100000000000000000000000000000000000000000000000000000000600052603260045260246000fd5b60200101907effffffffffffffffffffffffffffffffffffffffffffffffffffffffffffff1916908160001a9053507f7800000000000000000000000000000000000000000000000000000000000000816001815181106146cc577f4e487b7100000000000000000000000000000000000000000000000000000000600052603260045260246000fd5b60200101907effffffffffffffffffffffffffffffffffffffffffffffffffffffffffffff1916908160001a9053506000600184600261470c9190615f63565b6147169190615f0d565b90505b6001811115614802577f3031323334353637383961626364656600000000000000000000000000000000600f86166010811061477e577f4e487b7100000000000000000000000000000000000000000000000000000000600052603260045260246000fd5b1a60f81b8282815181106147bb577f4e487b7100000000000000000000000000000000000000000000000000000000600052603260045260246000fd5b60200101907effffffffffffffffffffffffffffffffffffffffffffffffffffffffffffff1916908160001a905350600485901c9450806147fb906160ae565b9050614719565b5060008414614846576040517f08c379a000000000000000000000000000000000000000000000000000000000815260040161483d90615aaa565b60405180910390fd5b8091505092915050565b61485981613e6f565b8073ffffffffffffffffffffffffffffffffffffffff167fbc7cd75a20ee27fd9adebab32041f755214dbc6bffa90cc0225b39da2e5c2d3b60405160405180910390a250565b60606148c483836040518060600160405280602781526020016168ee60279139614af6565b905092915050565b600073ffffffffffffffffffffffffffffffffffffffff168273ffffffffffffffffffffffffffffffffffffffff16141561493c576040517f08c379a000000000000000000000000000000000000000000000000000000000815260040161493390615c4a565b60405180910390fd5b61494581613cb3565b15614985576040517f08c379a000000000000000000000000000000000000000000000000000000000815260040161497c90615b2a565b60405180910390fd5b614993600083836001614aea565b61499c81613cb3565b156149dc576040517f08c379a00000000000000000000000000000000000000000000000000000000081526004016149d390615b2a565b60405180910390fd5b6001606960008473ffffffffffffffffffffffffffffffffffffffff1673ffffffffffffffffffffffffffffffffffffffff16815260200190815260200160002060008282540192505081905550816068600083815260200190815260200160002060006101000a81548173ffffffffffffffffffffffffffffffffffffffff021916908373ffffffffffffffffffffffffffffffffffffffff160217905550808273ffffffffffffffffffffffffffffffffffffffff16600073ffffffffffffffffffffffffffffffffffffffff167fddf252ad1be2c89b69c2b068fc378daa952ba7f163c4a11628f55a4df523b3ef60405160405180910390a4614ae6600083836001614af0565b5050565b50505050565b50505050565b60606000808573ffffffffffffffffffffffffffffffffffffffff1685604051614b209190615925565b600060405180830381855af49150503d8060008114614b5b576040519150601f19603f3d011682016040523d82523d6000602084013e614b60565b606091505b5091509150614b7186838387614b7c565b925050509392505050565b60608315614bdf57600083511415614bd757614b9785613b97565b614bd6576040517f08c379a0000000000000000000000000000000000000000000000000000000008152600401614bcd90615d46565b60405180910390fd5b5b829050614bea565b614be98383614bf2565b5b949350505050565b600082511115614c055781518083602001fd5b806040517f08c379a0000000000000000000000000000000000000000000000000000000008152600401614c399190615a88565b60405180910390fd5b828054614c4e906160d8565b90600052602060002090601f016020900481019282614c705760008555614cb7565b82601f10614c8957805160ff1916838001178555614cb7565b82800160010185558215614cb7579182015b82811115614cb6578251825591602001919060010190614c9b565b5b509050614cc49190614d83565b5090565b828054614cd4906160d8565b90600052602060002090601f016020900481019282614cf65760008555614d3d565b82601f10614d0f57803560ff1916838001178555614d3d565b82800160010185558215614d3d579182015b82811115614d3c578235825591602001919060010190614d21565b5b509050614d4a9190614d83565b5090565b6040518060a001604052806000815260200160608152602001600060ff168152602001600060ff168152602001600081525090565b5b80821115614d9c576000816000905550600101614d84565b5090565b6000614db3614dae84615e7d565b615e58565b905082815260208101848484011115614dcb57600080fd5b614dd684828561606c565b509392505050565b600081359050614ded81616863565b92915050565b600081359050614e028161687a565b92915050565b600081359050614e1781616891565b92915050565b600081519050614e2c81616891565b92915050565b600081359050614e41816168a8565b92915050565b600081519050614e56816168a8565b92915050565b600082601f830112614e6d57600080fd5b8135614e7d848260208601614da0565b91505092915050565b60008083601f840112614e9857600080fd5b8235905067ffffffffffffffff811115614eb157600080fd5b602083019150836001820283011115614ec957600080fd5b9250929050565b600081359050614edf816168bf565b92915050565b600081359050614ef4816168d6565b92915050565b600060208284031215614f0c57600080fd5b6000614f1a84828501614dde565b91505092915050565b60008060408385031215614f3657600080fd5b6000614f4485828601614dde565b9250506020614f5585828601614dde565b9150509250929050565b600080600060608486031215614f7457600080fd5b6000614f8286828701614dde565b9350506020614f9386828701614dde565b9250506040614fa486828701614dde565b9150509250925092565b600080600060608486031215614fc357600080fd5b6000614fd186828701614dde565b9350506020614fe286828701614dde565b9250506040614ff386828701614ed0565b9150509250925092565b6000806000806080858703121561501357600080fd5b600061502187828801614dde565b945050602061503287828801614dde565b935050604061504387828801614ed0565b925050606085013567ffffffffffffffff81111561506057600080fd5b61506c87828801614e5c565b91505092959194509250565b6000806040838503121561508b57600080fd5b600061509985828601614dde565b92505060206150aa85828601614df3565b9150509250929050565b600080604083850312156150c757600080fd5b60006150d585828601614dde565b925050602083013567ffffffffffffffff8111156150f257600080fd5b6150fe85828601614e5c565b9150509250929050565b60008060006040848603121561511d57600080fd5b600061512b86828701614dde565b935050602084013567ffffffffffffffff81111561514857600080fd5b61515486828701614e86565b92509250509250925092565b60008060008060008060008060c0898b03121561517c57600080fd5b600061518a8b828c01614dde565b985050602089013567ffffffffffffffff8111156151a757600080fd5b6151b38b828c01614e86565b975097505060406151c68b828c01614ee5565b95505060606151d78b828c01614ee5565b94505060806151e88b828c01614ed0565b93505060a089013567ffffffffffffffff81111561520557600080fd5b6152118b828c01614e86565b92509250509295985092959890939650565b6000806040838503121561523657600080fd5b600061524485828601614dde565b925050602061525585828601614ed0565b9150509250929050565b60006020828403121561527157600080fd5b600061527f84828501614e08565b91505092915050565b60006020828403121561529a57600080fd5b60006152a884828501614e1d565b91505092915050565b600080604083850312156152c457600080fd5b60006152d285828601614e08565b92505060206152e385828601614dde565b9150509250929050565b6000602082840312156152ff57600080fd5b600061530d84828501614e32565b91505092915050565b60006020828403121561532857600080fd5b600061533684828501614e47565b91505092915050565b60006020828403121561535157600080fd5b600061535f84828501614ed0565b91505092915050565b61537181615fbd565b82525050565b61538081615fcf565b82525050565b61538f81615fdb565b82525050565b60006153a082615eae565b6153aa8185615ec4565b93506153ba81856020860161607b565b6153c3816161c8565b840191505092915050565b60006153d982615eae565b6153e38185615ed5565b93506153f381856020860161607b565b80840191505092915050565b61540881616048565b82525050565b6154178161605a565b82525050565b60006154298385615f02565b935061543683858461606c565b82840190509392505050565b600061544d82615eb9565b6154578185615ee0565b935061546781856020860161607b565b615470816161c8565b840191505092915050565b600061548682615eb9565b6154908185615ef1565b93506154a081856020860161607b565b6154a9816161c8565b840191505092915050565b60006154bf82615eb9565b6154c98185615f02565b93506154d981856020860161607b565b80840191505092915050565b60006154f2602083615ef1565b91506154fd826161d9565b602082019050919050565b6000615515600683615ef1565b915061552082616202565b602082019050919050565b6000615538602d83615ef1565b91506155438261622b565b604082019050919050565b600061555b603283615ef1565b91506155668261627a565b604082019050919050565b600061557e602583615ef1565b9150615589826162c9565b604082019050919050565b60006155a1601c83615ef1565b91506155ac82616318565b602082019050919050565b60006155c4602c83615ef1565b91506155cf82616341565b604082019050919050565b60006155e7602483615ef1565b91506155f282616390565b604082019050919050565b600061560a601983615ef1565b9150615615826163df565b602082019050919050565b600061562d602c83615ef1565b915061563882616408565b604082019050919050565b6000615650603883615ef1565b915061565b82616457565b604082019050919050565b6000615673602983615ef1565b915061567e826164a6565b604082019050919050565b6000615696602983615ef1565b91506156a1826164f5565b604082019050919050565b60006156b9602e83615ef1565b91506156c482616544565b604082019050919050565b60006156dc602083615ef1565b91506156e782616593565b602082019050919050565b60006156ff602e83615ef1565b915061570a826165bc565b604082019050919050565b6000615722602d83615ef1565b915061572d8261660b565b604082019050919050565b6000615745601883615ef1565b91506157508261665a565b602082019050919050565b6000615768602183615ef1565b915061577382616683565b604082019050919050565b600061578b603d83615ef1565b9150615796826166d2565b604082019050919050565b60006157ae600683615ef1565b91506157b982616721565b602082019050919050565b60006157d1601d83615ef1565b91506157dc8261674a565b602082019050919050565b60006157f4602b83615ef1565b91506157ff82616773565b604082019050919050565b6000615817601783615f02565b9150615822826167c2565b601782019050919050565b600061583a601183615f02565b9150615845826167eb565b601182019050919050565b600061585d602f83615ef1565b915061586882616814565b604082019050919050565b600060a08301600083015161588b60008601826158e9565b50602083015184820360208601526158a38282615442565b91505060408301516158b86040860182615907565b5060608301516158cb6060860182615907565b5060808301516158de60808601826158e9565b508091505092915050565b6158f281616031565b82525050565b61590181616031565b82525050565b6159108161603b565b82525050565b61591f8161603b565b82525050565b600061593182846153ce565b915081905092915050565b600061594982848661541d565b91508190509392505050565b60006159608261580a565b915061596c82856154b4565b91506159778261582d565b915061598382846154b4565b91508190509392505050565b60006020820190506159a46000830184615368565b92915050565b60006080820190506159bf6000830187615368565b6159cc6020830186615368565b6159d960408301856158f8565b81810360608301526159eb8184615395565b905095945050505050565b6000606082019050615a0b6000830184615368565b8181036020830152615a1c816157a1565b90508181036040830152615a2f81615508565b905092915050565b6000602082019050615a4c6000830184615377565b92915050565b6000602082019050615a676000830184615386565b92915050565b6000602082019050615a82600083018461540e565b92915050565b60006020820190508181036000830152615aa2818461547b565b905092915050565b60006020820190508181036000830152615ac3816154e5565b9050919050565b60006020820190508181036000830152615ae38161552b565b9050919050565b60006020820190508181036000830152615b038161554e565b9050919050565b60006020820190508181036000830152615b2381615571565b9050919050565b60006020820190508181036000830152615b4381615594565b9050919050565b60006020820190508181036000830152615b63816155b7565b9050919050565b60006020820190508181036000830152615b83816155da565b9050919050565b60006020820190508181036000830152615ba3816155fd565b9050919050565b60006020820190508181036000830152615bc381615620565b9050919050565b60006020820190508181036000830152615be381615643565b9050919050565b60006020820190508181036000830152615c0381615666565b9050919050565b60006020820190508181036000830152615c2381615689565b9050919050565b60006020820190508181036000830152615c43816156ac565b9050919050565b60006020820190508181036000830152615c63816156cf565b9050919050565b60006020820190508181036000830152615c83816156f2565b9050919050565b60006020820190508181036000830152615ca381615715565b9050919050565b60006020820190508181036000830152615cc381615738565b9050919050565b60006020820190508181036000830152615ce38161575b565b9050919050565b60006020820190508181036000830152615d038161577e565b9050919050565b60006060820190508181036000830152615d23816157a1565b9050615d326020830185615368565b615d3f60408301846153ff565b9392505050565b60006020820190508181036000830152615d5f816157c4565b9050919050565b60006020820190508181036000830152615d7f816157e7565b9050919050565b60006020820190508181036000830152615d9f81615850565b9050919050565b60006020820190508181036000830152615dc08184615873565b905092915050565b6000602082019050615ddd60008301846158f8565b92915050565b600060a082019050615df860008301886158f8565b8181036020830152615e0a818761547b565b9050615e196040830186615916565b615e266060830185615916565b615e3360808301846158f8565b9695505050505050565b6000602082019050615e526000830184615916565b92915050565b6000615e62615e73565b9050615e6e828261610a565b919050565b6000604051905090565b600067ffffffffffffffff821115615e9857615e97616199565b5b615ea1826161c8565b9050602081019050919050565b600081519050919050565b600081519050919050565b600082825260208201905092915050565b600081905092915050565b600082825260208201905092915050565b600082825260208201905092915050565b600081905092915050565b6000615f1882616031565b9150615f2383616031565b9250827fffffffffffffffffffffffffffffffffffffffffffffffffffffffffffffffff03821115615f5857615f5761613b565b5b828201905092915050565b6000615f6e82616031565b9150615f7983616031565b9250817fffffffffffffffffffffffffffffffffffffffffffffffffffffffffffffffff0483118215151615615fb257615fb161613b565b5b828202905092915050565b6000615fc882616011565b9050919050565b60008115159050919050565b6000819050919050565b60007fffffffff0000000000000000000000000000000000000000000000000000000082169050919050565b600073ffffffffffffffffffffffffffffffffffffffff82169050919050565b6000819050919050565b600060ff82169050919050565b600061605382616031565b9050919050565b60006160658261603b565b9050919050565b82818337600083830152505050565b60005b8381101561609957808201518184015260208101905061607e565b838111156160a8576000848401525b50505050565b60006160b982616031565b915060008214156160cd576160cc61613b565b5b600182039050919050565b600060028204905060018216806160f057607f821691505b602082108114156161045761610361616a565b5b50919050565b616113826161c8565b810181811067ffffffffffffffff8211171561613257616131616199565b5b80604052505050565b7f4e487b7100000000000000000000000000000000000000000000000000000000600052601160045260246000fd5b7f4e487b7100000000000000000000000000000000000000000000000000000000600052602260045260246000fd5b7f4e487b7100000000000000000000000000000000000000000000000000000000600052604160045260246000fd5b6000601f19601f8301169050919050565b7f537472696e67733a20686578206c656e67746820696e73756666696369656e74600082015250565b7f565443414c4c0000000000000000000000000000000000000000000000000000600082015250565b7f4552433732313a2063616c6c6572206973206e6f7420746f6b656e206f776e6560008201527f72206f7220617070726f76656400000000000000000000000000000000000000602082015250565b7f4552433732313a207472616e7366657220746f206e6f6e20455243373231526560008201527f63656976657220696d706c656d656e7465720000000000000000000000000000602082015250565b7f4552433732313a207472616e736665722066726f6d20696e636f72726563742060008201527f6f776e6572000000000000000000000000000000000000000000000000000000602082015250565b7f4552433732313a20746f6b656e20616c7265616479206d696e74656400000000600082015250565b7f46756e6374696f6e206d7573742062652063616c6c6564207468726f7567682060008201527f64656c656761746563616c6c0000000000000000000000000000000000000000602082015250565b7f4552433732313a207472616e7366657220746f20746865207a65726f2061646460008201527f7265737300000000000000000000000000000000000000000000000000000000602082015250565b7f4552433732313a20617070726f766520746f2063616c6c657200000000000000600082015250565b7f46756e6374696f6e206d7573742062652063616c6c6564207468726f7567682060008201527f6163746976652070726f78790000000000000000000000000000000000000000602082015250565b7f555550535570677261646561626c653a206d757374206e6f742062652063616c60008201527f6c6564207468726f7567682064656c656761746563616c6c0000000000000000602082015250565b7f4552433732313a2061646472657373207a65726f206973206e6f74206120766160008201527f6c6964206f776e65720000000000000000000000000000000000000000000000602082015250565b7f45524331393637557067726164653a20756e737570706f727465642070726f7860008201527f6961626c65555549440000000000000000000000000000000000000000000000602082015250565b7f496e697469616c697a61626c653a20636f6e747261637420697320616c72656160008201527f647920696e697469616c697a6564000000000000000000000000000000000000602082015250565b7f4552433732313a206d696e7420746f20746865207a65726f2061646472657373600082015250565b7f45524331393637557067726164653a206e657720696d706c656d656e7461746960008201527f6f6e206973206e6f742055555053000000000000000000000000000000000000602082015250565b7f455243313936373a206e657720696d706c656d656e746174696f6e206973206e60008201527f6f74206120636f6e747261637400000000000000000000000000000000000000602082015250565b7f4552433732313a20696e76616c696420746f6b656e2049440000000000000000600082015250565b7f4552433732313a20617070726f76616c20746f2063757272656e74206f776e6560008201527f7200000000000000000000000000000000000000000000000000000000000000602082015250565b7f4552433732313a20617070726f76652063616c6c6572206973206e6f7420746f60008201527f6b656e206f776e6572206f7220617070726f76656420666f7220616c6c000000602082015250565b7f484156454e310000000000000000000000000000000000000000000000000000600082015250565b7f416464726573733a2063616c6c20746f206e6f6e2d636f6e7472616374000000600082015250565b7f496e697469616c697a61626c653a20636f6e7472616374206973206e6f74206960008201527f6e697469616c697a696e67000000000000000000000000000000000000000000602082015250565b7f416363657373436f6e74726f6c3a206163636f756e7420000000000000000000600082015250565b7f206973206d697373696e6720726f6c6520000000000000000000000000000000600082015250565b7f416363657373436f6e74726f6c3a2063616e206f6e6c792072656e6f756e636560008201527f20726f6c657320666f722073656c660000000000000000000000000000000000602082015250565b61686c81615fbd565b811461687757600080fd5b50565b61688381615fcf565b811461688e57600080fd5b50565b61689a81615fdb565b81146168a557600080fd5b50565b6168b181615fe5565b81146168bc57600080fd5b50565b6168c881616031565b81146168d357600080fd5b50565b6168df8161603b565b81146168ea57600080fd5b5056fe416464726573733a206c6f772d6c6576656c2064656c65676174652063616c6c206661696c6564a2646970667358221220d011a1f246f2c042b31137a93d6cd8464b4ebe0c5bfc84ed5c92266ed0d57e7064736f6c63430008020033",
  "linkReferences": {},
  "deployedLinkReferences": {}
}