{
  "_format": "hh-sol-artifact-1",
  "contractName": "H1NativeApplication",
  "sourceName": "contracts/H1NativeApplication.sol",
  "abi": [
    {
      "inputs": [
        {
          "internalType": "address",
          "name": "_FeeContract",
          "type": "address"
        }
      ],
      "stateMutability": "nonpayable",
      "type": "constructor"
    },
    {
      "inputs": [],
      "name": "FeeQueryNative",
      "outputs": [
        {
          "internalType": "contract FeeQuery",
          "name": "",
          "type": "address"
        }
      ],
      "stateMutability": "view",
      "type": "function"
    },
    {
      "inputs": [],
      "name": "callFee",
      "outputs": [
        {
          "internalType": "uint256",
          "name": "",
          "type": "uint256"
        }
      ],
      "stateMutability": "view",
      "type": "function"
    },
    {
      "inputs": [],
      "name": "epochLength",
      "outputs": [
        {
          "internalType": "uint256",
          "name": "",
          "type": "uint256"
        }
      ],
      "stateMutability": "view",
      "type": "function"
    },
    {
      "inputs": [],
      "name": "fee",
      "outputs": [
        {
          "internalType": "uint256",
          "name": "",
          "type": "uint256"
        }
      ],
      "stateMutability": "view",
      "type": "function"
    },
    {
      "inputs": [],
      "name": "getFee",
      "outputs": [
        {
          "internalType": "uint256",
          "name": "",
          "type": "uint256"
        }
      ],
      "stateMutability": "view",
      "type": "function"
    },
    {
      "inputs": [],
      "name": "requiredReset",
      "outputs": [
        {
          "internalType": "uint256",
          "name": "",
          "type": "uint256"
        }
      ],
      "stateMutability": "view",
      "type": "function"
    }
  ],
  "bytecode": "0x608060405234801561001057600080fd5b506040516105c73803806105c783398181016040528101906100329190610180565b600073ffffffffffffffffffffffffffffffffffffffff168173ffffffffffffffffffffffffffffffffffffffff1614156100d9576040518060400160405280600381526020017f31323300000000000000000000000000000000000000000000000000000000008152506040517f08c379a00000000000000000000000000000000000000000000000000000000081526004016100d091906101e2565b60405180910390fd5b80600360006101000a81548173ffffffffffffffffffffffffffffffffffffffff021916908373ffffffffffffffffffffffffffffffffffffffff16021790555080600460006101000a81548173ffffffffffffffffffffffffffffffffffffffff021916908373ffffffffffffffffffffffffffffffffffffffff16021790555062015180600081905550506102ad565b60008151905061017a81610296565b92915050565b60006020828403121561019257600080fd5b60006101a08482850161016b565b91505092915050565b60006101b482610204565b6101be818561020f565b93506101ce818560208601610252565b6101d781610285565b840191505092915050565b600060208201905081810360008301526101fc81846101a9565b905092915050565b600081519050919050565b600082825260208201905092915050565b600061022b82610232565b9050919050565b600073ffffffffffffffffffffffffffffffffffffffff82169050919050565b60005b83811015610270578082015181840152602081019050610255565b8381111561027f576000848401525b50505050565b6000601f19601f8301169050919050565b61029f81610220565b81146102aa57600080fd5b50565b61030b806102bc6000396000f3fe608060405234801561001057600080fd5b50600436106100625760003560e01c806357d775f81461006757806390321e1a14610085578063ab407bb6146100a3578063ced72f87146100c1578063ddca3f43146100df578063f5fa96e5146100fd575b600080fd5b61006f61011b565b60405161007c9190610232565b60405180910390f35b61008d610121565b60405161009a9190610232565b60405180910390f35b6100ab610135565b6040516100b891906101f7565b60405180910390f35b6100c961015b565b6040516100d69190610232565b60405180910390f35b6100e76101aa565b6040516100f49190610232565b60405180910390f35b6101056101b0565b6040516101129190610232565b60405180910390f35b60005481565b60008061012c61015b565b90508091505090565b600460009054906101000a900473ffffffffffffffffffffffffffffffffffffffff1681565b60004260015410156101a2576040517f08c379a000000000000000000000000000000000000000000000000000000000815260040161019990610212565b60405180910390fd5b600254905090565b60025481565b60015481565b6101bf81610288565b82525050565b60006101d2600a8361024d565b91506101dd826102ac565b602082019050919050565b6101f18161027e565b82525050565b600060208201905061020c60008301846101b6565b92915050565b6000602082019050818103600083015261022b816101c5565b9050919050565b600060208201905061024760008301846101e8565b92915050565b600082825260208201905092915050565b600073ffffffffffffffffffffffffffffffffffffffff82169050919050565b6000819050919050565b60006102938261029a565b9050919050565b60006102a58261025e565b9050919050565b7f726573657446656528290000000000000000000000000000000000000000000060008201525056fea26469706673582212207e84ed6de374525f088fd673447b81442271af6b116d75693310cf409266c87e64736f6c63430008020033",
  "linkReferences": {},
  "deployedLinkReferences": {}
}