{
  "_format": "hh-sol-artifact-1",
  "contractName": "H1NativeApplication",
  "sourceName": "contracts/H1NativeApplication.sol",
  "abi": [
    {
      "inputs": [
        {
          "internalType": "address",
          "name": "_FeeContract",
          "type": "address"
        }
      ],
      "stateMutability": "nonpayable",
      "type": "constructor"
    },
    {
      "inputs": [],
      "name": "FeeContract",
      "outputs": [
        {
          "internalType": "address",
          "name": "",
          "type": "address"
        }
      ],
      "stateMutability": "view",
      "type": "function"
    },
    {
      "inputs": [],
      "name": "FeeQueryNative",
      "outputs": [
        {
          "internalType": "contract FeeQuery",
          "name": "",
          "type": "address"
        }
      ],
      "stateMutability": "view",
      "type": "function"
    },
    {
      "inputs": [],
      "name": "callFee",
      "outputs": [
        {
          "internalType": "uint256",
          "name": "",
          "type": "uint256"
        }
      ],
      "stateMutability": "view",
      "type": "function"
    },
    {
      "inputs": [],
      "name": "epochLength",
      "outputs": [
        {
          "internalType": "uint256",
          "name": "",
          "type": "uint256"
        }
      ],
      "stateMutability": "view",
      "type": "function"
    },
    {
      "inputs": [],
      "name": "fee",
      "outputs": [
        {
          "internalType": "uint256",
          "name": "",
          "type": "uint256"
        }
      ],
      "stateMutability": "view",
      "type": "function"
    },
    {
      "inputs": [],
      "name": "getFee",
      "outputs": [
        {
          "internalType": "uint256",
          "name": "",
          "type": "uint256"
        }
      ],
      "stateMutability": "view",
      "type": "function"
    },
    {
      "inputs": [],
      "name": "requiredReset",
      "outputs": [
        {
          "internalType": "uint256",
          "name": "",
          "type": "uint256"
        }
      ],
      "stateMutability": "view",
      "type": "function"
    }
  ],
  "bytecode": "0x60806040523480156200001157600080fd5b50604051620009aa380380620009aa8339818101604052810190620000379190620002a6565b62000053677e2eeec893e065c260c01b6200028c60201b60201c565b6200006f6776ccba1177afc08760c01b6200028c60201b60201c565b6200008b6783a180d24a206f1a60c01b6200028c60201b60201c565b600073ffffffffffffffffffffffffffffffffffffffff168173ffffffffffffffffffffffffffffffffffffffff1614156200018957620000dd674721ffdb6942706460c01b6200028c60201b60201c565b620000f9675f657bd19e48d0eb60c01b6200028c60201b60201c565b6200011567e84559ea25e318ee60c01b6200028c60201b60201c565b6040518060400160405280600381526020017f31323300000000000000000000000000000000000000000000000000000000008152506040517f08c379a000000000000000000000000000000000000000000000000000000000815260040162000180919062000313565b60405180910390fd5b620001a567ce0e9487806c2a8760c01b6200028c60201b60201c565b620001c1675f33f19d9bd6e76460c01b6200028c60201b60201c565b80600360006101000a81548173ffffffffffffffffffffffffffffffffffffffff021916908373ffffffffffffffffffffffffffffffffffffffff1602179055506200021e67f69d5bf1e59f78b360c01b6200028c60201b60201c565b80600460006101000a81548173ffffffffffffffffffffffffffffffffffffffff021916908373ffffffffffffffffffffffffffffffffffffffff1602179055506200027b67f593b98ad4a8d6ae60c01b6200028c60201b60201c565b6201518060008190555050620003e8565b50565b600081519050620002a081620003ce565b92915050565b600060208284031215620002b957600080fd5b6000620002c9848285016200028f565b91505092915050565b6000620002df8262000337565b620002eb818562000342565b9350620002fd81856020860162000387565b6200030881620003bd565b840191505092915050565b600060208201905081810360008301526200032f8184620002d2565b905092915050565b600081519050919050565b600082825260208201905092915050565b6000620003608262000367565b9050919050565b600073ffffffffffffffffffffffffffffffffffffffff82169050919050565b60005b83811015620003a75780820151818401526020810190506200038a565b83811115620003b7576000848401525b50505050565b6000601f19601f8301169050919050565b620003d98162000353565b8114620003e557600080fd5b50565b6105b280620003f86000396000f3fe608060405234801561001057600080fd5b506004361061007d5760003560e01c8063ab407bb61161005b578063ab407bb6146100dc578063ced72f87146100fa578063ddca3f4314610118578063f5fa96e5146101365761007d565b8063207ccfea1461008257806357d775f8146100a057806390321e1a146100be575b600080fd5b61008a610154565b604051610097919061045a565b60405180910390f35b6100a861017a565b6040516100b591906104b0565b60405180910390f35b6100c6610180565b6040516100d391906104b0565b60405180910390f35b6100e4610291565b6040516100f19190610475565b60405180910390f35b6101026102b7565b60405161010f91906104b0565b60405180910390f35b6101206103ba565b60405161012d91906104b0565b60405180910390f35b61013e6103c0565b60405161014b91906104b0565b60405180910390f35b600360009054906101000a900473ffffffffffffffffffffffffffffffffffffffff1681565b60005481565b600061019667924dcbdeb069767460c01b6103c6565b6101aa67111a410acca6edcf60c01b6103c6565b6101be6734a3a8c7780e275e60c01b6103c6565b6000600360009054906101000a900473ffffffffffffffffffffffffffffffffffffffff1673ffffffffffffffffffffffffffffffffffffffff1663ced72f876040518163ffffffff1660e01b815260040160206040518083038186803b15801561022857600080fd5b505afa15801561023c573d6000803e3d6000fd5b505050506040513d601f19601f8201168201806040525081019061026091906103e1565b90506102766795449ce6ec5e069a60c01b6103c6565b61028a67ec719e5f166cee7060c01b6103c6565b8091505090565b600460009054906101000a900473ffffffffffffffffffffffffffffffffffffffff1681565b60006102cd67341a09d70c91193860c01b6103c9565b6102e167fd13858d30b4e0f360c01b6103c9565b6102f5679b977cd0c0a3bf3a60c01b6103c9565b426001541015610376576103136727e4d34d0d1ff58b60c01b6103c9565b6103276779a9c7a6ba68d5cb60c01b6103c9565b61033b67eb1b54e909ec2d3560c01b6103c9565b6040517f08c379a000000000000000000000000000000000000000000000000000000000815260040161036d90610490565b60405180910390fd5b61038a67ee820581ba1ab36760c01b6103c9565b61039e672a1ce9267ec3da9c60c01b6103c9565b6103b267c59878417f2a2a4260c01b6103c9565b600254905090565b60025481565b60015481565b50565b50565b6000815190506103db81610565565b92915050565b6000602082840312156103f357600080fd5b6000610401848285016103cc565b91505092915050565b610413816104dc565b82525050565b61042281610518565b82525050565b6000610435600a836104cb565b91506104408261053c565b602082019050919050565b6104548161050e565b82525050565b600060208201905061046f600083018461040a565b92915050565b600060208201905061048a6000830184610419565b92915050565b600060208201905081810360008301526104a981610428565b9050919050565b60006020820190506104c5600083018461044b565b92915050565b600082825260208201905092915050565b60006104e7826104ee565b9050919050565b600073ffffffffffffffffffffffffffffffffffffffff82169050919050565b6000819050919050565b60006105238261052a565b9050919050565b6000610535826104ee565b9050919050565b7f7265736574466565282900000000000000000000000000000000000000000000600082015250565b61056e8161050e565b811461057957600080fd5b5056fea2646970667358221220aaa7f729e73e794b51a0d3ea55e7dc0e372fcc4007ffd1173469980a2d1cb38764736f6c63430008020033",
  "linkReferences": {},
  "deployedLinkReferences": {}
}