{
  "_format": "hh-sol-artifact-1",
  "contractName": "H1NativeApplication",
  "sourceName": "contracts/H1NativeApplication.sol",
  "abi": [
    {
      "inputs": [
        {
          "internalType": "address",
          "name": "_FeeContract",
          "type": "address"
        }
      ],
      "stateMutability": "nonpayable",
      "type": "constructor"
    },
    {
      "inputs": [],
      "name": "FeeContract",
      "outputs": [
        {
          "internalType": "address",
          "name": "",
          "type": "address"
        }
      ],
      "stateMutability": "view",
      "type": "function"
    },
    {
      "inputs": [],
      "name": "FeeQueryNative",
      "outputs": [
        {
          "internalType": "contract FeeQuery",
          "name": "",
          "type": "address"
        }
      ],
      "stateMutability": "view",
      "type": "function"
    },
    {
      "inputs": [],
      "name": "callFee",
      "outputs": [
        {
          "internalType": "uint256",
          "name": "",
          "type": "uint256"
        }
      ],
      "stateMutability": "view",
      "type": "function"
    },
    {
      "inputs": [],
      "name": "epochLength",
      "outputs": [
        {
          "internalType": "uint256",
          "name": "",
          "type": "uint256"
        }
      ],
      "stateMutability": "view",
      "type": "function"
    },
    {
      "inputs": [],
      "name": "fee",
      "outputs": [
        {
          "internalType": "uint256",
          "name": "",
          "type": "uint256"
        }
      ],
      "stateMutability": "view",
      "type": "function"
    },
    {
      "inputs": [],
      "name": "getFee",
      "outputs": [
        {
          "internalType": "uint256",
          "name": "",
          "type": "uint256"
        }
      ],
      "stateMutability": "view",
      "type": "function"
    },
    {
      "inputs": [],
      "name": "requiredReset",
      "outputs": [
        {
          "internalType": "uint256",
          "name": "",
          "type": "uint256"
        }
      ],
      "stateMutability": "view",
      "type": "function"
    }
  ],
  "bytecode": "0x60806040523480156200001157600080fd5b506040516200097c3803806200097c8339818101604052810190620000379190620002a6565b6200005367b1eaf8e13f3b39b760c01b6200028c60201b60201c565b6200006f677e2eeec893e065c260c01b6200028c60201b60201c565b6200008b6776ccba1177afc08760c01b6200028c60201b60201c565b600073ffffffffffffffffffffffffffffffffffffffff168173ffffffffffffffffffffffffffffffffffffffff1614156200018957620000dd6783a180d24a206f1a60c01b6200028c60201b60201c565b620000f9674721ffdb6942706460c01b6200028c60201b60201c565b62000115675f657bd19e48d0eb60c01b6200028c60201b60201c565b6040518060400160405280600381526020017f31323300000000000000000000000000000000000000000000000000000000008152506040517f08c379a000000000000000000000000000000000000000000000000000000000815260040162000180919062000313565b60405180910390fd5b620001a567e84559ea25e318ee60c01b6200028c60201b60201c565b620001c167ce0e9487806c2a8760c01b6200028c60201b60201c565b80600360006101000a81548173ffffffffffffffffffffffffffffffffffffffff021916908373ffffffffffffffffffffffffffffffffffffffff1602179055506200021e675f33f19d9bd6e76460c01b6200028c60201b60201c565b80600460006101000a81548173ffffffffffffffffffffffffffffffffffffffff021916908373ffffffffffffffffffffffffffffffffffffffff1602179055506200027b67f69d5bf1e59f78b360c01b6200028c60201b60201c565b6201518060008190555050620003e8565b50565b600081519050620002a081620003ce565b92915050565b600060208284031215620002b957600080fd5b6000620002c9848285016200028f565b91505092915050565b6000620002df8262000337565b620002eb818562000342565b9350620002fd81856020860162000387565b6200030881620003bd565b840191505092915050565b600060208201905081810360008301526200032f8184620002d2565b905092915050565b600081519050919050565b600082825260208201905092915050565b6000620003608262000367565b9050919050565b600073ffffffffffffffffffffffffffffffffffffffff82169050919050565b60005b83811015620003a75780820151818401526020810190506200038a565b83811115620003b7576000848401525b50505050565b6000601f19601f8301169050919050565b620003d98162000353565b8114620003e557600080fd5b50565b61058480620003f86000396000f3fe608060405234801561001057600080fd5b506004361061007d5760003560e01c8063ab407bb61161005b578063ab407bb6146100dc578063ced72f87146100fa578063ddca3f4314610118578063f5fa96e5146101365761007d565b8063207ccfea1461008257806357d775f8146100a057806390321e1a146100be575b600080fd5b61008a610154565b604051610097919061042c565b60405180910390f35b6100a861017a565b6040516100b59190610482565b60405180910390f35b6100c6610180565b6040516100d39190610482565b60405180910390f35b6100e4610263565b6040516100f19190610447565b60405180910390f35b610102610289565b60405161010f9190610482565b60405180910390f35b61012061038c565b60405161012d9190610482565b60405180910390f35b61013e610392565b60405161014b9190610482565b60405180910390f35b600360009054906101000a900473ffffffffffffffffffffffffffffffffffffffff1681565b60005481565b600061019667f593b98ad4a8d6ae60c01b610398565b6101aa67924dcbdeb069767460c01b610398565b6101be67111a410acca6edcf60c01b610398565b600360009054906101000a900473ffffffffffffffffffffffffffffffffffffffff1673ffffffffffffffffffffffffffffffffffffffff1663ced72f876040518163ffffffff1660e01b815260040160206040518083038186803b15801561022657600080fd5b505afa15801561023a573d6000803e3d6000fd5b505050506040513d601f19601f8201168201806040525081019061025e91906103b3565b905090565b600460009054906101000a900473ffffffffffffffffffffffffffffffffffffffff1681565b600061029f6705bb0c25ff05bb3260c01b61039b565b6102b36731301bec022fdee560c01b61039b565b6102c767463f38798a2f6ea560c01b61039b565b426001541015610348576102e567341a09d70c91193860c01b61039b565b6102f967fd13858d30b4e0f360c01b61039b565b61030d679b977cd0c0a3bf3a60c01b61039b565b6040517f08c379a000000000000000000000000000000000000000000000000000000000815260040161033f90610462565b60405180910390fd5b61035c6727e4d34d0d1ff58b60c01b61039b565b6103706779a9c7a6ba68d5cb60c01b61039b565b61038467eb1b54e909ec2d3560c01b61039b565b600254905090565b60025481565b60015481565b50565b50565b6000815190506103ad81610537565b92915050565b6000602082840312156103c557600080fd5b60006103d38482850161039e565b91505092915050565b6103e5816104ae565b82525050565b6103f4816104ea565b82525050565b6000610407600a8361049d565b91506104128261050e565b602082019050919050565b610426816104e0565b82525050565b600060208201905061044160008301846103dc565b92915050565b600060208201905061045c60008301846103eb565b92915050565b6000602082019050818103600083015261047b816103fa565b9050919050565b6000602082019050610497600083018461041d565b92915050565b600082825260208201905092915050565b60006104b9826104c0565b9050919050565b600073ffffffffffffffffffffffffffffffffffffffff82169050919050565b6000819050919050565b60006104f5826104fc565b9050919050565b6000610507826104c0565b9050919050565b7f7265736574466565282900000000000000000000000000000000000000000000600082015250565b610540816104e0565b811461054b57600080fd5b5056fea2646970667358221220b388e5348a4d23f9e4c6d3464a1b88039b3525bae3f2e7c00dc3e18b5786f6bf64736f6c63430008020033",
  "linkReferences": {},
  "deployedLinkReferences": {}
}