{
  "_format": "hh-sol-artifact-1",
  "contractName": "H1NativeApplication",
  "sourceName": "contracts/H1NativeApplication.sol",
  "abi": [
    {
      "inputs": [
        {
          "internalType": "address",
          "name": "_FeeContract",
          "type": "address"
        }
      ],
      "stateMutability": "nonpayable",
      "type": "constructor"
    },
    {
      "inputs": [],
      "name": "FeeQueryNative",
      "outputs": [
        {
          "internalType": "contract FeeQuery",
          "name": "",
          "type": "address"
        }
      ],
      "stateMutability": "view",
      "type": "function"
    },
    {
      "inputs": [],
      "name": "callFee",
      "outputs": [
        {
          "internalType": "uint256",
          "name": "",
          "type": "uint256"
        }
      ],
      "stateMutability": "view",
      "type": "function"
    },
    {
      "inputs": [],
      "name": "epochLength",
      "outputs": [
        {
          "internalType": "uint256",
          "name": "",
          "type": "uint256"
        }
      ],
      "stateMutability": "view",
      "type": "function"
    },
    {
      "inputs": [],
      "name": "fee",
      "outputs": [
        {
          "internalType": "uint256",
          "name": "",
          "type": "uint256"
        }
      ],
      "stateMutability": "view",
      "type": "function"
    },
    {
      "inputs": [],
      "name": "getFee",
      "outputs": [
        {
          "internalType": "uint256",
          "name": "",
          "type": "uint256"
        }
      ],
      "stateMutability": "view",
      "type": "function"
    },
    {
      "inputs": [],
      "name": "requiredReset",
      "outputs": [
        {
          "internalType": "uint256",
          "name": "",
          "type": "uint256"
        }
      ],
      "stateMutability": "view",
      "type": "function"
    }
  ],
  "bytecode": "0x608060405234801561001057600080fd5b506040516106b43803806106b483398181016040528101906100329190610180565b600073ffffffffffffffffffffffffffffffffffffffff168173ffffffffffffffffffffffffffffffffffffffff1614156100d9576040518060400160405280600381526020017f31323300000000000000000000000000000000000000000000000000000000008152506040517f08c379a00000000000000000000000000000000000000000000000000000000081526004016100d091906101e2565b60405180910390fd5b80600360006101000a81548173ffffffffffffffffffffffffffffffffffffffff021916908373ffffffffffffffffffffffffffffffffffffffff16021790555080600460006101000a81548173ffffffffffffffffffffffffffffffffffffffff021916908373ffffffffffffffffffffffffffffffffffffffff16021790555062015180600081905550506102ad565b60008151905061017a81610296565b92915050565b60006020828403121561019257600080fd5b60006101a08482850161016b565b91505092915050565b60006101b482610204565b6101be818561020f565b93506101ce818560208601610252565b6101d781610285565b840191505092915050565b600060208201905081810360008301526101fc81846101a9565b905092915050565b600081519050919050565b600082825260208201905092915050565b600061022b82610232565b9050919050565b600073ffffffffffffffffffffffffffffffffffffffff82169050919050565b60005b83811015610270578082015181840152602081019050610255565b8381111561027f576000848401525b50505050565b6000601f19601f8301169050919050565b61029f81610220565b81146102aa57600080fd5b50565b6103f8806102bc6000396000f3fe608060405234801561001057600080fd5b50600436106100625760003560e01c806357d775f81461006757806390321e1a14610085578063ab407bb6146100a3578063ced72f87146100c1578063ddca3f43146100df578063f5fa96e5146100fd575b600080fd5b61006f61011b565b60405161007c9190610308565b60405180910390f35b61008d610121565b60405161009a9190610308565b60405180910390f35b6100ab6101cd565b6040516100b891906102cd565b60405180910390f35b6100c96101f3565b6040516100d69190610308565b60405180910390f35b6100e7610242565b6040516100f49190610308565b60405180910390f35b610105610248565b6040516101129190610308565b60405180910390f35b60005481565b600080600360009054906101000a900473ffffffffffffffffffffffffffffffffffffffff1673ffffffffffffffffffffffffffffffffffffffff1663ced72f876040518163ffffffff1660e01b815260040160206040518083038186803b15801561018c57600080fd5b505afa1580156101a0573d6000803e3d6000fd5b505050506040513d601f19601f820116820180604052508101906101c49190610263565b90508091505090565b600460009054906101000a900473ffffffffffffffffffffffffffffffffffffffff1681565b600042600154101561023a576040517f08c379a0000000000000000000000000000000000000000000000000000000008152600401610231906102e8565b60405180910390fd5b600254905090565b60025481565b60015481565b60008151905061025d816103ab565b92915050565b60006020828403121561027557600080fd5b60006102838482850161024e565b91505092915050565b6102958161035e565b82525050565b60006102a8600a83610323565b91506102b382610382565b602082019050919050565b6102c781610354565b82525050565b60006020820190506102e2600083018461028c565b92915050565b600060208201905081810360008301526103018161029b565b9050919050565b600060208201905061031d60008301846102be565b92915050565b600082825260208201905092915050565b600073ffffffffffffffffffffffffffffffffffffffff82169050919050565b6000819050919050565b600061036982610370565b9050919050565b600061037b82610334565b9050919050565b7f7265736574466565282900000000000000000000000000000000000000000000600082015250565b6103b481610354565b81146103bf57600080fd5b5056fea2646970667358221220e21e75f357bef1a79059e41267f8d1c02ba703696abe6e438513b570105aaa0764736f6c63430008020033",
  "linkReferences": {},
  "deployedLinkReferences": {}
}