{
  "_format": "hh-sol-artifact-1",
  "contractName": "ValidatorRewards",
  "sourceName": "contracts/ValidatorRewards.sol",
  "abi": [
    {
      "anonymous": false,
      "inputs": [
        {
          "indexed": false,
          "internalType": "address",
          "name": "previousAdmin",
          "type": "address"
        },
        {
          "indexed": false,
          "internalType": "address",
          "name": "newAdmin",
          "type": "address"
        }
      ],
      "name": "AdminChanged",
      "type": "event"
    },
    {
      "anonymous": false,
      "inputs": [
        {
          "indexed": true,
          "internalType": "address",
          "name": "beacon",
          "type": "address"
        }
      ],
      "name": "BeaconUpgraded",
      "type": "event"
    },
    {
      "anonymous": false,
      "inputs": [
        {
          "indexed": false,
          "internalType": "uint8",
          "name": "version",
          "type": "uint8"
        }
      ],
      "name": "Initialized",
      "type": "event"
    },
    {
      "anonymous": false,
      "inputs": [
        {
          "indexed": true,
          "internalType": "address",
          "name": "to",
          "type": "address"
        },
        {
          "indexed": true,
          "internalType": "uint256",
          "name": "amount",
          "type": "uint256"
        }
      ],
      "name": "PaymentReleased",
      "type": "event"
    },
    {
      "anonymous": false,
      "inputs": [
        {
          "indexed": true,
          "internalType": "bytes32",
          "name": "role",
          "type": "bytes32"
        },
        {
          "indexed": true,
          "internalType": "bytes32",
          "name": "previousAdminRole",
          "type": "bytes32"
        },
        {
          "indexed": true,
          "internalType": "bytes32",
          "name": "newAdminRole",
          "type": "bytes32"
        }
      ],
      "name": "RoleAdminChanged",
      "type": "event"
    },
    {
      "anonymous": false,
      "inputs": [
        {
          "indexed": true,
          "internalType": "bytes32",
          "name": "role",
          "type": "bytes32"
        },
        {
          "indexed": true,
          "internalType": "address",
          "name": "account",
          "type": "address"
        },
        {
          "indexed": true,
          "internalType": "address",
          "name": "sender",
          "type": "address"
        }
      ],
      "name": "RoleGranted",
      "type": "event"
    },
    {
      "anonymous": false,
      "inputs": [
        {
          "indexed": true,
          "internalType": "bytes32",
          "name": "role",
          "type": "bytes32"
        },
        {
          "indexed": true,
          "internalType": "address",
          "name": "account",
          "type": "address"
        },
        {
          "indexed": true,
          "internalType": "address",
          "name": "sender",
          "type": "address"
        }
      ],
      "name": "RoleRevoked",
      "type": "event"
    },
    {
      "anonymous": false,
      "inputs": [
        {
          "indexed": false,
          "internalType": "address",
          "name": "validator",
          "type": "address"
        },
        {
          "indexed": false,
          "internalType": "uint256",
          "name": "shares",
          "type": "uint256"
        }
      ],
      "name": "SharesAdjusted",
      "type": "event"
    },
    {
      "anonymous": false,
      "inputs": [
        {
          "indexed": true,
          "internalType": "address",
          "name": "previousValidatorRewardAddress",
          "type": "address"
        },
        {
          "indexed": true,
          "internalType": "address",
          "name": "newValidatorRewardAddress",
          "type": "address"
        }
      ],
      "name": "UpdatedValidator",
      "type": "event"
    },
    {
      "anonymous": false,
      "inputs": [
        {
          "indexed": true,
          "internalType": "address",
          "name": "implementation",
          "type": "address"
        }
      ],
      "name": "Upgraded",
      "type": "event"
    },
    {
      "anonymous": false,
      "inputs": [
        {
          "indexed": false,
          "internalType": "address",
          "name": "account",
          "type": "address"
        },
        {
          "indexed": false,
          "internalType": "uint256",
          "name": "shares",
          "type": "uint256"
        }
      ],
      "name": "ValidatorAdded",
      "type": "event"
    },
    {
      "inputs": [],
      "name": "DEFAULT_ADMIN_ROLE",
      "outputs": [
        {
          "internalType": "bytes32",
          "name": "",
          "type": "bytes32"
        }
      ],
      "stateMutability": "view",
      "type": "function"
    },
    {
      "inputs": [],
      "name": "DISTRIBUTOR_ROLE",
      "outputs": [
        {
          "internalType": "bytes32",
          "name": "",
          "type": "bytes32"
        }
      ],
      "stateMutability": "view",
      "type": "function"
    },
    {
      "inputs": [],
      "name": "UPGRADER_ROLE",
      "outputs": [
        {
          "internalType": "bytes32",
          "name": "",
          "type": "bytes32"
        }
      ],
      "stateMutability": "view",
      "type": "function"
    },
    {
      "inputs": [
        {
          "internalType": "address",
          "name": "account",
          "type": "address"
        },
        {
          "internalType": "uint256",
          "name": "shares",
          "type": "uint256"
        }
      ],
      "name": "addValidator",
      "outputs": [],
      "stateMutability": "nonpayable",
      "type": "function"
    },
    {
      "inputs": [
        {
          "internalType": "uint256",
          "name": "index",
          "type": "uint256"
        },
        {
          "internalType": "address",
          "name": "newValidatorRewardAddress",
          "type": "address"
        }
      ],
      "name": "adjustValidatorAddress",
      "outputs": [],
      "stateMutability": "nonpayable",
      "type": "function"
    },
    {
      "inputs": [
        {
          "internalType": "address",
          "name": "account",
          "type": "address"
        },
        {
          "internalType": "uint256",
          "name": "shares",
          "type": "uint256"
        }
      ],
      "name": "adjustValidatorShares",
      "outputs": [],
      "stateMutability": "nonpayable",
      "type": "function"
    },
    {
      "inputs": [
        {
          "internalType": "bytes32",
          "name": "role",
          "type": "bytes32"
        }
      ],
      "name": "getRoleAdmin",
      "outputs": [
        {
          "internalType": "bytes32",
          "name": "",
          "type": "bytes32"
        }
      ],
      "stateMutability": "view",
      "type": "function"
    },
    {
      "inputs": [
        {
          "internalType": "bytes32",
          "name": "role",
          "type": "bytes32"
        },
        {
          "internalType": "address",
          "name": "account",
          "type": "address"
        }
      ],
      "name": "grantRole",
      "outputs": [],
      "stateMutability": "nonpayable",
      "type": "function"
    },
    {
      "inputs": [
        {
          "internalType": "bytes32",
          "name": "role",
          "type": "bytes32"
        },
        {
          "internalType": "address",
          "name": "account",
          "type": "address"
        }
      ],
      "name": "hasRole",
      "outputs": [
        {
          "internalType": "bool",
          "name": "",
          "type": "bool"
        }
      ],
      "stateMutability": "view",
      "type": "function"
    },
    {
      "inputs": [
        {
          "internalType": "address[]",
          "name": "validatorsList",
          "type": "address[]"
        },
        {
          "internalType": "uint256[]",
          "name": "shares",
          "type": "uint256[]"
        },
        {
          "internalType": "address",
          "name": "admin",
          "type": "address"
        },
        {
          "internalType": "address",
          "name": "distributor",
          "type": "address"
        },
        {
          "internalType": "address",
          "name": "upgrader",
          "type": "address"
        }
      ],
      "name": "initialize",
      "outputs": [],
      "stateMutability": "nonpayable",
      "type": "function"
    },
    {
      "inputs": [
        {
          "internalType": "address",
          "name": "validator",
          "type": "address"
        }
      ],
      "name": "isOriginalAddress",
      "outputs": [
        {
          "internalType": "bool",
          "name": "",
          "type": "bool"
        }
      ],
      "stateMutability": "view",
      "type": "function"
    },
    {
      "inputs": [],
      "name": "proxiableUUID",
      "outputs": [
        {
          "internalType": "bytes32",
          "name": "",
          "type": "bytes32"
        }
      ],
      "stateMutability": "view",
      "type": "function"
    },
    {
      "inputs": [
        {
          "internalType": "address",
          "name": "account",
          "type": "address"
        }
      ],
      "name": "releasable",
      "outputs": [
        {
          "internalType": "uint256",
          "name": "",
          "type": "uint256"
        }
      ],
      "stateMutability": "view",
      "type": "function"
    },
    {
      "inputs": [
        {
          "internalType": "address payable",
          "name": "account",
          "type": "address"
        }
      ],
      "name": "release",
      "outputs": [],
      "stateMutability": "nonpayable",
      "type": "function"
    },
    {
      "inputs": [],
      "name": "releaseAll",
      "outputs": [],
      "stateMutability": "nonpayable",
      "type": "function"
    },
    {
      "inputs": [
        {
          "internalType": "address",
          "name": "account",
          "type": "address"
        }
      ],
      "name": "released",
      "outputs": [
        {
          "internalType": "uint256",
          "name": "",
          "type": "uint256"
        }
      ],
      "stateMutability": "view",
      "type": "function"
    },
    {
      "inputs": [
        {
          "internalType": "bytes32",
          "name": "role",
          "type": "bytes32"
        },
        {
          "internalType": "address",
          "name": "account",
          "type": "address"
        }
      ],
      "name": "renounceRole",
      "outputs": [],
      "stateMutability": "nonpayable",
      "type": "function"
    },
    {
      "inputs": [
        {
          "internalType": "bytes32",
          "name": "role",
          "type": "bytes32"
        },
        {
          "internalType": "address",
          "name": "account",
          "type": "address"
        }
      ],
      "name": "revokeRole",
      "outputs": [],
      "stateMutability": "nonpayable",
      "type": "function"
    },
    {
      "inputs": [
        {
          "internalType": "address",
          "name": "account",
          "type": "address"
        }
      ],
      "name": "shares",
      "outputs": [
        {
          "internalType": "uint256",
          "name": "",
          "type": "uint256"
        }
      ],
      "stateMutability": "view",
      "type": "function"
    },
    {
      "inputs": [
        {
          "internalType": "bytes4",
          "name": "interfaceId",
          "type": "bytes4"
        }
      ],
      "name": "supportsInterface",
      "outputs": [
        {
          "internalType": "bool",
          "name": "",
          "type": "bool"
        }
      ],
      "stateMutability": "view",
      "type": "function"
    },
    {
      "inputs": [],
      "name": "totalReleased",
      "outputs": [
        {
          "internalType": "uint256",
          "name": "",
          "type": "uint256"
        }
      ],
      "stateMutability": "view",
      "type": "function"
    },
    {
      "inputs": [],
      "name": "totalShares",
      "outputs": [
        {
          "internalType": "uint256",
          "name": "",
          "type": "uint256"
        }
      ],
      "stateMutability": "view",
      "type": "function"
    },
    {
      "inputs": [
        {
          "internalType": "address",
          "name": "newImplementation",
          "type": "address"
        }
      ],
      "name": "upgradeTo",
      "outputs": [],
      "stateMutability": "nonpayable",
      "type": "function"
    },
    {
      "inputs": [
        {
          "internalType": "address",
          "name": "newImplementation",
          "type": "address"
        },
        {
          "internalType": "bytes",
          "name": "data",
          "type": "bytes"
        }
      ],
      "name": "upgradeToAndCall",
      "outputs": [],
      "stateMutability": "payable",
      "type": "function"
    },
    {
      "inputs": [
        {
          "internalType": "uint256",
          "name": "index",
          "type": "uint256"
        }
      ],
      "name": "validators",
      "outputs": [
        {
          "internalType": "address",
          "name": "",
          "type": "address"
        }
      ],
      "stateMutability": "view",
      "type": "function"
    },
    {
      "stateMutability": "payable",
      "type": "receive"
    }
  ],
  "bytecode": "0x60a06040523073ffffffffffffffffffffffffffffffffffffffff1660809073ffffffffffffffffffffffffffffffffffffffff1660601b81525034801561004657600080fd5b5060805160601c6148cb61008160003960008181610fbe0152818161104d01528181611514015281816115a3015261165301526148cb6000f3fe60806040526004361061016a5760003560e01c80635be7fde8116100d1578063d547741f1161008a578063e9d1ea8a11610064578063e9d1ea8a1461055c578063f0bd87cc14610585578063f72c0d8b146105b0578063fc6c1f02146105db57610171565b8063d547741f146104cb578063deea2b9b146104f4578063e33b7de31461053157610171565b80635be7fde81461039557806391d14854146103ac5780639852595c146103e9578063a217fddf14610426578063a3f8eace14610451578063ce7c2ac21461048e57610171565b806336568abe1161012357806336568abe146102a85780633659cfe6146102d15780633a98ef39146102fa5780634b3efd3b146103255780634f1ef2861461034e57806352d1902d1461036a57610171565b806301ffc9a71461017657806319165587146101b35780631fedbd7a146101dc578063248a9ca3146102055780632f2ff15d1461024257806335aa2e441461026b57610171565b3661017157005b600080fd5b34801561018257600080fd5b5061019d60048036038101906101989190613966565b610604565b6040516101aa9190613db4565b60405180910390f35b3480156101bf57600080fd5b506101da60048036038101906101d59190613778565b61067e565b005b3480156101e857600080fd5b5061020360048036038101906101fe9190613831565b610916565b005b34801561021157600080fd5b5061022c600480360381019061022791906138d8565b610e4e565b6040516102399190613dcf565b60405180910390f35b34801561024e57600080fd5b506102696004803603810190610264919061392a565b610e6e565b005b34801561027757600080fd5b50610292600480360381019061028d919061398f565b610e8f565b60405161029f9190613d70565b60405180910390f35b3480156102b457600080fd5b506102cf60048036038101906102ca919061392a565b610f39565b005b3480156102dd57600080fd5b506102f860048036038101906102f3919061374f565b610fbc565b005b34801561030657600080fd5b5061030f61116b565b60405161031c9190613fc7565b60405180910390f35b34801561033157600080fd5b5061034c600480360381019061034791906137f5565b6111b1565b005b610368600480360381019061036391906137a1565b611512565b005b34801561037657600080fd5b5061037f61164f565b60405161038c9190613dcf565b60405180910390f35b3480156103a157600080fd5b506103aa611708565b005b3480156103b857600080fd5b506103d360048036038101906103ce919061392a565b611a9e565b6040516103e09190613db4565b60405180910390f35b3480156103f557600080fd5b50610410600480360381019061040b919061374f565b611b09565b60405161041d9190613fc7565b60405180910390f35b34801561043257600080fd5b5061043b611b8e565b6040516104489190613dcf565b60405180910390f35b34801561045d57600080fd5b506104786004803603810190610473919061374f565b611b95565b6040516104859190613fc7565b60405180910390f35b34801561049a57600080fd5b506104b560048036038101906104b0919061374f565b611c2d565b6040516104c29190613fc7565b60405180910390f35b3480156104d757600080fd5b506104f260048036038101906104ed919061392a565b611cb2565b005b34801561050057600080fd5b5061051b6004803603810190610516919061374f565b611cd3565b6040516105289190613db4565b60405180910390f35b34801561053d57600080fd5b50610546611e81565b6040516105539190613fc7565b60405180910390f35b34801561056857600080fd5b50610583600480360381019061057e91906139b8565b611ec7565b005b34801561059157600080fd5b5061059a6122f4565b6040516105a79190613dcf565b60405180910390f35b3480156105bc57600080fd5b506105c5612318565b6040516105d29190613dcf565b60405180910390f35b3480156105e757600080fd5b5061060260048036038101906105fd91906137f5565b61233c565b005b60007f7965db0b000000000000000000000000000000000000000000000000000000007bffffffffffffffffffffffffffffffffffffffffffffffffffffffff1916827bffffffffffffffffffffffffffffffffffffffffffffffffffffffff191614806106775750610676826127e3565b5b9050919050565b61069267a82375c2e3955c2260c01b61284d565b6106a667276d11e6d6e38cd760c01b61284d565b6106ba67394c871a6119437760c01b61284d565b6106ce67cf8f84880b10ae7760c01b61284d565b600060fd60008373ffffffffffffffffffffffffffffffffffffffff1673ffffffffffffffffffffffffffffffffffffffff16815260200190815260200160002054116040518060400160405280600381526020017f313236000000000000000000000000000000000000000000000000000000000081525090610788576040517f08c379a000000000000000000000000000000000000000000000000000000000815260040161077f9190613e05565b60405180910390fd5b5061079d676691778d94982c8360c01b61284d565b6107b167bff5c2f07835804c60c01b61284d565b6107c567a8ae61d83967c0e360c01b61284d565b60006107d082611b95565b90506107e667148f5b1e5c5f6d1c60c01b61284d565b8060fc60008282546107f891906140cd565b92505081905550610813679a630f17ba4ace1d60c01b61284d565b610827673b0a19f57714069160c01b61284d565b8060fe60008473ffffffffffffffffffffffffffffffffffffffff1673ffffffffffffffffffffffffffffffffffffffff1681526020019081526020016000206000828254019250508190555061088867d58cb380ad04082660c01b61284d565b61089c6762330b0705eb16f960c01b61284d565b6108a68282612850565b6108ba6705acb0f5a4d6f04160c01b61284d565b6108ce670cafaf4f98f8f0ae60c01b61284d565b808273ffffffffffffffffffffffffffffffffffffffff167fdf20fd1e76bc69d672e4814fafb2c449bba3a5369d8359adf9e05e6fde87b05660405160405180910390a35050565b61092a678bb9f37d77f92a7d60c01b61284d565b60008060019054906101000a900460ff1615905080801561095b5750600160008054906101000a900460ff1660ff16105b80610988575061096a30612944565b1580156109875750600160008054906101000a900460ff1660ff16145b5b6109c7576040517f08c379a00000000000000000000000000000000000000000000000000000000081526004016109be90613f07565b60405180910390fd5b60016000806101000a81548160ff021916908360ff1602179055508015610a04576001600060016101000a81548160ff0219169083151502179055505b610a1867ccb55e702308c69960c01b61284d565b610a2c671e9eb1ad6e4f159760c01b61284d565b610a40676771a80dcebce0dd60c01b61284d565b610a54676d44637565b104c560c01b61284d565b610a616000801b33612967565b610a7567403ab7893640498460c01b61284d565b610a89671a1889aa33c05dea60c01b61284d565b610a966000801b85612a49565b610aaa67206308b96f53bd0b60c01b61284d565b610abe67041a1d7cd98172b060c01b61284d565b610ae87ffbd454f36a7e1a388bd6fc3ab10d434aa4578f811acbbcf33afb1c697486313c84612a49565b610afc67238d30d320dbd06f60c01b61284d565b610b10672f8de93e83cab15660c01b61284d565b610b3a7f189ab7a9244df0848122154315af71fe140f3db0fe014031783b0946b8c9d2e383612a49565b610b4e6715c4965b343bd14b60c01b61284d565b610b626702202da9a4bb7fc660c01b61284d565b610b6a612b2a565b610b7e67453db7b1944fb40960c01b61284d565b610b926703c61ba6ec0dfff260c01b61284d565b610b9a612b7b565b610bae671a56dcc60b6380ef60c01b61284d565b610bc267b79351b3ab6504e160c01b61284d565b60005b8651811015610dec57610be2672192ea8960fce93660c01b61284d565b610bf66708f2f6d1a912b66e60c01b61284d565b60ff878281518110610c31577f4e487b7100000000000000000000000000000000000000000000000000000000600052603260045260246000fd5b60200260200101519080600181540180825580915050600190039060005260206000200160009091909190916101000a81548173ffffffffffffffffffffffffffffffffffffffff021916908373ffffffffffffffffffffffffffffffffffffffff160217905550610cad674aebc171beeda42960c01b61284d565b858181518110610ce6577f4e487b7100000000000000000000000000000000000000000000000000000000600052603260045260246000fd5b602002602001015160fd6000898481518110610d2b577f4e487b7100000000000000000000000000000000000000000000000000000000600052603260045260246000fd5b602002602001015173ffffffffffffffffffffffffffffffffffffffff1673ffffffffffffffffffffffffffffffffffffffff16815260200190815260200160002081905550610d8567b5593e7eeb701ac860c01b61284d565b858181518110610dbe577f4e487b7100000000000000000000000000000000000000000000000000000000600052603260045260246000fd5b602002602001015160fb54610dd391906140cd565b60fb819055508080610de49061432e565b915050610bc5565b508015610e465760008060016101000a81548160ff0219169083151502179055507f7f26b83ff96e1f2b6a682f133852f6798a09c465da95921460cefb38474024986001604051610e3d9190613dea565b60405180910390a15b505050505050565b600060656000838152602001908152602001600020600101549050919050565b610e7782610e4e565b610e8081612bcc565b610e8a8383612a49565b505050565b6000610ea56784bc8e9d04b5a98960c01b61284d565b610eb967b10abcb79dfe355960c01b61284d565b610ecd6716d59e8636cad7f860c01b61284d565b60ff8281548110610f07577f4e487b7100000000000000000000000000000000000000000000000000000000600052603260045260246000fd5b9060005260206000200160009054906101000a900473ffffffffffffffffffffffffffffffffffffffff169050919050565b610f41612be0565b73ffffffffffffffffffffffffffffffffffffffff168173ffffffffffffffffffffffffffffffffffffffff1614610fae576040517f08c379a0000000000000000000000000000000000000000000000000000000008152600401610fa590613fa7565b60405180910390fd5b610fb88282612967565b5050565b7f000000000000000000000000000000000000000000000000000000000000000073ffffffffffffffffffffffffffffffffffffffff163073ffffffffffffffffffffffffffffffffffffffff16141561104b576040517f08c379a000000000000000000000000000000000000000000000000000000000815260040161104290613e47565b60405180910390fd5b7f000000000000000000000000000000000000000000000000000000000000000073ffffffffffffffffffffffffffffffffffffffff1661108a612be8565b73ffffffffffffffffffffffffffffffffffffffff16146110e0576040517f08c379a00000000000000000000000000000000000000000000000000000000081526004016110d790613e87565b60405180910390fd5b6110e981612c3f565b61116881600067ffffffffffffffff81111561112e577f4e487b7100000000000000000000000000000000000000000000000000000000600052604160045260246000fd5b6040519080825280601f01601f1916602001820160405280156111605781602001600182028036833780820191505090505b506000612ca9565b50565b600061118167025377277499cf2c60c01b61284d565b61119567f4216213b8734ff360c01b61284d565b6111a9678df59b5f5df871a660c01b61284d565b60fb54905090565b6111c567ed2a3573fd7b696460c01b61284d565b7ffbd454f36a7e1a388bd6fc3ab10d434aa4578f811acbbcf33afb1c697486313c6111ef81612bcc565b611203676ef18546f9ab665360c01b61284d565b61121767af9785c49a0289b560c01b61284d565b61122b67998645d007c582c360c01b61284d565b61123f675b6108355413e74460c01b61284d565b611253678a6fe9bb027d3e8860c01b61284d565b6000151561126084611cd3565b1515146040518060400160405280600381526020017f3132370000000000000000000000000000000000000000000000000000000000815250906112da576040517f08c379a00000000000000000000000000000000000000000000000000000000081526004016112d19190613e05565b60405180910390fd5b506112ef679030268a03b2bc8b60c01b61284d565b61130367548bc32b6db6d83660c01b61284d565b61131767218475d02850184d60c01b61284d565b61132b67834ca9f947dba75e60c01b61284d565b600082116040518060400160405280600381526020017f3132380000000000000000000000000000000000000000000000000000000000815250906113a6576040517f08c379a000000000000000000000000000000000000000000000000000000000815260040161139d9190613e05565b60405180910390fd5b506113bb672fcb60e3707dcc0360c01b61284d565b6113cf67eb953886bd80161260c01b61284d565b60fd60008473ffffffffffffffffffffffffffffffffffffffff1673ffffffffffffffffffffffffffffffffffffffff1681526020019081526020016000205460fb600082825461142091906141ae565b9250508190555061143b67f38cf4686b9190cd60c01b61284d565b8160fb600082825461144d91906140cd565b92505081905550611468670e7dabfcbc37a6b960c01b61284d565b8160fd60008573ffffffffffffffffffffffffffffffffffffffff1673ffffffffffffffffffffffffffffffffffffffff168152602001908152602001600020819055506114c0677b9be677923b9ec360c01b61284d565b6114d467b1387f8a65582c2560c01b61284d565b7f63c73b6ba0c6dd96222f5ff08a3755fab02dedf0d99c3085703fa9c05eebf5208383604051611505929190613d8b565b60405180910390a1505050565b7f000000000000000000000000000000000000000000000000000000000000000073ffffffffffffffffffffffffffffffffffffffff163073ffffffffffffffffffffffffffffffffffffffff1614156115a1576040517f08c379a000000000000000000000000000000000000000000000000000000000815260040161159890613e47565b60405180910390fd5b7f000000000000000000000000000000000000000000000000000000000000000073ffffffffffffffffffffffffffffffffffffffff166115e0612be8565b73ffffffffffffffffffffffffffffffffffffffff1614611636576040517f08c379a000000000000000000000000000000000000000000000000000000000815260040161162d90613e87565b60405180910390fd5b61163f82612c3f565b61164b82826001612ca9565b5050565b60007f000000000000000000000000000000000000000000000000000000000000000073ffffffffffffffffffffffffffffffffffffffff163073ffffffffffffffffffffffffffffffffffffffff16146116df576040517f08c379a00000000000000000000000000000000000000000000000000000000081526004016116d690613ec7565b60405180910390fd5b7f360894a13ba1a3210667c828492db98dca3e2076cc3735a920a3ca505d382bbc60001b905090565b61171c6743e0421093687ab760c01b61284d565b61173067e936e6d7215a259860c01b61284d565b611744671a911373bf902f3860c01b61284d565b60005b60ff80549050811015611a9b57611768671e685422127b735d60c01b61284d565b61177c67eb77994c618f9f7360c01b61284d565b60006117eb60ff83815481106117bb577f4e487b7100000000000000000000000000000000000000000000000000000000600052603260045260246000fd5b9060005260206000200160009054906101000a900473ffffffffffffffffffffffffffffffffffffffff16611b95565b905061180167b026182a56ca9b1760c01b61284d565b8060fc600082825461181391906140cd565b9250508190555061182e67437320fdcfea8d0160c01b61284d565b61184267b3f8041566c8d90460c01b61284d565b8060fe600060ff8581548110611881577f4e487b7100000000000000000000000000000000000000000000000000000000600052603260045260246000fd5b9060005260206000200160009054906101000a900473ffffffffffffffffffffffffffffffffffffffff1673ffffffffffffffffffffffffffffffffffffffff1673ffffffffffffffffffffffffffffffffffffffff168152602001908152602001600020600082825401925050819055506119076728770374381091bc60c01b61284d565b61191b6783a93ca618a2385560c01b61284d565b600060ff8381548110611957577f4e487b7100000000000000000000000000000000000000000000000000000000600052603260045260246000fd5b9060005260206000200160009054906101000a900473ffffffffffffffffffffffffffffffffffffffff169050611998675bef18dae94b5f2660c01b61284d565b6119ac67a61f8b6fb54f50b460c01b61284d565b6119b68183612850565b6119ca67f88ed6630c3791f660c01b61284d565b6119de67855dd45a8258c59a60c01b61284d565b8160ff8481548110611a19577f4e487b7100000000000000000000000000000000000000000000000000000000600052603260045260246000fd5b9060005260206000200160009054906101000a900473ffffffffffffffffffffffffffffffffffffffff1673ffffffffffffffffffffffffffffffffffffffff167fdf20fd1e76bc69d672e4814fafb2c449bba3a5369d8359adf9e05e6fde87b05660405160405180910390a350508080611a939061432e565b915050611747565b50565b60006065600084815260200190815260200160002060000160008373ffffffffffffffffffffffffffffffffffffffff1673ffffffffffffffffffffffffffffffffffffffff16815260200190815260200160002060009054906101000a900460ff16905092915050565b6000611b1f67070c2e5d8147650a60c01b61284d565b611b3367fac6e38c6c0467ce60c01b61284d565b611b47676855c5799fc1638a60c01b61284d565b60fe60008373ffffffffffffffffffffffffffffffffffffffff1673ffffffffffffffffffffffffffffffffffffffff168152602001908152602001600020549050919050565b6000801b81565b6000611bab67c184e7caf74a2f1d60c01b61284d565b611bbf671eda5f6a6d1bd18560c01b61284d565b611bd367dc7733e5b3a323ae60c01b61284d565b6000611bdd611e81565b47611be891906140cd565b9050611bfe6735d0e1b64500b2a860c01b61284d565b611c126782b5b1faa06df1a960c01b61284d565b611c258382611c2086611b09565b612e26565b915050919050565b6000611c4367f49709a5062a361360c01b61284d565b611c5767e93342a34fadc82260c01b61284d565b611c6b6724546dbac025a65160c01b61284d565b60fd60008373ffffffffffffffffffffffffffffffffffffffff1673ffffffffffffffffffffffffffffffffffffffff168152602001908152602001600020549050919050565b611cbb82610e4e565b611cc481612bcc565b611cce8383612967565b505050565b6000611ce9670d3c02748d11b86f60c01b61284d565b611cfd677956754e3ad474c160c01b61284d565b611d1167e8d806cb0962d65860c01b61284d565b60005b60ff80549050811015611e4e57611d356764980be7921bf8a760c01b61284d565b611d4967303a48f06d4417d460c01b61284d565b8273ffffffffffffffffffffffffffffffffffffffff1660ff8281548110611d9a577f4e487b7100000000000000000000000000000000000000000000000000000000600052603260045260246000fd5b9060005260206000200160009054906101000a900473ffffffffffffffffffffffffffffffffffffffff1673ffffffffffffffffffffffffffffffffffffffff161415611e2757611df567c2d9faa69a56e4ea60c01b61284d565b611e096726654db8ea36c28b60c01b61284d565b611e1d673b377ea25ed3151960c01b61284d565b6000915050611e7c565b611e3b67089d27e775f2462e60c01b61284d565b8080611e469061432e565b915050611d14565b50611e63679a7db170e3051c3760c01b61284d565b611e7767fe558cedcaae9b1260c01b61284d565b600190505b919050565b6000611e976782d594ff8a07286460c01b61284d565b611eab6738a1194f7bc1b8b160c01b61284d565b611ebf672bdb00faaa6051be60c01b61284d565b60fc54905090565b611edb67446eb8605058fb7260c01b61284d565b7ffbd454f36a7e1a388bd6fc3ab10d434aa4578f811acbbcf33afb1c697486313c611f0581612bcc565b611f1967a4c43933c2e67f7a60c01b61284d565b611f2d67515a4cafd786835f60c01b61284d565b611f4167a270c405413de73a60c01b61284d565b611f5567a5866a945c735b8860c01b61284d565b611f6967d7754ca9ffe06fbc60c01b61284d565b600073ffffffffffffffffffffffffffffffffffffffff168273ffffffffffffffffffffffffffffffffffffffff1614156040518060400160405280600381526020017f313233000000000000000000000000000000000000000000000000000000000081525090612011576040517f08c379a00000000000000000000000000000000000000000000000000000000081526004016120089190613e05565b60405180910390fd5b5061202667487c3c92b8fee62460c01b61284d565b61203a675e9594b5a408eb0260c01b61284d565b61204e67db294aa206abbb2060c01b61284d565b600060ff848154811061208a577f4e487b7100000000000000000000000000000000000000000000000000000000600052603260045260246000fd5b9060005260206000200160009054906101000a900473ffffffffffffffffffffffffffffffffffffffff1690506120cb67704077773e8a252260c01b61284d565b6120df67ffe363bc8687250b60c01b61284d565b600060fd60008373ffffffffffffffffffffffffffffffffffffffff1673ffffffffffffffffffffffffffffffffffffffff1681526020019081526020016000205490506121376739e61a35916a5cab60c01b61284d565b600060fd60008473ffffffffffffffffffffffffffffffffffffffff1673ffffffffffffffffffffffffffffffffffffffff16815260200190815260200160002081905550612190671852d40859a4685760c01b61284d565b8060fd60008673ffffffffffffffffffffffffffffffffffffffff1673ffffffffffffffffffffffffffffffffffffffff168152602001908152602001600020819055506121e8674d6deb4f722e785560c01b61284d565b8360ff8681548110612223577f4e487b7100000000000000000000000000000000000000000000000000000000600052603260045260246000fd5b9060005260206000200160006101000a81548173ffffffffffffffffffffffffffffffffffffffff021916908373ffffffffffffffffffffffffffffffffffffffff16021790555061227f671137075e2ec046fb60c01b61284d565b612293677d70836ec4b48a8c60c01b61284d565b8373ffffffffffffffffffffffffffffffffffffffff168273ffffffffffffffffffffffffffffffffffffffff167f2b0f020fc2ca0df9e227d90fbc27227ec945336ab8036526c0ed27f713909aa060405160405180910390a35050505050565b7ffbd454f36a7e1a388bd6fc3ab10d434aa4578f811acbbcf33afb1c697486313c81565b7f189ab7a9244df0848122154315af71fe140f3db0fe014031783b0946b8c9d2e381565b612350677f9d156ca995739460c01b61284d565b7ffbd454f36a7e1a388bd6fc3ab10d434aa4578f811acbbcf33afb1c697486313c61237a81612bcc565b61238e67a002502c5c734b3e60c01b61284d565b6123a2679ffe6ea8701f4ce760c01b61284d565b6123b667dbb8c7ccd46706a360c01b61284d565b6123ca677f8f2b6caa20830a60c01b61284d565b6123de67ead4cfcdca45780460c01b61284d565b600073ffffffffffffffffffffffffffffffffffffffff168373ffffffffffffffffffffffffffffffffffffffff1614156040518060400160405280600381526020017f313035000000000000000000000000000000000000000000000000000000000081525090612486576040517f08c379a000000000000000000000000000000000000000000000000000000000815260040161247d9190613e05565b60405180910390fd5b5061249b67b863bd6f79ead7f260c01b61284d565b6124af6777790a39c31c8d1360c01b61284d565b6124c3678b8b3c1d1c97c2b060c01b61284d565b6124d7676c7a0bda7e65ce0360c01b61284d565b600082116040518060400160405280600381526020017f313238000000000000000000000000000000000000000000000000000000000081525090612552576040517f08c379a00000000000000000000000000000000000000000000000000000000081526004016125499190613e05565b60405180910390fd5b5061256767cab9cfbac706e3e660c01b61284d565b61257b67df7708855f21cc7360c01b61284d565b61258f674f8d0736f81d5ea160c01b61284d565b6125a367095cd7d2e6d3d53d60c01b61284d565b600060fd60008573ffffffffffffffffffffffffffffffffffffffff1673ffffffffffffffffffffffffffffffffffffffff16815260200190815260200160002054146040518060400160405280600381526020017f31323900000000000000000000000000000000000000000000000000000000008152509061265d576040517f08c379a00000000000000000000000000000000000000000000000000000000081526004016126549190613e05565b60405180910390fd5b5061267267956bac025b2e3efc60c01b61284d565b61268667ce8e8b757682eaa160c01b61284d565b61269a67d377276be3bf354060c01b61284d565b60ff839080600181540180825580915050600190039060005260206000200160009091909190916101000a81548173ffffffffffffffffffffffffffffffffffffffff021916908373ffffffffffffffffffffffffffffffffffffffff16021790555061271167bd35567c7048d11e60c01b61284d565b8160fd60008573ffffffffffffffffffffffffffffffffffffffff1673ffffffffffffffffffffffffffffffffffffffff1681526020019081526020016000208190555061276967c4c7ec28536ae64260c01b61284d565b8160fb5461277791906140cd565b60fb819055506127916778a2b54f82b46dfb60c01b61284d565b6127a5673670b9c7caffe9c160c01b61284d565b7f9000b209805850a65058f21361a9978cb30f1413ed555553ab52a59b440b5d9983836040516127d6929190613d8b565b60405180910390a1505050565b60007f01ffc9a7000000000000000000000000000000000000000000000000000000007bffffffffffffffffffffffffffffffffffffffffffffffffffffffff1916827bffffffffffffffffffffffffffffffffffffffffffffffffffffffff1916149050919050565b50565b80471015612893576040517f08c379a000000000000000000000000000000000000000000000000000000000815260040161288a90613ea7565b60405180910390fd5b60008273ffffffffffffffffffffffffffffffffffffffff16826040516128b990613d21565b60006040518083038185875af1925050503d80600081146128f6576040519150601f19603f3d011682016040523d82523d6000602084013e6128fb565b606091505b505090508061293f576040517f08c379a000000000000000000000000000000000000000000000000000000000815260040161293690613e67565b60405180910390fd5b505050565b6000808273ffffffffffffffffffffffffffffffffffffffff163b119050919050565b6129718282611a9e565b15612a455760006065600084815260200190815260200160002060000160008373ffffffffffffffffffffffffffffffffffffffff1673ffffffffffffffffffffffffffffffffffffffff16815260200190815260200160002060006101000a81548160ff0219169083151502179055506129ea612be0565b73ffffffffffffffffffffffffffffffffffffffff168173ffffffffffffffffffffffffffffffffffffffff16837ff6391f5c32d9c69d2a47ea670b442974b53935d1edc7fd64eb21e047a839171b60405160405180910390a45b5050565b612a538282611a9e565b612b265760016065600084815260200190815260200160002060000160008373ffffffffffffffffffffffffffffffffffffffff1673ffffffffffffffffffffffffffffffffffffffff16815260200190815260200160002060006101000a81548160ff021916908315150217905550612acb612be0565b73ffffffffffffffffffffffffffffffffffffffff168173ffffffffffffffffffffffffffffffffffffffff16837f2f8788117e7eff1d82e926ec794901d17c78024a50270940304540a733656f0d60405160405180910390a45b5050565b600060019054906101000a900460ff16612b79576040517f08c379a0000000000000000000000000000000000000000000000000000000008152600401612b7090613f87565b60405180910390fd5b565b600060019054906101000a900460ff16612bca576040517f08c379a0000000000000000000000000000000000000000000000000000000008152600401612bc190613f87565b60405180910390fd5b565b612bdd81612bd8612be0565b612ed0565b50565b600033905090565b6000612c167f360894a13ba1a3210667c828492db98dca3e2076cc3735a920a3ca505d382bbc60001b612f55565b60000160009054906101000a900473ffffffffffffffffffffffffffffffffffffffff16905090565b612c5367d9e058baff64957960c01b61284d565b7f189ab7a9244df0848122154315af71fe140f3db0fe014031783b0946b8c9d2e3612c7d81612bcc565b612c91676672ff071a72523060c01b61284d565b612ca567d82461c74c18ce6e60c01b61284d565b5050565b612cd57f4910fdfa16fed3260ed0e7147f7cc6da11a60208b5b9406d12a635614ffd914360001b612f5f565b60000160009054906101000a900460ff1615612cf957612cf483612f69565b612e21565b8273ffffffffffffffffffffffffffffffffffffffff166352d1902d6040518163ffffffff1660e01b815260040160206040518083038186803b158015612d3f57600080fd5b505afa925050508015612d7057506040513d601f19601f82011682018060405250810190612d6d9190613901565b60015b612daf576040517f08c379a0000000000000000000000000000000000000000000000000000000008152600401612da690613f27565b60405180910390fd5b7f360894a13ba1a3210667c828492db98dca3e2076cc3735a920a3ca505d382bbc60001b8114612e14576040517f08c379a0000000000000000000000000000000000000000000000000000000008152600401612e0b90613ee7565b60405180910390fd5b50612e20838383613022565b5b505050565b6000612e3c67a49bf7a100cabf4960c01b61284d565b612e506713f778c6c28689b860c01b61284d565b612e6467a011920b5d56144a60c01b61284d565b8160fb5460fd60008773ffffffffffffffffffffffffffffffffffffffff1673ffffffffffffffffffffffffffffffffffffffff1681526020019081526020016000205485612eb39190614154565b612ebd9190614123565b612ec791906141ae565b90509392505050565b612eda8282611a9e565b612f5157612ee78161304e565b612ef58360001c602061307b565b604051602001612f06929190613d36565b6040516020818303038152906040526040517f08c379a0000000000000000000000000000000000000000000000000000000008152600401612f489190613e05565b60405180910390fd5b5050565b6000819050919050565b6000819050919050565b612f7281612944565b612fb1576040517f08c379a0000000000000000000000000000000000000000000000000000000008152600401612fa890613f47565b60405180910390fd5b80612fde7f360894a13ba1a3210667c828492db98dca3e2076cc3735a920a3ca505d382bbc60001b612f55565b60000160006101000a81548173ffffffffffffffffffffffffffffffffffffffff021916908373ffffffffffffffffffffffffffffffffffffffff16021790555050565b61302b83613375565b6000825111806130385750805b156130495761304783836133c4565b505b505050565b60606130748273ffffffffffffffffffffffffffffffffffffffff16601460ff1661307b565b9050919050565b60606000600283600261308e9190614154565b61309891906140cd565b67ffffffffffffffff8111156130d7577f4e487b7100000000000000000000000000000000000000000000000000000000600052604160045260246000fd5b6040519080825280601f01601f1916602001820160405280156131095781602001600182028036833780820191505090505b5090507f300000000000000000000000000000000000000000000000000000000000000081600081518110613167577f4e487b7100000000000000000000000000000000000000000000000000000000600052603260045260246000fd5b60200101907effffffffffffffffffffffffffffffffffffffffffffffffffffffffffffff1916908160001a9053507f7800000000000000000000000000000000000000000000000000000000000000816001815181106131f1577f4e487b7100000000000000000000000000000000000000000000000000000000600052603260045260246000fd5b60200101907effffffffffffffffffffffffffffffffffffffffffffffffffffffffffffff1916908160001a905350600060018460026132319190614154565b61323b91906140cd565b90505b6001811115613327577f3031323334353637383961626364656600000000000000000000000000000000600f8616601081106132a3577f4e487b7100000000000000000000000000000000000000000000000000000000600052603260045260246000fd5b1a60f81b8282815181106132e0577f4e487b7100000000000000000000000000000000000000000000000000000000600052603260045260246000fd5b60200101907effffffffffffffffffffffffffffffffffffffffffffffffffffffffffffff1916908160001a905350600485901c945080613320906142d3565b905061323e565b506000841461336b576040517f08c379a000000000000000000000000000000000000000000000000000000000815260040161336290613e27565b60405180910390fd5b8091505092915050565b61337e81612f69565b8073ffffffffffffffffffffffffffffffffffffffff167fbc7cd75a20ee27fd9adebab32041f755214dbc6bffa90cc0225b39da2e5c2d3b60405160405180910390a250565b60606133e9838360405180606001604052806027815260200161486f602791396133f1565b905092915050565b60606000808573ffffffffffffffffffffffffffffffffffffffff168560405161341b9190613d0a565b600060405180830381855af49150503d8060008114613456576040519150601f19603f3d011682016040523d82523d6000602084013e61345b565b606091505b509150915061346c86838387613477565b925050509392505050565b606083156134da576000835114156134d25761349285612944565b6134d1576040517f08c379a00000000000000000000000000000000000000000000000000000000081526004016134c890613f67565b60405180910390fd5b5b8290506134e5565b6134e483836134ed565b5b949350505050565b6000825111156135005781518083602001fd5b806040517f08c379a00000000000000000000000000000000000000000000000000000000081526004016135349190613e05565b60405180910390fd5b600061355061354b84614007565b613fe2565b9050808382526020820190508285602086028201111561356f57600080fd5b60005b8581101561359f57816135858882613653565b845260208401935060208301925050600181019050613572565b5050509392505050565b60006135bc6135b784614033565b613fe2565b905080838252602082019050828560208602820111156135db57600080fd5b60005b8581101561360b57816135f1888261373a565b8452602084019350602083019250506001810190506135de565b5050509392505050565b60006136286136238461405f565b613fe2565b90508281526020810184848401111561364057600080fd5b61364b848285614291565b509392505050565b600081359050613662816147fb565b92915050565b60008135905061367781614812565b92915050565b600082601f83011261368e57600080fd5b813561369e84826020860161353d565b91505092915050565b600082601f8301126136b857600080fd5b81356136c88482602086016135a9565b91505092915050565b6000813590506136e081614829565b92915050565b6000815190506136f581614829565b92915050565b60008135905061370a81614840565b92915050565b600082601f83011261372157600080fd5b8135613731848260208601613615565b91505092915050565b60008135905061374981614857565b92915050565b60006020828403121561376157600080fd5b600061376f84828501613653565b91505092915050565b60006020828403121561378a57600080fd5b600061379884828501613668565b91505092915050565b600080604083850312156137b457600080fd5b60006137c285828601613653565b925050602083013567ffffffffffffffff8111156137df57600080fd5b6137eb85828601613710565b9150509250929050565b6000806040838503121561380857600080fd5b600061381685828601613653565b92505060206138278582860161373a565b9150509250929050565b600080600080600060a0868803121561384957600080fd5b600086013567ffffffffffffffff81111561386357600080fd5b61386f8882890161367d565b955050602086013567ffffffffffffffff81111561388c57600080fd5b613898888289016136a7565b94505060406138a988828901613653565b93505060606138ba88828901613653565b92505060806138cb88828901613653565b9150509295509295909350565b6000602082840312156138ea57600080fd5b60006138f8848285016136d1565b91505092915050565b60006020828403121561391357600080fd5b6000613921848285016136e6565b91505092915050565b6000806040838503121561393d57600080fd5b600061394b858286016136d1565b925050602061395c85828601613653565b9150509250929050565b60006020828403121561397857600080fd5b6000613986848285016136fb565b91505092915050565b6000602082840312156139a157600080fd5b60006139af8482850161373a565b91505092915050565b600080604083850312156139cb57600080fd5b60006139d98582860161373a565b92505060206139ea85828601613653565b9150509250929050565b6139fd816141e2565b82525050565b613a0c81614206565b82525050565b613a1b81614212565b82525050565b6000613a2c82614090565b613a3681856140a6565b9350613a468185602086016142a0565b80840191505092915050565b613a5b8161427f565b82525050565b6000613a6c8261409b565b613a7681856140b1565b9350613a868185602086016142a0565b613a8f81614404565b840191505092915050565b6000613aa58261409b565b613aaf81856140c2565b9350613abf8185602086016142a0565b80840191505092915050565b6000613ad86020836140b1565b9150613ae382614415565b602082019050919050565b6000613afb602c836140b1565b9150613b068261443e565b604082019050919050565b6000613b1e603a836140b1565b9150613b298261448d565b604082019050919050565b6000613b41602c836140b1565b9150613b4c826144dc565b604082019050919050565b6000613b64601d836140b1565b9150613b6f8261452b565b602082019050919050565b6000613b876038836140b1565b9150613b9282614554565b604082019050919050565b6000613baa6029836140b1565b9150613bb5826145a3565b604082019050919050565b6000613bcd602e836140b1565b9150613bd8826145f2565b604082019050919050565b6000613bf0602e836140b1565b9150613bfb82614641565b604082019050919050565b6000613c13602d836140b1565b9150613c1e82614690565b604082019050919050565b6000613c366000836140a6565b9150613c41826146df565b600082019050919050565b6000613c59601d836140b1565b9150613c64826146e2565b602082019050919050565b6000613c7c602b836140b1565b9150613c878261470b565b604082019050919050565b6000613c9f6017836140c2565b9150613caa8261475a565b601782019050919050565b6000613cc26011836140c2565b9150613ccd82614783565b601182019050919050565b6000613ce5602f836140b1565b9150613cf0826147ac565b604082019050919050565b613d0481614268565b82525050565b6000613d168284613a21565b915081905092915050565b6000613d2c82613c29565b9150819050919050565b6000613d4182613c92565b9150613d4d8285613a9a565b9150613d5882613cb5565b9150613d648284613a9a565b91508190509392505050565b6000602082019050613d8560008301846139f4565b92915050565b6000604082019050613da060008301856139f4565b613dad6020830184613cfb565b9392505050565b6000602082019050613dc96000830184613a03565b92915050565b6000602082019050613de46000830184613a12565b92915050565b6000602082019050613dff6000830184613a52565b92915050565b60006020820190508181036000830152613e1f8184613a61565b905092915050565b60006020820190508181036000830152613e4081613acb565b9050919050565b60006020820190508181036000830152613e6081613aee565b9050919050565b60006020820190508181036000830152613e8081613b11565b9050919050565b60006020820190508181036000830152613ea081613b34565b9050919050565b60006020820190508181036000830152613ec081613b57565b9050919050565b60006020820190508181036000830152613ee081613b7a565b9050919050565b60006020820190508181036000830152613f0081613b9d565b9050919050565b60006020820190508181036000830152613f2081613bc0565b9050919050565b60006020820190508181036000830152613f4081613be3565b9050919050565b60006020820190508181036000830152613f6081613c06565b9050919050565b60006020820190508181036000830152613f8081613c4c565b9050919050565b60006020820190508181036000830152613fa081613c6f565b9050919050565b60006020820190508181036000830152613fc081613cd8565b9050919050565b6000602082019050613fdc6000830184613cfb565b92915050565b6000613fec613ffd565b9050613ff882826142fd565b919050565b6000604051905090565b600067ffffffffffffffff821115614022576140216143d5565b5b602082029050602081019050919050565b600067ffffffffffffffff82111561404e5761404d6143d5565b5b602082029050602081019050919050565b600067ffffffffffffffff82111561407a576140796143d5565b5b61408382614404565b9050602081019050919050565b600081519050919050565b600081519050919050565b600081905092915050565b600082825260208201905092915050565b600081905092915050565b60006140d882614268565b91506140e383614268565b9250827fffffffffffffffffffffffffffffffffffffffffffffffffffffffffffffffff0382111561411857614117614377565b5b828201905092915050565b600061412e82614268565b915061413983614268565b925082614149576141486143a6565b5b828204905092915050565b600061415f82614268565b915061416a83614268565b9250817fffffffffffffffffffffffffffffffffffffffffffffffffffffffffffffffff04831182151516156141a3576141a2614377565b5b828202905092915050565b60006141b982614268565b91506141c483614268565b9250828210156141d7576141d6614377565b5b828203905092915050565b60006141ed82614248565b9050919050565b60006141ff82614248565b9050919050565b60008115159050919050565b6000819050919050565b60007fffffffff0000000000000000000000000000000000000000000000000000000082169050919050565b600073ffffffffffffffffffffffffffffffffffffffff82169050919050565b6000819050919050565b600060ff82169050919050565b600061428a82614272565b9050919050565b82818337600083830152505050565b60005b838110156142be5780820151818401526020810190506142a3565b838111156142cd576000848401525b50505050565b60006142de82614268565b915060008214156142f2576142f1614377565b5b600182039050919050565b61430682614404565b810181811067ffffffffffffffff82111715614325576143246143d5565b5b80604052505050565b600061433982614268565b91507fffffffffffffffffffffffffffffffffffffffffffffffffffffffffffffffff82141561436c5761436b614377565b5b600182019050919050565b7f4e487b7100000000000000000000000000000000000000000000000000000000600052601160045260246000fd5b7f4e487b7100000000000000000000000000000000000000000000000000000000600052601260045260246000fd5b7f4e487b7100000000000000000000000000000000000000000000000000000000600052604160045260246000fd5b6000601f19601f8301169050919050565b7f537472696e67733a20686578206c656e67746820696e73756666696369656e74600082015250565b7f46756e6374696f6e206d7573742062652063616c6c6564207468726f7567682060008201527f64656c656761746563616c6c0000000000000000000000000000000000000000602082015250565b7f416464726573733a20756e61626c6520746f2073656e642076616c75652c207260008201527f6563697069656e74206d61792068617665207265766572746564000000000000602082015250565b7f46756e6374696f6e206d7573742062652063616c6c6564207468726f7567682060008201527f6163746976652070726f78790000000000000000000000000000000000000000602082015250565b7f416464726573733a20696e73756666696369656e742062616c616e6365000000600082015250565b7f555550535570677261646561626c653a206d757374206e6f742062652063616c60008201527f6c6564207468726f7567682064656c656761746563616c6c0000000000000000602082015250565b7f45524331393637557067726164653a20756e737570706f727465642070726f7860008201527f6961626c65555549440000000000000000000000000000000000000000000000602082015250565b7f496e697469616c697a61626c653a20636f6e747261637420697320616c72656160008201527f647920696e697469616c697a6564000000000000000000000000000000000000602082015250565b7f45524331393637557067726164653a206e657720696d706c656d656e7461746960008201527f6f6e206973206e6f742055555053000000000000000000000000000000000000602082015250565b7f455243313936373a206e657720696d706c656d656e746174696f6e206973206e60008201527f6f74206120636f6e747261637400000000000000000000000000000000000000602082015250565b50565b7f416464726573733a2063616c6c20746f206e6f6e2d636f6e7472616374000000600082015250565b7f496e697469616c697a61626c653a20636f6e7472616374206973206e6f74206960008201527f6e697469616c697a696e67000000000000000000000000000000000000000000602082015250565b7f416363657373436f6e74726f6c3a206163636f756e7420000000000000000000600082015250565b7f206973206d697373696e6720726f6c6520000000000000000000000000000000600082015250565b7f416363657373436f6e74726f6c3a2063616e206f6e6c792072656e6f756e636560008201527f20726f6c657320666f722073656c660000000000000000000000000000000000602082015250565b614804816141e2565b811461480f57600080fd5b50565b61481b816141f4565b811461482657600080fd5b50565b61483281614212565b811461483d57600080fd5b50565b6148498161421c565b811461485457600080fd5b50565b61486081614268565b811461486b57600080fd5b5056fe416464726573733a206c6f772d6c6576656c2064656c65676174652063616c6c206661696c6564a2646970667358221220d67803b6ab1826d0e88b6b5bafa327b56f33535dd304f14264b9129e1055ecba64736f6c63430008020033",
  "linkReferences": {},
  "deployedLinkReferences": {}
}