{
  "_format": "hh-sol-artifact-1",
  "contractName": "ValidatorRewards",
  "sourceName": "contracts/ValidatorRewards.sol",
  "abi": [
    {
      "anonymous": false,
      "inputs": [
        {
          "indexed": false,
          "internalType": "address",
          "name": "previousAdmin",
          "type": "address"
        },
        {
          "indexed": false,
          "internalType": "address",
          "name": "newAdmin",
          "type": "address"
        }
      ],
      "name": "AdminChanged",
      "type": "event"
    },
    {
      "anonymous": false,
      "inputs": [
        {
          "indexed": true,
          "internalType": "address",
          "name": "beacon",
          "type": "address"
        }
      ],
      "name": "BeaconUpgraded",
      "type": "event"
    },
    {
      "anonymous": false,
      "inputs": [
        {
          "indexed": false,
          "internalType": "uint8",
          "name": "version",
          "type": "uint8"
        }
      ],
      "name": "Initialized",
      "type": "event"
    },
    {
      "anonymous": false,
      "inputs": [
        {
          "indexed": true,
          "internalType": "address",
          "name": "to",
          "type": "address"
        },
        {
          "indexed": true,
          "internalType": "uint256",
          "name": "amount",
          "type": "uint256"
        }
      ],
      "name": "PaymentReleased",
      "type": "event"
    },
    {
      "anonymous": false,
      "inputs": [
        {
          "indexed": true,
          "internalType": "bytes32",
          "name": "role",
          "type": "bytes32"
        },
        {
          "indexed": true,
          "internalType": "bytes32",
          "name": "previousAdminRole",
          "type": "bytes32"
        },
        {
          "indexed": true,
          "internalType": "bytes32",
          "name": "newAdminRole",
          "type": "bytes32"
        }
      ],
      "name": "RoleAdminChanged",
      "type": "event"
    },
    {
      "anonymous": false,
      "inputs": [
        {
          "indexed": true,
          "internalType": "bytes32",
          "name": "role",
          "type": "bytes32"
        },
        {
          "indexed": true,
          "internalType": "address",
          "name": "account",
          "type": "address"
        },
        {
          "indexed": true,
          "internalType": "address",
          "name": "sender",
          "type": "address"
        }
      ],
      "name": "RoleGranted",
      "type": "event"
    },
    {
      "anonymous": false,
      "inputs": [
        {
          "indexed": true,
          "internalType": "bytes32",
          "name": "role",
          "type": "bytes32"
        },
        {
          "indexed": true,
          "internalType": "address",
          "name": "account",
          "type": "address"
        },
        {
          "indexed": true,
          "internalType": "address",
          "name": "sender",
          "type": "address"
        }
      ],
      "name": "RoleRevoked",
      "type": "event"
    },
    {
      "anonymous": false,
      "inputs": [
        {
          "indexed": false,
          "internalType": "address",
          "name": "validator",
          "type": "address"
        },
        {
          "indexed": false,
          "internalType": "uint256",
          "name": "shares",
          "type": "uint256"
        }
      ],
      "name": "SharesAdjusted",
      "type": "event"
    },
    {
      "anonymous": false,
      "inputs": [
        {
          "indexed": true,
          "internalType": "address",
          "name": "previousValidatorRewardAddress",
          "type": "address"
        },
        {
          "indexed": true,
          "internalType": "address",
          "name": "newValidatorRewardAddress",
          "type": "address"
        }
      ],
      "name": "UpdatedValidator",
      "type": "event"
    },
    {
      "anonymous": false,
      "inputs": [
        {
          "indexed": true,
          "internalType": "address",
          "name": "implementation",
          "type": "address"
        }
      ],
      "name": "Upgraded",
      "type": "event"
    },
    {
      "anonymous": false,
      "inputs": [
        {
          "indexed": false,
          "internalType": "address",
          "name": "account",
          "type": "address"
        },
        {
          "indexed": false,
          "internalType": "uint256",
          "name": "shares",
          "type": "uint256"
        }
      ],
      "name": "ValidatorAdded",
      "type": "event"
    },
    {
      "inputs": [],
      "name": "DEFAULT_ADMIN_ROLE",
      "outputs": [
        {
          "internalType": "bytes32",
          "name": "",
          "type": "bytes32"
        }
      ],
      "stateMutability": "view",
      "type": "function"
    },
    {
      "inputs": [],
      "name": "DISTRIBUTOR_ROLE",
      "outputs": [
        {
          "internalType": "bytes32",
          "name": "",
          "type": "bytes32"
        }
      ],
      "stateMutability": "view",
      "type": "function"
    },
    {
      "inputs": [],
      "name": "UPGRADER_ROLE",
      "outputs": [
        {
          "internalType": "bytes32",
          "name": "",
          "type": "bytes32"
        }
      ],
      "stateMutability": "view",
      "type": "function"
    },
    {
      "inputs": [
        {
          "internalType": "address",
          "name": "account",
          "type": "address"
        },
        {
          "internalType": "uint256",
          "name": "shares_",
          "type": "uint256"
        }
      ],
      "name": "addValidator",
      "outputs": [],
      "stateMutability": "nonpayable",
      "type": "function"
    },
    {
      "inputs": [
        {
          "internalType": "uint256",
          "name": "_index",
          "type": "uint256"
        },
        {
          "internalType": "address",
          "name": "_newValidatorRewardAddress",
          "type": "address"
        }
      ],
      "name": "adjustValidatorAddress",
      "outputs": [],
      "stateMutability": "nonpayable",
      "type": "function"
    },
    {
      "inputs": [
        {
          "internalType": "address",
          "name": "account",
          "type": "address"
        },
        {
          "internalType": "uint256",
          "name": "shares_",
          "type": "uint256"
        }
      ],
      "name": "adjustValidatorShares",
      "outputs": [],
      "stateMutability": "nonpayable",
      "type": "function"
    },
    {
      "inputs": [
        {
          "internalType": "bytes32",
          "name": "role",
          "type": "bytes32"
        }
      ],
      "name": "getRoleAdmin",
      "outputs": [
        {
          "internalType": "bytes32",
          "name": "",
          "type": "bytes32"
        }
      ],
      "stateMutability": "view",
      "type": "function"
    },
    {
      "inputs": [
        {
          "internalType": "bytes32",
          "name": "role",
          "type": "bytes32"
        },
        {
          "internalType": "address",
          "name": "account",
          "type": "address"
        }
      ],
      "name": "grantRole",
      "outputs": [],
      "stateMutability": "nonpayable",
      "type": "function"
    },
    {
      "inputs": [
        {
          "internalType": "bytes32",
          "name": "role",
          "type": "bytes32"
        },
        {
          "internalType": "address",
          "name": "account",
          "type": "address"
        }
      ],
      "name": "hasRole",
      "outputs": [
        {
          "internalType": "bool",
          "name": "",
          "type": "bool"
        }
      ],
      "stateMutability": "view",
      "type": "function"
    },
    {
      "inputs": [
        {
          "internalType": "address[]",
          "name": "validatorsList",
          "type": "address[]"
        },
        {
          "internalType": "uint256[]",
          "name": "shares_",
          "type": "uint256[]"
        },
        {
          "internalType": "address",
          "name": "admin",
          "type": "address"
        },
        {
          "internalType": "address",
          "name": "distributor",
          "type": "address"
        },
        {
          "internalType": "address",
          "name": "upgrader",
          "type": "address"
        }
      ],
      "name": "initialize",
      "outputs": [],
      "stateMutability": "nonpayable",
      "type": "function"
    },
    {
      "inputs": [
        {
          "internalType": "address",
          "name": "validator",
          "type": "address"
        }
      ],
      "name": "isOriginalAddress",
      "outputs": [
        {
          "internalType": "bool",
          "name": "",
          "type": "bool"
        }
      ],
      "stateMutability": "view",
      "type": "function"
    },
    {
      "inputs": [],
      "name": "proxiableUUID",
      "outputs": [
        {
          "internalType": "bytes32",
          "name": "",
          "type": "bytes32"
        }
      ],
      "stateMutability": "view",
      "type": "function"
    },
    {
      "inputs": [
        {
          "internalType": "address",
          "name": "account",
          "type": "address"
        }
      ],
      "name": "releasable",
      "outputs": [
        {
          "internalType": "uint256",
          "name": "",
          "type": "uint256"
        }
      ],
      "stateMutability": "view",
      "type": "function"
    },
    {
      "inputs": [
        {
          "internalType": "address payable",
          "name": "account",
          "type": "address"
        }
      ],
      "name": "release",
      "outputs": [],
      "stateMutability": "nonpayable",
      "type": "function"
    },
    {
      "inputs": [],
      "name": "releaseAll",
      "outputs": [],
      "stateMutability": "nonpayable",
      "type": "function"
    },
    {
      "inputs": [
        {
          "internalType": "address",
          "name": "account",
          "type": "address"
        }
      ],
      "name": "released",
      "outputs": [
        {
          "internalType": "uint256",
          "name": "",
          "type": "uint256"
        }
      ],
      "stateMutability": "view",
      "type": "function"
    },
    {
      "inputs": [
        {
          "internalType": "bytes32",
          "name": "role",
          "type": "bytes32"
        },
        {
          "internalType": "address",
          "name": "account",
          "type": "address"
        }
      ],
      "name": "renounceRole",
      "outputs": [],
      "stateMutability": "nonpayable",
      "type": "function"
    },
    {
      "inputs": [
        {
          "internalType": "bytes32",
          "name": "role",
          "type": "bytes32"
        },
        {
          "internalType": "address",
          "name": "account",
          "type": "address"
        }
      ],
      "name": "revokeRole",
      "outputs": [],
      "stateMutability": "nonpayable",
      "type": "function"
    },
    {
      "inputs": [
        {
          "internalType": "address",
          "name": "account",
          "type": "address"
        }
      ],
      "name": "shares",
      "outputs": [
        {
          "internalType": "uint256",
          "name": "",
          "type": "uint256"
        }
      ],
      "stateMutability": "view",
      "type": "function"
    },
    {
      "inputs": [
        {
          "internalType": "bytes4",
          "name": "interfaceId",
          "type": "bytes4"
        }
      ],
      "name": "supportsInterface",
      "outputs": [
        {
          "internalType": "bool",
          "name": "",
          "type": "bool"
        }
      ],
      "stateMutability": "view",
      "type": "function"
    },
    {
      "inputs": [],
      "name": "totalReleased",
      "outputs": [
        {
          "internalType": "uint256",
          "name": "",
          "type": "uint256"
        }
      ],
      "stateMutability": "view",
      "type": "function"
    },
    {
      "inputs": [],
      "name": "totalShares",
      "outputs": [
        {
          "internalType": "uint256",
          "name": "",
          "type": "uint256"
        }
      ],
      "stateMutability": "view",
      "type": "function"
    },
    {
      "inputs": [
        {
          "internalType": "address",
          "name": "newImplementation",
          "type": "address"
        }
      ],
      "name": "upgradeTo",
      "outputs": [],
      "stateMutability": "nonpayable",
      "type": "function"
    },
    {
      "inputs": [
        {
          "internalType": "address",
          "name": "newImplementation",
          "type": "address"
        },
        {
          "internalType": "bytes",
          "name": "data",
          "type": "bytes"
        }
      ],
      "name": "upgradeToAndCall",
      "outputs": [],
      "stateMutability": "payable",
      "type": "function"
    },
    {
      "inputs": [
        {
          "internalType": "uint256",
          "name": "index",
          "type": "uint256"
        }
      ],
      "name": "validators",
      "outputs": [
        {
          "internalType": "address",
          "name": "",
          "type": "address"
        }
      ],
      "stateMutability": "view",
      "type": "function"
    },
    {
      "stateMutability": "payable",
      "type": "receive"
    }
  ],
  "bytecode": "0x60a06040523073ffffffffffffffffffffffffffffffffffffffff1660809073ffffffffffffffffffffffffffffffffffffffff1660601b81525034801561004657600080fd5b5060805160601c6148ca61008160003960008181610fbe0152818161104d01528181611513015281816115a2015261165201526148ca6000f3fe60806040526004361061016a5760003560e01c80635be7fde8116100d1578063d547741f1161008a578063e9d1ea8a11610064578063e9d1ea8a1461055c578063f0bd87cc14610585578063f72c0d8b146105b0578063fc6c1f02146105db57610171565b8063d547741f146104cb578063deea2b9b146104f4578063e33b7de31461053157610171565b80635be7fde81461039557806391d14854146103ac5780639852595c146103e9578063a217fddf14610426578063a3f8eace14610451578063ce7c2ac21461048e57610171565b806336568abe1161012357806336568abe146102a85780633659cfe6146102d15780633a98ef39146102fa5780634b3efd3b146103255780634f1ef2861461034e57806352d1902d1461036a57610171565b806301ffc9a71461017657806319165587146101b35780631fedbd7a146101dc578063248a9ca3146102055780632f2ff15d1461024257806335aa2e441461026b57610171565b3661017157005b600080fd5b34801561018257600080fd5b5061019d60048036038101906101989190613965565b610604565b6040516101aa9190613db3565b60405180910390f35b3480156101bf57600080fd5b506101da60048036038101906101d59190613777565b61067e565b005b3480156101e857600080fd5b5061020360048036038101906101fe9190613830565b610916565b005b34801561021157600080fd5b5061022c600480360381019061022791906138d7565b610e4e565b6040516102399190613dce565b60405180910390f35b34801561024e57600080fd5b5061026960048036038101906102649190613929565b610e6e565b005b34801561027757600080fd5b50610292600480360381019061028d919061398e565b610e8f565b60405161029f9190613d6f565b60405180910390f35b3480156102b457600080fd5b506102cf60048036038101906102ca9190613929565b610f39565b005b3480156102dd57600080fd5b506102f860048036038101906102f3919061374e565b610fbc565b005b34801561030657600080fd5b5061030f61116b565b60405161031c9190613fc6565b60405180910390f35b34801561033157600080fd5b5061034c600480360381019061034791906137f4565b6111b0565b005b610368600480360381019061036391906137a0565b611511565b005b34801561037657600080fd5b5061037f61164e565b60405161038c9190613dce565b60405180910390f35b3480156103a157600080fd5b506103aa611707565b005b3480156103b857600080fd5b506103d360048036038101906103ce9190613929565b611a9d565b6040516103e09190613db3565b60405180910390f35b3480156103f557600080fd5b50610410600480360381019061040b919061374e565b611b08565b60405161041d9190613fc6565b60405180910390f35b34801561043257600080fd5b5061043b611b8d565b6040516104489190613dce565b60405180910390f35b34801561045d57600080fd5b506104786004803603810190610473919061374e565b611b94565b6040516104859190613fc6565b60405180910390f35b34801561049a57600080fd5b506104b560048036038101906104b0919061374e565b611c2c565b6040516104c29190613fc6565b60405180910390f35b3480156104d757600080fd5b506104f260048036038101906104ed9190613929565b611cb1565b005b34801561050057600080fd5b5061051b6004803603810190610516919061374e565b611cd2565b6040516105289190613db3565b60405180910390f35b34801561053d57600080fd5b50610546611e80565b6040516105539190613fc6565b60405180910390f35b34801561056857600080fd5b50610583600480360381019061057e91906139b7565b611ec6565b005b34801561059157600080fd5b5061059a6122f3565b6040516105a79190613dce565b60405180910390f35b3480156105bc57600080fd5b506105c5612317565b6040516105d29190613dce565b60405180910390f35b3480156105e757600080fd5b5061060260048036038101906105fd91906137f4565b61233b565b005b60007f7965db0b000000000000000000000000000000000000000000000000000000007bffffffffffffffffffffffffffffffffffffffffffffffffffffffff1916827bffffffffffffffffffffffffffffffffffffffffffffffffffffffff191614806106775750610676826127e2565b5b9050919050565b610692672b9b34846c65e53160c01b61284c565b6106a66730e5a2c69e9c2e2f60c01b61284c565b6106ba675209c0bcb70d842b60c01b61284c565b6106ce672c1c923f17535e6560c01b61284c565b600060fd60008373ffffffffffffffffffffffffffffffffffffffff1673ffffffffffffffffffffffffffffffffffffffff16815260200190815260200160002054116040518060400160405280600381526020017f313236000000000000000000000000000000000000000000000000000000000081525090610788576040517f08c379a000000000000000000000000000000000000000000000000000000000815260040161077f9190613e04565b60405180910390fd5b5061079d67c57d1ffc5670b92360c01b61284c565b6107b167e459f15caa67855b60c01b61284c565b6107c567edb1b571e5a699b760c01b61284c565b60006107d082611b94565b90506107e6677ddd3471519e729960c01b61284c565b8060fc60008282546107f891906140cc565b9250508190555061081367f5f11ebdac5034f160c01b61284c565b610827678ef7c410db337d8d60c01b61284c565b8060fe60008473ffffffffffffffffffffffffffffffffffffffff1673ffffffffffffffffffffffffffffffffffffffff16815260200190815260200160002060008282540192505081905550610888676eb9af4c7615224f60c01b61284c565b61089c676632cefd4037e29360c01b61284c565b6108a6828261284f565b6108ba671beb47147ae44ef860c01b61284c565b6108ce672cfa3ece2f8c1f6260c01b61284c565b808273ffffffffffffffffffffffffffffffffffffffff167fdf20fd1e76bc69d672e4814fafb2c449bba3a5369d8359adf9e05e6fde87b05660405160405180910390a35050565b61092a67deb58616c39db16a60c01b61284c565b60008060019054906101000a900460ff1615905080801561095b5750600160008054906101000a900460ff1660ff16105b80610988575061096a30612943565b1580156109875750600160008054906101000a900460ff1660ff16145b5b6109c7576040517f08c379a00000000000000000000000000000000000000000000000000000000081526004016109be90613f06565b60405180910390fd5b60016000806101000a81548160ff021916908360ff1602179055508015610a04576001600060016101000a81548160ff0219169083151502179055505b610a1867a7624cc6f8da086a60c01b61284c565b610a2c671b440c5da5dad96d60c01b61284c565b610a40679044621e16230f0e60c01b61284c565b610a5467ac7b6e447f57533e60c01b61284c565b610a616000801b85612966565b610a756771216f4baa1fe11560c01b61284c565b610a8967239f0894f41c219d60c01b61284c565b610ab37ffbd454f36a7e1a388bd6fc3ab10d434aa4578f811acbbcf33afb1c697486313c84612966565b610ac7671ef16c1d268f3b5560c01b61284c565b610adb67802e0b1c27ac54d960c01b61284c565b610b057f189ab7a9244df0848122154315af71fe140f3db0fe014031783b0946b8c9d2e383612966565b610b196736bcff6a0155ac3d60c01b61284c565b610b2d678d700b9623b7314360c01b61284c565b610b3a6000801b33612a47565b610b4e67a2360fc80a462dce60c01b61284c565b610b62674df837670d6d6eb560c01b61284c565b610b6a612b29565b610b7e67c074a9ef876f253d60c01b61284c565b610b9267822c35accfc493c860c01b61284c565b610b9a612b7a565b610bae67a873566828d7375960c01b61284c565b610bc267c75610135fe9255c60c01b61284c565b60005b8651811015610dec57610be2678c14642bbaa1949460c01b61284c565b610bf6679c229aef734c1b3060c01b61284c565b60ff878281518110610c31577f4e487b7100000000000000000000000000000000000000000000000000000000600052603260045260246000fd5b60200260200101519080600181540180825580915050600190039060005260206000200160009091909190916101000a81548173ffffffffffffffffffffffffffffffffffffffff021916908373ffffffffffffffffffffffffffffffffffffffff160217905550610cad67be4ef463e93e494660c01b61284c565b858181518110610ce6577f4e487b7100000000000000000000000000000000000000000000000000000000600052603260045260246000fd5b602002602001015160fd6000898481518110610d2b577f4e487b7100000000000000000000000000000000000000000000000000000000600052603260045260246000fd5b602002602001015173ffffffffffffffffffffffffffffffffffffffff1673ffffffffffffffffffffffffffffffffffffffff16815260200190815260200160002081905550610d85676ec2f470b59e1a8d60c01b61284c565b858181518110610dbe577f4e487b7100000000000000000000000000000000000000000000000000000000600052603260045260246000fd5b602002602001015160fb54610dd391906140cc565b60fb819055508080610de49061432d565b915050610bc5565b508015610e465760008060016101000a81548160ff0219169083151502179055507f7f26b83ff96e1f2b6a682f133852f6798a09c465da95921460cefb38474024986001604051610e3d9190613de9565b60405180910390a15b505050505050565b600060656000838152602001908152602001600020600101549050919050565b610e7782610e4e565b610e8081612bcb565b610e8a8383612966565b505050565b6000610ea567c063e08a95df298d60c01b61284c565b610eb967c012936394b3a4c860c01b61284c565b610ecd67836849c499d431cc60c01b61284c565b60ff8281548110610f07577f4e487b7100000000000000000000000000000000000000000000000000000000600052603260045260246000fd5b9060005260206000200160009054906101000a900473ffffffffffffffffffffffffffffffffffffffff169050919050565b610f41612bdf565b73ffffffffffffffffffffffffffffffffffffffff168173ffffffffffffffffffffffffffffffffffffffff1614610fae576040517f08c379a0000000000000000000000000000000000000000000000000000000008152600401610fa590613fa6565b60405180910390fd5b610fb88282612a47565b5050565b7f000000000000000000000000000000000000000000000000000000000000000073ffffffffffffffffffffffffffffffffffffffff163073ffffffffffffffffffffffffffffffffffffffff16141561104b576040517f08c379a000000000000000000000000000000000000000000000000000000000815260040161104290613e46565b60405180910390fd5b7f000000000000000000000000000000000000000000000000000000000000000073ffffffffffffffffffffffffffffffffffffffff1661108a612be7565b73ffffffffffffffffffffffffffffffffffffffff16146110e0576040517f08c379a00000000000000000000000000000000000000000000000000000000081526004016110d790613e86565b60405180910390fd5b6110e981612c3e565b61116881600067ffffffffffffffff81111561112e577f4e487b7100000000000000000000000000000000000000000000000000000000600052604160045260246000fd5b6040519080825280601f01601f1916602001820160405280156111605781602001600182028036833780820191505090505b506000612ca8565b50565b600061118167d213799a04342a0560c01b61284c565b61119466ab604098d216e060c01b61284c565b6111a8673568c296bcda752c60c01b61284c565b60fb54905090565b6111c4674473c5ecebb15d1c60c01b61284c565b7ffbd454f36a7e1a388bd6fc3ab10d434aa4578f811acbbcf33afb1c697486313c6111ee81612bcb565b61120267e0d4ff69272ef6e760c01b61284c565b61121667dcefcebc04b0ecb160c01b61284c565b61122a675ac48abb97137faf60c01b61284c565b61123e67996a973d9dae212060c01b61284c565b6112526795665b47d8a7067d60c01b61284c565b6000151561125f84611cd2565b1515146040518060400160405280600381526020017f3132370000000000000000000000000000000000000000000000000000000000815250906112d9576040517f08c379a00000000000000000000000000000000000000000000000000000000081526004016112d09190613e04565b60405180910390fd5b506112ee67e26064a41ccda33a60c01b61284c565b61130267643d71d811ca486a60c01b61284c565b6113166703b3be5067faa44060c01b61284c565b61132a675568e5a1892e032660c01b61284c565b600082116040518060400160405280600381526020017f3132380000000000000000000000000000000000000000000000000000000000815250906113a5576040517f08c379a000000000000000000000000000000000000000000000000000000000815260040161139c9190613e04565b60405180910390fd5b506113ba677c1ce75754e2773a60c01b61284c565b6113ce678bd0b44f3419e3ba60c01b61284c565b60fd60008473ffffffffffffffffffffffffffffffffffffffff1673ffffffffffffffffffffffffffffffffffffffff1681526020019081526020016000205460fb600082825461141f91906141ad565b9250508190555061143a67be52a9ce7720952d60c01b61284c565b8160fb600082825461144c91906140cc565b9250508190555061146767eafe5293c83d805d60c01b61284c565b8160fd60008573ffffffffffffffffffffffffffffffffffffffff1673ffffffffffffffffffffffffffffffffffffffff168152602001908152602001600020819055506114bf675aaadbea5bb2275260c01b61284c565b6114d36731296b0dedf914c260c01b61284c565b7f63c73b6ba0c6dd96222f5ff08a3755fab02dedf0d99c3085703fa9c05eebf5208383604051611504929190613d8a565b60405180910390a1505050565b7f000000000000000000000000000000000000000000000000000000000000000073ffffffffffffffffffffffffffffffffffffffff163073ffffffffffffffffffffffffffffffffffffffff1614156115a0576040517f08c379a000000000000000000000000000000000000000000000000000000000815260040161159790613e46565b60405180910390fd5b7f000000000000000000000000000000000000000000000000000000000000000073ffffffffffffffffffffffffffffffffffffffff166115df612be7565b73ffffffffffffffffffffffffffffffffffffffff1614611635576040517f08c379a000000000000000000000000000000000000000000000000000000000815260040161162c90613e86565b60405180910390fd5b61163e82612c3e565b61164a82826001612ca8565b5050565b60007f000000000000000000000000000000000000000000000000000000000000000073ffffffffffffffffffffffffffffffffffffffff163073ffffffffffffffffffffffffffffffffffffffff16146116de576040517f08c379a00000000000000000000000000000000000000000000000000000000081526004016116d590613ec6565b60405180910390fd5b7f360894a13ba1a3210667c828492db98dca3e2076cc3735a920a3ca505d382bbc60001b905090565b61171b67b2a7616bcb17354e60c01b61284c565b61172f67c600a0b21933790460c01b61284c565b61174367ad082c7881d4374160c01b61284c565b60005b60ff80549050811015611a9a5761176767e5ba0fdafb8a985360c01b61284c565b61177b676734e519328e967960c01b61284c565b60006117ea60ff83815481106117ba577f4e487b7100000000000000000000000000000000000000000000000000000000600052603260045260246000fd5b9060005260206000200160009054906101000a900473ffffffffffffffffffffffffffffffffffffffff16611b94565b9050611800676a531fbdedd0129760c01b61284c565b8060fc600082825461181291906140cc565b9250508190555061182d672da33076f603a34360c01b61284c565b6118416704ac89eb021266cd60c01b61284c565b8060fe600060ff8581548110611880577f4e487b7100000000000000000000000000000000000000000000000000000000600052603260045260246000fd5b9060005260206000200160009054906101000a900473ffffffffffffffffffffffffffffffffffffffff1673ffffffffffffffffffffffffffffffffffffffff1673ffffffffffffffffffffffffffffffffffffffff168152602001908152602001600020600082825401925050819055506119066719b959fa790b2f1760c01b61284c565b61191a675c119ab59b5259b660c01b61284c565b600060ff8381548110611956577f4e487b7100000000000000000000000000000000000000000000000000000000600052603260045260246000fd5b9060005260206000200160009054906101000a900473ffffffffffffffffffffffffffffffffffffffff16905061199767beb3737a1c89ea2b60c01b61284c565b6119ab674ba122b401c7937060c01b61284c565b6119b5818361284f565b6119c96786e6be1ad83a3d0160c01b61284c565b6119dd674ec34da0aa42e52960c01b61284c565b8160ff8481548110611a18577f4e487b7100000000000000000000000000000000000000000000000000000000600052603260045260246000fd5b9060005260206000200160009054906101000a900473ffffffffffffffffffffffffffffffffffffffff1673ffffffffffffffffffffffffffffffffffffffff167fdf20fd1e76bc69d672e4814fafb2c449bba3a5369d8359adf9e05e6fde87b05660405160405180910390a350508080611a929061432d565b915050611746565b50565b60006065600084815260200190815260200160002060000160008373ffffffffffffffffffffffffffffffffffffffff1673ffffffffffffffffffffffffffffffffffffffff16815260200190815260200160002060009054906101000a900460ff16905092915050565b6000611b1e674f9f598482d88c2260c01b61284c565b611b3267df3c500c95a62eca60c01b61284c565b611b4667f8b76862e21af08360c01b61284c565b60fe60008373ffffffffffffffffffffffffffffffffffffffff1673ffffffffffffffffffffffffffffffffffffffff168152602001908152602001600020549050919050565b6000801b81565b6000611baa6757a01c8bd3f4d7d860c01b61284c565b611bbe6788e6631637cc58ce60c01b61284c565b611bd267f24fc5c248b4fc1160c01b61284c565b6000611bdc611e80565b47611be791906140cc565b9050611bfd67561d86d62baaba0b60c01b61284c565b611c11679895b8da1827604a60c01b61284c565b611c248382611c1f86611b08565b612e25565b915050919050565b6000611c4267bfff5fccccec39e160c01b61284c565b611c566701544b54e49426b360c01b61284c565b611c6a67d61528ad998ded9b60c01b61284c565b60fd60008373ffffffffffffffffffffffffffffffffffffffff1673ffffffffffffffffffffffffffffffffffffffff168152602001908152602001600020549050919050565b611cba82610e4e565b611cc381612bcb565b611ccd8383612a47565b505050565b6000611ce86728bb7b072bcbfb9960c01b61284c565b611cfc67910ab24ccfa2632760c01b61284c565b611d10672d3f50ad99a2590860c01b61284c565b60005b60ff80549050811015611e4d57611d3467e7c42cf70984963b60c01b61284c565b611d4867b1833b3eb742caf460c01b61284c565b8273ffffffffffffffffffffffffffffffffffffffff1660ff8281548110611d99577f4e487b7100000000000000000000000000000000000000000000000000000000600052603260045260246000fd5b9060005260206000200160009054906101000a900473ffffffffffffffffffffffffffffffffffffffff1673ffffffffffffffffffffffffffffffffffffffff161415611e2657611df46796eea449c7cc4ff460c01b61284c565b611e0867f9eca2bfa55dfe9d60c01b61284c565b611e1c67bff3246b47ec76f560c01b61284c565b6000915050611e7b565b611e3a67a76e22d2d81cc52660c01b61284c565b8080611e459061432d565b915050611d13565b50611e626785221404a20988b060c01b61284c565b611e76671c2ff44718cb779a60c01b61284c565b600190505b919050565b6000611e9667d00e1f2c162682f760c01b61284c565b611eaa672e39b116b32923c460c01b61284c565b611ebe6790e549dca071cdde60c01b61284c565b60fc54905090565b611eda67bc3d087e78086f6660c01b61284c565b7ffbd454f36a7e1a388bd6fc3ab10d434aa4578f811acbbcf33afb1c697486313c611f0481612bcb565b611f18674e3a48fac3f600b460c01b61284c565b611f2c678e5ada6a314136c860c01b61284c565b611f406766cff308efeca43d60c01b61284c565b611f5467e998fcb09f41bb1160c01b61284c565b611f68674e90af3b675a16f460c01b61284c565b600073ffffffffffffffffffffffffffffffffffffffff168273ffffffffffffffffffffffffffffffffffffffff1614156040518060400160405280600381526020017f313233000000000000000000000000000000000000000000000000000000000081525090612010576040517f08c379a00000000000000000000000000000000000000000000000000000000081526004016120079190613e04565b60405180910390fd5b50612025675b9dd09a35ade1a060c01b61284c565b6120396798c925b61779e30360c01b61284c565b61204d67ea426bf6e009c7ce60c01b61284c565b600060ff8481548110612089577f4e487b7100000000000000000000000000000000000000000000000000000000600052603260045260246000fd5b9060005260206000200160009054906101000a900473ffffffffffffffffffffffffffffffffffffffff1690506120ca67afc5438fd32a421c60c01b61284c565b6120de67853ed812546f51a560c01b61284c565b600060fd60008373ffffffffffffffffffffffffffffffffffffffff1673ffffffffffffffffffffffffffffffffffffffff16815260200190815260200160002054905061213667a3ff845c260270f260c01b61284c565b600060fd60008473ffffffffffffffffffffffffffffffffffffffff1673ffffffffffffffffffffffffffffffffffffffff1681526020019081526020016000208190555061218f67a1b73bc006dec84260c01b61284c565b8060fd60008673ffffffffffffffffffffffffffffffffffffffff1673ffffffffffffffffffffffffffffffffffffffff168152602001908152602001600020819055506121e76770b5974371dcfb4960c01b61284c565b8360ff8681548110612222577f4e487b7100000000000000000000000000000000000000000000000000000000600052603260045260246000fd5b9060005260206000200160006101000a81548173ffffffffffffffffffffffffffffffffffffffff021916908373ffffffffffffffffffffffffffffffffffffffff16021790555061227e675ee9738f665d54b260c01b61284c565b612292675fe0030c43716a0660c01b61284c565b8373ffffffffffffffffffffffffffffffffffffffff168273ffffffffffffffffffffffffffffffffffffffff167f2b0f020fc2ca0df9e227d90fbc27227ec945336ab8036526c0ed27f713909aa060405160405180910390a35050505050565b7ffbd454f36a7e1a388bd6fc3ab10d434aa4578f811acbbcf33afb1c697486313c81565b7f189ab7a9244df0848122154315af71fe140f3db0fe014031783b0946b8c9d2e381565b61234f674cc1aab7dfb4234a60c01b61284c565b7ffbd454f36a7e1a388bd6fc3ab10d434aa4578f811acbbcf33afb1c697486313c61237981612bcb565b61238d6737813be498fd511f60c01b61284c565b6123a167cc545355ed6ffba060c01b61284c565b6123b567192ca8e71025879660c01b61284c565b6123c967e51a767f3584ad3f60c01b61284c565b6123dd67a35be76124b5662160c01b61284c565b600073ffffffffffffffffffffffffffffffffffffffff168373ffffffffffffffffffffffffffffffffffffffff1614156040518060400160405280600381526020017f313035000000000000000000000000000000000000000000000000000000000081525090612485576040517f08c379a000000000000000000000000000000000000000000000000000000000815260040161247c9190613e04565b60405180910390fd5b5061249a6710361a5d88a561cf60c01b61284c565b6124ae67d6063a40e5e1cb8660c01b61284c565b6124c26707421fac31f4fb2860c01b61284c565b6124d667a13349ebf2416deb60c01b61284c565b600082116040518060400160405280600381526020017f313238000000000000000000000000000000000000000000000000000000000081525090612551576040517f08c379a00000000000000000000000000000000000000000000000000000000081526004016125489190613e04565b60405180910390fd5b5061256667924e9267c21b681b60c01b61284c565b61257a67dfb240a03b13724f60c01b61284c565b61258e67fc521a979259057260c01b61284c565b6125a267360079afbc17406a60c01b61284c565b600060fd60008573ffffffffffffffffffffffffffffffffffffffff1673ffffffffffffffffffffffffffffffffffffffff16815260200190815260200160002054146040518060400160405280600381526020017f31323900000000000000000000000000000000000000000000000000000000008152509061265c576040517f08c379a00000000000000000000000000000000000000000000000000000000081526004016126539190613e04565b60405180910390fd5b50612671675e48b0cedab0254060c01b61284c565b612685673c565239ba23ed9b60c01b61284c565b612699673e094ff2b5437b3460c01b61284c565b60ff839080600181540180825580915050600190039060005260206000200160009091909190916101000a81548173ffffffffffffffffffffffffffffffffffffffff021916908373ffffffffffffffffffffffffffffffffffffffff16021790555061271067e85d1443ccdad73c60c01b61284c565b8160fd60008573ffffffffffffffffffffffffffffffffffffffff1673ffffffffffffffffffffffffffffffffffffffff1681526020019081526020016000208190555061276867f1b092fa9e66919d60c01b61284c565b8160fb5461277691906140cc565b60fb8190555061279067612d8fde64abf60d60c01b61284c565b6127a467b424703ceb58a37660c01b61284c565b7f9000b209805850a65058f21361a9978cb30f1413ed555553ab52a59b440b5d9983836040516127d5929190613d8a565b60405180910390a1505050565b60007f01ffc9a7000000000000000000000000000000000000000000000000000000007bffffffffffffffffffffffffffffffffffffffffffffffffffffffff1916827bffffffffffffffffffffffffffffffffffffffffffffffffffffffff1916149050919050565b50565b80471015612892576040517f08c379a000000000000000000000000000000000000000000000000000000000815260040161288990613ea6565b60405180910390fd5b60008273ffffffffffffffffffffffffffffffffffffffff16826040516128b890613d20565b60006040518083038185875af1925050503d80600081146128f5576040519150601f19603f3d011682016040523d82523d6000602084013e6128fa565b606091505b505090508061293e576040517f08c379a000000000000000000000000000000000000000000000000000000000815260040161293590613e66565b60405180910390fd5b505050565b6000808273ffffffffffffffffffffffffffffffffffffffff163b119050919050565b6129708282611a9d565b612a435760016065600084815260200190815260200160002060000160008373ffffffffffffffffffffffffffffffffffffffff1673ffffffffffffffffffffffffffffffffffffffff16815260200190815260200160002060006101000a81548160ff0219169083151502179055506129e8612bdf565b73ffffffffffffffffffffffffffffffffffffffff168173ffffffffffffffffffffffffffffffffffffffff16837f2f8788117e7eff1d82e926ec794901d17c78024a50270940304540a733656f0d60405160405180910390a45b5050565b612a518282611a9d565b15612b255760006065600084815260200190815260200160002060000160008373ffffffffffffffffffffffffffffffffffffffff1673ffffffffffffffffffffffffffffffffffffffff16815260200190815260200160002060006101000a81548160ff021916908315150217905550612aca612bdf565b73ffffffffffffffffffffffffffffffffffffffff168173ffffffffffffffffffffffffffffffffffffffff16837ff6391f5c32d9c69d2a47ea670b442974b53935d1edc7fd64eb21e047a839171b60405160405180910390a45b5050565b600060019054906101000a900460ff16612b78576040517f08c379a0000000000000000000000000000000000000000000000000000000008152600401612b6f90613f86565b60405180910390fd5b565b600060019054906101000a900460ff16612bc9576040517f08c379a0000000000000000000000000000000000000000000000000000000008152600401612bc090613f86565b60405180910390fd5b565b612bdc81612bd7612bdf565b612ecf565b50565b600033905090565b6000612c157f360894a13ba1a3210667c828492db98dca3e2076cc3735a920a3ca505d382bbc60001b612f54565b60000160009054906101000a900473ffffffffffffffffffffffffffffffffffffffff16905090565b612c5267aa66ac68aa949f9060c01b61284c565b7f189ab7a9244df0848122154315af71fe140f3db0fe014031783b0946b8c9d2e3612c7c81612bcb565b612c9067d3ad7469f09c609a60c01b61284c565b612ca467c25f804b19eea41160c01b61284c565b5050565b612cd47f4910fdfa16fed3260ed0e7147f7cc6da11a60208b5b9406d12a635614ffd914360001b612f5e565b60000160009054906101000a900460ff1615612cf857612cf383612f68565b612e20565b8273ffffffffffffffffffffffffffffffffffffffff166352d1902d6040518163ffffffff1660e01b815260040160206040518083038186803b158015612d3e57600080fd5b505afa925050508015612d6f57506040513d601f19601f82011682018060405250810190612d6c9190613900565b60015b612dae576040517f08c379a0000000000000000000000000000000000000000000000000000000008152600401612da590613f26565b60405180910390fd5b7f360894a13ba1a3210667c828492db98dca3e2076cc3735a920a3ca505d382bbc60001b8114612e13576040517f08c379a0000000000000000000000000000000000000000000000000000000008152600401612e0a90613ee6565b60405180910390fd5b50612e1f838383613021565b5b505050565b6000612e3b6767bc3b0009d85b5c60c01b61284c565b612e4f67446966b6fef857e360c01b61284c565b612e6367bc067ae79ce9be7960c01b61284c565b8160fb5460fd60008773ffffffffffffffffffffffffffffffffffffffff1673ffffffffffffffffffffffffffffffffffffffff1681526020019081526020016000205485612eb29190614153565b612ebc9190614122565b612ec691906141ad565b90509392505050565b612ed98282611a9d565b612f5057612ee68161304d565b612ef48360001c602061307a565b604051602001612f05929190613d35565b6040516020818303038152906040526040517f08c379a0000000000000000000000000000000000000000000000000000000008152600401612f479190613e04565b60405180910390fd5b5050565b6000819050919050565b6000819050919050565b612f7181612943565b612fb0576040517f08c379a0000000000000000000000000000000000000000000000000000000008152600401612fa790613f46565b60405180910390fd5b80612fdd7f360894a13ba1a3210667c828492db98dca3e2076cc3735a920a3ca505d382bbc60001b612f54565b60000160006101000a81548173ffffffffffffffffffffffffffffffffffffffff021916908373ffffffffffffffffffffffffffffffffffffffff16021790555050565b61302a83613374565b6000825111806130375750805b156130485761304683836133c3565b505b505050565b60606130738273ffffffffffffffffffffffffffffffffffffffff16601460ff1661307a565b9050919050565b60606000600283600261308d9190614153565b61309791906140cc565b67ffffffffffffffff8111156130d6577f4e487b7100000000000000000000000000000000000000000000000000000000600052604160045260246000fd5b6040519080825280601f01601f1916602001820160405280156131085781602001600182028036833780820191505090505b5090507f300000000000000000000000000000000000000000000000000000000000000081600081518110613166577f4e487b7100000000000000000000000000000000000000000000000000000000600052603260045260246000fd5b60200101907effffffffffffffffffffffffffffffffffffffffffffffffffffffffffffff1916908160001a9053507f7800000000000000000000000000000000000000000000000000000000000000816001815181106131f0577f4e487b7100000000000000000000000000000000000000000000000000000000600052603260045260246000fd5b60200101907effffffffffffffffffffffffffffffffffffffffffffffffffffffffffffff1916908160001a905350600060018460026132309190614153565b61323a91906140cc565b90505b6001811115613326577f3031323334353637383961626364656600000000000000000000000000000000600f8616601081106132a2577f4e487b7100000000000000000000000000000000000000000000000000000000600052603260045260246000fd5b1a60f81b8282815181106132df577f4e487b7100000000000000000000000000000000000000000000000000000000600052603260045260246000fd5b60200101907effffffffffffffffffffffffffffffffffffffffffffffffffffffffffffff1916908160001a905350600485901c94508061331f906142d2565b905061323d565b506000841461336a576040517f08c379a000000000000000000000000000000000000000000000000000000000815260040161336190613e26565b60405180910390fd5b8091505092915050565b61337d81612f68565b8073ffffffffffffffffffffffffffffffffffffffff167fbc7cd75a20ee27fd9adebab32041f755214dbc6bffa90cc0225b39da2e5c2d3b60405160405180910390a250565b60606133e8838360405180606001604052806027815260200161486e602791396133f0565b905092915050565b60606000808573ffffffffffffffffffffffffffffffffffffffff168560405161341a9190613d09565b600060405180830381855af49150503d8060008114613455576040519150601f19603f3d011682016040523d82523d6000602084013e61345a565b606091505b509150915061346b86838387613476565b925050509392505050565b606083156134d9576000835114156134d15761349185612943565b6134d0576040517f08c379a00000000000000000000000000000000000000000000000000000000081526004016134c790613f66565b60405180910390fd5b5b8290506134e4565b6134e383836134ec565b5b949350505050565b6000825111156134ff5781518083602001fd5b806040517f08c379a00000000000000000000000000000000000000000000000000000000081526004016135339190613e04565b60405180910390fd5b600061354f61354a84614006565b613fe1565b9050808382526020820190508285602086028201111561356e57600080fd5b60005b8581101561359e57816135848882613652565b845260208401935060208301925050600181019050613571565b5050509392505050565b60006135bb6135b684614032565b613fe1565b905080838252602082019050828560208602820111156135da57600080fd5b60005b8581101561360a57816135f08882613739565b8452602084019350602083019250506001810190506135dd565b5050509392505050565b60006136276136228461405e565b613fe1565b90508281526020810184848401111561363f57600080fd5b61364a848285614290565b509392505050565b600081359050613661816147fa565b92915050565b60008135905061367681614811565b92915050565b600082601f83011261368d57600080fd5b813561369d84826020860161353c565b91505092915050565b600082601f8301126136b757600080fd5b81356136c78482602086016135a8565b91505092915050565b6000813590506136df81614828565b92915050565b6000815190506136f481614828565b92915050565b6000813590506137098161483f565b92915050565b600082601f83011261372057600080fd5b8135613730848260208601613614565b91505092915050565b60008135905061374881614856565b92915050565b60006020828403121561376057600080fd5b600061376e84828501613652565b91505092915050565b60006020828403121561378957600080fd5b600061379784828501613667565b91505092915050565b600080604083850312156137b357600080fd5b60006137c185828601613652565b925050602083013567ffffffffffffffff8111156137de57600080fd5b6137ea8582860161370f565b9150509250929050565b6000806040838503121561380757600080fd5b600061381585828601613652565b925050602061382685828601613739565b9150509250929050565b600080600080600060a0868803121561384857600080fd5b600086013567ffffffffffffffff81111561386257600080fd5b61386e8882890161367c565b955050602086013567ffffffffffffffff81111561388b57600080fd5b613897888289016136a6565b94505060406138a888828901613652565b93505060606138b988828901613652565b92505060806138ca88828901613652565b9150509295509295909350565b6000602082840312156138e957600080fd5b60006138f7848285016136d0565b91505092915050565b60006020828403121561391257600080fd5b6000613920848285016136e5565b91505092915050565b6000806040838503121561393c57600080fd5b600061394a858286016136d0565b925050602061395b85828601613652565b9150509250929050565b60006020828403121561397757600080fd5b6000613985848285016136fa565b91505092915050565b6000602082840312156139a057600080fd5b60006139ae84828501613739565b91505092915050565b600080604083850312156139ca57600080fd5b60006139d885828601613739565b92505060206139e985828601613652565b9150509250929050565b6139fc816141e1565b82525050565b613a0b81614205565b82525050565b613a1a81614211565b82525050565b6000613a2b8261408f565b613a3581856140a5565b9350613a4581856020860161429f565b80840191505092915050565b613a5a8161427e565b82525050565b6000613a6b8261409a565b613a7581856140b0565b9350613a8581856020860161429f565b613a8e81614403565b840191505092915050565b6000613aa48261409a565b613aae81856140c1565b9350613abe81856020860161429f565b80840191505092915050565b6000613ad76020836140b0565b9150613ae282614414565b602082019050919050565b6000613afa602c836140b0565b9150613b058261443d565b604082019050919050565b6000613b1d603a836140b0565b9150613b288261448c565b604082019050919050565b6000613b40602c836140b0565b9150613b4b826144db565b604082019050919050565b6000613b63601d836140b0565b9150613b6e8261452a565b602082019050919050565b6000613b866038836140b0565b9150613b9182614553565b604082019050919050565b6000613ba96029836140b0565b9150613bb4826145a2565b604082019050919050565b6000613bcc602e836140b0565b9150613bd7826145f1565b604082019050919050565b6000613bef602e836140b0565b9150613bfa82614640565b604082019050919050565b6000613c12602d836140b0565b9150613c1d8261468f565b604082019050919050565b6000613c356000836140a5565b9150613c40826146de565b600082019050919050565b6000613c58601d836140b0565b9150613c63826146e1565b602082019050919050565b6000613c7b602b836140b0565b9150613c868261470a565b604082019050919050565b6000613c9e6017836140c1565b9150613ca982614759565b601782019050919050565b6000613cc16011836140c1565b9150613ccc82614782565b601182019050919050565b6000613ce4602f836140b0565b9150613cef826147ab565b604082019050919050565b613d0381614267565b82525050565b6000613d158284613a20565b915081905092915050565b6000613d2b82613c28565b9150819050919050565b6000613d4082613c91565b9150613d4c8285613a99565b9150613d5782613cb4565b9150613d638284613a99565b91508190509392505050565b6000602082019050613d8460008301846139f3565b92915050565b6000604082019050613d9f60008301856139f3565b613dac6020830184613cfa565b9392505050565b6000602082019050613dc86000830184613a02565b92915050565b6000602082019050613de36000830184613a11565b92915050565b6000602082019050613dfe6000830184613a51565b92915050565b60006020820190508181036000830152613e1e8184613a60565b905092915050565b60006020820190508181036000830152613e3f81613aca565b9050919050565b60006020820190508181036000830152613e5f81613aed565b9050919050565b60006020820190508181036000830152613e7f81613b10565b9050919050565b60006020820190508181036000830152613e9f81613b33565b9050919050565b60006020820190508181036000830152613ebf81613b56565b9050919050565b60006020820190508181036000830152613edf81613b79565b9050919050565b60006020820190508181036000830152613eff81613b9c565b9050919050565b60006020820190508181036000830152613f1f81613bbf565b9050919050565b60006020820190508181036000830152613f3f81613be2565b9050919050565b60006020820190508181036000830152613f5f81613c05565b9050919050565b60006020820190508181036000830152613f7f81613c4b565b9050919050565b60006020820190508181036000830152613f9f81613c6e565b9050919050565b60006020820190508181036000830152613fbf81613cd7565b9050919050565b6000602082019050613fdb6000830184613cfa565b92915050565b6000613feb613ffc565b9050613ff782826142fc565b919050565b6000604051905090565b600067ffffffffffffffff821115614021576140206143d4565b5b602082029050602081019050919050565b600067ffffffffffffffff82111561404d5761404c6143d4565b5b602082029050602081019050919050565b600067ffffffffffffffff821115614079576140786143d4565b5b61408282614403565b9050602081019050919050565b600081519050919050565b600081519050919050565b600081905092915050565b600082825260208201905092915050565b600081905092915050565b60006140d782614267565b91506140e283614267565b9250827fffffffffffffffffffffffffffffffffffffffffffffffffffffffffffffffff0382111561411757614116614376565b5b828201905092915050565b600061412d82614267565b915061413883614267565b925082614148576141476143a5565b5b828204905092915050565b600061415e82614267565b915061416983614267565b9250817fffffffffffffffffffffffffffffffffffffffffffffffffffffffffffffffff04831182151516156141a2576141a1614376565b5b828202905092915050565b60006141b882614267565b91506141c383614267565b9250828210156141d6576141d5614376565b5b828203905092915050565b60006141ec82614247565b9050919050565b60006141fe82614247565b9050919050565b60008115159050919050565b6000819050919050565b60007fffffffff0000000000000000000000000000000000000000000000000000000082169050919050565b600073ffffffffffffffffffffffffffffffffffffffff82169050919050565b6000819050919050565b600060ff82169050919050565b600061428982614271565b9050919050565b82818337600083830152505050565b60005b838110156142bd5780820151818401526020810190506142a2565b838111156142cc576000848401525b50505050565b60006142dd82614267565b915060008214156142f1576142f0614376565b5b600182039050919050565b61430582614403565b810181811067ffffffffffffffff82111715614324576143236143d4565b5b80604052505050565b600061433882614267565b91507fffffffffffffffffffffffffffffffffffffffffffffffffffffffffffffffff82141561436b5761436a614376565b5b600182019050919050565b7f4e487b7100000000000000000000000000000000000000000000000000000000600052601160045260246000fd5b7f4e487b7100000000000000000000000000000000000000000000000000000000600052601260045260246000fd5b7f4e487b7100000000000000000000000000000000000000000000000000000000600052604160045260246000fd5b6000601f19601f8301169050919050565b7f537472696e67733a20686578206c656e67746820696e73756666696369656e74600082015250565b7f46756e6374696f6e206d7573742062652063616c6c6564207468726f7567682060008201527f64656c656761746563616c6c0000000000000000000000000000000000000000602082015250565b7f416464726573733a20756e61626c6520746f2073656e642076616c75652c207260008201527f6563697069656e74206d61792068617665207265766572746564000000000000602082015250565b7f46756e6374696f6e206d7573742062652063616c6c6564207468726f7567682060008201527f6163746976652070726f78790000000000000000000000000000000000000000602082015250565b7f416464726573733a20696e73756666696369656e742062616c616e6365000000600082015250565b7f555550535570677261646561626c653a206d757374206e6f742062652063616c60008201527f6c6564207468726f7567682064656c656761746563616c6c0000000000000000602082015250565b7f45524331393637557067726164653a20756e737570706f727465642070726f7860008201527f6961626c65555549440000000000000000000000000000000000000000000000602082015250565b7f496e697469616c697a61626c653a20636f6e747261637420697320616c72656160008201527f647920696e697469616c697a6564000000000000000000000000000000000000602082015250565b7f45524331393637557067726164653a206e657720696d706c656d656e7461746960008201527f6f6e206973206e6f742055555053000000000000000000000000000000000000602082015250565b7f455243313936373a206e657720696d706c656d656e746174696f6e206973206e60008201527f6f74206120636f6e747261637400000000000000000000000000000000000000602082015250565b50565b7f416464726573733a2063616c6c20746f206e6f6e2d636f6e7472616374000000600082015250565b7f496e697469616c697a61626c653a20636f6e7472616374206973206e6f74206960008201527f6e697469616c697a696e67000000000000000000000000000000000000000000602082015250565b7f416363657373436f6e74726f6c3a206163636f756e7420000000000000000000600082015250565b7f206973206d697373696e6720726f6c6520000000000000000000000000000000600082015250565b7f416363657373436f6e74726f6c3a2063616e206f6e6c792072656e6f756e636560008201527f20726f6c657320666f722073656c660000000000000000000000000000000000602082015250565b614803816141e1565b811461480e57600080fd5b50565b61481a816141f3565b811461482557600080fd5b50565b61483181614211565b811461483c57600080fd5b50565b6148488161421b565b811461485357600080fd5b50565b61485f81614267565b811461486a57600080fd5b5056fe416464726573733a206c6f772d6c6576656c2064656c65676174652063616c6c206661696c6564a26469706673582212205e59b25177b9f302d60a5310d69ff7fa62c5426778f79de982f46e80d2f9f93364736f6c63430008020033",
  "linkReferences": {},
  "deployedLinkReferences": {}
}