{
  "_format": "hh-sol-artifact-1",
  "contractName": "ValidatorRewards",
  "sourceName": "contracts/ValidatorRewards.sol",
  "abi": [
    {
      "anonymous": false,
      "inputs": [
        {
          "indexed": false,
          "internalType": "uint8",
          "name": "version",
          "type": "uint8"
        }
      ],
      "name": "Initialized",
      "type": "event"
    },
    {
      "anonymous": false,
      "inputs": [
        {
          "indexed": true,
          "internalType": "address",
          "name": "to",
          "type": "address"
        },
        {
          "indexed": true,
          "internalType": "uint256",
          "name": "amount",
          "type": "uint256"
        }
      ],
      "name": "PaymentReleased",
      "type": "event"
    },
    {
      "anonymous": false,
      "inputs": [
        {
          "indexed": true,
          "internalType": "bytes32",
          "name": "role",
          "type": "bytes32"
        },
        {
          "indexed": true,
          "internalType": "bytes32",
          "name": "previousAdminRole",
          "type": "bytes32"
        },
        {
          "indexed": true,
          "internalType": "bytes32",
          "name": "newAdminRole",
          "type": "bytes32"
        }
      ],
      "name": "RoleAdminChanged",
      "type": "event"
    },
    {
      "anonymous": false,
      "inputs": [
        {
          "indexed": true,
          "internalType": "bytes32",
          "name": "role",
          "type": "bytes32"
        },
        {
          "indexed": true,
          "internalType": "address",
          "name": "account",
          "type": "address"
        },
        {
          "indexed": true,
          "internalType": "address",
          "name": "sender",
          "type": "address"
        }
      ],
      "name": "RoleGranted",
      "type": "event"
    },
    {
      "anonymous": false,
      "inputs": [
        {
          "indexed": true,
          "internalType": "bytes32",
          "name": "role",
          "type": "bytes32"
        },
        {
          "indexed": true,
          "internalType": "address",
          "name": "account",
          "type": "address"
        },
        {
          "indexed": true,
          "internalType": "address",
          "name": "sender",
          "type": "address"
        }
      ],
      "name": "RoleRevoked",
      "type": "event"
    },
    {
      "anonymous": false,
      "inputs": [
        {
          "indexed": false,
          "internalType": "address",
          "name": "validator",
          "type": "address"
        },
        {
          "indexed": false,
          "internalType": "uint256",
          "name": "shares",
          "type": "uint256"
        }
      ],
      "name": "SharesAdjusted",
      "type": "event"
    },
    {
      "anonymous": false,
      "inputs": [
        {
          "indexed": true,
          "internalType": "address",
          "name": "previousValidatorRewardAddress",
          "type": "address"
        },
        {
          "indexed": true,
          "internalType": "address",
          "name": "newValidatorRewardAddress",
          "type": "address"
        }
      ],
      "name": "UpdatedValidator",
      "type": "event"
    },
    {
      "anonymous": false,
      "inputs": [
        {
          "indexed": false,
          "internalType": "address",
          "name": "account",
          "type": "address"
        },
        {
          "indexed": false,
          "internalType": "uint256",
          "name": "shares",
          "type": "uint256"
        }
      ],
      "name": "ValidatorAdded",
      "type": "event"
    },
    {
      "inputs": [],
      "name": "DEFAULT_ADMIN_ROLE",
      "outputs": [
        {
          "internalType": "bytes32",
          "name": "",
          "type": "bytes32"
        }
      ],
      "stateMutability": "view",
      "type": "function"
    },
    {
      "inputs": [],
      "name": "DISTRIBUTOR_ROLE",
      "outputs": [
        {
          "internalType": "bytes32",
          "name": "",
          "type": "bytes32"
        }
      ],
      "stateMutability": "view",
      "type": "function"
    },
    {
      "inputs": [
        {
          "internalType": "address",
          "name": "account",
          "type": "address"
        },
        {
          "internalType": "uint256",
          "name": "shares_",
          "type": "uint256"
        }
      ],
      "name": "addValidator",
      "outputs": [],
      "stateMutability": "nonpayable",
      "type": "function"
    },
    {
      "inputs": [
        {
          "internalType": "uint256",
          "name": "_index",
          "type": "uint256"
        },
        {
          "internalType": "address",
          "name": "_newValidatorRewardAddress",
          "type": "address"
        }
      ],
      "name": "adjustValidatorAddress",
      "outputs": [],
      "stateMutability": "nonpayable",
      "type": "function"
    },
    {
      "inputs": [
        {
          "internalType": "address",
          "name": "account",
          "type": "address"
        },
        {
          "internalType": "uint256",
          "name": "shares_",
          "type": "uint256"
        }
      ],
      "name": "adjustValidatorShares",
      "outputs": [],
      "stateMutability": "nonpayable",
      "type": "function"
    },
    {
      "inputs": [
        {
          "internalType": "bytes32",
          "name": "role",
          "type": "bytes32"
        }
      ],
      "name": "getRoleAdmin",
      "outputs": [
        {
          "internalType": "bytes32",
          "name": "",
          "type": "bytes32"
        }
      ],
      "stateMutability": "view",
      "type": "function"
    },
    {
      "inputs": [
        {
          "internalType": "bytes32",
          "name": "role",
          "type": "bytes32"
        },
        {
          "internalType": "address",
          "name": "account",
          "type": "address"
        }
      ],
      "name": "grantRole",
      "outputs": [],
      "stateMutability": "nonpayable",
      "type": "function"
    },
    {
      "inputs": [
        {
          "internalType": "bytes32",
          "name": "role",
          "type": "bytes32"
        },
        {
          "internalType": "address",
          "name": "account",
          "type": "address"
        }
      ],
      "name": "hasRole",
      "outputs": [
        {
          "internalType": "bool",
          "name": "",
          "type": "bool"
        }
      ],
      "stateMutability": "view",
      "type": "function"
    },
    {
      "inputs": [
        {
          "internalType": "address[]",
          "name": "validatorsList",
          "type": "address[]"
        },
        {
          "internalType": "uint256[]",
          "name": "shares_",
          "type": "uint256[]"
        },
        {
          "internalType": "address",
          "name": "admin",
          "type": "address"
        },
        {
          "internalType": "address",
          "name": "distributor",
          "type": "address"
        }
      ],
      "name": "initialize",
      "outputs": [],
      "stateMutability": "nonpayable",
      "type": "function"
    },
    {
      "inputs": [
        {
          "internalType": "address",
          "name": "validator",
          "type": "address"
        }
      ],
      "name": "isOriginalAddress",
      "outputs": [
        {
          "internalType": "bool",
          "name": "",
          "type": "bool"
        }
      ],
      "stateMutability": "view",
      "type": "function"
    },
    {
      "inputs": [
        {
          "internalType": "address",
          "name": "account",
          "type": "address"
        }
      ],
      "name": "releasable",
      "outputs": [
        {
          "internalType": "uint256",
          "name": "",
          "type": "uint256"
        }
      ],
      "stateMutability": "view",
      "type": "function"
    },
    {
      "inputs": [
        {
          "internalType": "address payable",
          "name": "account",
          "type": "address"
        }
      ],
      "name": "release",
      "outputs": [],
      "stateMutability": "nonpayable",
      "type": "function"
    },
    {
      "inputs": [],
      "name": "releaseAll",
      "outputs": [],
      "stateMutability": "nonpayable",
      "type": "function"
    },
    {
      "inputs": [
        {
          "internalType": "address",
          "name": "account",
          "type": "address"
        }
      ],
      "name": "released",
      "outputs": [
        {
          "internalType": "uint256",
          "name": "",
          "type": "uint256"
        }
      ],
      "stateMutability": "view",
      "type": "function"
    },
    {
      "inputs": [
        {
          "internalType": "bytes32",
          "name": "role",
          "type": "bytes32"
        },
        {
          "internalType": "address",
          "name": "account",
          "type": "address"
        }
      ],
      "name": "renounceRole",
      "outputs": [],
      "stateMutability": "nonpayable",
      "type": "function"
    },
    {
      "inputs": [
        {
          "internalType": "bytes32",
          "name": "role",
          "type": "bytes32"
        },
        {
          "internalType": "address",
          "name": "account",
          "type": "address"
        }
      ],
      "name": "revokeRole",
      "outputs": [],
      "stateMutability": "nonpayable",
      "type": "function"
    },
    {
      "inputs": [
        {
          "internalType": "address",
          "name": "account",
          "type": "address"
        }
      ],
      "name": "shares",
      "outputs": [
        {
          "internalType": "uint256",
          "name": "",
          "type": "uint256"
        }
      ],
      "stateMutability": "view",
      "type": "function"
    },
    {
      "inputs": [
        {
          "internalType": "bytes4",
          "name": "interfaceId",
          "type": "bytes4"
        }
      ],
      "name": "supportsInterface",
      "outputs": [
        {
          "internalType": "bool",
          "name": "",
          "type": "bool"
        }
      ],
      "stateMutability": "view",
      "type": "function"
    },
    {
      "inputs": [],
      "name": "totalReleased",
      "outputs": [
        {
          "internalType": "uint256",
          "name": "",
          "type": "uint256"
        }
      ],
      "stateMutability": "view",
      "type": "function"
    },
    {
      "inputs": [],
      "name": "totalShares",
      "outputs": [
        {
          "internalType": "uint256",
          "name": "",
          "type": "uint256"
        }
      ],
      "stateMutability": "view",
      "type": "function"
    },
    {
      "inputs": [
        {
          "internalType": "uint256",
          "name": "index",
          "type": "uint256"
        }
      ],
      "name": "validators",
      "outputs": [
        {
          "internalType": "address",
          "name": "",
          "type": "address"
        }
      ],
      "stateMutability": "view",
      "type": "function"
    },
    {
      "stateMutability": "payable",
      "type": "receive"
    }
  ],
  "bytecode": "0x608060405234801561001057600080fd5b5061376b806100206000396000f3fe60806040526004361061012e5760003560e01c806391d14854116100ab578063d547741f1161006f578063d547741f1461041f578063deea2b9b14610448578063e33b7de314610485578063e9d1ea8a146104b0578063f0bd87cc146104d9578063fc6c1f021461050457610135565b806391d14854146103005780639852595c1461033d578063a217fddf1461037a578063a3f8eace146103a5578063ce7c2ac2146103e257610135565b806335aa2e44116100f257806335aa2e441461022f57806336568abe1461026c5780633a98ef39146102955780634b3efd3b146102c05780635be7fde8146102e957610135565b806301ffc9a71461013a5780631916558714610177578063246723ac146101a0578063248a9ca3146101c95780632f2ff15d1461020657610135565b3661013557005b600080fd5b34801561014657600080fd5b50610161600480360381019061015c9190612d2a565b61052d565b60405161016e9190613018565b60405180910390f35b34801561018357600080fd5b5061019e60048036038101906101999190612bcd565b6105a7565b005b3480156101ac57600080fd5b506101c760048036038101906101c29190612c32565b61083f565b005b3480156101d557600080fd5b506101f060048036038101906101eb9190612cc5565b610c8f565b6040516101fd9190613033565b60405180910390f35b34801561021257600080fd5b5061022d60048036038101906102289190612cee565b610cae565b005b34801561023b57600080fd5b5061025660048036038101906102519190612d53565b610ccf565b6040516102639190612fd4565b60405180910390f35b34801561027857600080fd5b50610293600480360381019061028e9190612cee565b610d79565b005b3480156102a157600080fd5b506102aa610dfc565b6040516102b7919061312b565b60405180910390f35b3480156102cc57600080fd5b506102e760048036038101906102e29190612bf6565b610e42565b005b3480156102f557600080fd5b506102fe6111a3565b005b34801561030c57600080fd5b5061032760048036038101906103229190612cee565b611539565b6040516103349190613018565b60405180910390f35b34801561034957600080fd5b50610364600480360381019061035f9190612ba4565b6115a3565b604051610371919061312b565b60405180910390f35b34801561038657600080fd5b5061038f611628565b60405161039c9190613033565b60405180910390f35b3480156103b157600080fd5b506103cc60048036038101906103c79190612ba4565b61162f565b6040516103d9919061312b565b60405180910390f35b3480156103ee57600080fd5b5061040960048036038101906104049190612ba4565b6116c7565b604051610416919061312b565b60405180910390f35b34801561042b57600080fd5b5061044660048036038101906104419190612cee565b61174c565b005b34801561045457600080fd5b5061046f600480360381019061046a9190612ba4565b61176d565b60405161047c9190613018565b60405180910390f35b34801561049157600080fd5b5061049a61191b565b6040516104a7919061312b565b60405180910390f35b3480156104bc57600080fd5b506104d760048036038101906104d29190612d7c565b611961565b005b3480156104e557600080fd5b506104ee611d8e565b6040516104fb9190613033565b60405180910390f35b34801561051057600080fd5b5061052b60048036038101906105269190612bf6565b611db2565b005b60007f7965db0b000000000000000000000000000000000000000000000000000000007bffffffffffffffffffffffffffffffffffffffffffffffffffffffff1916827bffffffffffffffffffffffffffffffffffffffffffffffffffffffff191614806105a0575061059f82612258565b5b9050919050565b6105bb676eb9af4c7615224f60c01b6122c2565b6105cf676632cefd4037e29360c01b6122c2565b6105e3671beb47147ae44ef860c01b6122c2565b6105f7672cfa3ece2f8c1f6260c01b6122c2565b6000600460008373ffffffffffffffffffffffffffffffffffffffff1673ffffffffffffffffffffffffffffffffffffffff16815260200190815260200160002054116040518060400160405280600381526020017f3132360000000000000000000000000000000000000000000000000000000000815250906106b1576040517f08c379a00000000000000000000000000000000000000000000000000000000081526004016106a89190613069565b60405180910390fd5b506106c667b2a7616bcb17354e60c01b6122c2565b6106da67c600a0b21933790460c01b6122c2565b6106ee67ad082c7881d4374160c01b6122c2565b60006106f98261162f565b905061070f67e5ba0fdafb8a985360c01b6122c2565b806003600082825461072191906131f5565b9250508190555061073c676734e519328e967960c01b6122c2565b610750676a531fbdedd0129760c01b6122c2565b80600560008473ffffffffffffffffffffffffffffffffffffffff1673ffffffffffffffffffffffffffffffffffffffff168152602001908152602001600020600082825401925050819055506107b1672da33076f603a34360c01b6122c2565b6107c56704ac89eb021266cd60c01b6122c2565b6107cf82826122c5565b6107e36719b959fa790b2f1760c01b6122c2565b6107f7675c119ab59b5259b660c01b6122c2565b808273ffffffffffffffffffffffffffffffffffffffff167fdf20fd1e76bc69d672e4814fafb2c449bba3a5369d8359adf9e05e6fde87b05660405160405180910390a35050565b6108536752238d4c56077c1960c01b6122c2565b600060018054906101000a900460ff16159050808015610884575060018060009054906101000a900460ff1660ff16105b806108b25750610893306123b9565b1580156108b1575060018060009054906101000a900460ff1660ff16145b5b6108f1576040517f08c379a00000000000000000000000000000000000000000000000000000000081526004016108e8906130eb565b60405180910390fd5b60018060006101000a81548160ff021916908360ff160217905550801561092d5760018060016101000a81548160ff0219169083151502179055505b610941679223488d9a709e3960c01b6122c2565b610955676ec2f470b59e1a8d60c01b6122c2565b61096967306770651396c6fe60c01b6122c2565b61097d67390f068348b25bae60c01b6122c2565b61098a6000801b846123dc565b61099e67dcefcebc04b0ecb160c01b6122c2565b6109b2675ac48abb97137faf60c01b6122c2565b6109dc7ffbd454f36a7e1a388bd6fc3ab10d434aa4578f811acbbcf33afb1c697486313c836123dc565b6109f067996a973d9dae212060c01b6122c2565b610a046795665b47d8a7067d60c01b6122c2565b60005b8551811015610c2e57610a2467e26064a41ccda33a60c01b6122c2565b610a3867643d71d811ca486a60c01b6122c2565b6006868281518110610a73577f4e487b7100000000000000000000000000000000000000000000000000000000600052603260045260246000fd5b60200260200101519080600181540180825580915050600190039060005260206000200160009091909190916101000a81548173ffffffffffffffffffffffffffffffffffffffff021916908373ffffffffffffffffffffffffffffffffffffffff160217905550610aef6703b3be5067faa44060c01b6122c2565b848181518110610b28577f4e487b7100000000000000000000000000000000000000000000000000000000600052603260045260246000fd5b602002602001015160046000888481518110610b6d577f4e487b7100000000000000000000000000000000000000000000000000000000600052603260045260246000fd5b602002602001015173ffffffffffffffffffffffffffffffffffffffff1673ffffffffffffffffffffffffffffffffffffffff16815260200190815260200160002081905550610bc7675568e5a1892e032660c01b6122c2565b848181518110610c00577f4e487b7100000000000000000000000000000000000000000000000000000000600052603260045260246000fd5b6020026020010151600254610c1591906131f5565b6002819055508080610c2690613447565b915050610a07565b508015610c885760006001806101000a81548160ff0219169083151502179055507f7f26b83ff96e1f2b6a682f133852f6798a09c465da95921460cefb38474024986001604051610c7f919061304e565b60405180910390a15b5050505050565b6000806000838152602001908152602001600020600101549050919050565b610cb782610c8f565b610cc0816124bc565b610cca83836123dc565b505050565b6000610ce5675209c0bcb70d842b60c01b6122c2565b610cf9672c1c923f17535e6560c01b6122c2565b610d0d67c57d1ffc5670b92360c01b6122c2565b60068281548110610d47577f4e487b7100000000000000000000000000000000000000000000000000000000600052603260045260246000fd5b9060005260206000200160009054906101000a900473ffffffffffffffffffffffffffffffffffffffff169050919050565b610d816124d0565b73ffffffffffffffffffffffffffffffffffffffff168173ffffffffffffffffffffffffffffffffffffffff1614610dee576040517f08c379a0000000000000000000000000000000000000000000000000000000008152600401610de59061310b565b60405180910390fd5b610df882826124d8565b5050565b6000610e1267df3c500c95a62eca60c01b6122c2565b610e2667f8b76862e21af08360c01b6122c2565b610e3a67c063e08a95df298d60c01b6122c2565b600254905090565b610e5667ad4aa363288805da60c01b6122c2565b7ffbd454f36a7e1a388bd6fc3ab10d434aa4578f811acbbcf33afb1c697486313c610e80816124bc565b610e9467de27e05b0f2d6c9d60c01b6122c2565b610ea867be52a9ce7720952d60c01b6122c2565b610ebc67eafe5293c83d805d60c01b6122c2565b610ed0675aaadbea5bb2275260c01b6122c2565b610ee46731296b0dedf914c260c01b6122c2565b60001515610ef18461176d565b1515146040518060400160405280600381526020017f313237000000000000000000000000000000000000000000000000000000000081525090610f6b576040517f08c379a0000000000000000000000000000000000000000000000000000000008152600401610f629190613069565b60405180910390fd5b50610f8067152df6cd6637c6a060c01b6122c2565b610f946701417d3d9259ebd660c01b6122c2565b610fa8678e5ada6a314136c860c01b6122c2565b610fbc6766cff308efeca43d60c01b6122c2565b600082116040518060400160405280600381526020017f313238000000000000000000000000000000000000000000000000000000000081525090611037576040517f08c379a000000000000000000000000000000000000000000000000000000000815260040161102e9190613069565b60405180910390fd5b5061104c67e998fcb09f41bb1160c01b6122c2565b611060674e90af3b675a16f460c01b6122c2565b600460008473ffffffffffffffffffffffffffffffffffffffff1673ffffffffffffffffffffffffffffffffffffffff16815260200190815260200160002054600260008282546110b191906132d6565b925050819055506110cc675b9dd09a35ade1a060c01b6122c2565b81600260008282546110de91906131f5565b925050819055506110f96798c925b61779e30360c01b6122c2565b81600460008573ffffffffffffffffffffffffffffffffffffffff1673ffffffffffffffffffffffffffffffffffffffff1681526020019081526020016000208190555061115167ea426bf6e009c7ce60c01b6122c2565b61116567afc5438fd32a421c60c01b6122c2565b7f63c73b6ba0c6dd96222f5ff08a3755fab02dedf0d99c3085703fa9c05eebf5208383604051611196929190612fef565b60405180910390a1505050565b6111b767beb3737a1c89ea2b60c01b6122c2565b6111cb674ba122b401c7937060c01b6122c2565b6111df6786e6be1ad83a3d0160c01b6122c2565b60005b60068054905081101561153657611203674ec34da0aa42e52960c01b6122c2565b6112176728bb7b072bcbfb9960c01b6122c2565b600061128660068381548110611256577f4e487b7100000000000000000000000000000000000000000000000000000000600052603260045260246000fd5b9060005260206000200160009054906101000a900473ffffffffffffffffffffffffffffffffffffffff1661162f565b905061129c67910ab24ccfa2632760c01b6122c2565b80600360008282546112ae91906131f5565b925050819055506112c9672d3f50ad99a2590860c01b6122c2565b6112dd67e7c42cf70984963b60c01b6122c2565b80600560006006858154811061131c577f4e487b7100000000000000000000000000000000000000000000000000000000600052603260045260246000fd5b9060005260206000200160009054906101000a900473ffffffffffffffffffffffffffffffffffffffff1673ffffffffffffffffffffffffffffffffffffffff1673ffffffffffffffffffffffffffffffffffffffff168152602001908152602001600020600082825401925050819055506113a267b1833b3eb742caf460c01b6122c2565b6113b66796eea449c7cc4ff460c01b6122c2565b6000600683815481106113f2577f4e487b7100000000000000000000000000000000000000000000000000000000600052603260045260246000fd5b9060005260206000200160009054906101000a900473ffffffffffffffffffffffffffffffffffffffff16905061143367f9eca2bfa55dfe9d60c01b6122c2565b61144767bff3246b47ec76f560c01b6122c2565b61145181836122c5565b61146567a76e22d2d81cc52660c01b6122c2565b6114796785221404a20988b060c01b6122c2565b81600684815481106114b4577f4e487b7100000000000000000000000000000000000000000000000000000000600052603260045260246000fd5b9060005260206000200160009054906101000a900473ffffffffffffffffffffffffffffffffffffffff1673ffffffffffffffffffffffffffffffffffffffff167fdf20fd1e76bc69d672e4814fafb2c449bba3a5369d8359adf9e05e6fde87b05660405160405180910390a35050808061152e90613447565b9150506111e2565b50565b600080600084815260200190815260200160002060000160008373ffffffffffffffffffffffffffffffffffffffff1673ffffffffffffffffffffffffffffffffffffffff16815260200190815260200160002060009054906101000a900460ff16905092915050565b60006115b9679895b8da1827604a60c01b6122c2565b6115cd672b9b34846c65e53160c01b6122c2565b6115e16730e5a2c69e9c2e2f60c01b6122c2565b600560008373ffffffffffffffffffffffffffffffffffffffff1673ffffffffffffffffffffffffffffffffffffffff168152602001908152602001600020549050919050565b6000801b81565b600061164567e459f15caa67855b60c01b6122c2565b61165967edb1b571e5a699b760c01b6122c2565b61166d677ddd3471519e729960c01b6122c2565b600061167761191b565b4761168291906131f5565b905061169867f5f11ebdac5034f160c01b6122c2565b6116ac678ef7c410db337d8d60c01b6122c2565b6116bf83826116ba866115a3565b6125b9565b915050919050565b60006116dd6788e6631637cc58ce60c01b6122c2565b6116f167f24fc5c248b4fc1160c01b6122c2565b61170567561d86d62baaba0b60c01b6122c2565b600460008373ffffffffffffffffffffffffffffffffffffffff1673ffffffffffffffffffffffffffffffffffffffff168152602001908152602001600020549050919050565b61175582610c8f565b61175e816124bc565b61176883836124d8565b505050565b6000611783671c2ff44718cb779a60c01b6122c2565b61179767e87d29eacb3f679960c01b6122c2565b6117ab6799619d46c948878d60c01b6122c2565b60005b6006805490508110156118e8576117cf67c25f804b19eea41160c01b6122c2565b6117e36767bc3b0009d85b5c60c01b6122c2565b8273ffffffffffffffffffffffffffffffffffffffff1660068281548110611834577f4e487b7100000000000000000000000000000000000000000000000000000000600052603260045260246000fd5b9060005260206000200160009054906101000a900473ffffffffffffffffffffffffffffffffffffffff1673ffffffffffffffffffffffffffffffffffffffff1614156118c15761188f67446966b6fef857e360c01b6122c2565b6118a367bc067ae79ce9be7960c01b6122c2565b6118b7672e789203ac77a90760c01b6122c2565b6000915050611916565b6118d567c4e582a9ccbfb3f260c01b6122c2565b80806118e090613447565b9150506117ae565b506118fd67473b18d973e69d2a60c01b6122c2565b61191167c13956f9c07ff60960c01b6122c2565b600190505b919050565b600061193167c012936394b3a4c860c01b6122c2565b61194567836849c499d431cc60c01b6122c2565b6119596757a01c8bd3f4d7d860c01b6122c2565b600354905090565b6119756705378c023b94321060c01b6122c2565b7ffbd454f36a7e1a388bd6fc3ab10d434aa4578f811acbbcf33afb1c697486313c61199f816124bc565b6119b367a0cd39f6212a835960c01b6122c2565b6119c767a1b73bc006dec84260c01b6122c2565b6119db6770b5974371dcfb4960c01b6122c2565b6119ef675ee9738f665d54b260c01b6122c2565b611a03675fe0030c43716a0660c01b6122c2565b600073ffffffffffffffffffffffffffffffffffffffff168273ffffffffffffffffffffffffffffffffffffffff1614156040518060400160405280600381526020017f313233000000000000000000000000000000000000000000000000000000000081525090611aab576040517f08c379a0000000000000000000000000000000000000000000000000000000008152600401611aa29190613069565b60405180910390fd5b50611ac067fc175076f993252b60c01b6122c2565b611ad46703db742eb170f10160c01b6122c2565b611ae867cc545355ed6ffba060c01b6122c2565b600060068481548110611b24577f4e487b7100000000000000000000000000000000000000000000000000000000600052603260045260246000fd5b9060005260206000200160009054906101000a900473ffffffffffffffffffffffffffffffffffffffff169050611b6567192ca8e71025879660c01b6122c2565b611b7967e51a767f3584ad3f60c01b6122c2565b6000600460008373ffffffffffffffffffffffffffffffffffffffff1673ffffffffffffffffffffffffffffffffffffffff168152602001908152602001600020549050611bd167a35be76124b5662160c01b6122c2565b6000600460008473ffffffffffffffffffffffffffffffffffffffff1673ffffffffffffffffffffffffffffffffffffffff16815260200190815260200160002081905550611c2a6710361a5d88a561cf60c01b6122c2565b80600460008673ffffffffffffffffffffffffffffffffffffffff1673ffffffffffffffffffffffffffffffffffffffff16815260200190815260200160002081905550611c8267d6063a40e5e1cb8660c01b6122c2565b8360068681548110611cbd577f4e487b7100000000000000000000000000000000000000000000000000000000600052603260045260246000fd5b9060005260206000200160006101000a81548173ffffffffffffffffffffffffffffffffffffffff021916908373ffffffffffffffffffffffffffffffffffffffff160217905550611d196707421fac31f4fb2860c01b6122c2565b611d2d67a13349ebf2416deb60c01b6122c2565b8373ffffffffffffffffffffffffffffffffffffffff168273ffffffffffffffffffffffffffffffffffffffff167f2b0f020fc2ca0df9e227d90fbc27227ec945336ab8036526c0ed27f713909aa060405160405180910390a35050505050565b7ffbd454f36a7e1a388bd6fc3ab10d434aa4578f811acbbcf33afb1c697486313c81565b611dc667f8d89bccb95c4f1860c01b6122c2565b7ffbd454f36a7e1a388bd6fc3ab10d434aa4578f811acbbcf33afb1c697486313c611df0816124bc565b611e0467939454d95b2efa3b60c01b6122c2565b611e1867fc521a979259057260c01b6122c2565b611e2c67360079afbc17406a60c01b6122c2565b611e40675e48b0cedab0254060c01b6122c2565b611e54673c565239ba23ed9b60c01b6122c2565b600073ffffffffffffffffffffffffffffffffffffffff168373ffffffffffffffffffffffffffffffffffffffff1614156040518060400160405280600381526020017f313035000000000000000000000000000000000000000000000000000000000081525090611efc576040517f08c379a0000000000000000000000000000000000000000000000000000000008152600401611ef39190613069565b60405180910390fd5b50611f11673e094ff2b5437b3460c01b6122c2565b611f2567e85d1443ccdad73c60c01b6122c2565b611f3967f1b092fa9e66919d60c01b6122c2565b611f4d67612d8fde64abf60d60c01b6122c2565b600082116040518060400160405280600381526020017f313238000000000000000000000000000000000000000000000000000000000081525090611fc8576040517f08c379a0000000000000000000000000000000000000000000000000000000008152600401611fbf9190613069565b60405180910390fd5b50611fdd67b424703ceb58a37660c01b6122c2565b611ff167d213799a04342a0560c01b6122c2565b61200466ab604098d216e060c01b6122c2565b612018673568c296bcda752c60c01b6122c2565b6000600460008573ffffffffffffffffffffffffffffffffffffffff1673ffffffffffffffffffffffffffffffffffffffff16815260200190815260200160002054146040518060400160405280600381526020017f3132390000000000000000000000000000000000000000000000000000000000815250906120d2576040517f08c379a00000000000000000000000000000000000000000000000000000000081526004016120c99190613069565b60405180910390fd5b506120e767d00e1f2c162682f760c01b6122c2565b6120fb672e39b116b32923c460c01b6122c2565b61210f6790e549dca071cdde60c01b6122c2565b6006839080600181540180825580915050600190039060005260206000200160009091909190916101000a81548173ffffffffffffffffffffffffffffffffffffffff021916908373ffffffffffffffffffffffffffffffffffffffff16021790555061218667bfff5fccccec39e160c01b6122c2565b81600460008573ffffffffffffffffffffffffffffffffffffffff1673ffffffffffffffffffffffffffffffffffffffff168152602001908152602001600020819055506121de6701544b54e49426b360c01b6122c2565b816002546121ec91906131f5565b60028190555061220667d61528ad998ded9b60c01b6122c2565b61221a674f9f598482d88c2260c01b6122c2565b7f9000b209805850a65058f21361a9978cb30f1413ed555553ab52a59b440b5d99838360405161224b929190612fef565b60405180910390a1505050565b60007f01ffc9a7000000000000000000000000000000000000000000000000000000007bffffffffffffffffffffffffffffffffffffffffffffffffffffffff1916827bffffffffffffffffffffffffffffffffffffffffffffffffffffffff1916149050919050565b50565b80471015612308576040517f08c379a00000000000000000000000000000000000000000000000000000000081526004016122ff906130cb565b60405180910390fd5b60008273ffffffffffffffffffffffffffffffffffffffff168260405161232e90612f85565b60006040518083038185875af1925050503d806000811461236b576040519150601f19603f3d011682016040523d82523d6000602084013e612370565b606091505b50509050806123b4576040517f08c379a00000000000000000000000000000000000000000000000000000000081526004016123ab906130ab565b60405180910390fd5b505050565b6000808273ffffffffffffffffffffffffffffffffffffffff163b119050919050565b6123e68282611539565b6124b857600160008084815260200190815260200160002060000160008373ffffffffffffffffffffffffffffffffffffffff1673ffffffffffffffffffffffffffffffffffffffff16815260200190815260200160002060006101000a81548160ff02191690831515021790555061245d6124d0565b73ffffffffffffffffffffffffffffffffffffffff168173ffffffffffffffffffffffffffffffffffffffff16837f2f8788117e7eff1d82e926ec794901d17c78024a50270940304540a733656f0d60405160405180910390a45b5050565b6124cd816124c86124d0565b612663565b50565b600033905090565b6124e28282611539565b156125b557600080600084815260200190815260200160002060000160008373ffffffffffffffffffffffffffffffffffffffff1673ffffffffffffffffffffffffffffffffffffffff16815260200190815260200160002060006101000a81548160ff02191690831515021790555061255a6124d0565b73ffffffffffffffffffffffffffffffffffffffff168173ffffffffffffffffffffffffffffffffffffffff16837ff6391f5c32d9c69d2a47ea670b442974b53935d1edc7fd64eb21e047a839171b60405160405180910390a45b5050565b60006125cf67d139a45d4c9413dc60c01b6122c2565b6125e3674c2c2d0a52412df460c01b6122c2565b6125f7672461205de7b3aa9a60c01b6122c2565b81600254600460008773ffffffffffffffffffffffffffffffffffffffff1673ffffffffffffffffffffffffffffffffffffffff1681526020019081526020016000205485612646919061327c565b612650919061324b565b61265a91906132d6565b90509392505050565b61266d8282611539565b6126e45761267a816126e8565b6126888360001c6020612715565b604051602001612699929190612f9a565b6040516020818303038152906040526040517f08c379a00000000000000000000000000000000000000000000000000000000081526004016126db9190613069565b60405180910390fd5b5050565b606061270e8273ffffffffffffffffffffffffffffffffffffffff16601460ff16612715565b9050919050565b606060006002836002612728919061327c565b61273291906131f5565b67ffffffffffffffff811115612771577f4e487b7100000000000000000000000000000000000000000000000000000000600052604160045260246000fd5b6040519080825280601f01601f1916602001820160405280156127a35781602001600182028036833780820191505090505b5090507f300000000000000000000000000000000000000000000000000000000000000081600081518110612801577f4e487b7100000000000000000000000000000000000000000000000000000000600052603260045260246000fd5b60200101907effffffffffffffffffffffffffffffffffffffffffffffffffffffffffffff1916908160001a9053507f78000000000000000000000000000000000000000000000000000000000000008160018151811061288b577f4e487b7100000000000000000000000000000000000000000000000000000000600052603260045260246000fd5b60200101907effffffffffffffffffffffffffffffffffffffffffffffffffffffffffffff1916908160001a905350600060018460026128cb919061327c565b6128d591906131f5565b90505b60018111156129c1577f3031323334353637383961626364656600000000000000000000000000000000600f86166010811061293d577f4e487b7100000000000000000000000000000000000000000000000000000000600052603260045260246000fd5b1a60f81b82828151811061297a577f4e487b7100000000000000000000000000000000000000000000000000000000600052603260045260246000fd5b60200101907effffffffffffffffffffffffffffffffffffffffffffffffffffffffffffff1916908160001a905350600485901c9450806129ba906133ec565b90506128d8565b5060008414612a05576040517f08c379a00000000000000000000000000000000000000000000000000000000081526004016129fc9061308b565b60405180910390fd5b8091505092915050565b6000612a22612a1d8461316b565b613146565b90508083825260208201905082856020860282011115612a4157600080fd5b60005b85811015612a715781612a578882612ae7565b845260208401935060208301925050600181019050612a44565b5050509392505050565b6000612a8e612a8984613197565b613146565b90508083825260208201905082856020860282011115612aad57600080fd5b60005b85811015612add5781612ac38882612b8f565b845260208401935060208301925050600181019050612ab0565b5050509392505050565b600081359050612af6816136c2565b92915050565b600081359050612b0b816136d9565b92915050565b600082601f830112612b2257600080fd5b8135612b32848260208601612a0f565b91505092915050565b600082601f830112612b4c57600080fd5b8135612b5c848260208601612a7b565b91505092915050565b600081359050612b74816136f0565b92915050565b600081359050612b8981613707565b92915050565b600081359050612b9e8161371e565b92915050565b600060208284031215612bb657600080fd5b6000612bc484828501612ae7565b91505092915050565b600060208284031215612bdf57600080fd5b6000612bed84828501612afc565b91505092915050565b60008060408385031215612c0957600080fd5b6000612c1785828601612ae7565b9250506020612c2885828601612b8f565b9150509250929050565b60008060008060808587031215612c4857600080fd5b600085013567ffffffffffffffff811115612c6257600080fd5b612c6e87828801612b11565b945050602085013567ffffffffffffffff811115612c8b57600080fd5b612c9787828801612b3b565b9350506040612ca887828801612ae7565b9250506060612cb987828801612ae7565b91505092959194509250565b600060208284031215612cd757600080fd5b6000612ce584828501612b65565b91505092915050565b60008060408385031215612d0157600080fd5b6000612d0f85828601612b65565b9250506020612d2085828601612ae7565b9150509250929050565b600060208284031215612d3c57600080fd5b6000612d4a84828501612b7a565b91505092915050565b600060208284031215612d6557600080fd5b6000612d7384828501612b8f565b91505092915050565b60008060408385031215612d8f57600080fd5b6000612d9d85828601612b8f565b9250506020612dae85828601612ae7565b9150509250929050565b612dc18161330a565b82525050565b612dd08161332e565b82525050565b612ddf8161333a565b82525050565b612dee816133a7565b82525050565b6000612dff826131c3565b612e0981856131d9565b9350612e198185602086016133b9565b612e228161351d565b840191505092915050565b6000612e38826131c3565b612e4281856131ea565b9350612e528185602086016133b9565b80840191505092915050565b6000612e6b6020836131d9565b9150612e768261352e565b602082019050919050565b6000612e8e603a836131d9565b9150612e9982613557565b604082019050919050565b6000612eb1601d836131d9565b9150612ebc826135a6565b602082019050919050565b6000612ed4602e836131d9565b9150612edf826135cf565b604082019050919050565b6000612ef76000836131ce565b9150612f028261361e565b600082019050919050565b6000612f1a6017836131ea565b9150612f2582613621565b601782019050919050565b6000612f3d6011836131ea565b9150612f488261364a565b601182019050919050565b6000612f60602f836131d9565b9150612f6b82613673565b604082019050919050565b612f7f81613390565b82525050565b6000612f9082612eea565b9150819050919050565b6000612fa582612f0d565b9150612fb18285612e2d565b9150612fbc82612f30565b9150612fc88284612e2d565b91508190509392505050565b6000602082019050612fe96000830184612db8565b92915050565b60006040820190506130046000830185612db8565b6130116020830184612f76565b9392505050565b600060208201905061302d6000830184612dc7565b92915050565b60006020820190506130486000830184612dd6565b92915050565b60006020820190506130636000830184612de5565b92915050565b600060208201905081810360008301526130838184612df4565b905092915050565b600060208201905081810360008301526130a481612e5e565b9050919050565b600060208201905081810360008301526130c481612e81565b9050919050565b600060208201905081810360008301526130e481612ea4565b9050919050565b6000602082019050818103600083015261310481612ec7565b9050919050565b6000602082019050818103600083015261312481612f53565b9050919050565b60006020820190506131406000830184612f76565b92915050565b6000613150613161565b905061315c8282613416565b919050565b6000604051905090565b600067ffffffffffffffff821115613186576131856134ee565b5b602082029050602081019050919050565b600067ffffffffffffffff8211156131b2576131b16134ee565b5b602082029050602081019050919050565b600081519050919050565b600081905092915050565b600082825260208201905092915050565b600081905092915050565b600061320082613390565b915061320b83613390565b9250827fffffffffffffffffffffffffffffffffffffffffffffffffffffffffffffffff038211156132405761323f613490565b5b828201905092915050565b600061325682613390565b915061326183613390565b925082613271576132706134bf565b5b828204905092915050565b600061328782613390565b915061329283613390565b9250817fffffffffffffffffffffffffffffffffffffffffffffffffffffffffffffffff04831182151516156132cb576132ca613490565b5b828202905092915050565b60006132e182613390565b91506132ec83613390565b9250828210156132ff576132fe613490565b5b828203905092915050565b600061331582613370565b9050919050565b600061332782613370565b9050919050565b60008115159050919050565b6000819050919050565b60007fffffffff0000000000000000000000000000000000000000000000000000000082169050919050565b600073ffffffffffffffffffffffffffffffffffffffff82169050919050565b6000819050919050565b600060ff82169050919050565b60006133b28261339a565b9050919050565b60005b838110156133d75780820151818401526020810190506133bc565b838111156133e6576000848401525b50505050565b60006133f782613390565b9150600082141561340b5761340a613490565b5b600182039050919050565b61341f8261351d565b810181811067ffffffffffffffff8211171561343e5761343d6134ee565b5b80604052505050565b600061345282613390565b91507fffffffffffffffffffffffffffffffffffffffffffffffffffffffffffffffff82141561348557613484613490565b5b600182019050919050565b7f4e487b7100000000000000000000000000000000000000000000000000000000600052601160045260246000fd5b7f4e487b7100000000000000000000000000000000000000000000000000000000600052601260045260246000fd5b7f4e487b7100000000000000000000000000000000000000000000000000000000600052604160045260246000fd5b6000601f19601f8301169050919050565b7f537472696e67733a20686578206c656e67746820696e73756666696369656e74600082015250565b7f416464726573733a20756e61626c6520746f2073656e642076616c75652c207260008201527f6563697069656e74206d61792068617665207265766572746564000000000000602082015250565b7f416464726573733a20696e73756666696369656e742062616c616e6365000000600082015250565b7f496e697469616c697a61626c653a20636f6e747261637420697320616c72656160008201527f647920696e697469616c697a6564000000000000000000000000000000000000602082015250565b50565b7f416363657373436f6e74726f6c3a206163636f756e7420000000000000000000600082015250565b7f206973206d697373696e6720726f6c6520000000000000000000000000000000600082015250565b7f416363657373436f6e74726f6c3a2063616e206f6e6c792072656e6f756e636560008201527f20726f6c657320666f722073656c660000000000000000000000000000000000602082015250565b6136cb8161330a565b81146136d657600080fd5b50565b6136e28161331c565b81146136ed57600080fd5b50565b6136f98161333a565b811461370457600080fd5b50565b61371081613344565b811461371b57600080fd5b50565b61372781613390565b811461373257600080fd5b5056fea2646970667358221220fc768bc28ec7e3a5c35cebd7fdf8e1f805a3f6cf571f993ab2e23c2ec9cda0e664736f6c63430008020033",
  "linkReferences": {},
  "deployedLinkReferences": {}
}