{
  "_format": "hh-sol-artifact-1",
  "contractName": "ValidatorRewards",
  "sourceName": "contracts/ValidatorRewards.sol",
  "abi": [
    {
      "anonymous": false,
      "inputs": [
        {
          "indexed": false,
          "internalType": "uint8",
          "name": "version",
          "type": "uint8"
        }
      ],
      "name": "Initialized",
      "type": "event"
    },
    {
      "anonymous": false,
      "inputs": [
        {
          "indexed": true,
          "internalType": "address",
          "name": "sender",
          "type": "address"
        },
        {
          "indexed": true,
          "internalType": "address",
          "name": "origin",
          "type": "address"
        },
        {
          "indexed": true,
          "internalType": "uint256",
          "name": "amount",
          "type": "uint256"
        }
      ],
      "name": "PaymentRecieved",
      "type": "event"
    },
    {
      "anonymous": false,
      "inputs": [
        {
          "indexed": true,
          "internalType": "address",
          "name": "to",
          "type": "address"
        },
        {
          "indexed": true,
          "internalType": "uint256",
          "name": "amount",
          "type": "uint256"
        }
      ],
      "name": "PaymentReleased",
      "type": "event"
    },
    {
      "anonymous": false,
      "inputs": [
        {
          "indexed": true,
          "internalType": "bytes32",
          "name": "role",
          "type": "bytes32"
        },
        {
          "indexed": true,
          "internalType": "bytes32",
          "name": "previousAdminRole",
          "type": "bytes32"
        },
        {
          "indexed": true,
          "internalType": "bytes32",
          "name": "newAdminRole",
          "type": "bytes32"
        }
      ],
      "name": "RoleAdminChanged",
      "type": "event"
    },
    {
      "anonymous": false,
      "inputs": [
        {
          "indexed": true,
          "internalType": "bytes32",
          "name": "role",
          "type": "bytes32"
        },
        {
          "indexed": true,
          "internalType": "address",
          "name": "account",
          "type": "address"
        },
        {
          "indexed": true,
          "internalType": "address",
          "name": "sender",
          "type": "address"
        }
      ],
      "name": "RoleGranted",
      "type": "event"
    },
    {
      "anonymous": false,
      "inputs": [
        {
          "indexed": true,
          "internalType": "bytes32",
          "name": "role",
          "type": "bytes32"
        },
        {
          "indexed": true,
          "internalType": "address",
          "name": "account",
          "type": "address"
        },
        {
          "indexed": true,
          "internalType": "address",
          "name": "sender",
          "type": "address"
        }
      ],
      "name": "RoleRevoked",
      "type": "event"
    },
    {
      "anonymous": false,
      "inputs": [
        {
          "indexed": false,
          "internalType": "address",
          "name": "validator",
          "type": "address"
        },
        {
          "indexed": false,
          "internalType": "uint256",
          "name": "shares",
          "type": "uint256"
        }
      ],
      "name": "SharesAdjusted",
      "type": "event"
    },
    {
      "anonymous": false,
      "inputs": [
        {
          "indexed": true,
          "internalType": "address",
          "name": "previousValidatorRewardAddress",
          "type": "address"
        },
        {
          "indexed": true,
          "internalType": "address",
          "name": "newValidatorRewardAddress",
          "type": "address"
        }
      ],
      "name": "UpdatedValidator",
      "type": "event"
    },
    {
      "anonymous": false,
      "inputs": [
        {
          "indexed": false,
          "internalType": "address",
          "name": "account",
          "type": "address"
        },
        {
          "indexed": false,
          "internalType": "uint256",
          "name": "shares",
          "type": "uint256"
        }
      ],
      "name": "ValidatorAdded",
      "type": "event"
    },
    {
      "inputs": [],
      "name": "DEFAULT_ADMIN_ROLE",
      "outputs": [
        {
          "internalType": "bytes32",
          "name": "",
          "type": "bytes32"
        }
      ],
      "stateMutability": "view",
      "type": "function"
    },
    {
      "inputs": [],
      "name": "DISTRIBUTOR_ROLE",
      "outputs": [
        {
          "internalType": "bytes32",
          "name": "",
          "type": "bytes32"
        }
      ],
      "stateMutability": "view",
      "type": "function"
    },
    {
      "inputs": [
        {
          "internalType": "address",
          "name": "account",
          "type": "address"
        },
        {
          "internalType": "uint256",
          "name": "shares_",
          "type": "uint256"
        }
      ],
      "name": "addValidator",
      "outputs": [],
      "stateMutability": "nonpayable",
      "type": "function"
    },
    {
      "inputs": [
        {
          "internalType": "uint256",
          "name": "_index",
          "type": "uint256"
        },
        {
          "internalType": "address",
          "name": "_newValidatorRewardAddress",
          "type": "address"
        }
      ],
      "name": "adjustValidatorAddress",
      "outputs": [],
      "stateMutability": "nonpayable",
      "type": "function"
    },
    {
      "inputs": [
        {
          "internalType": "address",
          "name": "account",
          "type": "address"
        },
        {
          "internalType": "uint256",
          "name": "shares_",
          "type": "uint256"
        }
      ],
      "name": "adjustValidatorShares",
      "outputs": [],
      "stateMutability": "nonpayable",
      "type": "function"
    },
    {
      "inputs": [
        {
          "internalType": "bytes32",
          "name": "role",
          "type": "bytes32"
        }
      ],
      "name": "getRoleAdmin",
      "outputs": [
        {
          "internalType": "bytes32",
          "name": "",
          "type": "bytes32"
        }
      ],
      "stateMutability": "view",
      "type": "function"
    },
    {
      "inputs": [
        {
          "internalType": "bytes32",
          "name": "role",
          "type": "bytes32"
        },
        {
          "internalType": "address",
          "name": "account",
          "type": "address"
        }
      ],
      "name": "grantRole",
      "outputs": [],
      "stateMutability": "nonpayable",
      "type": "function"
    },
    {
      "inputs": [
        {
          "internalType": "bytes32",
          "name": "role",
          "type": "bytes32"
        },
        {
          "internalType": "address",
          "name": "account",
          "type": "address"
        }
      ],
      "name": "hasRole",
      "outputs": [
        {
          "internalType": "bool",
          "name": "",
          "type": "bool"
        }
      ],
      "stateMutability": "view",
      "type": "function"
    },
    {
      "inputs": [
        {
          "internalType": "address[]",
          "name": "validatorsList",
          "type": "address[]"
        },
        {
          "internalType": "uint256[]",
          "name": "shares_",
          "type": "uint256[]"
        },
        {
          "internalType": "address",
          "name": "admin",
          "type": "address"
        },
        {
          "internalType": "address",
          "name": "distributor",
          "type": "address"
        }
      ],
      "name": "initialize",
      "outputs": [],
      "stateMutability": "nonpayable",
      "type": "function"
    },
    {
      "inputs": [
        {
          "internalType": "address",
          "name": "validator",
          "type": "address"
        }
      ],
      "name": "isOriginalAddress",
      "outputs": [
        {
          "internalType": "bool",
          "name": "",
          "type": "bool"
        }
      ],
      "stateMutability": "view",
      "type": "function"
    },
    {
      "inputs": [
        {
          "internalType": "address",
          "name": "account",
          "type": "address"
        }
      ],
      "name": "releasable",
      "outputs": [
        {
          "internalType": "uint256",
          "name": "",
          "type": "uint256"
        }
      ],
      "stateMutability": "view",
      "type": "function"
    },
    {
      "inputs": [
        {
          "internalType": "address payable",
          "name": "account",
          "type": "address"
        }
      ],
      "name": "release",
      "outputs": [],
      "stateMutability": "nonpayable",
      "type": "function"
    },
    {
      "inputs": [],
      "name": "releaseAll",
      "outputs": [],
      "stateMutability": "nonpayable",
      "type": "function"
    },
    {
      "inputs": [
        {
          "internalType": "address",
          "name": "account",
          "type": "address"
        }
      ],
      "name": "released",
      "outputs": [
        {
          "internalType": "uint256",
          "name": "",
          "type": "uint256"
        }
      ],
      "stateMutability": "view",
      "type": "function"
    },
    {
      "inputs": [
        {
          "internalType": "bytes32",
          "name": "role",
          "type": "bytes32"
        },
        {
          "internalType": "address",
          "name": "account",
          "type": "address"
        }
      ],
      "name": "renounceRole",
      "outputs": [],
      "stateMutability": "nonpayable",
      "type": "function"
    },
    {
      "inputs": [
        {
          "internalType": "bytes32",
          "name": "role",
          "type": "bytes32"
        },
        {
          "internalType": "address",
          "name": "account",
          "type": "address"
        }
      ],
      "name": "revokeRole",
      "outputs": [],
      "stateMutability": "nonpayable",
      "type": "function"
    },
    {
      "inputs": [
        {
          "internalType": "address",
          "name": "account",
          "type": "address"
        }
      ],
      "name": "shares",
      "outputs": [
        {
          "internalType": "uint256",
          "name": "",
          "type": "uint256"
        }
      ],
      "stateMutability": "view",
      "type": "function"
    },
    {
      "inputs": [
        {
          "internalType": "bytes4",
          "name": "interfaceId",
          "type": "bytes4"
        }
      ],
      "name": "supportsInterface",
      "outputs": [
        {
          "internalType": "bool",
          "name": "",
          "type": "bool"
        }
      ],
      "stateMutability": "view",
      "type": "function"
    },
    {
      "inputs": [],
      "name": "totalReleased",
      "outputs": [
        {
          "internalType": "uint256",
          "name": "",
          "type": "uint256"
        }
      ],
      "stateMutability": "view",
      "type": "function"
    },
    {
      "inputs": [],
      "name": "totalShares",
      "outputs": [
        {
          "internalType": "uint256",
          "name": "",
          "type": "uint256"
        }
      ],
      "stateMutability": "view",
      "type": "function"
    },
    {
      "inputs": [
        {
          "internalType": "uint256",
          "name": "index",
          "type": "uint256"
        }
      ],
      "name": "validators",
      "outputs": [
        {
          "internalType": "address",
          "name": "",
          "type": "address"
        }
      ],
      "stateMutability": "view",
      "type": "function"
    },
    {
      "stateMutability": "payable",
      "type": "receive"
    }
  ],
  "bytecode": "0x608060405234801561001057600080fd5b50612e2a806100206000396000f3fe60806040526004361061012e5760003560e01c806391d14854116100ab578063d547741f1161006f578063d547741f1461047a578063deea2b9b146104a3578063e33b7de3146104e0578063e9d1ea8a1461050b578063f0bd87cc14610534578063fc6c1f021461055f57610190565b806391d148541461035b5780639852595c14610398578063a217fddf146103d5578063a3f8eace14610400578063ce7c2ac21461043d57610190565b806335aa2e44116100f257806335aa2e441461028a57806336568abe146102c75780633a98ef39146102f05780634b3efd3b1461031b5780635be7fde81461034457610190565b806301ffc9a71461019557806319165587146101d2578063246723ac146101fb578063248a9ca3146102245780632f2ff15d1461026157610190565b3661019057343273ffffffffffffffffffffffffffffffffffffffff163373ffffffffffffffffffffffffffffffffffffffff167f890d4754d492fe7a11db4ade3f06a9ee3fd748affd938f3eb86e2dce552ae62660405160405180910390a4005b600080fd5b3480156101a157600080fd5b506101bc60048036038101906101b791906123e9565b610588565b6040516101c991906126d7565b60405180910390f35b3480156101de57600080fd5b506101f960048036038101906101f4919061228c565b610602565b005b34801561020757600080fd5b50610222600480360381019061021d91906122f1565b610782565b005b34801561023057600080fd5b5061024b60048036038101906102469190612384565b610ace565b60405161025891906126f2565b60405180910390f35b34801561026d57600080fd5b50610288600480360381019061028391906123ad565b610aed565b005b34801561029657600080fd5b506102b160048036038101906102ac9190612412565b610b0e565b6040516102be9190612693565b60405180910390f35b3480156102d357600080fd5b506102ee60048036038101906102e991906123ad565b610b7c565b005b3480156102fc57600080fd5b50610305610bff565b60405161031291906127ea565b60405180910390f35b34801561032757600080fd5b50610342600480360381019061033d91906122b5565b610c09565b005b34801561035057600080fd5b50610359610e2a565b005b34801561036757600080fd5b50610382600480360381019061037d91906123ad565b6110a8565b60405161038f91906126d7565b60405180910390f35b3480156103a457600080fd5b506103bf60048036038101906103ba9190612263565b611112565b6040516103cc91906127ea565b60405180910390f35b3480156103e157600080fd5b506103ea61115b565b6040516103f791906126f2565b60405180910390f35b34801561040c57600080fd5b5061042760048036038101906104229190612263565b611162565b60405161043491906127ea565b60405180910390f35b34801561044957600080fd5b50610464600480360381019061045f9190612263565b611195565b60405161047191906127ea565b60405180910390f35b34801561048657600080fd5b506104a1600480360381019061049c91906123ad565b6111de565b005b3480156104af57600080fd5b506104ca60048036038101906104c59190612263565b6111ff565b6040516104d791906126d7565b60405180910390f35b3480156104ec57600080fd5b506104f56112d4565b60405161050291906127ea565b60405180910390f35b34801561051757600080fd5b50610532600480360381019061052d919061243b565b6112de565b005b34801561054057600080fd5b5061054961162f565b60405161055691906126f2565b60405180910390f35b34801561056b57600080fd5b50610586600480360381019061058191906122b5565b611653565b005b60007f7965db0b000000000000000000000000000000000000000000000000000000007bffffffffffffffffffffffffffffffffffffffffffffffffffffffff1916827bffffffffffffffffffffffffffffffffffffffffffffffffffffffff191614806105fb57506105fa82611956565b5b9050919050565b6000600460008373ffffffffffffffffffffffffffffffffffffffff1673ffffffffffffffffffffffffffffffffffffffff16815260200190815260200160002054116040518060400160405280600381526020017f3132360000000000000000000000000000000000000000000000000000000000815250906106bc576040517f08c379a00000000000000000000000000000000000000000000000000000000081526004016106b39190612728565b60405180910390fd5b5060006106c882611162565b905080600360008282546106dc91906128b4565b9250508190555080600560008473ffffffffffffffffffffffffffffffffffffffff1673ffffffffffffffffffffffffffffffffffffffff1681526020019081526020016000206000828254019250508190555061073a82826119c0565b808273ffffffffffffffffffffffffffffffffffffffff167fdf20fd1e76bc69d672e4814fafb2c449bba3a5369d8359adf9e05e6fde87b05660405160405180910390a35050565b600060018054906101000a900460ff161590508080156107b3575060018060009054906101000a900460ff1660ff16105b806107e157506107c230611ab4565b1580156107e0575060018060009054906101000a900460ff1660ff16145b5b610820576040517f08c379a0000000000000000000000000000000000000000000000000000000008152600401610817906127aa565b60405180910390fd5b60018060006101000a81548160ff021916908360ff160217905550801561085c5760018060016101000a81548160ff0219169083151502179055505b6108696000801b84611ad7565b6108937ffbd454f36a7e1a388bd6fc3ab10d434aa4578f811acbbcf33afb1c697486313c83611ad7565b60005b8551811015610a6d5760068682815181106108da577f4e487b7100000000000000000000000000000000000000000000000000000000600052603260045260246000fd5b60200260200101519080600181540180825580915050600190039060005260206000200160009091909190916101000a81548173ffffffffffffffffffffffffffffffffffffffff021916908373ffffffffffffffffffffffffffffffffffffffff16021790555084818151811061097b577f4e487b7100000000000000000000000000000000000000000000000000000000600052603260045260246000fd5b6020026020010151600460008884815181106109c0577f4e487b7100000000000000000000000000000000000000000000000000000000600052603260045260246000fd5b602002602001015173ffffffffffffffffffffffffffffffffffffffff1673ffffffffffffffffffffffffffffffffffffffff16815260200190815260200160002081905550848181518110610a3f577f4e487b7100000000000000000000000000000000000000000000000000000000600052603260045260246000fd5b6020026020010151600254610a5491906128b4565b6002819055508080610a6590612b06565b915050610896565b508015610ac75760006001806101000a81548160ff0219169083151502179055507f7f26b83ff96e1f2b6a682f133852f6798a09c465da95921460cefb38474024986001604051610abe919061270d565b60405180910390a15b5050505050565b6000806000838152602001908152602001600020600101549050919050565b610af682610ace565b610aff81611bb7565b610b098383611ad7565b505050565b600060068281548110610b4a577f4e487b7100000000000000000000000000000000000000000000000000000000600052603260045260246000fd5b9060005260206000200160009054906101000a900473ffffffffffffffffffffffffffffffffffffffff169050919050565b610b84611bcb565b73ffffffffffffffffffffffffffffffffffffffff168173ffffffffffffffffffffffffffffffffffffffff1614610bf1576040517f08c379a0000000000000000000000000000000000000000000000000000000008152600401610be8906127ca565b60405180910390fd5b610bfb8282611bd3565b5050565b6000600254905090565b7ffbd454f36a7e1a388bd6fc3ab10d434aa4578f811acbbcf33afb1c697486313c610c3381611bb7565b60001515610c40846111ff565b1515146040518060400160405280600381526020017f313237000000000000000000000000000000000000000000000000000000000081525090610cba576040517f08c379a0000000000000000000000000000000000000000000000000000000008152600401610cb19190612728565b60405180910390fd5b50600082116040518060400160405280600381526020017f313238000000000000000000000000000000000000000000000000000000000081525090610d36576040517f08c379a0000000000000000000000000000000000000000000000000000000008152600401610d2d9190612728565b60405180910390fd5b50600460008473ffffffffffffffffffffffffffffffffffffffff1673ffffffffffffffffffffffffffffffffffffffff1681526020019081526020016000205460026000828254610d889190612995565b925050819055508160026000828254610da191906128b4565b9250508190555081600460008573ffffffffffffffffffffffffffffffffffffffff1673ffffffffffffffffffffffffffffffffffffffff168152602001908152602001600020819055507f63c73b6ba0c6dd96222f5ff08a3755fab02dedf0d99c3085703fa9c05eebf5208383604051610e1d9291906126ae565b60405180910390a1505050565b60005b6006805490508110156110a5576000610ea960068381548110610e79577f4e487b7100000000000000000000000000000000000000000000000000000000600052603260045260246000fd5b9060005260206000200160009054906101000a900473ffffffffffffffffffffffffffffffffffffffff16611162565b90508060036000828254610ebd91906128b4565b92505081905550806005600060068581548110610f03577f4e487b7100000000000000000000000000000000000000000000000000000000600052603260045260246000fd5b9060005260206000200160009054906101000a900473ffffffffffffffffffffffffffffffffffffffff1673ffffffffffffffffffffffffffffffffffffffff1673ffffffffffffffffffffffffffffffffffffffff16815260200190815260200160002060008282540192505081905550600060068381548110610fb1577f4e487b7100000000000000000000000000000000000000000000000000000000600052603260045260246000fd5b9060005260206000200160009054906101000a900473ffffffffffffffffffffffffffffffffffffffff169050610fe881836119c0565b8160068481548110611023577f4e487b7100000000000000000000000000000000000000000000000000000000600052603260045260246000fd5b9060005260206000200160009054906101000a900473ffffffffffffffffffffffffffffffffffffffff1673ffffffffffffffffffffffffffffffffffffffff167fdf20fd1e76bc69d672e4814fafb2c449bba3a5369d8359adf9e05e6fde87b05660405160405180910390a35050808061109d90612b06565b915050610e2d565b50565b600080600084815260200190815260200160002060000160008373ffffffffffffffffffffffffffffffffffffffff1673ffffffffffffffffffffffffffffffffffffffff16815260200190815260200160002060009054906101000a900460ff16905092915050565b6000600560008373ffffffffffffffffffffffffffffffffffffffff1673ffffffffffffffffffffffffffffffffffffffff168152602001908152602001600020549050919050565b6000801b81565b60008061116d6112d4565b4761117891906128b4565b905061118d838261118886611112565b611cb4565b915050919050565b6000600460008373ffffffffffffffffffffffffffffffffffffffff1673ffffffffffffffffffffffffffffffffffffffff168152602001908152602001600020549050919050565b6111e782610ace565b6111f081611bb7565b6111fa8383611bd3565b505050565b600080600090505b6006805490508110156112c9578273ffffffffffffffffffffffffffffffffffffffff1660068281548110611265577f4e487b7100000000000000000000000000000000000000000000000000000000600052603260045260246000fd5b9060005260206000200160009054906101000a900473ffffffffffffffffffffffffffffffffffffffff1673ffffffffffffffffffffffffffffffffffffffff1614156112b65760009150506112cf565b80806112c190612b06565b915050611207565b50600190505b919050565b6000600354905090565b7ffbd454f36a7e1a388bd6fc3ab10d434aa4578f811acbbcf33afb1c697486313c61130881611bb7565b600073ffffffffffffffffffffffffffffffffffffffff166006848154811061135a577f4e487b7100000000000000000000000000000000000000000000000000000000600052603260045260246000fd5b9060005260206000200160009054906101000a900473ffffffffffffffffffffffffffffffffffffffff1673ffffffffffffffffffffffffffffffffffffffff1614156040518060400160405280600381526020017f313330000000000000000000000000000000000000000000000000000000000081525090611414576040517f08c379a000000000000000000000000000000000000000000000000000000000815260040161140b9190612728565b60405180910390fd5b50600060068481548110611451577f4e487b7100000000000000000000000000000000000000000000000000000000600052603260045260246000fd5b9060005260206000200160009054906101000a900473ffffffffffffffffffffffffffffffffffffffff1690506000600460008373ffffffffffffffffffffffffffffffffffffffff1673ffffffffffffffffffffffffffffffffffffffff1681526020019081526020016000205490506000600460008473ffffffffffffffffffffffffffffffffffffffff1673ffffffffffffffffffffffffffffffffffffffff1681526020019081526020016000208190555080600460008673ffffffffffffffffffffffffffffffffffffffff1673ffffffffffffffffffffffffffffffffffffffff168152602001908152602001600020819055508360068681548110611586577f4e487b7100000000000000000000000000000000000000000000000000000000600052603260045260246000fd5b9060005260206000200160006101000a81548173ffffffffffffffffffffffffffffffffffffffff021916908373ffffffffffffffffffffffffffffffffffffffff1602179055508373ffffffffffffffffffffffffffffffffffffffff168273ffffffffffffffffffffffffffffffffffffffff167f2b0f020fc2ca0df9e227d90fbc27227ec945336ab8036526c0ed27f713909aa060405160405180910390a35050505050565b7ffbd454f36a7e1a388bd6fc3ab10d434aa4578f811acbbcf33afb1c697486313c81565b7ffbd454f36a7e1a388bd6fc3ab10d434aa4578f811acbbcf33afb1c697486313c61167d81611bb7565b600073ffffffffffffffffffffffffffffffffffffffff168373ffffffffffffffffffffffffffffffffffffffff1614156040518060400160405280600381526020017f313035000000000000000000000000000000000000000000000000000000000081525090611725576040517f08c379a000000000000000000000000000000000000000000000000000000000815260040161171c9190612728565b60405180910390fd5b50600082116040518060400160405280600381526020017f3132380000000000000000000000000000000000000000000000000000000000815250906117a1576040517f08c379a00000000000000000000000000000000000000000000000000000000081526004016117989190612728565b60405180910390fd5b506000600460008573ffffffffffffffffffffffffffffffffffffffff1673ffffffffffffffffffffffffffffffffffffffff16815260200190815260200160002054146040518060400160405280600381526020017f31323900000000000000000000000000000000000000000000000000000000008152509061185c576040517f08c379a00000000000000000000000000000000000000000000000000000000081526004016118539190612728565b60405180910390fd5b506006839080600181540180825580915050600190039060005260206000200160009091909190916101000a81548173ffffffffffffffffffffffffffffffffffffffff021916908373ffffffffffffffffffffffffffffffffffffffff16021790555081600460008573ffffffffffffffffffffffffffffffffffffffff1673ffffffffffffffffffffffffffffffffffffffff168152602001908152602001600020819055508160025461191291906128b4565b6002819055507f9000b209805850a65058f21361a9978cb30f1413ed555553ab52a59b440b5d9983836040516119499291906126ae565b60405180910390a1505050565b60007f01ffc9a7000000000000000000000000000000000000000000000000000000007bffffffffffffffffffffffffffffffffffffffffffffffffffffffff1916827bffffffffffffffffffffffffffffffffffffffffffffffffffffffff1916149050919050565b80471015611a03576040517f08c379a00000000000000000000000000000000000000000000000000000000081526004016119fa9061278a565b60405180910390fd5b60008273ffffffffffffffffffffffffffffffffffffffff1682604051611a2990612644565b60006040518083038185875af1925050503d8060008114611a66576040519150601f19603f3d011682016040523d82523d6000602084013e611a6b565b606091505b5050905080611aaf576040517f08c379a0000000000000000000000000000000000000000000000000000000008152600401611aa69061276a565b60405180910390fd5b505050565b6000808273ffffffffffffffffffffffffffffffffffffffff163b119050919050565b611ae182826110a8565b611bb357600160008084815260200190815260200160002060000160008373ffffffffffffffffffffffffffffffffffffffff1673ffffffffffffffffffffffffffffffffffffffff16815260200190815260200160002060006101000a81548160ff021916908315150217905550611b58611bcb565b73ffffffffffffffffffffffffffffffffffffffff168173ffffffffffffffffffffffffffffffffffffffff16837f2f8788117e7eff1d82e926ec794901d17c78024a50270940304540a733656f0d60405160405180910390a45b5050565b611bc881611bc3611bcb565b611d22565b50565b600033905090565b611bdd82826110a8565b15611cb057600080600084815260200190815260200160002060000160008373ffffffffffffffffffffffffffffffffffffffff1673ffffffffffffffffffffffffffffffffffffffff16815260200190815260200160002060006101000a81548160ff021916908315150217905550611c55611bcb565b73ffffffffffffffffffffffffffffffffffffffff168173ffffffffffffffffffffffffffffffffffffffff16837ff6391f5c32d9c69d2a47ea670b442974b53935d1edc7fd64eb21e047a839171b60405160405180910390a45b5050565b600081600254600460008773ffffffffffffffffffffffffffffffffffffffff1673ffffffffffffffffffffffffffffffffffffffff1681526020019081526020016000205485611d05919061293b565b611d0f919061290a565b611d199190612995565b90509392505050565b611d2c82826110a8565b611da357611d3981611da7565b611d478360001c6020611dd4565b604051602001611d58929190612659565b6040516020818303038152906040526040517f08c379a0000000000000000000000000000000000000000000000000000000008152600401611d9a9190612728565b60405180910390fd5b5050565b6060611dcd8273ffffffffffffffffffffffffffffffffffffffff16601460ff16611dd4565b9050919050565b606060006002836002611de7919061293b565b611df191906128b4565b67ffffffffffffffff811115611e30577f4e487b7100000000000000000000000000000000000000000000000000000000600052604160045260246000fd5b6040519080825280601f01601f191660200182016040528015611e625781602001600182028036833780820191505090505b5090507f300000000000000000000000000000000000000000000000000000000000000081600081518110611ec0577f4e487b7100000000000000000000000000000000000000000000000000000000600052603260045260246000fd5b60200101907effffffffffffffffffffffffffffffffffffffffffffffffffffffffffffff1916908160001a9053507f780000000000000000000000000000000000000000000000000000000000000081600181518110611f4a577f4e487b7100000000000000000000000000000000000000000000000000000000600052603260045260246000fd5b60200101907effffffffffffffffffffffffffffffffffffffffffffffffffffffffffffff1916908160001a90535060006001846002611f8a919061293b565b611f9491906128b4565b90505b6001811115612080577f3031323334353637383961626364656600000000000000000000000000000000600f861660108110611ffc577f4e487b7100000000000000000000000000000000000000000000000000000000600052603260045260246000fd5b1a60f81b828281518110612039577f4e487b7100000000000000000000000000000000000000000000000000000000600052603260045260246000fd5b60200101907effffffffffffffffffffffffffffffffffffffffffffffffffffffffffffff1916908160001a905350600485901c94508061207990612aab565b9050611f97565b50600084146120c4576040517f08c379a00000000000000000000000000000000000000000000000000000000081526004016120bb9061274a565b60405180910390fd5b8091505092915050565b60006120e16120dc8461282a565b612805565b9050808382526020820190508285602086028201111561210057600080fd5b60005b85811015612130578161211688826121a6565b845260208401935060208301925050600181019050612103565b5050509392505050565b600061214d61214884612856565b612805565b9050808382526020820190508285602086028201111561216c57600080fd5b60005b8581101561219c5781612182888261224e565b84526020840193506020830192505060018101905061216f565b5050509392505050565b6000813590506121b581612d81565b92915050565b6000813590506121ca81612d98565b92915050565b600082601f8301126121e157600080fd5b81356121f18482602086016120ce565b91505092915050565b600082601f83011261220b57600080fd5b813561221b84826020860161213a565b91505092915050565b60008135905061223381612daf565b92915050565b60008135905061224881612dc6565b92915050565b60008135905061225d81612ddd565b92915050565b60006020828403121561227557600080fd5b6000612283848285016121a6565b91505092915050565b60006020828403121561229e57600080fd5b60006122ac848285016121bb565b91505092915050565b600080604083850312156122c857600080fd5b60006122d6858286016121a6565b92505060206122e78582860161224e565b9150509250929050565b6000806000806080858703121561230757600080fd5b600085013567ffffffffffffffff81111561232157600080fd5b61232d878288016121d0565b945050602085013567ffffffffffffffff81111561234a57600080fd5b612356878288016121fa565b9350506040612367878288016121a6565b9250506060612378878288016121a6565b91505092959194509250565b60006020828403121561239657600080fd5b60006123a484828501612224565b91505092915050565b600080604083850312156123c057600080fd5b60006123ce85828601612224565b92505060206123df858286016121a6565b9150509250929050565b6000602082840312156123fb57600080fd5b600061240984828501612239565b91505092915050565b60006020828403121561242457600080fd5b60006124328482850161224e565b91505092915050565b6000806040838503121561244e57600080fd5b600061245c8582860161224e565b925050602061246d858286016121a6565b9150509250929050565b612480816129c9565b82525050565b61248f816129ed565b82525050565b61249e816129f9565b82525050565b6124ad81612a66565b82525050565b60006124be82612882565b6124c88185612898565b93506124d8818560208601612a78565b6124e181612bdc565b840191505092915050565b60006124f782612882565b61250181856128a9565b9350612511818560208601612a78565b80840191505092915050565b600061252a602083612898565b915061253582612bed565b602082019050919050565b600061254d603a83612898565b915061255882612c16565b604082019050919050565b6000612570601d83612898565b915061257b82612c65565b602082019050919050565b6000612593602e83612898565b915061259e82612c8e565b604082019050919050565b60006125b660008361288d565b91506125c182612cdd565b600082019050919050565b60006125d96017836128a9565b91506125e482612ce0565b601782019050919050565b60006125fc6011836128a9565b915061260782612d09565b601182019050919050565b600061261f602f83612898565b915061262a82612d32565b604082019050919050565b61263e81612a4f565b82525050565b600061264f826125a9565b9150819050919050565b6000612664826125cc565b915061267082856124ec565b915061267b826125ef565b915061268782846124ec565b91508190509392505050565b60006020820190506126a86000830184612477565b92915050565b60006040820190506126c36000830185612477565b6126d06020830184612635565b9392505050565b60006020820190506126ec6000830184612486565b92915050565b60006020820190506127076000830184612495565b92915050565b600060208201905061272260008301846124a4565b92915050565b6000602082019050818103600083015261274281846124b3565b905092915050565b600060208201905081810360008301526127638161251d565b9050919050565b6000602082019050818103600083015261278381612540565b9050919050565b600060208201905081810360008301526127a381612563565b9050919050565b600060208201905081810360008301526127c381612586565b9050919050565b600060208201905081810360008301526127e381612612565b9050919050565b60006020820190506127ff6000830184612635565b92915050565b600061280f612820565b905061281b8282612ad5565b919050565b6000604051905090565b600067ffffffffffffffff82111561284557612844612bad565b5b602082029050602081019050919050565b600067ffffffffffffffff82111561287157612870612bad565b5b602082029050602081019050919050565b600081519050919050565b600081905092915050565b600082825260208201905092915050565b600081905092915050565b60006128bf82612a4f565b91506128ca83612a4f565b9250827fffffffffffffffffffffffffffffffffffffffffffffffffffffffffffffffff038211156128ff576128fe612b4f565b5b828201905092915050565b600061291582612a4f565b915061292083612a4f565b9250826129305761292f612b7e565b5b828204905092915050565b600061294682612a4f565b915061295183612a4f565b9250817fffffffffffffffffffffffffffffffffffffffffffffffffffffffffffffffff048311821515161561298a57612989612b4f565b5b828202905092915050565b60006129a082612a4f565b91506129ab83612a4f565b9250828210156129be576129bd612b4f565b5b828203905092915050565b60006129d482612a2f565b9050919050565b60006129e682612a2f565b9050919050565b60008115159050919050565b6000819050919050565b60007fffffffff0000000000000000000000000000000000000000000000000000000082169050919050565b600073ffffffffffffffffffffffffffffffffffffffff82169050919050565b6000819050919050565b600060ff82169050919050565b6000612a7182612a59565b9050919050565b60005b83811015612a96578082015181840152602081019050612a7b565b83811115612aa5576000848401525b50505050565b6000612ab682612a4f565b91506000821415612aca57612ac9612b4f565b5b600182039050919050565b612ade82612bdc565b810181811067ffffffffffffffff82111715612afd57612afc612bad565b5b80604052505050565b6000612b1182612a4f565b91507fffffffffffffffffffffffffffffffffffffffffffffffffffffffffffffffff821415612b4457612b43612b4f565b5b600182019050919050565b7f4e487b7100000000000000000000000000000000000000000000000000000000600052601160045260246000fd5b7f4e487b7100000000000000000000000000000000000000000000000000000000600052601260045260246000fd5b7f4e487b7100000000000000000000000000000000000000000000000000000000600052604160045260246000fd5b6000601f19601f8301169050919050565b7f537472696e67733a20686578206c656e67746820696e73756666696369656e74600082015250565b7f416464726573733a20756e61626c6520746f2073656e642076616c75652c207260008201527f6563697069656e74206d61792068617665207265766572746564000000000000602082015250565b7f416464726573733a20696e73756666696369656e742062616c616e6365000000600082015250565b7f496e697469616c697a61626c653a20636f6e747261637420697320616c72656160008201527f647920696e697469616c697a6564000000000000000000000000000000000000602082015250565b50565b7f416363657373436f6e74726f6c3a206163636f756e7420000000000000000000600082015250565b7f206973206d697373696e6720726f6c6520000000000000000000000000000000600082015250565b7f416363657373436f6e74726f6c3a2063616e206f6e6c792072656e6f756e636560008201527f20726f6c657320666f722073656c660000000000000000000000000000000000602082015250565b612d8a816129c9565b8114612d9557600080fd5b50565b612da1816129db565b8114612dac57600080fd5b50565b612db8816129f9565b8114612dc357600080fd5b50565b612dcf81612a03565b8114612dda57600080fd5b50565b612de681612a4f565b8114612df157600080fd5b5056fea2646970667358221220925a5868410f137be4c0985f62a81a2b8f0fd326a9fd8dab929d519393fbb0bb64736f6c63430008020033",
  "linkReferences": {},
  "deployedLinkReferences": {}
}