{
  "_format": "hh-sol-artifact-1",
  "contractName": "VerifiableIdentityPreventsOnExpiry",
  "sourceName": "contracts/VerifiableIdentityPreventsOnExpiry.sol",
  "abi": [
    {
      "inputs": [
        {
          "internalType": "address",
          "name": "proofContract",
          "type": "address"
        }
      ],
      "stateMutability": "nonpayable",
      "type": "constructor"
    },
    {
      "inputs": [
        {
          "internalType": "bytes8",
          "name": "c__39e378f6",
          "type": "bytes8"
        }
      ],
      "name": "c_39e378f6",
      "outputs": [],
      "stateMutability": "pure",
      "type": "function"
    },
    {
      "inputs": [
        {
          "internalType": "bytes8",
          "name": "c__b1e09423",
          "type": "bytes8"
        }
      ],
      "name": "c_b1e09423",
      "outputs": [],
      "stateMutability": "pure",
      "type": "function"
    },
    {
      "inputs": [
        {
          "internalType": "bytes8",
          "name": "c__b8c9e965",
          "type": "bytes8"
        }
      ],
      "name": "c_b8c9e965",
      "outputs": [],
      "stateMutability": "pure",
      "type": "function"
    },
    {
      "inputs": [
        {
          "internalType": "bytes8",
          "name": "c__39e378f6",
          "type": "bytes8"
        }
      ],
      "name": "c_false39e378f6",
      "outputs": [
        {
          "internalType": "bool",
          "name": "",
          "type": "bool"
        }
      ],
      "stateMutability": "pure",
      "type": "function"
    },
    {
      "inputs": [
        {
          "internalType": "bytes8",
          "name": "c__b1e09423",
          "type": "bytes8"
        }
      ],
      "name": "c_falseb1e09423",
      "outputs": [
        {
          "internalType": "bool",
          "name": "",
          "type": "bool"
        }
      ],
      "stateMutability": "pure",
      "type": "function"
    },
    {
      "inputs": [
        {
          "internalType": "bytes8",
          "name": "c__b8c9e965",
          "type": "bytes8"
        }
      ],
      "name": "c_falseb8c9e965",
      "outputs": [
        {
          "internalType": "bool",
          "name": "",
          "type": "bool"
        }
      ],
      "stateMutability": "pure",
      "type": "function"
    },
    {
      "inputs": [
        {
          "internalType": "bytes8",
          "name": "c__39e378f6",
          "type": "bytes8"
        }
      ],
      "name": "c_true39e378f6",
      "outputs": [
        {
          "internalType": "bool",
          "name": "",
          "type": "bool"
        }
      ],
      "stateMutability": "pure",
      "type": "function"
    },
    {
      "inputs": [
        {
          "internalType": "bytes8",
          "name": "c__b1e09423",
          "type": "bytes8"
        }
      ],
      "name": "c_trueb1e09423",
      "outputs": [
        {
          "internalType": "bool",
          "name": "",
          "type": "bool"
        }
      ],
      "stateMutability": "pure",
      "type": "function"
    },
    {
      "inputs": [
        {
          "internalType": "bytes8",
          "name": "c__b8c9e965",
          "type": "bytes8"
        }
      ],
      "name": "c_trueb8c9e965",
      "outputs": [
        {
          "internalType": "bool",
          "name": "",
          "type": "bool"
        }
      ],
      "stateMutability": "pure",
      "type": "function"
    },
    {
      "inputs": [
        {
          "internalType": "address",
          "name": "account",
          "type": "address"
        }
      ],
      "name": "getUserAccountCountryCodePreventOnExpiry",
      "outputs": [
        {
          "internalType": "string",
          "name": "userAccountCountryCode",
          "type": "string"
        }
      ],
      "stateMutability": "view",
      "type": "function"
    },
    {
      "inputs": [
        {
          "internalType": "address",
          "name": "account",
          "type": "address"
        }
      ],
      "name": "getUserAccountExpiry",
      "outputs": [
        {
          "internalType": "uint256",
          "name": "userAccountExpiry",
          "type": "uint256"
        }
      ],
      "stateMutability": "view",
      "type": "function"
    },
    {
      "inputs": [
        {
          "internalType": "address",
          "name": "account",
          "type": "address"
        }
      ],
      "name": "getUserAccountIdentityBlob",
      "outputs": [
        {
          "components": [
            {
              "internalType": "uint256",
              "name": "tokenId",
              "type": "uint256"
            },
            {
              "internalType": "string",
              "name": "countryCode",
              "type": "string"
            },
            {
              "internalType": "uint8",
              "name": "userType",
              "type": "uint8"
            },
            {
              "internalType": "uint8",
              "name": "level",
              "type": "uint8"
            },
            {
              "internalType": "uint256",
              "name": "expiry",
              "type": "uint256"
            }
          ],
          "internalType": "struct RoleVerification.IdentityBlob",
          "name": "userIdentityBlob",
          "type": "tuple"
        }
      ],
      "stateMutability": "view",
      "type": "function"
    },
    {
      "inputs": [
        {
          "internalType": "address",
          "name": "account",
          "type": "address"
        }
      ],
      "name": "getUserAccountLevelPreventOnExpiry",
      "outputs": [
        {
          "internalType": "uint8",
          "name": "",
          "type": "uint8"
        }
      ],
      "stateMutability": "view",
      "type": "function"
    },
    {
      "inputs": [
        {
          "internalType": "address",
          "name": "account",
          "type": "address"
        }
      ],
      "name": "getUserAccountTypePreventOnExpiry",
      "outputs": [
        {
          "internalType": "uint8",
          "name": "",
          "type": "uint8"
        }
      ],
      "stateMutability": "view",
      "type": "function"
    },
    {
      "inputs": [
        {
          "internalType": "address",
          "name": "account",
          "type": "address"
        }
      ],
      "name": "getUserCountryCodePreventOnExpiry",
      "outputs": [
        {
          "internalType": "string",
          "name": "userAccountCountryCode",
          "type": "string"
        }
      ],
      "stateMutability": "view",
      "type": "function"
    },
    {
      "inputs": [
        {
          "internalType": "address",
          "name": "account",
          "type": "address"
        }
      ],
      "name": "getUserExpiry",
      "outputs": [
        {
          "internalType": "uint256",
          "name": "",
          "type": "uint256"
        }
      ],
      "stateMutability": "view",
      "type": "function"
    },
    {
      "inputs": [
        {
          "internalType": "address",
          "name": "account",
          "type": "address"
        }
      ],
      "name": "getUserIdentityData",
      "outputs": [
        {
          "components": [
            {
              "internalType": "uint256",
              "name": "tokenId",
              "type": "uint256"
            },
            {
              "internalType": "string",
              "name": "countryCode",
              "type": "string"
            },
            {
              "internalType": "uint8",
              "name": "userType",
              "type": "uint8"
            },
            {
              "internalType": "uint8",
              "name": "level",
              "type": "uint8"
            },
            {
              "internalType": "uint256",
              "name": "expiry",
              "type": "uint256"
            }
          ],
          "internalType": "struct RoleVerification.IdentityBlob",
          "name": "userAccountIdentityBlob",
          "type": "tuple"
        }
      ],
      "stateMutability": "view",
      "type": "function"
    },
    {
      "inputs": [
        {
          "internalType": "address",
          "name": "account",
          "type": "address"
        }
      ],
      "name": "getUserLevelPreventOnExpiry",
      "outputs": [
        {
          "internalType": "uint8",
          "name": "userAccountLevel",
          "type": "uint8"
        }
      ],
      "stateMutability": "view",
      "type": "function"
    },
    {
      "inputs": [
        {
          "internalType": "address",
          "name": "account",
          "type": "address"
        }
      ],
      "name": "getUserTypePreventOnExpiry",
      "outputs": [
        {
          "internalType": "uint8",
          "name": "userAccountType",
          "type": "uint8"
        }
      ],
      "stateMutability": "view",
      "type": "function"
    },
    {
      "inputs": [
        {
          "internalType": "address",
          "name": "",
          "type": "address"
        }
      ],
      "name": "identityBlob",
      "outputs": [
        {
          "internalType": "uint256",
          "name": "tokenId",
          "type": "uint256"
        },
        {
          "internalType": "string",
          "name": "countryCode",
          "type": "string"
        },
        {
          "internalType": "uint8",
          "name": "userType",
          "type": "uint8"
        },
        {
          "internalType": "uint8",
          "name": "level",
          "type": "uint8"
        },
        {
          "internalType": "uint256",
          "name": "expiry",
          "type": "uint256"
        }
      ],
      "stateMutability": "view",
      "type": "function"
    }
  ],
  "bytecode": "0x60806040523480156200001157600080fd5b5060405162001b5138038062001b518339818101604052810190620000379190620000d1565b6200005367114da5f07da2cbb060c01b620000b760201b60201c565b6200006f67d066f3321a485c1360c01b620000b760201b60201c565b80600160006101000a81548173ffffffffffffffffffffffffffffffffffffffff021916908373ffffffffffffffffffffffffffffffffffffffff160217905550506200014b565b50565b600081519050620000cb8162000131565b92915050565b600060208284031215620000e457600080fd5b6000620000f484828501620000ba565b91505092915050565b60006200010a8262000111565b9050919050565b600073ffffffffffffffffffffffffffffffffffffffff82169050919050565b6200013c81620000fd565b81146200014857600080fd5b50565b6119f6806200015b6000396000f3fe608060405234801561001057600080fd5b506004361061012c5760003560e01c806389254975116100ad578063dd9e939211610071578063dd9e9392146103f1578063dee4c7091461040d578063ec4d57b31461043d578063ec89573114610459578063eee84487146104895761012c565b80638925497514610301578063949cdd6e1461033157806396257e4d14610361578063bc5c908f14610391578063c8755ecf146103c15761012c565b806360f9f45b116100f457806360f9f45b14610221578063688ea9fe146102515780636ca5fde8146102855780637bdd2874146102b5578063819d1a04146102d15761012c565b806309299ea31461013157806319af90da146101615780631fe0094a146101915780632deb044a146101c15780636020c7be146101f1575b600080fd5b61014b600480360381019061014691906113e9565b6104b9565b60405161015891906116cb565b60405180910390f35b61017b600480360381019061017691906113e9565b610540565b6040516101889190611740565b60405180910390f35b6101ab60048036038101906101a691906113e9565b610630565b6040516101b89190611740565b60405180910390f35b6101db60048036038101906101d691906113e9565b6107f6565b6040516101e891906116a9565b60405180910390f35b61020b600480360381019061020691906113e9565b6108f1565b6040516102189190611687565b60405180910390f35b61023b600480360381019061023691906113e9565b6109e6565b6040516102489190611740565b60405180910390f35b61026b600480360381019061026691906113e9565b610ad6565b60405161027c9594939291906116e6565b60405180910390f35b61029f600480360381019061029a91906113e9565b610bae565b6040516102ac91906116a9565b60405180910390f35b6102cf60048036038101906102ca9190611412565b610d22565b005b6102eb60048036038101906102e69190611412565b610d25565b6040516102f8919061166c565b60405180910390f35b61031b60048036038101906103169190611412565b610d30565b604051610328919061166c565b60405180910390f35b61034b600480360381019061034691906113e9565b610d3b565b6040516103589190611740565b60405180910390f35b61037b600480360381019061037691906113e9565b610f01565b6040516103889190611687565b60405180910390f35b6103ab60048036038101906103a69190611412565b611142565b6040516103b8919061166c565b60405180910390f35b6103db60048036038101906103d69190611412565b611149565b6040516103e8919061166c565b60405180910390f35b61040b60048036038101906104069190611412565b611150565b005b61042760048036038101906104229190611412565b611153565b604051610434919061166c565b60405180910390f35b61045760048036038101906104529190611412565b61115e565b005b610473600480360381019061046e9190611412565b611161565b604051610480919061166c565b60405180910390f35b6104a3600480360381019061049e91906113e9565b611168565b6040516104b091906116cb565b60405180910390f35b60006104cf67c1c9ef872120ad4c60c01b61115e565b6104e36722a4df8a42ceaa6160c01b61115e565b6104f76794447c4bb948903360c01b61115e565b6000808373ffffffffffffffffffffffffffffffffffffffff1673ffffffffffffffffffffffffffffffffffffffff168152602001908152602001600020600301549050919050565b6000610556672edd21c6479e565160c01b610d22565b61056a67cb63dd96fa2bc4b760c01b610d22565b61057e675a4d9957dc34a73d60c01b610d22565b600160009054906101000a900473ffffffffffffffffffffffffffffffffffffffff1673ffffffffffffffffffffffffffffffffffffffff16631fe0094a836040518263ffffffff1660e01b81526004016105d99190611651565b60206040518083038186803b1580156105f157600080fd5b505afa158015610605573d6000803e3d6000fd5b505050506040513d601f19601f8201168201806040525081019061062991906114e6565b9050919050565b6000610646678a8a08e8027046c760c01b611150565b61065a6791c41a347ba64e9660c01b611150565b61066e679881f450aa1ce9eb60c01b611150565b6000808373ffffffffffffffffffffffffffffffffffffffff1673ffffffffffffffffffffffffffffffffffffffff168152602001908152602001600020600301544210610764576106ca67312e0ffaf24bb87460c01b611150565b6106de67c78863f958234bc560c01b611150565b6106f267c5c511546c50c45160c01b611150565b6040518060400160405280600381526020017f31303300000000000000000000000000000000000000000000000000000000008152506040517f08c379a000000000000000000000000000000000000000000000000000000000815260040161075b9190611687565b60405180910390fd5b6107786706dae439f14a554160c01b611150565b61078c67d9a43cd54b2554f860c01b611150565b6107a067b80c4d30135ffecc60c01b611150565b6000808373ffffffffffffffffffffffffffffffffffffffff1673ffffffffffffffffffffffffffffffffffffffff16815260200190815260200160002060020160009054906101000a900460ff169050919050565b6107fe611258565b61081267301f548dc102b43f60c01b610d22565b610826670f97fff3c86fc1ee60c01b610d22565b61083a6748fd7e7c84df656260c01b610d22565b600160009054906101000a900473ffffffffffffffffffffffffffffffffffffffff1673ffffffffffffffffffffffffffffffffffffffff16636ca5fde8836040518263ffffffff1660e01b81526004016108959190611651565b60006040518083038186803b1580156108ad57600080fd5b505afa1580156108c1573d6000803e3d6000fd5b505050506040513d6000823e3d601f19601f820116820180604052508101906108ea919061147c565b9050919050565b60606109076738df39d427da90c560c01b610d22565b61091b6724d47fc2014f851660c01b610d22565b61092f67c5ec21534b2e166f60c01b610d22565b600160009054906101000a900473ffffffffffffffffffffffffffffffffffffffff1673ffffffffffffffffffffffffffffffffffffffff166396257e4d836040518263ffffffff1660e01b815260040161098a9190611651565b60006040518083038186803b1580156109a257600080fd5b505afa1580156109b6573d6000803e3d6000fd5b505050506040513d6000823e3d601f19601f820116820180604052508101906109df919061143b565b9050919050565b60006109fc67e52a9c1fb9cd631560c01b610d22565b610a1067f172a9dc0422d27c60c01b610d22565b610a2467a75bc0529742d4d160c01b610d22565b600160009054906101000a900473ffffffffffffffffffffffffffffffffffffffff1673ffffffffffffffffffffffffffffffffffffffff1663949cdd6e836040518263ffffffff1660e01b8152600401610a7f9190611651565b60206040518083038186803b158015610a9757600080fd5b505afa158015610aab573d6000803e3d6000fd5b505050506040513d601f19601f82011682018060405250810190610acf91906114e6565b9050919050565b6000602052806000526040600020600091509050806000015490806001018054610aff90611892565b80601f0160208091040260200160405190810160405280929190818152602001828054610b2b90611892565b8015610b785780601f10610b4d57610100808354040283529160200191610b78565b820191906000526020600020905b815481529060010190602001808311610b5b57829003601f168201915b5050505050908060020160009054906101000a900460ff16908060020160019054906101000a900460ff16908060030154905085565b610bb6611258565b610bca67a05f59d4624295fd60c01b61115e565b610bde6769c1a1d6327d607160c01b61115e565b610bf267bdaf4779ff83744f60c01b61115e565b6000808373ffffffffffffffffffffffffffffffffffffffff1673ffffffffffffffffffffffffffffffffffffffff1681526020019081526020016000206040518060a001604052908160008201548152602001600182018054610c5590611892565b80601f0160208091040260200160405190810160405280929190818152602001828054610c8190611892565b8015610cce5780601f10610ca357610100808354040283529160200191610cce565b820191906000526020600020905b815481529060010190602001808311610cb157829003601f168201915b505050505081526020016002820160009054906101000a900460ff1660ff1660ff1681526020016002820160019054906101000a900460ff1660ff1660ff1681526020016003820154815250509050919050565b50565b600060019050919050565b600060019050919050565b6000610d5167e7400f8588b3b9fd60c01b611150565b610d6567218e4aadc28bad5460c01b611150565b610d796709e2c5a8a6db9e6460c01b611150565b6000808373ffffffffffffffffffffffffffffffffffffffff1673ffffffffffffffffffffffffffffffffffffffff168152602001908152602001600020600301544210610e6f57610dd567a46d03d2c5d0aae460c01b611150565b610de96759e43ca1959c0a4e60c01b611150565b610dfd67c0882176d22f194460c01b611150565b6040518060400160405280600381526020017f31303300000000000000000000000000000000000000000000000000000000008152506040517f08c379a0000000000000000000000000000000000000000000000000000000008152600401610e669190611687565b60405180910390fd5b610e836719c99830b5b4654060c01b611150565b610e976792805f3a7478451b60c01b611150565b610eab6746c027269ffad2a760c01b611150565b6000808373ffffffffffffffffffffffffffffffffffffffff1673ffffffffffffffffffffffffffffffffffffffff16815260200190815260200160002060020160019054906101000a900460ff169050919050565b6060610f1767798aa39337352c8c60c01b611150565b610f2b67dab4f449d5de2f6f60c01b611150565b610f3f6770d4d7382d2a981660c01b611150565b6000808373ffffffffffffffffffffffffffffffffffffffff1673ffffffffffffffffffffffffffffffffffffffff16815260200190815260200160002060030154421061103557610f9b67c5c834afaae4a7d160c01b611150565b610faf67282dd2059d86991c60c01b611150565b610fc367bc73e24e23818fec60c01b611150565b6040518060400160405280600381526020017f31303300000000000000000000000000000000000000000000000000000000008152506040517f08c379a000000000000000000000000000000000000000000000000000000000815260040161102c9190611687565b60405180910390fd5b611049673afbff51046f6dc960c01b611150565b61105d67dc0c995e8c89436c60c01b611150565b61107167c8c8ce89cab65bb260c01b611150565b6000808373ffffffffffffffffffffffffffffffffffffffff1673ffffffffffffffffffffffffffffffffffffffff16815260200190815260200160002060010180546110bd90611892565b80601f01602080910402602001604051908101604052809291908181526020018280546110e990611892565b80156111365780601f1061110b57610100808354040283529160200191611136565b820191906000526020600020905b81548152906001019060200180831161111957829003601f168201915b50505050509050919050565b6000919050565b6000919050565b50565b600060019050919050565b50565b6000919050565b600061117e670f88f2a0dcb65c1c60c01b610d22565b61119267b8603facb6a4a5d360c01b610d22565b6111a667c7ea2e9d9cdc4fed60c01b610d22565b600160009054906101000a900473ffffffffffffffffffffffffffffffffffffffff1673ffffffffffffffffffffffffffffffffffffffff166309299ea3836040518263ffffffff1660e01b81526004016112019190611651565b60206040518083038186803b15801561121957600080fd5b505afa15801561122d573d6000803e3d6000fd5b505050506040513d601f19601f8201168201806040525081019061125191906114bd565b9050919050565b6040518060a001604052806000815260200160608152602001600060ff168152602001600060ff168152602001600081525090565b60006112a061129b84611780565b61175b565b9050828152602081018484840111156112b857600080fd5b6112c384828561185f565b509392505050565b6000813590506112da81611964565b92915050565b6000813590506112ef8161197b565b92915050565b600082601f83011261130657600080fd5b815161131684826020860161128d565b91505092915050565b600060a0828403121561133157600080fd5b61133b60a061175b565b9050600061134b848285016113bf565b600083015250602082015167ffffffffffffffff81111561136b57600080fd5b611377848285016112f5565b602083015250604061138b848285016113d4565b604083015250606061139f848285016113d4565b60608301525060806113b3848285016113bf565b60808301525092915050565b6000815190506113ce81611992565b92915050565b6000815190506113e3816119a9565b92915050565b6000602082840312156113fb57600080fd5b6000611409848285016112cb565b91505092915050565b60006020828403121561142457600080fd5b6000611432848285016112e0565b91505092915050565b60006020828403121561144d57600080fd5b600082015167ffffffffffffffff81111561146757600080fd5b611473848285016112f5565b91505092915050565b60006020828403121561148e57600080fd5b600082015167ffffffffffffffff8111156114a857600080fd5b6114b48482850161131f565b91505092915050565b6000602082840312156114cf57600080fd5b60006114dd848285016113bf565b91505092915050565b6000602082840312156114f857600080fd5b6000611506848285016113d4565b91505092915050565b611518816117de565b82525050565b611527816117f0565b82525050565b6000611538826117b1565b61154281856117bc565b935061155281856020860161185f565b61155b81611953565b840191505092915050565b6000611571826117b1565b61157b81856117cd565b935061158b81856020860161185f565b61159481611953565b840191505092915050565b600060a0830160008301516115b76000860182611615565b50602083015184820360208601526115cf828261152d565b91505060408301516115e46040860182611633565b5060608301516115f76060860182611633565b50608083015161160a6080860182611615565b508091505092915050565b61161e81611848565b82525050565b61162d81611848565b82525050565b61163c81611852565b82525050565b61164b81611852565b82525050565b6000602082019050611666600083018461150f565b92915050565b6000602082019050611681600083018461151e565b92915050565b600060208201905081810360008301526116a18184611566565b905092915050565b600060208201905081810360008301526116c3818461159f565b905092915050565b60006020820190506116e06000830184611624565b92915050565b600060a0820190506116fb6000830188611624565b818103602083015261170d8187611566565b905061171c6040830186611642565b6117296060830185611642565b6117366080830184611624565b9695505050505050565b60006020820190506117556000830184611642565b92915050565b6000611765611776565b905061177182826118c4565b919050565b6000604051905090565b600067ffffffffffffffff82111561179b5761179a611924565b5b6117a482611953565b9050602081019050919050565b600081519050919050565b600082825260208201905092915050565b600082825260208201905092915050565b60006117e982611828565b9050919050565b60008115159050919050565b60007fffffffffffffffff00000000000000000000000000000000000000000000000082169050919050565b600073ffffffffffffffffffffffffffffffffffffffff82169050919050565b6000819050919050565b600060ff82169050919050565b60005b8381101561187d578082015181840152602081019050611862565b8381111561188c576000848401525b50505050565b600060028204905060018216806118aa57607f821691505b602082108114156118be576118bd6118f5565b5b50919050565b6118cd82611953565b810181811067ffffffffffffffff821117156118ec576118eb611924565b5b80604052505050565b7f4e487b7100000000000000000000000000000000000000000000000000000000600052602260045260246000fd5b7f4e487b7100000000000000000000000000000000000000000000000000000000600052604160045260246000fd5b6000601f19601f8301169050919050565b61196d816117de565b811461197857600080fd5b50565b611984816117fc565b811461198f57600080fd5b50565b61199b81611848565b81146119a657600080fd5b50565b6119b281611852565b81146119bd57600080fd5b5056fea26469706673582212200fc747273970b92b86468817e03b8f91e8dbb39cc1ea21f742d0e754016fc9eb64736f6c63430008020033",
  "linkReferences": {},
  "deployedLinkReferences": {}
}