{
  "_format": "hh-sol-artifact-1",
  "contractName": "VerifiableIdentityPreventsOnExpiry",
  "sourceName": "contracts/VerifiableIdentityPreventsOnExpiry.sol",
  "abi": [
    {
      "inputs": [
        {
          "internalType": "address",
          "name": "_proofOfIdentityContract",
          "type": "address"
        }
      ],
      "stateMutability": "nonpayable",
      "type": "constructor"
    },
    {
      "inputs": [
        {
          "internalType": "address",
          "name": "account",
          "type": "address"
        }
      ],
      "name": "getUserCompetencyRatingPreventOnExpiry",
      "outputs": [
        {
          "internalType": "uint8",
          "name": "",
          "type": "uint8"
        }
      ],
      "stateMutability": "view",
      "type": "function"
    },
    {
      "inputs": [
        {
          "internalType": "address",
          "name": "account",
          "type": "address"
        }
      ],
      "name": "getUserCountryCodePreventOnExpiry",
      "outputs": [
        {
          "internalType": "string",
          "name": "userAccountCountryCode",
          "type": "string"
        }
      ],
      "stateMutability": "view",
      "type": "function"
    },
    {
      "inputs": [
        {
          "internalType": "address",
          "name": "account",
          "type": "address"
        }
      ],
      "name": "getUserExpiry",
      "outputs": [
        {
          "internalType": "uint256",
          "name": "",
          "type": "uint256"
        }
      ],
      "stateMutability": "view",
      "type": "function"
    },
    {
      "inputs": [
        {
          "internalType": "address",
          "name": "account",
          "type": "address"
        }
      ],
      "name": "getUserIdentityData",
      "outputs": [
        {
          "components": [
            {
              "internalType": "uint256",
              "name": "tokenId",
              "type": "uint256"
            },
            {
              "internalType": "string",
              "name": "countryCode",
              "type": "string"
            },
            {
              "internalType": "uint8",
              "name": "userType",
              "type": "uint8"
            },
            {
              "internalType": "uint8",
              "name": "level",
              "type": "uint8"
            },
            {
              "internalType": "uint256",
              "name": "expiry",
              "type": "uint256"
            },
            {
              "internalType": "uint8",
              "name": "competencyRating",
              "type": "uint8"
            }
          ],
          "internalType": "struct IRoleVerification.IdentityBlob",
          "name": "",
          "type": "tuple"
        }
      ],
      "stateMutability": "view",
      "type": "function"
    },
    {
      "inputs": [
        {
          "internalType": "address",
          "name": "account",
          "type": "address"
        }
      ],
      "name": "getUserLevelPreventOnExpiry",
      "outputs": [
        {
          "internalType": "uint8",
          "name": "userAccountLevel",
          "type": "uint8"
        }
      ],
      "stateMutability": "view",
      "type": "function"
    },
    {
      "inputs": [
        {
          "internalType": "address",
          "name": "account",
          "type": "address"
        }
      ],
      "name": "getUserTypePreventOnExpiry",
      "outputs": [
        {
          "internalType": "uint8",
          "name": "userAccountType",
          "type": "uint8"
        }
      ],
      "stateMutability": "view",
      "type": "function"
    }
  ],
  "bytecode": "0x608060405234801561001057600080fd5b5060405161082738038061082783398101604081905261002f91610054565b600080546001600160a01b0319166001600160a01b0392909216919091179055610082565b600060208284031215610065578081fd5b81516001600160a01b038116811461007b578182fd5b9392505050565b610796806100916000396000f3fe608060405234801561001057600080fd5b50600436106100725760003560e01c806360f9f45b1161005057806360f9f45b146100e1578063ab3ea17e146100f4578063eee844871461010757610072565b806319af90da146100775780632deb044a146100a15780636020c7be146100c1575b600080fd5b61008a6100853660046104e9565b610128565b60405160ff90911681526020015b60405180910390f35b6100b46100af3660046104e9565b6101c8565b604051610098919061066d565b6100d46100cf3660046104e9565b6102a4565b604051610098919061065a565b61008a6100ef3660046104e9565b61033f565b61008a6101023660046104e9565b61038b565b61011a6101153660046104e9565b6103d7565b604051908152602001610098565b600080546040517f1fe0094a0000000000000000000000000000000000000000000000000000000081526001600160a01b03848116600483015290911690631fe0094a906024015b60206040518083038186803b15801561018857600080fd5b505afa15801561019c573d6000803e3d6000fd5b505050506040513d601f19601f820116820180604052508101906101c09190610614565b90505b919050565b61020a6040518060c001604052806000815260200160608152602001600060ff168152602001600060ff16815260200160008152602001600060ff1681525090565b6000546040517f6ca5fde80000000000000000000000000000000000000000000000000000000081526001600160a01b03848116600483015290911690636ca5fde89060240160006040518083038186803b15801561026857600080fd5b505afa15801561027c573d6000803e3d6000fd5b505050506040513d6000823e601f3d908101601f191682016040526101c0919081019061054a565b6000546040517f96257e4d0000000000000000000000000000000000000000000000000000000081526001600160a01b03838116600483015260609216906396257e4d9060240160006040518083038186803b15801561030357600080fd5b505afa158015610317573d6000803e3d6000fd5b505050506040513d6000823e601f3d908101601f191682016040526101c09190810190610517565b600080546040517f949cdd6e0000000000000000000000000000000000000000000000000000000081526001600160a01b0384811660048301529091169063949cdd6e90602401610170565b600080546040517fd510b7120000000000000000000000000000000000000000000000000000000081526001600160a01b0384811660048301529091169063d510b71290602401610170565b600080546040517f09299ea30000000000000000000000000000000000000000000000000000000081526001600160a01b038481166004830152909116906309299ea39060240160206040518083038186803b15801561043657600080fd5b505afa15801561044a573d6000803e3d6000fd5b505050506040513d601f19601f820116820180604052508101906101c091906105fc565b600082601f83011261047e578081fd5b815167ffffffffffffffff81111561049857610498610731565b6104ab601f8201601f19166020016106d0565b8181528460208386010111156104bf578283fd5b6104d0826020830160208701610701565b949350505050565b805160ff811681146101c357600080fd5b6000602082840312156104fa578081fd5b81356001600160a01b0381168114610510578182fd5b9392505050565b600060208284031215610528578081fd5b815167ffffffffffffffff81111561053e578182fd5b6104d08482850161046e565b60006020828403121561055b578081fd5b815167ffffffffffffffff80821115610572578283fd5b9083019060c08286031215610585578283fd5b61058f60c06106d0565b825181526020830151828111156105a4578485fd5b6105b08782860161046e565b6020830152506105c2604084016104d8565b60408201526105d3606084016104d8565b6060820152608083015160808201526105ee60a084016104d8565b60a082015295945050505050565b60006020828403121561060d578081fd5b5051919050565b600060208284031215610625578081fd5b610510826104d8565b60008151808452610646816020860160208601610701565b601f01601f19169290920160200192915050565b600060208252610510602083018461062e565b60006020825282516020830152602083015160c0604084015261069360e084018261062e565b905060ff604085015116606084015260ff6060850151166080840152608084015160a084015260ff60a08501511660c08401528091505092915050565b604051601f8201601f1916810167ffffffffffffffff811182821017156106f9576106f9610731565b604052919050565b60005b8381101561071c578181015183820152602001610704565b8381111561072b576000848401525b50505050565b7f4e487b7100000000000000000000000000000000000000000000000000000000600052604160045260246000fdfea264697066735822122041d76f0c034af795287bd58510400ff6a3401f3c3b004ce0e045218aa823af4d64736f6c63430008020033",
  "linkReferences": {},
  "deployedLinkReferences": {}
}