{
  "_format": "hh-sol-artifact-1",
  "contractName": "VerifiableIdentityPreventsOnExpiry",
  "sourceName": "contracts/VerifiableIdentityPreventsOnExpiry.sol",
  "abi": [
    {
      "inputs": [
        {
          "internalType": "address",
          "name": "proofContract",
          "type": "address"
        }
      ],
      "stateMutability": "nonpayable",
      "type": "constructor"
    },
    {
      "inputs": [
        {
          "internalType": "address",
          "name": "account",
          "type": "address"
        }
      ],
      "name": "getUserAccountCountryCodePreventOnExpiry",
      "outputs": [
        {
          "internalType": "string",
          "name": "userAccountCountryCode",
          "type": "string"
        }
      ],
      "stateMutability": "view",
      "type": "function"
    },
    {
      "inputs": [
        {
          "internalType": "address",
          "name": "account",
          "type": "address"
        }
      ],
      "name": "getUserAccountExpiry",
      "outputs": [
        {
          "internalType": "uint256",
          "name": "userAccountExpiry",
          "type": "uint256"
        }
      ],
      "stateMutability": "view",
      "type": "function"
    },
    {
      "inputs": [
        {
          "internalType": "address",
          "name": "account",
          "type": "address"
        }
      ],
      "name": "getUserAccountIdentityBlob",
      "outputs": [
        {
          "components": [
            {
              "internalType": "uint256",
              "name": "tokenId",
              "type": "uint256"
            },
            {
              "internalType": "string",
              "name": "countryCode",
              "type": "string"
            },
            {
              "internalType": "uint8",
              "name": "userType",
              "type": "uint8"
            },
            {
              "internalType": "uint8",
              "name": "level",
              "type": "uint8"
            },
            {
              "internalType": "uint256",
              "name": "expiry",
              "type": "uint256"
            }
          ],
          "internalType": "struct RoleVerification.IdentityBlob",
          "name": "userIdentityBlob",
          "type": "tuple"
        }
      ],
      "stateMutability": "view",
      "type": "function"
    },
    {
      "inputs": [
        {
          "internalType": "address",
          "name": "account",
          "type": "address"
        }
      ],
      "name": "getUserAccountLevelPreventOnExpiry",
      "outputs": [
        {
          "internalType": "uint8",
          "name": "",
          "type": "uint8"
        }
      ],
      "stateMutability": "view",
      "type": "function"
    },
    {
      "inputs": [
        {
          "internalType": "address",
          "name": "account",
          "type": "address"
        }
      ],
      "name": "getUserAccountTypePreventOnExpiry",
      "outputs": [
        {
          "internalType": "uint8",
          "name": "",
          "type": "uint8"
        }
      ],
      "stateMutability": "view",
      "type": "function"
    },
    {
      "inputs": [
        {
          "internalType": "address",
          "name": "account",
          "type": "address"
        }
      ],
      "name": "getUserCountryCodePreventOnExpiry",
      "outputs": [
        {
          "internalType": "string",
          "name": "userAccountCountryCode",
          "type": "string"
        }
      ],
      "stateMutability": "view",
      "type": "function"
    },
    {
      "inputs": [
        {
          "internalType": "address",
          "name": "account",
          "type": "address"
        }
      ],
      "name": "getUserExpiry",
      "outputs": [
        {
          "internalType": "uint256",
          "name": "",
          "type": "uint256"
        }
      ],
      "stateMutability": "view",
      "type": "function"
    },
    {
      "inputs": [
        {
          "internalType": "address",
          "name": "account",
          "type": "address"
        }
      ],
      "name": "getUserIdentityData",
      "outputs": [
        {
          "components": [
            {
              "internalType": "uint256",
              "name": "tokenId",
              "type": "uint256"
            },
            {
              "internalType": "string",
              "name": "countryCode",
              "type": "string"
            },
            {
              "internalType": "uint8",
              "name": "userType",
              "type": "uint8"
            },
            {
              "internalType": "uint8",
              "name": "level",
              "type": "uint8"
            },
            {
              "internalType": "uint256",
              "name": "expiry",
              "type": "uint256"
            }
          ],
          "internalType": "struct RoleVerification.IdentityBlob",
          "name": "userAccountIdentityBlob",
          "type": "tuple"
        }
      ],
      "stateMutability": "view",
      "type": "function"
    },
    {
      "inputs": [
        {
          "internalType": "address",
          "name": "account",
          "type": "address"
        }
      ],
      "name": "getUserLevelPreventOnExpiry",
      "outputs": [
        {
          "internalType": "uint8",
          "name": "userAccountLevel",
          "type": "uint8"
        }
      ],
      "stateMutability": "view",
      "type": "function"
    },
    {
      "inputs": [
        {
          "internalType": "address",
          "name": "account",
          "type": "address"
        }
      ],
      "name": "getUserTypePreventOnExpiry",
      "outputs": [
        {
          "internalType": "uint8",
          "name": "userAccountType",
          "type": "uint8"
        }
      ],
      "stateMutability": "view",
      "type": "function"
    },
    {
      "inputs": [
        {
          "internalType": "address",
          "name": "",
          "type": "address"
        }
      ],
      "name": "identityBlob",
      "outputs": [
        {
          "internalType": "uint256",
          "name": "tokenId",
          "type": "uint256"
        },
        {
          "internalType": "string",
          "name": "countryCode",
          "type": "string"
        },
        {
          "internalType": "uint8",
          "name": "userType",
          "type": "uint8"
        },
        {
          "internalType": "uint8",
          "name": "level",
          "type": "uint8"
        },
        {
          "internalType": "uint256",
          "name": "expiry",
          "type": "uint256"
        }
      ],
      "stateMutability": "view",
      "type": "function"
    }
  ],
  "bytecode": "0x60806040523480156200001157600080fd5b506040516200146938038062001469833981810160405281019062000037919062000096565b80600160006101000a81548173ffffffffffffffffffffffffffffffffffffffff021916908373ffffffffffffffffffffffffffffffffffffffff1602179055505062000110565b6000815190506200009081620000f6565b92915050565b600060208284031215620000a957600080fd5b6000620000b9848285016200007f565b91505092915050565b6000620000cf82620000d6565b9050919050565b600073ffffffffffffffffffffffffffffffffffffffff82169050919050565b6200010181620000c2565b81146200010d57600080fd5b50565b61134980620001206000396000f3fe608060405234801561001057600080fd5b50600436106100a95760003560e01c806360f9f45b1161007157806360f9f45b1461019e578063688ea9fe146101ce5780636ca5fde814610202578063949cdd6e1461023257806396257e4d14610262578063eee8448714610292576100a9565b806309299ea3146100ae57806319af90da146100de5780631fe0094a1461010e5780632deb044a1461013e5780636020c7be1461016e575b600080fd5b6100c860048036038101906100c39190610dde565b6102c2565b6040516100d5919061106d565b60405180910390f35b6100f860048036038101906100f39190610dde565b61030d565b60405161010591906110e2565b60405180910390f35b61012860048036038101906101239190610dde565b6103c1565b60405161013591906110e2565b60405180910390f35b61015860048036038101906101539190610dde565b6104d3565b604051610165919061104b565b60405180910390f35b61018860048036038101906101839190610dde565b610592565b6040516101959190611029565b60405180910390f35b6101b860048036038101906101b39190610dde565b61064b565b6040516101c591906110e2565b60405180910390f35b6101e860048036038101906101e39190610dde565b6106ff565b6040516101f9959493929190611088565b60405180910390f35b61021c60048036038101906102179190610dde565b6107d7565b604051610229919061104b565b60405180910390f35b61024c60048036038101906102479190610dde565b61090f565b60405161025991906110e2565b60405180910390f35b61027c60048036038101906102779190610dde565b610a21565b6040516102899190611029565b60405180910390f35b6102ac60048036038101906102a79190610dde565b610bae565b6040516102b9919061106d565b60405180910390f35b60008060008373ffffffffffffffffffffffffffffffffffffffff1673ffffffffffffffffffffffffffffffffffffffff168152602001908152602001600020600301549050919050565b6000600160009054906101000a900473ffffffffffffffffffffffffffffffffffffffff1673ffffffffffffffffffffffffffffffffffffffff16631fe0094a836040518263ffffffff1660e01b815260040161036a919061100e565b60206040518083038186803b15801561038257600080fd5b505afa158015610396573d6000803e3d6000fd5b505050506040513d601f19601f820116820180604052508101906103ba9190610eb2565b9050919050565b60008060008373ffffffffffffffffffffffffffffffffffffffff1673ffffffffffffffffffffffffffffffffffffffff16815260200190815260200160002060030154421061047d576040518060400160405280600381526020017f31303300000000000000000000000000000000000000000000000000000000008152506040517f08c379a00000000000000000000000000000000000000000000000000000000081526004016104749190611029565b60405180910390fd5b6000808373ffffffffffffffffffffffffffffffffffffffff1673ffffffffffffffffffffffffffffffffffffffff16815260200190815260200160002060020160009054906101000a900460ff169050919050565b6104db610c62565b600160009054906101000a900473ffffffffffffffffffffffffffffffffffffffff1673ffffffffffffffffffffffffffffffffffffffff16636ca5fde8836040518263ffffffff1660e01b8152600401610536919061100e565b60006040518083038186803b15801561054e57600080fd5b505afa158015610562573d6000803e3d6000fd5b505050506040513d6000823e3d601f19601f8201168201806040525081019061058b9190610e48565b9050919050565b6060600160009054906101000a900473ffffffffffffffffffffffffffffffffffffffff1673ffffffffffffffffffffffffffffffffffffffff166396257e4d836040518263ffffffff1660e01b81526004016105ef919061100e565b60006040518083038186803b15801561060757600080fd5b505afa15801561061b573d6000803e3d6000fd5b505050506040513d6000823e3d601f19601f820116820180604052508101906106449190610e07565b9050919050565b6000600160009054906101000a900473ffffffffffffffffffffffffffffffffffffffff1673ffffffffffffffffffffffffffffffffffffffff1663949cdd6e836040518263ffffffff1660e01b81526004016106a8919061100e565b60206040518083038186803b1580156106c057600080fd5b505afa1580156106d4573d6000803e3d6000fd5b505050506040513d601f19601f820116820180604052508101906106f89190610eb2565b9050919050565b6000602052806000526040600020600091509050806000015490806001018054610728906111fc565b80601f0160208091040260200160405190810160405280929190818152602001828054610754906111fc565b80156107a15780601f10610776576101008083540402835291602001916107a1565b820191906000526020600020905b81548152906001019060200180831161078457829003601f168201915b5050505050908060020160009054906101000a900460ff16908060020160019054906101000a900460ff16908060030154905085565b6107df610c62565b6000808373ffffffffffffffffffffffffffffffffffffffff1673ffffffffffffffffffffffffffffffffffffffff1681526020019081526020016000206040518060a001604052908160008201548152602001600182018054610842906111fc565b80601f016020809104026020016040519081016040528092919081815260200182805461086e906111fc565b80156108bb5780601f10610890576101008083540402835291602001916108bb565b820191906000526020600020905b81548152906001019060200180831161089e57829003601f168201915b505050505081526020016002820160009054906101000a900460ff1660ff1660ff1681526020016002820160019054906101000a900460ff1660ff1660ff1681526020016003820154815250509050919050565b60008060008373ffffffffffffffffffffffffffffffffffffffff1673ffffffffffffffffffffffffffffffffffffffff1681526020019081526020016000206003015442106109cb576040518060400160405280600381526020017f31303300000000000000000000000000000000000000000000000000000000008152506040517f08c379a00000000000000000000000000000000000000000000000000000000081526004016109c29190611029565b60405180910390fd5b6000808373ffffffffffffffffffffffffffffffffffffffff1673ffffffffffffffffffffffffffffffffffffffff16815260200190815260200160002060020160019054906101000a900460ff169050919050565b60606000808373ffffffffffffffffffffffffffffffffffffffff1673ffffffffffffffffffffffffffffffffffffffff168152602001908152602001600020600301544210610add576040518060400160405280600381526020017f31303300000000000000000000000000000000000000000000000000000000008152506040517f08c379a0000000000000000000000000000000000000000000000000000000008152600401610ad49190611029565b60405180910390fd5b6000808373ffffffffffffffffffffffffffffffffffffffff1673ffffffffffffffffffffffffffffffffffffffff1681526020019081526020016000206001018054610b29906111fc565b80601f0160208091040260200160405190810160405280929190818152602001828054610b55906111fc565b8015610ba25780601f10610b7757610100808354040283529160200191610ba2565b820191906000526020600020905b815481529060010190602001808311610b8557829003601f168201915b50505050509050919050565b6000600160009054906101000a900473ffffffffffffffffffffffffffffffffffffffff1673ffffffffffffffffffffffffffffffffffffffff166309299ea3836040518263ffffffff1660e01b8152600401610c0b919061100e565b60206040518083038186803b158015610c2357600080fd5b505afa158015610c37573d6000803e3d6000fd5b505050506040513d601f19601f82011682018060405250810190610c5b9190610e89565b9050919050565b6040518060a001604052806000815260200160608152602001600060ff168152602001600060ff168152602001600081525090565b6000610caa610ca584611122565b6110fd565b905082815260208101848484011115610cc257600080fd5b610ccd8482856111c9565b509392505050565b600081359050610ce4816112ce565b92915050565b600082601f830112610cfb57600080fd5b8151610d0b848260208601610c97565b91505092915050565b600060a08284031215610d2657600080fd5b610d3060a06110fd565b90506000610d4084828501610db4565b600083015250602082015167ffffffffffffffff811115610d6057600080fd5b610d6c84828501610cea565b6020830152506040610d8084828501610dc9565b6040830152506060610d9484828501610dc9565b6060830152506080610da884828501610db4565b60808301525092915050565b600081519050610dc3816112e5565b92915050565b600081519050610dd8816112fc565b92915050565b600060208284031215610df057600080fd5b6000610dfe84828501610cd5565b91505092915050565b600060208284031215610e1957600080fd5b600082015167ffffffffffffffff811115610e3357600080fd5b610e3f84828501610cea565b91505092915050565b600060208284031215610e5a57600080fd5b600082015167ffffffffffffffff811115610e7457600080fd5b610e8084828501610d14565b91505092915050565b600060208284031215610e9b57600080fd5b6000610ea984828501610db4565b91505092915050565b600060208284031215610ec457600080fd5b6000610ed284828501610dc9565b91505092915050565b610ee481611180565b82525050565b6000610ef582611153565b610eff818561115e565b9350610f0f8185602086016111c9565b610f18816112bd565b840191505092915050565b6000610f2e82611153565b610f38818561116f565b9350610f488185602086016111c9565b610f51816112bd565b840191505092915050565b600060a083016000830151610f746000860182610fd2565b5060208301518482036020860152610f8c8282610eea565b9150506040830151610fa16040860182610ff0565b506060830151610fb46060860182610ff0565b506080830151610fc76080860182610fd2565b508091505092915050565b610fdb816111b2565b82525050565b610fea816111b2565b82525050565b610ff9816111bc565b82525050565b611008816111bc565b82525050565b60006020820190506110236000830184610edb565b92915050565b600060208201905081810360008301526110438184610f23565b905092915050565b600060208201905081810360008301526110658184610f5c565b905092915050565b60006020820190506110826000830184610fe1565b92915050565b600060a08201905061109d6000830188610fe1565b81810360208301526110af8187610f23565b90506110be6040830186610fff565b6110cb6060830185610fff565b6110d86080830184610fe1565b9695505050505050565b60006020820190506110f76000830184610fff565b92915050565b6000611107611118565b9050611113828261122e565b919050565b6000604051905090565b600067ffffffffffffffff82111561113d5761113c61128e565b5b611146826112bd565b9050602081019050919050565b600081519050919050565b600082825260208201905092915050565b600082825260208201905092915050565b600061118b82611192565b9050919050565b600073ffffffffffffffffffffffffffffffffffffffff82169050919050565b6000819050919050565b600060ff82169050919050565b60005b838110156111e75780820151818401526020810190506111cc565b838111156111f6576000848401525b50505050565b6000600282049050600182168061121457607f821691505b602082108114156112285761122761125f565b5b50919050565b611237826112bd565b810181811067ffffffffffffffff821117156112565761125561128e565b5b80604052505050565b7f4e487b7100000000000000000000000000000000000000000000000000000000600052602260045260246000fd5b7f4e487b7100000000000000000000000000000000000000000000000000000000600052604160045260246000fd5b6000601f19601f8301169050919050565b6112d781611180565b81146112e257600080fd5b50565b6112ee816111b2565b81146112f957600080fd5b50565b611305816111bc565b811461131057600080fd5b5056fea264697066735822122019f8c928cc53dbf280b776f790a15b2b3a26dcfa6e563ab6e2d16d3a3aa4c02764736f6c63430008020033",
  "linkReferences": {},
  "deployedLinkReferences": {}
}