{
  "_format": "hh-sol-artifact-1",
  "contractName": "VerifiableIdentityPreventsOnExpiry",
  "sourceName": "contracts/VerifiableIdentityPreventsOnExpiry.sol",
  "abi": [
    {
      "inputs": [
        {
          "internalType": "address",
          "name": "proofContract",
          "type": "address"
        }
      ],
      "stateMutability": "nonpayable",
      "type": "constructor"
    },
    {
      "inputs": [
        {
          "internalType": "address",
          "name": "account",
          "type": "address"
        }
      ],
      "name": "getUserAccountCountryCodePreventOnExpiry",
      "outputs": [
        {
          "internalType": "string",
          "name": "userAccountCountryCode",
          "type": "string"
        }
      ],
      "stateMutability": "view",
      "type": "function"
    },
    {
      "inputs": [
        {
          "internalType": "address",
          "name": "account",
          "type": "address"
        }
      ],
      "name": "getUserAccountExpiry",
      "outputs": [
        {
          "internalType": "uint256",
          "name": "userAccountExpiry",
          "type": "uint256"
        }
      ],
      "stateMutability": "view",
      "type": "function"
    },
    {
      "inputs": [
        {
          "internalType": "address",
          "name": "account",
          "type": "address"
        }
      ],
      "name": "getUserAccountIdentityBlob",
      "outputs": [
        {
          "components": [
            {
              "internalType": "uint256",
              "name": "tokenId",
              "type": "uint256"
            },
            {
              "internalType": "string",
              "name": "countryCode",
              "type": "string"
            },
            {
              "internalType": "uint8",
              "name": "userType",
              "type": "uint8"
            },
            {
              "internalType": "uint8",
              "name": "level",
              "type": "uint8"
            },
            {
              "internalType": "uint256",
              "name": "expiry",
              "type": "uint256"
            }
          ],
          "internalType": "struct RoleVerification.IdentityBlob",
          "name": "userIdentityBlob",
          "type": "tuple"
        }
      ],
      "stateMutability": "view",
      "type": "function"
    },
    {
      "inputs": [
        {
          "internalType": "address",
          "name": "account",
          "type": "address"
        }
      ],
      "name": "getUserAccountLevelPreventOnExpiry",
      "outputs": [
        {
          "internalType": "uint8",
          "name": "",
          "type": "uint8"
        }
      ],
      "stateMutability": "view",
      "type": "function"
    },
    {
      "inputs": [
        {
          "internalType": "address",
          "name": "account",
          "type": "address"
        }
      ],
      "name": "getUserAccountTypePreventOnExpiry",
      "outputs": [
        {
          "internalType": "uint8",
          "name": "",
          "type": "uint8"
        }
      ],
      "stateMutability": "view",
      "type": "function"
    },
    {
      "inputs": [
        {
          "internalType": "address",
          "name": "account",
          "type": "address"
        }
      ],
      "name": "getUserCountryCodePreventOnExpiry",
      "outputs": [
        {
          "internalType": "string",
          "name": "userAccountCountryCode",
          "type": "string"
        }
      ],
      "stateMutability": "view",
      "type": "function"
    },
    {
      "inputs": [
        {
          "internalType": "address",
          "name": "account",
          "type": "address"
        }
      ],
      "name": "getUserExpiry",
      "outputs": [
        {
          "internalType": "uint256",
          "name": "",
          "type": "uint256"
        }
      ],
      "stateMutability": "view",
      "type": "function"
    },
    {
      "inputs": [
        {
          "internalType": "address",
          "name": "account",
          "type": "address"
        }
      ],
      "name": "getUserIdentityData",
      "outputs": [
        {
          "components": [
            {
              "internalType": "uint256",
              "name": "tokenId",
              "type": "uint256"
            },
            {
              "internalType": "string",
              "name": "countryCode",
              "type": "string"
            },
            {
              "internalType": "uint8",
              "name": "userType",
              "type": "uint8"
            },
            {
              "internalType": "uint8",
              "name": "level",
              "type": "uint8"
            },
            {
              "internalType": "uint256",
              "name": "expiry",
              "type": "uint256"
            }
          ],
          "internalType": "struct RoleVerification.IdentityBlob",
          "name": "userAccountIdentityBlob",
          "type": "tuple"
        }
      ],
      "stateMutability": "view",
      "type": "function"
    },
    {
      "inputs": [
        {
          "internalType": "address",
          "name": "account",
          "type": "address"
        }
      ],
      "name": "getUserLevelPreventOnExpiry",
      "outputs": [
        {
          "internalType": "uint8",
          "name": "userAccountLevel",
          "type": "uint8"
        }
      ],
      "stateMutability": "view",
      "type": "function"
    },
    {
      "inputs": [
        {
          "internalType": "address",
          "name": "account",
          "type": "address"
        }
      ],
      "name": "getUserTypePreventOnExpiry",
      "outputs": [
        {
          "internalType": "uint8",
          "name": "userAccountType",
          "type": "uint8"
        }
      ],
      "stateMutability": "view",
      "type": "function"
    },
    {
      "inputs": [
        {
          "internalType": "address",
          "name": "",
          "type": "address"
        }
      ],
      "name": "identityBlob",
      "outputs": [
        {
          "internalType": "uint256",
          "name": "tokenId",
          "type": "uint256"
        },
        {
          "internalType": "string",
          "name": "countryCode",
          "type": "string"
        },
        {
          "internalType": "uint8",
          "name": "userType",
          "type": "uint8"
        },
        {
          "internalType": "uint8",
          "name": "level",
          "type": "uint8"
        },
        {
          "internalType": "uint256",
          "name": "expiry",
          "type": "uint256"
        }
      ],
      "stateMutability": "view",
      "type": "function"
    }
  ],
  "bytecode": "0x60806040523480156200001157600080fd5b506040516200188d3803806200188d8339818101604052810190620000379190620000d1565b62000053670f97fff3c86fc1ee60c01b620000b760201b60201c565b6200006f6748fd7e7c84df656260c01b620000b760201b60201c565b80600160006101000a81548173ffffffffffffffffffffffffffffffffffffffff021916908373ffffffffffffffffffffffffffffffffffffffff160217905550506200014b565b50565b600081519050620000cb8162000131565b92915050565b600060208284031215620000e457600080fd5b6000620000f484828501620000ba565b91505092915050565b60006200010a8262000111565b9050919050565b600073ffffffffffffffffffffffffffffffffffffffff82169050919050565b6200013c81620000fd565b81146200014857600080fd5b50565b611732806200015b6000396000f3fe608060405234801561001057600080fd5b50600436106100c95760003560e01c806360f9f45b11610081578063949cdd6e1161005b578063949cdd6e1461025257806396257e4d14610282578063eee84487146102b2576100c9565b806360f9f45b146101be578063688ea9fe146101ee5780636ca5fde814610222576100c9565b80631fe0094a116100b25780631fe0094a1461012e5780632deb044a1461015e5780636020c7be1461018e576100c9565b806309299ea3146100ce57806319af90da146100fe575b600080fd5b6100e860048036038101906100e391906111c7565b6102e2565b6040516100f59190611456565b60405180910390f35b610118600480360381019061011391906111c7565b610369565b60405161012591906114cb565b60405180910390f35b610148600480360381019061014391906111c7565b610459565b60405161015591906114cb565b60405180910390f35b610178600480360381019061017391906111c7565b61061f565b6040516101859190611434565b60405180910390f35b6101a860048036038101906101a391906111c7565b61071a565b6040516101b59190611412565b60405180910390f35b6101d860048036038101906101d391906111c7565b61080f565b6040516101e591906114cb565b60405180910390f35b610208600480360381019061020391906111c7565b6108ff565b604051610219959493929190611471565b60405180910390f35b61023c600480360381019061023791906111c7565b6109d7565b6040516102499190611434565b60405180910390f35b61026c600480360381019061026791906111c7565b610b4b565b60405161027991906114cb565b60405180910390f35b61029c600480360381019061029791906111c7565b610d11565b6040516102a99190611412565b60405180910390f35b6102cc60048036038101906102c791906111c7565b610f52565b6040516102d99190611456565b60405180910390f35b60006102f867c1c9ef872120ad4c60c01b611042565b61030c6722a4df8a42ceaa6160c01b611042565b6103206794447c4bb948903360c01b611042565b6000808373ffffffffffffffffffffffffffffffffffffffff1673ffffffffffffffffffffffffffffffffffffffff168152602001908152602001600020600301549050919050565b600061037f6780b1478b61a598ff60c01b611045565b6103936789af16f0f8f5270760c01b611045565b6103a76747936972932448a260c01b611045565b600160009054906101000a900473ffffffffffffffffffffffffffffffffffffffff1673ffffffffffffffffffffffffffffffffffffffff16631fe0094a836040518263ffffffff1660e01b815260040161040291906113f7565b60206040518083038186803b15801561041a57600080fd5b505afa15801561042e573d6000803e3d6000fd5b505050506040513d601f19601f82011682018060405250810190610452919061129b565b9050919050565b600061046f67a46d03d2c5d0aae460c01b611048565b6104836759e43ca1959c0a4e60c01b611048565b61049767c0882176d22f194460c01b611048565b6000808373ffffffffffffffffffffffffffffffffffffffff1673ffffffffffffffffffffffffffffffffffffffff16815260200190815260200160002060030154421061058d576104f36719c99830b5b4654060c01b611048565b6105076792805f3a7478451b60c01b611048565b61051b6746c027269ffad2a760c01b611048565b6040518060400160405280600381526020017f31303300000000000000000000000000000000000000000000000000000000008152506040517f08c379a00000000000000000000000000000000000000000000000000000000081526004016105849190611412565b60405180910390fd5b6105a167c0f7dab06875d32960c01b611048565b6105b567749dbadd8151278160c01b611048565b6105c9673e104cf77e5bc49f60c01b611048565b6000808373ffffffffffffffffffffffffffffffffffffffff1673ffffffffffffffffffffffffffffffffffffffff16815260200190815260200160002060020160009054906101000a900460ff169050919050565b61062761104b565b61063b670f88f2a0dcb65c1c60c01b611045565b61064f67b8603facb6a4a5d360c01b611045565b61066367c7ea2e9d9cdc4fed60c01b611045565b600160009054906101000a900473ffffffffffffffffffffffffffffffffffffffff1673ffffffffffffffffffffffffffffffffffffffff16636ca5fde8836040518263ffffffff1660e01b81526004016106be91906113f7565b60006040518083038186803b1580156106d657600080fd5b505afa1580156106ea573d6000803e3d6000fd5b505050506040513d6000823e3d601f19601f820116820180604052508101906107139190611231565b9050919050565b60606107306738df39d427da90c560c01b611045565b6107446724d47fc2014f851660c01b611045565b61075867c5ec21534b2e166f60c01b611045565b600160009054906101000a900473ffffffffffffffffffffffffffffffffffffffff1673ffffffffffffffffffffffffffffffffffffffff166396257e4d836040518263ffffffff1660e01b81526004016107b391906113f7565b60006040518083038186803b1580156107cb57600080fd5b505afa1580156107df573d6000803e3d6000fd5b505050506040513d6000823e3d601f19601f8201168201806040525081019061080891906111f0565b9050919050565b6000610825672edd21c6479e565160c01b611045565b61083967cb63dd96fa2bc4b760c01b611045565b61084d675a4d9957dc34a73d60c01b611045565b600160009054906101000a900473ffffffffffffffffffffffffffffffffffffffff1673ffffffffffffffffffffffffffffffffffffffff1663949cdd6e836040518263ffffffff1660e01b81526004016108a891906113f7565b60206040518083038186803b1580156108c057600080fd5b505afa1580156108d4573d6000803e3d6000fd5b505050506040513d601f19601f820116820180604052508101906108f8919061129b565b9050919050565b6000602052806000526040600020600091509050806000015490806001018054610928906115e5565b80601f0160208091040260200160405190810160405280929190818152602001828054610954906115e5565b80156109a15780601f10610976576101008083540402835291602001916109a1565b820191906000526020600020905b81548152906001019060200180831161098457829003601f168201915b5050505050908060020160009054906101000a900460ff16908060020160019054906101000a900460ff16908060030154905085565b6109df61104b565b6109f36702cf5f66176fa53960c01b611042565b610a0767b12611fe05def76260c01b611042565b610a1b678420dd018e3ed1a260c01b611042565b6000808373ffffffffffffffffffffffffffffffffffffffff1673ffffffffffffffffffffffffffffffffffffffff1681526020019081526020016000206040518060a001604052908160008201548152602001600182018054610a7e906115e5565b80601f0160208091040260200160405190810160405280929190818152602001828054610aaa906115e5565b8015610af75780601f10610acc57610100808354040283529160200191610af7565b820191906000526020600020905b815481529060010190602001808311610ada57829003601f168201915b505050505081526020016002820160009054906101000a900460ff1660ff1660ff1681526020016002820160019054906101000a900460ff1660ff1660ff1681526020016003820154815250509050919050565b6000610b6167312e0ffaf24bb87460c01b611048565b610b7567c78863f958234bc560c01b611048565b610b8967c5c511546c50c45160c01b611048565b6000808373ffffffffffffffffffffffffffffffffffffffff1673ffffffffffffffffffffffffffffffffffffffff168152602001908152602001600020600301544210610c7f57610be56706dae439f14a554160c01b611048565b610bf967d9a43cd54b2554f860c01b611048565b610c0d67b80c4d30135ffecc60c01b611048565b6040518060400160405280600381526020017f31303300000000000000000000000000000000000000000000000000000000008152506040517f08c379a0000000000000000000000000000000000000000000000000000000008152600401610c769190611412565b60405180910390fd5b610c9367e7400f8588b3b9fd60c01b611048565b610ca767218e4aadc28bad5460c01b611048565b610cbb6709e2c5a8a6db9e6460c01b611048565b6000808373ffffffffffffffffffffffffffffffffffffffff1673ffffffffffffffffffffffffffffffffffffffff16815260200190815260200160002060020160019054906101000a900460ff169050919050565b6060610d2767c5c834afaae4a7d160c01b611048565b610d3b67282dd2059d86991c60c01b611048565b610d4f67bc73e24e23818fec60c01b611048565b6000808373ffffffffffffffffffffffffffffffffffffffff1673ffffffffffffffffffffffffffffffffffffffff168152602001908152602001600020600301544210610e4557610dab673afbff51046f6dc960c01b611048565b610dbf67dc0c995e8c89436c60c01b611048565b610dd367c8c8ce89cab65bb260c01b611048565b6040518060400160405280600381526020017f31303300000000000000000000000000000000000000000000000000000000008152506040517f08c379a0000000000000000000000000000000000000000000000000000000008152600401610e3c9190611412565b60405180910390fd5b610e59678a8a08e8027046c760c01b611048565b610e6d6791c41a347ba64e9660c01b611048565b610e81679881f450aa1ce9eb60c01b611048565b6000808373ffffffffffffffffffffffffffffffffffffffff1673ffffffffffffffffffffffffffffffffffffffff1681526020019081526020016000206001018054610ecd906115e5565b80601f0160208091040260200160405190810160405280929190818152602001828054610ef9906115e5565b8015610f465780601f10610f1b57610100808354040283529160200191610f46565b820191906000526020600020905b815481529060010190602001808311610f2957829003601f168201915b50505050509050919050565b6000610f6867e52a9c1fb9cd631560c01b611045565b610f7c67f172a9dc0422d27c60c01b611045565b610f9067a75bc0529742d4d160c01b611045565b600160009054906101000a900473ffffffffffffffffffffffffffffffffffffffff1673ffffffffffffffffffffffffffffffffffffffff166309299ea3836040518263ffffffff1660e01b8152600401610feb91906113f7565b60206040518083038186803b15801561100357600080fd5b505afa158015611017573d6000803e3d6000fd5b505050506040513d601f19601f8201168201806040525081019061103b9190611272565b9050919050565b50565b50565b50565b6040518060a001604052806000815260200160608152602001600060ff168152602001600060ff168152602001600081525090565b600061109361108e8461150b565b6114e6565b9050828152602081018484840111156110ab57600080fd5b6110b68482856115b2565b509392505050565b6000813590506110cd816116b7565b92915050565b600082601f8301126110e457600080fd5b81516110f4848260208601611080565b91505092915050565b600060a0828403121561110f57600080fd5b61111960a06114e6565b905060006111298482850161119d565b600083015250602082015167ffffffffffffffff81111561114957600080fd5b611155848285016110d3565b6020830152506040611169848285016111b2565b604083015250606061117d848285016111b2565b60608301525060806111918482850161119d565b60808301525092915050565b6000815190506111ac816116ce565b92915050565b6000815190506111c1816116e5565b92915050565b6000602082840312156111d957600080fd5b60006111e7848285016110be565b91505092915050565b60006020828403121561120257600080fd5b600082015167ffffffffffffffff81111561121c57600080fd5b611228848285016110d3565b91505092915050565b60006020828403121561124357600080fd5b600082015167ffffffffffffffff81111561125d57600080fd5b611269848285016110fd565b91505092915050565b60006020828403121561128457600080fd5b60006112928482850161119d565b91505092915050565b6000602082840312156112ad57600080fd5b60006112bb848285016111b2565b91505092915050565b6112cd81611569565b82525050565b60006112de8261153c565b6112e88185611547565b93506112f88185602086016115b2565b611301816116a6565b840191505092915050565b60006113178261153c565b6113218185611558565b93506113318185602086016115b2565b61133a816116a6565b840191505092915050565b600060a08301600083015161135d60008601826113bb565b506020830151848203602086015261137582826112d3565b915050604083015161138a60408601826113d9565b50606083015161139d60608601826113d9565b5060808301516113b060808601826113bb565b508091505092915050565b6113c48161159b565b82525050565b6113d38161159b565b82525050565b6113e2816115a5565b82525050565b6113f1816115a5565b82525050565b600060208201905061140c60008301846112c4565b92915050565b6000602082019050818103600083015261142c818461130c565b905092915050565b6000602082019050818103600083015261144e8184611345565b905092915050565b600060208201905061146b60008301846113ca565b92915050565b600060a08201905061148660008301886113ca565b8181036020830152611498818761130c565b90506114a760408301866113e8565b6114b460608301856113e8565b6114c160808301846113ca565b9695505050505050565b60006020820190506114e060008301846113e8565b92915050565b60006114f0611501565b90506114fc8282611617565b919050565b6000604051905090565b600067ffffffffffffffff82111561152657611525611677565b5b61152f826116a6565b9050602081019050919050565b600081519050919050565b600082825260208201905092915050565b600082825260208201905092915050565b60006115748261157b565b9050919050565b600073ffffffffffffffffffffffffffffffffffffffff82169050919050565b6000819050919050565b600060ff82169050919050565b60005b838110156115d05780820151818401526020810190506115b5565b838111156115df576000848401525b50505050565b600060028204905060018216806115fd57607f821691505b6020821081141561161157611610611648565b5b50919050565b611620826116a6565b810181811067ffffffffffffffff8211171561163f5761163e611677565b5b80604052505050565b7f4e487b7100000000000000000000000000000000000000000000000000000000600052602260045260246000fd5b7f4e487b7100000000000000000000000000000000000000000000000000000000600052604160045260246000fd5b6000601f19601f8301169050919050565b6116c081611569565b81146116cb57600080fd5b50565b6116d78161159b565b81146116e257600080fd5b50565b6116ee816115a5565b81146116f957600080fd5b5056fea2646970667358221220288cea232c9433c9b7201a1c56fcc2de2604172d5b30b978ac94833e737accda64736f6c63430008020033",
  "linkReferences": {},
  "deployedLinkReferences": {}
}