{
  "_format": "hh-sol-artifact-1",
  "contractName": "Dummy",
  "sourceName": "contracts/DUMMYDONTDEPLOY.sol",
  "abi": [
    {
      "inputs": [],
      "stateMutability": "nonpayable",
      "type": "constructor"
    },
    {
      "inputs": [
        {
          "internalType": "address",
          "name": "",
          "type": "address"
        }
      ],
      "name": "_accountRole",
      "outputs": [
        {
          "internalType": "string",
          "name": "orgId",
          "type": "string"
        },
        {
          "internalType": "string",
          "name": "roleId",
          "type": "string"
        }
      ],
      "stateMutability": "view",
      "type": "function"
    },
    {
      "inputs": [
        {
          "internalType": "address",
          "name": "_account",
          "type": "address"
        },
        {
          "internalType": "string",
          "name": "_orgId",
          "type": "string"
        },
        {
          "internalType": "string",
          "name": "_roleId",
          "type": "string"
        }
      ],
      "name": "assignAccountRole",
      "outputs": [],
      "stateMutability": "nonpayable",
      "type": "function"
    },
    {
      "inputs": [
        {
          "internalType": "string",
          "name": "reason",
          "type": "string"
        },
        {
          "internalType": "address",
          "name": "account",
          "type": "address"
        },
        {
          "internalType": "uint256",
          "name": "number",
          "type": "uint256"
        }
      ],
      "name": "updateAccountStatus",
      "outputs": [],
      "stateMutability": "nonpayable",
      "type": "function"
    }
  ],
  "bytecode": "0x608060405234801561001057600080fd5b50610661806100206000396000f3fe608060405234801561001057600080fd5b50600436106100415760003560e01c80632f7f0a121461004657806384b7a84a14610062578063ce9c57001461007e575b600080fd5b610060600480360381019061005b919061039b565b6100af565b005b61007c60048036038101906100779190610424565b610121565b005b61009860048036038101906100939190610372565b610127565b6040516100a69291906104c9565b60405180910390f35b60008060008773ffffffffffffffffffffffffffffffffffffffff1673ffffffffffffffffffffffffffffffffffffffff1681526020019081526020016000209050848482600001919061010492919061025b565b50828282600101919061011892919061025b565b50505050505050565b50505050565b600060205280600052604060002060009150905080600001805461014a9061058b565b80601f01602080910402602001604051908101604052809291908181526020018280546101769061058b565b80156101c35780601f10610198576101008083540402835291602001916101c3565b820191906000526020600020905b8154815290600101906020018083116101a657829003601f168201915b5050505050908060010180546101d89061058b565b80601f01602080910402602001604051908101604052809291908181526020018280546102049061058b565b80156102515780601f1061022657610100808354040283529160200191610251565b820191906000526020600020905b81548152906001019060200180831161023457829003601f168201915b5050505050905082565b8280546102679061058b565b90600052602060002090601f01602090048101928261028957600085556102d0565b82601f106102a257803560ff19168380011785556102d0565b828001600101855582156102d0579182015b828111156102cf5782358255916020019190600101906102b4565b5b5090506102dd91906102e1565b5090565b5b808211156102fa5760008160009055506001016102e2565b5090565b60008135905061030d816105fd565b92915050565b60008083601f84011261032557600080fd5b8235905067ffffffffffffffff81111561033e57600080fd5b60208301915083600182028301111561035657600080fd5b9250929050565b60008135905061036c81610614565b92915050565b60006020828403121561038457600080fd5b6000610392848285016102fe565b91505092915050565b6000806000806000606086880312156103b357600080fd5b60006103c1888289016102fe565b955050602086013567ffffffffffffffff8111156103de57600080fd5b6103ea88828901610313565b9450945050604086013567ffffffffffffffff81111561040957600080fd5b61041588828901610313565b92509250509295509295909350565b6000806000806060858703121561043a57600080fd5b600085013567ffffffffffffffff81111561045457600080fd5b61046087828801610313565b94509450506020610473878288016102fe565b92505060406104848782880161035d565b91505092959194509250565b600061049b82610500565b6104a5818561050b565b93506104b5818560208601610558565b6104be816105ec565b840191505092915050565b600060408201905081810360008301526104e38185610490565b905081810360208301526104f78184610490565b90509392505050565b600081519050919050565b600082825260208201905092915050565b60006105278261052e565b9050919050565b600073ffffffffffffffffffffffffffffffffffffffff82169050919050565b6000819050919050565b60005b8381101561057657808201518184015260208101905061055b565b83811115610585576000848401525b50505050565b600060028204905060018216806105a357607f821691505b602082108114156105b7576105b66105bd565b5b50919050565b7f4e487b7100000000000000000000000000000000000000000000000000000000600052602260045260246000fd5b6000601f19601f8301169050919050565b6106068161051c565b811461061157600080fd5b50565b61061d8161054e565b811461062857600080fd5b5056fea2646970667358221220e675160960a45652be129f0eeccc194624364f0caeb5d3f1a6d8fa274ff7945864736f6c63430008020033",
  "linkReferences": {},
  "deployedLinkReferences": {}
}