{
  "_format": "hh-sol-artifact-1",
  "contractName": "Dummy",
  "sourceName": "contracts/DUMMYDONTDEPLOY.sol",
  "abi": [
    {
      "inputs": [],
      "stateMutability": "nonpayable",
      "type": "constructor"
    },
    {
      "inputs": [
        {
          "internalType": "address",
          "name": "",
          "type": "address"
        }
      ],
      "name": "_accountRole",
      "outputs": [
        {
          "internalType": "string",
          "name": "orgId",
          "type": "string"
        },
        {
          "internalType": "string",
          "name": "roleId",
          "type": "string"
        }
      ],
      "stateMutability": "view",
      "type": "function"
    },
    {
      "inputs": [
        {
          "internalType": "address",
          "name": "_account",
          "type": "address"
        },
        {
          "internalType": "string",
          "name": "_orgId",
          "type": "string"
        },
        {
          "internalType": "string",
          "name": "_roleId",
          "type": "string"
        }
      ],
      "name": "assignAccountRole",
      "outputs": [],
      "stateMutability": "nonpayable",
      "type": "function"
    },
    {
      "inputs": [
        {
          "internalType": "string",
          "name": "reason",
          "type": "string"
        },
        {
          "internalType": "address",
          "name": "account",
          "type": "address"
        },
        {
          "internalType": "uint256",
          "name": "number",
          "type": "uint256"
        }
      ],
      "name": "updateAccountStatus",
      "outputs": [],
      "stateMutability": "nonpayable",
      "type": "function"
    }
  ],
  "bytecode": "0x608060405234801561001057600080fd5b50610512806100206000396000f3fe608060405234801561001057600080fd5b50600436106100415760003560e01c80632f7f0a121461004657806384b7a84a1461005b578063ce9c57001461006f575b600080fd5b610059610054366004610337565b610099565b005b6100596100693660046103b5565b50505050565b61008261007d366004610316565b6100e1565b60405161009092919061045a565b60405180910390f35b73ffffffffffffffffffffffffffffffffffffffff851660009081526020819052604090206100c981868661020d565b506100d860018201848461020d565b50505050505050565b6000602081905290815260409020805481906100fc90610488565b80601f016020809104026020016040519081016040528092919081815260200182805461012890610488565b80156101755780601f1061014a57610100808354040283529160200191610175565b820191906000526020600020905b81548152906001019060200180831161015857829003601f168201915b50505050509080600101805461018a90610488565b80601f01602080910402602001604051908101604052809291908181526020018280546101b690610488565b80156102035780601f106101d857610100808354040283529160200191610203565b820191906000526020600020905b8154815290600101906020018083116101e657829003601f168201915b5050505050905082565b82805461021990610488565b90600052602060002090601f01602090048101928261023b5760008555610281565b82601f106102545782800160ff19823516178555610281565b82800160010185558215610281579182015b82811115610281578235825591602001919060010190610266565b5061028d929150610291565b5090565b5b8082111561028d5760008155600101610292565b803573ffffffffffffffffffffffffffffffffffffffff811681146102ca57600080fd5b919050565b60008083601f8401126102e0578182fd5b50813567ffffffffffffffff8111156102f7578182fd5b60208301915083602082850101111561030f57600080fd5b9250929050565b600060208284031215610327578081fd5b610330826102a6565b9392505050565b60008060008060006060868803121561034e578081fd5b610357866102a6565b9450602086013567ffffffffffffffff80821115610373578283fd5b61037f89838a016102cf565b90965094506040880135915080821115610397578283fd5b506103a4888289016102cf565b969995985093965092949392505050565b600080600080606085870312156103ca578384fd5b843567ffffffffffffffff8111156103e0578485fd5b6103ec878288016102cf565b90955093506103ff9050602086016102a6565b9396929550929360400135925050565b60008151808452815b8181101561043457602081850181015186830182015201610418565b818111156104455782602083870101525b50601f01601f19169290920160200192915050565b60006040825261046d604083018561040f565b828103602084015261047f818561040f565b95945050505050565b60028104600182168061049c57607f821691505b602082108114156104d6577f4e487b7100000000000000000000000000000000000000000000000000000000600052602260045260246000fd5b5091905056fea264697066735822122064b5a52b7d8251f239cb4fa713eb704cc4fe98121ea1330a3cafc9d658494e7864736f6c63430008020033",
  "linkReferences": {},
  "deployedLinkReferences": {}
}