{
  "_format": "hh-sol-artifact-1",
  "contractName": "Dummy",
  "sourceName": "contracts/DUMMYDONTDEPLOY.sol",
  "abi": [
    {
      "inputs": [],
      "stateMutability": "nonpayable",
      "type": "constructor"
    },
    {
      "inputs": [
        {
          "internalType": "address",
          "name": "",
          "type": "address"
        }
      ],
      "name": "_accountRole",
      "outputs": [
        {
          "internalType": "string",
          "name": "orgId",
          "type": "string"
        },
        {
          "internalType": "string",
          "name": "roleId",
          "type": "string"
        }
      ],
      "stateMutability": "view",
      "type": "function"
    },
    {
      "inputs": [
        {
          "internalType": "address",
          "name": "_account",
          "type": "address"
        },
        {
          "internalType": "string",
          "name": "_orgId",
          "type": "string"
        },
        {
          "internalType": "string",
          "name": "_roleId",
          "type": "string"
        }
      ],
      "name": "assignAccountRole",
      "outputs": [],
      "stateMutability": "nonpayable",
      "type": "function"
    },
    {
      "inputs": [
        {
          "internalType": "bytes8",
          "name": "c__f980dcac",
          "type": "bytes8"
        }
      ],
      "name": "c_f980dcac",
      "outputs": [],
      "stateMutability": "pure",
      "type": "function"
    },
    {
      "inputs": [
        {
          "internalType": "bytes8",
          "name": "c__f980dcac",
          "type": "bytes8"
        }
      ],
      "name": "c_falsef980dcac",
      "outputs": [
        {
          "internalType": "bool",
          "name": "",
          "type": "bool"
        }
      ],
      "stateMutability": "pure",
      "type": "function"
    },
    {
      "inputs": [
        {
          "internalType": "bytes8",
          "name": "c__f980dcac",
          "type": "bytes8"
        }
      ],
      "name": "c_truef980dcac",
      "outputs": [
        {
          "internalType": "bool",
          "name": "",
          "type": "bool"
        }
      ],
      "stateMutability": "pure",
      "type": "function"
    },
    {
      "inputs": [
        {
          "internalType": "string",
          "name": "reason",
          "type": "string"
        },
        {
          "internalType": "address",
          "name": "account",
          "type": "address"
        },
        {
          "internalType": "uint256",
          "name": "number",
          "type": "uint256"
        }
      ],
      "name": "updateAccountStatus",
      "outputs": [],
      "stateMutability": "nonpayable",
      "type": "function"
    }
  ],
  "bytecode": "0x608060405234801561001057600080fd5b5061002b675664ed84468af8b360c01b61003060201b60201c565b610033565b50565b610842806100426000396000f3fe608060405234801561001057600080fd5b50600436106100625760003560e01c80632f7f0a12146100675780637b3001221461008357806384b7a84a146100b35780638b1d6085146100cf578063ca1ded32146100eb578063ce9c57001461011b575b600080fd5b610081600480360381019061007c91906104da565b61014c565b005b61009d60048036038101906100989190610563565b610222565b6040516100aa9190610640565b60405180910390f35b6100cd60048036038101906100c8919061058c565b61022d565b005b6100e960048036038101906100e49190610563565b610247565b005b61010560048036038101906101009190610563565b61024a565b6040516101129190610640565b60405180910390f35b610135600480360381019061013091906104b1565b610251565b60405161014392919061065b565b60405180910390f35b61016067cbf6db8003962e4360c01b610247565b6101746731bc93e55685171760c01b610247565b6101886717d7afc941bdb77360c01b610247565b60008060008773ffffffffffffffffffffffffffffffffffffffff1673ffffffffffffffffffffffffffffffffffffffff16815260200190815260200160002090506101de67b373d27a83fd4f6760c01b610247565b84848260000191906101f1929190610385565b5061020667cab4614624b1ebb960c01b610247565b8282826001019190610219929190610385565b50505050505050565b600060019050919050565b6102416789d42f412e4a349460c01b610247565b50505050565b50565b6000919050565b600060205280600052604060002060009150905080600001805461027490610755565b80601f01602080910402602001604051908101604052809291908181526020018280546102a090610755565b80156102ed5780601f106102c2576101008083540402835291602001916102ed565b820191906000526020600020905b8154815290600101906020018083116102d057829003601f168201915b50505050509080600101805461030290610755565b80601f016020809104026020016040519081016040528092919081815260200182805461032e90610755565b801561037b5780601f106103505761010080835404028352916020019161037b565b820191906000526020600020905b81548152906001019060200180831161035e57829003601f168201915b5050505050905082565b82805461039190610755565b90600052602060002090601f0160209004810192826103b357600085556103fa565b82601f106103cc57803560ff19168380011785556103fa565b828001600101855582156103fa579182015b828111156103f95782358255916020019190600101906103de565b5b509050610407919061040b565b5090565b5b8082111561042457600081600090555060010161040c565b5090565b600081359050610437816107c7565b92915050565b60008135905061044c816107de565b92915050565b60008083601f84011261046457600080fd5b8235905067ffffffffffffffff81111561047d57600080fd5b60208301915083600182028301111561049557600080fd5b9250929050565b6000813590506104ab816107f5565b92915050565b6000602082840312156104c357600080fd5b60006104d184828501610428565b91505092915050565b6000806000806000606086880312156104f257600080fd5b600061050088828901610428565b955050602086013567ffffffffffffffff81111561051d57600080fd5b61052988828901610452565b9450945050604086013567ffffffffffffffff81111561054857600080fd5b61055488828901610452565b92509250509295509295909350565b60006020828403121561057557600080fd5b60006105838482850161043d565b91505092915050565b600080600080606085870312156105a257600080fd5b600085013567ffffffffffffffff8111156105bc57600080fd5b6105c887828801610452565b945094505060206105db87828801610428565b92505060406105ec8782880161049c565b91505092959194509250565b610601816106c0565b82525050565b600061061282610692565b61061c818561069d565b935061062c818560208601610722565b610635816107b6565b840191505092915050565b600060208201905061065560008301846105f8565b92915050565b600060408201905081810360008301526106758185610607565b905081810360208301526106898184610607565b90509392505050565b600081519050919050565b600082825260208201905092915050565b60006106b9826106f8565b9050919050565b60008115159050919050565b60007fffffffffffffffff00000000000000000000000000000000000000000000000082169050919050565b600073ffffffffffffffffffffffffffffffffffffffff82169050919050565b6000819050919050565b60005b83811015610740578082015181840152602081019050610725565b8381111561074f576000848401525b50505050565b6000600282049050600182168061076d57607f821691505b6020821081141561078157610780610787565b5b50919050565b7f4e487b7100000000000000000000000000000000000000000000000000000000600052602260045260246000fd5b6000601f19601f8301169050919050565b6107d0816106ae565b81146107db57600080fd5b50565b6107e7816106cc565b81146107f257600080fd5b50565b6107fe81610718565b811461080957600080fd5b5056fea264697066735822122089bee43703ada2d9c554efef57f8dbb428d8cba7c8eda627dfc6e74c142c478a64736f6c63430008020033",
  "linkReferences": {},
  "deployedLinkReferences": {}
}