{
  "_format": "hh-sol-artifact-1",
  "contractName": "Dummy",
  "sourceName": "contracts/DUMMYDONTDEPLOY.sol",
  "abi": [
    {
      "inputs": [],
      "stateMutability": "nonpayable",
      "type": "constructor"
    },
    {
      "inputs": [
        {
          "internalType": "address",
          "name": "",
          "type": "address"
        }
      ],
      "name": "_accountRole",
      "outputs": [
        {
          "internalType": "string",
          "name": "orgId",
          "type": "string"
        },
        {
          "internalType": "string",
          "name": "roleId",
          "type": "string"
        }
      ],
      "stateMutability": "view",
      "type": "function"
    },
    {
      "inputs": [
        {
          "internalType": "address",
          "name": "_account",
          "type": "address"
        },
        {
          "internalType": "string",
          "name": "_orgId",
          "type": "string"
        },
        {
          "internalType": "string",
          "name": "_roleId",
          "type": "string"
        }
      ],
      "name": "assignAccountRole",
      "outputs": [],
      "stateMutability": "nonpayable",
      "type": "function"
    }
  ],
  "bytecode": "0x608060405234801561001057600080fd5b50610592806100206000396000f3fe608060405234801561001057600080fd5b50600436106100365760003560e01c80632f7f0a121461003b578063ce9c570014610057575b600080fd5b61005560048036038101906100509190610359565b610088565b005b610071600480360381019061006c9190610330565b6100fa565b60405161007f92919061041b565b60405180910390f35b60008060008773ffffffffffffffffffffffffffffffffffffffff1673ffffffffffffffffffffffffffffffffffffffff168152602001908152602001600020905084848260000191906100dd92919061022e565b5082828260010191906100f192919061022e565b50505050505050565b600060205280600052604060002060009150905080600001805461011d906104d3565b80601f0160208091040260200160405190810160405280929190818152602001828054610149906104d3565b80156101965780601f1061016b57610100808354040283529160200191610196565b820191906000526020600020905b81548152906001019060200180831161017957829003601f168201915b5050505050908060010180546101ab906104d3565b80601f01602080910402602001604051908101604052809291908181526020018280546101d7906104d3565b80156102245780601f106101f957610100808354040283529160200191610224565b820191906000526020600020905b81548152906001019060200180831161020757829003601f168201915b5050505050905082565b82805461023a906104d3565b90600052602060002090601f01602090048101928261025c57600085556102a3565b82601f1061027557803560ff19168380011785556102a3565b828001600101855582156102a3579182015b828111156102a2578235825591602001919060010190610287565b5b5090506102b091906102b4565b5090565b5b808211156102cd5760008160009055506001016102b5565b5090565b6000813590506102e081610545565b92915050565b60008083601f8401126102f857600080fd5b8235905067ffffffffffffffff81111561031157600080fd5b60208301915083600182028301111561032957600080fd5b9250929050565b60006020828403121561034257600080fd5b6000610350848285016102d1565b91505092915050565b60008060008060006060868803121561037157600080fd5b600061037f888289016102d1565b955050602086013567ffffffffffffffff81111561039c57600080fd5b6103a8888289016102e6565b9450945050604086013567ffffffffffffffff8111156103c757600080fd5b6103d3888289016102e6565b92509250509295509295909350565b60006103ed82610452565b6103f7818561045d565b93506104078185602086016104a0565b61041081610534565b840191505092915050565b6000604082019050818103600083015261043581856103e2565b9050818103602083015261044981846103e2565b90509392505050565b600081519050919050565b600082825260208201905092915050565b600061047982610480565b9050919050565b600073ffffffffffffffffffffffffffffffffffffffff82169050919050565b60005b838110156104be5780820151818401526020810190506104a3565b838111156104cd576000848401525b50505050565b600060028204905060018216806104eb57607f821691505b602082108114156104ff576104fe610505565b5b50919050565b7f4e487b7100000000000000000000000000000000000000000000000000000000600052602260045260246000fd5b6000601f19601f8301169050919050565b61054e8161046e565b811461055957600080fd5b5056fea264697066735822122095b0aaf439d92861746dd89347463a04d138816b8eb212089f59c4ee57ae603a64736f6c63430008020033",
  "linkReferences": {},
  "deployedLinkReferences": {}
}