{
  "_format": "hh-sol-artifact-1",
  "contractName": "VerifiedSimpleStorage",
  "sourceName": "contracts/VerifiedSimpleStorage.sol",
  "abi": [
    {
      "inputs": [
        {
          "internalType": "address",
          "name": "proofContract",
          "type": "address"
        }
      ],
      "stateMutability": "nonpayable",
      "type": "constructor"
    },
    {
      "anonymous": false,
      "inputs": [
        {
          "indexed": true,
          "internalType": "address",
          "name": "previousOwner",
          "type": "address"
        },
        {
          "indexed": true,
          "internalType": "address",
          "name": "newOwner",
          "type": "address"
        }
      ],
      "name": "OwnershipTransferred",
      "type": "event"
    },
    {
      "inputs": [
        {
          "internalType": "string",
          "name": "countryCode",
          "type": "string"
        }
      ],
      "name": "approveCountryCode",
      "outputs": [],
      "stateMutability": "nonpayable",
      "type": "function"
    },
    {
      "inputs": [],
      "name": "get",
      "outputs": [
        {
          "internalType": "uint256",
          "name": "retVal",
          "type": "uint256"
        }
      ],
      "stateMutability": "view",
      "type": "function"
    },
    {
      "inputs": [
        {
          "internalType": "address",
          "name": "account",
          "type": "address"
        }
      ],
      "name": "getUserAccountCountryCode",
      "outputs": [
        {
          "internalType": "string",
          "name": "userAccountCountryCode",
          "type": "string"
        }
      ],
      "stateMutability": "view",
      "type": "function"
    },
    {
      "inputs": [
        {
          "internalType": "address",
          "name": "account",
          "type": "address"
        }
      ],
      "name": "getUserAccountExpiry",
      "outputs": [
        {
          "internalType": "uint256",
          "name": "userAccountExpiry",
          "type": "uint256"
        }
      ],
      "stateMutability": "view",
      "type": "function"
    },
    {
      "inputs": [
        {
          "internalType": "address",
          "name": "account",
          "type": "address"
        }
      ],
      "name": "getUserAccountIdentityBlob",
      "outputs": [
        {
          "components": [
            {
              "internalType": "uint256",
              "name": "tokenId",
              "type": "uint256"
            },
            {
              "internalType": "string",
              "name": "countryCode",
              "type": "string"
            },
            {
              "internalType": "uint8",
              "name": "userType",
              "type": "uint8"
            },
            {
              "internalType": "uint8",
              "name": "level",
              "type": "uint8"
            },
            {
              "internalType": "uint256",
              "name": "expiry",
              "type": "uint256"
            }
          ],
          "internalType": "struct RoleVerification.IdentityBlob",
          "name": "userIdentityBlob",
          "type": "tuple"
        }
      ],
      "stateMutability": "view",
      "type": "function"
    },
    {
      "inputs": [
        {
          "internalType": "address",
          "name": "account",
          "type": "address"
        }
      ],
      "name": "getUserAccountLevel",
      "outputs": [
        {
          "internalType": "uint8",
          "name": "userAccountLevel",
          "type": "uint8"
        }
      ],
      "stateMutability": "view",
      "type": "function"
    },
    {
      "inputs": [
        {
          "internalType": "address",
          "name": "account",
          "type": "address"
        }
      ],
      "name": "getUserAccountType",
      "outputs": [
        {
          "internalType": "uint8",
          "name": "userAccountType",
          "type": "uint8"
        }
      ],
      "stateMutability": "view",
      "type": "function"
    },
    {
      "inputs": [
        {
          "internalType": "address",
          "name": "account",
          "type": "address"
        }
      ],
      "name": "getUserCountryCode",
      "outputs": [
        {
          "internalType": "string",
          "name": "userAccountCountryCode",
          "type": "string"
        }
      ],
      "stateMutability": "view",
      "type": "function"
    },
    {
      "inputs": [
        {
          "internalType": "address",
          "name": "account",
          "type": "address"
        }
      ],
      "name": "getUserExpiry",
      "outputs": [
        {
          "internalType": "uint256",
          "name": "",
          "type": "uint256"
        }
      ],
      "stateMutability": "view",
      "type": "function"
    },
    {
      "inputs": [
        {
          "internalType": "address",
          "name": "account",
          "type": "address"
        }
      ],
      "name": "getUserIdentityData",
      "outputs": [
        {
          "components": [
            {
              "internalType": "uint256",
              "name": "tokenId",
              "type": "uint256"
            },
            {
              "internalType": "string",
              "name": "countryCode",
              "type": "string"
            },
            {
              "internalType": "uint8",
              "name": "userType",
              "type": "uint8"
            },
            {
              "internalType": "uint8",
              "name": "level",
              "type": "uint8"
            },
            {
              "internalType": "uint256",
              "name": "expiry",
              "type": "uint256"
            }
          ],
          "internalType": "struct RoleVerification.IdentityBlob",
          "name": "userAccountIdentityBlob",
          "type": "tuple"
        }
      ],
      "stateMutability": "view",
      "type": "function"
    },
    {
      "inputs": [
        {
          "internalType": "address",
          "name": "account",
          "type": "address"
        }
      ],
      "name": "getUserLevel",
      "outputs": [
        {
          "internalType": "uint8",
          "name": "userAccountLevel",
          "type": "uint8"
        }
      ],
      "stateMutability": "view",
      "type": "function"
    },
    {
      "inputs": [
        {
          "internalType": "address",
          "name": "account",
          "type": "address"
        }
      ],
      "name": "getUserType",
      "outputs": [
        {
          "internalType": "uint8",
          "name": "userAccountType",
          "type": "uint8"
        }
      ],
      "stateMutability": "view",
      "type": "function"
    },
    {
      "inputs": [
        {
          "internalType": "address",
          "name": "",
          "type": "address"
        }
      ],
      "name": "identityBlob",
      "outputs": [
        {
          "internalType": "uint256",
          "name": "tokenId",
          "type": "uint256"
        },
        {
          "internalType": "string",
          "name": "countryCode",
          "type": "string"
        },
        {
          "internalType": "uint8",
          "name": "userType",
          "type": "uint8"
        },
        {
          "internalType": "uint8",
          "name": "level",
          "type": "uint8"
        },
        {
          "internalType": "uint256",
          "name": "expiry",
          "type": "uint256"
        }
      ],
      "stateMutability": "view",
      "type": "function"
    },
    {
      "inputs": [],
      "name": "owner",
      "outputs": [
        {
          "internalType": "address",
          "name": "",
          "type": "address"
        }
      ],
      "stateMutability": "view",
      "type": "function"
    },
    {
      "inputs": [],
      "name": "renounceOwnership",
      "outputs": [],
      "stateMutability": "nonpayable",
      "type": "function"
    },
    {
      "inputs": [
        {
          "internalType": "uint256",
          "name": "x",
          "type": "uint256"
        }
      ],
      "name": "set",
      "outputs": [],
      "stateMutability": "nonpayable",
      "type": "function"
    },
    {
      "inputs": [],
      "name": "storedData",
      "outputs": [
        {
          "internalType": "uint256",
          "name": "",
          "type": "uint256"
        }
      ],
      "stateMutability": "view",
      "type": "function"
    },
    {
      "inputs": [
        {
          "internalType": "address",
          "name": "newOwner",
          "type": "address"
        }
      ],
      "name": "transferOwnership",
      "outputs": [],
      "stateMutability": "nonpayable",
      "type": "function"
    }
  ],
  "bytecode": "0x608060405234801561001057600080fd5b5060405161100438038061100483398101604081905261002f916100b1565b600180546001600160a01b0319166001600160a01b0383161790556100596100543390565b61005f565b506100df565b600280546001600160a01b038381166001600160a01b0319831681179093556040519116919082907f8be0079c531659141344cd1fd0a4f28419497f9722a3daafe3b4186f6b6457e090600090a35050565b6000602082840312156100c2578081fd5b81516001600160a01b03811681146100d8578182fd5b9392505050565b610f16806100ee6000396000f3fe608060405234801561001057600080fd5b50600436106101365760003560e01c8063715018a6116100b2578063b7180c5311610081578063dfb24b8911610066578063dfb24b89146102cf578063eee84487146102e2578063f2fde38b146102f557610136565b8063b7180c531461027b578063c207e9e01461029b57610136565b8063715018a6146102165780638b3f863f1461021e5780638da5cb5b14610231578063b467177f1461024c57610136565b80632deb044a11610109578063688ea9fe116100ee578063688ea9fe146101d75780636ca5fde8146101fb5780636d4ce63c1461020e57610136565b80632deb044a146101a457806360fe47b1146101c457610136565b806309299ea31461013b57806321923bde146101615780632a1afcd9146101865780632bedce421461018f575b600080fd5b61014e610149366004610b5b565b610308565b6040519081526020015b60405180910390f35b61017461016f366004610b5b565b61032a565b60405160ff9091168152602001610158565b61014e60045481565b6101a261019d366004610b89565b6103c8565b005b6101b76101b2366004610b5b565b6103fd565b6040516101589190610d79565b6101a26101d2366004610cd4565b6104cf565b6101ea6101e5366004610b5b565b610586565b604051610158959493929190610dcf565b6101b7610209366004610b5b565b610644565b60045461014e565b6101a2610765565b61017461022c366004610b5b565b610779565b6002546040516001600160a01b039091168152602001610158565b61017461025a366004610b5b565b6001600160a01b031660009081526020819052604090206002015460ff1690565b61028e610289366004610b5b565b6107c5565b6040516101589190610d66565b6101746102a9366004610b5b565b6001600160a01b0316600090815260208190526040902060020154610100900460ff1690565b61028e6102dd366004610b5b565b610860565b61014e6102f0366004610b5b565b61090f565b6101a2610303366004610b5b565b6109a6565b6001600160a01b0381166000908152602081905260409020600301545b919050565b6001546040517fc207e9e00000000000000000000000000000000000000000000000000000000081526001600160a01b038381166004830152600092169063c207e9e0906024015b60206040518083038186803b15801561038a57600080fd5b505afa15801561039e573d6000803e3d6000fd5b505050506040513d601f19601f820116820180604052508101906103c29190610d04565b92915050565b60016003826040516103da9190610d4a565b908152604051908190036020019020805491151560ff1990921691909117905550565b6104356040518060a001604052806000815260200160608152602001600060ff168152602001600060ff168152602001600081525090565b6001546040517f6ca5fde80000000000000000000000000000000000000000000000000000000081526001600160a01b03848116600483015290911690636ca5fde89060240160006040518083038186803b15801561049357600080fd5b505afa1580156104a7573d6000803e3d6000fd5b505050506040513d6000823e601f3d908101601f191682016040526103c29190810190610c30565b60006104da336103fd565b90506000600382602001516040516104f29190610d4a565b9081526040519081900360200190205460ff1690508061057f5760405162461bcd60e51b815260206004820152603260248201527f4572723a20636f756e747279636f6465206e6f7420617070726f76656420666f60448201527f722074686973206170706c69636174696f6e000000000000000000000000000060648201526084015b60405180910390fd5b5050600455565b600060208190529081526040902080546001820180549192916105a890610e8f565b80601f01602080910402602001604051908101604052809291908181526020018280546105d490610e8f565b80156106215780601f106105f657610100808354040283529160200191610621565b820191906000526020600020905b81548152906001019060200180831161060457829003601f168201915b505050506002830154600390930154919260ff8082169361010090920416915085565b61067c6040518060a001604052806000815260200160608152602001600060ff168152602001600060ff168152602001600081525090565b6001600160a01b03821660009081526020818152604091829020825160a081019093528054835260018101805491928401916106b790610e8f565b80601f01602080910402602001604051908101604052809291908181526020018280546106e390610e8f565b80156107305780601f1061070557610100808354040283529160200191610730565b820191906000526020600020905b81548152906001019060200180831161071357829003601f168201915b5050509183525050600282015460ff808216602084015261010090910416604082015260039091015460609091015292915050565b61076d610a36565b6107776000610a90565b565b6001546040517fb467177f0000000000000000000000000000000000000000000000000000000081526001600160a01b038381166004830152600092169063b467177f90602401610372565b6001546040517fdfb24b890000000000000000000000000000000000000000000000000000000081526001600160a01b038381166004830152606092169063dfb24b899060240160006040518083038186803b15801561082457600080fd5b505afa158015610838573d6000803e3d6000fd5b505050506040513d6000823e601f3d908101601f191682016040526103c29190810190610bfd565b6001600160a01b038116600090815260208190526040902060010180546060919061088a90610e8f565b80601f01602080910402602001604051908101604052809291908181526020018280546108b690610e8f565b80156109035780601f106108d857610100808354040283529160200191610903565b820191906000526020600020905b8154815290600101906020018083116108e657829003601f168201915b50505050509050919050565b6001546040517f09299ea30000000000000000000000000000000000000000000000000000000081526001600160a01b03838116600483015260009216906309299ea39060240160206040518083038186803b15801561096e57600080fd5b505afa158015610982573d6000803e3d6000fd5b505050506040513d601f19601f820116820180604052508101906103c29190610cec565b6109ae610a36565b6001600160a01b038116610a2a5760405162461bcd60e51b815260206004820152602660248201527f4f776e61626c653a206e6577206f776e657220697320746865207a65726f206160448201527f64647265737300000000000000000000000000000000000000000000000000006064820152608401610576565b610a3381610a90565b50565b6002546001600160a01b031633146107775760405162461bcd60e51b815260206004820181905260248201527f4f776e61626c653a2063616c6c6572206973206e6f7420746865206f776e65726044820152606401610576565b600280546001600160a01b038381167fffffffffffffffffffffffff0000000000000000000000000000000000000000831681179093556040519116919082907f8be0079c531659141344cd1fd0a4f28419497f9722a3daafe3b4186f6b6457e090600090a35050565b600082601f830112610b0a578081fd5b8151610b1d610b1882610e37565b610e06565b818152846020838601011115610b31578283fd5b610b42826020830160208701610e5f565b949350505050565b805160ff8116811461032557600080fd5b600060208284031215610b6c578081fd5b81356001600160a01b0381168114610b82578182fd5b9392505050565b600060208284031215610b9a578081fd5b813567ffffffffffffffff811115610bb0578182fd5b8201601f81018413610bc0578182fd5b8035610bce610b1882610e37565b818152856020838501011115610be2578384fd5b81602084016020830137908101602001929092525092915050565b600060208284031215610c0e578081fd5b815167ffffffffffffffff811115610c24578182fd5b610b4284828501610afa565b600060208284031215610c41578081fd5b815167ffffffffffffffff80821115610c58578283fd5b9083019060a08286031215610c6b578283fd5b610c7560a0610e06565b82518152602083015182811115610c8a578485fd5b610c9687828601610afa565b602083015250610ca860408401610b4a565b6040820152610cb960608401610b4a565b60608201526080830151608082015280935050505092915050565b600060208284031215610ce5578081fd5b5035919050565b600060208284031215610cfd578081fd5b5051919050565b600060208284031215610d15578081fd5b610b8282610b4a565b60008151808452610d36816020860160208601610e5f565b601f01601f19169290920160200192915050565b60008251610d5c818460208701610e5f565b9190910192915050565b600060208252610b826020830184610d1e565b60006020825282516020830152602083015160a06040840152610d9f60c0840182610d1e565b905060ff604085015116606084015260ff6060850151166080840152608084015160a08401528091505092915050565b600086825260a06020830152610de860a0830187610d1e565b60ff9586166040840152939094166060820152608001529392505050565b604051601f8201601f1916810167ffffffffffffffff81118282101715610e2f57610e2f610eca565b604052919050565b600067ffffffffffffffff821115610e5157610e51610eca565b50601f01601f191660200190565b60005b83811015610e7a578181015183820152602001610e62565b83811115610e89576000848401525b50505050565b600281046001821680610ea357607f821691505b60208210811415610ec457634e487b7160e01b600052602260045260246000fd5b50919050565b634e487b7160e01b600052604160045260246000fdfea2646970667358221220151ce8f6d8a5ee1d6c371b6062861031f7f85ec1672799943829ada7b97aa4cd64736f6c63430008020033",
  "linkReferences": {},
  "deployedLinkReferences": {}
}