{
  "_format": "hh-sol-artifact-1",
  "contractName": "VerifiedSimpleStorage",
  "sourceName": "contracts/VerifiedSimpleStorage.sol",
  "abi": [
    {
      "inputs": [
        {
          "internalType": "address",
          "name": "proofContract",
          "type": "address"
        }
      ],
      "stateMutability": "nonpayable",
      "type": "constructor"
    },
    {
      "anonymous": false,
      "inputs": [
        {
          "indexed": true,
          "internalType": "address",
          "name": "previousOwner",
          "type": "address"
        },
        {
          "indexed": true,
          "internalType": "address",
          "name": "newOwner",
          "type": "address"
        }
      ],
      "name": "OwnershipTransferred",
      "type": "event"
    },
    {
      "inputs": [
        {
          "internalType": "string",
          "name": "countryCode",
          "type": "string"
        }
      ],
      "name": "approveCountryCode",
      "outputs": [],
      "stateMutability": "nonpayable",
      "type": "function"
    },
    {
      "inputs": [],
      "name": "get",
      "outputs": [
        {
          "internalType": "uint256",
          "name": "retVal",
          "type": "uint256"
        }
      ],
      "stateMutability": "view",
      "type": "function"
    },
    {
      "inputs": [
        {
          "internalType": "address",
          "name": "account",
          "type": "address"
        }
      ],
      "name": "getUserAccountCountryCode",
      "outputs": [
        {
          "internalType": "string",
          "name": "userAccountCountryCode",
          "type": "string"
        }
      ],
      "stateMutability": "view",
      "type": "function"
    },
    {
      "inputs": [
        {
          "internalType": "address",
          "name": "account",
          "type": "address"
        }
      ],
      "name": "getUserAccountExpiry",
      "outputs": [
        {
          "internalType": "uint256",
          "name": "userAccountExpiry",
          "type": "uint256"
        }
      ],
      "stateMutability": "view",
      "type": "function"
    },
    {
      "inputs": [
        {
          "internalType": "address",
          "name": "account",
          "type": "address"
        }
      ],
      "name": "getUserAccountIdentityBlob",
      "outputs": [
        {
          "components": [
            {
              "internalType": "uint256",
              "name": "tokenId",
              "type": "uint256"
            },
            {
              "internalType": "string",
              "name": "countryCode",
              "type": "string"
            },
            {
              "internalType": "uint8",
              "name": "userType",
              "type": "uint8"
            },
            {
              "internalType": "uint8",
              "name": "level",
              "type": "uint8"
            },
            {
              "internalType": "uint256",
              "name": "expiry",
              "type": "uint256"
            }
          ],
          "internalType": "struct RoleVerification.IdentityBlob",
          "name": "userIdentityBlob",
          "type": "tuple"
        }
      ],
      "stateMutability": "view",
      "type": "function"
    },
    {
      "inputs": [
        {
          "internalType": "address",
          "name": "account",
          "type": "address"
        }
      ],
      "name": "getUserAccountLevel",
      "outputs": [
        {
          "internalType": "uint8",
          "name": "userAccountLevel",
          "type": "uint8"
        }
      ],
      "stateMutability": "view",
      "type": "function"
    },
    {
      "inputs": [
        {
          "internalType": "address",
          "name": "account",
          "type": "address"
        }
      ],
      "name": "getUserAccountType",
      "outputs": [
        {
          "internalType": "uint8",
          "name": "userAccountType",
          "type": "uint8"
        }
      ],
      "stateMutability": "view",
      "type": "function"
    },
    {
      "inputs": [
        {
          "internalType": "address",
          "name": "account",
          "type": "address"
        }
      ],
      "name": "getUserCountryCode",
      "outputs": [
        {
          "internalType": "string",
          "name": "userAccountCountryCode",
          "type": "string"
        }
      ],
      "stateMutability": "view",
      "type": "function"
    },
    {
      "inputs": [
        {
          "internalType": "address",
          "name": "account",
          "type": "address"
        }
      ],
      "name": "getUserExpiry",
      "outputs": [
        {
          "internalType": "uint256",
          "name": "",
          "type": "uint256"
        }
      ],
      "stateMutability": "view",
      "type": "function"
    },
    {
      "inputs": [
        {
          "internalType": "address",
          "name": "account",
          "type": "address"
        }
      ],
      "name": "getUserIdentityData",
      "outputs": [
        {
          "components": [
            {
              "internalType": "uint256",
              "name": "tokenId",
              "type": "uint256"
            },
            {
              "internalType": "string",
              "name": "countryCode",
              "type": "string"
            },
            {
              "internalType": "uint8",
              "name": "userType",
              "type": "uint8"
            },
            {
              "internalType": "uint8",
              "name": "level",
              "type": "uint8"
            },
            {
              "internalType": "uint256",
              "name": "expiry",
              "type": "uint256"
            }
          ],
          "internalType": "struct RoleVerification.IdentityBlob",
          "name": "userAccountIdentityBlob",
          "type": "tuple"
        }
      ],
      "stateMutability": "view",
      "type": "function"
    },
    {
      "inputs": [
        {
          "internalType": "address",
          "name": "account",
          "type": "address"
        }
      ],
      "name": "getUserLevel",
      "outputs": [
        {
          "internalType": "uint8",
          "name": "userAccountLevel",
          "type": "uint8"
        }
      ],
      "stateMutability": "view",
      "type": "function"
    },
    {
      "inputs": [
        {
          "internalType": "address",
          "name": "account",
          "type": "address"
        }
      ],
      "name": "getUserType",
      "outputs": [
        {
          "internalType": "uint8",
          "name": "userAccountType",
          "type": "uint8"
        }
      ],
      "stateMutability": "view",
      "type": "function"
    },
    {
      "inputs": [
        {
          "internalType": "address",
          "name": "",
          "type": "address"
        }
      ],
      "name": "identityBlob",
      "outputs": [
        {
          "internalType": "uint256",
          "name": "tokenId",
          "type": "uint256"
        },
        {
          "internalType": "string",
          "name": "countryCode",
          "type": "string"
        },
        {
          "internalType": "uint8",
          "name": "userType",
          "type": "uint8"
        },
        {
          "internalType": "uint8",
          "name": "level",
          "type": "uint8"
        },
        {
          "internalType": "uint256",
          "name": "expiry",
          "type": "uint256"
        }
      ],
      "stateMutability": "view",
      "type": "function"
    },
    {
      "inputs": [],
      "name": "owner",
      "outputs": [
        {
          "internalType": "address",
          "name": "",
          "type": "address"
        }
      ],
      "stateMutability": "view",
      "type": "function"
    },
    {
      "inputs": [],
      "name": "renounceOwnership",
      "outputs": [],
      "stateMutability": "nonpayable",
      "type": "function"
    },
    {
      "inputs": [
        {
          "internalType": "uint256",
          "name": "x",
          "type": "uint256"
        }
      ],
      "name": "set",
      "outputs": [],
      "stateMutability": "nonpayable",
      "type": "function"
    },
    {
      "inputs": [],
      "name": "storedData",
      "outputs": [
        {
          "internalType": "uint256",
          "name": "",
          "type": "uint256"
        }
      ],
      "stateMutability": "view",
      "type": "function"
    },
    {
      "inputs": [
        {
          "internalType": "address",
          "name": "newOwner",
          "type": "address"
        }
      ],
      "name": "transferOwnership",
      "outputs": [],
      "stateMutability": "nonpayable",
      "type": "function"
    }
  ],
  "bytecode": "0x60806040523480156200001157600080fd5b5060405162001a0e38038062001a0e833981810160405281019062000037919062000186565b8080600160006101000a81548173ffffffffffffffffffffffffffffffffffffffff021916908373ffffffffffffffffffffffffffffffffffffffff160217905550506200009a6200008e620000a160201b60201c565b620000a960201b60201c565b5062000200565b600033905090565b6000600260009054906101000a900473ffffffffffffffffffffffffffffffffffffffff16905081600260006101000a81548173ffffffffffffffffffffffffffffffffffffffff021916908373ffffffffffffffffffffffffffffffffffffffff1602179055508173ffffffffffffffffffffffffffffffffffffffff168173ffffffffffffffffffffffffffffffffffffffff167f8be0079c531659141344cd1fd0a4f28419497f9722a3daafe3b4186f6b6457e060405160405180910390a35050565b6000815190506200018081620001e6565b92915050565b6000602082840312156200019957600080fd5b6000620001a9848285016200016f565b91505092915050565b6000620001bf82620001c6565b9050919050565b600073ffffffffffffffffffffffffffffffffffffffff82169050919050565b620001f181620001b2565b8114620001fd57600080fd5b50565b6117fe80620002106000396000f3fe608060405234801561001057600080fd5b50600436106101165760003560e01c8063715018a6116100a2578063b7180c5311610071578063b7180c531461030b578063c207e9e01461033b578063dfb24b891461036b578063eee844871461039b578063f2fde38b146103cb57610116565b8063715018a6146102835780638b3f863f1461028d5780638da5cb5b146102bd578063b467177f146102db57610116565b80632deb044a116100e95780632deb044a146101b557806360fe47b1146101e5578063688ea9fe146102015780636ca5fde8146102355780636d4ce63c1461026557610116565b806309299ea31461011b57806321923bde1461014b5780632a1afcd91461017b5780632bedce4214610199575b600080fd5b61013560048036038101906101309190611037565b6103e7565b6040516101429190611441565b60405180910390f35b61016560048036038101906101609190611037565b610432565b60405161017291906114b6565b60405180910390f35b6101836104e6565b6040516101909190611441565b60405180910390f35b6101b360048036038101906101ae9190611060565b6104ec565b005b6101cf60048036038101906101ca9190611037565b610526565b6040516101dc919061141f565b60405180910390f35b6101ff60048036038101906101fa9190611123565b6105e5565b005b61021b60048036038101906102169190611037565b610672565b60405161022c95949392919061145c565b60405180910390f35b61024f600480360381019061024a9190611037565b61074a565b60405161025c919061141f565b60405180910390f35b61026d610882565b60405161027a9190611441565b60405180910390f35b61028b61088c565b005b6102a760048036038101906102a29190611037565b6108a0565b6040516102b491906114b6565b60405180910390f35b6102c5610954565b6040516102d29190611382565b60405180910390f35b6102f560048036038101906102f09190611037565b61097e565b60405161030291906114b6565b60405180910390f35b61032560048036038101906103209190611037565b6109d6565b604051610332919061139d565b60405180910390f35b61035560048036038101906103509190611037565b610a8f565b60405161036291906114b6565b60405180910390f35b61038560048036038101906103809190611037565b610ae7565b604051610392919061139d565b60405180910390f35b6103b560048036038101906103b09190611037565b610bba565b6040516103c29190611441565b60405180910390f35b6103e560048036038101906103e09190611037565b610c6e565b005b60008060008373ffffffffffffffffffffffffffffffffffffffff1673ffffffffffffffffffffffffffffffffffffffff168152602001908152602001600020600301549050919050565b6000600160009054906101000a900473ffffffffffffffffffffffffffffffffffffffff1673ffffffffffffffffffffffffffffffffffffffff1663c207e9e0836040518263ffffffff1660e01b815260040161048f9190611382565b60206040518083038186803b1580156104a757600080fd5b505afa1580156104bb573d6000803e3d6000fd5b505050506040513d601f19601f820116820180604052508101906104df9190611175565b9050919050565b60045481565b60016003826040516104fe919061136b565b908152602001604051809103902060006101000a81548160ff02191690831515021790555050565b61052e610e3e565b600160009054906101000a900473ffffffffffffffffffffffffffffffffffffffff1673ffffffffffffffffffffffffffffffffffffffff16636ca5fde8836040518263ffffffff1660e01b81526004016105899190611382565b60006040518083038186803b1580156105a157600080fd5b505afa1580156105b5573d6000803e3d6000fd5b505050506040513d6000823e3d601f19601f820116820180604052508101906105de91906110e2565b9050919050565b60006105f033610526565b9050600060038260200151604051610608919061136b565b908152602001604051809103902060009054906101000a900460ff16905080610666576040517f08c379a000000000000000000000000000000000000000000000000000000000815260040161065d906113df565b60405180910390fd5b82600481905550505050565b600060205280600052604060002060009150905080600001549080600101805461069b906115ea565b80601f01602080910402602001604051908101604052809291908181526020018280546106c7906115ea565b80156107145780601f106106e957610100808354040283529160200191610714565b820191906000526020600020905b8154815290600101906020018083116106f757829003601f168201915b5050505050908060020160009054906101000a900460ff16908060020160019054906101000a900460ff16908060030154905085565b610752610e3e565b6000808373ffffffffffffffffffffffffffffffffffffffff1673ffffffffffffffffffffffffffffffffffffffff1681526020019081526020016000206040518060a0016040529081600082015481526020016001820180546107b5906115ea565b80601f01602080910402602001604051908101604052809291908181526020018280546107e1906115ea565b801561082e5780601f106108035761010080835404028352916020019161082e565b820191906000526020600020905b81548152906001019060200180831161081157829003601f168201915b505050505081526020016002820160009054906101000a900460ff1660ff1660ff1681526020016002820160019054906101000a900460ff1660ff1660ff1681526020016003820154815250509050919050565b6000600454905090565b610894610cf2565b61089e6000610d70565b565b6000600160009054906101000a900473ffffffffffffffffffffffffffffffffffffffff1673ffffffffffffffffffffffffffffffffffffffff1663b467177f836040518263ffffffff1660e01b81526004016108fd9190611382565b60206040518083038186803b15801561091557600080fd5b505afa158015610929573d6000803e3d6000fd5b505050506040513d601f19601f8201168201806040525081019061094d9190611175565b9050919050565b6000600260009054906101000a900473ffffffffffffffffffffffffffffffffffffffff16905090565b60008060008373ffffffffffffffffffffffffffffffffffffffff1673ffffffffffffffffffffffffffffffffffffffff16815260200190815260200160002060020160009054906101000a900460ff169050919050565b6060600160009054906101000a900473ffffffffffffffffffffffffffffffffffffffff1673ffffffffffffffffffffffffffffffffffffffff1663dfb24b89836040518263ffffffff1660e01b8152600401610a339190611382565b60006040518083038186803b158015610a4b57600080fd5b505afa158015610a5f573d6000803e3d6000fd5b505050506040513d6000823e3d601f19601f82011682018060405250810190610a8891906110a1565b9050919050565b60008060008373ffffffffffffffffffffffffffffffffffffffff1673ffffffffffffffffffffffffffffffffffffffff16815260200190815260200160002060020160019054906101000a900460ff169050919050565b60606000808373ffffffffffffffffffffffffffffffffffffffff1673ffffffffffffffffffffffffffffffffffffffff1681526020019081526020016000206001018054610b35906115ea565b80601f0160208091040260200160405190810160405280929190818152602001828054610b61906115ea565b8015610bae5780601f10610b8357610100808354040283529160200191610bae565b820191906000526020600020905b815481529060010190602001808311610b9157829003601f168201915b50505050509050919050565b6000600160009054906101000a900473ffffffffffffffffffffffffffffffffffffffff1673ffffffffffffffffffffffffffffffffffffffff166309299ea3836040518263ffffffff1660e01b8152600401610c179190611382565b60206040518083038186803b158015610c2f57600080fd5b505afa158015610c43573d6000803e3d6000fd5b505050506040513d601f19601f82011682018060405250810190610c67919061114c565b9050919050565b610c76610cf2565b600073ffffffffffffffffffffffffffffffffffffffff168173ffffffffffffffffffffffffffffffffffffffff161415610ce6576040517f08c379a0000000000000000000000000000000000000000000000000000000008152600401610cdd906113bf565b60405180910390fd5b610cef81610d70565b50565b610cfa610e36565b73ffffffffffffffffffffffffffffffffffffffff16610d18610954565b73ffffffffffffffffffffffffffffffffffffffff1614610d6e576040517f08c379a0000000000000000000000000000000000000000000000000000000008152600401610d65906113ff565b60405180910390fd5b565b6000600260009054906101000a900473ffffffffffffffffffffffffffffffffffffffff16905081600260006101000a81548173ffffffffffffffffffffffffffffffffffffffff021916908373ffffffffffffffffffffffffffffffffffffffff1602179055508173ffffffffffffffffffffffffffffffffffffffff168173ffffffffffffffffffffffffffffffffffffffff167f8be0079c531659141344cd1fd0a4f28419497f9722a3daafe3b4186f6b6457e060405160405180910390a35050565b600033905090565b6040518060a001604052806000815260200160608152602001600060ff168152602001600060ff168152602001600081525090565b6000610e86610e81846114f6565b6114d1565b905082815260208101848484011115610e9e57600080fd5b610ea98482856115a8565b509392505050565b6000610ec4610ebf846114f6565b6114d1565b905082815260208101848484011115610edc57600080fd5b610ee78482856115b7565b509392505050565b600081359050610efe81611783565b92915050565b600082601f830112610f1557600080fd5b8135610f25848260208601610e73565b91505092915050565b600082601f830112610f3f57600080fd5b8151610f4f848260208601610eb1565b91505092915050565b600060a08284031215610f6a57600080fd5b610f7460a06114d1565b90506000610f848482850161100d565b600083015250602082015167ffffffffffffffff811115610fa457600080fd5b610fb084828501610f2e565b6020830152506040610fc484828501611022565b6040830152506060610fd884828501611022565b6060830152506080610fec8482850161100d565b60808301525092915050565b6000813590506110078161179a565b92915050565b60008151905061101c8161179a565b92915050565b600081519050611031816117b1565b92915050565b60006020828403121561104957600080fd5b600061105784828501610eef565b91505092915050565b60006020828403121561107257600080fd5b600082013567ffffffffffffffff81111561108c57600080fd5b61109884828501610f04565b91505092915050565b6000602082840312156110b357600080fd5b600082015167ffffffffffffffff8111156110cd57600080fd5b6110d984828501610f2e565b91505092915050565b6000602082840312156110f457600080fd5b600082015167ffffffffffffffff81111561110e57600080fd5b61111a84828501610f58565b91505092915050565b60006020828403121561113557600080fd5b600061114384828501610ff8565b91505092915050565b60006020828403121561115e57600080fd5b600061116c8482850161100d565b91505092915050565b60006020828403121561118757600080fd5b600061119584828501611022565b91505092915050565b6111a78161155f565b82525050565b60006111b882611527565b6111c28185611532565b93506111d28185602086016115b7565b6111db816116ab565b840191505092915050565b60006111f182611527565b6111fb8185611543565b935061120b8185602086016115b7565b611214816116ab565b840191505092915050565b600061122a82611527565b6112348185611554565b93506112448185602086016115b7565b80840191505092915050565b600061125d602683611543565b9150611268826116bc565b604082019050919050565b6000611280603283611543565b915061128b8261170b565b604082019050919050565b60006112a3602083611543565b91506112ae8261175a565b602082019050919050565b600060a0830160008301516112d1600086018261132f565b50602083015184820360208601526112e982826111ad565b91505060408301516112fe604086018261134d565b506060830151611311606086018261134d565b506080830151611324608086018261132f565b508091505092915050565b61133881611591565b82525050565b61134781611591565b82525050565b6113568161159b565b82525050565b6113658161159b565b82525050565b6000611377828461121f565b915081905092915050565b6000602082019050611397600083018461119e565b92915050565b600060208201905081810360008301526113b781846111e6565b905092915050565b600060208201905081810360008301526113d881611250565b9050919050565b600060208201905081810360008301526113f881611273565b9050919050565b6000602082019050818103600083015261141881611296565b9050919050565b6000602082019050818103600083015261143981846112b9565b905092915050565b6000602082019050611456600083018461133e565b92915050565b600060a082019050611471600083018861133e565b818103602083015261148381876111e6565b9050611492604083018661135c565b61149f606083018561135c565b6114ac608083018461133e565b9695505050505050565b60006020820190506114cb600083018461135c565b92915050565b60006114db6114ec565b90506114e7828261161c565b919050565b6000604051905090565b600067ffffffffffffffff8211156115115761151061167c565b5b61151a826116ab565b9050602081019050919050565b600081519050919050565b600082825260208201905092915050565b600082825260208201905092915050565b600081905092915050565b600061156a82611571565b9050919050565b600073ffffffffffffffffffffffffffffffffffffffff82169050919050565b6000819050919050565b600060ff82169050919050565b82818337600083830152505050565b60005b838110156115d55780820151818401526020810190506115ba565b838111156115e4576000848401525b50505050565b6000600282049050600182168061160257607f821691505b602082108114156116165761161561164d565b5b50919050565b611625826116ab565b810181811067ffffffffffffffff821117156116445761164361167c565b5b80604052505050565b7f4e487b7100000000000000000000000000000000000000000000000000000000600052602260045260246000fd5b7f4e487b7100000000000000000000000000000000000000000000000000000000600052604160045260246000fd5b6000601f19601f8301169050919050565b7f4f776e61626c653a206e6577206f776e657220697320746865207a65726f206160008201527f6464726573730000000000000000000000000000000000000000000000000000602082015250565b7f4572723a20636f756e747279636f6465206e6f7420617070726f76656420666f60008201527f722074686973206170706c69636174696f6e0000000000000000000000000000602082015250565b7f4f776e61626c653a2063616c6c6572206973206e6f7420746865206f776e6572600082015250565b61178c8161155f565b811461179757600080fd5b50565b6117a381611591565b81146117ae57600080fd5b50565b6117ba8161159b565b81146117c557600080fd5b5056fea26469706673582212208831089e08e998468c2710557c911f7d63ababbb538394767b389c04d3026f2864736f6c63430008020033",
  "linkReferences": {},
  "deployedLinkReferences": {}
}