{
  "_format": "hh-sol-artifact-1",
  "contractName": "VerifiedSimpleStorage",
  "sourceName": "contracts/VerifiedSimpleStorage.sol",
  "abi": [
    {
      "inputs": [
        {
          "internalType": "address",
          "name": "proofContract",
          "type": "address"
        }
      ],
      "stateMutability": "nonpayable",
      "type": "constructor"
    },
    {
      "anonymous": false,
      "inputs": [
        {
          "indexed": true,
          "internalType": "address",
          "name": "previousOwner",
          "type": "address"
        },
        {
          "indexed": true,
          "internalType": "address",
          "name": "newOwner",
          "type": "address"
        }
      ],
      "name": "OwnershipTransferred",
      "type": "event"
    },
    {
      "inputs": [
        {
          "internalType": "string",
          "name": "countryCode",
          "type": "string"
        }
      ],
      "name": "approveCountryCode",
      "outputs": [],
      "stateMutability": "nonpayable",
      "type": "function"
    },
    {
      "inputs": [
        {
          "internalType": "bytes8",
          "name": "c__28b9fbc8",
          "type": "bytes8"
        }
      ],
      "name": "c_28b9fbc8",
      "outputs": [],
      "stateMutability": "pure",
      "type": "function"
    },
    {
      "inputs": [
        {
          "internalType": "bytes8",
          "name": "c__6f26603d",
          "type": "bytes8"
        }
      ],
      "name": "c_6f26603d",
      "outputs": [],
      "stateMutability": "pure",
      "type": "function"
    },
    {
      "inputs": [
        {
          "internalType": "bytes8",
          "name": "c__a86a9c89",
          "type": "bytes8"
        }
      ],
      "name": "c_a86a9c89",
      "outputs": [],
      "stateMutability": "pure",
      "type": "function"
    },
    {
      "inputs": [
        {
          "internalType": "bytes8",
          "name": "c__b8c9e965",
          "type": "bytes8"
        }
      ],
      "name": "c_b8c9e965",
      "outputs": [],
      "stateMutability": "pure",
      "type": "function"
    },
    {
      "inputs": [
        {
          "internalType": "bytes8",
          "name": "c__28b9fbc8",
          "type": "bytes8"
        }
      ],
      "name": "c_false28b9fbc8",
      "outputs": [
        {
          "internalType": "bool",
          "name": "",
          "type": "bool"
        }
      ],
      "stateMutability": "pure",
      "type": "function"
    },
    {
      "inputs": [
        {
          "internalType": "bytes8",
          "name": "c__6f26603d",
          "type": "bytes8"
        }
      ],
      "name": "c_false6f26603d",
      "outputs": [
        {
          "internalType": "bool",
          "name": "",
          "type": "bool"
        }
      ],
      "stateMutability": "pure",
      "type": "function"
    },
    {
      "inputs": [
        {
          "internalType": "bytes8",
          "name": "c__a86a9c89",
          "type": "bytes8"
        }
      ],
      "name": "c_falsea86a9c89",
      "outputs": [
        {
          "internalType": "bool",
          "name": "",
          "type": "bool"
        }
      ],
      "stateMutability": "pure",
      "type": "function"
    },
    {
      "inputs": [
        {
          "internalType": "bytes8",
          "name": "c__b8c9e965",
          "type": "bytes8"
        }
      ],
      "name": "c_falseb8c9e965",
      "outputs": [
        {
          "internalType": "bool",
          "name": "",
          "type": "bool"
        }
      ],
      "stateMutability": "pure",
      "type": "function"
    },
    {
      "inputs": [
        {
          "internalType": "bytes8",
          "name": "c__28b9fbc8",
          "type": "bytes8"
        }
      ],
      "name": "c_true28b9fbc8",
      "outputs": [
        {
          "internalType": "bool",
          "name": "",
          "type": "bool"
        }
      ],
      "stateMutability": "pure",
      "type": "function"
    },
    {
      "inputs": [
        {
          "internalType": "bytes8",
          "name": "c__6f26603d",
          "type": "bytes8"
        }
      ],
      "name": "c_true6f26603d",
      "outputs": [
        {
          "internalType": "bool",
          "name": "",
          "type": "bool"
        }
      ],
      "stateMutability": "pure",
      "type": "function"
    },
    {
      "inputs": [
        {
          "internalType": "bytes8",
          "name": "c__a86a9c89",
          "type": "bytes8"
        }
      ],
      "name": "c_truea86a9c89",
      "outputs": [
        {
          "internalType": "bool",
          "name": "",
          "type": "bool"
        }
      ],
      "stateMutability": "pure",
      "type": "function"
    },
    {
      "inputs": [
        {
          "internalType": "bytes8",
          "name": "c__b8c9e965",
          "type": "bytes8"
        }
      ],
      "name": "c_trueb8c9e965",
      "outputs": [
        {
          "internalType": "bool",
          "name": "",
          "type": "bool"
        }
      ],
      "stateMutability": "pure",
      "type": "function"
    },
    {
      "inputs": [],
      "name": "get",
      "outputs": [
        {
          "internalType": "uint256",
          "name": "retVal",
          "type": "uint256"
        }
      ],
      "stateMutability": "view",
      "type": "function"
    },
    {
      "inputs": [
        {
          "internalType": "address",
          "name": "account",
          "type": "address"
        }
      ],
      "name": "getUserAccountCountryCode",
      "outputs": [
        {
          "internalType": "string",
          "name": "userAccountCountryCode",
          "type": "string"
        }
      ],
      "stateMutability": "view",
      "type": "function"
    },
    {
      "inputs": [
        {
          "internalType": "address",
          "name": "account",
          "type": "address"
        }
      ],
      "name": "getUserAccountExpiry",
      "outputs": [
        {
          "internalType": "uint256",
          "name": "userAccountExpiry",
          "type": "uint256"
        }
      ],
      "stateMutability": "view",
      "type": "function"
    },
    {
      "inputs": [
        {
          "internalType": "address",
          "name": "account",
          "type": "address"
        }
      ],
      "name": "getUserAccountIdentityBlob",
      "outputs": [
        {
          "components": [
            {
              "internalType": "uint256",
              "name": "tokenId",
              "type": "uint256"
            },
            {
              "internalType": "string",
              "name": "countryCode",
              "type": "string"
            },
            {
              "internalType": "uint8",
              "name": "userType",
              "type": "uint8"
            },
            {
              "internalType": "uint8",
              "name": "level",
              "type": "uint8"
            },
            {
              "internalType": "uint256",
              "name": "expiry",
              "type": "uint256"
            }
          ],
          "internalType": "struct RoleVerification.IdentityBlob",
          "name": "userIdentityBlob",
          "type": "tuple"
        }
      ],
      "stateMutability": "view",
      "type": "function"
    },
    {
      "inputs": [
        {
          "internalType": "address",
          "name": "account",
          "type": "address"
        }
      ],
      "name": "getUserAccountLevel",
      "outputs": [
        {
          "internalType": "uint8",
          "name": "userAccountLevel",
          "type": "uint8"
        }
      ],
      "stateMutability": "view",
      "type": "function"
    },
    {
      "inputs": [
        {
          "internalType": "address",
          "name": "account",
          "type": "address"
        }
      ],
      "name": "getUserAccountType",
      "outputs": [
        {
          "internalType": "uint8",
          "name": "userAccountType",
          "type": "uint8"
        }
      ],
      "stateMutability": "view",
      "type": "function"
    },
    {
      "inputs": [
        {
          "internalType": "address",
          "name": "account",
          "type": "address"
        }
      ],
      "name": "getUserCountryCode",
      "outputs": [
        {
          "internalType": "string",
          "name": "userAccountCountryCode",
          "type": "string"
        }
      ],
      "stateMutability": "view",
      "type": "function"
    },
    {
      "inputs": [
        {
          "internalType": "address",
          "name": "account",
          "type": "address"
        }
      ],
      "name": "getUserExpiry",
      "outputs": [
        {
          "internalType": "uint256",
          "name": "",
          "type": "uint256"
        }
      ],
      "stateMutability": "view",
      "type": "function"
    },
    {
      "inputs": [
        {
          "internalType": "address",
          "name": "account",
          "type": "address"
        }
      ],
      "name": "getUserIdentityData",
      "outputs": [
        {
          "components": [
            {
              "internalType": "uint256",
              "name": "tokenId",
              "type": "uint256"
            },
            {
              "internalType": "string",
              "name": "countryCode",
              "type": "string"
            },
            {
              "internalType": "uint8",
              "name": "userType",
              "type": "uint8"
            },
            {
              "internalType": "uint8",
              "name": "level",
              "type": "uint8"
            },
            {
              "internalType": "uint256",
              "name": "expiry",
              "type": "uint256"
            }
          ],
          "internalType": "struct RoleVerification.IdentityBlob",
          "name": "userAccountIdentityBlob",
          "type": "tuple"
        }
      ],
      "stateMutability": "view",
      "type": "function"
    },
    {
      "inputs": [
        {
          "internalType": "address",
          "name": "account",
          "type": "address"
        }
      ],
      "name": "getUserLevel",
      "outputs": [
        {
          "internalType": "uint8",
          "name": "userAccountLevel",
          "type": "uint8"
        }
      ],
      "stateMutability": "view",
      "type": "function"
    },
    {
      "inputs": [
        {
          "internalType": "address",
          "name": "account",
          "type": "address"
        }
      ],
      "name": "getUserType",
      "outputs": [
        {
          "internalType": "uint8",
          "name": "userAccountType",
          "type": "uint8"
        }
      ],
      "stateMutability": "view",
      "type": "function"
    },
    {
      "inputs": [
        {
          "internalType": "address",
          "name": "",
          "type": "address"
        }
      ],
      "name": "identityBlob",
      "outputs": [
        {
          "internalType": "uint256",
          "name": "tokenId",
          "type": "uint256"
        },
        {
          "internalType": "string",
          "name": "countryCode",
          "type": "string"
        },
        {
          "internalType": "uint8",
          "name": "userType",
          "type": "uint8"
        },
        {
          "internalType": "uint8",
          "name": "level",
          "type": "uint8"
        },
        {
          "internalType": "uint256",
          "name": "expiry",
          "type": "uint256"
        }
      ],
      "stateMutability": "view",
      "type": "function"
    },
    {
      "inputs": [],
      "name": "owner",
      "outputs": [
        {
          "internalType": "address",
          "name": "",
          "type": "address"
        }
      ],
      "stateMutability": "view",
      "type": "function"
    },
    {
      "inputs": [],
      "name": "renounceOwnership",
      "outputs": [],
      "stateMutability": "nonpayable",
      "type": "function"
    },
    {
      "inputs": [
        {
          "internalType": "uint256",
          "name": "x",
          "type": "uint256"
        }
      ],
      "name": "set",
      "outputs": [],
      "stateMutability": "nonpayable",
      "type": "function"
    },
    {
      "inputs": [],
      "name": "storedData",
      "outputs": [
        {
          "internalType": "uint256",
          "name": "",
          "type": "uint256"
        }
      ],
      "stateMutability": "view",
      "type": "function"
    },
    {
      "inputs": [
        {
          "internalType": "address",
          "name": "newOwner",
          "type": "address"
        }
      ],
      "name": "transferOwnership",
      "outputs": [],
      "stateMutability": "nonpayable",
      "type": "function"
    }
  ],
  "bytecode": "0x60806040523480156200001157600080fd5b50604051620021ab380380620021ab8339818101604052810190620000379190620001e0565b806200005467b16d6ce29942e4ba60c01b620000f560201b60201c565b6200007067d56ff833ce56e60460c01b620000f560201b60201c565b80600160006101000a81548173ffffffffffffffffffffffffffffffffffffffff021916908373ffffffffffffffffffffffffffffffffffffffff16021790555050620000d2620000c6620000f860201b60201c565b6200010060201b60201c565b620000ee6703ffedd62355511d60c01b620001c660201b60201c565b506200025a565b50565b600033905090565b6000600260009054906101000a900473ffffffffffffffffffffffffffffffffffffffff16905081600260006101000a81548173ffffffffffffffffffffffffffffffffffffffff021916908373ffffffffffffffffffffffffffffffffffffffff1602179055508173ffffffffffffffffffffffffffffffffffffffff168173ffffffffffffffffffffffffffffffffffffffff167f8be0079c531659141344cd1fd0a4f28419497f9722a3daafe3b4186f6b6457e060405160405180910390a35050565b50565b600081519050620001da8162000240565b92915050565b600060208284031215620001f357600080fd5b60006200020384828501620001c9565b91505092915050565b6000620002198262000220565b9050919050565b600073ffffffffffffffffffffffffffffffffffffffff82169050919050565b6200024b816200020c565b81146200025757600080fd5b50565b611f41806200026a6000396000f3fe608060405234801561001057600080fd5b50600436106101da5760003560e01c80638b3f863f11610104578063dfb24b89116100a2578063ec4d57b311610071578063ec4d57b314610603578063ec8957311461061f578063eee844871461064f578063f2fde38b1461067f576101da565b8063dfb24b8914610543578063e153ab3a14610573578063e2d07959146105a3578063e9be2f47146105d3576101da565b8063b467177f116100de578063b467177f14610483578063b7180c53146104b3578063c207e9e0146104e3578063dee4c70914610513576101da565b80638b3f863f146104195780638da5cb5b146104495780639d1a6ceb14610467576101da565b80635b24bf411161017c5780636c1937331161014b5780636c193733146103a55780636ca5fde8146103c15780636d4ce63c146103f1578063715018a61461040f576101da565b80635b24bf411461030957806360fe47b11461033957806363ff7dbf14610355578063688ea9fe14610371576101da565b806326aeeeff116101b857806326aeeeff1461026f5780632a1afcd91461029f5780632bedce42146102bd5780632deb044a146102d9576101da565b806309299ea3146101df57806315c594c01461020f57806321923bde1461023f575b600080fd5b6101f960048036038101906101f491906116d8565b61069b565b6040516102069190611b35565b60405180910390f35b61022960048036038101906102249190611701565b610722565b6040516102369190611a76565b60405180910390f35b610259600480360381019061025491906116d8565b61072d565b6040516102669190611baa565b60405180910390f35b61028960048036038101906102849190611701565b61081d565b6040516102969190611a76565b60405180910390f35b6102a7610828565b6040516102b49190611b35565b60405180910390f35b6102d760048036038101906102d2919061172a565b61082e565b005b6102f360048036038101906102ee91906116d8565b610890565b6040516103009190611b13565b60405180910390f35b610323600480360381019061031e9190611701565b61098b565b6040516103309190611a76565b60405180910390f35b610353600480360381019061034e91906117ed565b610996565b005b61036f600480360381019061036a9190611701565b610aeb565b005b61038b600480360381019061038691906116d8565b610aee565b60405161039c959493929190611b50565b60405180910390f35b6103bf60048036038101906103ba9190611701565b610bc6565b005b6103db60048036038101906103d691906116d8565b610bc9565b6040516103e89190611b13565b60405180910390f35b6103f9610d3d565b6040516104069190611b35565b60405180910390f35b610417610d83565b005b610433600480360381019061042e91906116d8565b610d97565b6040516104409190611baa565b60405180910390f35b610451610e87565b60405161045e9190611a5b565b60405180910390f35b610481600480360381019061047c9190611701565b610eb1565b005b61049d600480360381019061049891906116d8565b610eb4565b6040516104aa9190611baa565b60405180910390f35b6104cd60048036038101906104c891906116d8565b610f48565b6040516104da9190611a91565b60405180910390f35b6104fd60048036038101906104f891906116d8565b61103d565b60405161050a9190611baa565b60405180910390f35b61052d60048036038101906105289190611701565b6110d1565b60405161053a9190611a76565b60405180910390f35b61055d600480360381019061055891906116d8565b6110dc565b60405161056a9190611a91565b60405180910390f35b61058d60048036038101906105889190611701565b6111eb565b60405161059a9190611a76565b60405180910390f35b6105bd60048036038101906105b89190611701565b6111f2565b6040516105ca9190611a76565b60405180910390f35b6105ed60048036038101906105e89190611701565b6111f9565b6040516105fa9190611a76565b60405180910390f35b61061d60048036038101906106189190611701565b611200565b005b61063960048036038101906106349190611701565b611203565b6040516106469190611a76565b60405180910390f35b610669600480360381019061066491906116d8565b61120a565b6040516106769190611b35565b60405180910390f35b610699600480360381019061069491906116d8565b6112fa565b005b60006106b167c1c9ef872120ad4c60c01b611200565b6106c56722a4df8a42ceaa6160c01b611200565b6106d96794447c4bb948903360c01b611200565b6000808373ffffffffffffffffffffffffffffffffffffffff1673ffffffffffffffffffffffffffffffffffffffff168152602001908152602001600020600301549050919050565b600060019050919050565b60006107436760d432632b54e7e060c01b610eb1565b61075767094462a98232646460c01b610eb1565b61076b670ed53a805b59311c60c01b610eb1565b600160009054906101000a900473ffffffffffffffffffffffffffffffffffffffff1673ffffffffffffffffffffffffffffffffffffffff1663c207e9e0836040518263ffffffff1660e01b81526004016107c69190611a5b565b60206040518083038186803b1580156107de57600080fd5b505afa1580156107f2573d6000803e3d6000fd5b505050506040513d601f19601f82011682018060405250810190610816919061183f565b9050919050565b600060019050919050565b60045481565b6108426785ac18357870599260c01b610aeb565b610856671019554411294cab60c01b610aeb565b60016003826040516108689190611a44565b908152602001604051809103902060006101000a81548160ff02191690831515021790555050565b6108986114ca565b6108ac671f20069cdaeafcfa60c01b610eb1565b6108c067de92c71d8df9dfeb60c01b610eb1565b6108d4679bbe09d21cf49a1360c01b610eb1565b600160009054906101000a900473ffffffffffffffffffffffffffffffffffffffff1673ffffffffffffffffffffffffffffffffffffffff16636ca5fde8836040518263ffffffff1660e01b815260040161092f9190611a5b565b60006040518083038186803b15801561094757600080fd5b505afa15801561095b573d6000803e3d6000fd5b505050506040513d6000823e3d601f19601f8201168201806040525081019061098491906117ac565b9050919050565b600060019050919050565b6109aa675ed3b07ecfbc885560c01b610aeb565b6109be6796e1000bf272ed4d60c01b610aeb565b6109d26741601c5dac8d814760c01b610aeb565b60006109dd33610890565b90506109f3678367d7afa237d91d60c01b610aeb565b610a0767aaebf0b24630ef4e60c01b610aeb565b600060038260200151604051610a1d9190611a44565b908152602001604051809103902060009054906101000a900460ff169050610a4f6720f37b0ef0e815c960c01b610aeb565b610a636711ce75e913acd22c60c01b610aeb565b610a7767b6cb4f204dc5645b60c01b610aeb565b80610ab7576040517f08c379a0000000000000000000000000000000000000000000000000000000008152600401610aae90611ad3565b60405180910390fd5b610acb67936c735b5fd27ec460c01b610aeb565b610adf67464eb4a5ed0a77f260c01b610aeb565b82600481905550505050565b50565b6000602052806000526040600020600091509050806000015490806001018054610b1790611d16565b80601f0160208091040260200160405190810160405280929190818152602001828054610b4390611d16565b8015610b905780601f10610b6557610100808354040283529160200191610b90565b820191906000526020600020905b815481529060010190602001808311610b7357829003601f168201915b5050505050908060020160009054906101000a900460ff16908060020160019054906101000a900460ff16908060030154905085565b50565b610bd16114ca565b610be567a05f59d4624295fd60c01b611200565b610bf96769c1a1d6327d607160c01b611200565b610c0d67bdaf4779ff83744f60c01b611200565b6000808373ffffffffffffffffffffffffffffffffffffffff1673ffffffffffffffffffffffffffffffffffffffff1681526020019081526020016000206040518060a001604052908160008201548152602001600182018054610c7090611d16565b80601f0160208091040260200160405190810160405280929190818152602001828054610c9c90611d16565b8015610ce95780601f10610cbe57610100808354040283529160200191610ce9565b820191906000526020600020905b815481529060010190602001808311610ccc57829003601f168201915b505050505081526020016002820160009054906101000a900460ff1660ff1660ff1681526020016002820160019054906101000a900460ff1660ff1660ff1681526020016003820154815250509050919050565b6000610d53671d7007c97f9d15ab60c01b610aeb565b610d6767dbc2b6256f885e8360c01b610aeb565b610d7b67a098d7b5d664290d60c01b610aeb565b600454905090565b610d8b61137e565b610d9560006113fc565b565b6000610dad671f0cdf85f971b64560c01b610eb1565b610dc167cbfc57c0710762bc60c01b610eb1565b610dd5673790b5bfa84d84ed60c01b610eb1565b600160009054906101000a900473ffffffffffffffffffffffffffffffffffffffff1673ffffffffffffffffffffffffffffffffffffffff1663b467177f836040518263ffffffff1660e01b8152600401610e309190611a5b565b60206040518083038186803b158015610e4857600080fd5b505afa158015610e5c573d6000803e3d6000fd5b505050506040513d601f19601f82011682018060405250810190610e80919061183f565b9050919050565b6000600260009054906101000a900473ffffffffffffffffffffffffffffffffffffffff16905090565b50565b6000610eca6732c39d4afc3889c160c01b610bc6565b610ede67dae6db8ba31c013c60c01b610bc6565b610ef267b501f3a83b16752260c01b610bc6565b6000808373ffffffffffffffffffffffffffffffffffffffff1673ffffffffffffffffffffffffffffffffffffffff16815260200190815260200160002060020160009054906101000a900460ff169050919050565b6060610f5e6768b84227e30275ba60c01b610eb1565b610f7267c3e2f76f13dfeb5e60c01b610eb1565b610f8667cad76b00596ccb6e60c01b610eb1565b600160009054906101000a900473ffffffffffffffffffffffffffffffffffffffff1673ffffffffffffffffffffffffffffffffffffffff1663dfb24b89836040518263ffffffff1660e01b8152600401610fe19190611a5b565b60006040518083038186803b158015610ff957600080fd5b505afa15801561100d573d6000803e3d6000fd5b505050506040513d6000823e3d601f19601f82011682018060405250810190611036919061176b565b9050919050565b600061105367c0754c09f9d3a69e60c01b610bc6565b61106767d1e3fdb2292aa24960c01b610bc6565b61107b679561272df2bf34be60c01b610bc6565b6000808373ffffffffffffffffffffffffffffffffffffffff1673ffffffffffffffffffffffffffffffffffffffff16815260200190815260200160002060020160019054906101000a900460ff169050919050565b600060019050919050565b60606110f267371008949763f33860c01b610bc6565b61110667a5bd462cd2256c0b60c01b610bc6565b61111a67724c0f716158057260c01b610bc6565b6000808373ffffffffffffffffffffffffffffffffffffffff1673ffffffffffffffffffffffffffffffffffffffff168152602001908152602001600020600101805461116690611d16565b80601f016020809104026020016040519081016040528092919081815260200182805461119290611d16565b80156111df5780601f106111b4576101008083540402835291602001916111df565b820191906000526020600020905b8154815290600101906020018083116111c257829003601f168201915b50505050509050919050565b6000919050565b6000919050565b6000919050565b50565b6000919050565b600061122067f222f3874e6d0d2e60c01b610eb1565b6112346774385fec5ca8e27c60c01b610eb1565b611248673f25326f1d75fddf60c01b610eb1565b600160009054906101000a900473ffffffffffffffffffffffffffffffffffffffff1673ffffffffffffffffffffffffffffffffffffffff166309299ea3836040518263ffffffff1660e01b81526004016112a39190611a5b565b60206040518083038186803b1580156112bb57600080fd5b505afa1580156112cf573d6000803e3d6000fd5b505050506040513d601f19601f820116820180604052508101906112f39190611816565b9050919050565b61130261137e565b600073ffffffffffffffffffffffffffffffffffffffff168173ffffffffffffffffffffffffffffffffffffffff161415611372576040517f08c379a000000000000000000000000000000000000000000000000000000000815260040161136990611ab3565b60405180910390fd5b61137b816113fc565b50565b6113866114c2565b73ffffffffffffffffffffffffffffffffffffffff166113a4610e87565b73ffffffffffffffffffffffffffffffffffffffff16146113fa576040517f08c379a00000000000000000000000000000000000000000000000000000000081526004016113f190611af3565b60405180910390fd5b565b6000600260009054906101000a900473ffffffffffffffffffffffffffffffffffffffff16905081600260006101000a81548173ffffffffffffffffffffffffffffffffffffffff021916908373ffffffffffffffffffffffffffffffffffffffff1602179055508173ffffffffffffffffffffffffffffffffffffffff168173ffffffffffffffffffffffffffffffffffffffff167f8be0079c531659141344cd1fd0a4f28419497f9722a3daafe3b4186f6b6457e060405160405180910390a35050565b600033905090565b6040518060a001604052806000815260200160608152602001600060ff168152602001600060ff168152602001600081525090565b600061151261150d84611bea565b611bc5565b90508281526020810184848401111561152a57600080fd5b611535848285611cd4565b509392505050565b600061155061154b84611bea565b611bc5565b90508281526020810184848401111561156857600080fd5b611573848285611ce3565b509392505050565b60008135905061158a81611eaf565b92915050565b60008135905061159f81611ec6565b92915050565b600082601f8301126115b657600080fd5b81356115c68482602086016114ff565b91505092915050565b600082601f8301126115e057600080fd5b81516115f084826020860161153d565b91505092915050565b600060a0828403121561160b57600080fd5b61161560a0611bc5565b90506000611625848285016116ae565b600083015250602082015167ffffffffffffffff81111561164557600080fd5b611651848285016115cf565b6020830152506040611665848285016116c3565b6040830152506060611679848285016116c3565b606083015250608061168d848285016116ae565b60808301525092915050565b6000813590506116a881611edd565b92915050565b6000815190506116bd81611edd565b92915050565b6000815190506116d281611ef4565b92915050565b6000602082840312156116ea57600080fd5b60006116f88482850161157b565b91505092915050565b60006020828403121561171357600080fd5b600061172184828501611590565b91505092915050565b60006020828403121561173c57600080fd5b600082013567ffffffffffffffff81111561175657600080fd5b611762848285016115a5565b91505092915050565b60006020828403121561177d57600080fd5b600082015167ffffffffffffffff81111561179757600080fd5b6117a3848285016115cf565b91505092915050565b6000602082840312156117be57600080fd5b600082015167ffffffffffffffff8111156117d857600080fd5b6117e4848285016115f9565b91505092915050565b6000602082840312156117ff57600080fd5b600061180d84828501611699565b91505092915050565b60006020828403121561182857600080fd5b6000611836848285016116ae565b91505092915050565b60006020828403121561185157600080fd5b600061185f848285016116c3565b91505092915050565b61187181611c53565b82525050565b61188081611c65565b82525050565b600061189182611c1b565b61189b8185611c26565b93506118ab818560208601611ce3565b6118b481611dd7565b840191505092915050565b60006118ca82611c1b565b6118d48185611c37565b93506118e4818560208601611ce3565b6118ed81611dd7565b840191505092915050565b600061190382611c1b565b61190d8185611c48565b935061191d818560208601611ce3565b80840191505092915050565b6000611936602683611c37565b915061194182611de8565b604082019050919050565b6000611959603283611c37565b915061196482611e37565b604082019050919050565b600061197c602083611c37565b915061198782611e86565b602082019050919050565b600060a0830160008301516119aa6000860182611a08565b50602083015184820360208601526119c28282611886565b91505060408301516119d76040860182611a26565b5060608301516119ea6060860182611a26565b5060808301516119fd6080860182611a08565b508091505092915050565b611a1181611cbd565b82525050565b611a2081611cbd565b82525050565b611a2f81611cc7565b82525050565b611a3e81611cc7565b82525050565b6000611a5082846118f8565b915081905092915050565b6000602082019050611a706000830184611868565b92915050565b6000602082019050611a8b6000830184611877565b92915050565b60006020820190508181036000830152611aab81846118bf565b905092915050565b60006020820190508181036000830152611acc81611929565b9050919050565b60006020820190508181036000830152611aec8161194c565b9050919050565b60006020820190508181036000830152611b0c8161196f565b9050919050565b60006020820190508181036000830152611b2d8184611992565b905092915050565b6000602082019050611b4a6000830184611a17565b92915050565b600060a082019050611b656000830188611a17565b8181036020830152611b7781876118bf565b9050611b866040830186611a35565b611b936060830185611a35565b611ba06080830184611a17565b9695505050505050565b6000602082019050611bbf6000830184611a35565b92915050565b6000611bcf611be0565b9050611bdb8282611d48565b919050565b6000604051905090565b600067ffffffffffffffff821115611c0557611c04611da8565b5b611c0e82611dd7565b9050602081019050919050565b600081519050919050565b600082825260208201905092915050565b600082825260208201905092915050565b600081905092915050565b6000611c5e82611c9d565b9050919050565b60008115159050919050565b60007fffffffffffffffff00000000000000000000000000000000000000000000000082169050919050565b600073ffffffffffffffffffffffffffffffffffffffff82169050919050565b6000819050919050565b600060ff82169050919050565b82818337600083830152505050565b60005b83811015611d01578082015181840152602081019050611ce6565b83811115611d10576000848401525b50505050565b60006002820490506001821680611d2e57607f821691505b60208210811415611d4257611d41611d79565b5b50919050565b611d5182611dd7565b810181811067ffffffffffffffff82111715611d7057611d6f611da8565b5b80604052505050565b7f4e487b7100000000000000000000000000000000000000000000000000000000600052602260045260246000fd5b7f4e487b7100000000000000000000000000000000000000000000000000000000600052604160045260246000fd5b6000601f19601f8301169050919050565b7f4f776e61626c653a206e6577206f776e657220697320746865207a65726f206160008201527f6464726573730000000000000000000000000000000000000000000000000000602082015250565b7f4572723a20636f756e747279636f6465206e6f7420617070726f76656420666f60008201527f722074686973206170706c69636174696f6e0000000000000000000000000000602082015250565b7f4f776e61626c653a2063616c6c6572206973206e6f7420746865206f776e6572600082015250565b611eb881611c53565b8114611ec357600080fd5b50565b611ecf81611c71565b8114611eda57600080fd5b50565b611ee681611cbd565b8114611ef157600080fd5b50565b611efd81611cc7565b8114611f0857600080fd5b5056fea2646970667358221220026d5c80c53f428051089b8f74c574b2af58ab4285c99810e75f6f0498ad6f4b64736f6c63430008020033",
  "linkReferences": {},
  "deployedLinkReferences": {}
}