{
  "_format": "hh-sol-artifact-1",
  "contractName": "SimpleStorageWithDevAppFee",
  "sourceName": "contracts/SimpleStorageWithDevAppFee.sol",
  "abi": [
    {
      "inputs": [
        {
          "internalType": "address",
          "name": "_feeContract",
          "type": "address"
        },
        {
          "internalType": "address",
          "name": "devWallet",
          "type": "address"
        }
      ],
      "stateMutability": "nonpayable",
      "type": "constructor"
    },
    {
      "inputs": [],
      "name": "FeeContract",
      "outputs": [
        {
          "internalType": "address",
          "name": "",
          "type": "address"
        }
      ],
      "stateMutability": "view",
      "type": "function"
    },
    {
      "inputs": [],
      "name": "callFee",
      "outputs": [
        {
          "internalType": "uint256",
          "name": "",
          "type": "uint256"
        }
      ],
      "stateMutability": "view",
      "type": "function"
    },
    {
      "inputs": [],
      "name": "epochLength",
      "outputs": [
        {
          "internalType": "uint256",
          "name": "",
          "type": "uint256"
        }
      ],
      "stateMutability": "view",
      "type": "function"
    },
    {
      "inputs": [],
      "name": "fee",
      "outputs": [
        {
          "internalType": "uint256",
          "name": "",
          "type": "uint256"
        }
      ],
      "stateMutability": "view",
      "type": "function"
    },
    {
      "inputs": [],
      "name": "get",
      "outputs": [
        {
          "internalType": "uint256",
          "name": "retVal",
          "type": "uint256"
        }
      ],
      "stateMutability": "view",
      "type": "function"
    },
    {
      "inputs": [],
      "name": "getDeveloperFee",
      "outputs": [
        {
          "internalType": "uint256",
          "name": "developerFee",
          "type": "uint256"
        }
      ],
      "stateMutability": "view",
      "type": "function"
    },
    {
      "inputs": [],
      "name": "getFee",
      "outputs": [
        {
          "internalType": "uint256",
          "name": "",
          "type": "uint256"
        }
      ],
      "stateMutability": "view",
      "type": "function"
    },
    {
      "inputs": [],
      "name": "getHavenFee",
      "outputs": [
        {
          "internalType": "uint256",
          "name": "havenOneFee",
          "type": "uint256"
        }
      ],
      "stateMutability": "view",
      "type": "function"
    },
    {
      "inputs": [],
      "name": "h1Stored",
      "outputs": [
        {
          "internalType": "uint256",
          "name": "",
          "type": "uint256"
        }
      ],
      "stateMutability": "view",
      "type": "function"
    },
    {
      "inputs": [],
      "name": "requiredReset",
      "outputs": [
        {
          "internalType": "uint256",
          "name": "",
          "type": "uint256"
        }
      ],
      "stateMutability": "view",
      "type": "function"
    },
    {
      "inputs": [
        {
          "internalType": "uint256",
          "name": "x",
          "type": "uint256"
        }
      ],
      "name": "set",
      "outputs": [],
      "stateMutability": "payable",
      "type": "function"
    },
    {
      "inputs": [],
      "name": "storedData",
      "outputs": [
        {
          "internalType": "uint256",
          "name": "",
          "type": "uint256"
        }
      ],
      "stateMutability": "view",
      "type": "function"
    }
  ],
  "bytecode": "0x60806040523480156200001157600080fd5b5060405162001190380380620011908339818101604052810190620000379190620002a4565b818162000055670e5c79848b2341a760c01b6200028760201b60201c565b6200007167099d75038d8cafda60c01b6200028760201b60201c565b6200008d677dc141a69b74ff2a60c01b6200028760201b60201c565b600073ffffffffffffffffffffffffffffffffffffffff168273ffffffffffffffffffffffffffffffffffffffff1614156200018b57620000df67cd1b7729f550e09460c01b6200028760201b60201c565b620000fb674a1759b15613413760c01b6200028760201b60201c565b6200011767bcbcdb0ec4c62a5560c01b6200028760201b60201c565b6040518060400160405280600381526020017f31323300000000000000000000000000000000000000000000000000000000008152506040517f08c379a000000000000000000000000000000000000000000000000000000000815260040162000182919062000326565b60405180910390fd5b620001a7677949f73461ebb8cf60c01b6200028760201b60201c565b620001c36788146c218b6c29a260c01b6200028760201b60201c565b81600360006101000a81548173ffffffffffffffffffffffffffffffffffffffff021916908373ffffffffffffffffffffffffffffffffffffffff1602179055506200022067d93731a74b30fd7c60c01b6200028760201b60201c565b80600460006101000a81548173ffffffffffffffffffffffffffffffffffffffff021916908373ffffffffffffffffffffffffffffffffffffffff16021790555050506200027f67421c77c73520461760c01b6200028a60201b60201c565b5050620003fb565b50565b50565b6000815190506200029e81620003e1565b92915050565b60008060408385031215620002b857600080fd5b6000620002c8858286016200028d565b9250506020620002db858286016200028d565b9150509250929050565b6000620002f2826200034a565b620002fe818562000355565b9350620003108185602086016200039a565b6200031b81620003d0565b840191505092915050565b60006020820190508181036000830152620003428184620002e5565b905092915050565b600081519050919050565b600082825260208201905092915050565b600062000373826200037a565b9050919050565b600073ffffffffffffffffffffffffffffffffffffffff82169050919050565b60005b83811015620003ba5780820151818401526020810190506200039d565b83811115620003ca576000848401525b50505050565b6000601f19601f8301169050919050565b620003ec8162000366565b8114620003f857600080fd5b50565b610d85806200040b6000396000f3fe6080604052600436106100a75760003560e01c806377482b181161006457806377482b181461019f57806390321e1a146101ca578063b19929c3146101f5578063ced72f8714610220578063ddca3f431461024b578063f5fa96e514610276576100a7565b8063207ccfea146100ac5780632a1afcd9146100d75780632dcbf1c01461010257806357d775f81461012d57806360fe47b1146101585780636d4ce63c14610174575b600080fd5b3480156100b857600080fd5b506100c16102a1565b6040516100ce9190610b04565b60405180910390f35b3480156100e357600080fd5b506100ec6102c7565b6040516100f99190610b61565b60405180910390f35b34801561010e57600080fd5b506101176102cd565b6040516101249190610b61565b60405180910390f35b34801561013957600080fd5b506101426102d3565b60405161014f9190610b61565b60405180910390f35b610172600480360381019061016d9190610a00565b6102d9565b005b34801561018057600080fd5b50610189610679565b6040516101969190610b61565b60405180910390f35b3480156101ab57600080fd5b506101b46106bf565b6040516101c19190610b61565b60405180910390f35b3480156101d657600080fd5b506101df61073c565b6040516101ec9190610b61565b60405180910390f35b34801561020157600080fd5b5061020a61084d565b6040516102179190610b61565b60405180910390f35b34801561022c57600080fd5b506102356108be565b6040516102429190610b61565b60405180910390f35b34801561025757600080fd5b506102606109c1565b60405161026d9190610b61565b60405180910390f35b34801561028257600080fd5b5061028b6109c7565b6040516102989190610b61565b60405180910390f35b600360009054906101000a900473ffffffffffffffffffffffffffffffffffffffff1681565b60055481565b60065481565b60005481565b6102ed677b0b14b60fb8a58360c01b6109cd565b61030167c75fcad9b17d78aa60c01b6109d0565b610315674e42ad4c547690e960c01b6109d0565b61032967bd30f977b3ed747f60c01b6109d0565b61033161073c565b341080156103465750600061034461073c565b115b156103f95761035f67f91bfa4e25b44bf760c01b6109d0565b610373671232285baf813d5960c01b6109d0565b61038767a2916bb47395708a60c01b6109d0565b6040518060400160405280600381526020017f31323500000000000000000000000000000000000000000000000000000000008152506040517f08c379a00000000000000000000000000000000000000000000000000000000081526004016103f09190610b1f565b60405180910390fd5b61040d6752abf4e28953ada560c01b6109d0565b610421676e9d002699a94d3160c01b6109d0565b61043567a7abeef1d686229360c01b6109d0565b6000600360009054906101000a900473ffffffffffffffffffffffffffffffffffffffff1673ffffffffffffffffffffffffffffffffffffffff1661047861084d565b60405161048490610aef565b60006040518083038185875af1925050503d80600081146104c1576040519150601f19603f3d011682016040523d82523d6000602084013e6104c6565b606091505b505090506104de67b1766162f5d9e71760c01b6109d0565b6104f267a2bb25c47377fb2a60c01b6109d0565b6105066717fa3b1790d8c79860c01b6109d0565b806040518060400160405280600381526020017f31313200000000000000000000000000000000000000000000000000000000008152509061057e576040517f08c379a00000000000000000000000000000000000000000000000000000000081526004016105759190610b1f565b60405180910390fd5b5061059367eb3640c09003b69d60c01b6109d0565b6105a767dda1fcb9d5c8d5eb60c01b6109d0565b6105bb6733a366b5bd708a0e60c01b6109d0565b6000600460009054906101000a900473ffffffffffffffffffffffffffffffffffffffff1673ffffffffffffffffffffffffffffffffffffffff166108fc6106016106bf565b9081150290604051600060405180830381858888f19350505050905061063167c6d95265f995528960c01b6109d0565b6106456709f6e039aefff14f60c01b6109cd565b6106596702febd68c2baa37060c01b6109cd565b61066d675cdaa6be30a79db360c01b6109cd565b82600581905550505050565b600061068f679a6cca76a95f33dc60c01b6109cd565b6106a3679bca7903d15a261f60c01b6109cd565b6106b76784df1a4dbbce55f860c01b6109cd565b600554905090565b60006106d56762be0e3eb49d3e9760c01b6109d0565b6106e96735a364bf9ec0c9b160c01b6109d0565b6106fd67989474dc1f94bd4760c01b6109d0565b600061070761073c565b905061071d6735c6135bd30fb56160c01b6109d0565b6009600a8261072c9190610ba3565b6107369190610bd4565b91505090565b600061075267c674f3534dac2dec60c01b6109d0565b61076667e0b5f08fd8dc49a660c01b6109d0565b61077a6757c913a2a8f4beff60c01b6109d0565b6000600360009054906101000a900473ffffffffffffffffffffffffffffffffffffffff1673ffffffffffffffffffffffffffffffffffffffff1663ced72f876040518163ffffffff1660e01b815260040160206040518083038186803b1580156107e457600080fd5b505afa1580156107f8573d6000803e3d6000fd5b505050506040513d601f19601f8201168201806040525081019061081c9190610a29565b90506108326790403cdde02533e860c01b6109d0565b610846671c87d02a3069b73360c01b6109d0565b8091505090565b6000610863673ae3d9bdfb94e26b60c01b6109d0565b61087767cc43cf7efdab234c60c01b6109d0565b61088b671cb28bc6094eb59660c01b6109d0565b600061089561073c565b90506108ab67c9322031f617eba660c01b6109d0565b600a816108b89190610ba3565b91505090565b60006108d46705bb0c25ff05bb3260c01b6109d3565b6108e86731301bec022fdee560c01b6109d3565b6108fc67463f38798a2f6ea560c01b6109d3565b42600154101561097d5761091a67341a09d70c91193860c01b6109d3565b61092e67fd13858d30b4e0f360c01b6109d3565b610942679b977cd0c0a3bf3a60c01b6109d3565b6040517f08c379a000000000000000000000000000000000000000000000000000000000815260040161097490610b41565b60405180910390fd5b6109916727e4d34d0d1ff58b60c01b6109d3565b6109a56779a9c7a6ba68d5cb60c01b6109d3565b6109b967eb1b54e909ec2d3560c01b6109d3565b600254905090565b60025481565b60015481565b50565b50565b50565b6000813590506109e581610d38565b92915050565b6000815190506109fa81610d38565b92915050565b600060208284031215610a1257600080fd5b6000610a20848285016109d6565b91505092915050565b600060208284031215610a3b57600080fd5b6000610a49848285016109eb565b91505092915050565b610a5b81610c2e565b82525050565b6000610a6c82610b7c565b610a768185610b92565b9350610a86818560208601610c6a565b610a8f81610cfb565b840191505092915050565b6000610aa7600a83610b92565b9150610ab282610d0c565b602082019050919050565b6000610aca600083610b87565b9150610ad582610d35565b600082019050919050565b610ae981610c60565b82525050565b6000610afa82610abd565b9150819050919050565b6000602082019050610b196000830184610a52565b92915050565b60006020820190508181036000830152610b398184610a61565b905092915050565b60006020820190508181036000830152610b5a81610a9a565b9050919050565b6000602082019050610b766000830184610ae0565b92915050565b600081519050919050565b600081905092915050565b600082825260208201905092915050565b6000610bae82610c60565b9150610bb983610c60565b925082610bc957610bc8610ccc565b5b828204905092915050565b6000610bdf82610c60565b9150610bea83610c60565b9250817fffffffffffffffffffffffffffffffffffffffffffffffffffffffffffffffff0483118215151615610c2357610c22610c9d565b5b828202905092915050565b6000610c3982610c40565b9050919050565b600073ffffffffffffffffffffffffffffffffffffffff82169050919050565b6000819050919050565b60005b83811015610c88578082015181840152602081019050610c6d565b83811115610c97576000848401525b50505050565b7f4e487b7100000000000000000000000000000000000000000000000000000000600052601160045260246000fd5b7f4e487b7100000000000000000000000000000000000000000000000000000000600052601260045260246000fd5b6000601f19601f8301169050919050565b7f7265736574466565282900000000000000000000000000000000000000000000600082015250565b50565b610d4181610c60565b8114610d4c57600080fd5b5056fea2646970667358221220181cb9039fc2fad3db949a8b6718a142d811cc5148bd1035e2c38be52db158cc64736f6c63430008020033",
  "linkReferences": {},
  "deployedLinkReferences": {}
}