{
  "_format": "hh-sol-artifact-1",
  "contractName": "SimpleStorageWithDevAppFee",
  "sourceName": "contracts/SimpleStorageWithDevAppFee.sol",
  "abi": [
    {
      "inputs": [
        {
          "internalType": "address",
          "name": "_feeContract",
          "type": "address"
        },
        {
          "internalType": "address",
          "name": "devWallet",
          "type": "address"
        }
      ],
      "stateMutability": "nonpayable",
      "type": "constructor"
    },
    {
      "inputs": [],
      "name": "callFee",
      "outputs": [
        {
          "internalType": "uint256",
          "name": "",
          "type": "uint256"
        }
      ],
      "stateMutability": "view",
      "type": "function"
    },
    {
      "inputs": [],
      "name": "get",
      "outputs": [
        {
          "internalType": "uint256",
          "name": "retVal",
          "type": "uint256"
        }
      ],
      "stateMutability": "view",
      "type": "function"
    },
    {
      "inputs": [],
      "name": "getDeveloperFee",
      "outputs": [
        {
          "internalType": "uint256",
          "name": "developerFee",
          "type": "uint256"
        }
      ],
      "stateMutability": "view",
      "type": "function"
    },
    {
      "inputs": [],
      "name": "getHavenFee",
      "outputs": [
        {
          "internalType": "uint256",
          "name": "havenOneFee",
          "type": "uint256"
        }
      ],
      "stateMutability": "view",
      "type": "function"
    },
    {
      "inputs": [],
      "name": "h1Stored",
      "outputs": [
        {
          "internalType": "uint256",
          "name": "",
          "type": "uint256"
        }
      ],
      "stateMutability": "view",
      "type": "function"
    },
    {
      "inputs": [
        {
          "internalType": "uint256",
          "name": "x",
          "type": "uint256"
        }
      ],
      "name": "set",
      "outputs": [],
      "stateMutability": "payable",
      "type": "function"
    },
    {
      "inputs": [],
      "name": "storedData",
      "outputs": [
        {
          "internalType": "uint256",
          "name": "",
          "type": "uint256"
        }
      ],
      "stateMutability": "view",
      "type": "function"
    }
  ],
  "bytecode": "0x60806040523480156200001157600080fd5b5060405162000e9e38038062000e9e8339818101604052810190620000379190620002a3565b81816200005567cd1b7729f550e09460c01b6200028660201b60201c565b62000071674a1759b15613413760c01b6200028660201b60201c565b6200008d67bcbcdb0ec4c62a5560c01b6200028660201b60201c565b600073ffffffffffffffffffffffffffffffffffffffff168273ffffffffffffffffffffffffffffffffffffffff1614156200018b57620000df677949f73461ebb8cf60c01b6200028660201b60201c565b620000fb6788146c218b6c29a260c01b6200028660201b60201c565b6200011767d93731a74b30fd7c60c01b6200028660201b60201c565b6040518060400160405280600381526020017f31323300000000000000000000000000000000000000000000000000000000008152506040517f08c379a000000000000000000000000000000000000000000000000000000000815260040162000182919062000325565b60405180910390fd5b620001a76762be0e3eb49d3e9760c01b6200028660201b60201c565b620001c36735a364bf9ec0c9b160c01b6200028660201b60201c565b816000806101000a81548173ffffffffffffffffffffffffffffffffffffffff021916908373ffffffffffffffffffffffffffffffffffffffff1602179055506200021f67989474dc1f94bd4760c01b6200028660201b60201c565b80600260006101000a81548173ffffffffffffffffffffffffffffffffffffffff021916908373ffffffffffffffffffffffffffffffffffffffff16021790555050506200027e679a6cca76a95f33dc60c01b6200028960201b60201c565b5050620003fa565b50565b50565b6000815190506200029d81620003e0565b92915050565b60008060408385031215620002b757600080fd5b6000620002c7858286016200028c565b9250506020620002da858286016200028c565b9150509250929050565b6000620002f18262000349565b620002fd818562000354565b93506200030f81856020860162000399565b6200031a81620003cf565b840191505092915050565b60006020820190508181036000830152620003418184620002e4565b905092915050565b600081519050919050565b600082825260208201905092915050565b6000620003728262000379565b9050919050565b600073ffffffffffffffffffffffffffffffffffffffff82169050919050565b60005b83811015620003b95780820151818401526020810190506200039c565b83811115620003c9576000848401525b50505050565b6000601f19601f8301169050919050565b620003eb8162000365565b8114620003f757600080fd5b50565b610a94806200040a6000396000f3fe6080604052600436106100705760003560e01c80636d4ce63c1161004e5780636d4ce63c146100e757806377482b181461011257806390321e1a1461013d578063b19929c31461016857610070565b80632a1afcd9146100755780632dcbf1c0146100a057806360fe47b1146100cb575b600080fd5b34801561008157600080fd5b5061008a610193565b60405161009791906108c3565b60405180910390f35b3480156100ac57600080fd5b506100b5610199565b6040516100c291906108c3565b60405180910390f35b6100e560048036038101906100e091906107bf565b61019f565b005b3480156100f357600080fd5b506100fc61054b565b60405161010991906108c3565b60405180910390f35b34801561011e57600080fd5b50610127610591565b60405161013491906108c3565b60405180910390f35b34801561014957600080fd5b5061015261060e565b60405161015f91906108c3565b60405180910390f35b34801561017457600080fd5b5061017d61071e565b60405161018a91906108c3565b60405180910390f35b60035481565b60045481565b6101b367f2430e68feeae9c860c01b61078f565b6101c767f91bfa4e25b44bf760c01b610792565b6101db671232285baf813d5960c01b610792565b6101ef67a2916bb47395708a60c01b610792565b6001543410801561020257506000600154115b156102b55761021b6752abf4e28953ada560c01b610792565b61022f676e9d002699a94d3160c01b610792565b61024367a7abeef1d686229360c01b610792565b6040518060400160405280600381526020017f31323500000000000000000000000000000000000000000000000000000000008152506040517f08c379a00000000000000000000000000000000000000000000000000000000081526004016102ac91906108a1565b60405180910390fd5b6102c967b1766162f5d9e71760c01b610792565b6102dd67a2bb25c47377fb2a60c01b610792565b6102f16717fa3b1790d8c79860c01b610792565b60006102fb61071e565b905061031167eb3640c09003b69d60c01b610792565b61032567dda1fcb9d5c8d5eb60c01b610792565b60008060009054906101000a900473ffffffffffffffffffffffffffffffffffffffff1673ffffffffffffffffffffffffffffffffffffffff16826040516024016040516020818303038152906040527fa3e76c0f000000000000000000000000000000000000000000000000000000007bffffffffffffffffffffffffffffffffffffffffffffffffffffffff19166020820180517bffffffffffffffffffffffffffffffffffffffffffffffffffffffff83818316178352505050506040516103f0919061088a565b60006040518083038185875af1925050503d806000811461042d576040519150601f19603f3d011682016040523d82523d6000602084013e610432565b606091505b5050905061044a6733a366b5bd708a0e60c01b610792565b61045e67c6d95265f995528960c01b610792565b6000610468610591565b905061047e670e5c79848b2341a760c01b610792565b61049267099d75038d8cafda60c01b610792565b6000600260009054906101000a900473ffffffffffffffffffffffffffffffffffffffff1673ffffffffffffffffffffffffffffffffffffffff166108fc839081150290604051600060405180830381858888f193505050509050610501677dc141a69b74ff2a60c01b610792565b610515673075ff46ee6b37db60c01b61078f565b61052967c9b7acf8d9a47e1760c01b61078f565b61053d67aa72aa054e77353460c01b61078f565b846003819055505050505050565b600061056167f6a384b5911cc3ee60c01b61078f565b61057567dbf4e69d6d924a3960c01b61078f565b61058967b9c0745fa0fe7bd660c01b61078f565b600354905090565b60006105a76735c6135bd30fb56160c01b610792565b6105bb673ae3d9bdfb94e26b60c01b610792565b6105cf67cc43cf7efdab234c60c01b610792565b60006105d961060e565b90506105ef671cb28bc6094eb59660c01b610792565b6009600a826105fe9190610910565b6106089190610941565b91505090565b60006106246790403cdde02533e860c01b610792565b610638671c87d02a3069b73360c01b610792565b61064c67f1b3d5843e60ace360c01b610792565b60008060009054906101000a900473ffffffffffffffffffffffffffffffffffffffff1673ffffffffffffffffffffffffffffffffffffffff1663ced72f876040518163ffffffff1660e01b815260040160206040518083038186803b1580156106b557600080fd5b505afa1580156106c9573d6000803e3d6000fd5b505050506040513d601f19601f820116820180604052508101906106ed91906107e8565b905061070367c22e5faca129da0260c01b610792565b61071767316dd800befc263260c01b610792565b8091505090565b600061073467c9322031f617eba660c01b610792565b61074867c674f3534dac2dec60c01b610792565b61075c67e0b5f08fd8dc49a660c01b610792565b600061076661060e565b905061077c6757c913a2a8f4beff60c01b610792565b600a816107899190610910565b91505090565b50565b50565b6000813590506107a481610a47565b92915050565b6000815190506107b981610a47565b92915050565b6000602082840312156107d157600080fd5b60006107df84828501610795565b91505092915050565b6000602082840312156107fa57600080fd5b6000610808848285016107aa565b91505092915050565b600061081c826108de565b61082681856108f4565b93506108368185602086016109a5565b80840191505092915050565b600061084d826108e9565b61085781856108ff565b93506108678185602086016109a5565b61087081610a36565b840191505092915050565b6108848161099b565b82525050565b60006108968284610811565b915081905092915050565b600060208201905081810360008301526108bb8184610842565b905092915050565b60006020820190506108d8600083018461087b565b92915050565b600081519050919050565b600081519050919050565b600081905092915050565b600082825260208201905092915050565b600061091b8261099b565b91506109268361099b565b92508261093657610935610a07565b5b828204905092915050565b600061094c8261099b565b91506109578361099b565b9250817fffffffffffffffffffffffffffffffffffffffffffffffffffffffffffffffff04831182151516156109905761098f6109d8565b5b828202905092915050565b6000819050919050565b60005b838110156109c35780820151818401526020810190506109a8565b838111156109d2576000848401525b50505050565b7f4e487b7100000000000000000000000000000000000000000000000000000000600052601160045260246000fd5b7f4e487b7100000000000000000000000000000000000000000000000000000000600052601260045260246000fd5b6000601f19601f8301169050919050565b610a508161099b565b8114610a5b57600080fd5b5056fea2646970667358221220a0b8059de3662034f46ac6b20963c2f086659d2ad3857760beb2861f966106de64736f6c63430008020033",
  "linkReferences": {},
  "deployedLinkReferences": {}
}