{
  "_format": "hh-sol-artifact-1",
  "contractName": "SimpleStorageWithDevAppFee",
  "sourceName": "contracts/SimpleStorageWithDevAppFee.sol",
  "abi": [
    {
      "inputs": [
        {
          "internalType": "address",
          "name": "_feeContract",
          "type": "address"
        },
        {
          "internalType": "address",
          "name": "devWallet",
          "type": "address"
        }
      ],
      "stateMutability": "nonpayable",
      "type": "constructor"
    },
    {
      "inputs": [],
      "name": "FeeContract",
      "outputs": [
        {
          "internalType": "address",
          "name": "",
          "type": "address"
        }
      ],
      "stateMutability": "view",
      "type": "function"
    },
    {
      "inputs": [],
      "name": "callFee",
      "outputs": [
        {
          "internalType": "uint256",
          "name": "",
          "type": "uint256"
        }
      ],
      "stateMutability": "view",
      "type": "function"
    },
    {
      "inputs": [],
      "name": "epochLength",
      "outputs": [
        {
          "internalType": "uint256",
          "name": "",
          "type": "uint256"
        }
      ],
      "stateMutability": "view",
      "type": "function"
    },
    {
      "inputs": [],
      "name": "fee",
      "outputs": [
        {
          "internalType": "uint256",
          "name": "",
          "type": "uint256"
        }
      ],
      "stateMutability": "view",
      "type": "function"
    },
    {
      "inputs": [],
      "name": "get",
      "outputs": [
        {
          "internalType": "uint256",
          "name": "retVal",
          "type": "uint256"
        }
      ],
      "stateMutability": "view",
      "type": "function"
    },
    {
      "inputs": [],
      "name": "getDeveloperFee",
      "outputs": [
        {
          "internalType": "uint256",
          "name": "developerFee",
          "type": "uint256"
        }
      ],
      "stateMutability": "view",
      "type": "function"
    },
    {
      "inputs": [],
      "name": "getFee",
      "outputs": [
        {
          "internalType": "uint256",
          "name": "",
          "type": "uint256"
        }
      ],
      "stateMutability": "view",
      "type": "function"
    },
    {
      "inputs": [],
      "name": "getHavenFee",
      "outputs": [
        {
          "internalType": "uint256",
          "name": "havenOneFee",
          "type": "uint256"
        }
      ],
      "stateMutability": "view",
      "type": "function"
    },
    {
      "inputs": [],
      "name": "h1Stored",
      "outputs": [
        {
          "internalType": "uint256",
          "name": "",
          "type": "uint256"
        }
      ],
      "stateMutability": "view",
      "type": "function"
    },
    {
      "inputs": [],
      "name": "requiredReset",
      "outputs": [
        {
          "internalType": "uint256",
          "name": "",
          "type": "uint256"
        }
      ],
      "stateMutability": "view",
      "type": "function"
    },
    {
      "inputs": [
        {
          "internalType": "uint256",
          "name": "x",
          "type": "uint256"
        }
      ],
      "name": "set",
      "outputs": [],
      "stateMutability": "payable",
      "type": "function"
    },
    {
      "inputs": [],
      "name": "storedData",
      "outputs": [
        {
          "internalType": "uint256",
          "name": "",
          "type": "uint256"
        }
      ],
      "stateMutability": "view",
      "type": "function"
    }
  ],
  "bytecode": "0x60806040523480156200001157600080fd5b50604051620011bf380380620011bf8339818101604052810190620000379190620002a4565b81816200005567cd1b7729f550e09460c01b6200028760201b60201c565b62000071674a1759b15613413760c01b6200028760201b60201c565b6200008d67bcbcdb0ec4c62a5560c01b6200028760201b60201c565b600073ffffffffffffffffffffffffffffffffffffffff168273ffffffffffffffffffffffffffffffffffffffff1614156200018b57620000df677949f73461ebb8cf60c01b6200028760201b60201c565b620000fb6788146c218b6c29a260c01b6200028760201b60201c565b6200011767d93731a74b30fd7c60c01b6200028760201b60201c565b6040518060400160405280600381526020017f31323300000000000000000000000000000000000000000000000000000000008152506040517f08c379a000000000000000000000000000000000000000000000000000000000815260040162000182919062000326565b60405180910390fd5b620001a76762be0e3eb49d3e9760c01b6200028760201b60201c565b620001c36735a364bf9ec0c9b160c01b6200028760201b60201c565b81600360006101000a81548173ffffffffffffffffffffffffffffffffffffffff021916908373ffffffffffffffffffffffffffffffffffffffff1602179055506200022067989474dc1f94bd4760c01b6200028760201b60201c565b80600460006101000a81548173ffffffffffffffffffffffffffffffffffffffff021916908373ffffffffffffffffffffffffffffffffffffffff16021790555050506200027f679a6cca76a95f33dc60c01b6200028a60201b60201c565b5050620003fb565b50565b50565b6000815190506200029e81620003e1565b92915050565b60008060408385031215620002b857600080fd5b6000620002c8858286016200028d565b9250506020620002db858286016200028d565b9150509250929050565b6000620002f2826200034a565b620002fe818562000355565b9350620003108185602086016200039a565b6200031b81620003d0565b840191505092915050565b60006020820190508181036000830152620003428184620002e5565b905092915050565b600081519050919050565b600082825260208201905092915050565b600062000373826200037a565b9050919050565b600073ffffffffffffffffffffffffffffffffffffffff82169050919050565b60005b83811015620003ba5780820151818401526020810190506200039d565b83811115620003ca576000848401525b50505050565b6000601f19601f8301169050919050565b620003ec8162000366565b8114620003f857600080fd5b50565b610db4806200040b6000396000f3fe6080604052600436106100a75760003560e01c806377482b181161006457806377482b181461019f57806390321e1a146101ca578063b19929c3146101f5578063ced72f8714610220578063ddca3f431461024b578063f5fa96e514610276576100a7565b8063207ccfea146100ac5780632a1afcd9146100d75780632dcbf1c01461010257806357d775f81461012d57806360fe47b1146101585780636d4ce63c14610174575b600080fd5b3480156100b857600080fd5b506100c16102a1565b6040516100ce9190610b2b565b60405180910390f35b3480156100e357600080fd5b506100ec6102c7565b6040516100f99190610b88565b60405180910390f35b34801561010e57600080fd5b506101176102cd565b6040516101249190610b88565b60405180910390f35b34801561013957600080fd5b506101426102d3565b60405161014f9190610b88565b60405180910390f35b610172600480360381019061016d9190610a17565b6102d9565b005b34801561018057600080fd5b50610189610690565b6040516101969190610b88565b60405180910390f35b3480156101ab57600080fd5b506101b46106d6565b6040516101c19190610b88565b60405180910390f35b3480156101d657600080fd5b506101df610753565b6040516101ec9190610b88565b60405180910390f35b34801561020157600080fd5b5061020a610864565b6040516102179190610b88565b60405180910390f35b34801561022c57600080fd5b506102356108d5565b6040516102429190610b88565b60405180910390f35b34801561025757600080fd5b506102606109d8565b60405161026d9190610b88565b60405180910390f35b34801561028257600080fd5b5061028b6109de565b6040516102989190610b88565b60405180910390f35b600360009054906101000a900473ffffffffffffffffffffffffffffffffffffffff1681565b60055481565b60065481565b60005481565b6102ed67f2430e68feeae9c860c01b6109e4565b61030167f91bfa4e25b44bf760c01b6109e7565b610315671232285baf813d5960c01b6109e7565b61032967a2916bb47395708a60c01b6109e7565b610331610753565b3410801561034657506000610344610753565b115b156103f95761035f6752abf4e28953ada560c01b6109e7565b610373676e9d002699a94d3160c01b6109e7565b61038767a7abeef1d686229360c01b6109e7565b6040518060400160405280600381526020017f31323500000000000000000000000000000000000000000000000000000000008152506040517f08c379a00000000000000000000000000000000000000000000000000000000081526004016103f09190610b46565b60405180910390fd5b61040d67b1766162f5d9e71760c01b6109e7565b61042167a2bb25c47377fb2a60c01b6109e7565b6104356717fa3b1790d8c79860c01b6109e7565b600061043f610864565b905061045567eb3640c09003b69d60c01b6109e7565b61046967dda1fcb9d5c8d5eb60c01b6109e7565b6000600360009054906101000a900473ffffffffffffffffffffffffffffffffffffffff1673ffffffffffffffffffffffffffffffffffffffff16826040516024016040516020818303038152906040527fa3e76c0f000000000000000000000000000000000000000000000000000000007bffffffffffffffffffffffffffffffffffffffffffffffffffffffff19166020820180517bffffffffffffffffffffffffffffffffffffffffffffffffffffffff83818316178352505050506040516105359190610b14565b60006040518083038185875af1925050503d8060008114610572576040519150601f19603f3d011682016040523d82523d6000602084013e610577565b606091505b5050905061058f6733a366b5bd708a0e60c01b6109e7565b6105a367c6d95265f995528960c01b6109e7565b60006105ad6106d6565b90506105c3670e5c79848b2341a760c01b6109e7565b6105d767099d75038d8cafda60c01b6109e7565b6000600460009054906101000a900473ffffffffffffffffffffffffffffffffffffffff1673ffffffffffffffffffffffffffffffffffffffff166108fc839081150290604051600060405180830381858888f193505050509050610646677dc141a69b74ff2a60c01b6109e7565b61065a673075ff46ee6b37db60c01b6109e4565b61066e67c9b7acf8d9a47e1760c01b6109e4565b61068267aa72aa054e77353460c01b6109e4565b846005819055505050505050565b60006106a667f6a384b5911cc3ee60c01b6109e4565b6106ba67dbf4e69d6d924a3960c01b6109e4565b6106ce67b9c0745fa0fe7bd660c01b6109e4565b600554905090565b60006106ec6735c6135bd30fb56160c01b6109e7565b610700673ae3d9bdfb94e26b60c01b6109e7565b61071467cc43cf7efdab234c60c01b6109e7565b600061071e610753565b9050610734671cb28bc6094eb59660c01b6109e7565b6009600a826107439190610bd5565b61074d9190610c06565b91505090565b60006107696790403cdde02533e860c01b6109e7565b61077d671c87d02a3069b73360c01b6109e7565b61079167f1b3d5843e60ace360c01b6109e7565b6000600360009054906101000a900473ffffffffffffffffffffffffffffffffffffffff1673ffffffffffffffffffffffffffffffffffffffff1663ced72f876040518163ffffffff1660e01b815260040160206040518083038186803b1580156107fb57600080fd5b505afa15801561080f573d6000803e3d6000fd5b505050506040513d601f19601f820116820180604052508101906108339190610a40565b905061084967c22e5faca129da0260c01b6109e7565b61085d67316dd800befc263260c01b6109e7565b8091505090565b600061087a67c9322031f617eba660c01b6109e7565b61088e67c674f3534dac2dec60c01b6109e7565b6108a267e0b5f08fd8dc49a660c01b6109e7565b60006108ac610753565b90506108c26757c913a2a8f4beff60c01b6109e7565b600a816108cf9190610bd5565b91505090565b60006108eb67341a09d70c91193860c01b6109ea565b6108ff67fd13858d30b4e0f360c01b6109ea565b610913679b977cd0c0a3bf3a60c01b6109ea565b426001541015610994576109316727e4d34d0d1ff58b60c01b6109ea565b6109456779a9c7a6ba68d5cb60c01b6109ea565b61095967eb1b54e909ec2d3560c01b6109ea565b6040517f08c379a000000000000000000000000000000000000000000000000000000000815260040161098b90610b68565b60405180910390fd5b6109a867ee820581ba1ab36760c01b6109ea565b6109bc672a1ce9267ec3da9c60c01b6109ea565b6109d067c59878417f2a2a4260c01b6109ea565b600254905090565b60025481565b60015481565b50565b50565b50565b6000813590506109fc81610d67565b92915050565b600081519050610a1181610d67565b92915050565b600060208284031215610a2957600080fd5b6000610a37848285016109ed565b91505092915050565b600060208284031215610a5257600080fd5b6000610a6084828501610a02565b91505092915050565b610a7281610c60565b82525050565b6000610a8382610ba3565b610a8d8185610bb9565b9350610a9d818560208601610c9c565b80840191505092915050565b6000610ab482610bae565b610abe8185610bc4565b9350610ace818560208601610c9c565b610ad781610d2d565b840191505092915050565b6000610aef600a83610bc4565b9150610afa82610d3e565b602082019050919050565b610b0e81610c92565b82525050565b6000610b208284610a78565b915081905092915050565b6000602082019050610b406000830184610a69565b92915050565b60006020820190508181036000830152610b608184610aa9565b905092915050565b60006020820190508181036000830152610b8181610ae2565b9050919050565b6000602082019050610b9d6000830184610b05565b92915050565b600081519050919050565b600081519050919050565b600081905092915050565b600082825260208201905092915050565b6000610be082610c92565b9150610beb83610c92565b925082610bfb57610bfa610cfe565b5b828204905092915050565b6000610c1182610c92565b9150610c1c83610c92565b9250817fffffffffffffffffffffffffffffffffffffffffffffffffffffffffffffffff0483118215151615610c5557610c54610ccf565b5b828202905092915050565b6000610c6b82610c72565b9050919050565b600073ffffffffffffffffffffffffffffffffffffffff82169050919050565b6000819050919050565b60005b83811015610cba578082015181840152602081019050610c9f565b83811115610cc9576000848401525b50505050565b7f4e487b7100000000000000000000000000000000000000000000000000000000600052601160045260246000fd5b7f4e487b7100000000000000000000000000000000000000000000000000000000600052601260045260246000fd5b6000601f19601f8301169050919050565b7f7265736574466565282900000000000000000000000000000000000000000000600082015250565b610d7081610c92565b8114610d7b57600080fd5b5056fea264697066735822122057f94987c11f141b38de3fcf947c0f9b247d2dd203614eb306887dfc4d213c7364736f6c63430008020033",
  "linkReferences": {},
  "deployedLinkReferences": {}
}