{
  "_format": "hh-sol-artifact-1",
  "contractName": "FeeQuery",
  "sourceName": "contracts/FeeQuery.sol",
  "abi": [
    {
      "inputs": [],
      "name": "epochLength",
      "outputs": [
        {
          "internalType": "uint256",
          "name": "",
          "type": "uint256"
        }
      ],
      "stateMutability": "view",
      "type": "function"
    },
    {
      "inputs": [],
      "name": "fee",
      "outputs": [
        {
          "internalType": "uint256",
          "name": "",
          "type": "uint256"
        }
      ],
      "stateMutability": "view",
      "type": "function"
    },
    {
      "inputs": [],
      "name": "getFee",
      "outputs": [
        {
          "internalType": "uint256",
          "name": "",
          "type": "uint256"
        }
      ],
      "stateMutability": "view",
      "type": "function"
    },
    {
      "inputs": [],
      "name": "requiredReset",
      "outputs": [
        {
          "internalType": "uint256",
          "name": "",
          "type": "uint256"
        }
      ],
      "stateMutability": "view",
      "type": "function"
    }
  ],
  "bytecode": "0x608060405234801561001057600080fd5b50610211806100206000396000f3fe608060405234801561001057600080fd5b506004361061004c5760003560e01c806357d775f814610051578063ced72f871461006f578063ddca3f431461008d578063f5fa96e5146100ab575b600080fd5b6100596100c9565b604051610066919061017c565b60405180910390f35b6100776100cf565b604051610084919061017c565b60405180910390f35b61009561011e565b6040516100a2919061017c565b60405180910390f35b6100b3610124565b6040516100c0919061017c565b60405180910390f35b60005481565b6000426001541015610116576040517f08c379a000000000000000000000000000000000000000000000000000000000815260040161010d9061015c565b60405180910390fd5b600254905090565b60025481565b60015481565b6000610137600a83610197565b9150610142826101b2565b602082019050919050565b610156816101a8565b82525050565b600060208201905081810360008301526101758161012a565b9050919050565b6000602082019050610191600083018461014d565b92915050565b600082825260208201905092915050565b6000819050919050565b7f726573657446656528290000000000000000000000000000000000000000000060008201525056fea26469706673582212207b2e10a71a89adcd19fb38516ad1ae240e634ba184657354d9724cea368e4e0764736f6c63430008020033",
  "linkReferences": {},
  "deployedLinkReferences": {}
}