{"contracts/SimpleStorageWithFee.sol":{"SimpleStorageWithFee":{"abi":[{"inputs":[{"internalType":"address","name":"_feeContract","type":"address"}],"stateMutability":"nonpayable","type":"constructor"},{"inputs":[],"name":"FeeContract","outputs":[{"internalType":"address","name":"","type":"address"}],"stateMutability":"view","type":"function"},{"inputs":[],"name":"FeeQueryNative","outputs":[{"internalType":"contract FeeQuery","name":"","type":"address"}],"stateMutability":"view","type":"function"},{"inputs":[],"name":"callFee","outputs":[{"internalType":"uint256","name":"","type":"uint256"}],"stateMutability":"view","type":"function"},{"inputs":[],"name":"epochLength","outputs":[{"internalType":"uint256","name":"","type":"uint256"}],"stateMutability":"view","type":"function"},{"inputs":[],"name":"fee","outputs":[{"internalType":"uint256","name":"","type":"uint256"}],"stateMutability":"view","type":"function"},{"inputs":[],"name":"get","outputs":[{"internalType":"uint256","name":"retVal","type":"uint256"}],"stateMutability":"view","type":"function"},{"inputs":[],"name":"getFee","outputs":[{"internalType":"uint256","name":"","type":"uint256"}],"stateMutability":"view","type":"function"},{"inputs":[],"name":"h1Stored","outputs":[{"internalType":"uint256","name":"","type":"uint256"}],"stateMutability":"view","type":"function"},{"inputs":[],"name":"requiredReset","outputs":[{"internalType":"uint256","name":"","type":"uint256"}],"stateMutability":"view","type":"function"},{"inputs":[{"internalType":"uint256","name":"x","type":"uint256"}],"name":"set","outputs":[],"stateMutability":"payable","type":"function"},{"inputs":[],"name":"storedData","outputs":[{"internalType":"uint256","name":"","type":"uint256"}],"stateMutability":"view","type":"function"}],"evm":{"bytecode":{"linkReferences":{},"object":"60806040523480156200001157600080fd5b5060405162000f4c38038062000f4c8339818101604052810190620000379190620002c7565b806200005467b1eaf8e13f3b39b760c01b620002aa60201b60201c565b62000070677e2eeec893e065c260c01b620002aa60201b60201c565b6200008c6776ccba1177afc08760c01b620002aa60201b60201c565b600073ffffffffffffffffffffffffffffffffffffffff168173ffffffffffffffffffffffffffffffffffffffff1614156200018a57620000de6783a180d24a206f1a60c01b620002aa60201b60201c565b620000fa674721ffdb6942706460c01b620002aa60201b60201c565b62000116675f657bd19e48d0eb60c01b620002aa60201b60201c565b6040518060400160405280600381526020017f31323300000000000000000000000000000000000000000000000000000000008152506040517f08c379a000000000000000000000000000000000000000000000000000000000815260040162000181919062000334565b60405180910390fd5b620001a667e84559ea25e318ee60c01b620002aa60201b60201c565b620001c267ce0e9487806c2a8760c01b620002aa60201b60201c565b80600360006101000a81548173ffffffffffffffffffffffffffffffffffffffff021916908373ffffffffffffffffffffffffffffffffffffffff1602179055506200021f675f33f19d9bd6e76460c01b620002aa60201b60201c565b80600460006101000a81548173ffffffffffffffffffffffffffffffffffffffff021916908373ffffffffffffffffffffffffffffffffffffffff1602179055506200027c67f69d5bf1e59f78b360c01b620002aa60201b60201c565b6201518060008190555050620002a36725947771f4cb510260c01b620002ad60201b60201c565b5062000409565b50565b50565b600081519050620002c181620003ef565b92915050565b600060208284031215620002da57600080fd5b6000620002ea84828501620002b0565b91505092915050565b6000620003008262000358565b6200030c818562000363565b93506200031e818560208601620003a8565b6200032981620003de565b840191505092915050565b60006020820190508181036000830152620003508184620002f3565b905092915050565b600081519050919050565b600082825260208201905092915050565b6000620003818262000388565b9050919050565b600073ffffffffffffffffffffffffffffffffffffffff82169050919050565b60005b83811015620003c8578082015181840152602081019050620003ab565b83811115620003d8576000848401525b50505050565b6000601f19601f8301169050919050565b620003fa8162000374565b81146200040657600080fd5b50565b610b3380620004196000396000f3fe60806040526004361061009c5760003560e01c80636d4ce63c116100645780636d4ce63c1461016957806390321e1a14610194578063ab407bb6146101bf578063ced72f87146101ea578063ddca3f4314610215578063f5fa96e5146102405761009c565b8063207ccfea146100a15780632a1afcd9146100cc5780632dcbf1c0146100f757806357d775f81461012257806360fe47b11461014d575b600080fd5b3480156100ad57600080fd5b506100b661026b565b6040516100c3919061095c565b60405180910390f35b3480156100d857600080fd5b506100e1610291565b6040516100ee91906109d4565b60405180910390f35b34801561010357600080fd5b5061010c610297565b60405161011991906109d4565b60405180910390f35b34801561012e57600080fd5b5061013761029d565b60405161014491906109d4565b60405180910390f35b61016760048036038101906101629190610849565b6102a3565b005b34801561017557600080fd5b5061017e6105b8565b60405161018b91906109d4565b60405180910390f35b3480156101a057600080fd5b506101a96105fe565b6040516101b691906109d4565b60405180910390f35b3480156101cb57600080fd5b506101d46106e1565b6040516101e19190610977565b60405180910390f35b3480156101f657600080fd5b506101ff610707565b60405161020c91906109d4565b60405180910390f35b34801561022157600080fd5b5061022a61080a565b60405161023791906109d4565b60405180910390f35b34801561024c57600080fd5b50610255610810565b60405161026291906109d4565b60405180910390f35b600360009054906101000a900473ffffffffffffffffffffffffffffffffffffffff1681565b60055481565b60065481565b60005481565b6102b767f1dd74ed5c5b5e8d60c01b610816565b6102cb6730002568a653fea060c01b610819565b6102df67f507eb2c92a1188460c01b610819565b6102f367ba4fcf067705b2b460c01b610819565b6102fb6105fe565b341080156103105750600061030e6105fe565b115b156103c35761032967500986a25147d93c60c01b610819565b61033d67b3943c56322a3f1960c01b610819565b610351675145efe0440d3aad60c01b610819565b6040518060400160405280600381526020017f31323500000000000000000000000000000000000000000000000000000000008152506040517f08c379a00000000000000000000000000000000000000000000000000000000081526004016103ba9190610992565b60405180910390fd5b6103d767b3cd9f862bb88dad60c01b610819565b6103eb6754655562f71090d760c01b610819565b6103ff678812a8178885858360c01b610819565b6000600360009054906101000a900473ffffffffffffffffffffffffffffffffffffffff1673ffffffffffffffffffffffffffffffffffffffff166104426105fe565b60405161044e90610947565b60006040518083038185875af1925050503d806000811461048b576040519150601f19603f3d011682016040523d82523d6000602084013e610490565b606091505b505090506104a867acf9fafeeb33524360c01b610819565b6104bc6754583beea3a85a4260c01b610819565b6104d067cba502510c62ac7160c01b610819565b806040518060400160405280600381526020017f313132000000000000000000000000000000000000000000000000000000000081525090610548576040517f08c379a000000000000000000000000000000000000000000000000000000000815260040161053f9190610992565b60405180910390fd5b5061055d6730e4ca33c09fa63260c01b610819565b610571678655ed6366b7eeee60c01b610819565b610585677d5f88af61a5fb4460c01b610816565b610599675a8351cb031b6e3960c01b610816565b6105ad67ed77bb9b2f1f58ab60c01b610816565b816005819055505050565b60006105ce6720e5633ad41d0a0460c01b610816565b6105e2679620b438be8f888c60c01b610816565b6105f667dad7cc808d5680f860c01b610816565b600554905090565b600061061467f593b98ad4a8d6ae60c01b610819565b61062867924dcbdeb069767460c01b610819565b61063c67111a410acca6edcf60c01b610819565b600360009054906101000a900473ffffffffffffffffffffffffffffffffffffffff1673ffffffffffffffffffffffffffffffffffffffff1663ced72f876040518163ffffffff1660e01b815260040160206040518083038186803b1580156106a457600080fd5b505afa1580156106b8573d6000803e3d6000fd5b505050506040513d601f19601f820116820180604052508101906106dc9190610872565b905090565b600460009054906101000a900473ffffffffffffffffffffffffffffffffffffffff1681565b600061071d6705bb0c25ff05bb3260c01b61081c565b6107316731301bec022fdee560c01b61081c565b61074567463f38798a2f6ea560c01b61081c565b4260015410156107c65761076367341a09d70c91193860c01b61081c565b61077767fd13858d30b4e0f360c01b61081c565b61078b679b977cd0c0a3bf3a60c01b61081c565b6040517f08c379a00000000000000000000000000000000000000000000000000000000081526004016107bd906109b4565b60405180910390fd5b6107da6727e4d34d0d1ff58b60c01b61081c565b6107ee6779a9c7a6ba68d5cb60c01b61081c565b61080267eb1b54e909ec2d3560c01b61081c565b600254905090565b60025481565b60015481565b50565b50565b50565b60008135905061082e81610ae6565b92915050565b60008151905061084381610ae6565b92915050565b60006020828403121561085b57600080fd5b60006108698482850161081f565b91505092915050565b60006020828403121561088457600080fd5b600061089284828501610834565b91505092915050565b6108a481610a16565b82525050565b6108b381610a52565b82525050565b60006108c4826109ef565b6108ce8185610a05565b93506108de818560208601610a76565b6108e781610aa9565b840191505092915050565b60006108ff600a83610a05565b915061090a82610aba565b602082019050919050565b60006109226000836109fa565b915061092d82610ae3565b600082019050919050565b61094181610a48565b82525050565b600061095282610915565b9150819050919050565b6000602082019050610971600083018461089b565b92915050565b600060208201905061098c60008301846108aa565b92915050565b600060208201905081810360008301526109ac81846108b9565b905092915050565b600060208201905081810360008301526109cd816108f2565b9050919050565b60006020820190506109e96000830184610938565b92915050565b600081519050919050565b600081905092915050565b600082825260208201905092915050565b6000610a2182610a28565b9050919050565b600073ffffffffffffffffffffffffffffffffffffffff82169050919050565b6000819050919050565b6000610a5d82610a64565b9050919050565b6000610a6f82610a28565b9050919050565b60005b83811015610a94578082015181840152602081019050610a79565b83811115610aa3576000848401525b50505050565b6000601f19601f8301169050919050565b7f7265736574466565282900000000000000000000000000000000000000000000600082015250565b50565b610aef81610a48565b8114610afa57600080fd5b5056fea264697066735822122091f6140d42b42fd8165ae0e2a044cbad331a487867bde6482a81409f8ff216e064736f6c63430008020033","opcodes":"PUSH1 0x80 PUSH1 0x40 MSTORE CALLVALUE DUP1 ISZERO PUSH3 0x11 JUMPI PUSH1 0x0 DUP1 REVERT JUMPDEST POP PUSH1 0x40 MLOAD PUSH3 0xF4C CODESIZE SUB DUP1 PUSH3 0xF4C DUP4 CODECOPY DUP2 DUP2 ADD PUSH1 0x40 MSTORE DUP2 ADD SWAP1 PUSH3 0x37 SWAP2 SWAP1 PUSH3 0x2C7 JUMP JUMPDEST DUP1 PUSH3 0x54 PUSH8 0xB1EAF8E13F3B39B7 PUSH1 0xC0 SHL PUSH3 0x2AA PUSH1 0x20 SHL PUSH1 0x20 SHR JUMP JUMPDEST PUSH3 0x70 PUSH8 0x7E2EEEC893E065C2 PUSH1 0xC0 SHL PUSH3 0x2AA PUSH1 0x20 SHL PUSH1 0x20 SHR JUMP JUMPDEST PUSH3 0x8C PUSH8 0x76CCBA1177AFC087 PUSH1 0xC0 SHL PUSH3 0x2AA PUSH1 0x20 SHL PUSH1 0x20 SHR JUMP JUMPDEST PUSH1 0x0 PUSH20 0xFFFFFFFFFFFFFFFFFFFFFFFFFFFFFFFFFFFFFFFF AND DUP2 PUSH20 0xFFFFFFFFFFFFFFFFFFFFFFFFFFFFFFFFFFFFFFFF AND EQ ISZERO PUSH3 0x18A JUMPI PUSH3 0xDE PUSH8 0x83A180D24A206F1A PUSH1 0xC0 SHL PUSH3 0x2AA PUSH1 0x20 SHL PUSH1 0x20 SHR JUMP JUMPDEST PUSH3 0xFA PUSH8 0x4721FFDB69427064 PUSH1 0xC0 SHL PUSH3 0x2AA PUSH1 0x20 SHL PUSH1 0x20 SHR JUMP JUMPDEST PUSH3 0x116 PUSH8 0x5F657BD19E48D0EB PUSH1 0xC0 SHL PUSH3 0x2AA PUSH1 0x20 SHL PUSH1 0x20 SHR JUMP JUMPDEST PUSH1 0x40 MLOAD DUP1 PUSH1 0x40 ADD PUSH1 0x40 MSTORE DUP1 PUSH1 0x3 DUP2 MSTORE PUSH1 0x20 ADD PUSH32 0x3132330000000000000000000000000000000000000000000000000000000000 DUP2 MSTORE POP PUSH1 0x40 MLOAD PUSH32 0x8C379A000000000000000000000000000000000000000000000000000000000 DUP2 MSTORE PUSH1 0x4 ADD PUSH3 0x181 SWAP2 SWAP1 PUSH3 0x334 JUMP JUMPDEST PUSH1 0x40 MLOAD DUP1 SWAP2 SUB SWAP1 REVERT JUMPDEST PUSH3 0x1A6 PUSH8 0xE84559EA25E318EE PUSH1 0xC0 SHL PUSH3 0x2AA PUSH1 0x20 SHL PUSH1 0x20 SHR JUMP JUMPDEST PUSH3 0x1C2 PUSH8 0xCE0E9487806C2A87 PUSH1 0xC0 SHL PUSH3 0x2AA PUSH1 0x20 SHL PUSH1 0x20 SHR JUMP JUMPDEST DUP1 PUSH1 0x3 PUSH1 0x0 PUSH2 0x100 EXP DUP2 SLOAD DUP2 PUSH20 0xFFFFFFFFFFFFFFFFFFFFFFFFFFFFFFFFFFFFFFFF MUL NOT AND SWAP1 DUP4 PUSH20 0xFFFFFFFFFFFFFFFFFFFFFFFFFFFFFFFFFFFFFFFF AND MUL OR SWAP1 SSTORE POP PUSH3 0x21F PUSH8 0x5F33F19D9BD6E764 PUSH1 0xC0 SHL PUSH3 0x2AA PUSH1 0x20 SHL PUSH1 0x20 SHR JUMP JUMPDEST DUP1 PUSH1 0x4 PUSH1 0x0 PUSH2 0x100 EXP DUP2 SLOAD DUP2 PUSH20 0xFFFFFFFFFFFFFFFFFFFFFFFFFFFFFFFFFFFFFFFF MUL NOT AND SWAP1 DUP4 PUSH20 0xFFFFFFFFFFFFFFFFFFFFFFFFFFFFFFFFFFFFFFFF AND MUL OR SWAP1 SSTORE POP PUSH3 0x27C PUSH8 0xF69D5BF1E59F78B3 PUSH1 0xC0 SHL PUSH3 0x2AA PUSH1 0x20 SHL PUSH1 0x20 SHR JUMP JUMPDEST PUSH3 0x15180 PUSH1 0x0 DUP2 SWAP1 SSTORE POP POP PUSH3 0x2A3 PUSH8 0x25947771F4CB5102 PUSH1 0xC0 SHL PUSH3 0x2AD PUSH1 0x20 SHL PUSH1 0x20 SHR JUMP JUMPDEST POP PUSH3 0x409 JUMP JUMPDEST POP JUMP JUMPDEST POP JUMP JUMPDEST PUSH1 0x0 DUP2 MLOAD SWAP1 POP PUSH3 0x2C1 DUP2 PUSH3 0x3EF JUMP JUMPDEST SWAP3 SWAP2 POP POP JUMP JUMPDEST PUSH1 0x0 PUSH1 0x20 DUP3 DUP5 SUB SLT ISZERO PUSH3 0x2DA JUMPI PUSH1 0x0 DUP1 REVERT JUMPDEST PUSH1 0x0 PUSH3 0x2EA DUP5 DUP3 DUP6 ADD PUSH3 0x2B0 JUMP JUMPDEST SWAP2 POP POP SWAP3 SWAP2 POP POP JUMP JUMPDEST PUSH1 0x0 PUSH3 0x300 DUP3 PUSH3 0x358 JUMP JUMPDEST PUSH3 0x30C DUP2 DUP6 PUSH3 0x363 JUMP JUMPDEST SWAP4 POP PUSH3 0x31E DUP2 DUP6 PUSH1 0x20 DUP7 ADD PUSH3 0x3A8 JUMP JUMPDEST PUSH3 0x329 DUP2 PUSH3 0x3DE JUMP JUMPDEST DUP5 ADD SWAP2 POP POP SWAP3 SWAP2 POP POP JUMP JUMPDEST PUSH1 0x0 PUSH1 0x20 DUP3 ADD SWAP1 POP DUP2 DUP2 SUB PUSH1 0x0 DUP4 ADD MSTORE PUSH3 0x350 DUP2 DUP5 PUSH3 0x2F3 JUMP JUMPDEST SWAP1 POP SWAP3 SWAP2 POP POP JUMP JUMPDEST PUSH1 0x0 DUP2 MLOAD SWAP1 POP SWAP2 SWAP1 POP JUMP JUMPDEST PUSH1 0x0 DUP3 DUP3 MSTORE PUSH1 0x20 DUP3 ADD SWAP1 POP SWAP3 SWAP2 POP POP JUMP JUMPDEST PUSH1 0x0 PUSH3 0x381 DUP3 PUSH3 0x388 JUMP JUMPDEST SWAP1 POP SWAP2 SWAP1 POP JUMP JUMPDEST PUSH1 0x0 PUSH20 0xFFFFFFFFFFFFFFFFFFFFFFFFFFFFFFFFFFFFFFFF DUP3 AND SWAP1 POP SWAP2 SWAP1 POP JUMP JUMPDEST PUSH1 0x0 JUMPDEST DUP4 DUP2 LT ISZERO PUSH3 0x3C8 JUMPI DUP1 DUP3 ADD MLOAD DUP2 DUP5 ADD MSTORE PUSH1 0x20 DUP2 ADD SWAP1 POP PUSH3 0x3AB JUMP JUMPDEST DUP4 DUP2 GT ISZERO PUSH3 0x3D8 JUMPI PUSH1 0x0 DUP5 DUP5 ADD MSTORE JUMPDEST POP POP POP POP JUMP JUMPDEST PUSH1 0x0 PUSH1 0x1F NOT PUSH1 0x1F DUP4 ADD AND SWAP1 POP SWAP2 SWAP1 POP JUMP JUMPDEST PUSH3 0x3FA DUP2 PUSH3 0x374 JUMP JUMPDEST DUP2 EQ PUSH3 0x406 JUMPI PUSH1 0x0 DUP1 REVERT JUMPDEST POP JUMP JUMPDEST PUSH2 0xB33 DUP1 PUSH3 0x419 PUSH1 0x0 CODECOPY PUSH1 0x0 RETURN INVALID PUSH1 0x80 PUSH1 0x40 MSTORE PUSH1 0x4 CALLDATASIZE LT PUSH2 0x9C JUMPI PUSH1 0x0 CALLDATALOAD PUSH1 0xE0 SHR DUP1 PUSH4 0x6D4CE63C GT PUSH2 0x64 JUMPI DUP1 PUSH4 0x6D4CE63C EQ PUSH2 0x169 JUMPI DUP1 PUSH4 0x90321E1A EQ PUSH2 0x194 JUMPI DUP1 PUSH4 0xAB407BB6 EQ PUSH2 0x1BF JUMPI DUP1 PUSH4 0xCED72F87 EQ PUSH2 0x1EA JUMPI DUP1 PUSH4 0xDDCA3F43 EQ PUSH2 0x215 JUMPI DUP1 PUSH4 0xF5FA96E5 EQ PUSH2 0x240 JUMPI PUSH2 0x9C JUMP JUMPDEST DUP1 PUSH4 0x207CCFEA EQ PUSH2 0xA1 JUMPI DUP1 PUSH4 0x2A1AFCD9 EQ PUSH2 0xCC JUMPI DUP1 PUSH4 0x2DCBF1C0 EQ PUSH2 0xF7 JUMPI DUP1 PUSH4 0x57D775F8 EQ PUSH2 0x122 JUMPI DUP1 PUSH4 0x60FE47B1 EQ PUSH2 0x14D JUMPI JUMPDEST PUSH1 0x0 DUP1 REVERT JUMPDEST CALLVALUE DUP1 ISZERO PUSH2 0xAD JUMPI PUSH1 0x0 DUP1 REVERT JUMPDEST POP PUSH2 0xB6 PUSH2 0x26B JUMP JUMPDEST PUSH1 0x40 MLOAD PUSH2 0xC3 SWAP2 SWAP1 PUSH2 0x95C JUMP JUMPDEST PUSH1 0x40 MLOAD DUP1 SWAP2 SUB SWAP1 RETURN JUMPDEST CALLVALUE DUP1 ISZERO PUSH2 0xD8 JUMPI PUSH1 0x0 DUP1 REVERT JUMPDEST POP PUSH2 0xE1 PUSH2 0x291 JUMP JUMPDEST PUSH1 0x40 MLOAD PUSH2 0xEE SWAP2 SWAP1 PUSH2 0x9D4 JUMP JUMPDEST PUSH1 0x40 MLOAD DUP1 SWAP2 SUB SWAP1 RETURN JUMPDEST CALLVALUE DUP1 ISZERO PUSH2 0x103 JUMPI PUSH1 0x0 DUP1 REVERT JUMPDEST POP PUSH2 0x10C PUSH2 0x297 JUMP JUMPDEST PUSH1 0x40 MLOAD PUSH2 0x119 SWAP2 SWAP1 PUSH2 0x9D4 JUMP JUMPDEST PUSH1 0x40 MLOAD DUP1 SWAP2 SUB SWAP1 RETURN JUMPDEST CALLVALUE DUP1 ISZERO PUSH2 0x12E JUMPI PUSH1 0x0 DUP1 REVERT JUMPDEST POP PUSH2 0x137 PUSH2 0x29D JUMP JUMPDEST PUSH1 0x40 MLOAD PUSH2 0x144 SWAP2 SWAP1 PUSH2 0x9D4 JUMP JUMPDEST PUSH1 0x40 MLOAD DUP1 SWAP2 SUB SWAP1 RETURN JUMPDEST PUSH2 0x167 PUSH1 0x4 DUP1 CALLDATASIZE SUB DUP2 ADD SWAP1 PUSH2 0x162 SWAP2 SWAP1 PUSH2 0x849 JUMP JUMPDEST PUSH2 0x2A3 JUMP JUMPDEST STOP JUMPDEST CALLVALUE DUP1 ISZERO PUSH2 0x175 JUMPI PUSH1 0x0 DUP1 REVERT JUMPDEST POP PUSH2 0x17E PUSH2 0x5B8 JUMP JUMPDEST PUSH1 0x40 MLOAD PUSH2 0x18B SWAP2 SWAP1 PUSH2 0x9D4 JUMP JUMPDEST PUSH1 0x40 MLOAD DUP1 SWAP2 SUB SWAP1 RETURN JUMPDEST CALLVALUE DUP1 ISZERO PUSH2 0x1A0 JUMPI PUSH1 0x0 DUP1 REVERT JUMPDEST POP PUSH2 0x1A9 PUSH2 0x5FE JUMP JUMPDEST PUSH1 0x40 MLOAD PUSH2 0x1B6 SWAP2 SWAP1 PUSH2 0x9D4 JUMP JUMPDEST PUSH1 0x40 MLOAD DUP1 SWAP2 SUB SWAP1 RETURN JUMPDEST CALLVALUE DUP1 ISZERO PUSH2 0x1CB JUMPI PUSH1 0x0 DUP1 REVERT JUMPDEST POP PUSH2 0x1D4 PUSH2 0x6E1 JUMP JUMPDEST PUSH1 0x40 MLOAD PUSH2 0x1E1 SWAP2 SWAP1 PUSH2 0x977 JUMP JUMPDEST PUSH1 0x40 MLOAD DUP1 SWAP2 SUB SWAP1 RETURN JUMPDEST CALLVALUE DUP1 ISZERO PUSH2 0x1F6 JUMPI PUSH1 0x0 DUP1 REVERT JUMPDEST POP PUSH2 0x1FF PUSH2 0x707 JUMP JUMPDEST PUSH1 0x40 MLOAD PUSH2 0x20C SWAP2 SWAP1 PUSH2 0x9D4 JUMP JUMPDEST PUSH1 0x40 MLOAD DUP1 SWAP2 SUB SWAP1 RETURN JUMPDEST CALLVALUE DUP1 ISZERO PUSH2 0x221 JUMPI PUSH1 0x0 DUP1 REVERT JUMPDEST POP PUSH2 0x22A PUSH2 0x80A JUMP JUMPDEST PUSH1 0x40 MLOAD PUSH2 0x237 SWAP2 SWAP1 PUSH2 0x9D4 JUMP JUMPDEST PUSH1 0x40 MLOAD DUP1 SWAP2 SUB SWAP1 RETURN JUMPDEST CALLVALUE DUP1 ISZERO PUSH2 0x24C JUMPI PUSH1 0x0 DUP1 REVERT JUMPDEST POP PUSH2 0x255 PUSH2 0x810 JUMP JUMPDEST PUSH1 0x40 MLOAD PUSH2 0x262 SWAP2 SWAP1 PUSH2 0x9D4 JUMP JUMPDEST PUSH1 0x40 MLOAD DUP1 SWAP2 SUB SWAP1 RETURN JUMPDEST PUSH1 0x3 PUSH1 0x0 SWAP1 SLOAD SWAP1 PUSH2 0x100 EXP SWAP1 DIV PUSH20 0xFFFFFFFFFFFFFFFFFFFFFFFFFFFFFFFFFFFFFFFF AND DUP2 JUMP JUMPDEST PUSH1 0x5 SLOAD DUP2 JUMP JUMPDEST PUSH1 0x6 SLOAD DUP2 JUMP JUMPDEST PUSH1 0x0 SLOAD DUP2 JUMP JUMPDEST PUSH2 0x2B7 PUSH8 0xF1DD74ED5C5B5E8D PUSH1 0xC0 SHL PUSH2 0x816 JUMP JUMPDEST PUSH2 0x2CB PUSH8 0x30002568A653FEA0 PUSH1 0xC0 SHL PUSH2 0x819 JUMP JUMPDEST PUSH2 0x2DF PUSH8 0xF507EB2C92A11884 PUSH1 0xC0 SHL PUSH2 0x819 JUMP JUMPDEST PUSH2 0x2F3 PUSH8 0xBA4FCF067705B2B4 PUSH1 0xC0 SHL PUSH2 0x819 JUMP JUMPDEST PUSH2 0x2FB PUSH2 0x5FE JUMP JUMPDEST CALLVALUE LT DUP1 ISZERO PUSH2 0x310 JUMPI POP PUSH1 0x0 PUSH2 0x30E PUSH2 0x5FE JUMP JUMPDEST GT JUMPDEST ISZERO PUSH2 0x3C3 JUMPI PUSH2 0x329 PUSH8 0x500986A25147D93C PUSH1 0xC0 SHL PUSH2 0x819 JUMP JUMPDEST PUSH2 0x33D PUSH8 0xB3943C56322A3F19 PUSH1 0xC0 SHL PUSH2 0x819 JUMP JUMPDEST PUSH2 0x351 PUSH8 0x5145EFE0440D3AAD PUSH1 0xC0 SHL PUSH2 0x819 JUMP JUMPDEST PUSH1 0x40 MLOAD DUP1 PUSH1 0x40 ADD PUSH1 0x40 MSTORE DUP1 PUSH1 0x3 DUP2 MSTORE PUSH1 0x20 ADD PUSH32 0x3132350000000000000000000000000000000000000000000000000000000000 DUP2 MSTORE POP PUSH1 0x40 MLOAD PUSH32 0x8C379A000000000000000000000000000000000000000000000000000000000 DUP2 MSTORE PUSH1 0x4 ADD PUSH2 0x3BA SWAP2 SWAP1 PUSH2 0x992 JUMP JUMPDEST PUSH1 0x40 MLOAD DUP1 SWAP2 SUB SWAP1 REVERT JUMPDEST PUSH2 0x3D7 PUSH8 0xB3CD9F862BB88DAD PUSH1 0xC0 SHL PUSH2 0x819 JUMP JUMPDEST PUSH2 0x3EB PUSH8 0x54655562F71090D7 PUSH1 0xC0 SHL PUSH2 0x819 JUMP JUMPDEST PUSH2 0x3FF PUSH8 0x8812A81788858583 PUSH1 0xC0 SHL PUSH2 0x819 JUMP JUMPDEST PUSH1 0x0 PUSH1 0x3 PUSH1 0x0 SWAP1 SLOAD SWAP1 PUSH2 0x100 EXP SWAP1 DIV PUSH20 0xFFFFFFFFFFFFFFFFFFFFFFFFFFFFFFFFFFFFFFFF AND PUSH20 0xFFFFFFFFFFFFFFFFFFFFFFFFFFFFFFFFFFFFFFFF AND PUSH2 0x442 PUSH2 0x5FE JUMP JUMPDEST PUSH1 0x40 MLOAD PUSH2 0x44E SWAP1 PUSH2 0x947 JUMP JUMPDEST PUSH1 0x0 PUSH1 0x40 MLOAD DUP1 DUP4 SUB DUP2 DUP6 DUP8 GAS CALL SWAP3 POP POP POP RETURNDATASIZE DUP1 PUSH1 0x0 DUP2 EQ PUSH2 0x48B JUMPI PUSH1 0x40 MLOAD SWAP2 POP PUSH1 0x1F NOT PUSH1 0x3F RETURNDATASIZE ADD AND DUP3 ADD PUSH1 0x40 MSTORE RETURNDATASIZE DUP3 MSTORE RETURNDATASIZE PUSH1 0x0 PUSH1 0x20 DUP5 ADD RETURNDATACOPY PUSH2 0x490 JUMP JUMPDEST PUSH1 0x60 SWAP2 POP JUMPDEST POP POP SWAP1 POP PUSH2 0x4A8 PUSH8 0xACF9FAFEEB335243 PUSH1 0xC0 SHL PUSH2 0x819 JUMP JUMPDEST PUSH2 0x4BC PUSH8 0x54583BEEA3A85A42 PUSH1 0xC0 SHL PUSH2 0x819 JUMP JUMPDEST PUSH2 0x4D0 PUSH8 0xCBA502510C62AC71 PUSH1 0xC0 SHL PUSH2 0x819 JUMP JUMPDEST DUP1 PUSH1 0x40 MLOAD DUP1 PUSH1 0x40 ADD PUSH1 0x40 MSTORE DUP1 PUSH1 0x3 DUP2 MSTORE PUSH1 0x20 ADD PUSH32 0x3131320000000000000000000000000000000000000000000000000000000000 DUP2 MSTORE POP SWAP1 PUSH2 0x548 JUMPI PUSH1 0x40 MLOAD PUSH32 0x8C379A000000000000000000000000000000000000000000000000000000000 DUP2 MSTORE PUSH1 0x4 ADD PUSH2 0x53F SWAP2 SWAP1 PUSH2 0x992 JUMP JUMPDEST PUSH1 0x40 MLOAD DUP1 SWAP2 SUB SWAP1 REVERT JUMPDEST POP PUSH2 0x55D PUSH8 0x30E4CA33C09FA632 PUSH1 0xC0 SHL PUSH2 0x819 JUMP JUMPDEST PUSH2 0x571 PUSH8 0x8655ED6366B7EEEE PUSH1 0xC0 SHL PUSH2 0x819 JUMP JUMPDEST PUSH2 0x585 PUSH8 0x7D5F88AF61A5FB44 PUSH1 0xC0 SHL PUSH2 0x816 JUMP JUMPDEST PUSH2 0x599 PUSH8 0x5A8351CB031B6E39 PUSH1 0xC0 SHL PUSH2 0x816 JUMP JUMPDEST PUSH2 0x5AD PUSH8 0xED77BB9B2F1F58AB PUSH1 0xC0 SHL PUSH2 0x816 JUMP JUMPDEST DUP2 PUSH1 0x5 DUP2 SWAP1 SSTORE POP POP POP JUMP JUMPDEST PUSH1 0x0 PUSH2 0x5CE PUSH8 0x20E5633AD41D0A04 PUSH1 0xC0 SHL PUSH2 0x816 JUMP JUMPDEST PUSH2 0x5E2 PUSH8 0x9620B438BE8F888C PUSH1 0xC0 SHL PUSH2 0x816 JUMP JUMPDEST PUSH2 0x5F6 PUSH8 0xDAD7CC808D5680F8 PUSH1 0xC0 SHL PUSH2 0x816 JUMP JUMPDEST PUSH1 0x5 SLOAD SWAP1 POP SWAP1 JUMP JUMPDEST PUSH1 0x0 PUSH2 0x614 PUSH8 0xF593B98AD4A8D6AE PUSH1 0xC0 SHL PUSH2 0x819 JUMP JUMPDEST PUSH2 0x628 PUSH8 0x924DCBDEB0697674 PUSH1 0xC0 SHL PUSH2 0x819 JUMP JUMPDEST PUSH2 0x63C PUSH8 0x111A410ACCA6EDCF PUSH1 0xC0 SHL PUSH2 0x819 JUMP JUMPDEST PUSH1 0x3 PUSH1 0x0 SWAP1 SLOAD SWAP1 PUSH2 0x100 EXP SWAP1 DIV PUSH20 0xFFFFFFFFFFFFFFFFFFFFFFFFFFFFFFFFFFFFFFFF AND PUSH20 0xFFFFFFFFFFFFFFFFFFFFFFFFFFFFFFFFFFFFFFFF AND PUSH4 0xCED72F87 PUSH1 0x40 MLOAD DUP2 PUSH4 0xFFFFFFFF AND PUSH1 0xE0 SHL DUP2 MSTORE PUSH1 0x4 ADD PUSH1 0x20 PUSH1 0x40 MLOAD DUP1 DUP4 SUB DUP2 DUP7 DUP1 EXTCODESIZE ISZERO DUP1 ISZERO PUSH2 0x6A4 JUMPI PUSH1 0x0 DUP1 REVERT JUMPDEST POP GAS STATICCALL ISZERO DUP1 ISZERO PUSH2 0x6B8 JUMPI RETURNDATASIZE PUSH1 0x0 DUP1 RETURNDATACOPY RETURNDATASIZE PUSH1 0x0 REVERT JUMPDEST POP POP POP POP PUSH1 0x40 MLOAD RETURNDATASIZE PUSH1 0x1F NOT PUSH1 0x1F DUP3 ADD AND DUP3 ADD DUP1 PUSH1 0x40 MSTORE POP DUP2 ADD SWAP1 PUSH2 0x6DC SWAP2 SWAP1 PUSH2 0x872 JUMP JUMPDEST SWAP1 POP SWAP1 JUMP JUMPDEST PUSH1 0x4 PUSH1 0x0 SWAP1 SLOAD SWAP1 PUSH2 0x100 EXP SWAP1 DIV PUSH20 0xFFFFFFFFFFFFFFFFFFFFFFFFFFFFFFFFFFFFFFFF AND DUP2 JUMP JUMPDEST PUSH1 0x0 PUSH2 0x71D PUSH8 0x5BB0C25FF05BB32 PUSH1 0xC0 SHL PUSH2 0x81C JUMP JUMPDEST PUSH2 0x731 PUSH8 0x31301BEC022FDEE5 PUSH1 0xC0 SHL PUSH2 0x81C JUMP JUMPDEST PUSH2 0x745 PUSH8 0x463F38798A2F6EA5 PUSH1 0xC0 SHL PUSH2 0x81C JUMP JUMPDEST TIMESTAMP PUSH1 0x1 SLOAD LT ISZERO PUSH2 0x7C6 JUMPI PUSH2 0x763 PUSH8 0x341A09D70C911938 PUSH1 0xC0 SHL PUSH2 0x81C JUMP JUMPDEST PUSH2 0x777 PUSH8 0xFD13858D30B4E0F3 PUSH1 0xC0 SHL PUSH2 0x81C JUMP JUMPDEST PUSH2 0x78B PUSH8 0x9B977CD0C0A3BF3A PUSH1 0xC0 SHL PUSH2 0x81C JUMP JUMPDEST PUSH1 0x40 MLOAD PUSH32 0x8C379A000000000000000000000000000000000000000000000000000000000 DUP2 MSTORE PUSH1 0x4 ADD PUSH2 0x7BD SWAP1 PUSH2 0x9B4 JUMP JUMPDEST PUSH1 0x40 MLOAD DUP1 SWAP2 SUB SWAP1 REVERT JUMPDEST PUSH2 0x7DA PUSH8 0x27E4D34D0D1FF58B PUSH1 0xC0 SHL PUSH2 0x81C JUMP JUMPDEST PUSH2 0x7EE PUSH8 0x79A9C7A6BA68D5CB PUSH1 0xC0 SHL PUSH2 0x81C JUMP JUMPDEST PUSH2 0x802 PUSH8 0xEB1B54E909EC2D35 PUSH1 0xC0 SHL PUSH2 0x81C JUMP JUMPDEST PUSH1 0x2 SLOAD SWAP1 POP SWAP1 JUMP JUMPDEST PUSH1 0x2 SLOAD DUP2 JUMP JUMPDEST PUSH1 0x1 SLOAD DUP2 JUMP JUMPDEST POP JUMP JUMPDEST POP JUMP JUMPDEST POP JUMP JUMPDEST PUSH1 0x0 DUP2 CALLDATALOAD SWAP1 POP PUSH2 0x82E DUP2 PUSH2 0xAE6 JUMP JUMPDEST SWAP3 SWAP2 POP POP JUMP JUMPDEST PUSH1 0x0 DUP2 MLOAD SWAP1 POP PUSH2 0x843 DUP2 PUSH2 0xAE6 JUMP JUMPDEST SWAP3 SWAP2 POP POP JUMP JUMPDEST PUSH1 0x0 PUSH1 0x20 DUP3 DUP5 SUB SLT ISZERO PUSH2 0x85B JUMPI PUSH1 0x0 DUP1 REVERT JUMPDEST PUSH1 0x0 PUSH2 0x869 DUP5 DUP3 DUP6 ADD PUSH2 0x81F JUMP JUMPDEST SWAP2 POP POP SWAP3 SWAP2 POP POP JUMP JUMPDEST PUSH1 0x0 PUSH1 0x20 DUP3 DUP5 SUB SLT ISZERO PUSH2 0x884 JUMPI PUSH1 0x0 DUP1 REVERT JUMPDEST PUSH1 0x0 PUSH2 0x892 DUP5 DUP3 DUP6 ADD PUSH2 0x834 JUMP JUMPDEST SWAP2 POP POP SWAP3 SWAP2 POP POP JUMP JUMPDEST PUSH2 0x8A4 DUP2 PUSH2 0xA16 JUMP JUMPDEST DUP3 MSTORE POP POP JUMP JUMPDEST PUSH2 0x8B3 DUP2 PUSH2 0xA52 JUMP JUMPDEST DUP3 MSTORE POP POP JUMP JUMPDEST PUSH1 0x0 PUSH2 0x8C4 DUP3 PUSH2 0x9EF JUMP JUMPDEST PUSH2 0x8CE DUP2 DUP6 PUSH2 0xA05 JUMP JUMPDEST SWAP4 POP PUSH2 0x8DE DUP2 DUP6 PUSH1 0x20 DUP7 ADD PUSH2 0xA76 JUMP JUMPDEST PUSH2 0x8E7 DUP2 PUSH2 0xAA9 JUMP JUMPDEST DUP5 ADD SWAP2 POP POP SWAP3 SWAP2 POP POP JUMP JUMPDEST PUSH1 0x0 PUSH2 0x8FF PUSH1 0xA DUP4 PUSH2 0xA05 JUMP JUMPDEST SWAP2 POP PUSH2 0x90A DUP3 PUSH2 0xABA JUMP JUMPDEST PUSH1 0x20 DUP3 ADD SWAP1 POP SWAP2 SWAP1 POP JUMP JUMPDEST PUSH1 0x0 PUSH2 0x922 PUSH1 0x0 DUP4 PUSH2 0x9FA JUMP JUMPDEST SWAP2 POP PUSH2 0x92D DUP3 PUSH2 0xAE3 JUMP JUMPDEST PUSH1 0x0 DUP3 ADD SWAP1 POP SWAP2 SWAP1 POP JUMP JUMPDEST PUSH2 0x941 DUP2 PUSH2 0xA48 JUMP JUMPDEST DUP3 MSTORE POP POP JUMP JUMPDEST PUSH1 0x0 PUSH2 0x952 DUP3 PUSH2 0x915 JUMP JUMPDEST SWAP2 POP DUP2 SWAP1 POP SWAP2 SWAP1 POP JUMP JUMPDEST PUSH1 0x0 PUSH1 0x20 DUP3 ADD SWAP1 POP PUSH2 0x971 PUSH1 0x0 DUP4 ADD DUP5 PUSH2 0x89B JUMP JUMPDEST SWAP3 SWAP2 POP POP JUMP JUMPDEST PUSH1 0x0 PUSH1 0x20 DUP3 ADD SWAP1 POP PUSH2 0x98C PUSH1 0x0 DUP4 ADD DUP5 PUSH2 0x8AA JUMP JUMPDEST SWAP3 SWAP2 POP POP JUMP JUMPDEST PUSH1 0x0 PUSH1 0x20 DUP3 ADD SWAP1 POP DUP2 DUP2 SUB PUSH1 0x0 DUP4 ADD MSTORE PUSH2 0x9AC DUP2 DUP5 PUSH2 0x8B9 JUMP JUMPDEST SWAP1 POP SWAP3 SWAP2 POP POP JUMP JUMPDEST PUSH1 0x0 PUSH1 0x20 DUP3 ADD SWAP1 POP DUP2 DUP2 SUB PUSH1 0x0 DUP4 ADD MSTORE PUSH2 0x9CD DUP2 PUSH2 0x8F2 JUMP JUMPDEST SWAP1 POP SWAP2 SWAP1 POP JUMP JUMPDEST PUSH1 0x0 PUSH1 0x20 DUP3 ADD SWAP1 POP PUSH2 0x9E9 PUSH1 0x0 DUP4 ADD DUP5 PUSH2 0x938 JUMP JUMPDEST SWAP3 SWAP2 POP POP JUMP JUMPDEST PUSH1 0x0 DUP2 MLOAD SWAP1 POP SWAP2 SWAP1 POP JUMP JUMPDEST PUSH1 0x0 DUP2 SWAP1 POP SWAP3 SWAP2 POP POP JUMP JUMPDEST PUSH1 0x0 DUP3 DUP3 MSTORE PUSH1 0x20 DUP3 ADD SWAP1 POP SWAP3 SWAP2 POP POP JUMP JUMPDEST PUSH1 0x0 PUSH2 0xA21 DUP3 PUSH2 0xA28 JUMP JUMPDEST SWAP1 POP SWAP2 SWAP1 POP JUMP JUMPDEST PUSH1 0x0 PUSH20 0xFFFFFFFFFFFFFFFFFFFFFFFFFFFFFFFFFFFFFFFF DUP3 AND SWAP1 POP SWAP2 SWAP1 POP JUMP JUMPDEST PUSH1 0x0 DUP2 SWAP1 POP SWAP2 SWAP1 POP JUMP JUMPDEST PUSH1 0x0 PUSH2 0xA5D DUP3 PUSH2 0xA64 JUMP JUMPDEST SWAP1 POP SWAP2 SWAP1 POP JUMP JUMPDEST PUSH1 0x0 PUSH2 0xA6F DUP3 PUSH2 0xA28 JUMP JUMPDEST SWAP1 POP SWAP2 SWAP1 POP JUMP JUMPDEST PUSH1 0x0 JUMPDEST DUP4 DUP2 LT ISZERO PUSH2 0xA94 JUMPI DUP1 DUP3 ADD MLOAD DUP2 DUP5 ADD MSTORE PUSH1 0x20 DUP2 ADD SWAP1 POP PUSH2 0xA79 JUMP JUMPDEST DUP4 DUP2 GT ISZERO PUSH2 0xAA3 JUMPI PUSH1 0x0 DUP5 DUP5 ADD MSTORE JUMPDEST POP POP POP POP JUMP JUMPDEST PUSH1 0x0 PUSH1 0x1F NOT PUSH1 0x1F DUP4 ADD AND SWAP1 POP SWAP2 SWAP1 POP JUMP JUMPDEST PUSH32 0x7265736574466565282900000000000000000000000000000000000000000000 PUSH1 0x0 DUP3 ADD MSTORE POP JUMP JUMPDEST POP JUMP JUMPDEST PUSH2 0xAEF DUP2 PUSH2 0xA48 JUMP JUMPDEST DUP2 EQ PUSH2 0xAFA JUMPI PUSH1 0x0 DUP1 REVERT JUMPDEST POP JUMP INVALID LOG2 PUSH5 0x6970667358 0x22 SLT KECCAK256 SWAP2 0xF6 EQ 0xD TIMESTAMP 0xB4 0x2F 0xD8 AND GAS 0xE0 0xE2 LOG0 DIFFICULTY 0xCB 0xAD CALLER BYTE 0x48 PUSH25 0x67BDE6482A81409F8FF216E064736F6C634300080200330000 "},"methodIdentifiers":{"FeeContract()":"207ccfea","FeeQueryNative()":"ab407bb6","callFee()":"90321e1a","epochLength()":"57d775f8","fee()":"ddca3f43","get()":"6d4ce63c","getFee()":"ced72f87","h1Stored()":"2dcbf1c0","requiredReset()":"f5fa96e5","set(uint256)":"60fe47b1","storedData()":"2a1afcd9"}},"storageLayout":{"storage":[{"astId":210,"contract":"contracts/SimpleStorageWithFee.sol:SimpleStorageWithFee","label":"epochLength","offset":0,"slot":"0","type":"t_uint256"},{"astId":212,"contract":"contracts/SimpleStorageWithFee.sol:SimpleStorageWithFee","label":"requiredReset","offset":0,"slot":"1","type":"t_uint256"},{"astId":214,"contract":"contracts/SimpleStorageWithFee.sol:SimpleStorageWithFee","label":"fee","offset":0,"slot":"2","type":"t_uint256"},{"astId":686,"contract":"contracts/SimpleStorageWithFee.sol:SimpleStorageWithFee","label":"FeeContract","offset":0,"slot":"3","type":"t_address"},{"astId":689,"contract":"contracts/SimpleStorageWithFee.sol:SimpleStorageWithFee","label":"FeeQueryNative","offset":0,"slot":"4","type":"t_contract(FeeQuery)271"},{"astId":1097,"contract":"contracts/SimpleStorageWithFee.sol:SimpleStorageWithFee","label":"storedData","offset":0,"slot":"5","type":"t_uint256"},{"astId":1099,"contract":"contracts/SimpleStorageWithFee.sol:SimpleStorageWithFee","label":"h1Stored","offset":0,"slot":"6","type":"t_uint256"}],"types":{"t_address":{"encoding":"inplace","label":"address","numberOfBytes":"20"},"t_contract(FeeQuery)271":{"encoding":"inplace","label":"contract FeeQuery","numberOfBytes":"20"},"t_uint256":{"encoding":"inplace","label":"uint256","numberOfBytes":"32"}}}}}}