{"contracts/SimpleStorageWithDevAppFee.sol":{"SimpleStorageWithDevAppFee":{"abi":[{"inputs":[{"internalType":"address","name":"_feeContract","type":"address"},{"internalType":"address","name":"devWallet","type":"address"}],"stateMutability":"nonpayable","type":"constructor"},{"inputs":[],"name":"FeeContract","outputs":[{"internalType":"address","name":"","type":"address"}],"stateMutability":"view","type":"function"},{"inputs":[],"name":"callFee","outputs":[{"internalType":"uint256","name":"","type":"uint256"}],"stateMutability":"view","type":"function"},{"inputs":[],"name":"epochLength","outputs":[{"internalType":"uint256","name":"","type":"uint256"}],"stateMutability":"view","type":"function"},{"inputs":[],"name":"fee","outputs":[{"internalType":"uint256","name":"","type":"uint256"}],"stateMutability":"view","type":"function"},{"inputs":[],"name":"get","outputs":[{"internalType":"uint256","name":"retVal","type":"uint256"}],"stateMutability":"view","type":"function"},{"inputs":[],"name":"getDeveloperFee","outputs":[{"internalType":"uint256","name":"developerFee","type":"uint256"}],"stateMutability":"view","type":"function"},{"inputs":[],"name":"getFee","outputs":[{"internalType":"uint256","name":"","type":"uint256"}],"stateMutability":"view","type":"function"},{"inputs":[],"name":"getHavenFee","outputs":[{"internalType":"uint256","name":"havenOneFee","type":"uint256"}],"stateMutability":"view","type":"function"},{"inputs":[],"name":"h1Stored","outputs":[{"internalType":"uint256","name":"","type":"uint256"}],"stateMutability":"view","type":"function"},{"inputs":[],"name":"requiredReset","outputs":[{"internalType":"uint256","name":"","type":"uint256"}],"stateMutability":"view","type":"function"},{"inputs":[{"internalType":"uint256","name":"x","type":"uint256"}],"name":"set","outputs":[],"stateMutability":"payable","type":"function"},{"inputs":[],"name":"storedData","outputs":[{"internalType":"uint256","name":"","type":"uint256"}],"stateMutability":"view","type":"function"}],"evm":{"bytecode":{"linkReferences":{},"object":"60806040523480156200001157600080fd5b5060405162001190380380620011908339818101604052810190620000379190620002a4565b818162000055670e5c79848b2341a760c01b6200028760201b60201c565b6200007167099d75038d8cafda60c01b6200028760201b60201c565b6200008d677dc141a69b74ff2a60c01b6200028760201b60201c565b600073ffffffffffffffffffffffffffffffffffffffff168273ffffffffffffffffffffffffffffffffffffffff1614156200018b57620000df67cd1b7729f550e09460c01b6200028760201b60201c565b620000fb674a1759b15613413760c01b6200028760201b60201c565b6200011767bcbcdb0ec4c62a5560c01b6200028760201b60201c565b6040518060400160405280600381526020017f31323300000000000000000000000000000000000000000000000000000000008152506040517f08c379a000000000000000000000000000000000000000000000000000000000815260040162000182919062000326565b60405180910390fd5b620001a7677949f73461ebb8cf60c01b6200028760201b60201c565b620001c36788146c218b6c29a260c01b6200028760201b60201c565b81600360006101000a81548173ffffffffffffffffffffffffffffffffffffffff021916908373ffffffffffffffffffffffffffffffffffffffff1602179055506200022067d93731a74b30fd7c60c01b6200028760201b60201c565b80600460006101000a81548173ffffffffffffffffffffffffffffffffffffffff021916908373ffffffffffffffffffffffffffffffffffffffff16021790555050506200027f67421c77c73520461760c01b6200028a60201b60201c565b5050620003fb565b50565b50565b6000815190506200029e81620003e1565b92915050565b60008060408385031215620002b857600080fd5b6000620002c8858286016200028d565b9250506020620002db858286016200028d565b9150509250929050565b6000620002f2826200034a565b620002fe818562000355565b9350620003108185602086016200039a565b6200031b81620003d0565b840191505092915050565b60006020820190508181036000830152620003428184620002e5565b905092915050565b600081519050919050565b600082825260208201905092915050565b600062000373826200037a565b9050919050565b600073ffffffffffffffffffffffffffffffffffffffff82169050919050565b60005b83811015620003ba5780820151818401526020810190506200039d565b83811115620003ca576000848401525b50505050565b6000601f19601f8301169050919050565b620003ec8162000366565b8114620003f857600080fd5b50565b610d85806200040b6000396000f3fe6080604052600436106100a75760003560e01c806377482b181161006457806377482b181461019f57806390321e1a146101ca578063b19929c3146101f5578063ced72f8714610220578063ddca3f431461024b578063f5fa96e514610276576100a7565b8063207ccfea146100ac5780632a1afcd9146100d75780632dcbf1c01461010257806357d775f81461012d57806360fe47b1146101585780636d4ce63c14610174575b600080fd5b3480156100b857600080fd5b506100c16102a1565b6040516100ce9190610b04565b60405180910390f35b3480156100e357600080fd5b506100ec6102c7565b6040516100f99190610b61565b60405180910390f35b34801561010e57600080fd5b506101176102cd565b6040516101249190610b61565b60405180910390f35b34801561013957600080fd5b506101426102d3565b60405161014f9190610b61565b60405180910390f35b610172600480360381019061016d9190610a00565b6102d9565b005b34801561018057600080fd5b50610189610679565b6040516101969190610b61565b60405180910390f35b3480156101ab57600080fd5b506101b46106bf565b6040516101c19190610b61565b60405180910390f35b3480156101d657600080fd5b506101df61073c565b6040516101ec9190610b61565b60405180910390f35b34801561020157600080fd5b5061020a61084d565b6040516102179190610b61565b60405180910390f35b34801561022c57600080fd5b506102356108be565b6040516102429190610b61565b60405180910390f35b34801561025757600080fd5b506102606109c1565b60405161026d9190610b61565b60405180910390f35b34801561028257600080fd5b5061028b6109c7565b6040516102989190610b61565b60405180910390f35b600360009054906101000a900473ffffffffffffffffffffffffffffffffffffffff1681565b60055481565b60065481565b60005481565b6102ed677b0b14b60fb8a58360c01b6109cd565b61030167c75fcad9b17d78aa60c01b6109d0565b610315674e42ad4c547690e960c01b6109d0565b61032967bd30f977b3ed747f60c01b6109d0565b61033161073c565b341080156103465750600061034461073c565b115b156103f95761035f67f91bfa4e25b44bf760c01b6109d0565b610373671232285baf813d5960c01b6109d0565b61038767a2916bb47395708a60c01b6109d0565b6040518060400160405280600381526020017f31323500000000000000000000000000000000000000000000000000000000008152506040517f08c379a00000000000000000000000000000000000000000000000000000000081526004016103f09190610b1f565b60405180910390fd5b61040d6752abf4e28953ada560c01b6109d0565b610421676e9d002699a94d3160c01b6109d0565b61043567a7abeef1d686229360c01b6109d0565b6000600360009054906101000a900473ffffffffffffffffffffffffffffffffffffffff1673ffffffffffffffffffffffffffffffffffffffff1661047861084d565b60405161048490610aef565b60006040518083038185875af1925050503d80600081146104c1576040519150601f19603f3d011682016040523d82523d6000602084013e6104c6565b606091505b505090506104de67b1766162f5d9e71760c01b6109d0565b6104f267a2bb25c47377fb2a60c01b6109d0565b6105066717fa3b1790d8c79860c01b6109d0565b806040518060400160405280600381526020017f31313200000000000000000000000000000000000000000000000000000000008152509061057e576040517f08c379a00000000000000000000000000000000000000000000000000000000081526004016105759190610b1f565b60405180910390fd5b5061059367eb3640c09003b69d60c01b6109d0565b6105a767dda1fcb9d5c8d5eb60c01b6109d0565b6105bb6733a366b5bd708a0e60c01b6109d0565b6000600460009054906101000a900473ffffffffffffffffffffffffffffffffffffffff1673ffffffffffffffffffffffffffffffffffffffff166108fc6106016106bf565b9081150290604051600060405180830381858888f19350505050905061063167c6d95265f995528960c01b6109d0565b6106456709f6e039aefff14f60c01b6109cd565b6106596702febd68c2baa37060c01b6109cd565b61066d675cdaa6be30a79db360c01b6109cd565b82600581905550505050565b600061068f679a6cca76a95f33dc60c01b6109cd565b6106a3679bca7903d15a261f60c01b6109cd565b6106b76784df1a4dbbce55f860c01b6109cd565b600554905090565b60006106d56762be0e3eb49d3e9760c01b6109d0565b6106e96735a364bf9ec0c9b160c01b6109d0565b6106fd67989474dc1f94bd4760c01b6109d0565b600061070761073c565b905061071d6735c6135bd30fb56160c01b6109d0565b6009600a8261072c9190610ba3565b6107369190610bd4565b91505090565b600061075267c674f3534dac2dec60c01b6109d0565b61076667e0b5f08fd8dc49a660c01b6109d0565b61077a6757c913a2a8f4beff60c01b6109d0565b6000600360009054906101000a900473ffffffffffffffffffffffffffffffffffffffff1673ffffffffffffffffffffffffffffffffffffffff1663ced72f876040518163ffffffff1660e01b815260040160206040518083038186803b1580156107e457600080fd5b505afa1580156107f8573d6000803e3d6000fd5b505050506040513d601f19601f8201168201806040525081019061081c9190610a29565b90506108326790403cdde02533e860c01b6109d0565b610846671c87d02a3069b73360c01b6109d0565b8091505090565b6000610863673ae3d9bdfb94e26b60c01b6109d0565b61087767cc43cf7efdab234c60c01b6109d0565b61088b671cb28bc6094eb59660c01b6109d0565b600061089561073c565b90506108ab67c9322031f617eba660c01b6109d0565b600a816108b89190610ba3565b91505090565b60006108d46705bb0c25ff05bb3260c01b6109d3565b6108e86731301bec022fdee560c01b6109d3565b6108fc67463f38798a2f6ea560c01b6109d3565b42600154101561097d5761091a67341a09d70c91193860c01b6109d3565b61092e67fd13858d30b4e0f360c01b6109d3565b610942679b977cd0c0a3bf3a60c01b6109d3565b6040517f08c379a000000000000000000000000000000000000000000000000000000000815260040161097490610b41565b60405180910390fd5b6109916727e4d34d0d1ff58b60c01b6109d3565b6109a56779a9c7a6ba68d5cb60c01b6109d3565b6109b967eb1b54e909ec2d3560c01b6109d3565b600254905090565b60025481565b60015481565b50565b50565b50565b6000813590506109e581610d38565b92915050565b6000815190506109fa81610d38565b92915050565b600060208284031215610a1257600080fd5b6000610a20848285016109d6565b91505092915050565b600060208284031215610a3b57600080fd5b6000610a49848285016109eb565b91505092915050565b610a5b81610c2e565b82525050565b6000610a6c82610b7c565b610a768185610b92565b9350610a86818560208601610c6a565b610a8f81610cfb565b840191505092915050565b6000610aa7600a83610b92565b9150610ab282610d0c565b602082019050919050565b6000610aca600083610b87565b9150610ad582610d35565b600082019050919050565b610ae981610c60565b82525050565b6000610afa82610abd565b9150819050919050565b6000602082019050610b196000830184610a52565b92915050565b60006020820190508181036000830152610b398184610a61565b905092915050565b60006020820190508181036000830152610b5a81610a9a565b9050919050565b6000602082019050610b766000830184610ae0565b92915050565b600081519050919050565b600081905092915050565b600082825260208201905092915050565b6000610bae82610c60565b9150610bb983610c60565b925082610bc957610bc8610ccc565b5b828204905092915050565b6000610bdf82610c60565b9150610bea83610c60565b9250817fffffffffffffffffffffffffffffffffffffffffffffffffffffffffffffffff0483118215151615610c2357610c22610c9d565b5b828202905092915050565b6000610c3982610c40565b9050919050565b600073ffffffffffffffffffffffffffffffffffffffff82169050919050565b6000819050919050565b60005b83811015610c88578082015181840152602081019050610c6d565b83811115610c97576000848401525b50505050565b7f4e487b7100000000000000000000000000000000000000000000000000000000600052601160045260246000fd5b7f4e487b7100000000000000000000000000000000000000000000000000000000600052601260045260246000fd5b6000601f19601f8301169050919050565b7f7265736574466565282900000000000000000000000000000000000000000000600082015250565b50565b610d4181610c60565b8114610d4c57600080fd5b5056fea2646970667358221220181cb9039fc2fad3db949a8b6718a142d811cc5148bd1035e2c38be52db158cc64736f6c63430008020033","opcodes":"PUSH1 0x80 PUSH1 0x40 MSTORE CALLVALUE DUP1 ISZERO PUSH3 0x11 JUMPI PUSH1 0x0 DUP1 REVERT JUMPDEST POP PUSH1 0x40 MLOAD PUSH3 0x1190 CODESIZE SUB DUP1 PUSH3 0x1190 DUP4 CODECOPY DUP2 DUP2 ADD PUSH1 0x40 MSTORE DUP2 ADD SWAP1 PUSH3 0x37 SWAP2 SWAP1 PUSH3 0x2A4 JUMP JUMPDEST DUP2 DUP2 PUSH3 0x55 PUSH8 0xE5C79848B2341A7 PUSH1 0xC0 SHL PUSH3 0x287 PUSH1 0x20 SHL PUSH1 0x20 SHR JUMP JUMPDEST PUSH3 0x71 PUSH8 0x99D75038D8CAFDA PUSH1 0xC0 SHL PUSH3 0x287 PUSH1 0x20 SHL PUSH1 0x20 SHR JUMP JUMPDEST PUSH3 0x8D PUSH8 0x7DC141A69B74FF2A PUSH1 0xC0 SHL PUSH3 0x287 PUSH1 0x20 SHL PUSH1 0x20 SHR JUMP JUMPDEST PUSH1 0x0 PUSH20 0xFFFFFFFFFFFFFFFFFFFFFFFFFFFFFFFFFFFFFFFF AND DUP3 PUSH20 0xFFFFFFFFFFFFFFFFFFFFFFFFFFFFFFFFFFFFFFFF AND EQ ISZERO PUSH3 0x18B JUMPI PUSH3 0xDF PUSH8 0xCD1B7729F550E094 PUSH1 0xC0 SHL PUSH3 0x287 PUSH1 0x20 SHL PUSH1 0x20 SHR JUMP JUMPDEST PUSH3 0xFB PUSH8 0x4A1759B156134137 PUSH1 0xC0 SHL PUSH3 0x287 PUSH1 0x20 SHL PUSH1 0x20 SHR JUMP JUMPDEST PUSH3 0x117 PUSH8 0xBCBCDB0EC4C62A55 PUSH1 0xC0 SHL PUSH3 0x287 PUSH1 0x20 SHL PUSH1 0x20 SHR JUMP JUMPDEST PUSH1 0x40 MLOAD DUP1 PUSH1 0x40 ADD PUSH1 0x40 MSTORE DUP1 PUSH1 0x3 DUP2 MSTORE PUSH1 0x20 ADD PUSH32 0x3132330000000000000000000000000000000000000000000000000000000000 DUP2 MSTORE POP PUSH1 0x40 MLOAD PUSH32 0x8C379A000000000000000000000000000000000000000000000000000000000 DUP2 MSTORE PUSH1 0x4 ADD PUSH3 0x182 SWAP2 SWAP1 PUSH3 0x326 JUMP JUMPDEST PUSH1 0x40 MLOAD DUP1 SWAP2 SUB SWAP1 REVERT JUMPDEST PUSH3 0x1A7 PUSH8 0x7949F73461EBB8CF PUSH1 0xC0 SHL PUSH3 0x287 PUSH1 0x20 SHL PUSH1 0x20 SHR JUMP JUMPDEST PUSH3 0x1C3 PUSH8 0x88146C218B6C29A2 PUSH1 0xC0 SHL PUSH3 0x287 PUSH1 0x20 SHL PUSH1 0x20 SHR JUMP JUMPDEST DUP2 PUSH1 0x3 PUSH1 0x0 PUSH2 0x100 EXP DUP2 SLOAD DUP2 PUSH20 0xFFFFFFFFFFFFFFFFFFFFFFFFFFFFFFFFFFFFFFFF MUL NOT AND SWAP1 DUP4 PUSH20 0xFFFFFFFFFFFFFFFFFFFFFFFFFFFFFFFFFFFFFFFF AND MUL OR SWAP1 SSTORE POP PUSH3 0x220 PUSH8 0xD93731A74B30FD7C PUSH1 0xC0 SHL PUSH3 0x287 PUSH1 0x20 SHL PUSH1 0x20 SHR JUMP JUMPDEST DUP1 PUSH1 0x4 PUSH1 0x0 PUSH2 0x100 EXP DUP2 SLOAD DUP2 PUSH20 0xFFFFFFFFFFFFFFFFFFFFFFFFFFFFFFFFFFFFFFFF MUL NOT AND SWAP1 DUP4 PUSH20 0xFFFFFFFFFFFFFFFFFFFFFFFFFFFFFFFFFFFFFFFF AND MUL OR SWAP1 SSTORE POP POP POP PUSH3 0x27F PUSH8 0x421C77C735204617 PUSH1 0xC0 SHL PUSH3 0x28A PUSH1 0x20 SHL PUSH1 0x20 SHR JUMP JUMPDEST POP POP PUSH3 0x3FB JUMP JUMPDEST POP JUMP JUMPDEST POP JUMP JUMPDEST PUSH1 0x0 DUP2 MLOAD SWAP1 POP PUSH3 0x29E DUP2 PUSH3 0x3E1 JUMP JUMPDEST SWAP3 SWAP2 POP POP JUMP JUMPDEST PUSH1 0x0 DUP1 PUSH1 0x40 DUP4 DUP6 SUB SLT ISZERO PUSH3 0x2B8 JUMPI PUSH1 0x0 DUP1 REVERT JUMPDEST PUSH1 0x0 PUSH3 0x2C8 DUP6 DUP3 DUP7 ADD PUSH3 0x28D JUMP JUMPDEST SWAP3 POP POP PUSH1 0x20 PUSH3 0x2DB DUP6 DUP3 DUP7 ADD PUSH3 0x28D JUMP JUMPDEST SWAP2 POP POP SWAP3 POP SWAP3 SWAP1 POP JUMP JUMPDEST PUSH1 0x0 PUSH3 0x2F2 DUP3 PUSH3 0x34A JUMP JUMPDEST PUSH3 0x2FE DUP2 DUP6 PUSH3 0x355 JUMP JUMPDEST SWAP4 POP PUSH3 0x310 DUP2 DUP6 PUSH1 0x20 DUP7 ADD PUSH3 0x39A JUMP JUMPDEST PUSH3 0x31B DUP2 PUSH3 0x3D0 JUMP JUMPDEST DUP5 ADD SWAP2 POP POP SWAP3 SWAP2 POP POP JUMP JUMPDEST PUSH1 0x0 PUSH1 0x20 DUP3 ADD SWAP1 POP DUP2 DUP2 SUB PUSH1 0x0 DUP4 ADD MSTORE PUSH3 0x342 DUP2 DUP5 PUSH3 0x2E5 JUMP JUMPDEST SWAP1 POP SWAP3 SWAP2 POP POP JUMP JUMPDEST PUSH1 0x0 DUP2 MLOAD SWAP1 POP SWAP2 SWAP1 POP JUMP JUMPDEST PUSH1 0x0 DUP3 DUP3 MSTORE PUSH1 0x20 DUP3 ADD SWAP1 POP SWAP3 SWAP2 POP POP JUMP JUMPDEST PUSH1 0x0 PUSH3 0x373 DUP3 PUSH3 0x37A JUMP JUMPDEST SWAP1 POP SWAP2 SWAP1 POP JUMP JUMPDEST PUSH1 0x0 PUSH20 0xFFFFFFFFFFFFFFFFFFFFFFFFFFFFFFFFFFFFFFFF DUP3 AND SWAP1 POP SWAP2 SWAP1 POP JUMP JUMPDEST PUSH1 0x0 JUMPDEST DUP4 DUP2 LT ISZERO PUSH3 0x3BA JUMPI DUP1 DUP3 ADD MLOAD DUP2 DUP5 ADD MSTORE PUSH1 0x20 DUP2 ADD SWAP1 POP PUSH3 0x39D JUMP JUMPDEST DUP4 DUP2 GT ISZERO PUSH3 0x3CA JUMPI PUSH1 0x0 DUP5 DUP5 ADD MSTORE JUMPDEST POP POP POP POP JUMP JUMPDEST PUSH1 0x0 PUSH1 0x1F NOT PUSH1 0x1F DUP4 ADD AND SWAP1 POP SWAP2 SWAP1 POP JUMP JUMPDEST PUSH3 0x3EC DUP2 PUSH3 0x366 JUMP JUMPDEST DUP2 EQ PUSH3 0x3F8 JUMPI PUSH1 0x0 DUP1 REVERT JUMPDEST POP JUMP JUMPDEST PUSH2 0xD85 DUP1 PUSH3 0x40B PUSH1 0x0 CODECOPY PUSH1 0x0 RETURN INVALID PUSH1 0x80 PUSH1 0x40 MSTORE PUSH1 0x4 CALLDATASIZE LT PUSH2 0xA7 JUMPI PUSH1 0x0 CALLDATALOAD PUSH1 0xE0 SHR DUP1 PUSH4 0x77482B18 GT PUSH2 0x64 JUMPI DUP1 PUSH4 0x77482B18 EQ PUSH2 0x19F JUMPI DUP1 PUSH4 0x90321E1A EQ PUSH2 0x1CA JUMPI DUP1 PUSH4 0xB19929C3 EQ PUSH2 0x1F5 JUMPI DUP1 PUSH4 0xCED72F87 EQ PUSH2 0x220 JUMPI DUP1 PUSH4 0xDDCA3F43 EQ PUSH2 0x24B JUMPI DUP1 PUSH4 0xF5FA96E5 EQ PUSH2 0x276 JUMPI PUSH2 0xA7 JUMP JUMPDEST DUP1 PUSH4 0x207CCFEA EQ PUSH2 0xAC JUMPI DUP1 PUSH4 0x2A1AFCD9 EQ PUSH2 0xD7 JUMPI DUP1 PUSH4 0x2DCBF1C0 EQ PUSH2 0x102 JUMPI DUP1 PUSH4 0x57D775F8 EQ PUSH2 0x12D JUMPI DUP1 PUSH4 0x60FE47B1 EQ PUSH2 0x158 JUMPI DUP1 PUSH4 0x6D4CE63C EQ PUSH2 0x174 JUMPI JUMPDEST PUSH1 0x0 DUP1 REVERT JUMPDEST CALLVALUE DUP1 ISZERO PUSH2 0xB8 JUMPI PUSH1 0x0 DUP1 REVERT JUMPDEST POP PUSH2 0xC1 PUSH2 0x2A1 JUMP JUMPDEST PUSH1 0x40 MLOAD PUSH2 0xCE SWAP2 SWAP1 PUSH2 0xB04 JUMP JUMPDEST PUSH1 0x40 MLOAD DUP1 SWAP2 SUB SWAP1 RETURN JUMPDEST CALLVALUE DUP1 ISZERO PUSH2 0xE3 JUMPI PUSH1 0x0 DUP1 REVERT JUMPDEST POP PUSH2 0xEC PUSH2 0x2C7 JUMP JUMPDEST PUSH1 0x40 MLOAD PUSH2 0xF9 SWAP2 SWAP1 PUSH2 0xB61 JUMP JUMPDEST PUSH1 0x40 MLOAD DUP1 SWAP2 SUB SWAP1 RETURN JUMPDEST CALLVALUE DUP1 ISZERO PUSH2 0x10E JUMPI PUSH1 0x0 DUP1 REVERT JUMPDEST POP PUSH2 0x117 PUSH2 0x2CD JUMP JUMPDEST PUSH1 0x40 MLOAD PUSH2 0x124 SWAP2 SWAP1 PUSH2 0xB61 JUMP JUMPDEST PUSH1 0x40 MLOAD DUP1 SWAP2 SUB SWAP1 RETURN JUMPDEST CALLVALUE DUP1 ISZERO PUSH2 0x139 JUMPI PUSH1 0x0 DUP1 REVERT JUMPDEST POP PUSH2 0x142 PUSH2 0x2D3 JUMP JUMPDEST PUSH1 0x40 MLOAD PUSH2 0x14F SWAP2 SWAP1 PUSH2 0xB61 JUMP JUMPDEST PUSH1 0x40 MLOAD DUP1 SWAP2 SUB SWAP1 RETURN JUMPDEST PUSH2 0x172 PUSH1 0x4 DUP1 CALLDATASIZE SUB DUP2 ADD SWAP1 PUSH2 0x16D SWAP2 SWAP1 PUSH2 0xA00 JUMP JUMPDEST PUSH2 0x2D9 JUMP JUMPDEST STOP JUMPDEST CALLVALUE DUP1 ISZERO PUSH2 0x180 JUMPI PUSH1 0x0 DUP1 REVERT JUMPDEST POP PUSH2 0x189 PUSH2 0x679 JUMP JUMPDEST PUSH1 0x40 MLOAD PUSH2 0x196 SWAP2 SWAP1 PUSH2 0xB61 JUMP JUMPDEST PUSH1 0x40 MLOAD DUP1 SWAP2 SUB SWAP1 RETURN JUMPDEST CALLVALUE DUP1 ISZERO PUSH2 0x1AB JUMPI PUSH1 0x0 DUP1 REVERT JUMPDEST POP PUSH2 0x1B4 PUSH2 0x6BF JUMP JUMPDEST PUSH1 0x40 MLOAD PUSH2 0x1C1 SWAP2 SWAP1 PUSH2 0xB61 JUMP JUMPDEST PUSH1 0x40 MLOAD DUP1 SWAP2 SUB SWAP1 RETURN JUMPDEST CALLVALUE DUP1 ISZERO PUSH2 0x1D6 JUMPI PUSH1 0x0 DUP1 REVERT JUMPDEST POP PUSH2 0x1DF PUSH2 0x73C JUMP JUMPDEST PUSH1 0x40 MLOAD PUSH2 0x1EC SWAP2 SWAP1 PUSH2 0xB61 JUMP JUMPDEST PUSH1 0x40 MLOAD DUP1 SWAP2 SUB SWAP1 RETURN JUMPDEST CALLVALUE DUP1 ISZERO PUSH2 0x201 JUMPI PUSH1 0x0 DUP1 REVERT JUMPDEST POP PUSH2 0x20A PUSH2 0x84D JUMP JUMPDEST PUSH1 0x40 MLOAD PUSH2 0x217 SWAP2 SWAP1 PUSH2 0xB61 JUMP JUMPDEST PUSH1 0x40 MLOAD DUP1 SWAP2 SUB SWAP1 RETURN JUMPDEST CALLVALUE DUP1 ISZERO PUSH2 0x22C JUMPI PUSH1 0x0 DUP1 REVERT JUMPDEST POP PUSH2 0x235 PUSH2 0x8BE JUMP JUMPDEST PUSH1 0x40 MLOAD PUSH2 0x242 SWAP2 SWAP1 PUSH2 0xB61 JUMP JUMPDEST PUSH1 0x40 MLOAD DUP1 SWAP2 SUB SWAP1 RETURN JUMPDEST CALLVALUE DUP1 ISZERO PUSH2 0x257 JUMPI PUSH1 0x0 DUP1 REVERT JUMPDEST POP PUSH2 0x260 PUSH2 0x9C1 JUMP JUMPDEST PUSH1 0x40 MLOAD PUSH2 0x26D SWAP2 SWAP1 PUSH2 0xB61 JUMP JUMPDEST PUSH1 0x40 MLOAD DUP1 SWAP2 SUB SWAP1 RETURN JUMPDEST CALLVALUE DUP1 ISZERO PUSH2 0x282 JUMPI PUSH1 0x0 DUP1 REVERT JUMPDEST POP PUSH2 0x28B PUSH2 0x9C7 JUMP JUMPDEST PUSH1 0x40 MLOAD PUSH2 0x298 SWAP2 SWAP1 PUSH2 0xB61 JUMP JUMPDEST PUSH1 0x40 MLOAD DUP1 SWAP2 SUB SWAP1 RETURN JUMPDEST PUSH1 0x3 PUSH1 0x0 SWAP1 SLOAD SWAP1 PUSH2 0x100 EXP SWAP1 DIV PUSH20 0xFFFFFFFFFFFFFFFFFFFFFFFFFFFFFFFFFFFFFFFF AND DUP2 JUMP JUMPDEST PUSH1 0x5 SLOAD DUP2 JUMP JUMPDEST PUSH1 0x6 SLOAD DUP2 JUMP JUMPDEST PUSH1 0x0 SLOAD DUP2 JUMP JUMPDEST PUSH2 0x2ED PUSH8 0x7B0B14B60FB8A583 PUSH1 0xC0 SHL PUSH2 0x9CD JUMP JUMPDEST PUSH2 0x301 PUSH8 0xC75FCAD9B17D78AA PUSH1 0xC0 SHL PUSH2 0x9D0 JUMP JUMPDEST PUSH2 0x315 PUSH8 0x4E42AD4C547690E9 PUSH1 0xC0 SHL PUSH2 0x9D0 JUMP JUMPDEST PUSH2 0x329 PUSH8 0xBD30F977B3ED747F PUSH1 0xC0 SHL PUSH2 0x9D0 JUMP JUMPDEST PUSH2 0x331 PUSH2 0x73C JUMP JUMPDEST CALLVALUE LT DUP1 ISZERO PUSH2 0x346 JUMPI POP PUSH1 0x0 PUSH2 0x344 PUSH2 0x73C JUMP JUMPDEST GT JUMPDEST ISZERO PUSH2 0x3F9 JUMPI PUSH2 0x35F PUSH8 0xF91BFA4E25B44BF7 PUSH1 0xC0 SHL PUSH2 0x9D0 JUMP JUMPDEST PUSH2 0x373 PUSH8 0x1232285BAF813D59 PUSH1 0xC0 SHL PUSH2 0x9D0 JUMP JUMPDEST PUSH2 0x387 PUSH8 0xA2916BB47395708A PUSH1 0xC0 SHL PUSH2 0x9D0 JUMP JUMPDEST PUSH1 0x40 MLOAD DUP1 PUSH1 0x40 ADD PUSH1 0x40 MSTORE DUP1 PUSH1 0x3 DUP2 MSTORE PUSH1 0x20 ADD PUSH32 0x3132350000000000000000000000000000000000000000000000000000000000 DUP2 MSTORE POP PUSH1 0x40 MLOAD PUSH32 0x8C379A000000000000000000000000000000000000000000000000000000000 DUP2 MSTORE PUSH1 0x4 ADD PUSH2 0x3F0 SWAP2 SWAP1 PUSH2 0xB1F JUMP JUMPDEST PUSH1 0x40 MLOAD DUP1 SWAP2 SUB SWAP1 REVERT JUMPDEST PUSH2 0x40D PUSH8 0x52ABF4E28953ADA5 PUSH1 0xC0 SHL PUSH2 0x9D0 JUMP JUMPDEST PUSH2 0x421 PUSH8 0x6E9D002699A94D31 PUSH1 0xC0 SHL PUSH2 0x9D0 JUMP JUMPDEST PUSH2 0x435 PUSH8 0xA7ABEEF1D6862293 PUSH1 0xC0 SHL PUSH2 0x9D0 JUMP JUMPDEST PUSH1 0x0 PUSH1 0x3 PUSH1 0x0 SWAP1 SLOAD SWAP1 PUSH2 0x100 EXP SWAP1 DIV PUSH20 0xFFFFFFFFFFFFFFFFFFFFFFFFFFFFFFFFFFFFFFFF AND PUSH20 0xFFFFFFFFFFFFFFFFFFFFFFFFFFFFFFFFFFFFFFFF AND PUSH2 0x478 PUSH2 0x84D JUMP JUMPDEST PUSH1 0x40 MLOAD PUSH2 0x484 SWAP1 PUSH2 0xAEF JUMP JUMPDEST PUSH1 0x0 PUSH1 0x40 MLOAD DUP1 DUP4 SUB DUP2 DUP6 DUP8 GAS CALL SWAP3 POP POP POP RETURNDATASIZE DUP1 PUSH1 0x0 DUP2 EQ PUSH2 0x4C1 JUMPI PUSH1 0x40 MLOAD SWAP2 POP PUSH1 0x1F NOT PUSH1 0x3F RETURNDATASIZE ADD AND DUP3 ADD PUSH1 0x40 MSTORE RETURNDATASIZE DUP3 MSTORE RETURNDATASIZE PUSH1 0x0 PUSH1 0x20 DUP5 ADD RETURNDATACOPY PUSH2 0x4C6 JUMP JUMPDEST PUSH1 0x60 SWAP2 POP JUMPDEST POP POP SWAP1 POP PUSH2 0x4DE PUSH8 0xB1766162F5D9E717 PUSH1 0xC0 SHL PUSH2 0x9D0 JUMP JUMPDEST PUSH2 0x4F2 PUSH8 0xA2BB25C47377FB2A PUSH1 0xC0 SHL PUSH2 0x9D0 JUMP JUMPDEST PUSH2 0x506 PUSH8 0x17FA3B1790D8C798 PUSH1 0xC0 SHL PUSH2 0x9D0 JUMP JUMPDEST DUP1 PUSH1 0x40 MLOAD DUP1 PUSH1 0x40 ADD PUSH1 0x40 MSTORE DUP1 PUSH1 0x3 DUP2 MSTORE PUSH1 0x20 ADD PUSH32 0x3131320000000000000000000000000000000000000000000000000000000000 DUP2 MSTORE POP SWAP1 PUSH2 0x57E JUMPI PUSH1 0x40 MLOAD PUSH32 0x8C379A000000000000000000000000000000000000000000000000000000000 DUP2 MSTORE PUSH1 0x4 ADD PUSH2 0x575 SWAP2 SWAP1 PUSH2 0xB1F JUMP JUMPDEST PUSH1 0x40 MLOAD DUP1 SWAP2 SUB SWAP1 REVERT JUMPDEST POP PUSH2 0x593 PUSH8 0xEB3640C09003B69D PUSH1 0xC0 SHL PUSH2 0x9D0 JUMP JUMPDEST PUSH2 0x5A7 PUSH8 0xDDA1FCB9D5C8D5EB PUSH1 0xC0 SHL PUSH2 0x9D0 JUMP JUMPDEST PUSH2 0x5BB PUSH8 0x33A366B5BD708A0E PUSH1 0xC0 SHL PUSH2 0x9D0 JUMP JUMPDEST PUSH1 0x0 PUSH1 0x4 PUSH1 0x0 SWAP1 SLOAD SWAP1 PUSH2 0x100 EXP SWAP1 DIV PUSH20 0xFFFFFFFFFFFFFFFFFFFFFFFFFFFFFFFFFFFFFFFF AND PUSH20 0xFFFFFFFFFFFFFFFFFFFFFFFFFFFFFFFFFFFFFFFF AND PUSH2 0x8FC PUSH2 0x601 PUSH2 0x6BF JUMP JUMPDEST SWAP1 DUP2 ISZERO MUL SWAP1 PUSH1 0x40 MLOAD PUSH1 0x0 PUSH1 0x40 MLOAD DUP1 DUP4 SUB DUP2 DUP6 DUP9 DUP9 CALL SWAP4 POP POP POP POP SWAP1 POP PUSH2 0x631 PUSH8 0xC6D95265F9955289 PUSH1 0xC0 SHL PUSH2 0x9D0 JUMP JUMPDEST PUSH2 0x645 PUSH8 0x9F6E039AEFFF14F PUSH1 0xC0 SHL PUSH2 0x9CD JUMP JUMPDEST PUSH2 0x659 PUSH8 0x2FEBD68C2BAA370 PUSH1 0xC0 SHL PUSH2 0x9CD JUMP JUMPDEST PUSH2 0x66D PUSH8 0x5CDAA6BE30A79DB3 PUSH1 0xC0 SHL PUSH2 0x9CD JUMP JUMPDEST DUP3 PUSH1 0x5 DUP2 SWAP1 SSTORE POP POP POP POP JUMP JUMPDEST PUSH1 0x0 PUSH2 0x68F PUSH8 0x9A6CCA76A95F33DC PUSH1 0xC0 SHL PUSH2 0x9CD JUMP JUMPDEST PUSH2 0x6A3 PUSH8 0x9BCA7903D15A261F PUSH1 0xC0 SHL PUSH2 0x9CD JUMP JUMPDEST PUSH2 0x6B7 PUSH8 0x84DF1A4DBBCE55F8 PUSH1 0xC0 SHL PUSH2 0x9CD JUMP JUMPDEST PUSH1 0x5 SLOAD SWAP1 POP SWAP1 JUMP JUMPDEST PUSH1 0x0 PUSH2 0x6D5 PUSH8 0x62BE0E3EB49D3E97 PUSH1 0xC0 SHL PUSH2 0x9D0 JUMP JUMPDEST PUSH2 0x6E9 PUSH8 0x35A364BF9EC0C9B1 PUSH1 0xC0 SHL PUSH2 0x9D0 JUMP JUMPDEST PUSH2 0x6FD PUSH8 0x989474DC1F94BD47 PUSH1 0xC0 SHL PUSH2 0x9D0 JUMP JUMPDEST PUSH1 0x0 PUSH2 0x707 PUSH2 0x73C JUMP JUMPDEST SWAP1 POP PUSH2 0x71D PUSH8 0x35C6135BD30FB561 PUSH1 0xC0 SHL PUSH2 0x9D0 JUMP JUMPDEST PUSH1 0x9 PUSH1 0xA DUP3 PUSH2 0x72C SWAP2 SWAP1 PUSH2 0xBA3 JUMP JUMPDEST PUSH2 0x736 SWAP2 SWAP1 PUSH2 0xBD4 JUMP JUMPDEST SWAP2 POP POP SWAP1 JUMP JUMPDEST PUSH1 0x0 PUSH2 0x752 PUSH8 0xC674F3534DAC2DEC PUSH1 0xC0 SHL PUSH2 0x9D0 JUMP JUMPDEST PUSH2 0x766 PUSH8 0xE0B5F08FD8DC49A6 PUSH1 0xC0 SHL PUSH2 0x9D0 JUMP JUMPDEST PUSH2 0x77A PUSH8 0x57C913A2A8F4BEFF PUSH1 0xC0 SHL PUSH2 0x9D0 JUMP JUMPDEST PUSH1 0x0 PUSH1 0x3 PUSH1 0x0 SWAP1 SLOAD SWAP1 PUSH2 0x100 EXP SWAP1 DIV PUSH20 0xFFFFFFFFFFFFFFFFFFFFFFFFFFFFFFFFFFFFFFFF AND PUSH20 0xFFFFFFFFFFFFFFFFFFFFFFFFFFFFFFFFFFFFFFFF AND PUSH4 0xCED72F87 PUSH1 0x40 MLOAD DUP2 PUSH4 0xFFFFFFFF AND PUSH1 0xE0 SHL DUP2 MSTORE PUSH1 0x4 ADD PUSH1 0x20 PUSH1 0x40 MLOAD DUP1 DUP4 SUB DUP2 DUP7 DUP1 EXTCODESIZE ISZERO DUP1 ISZERO PUSH2 0x7E4 JUMPI PUSH1 0x0 DUP1 REVERT JUMPDEST POP GAS STATICCALL ISZERO DUP1 ISZERO PUSH2 0x7F8 JUMPI RETURNDATASIZE PUSH1 0x0 DUP1 RETURNDATACOPY RETURNDATASIZE PUSH1 0x0 REVERT JUMPDEST POP POP POP POP PUSH1 0x40 MLOAD RETURNDATASIZE PUSH1 0x1F NOT PUSH1 0x1F DUP3 ADD AND DUP3 ADD DUP1 PUSH1 0x40 MSTORE POP DUP2 ADD SWAP1 PUSH2 0x81C SWAP2 SWAP1 PUSH2 0xA29 JUMP JUMPDEST SWAP1 POP PUSH2 0x832 PUSH8 0x90403CDDE02533E8 PUSH1 0xC0 SHL PUSH2 0x9D0 JUMP JUMPDEST PUSH2 0x846 PUSH8 0x1C87D02A3069B733 PUSH1 0xC0 SHL PUSH2 0x9D0 JUMP JUMPDEST DUP1 SWAP2 POP POP SWAP1 JUMP JUMPDEST PUSH1 0x0 PUSH2 0x863 PUSH8 0x3AE3D9BDFB94E26B PUSH1 0xC0 SHL PUSH2 0x9D0 JUMP JUMPDEST PUSH2 0x877 PUSH8 0xCC43CF7EFDAB234C PUSH1 0xC0 SHL PUSH2 0x9D0 JUMP JUMPDEST PUSH2 0x88B PUSH8 0x1CB28BC6094EB596 PUSH1 0xC0 SHL PUSH2 0x9D0 JUMP JUMPDEST PUSH1 0x0 PUSH2 0x895 PUSH2 0x73C JUMP JUMPDEST SWAP1 POP PUSH2 0x8AB PUSH8 0xC9322031F617EBA6 PUSH1 0xC0 SHL PUSH2 0x9D0 JUMP JUMPDEST PUSH1 0xA DUP2 PUSH2 0x8B8 SWAP2 SWAP1 PUSH2 0xBA3 JUMP JUMPDEST SWAP2 POP POP SWAP1 JUMP JUMPDEST PUSH1 0x0 PUSH2 0x8D4 PUSH8 0x5BB0C25FF05BB32 PUSH1 0xC0 SHL PUSH2 0x9D3 JUMP JUMPDEST PUSH2 0x8E8 PUSH8 0x31301BEC022FDEE5 PUSH1 0xC0 SHL PUSH2 0x9D3 JUMP JUMPDEST PUSH2 0x8FC PUSH8 0x463F38798A2F6EA5 PUSH1 0xC0 SHL PUSH2 0x9D3 JUMP JUMPDEST TIMESTAMP PUSH1 0x1 SLOAD LT ISZERO PUSH2 0x97D JUMPI PUSH2 0x91A PUSH8 0x341A09D70C911938 PUSH1 0xC0 SHL PUSH2 0x9D3 JUMP JUMPDEST PUSH2 0x92E PUSH8 0xFD13858D30B4E0F3 PUSH1 0xC0 SHL PUSH2 0x9D3 JUMP JUMPDEST PUSH2 0x942 PUSH8 0x9B977CD0C0A3BF3A PUSH1 0xC0 SHL PUSH2 0x9D3 JUMP JUMPDEST PUSH1 0x40 MLOAD PUSH32 0x8C379A000000000000000000000000000000000000000000000000000000000 DUP2 MSTORE PUSH1 0x4 ADD PUSH2 0x974 SWAP1 PUSH2 0xB41 JUMP JUMPDEST PUSH1 0x40 MLOAD DUP1 SWAP2 SUB SWAP1 REVERT JUMPDEST PUSH2 0x991 PUSH8 0x27E4D34D0D1FF58B PUSH1 0xC0 SHL PUSH2 0x9D3 JUMP JUMPDEST PUSH2 0x9A5 PUSH8 0x79A9C7A6BA68D5CB PUSH1 0xC0 SHL PUSH2 0x9D3 JUMP JUMPDEST PUSH2 0x9B9 PUSH8 0xEB1B54E909EC2D35 PUSH1 0xC0 SHL PUSH2 0x9D3 JUMP JUMPDEST PUSH1 0x2 SLOAD SWAP1 POP SWAP1 JUMP JUMPDEST PUSH1 0x2 SLOAD DUP2 JUMP JUMPDEST PUSH1 0x1 SLOAD DUP2 JUMP JUMPDEST POP JUMP JUMPDEST POP JUMP JUMPDEST POP JUMP JUMPDEST PUSH1 0x0 DUP2 CALLDATALOAD SWAP1 POP PUSH2 0x9E5 DUP2 PUSH2 0xD38 JUMP JUMPDEST SWAP3 SWAP2 POP POP JUMP JUMPDEST PUSH1 0x0 DUP2 MLOAD SWAP1 POP PUSH2 0x9FA DUP2 PUSH2 0xD38 JUMP JUMPDEST SWAP3 SWAP2 POP POP JUMP JUMPDEST PUSH1 0x0 PUSH1 0x20 DUP3 DUP5 SUB SLT ISZERO PUSH2 0xA12 JUMPI PUSH1 0x0 DUP1 REVERT JUMPDEST PUSH1 0x0 PUSH2 0xA20 DUP5 DUP3 DUP6 ADD PUSH2 0x9D6 JUMP JUMPDEST SWAP2 POP POP SWAP3 SWAP2 POP POP JUMP JUMPDEST PUSH1 0x0 PUSH1 0x20 DUP3 DUP5 SUB SLT ISZERO PUSH2 0xA3B JUMPI PUSH1 0x0 DUP1 REVERT JUMPDEST PUSH1 0x0 PUSH2 0xA49 DUP5 DUP3 DUP6 ADD PUSH2 0x9EB JUMP JUMPDEST SWAP2 POP POP SWAP3 SWAP2 POP POP JUMP JUMPDEST PUSH2 0xA5B DUP2 PUSH2 0xC2E JUMP JUMPDEST DUP3 MSTORE POP POP JUMP JUMPDEST PUSH1 0x0 PUSH2 0xA6C DUP3 PUSH2 0xB7C JUMP JUMPDEST PUSH2 0xA76 DUP2 DUP6 PUSH2 0xB92 JUMP JUMPDEST SWAP4 POP PUSH2 0xA86 DUP2 DUP6 PUSH1 0x20 DUP7 ADD PUSH2 0xC6A JUMP JUMPDEST PUSH2 0xA8F DUP2 PUSH2 0xCFB JUMP JUMPDEST DUP5 ADD SWAP2 POP POP SWAP3 SWAP2 POP POP JUMP JUMPDEST PUSH1 0x0 PUSH2 0xAA7 PUSH1 0xA DUP4 PUSH2 0xB92 JUMP JUMPDEST SWAP2 POP PUSH2 0xAB2 DUP3 PUSH2 0xD0C JUMP JUMPDEST PUSH1 0x20 DUP3 ADD SWAP1 POP SWAP2 SWAP1 POP JUMP JUMPDEST PUSH1 0x0 PUSH2 0xACA PUSH1 0x0 DUP4 PUSH2 0xB87 JUMP JUMPDEST SWAP2 POP PUSH2 0xAD5 DUP3 PUSH2 0xD35 JUMP JUMPDEST PUSH1 0x0 DUP3 ADD SWAP1 POP SWAP2 SWAP1 POP JUMP JUMPDEST PUSH2 0xAE9 DUP2 PUSH2 0xC60 JUMP JUMPDEST DUP3 MSTORE POP POP JUMP JUMPDEST PUSH1 0x0 PUSH2 0xAFA DUP3 PUSH2 0xABD JUMP JUMPDEST SWAP2 POP DUP2 SWAP1 POP SWAP2 SWAP1 POP JUMP JUMPDEST PUSH1 0x0 PUSH1 0x20 DUP3 ADD SWAP1 POP PUSH2 0xB19 PUSH1 0x0 DUP4 ADD DUP5 PUSH2 0xA52 JUMP JUMPDEST SWAP3 SWAP2 POP POP JUMP JUMPDEST PUSH1 0x0 PUSH1 0x20 DUP3 ADD SWAP1 POP DUP2 DUP2 SUB PUSH1 0x0 DUP4 ADD MSTORE PUSH2 0xB39 DUP2 DUP5 PUSH2 0xA61 JUMP JUMPDEST SWAP1 POP SWAP3 SWAP2 POP POP JUMP JUMPDEST PUSH1 0x0 PUSH1 0x20 DUP3 ADD SWAP1 POP DUP2 DUP2 SUB PUSH1 0x0 DUP4 ADD MSTORE PUSH2 0xB5A DUP2 PUSH2 0xA9A JUMP JUMPDEST SWAP1 POP SWAP2 SWAP1 POP JUMP JUMPDEST PUSH1 0x0 PUSH1 0x20 DUP3 ADD SWAP1 POP PUSH2 0xB76 PUSH1 0x0 DUP4 ADD DUP5 PUSH2 0xAE0 JUMP JUMPDEST SWAP3 SWAP2 POP POP JUMP JUMPDEST PUSH1 0x0 DUP2 MLOAD SWAP1 POP SWAP2 SWAP1 POP JUMP JUMPDEST PUSH1 0x0 DUP2 SWAP1 POP SWAP3 SWAP2 POP POP JUMP JUMPDEST PUSH1 0x0 DUP3 DUP3 MSTORE PUSH1 0x20 DUP3 ADD SWAP1 POP SWAP3 SWAP2 POP POP JUMP JUMPDEST PUSH1 0x0 PUSH2 0xBAE DUP3 PUSH2 0xC60 JUMP JUMPDEST SWAP2 POP PUSH2 0xBB9 DUP4 PUSH2 0xC60 JUMP JUMPDEST SWAP3 POP DUP3 PUSH2 0xBC9 JUMPI PUSH2 0xBC8 PUSH2 0xCCC JUMP JUMPDEST JUMPDEST DUP3 DUP3 DIV SWAP1 POP SWAP3 SWAP2 POP POP JUMP JUMPDEST PUSH1 0x0 PUSH2 0xBDF DUP3 PUSH2 0xC60 JUMP JUMPDEST SWAP2 POP PUSH2 0xBEA DUP4 PUSH2 0xC60 JUMP JUMPDEST SWAP3 POP DUP2 PUSH32 0xFFFFFFFFFFFFFFFFFFFFFFFFFFFFFFFFFFFFFFFFFFFFFFFFFFFFFFFFFFFFFFFF DIV DUP4 GT DUP3 ISZERO ISZERO AND ISZERO PUSH2 0xC23 JUMPI PUSH2 0xC22 PUSH2 0xC9D JUMP JUMPDEST JUMPDEST DUP3 DUP3 MUL SWAP1 POP SWAP3 SWAP2 POP POP JUMP JUMPDEST PUSH1 0x0 PUSH2 0xC39 DUP3 PUSH2 0xC40 JUMP JUMPDEST SWAP1 POP SWAP2 SWAP1 POP JUMP JUMPDEST PUSH1 0x0 PUSH20 0xFFFFFFFFFFFFFFFFFFFFFFFFFFFFFFFFFFFFFFFF DUP3 AND SWAP1 POP SWAP2 SWAP1 POP JUMP JUMPDEST PUSH1 0x0 DUP2 SWAP1 POP SWAP2 SWAP1 POP JUMP JUMPDEST PUSH1 0x0 JUMPDEST DUP4 DUP2 LT ISZERO PUSH2 0xC88 JUMPI DUP1 DUP3 ADD MLOAD DUP2 DUP5 ADD MSTORE PUSH1 0x20 DUP2 ADD SWAP1 POP PUSH2 0xC6D JUMP JUMPDEST DUP4 DUP2 GT ISZERO PUSH2 0xC97 JUMPI PUSH1 0x0 DUP5 DUP5 ADD MSTORE JUMPDEST POP POP POP POP JUMP JUMPDEST PUSH32 0x4E487B7100000000000000000000000000000000000000000000000000000000 PUSH1 0x0 MSTORE PUSH1 0x11 PUSH1 0x4 MSTORE PUSH1 0x24 PUSH1 0x0 REVERT JUMPDEST PUSH32 0x4E487B7100000000000000000000000000000000000000000000000000000000 PUSH1 0x0 MSTORE PUSH1 0x12 PUSH1 0x4 MSTORE PUSH1 0x24 PUSH1 0x0 REVERT JUMPDEST PUSH1 0x0 PUSH1 0x1F NOT PUSH1 0x1F DUP4 ADD AND SWAP1 POP SWAP2 SWAP1 POP JUMP JUMPDEST PUSH32 0x7265736574466565282900000000000000000000000000000000000000000000 PUSH1 0x0 DUP3 ADD MSTORE POP JUMP JUMPDEST POP JUMP JUMPDEST PUSH2 0xD41 DUP2 PUSH2 0xC60 JUMP JUMPDEST DUP2 EQ PUSH2 0xD4C JUMPI PUSH1 0x0 DUP1 REVERT JUMPDEST POP JUMP INVALID LOG2 PUSH5 0x6970667358 0x22 SLT KECCAK256 XOR SHR 0xB9 SUB SWAP16 0xC2 STATICCALL 0xD3 0xDB SWAP5 SWAP11 DUP12 PUSH8 0x18A142D811CC5148 0xBD LT CALLDATALOAD 0xE2 0xC3 DUP12 0xE5 0x2D 0xB1 PC 0xCC PUSH5 0x736F6C6343 STOP ADDMOD MUL STOP CALLER "},"methodIdentifiers":{"FeeContract()":"207ccfea","callFee()":"90321e1a","epochLength()":"57d775f8","fee()":"ddca3f43","get()":"6d4ce63c","getDeveloperFee()":"77482b18","getFee()":"ced72f87","getHavenFee()":"b19929c3","h1Stored()":"2dcbf1c0","requiredReset()":"f5fa96e5","set(uint256)":"60fe47b1","storedData()":"2a1afcd9"}},"storageLayout":{"storage":[{"astId":210,"contract":"contracts/SimpleStorageWithDevAppFee.sol:SimpleStorageWithDevAppFee","label":"epochLength","offset":0,"slot":"0","type":"t_uint256"},{"astId":212,"contract":"contracts/SimpleStorageWithDevAppFee.sol:SimpleStorageWithDevAppFee","label":"requiredReset","offset":0,"slot":"1","type":"t_uint256"},{"astId":214,"contract":"contracts/SimpleStorageWithDevAppFee.sol:SimpleStorageWithDevAppFee","label":"fee","offset":0,"slot":"2","type":"t_uint256"},{"astId":332,"contract":"contracts/SimpleStorageWithDevAppFee.sol:SimpleStorageWithDevAppFee","label":"FeeContract","offset":0,"slot":"3","type":"t_address"},{"astId":334,"contract":"contracts/SimpleStorageWithDevAppFee.sol:SimpleStorageWithDevAppFee","label":"developerWallet","offset":0,"slot":"4","type":"t_address"},{"astId":959,"contract":"contracts/SimpleStorageWithDevAppFee.sol:SimpleStorageWithDevAppFee","label":"storedData","offset":0,"slot":"5","type":"t_uint256"},{"astId":961,"contract":"contracts/SimpleStorageWithDevAppFee.sol:SimpleStorageWithDevAppFee","label":"h1Stored","offset":0,"slot":"6","type":"t_uint256"}],"types":{"t_address":{"encoding":"inplace","label":"address","numberOfBytes":"20"},"t_uint256":{"encoding":"inplace","label":"uint256","numberOfBytes":"32"}}}}}}