{"contracts/H1DevelopedApplication.sol":{"H1DevelopedApplication":{"abi":[{"inputs":[{"internalType":"address","name":"_FeeContract","type":"address"},{"internalType":"address","name":"walletToCollectFees","type":"address"},{"internalType":"address","name":"havenOracle","type":"address"}],"stateMutability":"nonpayable","type":"constructor"},{"inputs":[],"name":"getDeveloperFee","outputs":[{"internalType":"uint256","name":"developerFee","type":"uint256"}],"stateMutability":"view","type":"function"},{"inputs":[],"name":"getHavenFee","outputs":[{"internalType":"uint256","name":"havenOneFee","type":"uint256"}],"stateMutability":"view","type":"function"},{"inputs":[],"name":"queryOracle","outputs":[{"internalType":"uint256","name":"total","type":"uint256"}],"stateMutability":"nonpayable","type":"function"}],"evm":{"bytecode":{"linkReferences":{},"object":"608060405234801561001057600080fd5b506040516107d73803806107d7833981810160405281019061003291906102bf565b61004c673ae3d9bdfb94e26b60c01b6102a760201b60201c565b61006667cc43cf7efdab234c60c01b6102a760201b60201c565b610080671cb28bc6094eb59660c01b6102a760201b60201c565b600073ffffffffffffffffffffffffffffffffffffffff168373ffffffffffffffffffffffffffffffffffffffff161415610175576100cf67c9322031f617eba660c01b6102a760201b60201c565b6100e967c674f3534dac2dec60c01b6102a760201b60201c565b61010367e0b5f08fd8dc49a660c01b6102a760201b60201c565b6040518060400160405280600381526020017f31323300000000000000000000000000000000000000000000000000000000008152506040517f08c379a000000000000000000000000000000000000000000000000000000000815260040161016c9190610347565b60405180910390fd5b61018f6757c913a2a8f4beff60c01b6102a760201b60201c565b6101a96790403cdde02533e860c01b6102a760201b60201c565b826000806101000a81548173ffffffffffffffffffffffffffffffffffffffff021916908373ffffffffffffffffffffffffffffffffffffffff160217905550610203671c87d02a3069b73360c01b6102a760201b60201c565b81600360006101000a81548173ffffffffffffffffffffffffffffffffffffffff021916908373ffffffffffffffffffffffffffffffffffffffff16021790555061025e67f1b3d5843e60ace360c01b6102a760201b60201c565b80600260006101000a81548173ffffffffffffffffffffffffffffffffffffffff021916908373ffffffffffffffffffffffffffffffffffffffff160217905550505050610412565b50565b6000815190506102b9816103fb565b92915050565b6000806000606084860312156102d457600080fd5b60006102e2868287016102aa565b93505060206102f3868287016102aa565b9250506040610304868287016102aa565b9150509250925092565b600061031982610369565b6103238185610374565b93506103338185602086016103b7565b61033c816103ea565b840191505092915050565b60006020820190508181036000830152610361818461030e565b905092915050565b600081519050919050565b600082825260208201905092915050565b600061039082610397565b9050919050565b600073ffffffffffffffffffffffffffffffffffffffff82169050919050565b60005b838110156103d55780820151818401526020810190506103ba565b838111156103e4576000848401525b50505050565b6000601f19601f8301169050919050565b61040481610385565b811461040f57600080fd5b50565b6103b6806104216000396000f3fe608060405234801561001057600080fd5b50600436106100415760003560e01c806326afe9801461004657806377482b1814610064578063b19929c314610082575b600080fd5b61004e6100a0565b60405161005b919061025b565b60405180910390f35b61006c610185565b604051610079919061025b565b60405180910390f35b61008a6101cf565b604051610097919061025b565b60405180910390f35b60006100b6672772a15b1fb5041f60c01b61020b565b6100ca679ee04777b6e0e4a760c01b61020b565b6100de672bf5ff48b2747c3d60c01b61020b565b600260009054906101000a900473ffffffffffffffffffffffffffffffffffffffff1673ffffffffffffffffffffffffffffffffffffffff16637eeda7036040518163ffffffff1660e01b8152600401602060405180830381600087803b15801561014857600080fd5b505af115801561015c573d6000803e3d6000fd5b505050506040513d601f19601f820116820180604052508101906101809190610223565b905090565b600061019b67c22e5faca129da0260c01b61020b565b6101af67316dd800befc263260c01b61020b565b6009600a6001546101c09190610276565b6101ca91906102a7565b905090565b60006101e567e9daee1b6c85c6be60c01b61020b565b6101f967d3427dbdc02d5a4d60c01b61020b565b600a476102069190610276565b905090565b50565b60008151905061021d81610369565b92915050565b60006020828403121561023557600080fd5b60006102438482850161020e565b91505092915050565b61025581610301565b82525050565b6000602082019050610270600083018461024c565b92915050565b600061028182610301565b915061028c83610301565b92508261029c5761029b61033a565b5b828204905092915050565b60006102b282610301565b91506102bd83610301565b9250817fffffffffffffffffffffffffffffffffffffffffffffffffffffffffffffffff04831182151516156102f6576102f561030b565b5b828202905092915050565b6000819050919050565b7f4e487b7100000000000000000000000000000000000000000000000000000000600052601160045260246000fd5b7f4e487b7100000000000000000000000000000000000000000000000000000000600052601260045260246000fd5b61037281610301565b811461037d57600080fd5b5056fea264697066735822122085cf8830799dc06a725925312f6cf87e9556995b2c50e5c1b65fc794edf1513964736f6c63430008020033","opcodes":"PUSH1 0x80 PUSH1 0x40 MSTORE CALLVALUE DUP1 ISZERO PUSH2 0x10 JUMPI PUSH1 0x0 DUP1 REVERT JUMPDEST POP PUSH1 0x40 MLOAD PUSH2 0x7D7 CODESIZE SUB DUP1 PUSH2 0x7D7 DUP4 CODECOPY DUP2 DUP2 ADD PUSH1 0x40 MSTORE DUP2 ADD SWAP1 PUSH2 0x32 SWAP2 SWAP1 PUSH2 0x2BF JUMP JUMPDEST PUSH2 0x4C PUSH8 0x3AE3D9BDFB94E26B PUSH1 0xC0 SHL PUSH2 0x2A7 PUSH1 0x20 SHL PUSH1 0x20 SHR JUMP JUMPDEST PUSH2 0x66 PUSH8 0xCC43CF7EFDAB234C PUSH1 0xC0 SHL PUSH2 0x2A7 PUSH1 0x20 SHL PUSH1 0x20 SHR JUMP JUMPDEST PUSH2 0x80 PUSH8 0x1CB28BC6094EB596 PUSH1 0xC0 SHL PUSH2 0x2A7 PUSH1 0x20 SHL PUSH1 0x20 SHR JUMP JUMPDEST PUSH1 0x0 PUSH20 0xFFFFFFFFFFFFFFFFFFFFFFFFFFFFFFFFFFFFFFFF AND DUP4 PUSH20 0xFFFFFFFFFFFFFFFFFFFFFFFFFFFFFFFFFFFFFFFF AND EQ ISZERO PUSH2 0x175 JUMPI PUSH2 0xCF PUSH8 0xC9322031F617EBA6 PUSH1 0xC0 SHL PUSH2 0x2A7 PUSH1 0x20 SHL PUSH1 0x20 SHR JUMP JUMPDEST PUSH2 0xE9 PUSH8 0xC674F3534DAC2DEC PUSH1 0xC0 SHL PUSH2 0x2A7 PUSH1 0x20 SHL PUSH1 0x20 SHR JUMP JUMPDEST PUSH2 0x103 PUSH8 0xE0B5F08FD8DC49A6 PUSH1 0xC0 SHL PUSH2 0x2A7 PUSH1 0x20 SHL PUSH1 0x20 SHR JUMP JUMPDEST PUSH1 0x40 MLOAD DUP1 PUSH1 0x40 ADD PUSH1 0x40 MSTORE DUP1 PUSH1 0x3 DUP2 MSTORE PUSH1 0x20 ADD PUSH32 0x3132330000000000000000000000000000000000000000000000000000000000 DUP2 MSTORE POP PUSH1 0x40 MLOAD PUSH32 0x8C379A000000000000000000000000000000000000000000000000000000000 DUP2 MSTORE PUSH1 0x4 ADD PUSH2 0x16C SWAP2 SWAP1 PUSH2 0x347 JUMP JUMPDEST PUSH1 0x40 MLOAD DUP1 SWAP2 SUB SWAP1 REVERT JUMPDEST PUSH2 0x18F PUSH8 0x57C913A2A8F4BEFF PUSH1 0xC0 SHL PUSH2 0x2A7 PUSH1 0x20 SHL PUSH1 0x20 SHR JUMP JUMPDEST PUSH2 0x1A9 PUSH8 0x90403CDDE02533E8 PUSH1 0xC0 SHL PUSH2 0x2A7 PUSH1 0x20 SHL PUSH1 0x20 SHR JUMP JUMPDEST DUP3 PUSH1 0x0 DUP1 PUSH2 0x100 EXP DUP2 SLOAD DUP2 PUSH20 0xFFFFFFFFFFFFFFFFFFFFFFFFFFFFFFFFFFFFFFFF MUL NOT AND SWAP1 DUP4 PUSH20 0xFFFFFFFFFFFFFFFFFFFFFFFFFFFFFFFFFFFFFFFF AND MUL OR SWAP1 SSTORE POP PUSH2 0x203 PUSH8 0x1C87D02A3069B733 PUSH1 0xC0 SHL PUSH2 0x2A7 PUSH1 0x20 SHL PUSH1 0x20 SHR JUMP JUMPDEST DUP2 PUSH1 0x3 PUSH1 0x0 PUSH2 0x100 EXP DUP2 SLOAD DUP2 PUSH20 0xFFFFFFFFFFFFFFFFFFFFFFFFFFFFFFFFFFFFFFFF MUL NOT AND SWAP1 DUP4 PUSH20 0xFFFFFFFFFFFFFFFFFFFFFFFFFFFFFFFFFFFFFFFF AND MUL OR SWAP1 SSTORE POP PUSH2 0x25E PUSH8 0xF1B3D5843E60ACE3 PUSH1 0xC0 SHL PUSH2 0x2A7 PUSH1 0x20 SHL PUSH1 0x20 SHR JUMP JUMPDEST DUP1 PUSH1 0x2 PUSH1 0x0 PUSH2 0x100 EXP DUP2 SLOAD DUP2 PUSH20 0xFFFFFFFFFFFFFFFFFFFFFFFFFFFFFFFFFFFFFFFF MUL NOT AND SWAP1 DUP4 PUSH20 0xFFFFFFFFFFFFFFFFFFFFFFFFFFFFFFFFFFFFFFFF AND MUL OR SWAP1 SSTORE POP POP POP POP PUSH2 0x412 JUMP JUMPDEST POP JUMP JUMPDEST PUSH1 0x0 DUP2 MLOAD SWAP1 POP PUSH2 0x2B9 DUP2 PUSH2 0x3FB JUMP JUMPDEST SWAP3 SWAP2 POP POP JUMP JUMPDEST PUSH1 0x0 DUP1 PUSH1 0x0 PUSH1 0x60 DUP5 DUP7 SUB SLT ISZERO PUSH2 0x2D4 JUMPI PUSH1 0x0 DUP1 REVERT JUMPDEST PUSH1 0x0 PUSH2 0x2E2 DUP7 DUP3 DUP8 ADD PUSH2 0x2AA JUMP JUMPDEST SWAP4 POP POP PUSH1 0x20 PUSH2 0x2F3 DUP7 DUP3 DUP8 ADD PUSH2 0x2AA JUMP JUMPDEST SWAP3 POP POP PUSH1 0x40 PUSH2 0x304 DUP7 DUP3 DUP8 ADD PUSH2 0x2AA JUMP JUMPDEST SWAP2 POP POP SWAP3 POP SWAP3 POP SWAP3 JUMP JUMPDEST PUSH1 0x0 PUSH2 0x319 DUP3 PUSH2 0x369 JUMP JUMPDEST PUSH2 0x323 DUP2 DUP6 PUSH2 0x374 JUMP JUMPDEST SWAP4 POP PUSH2 0x333 DUP2 DUP6 PUSH1 0x20 DUP7 ADD PUSH2 0x3B7 JUMP JUMPDEST PUSH2 0x33C DUP2 PUSH2 0x3EA JUMP JUMPDEST DUP5 ADD SWAP2 POP POP SWAP3 SWAP2 POP POP JUMP JUMPDEST PUSH1 0x0 PUSH1 0x20 DUP3 ADD SWAP1 POP DUP2 DUP2 SUB PUSH1 0x0 DUP4 ADD MSTORE PUSH2 0x361 DUP2 DUP5 PUSH2 0x30E JUMP JUMPDEST SWAP1 POP SWAP3 SWAP2 POP POP JUMP JUMPDEST PUSH1 0x0 DUP2 MLOAD SWAP1 POP SWAP2 SWAP1 POP JUMP JUMPDEST PUSH1 0x0 DUP3 DUP3 MSTORE PUSH1 0x20 DUP3 ADD SWAP1 POP SWAP3 SWAP2 POP POP JUMP JUMPDEST PUSH1 0x0 PUSH2 0x390 DUP3 PUSH2 0x397 JUMP JUMPDEST SWAP1 POP SWAP2 SWAP1 POP JUMP JUMPDEST PUSH1 0x0 PUSH20 0xFFFFFFFFFFFFFFFFFFFFFFFFFFFFFFFFFFFFFFFF DUP3 AND SWAP1 POP SWAP2 SWAP1 POP JUMP JUMPDEST PUSH1 0x0 JUMPDEST DUP4 DUP2 LT ISZERO PUSH2 0x3D5 JUMPI DUP1 DUP3 ADD MLOAD DUP2 DUP5 ADD MSTORE PUSH1 0x20 DUP2 ADD SWAP1 POP PUSH2 0x3BA JUMP JUMPDEST DUP4 DUP2 GT ISZERO PUSH2 0x3E4 JUMPI PUSH1 0x0 DUP5 DUP5 ADD MSTORE JUMPDEST POP POP POP POP JUMP JUMPDEST PUSH1 0x0 PUSH1 0x1F NOT PUSH1 0x1F DUP4 ADD AND SWAP1 POP SWAP2 SWAP1 POP JUMP JUMPDEST PUSH2 0x404 DUP2 PUSH2 0x385 JUMP JUMPDEST DUP2 EQ PUSH2 0x40F JUMPI PUSH1 0x0 DUP1 REVERT JUMPDEST POP JUMP JUMPDEST PUSH2 0x3B6 DUP1 PUSH2 0x421 PUSH1 0x0 CODECOPY PUSH1 0x0 RETURN INVALID PUSH1 0x80 PUSH1 0x40 MSTORE CALLVALUE DUP1 ISZERO PUSH2 0x10 JUMPI PUSH1 0x0 DUP1 REVERT JUMPDEST POP PUSH1 0x4 CALLDATASIZE LT PUSH2 0x41 JUMPI PUSH1 0x0 CALLDATALOAD PUSH1 0xE0 SHR DUP1 PUSH4 0x26AFE980 EQ PUSH2 0x46 JUMPI DUP1 PUSH4 0x77482B18 EQ PUSH2 0x64 JUMPI DUP1 PUSH4 0xB19929C3 EQ PUSH2 0x82 JUMPI JUMPDEST PUSH1 0x0 DUP1 REVERT JUMPDEST PUSH2 0x4E PUSH2 0xA0 JUMP JUMPDEST PUSH1 0x40 MLOAD PUSH2 0x5B SWAP2 SWAP1 PUSH2 0x25B JUMP JUMPDEST PUSH1 0x40 MLOAD DUP1 SWAP2 SUB SWAP1 RETURN JUMPDEST PUSH2 0x6C PUSH2 0x185 JUMP JUMPDEST PUSH1 0x40 MLOAD PUSH2 0x79 SWAP2 SWAP1 PUSH2 0x25B JUMP JUMPDEST PUSH1 0x40 MLOAD DUP1 SWAP2 SUB SWAP1 RETURN JUMPDEST PUSH2 0x8A PUSH2 0x1CF JUMP JUMPDEST PUSH1 0x40 MLOAD PUSH2 0x97 SWAP2 SWAP1 PUSH2 0x25B JUMP JUMPDEST PUSH1 0x40 MLOAD DUP1 SWAP2 SUB SWAP1 RETURN JUMPDEST PUSH1 0x0 PUSH2 0xB6 PUSH8 0x2772A15B1FB5041F PUSH1 0xC0 SHL PUSH2 0x20B JUMP JUMPDEST PUSH2 0xCA PUSH8 0x9EE04777B6E0E4A7 PUSH1 0xC0 SHL PUSH2 0x20B JUMP JUMPDEST PUSH2 0xDE PUSH8 0x2BF5FF48B2747C3D PUSH1 0xC0 SHL PUSH2 0x20B JUMP JUMPDEST PUSH1 0x2 PUSH1 0x0 SWAP1 SLOAD SWAP1 PUSH2 0x100 EXP SWAP1 DIV PUSH20 0xFFFFFFFFFFFFFFFFFFFFFFFFFFFFFFFFFFFFFFFF AND PUSH20 0xFFFFFFFFFFFFFFFFFFFFFFFFFFFFFFFFFFFFFFFF AND PUSH4 0x7EEDA703 PUSH1 0x40 MLOAD DUP2 PUSH4 0xFFFFFFFF AND PUSH1 0xE0 SHL DUP2 MSTORE PUSH1 0x4 ADD PUSH1 0x20 PUSH1 0x40 MLOAD DUP1 DUP4 SUB DUP2 PUSH1 0x0 DUP8 DUP1 EXTCODESIZE ISZERO DUP1 ISZERO PUSH2 0x148 JUMPI PUSH1 0x0 DUP1 REVERT JUMPDEST POP GAS CALL ISZERO DUP1 ISZERO PUSH2 0x15C JUMPI RETURNDATASIZE PUSH1 0x0 DUP1 RETURNDATACOPY RETURNDATASIZE PUSH1 0x0 REVERT JUMPDEST POP POP POP POP PUSH1 0x40 MLOAD RETURNDATASIZE PUSH1 0x1F NOT PUSH1 0x1F DUP3 ADD AND DUP3 ADD DUP1 PUSH1 0x40 MSTORE POP DUP2 ADD SWAP1 PUSH2 0x180 SWAP2 SWAP1 PUSH2 0x223 JUMP JUMPDEST SWAP1 POP SWAP1 JUMP JUMPDEST PUSH1 0x0 PUSH2 0x19B PUSH8 0xC22E5FACA129DA02 PUSH1 0xC0 SHL PUSH2 0x20B JUMP JUMPDEST PUSH2 0x1AF PUSH8 0x316DD800BEFC2632 PUSH1 0xC0 SHL PUSH2 0x20B JUMP JUMPDEST PUSH1 0x9 PUSH1 0xA PUSH1 0x1 SLOAD PUSH2 0x1C0 SWAP2 SWAP1 PUSH2 0x276 JUMP JUMPDEST PUSH2 0x1CA SWAP2 SWAP1 PUSH2 0x2A7 JUMP JUMPDEST SWAP1 POP SWAP1 JUMP JUMPDEST PUSH1 0x0 PUSH2 0x1E5 PUSH8 0xE9DAEE1B6C85C6BE PUSH1 0xC0 SHL PUSH2 0x20B JUMP JUMPDEST PUSH2 0x1F9 PUSH8 0xD3427DBDC02D5A4D PUSH1 0xC0 SHL PUSH2 0x20B JUMP JUMPDEST PUSH1 0xA SELFBALANCE PUSH2 0x206 SWAP2 SWAP1 PUSH2 0x276 JUMP JUMPDEST SWAP1 POP SWAP1 JUMP JUMPDEST POP JUMP JUMPDEST PUSH1 0x0 DUP2 MLOAD SWAP1 POP PUSH2 0x21D DUP2 PUSH2 0x369 JUMP JUMPDEST SWAP3 SWAP2 POP POP JUMP JUMPDEST PUSH1 0x0 PUSH1 0x20 DUP3 DUP5 SUB SLT ISZERO PUSH2 0x235 JUMPI PUSH1 0x0 DUP1 REVERT JUMPDEST PUSH1 0x0 PUSH2 0x243 DUP5 DUP3 DUP6 ADD PUSH2 0x20E JUMP JUMPDEST SWAP2 POP POP SWAP3 SWAP2 POP POP JUMP JUMPDEST PUSH2 0x255 DUP2 PUSH2 0x301 JUMP JUMPDEST DUP3 MSTORE POP POP JUMP JUMPDEST PUSH1 0x0 PUSH1 0x20 DUP3 ADD SWAP1 POP PUSH2 0x270 PUSH1 0x0 DUP4 ADD DUP5 PUSH2 0x24C JUMP JUMPDEST SWAP3 SWAP2 POP POP JUMP JUMPDEST PUSH1 0x0 PUSH2 0x281 DUP3 PUSH2 0x301 JUMP JUMPDEST SWAP2 POP PUSH2 0x28C DUP4 PUSH2 0x301 JUMP JUMPDEST SWAP3 POP DUP3 PUSH2 0x29C JUMPI PUSH2 0x29B PUSH2 0x33A JUMP JUMPDEST JUMPDEST DUP3 DUP3 DIV SWAP1 POP SWAP3 SWAP2 POP POP JUMP JUMPDEST PUSH1 0x0 PUSH2 0x2B2 DUP3 PUSH2 0x301 JUMP JUMPDEST SWAP2 POP PUSH2 0x2BD DUP4 PUSH2 0x301 JUMP JUMPDEST SWAP3 POP DUP2 PUSH32 0xFFFFFFFFFFFFFFFFFFFFFFFFFFFFFFFFFFFFFFFFFFFFFFFFFFFFFFFFFFFFFFFF DIV DUP4 GT DUP3 ISZERO ISZERO AND ISZERO PUSH2 0x2F6 JUMPI PUSH2 0x2F5 PUSH2 0x30B JUMP JUMPDEST JUMPDEST DUP3 DUP3 MUL SWAP1 POP SWAP3 SWAP2 POP POP JUMP JUMPDEST PUSH1 0x0 DUP2 SWAP1 POP SWAP2 SWAP1 POP JUMP JUMPDEST PUSH32 0x4E487B7100000000000000000000000000000000000000000000000000000000 PUSH1 0x0 MSTORE PUSH1 0x11 PUSH1 0x4 MSTORE PUSH1 0x24 PUSH1 0x0 REVERT JUMPDEST PUSH32 0x4E487B7100000000000000000000000000000000000000000000000000000000 PUSH1 0x0 MSTORE PUSH1 0x12 PUSH1 0x4 MSTORE PUSH1 0x24 PUSH1 0x0 REVERT JUMPDEST PUSH2 0x372 DUP2 PUSH2 0x301 JUMP JUMPDEST DUP2 EQ PUSH2 0x37D JUMPI PUSH1 0x0 DUP1 REVERT JUMPDEST POP JUMP INVALID LOG2 PUSH5 0x6970667358 0x22 SLT KECCAK256 DUP6 0xCF DUP9 ADDRESS PUSH26 0x9DC06A725925312F6CF87E9556995B2C50E5C1B65FC794EDF151 CODECOPY PUSH5 0x736F6C6343 STOP ADDMOD MUL STOP CALLER "},"methodIdentifiers":{"getDeveloperFee()":"77482b18","getHavenFee()":"b19929c3","queryOracle()":"26afe980"}},"storageLayout":{"storage":[{"astId":6257,"contract":"contracts/H1DevelopedApplication.sol:H1DevelopedApplication","label":"FeeContract","offset":0,"slot":"0","type":"t_address"},{"astId":6259,"contract":"contracts/H1DevelopedApplication.sol:H1DevelopedApplication","label":"feeAmount","offset":0,"slot":"1","type":"t_uint256"},{"astId":6261,"contract":"contracts/H1DevelopedApplication.sol:H1DevelopedApplication","label":"oracle","offset":0,"slot":"2","type":"t_address"},{"astId":6263,"contract":"contracts/H1DevelopedApplication.sol:H1DevelopedApplication","label":"developerWallet","offset":0,"slot":"3","type":"t_address"}],"types":{"t_address":{"encoding":"inplace","label":"address","numberOfBytes":"20"},"t_uint256":{"encoding":"inplace","label":"uint256","numberOfBytes":"32"}}}}}}