{"contracts/DUMMYDONOTDEPLOY.sol":{"FeeOracle":{"abi":[{"inputs":[],"name":"consult","outputs":[{"internalType":"uint256","name":"amountOut","type":"uint256"}],"stateMutability":"view","type":"function"},{"inputs":[],"name":"refreshOracle","outputs":[{"internalType":"bool","name":"success","type":"bool"}],"stateMutability":"nonpayable","type":"function"},{"inputs":[{"internalType":"uint256","name":"newPriceAverage","type":"uint256"}],"name":"setPriceAverage","outputs":[],"stateMutability":"nonpayable","type":"function"}],"evm":{"bytecode":{"linkReferences":{},"object":"6080604052600160005534801561001557600080fd5b50610301806100256000396000f3fe608060405234801561001057600080fd5b50600436106100415760003560e01c806356cb30c4146100465780637eeda70314610062578063e58456e914610080575b600080fd5b610060600480360381019061005b919061019c565b61009e565b005b61006a6100d0565b60405161007791906101fe565b60405180910390f35b610088610116565b60405161009591906101e3565b60405180910390f35b6100b267c0e391a82634818160c01b610184565b6100c6674847d7f8337fd7df60c01b610184565b8060008190555050565b60006100e6675b2adec7b1898d5660c01b610184565b6100fa67a4db7c073164fbb960c01b610184565b61010e6779d8631337a6731360c01b610184565b600054905090565b600061012c67074db7b0a1b75b2e60c01b610184565b610140672f2dd4b86dbfc17b60c01b610184565b600860015461014f9190610219565b60018190555061016967aed606def6b16b6f60c01b610184565b61017d67891cd70de31acf2860c01b610184565b6001905090565b50565b600081359050610196816102b4565b92915050565b6000602082840312156101ae57600080fd5b60006101bc84828501610187565b91505092915050565b6101ce8161026f565b82525050565b6101dd8161027b565b82525050565b60006020820190506101f860008301846101c5565b92915050565b600060208201905061021360008301846101d4565b92915050565b60006102248261027b565b915061022f8361027b565b9250827fffffffffffffffffffffffffffffffffffffffffffffffffffffffffffffffff0382111561026457610263610285565b5b828201905092915050565b60008115159050919050565b6000819050919050565b7f4e487b7100000000000000000000000000000000000000000000000000000000600052601160045260246000fd5b6102bd8161027b565b81146102c857600080fd5b5056fea264697066735822122020ec4b63be0d5b26640a0ae92a0f310d3c0ec92d6017416e1fd67e9921ff437c64736f6c63430008020033","opcodes":"PUSH1 0x80 PUSH1 0x40 MSTORE PUSH1 0x1 PUSH1 0x0 SSTORE CALLVALUE DUP1 ISZERO PUSH2 0x15 JUMPI PUSH1 0x0 DUP1 REVERT JUMPDEST POP PUSH2 0x301 DUP1 PUSH2 0x25 PUSH1 0x0 CODECOPY PUSH1 0x0 RETURN INVALID PUSH1 0x80 PUSH1 0x40 MSTORE CALLVALUE DUP1 ISZERO PUSH2 0x10 JUMPI PUSH1 0x0 DUP1 REVERT JUMPDEST POP PUSH1 0x4 CALLDATASIZE LT PUSH2 0x41 JUMPI PUSH1 0x0 CALLDATALOAD PUSH1 0xE0 SHR DUP1 PUSH4 0x56CB30C4 EQ PUSH2 0x46 JUMPI DUP1 PUSH4 0x7EEDA703 EQ PUSH2 0x62 JUMPI DUP1 PUSH4 0xE58456E9 EQ PUSH2 0x80 JUMPI JUMPDEST PUSH1 0x0 DUP1 REVERT JUMPDEST PUSH2 0x60 PUSH1 0x4 DUP1 CALLDATASIZE SUB DUP2 ADD SWAP1 PUSH2 0x5B SWAP2 SWAP1 PUSH2 0x19C JUMP JUMPDEST PUSH2 0x9E JUMP JUMPDEST STOP JUMPDEST PUSH2 0x6A PUSH2 0xD0 JUMP JUMPDEST PUSH1 0x40 MLOAD PUSH2 0x77 SWAP2 SWAP1 PUSH2 0x1FE JUMP JUMPDEST PUSH1 0x40 MLOAD DUP1 SWAP2 SUB SWAP1 RETURN JUMPDEST PUSH2 0x88 PUSH2 0x116 JUMP JUMPDEST PUSH1 0x40 MLOAD PUSH2 0x95 SWAP2 SWAP1 PUSH2 0x1E3 JUMP JUMPDEST PUSH1 0x40 MLOAD DUP1 SWAP2 SUB SWAP1 RETURN JUMPDEST PUSH2 0xB2 PUSH8 0xC0E391A826348181 PUSH1 0xC0 SHL PUSH2 0x184 JUMP JUMPDEST PUSH2 0xC6 PUSH8 0x4847D7F8337FD7DF PUSH1 0xC0 SHL PUSH2 0x184 JUMP JUMPDEST DUP1 PUSH1 0x0 DUP2 SWAP1 SSTORE POP POP JUMP JUMPDEST PUSH1 0x0 PUSH2 0xE6 PUSH8 0x5B2ADEC7B1898D56 PUSH1 0xC0 SHL PUSH2 0x184 JUMP JUMPDEST PUSH2 0xFA PUSH8 0xA4DB7C073164FBB9 PUSH1 0xC0 SHL PUSH2 0x184 JUMP JUMPDEST PUSH2 0x10E PUSH8 0x79D8631337A67313 PUSH1 0xC0 SHL PUSH2 0x184 JUMP JUMPDEST PUSH1 0x0 SLOAD SWAP1 POP SWAP1 JUMP JUMPDEST PUSH1 0x0 PUSH2 0x12C PUSH8 0x74DB7B0A1B75B2E PUSH1 0xC0 SHL PUSH2 0x184 JUMP JUMPDEST PUSH2 0x140 PUSH8 0x2F2DD4B86DBFC17B PUSH1 0xC0 SHL PUSH2 0x184 JUMP JUMPDEST PUSH1 0x8 PUSH1 0x1 SLOAD PUSH2 0x14F SWAP2 SWAP1 PUSH2 0x219 JUMP JUMPDEST PUSH1 0x1 DUP2 SWAP1 SSTORE POP PUSH2 0x169 PUSH8 0xAED606DEF6B16B6F PUSH1 0xC0 SHL PUSH2 0x184 JUMP JUMPDEST PUSH2 0x17D PUSH8 0x891CD70DE31ACF28 PUSH1 0xC0 SHL PUSH2 0x184 JUMP JUMPDEST PUSH1 0x1 SWAP1 POP SWAP1 JUMP JUMPDEST POP JUMP JUMPDEST PUSH1 0x0 DUP2 CALLDATALOAD SWAP1 POP PUSH2 0x196 DUP2 PUSH2 0x2B4 JUMP JUMPDEST SWAP3 SWAP2 POP POP JUMP JUMPDEST PUSH1 0x0 PUSH1 0x20 DUP3 DUP5 SUB SLT ISZERO PUSH2 0x1AE JUMPI PUSH1 0x0 DUP1 REVERT JUMPDEST PUSH1 0x0 PUSH2 0x1BC DUP5 DUP3 DUP6 ADD PUSH2 0x187 JUMP JUMPDEST SWAP2 POP POP SWAP3 SWAP2 POP POP JUMP JUMPDEST PUSH2 0x1CE DUP2 PUSH2 0x26F JUMP JUMPDEST DUP3 MSTORE POP POP JUMP JUMPDEST PUSH2 0x1DD DUP2 PUSH2 0x27B JUMP JUMPDEST DUP3 MSTORE POP POP JUMP JUMPDEST PUSH1 0x0 PUSH1 0x20 DUP3 ADD SWAP1 POP PUSH2 0x1F8 PUSH1 0x0 DUP4 ADD DUP5 PUSH2 0x1C5 JUMP JUMPDEST SWAP3 SWAP2 POP POP JUMP JUMPDEST PUSH1 0x0 PUSH1 0x20 DUP3 ADD SWAP1 POP PUSH2 0x213 PUSH1 0x0 DUP4 ADD DUP5 PUSH2 0x1D4 JUMP JUMPDEST SWAP3 SWAP2 POP POP JUMP JUMPDEST PUSH1 0x0 PUSH2 0x224 DUP3 PUSH2 0x27B JUMP JUMPDEST SWAP2 POP PUSH2 0x22F DUP4 PUSH2 0x27B JUMP JUMPDEST SWAP3 POP DUP3 PUSH32 0xFFFFFFFFFFFFFFFFFFFFFFFFFFFFFFFFFFFFFFFFFFFFFFFFFFFFFFFFFFFFFFFF SUB DUP3 GT ISZERO PUSH2 0x264 JUMPI PUSH2 0x263 PUSH2 0x285 JUMP JUMPDEST JUMPDEST DUP3 DUP3 ADD SWAP1 POP SWAP3 SWAP2 POP POP JUMP JUMPDEST PUSH1 0x0 DUP2 ISZERO ISZERO SWAP1 POP SWAP2 SWAP1 POP JUMP JUMPDEST PUSH1 0x0 DUP2 SWAP1 POP SWAP2 SWAP1 POP JUMP JUMPDEST PUSH32 0x4E487B7100000000000000000000000000000000000000000000000000000000 PUSH1 0x0 MSTORE PUSH1 0x11 PUSH1 0x4 MSTORE PUSH1 0x24 PUSH1 0x0 REVERT JUMPDEST PUSH2 0x2BD DUP2 PUSH2 0x27B JUMP JUMPDEST DUP2 EQ PUSH2 0x2C8 JUMPI PUSH1 0x0 DUP1 REVERT JUMPDEST POP JUMP INVALID LOG2 PUSH5 0x6970667358 0x22 SLT KECCAK256 KECCAK256 0xEC 0x4B PUSH4 0xBE0D5B26 PUSH5 0xA0AE92A0F BALANCE 0xD EXTCODECOPY 0xE 0xC9 0x2D PUSH1 0x17 COINBASE PUSH15 0x1FD67E9921FF437C64736F6C634300 ADDMOD MUL STOP CALLER "},"methodIdentifiers":{"consult()":"7eeda703","refreshOracle()":"e58456e9","setPriceAverage(uint256)":"56cb30c4"}},"storageLayout":{"storage":[{"astId":4255,"contract":"contracts/DUMMYDONOTDEPLOY.sol:FeeOracle","label":"priceAverage","offset":0,"slot":"0","type":"t_uint256"},{"astId":4257,"contract":"contracts/DUMMYDONOTDEPLOY.sol:FeeOracle","label":"justKeepAdding","offset":0,"slot":"1","type":"t_uint256"}],"types":{"t_uint256":{"encoding":"inplace","label":"uint256","numberOfBytes":"32"}}}}}}