{"contracts/SimpleStorageWithFee.sol":{"SimpleStorageWithFee":{"abi":[{"inputs":[{"internalType":"address","name":"_feeContract","type":"address"}],"stateMutability":"nonpayable","type":"constructor"},{"inputs":[],"name":"FeeQueryNative","outputs":[{"internalType":"contract FeeQuery","name":"","type":"address"}],"stateMutability":"view","type":"function"},{"inputs":[],"name":"callFee","outputs":[{"internalType":"uint256","name":"","type":"uint256"}],"stateMutability":"view","type":"function"},{"inputs":[],"name":"epochLength","outputs":[{"internalType":"uint256","name":"","type":"uint256"}],"stateMutability":"view","type":"function"},{"inputs":[],"name":"fee","outputs":[{"internalType":"uint256","name":"","type":"uint256"}],"stateMutability":"view","type":"function"},{"inputs":[],"name":"get","outputs":[{"internalType":"uint256","name":"retVal","type":"uint256"}],"stateMutability":"view","type":"function"},{"inputs":[],"name":"getFee","outputs":[{"internalType":"uint256","name":"","type":"uint256"}],"stateMutability":"view","type":"function"},{"inputs":[],"name":"h1Stored","outputs":[{"internalType":"uint256","name":"","type":"uint256"}],"stateMutability":"view","type":"function"},{"inputs":[],"name":"requiredReset","outputs":[{"internalType":"uint256","name":"","type":"uint256"}],"stateMutability":"view","type":"function"},{"inputs":[{"internalType":"uint256","name":"x","type":"uint256"}],"name":"set","outputs":[],"stateMutability":"payable","type":"function"},{"inputs":[],"name":"storedData","outputs":[{"internalType":"uint256","name":"","type":"uint256"}],"stateMutability":"view","type":"function"}],"evm":{"bytecode":{"linkReferences":{},"object":"60806040523480156200001157600080fd5b5060405162000eb038038062000eb08339818101604052810190620000379190620002c7565b806200005467924dcbdeb069767460c01b620002aa60201b60201c565b6200007067111a410acca6edcf60c01b620002aa60201b60201c565b6200008c6734a3a8c7780e275e60c01b620002aa60201b60201c565b600073ffffffffffffffffffffffffffffffffffffffff168173ffffffffffffffffffffffffffffffffffffffff1614156200018a57620000de6795449ce6ec5e069a60c01b620002aa60201b60201c565b620000fa67ec719e5f166cee7060c01b620002aa60201b60201c565b620001166732dfdc40ad8d92be60c01b620002aa60201b60201c565b6040518060400160405280600381526020017f31323300000000000000000000000000000000000000000000000000000000008152506040517f08c379a000000000000000000000000000000000000000000000000000000000815260040162000181919062000334565b60405180910390fd5b620001a66775fd9e78a75cc41860c01b620002aa60201b60201c565b620001c2678838e58e250cdc6660c01b620002aa60201b60201c565b80600360006101000a81548173ffffffffffffffffffffffffffffffffffffffff021916908373ffffffffffffffffffffffffffffffffffffffff1602179055506200021f6738e9f8a274588bab60c01b620002aa60201b60201c565b80600460006101000a81548173ffffffffffffffffffffffffffffffffffffffff021916908373ffffffffffffffffffffffffffffffffffffffff1602179055506200027c673fb9a376e61d80c860c01b620002aa60201b60201c565b6201518060008190555050620002a367f7a300ca3d09eee760c01b620002ad60201b60201c565b5062000409565b50565b50565b600081519050620002c181620003ef565b92915050565b600060208284031215620002da57600080fd5b6000620002ea84828501620002b0565b91505092915050565b6000620003008262000358565b6200030c818562000363565b93506200031e818560208601620003a8565b6200032981620003de565b840191505092915050565b60006020820190508181036000830152620003508184620002f3565b905092915050565b600081519050919050565b600082825260208201905092915050565b6000620003818262000388565b9050919050565b600073ffffffffffffffffffffffffffffffffffffffff82169050919050565b60005b83811015620003c8578082015181840152602081019050620003ab565b83811115620003d8576000848401525b50505050565b6000601f19601f8301169050919050565b620003fa8162000374565b81146200040657600080fd5b50565b610a9780620004196000396000f3fe6080604052600436106100915760003560e01c806390321e1a1161005957806390321e1a1461015e578063ab407bb614610189578063ced72f87146101b4578063ddca3f43146101df578063f5fa96e51461020a57610091565b80632a1afcd9146100965780632dcbf1c0146100c157806357d775f8146100ec57806360fe47b1146101175780636d4ce63c14610133575b600080fd5b3480156100a257600080fd5b506100ab610235565b6040516100b89190610942565b60405180910390f35b3480156100cd57600080fd5b506100d661023b565b6040516100e39190610942565b60405180910390f35b3480156100f857600080fd5b50610101610241565b60405161010e9190610942565b60405180910390f35b610131600480360381019061012c91906107d1565b610247565b005b34801561013f57600080fd5b50610148610512565b6040516101559190610942565b60405180910390f35b34801561016a57600080fd5b50610173610558565b6040516101809190610942565b60405180910390f35b34801561019557600080fd5b5061019e610669565b6040516101ab91906108e5565b60405180910390f35b3480156101c057600080fd5b506101c961068f565b6040516101d69190610942565b60405180910390f35b3480156101eb57600080fd5b506101f4610792565b6040516102019190610942565b60405180910390f35b34801561021657600080fd5b5061021f610798565b60405161022c9190610942565b60405180910390f35b60055481565b60065481565b60005481565b61025b67dd0de618084367d760c01b61079e565b61026f677e2eeec893e065c260c01b6107a1565b6102836776ccba1177afc08760c01b6107a1565b6102976783a180d24a206f1a60c01b6107a1565b61029f610558565b341080156102b4575060006102b2610558565b115b15610367576102cd674721ffdb6942706460c01b6107a1565b6102e1675f657bd19e48d0eb60c01b6107a1565b6102f567e84559ea25e318ee60c01b6107a1565b6040518060400160405280600381526020017f31323500000000000000000000000000000000000000000000000000000000008152506040517f08c379a000000000000000000000000000000000000000000000000000000000815260040161035e9190610900565b60405180910390fd5b61037b67ce0e9487806c2a8760c01b6107a1565b61038f675f33f19d9bd6e76460c01b6107a1565b6103a367f69d5bf1e59f78b360c01b6107a1565b6000600360009054906101000a900473ffffffffffffffffffffffffffffffffffffffff1673ffffffffffffffffffffffffffffffffffffffff166002546040516024016040516020818303038152906040527fa3e76c0f000000000000000000000000000000000000000000000000000000007bffffffffffffffffffffffffffffffffffffffffffffffffffffffff19166020820180517bffffffffffffffffffffffffffffffffffffffffffffffffffffffff838183161783525050505060405161047191906108ce565b60006040518083038185875af1925050503d80600081146104ae576040519150601f19603f3d011682016040523d82523d6000602084013e6104b3565b606091505b505090506104cb67f593b98ad4a8d6ae60c01b6107a1565b6104df67fb2697dd6cb839a160c01b61079e565b6104f3670fde308e2b8495ef60c01b61079e565b61050767afa967c3c7d68dfc60c01b61079e565b816005819055505050565b60006105286782ea6ccb5afc285160c01b61079e565b61053c679f3d6d10294694ce60c01b61079e565b61055067291ef51006c362bd60c01b61079e565b600554905090565b600061056e671486868452fb1b6760c01b6107a1565b61058267e66fdbe2166efb0660c01b6107a1565b610596671b49bbbc39daaa7260c01b6107a1565b6000600360009054906101000a900473ffffffffffffffffffffffffffffffffffffffff1673ffffffffffffffffffffffffffffffffffffffff1663ced72f876040518163ffffffff1660e01b815260040160206040518083038186803b15801561060057600080fd5b505afa158015610614573d6000803e3d6000fd5b505050506040513d601f19601f8201168201806040525081019061063891906107fa565b905061064e6704863258c18b456b60c01b6107a1565b61066267c626e8b6cbb3847f60c01b6107a1565b8091505090565b600460009054906101000a900473ffffffffffffffffffffffffffffffffffffffff1681565b60006106a567eb1b54e909ec2d3560c01b6107a4565b6106b967ee820581ba1ab36760c01b6107a4565b6106cd672a1ce9267ec3da9c60c01b6107a4565b42600154101561074e576106eb67c59878417f2a2a4260c01b6107a4565b6106ff67ac19e5d73e78a64660c01b6107a4565b6107136742d607b9ea73dd2460c01b6107a4565b6040517f08c379a000000000000000000000000000000000000000000000000000000000815260040161074590610922565b60405180910390fd5b61076267b2196b2cb2b702e660c01b6107a4565b6107766761f3f0929a6a3e1060c01b6107a4565b61078a67adb48ccdef7e6a4560c01b6107a4565b600254905090565b60025481565b60015481565b50565b50565b50565b6000813590506107b681610a4a565b92915050565b6000815190506107cb81610a4a565b92915050565b6000602082840312156107e357600080fd5b60006107f1848285016107a7565b91505092915050565b60006020828403121561080c57600080fd5b600061081a848285016107bc565b91505092915050565b600061082e8261095d565b6108388185610973565b93506108488185602086016109dd565b80840191505092915050565b61085d816109b9565b82525050565b600061086e82610968565b610878818561097e565b93506108888185602086016109dd565b61089181610a10565b840191505092915050565b60006108a9600a8361097e565b91506108b482610a21565b602082019050919050565b6108c8816109af565b82525050565b60006108da8284610823565b915081905092915050565b60006020820190506108fa6000830184610854565b92915050565b6000602082019050818103600083015261091a8184610863565b905092915050565b6000602082019050818103600083015261093b8161089c565b9050919050565b600060208201905061095760008301846108bf565b92915050565b600081519050919050565b600081519050919050565b600081905092915050565b600082825260208201905092915050565b600073ffffffffffffffffffffffffffffffffffffffff82169050919050565b6000819050919050565b60006109c4826109cb565b9050919050565b60006109d68261098f565b9050919050565b60005b838110156109fb5780820151818401526020810190506109e0565b83811115610a0a576000848401525b50505050565b6000601f19601f8301169050919050565b7f7265736574466565282900000000000000000000000000000000000000000000600082015250565b610a53816109af565b8114610a5e57600080fd5b5056fea2646970667358221220d998ba45ce0d28f24223f8bd758cd5d54579988938442f30a2fd411fb9b5ef9464736f6c63430008020033","opcodes":"PUSH1 0x80 PUSH1 0x40 MSTORE CALLVALUE DUP1 ISZERO PUSH3 0x11 JUMPI PUSH1 0x0 DUP1 REVERT JUMPDEST POP PUSH1 0x40 MLOAD PUSH3 0xEB0 CODESIZE SUB DUP1 PUSH3 0xEB0 DUP4 CODECOPY DUP2 DUP2 ADD PUSH1 0x40 MSTORE DUP2 ADD SWAP1 PUSH3 0x37 SWAP2 SWAP1 PUSH3 0x2C7 JUMP JUMPDEST DUP1 PUSH3 0x54 PUSH8 0x924DCBDEB0697674 PUSH1 0xC0 SHL PUSH3 0x2AA PUSH1 0x20 SHL PUSH1 0x20 SHR JUMP JUMPDEST PUSH3 0x70 PUSH8 0x111A410ACCA6EDCF PUSH1 0xC0 SHL PUSH3 0x2AA PUSH1 0x20 SHL PUSH1 0x20 SHR JUMP JUMPDEST PUSH3 0x8C PUSH8 0x34A3A8C7780E275E PUSH1 0xC0 SHL PUSH3 0x2AA PUSH1 0x20 SHL PUSH1 0x20 SHR JUMP JUMPDEST PUSH1 0x0 PUSH20 0xFFFFFFFFFFFFFFFFFFFFFFFFFFFFFFFFFFFFFFFF AND DUP2 PUSH20 0xFFFFFFFFFFFFFFFFFFFFFFFFFFFFFFFFFFFFFFFF AND EQ ISZERO PUSH3 0x18A JUMPI PUSH3 0xDE PUSH8 0x95449CE6EC5E069A PUSH1 0xC0 SHL PUSH3 0x2AA PUSH1 0x20 SHL PUSH1 0x20 SHR JUMP JUMPDEST PUSH3 0xFA PUSH8 0xEC719E5F166CEE70 PUSH1 0xC0 SHL PUSH3 0x2AA PUSH1 0x20 SHL PUSH1 0x20 SHR JUMP JUMPDEST PUSH3 0x116 PUSH8 0x32DFDC40AD8D92BE PUSH1 0xC0 SHL PUSH3 0x2AA PUSH1 0x20 SHL PUSH1 0x20 SHR JUMP JUMPDEST PUSH1 0x40 MLOAD DUP1 PUSH1 0x40 ADD PUSH1 0x40 MSTORE DUP1 PUSH1 0x3 DUP2 MSTORE PUSH1 0x20 ADD PUSH32 0x3132330000000000000000000000000000000000000000000000000000000000 DUP2 MSTORE POP PUSH1 0x40 MLOAD PUSH32 0x8C379A000000000000000000000000000000000000000000000000000000000 DUP2 MSTORE PUSH1 0x4 ADD PUSH3 0x181 SWAP2 SWAP1 PUSH3 0x334 JUMP JUMPDEST PUSH1 0x40 MLOAD DUP1 SWAP2 SUB SWAP1 REVERT JUMPDEST PUSH3 0x1A6 PUSH8 0x75FD9E78A75CC418 PUSH1 0xC0 SHL PUSH3 0x2AA PUSH1 0x20 SHL PUSH1 0x20 SHR JUMP JUMPDEST PUSH3 0x1C2 PUSH8 0x8838E58E250CDC66 PUSH1 0xC0 SHL PUSH3 0x2AA PUSH1 0x20 SHL PUSH1 0x20 SHR JUMP JUMPDEST DUP1 PUSH1 0x3 PUSH1 0x0 PUSH2 0x100 EXP DUP2 SLOAD DUP2 PUSH20 0xFFFFFFFFFFFFFFFFFFFFFFFFFFFFFFFFFFFFFFFF MUL NOT AND SWAP1 DUP4 PUSH20 0xFFFFFFFFFFFFFFFFFFFFFFFFFFFFFFFFFFFFFFFF AND MUL OR SWAP1 SSTORE POP PUSH3 0x21F PUSH8 0x38E9F8A274588BAB PUSH1 0xC0 SHL PUSH3 0x2AA PUSH1 0x20 SHL PUSH1 0x20 SHR JUMP JUMPDEST DUP1 PUSH1 0x4 PUSH1 0x0 PUSH2 0x100 EXP DUP2 SLOAD DUP2 PUSH20 0xFFFFFFFFFFFFFFFFFFFFFFFFFFFFFFFFFFFFFFFF MUL NOT AND SWAP1 DUP4 PUSH20 0xFFFFFFFFFFFFFFFFFFFFFFFFFFFFFFFFFFFFFFFF AND MUL OR SWAP1 SSTORE POP PUSH3 0x27C PUSH8 0x3FB9A376E61D80C8 PUSH1 0xC0 SHL PUSH3 0x2AA PUSH1 0x20 SHL PUSH1 0x20 SHR JUMP JUMPDEST PUSH3 0x15180 PUSH1 0x0 DUP2 SWAP1 SSTORE POP POP PUSH3 0x2A3 PUSH8 0xF7A300CA3D09EEE7 PUSH1 0xC0 SHL PUSH3 0x2AD PUSH1 0x20 SHL PUSH1 0x20 SHR JUMP JUMPDEST POP PUSH3 0x409 JUMP JUMPDEST POP JUMP JUMPDEST POP JUMP JUMPDEST PUSH1 0x0 DUP2 MLOAD SWAP1 POP PUSH3 0x2C1 DUP2 PUSH3 0x3EF JUMP JUMPDEST SWAP3 SWAP2 POP POP JUMP JUMPDEST PUSH1 0x0 PUSH1 0x20 DUP3 DUP5 SUB SLT ISZERO PUSH3 0x2DA JUMPI PUSH1 0x0 DUP1 REVERT JUMPDEST PUSH1 0x0 PUSH3 0x2EA DUP5 DUP3 DUP6 ADD PUSH3 0x2B0 JUMP JUMPDEST SWAP2 POP POP SWAP3 SWAP2 POP POP JUMP JUMPDEST PUSH1 0x0 PUSH3 0x300 DUP3 PUSH3 0x358 JUMP JUMPDEST PUSH3 0x30C DUP2 DUP6 PUSH3 0x363 JUMP JUMPDEST SWAP4 POP PUSH3 0x31E DUP2 DUP6 PUSH1 0x20 DUP7 ADD PUSH3 0x3A8 JUMP JUMPDEST PUSH3 0x329 DUP2 PUSH3 0x3DE JUMP JUMPDEST DUP5 ADD SWAP2 POP POP SWAP3 SWAP2 POP POP JUMP JUMPDEST PUSH1 0x0 PUSH1 0x20 DUP3 ADD SWAP1 POP DUP2 DUP2 SUB PUSH1 0x0 DUP4 ADD MSTORE PUSH3 0x350 DUP2 DUP5 PUSH3 0x2F3 JUMP JUMPDEST SWAP1 POP SWAP3 SWAP2 POP POP JUMP JUMPDEST PUSH1 0x0 DUP2 MLOAD SWAP1 POP SWAP2 SWAP1 POP JUMP JUMPDEST PUSH1 0x0 DUP3 DUP3 MSTORE PUSH1 0x20 DUP3 ADD SWAP1 POP SWAP3 SWAP2 POP POP JUMP JUMPDEST PUSH1 0x0 PUSH3 0x381 DUP3 PUSH3 0x388 JUMP JUMPDEST SWAP1 POP SWAP2 SWAP1 POP JUMP JUMPDEST PUSH1 0x0 PUSH20 0xFFFFFFFFFFFFFFFFFFFFFFFFFFFFFFFFFFFFFFFF DUP3 AND SWAP1 POP SWAP2 SWAP1 POP JUMP JUMPDEST PUSH1 0x0 JUMPDEST DUP4 DUP2 LT ISZERO PUSH3 0x3C8 JUMPI DUP1 DUP3 ADD MLOAD DUP2 DUP5 ADD MSTORE PUSH1 0x20 DUP2 ADD SWAP1 POP PUSH3 0x3AB JUMP JUMPDEST DUP4 DUP2 GT ISZERO PUSH3 0x3D8 JUMPI PUSH1 0x0 DUP5 DUP5 ADD MSTORE JUMPDEST POP POP POP POP JUMP JUMPDEST PUSH1 0x0 PUSH1 0x1F NOT PUSH1 0x1F DUP4 ADD AND SWAP1 POP SWAP2 SWAP1 POP JUMP JUMPDEST PUSH3 0x3FA DUP2 PUSH3 0x374 JUMP JUMPDEST DUP2 EQ PUSH3 0x406 JUMPI PUSH1 0x0 DUP1 REVERT JUMPDEST POP JUMP JUMPDEST PUSH2 0xA97 DUP1 PUSH3 0x419 PUSH1 0x0 CODECOPY PUSH1 0x0 RETURN INVALID PUSH1 0x80 PUSH1 0x40 MSTORE PUSH1 0x4 CALLDATASIZE LT PUSH2 0x91 JUMPI PUSH1 0x0 CALLDATALOAD PUSH1 0xE0 SHR DUP1 PUSH4 0x90321E1A GT PUSH2 0x59 JUMPI DUP1 PUSH4 0x90321E1A EQ PUSH2 0x15E JUMPI DUP1 PUSH4 0xAB407BB6 EQ PUSH2 0x189 JUMPI DUP1 PUSH4 0xCED72F87 EQ PUSH2 0x1B4 JUMPI DUP1 PUSH4 0xDDCA3F43 EQ PUSH2 0x1DF JUMPI DUP1 PUSH4 0xF5FA96E5 EQ PUSH2 0x20A JUMPI PUSH2 0x91 JUMP JUMPDEST DUP1 PUSH4 0x2A1AFCD9 EQ PUSH2 0x96 JUMPI DUP1 PUSH4 0x2DCBF1C0 EQ PUSH2 0xC1 JUMPI DUP1 PUSH4 0x57D775F8 EQ PUSH2 0xEC JUMPI DUP1 PUSH4 0x60FE47B1 EQ PUSH2 0x117 JUMPI DUP1 PUSH4 0x6D4CE63C EQ PUSH2 0x133 JUMPI JUMPDEST PUSH1 0x0 DUP1 REVERT JUMPDEST CALLVALUE DUP1 ISZERO PUSH2 0xA2 JUMPI PUSH1 0x0 DUP1 REVERT JUMPDEST POP PUSH2 0xAB PUSH2 0x235 JUMP JUMPDEST PUSH1 0x40 MLOAD PUSH2 0xB8 SWAP2 SWAP1 PUSH2 0x942 JUMP JUMPDEST PUSH1 0x40 MLOAD DUP1 SWAP2 SUB SWAP1 RETURN JUMPDEST CALLVALUE DUP1 ISZERO PUSH2 0xCD JUMPI PUSH1 0x0 DUP1 REVERT JUMPDEST POP PUSH2 0xD6 PUSH2 0x23B JUMP JUMPDEST PUSH1 0x40 MLOAD PUSH2 0xE3 SWAP2 SWAP1 PUSH2 0x942 JUMP JUMPDEST PUSH1 0x40 MLOAD DUP1 SWAP2 SUB SWAP1 RETURN JUMPDEST CALLVALUE DUP1 ISZERO PUSH2 0xF8 JUMPI PUSH1 0x0 DUP1 REVERT JUMPDEST POP PUSH2 0x101 PUSH2 0x241 JUMP JUMPDEST PUSH1 0x40 MLOAD PUSH2 0x10E SWAP2 SWAP1 PUSH2 0x942 JUMP JUMPDEST PUSH1 0x40 MLOAD DUP1 SWAP2 SUB SWAP1 RETURN JUMPDEST PUSH2 0x131 PUSH1 0x4 DUP1 CALLDATASIZE SUB DUP2 ADD SWAP1 PUSH2 0x12C SWAP2 SWAP1 PUSH2 0x7D1 JUMP JUMPDEST PUSH2 0x247 JUMP JUMPDEST STOP JUMPDEST CALLVALUE DUP1 ISZERO PUSH2 0x13F JUMPI PUSH1 0x0 DUP1 REVERT JUMPDEST POP PUSH2 0x148 PUSH2 0x512 JUMP JUMPDEST PUSH1 0x40 MLOAD PUSH2 0x155 SWAP2 SWAP1 PUSH2 0x942 JUMP JUMPDEST PUSH1 0x40 MLOAD DUP1 SWAP2 SUB SWAP1 RETURN JUMPDEST CALLVALUE DUP1 ISZERO PUSH2 0x16A JUMPI PUSH1 0x0 DUP1 REVERT JUMPDEST POP PUSH2 0x173 PUSH2 0x558 JUMP JUMPDEST PUSH1 0x40 MLOAD PUSH2 0x180 SWAP2 SWAP1 PUSH2 0x942 JUMP JUMPDEST PUSH1 0x40 MLOAD DUP1 SWAP2 SUB SWAP1 RETURN JUMPDEST CALLVALUE DUP1 ISZERO PUSH2 0x195 JUMPI PUSH1 0x0 DUP1 REVERT JUMPDEST POP PUSH2 0x19E PUSH2 0x669 JUMP JUMPDEST PUSH1 0x40 MLOAD PUSH2 0x1AB SWAP2 SWAP1 PUSH2 0x8E5 JUMP JUMPDEST PUSH1 0x40 MLOAD DUP1 SWAP2 SUB SWAP1 RETURN JUMPDEST CALLVALUE DUP1 ISZERO PUSH2 0x1C0 JUMPI PUSH1 0x0 DUP1 REVERT JUMPDEST POP PUSH2 0x1C9 PUSH2 0x68F JUMP JUMPDEST PUSH1 0x40 MLOAD PUSH2 0x1D6 SWAP2 SWAP1 PUSH2 0x942 JUMP JUMPDEST PUSH1 0x40 MLOAD DUP1 SWAP2 SUB SWAP1 RETURN JUMPDEST CALLVALUE DUP1 ISZERO PUSH2 0x1EB JUMPI PUSH1 0x0 DUP1 REVERT JUMPDEST POP PUSH2 0x1F4 PUSH2 0x792 JUMP JUMPDEST PUSH1 0x40 MLOAD PUSH2 0x201 SWAP2 SWAP1 PUSH2 0x942 JUMP JUMPDEST PUSH1 0x40 MLOAD DUP1 SWAP2 SUB SWAP1 RETURN JUMPDEST CALLVALUE DUP1 ISZERO PUSH2 0x216 JUMPI PUSH1 0x0 DUP1 REVERT JUMPDEST POP PUSH2 0x21F PUSH2 0x798 JUMP JUMPDEST PUSH1 0x40 MLOAD PUSH2 0x22C SWAP2 SWAP1 PUSH2 0x942 JUMP JUMPDEST PUSH1 0x40 MLOAD DUP1 SWAP2 SUB SWAP1 RETURN JUMPDEST PUSH1 0x5 SLOAD DUP2 JUMP JUMPDEST PUSH1 0x6 SLOAD DUP2 JUMP JUMPDEST PUSH1 0x0 SLOAD DUP2 JUMP JUMPDEST PUSH2 0x25B PUSH8 0xDD0DE618084367D7 PUSH1 0xC0 SHL PUSH2 0x79E JUMP JUMPDEST PUSH2 0x26F PUSH8 0x7E2EEEC893E065C2 PUSH1 0xC0 SHL PUSH2 0x7A1 JUMP JUMPDEST PUSH2 0x283 PUSH8 0x76CCBA1177AFC087 PUSH1 0xC0 SHL PUSH2 0x7A1 JUMP JUMPDEST PUSH2 0x297 PUSH8 0x83A180D24A206F1A PUSH1 0xC0 SHL PUSH2 0x7A1 JUMP JUMPDEST PUSH2 0x29F PUSH2 0x558 JUMP JUMPDEST CALLVALUE LT DUP1 ISZERO PUSH2 0x2B4 JUMPI POP PUSH1 0x0 PUSH2 0x2B2 PUSH2 0x558 JUMP JUMPDEST GT JUMPDEST ISZERO PUSH2 0x367 JUMPI PUSH2 0x2CD PUSH8 0x4721FFDB69427064 PUSH1 0xC0 SHL PUSH2 0x7A1 JUMP JUMPDEST PUSH2 0x2E1 PUSH8 0x5F657BD19E48D0EB PUSH1 0xC0 SHL PUSH2 0x7A1 JUMP JUMPDEST PUSH2 0x2F5 PUSH8 0xE84559EA25E318EE PUSH1 0xC0 SHL PUSH2 0x7A1 JUMP JUMPDEST PUSH1 0x40 MLOAD DUP1 PUSH1 0x40 ADD PUSH1 0x40 MSTORE DUP1 PUSH1 0x3 DUP2 MSTORE PUSH1 0x20 ADD PUSH32 0x3132350000000000000000000000000000000000000000000000000000000000 DUP2 MSTORE POP PUSH1 0x40 MLOAD PUSH32 0x8C379A000000000000000000000000000000000000000000000000000000000 DUP2 MSTORE PUSH1 0x4 ADD PUSH2 0x35E SWAP2 SWAP1 PUSH2 0x900 JUMP JUMPDEST PUSH1 0x40 MLOAD DUP1 SWAP2 SUB SWAP1 REVERT JUMPDEST PUSH2 0x37B PUSH8 0xCE0E9487806C2A87 PUSH1 0xC0 SHL PUSH2 0x7A1 JUMP JUMPDEST PUSH2 0x38F PUSH8 0x5F33F19D9BD6E764 PUSH1 0xC0 SHL PUSH2 0x7A1 JUMP JUMPDEST PUSH2 0x3A3 PUSH8 0xF69D5BF1E59F78B3 PUSH1 0xC0 SHL PUSH2 0x7A1 JUMP JUMPDEST PUSH1 0x0 PUSH1 0x3 PUSH1 0x0 SWAP1 SLOAD SWAP1 PUSH2 0x100 EXP SWAP1 DIV PUSH20 0xFFFFFFFFFFFFFFFFFFFFFFFFFFFFFFFFFFFFFFFF AND PUSH20 0xFFFFFFFFFFFFFFFFFFFFFFFFFFFFFFFFFFFFFFFF AND PUSH1 0x2 SLOAD PUSH1 0x40 MLOAD PUSH1 0x24 ADD PUSH1 0x40 MLOAD PUSH1 0x20 DUP2 DUP4 SUB SUB DUP2 MSTORE SWAP1 PUSH1 0x40 MSTORE PUSH32 0xA3E76C0F00000000000000000000000000000000000000000000000000000000 PUSH28 0xFFFFFFFFFFFFFFFFFFFFFFFFFFFFFFFFFFFFFFFFFFFFFFFFFFFFFFFF NOT AND PUSH1 0x20 DUP3 ADD DUP1 MLOAD PUSH28 0xFFFFFFFFFFFFFFFFFFFFFFFFFFFFFFFFFFFFFFFFFFFFFFFFFFFFFFFF DUP4 DUP2 DUP4 AND OR DUP4 MSTORE POP POP POP POP PUSH1 0x40 MLOAD PUSH2 0x471 SWAP2 SWAP1 PUSH2 0x8CE JUMP JUMPDEST PUSH1 0x0 PUSH1 0x40 MLOAD DUP1 DUP4 SUB DUP2 DUP6 DUP8 GAS CALL SWAP3 POP POP POP RETURNDATASIZE DUP1 PUSH1 0x0 DUP2 EQ PUSH2 0x4AE JUMPI PUSH1 0x40 MLOAD SWAP2 POP PUSH1 0x1F NOT PUSH1 0x3F RETURNDATASIZE ADD AND DUP3 ADD PUSH1 0x40 MSTORE RETURNDATASIZE DUP3 MSTORE RETURNDATASIZE PUSH1 0x0 PUSH1 0x20 DUP5 ADD RETURNDATACOPY PUSH2 0x4B3 JUMP JUMPDEST PUSH1 0x60 SWAP2 POP JUMPDEST POP POP SWAP1 POP PUSH2 0x4CB PUSH8 0xF593B98AD4A8D6AE PUSH1 0xC0 SHL PUSH2 0x7A1 JUMP JUMPDEST PUSH2 0x4DF PUSH8 0xFB2697DD6CB839A1 PUSH1 0xC0 SHL PUSH2 0x79E JUMP JUMPDEST PUSH2 0x4F3 PUSH8 0xFDE308E2B8495EF PUSH1 0xC0 SHL PUSH2 0x79E JUMP JUMPDEST PUSH2 0x507 PUSH8 0xAFA967C3C7D68DFC PUSH1 0xC0 SHL PUSH2 0x79E JUMP JUMPDEST DUP2 PUSH1 0x5 DUP2 SWAP1 SSTORE POP POP POP JUMP JUMPDEST PUSH1 0x0 PUSH2 0x528 PUSH8 0x82EA6CCB5AFC2851 PUSH1 0xC0 SHL PUSH2 0x79E JUMP JUMPDEST PUSH2 0x53C PUSH8 0x9F3D6D10294694CE PUSH1 0xC0 SHL PUSH2 0x79E JUMP JUMPDEST PUSH2 0x550 PUSH8 0x291EF51006C362BD PUSH1 0xC0 SHL PUSH2 0x79E JUMP JUMPDEST PUSH1 0x5 SLOAD SWAP1 POP SWAP1 JUMP JUMPDEST PUSH1 0x0 PUSH2 0x56E PUSH8 0x1486868452FB1B67 PUSH1 0xC0 SHL PUSH2 0x7A1 JUMP JUMPDEST PUSH2 0x582 PUSH8 0xE66FDBE2166EFB06 PUSH1 0xC0 SHL PUSH2 0x7A1 JUMP JUMPDEST PUSH2 0x596 PUSH8 0x1B49BBBC39DAAA72 PUSH1 0xC0 SHL PUSH2 0x7A1 JUMP JUMPDEST PUSH1 0x0 PUSH1 0x3 PUSH1 0x0 SWAP1 SLOAD SWAP1 PUSH2 0x100 EXP SWAP1 DIV PUSH20 0xFFFFFFFFFFFFFFFFFFFFFFFFFFFFFFFFFFFFFFFF AND PUSH20 0xFFFFFFFFFFFFFFFFFFFFFFFFFFFFFFFFFFFFFFFF AND PUSH4 0xCED72F87 PUSH1 0x40 MLOAD DUP2 PUSH4 0xFFFFFFFF AND PUSH1 0xE0 SHL DUP2 MSTORE PUSH1 0x4 ADD PUSH1 0x20 PUSH1 0x40 MLOAD DUP1 DUP4 SUB DUP2 DUP7 DUP1 EXTCODESIZE ISZERO DUP1 ISZERO PUSH2 0x600 JUMPI PUSH1 0x0 DUP1 REVERT JUMPDEST POP GAS STATICCALL ISZERO DUP1 ISZERO PUSH2 0x614 JUMPI RETURNDATASIZE PUSH1 0x0 DUP1 RETURNDATACOPY RETURNDATASIZE PUSH1 0x0 REVERT JUMPDEST POP POP POP POP PUSH1 0x40 MLOAD RETURNDATASIZE PUSH1 0x1F NOT PUSH1 0x1F DUP3 ADD AND DUP3 ADD DUP1 PUSH1 0x40 MSTORE POP DUP2 ADD SWAP1 PUSH2 0x638 SWAP2 SWAP1 PUSH2 0x7FA JUMP JUMPDEST SWAP1 POP PUSH2 0x64E PUSH8 0x4863258C18B456B PUSH1 0xC0 SHL PUSH2 0x7A1 JUMP JUMPDEST PUSH2 0x662 PUSH8 0xC626E8B6CBB3847F PUSH1 0xC0 SHL PUSH2 0x7A1 JUMP JUMPDEST DUP1 SWAP2 POP POP SWAP1 JUMP JUMPDEST PUSH1 0x4 PUSH1 0x0 SWAP1 SLOAD SWAP1 PUSH2 0x100 EXP SWAP1 DIV PUSH20 0xFFFFFFFFFFFFFFFFFFFFFFFFFFFFFFFFFFFFFFFF AND DUP2 JUMP JUMPDEST PUSH1 0x0 PUSH2 0x6A5 PUSH8 0xEB1B54E909EC2D35 PUSH1 0xC0 SHL PUSH2 0x7A4 JUMP JUMPDEST PUSH2 0x6B9 PUSH8 0xEE820581BA1AB367 PUSH1 0xC0 SHL PUSH2 0x7A4 JUMP JUMPDEST PUSH2 0x6CD PUSH8 0x2A1CE9267EC3DA9C PUSH1 0xC0 SHL PUSH2 0x7A4 JUMP JUMPDEST TIMESTAMP PUSH1 0x1 SLOAD LT ISZERO PUSH2 0x74E JUMPI PUSH2 0x6EB PUSH8 0xC59878417F2A2A42 PUSH1 0xC0 SHL PUSH2 0x7A4 JUMP JUMPDEST PUSH2 0x6FF PUSH8 0xAC19E5D73E78A646 PUSH1 0xC0 SHL PUSH2 0x7A4 JUMP JUMPDEST PUSH2 0x713 PUSH8 0x42D607B9EA73DD24 PUSH1 0xC0 SHL PUSH2 0x7A4 JUMP JUMPDEST PUSH1 0x40 MLOAD PUSH32 0x8C379A000000000000000000000000000000000000000000000000000000000 DUP2 MSTORE PUSH1 0x4 ADD PUSH2 0x745 SWAP1 PUSH2 0x922 JUMP JUMPDEST PUSH1 0x40 MLOAD DUP1 SWAP2 SUB SWAP1 REVERT JUMPDEST PUSH2 0x762 PUSH8 0xB2196B2CB2B702E6 PUSH1 0xC0 SHL PUSH2 0x7A4 JUMP JUMPDEST PUSH2 0x776 PUSH8 0x61F3F0929A6A3E10 PUSH1 0xC0 SHL PUSH2 0x7A4 JUMP JUMPDEST PUSH2 0x78A PUSH8 0xADB48CCDEF7E6A45 PUSH1 0xC0 SHL PUSH2 0x7A4 JUMP JUMPDEST PUSH1 0x2 SLOAD SWAP1 POP SWAP1 JUMP JUMPDEST PUSH1 0x2 SLOAD DUP2 JUMP JUMPDEST PUSH1 0x1 SLOAD DUP2 JUMP JUMPDEST POP JUMP JUMPDEST POP JUMP JUMPDEST POP JUMP JUMPDEST PUSH1 0x0 DUP2 CALLDATALOAD SWAP1 POP PUSH2 0x7B6 DUP2 PUSH2 0xA4A JUMP JUMPDEST SWAP3 SWAP2 POP POP JUMP JUMPDEST PUSH1 0x0 DUP2 MLOAD SWAP1 POP PUSH2 0x7CB DUP2 PUSH2 0xA4A JUMP JUMPDEST SWAP3 SWAP2 POP POP JUMP JUMPDEST PUSH1 0x0 PUSH1 0x20 DUP3 DUP5 SUB SLT ISZERO PUSH2 0x7E3 JUMPI PUSH1 0x0 DUP1 REVERT JUMPDEST PUSH1 0x0 PUSH2 0x7F1 DUP5 DUP3 DUP6 ADD PUSH2 0x7A7 JUMP JUMPDEST SWAP2 POP POP SWAP3 SWAP2 POP POP JUMP JUMPDEST PUSH1 0x0 PUSH1 0x20 DUP3 DUP5 SUB SLT ISZERO PUSH2 0x80C JUMPI PUSH1 0x0 DUP1 REVERT JUMPDEST PUSH1 0x0 PUSH2 0x81A DUP5 DUP3 DUP6 ADD PUSH2 0x7BC JUMP JUMPDEST SWAP2 POP POP SWAP3 SWAP2 POP POP JUMP JUMPDEST PUSH1 0x0 PUSH2 0x82E DUP3 PUSH2 0x95D JUMP JUMPDEST PUSH2 0x838 DUP2 DUP6 PUSH2 0x973 JUMP JUMPDEST SWAP4 POP PUSH2 0x848 DUP2 DUP6 PUSH1 0x20 DUP7 ADD PUSH2 0x9DD JUMP JUMPDEST DUP1 DUP5 ADD SWAP2 POP POP SWAP3 SWAP2 POP POP JUMP JUMPDEST PUSH2 0x85D DUP2 PUSH2 0x9B9 JUMP JUMPDEST DUP3 MSTORE POP POP JUMP JUMPDEST PUSH1 0x0 PUSH2 0x86E DUP3 PUSH2 0x968 JUMP JUMPDEST PUSH2 0x878 DUP2 DUP6 PUSH2 0x97E JUMP JUMPDEST SWAP4 POP PUSH2 0x888 DUP2 DUP6 PUSH1 0x20 DUP7 ADD PUSH2 0x9DD JUMP JUMPDEST PUSH2 0x891 DUP2 PUSH2 0xA10 JUMP JUMPDEST DUP5 ADD SWAP2 POP POP SWAP3 SWAP2 POP POP JUMP JUMPDEST PUSH1 0x0 PUSH2 0x8A9 PUSH1 0xA DUP4 PUSH2 0x97E JUMP JUMPDEST SWAP2 POP PUSH2 0x8B4 DUP3 PUSH2 0xA21 JUMP JUMPDEST PUSH1 0x20 DUP3 ADD SWAP1 POP SWAP2 SWAP1 POP JUMP JUMPDEST PUSH2 0x8C8 DUP2 PUSH2 0x9AF JUMP JUMPDEST DUP3 MSTORE POP POP JUMP JUMPDEST PUSH1 0x0 PUSH2 0x8DA DUP3 DUP5 PUSH2 0x823 JUMP JUMPDEST SWAP2 POP DUP2 SWAP1 POP SWAP3 SWAP2 POP POP JUMP JUMPDEST PUSH1 0x0 PUSH1 0x20 DUP3 ADD SWAP1 POP PUSH2 0x8FA PUSH1 0x0 DUP4 ADD DUP5 PUSH2 0x854 JUMP JUMPDEST SWAP3 SWAP2 POP POP JUMP JUMPDEST PUSH1 0x0 PUSH1 0x20 DUP3 ADD SWAP1 POP DUP2 DUP2 SUB PUSH1 0x0 DUP4 ADD MSTORE PUSH2 0x91A DUP2 DUP5 PUSH2 0x863 JUMP JUMPDEST SWAP1 POP SWAP3 SWAP2 POP POP JUMP JUMPDEST PUSH1 0x0 PUSH1 0x20 DUP3 ADD SWAP1 POP DUP2 DUP2 SUB PUSH1 0x0 DUP4 ADD MSTORE PUSH2 0x93B DUP2 PUSH2 0x89C JUMP JUMPDEST SWAP1 POP SWAP2 SWAP1 POP JUMP JUMPDEST PUSH1 0x0 PUSH1 0x20 DUP3 ADD SWAP1 POP PUSH2 0x957 PUSH1 0x0 DUP4 ADD DUP5 PUSH2 0x8BF JUMP JUMPDEST SWAP3 SWAP2 POP POP JUMP JUMPDEST PUSH1 0x0 DUP2 MLOAD SWAP1 POP SWAP2 SWAP1 POP JUMP JUMPDEST PUSH1 0x0 DUP2 MLOAD SWAP1 POP SWAP2 SWAP1 POP JUMP JUMPDEST PUSH1 0x0 DUP2 SWAP1 POP SWAP3 SWAP2 POP POP JUMP JUMPDEST PUSH1 0x0 DUP3 DUP3 MSTORE PUSH1 0x20 DUP3 ADD SWAP1 POP SWAP3 SWAP2 POP POP JUMP JUMPDEST PUSH1 0x0 PUSH20 0xFFFFFFFFFFFFFFFFFFFFFFFFFFFFFFFFFFFFFFFF DUP3 AND SWAP1 POP SWAP2 SWAP1 POP JUMP JUMPDEST PUSH1 0x0 DUP2 SWAP1 POP SWAP2 SWAP1 POP JUMP JUMPDEST PUSH1 0x0 PUSH2 0x9C4 DUP3 PUSH2 0x9CB JUMP JUMPDEST SWAP1 POP SWAP2 SWAP1 POP JUMP JUMPDEST PUSH1 0x0 PUSH2 0x9D6 DUP3 PUSH2 0x98F JUMP JUMPDEST SWAP1 POP SWAP2 SWAP1 POP JUMP JUMPDEST PUSH1 0x0 JUMPDEST DUP4 DUP2 LT ISZERO PUSH2 0x9FB JUMPI DUP1 DUP3 ADD MLOAD DUP2 DUP5 ADD MSTORE PUSH1 0x20 DUP2 ADD SWAP1 POP PUSH2 0x9E0 JUMP JUMPDEST DUP4 DUP2 GT ISZERO PUSH2 0xA0A JUMPI PUSH1 0x0 DUP5 DUP5 ADD MSTORE JUMPDEST POP POP POP POP JUMP JUMPDEST PUSH1 0x0 PUSH1 0x1F NOT PUSH1 0x1F DUP4 ADD AND SWAP1 POP SWAP2 SWAP1 POP JUMP JUMPDEST PUSH32 0x7265736574466565282900000000000000000000000000000000000000000000 PUSH1 0x0 DUP3 ADD MSTORE POP JUMP JUMPDEST PUSH2 0xA53 DUP2 PUSH2 0x9AF JUMP JUMPDEST DUP2 EQ PUSH2 0xA5E JUMPI PUSH1 0x0 DUP1 REVERT JUMPDEST POP JUMP INVALID LOG2 PUSH5 0x6970667358 0x22 SLT KECCAK256 0xD9 SWAP9 0xBA GASLIMIT 0xCE 0xD 0x28 CALLCODE TIMESTAMP 0x23 0xF8 0xBD PUSH22 0x8CD5D54579988938442F30A2FD411FB9B5EF9464736F PUSH13 0x63430008020033000000000000 "},"methodIdentifiers":{"FeeQueryNative()":"ab407bb6","callFee()":"90321e1a","epochLength()":"57d775f8","fee()":"ddca3f43","get()":"6d4ce63c","getFee()":"ced72f87","h1Stored()":"2dcbf1c0","requiredReset()":"f5fa96e5","set(uint256)":"60fe47b1","storedData()":"2a1afcd9"}},"storageLayout":{"storage":[{"astId":6127,"contract":"contracts/SimpleStorageWithFee.sol:SimpleStorageWithFee","label":"epochLength","offset":0,"slot":"0","type":"t_uint256"},{"astId":6129,"contract":"contracts/SimpleStorageWithFee.sol:SimpleStorageWithFee","label":"requiredReset","offset":0,"slot":"1","type":"t_uint256"},{"astId":6131,"contract":"contracts/SimpleStorageWithFee.sol:SimpleStorageWithFee","label":"fee","offset":0,"slot":"2","type":"t_uint256"},{"astId":6595,"contract":"contracts/SimpleStorageWithFee.sol:SimpleStorageWithFee","label":"FeeContract","offset":0,"slot":"3","type":"t_address"},{"astId":6598,"contract":"contracts/SimpleStorageWithFee.sol:SimpleStorageWithFee","label":"FeeQueryNative","offset":0,"slot":"4","type":"t_contract(FeeQuery)6188"},{"astId":6860,"contract":"contracts/SimpleStorageWithFee.sol:SimpleStorageWithFee","label":"storedData","offset":0,"slot":"5","type":"t_uint256"},{"astId":6862,"contract":"contracts/SimpleStorageWithFee.sol:SimpleStorageWithFee","label":"h1Stored","offset":0,"slot":"6","type":"t_uint256"}],"types":{"t_address":{"encoding":"inplace","label":"address","numberOfBytes":"20"},"t_contract(FeeQuery)6188":{"encoding":"inplace","label":"contract FeeQuery","numberOfBytes":"20"},"t_uint256":{"encoding":"inplace","label":"uint256","numberOfBytes":"32"}}}}}}