{"contracts/Errors.sol":{"Errors":{"abi":[{"inputs":[],"name":"ACCOUNT_HAS_NO_SHARES","outputs":[{"internalType":"string","name":"","type":"string"}],"stateMutability":"view","type":"function"},{"inputs":[],"name":"ADDRESS_ALREADY_HAS_A_VALUE","outputs":[{"internalType":"string","name":"","type":"string"}],"stateMutability":"view","type":"function"},{"inputs":[],"name":"ADDRESS_BLOCKED","outputs":[{"internalType":"string","name":"","type":"string"}],"stateMutability":"view","type":"function"},{"inputs":[],"name":"CONTRACT_LIMIT_REACHED","outputs":[{"internalType":"string","name":"","type":"string"}],"stateMutability":"view","type":"function"},{"inputs":[],"name":"DISTRIBUTION_ERROR","outputs":[{"internalType":"string","name":"","type":"string"}],"stateMutability":"view","type":"function"},{"inputs":[],"name":"GAS_REBATE_ERROR","outputs":[{"internalType":"string","name":"","type":"string"}],"stateMutability":"view","type":"function"},{"inputs":[],"name":"GAS_REBATE_FAILED","outputs":[{"internalType":"string","name":"","type":"string"}],"stateMutability":"view","type":"function"},{"inputs":[],"name":"H1_UNEQUAL_TO_DEPOSIT","outputs":[{"internalType":"string","name":"","type":"string"}],"stateMutability":"view","type":"function"},{"inputs":[],"name":"HOLD_TIME_IS_24_HOURS","outputs":[{"internalType":"string","name":"","type":"string"}],"stateMutability":"view","type":"function"},{"inputs":[],"name":"ID_DOES_NOT_EXIST","outputs":[{"internalType":"string","name":"","type":"string"}],"stateMutability":"view","type":"function"},{"inputs":[],"name":"ID_INVALID_EXPIRED","outputs":[{"internalType":"string","name":"","type":"string"}],"stateMutability":"view","type":"function"},{"inputs":[],"name":"ID_NOT_TRANSFERABLE","outputs":[{"internalType":"string","name":"","type":"string"}],"stateMutability":"view","type":"function"},{"inputs":[],"name":"INCORRECT_INDEX","outputs":[{"internalType":"string","name":"","type":"string"}],"stateMutability":"view","type":"function"},{"inputs":[],"name":"INSUFFICIENT_BALANCE","outputs":[{"internalType":"string","name":"","type":"string"}],"stateMutability":"view","type":"function"},{"inputs":[],"name":"INSUFFICIENT_FUNDS","outputs":[{"internalType":"string","name":"","type":"string"}],"stateMutability":"view","type":"function"},{"inputs":[],"name":"INSUFFICIENT_TOKEN_BALANCE","outputs":[{"internalType":"string","name":"","type":"string"}],"stateMutability":"view","type":"function"},{"inputs":[],"name":"INVALID_ADDRESS","outputs":[{"internalType":"string","name":"","type":"string"}],"stateMutability":"view","type":"function"},{"inputs":[],"name":"INVALID_INDEX","outputs":[{"internalType":"string","name":"","type":"string"}],"stateMutability":"view","type":"function"},{"inputs":[],"name":"INVALID_TOKEN_ID","outputs":[{"internalType":"string","name":"","type":"string"}],"stateMutability":"view","type":"function"},{"inputs":[],"name":"NOT_VALID_PROVER","outputs":[{"internalType":"string","name":"","type":"string"}],"stateMutability":"view","type":"function"},{"inputs":[],"name":"NO_AMOUNT_TO_CLAIM","outputs":[{"internalType":"string","name":"","type":"string"}],"stateMutability":"view","type":"function"},{"inputs":[],"name":"NO_DUPLICATES","outputs":[{"internalType":"string","name":"","type":"string"}],"stateMutability":"view","type":"function"},{"inputs":[],"name":"ONLY_APPROVES_CONTRACTS","outputs":[{"internalType":"string","name":"","type":"string"}],"stateMutability":"view","type":"function"},{"inputs":[],"name":"PREVIOUSLY_VERIFIED","outputs":[{"internalType":"string","name":"","type":"string"}],"stateMutability":"view","type":"function"},{"inputs":[],"name":"RESET_FEE","outputs":[{"internalType":"string","name":"","type":"string"}],"stateMutability":"view","type":"function"},{"inputs":[],"name":"SOULBOUND_TOKEN","outputs":[{"internalType":"string","name":"","type":"string"}],"stateMutability":"view","type":"function"},{"inputs":[],"name":"TOKEN_ID_ALREADY_EXISTS","outputs":[{"internalType":"string","name":"","type":"string"}],"stateMutability":"view","type":"function"},{"inputs":[],"name":"TRANSFER_FAILED","outputs":[{"internalType":"string","name":"","type":"string"}],"stateMutability":"view","type":"function"},{"inputs":[],"name":"WHITELIST_ERROR","outputs":[{"internalType":"string","name":"","type":"string"}],"stateMutability":"view","type":"function"},{"inputs":[],"name":"ZERO_ADDRESS_NOT_VALID_ARGUMENT","outputs":[{"internalType":"string","name":"","type":"string"}],"stateMutability":"view","type":"function"},{"inputs":[],"name":"ZERO_VARIABLE_NOT_ACCEPTED","outputs":[{"internalType":"string","name":"","type":"string"}],"stateMutability":"view","type":"function"}],"evm":{"bytecode":{"linkReferences":{},"object":"610d6e610053600b82828239805160001a607314610046577f4e487b7100000000000000000000000000000000000000000000000000000000600052600060045260246000fd5b30600052607381538281f3fe73000000000000000000000000000000000000000030146080604052600436106101ef5760003560e01c806374d7405e11610119578063c69faacb116100ac578063e79314381161007b578063e79314381461051e578063f9b20ad61461053c578063fc7d66671461055a578063fe58db1414610578576101ef565b8063c69faacb146104a6578063cd6ccc6e146104c4578063d0a936cb146104e2578063e276d51e14610500576101ef565b8063a9006144116100e8578063a90061441461042e578063b49aa3b51461044c578063bbfb81b71461046a578063bf62174c14610488576101ef565b806374d7405e146103b65780637829c5da146103d45780638c727f05146103f2578063a1cf1eec14610410576101ef565b80633e07bd461161019157806350b1f3561161016057806350b1f3561461033e5780635963709b1461035c5780636d4f4b731461037a5780636db2111d14610398576101ef565b80633e07bd46146102c65780633ee6341f146102e45780633f4ab80e14610302578063405cfb1d14610320576101ef565b80632093d970116101cd5780632093d9701461024e578063231b28de1461026c57806329dbf1a61461028a57806339459c8b146102a8576101ef565b806308a0293e146101f457806313182fd3146102125780631b8065e514610230575b600080fd5b6101fc610596565b6040516102099190610cb6565b60405180910390f35b61021a6105cf565b6040516102279190610cb6565b60405180910390f35b610238610608565b6040516102459190610cb6565b60405180910390f35b610256610641565b6040516102639190610cb6565b60405180910390f35b61027461067a565b6040516102819190610cb6565b60405180910390f35b6102926106b3565b60405161029f9190610cb6565b60405180910390f35b6102b06106ec565b6040516102bd9190610cb6565b60405180910390f35b6102ce610725565b6040516102db9190610cb6565b60405180910390f35b6102ec61075e565b6040516102f99190610cb6565b60405180910390f35b61030a610797565b6040516103179190610cb6565b60405180910390f35b6103286107d0565b6040516103359190610cb6565b60405180910390f35b610346610809565b6040516103539190610cb6565b60405180910390f35b610364610842565b6040516103719190610cb6565b60405180910390f35b61038261087b565b60405161038f9190610cb6565b60405180910390f35b6103a06108b4565b6040516103ad9190610cb6565b60405180910390f35b6103be6108ed565b6040516103cb9190610cb6565b60405180910390f35b6103dc610926565b6040516103e99190610cb6565b60405180910390f35b6103fa61095f565b6040516104079190610cb6565b60405180910390f35b610418610998565b6040516104259190610cb6565b60405180910390f35b6104366109d1565b6040516104439190610cb6565b60405180910390f35b610454610a0a565b6040516104619190610cb6565b60405180910390f35b610472610a43565b60405161047f9190610cb6565b60405180910390f35b610490610a7c565b60405161049d9190610cb6565b60405180910390f35b6104ae610ab5565b6040516104bb9190610cb6565b60405180910390f35b6104cc610aee565b6040516104d99190610cb6565b60405180910390f35b6104ea610b27565b6040516104f79190610cb6565b60405180910390f35b610508610b60565b6040516105159190610cb6565b60405180910390f35b610526610b99565b6040516105339190610cb6565b60405180910390f35b610544610bd2565b6040516105519190610cb6565b60405180910390f35b610562610c0b565b60405161056f9190610cb6565b60405180910390f35b610580610c44565b60405161058d9190610cb6565b60405180910390f35b6040518060400160405280600381526020017f313035000000000000000000000000000000000000000000000000000000000081525081565b6040518060400160405280600381526020017f313231000000000000000000000000000000000000000000000000000000000081525081565b6040518060400160405280600381526020017f313237000000000000000000000000000000000000000000000000000000000081525081565b6040518060400160405280600381526020017f313138000000000000000000000000000000000000000000000000000000000081525081565b6040518060400160405280600381526020017f313033000000000000000000000000000000000000000000000000000000000081525081565b6040518060400160405280600381526020017f313230000000000000000000000000000000000000000000000000000000000081525081565b6040518060400160405280600381526020017f313030000000000000000000000000000000000000000000000000000000000081525081565b6040518060400160405280600381526020017f313232000000000000000000000000000000000000000000000000000000000081525081565b6040518060400160405280600381526020017f313037000000000000000000000000000000000000000000000000000000000081525081565b6040518060400160405280600381526020017f313132000000000000000000000000000000000000000000000000000000000081525081565b6040518060400160405280600381526020017f313135000000000000000000000000000000000000000000000000000000000081525081565b6040518060400160405280600381526020017f313039000000000000000000000000000000000000000000000000000000000081525081565b6040518060400160405280600381526020017f313233000000000000000000000000000000000000000000000000000000000081525081565b6040518060400160405280600381526020017f313131000000000000000000000000000000000000000000000000000000000081525081565b6040518060400160405280600381526020017f313234000000000000000000000000000000000000000000000000000000000081525081565b6040518060400160405280600381526020017f313136000000000000000000000000000000000000000000000000000000000081525081565b6040518060400160405280600381526020017f313130000000000000000000000000000000000000000000000000000000000081525081565b6040518060400160405280600381526020017f313038000000000000000000000000000000000000000000000000000000000081525081565b6040518060400160405280600381526020017f313239000000000000000000000000000000000000000000000000000000000081525081565b6040518060400160405280600381526020017f313137000000000000000000000000000000000000000000000000000000000081525081565b6040518060400160405280600381526020017f313036000000000000000000000000000000000000000000000000000000000081525081565b6040518060400160405280600381526020017f313031000000000000000000000000000000000000000000000000000000000081525081565b6040518060400160405280600381526020017f313238000000000000000000000000000000000000000000000000000000000081525081565b6040518060400160405280600381526020017f313139000000000000000000000000000000000000000000000000000000000081525081565b6040518060400160405280600381526020017f313032000000000000000000000000000000000000000000000000000000000081525081565b6040518060400160405280600381526020017f313134000000000000000000000000000000000000000000000000000000000081525081565b6040518060400160405280600381526020017f313236000000000000000000000000000000000000000000000000000000000081525081565b6040518060400160405280600381526020017f313235000000000000000000000000000000000000000000000000000000000081525081565b6040518060400160405280600381526020017f313133000000000000000000000000000000000000000000000000000000000081525081565b6040518060400160405280600381526020017f313330000000000000000000000000000000000000000000000000000000000081525081565b6040518060400160405280600381526020017f313034000000000000000000000000000000000000000000000000000000000081525081565b6000610c8882610cd8565b610c928185610ce3565b9350610ca2818560208601610cf4565b610cab81610d27565b840191505092915050565b60006020820190508181036000830152610cd08184610c7d565b905092915050565b600081519050919050565b600082825260208201905092915050565b60005b83811015610d12578082015181840152602081019050610cf7565b83811115610d21576000848401525b50505050565b6000601f19601f830116905091905056fea264697066735822122003cb3ec69c1ff18a593693519fc126c167cca70673dfc510d98387a5cf99bb2d64736f6c63430008020033","opcodes":"PUSH2 0xD6E PUSH2 0x53 PUSH1 0xB DUP3 DUP3 DUP3 CODECOPY DUP1 MLOAD PUSH1 0x0 BYTE PUSH1 0x73 EQ PUSH2 0x46 JUMPI PUSH32 0x4E487B7100000000000000000000000000000000000000000000000000000000 PUSH1 0x0 MSTORE PUSH1 0x0 PUSH1 0x4 MSTORE PUSH1 0x24 PUSH1 0x0 REVERT JUMPDEST ADDRESS PUSH1 0x0 MSTORE PUSH1 0x73 DUP2 MSTORE8 DUP3 DUP2 RETURN INVALID PUSH20 0x0 ADDRESS EQ PUSH1 0x80 PUSH1 0x40 MSTORE PUSH1 0x4 CALLDATASIZE LT PUSH2 0x1EF JUMPI PUSH1 0x0 CALLDATALOAD PUSH1 0xE0 SHR DUP1 PUSH4 0x74D7405E GT PUSH2 0x119 JUMPI DUP1 PUSH4 0xC69FAACB GT PUSH2 0xAC JUMPI DUP1 PUSH4 0xE7931438 GT PUSH2 0x7B JUMPI DUP1 PUSH4 0xE7931438 EQ PUSH2 0x51E JUMPI DUP1 PUSH4 0xF9B20AD6 EQ PUSH2 0x53C JUMPI DUP1 PUSH4 0xFC7D6667 EQ PUSH2 0x55A JUMPI DUP1 PUSH4 0xFE58DB14 EQ PUSH2 0x578 JUMPI PUSH2 0x1EF JUMP JUMPDEST DUP1 PUSH4 0xC69FAACB EQ PUSH2 0x4A6 JUMPI DUP1 PUSH4 0xCD6CCC6E EQ PUSH2 0x4C4 JUMPI DUP1 PUSH4 0xD0A936CB EQ PUSH2 0x4E2 JUMPI DUP1 PUSH4 0xE276D51E EQ PUSH2 0x500 JUMPI PUSH2 0x1EF JUMP JUMPDEST DUP1 PUSH4 0xA9006144 GT PUSH2 0xE8 JUMPI DUP1 PUSH4 0xA9006144 EQ PUSH2 0x42E JUMPI DUP1 PUSH4 0xB49AA3B5 EQ PUSH2 0x44C JUMPI DUP1 PUSH4 0xBBFB81B7 EQ PUSH2 0x46A JUMPI DUP1 PUSH4 0xBF62174C EQ PUSH2 0x488 JUMPI PUSH2 0x1EF JUMP JUMPDEST DUP1 PUSH4 0x74D7405E EQ PUSH2 0x3B6 JUMPI DUP1 PUSH4 0x7829C5DA EQ PUSH2 0x3D4 JUMPI DUP1 PUSH4 0x8C727F05 EQ PUSH2 0x3F2 JUMPI DUP1 PUSH4 0xA1CF1EEC EQ PUSH2 0x410 JUMPI PUSH2 0x1EF JUMP JUMPDEST DUP1 PUSH4 0x3E07BD46 GT PUSH2 0x191 JUMPI DUP1 PUSH4 0x50B1F356 GT PUSH2 0x160 JUMPI DUP1 PUSH4 0x50B1F356 EQ PUSH2 0x33E JUMPI DUP1 PUSH4 0x5963709B EQ PUSH2 0x35C JUMPI DUP1 PUSH4 0x6D4F4B73 EQ PUSH2 0x37A JUMPI DUP1 PUSH4 0x6DB2111D EQ PUSH2 0x398 JUMPI PUSH2 0x1EF JUMP JUMPDEST DUP1 PUSH4 0x3E07BD46 EQ PUSH2 0x2C6 JUMPI DUP1 PUSH4 0x3EE6341F EQ PUSH2 0x2E4 JUMPI DUP1 PUSH4 0x3F4AB80E EQ PUSH2 0x302 JUMPI DUP1 PUSH4 0x405CFB1D EQ PUSH2 0x320 JUMPI PUSH2 0x1EF JUMP JUMPDEST DUP1 PUSH4 0x2093D970 GT PUSH2 0x1CD JUMPI DUP1 PUSH4 0x2093D970 EQ PUSH2 0x24E JUMPI DUP1 PUSH4 0x231B28DE EQ PUSH2 0x26C JUMPI DUP1 PUSH4 0x29DBF1A6 EQ PUSH2 0x28A JUMPI DUP1 PUSH4 0x39459C8B EQ PUSH2 0x2A8 JUMPI PUSH2 0x1EF JUMP JUMPDEST DUP1 PUSH4 0x8A0293E EQ PUSH2 0x1F4 JUMPI DUP1 PUSH4 0x13182FD3 EQ PUSH2 0x212 JUMPI DUP1 PUSH4 0x1B8065E5 EQ PUSH2 0x230 JUMPI JUMPDEST PUSH1 0x0 DUP1 REVERT JUMPDEST PUSH2 0x1FC PUSH2 0x596 JUMP JUMPDEST PUSH1 0x40 MLOAD PUSH2 0x209 SWAP2 SWAP1 PUSH2 0xCB6 JUMP JUMPDEST PUSH1 0x40 MLOAD DUP1 SWAP2 SUB SWAP1 RETURN JUMPDEST PUSH2 0x21A PUSH2 0x5CF JUMP JUMPDEST PUSH1 0x40 MLOAD PUSH2 0x227 SWAP2 SWAP1 PUSH2 0xCB6 JUMP JUMPDEST PUSH1 0x40 MLOAD DUP1 SWAP2 SUB SWAP1 RETURN JUMPDEST PUSH2 0x238 PUSH2 0x608 JUMP JUMPDEST PUSH1 0x40 MLOAD PUSH2 0x245 SWAP2 SWAP1 PUSH2 0xCB6 JUMP JUMPDEST PUSH1 0x40 MLOAD DUP1 SWAP2 SUB SWAP1 RETURN JUMPDEST PUSH2 0x256 PUSH2 0x641 JUMP JUMPDEST PUSH1 0x40 MLOAD PUSH2 0x263 SWAP2 SWAP1 PUSH2 0xCB6 JUMP JUMPDEST PUSH1 0x40 MLOAD DUP1 SWAP2 SUB SWAP1 RETURN JUMPDEST PUSH2 0x274 PUSH2 0x67A JUMP JUMPDEST PUSH1 0x40 MLOAD PUSH2 0x281 SWAP2 SWAP1 PUSH2 0xCB6 JUMP JUMPDEST PUSH1 0x40 MLOAD DUP1 SWAP2 SUB SWAP1 RETURN JUMPDEST PUSH2 0x292 PUSH2 0x6B3 JUMP JUMPDEST PUSH1 0x40 MLOAD PUSH2 0x29F SWAP2 SWAP1 PUSH2 0xCB6 JUMP JUMPDEST PUSH1 0x40 MLOAD DUP1 SWAP2 SUB SWAP1 RETURN JUMPDEST PUSH2 0x2B0 PUSH2 0x6EC JUMP JUMPDEST PUSH1 0x40 MLOAD PUSH2 0x2BD SWAP2 SWAP1 PUSH2 0xCB6 JUMP JUMPDEST PUSH1 0x40 MLOAD DUP1 SWAP2 SUB SWAP1 RETURN JUMPDEST PUSH2 0x2CE PUSH2 0x725 JUMP JUMPDEST PUSH1 0x40 MLOAD PUSH2 0x2DB SWAP2 SWAP1 PUSH2 0xCB6 JUMP JUMPDEST PUSH1 0x40 MLOAD DUP1 SWAP2 SUB SWAP1 RETURN JUMPDEST PUSH2 0x2EC PUSH2 0x75E JUMP JUMPDEST PUSH1 0x40 MLOAD PUSH2 0x2F9 SWAP2 SWAP1 PUSH2 0xCB6 JUMP JUMPDEST PUSH1 0x40 MLOAD DUP1 SWAP2 SUB SWAP1 RETURN JUMPDEST PUSH2 0x30A PUSH2 0x797 JUMP JUMPDEST PUSH1 0x40 MLOAD PUSH2 0x317 SWAP2 SWAP1 PUSH2 0xCB6 JUMP JUMPDEST PUSH1 0x40 MLOAD DUP1 SWAP2 SUB SWAP1 RETURN JUMPDEST PUSH2 0x328 PUSH2 0x7D0 JUMP JUMPDEST PUSH1 0x40 MLOAD PUSH2 0x335 SWAP2 SWAP1 PUSH2 0xCB6 JUMP JUMPDEST PUSH1 0x40 MLOAD DUP1 SWAP2 SUB SWAP1 RETURN JUMPDEST PUSH2 0x346 PUSH2 0x809 JUMP JUMPDEST PUSH1 0x40 MLOAD PUSH2 0x353 SWAP2 SWAP1 PUSH2 0xCB6 JUMP JUMPDEST PUSH1 0x40 MLOAD DUP1 SWAP2 SUB SWAP1 RETURN JUMPDEST PUSH2 0x364 PUSH2 0x842 JUMP JUMPDEST PUSH1 0x40 MLOAD PUSH2 0x371 SWAP2 SWAP1 PUSH2 0xCB6 JUMP JUMPDEST PUSH1 0x40 MLOAD DUP1 SWAP2 SUB SWAP1 RETURN JUMPDEST PUSH2 0x382 PUSH2 0x87B JUMP JUMPDEST PUSH1 0x40 MLOAD PUSH2 0x38F SWAP2 SWAP1 PUSH2 0xCB6 JUMP JUMPDEST PUSH1 0x40 MLOAD DUP1 SWAP2 SUB SWAP1 RETURN JUMPDEST PUSH2 0x3A0 PUSH2 0x8B4 JUMP JUMPDEST PUSH1 0x40 MLOAD PUSH2 0x3AD SWAP2 SWAP1 PUSH2 0xCB6 JUMP JUMPDEST PUSH1 0x40 MLOAD DUP1 SWAP2 SUB SWAP1 RETURN JUMPDEST PUSH2 0x3BE PUSH2 0x8ED JUMP JUMPDEST PUSH1 0x40 MLOAD PUSH2 0x3CB SWAP2 SWAP1 PUSH2 0xCB6 JUMP JUMPDEST PUSH1 0x40 MLOAD DUP1 SWAP2 SUB SWAP1 RETURN JUMPDEST PUSH2 0x3DC PUSH2 0x926 JUMP JUMPDEST PUSH1 0x40 MLOAD PUSH2 0x3E9 SWAP2 SWAP1 PUSH2 0xCB6 JUMP JUMPDEST PUSH1 0x40 MLOAD DUP1 SWAP2 SUB SWAP1 RETURN JUMPDEST PUSH2 0x3FA PUSH2 0x95F JUMP JUMPDEST PUSH1 0x40 MLOAD PUSH2 0x407 SWAP2 SWAP1 PUSH2 0xCB6 JUMP JUMPDEST PUSH1 0x40 MLOAD DUP1 SWAP2 SUB SWAP1 RETURN JUMPDEST PUSH2 0x418 PUSH2 0x998 JUMP JUMPDEST PUSH1 0x40 MLOAD PUSH2 0x425 SWAP2 SWAP1 PUSH2 0xCB6 JUMP JUMPDEST PUSH1 0x40 MLOAD DUP1 SWAP2 SUB SWAP1 RETURN JUMPDEST PUSH2 0x436 PUSH2 0x9D1 JUMP JUMPDEST PUSH1 0x40 MLOAD PUSH2 0x443 SWAP2 SWAP1 PUSH2 0xCB6 JUMP JUMPDEST PUSH1 0x40 MLOAD DUP1 SWAP2 SUB SWAP1 RETURN JUMPDEST PUSH2 0x454 PUSH2 0xA0A JUMP JUMPDEST PUSH1 0x40 MLOAD PUSH2 0x461 SWAP2 SWAP1 PUSH2 0xCB6 JUMP JUMPDEST PUSH1 0x40 MLOAD DUP1 SWAP2 SUB SWAP1 RETURN JUMPDEST PUSH2 0x472 PUSH2 0xA43 JUMP JUMPDEST PUSH1 0x40 MLOAD PUSH2 0x47F SWAP2 SWAP1 PUSH2 0xCB6 JUMP JUMPDEST PUSH1 0x40 MLOAD DUP1 SWAP2 SUB SWAP1 RETURN JUMPDEST PUSH2 0x490 PUSH2 0xA7C JUMP JUMPDEST PUSH1 0x40 MLOAD PUSH2 0x49D SWAP2 SWAP1 PUSH2 0xCB6 JUMP JUMPDEST PUSH1 0x40 MLOAD DUP1 SWAP2 SUB SWAP1 RETURN JUMPDEST PUSH2 0x4AE PUSH2 0xAB5 JUMP JUMPDEST PUSH1 0x40 MLOAD PUSH2 0x4BB SWAP2 SWAP1 PUSH2 0xCB6 JUMP JUMPDEST PUSH1 0x40 MLOAD DUP1 SWAP2 SUB SWAP1 RETURN JUMPDEST PUSH2 0x4CC PUSH2 0xAEE JUMP JUMPDEST PUSH1 0x40 MLOAD PUSH2 0x4D9 SWAP2 SWAP1 PUSH2 0xCB6 JUMP JUMPDEST PUSH1 0x40 MLOAD DUP1 SWAP2 SUB SWAP1 RETURN JUMPDEST PUSH2 0x4EA PUSH2 0xB27 JUMP JUMPDEST PUSH1 0x40 MLOAD PUSH2 0x4F7 SWAP2 SWAP1 PUSH2 0xCB6 JUMP JUMPDEST PUSH1 0x40 MLOAD DUP1 SWAP2 SUB SWAP1 RETURN JUMPDEST PUSH2 0x508 PUSH2 0xB60 JUMP JUMPDEST PUSH1 0x40 MLOAD PUSH2 0x515 SWAP2 SWAP1 PUSH2 0xCB6 JUMP JUMPDEST PUSH1 0x40 MLOAD DUP1 SWAP2 SUB SWAP1 RETURN JUMPDEST PUSH2 0x526 PUSH2 0xB99 JUMP JUMPDEST PUSH1 0x40 MLOAD PUSH2 0x533 SWAP2 SWAP1 PUSH2 0xCB6 JUMP JUMPDEST PUSH1 0x40 MLOAD DUP1 SWAP2 SUB SWAP1 RETURN JUMPDEST PUSH2 0x544 PUSH2 0xBD2 JUMP JUMPDEST PUSH1 0x40 MLOAD PUSH2 0x551 SWAP2 SWAP1 PUSH2 0xCB6 JUMP JUMPDEST PUSH1 0x40 MLOAD DUP1 SWAP2 SUB SWAP1 RETURN JUMPDEST PUSH2 0x562 PUSH2 0xC0B JUMP JUMPDEST PUSH1 0x40 MLOAD PUSH2 0x56F SWAP2 SWAP1 PUSH2 0xCB6 JUMP JUMPDEST PUSH1 0x40 MLOAD DUP1 SWAP2 SUB SWAP1 RETURN JUMPDEST PUSH2 0x580 PUSH2 0xC44 JUMP JUMPDEST PUSH1 0x40 MLOAD PUSH2 0x58D SWAP2 SWAP1 PUSH2 0xCB6 JUMP JUMPDEST PUSH1 0x40 MLOAD DUP1 SWAP2 SUB SWAP1 RETURN JUMPDEST PUSH1 0x40 MLOAD DUP1 PUSH1 0x40 ADD PUSH1 0x40 MSTORE DUP1 PUSH1 0x3 DUP2 MSTORE PUSH1 0x20 ADD PUSH32 0x3130350000000000000000000000000000000000000000000000000000000000 DUP2 MSTORE POP DUP2 JUMP JUMPDEST PUSH1 0x40 MLOAD DUP1 PUSH1 0x40 ADD PUSH1 0x40 MSTORE DUP1 PUSH1 0x3 DUP2 MSTORE PUSH1 0x20 ADD PUSH32 0x3132310000000000000000000000000000000000000000000000000000000000 DUP2 MSTORE POP DUP2 JUMP JUMPDEST PUSH1 0x40 MLOAD DUP1 PUSH1 0x40 ADD PUSH1 0x40 MSTORE DUP1 PUSH1 0x3 DUP2 MSTORE PUSH1 0x20 ADD PUSH32 0x3132370000000000000000000000000000000000000000000000000000000000 DUP2 MSTORE POP DUP2 JUMP JUMPDEST PUSH1 0x40 MLOAD DUP1 PUSH1 0x40 ADD PUSH1 0x40 MSTORE DUP1 PUSH1 0x3 DUP2 MSTORE PUSH1 0x20 ADD PUSH32 0x3131380000000000000000000000000000000000000000000000000000000000 DUP2 MSTORE POP DUP2 JUMP JUMPDEST PUSH1 0x40 MLOAD DUP1 PUSH1 0x40 ADD PUSH1 0x40 MSTORE DUP1 PUSH1 0x3 DUP2 MSTORE PUSH1 0x20 ADD PUSH32 0x3130330000000000000000000000000000000000000000000000000000000000 DUP2 MSTORE POP DUP2 JUMP JUMPDEST PUSH1 0x40 MLOAD DUP1 PUSH1 0x40 ADD PUSH1 0x40 MSTORE DUP1 PUSH1 0x3 DUP2 MSTORE PUSH1 0x20 ADD PUSH32 0x3132300000000000000000000000000000000000000000000000000000000000 DUP2 MSTORE POP DUP2 JUMP JUMPDEST PUSH1 0x40 MLOAD DUP1 PUSH1 0x40 ADD PUSH1 0x40 MSTORE DUP1 PUSH1 0x3 DUP2 MSTORE PUSH1 0x20 ADD PUSH32 0x3130300000000000000000000000000000000000000000000000000000000000 DUP2 MSTORE POP DUP2 JUMP JUMPDEST PUSH1 0x40 MLOAD DUP1 PUSH1 0x40 ADD PUSH1 0x40 MSTORE DUP1 PUSH1 0x3 DUP2 MSTORE PUSH1 0x20 ADD PUSH32 0x3132320000000000000000000000000000000000000000000000000000000000 DUP2 MSTORE POP DUP2 JUMP JUMPDEST PUSH1 0x40 MLOAD DUP1 PUSH1 0x40 ADD PUSH1 0x40 MSTORE DUP1 PUSH1 0x3 DUP2 MSTORE PUSH1 0x20 ADD PUSH32 0x3130370000000000000000000000000000000000000000000000000000000000 DUP2 MSTORE POP DUP2 JUMP JUMPDEST PUSH1 0x40 MLOAD DUP1 PUSH1 0x40 ADD PUSH1 0x40 MSTORE DUP1 PUSH1 0x3 DUP2 MSTORE PUSH1 0x20 ADD PUSH32 0x3131320000000000000000000000000000000000000000000000000000000000 DUP2 MSTORE POP DUP2 JUMP JUMPDEST PUSH1 0x40 MLOAD DUP1 PUSH1 0x40 ADD PUSH1 0x40 MSTORE DUP1 PUSH1 0x3 DUP2 MSTORE PUSH1 0x20 ADD PUSH32 0x3131350000000000000000000000000000000000000000000000000000000000 DUP2 MSTORE POP DUP2 JUMP JUMPDEST PUSH1 0x40 MLOAD DUP1 PUSH1 0x40 ADD PUSH1 0x40 MSTORE DUP1 PUSH1 0x3 DUP2 MSTORE PUSH1 0x20 ADD PUSH32 0x3130390000000000000000000000000000000000000000000000000000000000 DUP2 MSTORE POP DUP2 JUMP JUMPDEST PUSH1 0x40 MLOAD DUP1 PUSH1 0x40 ADD PUSH1 0x40 MSTORE DUP1 PUSH1 0x3 DUP2 MSTORE PUSH1 0x20 ADD PUSH32 0x3132330000000000000000000000000000000000000000000000000000000000 DUP2 MSTORE POP DUP2 JUMP JUMPDEST PUSH1 0x40 MLOAD DUP1 PUSH1 0x40 ADD PUSH1 0x40 MSTORE DUP1 PUSH1 0x3 DUP2 MSTORE PUSH1 0x20 ADD PUSH32 0x3131310000000000000000000000000000000000000000000000000000000000 DUP2 MSTORE POP DUP2 JUMP JUMPDEST PUSH1 0x40 MLOAD DUP1 PUSH1 0x40 ADD PUSH1 0x40 MSTORE DUP1 PUSH1 0x3 DUP2 MSTORE PUSH1 0x20 ADD PUSH32 0x3132340000000000000000000000000000000000000000000000000000000000 DUP2 MSTORE POP DUP2 JUMP JUMPDEST PUSH1 0x40 MLOAD DUP1 PUSH1 0x40 ADD PUSH1 0x40 MSTORE DUP1 PUSH1 0x3 DUP2 MSTORE PUSH1 0x20 ADD PUSH32 0x3131360000000000000000000000000000000000000000000000000000000000 DUP2 MSTORE POP DUP2 JUMP JUMPDEST PUSH1 0x40 MLOAD DUP1 PUSH1 0x40 ADD PUSH1 0x40 MSTORE DUP1 PUSH1 0x3 DUP2 MSTORE PUSH1 0x20 ADD PUSH32 0x3131300000000000000000000000000000000000000000000000000000000000 DUP2 MSTORE POP DUP2 JUMP JUMPDEST PUSH1 0x40 MLOAD DUP1 PUSH1 0x40 ADD PUSH1 0x40 MSTORE DUP1 PUSH1 0x3 DUP2 MSTORE PUSH1 0x20 ADD PUSH32 0x3130380000000000000000000000000000000000000000000000000000000000 DUP2 MSTORE POP DUP2 JUMP JUMPDEST PUSH1 0x40 MLOAD DUP1 PUSH1 0x40 ADD PUSH1 0x40 MSTORE DUP1 PUSH1 0x3 DUP2 MSTORE PUSH1 0x20 ADD PUSH32 0x3132390000000000000000000000000000000000000000000000000000000000 DUP2 MSTORE POP DUP2 JUMP JUMPDEST PUSH1 0x40 MLOAD DUP1 PUSH1 0x40 ADD PUSH1 0x40 MSTORE DUP1 PUSH1 0x3 DUP2 MSTORE PUSH1 0x20 ADD PUSH32 0x3131370000000000000000000000000000000000000000000000000000000000 DUP2 MSTORE POP DUP2 JUMP JUMPDEST PUSH1 0x40 MLOAD DUP1 PUSH1 0x40 ADD PUSH1 0x40 MSTORE DUP1 PUSH1 0x3 DUP2 MSTORE PUSH1 0x20 ADD PUSH32 0x3130360000000000000000000000000000000000000000000000000000000000 DUP2 MSTORE POP DUP2 JUMP JUMPDEST PUSH1 0x40 MLOAD DUP1 PUSH1 0x40 ADD PUSH1 0x40 MSTORE DUP1 PUSH1 0x3 DUP2 MSTORE PUSH1 0x20 ADD PUSH32 0x3130310000000000000000000000000000000000000000000000000000000000 DUP2 MSTORE POP DUP2 JUMP JUMPDEST PUSH1 0x40 MLOAD DUP1 PUSH1 0x40 ADD PUSH1 0x40 MSTORE DUP1 PUSH1 0x3 DUP2 MSTORE PUSH1 0x20 ADD PUSH32 0x3132380000000000000000000000000000000000000000000000000000000000 DUP2 MSTORE POP DUP2 JUMP JUMPDEST PUSH1 0x40 MLOAD DUP1 PUSH1 0x40 ADD PUSH1 0x40 MSTORE DUP1 PUSH1 0x3 DUP2 MSTORE PUSH1 0x20 ADD PUSH32 0x3131390000000000000000000000000000000000000000000000000000000000 DUP2 MSTORE POP DUP2 JUMP JUMPDEST PUSH1 0x40 MLOAD DUP1 PUSH1 0x40 ADD PUSH1 0x40 MSTORE DUP1 PUSH1 0x3 DUP2 MSTORE PUSH1 0x20 ADD PUSH32 0x3130320000000000000000000000000000000000000000000000000000000000 DUP2 MSTORE POP DUP2 JUMP JUMPDEST PUSH1 0x40 MLOAD DUP1 PUSH1 0x40 ADD PUSH1 0x40 MSTORE DUP1 PUSH1 0x3 DUP2 MSTORE PUSH1 0x20 ADD PUSH32 0x3131340000000000000000000000000000000000000000000000000000000000 DUP2 MSTORE POP DUP2 JUMP JUMPDEST PUSH1 0x40 MLOAD DUP1 PUSH1 0x40 ADD PUSH1 0x40 MSTORE DUP1 PUSH1 0x3 DUP2 MSTORE PUSH1 0x20 ADD PUSH32 0x3132360000000000000000000000000000000000000000000000000000000000 DUP2 MSTORE POP DUP2 JUMP JUMPDEST PUSH1 0x40 MLOAD DUP1 PUSH1 0x40 ADD PUSH1 0x40 MSTORE DUP1 PUSH1 0x3 DUP2 MSTORE PUSH1 0x20 ADD PUSH32 0x3132350000000000000000000000000000000000000000000000000000000000 DUP2 MSTORE POP DUP2 JUMP JUMPDEST PUSH1 0x40 MLOAD DUP1 PUSH1 0x40 ADD PUSH1 0x40 MSTORE DUP1 PUSH1 0x3 DUP2 MSTORE PUSH1 0x20 ADD PUSH32 0x3131330000000000000000000000000000000000000000000000000000000000 DUP2 MSTORE POP DUP2 JUMP JUMPDEST PUSH1 0x40 MLOAD DUP1 PUSH1 0x40 ADD PUSH1 0x40 MSTORE DUP1 PUSH1 0x3 DUP2 MSTORE PUSH1 0x20 ADD PUSH32 0x3133300000000000000000000000000000000000000000000000000000000000 DUP2 MSTORE POP DUP2 JUMP JUMPDEST PUSH1 0x40 MLOAD DUP1 PUSH1 0x40 ADD PUSH1 0x40 MSTORE DUP1 PUSH1 0x3 DUP2 MSTORE PUSH1 0x20 ADD PUSH32 0x3130340000000000000000000000000000000000000000000000000000000000 DUP2 MSTORE POP DUP2 JUMP JUMPDEST PUSH1 0x0 PUSH2 0xC88 DUP3 PUSH2 0xCD8 JUMP JUMPDEST PUSH2 0xC92 DUP2 DUP6 PUSH2 0xCE3 JUMP JUMPDEST SWAP4 POP PUSH2 0xCA2 DUP2 DUP6 PUSH1 0x20 DUP7 ADD PUSH2 0xCF4 JUMP JUMPDEST PUSH2 0xCAB DUP2 PUSH2 0xD27 JUMP JUMPDEST DUP5 ADD SWAP2 POP POP SWAP3 SWAP2 POP POP JUMP JUMPDEST PUSH1 0x0 PUSH1 0x20 DUP3 ADD SWAP1 POP DUP2 DUP2 SUB PUSH1 0x0 DUP4 ADD MSTORE PUSH2 0xCD0 DUP2 DUP5 PUSH2 0xC7D JUMP JUMPDEST SWAP1 POP SWAP3 SWAP2 POP POP JUMP JUMPDEST PUSH1 0x0 DUP2 MLOAD SWAP1 POP SWAP2 SWAP1 POP JUMP JUMPDEST PUSH1 0x0 DUP3 DUP3 MSTORE PUSH1 0x20 DUP3 ADD SWAP1 POP SWAP3 SWAP2 POP POP JUMP JUMPDEST PUSH1 0x0 JUMPDEST DUP4 DUP2 LT ISZERO PUSH2 0xD12 JUMPI DUP1 DUP3 ADD MLOAD DUP2 DUP5 ADD MSTORE PUSH1 0x20 DUP2 ADD SWAP1 POP PUSH2 0xCF7 JUMP JUMPDEST DUP4 DUP2 GT ISZERO PUSH2 0xD21 JUMPI PUSH1 0x0 DUP5 DUP5 ADD MSTORE JUMPDEST POP POP POP POP JUMP JUMPDEST PUSH1 0x0 PUSH1 0x1F NOT PUSH1 0x1F DUP4 ADD AND SWAP1 POP SWAP2 SWAP1 POP JUMP INVALID LOG2 PUSH5 0x6970667358 0x22 SLT KECCAK256 SUB 0xCB RETURNDATACOPY 0xC6 SWAP13 0x1F CALL DUP11 MSIZE CALLDATASIZE SWAP4 MLOAD SWAP16 0xC1 0x26 0xC1 PUSH8 0xCCA70673DFC510D9 DUP4 DUP8 0xA5 0xCF SWAP10 0xBB 0x2D PUSH5 0x736F6C6343 STOP ADDMOD MUL STOP CALLER "},"methodIdentifiers":{"ACCOUNT_HAS_NO_SHARES()":"e276d51e","ADDRESS_ALREADY_HAS_A_VALUE()":"a1cf1eec","ADDRESS_BLOCKED()":"405cfb1d","CONTRACT_LIMIT_REACHED()":"6db2111d","DISTRIBUTION_ERROR()":"c69faacb","GAS_REBATE_ERROR()":"2093d970","GAS_REBATE_FAILED()":"3e07bd46","H1_UNEQUAL_TO_DEPOSIT()":"f9b20ad6","HOLD_TIME_IS_24_HOURS()":"13182fd3","ID_DOES_NOT_EXIST()":"bbfb81b7","ID_INVALID_EXPIRED()":"231b28de","ID_NOT_TRANSFERABLE()":"cd6ccc6e","INCORRECT_INDEX()":"6d4f4b73","INSUFFICIENT_BALANCE()":"50b1f356","INSUFFICIENT_FUNDS()":"e7931438","INSUFFICIENT_TOKEN_BALANCE()":"7829c5da","INVALID_ADDRESS()":"5963709b","INVALID_INDEX()":"fc7d6667","INVALID_TOKEN_ID()":"b49aa3b5","NOT_VALID_PROVER()":"fe58db14","NO_AMOUNT_TO_CLAIM()":"d0a936cb","NO_DUPLICATES()":"1b8065e5","ONLY_APPROVES_CONTRACTS()":"74d7405e","PREVIOUSLY_VERIFIED()":"39459c8b","RESET_FEE()":"29dbf1a6","SOULBOUND_TOKEN()":"8c727f05","TOKEN_ID_ALREADY_EXISTS()":"3ee6341f","TRANSFER_FAILED()":"3f4ab80e","WHITELIST_ERROR()":"a9006144","ZERO_ADDRESS_NOT_VALID_ARGUMENT()":"08a0293e","ZERO_VARIABLE_NOT_ACCEPTED()":"bf62174c"}},"storageLayout":{"storage":[],"types":null}}}}