{"contracts/ValidatorRewards.sol":{"ValidatorRewards":{"abi":[{"anonymous":false,"inputs":[{"indexed":false,"internalType":"uint8","name":"version","type":"uint8"}],"name":"Initialized","type":"event"},{"anonymous":false,"inputs":[{"indexed":true,"internalType":"address","name":"to","type":"address"},{"indexed":true,"internalType":"uint256","name":"amount","type":"uint256"}],"name":"PaymentReleased","type":"event"},{"anonymous":false,"inputs":[{"indexed":true,"internalType":"bytes32","name":"role","type":"bytes32"},{"indexed":true,"internalType":"bytes32","name":"previousAdminRole","type":"bytes32"},{"indexed":true,"internalType":"bytes32","name":"newAdminRole","type":"bytes32"}],"name":"RoleAdminChanged","type":"event"},{"anonymous":false,"inputs":[{"indexed":true,"internalType":"bytes32","name":"role","type":"bytes32"},{"indexed":true,"internalType":"address","name":"account","type":"address"},{"indexed":true,"internalType":"address","name":"sender","type":"address"}],"name":"RoleGranted","type":"event"},{"anonymous":false,"inputs":[{"indexed":true,"internalType":"bytes32","name":"role","type":"bytes32"},{"indexed":true,"internalType":"address","name":"account","type":"address"},{"indexed":true,"internalType":"address","name":"sender","type":"address"}],"name":"RoleRevoked","type":"event"},{"anonymous":false,"inputs":[{"indexed":false,"internalType":"address","name":"validator","type":"address"},{"indexed":false,"internalType":"uint256","name":"shares","type":"uint256"}],"name":"SharesAdjusted","type":"event"},{"anonymous":false,"inputs":[{"indexed":true,"internalType":"address","name":"previousValidatorRewardAddress","type":"address"},{"indexed":true,"internalType":"address","name":"newValidatorRewardAddress","type":"address"}],"name":"UpdatedValidator","type":"event"},{"anonymous":false,"inputs":[{"indexed":false,"internalType":"address","name":"account","type":"address"},{"indexed":false,"internalType":"uint256","name":"shares","type":"uint256"}],"name":"ValidatorAdded","type":"event"},{"inputs":[],"name":"DEFAULT_ADMIN_ROLE","outputs":[{"internalType":"bytes32","name":"","type":"bytes32"}],"stateMutability":"view","type":"function"},{"inputs":[],"name":"DISTRIBUTOR_ROLE","outputs":[{"internalType":"bytes32","name":"","type":"bytes32"}],"stateMutability":"view","type":"function"},{"inputs":[{"internalType":"address","name":"account","type":"address"},{"internalType":"uint256","name":"shares_","type":"uint256"}],"name":"addValidator","outputs":[],"stateMutability":"nonpayable","type":"function"},{"inputs":[{"internalType":"uint256","name":"_index","type":"uint256"},{"internalType":"address","name":"_newValidatorRewardAddress","type":"address"}],"name":"adjustValidatorAddress","outputs":[],"stateMutability":"nonpayable","type":"function"},{"inputs":[{"internalType":"address","name":"account","type":"address"},{"internalType":"uint256","name":"shares_","type":"uint256"}],"name":"adjustValidatorShares","outputs":[],"stateMutability":"nonpayable","type":"function"},{"inputs":[{"internalType":"bytes32","name":"role","type":"bytes32"}],"name":"getRoleAdmin","outputs":[{"internalType":"bytes32","name":"","type":"bytes32"}],"stateMutability":"view","type":"function"},{"inputs":[{"internalType":"bytes32","name":"role","type":"bytes32"},{"internalType":"address","name":"account","type":"address"}],"name":"grantRole","outputs":[],"stateMutability":"nonpayable","type":"function"},{"inputs":[{"internalType":"bytes32","name":"role","type":"bytes32"},{"internalType":"address","name":"account","type":"address"}],"name":"hasRole","outputs":[{"internalType":"bool","name":"","type":"bool"}],"stateMutability":"view","type":"function"},{"inputs":[{"internalType":"address[]","name":"validatorsList","type":"address[]"},{"internalType":"uint256[]","name":"shares_","type":"uint256[]"},{"internalType":"address","name":"admin","type":"address"},{"internalType":"address","name":"distributor","type":"address"}],"name":"initialize","outputs":[],"stateMutability":"nonpayable","type":"function"},{"inputs":[{"internalType":"address","name":"validator","type":"address"}],"name":"isOriginalAddress","outputs":[{"internalType":"bool","name":"","type":"bool"}],"stateMutability":"view","type":"function"},{"inputs":[{"internalType":"address","name":"account","type":"address"}],"name":"releasable","outputs":[{"internalType":"uint256","name":"","type":"uint256"}],"stateMutability":"view","type":"function"},{"inputs":[{"internalType":"address payable","name":"account","type":"address"}],"name":"release","outputs":[],"stateMutability":"nonpayable","type":"function"},{"inputs":[],"name":"releaseAll","outputs":[],"stateMutability":"nonpayable","type":"function"},{"inputs":[{"internalType":"address","name":"account","type":"address"}],"name":"released","outputs":[{"internalType":"uint256","name":"","type":"uint256"}],"stateMutability":"view","type":"function"},{"inputs":[{"internalType":"bytes32","name":"role","type":"bytes32"},{"internalType":"address","name":"account","type":"address"}],"name":"renounceRole","outputs":[],"stateMutability":"nonpayable","type":"function"},{"inputs":[{"internalType":"bytes32","name":"role","type":"bytes32"},{"internalType":"address","name":"account","type":"address"}],"name":"revokeRole","outputs":[],"stateMutability":"nonpayable","type":"function"},{"inputs":[{"internalType":"address","name":"account","type":"address"}],"name":"shares","outputs":[{"internalType":"uint256","name":"","type":"uint256"}],"stateMutability":"view","type":"function"},{"inputs":[{"internalType":"bytes4","name":"interfaceId","type":"bytes4"}],"name":"supportsInterface","outputs":[{"internalType":"bool","name":"","type":"bool"}],"stateMutability":"view","type":"function"},{"inputs":[],"name":"totalReleased","outputs":[{"internalType":"uint256","name":"","type":"uint256"}],"stateMutability":"view","type":"function"},{"inputs":[],"name":"totalShares","outputs":[{"internalType":"uint256","name":"","type":"uint256"}],"stateMutability":"view","type":"function"},{"inputs":[{"internalType":"uint256","name":"index","type":"uint256"}],"name":"validators","outputs":[{"internalType":"address","name":"","type":"address"}],"stateMutability":"view","type":"function"},{"stateMutability":"payable","type":"receive"}],"evm":{"bytecode":{"linkReferences":{},"object":"608060405234801561001057600080fd5b5061376b806100206000396000f3fe60806040526004361061012e5760003560e01c806391d14854116100ab578063d547741f1161006f578063d547741f1461041f578063deea2b9b14610448578063e33b7de314610485578063e9d1ea8a146104b0578063f0bd87cc146104d9578063fc6c1f021461050457610135565b806391d14854146103005780639852595c1461033d578063a217fddf1461037a578063a3f8eace146103a5578063ce7c2ac2146103e257610135565b806335aa2e44116100f257806335aa2e441461022f57806336568abe1461026c5780633a98ef39146102955780634b3efd3b146102c05780635be7fde8146102e957610135565b806301ffc9a71461013a5780631916558714610177578063246723ac146101a0578063248a9ca3146101c95780632f2ff15d1461020657610135565b3661013557005b600080fd5b34801561014657600080fd5b50610161600480360381019061015c9190612d2a565b61052d565b60405161016e9190613018565b60405180910390f35b34801561018357600080fd5b5061019e60048036038101906101999190612bcd565b6105a7565b005b3480156101ac57600080fd5b506101c760048036038101906101c29190612c32565b61083f565b005b3480156101d557600080fd5b506101f060048036038101906101eb9190612cc5565b610c8f565b6040516101fd9190613033565b60405180910390f35b34801561021257600080fd5b5061022d60048036038101906102289190612cee565b610cae565b005b34801561023b57600080fd5b5061025660048036038101906102519190612d53565b610ccf565b6040516102639190612fd4565b60405180910390f35b34801561027857600080fd5b50610293600480360381019061028e9190612cee565b610d79565b005b3480156102a157600080fd5b506102aa610dfc565b6040516102b7919061312b565b60405180910390f35b3480156102cc57600080fd5b506102e760048036038101906102e29190612bf6565b610e42565b005b3480156102f557600080fd5b506102fe6111a3565b005b34801561030c57600080fd5b5061032760048036038101906103229190612cee565b611539565b6040516103349190613018565b60405180910390f35b34801561034957600080fd5b50610364600480360381019061035f9190612ba4565b6115a3565b604051610371919061312b565b60405180910390f35b34801561038657600080fd5b5061038f611628565b60405161039c9190613033565b60405180910390f35b3480156103b157600080fd5b506103cc60048036038101906103c79190612ba4565b61162f565b6040516103d9919061312b565b60405180910390f35b3480156103ee57600080fd5b5061040960048036038101906104049190612ba4565b6116c7565b604051610416919061312b565b60405180910390f35b34801561042b57600080fd5b5061044660048036038101906104419190612cee565b61174c565b005b34801561045457600080fd5b5061046f600480360381019061046a9190612ba4565b61176d565b60405161047c9190613018565b60405180910390f35b34801561049157600080fd5b5061049a61191b565b6040516104a7919061312b565b60405180910390f35b3480156104bc57600080fd5b506104d760048036038101906104d29190612d7c565b611961565b005b3480156104e557600080fd5b506104ee611d8e565b6040516104fb9190613033565b60405180910390f35b34801561051057600080fd5b5061052b60048036038101906105269190612bf6565b611db2565b005b60007f7965db0b000000000000000000000000000000000000000000000000000000007bffffffffffffffffffffffffffffffffffffffffffffffffffffffff1916827bffffffffffffffffffffffffffffffffffffffffffffffffffffffff191614806105a0575061059f82612258565b5b9050919050565b6105bb676eb9af4c7615224f60c01b6122c2565b6105cf676632cefd4037e29360c01b6122c2565b6105e3671beb47147ae44ef860c01b6122c2565b6105f7672cfa3ece2f8c1f6260c01b6122c2565b6000600460008373ffffffffffffffffffffffffffffffffffffffff1673ffffffffffffffffffffffffffffffffffffffff16815260200190815260200160002054116040518060400160405280600381526020017f3132360000000000000000000000000000000000000000000000000000000000815250906106b1576040517f08c379a00000000000000000000000000000000000000000000000000000000081526004016106a89190613069565b60405180910390fd5b506106c667b2a7616bcb17354e60c01b6122c2565b6106da67c600a0b21933790460c01b6122c2565b6106ee67ad082c7881d4374160c01b6122c2565b60006106f98261162f565b905061070f67e5ba0fdafb8a985360c01b6122c2565b806003600082825461072191906131f5565b9250508190555061073c676734e519328e967960c01b6122c2565b610750676a531fbdedd0129760c01b6122c2565b80600560008473ffffffffffffffffffffffffffffffffffffffff1673ffffffffffffffffffffffffffffffffffffffff168152602001908152602001600020600082825401925050819055506107b1672da33076f603a34360c01b6122c2565b6107c56704ac89eb021266cd60c01b6122c2565b6107cf82826122c5565b6107e36719b959fa790b2f1760c01b6122c2565b6107f7675c119ab59b5259b660c01b6122c2565b808273ffffffffffffffffffffffffffffffffffffffff167fdf20fd1e76bc69d672e4814fafb2c449bba3a5369d8359adf9e05e6fde87b05660405160405180910390a35050565b6108536752238d4c56077c1960c01b6122c2565b600060018054906101000a900460ff16159050808015610884575060018060009054906101000a900460ff1660ff16105b806108b25750610893306123b9565b1580156108b1575060018060009054906101000a900460ff1660ff16145b5b6108f1576040517f08c379a00000000000000000000000000000000000000000000000000000000081526004016108e8906130eb565b60405180910390fd5b60018060006101000a81548160ff021916908360ff160217905550801561092d5760018060016101000a81548160ff0219169083151502179055505b610941679223488d9a709e3960c01b6122c2565b610955676ec2f470b59e1a8d60c01b6122c2565b61096967306770651396c6fe60c01b6122c2565b61097d67390f068348b25bae60c01b6122c2565b61098a6000801b846123dc565b61099e67dcefcebc04b0ecb160c01b6122c2565b6109b2675ac48abb97137faf60c01b6122c2565b6109dc7ffbd454f36a7e1a388bd6fc3ab10d434aa4578f811acbbcf33afb1c697486313c836123dc565b6109f067996a973d9dae212060c01b6122c2565b610a046795665b47d8a7067d60c01b6122c2565b60005b8551811015610c2e57610a2467e26064a41ccda33a60c01b6122c2565b610a3867643d71d811ca486a60c01b6122c2565b6006868281518110610a73577f4e487b7100000000000000000000000000000000000000000000000000000000600052603260045260246000fd5b60200260200101519080600181540180825580915050600190039060005260206000200160009091909190916101000a81548173ffffffffffffffffffffffffffffffffffffffff021916908373ffffffffffffffffffffffffffffffffffffffff160217905550610aef6703b3be5067faa44060c01b6122c2565b848181518110610b28577f4e487b7100000000000000000000000000000000000000000000000000000000600052603260045260246000fd5b602002602001015160046000888481518110610b6d577f4e487b7100000000000000000000000000000000000000000000000000000000600052603260045260246000fd5b602002602001015173ffffffffffffffffffffffffffffffffffffffff1673ffffffffffffffffffffffffffffffffffffffff16815260200190815260200160002081905550610bc7675568e5a1892e032660c01b6122c2565b848181518110610c00577f4e487b7100000000000000000000000000000000000000000000000000000000600052603260045260246000fd5b6020026020010151600254610c1591906131f5565b6002819055508080610c2690613447565b915050610a07565b508015610c885760006001806101000a81548160ff0219169083151502179055507f7f26b83ff96e1f2b6a682f133852f6798a09c465da95921460cefb38474024986001604051610c7f919061304e565b60405180910390a15b5050505050565b6000806000838152602001908152602001600020600101549050919050565b610cb782610c8f565b610cc0816124bc565b610cca83836123dc565b505050565b6000610ce5675209c0bcb70d842b60c01b6122c2565b610cf9672c1c923f17535e6560c01b6122c2565b610d0d67c57d1ffc5670b92360c01b6122c2565b60068281548110610d47577f4e487b7100000000000000000000000000000000000000000000000000000000600052603260045260246000fd5b9060005260206000200160009054906101000a900473ffffffffffffffffffffffffffffffffffffffff169050919050565b610d816124d0565b73ffffffffffffffffffffffffffffffffffffffff168173ffffffffffffffffffffffffffffffffffffffff1614610dee576040517f08c379a0000000000000000000000000000000000000000000000000000000008152600401610de59061310b565b60405180910390fd5b610df882826124d8565b5050565b6000610e1267df3c500c95a62eca60c01b6122c2565b610e2667f8b76862e21af08360c01b6122c2565b610e3a67c063e08a95df298d60c01b6122c2565b600254905090565b610e5667ad4aa363288805da60c01b6122c2565b7ffbd454f36a7e1a388bd6fc3ab10d434aa4578f811acbbcf33afb1c697486313c610e80816124bc565b610e9467de27e05b0f2d6c9d60c01b6122c2565b610ea867be52a9ce7720952d60c01b6122c2565b610ebc67eafe5293c83d805d60c01b6122c2565b610ed0675aaadbea5bb2275260c01b6122c2565b610ee46731296b0dedf914c260c01b6122c2565b60001515610ef18461176d565b1515146040518060400160405280600381526020017f313237000000000000000000000000000000000000000000000000000000000081525090610f6b576040517f08c379a0000000000000000000000000000000000000000000000000000000008152600401610f629190613069565b60405180910390fd5b50610f8067152df6cd6637c6a060c01b6122c2565b610f946701417d3d9259ebd660c01b6122c2565b610fa8678e5ada6a314136c860c01b6122c2565b610fbc6766cff308efeca43d60c01b6122c2565b600082116040518060400160405280600381526020017f313238000000000000000000000000000000000000000000000000000000000081525090611037576040517f08c379a000000000000000000000000000000000000000000000000000000000815260040161102e9190613069565b60405180910390fd5b5061104c67e998fcb09f41bb1160c01b6122c2565b611060674e90af3b675a16f460c01b6122c2565b600460008473ffffffffffffffffffffffffffffffffffffffff1673ffffffffffffffffffffffffffffffffffffffff16815260200190815260200160002054600260008282546110b191906132d6565b925050819055506110cc675b9dd09a35ade1a060c01b6122c2565b81600260008282546110de91906131f5565b925050819055506110f96798c925b61779e30360c01b6122c2565b81600460008573ffffffffffffffffffffffffffffffffffffffff1673ffffffffffffffffffffffffffffffffffffffff1681526020019081526020016000208190555061115167ea426bf6e009c7ce60c01b6122c2565b61116567afc5438fd32a421c60c01b6122c2565b7f63c73b6ba0c6dd96222f5ff08a3755fab02dedf0d99c3085703fa9c05eebf5208383604051611196929190612fef565b60405180910390a1505050565b6111b767beb3737a1c89ea2b60c01b6122c2565b6111cb674ba122b401c7937060c01b6122c2565b6111df6786e6be1ad83a3d0160c01b6122c2565b60005b60068054905081101561153657611203674ec34da0aa42e52960c01b6122c2565b6112176728bb7b072bcbfb9960c01b6122c2565b600061128660068381548110611256577f4e487b7100000000000000000000000000000000000000000000000000000000600052603260045260246000fd5b9060005260206000200160009054906101000a900473ffffffffffffffffffffffffffffffffffffffff1661162f565b905061129c67910ab24ccfa2632760c01b6122c2565b80600360008282546112ae91906131f5565b925050819055506112c9672d3f50ad99a2590860c01b6122c2565b6112dd67e7c42cf70984963b60c01b6122c2565b80600560006006858154811061131c577f4e487b7100000000000000000000000000000000000000000000000000000000600052603260045260246000fd5b9060005260206000200160009054906101000a900473ffffffffffffffffffffffffffffffffffffffff1673ffffffffffffffffffffffffffffffffffffffff1673ffffffffffffffffffffffffffffffffffffffff168152602001908152602001600020600082825401925050819055506113a267b1833b3eb742caf460c01b6122c2565b6113b66796eea449c7cc4ff460c01b6122c2565b6000600683815481106113f2577f4e487b7100000000000000000000000000000000000000000000000000000000600052603260045260246000fd5b9060005260206000200160009054906101000a900473ffffffffffffffffffffffffffffffffffffffff16905061143367f9eca2bfa55dfe9d60c01b6122c2565b61144767bff3246b47ec76f560c01b6122c2565b61145181836122c5565b61146567a76e22d2d81cc52660c01b6122c2565b6114796785221404a20988b060c01b6122c2565b81600684815481106114b4577f4e487b7100000000000000000000000000000000000000000000000000000000600052603260045260246000fd5b9060005260206000200160009054906101000a900473ffffffffffffffffffffffffffffffffffffffff1673ffffffffffffffffffffffffffffffffffffffff167fdf20fd1e76bc69d672e4814fafb2c449bba3a5369d8359adf9e05e6fde87b05660405160405180910390a35050808061152e90613447565b9150506111e2565b50565b600080600084815260200190815260200160002060000160008373ffffffffffffffffffffffffffffffffffffffff1673ffffffffffffffffffffffffffffffffffffffff16815260200190815260200160002060009054906101000a900460ff16905092915050565b60006115b9679895b8da1827604a60c01b6122c2565b6115cd672b9b34846c65e53160c01b6122c2565b6115e16730e5a2c69e9c2e2f60c01b6122c2565b600560008373ffffffffffffffffffffffffffffffffffffffff1673ffffffffffffffffffffffffffffffffffffffff168152602001908152602001600020549050919050565b6000801b81565b600061164567e459f15caa67855b60c01b6122c2565b61165967edb1b571e5a699b760c01b6122c2565b61166d677ddd3471519e729960c01b6122c2565b600061167761191b565b4761168291906131f5565b905061169867f5f11ebdac5034f160c01b6122c2565b6116ac678ef7c410db337d8d60c01b6122c2565b6116bf83826116ba866115a3565b6125b9565b915050919050565b60006116dd6788e6631637cc58ce60c01b6122c2565b6116f167f24fc5c248b4fc1160c01b6122c2565b61170567561d86d62baaba0b60c01b6122c2565b600460008373ffffffffffffffffffffffffffffffffffffffff1673ffffffffffffffffffffffffffffffffffffffff168152602001908152602001600020549050919050565b61175582610c8f565b61175e816124bc565b61176883836124d8565b505050565b6000611783671c2ff44718cb779a60c01b6122c2565b61179767e87d29eacb3f679960c01b6122c2565b6117ab6799619d46c948878d60c01b6122c2565b60005b6006805490508110156118e8576117cf67c25f804b19eea41160c01b6122c2565b6117e36767bc3b0009d85b5c60c01b6122c2565b8273ffffffffffffffffffffffffffffffffffffffff1660068281548110611834577f4e487b7100000000000000000000000000000000000000000000000000000000600052603260045260246000fd5b9060005260206000200160009054906101000a900473ffffffffffffffffffffffffffffffffffffffff1673ffffffffffffffffffffffffffffffffffffffff1614156118c15761188f67446966b6fef857e360c01b6122c2565b6118a367bc067ae79ce9be7960c01b6122c2565b6118b7672e789203ac77a90760c01b6122c2565b6000915050611916565b6118d567c4e582a9ccbfb3f260c01b6122c2565b80806118e090613447565b9150506117ae565b506118fd67473b18d973e69d2a60c01b6122c2565b61191167c13956f9c07ff60960c01b6122c2565b600190505b919050565b600061193167c012936394b3a4c860c01b6122c2565b61194567836849c499d431cc60c01b6122c2565b6119596757a01c8bd3f4d7d860c01b6122c2565b600354905090565b6119756705378c023b94321060c01b6122c2565b7ffbd454f36a7e1a388bd6fc3ab10d434aa4578f811acbbcf33afb1c697486313c61199f816124bc565b6119b367a0cd39f6212a835960c01b6122c2565b6119c767a1b73bc006dec84260c01b6122c2565b6119db6770b5974371dcfb4960c01b6122c2565b6119ef675ee9738f665d54b260c01b6122c2565b611a03675fe0030c43716a0660c01b6122c2565b600073ffffffffffffffffffffffffffffffffffffffff168273ffffffffffffffffffffffffffffffffffffffff1614156040518060400160405280600381526020017f313233000000000000000000000000000000000000000000000000000000000081525090611aab576040517f08c379a0000000000000000000000000000000000000000000000000000000008152600401611aa29190613069565b60405180910390fd5b50611ac067fc175076f993252b60c01b6122c2565b611ad46703db742eb170f10160c01b6122c2565b611ae867cc545355ed6ffba060c01b6122c2565b600060068481548110611b24577f4e487b7100000000000000000000000000000000000000000000000000000000600052603260045260246000fd5b9060005260206000200160009054906101000a900473ffffffffffffffffffffffffffffffffffffffff169050611b6567192ca8e71025879660c01b6122c2565b611b7967e51a767f3584ad3f60c01b6122c2565b6000600460008373ffffffffffffffffffffffffffffffffffffffff1673ffffffffffffffffffffffffffffffffffffffff168152602001908152602001600020549050611bd167a35be76124b5662160c01b6122c2565b6000600460008473ffffffffffffffffffffffffffffffffffffffff1673ffffffffffffffffffffffffffffffffffffffff16815260200190815260200160002081905550611c2a6710361a5d88a561cf60c01b6122c2565b80600460008673ffffffffffffffffffffffffffffffffffffffff1673ffffffffffffffffffffffffffffffffffffffff16815260200190815260200160002081905550611c8267d6063a40e5e1cb8660c01b6122c2565b8360068681548110611cbd577f4e487b7100000000000000000000000000000000000000000000000000000000600052603260045260246000fd5b9060005260206000200160006101000a81548173ffffffffffffffffffffffffffffffffffffffff021916908373ffffffffffffffffffffffffffffffffffffffff160217905550611d196707421fac31f4fb2860c01b6122c2565b611d2d67a13349ebf2416deb60c01b6122c2565b8373ffffffffffffffffffffffffffffffffffffffff168273ffffffffffffffffffffffffffffffffffffffff167f2b0f020fc2ca0df9e227d90fbc27227ec945336ab8036526c0ed27f713909aa060405160405180910390a35050505050565b7ffbd454f36a7e1a388bd6fc3ab10d434aa4578f811acbbcf33afb1c697486313c81565b611dc667f8d89bccb95c4f1860c01b6122c2565b7ffbd454f36a7e1a388bd6fc3ab10d434aa4578f811acbbcf33afb1c697486313c611df0816124bc565b611e0467939454d95b2efa3b60c01b6122c2565b611e1867fc521a979259057260c01b6122c2565b611e2c67360079afbc17406a60c01b6122c2565b611e40675e48b0cedab0254060c01b6122c2565b611e54673c565239ba23ed9b60c01b6122c2565b600073ffffffffffffffffffffffffffffffffffffffff168373ffffffffffffffffffffffffffffffffffffffff1614156040518060400160405280600381526020017f313035000000000000000000000000000000000000000000000000000000000081525090611efc576040517f08c379a0000000000000000000000000000000000000000000000000000000008152600401611ef39190613069565b60405180910390fd5b50611f11673e094ff2b5437b3460c01b6122c2565b611f2567e85d1443ccdad73c60c01b6122c2565b611f3967f1b092fa9e66919d60c01b6122c2565b611f4d67612d8fde64abf60d60c01b6122c2565b600082116040518060400160405280600381526020017f313238000000000000000000000000000000000000000000000000000000000081525090611fc8576040517f08c379a0000000000000000000000000000000000000000000000000000000008152600401611fbf9190613069565b60405180910390fd5b50611fdd67b424703ceb58a37660c01b6122c2565b611ff167d213799a04342a0560c01b6122c2565b61200466ab604098d216e060c01b6122c2565b612018673568c296bcda752c60c01b6122c2565b6000600460008573ffffffffffffffffffffffffffffffffffffffff1673ffffffffffffffffffffffffffffffffffffffff16815260200190815260200160002054146040518060400160405280600381526020017f3132390000000000000000000000000000000000000000000000000000000000815250906120d2576040517f08c379a00000000000000000000000000000000000000000000000000000000081526004016120c99190613069565b60405180910390fd5b506120e767d00e1f2c162682f760c01b6122c2565b6120fb672e39b116b32923c460c01b6122c2565b61210f6790e549dca071cdde60c01b6122c2565b6006839080600181540180825580915050600190039060005260206000200160009091909190916101000a81548173ffffffffffffffffffffffffffffffffffffffff021916908373ffffffffffffffffffffffffffffffffffffffff16021790555061218667bfff5fccccec39e160c01b6122c2565b81600460008573ffffffffffffffffffffffffffffffffffffffff1673ffffffffffffffffffffffffffffffffffffffff168152602001908152602001600020819055506121de6701544b54e49426b360c01b6122c2565b816002546121ec91906131f5565b60028190555061220667d61528ad998ded9b60c01b6122c2565b61221a674f9f598482d88c2260c01b6122c2565b7f9000b209805850a65058f21361a9978cb30f1413ed555553ab52a59b440b5d99838360405161224b929190612fef565b60405180910390a1505050565b60007f01ffc9a7000000000000000000000000000000000000000000000000000000007bffffffffffffffffffffffffffffffffffffffffffffffffffffffff1916827bffffffffffffffffffffffffffffffffffffffffffffffffffffffff1916149050919050565b50565b80471015612308576040517f08c379a00000000000000000000000000000000000000000000000000000000081526004016122ff906130cb565b60405180910390fd5b60008273ffffffffffffffffffffffffffffffffffffffff168260405161232e90612f85565b60006040518083038185875af1925050503d806000811461236b576040519150601f19603f3d011682016040523d82523d6000602084013e612370565b606091505b50509050806123b4576040517f08c379a00000000000000000000000000000000000000000000000000000000081526004016123ab906130ab565b60405180910390fd5b505050565b6000808273ffffffffffffffffffffffffffffffffffffffff163b119050919050565b6123e68282611539565b6124b857600160008084815260200190815260200160002060000160008373ffffffffffffffffffffffffffffffffffffffff1673ffffffffffffffffffffffffffffffffffffffff16815260200190815260200160002060006101000a81548160ff02191690831515021790555061245d6124d0565b73ffffffffffffffffffffffffffffffffffffffff168173ffffffffffffffffffffffffffffffffffffffff16837f2f8788117e7eff1d82e926ec794901d17c78024a50270940304540a733656f0d60405160405180910390a45b5050565b6124cd816124c86124d0565b612663565b50565b600033905090565b6124e28282611539565b156125b557600080600084815260200190815260200160002060000160008373ffffffffffffffffffffffffffffffffffffffff1673ffffffffffffffffffffffffffffffffffffffff16815260200190815260200160002060006101000a81548160ff02191690831515021790555061255a6124d0565b73ffffffffffffffffffffffffffffffffffffffff168173ffffffffffffffffffffffffffffffffffffffff16837ff6391f5c32d9c69d2a47ea670b442974b53935d1edc7fd64eb21e047a839171b60405160405180910390a45b5050565b60006125cf67d139a45d4c9413dc60c01b6122c2565b6125e3674c2c2d0a52412df460c01b6122c2565b6125f7672461205de7b3aa9a60c01b6122c2565b81600254600460008773ffffffffffffffffffffffffffffffffffffffff1673ffffffffffffffffffffffffffffffffffffffff1681526020019081526020016000205485612646919061327c565b612650919061324b565b61265a91906132d6565b90509392505050565b61266d8282611539565b6126e45761267a816126e8565b6126888360001c6020612715565b604051602001612699929190612f9a565b6040516020818303038152906040526040517f08c379a00000000000000000000000000000000000000000000000000000000081526004016126db9190613069565b60405180910390fd5b5050565b606061270e8273ffffffffffffffffffffffffffffffffffffffff16601460ff16612715565b9050919050565b606060006002836002612728919061327c565b61273291906131f5565b67ffffffffffffffff811115612771577f4e487b7100000000000000000000000000000000000000000000000000000000600052604160045260246000fd5b6040519080825280601f01601f1916602001820160405280156127a35781602001600182028036833780820191505090505b5090507f300000000000000000000000000000000000000000000000000000000000000081600081518110612801577f4e487b7100000000000000000000000000000000000000000000000000000000600052603260045260246000fd5b60200101907effffffffffffffffffffffffffffffffffffffffffffffffffffffffffffff1916908160001a9053507f78000000000000000000000000000000000000000000000000000000000000008160018151811061288b577f4e487b7100000000000000000000000000000000000000000000000000000000600052603260045260246000fd5b60200101907effffffffffffffffffffffffffffffffffffffffffffffffffffffffffffff1916908160001a905350600060018460026128cb919061327c565b6128d591906131f5565b90505b60018111156129c1577f3031323334353637383961626364656600000000000000000000000000000000600f86166010811061293d577f4e487b7100000000000000000000000000000000000000000000000000000000600052603260045260246000fd5b1a60f81b82828151811061297a577f4e487b7100000000000000000000000000000000000000000000000000000000600052603260045260246000fd5b60200101907effffffffffffffffffffffffffffffffffffffffffffffffffffffffffffff1916908160001a905350600485901c9450806129ba906133ec565b90506128d8565b5060008414612a05576040517f08c379a00000000000000000000000000000000000000000000000000000000081526004016129fc9061308b565b60405180910390fd5b8091505092915050565b6000612a22612a1d8461316b565b613146565b90508083825260208201905082856020860282011115612a4157600080fd5b60005b85811015612a715781612a578882612ae7565b845260208401935060208301925050600181019050612a44565b5050509392505050565b6000612a8e612a8984613197565b613146565b90508083825260208201905082856020860282011115612aad57600080fd5b60005b85811015612add5781612ac38882612b8f565b845260208401935060208301925050600181019050612ab0565b5050509392505050565b600081359050612af6816136c2565b92915050565b600081359050612b0b816136d9565b92915050565b600082601f830112612b2257600080fd5b8135612b32848260208601612a0f565b91505092915050565b600082601f830112612b4c57600080fd5b8135612b5c848260208601612a7b565b91505092915050565b600081359050612b74816136f0565b92915050565b600081359050612b8981613707565b92915050565b600081359050612b9e8161371e565b92915050565b600060208284031215612bb657600080fd5b6000612bc484828501612ae7565b91505092915050565b600060208284031215612bdf57600080fd5b6000612bed84828501612afc565b91505092915050565b60008060408385031215612c0957600080fd5b6000612c1785828601612ae7565b9250506020612c2885828601612b8f565b9150509250929050565b60008060008060808587031215612c4857600080fd5b600085013567ffffffffffffffff811115612c6257600080fd5b612c6e87828801612b11565b945050602085013567ffffffffffffffff811115612c8b57600080fd5b612c9787828801612b3b565b9350506040612ca887828801612ae7565b9250506060612cb987828801612ae7565b91505092959194509250565b600060208284031215612cd757600080fd5b6000612ce584828501612b65565b91505092915050565b60008060408385031215612d0157600080fd5b6000612d0f85828601612b65565b9250506020612d2085828601612ae7565b9150509250929050565b600060208284031215612d3c57600080fd5b6000612d4a84828501612b7a565b91505092915050565b600060208284031215612d6557600080fd5b6000612d7384828501612b8f565b91505092915050565b60008060408385031215612d8f57600080fd5b6000612d9d85828601612b8f565b9250506020612dae85828601612ae7565b9150509250929050565b612dc18161330a565b82525050565b612dd08161332e565b82525050565b612ddf8161333a565b82525050565b612dee816133a7565b82525050565b6000612dff826131c3565b612e0981856131d9565b9350612e198185602086016133b9565b612e228161351d565b840191505092915050565b6000612e38826131c3565b612e4281856131ea565b9350612e528185602086016133b9565b80840191505092915050565b6000612e6b6020836131d9565b9150612e768261352e565b602082019050919050565b6000612e8e603a836131d9565b9150612e9982613557565b604082019050919050565b6000612eb1601d836131d9565b9150612ebc826135a6565b602082019050919050565b6000612ed4602e836131d9565b9150612edf826135cf565b604082019050919050565b6000612ef76000836131ce565b9150612f028261361e565b600082019050919050565b6000612f1a6017836131ea565b9150612f2582613621565b601782019050919050565b6000612f3d6011836131ea565b9150612f488261364a565b601182019050919050565b6000612f60602f836131d9565b9150612f6b82613673565b604082019050919050565b612f7f81613390565b82525050565b6000612f9082612eea565b9150819050919050565b6000612fa582612f0d565b9150612fb18285612e2d565b9150612fbc82612f30565b9150612fc88284612e2d565b91508190509392505050565b6000602082019050612fe96000830184612db8565b92915050565b60006040820190506130046000830185612db8565b6130116020830184612f76565b9392505050565b600060208201905061302d6000830184612dc7565b92915050565b60006020820190506130486000830184612dd6565b92915050565b60006020820190506130636000830184612de5565b92915050565b600060208201905081810360008301526130838184612df4565b905092915050565b600060208201905081810360008301526130a481612e5e565b9050919050565b600060208201905081810360008301526130c481612e81565b9050919050565b600060208201905081810360008301526130e481612ea4565b9050919050565b6000602082019050818103600083015261310481612ec7565b9050919050565b6000602082019050818103600083015261312481612f53565b9050919050565b60006020820190506131406000830184612f76565b92915050565b6000613150613161565b905061315c8282613416565b919050565b6000604051905090565b600067ffffffffffffffff821115613186576131856134ee565b5b602082029050602081019050919050565b600067ffffffffffffffff8211156131b2576131b16134ee565b5b602082029050602081019050919050565b600081519050919050565b600081905092915050565b600082825260208201905092915050565b600081905092915050565b600061320082613390565b915061320b83613390565b9250827fffffffffffffffffffffffffffffffffffffffffffffffffffffffffffffffff038211156132405761323f613490565b5b828201905092915050565b600061325682613390565b915061326183613390565b925082613271576132706134bf565b5b828204905092915050565b600061328782613390565b915061329283613390565b9250817fffffffffffffffffffffffffffffffffffffffffffffffffffffffffffffffff04831182151516156132cb576132ca613490565b5b828202905092915050565b60006132e182613390565b91506132ec83613390565b9250828210156132ff576132fe613490565b5b828203905092915050565b600061331582613370565b9050919050565b600061332782613370565b9050919050565b60008115159050919050565b6000819050919050565b60007fffffffff0000000000000000000000000000000000000000000000000000000082169050919050565b600073ffffffffffffffffffffffffffffffffffffffff82169050919050565b6000819050919050565b600060ff82169050919050565b60006133b28261339a565b9050919050565b60005b838110156133d75780820151818401526020810190506133bc565b838111156133e6576000848401525b50505050565b60006133f782613390565b9150600082141561340b5761340a613490565b5b600182039050919050565b61341f8261351d565b810181811067ffffffffffffffff8211171561343e5761343d6134ee565b5b80604052505050565b600061345282613390565b91507fffffffffffffffffffffffffffffffffffffffffffffffffffffffffffffffff82141561348557613484613490565b5b600182019050919050565b7f4e487b7100000000000000000000000000000000000000000000000000000000600052601160045260246000fd5b7f4e487b7100000000000000000000000000000000000000000000000000000000600052601260045260246000fd5b7f4e487b7100000000000000000000000000000000000000000000000000000000600052604160045260246000fd5b6000601f19601f8301169050919050565b7f537472696e67733a20686578206c656e67746820696e73756666696369656e74600082015250565b7f416464726573733a20756e61626c6520746f2073656e642076616c75652c207260008201527f6563697069656e74206d61792068617665207265766572746564000000000000602082015250565b7f416464726573733a20696e73756666696369656e742062616c616e6365000000600082015250565b7f496e697469616c697a61626c653a20636f6e747261637420697320616c72656160008201527f647920696e697469616c697a6564000000000000000000000000000000000000602082015250565b50565b7f416363657373436f6e74726f6c3a206163636f756e7420000000000000000000600082015250565b7f206973206d697373696e6720726f6c6520000000000000000000000000000000600082015250565b7f416363657373436f6e74726f6c3a2063616e206f6e6c792072656e6f756e636560008201527f20726f6c657320666f722073656c660000000000000000000000000000000000602082015250565b6136cb8161330a565b81146136d657600080fd5b50565b6136e28161331c565b81146136ed57600080fd5b50565b6136f98161333a565b811461370457600080fd5b50565b61371081613344565b811461371b57600080fd5b50565b61372781613390565b811461373257600080fd5b5056fea2646970667358221220fc768bc28ec7e3a5c35cebd7fdf8e1f805a3f6cf571f993ab2e23c2ec9cda0e664736f6c63430008020033","opcodes":"PUSH1 0x80 PUSH1 0x40 MSTORE CALLVALUE DUP1 ISZERO PUSH2 0x10 JUMPI PUSH1 0x0 DUP1 REVERT JUMPDEST POP PUSH2 0x376B DUP1 PUSH2 0x20 PUSH1 0x0 CODECOPY PUSH1 0x0 RETURN INVALID PUSH1 0x80 PUSH1 0x40 MSTORE PUSH1 0x4 CALLDATASIZE LT PUSH2 0x12E JUMPI PUSH1 0x0 CALLDATALOAD PUSH1 0xE0 SHR DUP1 PUSH4 0x91D14854 GT PUSH2 0xAB JUMPI DUP1 PUSH4 0xD547741F GT PUSH2 0x6F JUMPI DUP1 PUSH4 0xD547741F EQ PUSH2 0x41F JUMPI DUP1 PUSH4 0xDEEA2B9B EQ PUSH2 0x448 JUMPI DUP1 PUSH4 0xE33B7DE3 EQ PUSH2 0x485 JUMPI DUP1 PUSH4 0xE9D1EA8A EQ PUSH2 0x4B0 JUMPI DUP1 PUSH4 0xF0BD87CC EQ PUSH2 0x4D9 JUMPI DUP1 PUSH4 0xFC6C1F02 EQ PUSH2 0x504 JUMPI PUSH2 0x135 JUMP JUMPDEST DUP1 PUSH4 0x91D14854 EQ PUSH2 0x300 JUMPI DUP1 PUSH4 0x9852595C EQ PUSH2 0x33D JUMPI DUP1 PUSH4 0xA217FDDF EQ PUSH2 0x37A JUMPI DUP1 PUSH4 0xA3F8EACE EQ PUSH2 0x3A5 JUMPI DUP1 PUSH4 0xCE7C2AC2 EQ PUSH2 0x3E2 JUMPI PUSH2 0x135 JUMP JUMPDEST DUP1 PUSH4 0x35AA2E44 GT PUSH2 0xF2 JUMPI DUP1 PUSH4 0x35AA2E44 EQ PUSH2 0x22F JUMPI DUP1 PUSH4 0x36568ABE EQ PUSH2 0x26C JUMPI DUP1 PUSH4 0x3A98EF39 EQ PUSH2 0x295 JUMPI DUP1 PUSH4 0x4B3EFD3B EQ PUSH2 0x2C0 JUMPI DUP1 PUSH4 0x5BE7FDE8 EQ PUSH2 0x2E9 JUMPI PUSH2 0x135 JUMP JUMPDEST DUP1 PUSH4 0x1FFC9A7 EQ PUSH2 0x13A JUMPI DUP1 PUSH4 0x19165587 EQ PUSH2 0x177 JUMPI DUP1 PUSH4 0x246723AC EQ PUSH2 0x1A0 JUMPI DUP1 PUSH4 0x248A9CA3 EQ PUSH2 0x1C9 JUMPI DUP1 PUSH4 0x2F2FF15D EQ PUSH2 0x206 JUMPI PUSH2 0x135 JUMP JUMPDEST CALLDATASIZE PUSH2 0x135 JUMPI STOP JUMPDEST PUSH1 0x0 DUP1 REVERT JUMPDEST CALLVALUE DUP1 ISZERO PUSH2 0x146 JUMPI PUSH1 0x0 DUP1 REVERT JUMPDEST POP PUSH2 0x161 PUSH1 0x4 DUP1 CALLDATASIZE SUB DUP2 ADD SWAP1 PUSH2 0x15C SWAP2 SWAP1 PUSH2 0x2D2A JUMP JUMPDEST PUSH2 0x52D JUMP JUMPDEST PUSH1 0x40 MLOAD PUSH2 0x16E SWAP2 SWAP1 PUSH2 0x3018 JUMP JUMPDEST PUSH1 0x40 MLOAD DUP1 SWAP2 SUB SWAP1 RETURN JUMPDEST CALLVALUE DUP1 ISZERO PUSH2 0x183 JUMPI PUSH1 0x0 DUP1 REVERT JUMPDEST POP PUSH2 0x19E PUSH1 0x4 DUP1 CALLDATASIZE SUB DUP2 ADD SWAP1 PUSH2 0x199 SWAP2 SWAP1 PUSH2 0x2BCD JUMP JUMPDEST PUSH2 0x5A7 JUMP JUMPDEST STOP JUMPDEST CALLVALUE DUP1 ISZERO PUSH2 0x1AC JUMPI PUSH1 0x0 DUP1 REVERT JUMPDEST POP PUSH2 0x1C7 PUSH1 0x4 DUP1 CALLDATASIZE SUB DUP2 ADD SWAP1 PUSH2 0x1C2 SWAP2 SWAP1 PUSH2 0x2C32 JUMP JUMPDEST PUSH2 0x83F JUMP JUMPDEST STOP JUMPDEST CALLVALUE DUP1 ISZERO PUSH2 0x1D5 JUMPI PUSH1 0x0 DUP1 REVERT JUMPDEST POP PUSH2 0x1F0 PUSH1 0x4 DUP1 CALLDATASIZE SUB DUP2 ADD SWAP1 PUSH2 0x1EB SWAP2 SWAP1 PUSH2 0x2CC5 JUMP JUMPDEST PUSH2 0xC8F JUMP JUMPDEST PUSH1 0x40 MLOAD PUSH2 0x1FD SWAP2 SWAP1 PUSH2 0x3033 JUMP JUMPDEST PUSH1 0x40 MLOAD DUP1 SWAP2 SUB SWAP1 RETURN JUMPDEST CALLVALUE DUP1 ISZERO PUSH2 0x212 JUMPI PUSH1 0x0 DUP1 REVERT JUMPDEST POP PUSH2 0x22D PUSH1 0x4 DUP1 CALLDATASIZE SUB DUP2 ADD SWAP1 PUSH2 0x228 SWAP2 SWAP1 PUSH2 0x2CEE JUMP JUMPDEST PUSH2 0xCAE JUMP JUMPDEST STOP JUMPDEST CALLVALUE DUP1 ISZERO PUSH2 0x23B JUMPI PUSH1 0x0 DUP1 REVERT JUMPDEST POP PUSH2 0x256 PUSH1 0x4 DUP1 CALLDATASIZE SUB DUP2 ADD SWAP1 PUSH2 0x251 SWAP2 SWAP1 PUSH2 0x2D53 JUMP JUMPDEST PUSH2 0xCCF JUMP JUMPDEST PUSH1 0x40 MLOAD PUSH2 0x263 SWAP2 SWAP1 PUSH2 0x2FD4 JUMP JUMPDEST PUSH1 0x40 MLOAD DUP1 SWAP2 SUB SWAP1 RETURN JUMPDEST CALLVALUE DUP1 ISZERO PUSH2 0x278 JUMPI PUSH1 0x0 DUP1 REVERT JUMPDEST POP PUSH2 0x293 PUSH1 0x4 DUP1 CALLDATASIZE SUB DUP2 ADD SWAP1 PUSH2 0x28E SWAP2 SWAP1 PUSH2 0x2CEE JUMP JUMPDEST PUSH2 0xD79 JUMP JUMPDEST STOP JUMPDEST CALLVALUE DUP1 ISZERO PUSH2 0x2A1 JUMPI PUSH1 0x0 DUP1 REVERT JUMPDEST POP PUSH2 0x2AA PUSH2 0xDFC JUMP JUMPDEST PUSH1 0x40 MLOAD PUSH2 0x2B7 SWAP2 SWAP1 PUSH2 0x312B JUMP JUMPDEST PUSH1 0x40 MLOAD DUP1 SWAP2 SUB SWAP1 RETURN JUMPDEST CALLVALUE DUP1 ISZERO PUSH2 0x2CC JUMPI PUSH1 0x0 DUP1 REVERT JUMPDEST POP PUSH2 0x2E7 PUSH1 0x4 DUP1 CALLDATASIZE SUB DUP2 ADD SWAP1 PUSH2 0x2E2 SWAP2 SWAP1 PUSH2 0x2BF6 JUMP JUMPDEST PUSH2 0xE42 JUMP JUMPDEST STOP JUMPDEST CALLVALUE DUP1 ISZERO PUSH2 0x2F5 JUMPI PUSH1 0x0 DUP1 REVERT JUMPDEST POP PUSH2 0x2FE PUSH2 0x11A3 JUMP JUMPDEST STOP JUMPDEST CALLVALUE DUP1 ISZERO PUSH2 0x30C JUMPI PUSH1 0x0 DUP1 REVERT JUMPDEST POP PUSH2 0x327 PUSH1 0x4 DUP1 CALLDATASIZE SUB DUP2 ADD SWAP1 PUSH2 0x322 SWAP2 SWAP1 PUSH2 0x2CEE JUMP JUMPDEST PUSH2 0x1539 JUMP JUMPDEST PUSH1 0x40 MLOAD PUSH2 0x334 SWAP2 SWAP1 PUSH2 0x3018 JUMP JUMPDEST PUSH1 0x40 MLOAD DUP1 SWAP2 SUB SWAP1 RETURN JUMPDEST CALLVALUE DUP1 ISZERO PUSH2 0x349 JUMPI PUSH1 0x0 DUP1 REVERT JUMPDEST POP PUSH2 0x364 PUSH1 0x4 DUP1 CALLDATASIZE SUB DUP2 ADD SWAP1 PUSH2 0x35F SWAP2 SWAP1 PUSH2 0x2BA4 JUMP JUMPDEST PUSH2 0x15A3 JUMP JUMPDEST PUSH1 0x40 MLOAD PUSH2 0x371 SWAP2 SWAP1 PUSH2 0x312B JUMP JUMPDEST PUSH1 0x40 MLOAD DUP1 SWAP2 SUB SWAP1 RETURN JUMPDEST CALLVALUE DUP1 ISZERO PUSH2 0x386 JUMPI PUSH1 0x0 DUP1 REVERT JUMPDEST POP PUSH2 0x38F PUSH2 0x1628 JUMP JUMPDEST PUSH1 0x40 MLOAD PUSH2 0x39C SWAP2 SWAP1 PUSH2 0x3033 JUMP JUMPDEST PUSH1 0x40 MLOAD DUP1 SWAP2 SUB SWAP1 RETURN JUMPDEST CALLVALUE DUP1 ISZERO PUSH2 0x3B1 JUMPI PUSH1 0x0 DUP1 REVERT JUMPDEST POP PUSH2 0x3CC PUSH1 0x4 DUP1 CALLDATASIZE SUB DUP2 ADD SWAP1 PUSH2 0x3C7 SWAP2 SWAP1 PUSH2 0x2BA4 JUMP JUMPDEST PUSH2 0x162F JUMP JUMPDEST PUSH1 0x40 MLOAD PUSH2 0x3D9 SWAP2 SWAP1 PUSH2 0x312B JUMP JUMPDEST PUSH1 0x40 MLOAD DUP1 SWAP2 SUB SWAP1 RETURN JUMPDEST CALLVALUE DUP1 ISZERO PUSH2 0x3EE JUMPI PUSH1 0x0 DUP1 REVERT JUMPDEST POP PUSH2 0x409 PUSH1 0x4 DUP1 CALLDATASIZE SUB DUP2 ADD SWAP1 PUSH2 0x404 SWAP2 SWAP1 PUSH2 0x2BA4 JUMP JUMPDEST PUSH2 0x16C7 JUMP JUMPDEST PUSH1 0x40 MLOAD PUSH2 0x416 SWAP2 SWAP1 PUSH2 0x312B JUMP JUMPDEST PUSH1 0x40 MLOAD DUP1 SWAP2 SUB SWAP1 RETURN JUMPDEST CALLVALUE DUP1 ISZERO PUSH2 0x42B JUMPI PUSH1 0x0 DUP1 REVERT JUMPDEST POP PUSH2 0x446 PUSH1 0x4 DUP1 CALLDATASIZE SUB DUP2 ADD SWAP1 PUSH2 0x441 SWAP2 SWAP1 PUSH2 0x2CEE JUMP JUMPDEST PUSH2 0x174C JUMP JUMPDEST STOP JUMPDEST CALLVALUE DUP1 ISZERO PUSH2 0x454 JUMPI PUSH1 0x0 DUP1 REVERT JUMPDEST POP PUSH2 0x46F PUSH1 0x4 DUP1 CALLDATASIZE SUB DUP2 ADD SWAP1 PUSH2 0x46A SWAP2 SWAP1 PUSH2 0x2BA4 JUMP JUMPDEST PUSH2 0x176D JUMP JUMPDEST PUSH1 0x40 MLOAD PUSH2 0x47C SWAP2 SWAP1 PUSH2 0x3018 JUMP JUMPDEST PUSH1 0x40 MLOAD DUP1 SWAP2 SUB SWAP1 RETURN JUMPDEST CALLVALUE DUP1 ISZERO PUSH2 0x491 JUMPI PUSH1 0x0 DUP1 REVERT JUMPDEST POP PUSH2 0x49A PUSH2 0x191B JUMP JUMPDEST PUSH1 0x40 MLOAD PUSH2 0x4A7 SWAP2 SWAP1 PUSH2 0x312B JUMP JUMPDEST PUSH1 0x40 MLOAD DUP1 SWAP2 SUB SWAP1 RETURN JUMPDEST CALLVALUE DUP1 ISZERO PUSH2 0x4BC JUMPI PUSH1 0x0 DUP1 REVERT JUMPDEST POP PUSH2 0x4D7 PUSH1 0x4 DUP1 CALLDATASIZE SUB DUP2 ADD SWAP1 PUSH2 0x4D2 SWAP2 SWAP1 PUSH2 0x2D7C JUMP JUMPDEST PUSH2 0x1961 JUMP JUMPDEST STOP JUMPDEST CALLVALUE DUP1 ISZERO PUSH2 0x4E5 JUMPI PUSH1 0x0 DUP1 REVERT JUMPDEST POP PUSH2 0x4EE PUSH2 0x1D8E JUMP JUMPDEST PUSH1 0x40 MLOAD PUSH2 0x4FB SWAP2 SWAP1 PUSH2 0x3033 JUMP JUMPDEST PUSH1 0x40 MLOAD DUP1 SWAP2 SUB SWAP1 RETURN JUMPDEST CALLVALUE DUP1 ISZERO PUSH2 0x510 JUMPI PUSH1 0x0 DUP1 REVERT JUMPDEST POP PUSH2 0x52B PUSH1 0x4 DUP1 CALLDATASIZE SUB DUP2 ADD SWAP1 PUSH2 0x526 SWAP2 SWAP1 PUSH2 0x2BF6 JUMP JUMPDEST PUSH2 0x1DB2 JUMP JUMPDEST STOP JUMPDEST PUSH1 0x0 PUSH32 0x7965DB0B00000000000000000000000000000000000000000000000000000000 PUSH28 0xFFFFFFFFFFFFFFFFFFFFFFFFFFFFFFFFFFFFFFFFFFFFFFFFFFFFFFFF NOT AND DUP3 PUSH28 0xFFFFFFFFFFFFFFFFFFFFFFFFFFFFFFFFFFFFFFFFFFFFFFFFFFFFFFFF NOT AND EQ DUP1 PUSH2 0x5A0 JUMPI POP PUSH2 0x59F DUP3 PUSH2 0x2258 JUMP JUMPDEST JUMPDEST SWAP1 POP SWAP2 SWAP1 POP JUMP JUMPDEST PUSH2 0x5BB PUSH8 0x6EB9AF4C7615224F PUSH1 0xC0 SHL PUSH2 0x22C2 JUMP JUMPDEST PUSH2 0x5CF PUSH8 0x6632CEFD4037E293 PUSH1 0xC0 SHL PUSH2 0x22C2 JUMP JUMPDEST PUSH2 0x5E3 PUSH8 0x1BEB47147AE44EF8 PUSH1 0xC0 SHL PUSH2 0x22C2 JUMP JUMPDEST PUSH2 0x5F7 PUSH8 0x2CFA3ECE2F8C1F62 PUSH1 0xC0 SHL PUSH2 0x22C2 JUMP JUMPDEST PUSH1 0x0 PUSH1 0x4 PUSH1 0x0 DUP4 PUSH20 0xFFFFFFFFFFFFFFFFFFFFFFFFFFFFFFFFFFFFFFFF AND PUSH20 0xFFFFFFFFFFFFFFFFFFFFFFFFFFFFFFFFFFFFFFFF AND DUP2 MSTORE PUSH1 0x20 ADD SWAP1 DUP2 MSTORE PUSH1 0x20 ADD PUSH1 0x0 KECCAK256 SLOAD GT PUSH1 0x40 MLOAD DUP1 PUSH1 0x40 ADD PUSH1 0x40 MSTORE DUP1 PUSH1 0x3 DUP2 MSTORE PUSH1 0x20 ADD PUSH32 0x3132360000000000000000000000000000000000000000000000000000000000 DUP2 MSTORE POP SWAP1 PUSH2 0x6B1 JUMPI PUSH1 0x40 MLOAD PUSH32 0x8C379A000000000000000000000000000000000000000000000000000000000 DUP2 MSTORE PUSH1 0x4 ADD PUSH2 0x6A8 SWAP2 SWAP1 PUSH2 0x3069 JUMP JUMPDEST PUSH1 0x40 MLOAD DUP1 SWAP2 SUB SWAP1 REVERT JUMPDEST POP PUSH2 0x6C6 PUSH8 0xB2A7616BCB17354E PUSH1 0xC0 SHL PUSH2 0x22C2 JUMP JUMPDEST PUSH2 0x6DA PUSH8 0xC600A0B219337904 PUSH1 0xC0 SHL PUSH2 0x22C2 JUMP JUMPDEST PUSH2 0x6EE PUSH8 0xAD082C7881D43741 PUSH1 0xC0 SHL PUSH2 0x22C2 JUMP JUMPDEST PUSH1 0x0 PUSH2 0x6F9 DUP3 PUSH2 0x162F JUMP JUMPDEST SWAP1 POP PUSH2 0x70F PUSH8 0xE5BA0FDAFB8A9853 PUSH1 0xC0 SHL PUSH2 0x22C2 JUMP JUMPDEST DUP1 PUSH1 0x3 PUSH1 0x0 DUP3 DUP3 SLOAD PUSH2 0x721 SWAP2 SWAP1 PUSH2 0x31F5 JUMP JUMPDEST SWAP3 POP POP DUP2 SWAP1 SSTORE POP PUSH2 0x73C PUSH8 0x6734E519328E9679 PUSH1 0xC0 SHL PUSH2 0x22C2 JUMP JUMPDEST PUSH2 0x750 PUSH8 0x6A531FBDEDD01297 PUSH1 0xC0 SHL PUSH2 0x22C2 JUMP JUMPDEST DUP1 PUSH1 0x5 PUSH1 0x0 DUP5 PUSH20 0xFFFFFFFFFFFFFFFFFFFFFFFFFFFFFFFFFFFFFFFF AND PUSH20 0xFFFFFFFFFFFFFFFFFFFFFFFFFFFFFFFFFFFFFFFF AND DUP2 MSTORE PUSH1 0x20 ADD SWAP1 DUP2 MSTORE PUSH1 0x20 ADD PUSH1 0x0 KECCAK256 PUSH1 0x0 DUP3 DUP3 SLOAD ADD SWAP3 POP POP DUP2 SWAP1 SSTORE POP PUSH2 0x7B1 PUSH8 0x2DA33076F603A343 PUSH1 0xC0 SHL PUSH2 0x22C2 JUMP JUMPDEST PUSH2 0x7C5 PUSH8 0x4AC89EB021266CD PUSH1 0xC0 SHL PUSH2 0x22C2 JUMP JUMPDEST PUSH2 0x7CF DUP3 DUP3 PUSH2 0x22C5 JUMP JUMPDEST PUSH2 0x7E3 PUSH8 0x19B959FA790B2F17 PUSH1 0xC0 SHL PUSH2 0x22C2 JUMP JUMPDEST PUSH2 0x7F7 PUSH8 0x5C119AB59B5259B6 PUSH1 0xC0 SHL PUSH2 0x22C2 JUMP JUMPDEST DUP1 DUP3 PUSH20 0xFFFFFFFFFFFFFFFFFFFFFFFFFFFFFFFFFFFFFFFF AND PUSH32 0xDF20FD1E76BC69D672E4814FAFB2C449BBA3A5369D8359ADF9E05E6FDE87B056 PUSH1 0x40 MLOAD PUSH1 0x40 MLOAD DUP1 SWAP2 SUB SWAP1 LOG3 POP POP JUMP JUMPDEST PUSH2 0x853 PUSH8 0x52238D4C56077C19 PUSH1 0xC0 SHL PUSH2 0x22C2 JUMP JUMPDEST PUSH1 0x0 PUSH1 0x1 DUP1 SLOAD SWAP1 PUSH2 0x100 EXP SWAP1 DIV PUSH1 0xFF AND ISZERO SWAP1 POP DUP1 DUP1 ISZERO PUSH2 0x884 JUMPI POP PUSH1 0x1 DUP1 PUSH1 0x0 SWAP1 SLOAD SWAP1 PUSH2 0x100 EXP SWAP1 DIV PUSH1 0xFF AND PUSH1 0xFF AND LT JUMPDEST DUP1 PUSH2 0x8B2 JUMPI POP PUSH2 0x893 ADDRESS PUSH2 0x23B9 JUMP JUMPDEST ISZERO DUP1 ISZERO PUSH2 0x8B1 JUMPI POP PUSH1 0x1 DUP1 PUSH1 0x0 SWAP1 SLOAD SWAP1 PUSH2 0x100 EXP SWAP1 DIV PUSH1 0xFF AND PUSH1 0xFF AND EQ JUMPDEST JUMPDEST PUSH2 0x8F1 JUMPI PUSH1 0x40 MLOAD PUSH32 0x8C379A000000000000000000000000000000000000000000000000000000000 DUP2 MSTORE PUSH1 0x4 ADD PUSH2 0x8E8 SWAP1 PUSH2 0x30EB JUMP JUMPDEST PUSH1 0x40 MLOAD DUP1 SWAP2 SUB SWAP1 REVERT JUMPDEST PUSH1 0x1 DUP1 PUSH1 0x0 PUSH2 0x100 EXP DUP2 SLOAD DUP2 PUSH1 0xFF MUL NOT AND SWAP1 DUP4 PUSH1 0xFF AND MUL OR SWAP1 SSTORE POP DUP1 ISZERO PUSH2 0x92D JUMPI PUSH1 0x1 DUP1 PUSH1 0x1 PUSH2 0x100 EXP DUP2 SLOAD DUP2 PUSH1 0xFF MUL NOT AND SWAP1 DUP4 ISZERO ISZERO MUL OR SWAP1 SSTORE POP JUMPDEST PUSH2 0x941 PUSH8 0x9223488D9A709E39 PUSH1 0xC0 SHL PUSH2 0x22C2 JUMP JUMPDEST PUSH2 0x955 PUSH8 0x6EC2F470B59E1A8D PUSH1 0xC0 SHL PUSH2 0x22C2 JUMP JUMPDEST PUSH2 0x969 PUSH8 0x306770651396C6FE PUSH1 0xC0 SHL PUSH2 0x22C2 JUMP JUMPDEST PUSH2 0x97D PUSH8 0x390F068348B25BAE PUSH1 0xC0 SHL PUSH2 0x22C2 JUMP JUMPDEST PUSH2 0x98A PUSH1 0x0 DUP1 SHL DUP5 PUSH2 0x23DC JUMP JUMPDEST PUSH2 0x99E PUSH8 0xDCEFCEBC04B0ECB1 PUSH1 0xC0 SHL PUSH2 0x22C2 JUMP JUMPDEST PUSH2 0x9B2 PUSH8 0x5AC48ABB97137FAF PUSH1 0xC0 SHL PUSH2 0x22C2 JUMP JUMPDEST PUSH2 0x9DC PUSH32 0xFBD454F36A7E1A388BD6FC3AB10D434AA4578F811ACBBCF33AFB1C697486313C DUP4 PUSH2 0x23DC JUMP JUMPDEST PUSH2 0x9F0 PUSH8 0x996A973D9DAE2120 PUSH1 0xC0 SHL PUSH2 0x22C2 JUMP JUMPDEST PUSH2 0xA04 PUSH8 0x95665B47D8A7067D PUSH1 0xC0 SHL PUSH2 0x22C2 JUMP JUMPDEST PUSH1 0x0 JUMPDEST DUP6 MLOAD DUP2 LT ISZERO PUSH2 0xC2E JUMPI PUSH2 0xA24 PUSH8 0xE26064A41CCDA33A PUSH1 0xC0 SHL PUSH2 0x22C2 JUMP JUMPDEST PUSH2 0xA38 PUSH8 0x643D71D811CA486A PUSH1 0xC0 SHL PUSH2 0x22C2 JUMP JUMPDEST PUSH1 0x6 DUP7 DUP3 DUP2 MLOAD DUP2 LT PUSH2 0xA73 JUMPI PUSH32 0x4E487B7100000000000000000000000000000000000000000000000000000000 PUSH1 0x0 MSTORE PUSH1 0x32 PUSH1 0x4 MSTORE PUSH1 0x24 PUSH1 0x0 REVERT JUMPDEST PUSH1 0x20 MUL PUSH1 0x20 ADD ADD MLOAD SWAP1 DUP1 PUSH1 0x1 DUP2 SLOAD ADD DUP1 DUP3 SSTORE DUP1 SWAP2 POP POP PUSH1 0x1 SWAP1 SUB SWAP1 PUSH1 0x0 MSTORE PUSH1 0x20 PUSH1 0x0 KECCAK256 ADD PUSH1 0x0 SWAP1 SWAP2 SWAP1 SWAP2 SWAP1 SWAP2 PUSH2 0x100 EXP DUP2 SLOAD DUP2 PUSH20 0xFFFFFFFFFFFFFFFFFFFFFFFFFFFFFFFFFFFFFFFF MUL NOT AND SWAP1 DUP4 PUSH20 0xFFFFFFFFFFFFFFFFFFFFFFFFFFFFFFFFFFFFFFFF AND MUL OR SWAP1 SSTORE POP PUSH2 0xAEF PUSH8 0x3B3BE5067FAA440 PUSH1 0xC0 SHL PUSH2 0x22C2 JUMP JUMPDEST DUP5 DUP2 DUP2 MLOAD DUP2 LT PUSH2 0xB28 JUMPI PUSH32 0x4E487B7100000000000000000000000000000000000000000000000000000000 PUSH1 0x0 MSTORE PUSH1 0x32 PUSH1 0x4 MSTORE PUSH1 0x24 PUSH1 0x0 REVERT JUMPDEST PUSH1 0x20 MUL PUSH1 0x20 ADD ADD MLOAD PUSH1 0x4 PUSH1 0x0 DUP9 DUP5 DUP2 MLOAD DUP2 LT PUSH2 0xB6D JUMPI PUSH32 0x4E487B7100000000000000000000000000000000000000000000000000000000 PUSH1 0x0 MSTORE PUSH1 0x32 PUSH1 0x4 MSTORE PUSH1 0x24 PUSH1 0x0 REVERT JUMPDEST PUSH1 0x20 MUL PUSH1 0x20 ADD ADD MLOAD PUSH20 0xFFFFFFFFFFFFFFFFFFFFFFFFFFFFFFFFFFFFFFFF AND PUSH20 0xFFFFFFFFFFFFFFFFFFFFFFFFFFFFFFFFFFFFFFFF AND DUP2 MSTORE PUSH1 0x20 ADD SWAP1 DUP2 MSTORE PUSH1 0x20 ADD PUSH1 0x0 KECCAK256 DUP2 SWAP1 SSTORE POP PUSH2 0xBC7 PUSH8 0x5568E5A1892E0326 PUSH1 0xC0 SHL PUSH2 0x22C2 JUMP JUMPDEST DUP5 DUP2 DUP2 MLOAD DUP2 LT PUSH2 0xC00 JUMPI PUSH32 0x4E487B7100000000000000000000000000000000000000000000000000000000 PUSH1 0x0 MSTORE PUSH1 0x32 PUSH1 0x4 MSTORE PUSH1 0x24 PUSH1 0x0 REVERT JUMPDEST PUSH1 0x20 MUL PUSH1 0x20 ADD ADD MLOAD PUSH1 0x2 SLOAD PUSH2 0xC15 SWAP2 SWAP1 PUSH2 0x31F5 JUMP JUMPDEST PUSH1 0x2 DUP2 SWAP1 SSTORE POP DUP1 DUP1 PUSH2 0xC26 SWAP1 PUSH2 0x3447 JUMP JUMPDEST SWAP2 POP POP PUSH2 0xA07 JUMP JUMPDEST POP DUP1 ISZERO PUSH2 0xC88 JUMPI PUSH1 0x0 PUSH1 0x1 DUP1 PUSH2 0x100 EXP DUP2 SLOAD DUP2 PUSH1 0xFF MUL NOT AND SWAP1 DUP4 ISZERO ISZERO MUL OR SWAP1 SSTORE POP PUSH32 0x7F26B83FF96E1F2B6A682F133852F6798A09C465DA95921460CEFB3847402498 PUSH1 0x1 PUSH1 0x40 MLOAD PUSH2 0xC7F SWAP2 SWAP1 PUSH2 0x304E JUMP JUMPDEST PUSH1 0x40 MLOAD DUP1 SWAP2 SUB SWAP1 LOG1 JUMPDEST POP POP POP POP POP JUMP JUMPDEST PUSH1 0x0 DUP1 PUSH1 0x0 DUP4 DUP2 MSTORE PUSH1 0x20 ADD SWAP1 DUP2 MSTORE PUSH1 0x20 ADD PUSH1 0x0 KECCAK256 PUSH1 0x1 ADD SLOAD SWAP1 POP SWAP2 SWAP1 POP JUMP JUMPDEST PUSH2 0xCB7 DUP3 PUSH2 0xC8F JUMP JUMPDEST PUSH2 0xCC0 DUP2 PUSH2 0x24BC JUMP JUMPDEST PUSH2 0xCCA DUP4 DUP4 PUSH2 0x23DC JUMP JUMPDEST POP POP POP JUMP JUMPDEST PUSH1 0x0 PUSH2 0xCE5 PUSH8 0x5209C0BCB70D842B PUSH1 0xC0 SHL PUSH2 0x22C2 JUMP JUMPDEST PUSH2 0xCF9 PUSH8 0x2C1C923F17535E65 PUSH1 0xC0 SHL PUSH2 0x22C2 JUMP JUMPDEST PUSH2 0xD0D PUSH8 0xC57D1FFC5670B923 PUSH1 0xC0 SHL PUSH2 0x22C2 JUMP JUMPDEST PUSH1 0x6 DUP3 DUP2 SLOAD DUP2 LT PUSH2 0xD47 JUMPI PUSH32 0x4E487B7100000000000000000000000000000000000000000000000000000000 PUSH1 0x0 MSTORE PUSH1 0x32 PUSH1 0x4 MSTORE PUSH1 0x24 PUSH1 0x0 REVERT JUMPDEST SWAP1 PUSH1 0x0 MSTORE PUSH1 0x20 PUSH1 0x0 KECCAK256 ADD PUSH1 0x0 SWAP1 SLOAD SWAP1 PUSH2 0x100 EXP SWAP1 DIV PUSH20 0xFFFFFFFFFFFFFFFFFFFFFFFFFFFFFFFFFFFFFFFF AND SWAP1 POP SWAP2 SWAP1 POP JUMP JUMPDEST PUSH2 0xD81 PUSH2 0x24D0 JUMP JUMPDEST PUSH20 0xFFFFFFFFFFFFFFFFFFFFFFFFFFFFFFFFFFFFFFFF AND DUP2 PUSH20 0xFFFFFFFFFFFFFFFFFFFFFFFFFFFFFFFFFFFFFFFF AND EQ PUSH2 0xDEE JUMPI PUSH1 0x40 MLOAD PUSH32 0x8C379A000000000000000000000000000000000000000000000000000000000 DUP2 MSTORE PUSH1 0x4 ADD PUSH2 0xDE5 SWAP1 PUSH2 0x310B JUMP JUMPDEST PUSH1 0x40 MLOAD DUP1 SWAP2 SUB SWAP1 REVERT JUMPDEST PUSH2 0xDF8 DUP3 DUP3 PUSH2 0x24D8 JUMP JUMPDEST POP POP JUMP JUMPDEST PUSH1 0x0 PUSH2 0xE12 PUSH8 0xDF3C500C95A62ECA PUSH1 0xC0 SHL PUSH2 0x22C2 JUMP JUMPDEST PUSH2 0xE26 PUSH8 0xF8B76862E21AF083 PUSH1 0xC0 SHL PUSH2 0x22C2 JUMP JUMPDEST PUSH2 0xE3A PUSH8 0xC063E08A95DF298D PUSH1 0xC0 SHL PUSH2 0x22C2 JUMP JUMPDEST PUSH1 0x2 SLOAD SWAP1 POP SWAP1 JUMP JUMPDEST PUSH2 0xE56 PUSH8 0xAD4AA363288805DA PUSH1 0xC0 SHL PUSH2 0x22C2 JUMP JUMPDEST PUSH32 0xFBD454F36A7E1A388BD6FC3AB10D434AA4578F811ACBBCF33AFB1C697486313C PUSH2 0xE80 DUP2 PUSH2 0x24BC JUMP JUMPDEST PUSH2 0xE94 PUSH8 0xDE27E05B0F2D6C9D PUSH1 0xC0 SHL PUSH2 0x22C2 JUMP JUMPDEST PUSH2 0xEA8 PUSH8 0xBE52A9CE7720952D PUSH1 0xC0 SHL PUSH2 0x22C2 JUMP JUMPDEST PUSH2 0xEBC PUSH8 0xEAFE5293C83D805D PUSH1 0xC0 SHL PUSH2 0x22C2 JUMP JUMPDEST PUSH2 0xED0 PUSH8 0x5AAADBEA5BB22752 PUSH1 0xC0 SHL PUSH2 0x22C2 JUMP JUMPDEST PUSH2 0xEE4 PUSH8 0x31296B0DEDF914C2 PUSH1 0xC0 SHL PUSH2 0x22C2 JUMP JUMPDEST PUSH1 0x0 ISZERO ISZERO PUSH2 0xEF1 DUP5 PUSH2 0x176D JUMP JUMPDEST ISZERO ISZERO EQ PUSH1 0x40 MLOAD DUP1 PUSH1 0x40 ADD PUSH1 0x40 MSTORE DUP1 PUSH1 0x3 DUP2 MSTORE PUSH1 0x20 ADD PUSH32 0x3132370000000000000000000000000000000000000000000000000000000000 DUP2 MSTORE POP SWAP1 PUSH2 0xF6B JUMPI PUSH1 0x40 MLOAD PUSH32 0x8C379A000000000000000000000000000000000000000000000000000000000 DUP2 MSTORE PUSH1 0x4 ADD PUSH2 0xF62 SWAP2 SWAP1 PUSH2 0x3069 JUMP JUMPDEST PUSH1 0x40 MLOAD DUP1 SWAP2 SUB SWAP1 REVERT JUMPDEST POP PUSH2 0xF80 PUSH8 0x152DF6CD6637C6A0 PUSH1 0xC0 SHL PUSH2 0x22C2 JUMP JUMPDEST PUSH2 0xF94 PUSH8 0x1417D3D9259EBD6 PUSH1 0xC0 SHL PUSH2 0x22C2 JUMP JUMPDEST PUSH2 0xFA8 PUSH8 0x8E5ADA6A314136C8 PUSH1 0xC0 SHL PUSH2 0x22C2 JUMP JUMPDEST PUSH2 0xFBC PUSH8 0x66CFF308EFECA43D PUSH1 0xC0 SHL PUSH2 0x22C2 JUMP JUMPDEST PUSH1 0x0 DUP3 GT PUSH1 0x40 MLOAD DUP1 PUSH1 0x40 ADD PUSH1 0x40 MSTORE DUP1 PUSH1 0x3 DUP2 MSTORE PUSH1 0x20 ADD PUSH32 0x3132380000000000000000000000000000000000000000000000000000000000 DUP2 MSTORE POP SWAP1 PUSH2 0x1037 JUMPI PUSH1 0x40 MLOAD PUSH32 0x8C379A000000000000000000000000000000000000000000000000000000000 DUP2 MSTORE PUSH1 0x4 ADD PUSH2 0x102E SWAP2 SWAP1 PUSH2 0x3069 JUMP JUMPDEST PUSH1 0x40 MLOAD DUP1 SWAP2 SUB SWAP1 REVERT JUMPDEST POP PUSH2 0x104C PUSH8 0xE998FCB09F41BB11 PUSH1 0xC0 SHL PUSH2 0x22C2 JUMP JUMPDEST PUSH2 0x1060 PUSH8 0x4E90AF3B675A16F4 PUSH1 0xC0 SHL PUSH2 0x22C2 JUMP JUMPDEST PUSH1 0x4 PUSH1 0x0 DUP5 PUSH20 0xFFFFFFFFFFFFFFFFFFFFFFFFFFFFFFFFFFFFFFFF AND PUSH20 0xFFFFFFFFFFFFFFFFFFFFFFFFFFFFFFFFFFFFFFFF AND DUP2 MSTORE PUSH1 0x20 ADD SWAP1 DUP2 MSTORE PUSH1 0x20 ADD PUSH1 0x0 KECCAK256 SLOAD PUSH1 0x2 PUSH1 0x0 DUP3 DUP3 SLOAD PUSH2 0x10B1 SWAP2 SWAP1 PUSH2 0x32D6 JUMP JUMPDEST SWAP3 POP POP DUP2 SWAP1 SSTORE POP PUSH2 0x10CC PUSH8 0x5B9DD09A35ADE1A0 PUSH1 0xC0 SHL PUSH2 0x22C2 JUMP JUMPDEST DUP2 PUSH1 0x2 PUSH1 0x0 DUP3 DUP3 SLOAD PUSH2 0x10DE SWAP2 SWAP1 PUSH2 0x31F5 JUMP JUMPDEST SWAP3 POP POP DUP2 SWAP1 SSTORE POP PUSH2 0x10F9 PUSH8 0x98C925B61779E303 PUSH1 0xC0 SHL PUSH2 0x22C2 JUMP JUMPDEST DUP2 PUSH1 0x4 PUSH1 0x0 DUP6 PUSH20 0xFFFFFFFFFFFFFFFFFFFFFFFFFFFFFFFFFFFFFFFF AND PUSH20 0xFFFFFFFFFFFFFFFFFFFFFFFFFFFFFFFFFFFFFFFF AND DUP2 MSTORE PUSH1 0x20 ADD SWAP1 DUP2 MSTORE PUSH1 0x20 ADD PUSH1 0x0 KECCAK256 DUP2 SWAP1 SSTORE POP PUSH2 0x1151 PUSH8 0xEA426BF6E009C7CE PUSH1 0xC0 SHL PUSH2 0x22C2 JUMP JUMPDEST PUSH2 0x1165 PUSH8 0xAFC5438FD32A421C PUSH1 0xC0 SHL PUSH2 0x22C2 JUMP JUMPDEST PUSH32 0x63C73B6BA0C6DD96222F5FF08A3755FAB02DEDF0D99C3085703FA9C05EEBF520 DUP4 DUP4 PUSH1 0x40 MLOAD PUSH2 0x1196 SWAP3 SWAP2 SWAP1 PUSH2 0x2FEF JUMP JUMPDEST PUSH1 0x40 MLOAD DUP1 SWAP2 SUB SWAP1 LOG1 POP POP POP JUMP JUMPDEST PUSH2 0x11B7 PUSH8 0xBEB3737A1C89EA2B PUSH1 0xC0 SHL PUSH2 0x22C2 JUMP JUMPDEST PUSH2 0x11CB PUSH8 0x4BA122B401C79370 PUSH1 0xC0 SHL PUSH2 0x22C2 JUMP JUMPDEST PUSH2 0x11DF PUSH8 0x86E6BE1AD83A3D01 PUSH1 0xC0 SHL PUSH2 0x22C2 JUMP JUMPDEST PUSH1 0x0 JUMPDEST PUSH1 0x6 DUP1 SLOAD SWAP1 POP DUP2 LT ISZERO PUSH2 0x1536 JUMPI PUSH2 0x1203 PUSH8 0x4EC34DA0AA42E529 PUSH1 0xC0 SHL PUSH2 0x22C2 JUMP JUMPDEST PUSH2 0x1217 PUSH8 0x28BB7B072BCBFB99 PUSH1 0xC0 SHL PUSH2 0x22C2 JUMP JUMPDEST PUSH1 0x0 PUSH2 0x1286 PUSH1 0x6 DUP4 DUP2 SLOAD DUP2 LT PUSH2 0x1256 JUMPI PUSH32 0x4E487B7100000000000000000000000000000000000000000000000000000000 PUSH1 0x0 MSTORE PUSH1 0x32 PUSH1 0x4 MSTORE PUSH1 0x24 PUSH1 0x0 REVERT JUMPDEST SWAP1 PUSH1 0x0 MSTORE PUSH1 0x20 PUSH1 0x0 KECCAK256 ADD PUSH1 0x0 SWAP1 SLOAD SWAP1 PUSH2 0x100 EXP SWAP1 DIV PUSH20 0xFFFFFFFFFFFFFFFFFFFFFFFFFFFFFFFFFFFFFFFF AND PUSH2 0x162F JUMP JUMPDEST SWAP1 POP PUSH2 0x129C PUSH8 0x910AB24CCFA26327 PUSH1 0xC0 SHL PUSH2 0x22C2 JUMP JUMPDEST DUP1 PUSH1 0x3 PUSH1 0x0 DUP3 DUP3 SLOAD PUSH2 0x12AE SWAP2 SWAP1 PUSH2 0x31F5 JUMP JUMPDEST SWAP3 POP POP DUP2 SWAP1 SSTORE POP PUSH2 0x12C9 PUSH8 0x2D3F50AD99A25908 PUSH1 0xC0 SHL PUSH2 0x22C2 JUMP JUMPDEST PUSH2 0x12DD PUSH8 0xE7C42CF70984963B PUSH1 0xC0 SHL PUSH2 0x22C2 JUMP JUMPDEST DUP1 PUSH1 0x5 PUSH1 0x0 PUSH1 0x6 DUP6 DUP2 SLOAD DUP2 LT PUSH2 0x131C JUMPI PUSH32 0x4E487B7100000000000000000000000000000000000000000000000000000000 PUSH1 0x0 MSTORE PUSH1 0x32 PUSH1 0x4 MSTORE PUSH1 0x24 PUSH1 0x0 REVERT JUMPDEST SWAP1 PUSH1 0x0 MSTORE PUSH1 0x20 PUSH1 0x0 KECCAK256 ADD PUSH1 0x0 SWAP1 SLOAD SWAP1 PUSH2 0x100 EXP SWAP1 DIV PUSH20 0xFFFFFFFFFFFFFFFFFFFFFFFFFFFFFFFFFFFFFFFF AND PUSH20 0xFFFFFFFFFFFFFFFFFFFFFFFFFFFFFFFFFFFFFFFF AND PUSH20 0xFFFFFFFFFFFFFFFFFFFFFFFFFFFFFFFFFFFFFFFF AND DUP2 MSTORE PUSH1 0x20 ADD SWAP1 DUP2 MSTORE PUSH1 0x20 ADD PUSH1 0x0 KECCAK256 PUSH1 0x0 DUP3 DUP3 SLOAD ADD SWAP3 POP POP DUP2 SWAP1 SSTORE POP PUSH2 0x13A2 PUSH8 0xB1833B3EB742CAF4 PUSH1 0xC0 SHL PUSH2 0x22C2 JUMP JUMPDEST PUSH2 0x13B6 PUSH8 0x96EEA449C7CC4FF4 PUSH1 0xC0 SHL PUSH2 0x22C2 JUMP JUMPDEST PUSH1 0x0 PUSH1 0x6 DUP4 DUP2 SLOAD DUP2 LT PUSH2 0x13F2 JUMPI PUSH32 0x4E487B7100000000000000000000000000000000000000000000000000000000 PUSH1 0x0 MSTORE PUSH1 0x32 PUSH1 0x4 MSTORE PUSH1 0x24 PUSH1 0x0 REVERT JUMPDEST SWAP1 PUSH1 0x0 MSTORE PUSH1 0x20 PUSH1 0x0 KECCAK256 ADD PUSH1 0x0 SWAP1 SLOAD SWAP1 PUSH2 0x100 EXP SWAP1 DIV PUSH20 0xFFFFFFFFFFFFFFFFFFFFFFFFFFFFFFFFFFFFFFFF AND SWAP1 POP PUSH2 0x1433 PUSH8 0xF9ECA2BFA55DFE9D PUSH1 0xC0 SHL PUSH2 0x22C2 JUMP JUMPDEST PUSH2 0x1447 PUSH8 0xBFF3246B47EC76F5 PUSH1 0xC0 SHL PUSH2 0x22C2 JUMP JUMPDEST PUSH2 0x1451 DUP2 DUP4 PUSH2 0x22C5 JUMP JUMPDEST PUSH2 0x1465 PUSH8 0xA76E22D2D81CC526 PUSH1 0xC0 SHL PUSH2 0x22C2 JUMP JUMPDEST PUSH2 0x1479 PUSH8 0x85221404A20988B0 PUSH1 0xC0 SHL PUSH2 0x22C2 JUMP JUMPDEST DUP2 PUSH1 0x6 DUP5 DUP2 SLOAD DUP2 LT PUSH2 0x14B4 JUMPI PUSH32 0x4E487B7100000000000000000000000000000000000000000000000000000000 PUSH1 0x0 MSTORE PUSH1 0x32 PUSH1 0x4 MSTORE PUSH1 0x24 PUSH1 0x0 REVERT JUMPDEST SWAP1 PUSH1 0x0 MSTORE PUSH1 0x20 PUSH1 0x0 KECCAK256 ADD PUSH1 0x0 SWAP1 SLOAD SWAP1 PUSH2 0x100 EXP SWAP1 DIV PUSH20 0xFFFFFFFFFFFFFFFFFFFFFFFFFFFFFFFFFFFFFFFF AND PUSH20 0xFFFFFFFFFFFFFFFFFFFFFFFFFFFFFFFFFFFFFFFF AND PUSH32 0xDF20FD1E76BC69D672E4814FAFB2C449BBA3A5369D8359ADF9E05E6FDE87B056 PUSH1 0x40 MLOAD PUSH1 0x40 MLOAD DUP1 SWAP2 SUB SWAP1 LOG3 POP POP DUP1 DUP1 PUSH2 0x152E SWAP1 PUSH2 0x3447 JUMP JUMPDEST SWAP2 POP POP PUSH2 0x11E2 JUMP JUMPDEST POP JUMP JUMPDEST PUSH1 0x0 DUP1 PUSH1 0x0 DUP5 DUP2 MSTORE PUSH1 0x20 ADD SWAP1 DUP2 MSTORE PUSH1 0x20 ADD PUSH1 0x0 KECCAK256 PUSH1 0x0 ADD PUSH1 0x0 DUP4 PUSH20 0xFFFFFFFFFFFFFFFFFFFFFFFFFFFFFFFFFFFFFFFF AND PUSH20 0xFFFFFFFFFFFFFFFFFFFFFFFFFFFFFFFFFFFFFFFF AND DUP2 MSTORE PUSH1 0x20 ADD SWAP1 DUP2 MSTORE PUSH1 0x20 ADD PUSH1 0x0 KECCAK256 PUSH1 0x0 SWAP1 SLOAD SWAP1 PUSH2 0x100 EXP SWAP1 DIV PUSH1 0xFF AND SWAP1 POP SWAP3 SWAP2 POP POP JUMP JUMPDEST PUSH1 0x0 PUSH2 0x15B9 PUSH8 0x9895B8DA1827604A PUSH1 0xC0 SHL PUSH2 0x22C2 JUMP JUMPDEST PUSH2 0x15CD PUSH8 0x2B9B34846C65E531 PUSH1 0xC0 SHL PUSH2 0x22C2 JUMP JUMPDEST PUSH2 0x15E1 PUSH8 0x30E5A2C69E9C2E2F PUSH1 0xC0 SHL PUSH2 0x22C2 JUMP JUMPDEST PUSH1 0x5 PUSH1 0x0 DUP4 PUSH20 0xFFFFFFFFFFFFFFFFFFFFFFFFFFFFFFFFFFFFFFFF AND PUSH20 0xFFFFFFFFFFFFFFFFFFFFFFFFFFFFFFFFFFFFFFFF AND DUP2 MSTORE PUSH1 0x20 ADD SWAP1 DUP2 MSTORE PUSH1 0x20 ADD PUSH1 0x0 KECCAK256 SLOAD SWAP1 POP SWAP2 SWAP1 POP JUMP JUMPDEST PUSH1 0x0 DUP1 SHL DUP2 JUMP JUMPDEST PUSH1 0x0 PUSH2 0x1645 PUSH8 0xE459F15CAA67855B PUSH1 0xC0 SHL PUSH2 0x22C2 JUMP JUMPDEST PUSH2 0x1659 PUSH8 0xEDB1B571E5A699B7 PUSH1 0xC0 SHL PUSH2 0x22C2 JUMP JUMPDEST PUSH2 0x166D PUSH8 0x7DDD3471519E7299 PUSH1 0xC0 SHL PUSH2 0x22C2 JUMP JUMPDEST PUSH1 0x0 PUSH2 0x1677 PUSH2 0x191B JUMP JUMPDEST SELFBALANCE PUSH2 0x1682 SWAP2 SWAP1 PUSH2 0x31F5 JUMP JUMPDEST SWAP1 POP PUSH2 0x1698 PUSH8 0xF5F11EBDAC5034F1 PUSH1 0xC0 SHL PUSH2 0x22C2 JUMP JUMPDEST PUSH2 0x16AC PUSH8 0x8EF7C410DB337D8D PUSH1 0xC0 SHL PUSH2 0x22C2 JUMP JUMPDEST PUSH2 0x16BF DUP4 DUP3 PUSH2 0x16BA DUP7 PUSH2 0x15A3 JUMP JUMPDEST PUSH2 0x25B9 JUMP JUMPDEST SWAP2 POP POP SWAP2 SWAP1 POP JUMP JUMPDEST PUSH1 0x0 PUSH2 0x16DD PUSH8 0x88E6631637CC58CE PUSH1 0xC0 SHL PUSH2 0x22C2 JUMP JUMPDEST PUSH2 0x16F1 PUSH8 0xF24FC5C248B4FC11 PUSH1 0xC0 SHL PUSH2 0x22C2 JUMP JUMPDEST PUSH2 0x1705 PUSH8 0x561D86D62BAABA0B PUSH1 0xC0 SHL PUSH2 0x22C2 JUMP JUMPDEST PUSH1 0x4 PUSH1 0x0 DUP4 PUSH20 0xFFFFFFFFFFFFFFFFFFFFFFFFFFFFFFFFFFFFFFFF AND PUSH20 0xFFFFFFFFFFFFFFFFFFFFFFFFFFFFFFFFFFFFFFFF AND DUP2 MSTORE PUSH1 0x20 ADD SWAP1 DUP2 MSTORE PUSH1 0x20 ADD PUSH1 0x0 KECCAK256 SLOAD SWAP1 POP SWAP2 SWAP1 POP JUMP JUMPDEST PUSH2 0x1755 DUP3 PUSH2 0xC8F JUMP JUMPDEST PUSH2 0x175E DUP2 PUSH2 0x24BC JUMP JUMPDEST PUSH2 0x1768 DUP4 DUP4 PUSH2 0x24D8 JUMP JUMPDEST POP POP POP JUMP JUMPDEST PUSH1 0x0 PUSH2 0x1783 PUSH8 0x1C2FF44718CB779A PUSH1 0xC0 SHL PUSH2 0x22C2 JUMP JUMPDEST PUSH2 0x1797 PUSH8 0xE87D29EACB3F6799 PUSH1 0xC0 SHL PUSH2 0x22C2 JUMP JUMPDEST PUSH2 0x17AB PUSH8 0x99619D46C948878D PUSH1 0xC0 SHL PUSH2 0x22C2 JUMP JUMPDEST PUSH1 0x0 JUMPDEST PUSH1 0x6 DUP1 SLOAD SWAP1 POP DUP2 LT ISZERO PUSH2 0x18E8 JUMPI PUSH2 0x17CF PUSH8 0xC25F804B19EEA411 PUSH1 0xC0 SHL PUSH2 0x22C2 JUMP JUMPDEST PUSH2 0x17E3 PUSH8 0x67BC3B0009D85B5C PUSH1 0xC0 SHL PUSH2 0x22C2 JUMP JUMPDEST DUP3 PUSH20 0xFFFFFFFFFFFFFFFFFFFFFFFFFFFFFFFFFFFFFFFF AND PUSH1 0x6 DUP3 DUP2 SLOAD DUP2 LT PUSH2 0x1834 JUMPI PUSH32 0x4E487B7100000000000000000000000000000000000000000000000000000000 PUSH1 0x0 MSTORE PUSH1 0x32 PUSH1 0x4 MSTORE PUSH1 0x24 PUSH1 0x0 REVERT JUMPDEST SWAP1 PUSH1 0x0 MSTORE PUSH1 0x20 PUSH1 0x0 KECCAK256 ADD PUSH1 0x0 SWAP1 SLOAD SWAP1 PUSH2 0x100 EXP SWAP1 DIV PUSH20 0xFFFFFFFFFFFFFFFFFFFFFFFFFFFFFFFFFFFFFFFF AND PUSH20 0xFFFFFFFFFFFFFFFFFFFFFFFFFFFFFFFFFFFFFFFF AND EQ ISZERO PUSH2 0x18C1 JUMPI PUSH2 0x188F PUSH8 0x446966B6FEF857E3 PUSH1 0xC0 SHL PUSH2 0x22C2 JUMP JUMPDEST PUSH2 0x18A3 PUSH8 0xBC067AE79CE9BE79 PUSH1 0xC0 SHL PUSH2 0x22C2 JUMP JUMPDEST PUSH2 0x18B7 PUSH8 0x2E789203AC77A907 PUSH1 0xC0 SHL PUSH2 0x22C2 JUMP JUMPDEST PUSH1 0x0 SWAP2 POP POP PUSH2 0x1916 JUMP JUMPDEST PUSH2 0x18D5 PUSH8 0xC4E582A9CCBFB3F2 PUSH1 0xC0 SHL PUSH2 0x22C2 JUMP JUMPDEST DUP1 DUP1 PUSH2 0x18E0 SWAP1 PUSH2 0x3447 JUMP JUMPDEST SWAP2 POP POP PUSH2 0x17AE JUMP JUMPDEST POP PUSH2 0x18FD PUSH8 0x473B18D973E69D2A PUSH1 0xC0 SHL PUSH2 0x22C2 JUMP JUMPDEST PUSH2 0x1911 PUSH8 0xC13956F9C07FF609 PUSH1 0xC0 SHL PUSH2 0x22C2 JUMP JUMPDEST PUSH1 0x1 SWAP1 POP JUMPDEST SWAP2 SWAP1 POP JUMP JUMPDEST PUSH1 0x0 PUSH2 0x1931 PUSH8 0xC012936394B3A4C8 PUSH1 0xC0 SHL PUSH2 0x22C2 JUMP JUMPDEST PUSH2 0x1945 PUSH8 0x836849C499D431CC PUSH1 0xC0 SHL PUSH2 0x22C2 JUMP JUMPDEST PUSH2 0x1959 PUSH8 0x57A01C8BD3F4D7D8 PUSH1 0xC0 SHL PUSH2 0x22C2 JUMP JUMPDEST PUSH1 0x3 SLOAD SWAP1 POP SWAP1 JUMP JUMPDEST PUSH2 0x1975 PUSH8 0x5378C023B943210 PUSH1 0xC0 SHL PUSH2 0x22C2 JUMP JUMPDEST PUSH32 0xFBD454F36A7E1A388BD6FC3AB10D434AA4578F811ACBBCF33AFB1C697486313C PUSH2 0x199F DUP2 PUSH2 0x24BC JUMP JUMPDEST PUSH2 0x19B3 PUSH8 0xA0CD39F6212A8359 PUSH1 0xC0 SHL PUSH2 0x22C2 JUMP JUMPDEST PUSH2 0x19C7 PUSH8 0xA1B73BC006DEC842 PUSH1 0xC0 SHL PUSH2 0x22C2 JUMP JUMPDEST PUSH2 0x19DB PUSH8 0x70B5974371DCFB49 PUSH1 0xC0 SHL PUSH2 0x22C2 JUMP JUMPDEST PUSH2 0x19EF PUSH8 0x5EE9738F665D54B2 PUSH1 0xC0 SHL PUSH2 0x22C2 JUMP JUMPDEST PUSH2 0x1A03 PUSH8 0x5FE0030C43716A06 PUSH1 0xC0 SHL PUSH2 0x22C2 JUMP JUMPDEST PUSH1 0x0 PUSH20 0xFFFFFFFFFFFFFFFFFFFFFFFFFFFFFFFFFFFFFFFF AND DUP3 PUSH20 0xFFFFFFFFFFFFFFFFFFFFFFFFFFFFFFFFFFFFFFFF AND EQ ISZERO PUSH1 0x40 MLOAD DUP1 PUSH1 0x40 ADD PUSH1 0x40 MSTORE DUP1 PUSH1 0x3 DUP2 MSTORE PUSH1 0x20 ADD PUSH32 0x3132330000000000000000000000000000000000000000000000000000000000 DUP2 MSTORE POP SWAP1 PUSH2 0x1AAB JUMPI PUSH1 0x40 MLOAD PUSH32 0x8C379A000000000000000000000000000000000000000000000000000000000 DUP2 MSTORE PUSH1 0x4 ADD PUSH2 0x1AA2 SWAP2 SWAP1 PUSH2 0x3069 JUMP JUMPDEST PUSH1 0x40 MLOAD DUP1 SWAP2 SUB SWAP1 REVERT JUMPDEST POP PUSH2 0x1AC0 PUSH8 0xFC175076F993252B PUSH1 0xC0 SHL PUSH2 0x22C2 JUMP JUMPDEST PUSH2 0x1AD4 PUSH8 0x3DB742EB170F101 PUSH1 0xC0 SHL PUSH2 0x22C2 JUMP JUMPDEST PUSH2 0x1AE8 PUSH8 0xCC545355ED6FFBA0 PUSH1 0xC0 SHL PUSH2 0x22C2 JUMP JUMPDEST PUSH1 0x0 PUSH1 0x6 DUP5 DUP2 SLOAD DUP2 LT PUSH2 0x1B24 JUMPI PUSH32 0x4E487B7100000000000000000000000000000000000000000000000000000000 PUSH1 0x0 MSTORE PUSH1 0x32 PUSH1 0x4 MSTORE PUSH1 0x24 PUSH1 0x0 REVERT JUMPDEST SWAP1 PUSH1 0x0 MSTORE PUSH1 0x20 PUSH1 0x0 KECCAK256 ADD PUSH1 0x0 SWAP1 SLOAD SWAP1 PUSH2 0x100 EXP SWAP1 DIV PUSH20 0xFFFFFFFFFFFFFFFFFFFFFFFFFFFFFFFFFFFFFFFF AND SWAP1 POP PUSH2 0x1B65 PUSH8 0x192CA8E710258796 PUSH1 0xC0 SHL PUSH2 0x22C2 JUMP JUMPDEST PUSH2 0x1B79 PUSH8 0xE51A767F3584AD3F PUSH1 0xC0 SHL PUSH2 0x22C2 JUMP JUMPDEST PUSH1 0x0 PUSH1 0x4 PUSH1 0x0 DUP4 PUSH20 0xFFFFFFFFFFFFFFFFFFFFFFFFFFFFFFFFFFFFFFFF AND PUSH20 0xFFFFFFFFFFFFFFFFFFFFFFFFFFFFFFFFFFFFFFFF AND DUP2 MSTORE PUSH1 0x20 ADD SWAP1 DUP2 MSTORE PUSH1 0x20 ADD PUSH1 0x0 KECCAK256 SLOAD SWAP1 POP PUSH2 0x1BD1 PUSH8 0xA35BE76124B56621 PUSH1 0xC0 SHL PUSH2 0x22C2 JUMP JUMPDEST PUSH1 0x0 PUSH1 0x4 PUSH1 0x0 DUP5 PUSH20 0xFFFFFFFFFFFFFFFFFFFFFFFFFFFFFFFFFFFFFFFF AND PUSH20 0xFFFFFFFFFFFFFFFFFFFFFFFFFFFFFFFFFFFFFFFF AND DUP2 MSTORE PUSH1 0x20 ADD SWAP1 DUP2 MSTORE PUSH1 0x20 ADD PUSH1 0x0 KECCAK256 DUP2 SWAP1 SSTORE POP PUSH2 0x1C2A PUSH8 0x10361A5D88A561CF PUSH1 0xC0 SHL PUSH2 0x22C2 JUMP JUMPDEST DUP1 PUSH1 0x4 PUSH1 0x0 DUP7 PUSH20 0xFFFFFFFFFFFFFFFFFFFFFFFFFFFFFFFFFFFFFFFF AND PUSH20 0xFFFFFFFFFFFFFFFFFFFFFFFFFFFFFFFFFFFFFFFF AND DUP2 MSTORE PUSH1 0x20 ADD SWAP1 DUP2 MSTORE PUSH1 0x20 ADD PUSH1 0x0 KECCAK256 DUP2 SWAP1 SSTORE POP PUSH2 0x1C82 PUSH8 0xD6063A40E5E1CB86 PUSH1 0xC0 SHL PUSH2 0x22C2 JUMP JUMPDEST DUP4 PUSH1 0x6 DUP7 DUP2 SLOAD DUP2 LT PUSH2 0x1CBD JUMPI PUSH32 0x4E487B7100000000000000000000000000000000000000000000000000000000 PUSH1 0x0 MSTORE PUSH1 0x32 PUSH1 0x4 MSTORE PUSH1 0x24 PUSH1 0x0 REVERT JUMPDEST SWAP1 PUSH1 0x0 MSTORE PUSH1 0x20 PUSH1 0x0 KECCAK256 ADD PUSH1 0x0 PUSH2 0x100 EXP DUP2 SLOAD DUP2 PUSH20 0xFFFFFFFFFFFFFFFFFFFFFFFFFFFFFFFFFFFFFFFF MUL NOT AND SWAP1 DUP4 PUSH20 0xFFFFFFFFFFFFFFFFFFFFFFFFFFFFFFFFFFFFFFFF AND MUL OR SWAP1 SSTORE POP PUSH2 0x1D19 PUSH8 0x7421FAC31F4FB28 PUSH1 0xC0 SHL PUSH2 0x22C2 JUMP JUMPDEST PUSH2 0x1D2D PUSH8 0xA13349EBF2416DEB PUSH1 0xC0 SHL PUSH2 0x22C2 JUMP JUMPDEST DUP4 PUSH20 0xFFFFFFFFFFFFFFFFFFFFFFFFFFFFFFFFFFFFFFFF AND DUP3 PUSH20 0xFFFFFFFFFFFFFFFFFFFFFFFFFFFFFFFFFFFFFFFF AND PUSH32 0x2B0F020FC2CA0DF9E227D90FBC27227EC945336AB8036526C0ED27F713909AA0 PUSH1 0x40 MLOAD PUSH1 0x40 MLOAD DUP1 SWAP2 SUB SWAP1 LOG3 POP POP POP POP POP JUMP JUMPDEST PUSH32 0xFBD454F36A7E1A388BD6FC3AB10D434AA4578F811ACBBCF33AFB1C697486313C DUP2 JUMP JUMPDEST PUSH2 0x1DC6 PUSH8 0xF8D89BCCB95C4F18 PUSH1 0xC0 SHL PUSH2 0x22C2 JUMP JUMPDEST PUSH32 0xFBD454F36A7E1A388BD6FC3AB10D434AA4578F811ACBBCF33AFB1C697486313C PUSH2 0x1DF0 DUP2 PUSH2 0x24BC JUMP JUMPDEST PUSH2 0x1E04 PUSH8 0x939454D95B2EFA3B PUSH1 0xC0 SHL PUSH2 0x22C2 JUMP JUMPDEST PUSH2 0x1E18 PUSH8 0xFC521A9792590572 PUSH1 0xC0 SHL PUSH2 0x22C2 JUMP JUMPDEST PUSH2 0x1E2C PUSH8 0x360079AFBC17406A PUSH1 0xC0 SHL PUSH2 0x22C2 JUMP JUMPDEST PUSH2 0x1E40 PUSH8 0x5E48B0CEDAB02540 PUSH1 0xC0 SHL PUSH2 0x22C2 JUMP JUMPDEST PUSH2 0x1E54 PUSH8 0x3C565239BA23ED9B PUSH1 0xC0 SHL PUSH2 0x22C2 JUMP JUMPDEST PUSH1 0x0 PUSH20 0xFFFFFFFFFFFFFFFFFFFFFFFFFFFFFFFFFFFFFFFF AND DUP4 PUSH20 0xFFFFFFFFFFFFFFFFFFFFFFFFFFFFFFFFFFFFFFFF AND EQ ISZERO PUSH1 0x40 MLOAD DUP1 PUSH1 0x40 ADD PUSH1 0x40 MSTORE DUP1 PUSH1 0x3 DUP2 MSTORE PUSH1 0x20 ADD PUSH32 0x3130350000000000000000000000000000000000000000000000000000000000 DUP2 MSTORE POP SWAP1 PUSH2 0x1EFC JUMPI PUSH1 0x40 MLOAD PUSH32 0x8C379A000000000000000000000000000000000000000000000000000000000 DUP2 MSTORE PUSH1 0x4 ADD PUSH2 0x1EF3 SWAP2 SWAP1 PUSH2 0x3069 JUMP JUMPDEST PUSH1 0x40 MLOAD DUP1 SWAP2 SUB SWAP1 REVERT JUMPDEST POP PUSH2 0x1F11 PUSH8 0x3E094FF2B5437B34 PUSH1 0xC0 SHL PUSH2 0x22C2 JUMP JUMPDEST PUSH2 0x1F25 PUSH8 0xE85D1443CCDAD73C PUSH1 0xC0 SHL PUSH2 0x22C2 JUMP JUMPDEST PUSH2 0x1F39 PUSH8 0xF1B092FA9E66919D PUSH1 0xC0 SHL PUSH2 0x22C2 JUMP JUMPDEST PUSH2 0x1F4D PUSH8 0x612D8FDE64ABF60D PUSH1 0xC0 SHL PUSH2 0x22C2 JUMP JUMPDEST PUSH1 0x0 DUP3 GT PUSH1 0x40 MLOAD DUP1 PUSH1 0x40 ADD PUSH1 0x40 MSTORE DUP1 PUSH1 0x3 DUP2 MSTORE PUSH1 0x20 ADD PUSH32 0x3132380000000000000000000000000000000000000000000000000000000000 DUP2 MSTORE POP SWAP1 PUSH2 0x1FC8 JUMPI PUSH1 0x40 MLOAD PUSH32 0x8C379A000000000000000000000000000000000000000000000000000000000 DUP2 MSTORE PUSH1 0x4 ADD PUSH2 0x1FBF SWAP2 SWAP1 PUSH2 0x3069 JUMP JUMPDEST PUSH1 0x40 MLOAD DUP1 SWAP2 SUB SWAP1 REVERT JUMPDEST POP PUSH2 0x1FDD PUSH8 0xB424703CEB58A376 PUSH1 0xC0 SHL PUSH2 0x22C2 JUMP JUMPDEST PUSH2 0x1FF1 PUSH8 0xD213799A04342A05 PUSH1 0xC0 SHL PUSH2 0x22C2 JUMP JUMPDEST PUSH2 0x2004 PUSH7 0xAB604098D216E0 PUSH1 0xC0 SHL PUSH2 0x22C2 JUMP JUMPDEST PUSH2 0x2018 PUSH8 0x3568C296BCDA752C PUSH1 0xC0 SHL PUSH2 0x22C2 JUMP JUMPDEST PUSH1 0x0 PUSH1 0x4 PUSH1 0x0 DUP6 PUSH20 0xFFFFFFFFFFFFFFFFFFFFFFFFFFFFFFFFFFFFFFFF AND PUSH20 0xFFFFFFFFFFFFFFFFFFFFFFFFFFFFFFFFFFFFFFFF AND DUP2 MSTORE PUSH1 0x20 ADD SWAP1 DUP2 MSTORE PUSH1 0x20 ADD PUSH1 0x0 KECCAK256 SLOAD EQ PUSH1 0x40 MLOAD DUP1 PUSH1 0x40 ADD PUSH1 0x40 MSTORE DUP1 PUSH1 0x3 DUP2 MSTORE PUSH1 0x20 ADD PUSH32 0x3132390000000000000000000000000000000000000000000000000000000000 DUP2 MSTORE POP SWAP1 PUSH2 0x20D2 JUMPI PUSH1 0x40 MLOAD PUSH32 0x8C379A000000000000000000000000000000000000000000000000000000000 DUP2 MSTORE PUSH1 0x4 ADD PUSH2 0x20C9 SWAP2 SWAP1 PUSH2 0x3069 JUMP JUMPDEST PUSH1 0x40 MLOAD DUP1 SWAP2 SUB SWAP1 REVERT JUMPDEST POP PUSH2 0x20E7 PUSH8 0xD00E1F2C162682F7 PUSH1 0xC0 SHL PUSH2 0x22C2 JUMP JUMPDEST PUSH2 0x20FB PUSH8 0x2E39B116B32923C4 PUSH1 0xC0 SHL PUSH2 0x22C2 JUMP JUMPDEST PUSH2 0x210F PUSH8 0x90E549DCA071CDDE PUSH1 0xC0 SHL PUSH2 0x22C2 JUMP JUMPDEST PUSH1 0x6 DUP4 SWAP1 DUP1 PUSH1 0x1 DUP2 SLOAD ADD DUP1 DUP3 SSTORE DUP1 SWAP2 POP POP PUSH1 0x1 SWAP1 SUB SWAP1 PUSH1 0x0 MSTORE PUSH1 0x20 PUSH1 0x0 KECCAK256 ADD PUSH1 0x0 SWAP1 SWAP2 SWAP1 SWAP2 SWAP1 SWAP2 PUSH2 0x100 EXP DUP2 SLOAD DUP2 PUSH20 0xFFFFFFFFFFFFFFFFFFFFFFFFFFFFFFFFFFFFFFFF MUL NOT AND SWAP1 DUP4 PUSH20 0xFFFFFFFFFFFFFFFFFFFFFFFFFFFFFFFFFFFFFFFF AND MUL OR SWAP1 SSTORE POP PUSH2 0x2186 PUSH8 0xBFFF5FCCCCEC39E1 PUSH1 0xC0 SHL PUSH2 0x22C2 JUMP JUMPDEST DUP2 PUSH1 0x4 PUSH1 0x0 DUP6 PUSH20 0xFFFFFFFFFFFFFFFFFFFFFFFFFFFFFFFFFFFFFFFF AND PUSH20 0xFFFFFFFFFFFFFFFFFFFFFFFFFFFFFFFFFFFFFFFF AND DUP2 MSTORE PUSH1 0x20 ADD SWAP1 DUP2 MSTORE PUSH1 0x20 ADD PUSH1 0x0 KECCAK256 DUP2 SWAP1 SSTORE POP PUSH2 0x21DE PUSH8 0x1544B54E49426B3 PUSH1 0xC0 SHL PUSH2 0x22C2 JUMP JUMPDEST DUP2 PUSH1 0x2 SLOAD PUSH2 0x21EC SWAP2 SWAP1 PUSH2 0x31F5 JUMP JUMPDEST PUSH1 0x2 DUP2 SWAP1 SSTORE POP PUSH2 0x2206 PUSH8 0xD61528AD998DED9B PUSH1 0xC0 SHL PUSH2 0x22C2 JUMP JUMPDEST PUSH2 0x221A PUSH8 0x4F9F598482D88C22 PUSH1 0xC0 SHL PUSH2 0x22C2 JUMP JUMPDEST PUSH32 0x9000B209805850A65058F21361A9978CB30F1413ED555553AB52A59B440B5D99 DUP4 DUP4 PUSH1 0x40 MLOAD PUSH2 0x224B SWAP3 SWAP2 SWAP1 PUSH2 0x2FEF JUMP JUMPDEST PUSH1 0x40 MLOAD DUP1 SWAP2 SUB SWAP1 LOG1 POP POP POP JUMP JUMPDEST PUSH1 0x0 PUSH32 0x1FFC9A700000000000000000000000000000000000000000000000000000000 PUSH28 0xFFFFFFFFFFFFFFFFFFFFFFFFFFFFFFFFFFFFFFFFFFFFFFFFFFFFFFFF NOT AND DUP3 PUSH28 0xFFFFFFFFFFFFFFFFFFFFFFFFFFFFFFFFFFFFFFFFFFFFFFFFFFFFFFFF NOT AND EQ SWAP1 POP SWAP2 SWAP1 POP JUMP JUMPDEST POP JUMP JUMPDEST DUP1 SELFBALANCE LT ISZERO PUSH2 0x2308 JUMPI PUSH1 0x40 MLOAD PUSH32 0x8C379A000000000000000000000000000000000000000000000000000000000 DUP2 MSTORE PUSH1 0x4 ADD PUSH2 0x22FF SWAP1 PUSH2 0x30CB JUMP JUMPDEST PUSH1 0x40 MLOAD DUP1 SWAP2 SUB SWAP1 REVERT JUMPDEST PUSH1 0x0 DUP3 PUSH20 0xFFFFFFFFFFFFFFFFFFFFFFFFFFFFFFFFFFFFFFFF AND DUP3 PUSH1 0x40 MLOAD PUSH2 0x232E SWAP1 PUSH2 0x2F85 JUMP JUMPDEST PUSH1 0x0 PUSH1 0x40 MLOAD DUP1 DUP4 SUB DUP2 DUP6 DUP8 GAS CALL SWAP3 POP POP POP RETURNDATASIZE DUP1 PUSH1 0x0 DUP2 EQ PUSH2 0x236B JUMPI PUSH1 0x40 MLOAD SWAP2 POP PUSH1 0x1F NOT PUSH1 0x3F RETURNDATASIZE ADD AND DUP3 ADD PUSH1 0x40 MSTORE RETURNDATASIZE DUP3 MSTORE RETURNDATASIZE PUSH1 0x0 PUSH1 0x20 DUP5 ADD RETURNDATACOPY PUSH2 0x2370 JUMP JUMPDEST PUSH1 0x60 SWAP2 POP JUMPDEST POP POP SWAP1 POP DUP1 PUSH2 0x23B4 JUMPI PUSH1 0x40 MLOAD PUSH32 0x8C379A000000000000000000000000000000000000000000000000000000000 DUP2 MSTORE PUSH1 0x4 ADD PUSH2 0x23AB SWAP1 PUSH2 0x30AB JUMP JUMPDEST PUSH1 0x40 MLOAD DUP1 SWAP2 SUB SWAP1 REVERT JUMPDEST POP POP POP JUMP JUMPDEST PUSH1 0x0 DUP1 DUP3 PUSH20 0xFFFFFFFFFFFFFFFFFFFFFFFFFFFFFFFFFFFFFFFF AND EXTCODESIZE GT SWAP1 POP SWAP2 SWAP1 POP JUMP JUMPDEST PUSH2 0x23E6 DUP3 DUP3 PUSH2 0x1539 JUMP JUMPDEST PUSH2 0x24B8 JUMPI PUSH1 0x1 PUSH1 0x0 DUP1 DUP5 DUP2 MSTORE PUSH1 0x20 ADD SWAP1 DUP2 MSTORE PUSH1 0x20 ADD PUSH1 0x0 KECCAK256 PUSH1 0x0 ADD PUSH1 0x0 DUP4 PUSH20 0xFFFFFFFFFFFFFFFFFFFFFFFFFFFFFFFFFFFFFFFF AND PUSH20 0xFFFFFFFFFFFFFFFFFFFFFFFFFFFFFFFFFFFFFFFF AND DUP2 MSTORE PUSH1 0x20 ADD SWAP1 DUP2 MSTORE PUSH1 0x20 ADD PUSH1 0x0 KECCAK256 PUSH1 0x0 PUSH2 0x100 EXP DUP2 SLOAD DUP2 PUSH1 0xFF MUL NOT AND SWAP1 DUP4 ISZERO ISZERO MUL OR SWAP1 SSTORE POP PUSH2 0x245D PUSH2 0x24D0 JUMP JUMPDEST PUSH20 0xFFFFFFFFFFFFFFFFFFFFFFFFFFFFFFFFFFFFFFFF AND DUP2 PUSH20 0xFFFFFFFFFFFFFFFFFFFFFFFFFFFFFFFFFFFFFFFF AND DUP4 PUSH32 0x2F8788117E7EFF1D82E926EC794901D17C78024A50270940304540A733656F0D PUSH1 0x40 MLOAD PUSH1 0x40 MLOAD DUP1 SWAP2 SUB SWAP1 LOG4 JUMPDEST POP POP JUMP JUMPDEST PUSH2 0x24CD DUP2 PUSH2 0x24C8 PUSH2 0x24D0 JUMP JUMPDEST PUSH2 0x2663 JUMP JUMPDEST POP JUMP JUMPDEST PUSH1 0x0 CALLER SWAP1 POP SWAP1 JUMP JUMPDEST PUSH2 0x24E2 DUP3 DUP3 PUSH2 0x1539 JUMP JUMPDEST ISZERO PUSH2 0x25B5 JUMPI PUSH1 0x0 DUP1 PUSH1 0x0 DUP5 DUP2 MSTORE PUSH1 0x20 ADD SWAP1 DUP2 MSTORE PUSH1 0x20 ADD PUSH1 0x0 KECCAK256 PUSH1 0x0 ADD PUSH1 0x0 DUP4 PUSH20 0xFFFFFFFFFFFFFFFFFFFFFFFFFFFFFFFFFFFFFFFF AND PUSH20 0xFFFFFFFFFFFFFFFFFFFFFFFFFFFFFFFFFFFFFFFF AND DUP2 MSTORE PUSH1 0x20 ADD SWAP1 DUP2 MSTORE PUSH1 0x20 ADD PUSH1 0x0 KECCAK256 PUSH1 0x0 PUSH2 0x100 EXP DUP2 SLOAD DUP2 PUSH1 0xFF MUL NOT AND SWAP1 DUP4 ISZERO ISZERO MUL OR SWAP1 SSTORE POP PUSH2 0x255A PUSH2 0x24D0 JUMP JUMPDEST PUSH20 0xFFFFFFFFFFFFFFFFFFFFFFFFFFFFFFFFFFFFFFFF AND DUP2 PUSH20 0xFFFFFFFFFFFFFFFFFFFFFFFFFFFFFFFFFFFFFFFF AND DUP4 PUSH32 0xF6391F5C32D9C69D2A47EA670B442974B53935D1EDC7FD64EB21E047A839171B PUSH1 0x40 MLOAD PUSH1 0x40 MLOAD DUP1 SWAP2 SUB SWAP1 LOG4 JUMPDEST POP POP JUMP JUMPDEST PUSH1 0x0 PUSH2 0x25CF PUSH8 0xD139A45D4C9413DC PUSH1 0xC0 SHL PUSH2 0x22C2 JUMP JUMPDEST PUSH2 0x25E3 PUSH8 0x4C2C2D0A52412DF4 PUSH1 0xC0 SHL PUSH2 0x22C2 JUMP JUMPDEST PUSH2 0x25F7 PUSH8 0x2461205DE7B3AA9A PUSH1 0xC0 SHL PUSH2 0x22C2 JUMP JUMPDEST DUP2 PUSH1 0x2 SLOAD PUSH1 0x4 PUSH1 0x0 DUP8 PUSH20 0xFFFFFFFFFFFFFFFFFFFFFFFFFFFFFFFFFFFFFFFF AND PUSH20 0xFFFFFFFFFFFFFFFFFFFFFFFFFFFFFFFFFFFFFFFF AND DUP2 MSTORE PUSH1 0x20 ADD SWAP1 DUP2 MSTORE PUSH1 0x20 ADD PUSH1 0x0 KECCAK256 SLOAD DUP6 PUSH2 0x2646 SWAP2 SWAP1 PUSH2 0x327C JUMP JUMPDEST PUSH2 0x2650 SWAP2 SWAP1 PUSH2 0x324B JUMP JUMPDEST PUSH2 0x265A SWAP2 SWAP1 PUSH2 0x32D6 JUMP JUMPDEST SWAP1 POP SWAP4 SWAP3 POP POP POP JUMP JUMPDEST PUSH2 0x266D DUP3 DUP3 PUSH2 0x1539 JUMP JUMPDEST PUSH2 0x26E4 JUMPI PUSH2 0x267A DUP2 PUSH2 0x26E8 JUMP JUMPDEST PUSH2 0x2688 DUP4 PUSH1 0x0 SHR PUSH1 0x20 PUSH2 0x2715 JUMP JUMPDEST PUSH1 0x40 MLOAD PUSH1 0x20 ADD PUSH2 0x2699 SWAP3 SWAP2 SWAP1 PUSH2 0x2F9A JUMP JUMPDEST PUSH1 0x40 MLOAD PUSH1 0x20 DUP2 DUP4 SUB SUB DUP2 MSTORE SWAP1 PUSH1 0x40 MSTORE PUSH1 0x40 MLOAD PUSH32 0x8C379A000000000000000000000000000000000000000000000000000000000 DUP2 MSTORE PUSH1 0x4 ADD PUSH2 0x26DB SWAP2 SWAP1 PUSH2 0x3069 JUMP JUMPDEST PUSH1 0x40 MLOAD DUP1 SWAP2 SUB SWAP1 REVERT JUMPDEST POP POP JUMP JUMPDEST PUSH1 0x60 PUSH2 0x270E DUP3 PUSH20 0xFFFFFFFFFFFFFFFFFFFFFFFFFFFFFFFFFFFFFFFF AND PUSH1 0x14 PUSH1 0xFF AND PUSH2 0x2715 JUMP JUMPDEST SWAP1 POP SWAP2 SWAP1 POP JUMP JUMPDEST PUSH1 0x60 PUSH1 0x0 PUSH1 0x2 DUP4 PUSH1 0x2 PUSH2 0x2728 SWAP2 SWAP1 PUSH2 0x327C JUMP JUMPDEST PUSH2 0x2732 SWAP2 SWAP1 PUSH2 0x31F5 JUMP JUMPDEST PUSH8 0xFFFFFFFFFFFFFFFF DUP2 GT ISZERO PUSH2 0x2771 JUMPI PUSH32 0x4E487B7100000000000000000000000000000000000000000000000000000000 PUSH1 0x0 MSTORE PUSH1 0x41 PUSH1 0x4 MSTORE PUSH1 0x24 PUSH1 0x0 REVERT JUMPDEST PUSH1 0x40 MLOAD SWAP1 DUP1 DUP3 MSTORE DUP1 PUSH1 0x1F ADD PUSH1 0x1F NOT AND PUSH1 0x20 ADD DUP3 ADD PUSH1 0x40 MSTORE DUP1 ISZERO PUSH2 0x27A3 JUMPI DUP2 PUSH1 0x20 ADD PUSH1 0x1 DUP3 MUL DUP1 CALLDATASIZE DUP4 CALLDATACOPY DUP1 DUP3 ADD SWAP2 POP POP SWAP1 POP JUMPDEST POP SWAP1 POP PUSH32 0x3000000000000000000000000000000000000000000000000000000000000000 DUP2 PUSH1 0x0 DUP2 MLOAD DUP2 LT PUSH2 0x2801 JUMPI PUSH32 0x4E487B7100000000000000000000000000000000000000000000000000000000 PUSH1 0x0 MSTORE PUSH1 0x32 PUSH1 0x4 MSTORE PUSH1 0x24 PUSH1 0x0 REVERT JUMPDEST PUSH1 0x20 ADD ADD SWAP1 PUSH31 0xFFFFFFFFFFFFFFFFFFFFFFFFFFFFFFFFFFFFFFFFFFFFFFFFFFFFFFFFFFFFFF NOT AND SWAP1 DUP2 PUSH1 0x0 BYTE SWAP1 MSTORE8 POP PUSH32 0x7800000000000000000000000000000000000000000000000000000000000000 DUP2 PUSH1 0x1 DUP2 MLOAD DUP2 LT PUSH2 0x288B JUMPI PUSH32 0x4E487B7100000000000000000000000000000000000000000000000000000000 PUSH1 0x0 MSTORE PUSH1 0x32 PUSH1 0x4 MSTORE PUSH1 0x24 PUSH1 0x0 REVERT JUMPDEST PUSH1 0x20 ADD ADD SWAP1 PUSH31 0xFFFFFFFFFFFFFFFFFFFFFFFFFFFFFFFFFFFFFFFFFFFFFFFFFFFFFFFFFFFFFF NOT AND SWAP1 DUP2 PUSH1 0x0 BYTE SWAP1 MSTORE8 POP PUSH1 0x0 PUSH1 0x1 DUP5 PUSH1 0x2 PUSH2 0x28CB SWAP2 SWAP1 PUSH2 0x327C JUMP JUMPDEST PUSH2 0x28D5 SWAP2 SWAP1 PUSH2 0x31F5 JUMP JUMPDEST SWAP1 POP JUMPDEST PUSH1 0x1 DUP2 GT ISZERO PUSH2 0x29C1 JUMPI PUSH32 0x3031323334353637383961626364656600000000000000000000000000000000 PUSH1 0xF DUP7 AND PUSH1 0x10 DUP2 LT PUSH2 0x293D JUMPI PUSH32 0x4E487B7100000000000000000000000000000000000000000000000000000000 PUSH1 0x0 MSTORE PUSH1 0x32 PUSH1 0x4 MSTORE PUSH1 0x24 PUSH1 0x0 REVERT JUMPDEST BYTE PUSH1 0xF8 SHL DUP3 DUP3 DUP2 MLOAD DUP2 LT PUSH2 0x297A JUMPI PUSH32 0x4E487B7100000000000000000000000000000000000000000000000000000000 PUSH1 0x0 MSTORE PUSH1 0x32 PUSH1 0x4 MSTORE PUSH1 0x24 PUSH1 0x0 REVERT JUMPDEST PUSH1 0x20 ADD ADD SWAP1 PUSH31 0xFFFFFFFFFFFFFFFFFFFFFFFFFFFFFFFFFFFFFFFFFFFFFFFFFFFFFFFFFFFFFF NOT AND SWAP1 DUP2 PUSH1 0x0 BYTE SWAP1 MSTORE8 POP PUSH1 0x4 DUP6 SWAP1 SHR SWAP5 POP DUP1 PUSH2 0x29BA SWAP1 PUSH2 0x33EC JUMP JUMPDEST SWAP1 POP PUSH2 0x28D8 JUMP JUMPDEST POP PUSH1 0x0 DUP5 EQ PUSH2 0x2A05 JUMPI PUSH1 0x40 MLOAD PUSH32 0x8C379A000000000000000000000000000000000000000000000000000000000 DUP2 MSTORE PUSH1 0x4 ADD PUSH2 0x29FC SWAP1 PUSH2 0x308B JUMP JUMPDEST PUSH1 0x40 MLOAD DUP1 SWAP2 SUB SWAP1 REVERT JUMPDEST DUP1 SWAP2 POP POP SWAP3 SWAP2 POP POP JUMP JUMPDEST PUSH1 0x0 PUSH2 0x2A22 PUSH2 0x2A1D DUP5 PUSH2 0x316B JUMP JUMPDEST PUSH2 0x3146 JUMP JUMPDEST SWAP1 POP DUP1 DUP4 DUP3 MSTORE PUSH1 0x20 DUP3 ADD SWAP1 POP DUP3 DUP6 PUSH1 0x20 DUP7 MUL DUP3 ADD GT ISZERO PUSH2 0x2A41 JUMPI PUSH1 0x0 DUP1 REVERT JUMPDEST PUSH1 0x0 JUMPDEST DUP6 DUP2 LT ISZERO PUSH2 0x2A71 JUMPI DUP2 PUSH2 0x2A57 DUP9 DUP3 PUSH2 0x2AE7 JUMP JUMPDEST DUP5 MSTORE PUSH1 0x20 DUP5 ADD SWAP4 POP PUSH1 0x20 DUP4 ADD SWAP3 POP POP PUSH1 0x1 DUP2 ADD SWAP1 POP PUSH2 0x2A44 JUMP JUMPDEST POP POP POP SWAP4 SWAP3 POP POP POP JUMP JUMPDEST PUSH1 0x0 PUSH2 0x2A8E PUSH2 0x2A89 DUP5 PUSH2 0x3197 JUMP JUMPDEST PUSH2 0x3146 JUMP JUMPDEST SWAP1 POP DUP1 DUP4 DUP3 MSTORE PUSH1 0x20 DUP3 ADD SWAP1 POP DUP3 DUP6 PUSH1 0x20 DUP7 MUL DUP3 ADD GT ISZERO PUSH2 0x2AAD JUMPI PUSH1 0x0 DUP1 REVERT JUMPDEST PUSH1 0x0 JUMPDEST DUP6 DUP2 LT ISZERO PUSH2 0x2ADD JUMPI DUP2 PUSH2 0x2AC3 DUP9 DUP3 PUSH2 0x2B8F JUMP JUMPDEST DUP5 MSTORE PUSH1 0x20 DUP5 ADD SWAP4 POP PUSH1 0x20 DUP4 ADD SWAP3 POP POP PUSH1 0x1 DUP2 ADD SWAP1 POP PUSH2 0x2AB0 JUMP JUMPDEST POP POP POP SWAP4 SWAP3 POP POP POP JUMP JUMPDEST PUSH1 0x0 DUP2 CALLDATALOAD SWAP1 POP PUSH2 0x2AF6 DUP2 PUSH2 0x36C2 JUMP JUMPDEST SWAP3 SWAP2 POP POP JUMP JUMPDEST PUSH1 0x0 DUP2 CALLDATALOAD SWAP1 POP PUSH2 0x2B0B DUP2 PUSH2 0x36D9 JUMP JUMPDEST SWAP3 SWAP2 POP POP JUMP JUMPDEST PUSH1 0x0 DUP3 PUSH1 0x1F DUP4 ADD SLT PUSH2 0x2B22 JUMPI PUSH1 0x0 DUP1 REVERT JUMPDEST DUP2 CALLDATALOAD PUSH2 0x2B32 DUP5 DUP3 PUSH1 0x20 DUP7 ADD PUSH2 0x2A0F JUMP JUMPDEST SWAP2 POP POP SWAP3 SWAP2 POP POP JUMP JUMPDEST PUSH1 0x0 DUP3 PUSH1 0x1F DUP4 ADD SLT PUSH2 0x2B4C JUMPI PUSH1 0x0 DUP1 REVERT JUMPDEST DUP2 CALLDATALOAD PUSH2 0x2B5C DUP5 DUP3 PUSH1 0x20 DUP7 ADD PUSH2 0x2A7B JUMP JUMPDEST SWAP2 POP POP SWAP3 SWAP2 POP POP JUMP JUMPDEST PUSH1 0x0 DUP2 CALLDATALOAD SWAP1 POP PUSH2 0x2B74 DUP2 PUSH2 0x36F0 JUMP JUMPDEST SWAP3 SWAP2 POP POP JUMP JUMPDEST PUSH1 0x0 DUP2 CALLDATALOAD SWAP1 POP PUSH2 0x2B89 DUP2 PUSH2 0x3707 JUMP JUMPDEST SWAP3 SWAP2 POP POP JUMP JUMPDEST PUSH1 0x0 DUP2 CALLDATALOAD SWAP1 POP PUSH2 0x2B9E DUP2 PUSH2 0x371E JUMP JUMPDEST SWAP3 SWAP2 POP POP JUMP JUMPDEST PUSH1 0x0 PUSH1 0x20 DUP3 DUP5 SUB SLT ISZERO PUSH2 0x2BB6 JUMPI PUSH1 0x0 DUP1 REVERT JUMPDEST PUSH1 0x0 PUSH2 0x2BC4 DUP5 DUP3 DUP6 ADD PUSH2 0x2AE7 JUMP JUMPDEST SWAP2 POP POP SWAP3 SWAP2 POP POP JUMP JUMPDEST PUSH1 0x0 PUSH1 0x20 DUP3 DUP5 SUB SLT ISZERO PUSH2 0x2BDF JUMPI PUSH1 0x0 DUP1 REVERT JUMPDEST PUSH1 0x0 PUSH2 0x2BED DUP5 DUP3 DUP6 ADD PUSH2 0x2AFC JUMP JUMPDEST SWAP2 POP POP SWAP3 SWAP2 POP POP JUMP JUMPDEST PUSH1 0x0 DUP1 PUSH1 0x40 DUP4 DUP6 SUB SLT ISZERO PUSH2 0x2C09 JUMPI PUSH1 0x0 DUP1 REVERT JUMPDEST PUSH1 0x0 PUSH2 0x2C17 DUP6 DUP3 DUP7 ADD PUSH2 0x2AE7 JUMP JUMPDEST SWAP3 POP POP PUSH1 0x20 PUSH2 0x2C28 DUP6 DUP3 DUP7 ADD PUSH2 0x2B8F JUMP JUMPDEST SWAP2 POP POP SWAP3 POP SWAP3 SWAP1 POP JUMP JUMPDEST PUSH1 0x0 DUP1 PUSH1 0x0 DUP1 PUSH1 0x80 DUP6 DUP8 SUB SLT ISZERO PUSH2 0x2C48 JUMPI PUSH1 0x0 DUP1 REVERT JUMPDEST PUSH1 0x0 DUP6 ADD CALLDATALOAD PUSH8 0xFFFFFFFFFFFFFFFF DUP2 GT ISZERO PUSH2 0x2C62 JUMPI PUSH1 0x0 DUP1 REVERT JUMPDEST PUSH2 0x2C6E DUP8 DUP3 DUP9 ADD PUSH2 0x2B11 JUMP JUMPDEST SWAP5 POP POP PUSH1 0x20 DUP6 ADD CALLDATALOAD PUSH8 0xFFFFFFFFFFFFFFFF DUP2 GT ISZERO PUSH2 0x2C8B JUMPI PUSH1 0x0 DUP1 REVERT JUMPDEST PUSH2 0x2C97 DUP8 DUP3 DUP9 ADD PUSH2 0x2B3B JUMP JUMPDEST SWAP4 POP POP PUSH1 0x40 PUSH2 0x2CA8 DUP8 DUP3 DUP9 ADD PUSH2 0x2AE7 JUMP JUMPDEST SWAP3 POP POP PUSH1 0x60 PUSH2 0x2CB9 DUP8 DUP3 DUP9 ADD PUSH2 0x2AE7 JUMP JUMPDEST SWAP2 POP POP SWAP3 SWAP6 SWAP2 SWAP5 POP SWAP3 POP JUMP JUMPDEST PUSH1 0x0 PUSH1 0x20 DUP3 DUP5 SUB SLT ISZERO PUSH2 0x2CD7 JUMPI PUSH1 0x0 DUP1 REVERT JUMPDEST PUSH1 0x0 PUSH2 0x2CE5 DUP5 DUP3 DUP6 ADD PUSH2 0x2B65 JUMP JUMPDEST SWAP2 POP POP SWAP3 SWAP2 POP POP JUMP JUMPDEST PUSH1 0x0 DUP1 PUSH1 0x40 DUP4 DUP6 SUB SLT ISZERO PUSH2 0x2D01 JUMPI PUSH1 0x0 DUP1 REVERT JUMPDEST PUSH1 0x0 PUSH2 0x2D0F DUP6 DUP3 DUP7 ADD PUSH2 0x2B65 JUMP JUMPDEST SWAP3 POP POP PUSH1 0x20 PUSH2 0x2D20 DUP6 DUP3 DUP7 ADD PUSH2 0x2AE7 JUMP JUMPDEST SWAP2 POP POP SWAP3 POP SWAP3 SWAP1 POP JUMP JUMPDEST PUSH1 0x0 PUSH1 0x20 DUP3 DUP5 SUB SLT ISZERO PUSH2 0x2D3C JUMPI PUSH1 0x0 DUP1 REVERT JUMPDEST PUSH1 0x0 PUSH2 0x2D4A DUP5 DUP3 DUP6 ADD PUSH2 0x2B7A JUMP JUMPDEST SWAP2 POP POP SWAP3 SWAP2 POP POP JUMP JUMPDEST PUSH1 0x0 PUSH1 0x20 DUP3 DUP5 SUB SLT ISZERO PUSH2 0x2D65 JUMPI PUSH1 0x0 DUP1 REVERT JUMPDEST PUSH1 0x0 PUSH2 0x2D73 DUP5 DUP3 DUP6 ADD PUSH2 0x2B8F JUMP JUMPDEST SWAP2 POP POP SWAP3 SWAP2 POP POP JUMP JUMPDEST PUSH1 0x0 DUP1 PUSH1 0x40 DUP4 DUP6 SUB SLT ISZERO PUSH2 0x2D8F JUMPI PUSH1 0x0 DUP1 REVERT JUMPDEST PUSH1 0x0 PUSH2 0x2D9D DUP6 DUP3 DUP7 ADD PUSH2 0x2B8F JUMP JUMPDEST SWAP3 POP POP PUSH1 0x20 PUSH2 0x2DAE DUP6 DUP3 DUP7 ADD PUSH2 0x2AE7 JUMP JUMPDEST SWAP2 POP POP SWAP3 POP SWAP3 SWAP1 POP JUMP JUMPDEST PUSH2 0x2DC1 DUP2 PUSH2 0x330A JUMP JUMPDEST DUP3 MSTORE POP POP JUMP JUMPDEST PUSH2 0x2DD0 DUP2 PUSH2 0x332E JUMP JUMPDEST DUP3 MSTORE POP POP JUMP JUMPDEST PUSH2 0x2DDF DUP2 PUSH2 0x333A JUMP JUMPDEST DUP3 MSTORE POP POP JUMP JUMPDEST PUSH2 0x2DEE DUP2 PUSH2 0x33A7 JUMP JUMPDEST DUP3 MSTORE POP POP JUMP JUMPDEST PUSH1 0x0 PUSH2 0x2DFF DUP3 PUSH2 0x31C3 JUMP JUMPDEST PUSH2 0x2E09 DUP2 DUP6 PUSH2 0x31D9 JUMP JUMPDEST SWAP4 POP PUSH2 0x2E19 DUP2 DUP6 PUSH1 0x20 DUP7 ADD PUSH2 0x33B9 JUMP JUMPDEST PUSH2 0x2E22 DUP2 PUSH2 0x351D JUMP JUMPDEST DUP5 ADD SWAP2 POP POP SWAP3 SWAP2 POP POP JUMP JUMPDEST PUSH1 0x0 PUSH2 0x2E38 DUP3 PUSH2 0x31C3 JUMP JUMPDEST PUSH2 0x2E42 DUP2 DUP6 PUSH2 0x31EA JUMP JUMPDEST SWAP4 POP PUSH2 0x2E52 DUP2 DUP6 PUSH1 0x20 DUP7 ADD PUSH2 0x33B9 JUMP JUMPDEST DUP1 DUP5 ADD SWAP2 POP POP SWAP3 SWAP2 POP POP JUMP JUMPDEST PUSH1 0x0 PUSH2 0x2E6B PUSH1 0x20 DUP4 PUSH2 0x31D9 JUMP JUMPDEST SWAP2 POP PUSH2 0x2E76 DUP3 PUSH2 0x352E JUMP JUMPDEST PUSH1 0x20 DUP3 ADD SWAP1 POP SWAP2 SWAP1 POP JUMP JUMPDEST PUSH1 0x0 PUSH2 0x2E8E PUSH1 0x3A DUP4 PUSH2 0x31D9 JUMP JUMPDEST SWAP2 POP PUSH2 0x2E99 DUP3 PUSH2 0x3557 JUMP JUMPDEST PUSH1 0x40 DUP3 ADD SWAP1 POP SWAP2 SWAP1 POP JUMP JUMPDEST PUSH1 0x0 PUSH2 0x2EB1 PUSH1 0x1D DUP4 PUSH2 0x31D9 JUMP JUMPDEST SWAP2 POP PUSH2 0x2EBC DUP3 PUSH2 0x35A6 JUMP JUMPDEST PUSH1 0x20 DUP3 ADD SWAP1 POP SWAP2 SWAP1 POP JUMP JUMPDEST PUSH1 0x0 PUSH2 0x2ED4 PUSH1 0x2E DUP4 PUSH2 0x31D9 JUMP JUMPDEST SWAP2 POP PUSH2 0x2EDF DUP3 PUSH2 0x35CF JUMP JUMPDEST PUSH1 0x40 DUP3 ADD SWAP1 POP SWAP2 SWAP1 POP JUMP JUMPDEST PUSH1 0x0 PUSH2 0x2EF7 PUSH1 0x0 DUP4 PUSH2 0x31CE JUMP JUMPDEST SWAP2 POP PUSH2 0x2F02 DUP3 PUSH2 0x361E JUMP JUMPDEST PUSH1 0x0 DUP3 ADD SWAP1 POP SWAP2 SWAP1 POP JUMP JUMPDEST PUSH1 0x0 PUSH2 0x2F1A PUSH1 0x17 DUP4 PUSH2 0x31EA JUMP JUMPDEST SWAP2 POP PUSH2 0x2F25 DUP3 PUSH2 0x3621 JUMP JUMPDEST PUSH1 0x17 DUP3 ADD SWAP1 POP SWAP2 SWAP1 POP JUMP JUMPDEST PUSH1 0x0 PUSH2 0x2F3D PUSH1 0x11 DUP4 PUSH2 0x31EA JUMP JUMPDEST SWAP2 POP PUSH2 0x2F48 DUP3 PUSH2 0x364A JUMP JUMPDEST PUSH1 0x11 DUP3 ADD SWAP1 POP SWAP2 SWAP1 POP JUMP JUMPDEST PUSH1 0x0 PUSH2 0x2F60 PUSH1 0x2F DUP4 PUSH2 0x31D9 JUMP JUMPDEST SWAP2 POP PUSH2 0x2F6B DUP3 PUSH2 0x3673 JUMP JUMPDEST PUSH1 0x40 DUP3 ADD SWAP1 POP SWAP2 SWAP1 POP JUMP JUMPDEST PUSH2 0x2F7F DUP2 PUSH2 0x3390 JUMP JUMPDEST DUP3 MSTORE POP POP JUMP JUMPDEST PUSH1 0x0 PUSH2 0x2F90 DUP3 PUSH2 0x2EEA JUMP JUMPDEST SWAP2 POP DUP2 SWAP1 POP SWAP2 SWAP1 POP JUMP JUMPDEST PUSH1 0x0 PUSH2 0x2FA5 DUP3 PUSH2 0x2F0D JUMP JUMPDEST SWAP2 POP PUSH2 0x2FB1 DUP3 DUP6 PUSH2 0x2E2D JUMP JUMPDEST SWAP2 POP PUSH2 0x2FBC DUP3 PUSH2 0x2F30 JUMP JUMPDEST SWAP2 POP PUSH2 0x2FC8 DUP3 DUP5 PUSH2 0x2E2D JUMP JUMPDEST SWAP2 POP DUP2 SWAP1 POP SWAP4 SWAP3 POP POP POP JUMP JUMPDEST PUSH1 0x0 PUSH1 0x20 DUP3 ADD SWAP1 POP PUSH2 0x2FE9 PUSH1 0x0 DUP4 ADD DUP5 PUSH2 0x2DB8 JUMP JUMPDEST SWAP3 SWAP2 POP POP JUMP JUMPDEST PUSH1 0x0 PUSH1 0x40 DUP3 ADD SWAP1 POP PUSH2 0x3004 PUSH1 0x0 DUP4 ADD DUP6 PUSH2 0x2DB8 JUMP JUMPDEST PUSH2 0x3011 PUSH1 0x20 DUP4 ADD DUP5 PUSH2 0x2F76 JUMP JUMPDEST SWAP4 SWAP3 POP POP POP JUMP JUMPDEST PUSH1 0x0 PUSH1 0x20 DUP3 ADD SWAP1 POP PUSH2 0x302D PUSH1 0x0 DUP4 ADD DUP5 PUSH2 0x2DC7 JUMP JUMPDEST SWAP3 SWAP2 POP POP JUMP JUMPDEST PUSH1 0x0 PUSH1 0x20 DUP3 ADD SWAP1 POP PUSH2 0x3048 PUSH1 0x0 DUP4 ADD DUP5 PUSH2 0x2DD6 JUMP JUMPDEST SWAP3 SWAP2 POP POP JUMP JUMPDEST PUSH1 0x0 PUSH1 0x20 DUP3 ADD SWAP1 POP PUSH2 0x3063 PUSH1 0x0 DUP4 ADD DUP5 PUSH2 0x2DE5 JUMP JUMPDEST SWAP3 SWAP2 POP POP JUMP JUMPDEST PUSH1 0x0 PUSH1 0x20 DUP3 ADD SWAP1 POP DUP2 DUP2 SUB PUSH1 0x0 DUP4 ADD MSTORE PUSH2 0x3083 DUP2 DUP5 PUSH2 0x2DF4 JUMP JUMPDEST SWAP1 POP SWAP3 SWAP2 POP POP JUMP JUMPDEST PUSH1 0x0 PUSH1 0x20 DUP3 ADD SWAP1 POP DUP2 DUP2 SUB PUSH1 0x0 DUP4 ADD MSTORE PUSH2 0x30A4 DUP2 PUSH2 0x2E5E JUMP JUMPDEST SWAP1 POP SWAP2 SWAP1 POP JUMP JUMPDEST PUSH1 0x0 PUSH1 0x20 DUP3 ADD SWAP1 POP DUP2 DUP2 SUB PUSH1 0x0 DUP4 ADD MSTORE PUSH2 0x30C4 DUP2 PUSH2 0x2E81 JUMP JUMPDEST SWAP1 POP SWAP2 SWAP1 POP JUMP JUMPDEST PUSH1 0x0 PUSH1 0x20 DUP3 ADD SWAP1 POP DUP2 DUP2 SUB PUSH1 0x0 DUP4 ADD MSTORE PUSH2 0x30E4 DUP2 PUSH2 0x2EA4 JUMP JUMPDEST SWAP1 POP SWAP2 SWAP1 POP JUMP JUMPDEST PUSH1 0x0 PUSH1 0x20 DUP3 ADD SWAP1 POP DUP2 DUP2 SUB PUSH1 0x0 DUP4 ADD MSTORE PUSH2 0x3104 DUP2 PUSH2 0x2EC7 JUMP JUMPDEST SWAP1 POP SWAP2 SWAP1 POP JUMP JUMPDEST PUSH1 0x0 PUSH1 0x20 DUP3 ADD SWAP1 POP DUP2 DUP2 SUB PUSH1 0x0 DUP4 ADD MSTORE PUSH2 0x3124 DUP2 PUSH2 0x2F53 JUMP JUMPDEST SWAP1 POP SWAP2 SWAP1 POP JUMP JUMPDEST PUSH1 0x0 PUSH1 0x20 DUP3 ADD SWAP1 POP PUSH2 0x3140 PUSH1 0x0 DUP4 ADD DUP5 PUSH2 0x2F76 JUMP JUMPDEST SWAP3 SWAP2 POP POP JUMP JUMPDEST PUSH1 0x0 PUSH2 0x3150 PUSH2 0x3161 JUMP JUMPDEST SWAP1 POP PUSH2 0x315C DUP3 DUP3 PUSH2 0x3416 JUMP JUMPDEST SWAP2 SWAP1 POP JUMP JUMPDEST PUSH1 0x0 PUSH1 0x40 MLOAD SWAP1 POP SWAP1 JUMP JUMPDEST PUSH1 0x0 PUSH8 0xFFFFFFFFFFFFFFFF DUP3 GT ISZERO PUSH2 0x3186 JUMPI PUSH2 0x3185 PUSH2 0x34EE JUMP JUMPDEST JUMPDEST PUSH1 0x20 DUP3 MUL SWAP1 POP PUSH1 0x20 DUP2 ADD SWAP1 POP SWAP2 SWAP1 POP JUMP JUMPDEST PUSH1 0x0 PUSH8 0xFFFFFFFFFFFFFFFF DUP3 GT ISZERO PUSH2 0x31B2 JUMPI PUSH2 0x31B1 PUSH2 0x34EE JUMP JUMPDEST JUMPDEST PUSH1 0x20 DUP3 MUL SWAP1 POP PUSH1 0x20 DUP2 ADD SWAP1 POP SWAP2 SWAP1 POP JUMP JUMPDEST PUSH1 0x0 DUP2 MLOAD SWAP1 POP SWAP2 SWAP1 POP JUMP JUMPDEST PUSH1 0x0 DUP2 SWAP1 POP SWAP3 SWAP2 POP POP JUMP JUMPDEST PUSH1 0x0 DUP3 DUP3 MSTORE PUSH1 0x20 DUP3 ADD SWAP1 POP SWAP3 SWAP2 POP POP JUMP JUMPDEST PUSH1 0x0 DUP2 SWAP1 POP SWAP3 SWAP2 POP POP JUMP JUMPDEST PUSH1 0x0 PUSH2 0x3200 DUP3 PUSH2 0x3390 JUMP JUMPDEST SWAP2 POP PUSH2 0x320B DUP4 PUSH2 0x3390 JUMP JUMPDEST SWAP3 POP DUP3 PUSH32 0xFFFFFFFFFFFFFFFFFFFFFFFFFFFFFFFFFFFFFFFFFFFFFFFFFFFFFFFFFFFFFFFF SUB DUP3 GT ISZERO PUSH2 0x3240 JUMPI PUSH2 0x323F PUSH2 0x3490 JUMP JUMPDEST JUMPDEST DUP3 DUP3 ADD SWAP1 POP SWAP3 SWAP2 POP POP JUMP JUMPDEST PUSH1 0x0 PUSH2 0x3256 DUP3 PUSH2 0x3390 JUMP JUMPDEST SWAP2 POP PUSH2 0x3261 DUP4 PUSH2 0x3390 JUMP JUMPDEST SWAP3 POP DUP3 PUSH2 0x3271 JUMPI PUSH2 0x3270 PUSH2 0x34BF JUMP JUMPDEST JUMPDEST DUP3 DUP3 DIV SWAP1 POP SWAP3 SWAP2 POP POP JUMP JUMPDEST PUSH1 0x0 PUSH2 0x3287 DUP3 PUSH2 0x3390 JUMP JUMPDEST SWAP2 POP PUSH2 0x3292 DUP4 PUSH2 0x3390 JUMP JUMPDEST SWAP3 POP DUP2 PUSH32 0xFFFFFFFFFFFFFFFFFFFFFFFFFFFFFFFFFFFFFFFFFFFFFFFFFFFFFFFFFFFFFFFF DIV DUP4 GT DUP3 ISZERO ISZERO AND ISZERO PUSH2 0x32CB JUMPI PUSH2 0x32CA PUSH2 0x3490 JUMP JUMPDEST JUMPDEST DUP3 DUP3 MUL SWAP1 POP SWAP3 SWAP2 POP POP JUMP JUMPDEST PUSH1 0x0 PUSH2 0x32E1 DUP3 PUSH2 0x3390 JUMP JUMPDEST SWAP2 POP PUSH2 0x32EC DUP4 PUSH2 0x3390 JUMP JUMPDEST SWAP3 POP DUP3 DUP3 LT ISZERO PUSH2 0x32FF JUMPI PUSH2 0x32FE PUSH2 0x3490 JUMP JUMPDEST JUMPDEST DUP3 DUP3 SUB SWAP1 POP SWAP3 SWAP2 POP POP JUMP JUMPDEST PUSH1 0x0 PUSH2 0x3315 DUP3 PUSH2 0x3370 JUMP JUMPDEST SWAP1 POP SWAP2 SWAP1 POP JUMP JUMPDEST PUSH1 0x0 PUSH2 0x3327 DUP3 PUSH2 0x3370 JUMP JUMPDEST SWAP1 POP SWAP2 SWAP1 POP JUMP JUMPDEST PUSH1 0x0 DUP2 ISZERO ISZERO SWAP1 POP SWAP2 SWAP1 POP JUMP JUMPDEST PUSH1 0x0 DUP2 SWAP1 POP SWAP2 SWAP1 POP JUMP JUMPDEST PUSH1 0x0 PUSH32 0xFFFFFFFF00000000000000000000000000000000000000000000000000000000 DUP3 AND SWAP1 POP SWAP2 SWAP1 POP JUMP JUMPDEST PUSH1 0x0 PUSH20 0xFFFFFFFFFFFFFFFFFFFFFFFFFFFFFFFFFFFFFFFF DUP3 AND SWAP1 POP SWAP2 SWAP1 POP JUMP JUMPDEST PUSH1 0x0 DUP2 SWAP1 POP SWAP2 SWAP1 POP JUMP JUMPDEST PUSH1 0x0 PUSH1 0xFF DUP3 AND SWAP1 POP SWAP2 SWAP1 POP JUMP JUMPDEST PUSH1 0x0 PUSH2 0x33B2 DUP3 PUSH2 0x339A JUMP JUMPDEST SWAP1 POP SWAP2 SWAP1 POP JUMP JUMPDEST PUSH1 0x0 JUMPDEST DUP4 DUP2 LT ISZERO PUSH2 0x33D7 JUMPI DUP1 DUP3 ADD MLOAD DUP2 DUP5 ADD MSTORE PUSH1 0x20 DUP2 ADD SWAP1 POP PUSH2 0x33BC JUMP JUMPDEST DUP4 DUP2 GT ISZERO PUSH2 0x33E6 JUMPI PUSH1 0x0 DUP5 DUP5 ADD MSTORE JUMPDEST POP POP POP POP JUMP JUMPDEST PUSH1 0x0 PUSH2 0x33F7 DUP3 PUSH2 0x3390 JUMP JUMPDEST SWAP2 POP PUSH1 0x0 DUP3 EQ ISZERO PUSH2 0x340B JUMPI PUSH2 0x340A PUSH2 0x3490 JUMP JUMPDEST JUMPDEST PUSH1 0x1 DUP3 SUB SWAP1 POP SWAP2 SWAP1 POP JUMP JUMPDEST PUSH2 0x341F DUP3 PUSH2 0x351D JUMP JUMPDEST DUP2 ADD DUP2 DUP2 LT PUSH8 0xFFFFFFFFFFFFFFFF DUP3 GT OR ISZERO PUSH2 0x343E JUMPI PUSH2 0x343D PUSH2 0x34EE JUMP JUMPDEST JUMPDEST DUP1 PUSH1 0x40 MSTORE POP POP POP JUMP JUMPDEST PUSH1 0x0 PUSH2 0x3452 DUP3 PUSH2 0x3390 JUMP JUMPDEST SWAP2 POP PUSH32 0xFFFFFFFFFFFFFFFFFFFFFFFFFFFFFFFFFFFFFFFFFFFFFFFFFFFFFFFFFFFFFFFF DUP3 EQ ISZERO PUSH2 0x3485 JUMPI PUSH2 0x3484 PUSH2 0x3490 JUMP JUMPDEST JUMPDEST PUSH1 0x1 DUP3 ADD SWAP1 POP SWAP2 SWAP1 POP JUMP JUMPDEST PUSH32 0x4E487B7100000000000000000000000000000000000000000000000000000000 PUSH1 0x0 MSTORE PUSH1 0x11 PUSH1 0x4 MSTORE PUSH1 0x24 PUSH1 0x0 REVERT JUMPDEST PUSH32 0x4E487B7100000000000000000000000000000000000000000000000000000000 PUSH1 0x0 MSTORE PUSH1 0x12 PUSH1 0x4 MSTORE PUSH1 0x24 PUSH1 0x0 REVERT JUMPDEST PUSH32 0x4E487B7100000000000000000000000000000000000000000000000000000000 PUSH1 0x0 MSTORE PUSH1 0x41 PUSH1 0x4 MSTORE PUSH1 0x24 PUSH1 0x0 REVERT JUMPDEST PUSH1 0x0 PUSH1 0x1F NOT PUSH1 0x1F DUP4 ADD AND SWAP1 POP SWAP2 SWAP1 POP JUMP JUMPDEST PUSH32 0x537472696E67733A20686578206C656E67746820696E73756666696369656E74 PUSH1 0x0 DUP3 ADD MSTORE POP JUMP JUMPDEST PUSH32 0x416464726573733A20756E61626C6520746F2073656E642076616C75652C2072 PUSH1 0x0 DUP3 ADD MSTORE PUSH32 0x6563697069656E74206D61792068617665207265766572746564000000000000 PUSH1 0x20 DUP3 ADD MSTORE POP JUMP JUMPDEST PUSH32 0x416464726573733A20696E73756666696369656E742062616C616E6365000000 PUSH1 0x0 DUP3 ADD MSTORE POP JUMP JUMPDEST PUSH32 0x496E697469616C697A61626C653A20636F6E747261637420697320616C726561 PUSH1 0x0 DUP3 ADD MSTORE PUSH32 0x647920696E697469616C697A6564000000000000000000000000000000000000 PUSH1 0x20 DUP3 ADD MSTORE POP JUMP JUMPDEST POP JUMP JUMPDEST PUSH32 0x416363657373436F6E74726F6C3A206163636F756E7420000000000000000000 PUSH1 0x0 DUP3 ADD MSTORE POP JUMP JUMPDEST PUSH32 0x206973206D697373696E6720726F6C6520000000000000000000000000000000 PUSH1 0x0 DUP3 ADD MSTORE POP JUMP JUMPDEST PUSH32 0x416363657373436F6E74726F6C3A2063616E206F6E6C792072656E6F756E6365 PUSH1 0x0 DUP3 ADD MSTORE PUSH32 0x20726F6C657320666F722073656C660000000000000000000000000000000000 PUSH1 0x20 DUP3 ADD MSTORE POP JUMP JUMPDEST PUSH2 0x36CB DUP2 PUSH2 0x330A JUMP JUMPDEST DUP2 EQ PUSH2 0x36D6 JUMPI PUSH1 0x0 DUP1 REVERT JUMPDEST POP JUMP JUMPDEST PUSH2 0x36E2 DUP2 PUSH2 0x331C JUMP JUMPDEST DUP2 EQ PUSH2 0x36ED JUMPI PUSH1 0x0 DUP1 REVERT JUMPDEST POP JUMP JUMPDEST PUSH2 0x36F9 DUP2 PUSH2 0x333A JUMP JUMPDEST DUP2 EQ PUSH2 0x3704 JUMPI PUSH1 0x0 DUP1 REVERT JUMPDEST POP JUMP JUMPDEST PUSH2 0x3710 DUP2 PUSH2 0x3344 JUMP JUMPDEST DUP2 EQ PUSH2 0x371B JUMPI PUSH1 0x0 DUP1 REVERT JUMPDEST POP JUMP JUMPDEST PUSH2 0x3727 DUP2 PUSH2 0x3390 JUMP JUMPDEST DUP2 EQ PUSH2 0x3732 JUMPI PUSH1 0x0 DUP1 REVERT JUMPDEST POP JUMP INVALID LOG2 PUSH5 0x6970667358 0x22 SLT KECCAK256 0xFC PUSH23 0x8BC28EC7E3A5C35CEBD7FDF8E1F805A3F6CF571F993AB2 0xE2 EXTCODECOPY 0x2E 0xC9 0xCD LOG0 0xE6 PUSH5 0x736F6C6343 STOP ADDMOD MUL STOP CALLER "},"methodIdentifiers":{"DEFAULT_ADMIN_ROLE()":"a217fddf","DISTRIBUTOR_ROLE()":"f0bd87cc","addValidator(address,uint256)":"fc6c1f02","adjustValidatorAddress(uint256,address)":"e9d1ea8a","adjustValidatorShares(address,uint256)":"4b3efd3b","getRoleAdmin(bytes32)":"248a9ca3","grantRole(bytes32,address)":"2f2ff15d","hasRole(bytes32,address)":"91d14854","initialize(address[],uint256[],address,address)":"246723ac","isOriginalAddress(address)":"deea2b9b","releasable(address)":"a3f8eace","release(address)":"19165587","releaseAll()":"5be7fde8","released(address)":"9852595c","renounceRole(bytes32,address)":"36568abe","revokeRole(bytes32,address)":"d547741f","shares(address)":"ce7c2ac2","supportsInterface(bytes4)":"01ffc9a7","totalReleased()":"e33b7de3","totalShares()":"3a98ef39","validators(uint256)":"35aa2e44"}},"storageLayout":{"storage":[{"astId":523,"contract":"contracts/ValidatorRewards.sol:ValidatorRewards","label":"_roles","offset":0,"slot":"0","type":"t_mapping(t_bytes32,t_struct(RoleData)518_storage)"},{"astId":6,"contract":"contracts/ValidatorRewards.sol:ValidatorRewards","label":"_initialized","offset":0,"slot":"1","type":"t_uint8"},{"astId":9,"contract":"contracts/ValidatorRewards.sol:ValidatorRewards","label":"_initializing","offset":1,"slot":"1","type":"t_bool"},{"astId":2781,"contract":"contracts/ValidatorRewards.sol:ValidatorRewards","label":"_totalShares","offset":0,"slot":"2","type":"t_uint256"},{"astId":2783,"contract":"contracts/ValidatorRewards.sol:ValidatorRewards","label":"_totalReleased","offset":0,"slot":"3","type":"t_uint256"},{"astId":2787,"contract":"contracts/ValidatorRewards.sol:ValidatorRewards","label":"_shares","offset":0,"slot":"4","type":"t_mapping(t_address,t_uint256)"},{"astId":2791,"contract":"contracts/ValidatorRewards.sol:ValidatorRewards","label":"_released","offset":0,"slot":"5","type":"t_mapping(t_address,t_uint256)"},{"astId":2794,"contract":"contracts/ValidatorRewards.sol:ValidatorRewards","label":"_validators","offset":0,"slot":"6","type":"t_array(t_address)dyn_storage"}],"types":{"t_address":{"encoding":"inplace","label":"address","numberOfBytes":"20"},"t_array(t_address)dyn_storage":{"base":"t_address","encoding":"dynamic_array","label":"address[]","numberOfBytes":"32"},"t_bool":{"encoding":"inplace","label":"bool","numberOfBytes":"1"},"t_bytes32":{"encoding":"inplace","label":"bytes32","numberOfBytes":"32"},"t_mapping(t_address,t_bool)":{"encoding":"mapping","key":"t_address","label":"mapping(address => bool)","numberOfBytes":"32","value":"t_bool"},"t_mapping(t_address,t_uint256)":{"encoding":"mapping","key":"t_address","label":"mapping(address => uint256)","numberOfBytes":"32","value":"t_uint256"},"t_mapping(t_bytes32,t_struct(RoleData)518_storage)":{"encoding":"mapping","key":"t_bytes32","label":"mapping(bytes32 => struct AccessControl.RoleData)","numberOfBytes":"32","value":"t_struct(RoleData)518_storage"},"t_struct(RoleData)518_storage":{"encoding":"inplace","label":"struct AccessControl.RoleData","members":[{"astId":515,"contract":"contracts/ValidatorRewards.sol:ValidatorRewards","label":"members","offset":0,"slot":"0","type":"t_mapping(t_address,t_bool)"},{"astId":517,"contract":"contracts/ValidatorRewards.sol:ValidatorRewards","label":"adminRole","offset":0,"slot":"1","type":"t_bytes32"}],"numberOfBytes":"64"},"t_uint256":{"encoding":"inplace","label":"uint256","numberOfBytes":"32"},"t_uint8":{"encoding":"inplace","label":"uint8","numberOfBytes":"1"}}}}}}