{"contracts/SimpleStorageWithFee.sol":{"SimpleStorageWithFee":{"abi":[{"inputs":[{"internalType":"address","name":"_feeContract","type":"address"}],"stateMutability":"nonpayable","type":"constructor"},{"inputs":[],"name":"FeeContract","outputs":[{"internalType":"address","name":"","type":"address"}],"stateMutability":"view","type":"function"},{"inputs":[],"name":"FeeQueryNative","outputs":[{"internalType":"contract FeeQuery","name":"","type":"address"}],"stateMutability":"view","type":"function"},{"inputs":[],"name":"callFee","outputs":[{"internalType":"uint256","name":"","type":"uint256"}],"stateMutability":"view","type":"function"},{"inputs":[],"name":"epochLength","outputs":[{"internalType":"uint256","name":"","type":"uint256"}],"stateMutability":"view","type":"function"},{"inputs":[],"name":"fee","outputs":[{"internalType":"uint256","name":"","type":"uint256"}],"stateMutability":"view","type":"function"},{"inputs":[],"name":"get","outputs":[{"internalType":"uint256","name":"retVal","type":"uint256"}],"stateMutability":"view","type":"function"},{"inputs":[],"name":"getFee","outputs":[{"internalType":"uint256","name":"","type":"uint256"}],"stateMutability":"view","type":"function"},{"inputs":[],"name":"h1Stored","outputs":[{"internalType":"uint256","name":"","type":"uint256"}],"stateMutability":"view","type":"function"},{"inputs":[],"name":"requiredReset","outputs":[{"internalType":"uint256","name":"","type":"uint256"}],"stateMutability":"view","type":"function"},{"inputs":[{"internalType":"uint256","name":"x","type":"uint256"}],"name":"set","outputs":[],"stateMutability":"payable","type":"function"},{"inputs":[],"name":"storedData","outputs":[{"internalType":"uint256","name":"","type":"uint256"}],"stateMutability":"view","type":"function"}],"evm":{"bytecode":{"linkReferences":{},"object":"60806040523480156200001157600080fd5b5060405162000f4838038062000f488339818101604052810190620000379190620002c7565b8062000054677e2eeec893e065c260c01b620002aa60201b60201c565b620000706776ccba1177afc08760c01b620002aa60201b60201c565b6200008c6783a180d24a206f1a60c01b620002aa60201b60201c565b600073ffffffffffffffffffffffffffffffffffffffff168173ffffffffffffffffffffffffffffffffffffffff1614156200018a57620000de674721ffdb6942706460c01b620002aa60201b60201c565b620000fa675f657bd19e48d0eb60c01b620002aa60201b60201c565b6200011667e84559ea25e318ee60c01b620002aa60201b60201c565b6040518060400160405280600381526020017f31323300000000000000000000000000000000000000000000000000000000008152506040517f08c379a000000000000000000000000000000000000000000000000000000000815260040162000181919062000334565b60405180910390fd5b620001a667ce0e9487806c2a8760c01b620002aa60201b60201c565b620001c2675f33f19d9bd6e76460c01b620002aa60201b60201c565b80600360006101000a81548173ffffffffffffffffffffffffffffffffffffffff021916908373ffffffffffffffffffffffffffffffffffffffff1602179055506200021f67f69d5bf1e59f78b360c01b620002aa60201b60201c565b80600460006101000a81548173ffffffffffffffffffffffffffffffffffffffff021916908373ffffffffffffffffffffffffffffffffffffffff1602179055506200027c67f593b98ad4a8d6ae60c01b620002aa60201b60201c565b6201518060008190555050620002a36720e5633ad41d0a0460c01b620002ad60201b60201c565b5062000409565b50565b50565b600081519050620002c181620003ef565b92915050565b600060208284031215620002da57600080fd5b6000620002ea84828501620002b0565b91505092915050565b6000620003008262000358565b6200030c818562000363565b93506200031e818560208601620003a8565b6200032981620003de565b840191505092915050565b60006020820190508181036000830152620003508184620002f3565b905092915050565b600081519050919050565b600082825260208201905092915050565b6000620003818262000388565b9050919050565b600073ffffffffffffffffffffffffffffffffffffffff82169050919050565b60005b83811015620003c8578082015181840152602081019050620003ab565b83811115620003d8576000848401525b50505050565b6000601f19601f8301169050919050565b620003fa8162000374565b81146200040657600080fd5b50565b610b2f80620004196000396000f3fe60806040526004361061009c5760003560e01c80636d4ce63c116100645780636d4ce63c1461016957806390321e1a14610194578063ab407bb6146101bf578063ced72f87146101ea578063ddca3f4314610215578063f5fa96e5146102405761009c565b8063207ccfea146100a15780632a1afcd9146100cc5780632dcbf1c0146100f757806357d775f81461012257806360fe47b11461014d575b600080fd5b3480156100ad57600080fd5b506100b661026b565b6040516100c39190610950565b60405180910390f35b3480156100d857600080fd5b506100e1610291565b6040516100ee91906109c8565b60405180910390f35b34801561010357600080fd5b5061010c610297565b60405161011991906109c8565b60405180910390f35b34801561012e57600080fd5b5061013761029d565b60405161014491906109c8565b60405180910390f35b6101676004803603810190610162919061082d565b6102a3565b005b34801561017557600080fd5b5061017e61056e565b60405161018b91906109c8565b60405180910390f35b3480156101a057600080fd5b506101a96105b4565b6040516101b691906109c8565b60405180910390f35b3480156101cb57600080fd5b506101d46106c5565b6040516101e1919061096b565b60405180910390f35b3480156101f657600080fd5b506101ff6106eb565b60405161020c91906109c8565b60405180910390f35b34801561022157600080fd5b5061022a6107ee565b60405161023791906109c8565b60405180910390f35b34801561024c57600080fd5b506102556107f4565b60405161026291906109c8565b60405180910390f35b600360009054906101000a900473ffffffffffffffffffffffffffffffffffffffff1681565b60055481565b60065481565b60005481565b6102b7676fce2d743a2255f360c01b6107fa565b6102cb675145efe0440d3aad60c01b6107fd565b6102df67b3cd9f862bb88dad60c01b6107fd565b6102f36754655562f71090d760c01b6107fd565b6102fb6105b4565b341080156103105750600061030e6105b4565b115b156103c357610329678812a8178885858360c01b6107fd565b61033d67acf9fafeeb33524360c01b6107fd565b6103516754583beea3a85a4260c01b6107fd565b6040518060400160405280600381526020017f31323500000000000000000000000000000000000000000000000000000000008152506040517f08c379a00000000000000000000000000000000000000000000000000000000081526004016103ba9190610986565b60405180910390fd5b6103d767cba502510c62ac7160c01b6107fd565b6103eb6730e4ca33c09fa63260c01b6107fd565b6103ff678655ed6366b7eeee60c01b6107fd565b6000600360009054906101000a900473ffffffffffffffffffffffffffffffffffffffff1673ffffffffffffffffffffffffffffffffffffffff166002546040516024016040516020818303038152906040527fa3e76c0f000000000000000000000000000000000000000000000000000000007bffffffffffffffffffffffffffffffffffffffffffffffffffffffff19166020820180517bffffffffffffffffffffffffffffffffffffffffffffffffffffffff83818316178352505050506040516104cd9190610939565b60006040518083038185875af1925050503d806000811461050a576040519150601f19603f3d011682016040523d82523d6000602084013e61050f565b606091505b5050905061052767b1eaf8e13f3b39b760c01b6107fd565b61053b67eec3dc914ff3f9a660c01b6107fa565b61054f6721d12f4f272868e260c01b6107fa565b61056367a71f379754d11d2b60c01b6107fa565b816005819055505050565b600061058467082032bd95e42e1b60c01b6107fa565b61059867f080c6eca20d4cd560c01b6107fa565b6105ac67f05964ee262cd36e60c01b6107fa565b600554905090565b60006105ca67924dcbdeb069767460c01b6107fd565b6105de67111a410acca6edcf60c01b6107fd565b6105f26734a3a8c7780e275e60c01b6107fd565b6000600360009054906101000a900473ffffffffffffffffffffffffffffffffffffffff1673ffffffffffffffffffffffffffffffffffffffff1663ced72f876040518163ffffffff1660e01b815260040160206040518083038186803b15801561065c57600080fd5b505afa158015610670573d6000803e3d6000fd5b505050506040513d601f19601f820116820180604052508101906106949190610856565b90506106aa6795449ce6ec5e069a60c01b6107fd565b6106be67ec719e5f166cee7060c01b6107fd565b8091505090565b600460009054906101000a900473ffffffffffffffffffffffffffffffffffffffff1681565b600061070167341a09d70c91193860c01b610800565b61071567fd13858d30b4e0f360c01b610800565b610729679b977cd0c0a3bf3a60c01b610800565b4260015410156107aa576107476727e4d34d0d1ff58b60c01b610800565b61075b6779a9c7a6ba68d5cb60c01b610800565b61076f67eb1b54e909ec2d3560c01b610800565b6040517f08c379a00000000000000000000000000000000000000000000000000000000081526004016107a1906109a8565b60405180910390fd5b6107be67ee820581ba1ab36760c01b610800565b6107d2672a1ce9267ec3da9c60c01b610800565b6107e667c59878417f2a2a4260c01b610800565b600254905090565b60025481565b60015481565b50565b50565b50565b60008135905061081281610ae2565b92915050565b60008151905061082781610ae2565b92915050565b60006020828403121561083f57600080fd5b600061084d84828501610803565b91505092915050565b60006020828403121561086857600080fd5b600061087684828501610818565b91505092915050565b61088881610a15565b82525050565b6000610899826109e3565b6108a381856109f9565b93506108b3818560208601610a75565b80840191505092915050565b6108c881610a51565b82525050565b60006108d9826109ee565b6108e38185610a04565b93506108f3818560208601610a75565b6108fc81610aa8565b840191505092915050565b6000610914600a83610a04565b915061091f82610ab9565b602082019050919050565b61093381610a47565b82525050565b6000610945828461088e565b915081905092915050565b6000602082019050610965600083018461087f565b92915050565b600060208201905061098060008301846108bf565b92915050565b600060208201905081810360008301526109a081846108ce565b905092915050565b600060208201905081810360008301526109c181610907565b9050919050565b60006020820190506109dd600083018461092a565b92915050565b600081519050919050565b600081519050919050565b600081905092915050565b600082825260208201905092915050565b6000610a2082610a27565b9050919050565b600073ffffffffffffffffffffffffffffffffffffffff82169050919050565b6000819050919050565b6000610a5c82610a63565b9050919050565b6000610a6e82610a27565b9050919050565b60005b83811015610a93578082015181840152602081019050610a78565b83811115610aa2576000848401525b50505050565b6000601f19601f8301169050919050565b7f7265736574466565282900000000000000000000000000000000000000000000600082015250565b610aeb81610a47565b8114610af657600080fd5b5056fea2646970667358221220280e2dfefa396614ecae511b9c8da3fcf8d9c5bcbf12dfe2c53fa573b528dad364736f6c63430008020033","opcodes":"PUSH1 0x80 PUSH1 0x40 MSTORE CALLVALUE DUP1 ISZERO PUSH3 0x11 JUMPI PUSH1 0x0 DUP1 REVERT JUMPDEST POP PUSH1 0x40 MLOAD PUSH3 0xF48 CODESIZE SUB DUP1 PUSH3 0xF48 DUP4 CODECOPY DUP2 DUP2 ADD PUSH1 0x40 MSTORE DUP2 ADD SWAP1 PUSH3 0x37 SWAP2 SWAP1 PUSH3 0x2C7 JUMP JUMPDEST DUP1 PUSH3 0x54 PUSH8 0x7E2EEEC893E065C2 PUSH1 0xC0 SHL PUSH3 0x2AA PUSH1 0x20 SHL PUSH1 0x20 SHR JUMP JUMPDEST PUSH3 0x70 PUSH8 0x76CCBA1177AFC087 PUSH1 0xC0 SHL PUSH3 0x2AA PUSH1 0x20 SHL PUSH1 0x20 SHR JUMP JUMPDEST PUSH3 0x8C PUSH8 0x83A180D24A206F1A PUSH1 0xC0 SHL PUSH3 0x2AA PUSH1 0x20 SHL PUSH1 0x20 SHR JUMP JUMPDEST PUSH1 0x0 PUSH20 0xFFFFFFFFFFFFFFFFFFFFFFFFFFFFFFFFFFFFFFFF AND DUP2 PUSH20 0xFFFFFFFFFFFFFFFFFFFFFFFFFFFFFFFFFFFFFFFF AND EQ ISZERO PUSH3 0x18A JUMPI PUSH3 0xDE PUSH8 0x4721FFDB69427064 PUSH1 0xC0 SHL PUSH3 0x2AA PUSH1 0x20 SHL PUSH1 0x20 SHR JUMP JUMPDEST PUSH3 0xFA PUSH8 0x5F657BD19E48D0EB PUSH1 0xC0 SHL PUSH3 0x2AA PUSH1 0x20 SHL PUSH1 0x20 SHR JUMP JUMPDEST PUSH3 0x116 PUSH8 0xE84559EA25E318EE PUSH1 0xC0 SHL PUSH3 0x2AA PUSH1 0x20 SHL PUSH1 0x20 SHR JUMP JUMPDEST PUSH1 0x40 MLOAD DUP1 PUSH1 0x40 ADD PUSH1 0x40 MSTORE DUP1 PUSH1 0x3 DUP2 MSTORE PUSH1 0x20 ADD PUSH32 0x3132330000000000000000000000000000000000000000000000000000000000 DUP2 MSTORE POP PUSH1 0x40 MLOAD PUSH32 0x8C379A000000000000000000000000000000000000000000000000000000000 DUP2 MSTORE PUSH1 0x4 ADD PUSH3 0x181 SWAP2 SWAP1 PUSH3 0x334 JUMP JUMPDEST PUSH1 0x40 MLOAD DUP1 SWAP2 SUB SWAP1 REVERT JUMPDEST PUSH3 0x1A6 PUSH8 0xCE0E9487806C2A87 PUSH1 0xC0 SHL PUSH3 0x2AA PUSH1 0x20 SHL PUSH1 0x20 SHR JUMP JUMPDEST PUSH3 0x1C2 PUSH8 0x5F33F19D9BD6E764 PUSH1 0xC0 SHL PUSH3 0x2AA PUSH1 0x20 SHL PUSH1 0x20 SHR JUMP JUMPDEST DUP1 PUSH1 0x3 PUSH1 0x0 PUSH2 0x100 EXP DUP2 SLOAD DUP2 PUSH20 0xFFFFFFFFFFFFFFFFFFFFFFFFFFFFFFFFFFFFFFFF MUL NOT AND SWAP1 DUP4 PUSH20 0xFFFFFFFFFFFFFFFFFFFFFFFFFFFFFFFFFFFFFFFF AND MUL OR SWAP1 SSTORE POP PUSH3 0x21F PUSH8 0xF69D5BF1E59F78B3 PUSH1 0xC0 SHL PUSH3 0x2AA PUSH1 0x20 SHL PUSH1 0x20 SHR JUMP JUMPDEST DUP1 PUSH1 0x4 PUSH1 0x0 PUSH2 0x100 EXP DUP2 SLOAD DUP2 PUSH20 0xFFFFFFFFFFFFFFFFFFFFFFFFFFFFFFFFFFFFFFFF MUL NOT AND SWAP1 DUP4 PUSH20 0xFFFFFFFFFFFFFFFFFFFFFFFFFFFFFFFFFFFFFFFF AND MUL OR SWAP1 SSTORE POP PUSH3 0x27C PUSH8 0xF593B98AD4A8D6AE PUSH1 0xC0 SHL PUSH3 0x2AA PUSH1 0x20 SHL PUSH1 0x20 SHR JUMP JUMPDEST PUSH3 0x15180 PUSH1 0x0 DUP2 SWAP1 SSTORE POP POP PUSH3 0x2A3 PUSH8 0x20E5633AD41D0A04 PUSH1 0xC0 SHL PUSH3 0x2AD PUSH1 0x20 SHL PUSH1 0x20 SHR JUMP JUMPDEST POP PUSH3 0x409 JUMP JUMPDEST POP JUMP JUMPDEST POP JUMP JUMPDEST PUSH1 0x0 DUP2 MLOAD SWAP1 POP PUSH3 0x2C1 DUP2 PUSH3 0x3EF JUMP JUMPDEST SWAP3 SWAP2 POP POP JUMP JUMPDEST PUSH1 0x0 PUSH1 0x20 DUP3 DUP5 SUB SLT ISZERO PUSH3 0x2DA JUMPI PUSH1 0x0 DUP1 REVERT JUMPDEST PUSH1 0x0 PUSH3 0x2EA DUP5 DUP3 DUP6 ADD PUSH3 0x2B0 JUMP JUMPDEST SWAP2 POP POP SWAP3 SWAP2 POP POP JUMP JUMPDEST PUSH1 0x0 PUSH3 0x300 DUP3 PUSH3 0x358 JUMP JUMPDEST PUSH3 0x30C DUP2 DUP6 PUSH3 0x363 JUMP JUMPDEST SWAP4 POP PUSH3 0x31E DUP2 DUP6 PUSH1 0x20 DUP7 ADD PUSH3 0x3A8 JUMP JUMPDEST PUSH3 0x329 DUP2 PUSH3 0x3DE JUMP JUMPDEST DUP5 ADD SWAP2 POP POP SWAP3 SWAP2 POP POP JUMP JUMPDEST PUSH1 0x0 PUSH1 0x20 DUP3 ADD SWAP1 POP DUP2 DUP2 SUB PUSH1 0x0 DUP4 ADD MSTORE PUSH3 0x350 DUP2 DUP5 PUSH3 0x2F3 JUMP JUMPDEST SWAP1 POP SWAP3 SWAP2 POP POP JUMP JUMPDEST PUSH1 0x0 DUP2 MLOAD SWAP1 POP SWAP2 SWAP1 POP JUMP JUMPDEST PUSH1 0x0 DUP3 DUP3 MSTORE PUSH1 0x20 DUP3 ADD SWAP1 POP SWAP3 SWAP2 POP POP JUMP JUMPDEST PUSH1 0x0 PUSH3 0x381 DUP3 PUSH3 0x388 JUMP JUMPDEST SWAP1 POP SWAP2 SWAP1 POP JUMP JUMPDEST PUSH1 0x0 PUSH20 0xFFFFFFFFFFFFFFFFFFFFFFFFFFFFFFFFFFFFFFFF DUP3 AND SWAP1 POP SWAP2 SWAP1 POP JUMP JUMPDEST PUSH1 0x0 JUMPDEST DUP4 DUP2 LT ISZERO PUSH3 0x3C8 JUMPI DUP1 DUP3 ADD MLOAD DUP2 DUP5 ADD MSTORE PUSH1 0x20 DUP2 ADD SWAP1 POP PUSH3 0x3AB JUMP JUMPDEST DUP4 DUP2 GT ISZERO PUSH3 0x3D8 JUMPI PUSH1 0x0 DUP5 DUP5 ADD MSTORE JUMPDEST POP POP POP POP JUMP JUMPDEST PUSH1 0x0 PUSH1 0x1F NOT PUSH1 0x1F DUP4 ADD AND SWAP1 POP SWAP2 SWAP1 POP JUMP JUMPDEST PUSH3 0x3FA DUP2 PUSH3 0x374 JUMP JUMPDEST DUP2 EQ PUSH3 0x406 JUMPI PUSH1 0x0 DUP1 REVERT JUMPDEST POP JUMP JUMPDEST PUSH2 0xB2F DUP1 PUSH3 0x419 PUSH1 0x0 CODECOPY PUSH1 0x0 RETURN INVALID PUSH1 0x80 PUSH1 0x40 MSTORE PUSH1 0x4 CALLDATASIZE LT PUSH2 0x9C JUMPI PUSH1 0x0 CALLDATALOAD PUSH1 0xE0 SHR DUP1 PUSH4 0x6D4CE63C GT PUSH2 0x64 JUMPI DUP1 PUSH4 0x6D4CE63C EQ PUSH2 0x169 JUMPI DUP1 PUSH4 0x90321E1A EQ PUSH2 0x194 JUMPI DUP1 PUSH4 0xAB407BB6 EQ PUSH2 0x1BF JUMPI DUP1 PUSH4 0xCED72F87 EQ PUSH2 0x1EA JUMPI DUP1 PUSH4 0xDDCA3F43 EQ PUSH2 0x215 JUMPI DUP1 PUSH4 0xF5FA96E5 EQ PUSH2 0x240 JUMPI PUSH2 0x9C JUMP JUMPDEST DUP1 PUSH4 0x207CCFEA EQ PUSH2 0xA1 JUMPI DUP1 PUSH4 0x2A1AFCD9 EQ PUSH2 0xCC JUMPI DUP1 PUSH4 0x2DCBF1C0 EQ PUSH2 0xF7 JUMPI DUP1 PUSH4 0x57D775F8 EQ PUSH2 0x122 JUMPI DUP1 PUSH4 0x60FE47B1 EQ PUSH2 0x14D JUMPI JUMPDEST PUSH1 0x0 DUP1 REVERT JUMPDEST CALLVALUE DUP1 ISZERO PUSH2 0xAD JUMPI PUSH1 0x0 DUP1 REVERT JUMPDEST POP PUSH2 0xB6 PUSH2 0x26B JUMP JUMPDEST PUSH1 0x40 MLOAD PUSH2 0xC3 SWAP2 SWAP1 PUSH2 0x950 JUMP JUMPDEST PUSH1 0x40 MLOAD DUP1 SWAP2 SUB SWAP1 RETURN JUMPDEST CALLVALUE DUP1 ISZERO PUSH2 0xD8 JUMPI PUSH1 0x0 DUP1 REVERT JUMPDEST POP PUSH2 0xE1 PUSH2 0x291 JUMP JUMPDEST PUSH1 0x40 MLOAD PUSH2 0xEE SWAP2 SWAP1 PUSH2 0x9C8 JUMP JUMPDEST PUSH1 0x40 MLOAD DUP1 SWAP2 SUB SWAP1 RETURN JUMPDEST CALLVALUE DUP1 ISZERO PUSH2 0x103 JUMPI PUSH1 0x0 DUP1 REVERT JUMPDEST POP PUSH2 0x10C PUSH2 0x297 JUMP JUMPDEST PUSH1 0x40 MLOAD PUSH2 0x119 SWAP2 SWAP1 PUSH2 0x9C8 JUMP JUMPDEST PUSH1 0x40 MLOAD DUP1 SWAP2 SUB SWAP1 RETURN JUMPDEST CALLVALUE DUP1 ISZERO PUSH2 0x12E JUMPI PUSH1 0x0 DUP1 REVERT JUMPDEST POP PUSH2 0x137 PUSH2 0x29D JUMP JUMPDEST PUSH1 0x40 MLOAD PUSH2 0x144 SWAP2 SWAP1 PUSH2 0x9C8 JUMP JUMPDEST PUSH1 0x40 MLOAD DUP1 SWAP2 SUB SWAP1 RETURN JUMPDEST PUSH2 0x167 PUSH1 0x4 DUP1 CALLDATASIZE SUB DUP2 ADD SWAP1 PUSH2 0x162 SWAP2 SWAP1 PUSH2 0x82D JUMP JUMPDEST PUSH2 0x2A3 JUMP JUMPDEST STOP JUMPDEST CALLVALUE DUP1 ISZERO PUSH2 0x175 JUMPI PUSH1 0x0 DUP1 REVERT JUMPDEST POP PUSH2 0x17E PUSH2 0x56E JUMP JUMPDEST PUSH1 0x40 MLOAD PUSH2 0x18B SWAP2 SWAP1 PUSH2 0x9C8 JUMP JUMPDEST PUSH1 0x40 MLOAD DUP1 SWAP2 SUB SWAP1 RETURN JUMPDEST CALLVALUE DUP1 ISZERO PUSH2 0x1A0 JUMPI PUSH1 0x0 DUP1 REVERT JUMPDEST POP PUSH2 0x1A9 PUSH2 0x5B4 JUMP JUMPDEST PUSH1 0x40 MLOAD PUSH2 0x1B6 SWAP2 SWAP1 PUSH2 0x9C8 JUMP JUMPDEST PUSH1 0x40 MLOAD DUP1 SWAP2 SUB SWAP1 RETURN JUMPDEST CALLVALUE DUP1 ISZERO PUSH2 0x1CB JUMPI PUSH1 0x0 DUP1 REVERT JUMPDEST POP PUSH2 0x1D4 PUSH2 0x6C5 JUMP JUMPDEST PUSH1 0x40 MLOAD PUSH2 0x1E1 SWAP2 SWAP1 PUSH2 0x96B JUMP JUMPDEST PUSH1 0x40 MLOAD DUP1 SWAP2 SUB SWAP1 RETURN JUMPDEST CALLVALUE DUP1 ISZERO PUSH2 0x1F6 JUMPI PUSH1 0x0 DUP1 REVERT JUMPDEST POP PUSH2 0x1FF PUSH2 0x6EB JUMP JUMPDEST PUSH1 0x40 MLOAD PUSH2 0x20C SWAP2 SWAP1 PUSH2 0x9C8 JUMP JUMPDEST PUSH1 0x40 MLOAD DUP1 SWAP2 SUB SWAP1 RETURN JUMPDEST CALLVALUE DUP1 ISZERO PUSH2 0x221 JUMPI PUSH1 0x0 DUP1 REVERT JUMPDEST POP PUSH2 0x22A PUSH2 0x7EE JUMP JUMPDEST PUSH1 0x40 MLOAD PUSH2 0x237 SWAP2 SWAP1 PUSH2 0x9C8 JUMP JUMPDEST PUSH1 0x40 MLOAD DUP1 SWAP2 SUB SWAP1 RETURN JUMPDEST CALLVALUE DUP1 ISZERO PUSH2 0x24C JUMPI PUSH1 0x0 DUP1 REVERT JUMPDEST POP PUSH2 0x255 PUSH2 0x7F4 JUMP JUMPDEST PUSH1 0x40 MLOAD PUSH2 0x262 SWAP2 SWAP1 PUSH2 0x9C8 JUMP JUMPDEST PUSH1 0x40 MLOAD DUP1 SWAP2 SUB SWAP1 RETURN JUMPDEST PUSH1 0x3 PUSH1 0x0 SWAP1 SLOAD SWAP1 PUSH2 0x100 EXP SWAP1 DIV PUSH20 0xFFFFFFFFFFFFFFFFFFFFFFFFFFFFFFFFFFFFFFFF AND DUP2 JUMP JUMPDEST PUSH1 0x5 SLOAD DUP2 JUMP JUMPDEST PUSH1 0x6 SLOAD DUP2 JUMP JUMPDEST PUSH1 0x0 SLOAD DUP2 JUMP JUMPDEST PUSH2 0x2B7 PUSH8 0x6FCE2D743A2255F3 PUSH1 0xC0 SHL PUSH2 0x7FA JUMP JUMPDEST PUSH2 0x2CB PUSH8 0x5145EFE0440D3AAD PUSH1 0xC0 SHL PUSH2 0x7FD JUMP JUMPDEST PUSH2 0x2DF PUSH8 0xB3CD9F862BB88DAD PUSH1 0xC0 SHL PUSH2 0x7FD JUMP JUMPDEST PUSH2 0x2F3 PUSH8 0x54655562F71090D7 PUSH1 0xC0 SHL PUSH2 0x7FD JUMP JUMPDEST PUSH2 0x2FB PUSH2 0x5B4 JUMP JUMPDEST CALLVALUE LT DUP1 ISZERO PUSH2 0x310 JUMPI POP PUSH1 0x0 PUSH2 0x30E PUSH2 0x5B4 JUMP JUMPDEST GT JUMPDEST ISZERO PUSH2 0x3C3 JUMPI PUSH2 0x329 PUSH8 0x8812A81788858583 PUSH1 0xC0 SHL PUSH2 0x7FD JUMP JUMPDEST PUSH2 0x33D PUSH8 0xACF9FAFEEB335243 PUSH1 0xC0 SHL PUSH2 0x7FD JUMP JUMPDEST PUSH2 0x351 PUSH8 0x54583BEEA3A85A42 PUSH1 0xC0 SHL PUSH2 0x7FD JUMP JUMPDEST PUSH1 0x40 MLOAD DUP1 PUSH1 0x40 ADD PUSH1 0x40 MSTORE DUP1 PUSH1 0x3 DUP2 MSTORE PUSH1 0x20 ADD PUSH32 0x3132350000000000000000000000000000000000000000000000000000000000 DUP2 MSTORE POP PUSH1 0x40 MLOAD PUSH32 0x8C379A000000000000000000000000000000000000000000000000000000000 DUP2 MSTORE PUSH1 0x4 ADD PUSH2 0x3BA SWAP2 SWAP1 PUSH2 0x986 JUMP JUMPDEST PUSH1 0x40 MLOAD DUP1 SWAP2 SUB SWAP1 REVERT JUMPDEST PUSH2 0x3D7 PUSH8 0xCBA502510C62AC71 PUSH1 0xC0 SHL PUSH2 0x7FD JUMP JUMPDEST PUSH2 0x3EB PUSH8 0x30E4CA33C09FA632 PUSH1 0xC0 SHL PUSH2 0x7FD JUMP JUMPDEST PUSH2 0x3FF PUSH8 0x8655ED6366B7EEEE PUSH1 0xC0 SHL PUSH2 0x7FD JUMP JUMPDEST PUSH1 0x0 PUSH1 0x3 PUSH1 0x0 SWAP1 SLOAD SWAP1 PUSH2 0x100 EXP SWAP1 DIV PUSH20 0xFFFFFFFFFFFFFFFFFFFFFFFFFFFFFFFFFFFFFFFF AND PUSH20 0xFFFFFFFFFFFFFFFFFFFFFFFFFFFFFFFFFFFFFFFF AND PUSH1 0x2 SLOAD PUSH1 0x40 MLOAD PUSH1 0x24 ADD PUSH1 0x40 MLOAD PUSH1 0x20 DUP2 DUP4 SUB SUB DUP2 MSTORE SWAP1 PUSH1 0x40 MSTORE PUSH32 0xA3E76C0F00000000000000000000000000000000000000000000000000000000 PUSH28 0xFFFFFFFFFFFFFFFFFFFFFFFFFFFFFFFFFFFFFFFFFFFFFFFFFFFFFFFF NOT AND PUSH1 0x20 DUP3 ADD DUP1 MLOAD PUSH28 0xFFFFFFFFFFFFFFFFFFFFFFFFFFFFFFFFFFFFFFFFFFFFFFFFFFFFFFFF DUP4 DUP2 DUP4 AND OR DUP4 MSTORE POP POP POP POP PUSH1 0x40 MLOAD PUSH2 0x4CD SWAP2 SWAP1 PUSH2 0x939 JUMP JUMPDEST PUSH1 0x0 PUSH1 0x40 MLOAD DUP1 DUP4 SUB DUP2 DUP6 DUP8 GAS CALL SWAP3 POP POP POP RETURNDATASIZE DUP1 PUSH1 0x0 DUP2 EQ PUSH2 0x50A JUMPI PUSH1 0x40 MLOAD SWAP2 POP PUSH1 0x1F NOT PUSH1 0x3F RETURNDATASIZE ADD AND DUP3 ADD PUSH1 0x40 MSTORE RETURNDATASIZE DUP3 MSTORE RETURNDATASIZE PUSH1 0x0 PUSH1 0x20 DUP5 ADD RETURNDATACOPY PUSH2 0x50F JUMP JUMPDEST PUSH1 0x60 SWAP2 POP JUMPDEST POP POP SWAP1 POP PUSH2 0x527 PUSH8 0xB1EAF8E13F3B39B7 PUSH1 0xC0 SHL PUSH2 0x7FD JUMP JUMPDEST PUSH2 0x53B PUSH8 0xEEC3DC914FF3F9A6 PUSH1 0xC0 SHL PUSH2 0x7FA JUMP JUMPDEST PUSH2 0x54F PUSH8 0x21D12F4F272868E2 PUSH1 0xC0 SHL PUSH2 0x7FA JUMP JUMPDEST PUSH2 0x563 PUSH8 0xA71F379754D11D2B PUSH1 0xC0 SHL PUSH2 0x7FA JUMP JUMPDEST DUP2 PUSH1 0x5 DUP2 SWAP1 SSTORE POP POP POP JUMP JUMPDEST PUSH1 0x0 PUSH2 0x584 PUSH8 0x82032BD95E42E1B PUSH1 0xC0 SHL PUSH2 0x7FA JUMP JUMPDEST PUSH2 0x598 PUSH8 0xF080C6ECA20D4CD5 PUSH1 0xC0 SHL PUSH2 0x7FA JUMP JUMPDEST PUSH2 0x5AC PUSH8 0xF05964EE262CD36E PUSH1 0xC0 SHL PUSH2 0x7FA JUMP JUMPDEST PUSH1 0x5 SLOAD SWAP1 POP SWAP1 JUMP JUMPDEST PUSH1 0x0 PUSH2 0x5CA PUSH8 0x924DCBDEB0697674 PUSH1 0xC0 SHL PUSH2 0x7FD JUMP JUMPDEST PUSH2 0x5DE PUSH8 0x111A410ACCA6EDCF PUSH1 0xC0 SHL PUSH2 0x7FD JUMP JUMPDEST PUSH2 0x5F2 PUSH8 0x34A3A8C7780E275E PUSH1 0xC0 SHL PUSH2 0x7FD JUMP JUMPDEST PUSH1 0x0 PUSH1 0x3 PUSH1 0x0 SWAP1 SLOAD SWAP1 PUSH2 0x100 EXP SWAP1 DIV PUSH20 0xFFFFFFFFFFFFFFFFFFFFFFFFFFFFFFFFFFFFFFFF AND PUSH20 0xFFFFFFFFFFFFFFFFFFFFFFFFFFFFFFFFFFFFFFFF AND PUSH4 0xCED72F87 PUSH1 0x40 MLOAD DUP2 PUSH4 0xFFFFFFFF AND PUSH1 0xE0 SHL DUP2 MSTORE PUSH1 0x4 ADD PUSH1 0x20 PUSH1 0x40 MLOAD DUP1 DUP4 SUB DUP2 DUP7 DUP1 EXTCODESIZE ISZERO DUP1 ISZERO PUSH2 0x65C JUMPI PUSH1 0x0 DUP1 REVERT JUMPDEST POP GAS STATICCALL ISZERO DUP1 ISZERO PUSH2 0x670 JUMPI RETURNDATASIZE PUSH1 0x0 DUP1 RETURNDATACOPY RETURNDATASIZE PUSH1 0x0 REVERT JUMPDEST POP POP POP POP PUSH1 0x40 MLOAD RETURNDATASIZE PUSH1 0x1F NOT PUSH1 0x1F DUP3 ADD AND DUP3 ADD DUP1 PUSH1 0x40 MSTORE POP DUP2 ADD SWAP1 PUSH2 0x694 SWAP2 SWAP1 PUSH2 0x856 JUMP JUMPDEST SWAP1 POP PUSH2 0x6AA PUSH8 0x95449CE6EC5E069A PUSH1 0xC0 SHL PUSH2 0x7FD JUMP JUMPDEST PUSH2 0x6BE PUSH8 0xEC719E5F166CEE70 PUSH1 0xC0 SHL PUSH2 0x7FD JUMP JUMPDEST DUP1 SWAP2 POP POP SWAP1 JUMP JUMPDEST PUSH1 0x4 PUSH1 0x0 SWAP1 SLOAD SWAP1 PUSH2 0x100 EXP SWAP1 DIV PUSH20 0xFFFFFFFFFFFFFFFFFFFFFFFFFFFFFFFFFFFFFFFF AND DUP2 JUMP JUMPDEST PUSH1 0x0 PUSH2 0x701 PUSH8 0x341A09D70C911938 PUSH1 0xC0 SHL PUSH2 0x800 JUMP JUMPDEST PUSH2 0x715 PUSH8 0xFD13858D30B4E0F3 PUSH1 0xC0 SHL PUSH2 0x800 JUMP JUMPDEST PUSH2 0x729 PUSH8 0x9B977CD0C0A3BF3A PUSH1 0xC0 SHL PUSH2 0x800 JUMP JUMPDEST TIMESTAMP PUSH1 0x1 SLOAD LT ISZERO PUSH2 0x7AA JUMPI PUSH2 0x747 PUSH8 0x27E4D34D0D1FF58B PUSH1 0xC0 SHL PUSH2 0x800 JUMP JUMPDEST PUSH2 0x75B PUSH8 0x79A9C7A6BA68D5CB PUSH1 0xC0 SHL PUSH2 0x800 JUMP JUMPDEST PUSH2 0x76F PUSH8 0xEB1B54E909EC2D35 PUSH1 0xC0 SHL PUSH2 0x800 JUMP JUMPDEST PUSH1 0x40 MLOAD PUSH32 0x8C379A000000000000000000000000000000000000000000000000000000000 DUP2 MSTORE PUSH1 0x4 ADD PUSH2 0x7A1 SWAP1 PUSH2 0x9A8 JUMP JUMPDEST PUSH1 0x40 MLOAD DUP1 SWAP2 SUB SWAP1 REVERT JUMPDEST PUSH2 0x7BE PUSH8 0xEE820581BA1AB367 PUSH1 0xC0 SHL PUSH2 0x800 JUMP JUMPDEST PUSH2 0x7D2 PUSH8 0x2A1CE9267EC3DA9C PUSH1 0xC0 SHL PUSH2 0x800 JUMP JUMPDEST PUSH2 0x7E6 PUSH8 0xC59878417F2A2A42 PUSH1 0xC0 SHL PUSH2 0x800 JUMP JUMPDEST PUSH1 0x2 SLOAD SWAP1 POP SWAP1 JUMP JUMPDEST PUSH1 0x2 SLOAD DUP2 JUMP JUMPDEST PUSH1 0x1 SLOAD DUP2 JUMP JUMPDEST POP JUMP JUMPDEST POP JUMP JUMPDEST POP JUMP JUMPDEST PUSH1 0x0 DUP2 CALLDATALOAD SWAP1 POP PUSH2 0x812 DUP2 PUSH2 0xAE2 JUMP JUMPDEST SWAP3 SWAP2 POP POP JUMP JUMPDEST PUSH1 0x0 DUP2 MLOAD SWAP1 POP PUSH2 0x827 DUP2 PUSH2 0xAE2 JUMP JUMPDEST SWAP3 SWAP2 POP POP JUMP JUMPDEST PUSH1 0x0 PUSH1 0x20 DUP3 DUP5 SUB SLT ISZERO PUSH2 0x83F JUMPI PUSH1 0x0 DUP1 REVERT JUMPDEST PUSH1 0x0 PUSH2 0x84D DUP5 DUP3 DUP6 ADD PUSH2 0x803 JUMP JUMPDEST SWAP2 POP POP SWAP3 SWAP2 POP POP JUMP JUMPDEST PUSH1 0x0 PUSH1 0x20 DUP3 DUP5 SUB SLT ISZERO PUSH2 0x868 JUMPI PUSH1 0x0 DUP1 REVERT JUMPDEST PUSH1 0x0 PUSH2 0x876 DUP5 DUP3 DUP6 ADD PUSH2 0x818 JUMP JUMPDEST SWAP2 POP POP SWAP3 SWAP2 POP POP JUMP JUMPDEST PUSH2 0x888 DUP2 PUSH2 0xA15 JUMP JUMPDEST DUP3 MSTORE POP POP JUMP JUMPDEST PUSH1 0x0 PUSH2 0x899 DUP3 PUSH2 0x9E3 JUMP JUMPDEST PUSH2 0x8A3 DUP2 DUP6 PUSH2 0x9F9 JUMP JUMPDEST SWAP4 POP PUSH2 0x8B3 DUP2 DUP6 PUSH1 0x20 DUP7 ADD PUSH2 0xA75 JUMP JUMPDEST DUP1 DUP5 ADD SWAP2 POP POP SWAP3 SWAP2 POP POP JUMP JUMPDEST PUSH2 0x8C8 DUP2 PUSH2 0xA51 JUMP JUMPDEST DUP3 MSTORE POP POP JUMP JUMPDEST PUSH1 0x0 PUSH2 0x8D9 DUP3 PUSH2 0x9EE JUMP JUMPDEST PUSH2 0x8E3 DUP2 DUP6 PUSH2 0xA04 JUMP JUMPDEST SWAP4 POP PUSH2 0x8F3 DUP2 DUP6 PUSH1 0x20 DUP7 ADD PUSH2 0xA75 JUMP JUMPDEST PUSH2 0x8FC DUP2 PUSH2 0xAA8 JUMP JUMPDEST DUP5 ADD SWAP2 POP POP SWAP3 SWAP2 POP POP JUMP JUMPDEST PUSH1 0x0 PUSH2 0x914 PUSH1 0xA DUP4 PUSH2 0xA04 JUMP JUMPDEST SWAP2 POP PUSH2 0x91F DUP3 PUSH2 0xAB9 JUMP JUMPDEST PUSH1 0x20 DUP3 ADD SWAP1 POP SWAP2 SWAP1 POP JUMP JUMPDEST PUSH2 0x933 DUP2 PUSH2 0xA47 JUMP JUMPDEST DUP3 MSTORE POP POP JUMP JUMPDEST PUSH1 0x0 PUSH2 0x945 DUP3 DUP5 PUSH2 0x88E JUMP JUMPDEST SWAP2 POP DUP2 SWAP1 POP SWAP3 SWAP2 POP POP JUMP JUMPDEST PUSH1 0x0 PUSH1 0x20 DUP3 ADD SWAP1 POP PUSH2 0x965 PUSH1 0x0 DUP4 ADD DUP5 PUSH2 0x87F JUMP JUMPDEST SWAP3 SWAP2 POP POP JUMP JUMPDEST PUSH1 0x0 PUSH1 0x20 DUP3 ADD SWAP1 POP PUSH2 0x980 PUSH1 0x0 DUP4 ADD DUP5 PUSH2 0x8BF JUMP JUMPDEST SWAP3 SWAP2 POP POP JUMP JUMPDEST PUSH1 0x0 PUSH1 0x20 DUP3 ADD SWAP1 POP DUP2 DUP2 SUB PUSH1 0x0 DUP4 ADD MSTORE PUSH2 0x9A0 DUP2 DUP5 PUSH2 0x8CE JUMP JUMPDEST SWAP1 POP SWAP3 SWAP2 POP POP JUMP JUMPDEST PUSH1 0x0 PUSH1 0x20 DUP3 ADD SWAP1 POP DUP2 DUP2 SUB PUSH1 0x0 DUP4 ADD MSTORE PUSH2 0x9C1 DUP2 PUSH2 0x907 JUMP JUMPDEST SWAP1 POP SWAP2 SWAP1 POP JUMP JUMPDEST PUSH1 0x0 PUSH1 0x20 DUP3 ADD SWAP1 POP PUSH2 0x9DD PUSH1 0x0 DUP4 ADD DUP5 PUSH2 0x92A JUMP JUMPDEST SWAP3 SWAP2 POP POP JUMP JUMPDEST PUSH1 0x0 DUP2 MLOAD SWAP1 POP SWAP2 SWAP1 POP JUMP JUMPDEST PUSH1 0x0 DUP2 MLOAD SWAP1 POP SWAP2 SWAP1 POP JUMP JUMPDEST PUSH1 0x0 DUP2 SWAP1 POP SWAP3 SWAP2 POP POP JUMP JUMPDEST PUSH1 0x0 DUP3 DUP3 MSTORE PUSH1 0x20 DUP3 ADD SWAP1 POP SWAP3 SWAP2 POP POP JUMP JUMPDEST PUSH1 0x0 PUSH2 0xA20 DUP3 PUSH2 0xA27 JUMP JUMPDEST SWAP1 POP SWAP2 SWAP1 POP JUMP JUMPDEST PUSH1 0x0 PUSH20 0xFFFFFFFFFFFFFFFFFFFFFFFFFFFFFFFFFFFFFFFF DUP3 AND SWAP1 POP SWAP2 SWAP1 POP JUMP JUMPDEST PUSH1 0x0 DUP2 SWAP1 POP SWAP2 SWAP1 POP JUMP JUMPDEST PUSH1 0x0 PUSH2 0xA5C DUP3 PUSH2 0xA63 JUMP JUMPDEST SWAP1 POP SWAP2 SWAP1 POP JUMP JUMPDEST PUSH1 0x0 PUSH2 0xA6E DUP3 PUSH2 0xA27 JUMP JUMPDEST SWAP1 POP SWAP2 SWAP1 POP JUMP JUMPDEST PUSH1 0x0 JUMPDEST DUP4 DUP2 LT ISZERO PUSH2 0xA93 JUMPI DUP1 DUP3 ADD MLOAD DUP2 DUP5 ADD MSTORE PUSH1 0x20 DUP2 ADD SWAP1 POP PUSH2 0xA78 JUMP JUMPDEST DUP4 DUP2 GT ISZERO PUSH2 0xAA2 JUMPI PUSH1 0x0 DUP5 DUP5 ADD MSTORE JUMPDEST POP POP POP POP JUMP JUMPDEST PUSH1 0x0 PUSH1 0x1F NOT PUSH1 0x1F DUP4 ADD AND SWAP1 POP SWAP2 SWAP1 POP JUMP JUMPDEST PUSH32 0x7265736574466565282900000000000000000000000000000000000000000000 PUSH1 0x0 DUP3 ADD MSTORE POP JUMP JUMPDEST PUSH2 0xAEB DUP2 PUSH2 0xA47 JUMP JUMPDEST DUP2 EQ PUSH2 0xAF6 JUMPI PUSH1 0x0 DUP1 REVERT JUMPDEST POP JUMP INVALID LOG2 PUSH5 0x6970667358 0x22 SLT KECCAK256 0x28 0xE 0x2D INVALID STATICCALL CODECOPY PUSH7 0x14ECAE511B9C8D LOG3 0xFC 0xF8 0xD9 0xC5 0xBC 0xBF SLT 0xDF 0xE2 0xC5 EXTCODEHASH 0xA5 PUSH20 0xB528DAD364736F6C634300080200330000000000 "},"methodIdentifiers":{"FeeContract()":"207ccfea","FeeQueryNative()":"ab407bb6","callFee()":"90321e1a","epochLength()":"57d775f8","fee()":"ddca3f43","get()":"6d4ce63c","getFee()":"ced72f87","h1Stored()":"2dcbf1c0","requiredReset()":"f5fa96e5","set(uint256)":"60fe47b1","storedData()":"2a1afcd9"}},"storageLayout":{"storage":[{"astId":210,"contract":"contracts/SimpleStorageWithFee.sol:SimpleStorageWithFee","label":"epochLength","offset":0,"slot":"0","type":"t_uint256"},{"astId":212,"contract":"contracts/SimpleStorageWithFee.sol:SimpleStorageWithFee","label":"requiredReset","offset":0,"slot":"1","type":"t_uint256"},{"astId":214,"contract":"contracts/SimpleStorageWithFee.sol:SimpleStorageWithFee","label":"fee","offset":0,"slot":"2","type":"t_uint256"},{"astId":332,"contract":"contracts/SimpleStorageWithFee.sol:SimpleStorageWithFee","label":"FeeContract","offset":0,"slot":"3","type":"t_address"},{"astId":335,"contract":"contracts/SimpleStorageWithFee.sol:SimpleStorageWithFee","label":"FeeQueryNative","offset":0,"slot":"4","type":"t_contract(FeeQuery)271"},{"astId":597,"contract":"contracts/SimpleStorageWithFee.sol:SimpleStorageWithFee","label":"storedData","offset":0,"slot":"5","type":"t_uint256"},{"astId":599,"contract":"contracts/SimpleStorageWithFee.sol:SimpleStorageWithFee","label":"h1Stored","offset":0,"slot":"6","type":"t_uint256"}],"types":{"t_address":{"encoding":"inplace","label":"address","numberOfBytes":"20"},"t_contract(FeeQuery)271":{"encoding":"inplace","label":"contract FeeQuery","numberOfBytes":"20"},"t_uint256":{"encoding":"inplace","label":"uint256","numberOfBytes":"32"}}}}}}