{"contracts/H1DevelopedApplication.sol":{"H1DevelopedApplication":{"abi":[{"inputs":[{"internalType":"address","name":"_FeeContract","type":"address"},{"internalType":"address","name":"walletToCollectFees","type":"address"}],"stateMutability":"nonpayable","type":"constructor"},{"inputs":[],"name":"FeeContract","outputs":[{"internalType":"address","name":"","type":"address"}],"stateMutability":"view","type":"function"},{"inputs":[],"name":"callFee","outputs":[{"internalType":"uint256","name":"","type":"uint256"}],"stateMutability":"view","type":"function"},{"inputs":[],"name":"epochLength","outputs":[{"internalType":"uint256","name":"","type":"uint256"}],"stateMutability":"view","type":"function"},{"inputs":[],"name":"fee","outputs":[{"internalType":"uint256","name":"","type":"uint256"}],"stateMutability":"view","type":"function"},{"inputs":[],"name":"getDeveloperFee","outputs":[{"internalType":"uint256","name":"developerFee","type":"uint256"}],"stateMutability":"view","type":"function"},{"inputs":[],"name":"getFee","outputs":[{"internalType":"uint256","name":"","type":"uint256"}],"stateMutability":"view","type":"function"},{"inputs":[],"name":"getHavenFee","outputs":[{"internalType":"uint256","name":"havenOneFee","type":"uint256"}],"stateMutability":"view","type":"function"},{"inputs":[],"name":"requiredReset","outputs":[{"internalType":"uint256","name":"","type":"uint256"}],"stateMutability":"view","type":"function"}],"evm":{"bytecode":{"linkReferences":{},"object":"60806040523480156200001157600080fd5b5060405162000b2638038062000b26833981810160405281019062000037919062000281565b6200005367cd1b7729f550e09460c01b6200026760201b60201c565b6200006f674a1759b15613413760c01b6200026760201b60201c565b6200008b67bcbcdb0ec4c62a5560c01b6200026760201b60201c565b600073ffffffffffffffffffffffffffffffffffffffff168273ffffffffffffffffffffffffffffffffffffffff1614156200018957620000dd677949f73461ebb8cf60c01b6200026760201b60201c565b620000f96788146c218b6c29a260c01b6200026760201b60201c565b6200011567d93731a74b30fd7c60c01b6200026760201b60201c565b6040518060400160405280600381526020017f31323300000000000000000000000000000000000000000000000000000000008152506040517f08c379a000000000000000000000000000000000000000000000000000000000815260040162000180919062000303565b60405180910390fd5b620001a56762be0e3eb49d3e9760c01b6200026760201b60201c565b620001c16735a364bf9ec0c9b160c01b6200026760201b60201c565b81600360006101000a81548173ffffffffffffffffffffffffffffffffffffffff021916908373ffffffffffffffffffffffffffffffffffffffff1602179055506200021e67989474dc1f94bd4760c01b6200026760201b60201c565b80600460006101000a81548173ffffffffffffffffffffffffffffffffffffffff021916908373ffffffffffffffffffffffffffffffffffffffff1602179055505050620003d8565b50565b6000815190506200027b81620003be565b92915050565b600080604083850312156200029557600080fd5b6000620002a5858286016200026a565b9250506020620002b8858286016200026a565b9150509250929050565b6000620002cf8262000327565b620002db818562000332565b9350620002ed81856020860162000377565b620002f881620003ad565b840191505092915050565b600060208201905081810360008301526200031f8184620002c2565b905092915050565b600081519050919050565b600082825260208201905092915050565b6000620003508262000357565b9050919050565b600073ffffffffffffffffffffffffffffffffffffffff82169050919050565b60005b83811015620003975780820151818401526020810190506200037a565b83811115620003a7576000848401525b50505050565b6000601f19601f8301169050919050565b620003c98162000343565b8114620003d557600080fd5b50565b61073e80620003e86000396000f3fe608060405234801561001057600080fd5b50600436106100885760003560e01c8063b19929c31161005b578063b19929c314610105578063ced72f8714610123578063ddca3f4314610141578063f5fa96e51461015f57610088565b8063207ccfea1461008d57806357d775f8146100ab57806377482b18146100c957806390321e1a146100e7575b600080fd5b61009561017d565b6040516100a2919061053c565b60405180910390f35b6100b36101a3565b6040516100c09190610577565b60405180910390f35b6100d16101a9565b6040516100de9190610577565b60405180910390f35b6100ef610226565b6040516100fc9190610577565b60405180910390f35b61010d610337565b60405161011a9190610577565b60405180910390f35b61012b6103a8565b6040516101389190610577565b60405180910390f35b6101496104ab565b6040516101569190610577565b60405180910390f35b6101676104b1565b6040516101749190610577565b60405180910390f35b600360009054906101000a900473ffffffffffffffffffffffffffffffffffffffff1681565b60005481565b60006101bf6735c6135bd30fb56160c01b6104b7565b6101d3673ae3d9bdfb94e26b60c01b6104b7565b6101e767cc43cf7efdab234c60c01b6104b7565b60006101f1610226565b9050610207671cb28bc6094eb59660c01b6104b7565b6009600a8261021691906105a3565b61022091906105d4565b91505090565b600061023c6790403cdde02533e860c01b6104b7565b610250671c87d02a3069b73360c01b6104b7565b61026467f1b3d5843e60ace360c01b6104b7565b6000600360009054906101000a900473ffffffffffffffffffffffffffffffffffffffff1673ffffffffffffffffffffffffffffffffffffffff1663ced72f876040518163ffffffff1660e01b815260040160206040518083038186803b1580156102ce57600080fd5b505afa1580156102e2573d6000803e3d6000fd5b505050506040513d601f19601f8201168201806040525081019061030691906104d2565b905061031c67c22e5faca129da0260c01b6104b7565b61033067316dd800befc263260c01b6104b7565b8091505090565b600061034d67c9322031f617eba660c01b6104b7565b61036167c674f3534dac2dec60c01b6104b7565b61037567e0b5f08fd8dc49a660c01b6104b7565b600061037f610226565b90506103956757c913a2a8f4beff60c01b6104b7565b600a816103a291906105a3565b91505090565b60006103be67341a09d70c91193860c01b6104ba565b6103d267fd13858d30b4e0f360c01b6104ba565b6103e6679b977cd0c0a3bf3a60c01b6104ba565b426001541015610467576104046727e4d34d0d1ff58b60c01b6104ba565b6104186779a9c7a6ba68d5cb60c01b6104ba565b61042c67eb1b54e909ec2d3560c01b6104ba565b6040517f08c379a000000000000000000000000000000000000000000000000000000000815260040161045e90610557565b60405180910390fd5b61047b67ee820581ba1ab36760c01b6104ba565b61048f672a1ce9267ec3da9c60c01b6104ba565b6104a367c59878417f2a2a4260c01b6104ba565b600254905090565b60025481565b60015481565b50565b50565b6000815190506104cc816106f1565b92915050565b6000602082840312156104e457600080fd5b60006104f2848285016104bd565b91505092915050565b6105048161062e565b82525050565b6000610517600a83610592565b9150610522826106c8565b602082019050919050565b61053681610660565b82525050565b600060208201905061055160008301846104fb565b92915050565b600060208201905081810360008301526105708161050a565b9050919050565b600060208201905061058c600083018461052d565b92915050565b600082825260208201905092915050565b60006105ae82610660565b91506105b983610660565b9250826105c9576105c8610699565b5b828204905092915050565b60006105df82610660565b91506105ea83610660565b9250817fffffffffffffffffffffffffffffffffffffffffffffffffffffffffffffffff04831182151516156106235761062261066a565b5b828202905092915050565b600061063982610640565b9050919050565b600073ffffffffffffffffffffffffffffffffffffffff82169050919050565b6000819050919050565b7f4e487b7100000000000000000000000000000000000000000000000000000000600052601160045260246000fd5b7f4e487b7100000000000000000000000000000000000000000000000000000000600052601260045260246000fd5b7f7265736574466565282900000000000000000000000000000000000000000000600082015250565b6106fa81610660565b811461070557600080fd5b5056fea26469706673582212208f737539f5a551b257d818c963951b8acf751d9f4b6b70c43b864010480c808e64736f6c63430008020033","opcodes":"PUSH1 0x80 PUSH1 0x40 MSTORE CALLVALUE DUP1 ISZERO PUSH3 0x11 JUMPI PUSH1 0x0 DUP1 REVERT JUMPDEST POP PUSH1 0x40 MLOAD PUSH3 0xB26 CODESIZE SUB DUP1 PUSH3 0xB26 DUP4 CODECOPY DUP2 DUP2 ADD PUSH1 0x40 MSTORE DUP2 ADD SWAP1 PUSH3 0x37 SWAP2 SWAP1 PUSH3 0x281 JUMP JUMPDEST PUSH3 0x53 PUSH8 0xCD1B7729F550E094 PUSH1 0xC0 SHL PUSH3 0x267 PUSH1 0x20 SHL PUSH1 0x20 SHR JUMP JUMPDEST PUSH3 0x6F PUSH8 0x4A1759B156134137 PUSH1 0xC0 SHL PUSH3 0x267 PUSH1 0x20 SHL PUSH1 0x20 SHR JUMP JUMPDEST PUSH3 0x8B PUSH8 0xBCBCDB0EC4C62A55 PUSH1 0xC0 SHL PUSH3 0x267 PUSH1 0x20 SHL PUSH1 0x20 SHR JUMP JUMPDEST PUSH1 0x0 PUSH20 0xFFFFFFFFFFFFFFFFFFFFFFFFFFFFFFFFFFFFFFFF AND DUP3 PUSH20 0xFFFFFFFFFFFFFFFFFFFFFFFFFFFFFFFFFFFFFFFF AND EQ ISZERO PUSH3 0x189 JUMPI PUSH3 0xDD PUSH8 0x7949F73461EBB8CF PUSH1 0xC0 SHL PUSH3 0x267 PUSH1 0x20 SHL PUSH1 0x20 SHR JUMP JUMPDEST PUSH3 0xF9 PUSH8 0x88146C218B6C29A2 PUSH1 0xC0 SHL PUSH3 0x267 PUSH1 0x20 SHL PUSH1 0x20 SHR JUMP JUMPDEST PUSH3 0x115 PUSH8 0xD93731A74B30FD7C PUSH1 0xC0 SHL PUSH3 0x267 PUSH1 0x20 SHL PUSH1 0x20 SHR JUMP JUMPDEST PUSH1 0x40 MLOAD DUP1 PUSH1 0x40 ADD PUSH1 0x40 MSTORE DUP1 PUSH1 0x3 DUP2 MSTORE PUSH1 0x20 ADD PUSH32 0x3132330000000000000000000000000000000000000000000000000000000000 DUP2 MSTORE POP PUSH1 0x40 MLOAD PUSH32 0x8C379A000000000000000000000000000000000000000000000000000000000 DUP2 MSTORE PUSH1 0x4 ADD PUSH3 0x180 SWAP2 SWAP1 PUSH3 0x303 JUMP JUMPDEST PUSH1 0x40 MLOAD DUP1 SWAP2 SUB SWAP1 REVERT JUMPDEST PUSH3 0x1A5 PUSH8 0x62BE0E3EB49D3E97 PUSH1 0xC0 SHL PUSH3 0x267 PUSH1 0x20 SHL PUSH1 0x20 SHR JUMP JUMPDEST PUSH3 0x1C1 PUSH8 0x35A364BF9EC0C9B1 PUSH1 0xC0 SHL PUSH3 0x267 PUSH1 0x20 SHL PUSH1 0x20 SHR JUMP JUMPDEST DUP2 PUSH1 0x3 PUSH1 0x0 PUSH2 0x100 EXP DUP2 SLOAD DUP2 PUSH20 0xFFFFFFFFFFFFFFFFFFFFFFFFFFFFFFFFFFFFFFFF MUL NOT AND SWAP1 DUP4 PUSH20 0xFFFFFFFFFFFFFFFFFFFFFFFFFFFFFFFFFFFFFFFF AND MUL OR SWAP1 SSTORE POP PUSH3 0x21E PUSH8 0x989474DC1F94BD47 PUSH1 0xC0 SHL PUSH3 0x267 PUSH1 0x20 SHL PUSH1 0x20 SHR JUMP JUMPDEST DUP1 PUSH1 0x4 PUSH1 0x0 PUSH2 0x100 EXP DUP2 SLOAD DUP2 PUSH20 0xFFFFFFFFFFFFFFFFFFFFFFFFFFFFFFFFFFFFFFFF MUL NOT AND SWAP1 DUP4 PUSH20 0xFFFFFFFFFFFFFFFFFFFFFFFFFFFFFFFFFFFFFFFF AND MUL OR SWAP1 SSTORE POP POP POP PUSH3 0x3D8 JUMP JUMPDEST POP JUMP JUMPDEST PUSH1 0x0 DUP2 MLOAD SWAP1 POP PUSH3 0x27B DUP2 PUSH3 0x3BE JUMP JUMPDEST SWAP3 SWAP2 POP POP JUMP JUMPDEST PUSH1 0x0 DUP1 PUSH1 0x40 DUP4 DUP6 SUB SLT ISZERO PUSH3 0x295 JUMPI PUSH1 0x0 DUP1 REVERT JUMPDEST PUSH1 0x0 PUSH3 0x2A5 DUP6 DUP3 DUP7 ADD PUSH3 0x26A JUMP JUMPDEST SWAP3 POP POP PUSH1 0x20 PUSH3 0x2B8 DUP6 DUP3 DUP7 ADD PUSH3 0x26A JUMP JUMPDEST SWAP2 POP POP SWAP3 POP SWAP3 SWAP1 POP JUMP JUMPDEST PUSH1 0x0 PUSH3 0x2CF DUP3 PUSH3 0x327 JUMP JUMPDEST PUSH3 0x2DB DUP2 DUP6 PUSH3 0x332 JUMP JUMPDEST SWAP4 POP PUSH3 0x2ED DUP2 DUP6 PUSH1 0x20 DUP7 ADD PUSH3 0x377 JUMP JUMPDEST PUSH3 0x2F8 DUP2 PUSH3 0x3AD JUMP JUMPDEST DUP5 ADD SWAP2 POP POP SWAP3 SWAP2 POP POP JUMP JUMPDEST PUSH1 0x0 PUSH1 0x20 DUP3 ADD SWAP1 POP DUP2 DUP2 SUB PUSH1 0x0 DUP4 ADD MSTORE PUSH3 0x31F DUP2 DUP5 PUSH3 0x2C2 JUMP JUMPDEST SWAP1 POP SWAP3 SWAP2 POP POP JUMP JUMPDEST PUSH1 0x0 DUP2 MLOAD SWAP1 POP SWAP2 SWAP1 POP JUMP JUMPDEST PUSH1 0x0 DUP3 DUP3 MSTORE PUSH1 0x20 DUP3 ADD SWAP1 POP SWAP3 SWAP2 POP POP JUMP JUMPDEST PUSH1 0x0 PUSH3 0x350 DUP3 PUSH3 0x357 JUMP JUMPDEST SWAP1 POP SWAP2 SWAP1 POP JUMP JUMPDEST PUSH1 0x0 PUSH20 0xFFFFFFFFFFFFFFFFFFFFFFFFFFFFFFFFFFFFFFFF DUP3 AND SWAP1 POP SWAP2 SWAP1 POP JUMP JUMPDEST PUSH1 0x0 JUMPDEST DUP4 DUP2 LT ISZERO PUSH3 0x397 JUMPI DUP1 DUP3 ADD MLOAD DUP2 DUP5 ADD MSTORE PUSH1 0x20 DUP2 ADD SWAP1 POP PUSH3 0x37A JUMP JUMPDEST DUP4 DUP2 GT ISZERO PUSH3 0x3A7 JUMPI PUSH1 0x0 DUP5 DUP5 ADD MSTORE JUMPDEST POP POP POP POP JUMP JUMPDEST PUSH1 0x0 PUSH1 0x1F NOT PUSH1 0x1F DUP4 ADD AND SWAP1 POP SWAP2 SWAP1 POP JUMP JUMPDEST PUSH3 0x3C9 DUP2 PUSH3 0x343 JUMP JUMPDEST DUP2 EQ PUSH3 0x3D5 JUMPI PUSH1 0x0 DUP1 REVERT JUMPDEST POP JUMP JUMPDEST PUSH2 0x73E DUP1 PUSH3 0x3E8 PUSH1 0x0 CODECOPY PUSH1 0x0 RETURN INVALID PUSH1 0x80 PUSH1 0x40 MSTORE CALLVALUE DUP1 ISZERO PUSH2 0x10 JUMPI PUSH1 0x0 DUP1 REVERT JUMPDEST POP PUSH1 0x4 CALLDATASIZE LT PUSH2 0x88 JUMPI PUSH1 0x0 CALLDATALOAD PUSH1 0xE0 SHR DUP1 PUSH4 0xB19929C3 GT PUSH2 0x5B JUMPI DUP1 PUSH4 0xB19929C3 EQ PUSH2 0x105 JUMPI DUP1 PUSH4 0xCED72F87 EQ PUSH2 0x123 JUMPI DUP1 PUSH4 0xDDCA3F43 EQ PUSH2 0x141 JUMPI DUP1 PUSH4 0xF5FA96E5 EQ PUSH2 0x15F JUMPI PUSH2 0x88 JUMP JUMPDEST DUP1 PUSH4 0x207CCFEA EQ PUSH2 0x8D JUMPI DUP1 PUSH4 0x57D775F8 EQ PUSH2 0xAB JUMPI DUP1 PUSH4 0x77482B18 EQ PUSH2 0xC9 JUMPI DUP1 PUSH4 0x90321E1A EQ PUSH2 0xE7 JUMPI JUMPDEST PUSH1 0x0 DUP1 REVERT JUMPDEST PUSH2 0x95 PUSH2 0x17D JUMP JUMPDEST PUSH1 0x40 MLOAD PUSH2 0xA2 SWAP2 SWAP1 PUSH2 0x53C JUMP JUMPDEST PUSH1 0x40 MLOAD DUP1 SWAP2 SUB SWAP1 RETURN JUMPDEST PUSH2 0xB3 PUSH2 0x1A3 JUMP JUMPDEST PUSH1 0x40 MLOAD PUSH2 0xC0 SWAP2 SWAP1 PUSH2 0x577 JUMP JUMPDEST PUSH1 0x40 MLOAD DUP1 SWAP2 SUB SWAP1 RETURN JUMPDEST PUSH2 0xD1 PUSH2 0x1A9 JUMP JUMPDEST PUSH1 0x40 MLOAD PUSH2 0xDE SWAP2 SWAP1 PUSH2 0x577 JUMP JUMPDEST PUSH1 0x40 MLOAD DUP1 SWAP2 SUB SWAP1 RETURN JUMPDEST PUSH2 0xEF PUSH2 0x226 JUMP JUMPDEST PUSH1 0x40 MLOAD PUSH2 0xFC SWAP2 SWAP1 PUSH2 0x577 JUMP JUMPDEST PUSH1 0x40 MLOAD DUP1 SWAP2 SUB SWAP1 RETURN JUMPDEST PUSH2 0x10D PUSH2 0x337 JUMP JUMPDEST PUSH1 0x40 MLOAD PUSH2 0x11A SWAP2 SWAP1 PUSH2 0x577 JUMP JUMPDEST PUSH1 0x40 MLOAD DUP1 SWAP2 SUB SWAP1 RETURN JUMPDEST PUSH2 0x12B PUSH2 0x3A8 JUMP JUMPDEST PUSH1 0x40 MLOAD PUSH2 0x138 SWAP2 SWAP1 PUSH2 0x577 JUMP JUMPDEST PUSH1 0x40 MLOAD DUP1 SWAP2 SUB SWAP1 RETURN JUMPDEST PUSH2 0x149 PUSH2 0x4AB JUMP JUMPDEST PUSH1 0x40 MLOAD PUSH2 0x156 SWAP2 SWAP1 PUSH2 0x577 JUMP JUMPDEST PUSH1 0x40 MLOAD DUP1 SWAP2 SUB SWAP1 RETURN JUMPDEST PUSH2 0x167 PUSH2 0x4B1 JUMP JUMPDEST PUSH1 0x40 MLOAD PUSH2 0x174 SWAP2 SWAP1 PUSH2 0x577 JUMP JUMPDEST PUSH1 0x40 MLOAD DUP1 SWAP2 SUB SWAP1 RETURN JUMPDEST PUSH1 0x3 PUSH1 0x0 SWAP1 SLOAD SWAP1 PUSH2 0x100 EXP SWAP1 DIV PUSH20 0xFFFFFFFFFFFFFFFFFFFFFFFFFFFFFFFFFFFFFFFF AND DUP2 JUMP JUMPDEST PUSH1 0x0 SLOAD DUP2 JUMP JUMPDEST PUSH1 0x0 PUSH2 0x1BF PUSH8 0x35C6135BD30FB561 PUSH1 0xC0 SHL PUSH2 0x4B7 JUMP JUMPDEST PUSH2 0x1D3 PUSH8 0x3AE3D9BDFB94E26B PUSH1 0xC0 SHL PUSH2 0x4B7 JUMP JUMPDEST PUSH2 0x1E7 PUSH8 0xCC43CF7EFDAB234C PUSH1 0xC0 SHL PUSH2 0x4B7 JUMP JUMPDEST PUSH1 0x0 PUSH2 0x1F1 PUSH2 0x226 JUMP JUMPDEST SWAP1 POP PUSH2 0x207 PUSH8 0x1CB28BC6094EB596 PUSH1 0xC0 SHL PUSH2 0x4B7 JUMP JUMPDEST PUSH1 0x9 PUSH1 0xA DUP3 PUSH2 0x216 SWAP2 SWAP1 PUSH2 0x5A3 JUMP JUMPDEST PUSH2 0x220 SWAP2 SWAP1 PUSH2 0x5D4 JUMP JUMPDEST SWAP2 POP POP SWAP1 JUMP JUMPDEST PUSH1 0x0 PUSH2 0x23C PUSH8 0x90403CDDE02533E8 PUSH1 0xC0 SHL PUSH2 0x4B7 JUMP JUMPDEST PUSH2 0x250 PUSH8 0x1C87D02A3069B733 PUSH1 0xC0 SHL PUSH2 0x4B7 JUMP JUMPDEST PUSH2 0x264 PUSH8 0xF1B3D5843E60ACE3 PUSH1 0xC0 SHL PUSH2 0x4B7 JUMP JUMPDEST PUSH1 0x0 PUSH1 0x3 PUSH1 0x0 SWAP1 SLOAD SWAP1 PUSH2 0x100 EXP SWAP1 DIV PUSH20 0xFFFFFFFFFFFFFFFFFFFFFFFFFFFFFFFFFFFFFFFF AND PUSH20 0xFFFFFFFFFFFFFFFFFFFFFFFFFFFFFFFFFFFFFFFF AND PUSH4 0xCED72F87 PUSH1 0x40 MLOAD DUP2 PUSH4 0xFFFFFFFF AND PUSH1 0xE0 SHL DUP2 MSTORE PUSH1 0x4 ADD PUSH1 0x20 PUSH1 0x40 MLOAD DUP1 DUP4 SUB DUP2 DUP7 DUP1 EXTCODESIZE ISZERO DUP1 ISZERO PUSH2 0x2CE JUMPI PUSH1 0x0 DUP1 REVERT JUMPDEST POP GAS STATICCALL ISZERO DUP1 ISZERO PUSH2 0x2E2 JUMPI RETURNDATASIZE PUSH1 0x0 DUP1 RETURNDATACOPY RETURNDATASIZE PUSH1 0x0 REVERT JUMPDEST POP POP POP POP PUSH1 0x40 MLOAD RETURNDATASIZE PUSH1 0x1F NOT PUSH1 0x1F DUP3 ADD AND DUP3 ADD DUP1 PUSH1 0x40 MSTORE POP DUP2 ADD SWAP1 PUSH2 0x306 SWAP2 SWAP1 PUSH2 0x4D2 JUMP JUMPDEST SWAP1 POP PUSH2 0x31C PUSH8 0xC22E5FACA129DA02 PUSH1 0xC0 SHL PUSH2 0x4B7 JUMP JUMPDEST PUSH2 0x330 PUSH8 0x316DD800BEFC2632 PUSH1 0xC0 SHL PUSH2 0x4B7 JUMP JUMPDEST DUP1 SWAP2 POP POP SWAP1 JUMP JUMPDEST PUSH1 0x0 PUSH2 0x34D PUSH8 0xC9322031F617EBA6 PUSH1 0xC0 SHL PUSH2 0x4B7 JUMP JUMPDEST PUSH2 0x361 PUSH8 0xC674F3534DAC2DEC PUSH1 0xC0 SHL PUSH2 0x4B7 JUMP JUMPDEST PUSH2 0x375 PUSH8 0xE0B5F08FD8DC49A6 PUSH1 0xC0 SHL PUSH2 0x4B7 JUMP JUMPDEST PUSH1 0x0 PUSH2 0x37F PUSH2 0x226 JUMP JUMPDEST SWAP1 POP PUSH2 0x395 PUSH8 0x57C913A2A8F4BEFF PUSH1 0xC0 SHL PUSH2 0x4B7 JUMP JUMPDEST PUSH1 0xA DUP2 PUSH2 0x3A2 SWAP2 SWAP1 PUSH2 0x5A3 JUMP JUMPDEST SWAP2 POP POP SWAP1 JUMP JUMPDEST PUSH1 0x0 PUSH2 0x3BE PUSH8 0x341A09D70C911938 PUSH1 0xC0 SHL PUSH2 0x4BA JUMP JUMPDEST PUSH2 0x3D2 PUSH8 0xFD13858D30B4E0F3 PUSH1 0xC0 SHL PUSH2 0x4BA JUMP JUMPDEST PUSH2 0x3E6 PUSH8 0x9B977CD0C0A3BF3A PUSH1 0xC0 SHL PUSH2 0x4BA JUMP JUMPDEST TIMESTAMP PUSH1 0x1 SLOAD LT ISZERO PUSH2 0x467 JUMPI PUSH2 0x404 PUSH8 0x27E4D34D0D1FF58B PUSH1 0xC0 SHL PUSH2 0x4BA JUMP JUMPDEST PUSH2 0x418 PUSH8 0x79A9C7A6BA68D5CB PUSH1 0xC0 SHL PUSH2 0x4BA JUMP JUMPDEST PUSH2 0x42C PUSH8 0xEB1B54E909EC2D35 PUSH1 0xC0 SHL PUSH2 0x4BA JUMP JUMPDEST PUSH1 0x40 MLOAD PUSH32 0x8C379A000000000000000000000000000000000000000000000000000000000 DUP2 MSTORE PUSH1 0x4 ADD PUSH2 0x45E SWAP1 PUSH2 0x557 JUMP JUMPDEST PUSH1 0x40 MLOAD DUP1 SWAP2 SUB SWAP1 REVERT JUMPDEST PUSH2 0x47B PUSH8 0xEE820581BA1AB367 PUSH1 0xC0 SHL PUSH2 0x4BA JUMP JUMPDEST PUSH2 0x48F PUSH8 0x2A1CE9267EC3DA9C PUSH1 0xC0 SHL PUSH2 0x4BA JUMP JUMPDEST PUSH2 0x4A3 PUSH8 0xC59878417F2A2A42 PUSH1 0xC0 SHL PUSH2 0x4BA JUMP JUMPDEST PUSH1 0x2 SLOAD SWAP1 POP SWAP1 JUMP JUMPDEST PUSH1 0x2 SLOAD DUP2 JUMP JUMPDEST PUSH1 0x1 SLOAD DUP2 JUMP JUMPDEST POP JUMP JUMPDEST POP JUMP JUMPDEST PUSH1 0x0 DUP2 MLOAD SWAP1 POP PUSH2 0x4CC DUP2 PUSH2 0x6F1 JUMP JUMPDEST SWAP3 SWAP2 POP POP JUMP JUMPDEST PUSH1 0x0 PUSH1 0x20 DUP3 DUP5 SUB SLT ISZERO PUSH2 0x4E4 JUMPI PUSH1 0x0 DUP1 REVERT JUMPDEST PUSH1 0x0 PUSH2 0x4F2 DUP5 DUP3 DUP6 ADD PUSH2 0x4BD JUMP JUMPDEST SWAP2 POP POP SWAP3 SWAP2 POP POP JUMP JUMPDEST PUSH2 0x504 DUP2 PUSH2 0x62E JUMP JUMPDEST DUP3 MSTORE POP POP JUMP JUMPDEST PUSH1 0x0 PUSH2 0x517 PUSH1 0xA DUP4 PUSH2 0x592 JUMP JUMPDEST SWAP2 POP PUSH2 0x522 DUP3 PUSH2 0x6C8 JUMP JUMPDEST PUSH1 0x20 DUP3 ADD SWAP1 POP SWAP2 SWAP1 POP JUMP JUMPDEST PUSH2 0x536 DUP2 PUSH2 0x660 JUMP JUMPDEST DUP3 MSTORE POP POP JUMP JUMPDEST PUSH1 0x0 PUSH1 0x20 DUP3 ADD SWAP1 POP PUSH2 0x551 PUSH1 0x0 DUP4 ADD DUP5 PUSH2 0x4FB JUMP JUMPDEST SWAP3 SWAP2 POP POP JUMP JUMPDEST PUSH1 0x0 PUSH1 0x20 DUP3 ADD SWAP1 POP DUP2 DUP2 SUB PUSH1 0x0 DUP4 ADD MSTORE PUSH2 0x570 DUP2 PUSH2 0x50A JUMP JUMPDEST SWAP1 POP SWAP2 SWAP1 POP JUMP JUMPDEST PUSH1 0x0 PUSH1 0x20 DUP3 ADD SWAP1 POP PUSH2 0x58C PUSH1 0x0 DUP4 ADD DUP5 PUSH2 0x52D JUMP JUMPDEST SWAP3 SWAP2 POP POP JUMP JUMPDEST PUSH1 0x0 DUP3 DUP3 MSTORE PUSH1 0x20 DUP3 ADD SWAP1 POP SWAP3 SWAP2 POP POP JUMP JUMPDEST PUSH1 0x0 PUSH2 0x5AE DUP3 PUSH2 0x660 JUMP JUMPDEST SWAP2 POP PUSH2 0x5B9 DUP4 PUSH2 0x660 JUMP JUMPDEST SWAP3 POP DUP3 PUSH2 0x5C9 JUMPI PUSH2 0x5C8 PUSH2 0x699 JUMP JUMPDEST JUMPDEST DUP3 DUP3 DIV SWAP1 POP SWAP3 SWAP2 POP POP JUMP JUMPDEST PUSH1 0x0 PUSH2 0x5DF DUP3 PUSH2 0x660 JUMP JUMPDEST SWAP2 POP PUSH2 0x5EA DUP4 PUSH2 0x660 JUMP JUMPDEST SWAP3 POP DUP2 PUSH32 0xFFFFFFFFFFFFFFFFFFFFFFFFFFFFFFFFFFFFFFFFFFFFFFFFFFFFFFFFFFFFFFFF DIV DUP4 GT DUP3 ISZERO ISZERO AND ISZERO PUSH2 0x623 JUMPI PUSH2 0x622 PUSH2 0x66A JUMP JUMPDEST JUMPDEST DUP3 DUP3 MUL SWAP1 POP SWAP3 SWAP2 POP POP JUMP JUMPDEST PUSH1 0x0 PUSH2 0x639 DUP3 PUSH2 0x640 JUMP JUMPDEST SWAP1 POP SWAP2 SWAP1 POP JUMP JUMPDEST PUSH1 0x0 PUSH20 0xFFFFFFFFFFFFFFFFFFFFFFFFFFFFFFFFFFFFFFFF DUP3 AND SWAP1 POP SWAP2 SWAP1 POP JUMP JUMPDEST PUSH1 0x0 DUP2 SWAP1 POP SWAP2 SWAP1 POP JUMP JUMPDEST PUSH32 0x4E487B7100000000000000000000000000000000000000000000000000000000 PUSH1 0x0 MSTORE PUSH1 0x11 PUSH1 0x4 MSTORE PUSH1 0x24 PUSH1 0x0 REVERT JUMPDEST PUSH32 0x4E487B7100000000000000000000000000000000000000000000000000000000 PUSH1 0x0 MSTORE PUSH1 0x12 PUSH1 0x4 MSTORE PUSH1 0x24 PUSH1 0x0 REVERT JUMPDEST PUSH32 0x7265736574466565282900000000000000000000000000000000000000000000 PUSH1 0x0 DUP3 ADD MSTORE POP JUMP JUMPDEST PUSH2 0x6FA DUP2 PUSH2 0x660 JUMP JUMPDEST DUP2 EQ PUSH2 0x705 JUMPI PUSH1 0x0 DUP1 REVERT JUMPDEST POP JUMP INVALID LOG2 PUSH5 0x6970667358 0x22 SLT KECCAK256 DUP16 PUSH20 0x7539F5A551B257D818C963951B8ACF751D9F4B6B PUSH17 0xC43B864010480C808E64736F6C63430008 MUL STOP CALLER "},"methodIdentifiers":{"FeeContract()":"207ccfea","callFee()":"90321e1a","epochLength()":"57d775f8","fee()":"ddca3f43","getDeveloperFee()":"77482b18","getFee()":"ced72f87","getHavenFee()":"b19929c3","requiredReset()":"f5fa96e5"}},"storageLayout":{"storage":[{"astId":210,"contract":"contracts/H1DevelopedApplication.sol:H1DevelopedApplication","label":"epochLength","offset":0,"slot":"0","type":"t_uint256"},{"astId":212,"contract":"contracts/H1DevelopedApplication.sol:H1DevelopedApplication","label":"requiredReset","offset":0,"slot":"1","type":"t_uint256"},{"astId":214,"contract":"contracts/H1DevelopedApplication.sol:H1DevelopedApplication","label":"fee","offset":0,"slot":"2","type":"t_uint256"},{"astId":332,"contract":"contracts/H1DevelopedApplication.sol:H1DevelopedApplication","label":"FeeContract","offset":0,"slot":"3","type":"t_address"},{"astId":334,"contract":"contracts/H1DevelopedApplication.sol:H1DevelopedApplication","label":"developerWallet","offset":0,"slot":"4","type":"t_address"}],"types":{"t_address":{"encoding":"inplace","label":"address","numberOfBytes":"20"},"t_uint256":{"encoding":"inplace","label":"uint256","numberOfBytes":"32"}}}}}}