{"contracts/DUMMYDONOTDEPLOY.sol":{"FeeOracle":{"abi":[{"inputs":[],"name":"consult","outputs":[{"internalType":"uint256","name":"amountOut","type":"uint256"}],"stateMutability":"view","type":"function"},{"inputs":[],"name":"epochLength","outputs":[{"internalType":"uint256","name":"","type":"uint256"}],"stateMutability":"view","type":"function"},{"inputs":[],"name":"fee","outputs":[{"internalType":"uint256","name":"","type":"uint256"}],"stateMutability":"view","type":"function"},{"inputs":[],"name":"getFee","outputs":[{"internalType":"uint256","name":"","type":"uint256"}],"stateMutability":"view","type":"function"},{"inputs":[],"name":"refreshOracle","outputs":[{"internalType":"bool","name":"success","type":"bool"}],"stateMutability":"nonpayable","type":"function"},{"inputs":[],"name":"requiredReset","outputs":[{"internalType":"uint256","name":"","type":"uint256"}],"stateMutability":"view","type":"function"},{"inputs":[{"internalType":"uint256","name":"newPriceAverage","type":"uint256"}],"name":"setPriceAverage","outputs":[],"stateMutability":"nonpayable","type":"function"},{"inputs":[{"internalType":"uint256","name":"newReset","type":"uint256"}],"name":"setRequiredReset","outputs":[],"stateMutability":"nonpayable","type":"function"},{"inputs":[],"name":"viewJustKeepAdding","outputs":[{"internalType":"uint256","name":"","type":"uint256"}],"stateMutability":"view","type":"function"}],"evm":{"bytecode":{"linkReferences":{},"object":"6080604052600160035534801561001557600080fd5b50610612806100256000396000f3fe608060405234801561001057600080fd5b50600436106100935760003560e01c8063aed5f68d11610066578063aed5f68d1461010c578063ced72f871461012a578063ddca3f4314610148578063e58456e914610166578063f5fa96e51461018457610093565b80630f4ad2bf1461009857806356cb30c4146100b457806357d775f8146100d05780637eeda703146100ee575b600080fd5b6100b260048036038101906100ad9190610430565b6101a2565b005b6100ce60048036038101906100c99190610430565b6101d4565b005b6100d8610206565b6040516100e591906104d5565b60405180910390f35b6100f661020c565b60405161010391906104d5565b60405180910390f35b610114610252565b60405161012191906104d5565b60405180910390f35b610132610298565b60405161013f91906104d5565b60405180910390f35b61015061039b565b60405161015d91906104d5565b60405180910390f35b61016e6103a1565b60405161017b919061049a565b60405180910390f35b61018c61040f565b60405161019991906104d5565b60405180910390f35b6101b667bd4f2daa7f39ce6060c01b610415565b6101ca67cd9f6cd69c3ff44b60c01b610415565b8060018190555050565b6101e8679b341850580a3cb860c01b610415565b6101fc67de5a648d4ca89bec60c01b610415565b8060038190555050565b60005481565b6000610222671b4bfbd5e0813bf260c01b610415565b61023667c0e391a82634818160c01b610415565b61024a674847d7f8337fd7df60c01b610415565b600354905090565b6000610268672f2dd4b86dbfc17b60c01b610415565b61027c67aed606def6b16b6f60c01b610415565b61029067891cd70de31acf2860c01b610415565b600454905090565b60006102ae67341a09d70c91193860c01b610418565b6102c267fd13858d30b4e0f360c01b610418565b6102d6679b977cd0c0a3bf3a60c01b610418565b426001541015610357576102f46727e4d34d0d1ff58b60c01b610418565b6103086779a9c7a6ba68d5cb60c01b610418565b61031c67eb1b54e909ec2d3560c01b610418565b6040517f08c379a000000000000000000000000000000000000000000000000000000000815260040161034e906104b5565b60405180910390fd5b61036b67ee820581ba1ab36760c01b610418565b61037f672a1ce9267ec3da9c60c01b610418565b61039367c59878417f2a2a4260c01b610418565b600254905090565b60025481565b60006103b7675b2adec7b1898d5660c01b610415565b6103cb67a4db7c073164fbb960c01b610415565b60086004546103da9190610501565b6004819055506103f46779d8631337a6731360c01b610415565b61040867074db7b0a1b75b2e60c01b610415565b6001905090565b60015481565b50565b50565b60008135905061042a816105c5565b92915050565b60006020828403121561044257600080fd5b60006104508482850161041b565b91505092915050565b61046281610557565b82525050565b6000610475600a836104f0565b91506104808261059c565b602082019050919050565b61049481610563565b82525050565b60006020820190506104af6000830184610459565b92915050565b600060208201905081810360008301526104ce81610468565b9050919050565b60006020820190506104ea600083018461048b565b92915050565b600082825260208201905092915050565b600061050c82610563565b915061051783610563565b9250827fffffffffffffffffffffffffffffffffffffffffffffffffffffffffffffffff0382111561054c5761054b61056d565b5b828201905092915050565b60008115159050919050565b6000819050919050565b7f4e487b7100000000000000000000000000000000000000000000000000000000600052601160045260246000fd5b7f7265736574466565282900000000000000000000000000000000000000000000600082015250565b6105ce81610563565b81146105d957600080fd5b5056fea26469706673582212202c4ed7d64c5719882dbb2c99bb16e05535ca4882d2115cf3a532678e29ac37bb64736f6c63430008020033","opcodes":"PUSH1 0x80 PUSH1 0x40 MSTORE PUSH1 0x1 PUSH1 0x3 SSTORE CALLVALUE DUP1 ISZERO PUSH2 0x15 JUMPI PUSH1 0x0 DUP1 REVERT JUMPDEST POP PUSH2 0x612 DUP1 PUSH2 0x25 PUSH1 0x0 CODECOPY PUSH1 0x0 RETURN INVALID PUSH1 0x80 PUSH1 0x40 MSTORE CALLVALUE DUP1 ISZERO PUSH2 0x10 JUMPI PUSH1 0x0 DUP1 REVERT JUMPDEST POP PUSH1 0x4 CALLDATASIZE LT PUSH2 0x93 JUMPI PUSH1 0x0 CALLDATALOAD PUSH1 0xE0 SHR DUP1 PUSH4 0xAED5F68D GT PUSH2 0x66 JUMPI DUP1 PUSH4 0xAED5F68D EQ PUSH2 0x10C JUMPI DUP1 PUSH4 0xCED72F87 EQ PUSH2 0x12A JUMPI DUP1 PUSH4 0xDDCA3F43 EQ PUSH2 0x148 JUMPI DUP1 PUSH4 0xE58456E9 EQ PUSH2 0x166 JUMPI DUP1 PUSH4 0xF5FA96E5 EQ PUSH2 0x184 JUMPI PUSH2 0x93 JUMP JUMPDEST DUP1 PUSH4 0xF4AD2BF EQ PUSH2 0x98 JUMPI DUP1 PUSH4 0x56CB30C4 EQ PUSH2 0xB4 JUMPI DUP1 PUSH4 0x57D775F8 EQ PUSH2 0xD0 JUMPI DUP1 PUSH4 0x7EEDA703 EQ PUSH2 0xEE JUMPI JUMPDEST PUSH1 0x0 DUP1 REVERT JUMPDEST PUSH2 0xB2 PUSH1 0x4 DUP1 CALLDATASIZE SUB DUP2 ADD SWAP1 PUSH2 0xAD SWAP2 SWAP1 PUSH2 0x430 JUMP JUMPDEST PUSH2 0x1A2 JUMP JUMPDEST STOP JUMPDEST PUSH2 0xCE PUSH1 0x4 DUP1 CALLDATASIZE SUB DUP2 ADD SWAP1 PUSH2 0xC9 SWAP2 SWAP1 PUSH2 0x430 JUMP JUMPDEST PUSH2 0x1D4 JUMP JUMPDEST STOP JUMPDEST PUSH2 0xD8 PUSH2 0x206 JUMP JUMPDEST PUSH1 0x40 MLOAD PUSH2 0xE5 SWAP2 SWAP1 PUSH2 0x4D5 JUMP JUMPDEST PUSH1 0x40 MLOAD DUP1 SWAP2 SUB SWAP1 RETURN JUMPDEST PUSH2 0xF6 PUSH2 0x20C JUMP JUMPDEST PUSH1 0x40 MLOAD PUSH2 0x103 SWAP2 SWAP1 PUSH2 0x4D5 JUMP JUMPDEST PUSH1 0x40 MLOAD DUP1 SWAP2 SUB SWAP1 RETURN JUMPDEST PUSH2 0x114 PUSH2 0x252 JUMP JUMPDEST PUSH1 0x40 MLOAD PUSH2 0x121 SWAP2 SWAP1 PUSH2 0x4D5 JUMP JUMPDEST PUSH1 0x40 MLOAD DUP1 SWAP2 SUB SWAP1 RETURN JUMPDEST PUSH2 0x132 PUSH2 0x298 JUMP JUMPDEST PUSH1 0x40 MLOAD PUSH2 0x13F SWAP2 SWAP1 PUSH2 0x4D5 JUMP JUMPDEST PUSH1 0x40 MLOAD DUP1 SWAP2 SUB SWAP1 RETURN JUMPDEST PUSH2 0x150 PUSH2 0x39B JUMP JUMPDEST PUSH1 0x40 MLOAD PUSH2 0x15D SWAP2 SWAP1 PUSH2 0x4D5 JUMP JUMPDEST PUSH1 0x40 MLOAD DUP1 SWAP2 SUB SWAP1 RETURN JUMPDEST PUSH2 0x16E PUSH2 0x3A1 JUMP JUMPDEST PUSH1 0x40 MLOAD PUSH2 0x17B SWAP2 SWAP1 PUSH2 0x49A JUMP JUMPDEST PUSH1 0x40 MLOAD DUP1 SWAP2 SUB SWAP1 RETURN JUMPDEST PUSH2 0x18C PUSH2 0x40F JUMP JUMPDEST PUSH1 0x40 MLOAD PUSH2 0x199 SWAP2 SWAP1 PUSH2 0x4D5 JUMP JUMPDEST PUSH1 0x40 MLOAD DUP1 SWAP2 SUB SWAP1 RETURN JUMPDEST PUSH2 0x1B6 PUSH8 0xBD4F2DAA7F39CE60 PUSH1 0xC0 SHL PUSH2 0x415 JUMP JUMPDEST PUSH2 0x1CA PUSH8 0xCD9F6CD69C3FF44B PUSH1 0xC0 SHL PUSH2 0x415 JUMP JUMPDEST DUP1 PUSH1 0x1 DUP2 SWAP1 SSTORE POP POP JUMP JUMPDEST PUSH2 0x1E8 PUSH8 0x9B341850580A3CB8 PUSH1 0xC0 SHL PUSH2 0x415 JUMP JUMPDEST PUSH2 0x1FC PUSH8 0xDE5A648D4CA89BEC PUSH1 0xC0 SHL PUSH2 0x415 JUMP JUMPDEST DUP1 PUSH1 0x3 DUP2 SWAP1 SSTORE POP POP JUMP JUMPDEST PUSH1 0x0 SLOAD DUP2 JUMP JUMPDEST PUSH1 0x0 PUSH2 0x222 PUSH8 0x1B4BFBD5E0813BF2 PUSH1 0xC0 SHL PUSH2 0x415 JUMP JUMPDEST PUSH2 0x236 PUSH8 0xC0E391A826348181 PUSH1 0xC0 SHL PUSH2 0x415 JUMP JUMPDEST PUSH2 0x24A PUSH8 0x4847D7F8337FD7DF PUSH1 0xC0 SHL PUSH2 0x415 JUMP JUMPDEST PUSH1 0x3 SLOAD SWAP1 POP SWAP1 JUMP JUMPDEST PUSH1 0x0 PUSH2 0x268 PUSH8 0x2F2DD4B86DBFC17B PUSH1 0xC0 SHL PUSH2 0x415 JUMP JUMPDEST PUSH2 0x27C PUSH8 0xAED606DEF6B16B6F PUSH1 0xC0 SHL PUSH2 0x415 JUMP JUMPDEST PUSH2 0x290 PUSH8 0x891CD70DE31ACF28 PUSH1 0xC0 SHL PUSH2 0x415 JUMP JUMPDEST PUSH1 0x4 SLOAD SWAP1 POP SWAP1 JUMP JUMPDEST PUSH1 0x0 PUSH2 0x2AE PUSH8 0x341A09D70C911938 PUSH1 0xC0 SHL PUSH2 0x418 JUMP JUMPDEST PUSH2 0x2C2 PUSH8 0xFD13858D30B4E0F3 PUSH1 0xC0 SHL PUSH2 0x418 JUMP JUMPDEST PUSH2 0x2D6 PUSH8 0x9B977CD0C0A3BF3A PUSH1 0xC0 SHL PUSH2 0x418 JUMP JUMPDEST TIMESTAMP PUSH1 0x1 SLOAD LT ISZERO PUSH2 0x357 JUMPI PUSH2 0x2F4 PUSH8 0x27E4D34D0D1FF58B PUSH1 0xC0 SHL PUSH2 0x418 JUMP JUMPDEST PUSH2 0x308 PUSH8 0x79A9C7A6BA68D5CB PUSH1 0xC0 SHL PUSH2 0x418 JUMP JUMPDEST PUSH2 0x31C PUSH8 0xEB1B54E909EC2D35 PUSH1 0xC0 SHL PUSH2 0x418 JUMP JUMPDEST PUSH1 0x40 MLOAD PUSH32 0x8C379A000000000000000000000000000000000000000000000000000000000 DUP2 MSTORE PUSH1 0x4 ADD PUSH2 0x34E SWAP1 PUSH2 0x4B5 JUMP JUMPDEST PUSH1 0x40 MLOAD DUP1 SWAP2 SUB SWAP1 REVERT JUMPDEST PUSH2 0x36B PUSH8 0xEE820581BA1AB367 PUSH1 0xC0 SHL PUSH2 0x418 JUMP JUMPDEST PUSH2 0x37F PUSH8 0x2A1CE9267EC3DA9C PUSH1 0xC0 SHL PUSH2 0x418 JUMP JUMPDEST PUSH2 0x393 PUSH8 0xC59878417F2A2A42 PUSH1 0xC0 SHL PUSH2 0x418 JUMP JUMPDEST PUSH1 0x2 SLOAD SWAP1 POP SWAP1 JUMP JUMPDEST PUSH1 0x2 SLOAD DUP2 JUMP JUMPDEST PUSH1 0x0 PUSH2 0x3B7 PUSH8 0x5B2ADEC7B1898D56 PUSH1 0xC0 SHL PUSH2 0x415 JUMP JUMPDEST PUSH2 0x3CB PUSH8 0xA4DB7C073164FBB9 PUSH1 0xC0 SHL PUSH2 0x415 JUMP JUMPDEST PUSH1 0x8 PUSH1 0x4 SLOAD PUSH2 0x3DA SWAP2 SWAP1 PUSH2 0x501 JUMP JUMPDEST PUSH1 0x4 DUP2 SWAP1 SSTORE POP PUSH2 0x3F4 PUSH8 0x79D8631337A67313 PUSH1 0xC0 SHL PUSH2 0x415 JUMP JUMPDEST PUSH2 0x408 PUSH8 0x74DB7B0A1B75B2E PUSH1 0xC0 SHL PUSH2 0x415 JUMP JUMPDEST PUSH1 0x1 SWAP1 POP SWAP1 JUMP JUMPDEST PUSH1 0x1 SLOAD DUP2 JUMP JUMPDEST POP JUMP JUMPDEST POP JUMP JUMPDEST PUSH1 0x0 DUP2 CALLDATALOAD SWAP1 POP PUSH2 0x42A DUP2 PUSH2 0x5C5 JUMP JUMPDEST SWAP3 SWAP2 POP POP JUMP JUMPDEST PUSH1 0x0 PUSH1 0x20 DUP3 DUP5 SUB SLT ISZERO PUSH2 0x442 JUMPI PUSH1 0x0 DUP1 REVERT JUMPDEST PUSH1 0x0 PUSH2 0x450 DUP5 DUP3 DUP6 ADD PUSH2 0x41B JUMP JUMPDEST SWAP2 POP POP SWAP3 SWAP2 POP POP JUMP JUMPDEST PUSH2 0x462 DUP2 PUSH2 0x557 JUMP JUMPDEST DUP3 MSTORE POP POP JUMP JUMPDEST PUSH1 0x0 PUSH2 0x475 PUSH1 0xA DUP4 PUSH2 0x4F0 JUMP JUMPDEST SWAP2 POP PUSH2 0x480 DUP3 PUSH2 0x59C JUMP JUMPDEST PUSH1 0x20 DUP3 ADD SWAP1 POP SWAP2 SWAP1 POP JUMP JUMPDEST PUSH2 0x494 DUP2 PUSH2 0x563 JUMP JUMPDEST DUP3 MSTORE POP POP JUMP JUMPDEST PUSH1 0x0 PUSH1 0x20 DUP3 ADD SWAP1 POP PUSH2 0x4AF PUSH1 0x0 DUP4 ADD DUP5 PUSH2 0x459 JUMP JUMPDEST SWAP3 SWAP2 POP POP JUMP JUMPDEST PUSH1 0x0 PUSH1 0x20 DUP3 ADD SWAP1 POP DUP2 DUP2 SUB PUSH1 0x0 DUP4 ADD MSTORE PUSH2 0x4CE DUP2 PUSH2 0x468 JUMP JUMPDEST SWAP1 POP SWAP2 SWAP1 POP JUMP JUMPDEST PUSH1 0x0 PUSH1 0x20 DUP3 ADD SWAP1 POP PUSH2 0x4EA PUSH1 0x0 DUP4 ADD DUP5 PUSH2 0x48B JUMP JUMPDEST SWAP3 SWAP2 POP POP JUMP JUMPDEST PUSH1 0x0 DUP3 DUP3 MSTORE PUSH1 0x20 DUP3 ADD SWAP1 POP SWAP3 SWAP2 POP POP JUMP JUMPDEST PUSH1 0x0 PUSH2 0x50C DUP3 PUSH2 0x563 JUMP JUMPDEST SWAP2 POP PUSH2 0x517 DUP4 PUSH2 0x563 JUMP JUMPDEST SWAP3 POP DUP3 PUSH32 0xFFFFFFFFFFFFFFFFFFFFFFFFFFFFFFFFFFFFFFFFFFFFFFFFFFFFFFFFFFFFFFFF SUB DUP3 GT ISZERO PUSH2 0x54C JUMPI PUSH2 0x54B PUSH2 0x56D JUMP JUMPDEST JUMPDEST DUP3 DUP3 ADD SWAP1 POP SWAP3 SWAP2 POP POP JUMP JUMPDEST PUSH1 0x0 DUP2 ISZERO ISZERO SWAP1 POP SWAP2 SWAP1 POP JUMP JUMPDEST PUSH1 0x0 DUP2 SWAP1 POP SWAP2 SWAP1 POP JUMP JUMPDEST PUSH32 0x4E487B7100000000000000000000000000000000000000000000000000000000 PUSH1 0x0 MSTORE PUSH1 0x11 PUSH1 0x4 MSTORE PUSH1 0x24 PUSH1 0x0 REVERT JUMPDEST PUSH32 0x7265736574466565282900000000000000000000000000000000000000000000 PUSH1 0x0 DUP3 ADD MSTORE POP JUMP JUMPDEST PUSH2 0x5CE DUP2 PUSH2 0x563 JUMP JUMPDEST DUP2 EQ PUSH2 0x5D9 JUMPI PUSH1 0x0 DUP1 REVERT JUMPDEST POP JUMP INVALID LOG2 PUSH5 0x6970667358 0x22 SLT KECCAK256 0x2C 0x4E 0xD7 0xD6 0x4C JUMPI NOT DUP9 0x2D 0xBB 0x2C SWAP10 0xBB AND 0xE0 SSTORE CALLDATALOAD 0xCA 0x48 DUP3 0xD2 GT 0x5C RETURN 0xA5 ORIGIN PUSH8 0x8E29AC37BB64736F PUSH13 0x63430008020033000000000000 "},"methodIdentifiers":{"consult()":"7eeda703","epochLength()":"57d775f8","fee()":"ddca3f43","getFee()":"ced72f87","refreshOracle()":"e58456e9","requiredReset()":"f5fa96e5","setPriceAverage(uint256)":"56cb30c4","setRequiredReset(uint256)":"0f4ad2bf","viewJustKeepAdding()":"aed5f68d"}},"storageLayout":{"storage":[{"astId":2600,"contract":"contracts/DUMMYDONOTDEPLOY.sol:FeeOracle","label":"epochLength","offset":0,"slot":"0","type":"t_uint256"},{"astId":2602,"contract":"contracts/DUMMYDONOTDEPLOY.sol:FeeOracle","label":"requiredReset","offset":0,"slot":"1","type":"t_uint256"},{"astId":2604,"contract":"contracts/DUMMYDONOTDEPLOY.sol:FeeOracle","label":"fee","offset":0,"slot":"2","type":"t_uint256"},{"astId":2280,"contract":"contracts/DUMMYDONOTDEPLOY.sol:FeeOracle","label":"priceAverage","offset":0,"slot":"3","type":"t_uint256"},{"astId":2282,"contract":"contracts/DUMMYDONOTDEPLOY.sol:FeeOracle","label":"justKeepAdding","offset":0,"slot":"4","type":"t_uint256"}],"types":{"t_uint256":{"encoding":"inplace","label":"uint256","numberOfBytes":"32"}}}}}}