{"contracts/H1NativeApplication.sol":{"H1NativeApplication":{"abi":[{"inputs":[{"internalType":"address","name":"_FeeContract","type":"address"}],"stateMutability":"nonpayable","type":"constructor"},{"inputs":[],"name":"FeeContract","outputs":[{"internalType":"address","name":"","type":"address"}],"stateMutability":"view","type":"function"},{"inputs":[],"name":"FeeQueryNative","outputs":[{"internalType":"contract FeeQuery","name":"","type":"address"}],"stateMutability":"view","type":"function"},{"inputs":[],"name":"callFee","outputs":[{"internalType":"uint256","name":"","type":"uint256"}],"stateMutability":"view","type":"function"},{"inputs":[],"name":"epochLength","outputs":[{"internalType":"uint256","name":"","type":"uint256"}],"stateMutability":"view","type":"function"},{"inputs":[],"name":"fee","outputs":[{"internalType":"uint256","name":"","type":"uint256"}],"stateMutability":"view","type":"function"},{"inputs":[],"name":"getFee","outputs":[{"internalType":"uint256","name":"","type":"uint256"}],"stateMutability":"view","type":"function"},{"inputs":[],"name":"requiredReset","outputs":[{"internalType":"uint256","name":"","type":"uint256"}],"stateMutability":"view","type":"function"}],"evm":{"bytecode":{"linkReferences":{},"object":"60806040523480156200001157600080fd5b506040516200097c3803806200097c8339818101604052810190620000379190620002a6565b6200005367b1eaf8e13f3b39b760c01b6200028c60201b60201c565b6200006f677e2eeec893e065c260c01b6200028c60201b60201c565b6200008b6776ccba1177afc08760c01b6200028c60201b60201c565b600073ffffffffffffffffffffffffffffffffffffffff168173ffffffffffffffffffffffffffffffffffffffff1614156200018957620000dd6783a180d24a206f1a60c01b6200028c60201b60201c565b620000f9674721ffdb6942706460c01b6200028c60201b60201c565b62000115675f657bd19e48d0eb60c01b6200028c60201b60201c565b6040518060400160405280600381526020017f31323300000000000000000000000000000000000000000000000000000000008152506040517f08c379a000000000000000000000000000000000000000000000000000000000815260040162000180919062000313565b60405180910390fd5b620001a567e84559ea25e318ee60c01b6200028c60201b60201c565b620001c167ce0e9487806c2a8760c01b6200028c60201b60201c565b80600360006101000a81548173ffffffffffffffffffffffffffffffffffffffff021916908373ffffffffffffffffffffffffffffffffffffffff1602179055506200021e675f33f19d9bd6e76460c01b6200028c60201b60201c565b80600460006101000a81548173ffffffffffffffffffffffffffffffffffffffff021916908373ffffffffffffffffffffffffffffffffffffffff1602179055506200027b67f69d5bf1e59f78b360c01b6200028c60201b60201c565b6201518060008190555050620003e8565b50565b600081519050620002a081620003ce565b92915050565b600060208284031215620002b957600080fd5b6000620002c9848285016200028f565b91505092915050565b6000620002df8262000337565b620002eb818562000342565b9350620002fd81856020860162000387565b6200030881620003bd565b840191505092915050565b600060208201905081810360008301526200032f8184620002d2565b905092915050565b600081519050919050565b600082825260208201905092915050565b6000620003608262000367565b9050919050565b600073ffffffffffffffffffffffffffffffffffffffff82169050919050565b60005b83811015620003a75780820151818401526020810190506200038a565b83811115620003b7576000848401525b50505050565b6000601f19601f8301169050919050565b620003d98162000353565b8114620003e557600080fd5b50565b61058480620003f86000396000f3fe608060405234801561001057600080fd5b506004361061007d5760003560e01c8063ab407bb61161005b578063ab407bb6146100dc578063ced72f87146100fa578063ddca3f4314610118578063f5fa96e5146101365761007d565b8063207ccfea1461008257806357d775f8146100a057806390321e1a146100be575b600080fd5b61008a610154565b604051610097919061042c565b60405180910390f35b6100a861017a565b6040516100b59190610482565b60405180910390f35b6100c6610180565b6040516100d39190610482565b60405180910390f35b6100e4610263565b6040516100f19190610447565b60405180910390f35b610102610289565b60405161010f9190610482565b60405180910390f35b61012061038c565b60405161012d9190610482565b60405180910390f35b61013e610392565b60405161014b9190610482565b60405180910390f35b600360009054906101000a900473ffffffffffffffffffffffffffffffffffffffff1681565b60005481565b600061019667f593b98ad4a8d6ae60c01b610398565b6101aa67924dcbdeb069767460c01b610398565b6101be67111a410acca6edcf60c01b610398565b600360009054906101000a900473ffffffffffffffffffffffffffffffffffffffff1673ffffffffffffffffffffffffffffffffffffffff1663ced72f876040518163ffffffff1660e01b815260040160206040518083038186803b15801561022657600080fd5b505afa15801561023a573d6000803e3d6000fd5b505050506040513d601f19601f8201168201806040525081019061025e91906103b3565b905090565b600460009054906101000a900473ffffffffffffffffffffffffffffffffffffffff1681565b600061029f6705bb0c25ff05bb3260c01b61039b565b6102b36731301bec022fdee560c01b61039b565b6102c767463f38798a2f6ea560c01b61039b565b426001541015610348576102e567341a09d70c91193860c01b61039b565b6102f967fd13858d30b4e0f360c01b61039b565b61030d679b977cd0c0a3bf3a60c01b61039b565b6040517f08c379a000000000000000000000000000000000000000000000000000000000815260040161033f90610462565b60405180910390fd5b61035c6727e4d34d0d1ff58b60c01b61039b565b6103706779a9c7a6ba68d5cb60c01b61039b565b61038467eb1b54e909ec2d3560c01b61039b565b600254905090565b60025481565b60015481565b50565b50565b6000815190506103ad81610537565b92915050565b6000602082840312156103c557600080fd5b60006103d38482850161039e565b91505092915050565b6103e5816104ae565b82525050565b6103f4816104ea565b82525050565b6000610407600a8361049d565b91506104128261050e565b602082019050919050565b610426816104e0565b82525050565b600060208201905061044160008301846103dc565b92915050565b600060208201905061045c60008301846103eb565b92915050565b6000602082019050818103600083015261047b816103fa565b9050919050565b6000602082019050610497600083018461041d565b92915050565b600082825260208201905092915050565b60006104b9826104c0565b9050919050565b600073ffffffffffffffffffffffffffffffffffffffff82169050919050565b6000819050919050565b60006104f5826104fc565b9050919050565b6000610507826104c0565b9050919050565b7f7265736574466565282900000000000000000000000000000000000000000000600082015250565b610540816104e0565b811461054b57600080fd5b5056fea2646970667358221220b388e5348a4d23f9e4c6d3464a1b88039b3525bae3f2e7c00dc3e18b5786f6bf64736f6c63430008020033","opcodes":"PUSH1 0x80 PUSH1 0x40 MSTORE CALLVALUE DUP1 ISZERO PUSH3 0x11 JUMPI PUSH1 0x0 DUP1 REVERT JUMPDEST POP PUSH1 0x40 MLOAD PUSH3 0x97C CODESIZE SUB DUP1 PUSH3 0x97C DUP4 CODECOPY DUP2 DUP2 ADD PUSH1 0x40 MSTORE DUP2 ADD SWAP1 PUSH3 0x37 SWAP2 SWAP1 PUSH3 0x2A6 JUMP JUMPDEST PUSH3 0x53 PUSH8 0xB1EAF8E13F3B39B7 PUSH1 0xC0 SHL PUSH3 0x28C PUSH1 0x20 SHL PUSH1 0x20 SHR JUMP JUMPDEST PUSH3 0x6F PUSH8 0x7E2EEEC893E065C2 PUSH1 0xC0 SHL PUSH3 0x28C PUSH1 0x20 SHL PUSH1 0x20 SHR JUMP JUMPDEST PUSH3 0x8B PUSH8 0x76CCBA1177AFC087 PUSH1 0xC0 SHL PUSH3 0x28C PUSH1 0x20 SHL PUSH1 0x20 SHR JUMP JUMPDEST PUSH1 0x0 PUSH20 0xFFFFFFFFFFFFFFFFFFFFFFFFFFFFFFFFFFFFFFFF AND DUP2 PUSH20 0xFFFFFFFFFFFFFFFFFFFFFFFFFFFFFFFFFFFFFFFF AND EQ ISZERO PUSH3 0x189 JUMPI PUSH3 0xDD PUSH8 0x83A180D24A206F1A PUSH1 0xC0 SHL PUSH3 0x28C PUSH1 0x20 SHL PUSH1 0x20 SHR JUMP JUMPDEST PUSH3 0xF9 PUSH8 0x4721FFDB69427064 PUSH1 0xC0 SHL PUSH3 0x28C PUSH1 0x20 SHL PUSH1 0x20 SHR JUMP JUMPDEST PUSH3 0x115 PUSH8 0x5F657BD19E48D0EB PUSH1 0xC0 SHL PUSH3 0x28C PUSH1 0x20 SHL PUSH1 0x20 SHR JUMP JUMPDEST PUSH1 0x40 MLOAD DUP1 PUSH1 0x40 ADD PUSH1 0x40 MSTORE DUP1 PUSH1 0x3 DUP2 MSTORE PUSH1 0x20 ADD PUSH32 0x3132330000000000000000000000000000000000000000000000000000000000 DUP2 MSTORE POP PUSH1 0x40 MLOAD PUSH32 0x8C379A000000000000000000000000000000000000000000000000000000000 DUP2 MSTORE PUSH1 0x4 ADD PUSH3 0x180 SWAP2 SWAP1 PUSH3 0x313 JUMP JUMPDEST PUSH1 0x40 MLOAD DUP1 SWAP2 SUB SWAP1 REVERT JUMPDEST PUSH3 0x1A5 PUSH8 0xE84559EA25E318EE PUSH1 0xC0 SHL PUSH3 0x28C PUSH1 0x20 SHL PUSH1 0x20 SHR JUMP JUMPDEST PUSH3 0x1C1 PUSH8 0xCE0E9487806C2A87 PUSH1 0xC0 SHL PUSH3 0x28C PUSH1 0x20 SHL PUSH1 0x20 SHR JUMP JUMPDEST DUP1 PUSH1 0x3 PUSH1 0x0 PUSH2 0x100 EXP DUP2 SLOAD DUP2 PUSH20 0xFFFFFFFFFFFFFFFFFFFFFFFFFFFFFFFFFFFFFFFF MUL NOT AND SWAP1 DUP4 PUSH20 0xFFFFFFFFFFFFFFFFFFFFFFFFFFFFFFFFFFFFFFFF AND MUL OR SWAP1 SSTORE POP PUSH3 0x21E PUSH8 0x5F33F19D9BD6E764 PUSH1 0xC0 SHL PUSH3 0x28C PUSH1 0x20 SHL PUSH1 0x20 SHR JUMP JUMPDEST DUP1 PUSH1 0x4 PUSH1 0x0 PUSH2 0x100 EXP DUP2 SLOAD DUP2 PUSH20 0xFFFFFFFFFFFFFFFFFFFFFFFFFFFFFFFFFFFFFFFF MUL NOT AND SWAP1 DUP4 PUSH20 0xFFFFFFFFFFFFFFFFFFFFFFFFFFFFFFFFFFFFFFFF AND MUL OR SWAP1 SSTORE POP PUSH3 0x27B PUSH8 0xF69D5BF1E59F78B3 PUSH1 0xC0 SHL PUSH3 0x28C PUSH1 0x20 SHL PUSH1 0x20 SHR JUMP JUMPDEST PUSH3 0x15180 PUSH1 0x0 DUP2 SWAP1 SSTORE POP POP PUSH3 0x3E8 JUMP JUMPDEST POP JUMP JUMPDEST PUSH1 0x0 DUP2 MLOAD SWAP1 POP PUSH3 0x2A0 DUP2 PUSH3 0x3CE JUMP JUMPDEST SWAP3 SWAP2 POP POP JUMP JUMPDEST PUSH1 0x0 PUSH1 0x20 DUP3 DUP5 SUB SLT ISZERO PUSH3 0x2B9 JUMPI PUSH1 0x0 DUP1 REVERT JUMPDEST PUSH1 0x0 PUSH3 0x2C9 DUP5 DUP3 DUP6 ADD PUSH3 0x28F JUMP JUMPDEST SWAP2 POP POP SWAP3 SWAP2 POP POP JUMP JUMPDEST PUSH1 0x0 PUSH3 0x2DF DUP3 PUSH3 0x337 JUMP JUMPDEST PUSH3 0x2EB DUP2 DUP6 PUSH3 0x342 JUMP JUMPDEST SWAP4 POP PUSH3 0x2FD DUP2 DUP6 PUSH1 0x20 DUP7 ADD PUSH3 0x387 JUMP JUMPDEST PUSH3 0x308 DUP2 PUSH3 0x3BD JUMP JUMPDEST DUP5 ADD SWAP2 POP POP SWAP3 SWAP2 POP POP JUMP JUMPDEST PUSH1 0x0 PUSH1 0x20 DUP3 ADD SWAP1 POP DUP2 DUP2 SUB PUSH1 0x0 DUP4 ADD MSTORE PUSH3 0x32F DUP2 DUP5 PUSH3 0x2D2 JUMP JUMPDEST SWAP1 POP SWAP3 SWAP2 POP POP JUMP JUMPDEST PUSH1 0x0 DUP2 MLOAD SWAP1 POP SWAP2 SWAP1 POP JUMP JUMPDEST PUSH1 0x0 DUP3 DUP3 MSTORE PUSH1 0x20 DUP3 ADD SWAP1 POP SWAP3 SWAP2 POP POP JUMP JUMPDEST PUSH1 0x0 PUSH3 0x360 DUP3 PUSH3 0x367 JUMP JUMPDEST SWAP1 POP SWAP2 SWAP1 POP JUMP JUMPDEST PUSH1 0x0 PUSH20 0xFFFFFFFFFFFFFFFFFFFFFFFFFFFFFFFFFFFFFFFF DUP3 AND SWAP1 POP SWAP2 SWAP1 POP JUMP JUMPDEST PUSH1 0x0 JUMPDEST DUP4 DUP2 LT ISZERO PUSH3 0x3A7 JUMPI DUP1 DUP3 ADD MLOAD DUP2 DUP5 ADD MSTORE PUSH1 0x20 DUP2 ADD SWAP1 POP PUSH3 0x38A JUMP JUMPDEST DUP4 DUP2 GT ISZERO PUSH3 0x3B7 JUMPI PUSH1 0x0 DUP5 DUP5 ADD MSTORE JUMPDEST POP POP POP POP JUMP JUMPDEST PUSH1 0x0 PUSH1 0x1F NOT PUSH1 0x1F DUP4 ADD AND SWAP1 POP SWAP2 SWAP1 POP JUMP JUMPDEST PUSH3 0x3D9 DUP2 PUSH3 0x353 JUMP JUMPDEST DUP2 EQ PUSH3 0x3E5 JUMPI PUSH1 0x0 DUP1 REVERT JUMPDEST POP JUMP JUMPDEST PUSH2 0x584 DUP1 PUSH3 0x3F8 PUSH1 0x0 CODECOPY PUSH1 0x0 RETURN INVALID PUSH1 0x80 PUSH1 0x40 MSTORE CALLVALUE DUP1 ISZERO PUSH2 0x10 JUMPI PUSH1 0x0 DUP1 REVERT JUMPDEST POP PUSH1 0x4 CALLDATASIZE LT PUSH2 0x7D JUMPI PUSH1 0x0 CALLDATALOAD PUSH1 0xE0 SHR DUP1 PUSH4 0xAB407BB6 GT PUSH2 0x5B JUMPI DUP1 PUSH4 0xAB407BB6 EQ PUSH2 0xDC JUMPI DUP1 PUSH4 0xCED72F87 EQ PUSH2 0xFA JUMPI DUP1 PUSH4 0xDDCA3F43 EQ PUSH2 0x118 JUMPI DUP1 PUSH4 0xF5FA96E5 EQ PUSH2 0x136 JUMPI PUSH2 0x7D JUMP JUMPDEST DUP1 PUSH4 0x207CCFEA EQ PUSH2 0x82 JUMPI DUP1 PUSH4 0x57D775F8 EQ PUSH2 0xA0 JUMPI DUP1 PUSH4 0x90321E1A EQ PUSH2 0xBE JUMPI JUMPDEST PUSH1 0x0 DUP1 REVERT JUMPDEST PUSH2 0x8A PUSH2 0x154 JUMP JUMPDEST PUSH1 0x40 MLOAD PUSH2 0x97 SWAP2 SWAP1 PUSH2 0x42C JUMP JUMPDEST PUSH1 0x40 MLOAD DUP1 SWAP2 SUB SWAP1 RETURN JUMPDEST PUSH2 0xA8 PUSH2 0x17A JUMP JUMPDEST PUSH1 0x40 MLOAD PUSH2 0xB5 SWAP2 SWAP1 PUSH2 0x482 JUMP JUMPDEST PUSH1 0x40 MLOAD DUP1 SWAP2 SUB SWAP1 RETURN JUMPDEST PUSH2 0xC6 PUSH2 0x180 JUMP JUMPDEST PUSH1 0x40 MLOAD PUSH2 0xD3 SWAP2 SWAP1 PUSH2 0x482 JUMP JUMPDEST PUSH1 0x40 MLOAD DUP1 SWAP2 SUB SWAP1 RETURN JUMPDEST PUSH2 0xE4 PUSH2 0x263 JUMP JUMPDEST PUSH1 0x40 MLOAD PUSH2 0xF1 SWAP2 SWAP1 PUSH2 0x447 JUMP JUMPDEST PUSH1 0x40 MLOAD DUP1 SWAP2 SUB SWAP1 RETURN JUMPDEST PUSH2 0x102 PUSH2 0x289 JUMP JUMPDEST PUSH1 0x40 MLOAD PUSH2 0x10F SWAP2 SWAP1 PUSH2 0x482 JUMP JUMPDEST PUSH1 0x40 MLOAD DUP1 SWAP2 SUB SWAP1 RETURN JUMPDEST PUSH2 0x120 PUSH2 0x38C JUMP JUMPDEST PUSH1 0x40 MLOAD PUSH2 0x12D SWAP2 SWAP1 PUSH2 0x482 JUMP JUMPDEST PUSH1 0x40 MLOAD DUP1 SWAP2 SUB SWAP1 RETURN JUMPDEST PUSH2 0x13E PUSH2 0x392 JUMP JUMPDEST PUSH1 0x40 MLOAD PUSH2 0x14B SWAP2 SWAP1 PUSH2 0x482 JUMP JUMPDEST PUSH1 0x40 MLOAD DUP1 SWAP2 SUB SWAP1 RETURN JUMPDEST PUSH1 0x3 PUSH1 0x0 SWAP1 SLOAD SWAP1 PUSH2 0x100 EXP SWAP1 DIV PUSH20 0xFFFFFFFFFFFFFFFFFFFFFFFFFFFFFFFFFFFFFFFF AND DUP2 JUMP JUMPDEST PUSH1 0x0 SLOAD DUP2 JUMP JUMPDEST PUSH1 0x0 PUSH2 0x196 PUSH8 0xF593B98AD4A8D6AE PUSH1 0xC0 SHL PUSH2 0x398 JUMP JUMPDEST PUSH2 0x1AA PUSH8 0x924DCBDEB0697674 PUSH1 0xC0 SHL PUSH2 0x398 JUMP JUMPDEST PUSH2 0x1BE PUSH8 0x111A410ACCA6EDCF PUSH1 0xC0 SHL PUSH2 0x398 JUMP JUMPDEST PUSH1 0x3 PUSH1 0x0 SWAP1 SLOAD SWAP1 PUSH2 0x100 EXP SWAP1 DIV PUSH20 0xFFFFFFFFFFFFFFFFFFFFFFFFFFFFFFFFFFFFFFFF AND PUSH20 0xFFFFFFFFFFFFFFFFFFFFFFFFFFFFFFFFFFFFFFFF AND PUSH4 0xCED72F87 PUSH1 0x40 MLOAD DUP2 PUSH4 0xFFFFFFFF AND PUSH1 0xE0 SHL DUP2 MSTORE PUSH1 0x4 ADD PUSH1 0x20 PUSH1 0x40 MLOAD DUP1 DUP4 SUB DUP2 DUP7 DUP1 EXTCODESIZE ISZERO DUP1 ISZERO PUSH2 0x226 JUMPI PUSH1 0x0 DUP1 REVERT JUMPDEST POP GAS STATICCALL ISZERO DUP1 ISZERO PUSH2 0x23A JUMPI RETURNDATASIZE PUSH1 0x0 DUP1 RETURNDATACOPY RETURNDATASIZE PUSH1 0x0 REVERT JUMPDEST POP POP POP POP PUSH1 0x40 MLOAD RETURNDATASIZE PUSH1 0x1F NOT PUSH1 0x1F DUP3 ADD AND DUP3 ADD DUP1 PUSH1 0x40 MSTORE POP DUP2 ADD SWAP1 PUSH2 0x25E SWAP2 SWAP1 PUSH2 0x3B3 JUMP JUMPDEST SWAP1 POP SWAP1 JUMP JUMPDEST PUSH1 0x4 PUSH1 0x0 SWAP1 SLOAD SWAP1 PUSH2 0x100 EXP SWAP1 DIV PUSH20 0xFFFFFFFFFFFFFFFFFFFFFFFFFFFFFFFFFFFFFFFF AND DUP2 JUMP JUMPDEST PUSH1 0x0 PUSH2 0x29F PUSH8 0x5BB0C25FF05BB32 PUSH1 0xC0 SHL PUSH2 0x39B JUMP JUMPDEST PUSH2 0x2B3 PUSH8 0x31301BEC022FDEE5 PUSH1 0xC0 SHL PUSH2 0x39B JUMP JUMPDEST PUSH2 0x2C7 PUSH8 0x463F38798A2F6EA5 PUSH1 0xC0 SHL PUSH2 0x39B JUMP JUMPDEST TIMESTAMP PUSH1 0x1 SLOAD LT ISZERO PUSH2 0x348 JUMPI PUSH2 0x2E5 PUSH8 0x341A09D70C911938 PUSH1 0xC0 SHL PUSH2 0x39B JUMP JUMPDEST PUSH2 0x2F9 PUSH8 0xFD13858D30B4E0F3 PUSH1 0xC0 SHL PUSH2 0x39B JUMP JUMPDEST PUSH2 0x30D PUSH8 0x9B977CD0C0A3BF3A PUSH1 0xC0 SHL PUSH2 0x39B JUMP JUMPDEST PUSH1 0x40 MLOAD PUSH32 0x8C379A000000000000000000000000000000000000000000000000000000000 DUP2 MSTORE PUSH1 0x4 ADD PUSH2 0x33F SWAP1 PUSH2 0x462 JUMP JUMPDEST PUSH1 0x40 MLOAD DUP1 SWAP2 SUB SWAP1 REVERT JUMPDEST PUSH2 0x35C PUSH8 0x27E4D34D0D1FF58B PUSH1 0xC0 SHL PUSH2 0x39B JUMP JUMPDEST PUSH2 0x370 PUSH8 0x79A9C7A6BA68D5CB PUSH1 0xC0 SHL PUSH2 0x39B JUMP JUMPDEST PUSH2 0x384 PUSH8 0xEB1B54E909EC2D35 PUSH1 0xC0 SHL PUSH2 0x39B JUMP JUMPDEST PUSH1 0x2 SLOAD SWAP1 POP SWAP1 JUMP JUMPDEST PUSH1 0x2 SLOAD DUP2 JUMP JUMPDEST PUSH1 0x1 SLOAD DUP2 JUMP JUMPDEST POP JUMP JUMPDEST POP JUMP JUMPDEST PUSH1 0x0 DUP2 MLOAD SWAP1 POP PUSH2 0x3AD DUP2 PUSH2 0x537 JUMP JUMPDEST SWAP3 SWAP2 POP POP JUMP JUMPDEST PUSH1 0x0 PUSH1 0x20 DUP3 DUP5 SUB SLT ISZERO PUSH2 0x3C5 JUMPI PUSH1 0x0 DUP1 REVERT JUMPDEST PUSH1 0x0 PUSH2 0x3D3 DUP5 DUP3 DUP6 ADD PUSH2 0x39E JUMP JUMPDEST SWAP2 POP POP SWAP3 SWAP2 POP POP JUMP JUMPDEST PUSH2 0x3E5 DUP2 PUSH2 0x4AE JUMP JUMPDEST DUP3 MSTORE POP POP JUMP JUMPDEST PUSH2 0x3F4 DUP2 PUSH2 0x4EA JUMP JUMPDEST DUP3 MSTORE POP POP JUMP JUMPDEST PUSH1 0x0 PUSH2 0x407 PUSH1 0xA DUP4 PUSH2 0x49D JUMP JUMPDEST SWAP2 POP PUSH2 0x412 DUP3 PUSH2 0x50E JUMP JUMPDEST PUSH1 0x20 DUP3 ADD SWAP1 POP SWAP2 SWAP1 POP JUMP JUMPDEST PUSH2 0x426 DUP2 PUSH2 0x4E0 JUMP JUMPDEST DUP3 MSTORE POP POP JUMP JUMPDEST PUSH1 0x0 PUSH1 0x20 DUP3 ADD SWAP1 POP PUSH2 0x441 PUSH1 0x0 DUP4 ADD DUP5 PUSH2 0x3DC JUMP JUMPDEST SWAP3 SWAP2 POP POP JUMP JUMPDEST PUSH1 0x0 PUSH1 0x20 DUP3 ADD SWAP1 POP PUSH2 0x45C PUSH1 0x0 DUP4 ADD DUP5 PUSH2 0x3EB JUMP JUMPDEST SWAP3 SWAP2 POP POP JUMP JUMPDEST PUSH1 0x0 PUSH1 0x20 DUP3 ADD SWAP1 POP DUP2 DUP2 SUB PUSH1 0x0 DUP4 ADD MSTORE PUSH2 0x47B DUP2 PUSH2 0x3FA JUMP JUMPDEST SWAP1 POP SWAP2 SWAP1 POP JUMP JUMPDEST PUSH1 0x0 PUSH1 0x20 DUP3 ADD SWAP1 POP PUSH2 0x497 PUSH1 0x0 DUP4 ADD DUP5 PUSH2 0x41D JUMP JUMPDEST SWAP3 SWAP2 POP POP JUMP JUMPDEST PUSH1 0x0 DUP3 DUP3 MSTORE PUSH1 0x20 DUP3 ADD SWAP1 POP SWAP3 SWAP2 POP POP JUMP JUMPDEST PUSH1 0x0 PUSH2 0x4B9 DUP3 PUSH2 0x4C0 JUMP JUMPDEST SWAP1 POP SWAP2 SWAP1 POP JUMP JUMPDEST PUSH1 0x0 PUSH20 0xFFFFFFFFFFFFFFFFFFFFFFFFFFFFFFFFFFFFFFFF DUP3 AND SWAP1 POP SWAP2 SWAP1 POP JUMP JUMPDEST PUSH1 0x0 DUP2 SWAP1 POP SWAP2 SWAP1 POP JUMP JUMPDEST PUSH1 0x0 PUSH2 0x4F5 DUP3 PUSH2 0x4FC JUMP JUMPDEST SWAP1 POP SWAP2 SWAP1 POP JUMP JUMPDEST PUSH1 0x0 PUSH2 0x507 DUP3 PUSH2 0x4C0 JUMP JUMPDEST SWAP1 POP SWAP2 SWAP1 POP JUMP JUMPDEST PUSH32 0x7265736574466565282900000000000000000000000000000000000000000000 PUSH1 0x0 DUP3 ADD MSTORE POP JUMP JUMPDEST PUSH2 0x540 DUP2 PUSH2 0x4E0 JUMP JUMPDEST DUP2 EQ PUSH2 0x54B JUMPI PUSH1 0x0 DUP1 REVERT JUMPDEST POP JUMP INVALID LOG2 PUSH5 0x6970667358 0x22 SLT KECCAK256 0xB3 DUP9 0xE5 CALLVALUE DUP11 0x4D 0x23 0xF9 0xE4 0xC6 0xD3 CHAINID 0x4A SHL DUP9 SUB SWAP12 CALLDATALOAD 0x25 0xBA 0xE3 CALLCODE 0xE7 0xC0 0xD 0xC3 0xE1 DUP12 JUMPI DUP7 0xF6 0xBF PUSH5 0x736F6C6343 STOP ADDMOD MUL STOP CALLER "},"methodIdentifiers":{"FeeContract()":"207ccfea","FeeQueryNative()":"ab407bb6","callFee()":"90321e1a","epochLength()":"57d775f8","fee()":"ddca3f43","getFee()":"ced72f87","requiredReset()":"f5fa96e5"}},"storageLayout":{"storage":[{"astId":210,"contract":"contracts/H1NativeApplication.sol:H1NativeApplication","label":"epochLength","offset":0,"slot":"0","type":"t_uint256"},{"astId":212,"contract":"contracts/H1NativeApplication.sol:H1NativeApplication","label":"requiredReset","offset":0,"slot":"1","type":"t_uint256"},{"astId":214,"contract":"contracts/H1NativeApplication.sol:H1NativeApplication","label":"fee","offset":0,"slot":"2","type":"t_uint256"},{"astId":332,"contract":"contracts/H1NativeApplication.sol:H1NativeApplication","label":"FeeContract","offset":0,"slot":"3","type":"t_address"},{"astId":335,"contract":"contracts/H1NativeApplication.sol:H1NativeApplication","label":"FeeQueryNative","offset":0,"slot":"4","type":"t_contract(FeeQuery)271"}],"types":{"t_address":{"encoding":"inplace","label":"address","numberOfBytes":"20"},"t_contract(FeeQuery)271":{"encoding":"inplace","label":"contract FeeQuery","numberOfBytes":"20"},"t_uint256":{"encoding":"inplace","label":"uint256","numberOfBytes":"32"}}}}}}