{"contracts/FeeQuery.sol":{"FeeQuery":{"abi":[{"inputs":[],"name":"epochLength","outputs":[{"internalType":"uint256","name":"","type":"uint256"}],"stateMutability":"view","type":"function"},{"inputs":[],"name":"fee","outputs":[{"internalType":"uint256","name":"","type":"uint256"}],"stateMutability":"view","type":"function"},{"inputs":[],"name":"getFee","outputs":[{"internalType":"uint256","name":"","type":"uint256"}],"stateMutability":"view","type":"function"},{"inputs":[],"name":"requiredReset","outputs":[{"internalType":"uint256","name":"","type":"uint256"}],"stateMutability":"view","type":"function"}],"evm":{"bytecode":{"linkReferences":{},"object":"608060405234801561001057600080fd5b506102c8806100206000396000f3fe608060405234801561001057600080fd5b506004361061004c5760003560e01c806357d775f814610051578063ced72f871461006f578063ddca3f431461008d578063f5fa96e5146100ab575b600080fd5b6100596100c9565b6040516100669190610233565b60405180910390f35b6100776100cf565b6040516100849190610233565b60405180910390f35b6100956101d2565b6040516100a29190610233565b60405180910390f35b6100b36101d8565b6040516100c09190610233565b60405180910390f35b60005481565b60006100e56705bb0c25ff05bb3260c01b6101de565b6100f96731301bec022fdee560c01b6101de565b61010d67463f38798a2f6ea560c01b6101de565b42600154101561018e5761012b67341a09d70c91193860c01b6101de565b61013f67fd13858d30b4e0f360c01b6101de565b610153679b977cd0c0a3bf3a60c01b6101de565b6040517f08c379a000000000000000000000000000000000000000000000000000000000815260040161018590610213565b60405180910390fd5b6101a26727e4d34d0d1ff58b60c01b6101de565b6101b66779a9c7a6ba68d5cb60c01b6101de565b6101ca67eb1b54e909ec2d3560c01b6101de565b600254905090565b60025481565b60015481565b50565b60006101ee600a8361024e565b91506101f982610269565b602082019050919050565b61020d8161025f565b82525050565b6000602082019050818103600083015261022c816101e1565b9050919050565b60006020820190506102486000830184610204565b92915050565b600082825260208201905092915050565b6000819050919050565b7f726573657446656528290000000000000000000000000000000000000000000060008201525056fea264697066735822122074ae2065294be267c7f7e3d65bcbd4fc77d05fe7b5ca463f711dd1393d8d9bf464736f6c63430008020033","opcodes":"PUSH1 0x80 PUSH1 0x40 MSTORE CALLVALUE DUP1 ISZERO PUSH2 0x10 JUMPI PUSH1 0x0 DUP1 REVERT JUMPDEST POP PUSH2 0x2C8 DUP1 PUSH2 0x20 PUSH1 0x0 CODECOPY PUSH1 0x0 RETURN INVALID PUSH1 0x80 PUSH1 0x40 MSTORE CALLVALUE DUP1 ISZERO PUSH2 0x10 JUMPI PUSH1 0x0 DUP1 REVERT JUMPDEST POP PUSH1 0x4 CALLDATASIZE LT PUSH2 0x4C JUMPI PUSH1 0x0 CALLDATALOAD PUSH1 0xE0 SHR DUP1 PUSH4 0x57D775F8 EQ PUSH2 0x51 JUMPI DUP1 PUSH4 0xCED72F87 EQ PUSH2 0x6F JUMPI DUP1 PUSH4 0xDDCA3F43 EQ PUSH2 0x8D JUMPI DUP1 PUSH4 0xF5FA96E5 EQ PUSH2 0xAB JUMPI JUMPDEST PUSH1 0x0 DUP1 REVERT JUMPDEST PUSH2 0x59 PUSH2 0xC9 JUMP JUMPDEST PUSH1 0x40 MLOAD PUSH2 0x66 SWAP2 SWAP1 PUSH2 0x233 JUMP JUMPDEST PUSH1 0x40 MLOAD DUP1 SWAP2 SUB SWAP1 RETURN JUMPDEST PUSH2 0x77 PUSH2 0xCF JUMP JUMPDEST PUSH1 0x40 MLOAD PUSH2 0x84 SWAP2 SWAP1 PUSH2 0x233 JUMP JUMPDEST PUSH1 0x40 MLOAD DUP1 SWAP2 SUB SWAP1 RETURN JUMPDEST PUSH2 0x95 PUSH2 0x1D2 JUMP JUMPDEST PUSH1 0x40 MLOAD PUSH2 0xA2 SWAP2 SWAP1 PUSH2 0x233 JUMP JUMPDEST PUSH1 0x40 MLOAD DUP1 SWAP2 SUB SWAP1 RETURN JUMPDEST PUSH2 0xB3 PUSH2 0x1D8 JUMP JUMPDEST PUSH1 0x40 MLOAD PUSH2 0xC0 SWAP2 SWAP1 PUSH2 0x233 JUMP JUMPDEST PUSH1 0x40 MLOAD DUP1 SWAP2 SUB SWAP1 RETURN JUMPDEST PUSH1 0x0 SLOAD DUP2 JUMP JUMPDEST PUSH1 0x0 PUSH2 0xE5 PUSH8 0x5BB0C25FF05BB32 PUSH1 0xC0 SHL PUSH2 0x1DE JUMP JUMPDEST PUSH2 0xF9 PUSH8 0x31301BEC022FDEE5 PUSH1 0xC0 SHL PUSH2 0x1DE JUMP JUMPDEST PUSH2 0x10D PUSH8 0x463F38798A2F6EA5 PUSH1 0xC0 SHL PUSH2 0x1DE JUMP JUMPDEST TIMESTAMP PUSH1 0x1 SLOAD LT ISZERO PUSH2 0x18E JUMPI PUSH2 0x12B PUSH8 0x341A09D70C911938 PUSH1 0xC0 SHL PUSH2 0x1DE JUMP JUMPDEST PUSH2 0x13F PUSH8 0xFD13858D30B4E0F3 PUSH1 0xC0 SHL PUSH2 0x1DE JUMP JUMPDEST PUSH2 0x153 PUSH8 0x9B977CD0C0A3BF3A PUSH1 0xC0 SHL PUSH2 0x1DE JUMP JUMPDEST PUSH1 0x40 MLOAD PUSH32 0x8C379A000000000000000000000000000000000000000000000000000000000 DUP2 MSTORE PUSH1 0x4 ADD PUSH2 0x185 SWAP1 PUSH2 0x213 JUMP JUMPDEST PUSH1 0x40 MLOAD DUP1 SWAP2 SUB SWAP1 REVERT JUMPDEST PUSH2 0x1A2 PUSH8 0x27E4D34D0D1FF58B PUSH1 0xC0 SHL PUSH2 0x1DE JUMP JUMPDEST PUSH2 0x1B6 PUSH8 0x79A9C7A6BA68D5CB PUSH1 0xC0 SHL PUSH2 0x1DE JUMP JUMPDEST PUSH2 0x1CA PUSH8 0xEB1B54E909EC2D35 PUSH1 0xC0 SHL PUSH2 0x1DE JUMP JUMPDEST PUSH1 0x2 SLOAD SWAP1 POP SWAP1 JUMP JUMPDEST PUSH1 0x2 SLOAD DUP2 JUMP JUMPDEST PUSH1 0x1 SLOAD DUP2 JUMP JUMPDEST POP JUMP JUMPDEST PUSH1 0x0 PUSH2 0x1EE PUSH1 0xA DUP4 PUSH2 0x24E JUMP JUMPDEST SWAP2 POP PUSH2 0x1F9 DUP3 PUSH2 0x269 JUMP JUMPDEST PUSH1 0x20 DUP3 ADD SWAP1 POP SWAP2 SWAP1 POP JUMP JUMPDEST PUSH2 0x20D DUP2 PUSH2 0x25F JUMP JUMPDEST DUP3 MSTORE POP POP JUMP JUMPDEST PUSH1 0x0 PUSH1 0x20 DUP3 ADD SWAP1 POP DUP2 DUP2 SUB PUSH1 0x0 DUP4 ADD MSTORE PUSH2 0x22C DUP2 PUSH2 0x1E1 JUMP JUMPDEST SWAP1 POP SWAP2 SWAP1 POP JUMP JUMPDEST PUSH1 0x0 PUSH1 0x20 DUP3 ADD SWAP1 POP PUSH2 0x248 PUSH1 0x0 DUP4 ADD DUP5 PUSH2 0x204 JUMP JUMPDEST SWAP3 SWAP2 POP POP JUMP JUMPDEST PUSH1 0x0 DUP3 DUP3 MSTORE PUSH1 0x20 DUP3 ADD SWAP1 POP SWAP3 SWAP2 POP POP JUMP JUMPDEST PUSH1 0x0 DUP2 SWAP1 POP SWAP2 SWAP1 POP JUMP JUMPDEST PUSH32 0x7265736574466565282900000000000000000000000000000000000000000000 PUSH1 0x0 DUP3 ADD MSTORE POP JUMP INVALID LOG2 PUSH5 0x6970667358 0x22 SLT KECCAK256 PUSH21 0xAE2065294BE267C7F7E3D65BCBD4FC77D05FE7B5CA CHAINID EXTCODEHASH PUSH18 0x1DD1393D8D9BF464736F6C63430008020033 "},"methodIdentifiers":{"epochLength()":"57d775f8","fee()":"ddca3f43","getFee()":"ced72f87","requiredReset()":"f5fa96e5"}},"storageLayout":{"storage":[{"astId":210,"contract":"contracts/FeeQuery.sol:FeeQuery","label":"epochLength","offset":0,"slot":"0","type":"t_uint256"},{"astId":212,"contract":"contracts/FeeQuery.sol:FeeQuery","label":"requiredReset","offset":0,"slot":"1","type":"t_uint256"},{"astId":214,"contract":"contracts/FeeQuery.sol:FeeQuery","label":"fee","offset":0,"slot":"2","type":"t_uint256"}],"types":{"t_uint256":{"encoding":"inplace","label":"uint256","numberOfBytes":"32"}}}}}}