{"contracts/DUMMYDONOTDEPLOY.sol":{"FeeOracle":{"abi":[{"inputs":[],"name":"consult","outputs":[{"internalType":"uint256","name":"amountOut","type":"uint256"}],"stateMutability":"view","type":"function"},{"inputs":[],"name":"refreshOracle","outputs":[{"internalType":"bool","name":"success","type":"bool"}],"stateMutability":"nonpayable","type":"function"}],"evm":{"bytecode":{"linkReferences":{},"object":"6080604052600160005534801561001557600080fd5b506101c3806100256000396000f3fe608060405234801561001057600080fd5b50600436106100365760003560e01c80637eeda7031461003b578063e58456e914610059575b600080fd5b610043610077565b60405161005091906100d7565b60405180910390f35b610061610080565b60405161006e91906100bc565b60405180910390f35b60008054905090565b6000600860015461009191906100f2565b6001819055506001905090565b6100a781610148565b82525050565b6100b681610154565b82525050565b60006020820190506100d1600083018461009e565b92915050565b60006020820190506100ec60008301846100ad565b92915050565b60006100fd82610154565b915061010883610154565b9250827fffffffffffffffffffffffffffffffffffffffffffffffffffffffffffffffff0382111561013d5761013c61015e565b5b828201905092915050565b60008115159050919050565b6000819050919050565b7f4e487b7100000000000000000000000000000000000000000000000000000000600052601160045260246000fdfea264697066735822122004a9466618436ec35b2f71fc9dc200031ada4d0fa05625db30d55342d977375164736f6c63430008020033","opcodes":"PUSH1 0x80 PUSH1 0x40 MSTORE PUSH1 0x1 PUSH1 0x0 SSTORE CALLVALUE DUP1 ISZERO PUSH2 0x15 JUMPI PUSH1 0x0 DUP1 REVERT JUMPDEST POP PUSH2 0x1C3 DUP1 PUSH2 0x25 PUSH1 0x0 CODECOPY PUSH1 0x0 RETURN INVALID PUSH1 0x80 PUSH1 0x40 MSTORE CALLVALUE DUP1 ISZERO PUSH2 0x10 JUMPI PUSH1 0x0 DUP1 REVERT JUMPDEST POP PUSH1 0x4 CALLDATASIZE LT PUSH2 0x36 JUMPI PUSH1 0x0 CALLDATALOAD PUSH1 0xE0 SHR DUP1 PUSH4 0x7EEDA703 EQ PUSH2 0x3B JUMPI DUP1 PUSH4 0xE58456E9 EQ PUSH2 0x59 JUMPI JUMPDEST PUSH1 0x0 DUP1 REVERT JUMPDEST PUSH2 0x43 PUSH2 0x77 JUMP JUMPDEST PUSH1 0x40 MLOAD PUSH2 0x50 SWAP2 SWAP1 PUSH2 0xD7 JUMP JUMPDEST PUSH1 0x40 MLOAD DUP1 SWAP2 SUB SWAP1 RETURN JUMPDEST PUSH2 0x61 PUSH2 0x80 JUMP JUMPDEST PUSH1 0x40 MLOAD PUSH2 0x6E SWAP2 SWAP1 PUSH2 0xBC JUMP JUMPDEST PUSH1 0x40 MLOAD DUP1 SWAP2 SUB SWAP1 RETURN JUMPDEST PUSH1 0x0 DUP1 SLOAD SWAP1 POP SWAP1 JUMP JUMPDEST PUSH1 0x0 PUSH1 0x8 PUSH1 0x1 SLOAD PUSH2 0x91 SWAP2 SWAP1 PUSH2 0xF2 JUMP JUMPDEST PUSH1 0x1 DUP2 SWAP1 SSTORE POP PUSH1 0x1 SWAP1 POP SWAP1 JUMP JUMPDEST PUSH2 0xA7 DUP2 PUSH2 0x148 JUMP JUMPDEST DUP3 MSTORE POP POP JUMP JUMPDEST PUSH2 0xB6 DUP2 PUSH2 0x154 JUMP JUMPDEST DUP3 MSTORE POP POP JUMP JUMPDEST PUSH1 0x0 PUSH1 0x20 DUP3 ADD SWAP1 POP PUSH2 0xD1 PUSH1 0x0 DUP4 ADD DUP5 PUSH2 0x9E JUMP JUMPDEST SWAP3 SWAP2 POP POP JUMP JUMPDEST PUSH1 0x0 PUSH1 0x20 DUP3 ADD SWAP1 POP PUSH2 0xEC PUSH1 0x0 DUP4 ADD DUP5 PUSH2 0xAD JUMP JUMPDEST SWAP3 SWAP2 POP POP JUMP JUMPDEST PUSH1 0x0 PUSH2 0xFD DUP3 PUSH2 0x154 JUMP JUMPDEST SWAP2 POP PUSH2 0x108 DUP4 PUSH2 0x154 JUMP JUMPDEST SWAP3 POP DUP3 PUSH32 0xFFFFFFFFFFFFFFFFFFFFFFFFFFFFFFFFFFFFFFFFFFFFFFFFFFFFFFFFFFFFFFFF SUB DUP3 GT ISZERO PUSH2 0x13D JUMPI PUSH2 0x13C PUSH2 0x15E JUMP JUMPDEST JUMPDEST DUP3 DUP3 ADD SWAP1 POP SWAP3 SWAP2 POP POP JUMP JUMPDEST PUSH1 0x0 DUP2 ISZERO ISZERO SWAP1 POP SWAP2 SWAP1 POP JUMP JUMPDEST PUSH1 0x0 DUP2 SWAP1 POP SWAP2 SWAP1 POP JUMP JUMPDEST PUSH32 0x4E487B7100000000000000000000000000000000000000000000000000000000 PUSH1 0x0 MSTORE PUSH1 0x11 PUSH1 0x4 MSTORE PUSH1 0x24 PUSH1 0x0 REVERT INVALID LOG2 PUSH5 0x6970667358 0x22 SLT KECCAK256 DIV 0xA9 CHAINID PUSH7 0x18436EC35B2F71 0xFC SWAP14 0xC2 STOP SUB BYTE 0xDA 0x4D 0xF LOG0 JUMP 0x25 0xDB ADDRESS 0xD5 MSTORE8 TIMESTAMP 0xD9 PUSH24 0x375164736F6C634300080200330000000000000000000000 "},"methodIdentifiers":{"consult()":"7eeda703","refreshOracle()":"e58456e9"}},"storageLayout":{"storage":[{"astId":4203,"contract":"contracts/DUMMYDONOTDEPLOY.sol:FeeOracle","label":"priceAverage","offset":0,"slot":"0","type":"t_uint256"},{"astId":4205,"contract":"contracts/DUMMYDONOTDEPLOY.sol:FeeOracle","label":"justKeepAdding","offset":0,"slot":"1","type":"t_uint256"}],"types":{"t_uint256":{"encoding":"inplace","label":"uint256","numberOfBytes":"32"}}}}}}