{"contracts/SimpleStorageWithDevAppFee.sol":{"SimpleStorageWithDevAppFee":{"abi":[{"inputs":[{"internalType":"address","name":"_feeContract","type":"address"},{"internalType":"address","name":"devWallet","type":"address"}],"stateMutability":"nonpayable","type":"constructor"},{"inputs":[],"name":"callFee","outputs":[{"internalType":"uint256","name":"","type":"uint256"}],"stateMutability":"view","type":"function"},{"inputs":[],"name":"get","outputs":[{"internalType":"uint256","name":"retVal","type":"uint256"}],"stateMutability":"view","type":"function"},{"inputs":[],"name":"getDeveloperFee","outputs":[{"internalType":"uint256","name":"developerFee","type":"uint256"}],"stateMutability":"view","type":"function"},{"inputs":[],"name":"getHavenFee","outputs":[{"internalType":"uint256","name":"havenOneFee","type":"uint256"}],"stateMutability":"view","type":"function"},{"inputs":[],"name":"h1Stored","outputs":[{"internalType":"uint256","name":"","type":"uint256"}],"stateMutability":"view","type":"function"},{"inputs":[{"internalType":"uint256","name":"x","type":"uint256"}],"name":"set","outputs":[],"stateMutability":"payable","type":"function"},{"inputs":[],"name":"storedData","outputs":[{"internalType":"uint256","name":"","type":"uint256"}],"stateMutability":"view","type":"function"}],"evm":{"bytecode":{"linkReferences":{},"object":"60806040523480156200001157600080fd5b5060405162000e9e38038062000e9e8339818101604052810190620000379190620002a3565b81816200005567bcbcdb0ec4c62a5560c01b6200028660201b60201c565b62000071677949f73461ebb8cf60c01b6200028660201b60201c565b6200008d6788146c218b6c29a260c01b6200028660201b60201c565b600073ffffffffffffffffffffffffffffffffffffffff168273ffffffffffffffffffffffffffffffffffffffff1614156200018b57620000df67d93731a74b30fd7c60c01b6200028660201b60201c565b620000fb6762be0e3eb49d3e9760c01b6200028660201b60201c565b620001176735a364bf9ec0c9b160c01b6200028660201b60201c565b6040518060400160405280600381526020017f31323300000000000000000000000000000000000000000000000000000000008152506040517f08c379a000000000000000000000000000000000000000000000000000000000815260040162000182919062000325565b60405180910390fd5b620001a767989474dc1f94bd4760c01b6200028660201b60201c565b620001c36735c6135bd30fb56160c01b6200028660201b60201c565b816000806101000a81548173ffffffffffffffffffffffffffffffffffffffff021916908373ffffffffffffffffffffffffffffffffffffffff1602179055506200021f673ae3d9bdfb94e26b60c01b6200028660201b60201c565b80600260006101000a81548173ffffffffffffffffffffffffffffffffffffffff021916908373ffffffffffffffffffffffffffffffffffffffff16021790555050506200027e6784df1a4dbbce55f860c01b6200028960201b60201c565b5050620003fa565b50565b50565b6000815190506200029d81620003e0565b92915050565b60008060408385031215620002b757600080fd5b6000620002c7858286016200028c565b9250506020620002da858286016200028c565b9150509250929050565b6000620002f18262000349565b620002fd818562000354565b93506200030f81856020860162000399565b6200031a81620003cf565b840191505092915050565b60006020820190508181036000830152620003418184620002e4565b905092915050565b600081519050919050565b600082825260208201905092915050565b6000620003728262000379565b9050919050565b600073ffffffffffffffffffffffffffffffffffffffff82169050919050565b60005b83811015620003b95780820151818401526020810190506200039c565b83811115620003c9576000848401525b50505050565b6000601f19601f8301169050919050565b620003eb8162000365565b8114620003f757600080fd5b50565b610a94806200040a6000396000f3fe6080604052600436106100705760003560e01c80636d4ce63c1161004e5780636d4ce63c146100e757806377482b181461011257806390321e1a1461013d578063b19929c31461016857610070565b80632a1afcd9146100755780632dcbf1c0146100a057806360fe47b1146100cb575b600080fd5b34801561008157600080fd5b5061008a610193565b60405161009791906108c3565b60405180910390f35b3480156100ac57600080fd5b506100b5610199565b6040516100c291906108c3565b60405180910390f35b6100e560048036038101906100e091906107bf565b61019f565b005b3480156100f357600080fd5b506100fc61054b565b60405161010991906108c3565b60405180910390f35b34801561011e57600080fd5b50610127610591565b60405161013491906108c3565b60405180910390f35b34801561014957600080fd5b5061015261060e565b60405161015f91906108c3565b60405180910390f35b34801561017457600080fd5b5061017d61071e565b60405161018a91906108c3565b60405180910390f35b60035481565b60045481565b6101b367adcaec2dfc2b798b60c01b61078f565b6101c767a2916bb47395708a60c01b610792565b6101db6752abf4e28953ada560c01b610792565b6101ef676e9d002699a94d3160c01b610792565b6001543410801561020257506000600154115b156102b55761021b67a7abeef1d686229360c01b610792565b61022f67b1766162f5d9e71760c01b610792565b61024367a2bb25c47377fb2a60c01b610792565b6040518060400160405280600381526020017f31323500000000000000000000000000000000000000000000000000000000008152506040517f08c379a00000000000000000000000000000000000000000000000000000000081526004016102ac91906108a1565b60405180910390fd5b6102c96717fa3b1790d8c79860c01b610792565b6102dd67eb3640c09003b69d60c01b610792565b6102f167dda1fcb9d5c8d5eb60c01b610792565b60006102fb61071e565b90506103116733a366b5bd708a0e60c01b610792565b61032567c6d95265f995528960c01b610792565b60008060009054906101000a900473ffffffffffffffffffffffffffffffffffffffff1673ffffffffffffffffffffffffffffffffffffffff16826040516024016040516020818303038152906040527fa3e76c0f000000000000000000000000000000000000000000000000000000007bffffffffffffffffffffffffffffffffffffffffffffffffffffffff19166020820180517bffffffffffffffffffffffffffffffffffffffffffffffffffffffff83818316178352505050506040516103f0919061088a565b60006040518083038185875af1925050503d806000811461042d576040519150601f19603f3d011682016040523d82523d6000602084013e610432565b606091505b5050905061044a670e5c79848b2341a760c01b610792565b61045e67099d75038d8cafda60c01b610792565b6000610468610591565b905061047e677dc141a69b74ff2a60c01b610792565b61049267cd1b7729f550e09460c01b610792565b6000600260009054906101000a900473ffffffffffffffffffffffffffffffffffffffff1673ffffffffffffffffffffffffffffffffffffffff166108fc839081150290604051600060405180830381858888f193505050509050610501674a1759b15613413760c01b610792565b61051567454f7dceffb072ad60c01b61078f565b61052967f6a384b5911cc3ee60c01b61078f565b61053d67dbf4e69d6d924a3960c01b61078f565b846003819055505050505050565b600061056167b9c0745fa0fe7bd660c01b61078f565b6105756752f72cfbe5a8b80360c01b61078f565b610589670b4e56ed04a75af660c01b61078f565b600354905090565b60006105a767cc43cf7efdab234c60c01b610792565b6105bb671cb28bc6094eb59660c01b610792565b6105cf67c9322031f617eba660c01b610792565b60006105d961060e565b90506105ef67c674f3534dac2dec60c01b610792565b6009600a826105fe9190610910565b6106089190610941565b91505090565b600061062467f1b3d5843e60ace360c01b610792565b61063867c22e5faca129da0260c01b610792565b61064c67316dd800befc263260c01b610792565b60008060009054906101000a900473ffffffffffffffffffffffffffffffffffffffff1673ffffffffffffffffffffffffffffffffffffffff1663ced72f876040518163ffffffff1660e01b815260040160206040518083038186803b1580156106b557600080fd5b505afa1580156106c9573d6000803e3d6000fd5b505050506040513d601f19601f820116820180604052508101906106ed91906107e8565b905061070367e9daee1b6c85c6be60c01b610792565b61071767d3427dbdc02d5a4d60c01b610792565b8091505090565b600061073467e0b5f08fd8dc49a660c01b610792565b6107486757c913a2a8f4beff60c01b610792565b61075c6790403cdde02533e860c01b610792565b600061076661060e565b905061077c671c87d02a3069b73360c01b610792565b600a816107899190610910565b91505090565b50565b50565b6000813590506107a481610a47565b92915050565b6000815190506107b981610a47565b92915050565b6000602082840312156107d157600080fd5b60006107df84828501610795565b91505092915050565b6000602082840312156107fa57600080fd5b6000610808848285016107aa565b91505092915050565b600061081c826108de565b61082681856108f4565b93506108368185602086016109a5565b80840191505092915050565b600061084d826108e9565b61085781856108ff565b93506108678185602086016109a5565b61087081610a36565b840191505092915050565b6108848161099b565b82525050565b60006108968284610811565b915081905092915050565b600060208201905081810360008301526108bb8184610842565b905092915050565b60006020820190506108d8600083018461087b565b92915050565b600081519050919050565b600081519050919050565b600081905092915050565b600082825260208201905092915050565b600061091b8261099b565b91506109268361099b565b92508261093657610935610a07565b5b828204905092915050565b600061094c8261099b565b91506109578361099b565b9250817fffffffffffffffffffffffffffffffffffffffffffffffffffffffffffffffff04831182151516156109905761098f6109d8565b5b828202905092915050565b6000819050919050565b60005b838110156109c35780820151818401526020810190506109a8565b838111156109d2576000848401525b50505050565b7f4e487b7100000000000000000000000000000000000000000000000000000000600052601160045260246000fd5b7f4e487b7100000000000000000000000000000000000000000000000000000000600052601260045260246000fd5b6000601f19601f8301169050919050565b610a508161099b565b8114610a5b57600080fd5b5056fea2646970667358221220a05dce1d011a39d52d12e53d05e1ad6948a63677f3736675412f8d32de1273ac64736f6c63430008020033","opcodes":"PUSH1 0x80 PUSH1 0x40 MSTORE CALLVALUE DUP1 ISZERO PUSH3 0x11 JUMPI PUSH1 0x0 DUP1 REVERT JUMPDEST POP PUSH1 0x40 MLOAD PUSH3 0xE9E CODESIZE SUB DUP1 PUSH3 0xE9E DUP4 CODECOPY DUP2 DUP2 ADD PUSH1 0x40 MSTORE DUP2 ADD SWAP1 PUSH3 0x37 SWAP2 SWAP1 PUSH3 0x2A3 JUMP JUMPDEST DUP2 DUP2 PUSH3 0x55 PUSH8 0xBCBCDB0EC4C62A55 PUSH1 0xC0 SHL PUSH3 0x286 PUSH1 0x20 SHL PUSH1 0x20 SHR JUMP JUMPDEST PUSH3 0x71 PUSH8 0x7949F73461EBB8CF PUSH1 0xC0 SHL PUSH3 0x286 PUSH1 0x20 SHL PUSH1 0x20 SHR JUMP JUMPDEST PUSH3 0x8D PUSH8 0x88146C218B6C29A2 PUSH1 0xC0 SHL PUSH3 0x286 PUSH1 0x20 SHL PUSH1 0x20 SHR JUMP JUMPDEST PUSH1 0x0 PUSH20 0xFFFFFFFFFFFFFFFFFFFFFFFFFFFFFFFFFFFFFFFF AND DUP3 PUSH20 0xFFFFFFFFFFFFFFFFFFFFFFFFFFFFFFFFFFFFFFFF AND EQ ISZERO PUSH3 0x18B JUMPI PUSH3 0xDF PUSH8 0xD93731A74B30FD7C PUSH1 0xC0 SHL PUSH3 0x286 PUSH1 0x20 SHL PUSH1 0x20 SHR JUMP JUMPDEST PUSH3 0xFB PUSH8 0x62BE0E3EB49D3E97 PUSH1 0xC0 SHL PUSH3 0x286 PUSH1 0x20 SHL PUSH1 0x20 SHR JUMP JUMPDEST PUSH3 0x117 PUSH8 0x35A364BF9EC0C9B1 PUSH1 0xC0 SHL PUSH3 0x286 PUSH1 0x20 SHL PUSH1 0x20 SHR JUMP JUMPDEST PUSH1 0x40 MLOAD DUP1 PUSH1 0x40 ADD PUSH1 0x40 MSTORE DUP1 PUSH1 0x3 DUP2 MSTORE PUSH1 0x20 ADD PUSH32 0x3132330000000000000000000000000000000000000000000000000000000000 DUP2 MSTORE POP PUSH1 0x40 MLOAD PUSH32 0x8C379A000000000000000000000000000000000000000000000000000000000 DUP2 MSTORE PUSH1 0x4 ADD PUSH3 0x182 SWAP2 SWAP1 PUSH3 0x325 JUMP JUMPDEST PUSH1 0x40 MLOAD DUP1 SWAP2 SUB SWAP1 REVERT JUMPDEST PUSH3 0x1A7 PUSH8 0x989474DC1F94BD47 PUSH1 0xC0 SHL PUSH3 0x286 PUSH1 0x20 SHL PUSH1 0x20 SHR JUMP JUMPDEST PUSH3 0x1C3 PUSH8 0x35C6135BD30FB561 PUSH1 0xC0 SHL PUSH3 0x286 PUSH1 0x20 SHL PUSH1 0x20 SHR JUMP JUMPDEST DUP2 PUSH1 0x0 DUP1 PUSH2 0x100 EXP DUP2 SLOAD DUP2 PUSH20 0xFFFFFFFFFFFFFFFFFFFFFFFFFFFFFFFFFFFFFFFF MUL NOT AND SWAP1 DUP4 PUSH20 0xFFFFFFFFFFFFFFFFFFFFFFFFFFFFFFFFFFFFFFFF AND MUL OR SWAP1 SSTORE POP PUSH3 0x21F PUSH8 0x3AE3D9BDFB94E26B PUSH1 0xC0 SHL PUSH3 0x286 PUSH1 0x20 SHL PUSH1 0x20 SHR JUMP JUMPDEST DUP1 PUSH1 0x2 PUSH1 0x0 PUSH2 0x100 EXP DUP2 SLOAD DUP2 PUSH20 0xFFFFFFFFFFFFFFFFFFFFFFFFFFFFFFFFFFFFFFFF MUL NOT AND SWAP1 DUP4 PUSH20 0xFFFFFFFFFFFFFFFFFFFFFFFFFFFFFFFFFFFFFFFF AND MUL OR SWAP1 SSTORE POP POP POP PUSH3 0x27E PUSH8 0x84DF1A4DBBCE55F8 PUSH1 0xC0 SHL PUSH3 0x289 PUSH1 0x20 SHL PUSH1 0x20 SHR JUMP JUMPDEST POP POP PUSH3 0x3FA JUMP JUMPDEST POP JUMP JUMPDEST POP JUMP JUMPDEST PUSH1 0x0 DUP2 MLOAD SWAP1 POP PUSH3 0x29D DUP2 PUSH3 0x3E0 JUMP JUMPDEST SWAP3 SWAP2 POP POP JUMP JUMPDEST PUSH1 0x0 DUP1 PUSH1 0x40 DUP4 DUP6 SUB SLT ISZERO PUSH3 0x2B7 JUMPI PUSH1 0x0 DUP1 REVERT JUMPDEST PUSH1 0x0 PUSH3 0x2C7 DUP6 DUP3 DUP7 ADD PUSH3 0x28C JUMP JUMPDEST SWAP3 POP POP PUSH1 0x20 PUSH3 0x2DA DUP6 DUP3 DUP7 ADD PUSH3 0x28C JUMP JUMPDEST SWAP2 POP POP SWAP3 POP SWAP3 SWAP1 POP JUMP JUMPDEST PUSH1 0x0 PUSH3 0x2F1 DUP3 PUSH3 0x349 JUMP JUMPDEST PUSH3 0x2FD DUP2 DUP6 PUSH3 0x354 JUMP JUMPDEST SWAP4 POP PUSH3 0x30F DUP2 DUP6 PUSH1 0x20 DUP7 ADD PUSH3 0x399 JUMP JUMPDEST PUSH3 0x31A DUP2 PUSH3 0x3CF JUMP JUMPDEST DUP5 ADD SWAP2 POP POP SWAP3 SWAP2 POP POP JUMP JUMPDEST PUSH1 0x0 PUSH1 0x20 DUP3 ADD SWAP1 POP DUP2 DUP2 SUB PUSH1 0x0 DUP4 ADD MSTORE PUSH3 0x341 DUP2 DUP5 PUSH3 0x2E4 JUMP JUMPDEST SWAP1 POP SWAP3 SWAP2 POP POP JUMP JUMPDEST PUSH1 0x0 DUP2 MLOAD SWAP1 POP SWAP2 SWAP1 POP JUMP JUMPDEST PUSH1 0x0 DUP3 DUP3 MSTORE PUSH1 0x20 DUP3 ADD SWAP1 POP SWAP3 SWAP2 POP POP JUMP JUMPDEST PUSH1 0x0 PUSH3 0x372 DUP3 PUSH3 0x379 JUMP JUMPDEST SWAP1 POP SWAP2 SWAP1 POP JUMP JUMPDEST PUSH1 0x0 PUSH20 0xFFFFFFFFFFFFFFFFFFFFFFFFFFFFFFFFFFFFFFFF DUP3 AND SWAP1 POP SWAP2 SWAP1 POP JUMP JUMPDEST PUSH1 0x0 JUMPDEST DUP4 DUP2 LT ISZERO PUSH3 0x3B9 JUMPI DUP1 DUP3 ADD MLOAD DUP2 DUP5 ADD MSTORE PUSH1 0x20 DUP2 ADD SWAP1 POP PUSH3 0x39C JUMP JUMPDEST DUP4 DUP2 GT ISZERO PUSH3 0x3C9 JUMPI PUSH1 0x0 DUP5 DUP5 ADD MSTORE JUMPDEST POP POP POP POP JUMP JUMPDEST PUSH1 0x0 PUSH1 0x1F NOT PUSH1 0x1F DUP4 ADD AND SWAP1 POP SWAP2 SWAP1 POP JUMP JUMPDEST PUSH3 0x3EB DUP2 PUSH3 0x365 JUMP JUMPDEST DUP2 EQ PUSH3 0x3F7 JUMPI PUSH1 0x0 DUP1 REVERT JUMPDEST POP JUMP JUMPDEST PUSH2 0xA94 DUP1 PUSH3 0x40A PUSH1 0x0 CODECOPY PUSH1 0x0 RETURN INVALID PUSH1 0x80 PUSH1 0x40 MSTORE PUSH1 0x4 CALLDATASIZE LT PUSH2 0x70 JUMPI PUSH1 0x0 CALLDATALOAD PUSH1 0xE0 SHR DUP1 PUSH4 0x6D4CE63C GT PUSH2 0x4E JUMPI DUP1 PUSH4 0x6D4CE63C EQ PUSH2 0xE7 JUMPI DUP1 PUSH4 0x77482B18 EQ PUSH2 0x112 JUMPI DUP1 PUSH4 0x90321E1A EQ PUSH2 0x13D JUMPI DUP1 PUSH4 0xB19929C3 EQ PUSH2 0x168 JUMPI PUSH2 0x70 JUMP JUMPDEST DUP1 PUSH4 0x2A1AFCD9 EQ PUSH2 0x75 JUMPI DUP1 PUSH4 0x2DCBF1C0 EQ PUSH2 0xA0 JUMPI DUP1 PUSH4 0x60FE47B1 EQ PUSH2 0xCB JUMPI JUMPDEST PUSH1 0x0 DUP1 REVERT JUMPDEST CALLVALUE DUP1 ISZERO PUSH2 0x81 JUMPI PUSH1 0x0 DUP1 REVERT JUMPDEST POP PUSH2 0x8A PUSH2 0x193 JUMP JUMPDEST PUSH1 0x40 MLOAD PUSH2 0x97 SWAP2 SWAP1 PUSH2 0x8C3 JUMP JUMPDEST PUSH1 0x40 MLOAD DUP1 SWAP2 SUB SWAP1 RETURN JUMPDEST CALLVALUE DUP1 ISZERO PUSH2 0xAC JUMPI PUSH1 0x0 DUP1 REVERT JUMPDEST POP PUSH2 0xB5 PUSH2 0x199 JUMP JUMPDEST PUSH1 0x40 MLOAD PUSH2 0xC2 SWAP2 SWAP1 PUSH2 0x8C3 JUMP JUMPDEST PUSH1 0x40 MLOAD DUP1 SWAP2 SUB SWAP1 RETURN JUMPDEST PUSH2 0xE5 PUSH1 0x4 DUP1 CALLDATASIZE SUB DUP2 ADD SWAP1 PUSH2 0xE0 SWAP2 SWAP1 PUSH2 0x7BF JUMP JUMPDEST PUSH2 0x19F JUMP JUMPDEST STOP JUMPDEST CALLVALUE DUP1 ISZERO PUSH2 0xF3 JUMPI PUSH1 0x0 DUP1 REVERT JUMPDEST POP PUSH2 0xFC PUSH2 0x54B JUMP JUMPDEST PUSH1 0x40 MLOAD PUSH2 0x109 SWAP2 SWAP1 PUSH2 0x8C3 JUMP JUMPDEST PUSH1 0x40 MLOAD DUP1 SWAP2 SUB SWAP1 RETURN JUMPDEST CALLVALUE DUP1 ISZERO PUSH2 0x11E JUMPI PUSH1 0x0 DUP1 REVERT JUMPDEST POP PUSH2 0x127 PUSH2 0x591 JUMP JUMPDEST PUSH1 0x40 MLOAD PUSH2 0x134 SWAP2 SWAP1 PUSH2 0x8C3 JUMP JUMPDEST PUSH1 0x40 MLOAD DUP1 SWAP2 SUB SWAP1 RETURN JUMPDEST CALLVALUE DUP1 ISZERO PUSH2 0x149 JUMPI PUSH1 0x0 DUP1 REVERT JUMPDEST POP PUSH2 0x152 PUSH2 0x60E JUMP JUMPDEST PUSH1 0x40 MLOAD PUSH2 0x15F SWAP2 SWAP1 PUSH2 0x8C3 JUMP JUMPDEST PUSH1 0x40 MLOAD DUP1 SWAP2 SUB SWAP1 RETURN JUMPDEST CALLVALUE DUP1 ISZERO PUSH2 0x174 JUMPI PUSH1 0x0 DUP1 REVERT JUMPDEST POP PUSH2 0x17D PUSH2 0x71E JUMP JUMPDEST PUSH1 0x40 MLOAD PUSH2 0x18A SWAP2 SWAP1 PUSH2 0x8C3 JUMP JUMPDEST PUSH1 0x40 MLOAD DUP1 SWAP2 SUB SWAP1 RETURN JUMPDEST PUSH1 0x3 SLOAD DUP2 JUMP JUMPDEST PUSH1 0x4 SLOAD DUP2 JUMP JUMPDEST PUSH2 0x1B3 PUSH8 0xADCAEC2DFC2B798B PUSH1 0xC0 SHL PUSH2 0x78F JUMP JUMPDEST PUSH2 0x1C7 PUSH8 0xA2916BB47395708A PUSH1 0xC0 SHL PUSH2 0x792 JUMP JUMPDEST PUSH2 0x1DB PUSH8 0x52ABF4E28953ADA5 PUSH1 0xC0 SHL PUSH2 0x792 JUMP JUMPDEST PUSH2 0x1EF PUSH8 0x6E9D002699A94D31 PUSH1 0xC0 SHL PUSH2 0x792 JUMP JUMPDEST PUSH1 0x1 SLOAD CALLVALUE LT DUP1 ISZERO PUSH2 0x202 JUMPI POP PUSH1 0x0 PUSH1 0x1 SLOAD GT JUMPDEST ISZERO PUSH2 0x2B5 JUMPI PUSH2 0x21B PUSH8 0xA7ABEEF1D6862293 PUSH1 0xC0 SHL PUSH2 0x792 JUMP JUMPDEST PUSH2 0x22F PUSH8 0xB1766162F5D9E717 PUSH1 0xC0 SHL PUSH2 0x792 JUMP JUMPDEST PUSH2 0x243 PUSH8 0xA2BB25C47377FB2A PUSH1 0xC0 SHL PUSH2 0x792 JUMP JUMPDEST PUSH1 0x40 MLOAD DUP1 PUSH1 0x40 ADD PUSH1 0x40 MSTORE DUP1 PUSH1 0x3 DUP2 MSTORE PUSH1 0x20 ADD PUSH32 0x3132350000000000000000000000000000000000000000000000000000000000 DUP2 MSTORE POP PUSH1 0x40 MLOAD PUSH32 0x8C379A000000000000000000000000000000000000000000000000000000000 DUP2 MSTORE PUSH1 0x4 ADD PUSH2 0x2AC SWAP2 SWAP1 PUSH2 0x8A1 JUMP JUMPDEST PUSH1 0x40 MLOAD DUP1 SWAP2 SUB SWAP1 REVERT JUMPDEST PUSH2 0x2C9 PUSH8 0x17FA3B1790D8C798 PUSH1 0xC0 SHL PUSH2 0x792 JUMP JUMPDEST PUSH2 0x2DD PUSH8 0xEB3640C09003B69D PUSH1 0xC0 SHL PUSH2 0x792 JUMP JUMPDEST PUSH2 0x2F1 PUSH8 0xDDA1FCB9D5C8D5EB PUSH1 0xC0 SHL PUSH2 0x792 JUMP JUMPDEST PUSH1 0x0 PUSH2 0x2FB PUSH2 0x71E JUMP JUMPDEST SWAP1 POP PUSH2 0x311 PUSH8 0x33A366B5BD708A0E PUSH1 0xC0 SHL PUSH2 0x792 JUMP JUMPDEST PUSH2 0x325 PUSH8 0xC6D95265F9955289 PUSH1 0xC0 SHL PUSH2 0x792 JUMP JUMPDEST PUSH1 0x0 DUP1 PUSH1 0x0 SWAP1 SLOAD SWAP1 PUSH2 0x100 EXP SWAP1 DIV PUSH20 0xFFFFFFFFFFFFFFFFFFFFFFFFFFFFFFFFFFFFFFFF AND PUSH20 0xFFFFFFFFFFFFFFFFFFFFFFFFFFFFFFFFFFFFFFFF AND DUP3 PUSH1 0x40 MLOAD PUSH1 0x24 ADD PUSH1 0x40 MLOAD PUSH1 0x20 DUP2 DUP4 SUB SUB DUP2 MSTORE SWAP1 PUSH1 0x40 MSTORE PUSH32 0xA3E76C0F00000000000000000000000000000000000000000000000000000000 PUSH28 0xFFFFFFFFFFFFFFFFFFFFFFFFFFFFFFFFFFFFFFFFFFFFFFFFFFFFFFFF NOT AND PUSH1 0x20 DUP3 ADD DUP1 MLOAD PUSH28 0xFFFFFFFFFFFFFFFFFFFFFFFFFFFFFFFFFFFFFFFFFFFFFFFFFFFFFFFF DUP4 DUP2 DUP4 AND OR DUP4 MSTORE POP POP POP POP PUSH1 0x40 MLOAD PUSH2 0x3F0 SWAP2 SWAP1 PUSH2 0x88A JUMP JUMPDEST PUSH1 0x0 PUSH1 0x40 MLOAD DUP1 DUP4 SUB DUP2 DUP6 DUP8 GAS CALL SWAP3 POP POP POP RETURNDATASIZE DUP1 PUSH1 0x0 DUP2 EQ PUSH2 0x42D JUMPI PUSH1 0x40 MLOAD SWAP2 POP PUSH1 0x1F NOT PUSH1 0x3F RETURNDATASIZE ADD AND DUP3 ADD PUSH1 0x40 MSTORE RETURNDATASIZE DUP3 MSTORE RETURNDATASIZE PUSH1 0x0 PUSH1 0x20 DUP5 ADD RETURNDATACOPY PUSH2 0x432 JUMP JUMPDEST PUSH1 0x60 SWAP2 POP JUMPDEST POP POP SWAP1 POP PUSH2 0x44A PUSH8 0xE5C79848B2341A7 PUSH1 0xC0 SHL PUSH2 0x792 JUMP JUMPDEST PUSH2 0x45E PUSH8 0x99D75038D8CAFDA PUSH1 0xC0 SHL PUSH2 0x792 JUMP JUMPDEST PUSH1 0x0 PUSH2 0x468 PUSH2 0x591 JUMP JUMPDEST SWAP1 POP PUSH2 0x47E PUSH8 0x7DC141A69B74FF2A PUSH1 0xC0 SHL PUSH2 0x792 JUMP JUMPDEST PUSH2 0x492 PUSH8 0xCD1B7729F550E094 PUSH1 0xC0 SHL PUSH2 0x792 JUMP JUMPDEST PUSH1 0x0 PUSH1 0x2 PUSH1 0x0 SWAP1 SLOAD SWAP1 PUSH2 0x100 EXP SWAP1 DIV PUSH20 0xFFFFFFFFFFFFFFFFFFFFFFFFFFFFFFFFFFFFFFFF AND PUSH20 0xFFFFFFFFFFFFFFFFFFFFFFFFFFFFFFFFFFFFFFFF AND PUSH2 0x8FC DUP4 SWAP1 DUP2 ISZERO MUL SWAP1 PUSH1 0x40 MLOAD PUSH1 0x0 PUSH1 0x40 MLOAD DUP1 DUP4 SUB DUP2 DUP6 DUP9 DUP9 CALL SWAP4 POP POP POP POP SWAP1 POP PUSH2 0x501 PUSH8 0x4A1759B156134137 PUSH1 0xC0 SHL PUSH2 0x792 JUMP JUMPDEST PUSH2 0x515 PUSH8 0x454F7DCEFFB072AD PUSH1 0xC0 SHL PUSH2 0x78F JUMP JUMPDEST PUSH2 0x529 PUSH8 0xF6A384B5911CC3EE PUSH1 0xC0 SHL PUSH2 0x78F JUMP JUMPDEST PUSH2 0x53D PUSH8 0xDBF4E69D6D924A39 PUSH1 0xC0 SHL PUSH2 0x78F JUMP JUMPDEST DUP5 PUSH1 0x3 DUP2 SWAP1 SSTORE POP POP POP POP POP POP JUMP JUMPDEST PUSH1 0x0 PUSH2 0x561 PUSH8 0xB9C0745FA0FE7BD6 PUSH1 0xC0 SHL PUSH2 0x78F JUMP JUMPDEST PUSH2 0x575 PUSH8 0x52F72CFBE5A8B803 PUSH1 0xC0 SHL PUSH2 0x78F JUMP JUMPDEST PUSH2 0x589 PUSH8 0xB4E56ED04A75AF6 PUSH1 0xC0 SHL PUSH2 0x78F JUMP JUMPDEST PUSH1 0x3 SLOAD SWAP1 POP SWAP1 JUMP JUMPDEST PUSH1 0x0 PUSH2 0x5A7 PUSH8 0xCC43CF7EFDAB234C PUSH1 0xC0 SHL PUSH2 0x792 JUMP JUMPDEST PUSH2 0x5BB PUSH8 0x1CB28BC6094EB596 PUSH1 0xC0 SHL PUSH2 0x792 JUMP JUMPDEST PUSH2 0x5CF PUSH8 0xC9322031F617EBA6 PUSH1 0xC0 SHL PUSH2 0x792 JUMP JUMPDEST PUSH1 0x0 PUSH2 0x5D9 PUSH2 0x60E JUMP JUMPDEST SWAP1 POP PUSH2 0x5EF PUSH8 0xC674F3534DAC2DEC PUSH1 0xC0 SHL PUSH2 0x792 JUMP JUMPDEST PUSH1 0x9 PUSH1 0xA DUP3 PUSH2 0x5FE SWAP2 SWAP1 PUSH2 0x910 JUMP JUMPDEST PUSH2 0x608 SWAP2 SWAP1 PUSH2 0x941 JUMP JUMPDEST SWAP2 POP POP SWAP1 JUMP JUMPDEST PUSH1 0x0 PUSH2 0x624 PUSH8 0xF1B3D5843E60ACE3 PUSH1 0xC0 SHL PUSH2 0x792 JUMP JUMPDEST PUSH2 0x638 PUSH8 0xC22E5FACA129DA02 PUSH1 0xC0 SHL PUSH2 0x792 JUMP JUMPDEST PUSH2 0x64C PUSH8 0x316DD800BEFC2632 PUSH1 0xC0 SHL PUSH2 0x792 JUMP JUMPDEST PUSH1 0x0 DUP1 PUSH1 0x0 SWAP1 SLOAD SWAP1 PUSH2 0x100 EXP SWAP1 DIV PUSH20 0xFFFFFFFFFFFFFFFFFFFFFFFFFFFFFFFFFFFFFFFF AND PUSH20 0xFFFFFFFFFFFFFFFFFFFFFFFFFFFFFFFFFFFFFFFF AND PUSH4 0xCED72F87 PUSH1 0x40 MLOAD DUP2 PUSH4 0xFFFFFFFF AND PUSH1 0xE0 SHL DUP2 MSTORE PUSH1 0x4 ADD PUSH1 0x20 PUSH1 0x40 MLOAD DUP1 DUP4 SUB DUP2 DUP7 DUP1 EXTCODESIZE ISZERO DUP1 ISZERO PUSH2 0x6B5 JUMPI PUSH1 0x0 DUP1 REVERT JUMPDEST POP GAS STATICCALL ISZERO DUP1 ISZERO PUSH2 0x6C9 JUMPI RETURNDATASIZE PUSH1 0x0 DUP1 RETURNDATACOPY RETURNDATASIZE PUSH1 0x0 REVERT JUMPDEST POP POP POP POP PUSH1 0x40 MLOAD RETURNDATASIZE PUSH1 0x1F NOT PUSH1 0x1F DUP3 ADD AND DUP3 ADD DUP1 PUSH1 0x40 MSTORE POP DUP2 ADD SWAP1 PUSH2 0x6ED SWAP2 SWAP1 PUSH2 0x7E8 JUMP JUMPDEST SWAP1 POP PUSH2 0x703 PUSH8 0xE9DAEE1B6C85C6BE PUSH1 0xC0 SHL PUSH2 0x792 JUMP JUMPDEST PUSH2 0x717 PUSH8 0xD3427DBDC02D5A4D PUSH1 0xC0 SHL PUSH2 0x792 JUMP JUMPDEST DUP1 SWAP2 POP POP SWAP1 JUMP JUMPDEST PUSH1 0x0 PUSH2 0x734 PUSH8 0xE0B5F08FD8DC49A6 PUSH1 0xC0 SHL PUSH2 0x792 JUMP JUMPDEST PUSH2 0x748 PUSH8 0x57C913A2A8F4BEFF PUSH1 0xC0 SHL PUSH2 0x792 JUMP JUMPDEST PUSH2 0x75C PUSH8 0x90403CDDE02533E8 PUSH1 0xC0 SHL PUSH2 0x792 JUMP JUMPDEST PUSH1 0x0 PUSH2 0x766 PUSH2 0x60E JUMP JUMPDEST SWAP1 POP PUSH2 0x77C PUSH8 0x1C87D02A3069B733 PUSH1 0xC0 SHL PUSH2 0x792 JUMP JUMPDEST PUSH1 0xA DUP2 PUSH2 0x789 SWAP2 SWAP1 PUSH2 0x910 JUMP JUMPDEST SWAP2 POP POP SWAP1 JUMP JUMPDEST POP JUMP JUMPDEST POP JUMP JUMPDEST PUSH1 0x0 DUP2 CALLDATALOAD SWAP1 POP PUSH2 0x7A4 DUP2 PUSH2 0xA47 JUMP JUMPDEST SWAP3 SWAP2 POP POP JUMP JUMPDEST PUSH1 0x0 DUP2 MLOAD SWAP1 POP PUSH2 0x7B9 DUP2 PUSH2 0xA47 JUMP JUMPDEST SWAP3 SWAP2 POP POP JUMP JUMPDEST PUSH1 0x0 PUSH1 0x20 DUP3 DUP5 SUB SLT ISZERO PUSH2 0x7D1 JUMPI PUSH1 0x0 DUP1 REVERT JUMPDEST PUSH1 0x0 PUSH2 0x7DF DUP5 DUP3 DUP6 ADD PUSH2 0x795 JUMP JUMPDEST SWAP2 POP POP SWAP3 SWAP2 POP POP JUMP JUMPDEST PUSH1 0x0 PUSH1 0x20 DUP3 DUP5 SUB SLT ISZERO PUSH2 0x7FA JUMPI PUSH1 0x0 DUP1 REVERT JUMPDEST PUSH1 0x0 PUSH2 0x808 DUP5 DUP3 DUP6 ADD PUSH2 0x7AA JUMP JUMPDEST SWAP2 POP POP SWAP3 SWAP2 POP POP JUMP JUMPDEST PUSH1 0x0 PUSH2 0x81C DUP3 PUSH2 0x8DE JUMP JUMPDEST PUSH2 0x826 DUP2 DUP6 PUSH2 0x8F4 JUMP JUMPDEST SWAP4 POP PUSH2 0x836 DUP2 DUP6 PUSH1 0x20 DUP7 ADD PUSH2 0x9A5 JUMP JUMPDEST DUP1 DUP5 ADD SWAP2 POP POP SWAP3 SWAP2 POP POP JUMP JUMPDEST PUSH1 0x0 PUSH2 0x84D DUP3 PUSH2 0x8E9 JUMP JUMPDEST PUSH2 0x857 DUP2 DUP6 PUSH2 0x8FF JUMP JUMPDEST SWAP4 POP PUSH2 0x867 DUP2 DUP6 PUSH1 0x20 DUP7 ADD PUSH2 0x9A5 JUMP JUMPDEST PUSH2 0x870 DUP2 PUSH2 0xA36 JUMP JUMPDEST DUP5 ADD SWAP2 POP POP SWAP3 SWAP2 POP POP JUMP JUMPDEST PUSH2 0x884 DUP2 PUSH2 0x99B JUMP JUMPDEST DUP3 MSTORE POP POP JUMP JUMPDEST PUSH1 0x0 PUSH2 0x896 DUP3 DUP5 PUSH2 0x811 JUMP JUMPDEST SWAP2 POP DUP2 SWAP1 POP SWAP3 SWAP2 POP POP JUMP JUMPDEST PUSH1 0x0 PUSH1 0x20 DUP3 ADD SWAP1 POP DUP2 DUP2 SUB PUSH1 0x0 DUP4 ADD MSTORE PUSH2 0x8BB DUP2 DUP5 PUSH2 0x842 JUMP JUMPDEST SWAP1 POP SWAP3 SWAP2 POP POP JUMP JUMPDEST PUSH1 0x0 PUSH1 0x20 DUP3 ADD SWAP1 POP PUSH2 0x8D8 PUSH1 0x0 DUP4 ADD DUP5 PUSH2 0x87B JUMP JUMPDEST SWAP3 SWAP2 POP POP JUMP JUMPDEST PUSH1 0x0 DUP2 MLOAD SWAP1 POP SWAP2 SWAP1 POP JUMP JUMPDEST PUSH1 0x0 DUP2 MLOAD SWAP1 POP SWAP2 SWAP1 POP JUMP JUMPDEST PUSH1 0x0 DUP2 SWAP1 POP SWAP3 SWAP2 POP POP JUMP JUMPDEST PUSH1 0x0 DUP3 DUP3 MSTORE PUSH1 0x20 DUP3 ADD SWAP1 POP SWAP3 SWAP2 POP POP JUMP JUMPDEST PUSH1 0x0 PUSH2 0x91B DUP3 PUSH2 0x99B JUMP JUMPDEST SWAP2 POP PUSH2 0x926 DUP4 PUSH2 0x99B JUMP JUMPDEST SWAP3 POP DUP3 PUSH2 0x936 JUMPI PUSH2 0x935 PUSH2 0xA07 JUMP JUMPDEST JUMPDEST DUP3 DUP3 DIV SWAP1 POP SWAP3 SWAP2 POP POP JUMP JUMPDEST PUSH1 0x0 PUSH2 0x94C DUP3 PUSH2 0x99B JUMP JUMPDEST SWAP2 POP PUSH2 0x957 DUP4 PUSH2 0x99B JUMP JUMPDEST SWAP3 POP DUP2 PUSH32 0xFFFFFFFFFFFFFFFFFFFFFFFFFFFFFFFFFFFFFFFFFFFFFFFFFFFFFFFFFFFFFFFF DIV DUP4 GT DUP3 ISZERO ISZERO AND ISZERO PUSH2 0x990 JUMPI PUSH2 0x98F PUSH2 0x9D8 JUMP JUMPDEST JUMPDEST DUP3 DUP3 MUL SWAP1 POP SWAP3 SWAP2 POP POP JUMP JUMPDEST PUSH1 0x0 DUP2 SWAP1 POP SWAP2 SWAP1 POP JUMP JUMPDEST PUSH1 0x0 JUMPDEST DUP4 DUP2 LT ISZERO PUSH2 0x9C3 JUMPI DUP1 DUP3 ADD MLOAD DUP2 DUP5 ADD MSTORE PUSH1 0x20 DUP2 ADD SWAP1 POP PUSH2 0x9A8 JUMP JUMPDEST DUP4 DUP2 GT ISZERO PUSH2 0x9D2 JUMPI PUSH1 0x0 DUP5 DUP5 ADD MSTORE JUMPDEST POP POP POP POP JUMP JUMPDEST PUSH32 0x4E487B7100000000000000000000000000000000000000000000000000000000 PUSH1 0x0 MSTORE PUSH1 0x11 PUSH1 0x4 MSTORE PUSH1 0x24 PUSH1 0x0 REVERT JUMPDEST PUSH32 0x4E487B7100000000000000000000000000000000000000000000000000000000 PUSH1 0x0 MSTORE PUSH1 0x12 PUSH1 0x4 MSTORE PUSH1 0x24 PUSH1 0x0 REVERT JUMPDEST PUSH1 0x0 PUSH1 0x1F NOT PUSH1 0x1F DUP4 ADD AND SWAP1 POP SWAP2 SWAP1 POP JUMP JUMPDEST PUSH2 0xA50 DUP2 PUSH2 0x99B JUMP JUMPDEST DUP2 EQ PUSH2 0xA5B JUMPI PUSH1 0x0 DUP1 REVERT JUMPDEST POP JUMP INVALID LOG2 PUSH5 0x6970667358 0x22 SLT KECCAK256 LOG0 0x5D 0xCE SAR ADD BYTE CODECOPY 0xD5 0x2D SLT 0xE5 RETURNDATASIZE SDIV 0xE1 0xAD PUSH10 0x48A63677F3736675412F DUP14 ORIGIN 0xDE SLT PUSH20 0xAC64736F6C634300080200330000000000000000 "},"methodIdentifiers":{"callFee()":"90321e1a","get()":"6d4ce63c","getDeveloperFee()":"77482b18","getHavenFee()":"b19929c3","h1Stored()":"2dcbf1c0","set(uint256)":"60fe47b1","storedData()":"2a1afcd9"}},"storageLayout":{"storage":[{"astId":330,"contract":"contracts/SimpleStorageWithDevAppFee.sol:SimpleStorageWithDevAppFee","label":"FeeContract","offset":0,"slot":"0","type":"t_address"},{"astId":332,"contract":"contracts/SimpleStorageWithDevAppFee.sol:SimpleStorageWithDevAppFee","label":"feeAmount","offset":0,"slot":"1","type":"t_uint256"},{"astId":334,"contract":"contracts/SimpleStorageWithDevAppFee.sol:SimpleStorageWithDevAppFee","label":"developerWallet","offset":0,"slot":"2","type":"t_address"},{"astId":703,"contract":"contracts/SimpleStorageWithDevAppFee.sol:SimpleStorageWithDevAppFee","label":"storedData","offset":0,"slot":"3","type":"t_uint256"},{"astId":705,"contract":"contracts/SimpleStorageWithDevAppFee.sol:SimpleStorageWithDevAppFee","label":"h1Stored","offset":0,"slot":"4","type":"t_uint256"}],"types":{"t_address":{"encoding":"inplace","label":"address","numberOfBytes":"20"},"t_uint256":{"encoding":"inplace","label":"uint256","numberOfBytes":"32"}}}}}}