{"contracts/H1DevelopedApplication.sol":{"H1DevelopedApplication":{"abi":[{"inputs":[{"internalType":"address","name":"_FeeContract","type":"address"},{"internalType":"address","name":"walletToCollectFees","type":"address"}],"stateMutability":"nonpayable","type":"constructor"},{"inputs":[],"name":"callFee","outputs":[{"internalType":"uint256","name":"","type":"uint256"}],"stateMutability":"view","type":"function"},{"inputs":[],"name":"getDeveloperFee","outputs":[{"internalType":"uint256","name":"developerFee","type":"uint256"}],"stateMutability":"view","type":"function"},{"inputs":[],"name":"getHavenFee","outputs":[{"internalType":"uint256","name":"havenOneFee","type":"uint256"}],"stateMutability":"view","type":"function"}],"evm":{"bytecode":{"linkReferences":{},"object":"608060405234801561001057600080fd5b506040516107fb3803806107fb83398181016040528101906100329190610263565b61004c67bcbcdb0ec4c62a5560c01b61024b60201b60201c565b610066677949f73461ebb8cf60c01b61024b60201b60201c565b6100806788146c218b6c29a260c01b61024b60201b60201c565b600073ffffffffffffffffffffffffffffffffffffffff168273ffffffffffffffffffffffffffffffffffffffff161415610175576100cf67d93731a74b30fd7c60c01b61024b60201b60201c565b6100e96762be0e3eb49d3e9760c01b61024b60201b60201c565b6101036735a364bf9ec0c9b160c01b61024b60201b60201c565b6040518060400160405280600381526020017f31323300000000000000000000000000000000000000000000000000000000008152506040517f08c379a000000000000000000000000000000000000000000000000000000000815260040161016c91906102d8565b60405180910390fd5b61018f67989474dc1f94bd4760c01b61024b60201b60201c565b6101a96735c6135bd30fb56160c01b61024b60201b60201c565b816000806101000a81548173ffffffffffffffffffffffffffffffffffffffff021916908373ffffffffffffffffffffffffffffffffffffffff160217905550610203673ae3d9bdfb94e26b60c01b61024b60201b60201c565b80600260006101000a81548173ffffffffffffffffffffffffffffffffffffffff021916908373ffffffffffffffffffffffffffffffffffffffff16021790555050506103a3565b50565b60008151905061025d8161038c565b92915050565b6000806040838503121561027657600080fd5b60006102848582860161024e565b92505060206102958582860161024e565b9150509250929050565b60006102aa826102fa565b6102b48185610305565b93506102c4818560208601610348565b6102cd8161037b565b840191505092915050565b600060208201905081810360008301526102f2818461029f565b905092915050565b600081519050919050565b600082825260208201905092915050565b600061032182610328565b9050919050565b600073ffffffffffffffffffffffffffffffffffffffff82169050919050565b60005b8381101561036657808201518184015260208101905061034b565b83811115610375576000848401525b50505050565b6000601f19601f8301169050919050565b61039581610316565b81146103a057600080fd5b50565b610449806103b26000396000f3fe608060405234801561001057600080fd5b50600436106100415760003560e01c806377482b181461004657806390321e1a14610064578063b19929c314610082575b600080fd5b61004e6100a0565b60405161005b91906102ee565b60405180910390f35b61006c61011d565b60405161007991906102ee565b60405180910390f35b61008a61022d565b60405161009791906102ee565b60405180910390f35b60006100b667cc43cf7efdab234c60c01b61029e565b6100ca671cb28bc6094eb59660c01b61029e565b6100de67c9322031f617eba660c01b61029e565b60006100e861011d565b90506100fe67c674f3534dac2dec60c01b61029e565b6009600a8261010d9190610309565b610117919061033a565b91505090565b600061013367f1b3d5843e60ace360c01b61029e565b61014767c22e5faca129da0260c01b61029e565b61015b67316dd800befc263260c01b61029e565b60008060009054906101000a900473ffffffffffffffffffffffffffffffffffffffff1673ffffffffffffffffffffffffffffffffffffffff1663ced72f876040518163ffffffff1660e01b815260040160206040518083038186803b1580156101c457600080fd5b505afa1580156101d8573d6000803e3d6000fd5b505050506040513d601f19601f820116820180604052508101906101fc91906102b6565b905061021267e9daee1b6c85c6be60c01b61029e565b61022667d3427dbdc02d5a4d60c01b61029e565b8091505090565b600061024367e0b5f08fd8dc49a660c01b61029e565b6102576757c913a2a8f4beff60c01b61029e565b61026b6790403cdde02533e860c01b61029e565b600061027561011d565b905061028b671c87d02a3069b73360c01b61029e565b600a816102989190610309565b91505090565b50565b6000815190506102b0816103fc565b92915050565b6000602082840312156102c857600080fd5b60006102d6848285016102a1565b91505092915050565b6102e881610394565b82525050565b600060208201905061030360008301846102df565b92915050565b600061031482610394565b915061031f83610394565b92508261032f5761032e6103cd565b5b828204905092915050565b600061034582610394565b915061035083610394565b9250817fffffffffffffffffffffffffffffffffffffffffffffffffffffffffffffffff04831182151516156103895761038861039e565b5b828202905092915050565b6000819050919050565b7f4e487b7100000000000000000000000000000000000000000000000000000000600052601160045260246000fd5b7f4e487b7100000000000000000000000000000000000000000000000000000000600052601260045260246000fd5b61040581610394565b811461041057600080fd5b5056fea2646970667358221220b9ae4fd8712c4b3550230c898970df40071b4e1ec0a5b41df1e7b7da8ba3f51a64736f6c63430008020033","opcodes":"PUSH1 0x80 PUSH1 0x40 MSTORE CALLVALUE DUP1 ISZERO PUSH2 0x10 JUMPI PUSH1 0x0 DUP1 REVERT JUMPDEST POP PUSH1 0x40 MLOAD PUSH2 0x7FB CODESIZE SUB DUP1 PUSH2 0x7FB DUP4 CODECOPY DUP2 DUP2 ADD PUSH1 0x40 MSTORE DUP2 ADD SWAP1 PUSH2 0x32 SWAP2 SWAP1 PUSH2 0x263 JUMP JUMPDEST PUSH2 0x4C PUSH8 0xBCBCDB0EC4C62A55 PUSH1 0xC0 SHL PUSH2 0x24B PUSH1 0x20 SHL PUSH1 0x20 SHR JUMP JUMPDEST PUSH2 0x66 PUSH8 0x7949F73461EBB8CF PUSH1 0xC0 SHL PUSH2 0x24B PUSH1 0x20 SHL PUSH1 0x20 SHR JUMP JUMPDEST PUSH2 0x80 PUSH8 0x88146C218B6C29A2 PUSH1 0xC0 SHL PUSH2 0x24B PUSH1 0x20 SHL PUSH1 0x20 SHR JUMP JUMPDEST PUSH1 0x0 PUSH20 0xFFFFFFFFFFFFFFFFFFFFFFFFFFFFFFFFFFFFFFFF AND DUP3 PUSH20 0xFFFFFFFFFFFFFFFFFFFFFFFFFFFFFFFFFFFFFFFF AND EQ ISZERO PUSH2 0x175 JUMPI PUSH2 0xCF PUSH8 0xD93731A74B30FD7C PUSH1 0xC0 SHL PUSH2 0x24B PUSH1 0x20 SHL PUSH1 0x20 SHR JUMP JUMPDEST PUSH2 0xE9 PUSH8 0x62BE0E3EB49D3E97 PUSH1 0xC0 SHL PUSH2 0x24B PUSH1 0x20 SHL PUSH1 0x20 SHR JUMP JUMPDEST PUSH2 0x103 PUSH8 0x35A364BF9EC0C9B1 PUSH1 0xC0 SHL PUSH2 0x24B PUSH1 0x20 SHL PUSH1 0x20 SHR JUMP JUMPDEST PUSH1 0x40 MLOAD DUP1 PUSH1 0x40 ADD PUSH1 0x40 MSTORE DUP1 PUSH1 0x3 DUP2 MSTORE PUSH1 0x20 ADD PUSH32 0x3132330000000000000000000000000000000000000000000000000000000000 DUP2 MSTORE POP PUSH1 0x40 MLOAD PUSH32 0x8C379A000000000000000000000000000000000000000000000000000000000 DUP2 MSTORE PUSH1 0x4 ADD PUSH2 0x16C SWAP2 SWAP1 PUSH2 0x2D8 JUMP JUMPDEST PUSH1 0x40 MLOAD DUP1 SWAP2 SUB SWAP1 REVERT JUMPDEST PUSH2 0x18F PUSH8 0x989474DC1F94BD47 PUSH1 0xC0 SHL PUSH2 0x24B PUSH1 0x20 SHL PUSH1 0x20 SHR JUMP JUMPDEST PUSH2 0x1A9 PUSH8 0x35C6135BD30FB561 PUSH1 0xC0 SHL PUSH2 0x24B PUSH1 0x20 SHL PUSH1 0x20 SHR JUMP JUMPDEST DUP2 PUSH1 0x0 DUP1 PUSH2 0x100 EXP DUP2 SLOAD DUP2 PUSH20 0xFFFFFFFFFFFFFFFFFFFFFFFFFFFFFFFFFFFFFFFF MUL NOT AND SWAP1 DUP4 PUSH20 0xFFFFFFFFFFFFFFFFFFFFFFFFFFFFFFFFFFFFFFFF AND MUL OR SWAP1 SSTORE POP PUSH2 0x203 PUSH8 0x3AE3D9BDFB94E26B PUSH1 0xC0 SHL PUSH2 0x24B PUSH1 0x20 SHL PUSH1 0x20 SHR JUMP JUMPDEST DUP1 PUSH1 0x2 PUSH1 0x0 PUSH2 0x100 EXP DUP2 SLOAD DUP2 PUSH20 0xFFFFFFFFFFFFFFFFFFFFFFFFFFFFFFFFFFFFFFFF MUL NOT AND SWAP1 DUP4 PUSH20 0xFFFFFFFFFFFFFFFFFFFFFFFFFFFFFFFFFFFFFFFF AND MUL OR SWAP1 SSTORE POP POP POP PUSH2 0x3A3 JUMP JUMPDEST POP JUMP JUMPDEST PUSH1 0x0 DUP2 MLOAD SWAP1 POP PUSH2 0x25D DUP2 PUSH2 0x38C JUMP JUMPDEST SWAP3 SWAP2 POP POP JUMP JUMPDEST PUSH1 0x0 DUP1 PUSH1 0x40 DUP4 DUP6 SUB SLT ISZERO PUSH2 0x276 JUMPI PUSH1 0x0 DUP1 REVERT JUMPDEST PUSH1 0x0 PUSH2 0x284 DUP6 DUP3 DUP7 ADD PUSH2 0x24E JUMP JUMPDEST SWAP3 POP POP PUSH1 0x20 PUSH2 0x295 DUP6 DUP3 DUP7 ADD PUSH2 0x24E JUMP JUMPDEST SWAP2 POP POP SWAP3 POP SWAP3 SWAP1 POP JUMP JUMPDEST PUSH1 0x0 PUSH2 0x2AA DUP3 PUSH2 0x2FA JUMP JUMPDEST PUSH2 0x2B4 DUP2 DUP6 PUSH2 0x305 JUMP JUMPDEST SWAP4 POP PUSH2 0x2C4 DUP2 DUP6 PUSH1 0x20 DUP7 ADD PUSH2 0x348 JUMP JUMPDEST PUSH2 0x2CD DUP2 PUSH2 0x37B JUMP JUMPDEST DUP5 ADD SWAP2 POP POP SWAP3 SWAP2 POP POP JUMP JUMPDEST PUSH1 0x0 PUSH1 0x20 DUP3 ADD SWAP1 POP DUP2 DUP2 SUB PUSH1 0x0 DUP4 ADD MSTORE PUSH2 0x2F2 DUP2 DUP5 PUSH2 0x29F JUMP JUMPDEST SWAP1 POP SWAP3 SWAP2 POP POP JUMP JUMPDEST PUSH1 0x0 DUP2 MLOAD SWAP1 POP SWAP2 SWAP1 POP JUMP JUMPDEST PUSH1 0x0 DUP3 DUP3 MSTORE PUSH1 0x20 DUP3 ADD SWAP1 POP SWAP3 SWAP2 POP POP JUMP JUMPDEST PUSH1 0x0 PUSH2 0x321 DUP3 PUSH2 0x328 JUMP JUMPDEST SWAP1 POP SWAP2 SWAP1 POP JUMP JUMPDEST PUSH1 0x0 PUSH20 0xFFFFFFFFFFFFFFFFFFFFFFFFFFFFFFFFFFFFFFFF DUP3 AND SWAP1 POP SWAP2 SWAP1 POP JUMP JUMPDEST PUSH1 0x0 JUMPDEST DUP4 DUP2 LT ISZERO PUSH2 0x366 JUMPI DUP1 DUP3 ADD MLOAD DUP2 DUP5 ADD MSTORE PUSH1 0x20 DUP2 ADD SWAP1 POP PUSH2 0x34B JUMP JUMPDEST DUP4 DUP2 GT ISZERO PUSH2 0x375 JUMPI PUSH1 0x0 DUP5 DUP5 ADD MSTORE JUMPDEST POP POP POP POP JUMP JUMPDEST PUSH1 0x0 PUSH1 0x1F NOT PUSH1 0x1F DUP4 ADD AND SWAP1 POP SWAP2 SWAP1 POP JUMP JUMPDEST PUSH2 0x395 DUP2 PUSH2 0x316 JUMP JUMPDEST DUP2 EQ PUSH2 0x3A0 JUMPI PUSH1 0x0 DUP1 REVERT JUMPDEST POP JUMP JUMPDEST PUSH2 0x449 DUP1 PUSH2 0x3B2 PUSH1 0x0 CODECOPY PUSH1 0x0 RETURN INVALID PUSH1 0x80 PUSH1 0x40 MSTORE CALLVALUE DUP1 ISZERO PUSH2 0x10 JUMPI PUSH1 0x0 DUP1 REVERT JUMPDEST POP PUSH1 0x4 CALLDATASIZE LT PUSH2 0x41 JUMPI PUSH1 0x0 CALLDATALOAD PUSH1 0xE0 SHR DUP1 PUSH4 0x77482B18 EQ PUSH2 0x46 JUMPI DUP1 PUSH4 0x90321E1A EQ PUSH2 0x64 JUMPI DUP1 PUSH4 0xB19929C3 EQ PUSH2 0x82 JUMPI JUMPDEST PUSH1 0x0 DUP1 REVERT JUMPDEST PUSH2 0x4E PUSH2 0xA0 JUMP JUMPDEST PUSH1 0x40 MLOAD PUSH2 0x5B SWAP2 SWAP1 PUSH2 0x2EE JUMP JUMPDEST PUSH1 0x40 MLOAD DUP1 SWAP2 SUB SWAP1 RETURN JUMPDEST PUSH2 0x6C PUSH2 0x11D JUMP JUMPDEST PUSH1 0x40 MLOAD PUSH2 0x79 SWAP2 SWAP1 PUSH2 0x2EE JUMP JUMPDEST PUSH1 0x40 MLOAD DUP1 SWAP2 SUB SWAP1 RETURN JUMPDEST PUSH2 0x8A PUSH2 0x22D JUMP JUMPDEST PUSH1 0x40 MLOAD PUSH2 0x97 SWAP2 SWAP1 PUSH2 0x2EE JUMP JUMPDEST PUSH1 0x40 MLOAD DUP1 SWAP2 SUB SWAP1 RETURN JUMPDEST PUSH1 0x0 PUSH2 0xB6 PUSH8 0xCC43CF7EFDAB234C PUSH1 0xC0 SHL PUSH2 0x29E JUMP JUMPDEST PUSH2 0xCA PUSH8 0x1CB28BC6094EB596 PUSH1 0xC0 SHL PUSH2 0x29E JUMP JUMPDEST PUSH2 0xDE PUSH8 0xC9322031F617EBA6 PUSH1 0xC0 SHL PUSH2 0x29E JUMP JUMPDEST PUSH1 0x0 PUSH2 0xE8 PUSH2 0x11D JUMP JUMPDEST SWAP1 POP PUSH2 0xFE PUSH8 0xC674F3534DAC2DEC PUSH1 0xC0 SHL PUSH2 0x29E JUMP JUMPDEST PUSH1 0x9 PUSH1 0xA DUP3 PUSH2 0x10D SWAP2 SWAP1 PUSH2 0x309 JUMP JUMPDEST PUSH2 0x117 SWAP2 SWAP1 PUSH2 0x33A JUMP JUMPDEST SWAP2 POP POP SWAP1 JUMP JUMPDEST PUSH1 0x0 PUSH2 0x133 PUSH8 0xF1B3D5843E60ACE3 PUSH1 0xC0 SHL PUSH2 0x29E JUMP JUMPDEST PUSH2 0x147 PUSH8 0xC22E5FACA129DA02 PUSH1 0xC0 SHL PUSH2 0x29E JUMP JUMPDEST PUSH2 0x15B PUSH8 0x316DD800BEFC2632 PUSH1 0xC0 SHL PUSH2 0x29E JUMP JUMPDEST PUSH1 0x0 DUP1 PUSH1 0x0 SWAP1 SLOAD SWAP1 PUSH2 0x100 EXP SWAP1 DIV PUSH20 0xFFFFFFFFFFFFFFFFFFFFFFFFFFFFFFFFFFFFFFFF AND PUSH20 0xFFFFFFFFFFFFFFFFFFFFFFFFFFFFFFFFFFFFFFFF AND PUSH4 0xCED72F87 PUSH1 0x40 MLOAD DUP2 PUSH4 0xFFFFFFFF AND PUSH1 0xE0 SHL DUP2 MSTORE PUSH1 0x4 ADD PUSH1 0x20 PUSH1 0x40 MLOAD DUP1 DUP4 SUB DUP2 DUP7 DUP1 EXTCODESIZE ISZERO DUP1 ISZERO PUSH2 0x1C4 JUMPI PUSH1 0x0 DUP1 REVERT JUMPDEST POP GAS STATICCALL ISZERO DUP1 ISZERO PUSH2 0x1D8 JUMPI RETURNDATASIZE PUSH1 0x0 DUP1 RETURNDATACOPY RETURNDATASIZE PUSH1 0x0 REVERT JUMPDEST POP POP POP POP PUSH1 0x40 MLOAD RETURNDATASIZE PUSH1 0x1F NOT PUSH1 0x1F DUP3 ADD AND DUP3 ADD DUP1 PUSH1 0x40 MSTORE POP DUP2 ADD SWAP1 PUSH2 0x1FC SWAP2 SWAP1 PUSH2 0x2B6 JUMP JUMPDEST SWAP1 POP PUSH2 0x212 PUSH8 0xE9DAEE1B6C85C6BE PUSH1 0xC0 SHL PUSH2 0x29E JUMP JUMPDEST PUSH2 0x226 PUSH8 0xD3427DBDC02D5A4D PUSH1 0xC0 SHL PUSH2 0x29E JUMP JUMPDEST DUP1 SWAP2 POP POP SWAP1 JUMP JUMPDEST PUSH1 0x0 PUSH2 0x243 PUSH8 0xE0B5F08FD8DC49A6 PUSH1 0xC0 SHL PUSH2 0x29E JUMP JUMPDEST PUSH2 0x257 PUSH8 0x57C913A2A8F4BEFF PUSH1 0xC0 SHL PUSH2 0x29E JUMP JUMPDEST PUSH2 0x26B PUSH8 0x90403CDDE02533E8 PUSH1 0xC0 SHL PUSH2 0x29E JUMP JUMPDEST PUSH1 0x0 PUSH2 0x275 PUSH2 0x11D JUMP JUMPDEST SWAP1 POP PUSH2 0x28B PUSH8 0x1C87D02A3069B733 PUSH1 0xC0 SHL PUSH2 0x29E JUMP JUMPDEST PUSH1 0xA DUP2 PUSH2 0x298 SWAP2 SWAP1 PUSH2 0x309 JUMP JUMPDEST SWAP2 POP POP SWAP1 JUMP JUMPDEST POP JUMP JUMPDEST PUSH1 0x0 DUP2 MLOAD SWAP1 POP PUSH2 0x2B0 DUP2 PUSH2 0x3FC JUMP JUMPDEST SWAP3 SWAP2 POP POP JUMP JUMPDEST PUSH1 0x0 PUSH1 0x20 DUP3 DUP5 SUB SLT ISZERO PUSH2 0x2C8 JUMPI PUSH1 0x0 DUP1 REVERT JUMPDEST PUSH1 0x0 PUSH2 0x2D6 DUP5 DUP3 DUP6 ADD PUSH2 0x2A1 JUMP JUMPDEST SWAP2 POP POP SWAP3 SWAP2 POP POP JUMP JUMPDEST PUSH2 0x2E8 DUP2 PUSH2 0x394 JUMP JUMPDEST DUP3 MSTORE POP POP JUMP JUMPDEST PUSH1 0x0 PUSH1 0x20 DUP3 ADD SWAP1 POP PUSH2 0x303 PUSH1 0x0 DUP4 ADD DUP5 PUSH2 0x2DF JUMP JUMPDEST SWAP3 SWAP2 POP POP JUMP JUMPDEST PUSH1 0x0 PUSH2 0x314 DUP3 PUSH2 0x394 JUMP JUMPDEST SWAP2 POP PUSH2 0x31F DUP4 PUSH2 0x394 JUMP JUMPDEST SWAP3 POP DUP3 PUSH2 0x32F JUMPI PUSH2 0x32E PUSH2 0x3CD JUMP JUMPDEST JUMPDEST DUP3 DUP3 DIV SWAP1 POP SWAP3 SWAP2 POP POP JUMP JUMPDEST PUSH1 0x0 PUSH2 0x345 DUP3 PUSH2 0x394 JUMP JUMPDEST SWAP2 POP PUSH2 0x350 DUP4 PUSH2 0x394 JUMP JUMPDEST SWAP3 POP DUP2 PUSH32 0xFFFFFFFFFFFFFFFFFFFFFFFFFFFFFFFFFFFFFFFFFFFFFFFFFFFFFFFFFFFFFFFF DIV DUP4 GT DUP3 ISZERO ISZERO AND ISZERO PUSH2 0x389 JUMPI PUSH2 0x388 PUSH2 0x39E JUMP JUMPDEST JUMPDEST DUP3 DUP3 MUL SWAP1 POP SWAP3 SWAP2 POP POP JUMP JUMPDEST PUSH1 0x0 DUP2 SWAP1 POP SWAP2 SWAP1 POP JUMP JUMPDEST PUSH32 0x4E487B7100000000000000000000000000000000000000000000000000000000 PUSH1 0x0 MSTORE PUSH1 0x11 PUSH1 0x4 MSTORE PUSH1 0x24 PUSH1 0x0 REVERT JUMPDEST PUSH32 0x4E487B7100000000000000000000000000000000000000000000000000000000 PUSH1 0x0 MSTORE PUSH1 0x12 PUSH1 0x4 MSTORE PUSH1 0x24 PUSH1 0x0 REVERT JUMPDEST PUSH2 0x405 DUP2 PUSH2 0x394 JUMP JUMPDEST DUP2 EQ PUSH2 0x410 JUMPI PUSH1 0x0 DUP1 REVERT JUMPDEST POP JUMP INVALID LOG2 PUSH5 0x6970667358 0x22 SLT KECCAK256 0xB9 0xAE 0x4F 0xD8 PUSH18 0x2C4B3550230C898970DF40071B4E1EC0A5B4 SAR CALL 0xE7 0xB7 0xDA DUP12 LOG3 CREATE2 BYTE PUSH5 0x736F6C6343 STOP ADDMOD MUL STOP CALLER "},"methodIdentifiers":{"callFee()":"90321e1a","getDeveloperFee()":"77482b18","getHavenFee()":"b19929c3"}},"storageLayout":{"storage":[{"astId":330,"contract":"contracts/H1DevelopedApplication.sol:H1DevelopedApplication","label":"FeeContract","offset":0,"slot":"0","type":"t_address"},{"astId":332,"contract":"contracts/H1DevelopedApplication.sol:H1DevelopedApplication","label":"feeAmount","offset":0,"slot":"1","type":"t_uint256"},{"astId":334,"contract":"contracts/H1DevelopedApplication.sol:H1DevelopedApplication","label":"developerWallet","offset":0,"slot":"2","type":"t_address"}],"types":{"t_address":{"encoding":"inplace","label":"address","numberOfBytes":"20"},"t_uint256":{"encoding":"inplace","label":"uint256","numberOfBytes":"32"}}}}}}