{
  "_format": "hh-sol-artifact-1",
  "contractName": "SimpleStorageWithFee",
  "sourceName": "contracts/SimpleStorageWithFee.sol",
  "abi": [
    {
      "inputs": [
        {
          "internalType": "address",
          "name": "_feeContract",
          "type": "address"
        }
      ],
      "stateMutability": "nonpayable",
      "type": "constructor"
    },
    {
      "inputs": [],
      "name": "FeeQueryNative",
      "outputs": [
        {
          "internalType": "contract FeeQuery",
          "name": "",
          "type": "address"
        }
      ],
      "stateMutability": "view",
      "type": "function"
    },
    {
      "inputs": [],
      "name": "callFee",
      "outputs": [
        {
          "internalType": "uint256",
          "name": "",
          "type": "uint256"
        }
      ],
      "stateMutability": "view",
      "type": "function"
    },
    {
      "inputs": [],
      "name": "epochLength",
      "outputs": [
        {
          "internalType": "uint256",
          "name": "",
          "type": "uint256"
        }
      ],
      "stateMutability": "view",
      "type": "function"
    },
    {
      "inputs": [],
      "name": "fee",
      "outputs": [
        {
          "internalType": "uint256",
          "name": "",
          "type": "uint256"
        }
      ],
      "stateMutability": "view",
      "type": "function"
    },
    {
      "inputs": [],
      "name": "get",
      "outputs": [
        {
          "internalType": "uint256",
          "name": "retVal",
          "type": "uint256"
        }
      ],
      "stateMutability": "view",
      "type": "function"
    },
    {
      "inputs": [],
      "name": "getFee",
      "outputs": [
        {
          "internalType": "uint256",
          "name": "",
          "type": "uint256"
        }
      ],
      "stateMutability": "view",
      "type": "function"
    },
    {
      "inputs": [],
      "name": "h1Stored",
      "outputs": [
        {
          "internalType": "uint256",
          "name": "",
          "type": "uint256"
        }
      ],
      "stateMutability": "view",
      "type": "function"
    },
    {
      "inputs": [],
      "name": "requiredReset",
      "outputs": [
        {
          "internalType": "uint256",
          "name": "",
          "type": "uint256"
        }
      ],
      "stateMutability": "view",
      "type": "function"
    },
    {
      "inputs": [
        {
          "internalType": "uint256",
          "name": "x",
          "type": "uint256"
        }
      ],
      "name": "set",
      "outputs": [],
      "stateMutability": "payable",
      "type": "function"
    },
    {
      "inputs": [],
      "name": "storedData",
      "outputs": [
        {
          "internalType": "uint256",
          "name": "",
          "type": "uint256"
        }
      ],
      "stateMutability": "view",
      "type": "function"
    }
  ],
  "bytecode": "0x60806040523480156200001157600080fd5b5060405162000eb038038062000eb08339818101604052810190620000379190620002c7565b806200005467924dcbdeb069767460c01b620002aa60201b60201c565b6200007067111a410acca6edcf60c01b620002aa60201b60201c565b6200008c6734a3a8c7780e275e60c01b620002aa60201b60201c565b600073ffffffffffffffffffffffffffffffffffffffff168173ffffffffffffffffffffffffffffffffffffffff1614156200018a57620000de6795449ce6ec5e069a60c01b620002aa60201b60201c565b620000fa67ec719e5f166cee7060c01b620002aa60201b60201c565b620001166732dfdc40ad8d92be60c01b620002aa60201b60201c565b6040518060400160405280600381526020017f31323300000000000000000000000000000000000000000000000000000000008152506040517f08c379a000000000000000000000000000000000000000000000000000000000815260040162000181919062000334565b60405180910390fd5b620001a66775fd9e78a75cc41860c01b620002aa60201b60201c565b620001c2678838e58e250cdc6660c01b620002aa60201b60201c565b80600360006101000a81548173ffffffffffffffffffffffffffffffffffffffff021916908373ffffffffffffffffffffffffffffffffffffffff1602179055506200021f6738e9f8a274588bab60c01b620002aa60201b60201c565b80600460006101000a81548173ffffffffffffffffffffffffffffffffffffffff021916908373ffffffffffffffffffffffffffffffffffffffff1602179055506200027c673fb9a376e61d80c860c01b620002aa60201b60201c565b6201518060008190555050620002a367f7a300ca3d09eee760c01b620002ad60201b60201c565b5062000409565b50565b50565b600081519050620002c181620003ef565b92915050565b600060208284031215620002da57600080fd5b6000620002ea84828501620002b0565b91505092915050565b6000620003008262000358565b6200030c818562000363565b93506200031e818560208601620003a8565b6200032981620003de565b840191505092915050565b60006020820190508181036000830152620003508184620002f3565b905092915050565b600081519050919050565b600082825260208201905092915050565b6000620003818262000388565b9050919050565b600073ffffffffffffffffffffffffffffffffffffffff82169050919050565b60005b83811015620003c8578082015181840152602081019050620003ab565b83811115620003d8576000848401525b50505050565b6000601f19601f8301169050919050565b620003fa8162000374565b81146200040657600080fd5b50565b610a9780620004196000396000f3fe6080604052600436106100915760003560e01c806390321e1a1161005957806390321e1a1461015e578063ab407bb614610189578063ced72f87146101b4578063ddca3f43146101df578063f5fa96e51461020a57610091565b80632a1afcd9146100965780632dcbf1c0146100c157806357d775f8146100ec57806360fe47b1146101175780636d4ce63c14610133575b600080fd5b3480156100a257600080fd5b506100ab610235565b6040516100b89190610942565b60405180910390f35b3480156100cd57600080fd5b506100d661023b565b6040516100e39190610942565b60405180910390f35b3480156100f857600080fd5b50610101610241565b60405161010e9190610942565b60405180910390f35b610131600480360381019061012c91906107d1565b610247565b005b34801561013f57600080fd5b50610148610512565b6040516101559190610942565b60405180910390f35b34801561016a57600080fd5b50610173610558565b6040516101809190610942565b60405180910390f35b34801561019557600080fd5b5061019e610669565b6040516101ab91906108e5565b60405180910390f35b3480156101c057600080fd5b506101c961068f565b6040516101d69190610942565b60405180910390f35b3480156101eb57600080fd5b506101f4610792565b6040516102019190610942565b60405180910390f35b34801561021657600080fd5b5061021f610798565b60405161022c9190610942565b60405180910390f35b60055481565b60065481565b60005481565b61025b67dd0de618084367d760c01b61079e565b61026f677e2eeec893e065c260c01b6107a1565b6102836776ccba1177afc08760c01b6107a1565b6102976783a180d24a206f1a60c01b6107a1565b61029f610558565b341080156102b4575060006102b2610558565b115b15610367576102cd674721ffdb6942706460c01b6107a1565b6102e1675f657bd19e48d0eb60c01b6107a1565b6102f567e84559ea25e318ee60c01b6107a1565b6040518060400160405280600381526020017f31323500000000000000000000000000000000000000000000000000000000008152506040517f08c379a000000000000000000000000000000000000000000000000000000000815260040161035e9190610900565b60405180910390fd5b61037b67ce0e9487806c2a8760c01b6107a1565b61038f675f33f19d9bd6e76460c01b6107a1565b6103a367f69d5bf1e59f78b360c01b6107a1565b6000600360009054906101000a900473ffffffffffffffffffffffffffffffffffffffff1673ffffffffffffffffffffffffffffffffffffffff166002546040516024016040516020818303038152906040527fa3e76c0f000000000000000000000000000000000000000000000000000000007bffffffffffffffffffffffffffffffffffffffffffffffffffffffff19166020820180517bffffffffffffffffffffffffffffffffffffffffffffffffffffffff838183161783525050505060405161047191906108ce565b60006040518083038185875af1925050503d80600081146104ae576040519150601f19603f3d011682016040523d82523d6000602084013e6104b3565b606091505b505090506104cb67f593b98ad4a8d6ae60c01b6107a1565b6104df67fb2697dd6cb839a160c01b61079e565b6104f3670fde308e2b8495ef60c01b61079e565b61050767afa967c3c7d68dfc60c01b61079e565b816005819055505050565b60006105286782ea6ccb5afc285160c01b61079e565b61053c679f3d6d10294694ce60c01b61079e565b61055067291ef51006c362bd60c01b61079e565b600554905090565b600061056e671486868452fb1b6760c01b6107a1565b61058267e66fdbe2166efb0660c01b6107a1565b610596671b49bbbc39daaa7260c01b6107a1565b6000600360009054906101000a900473ffffffffffffffffffffffffffffffffffffffff1673ffffffffffffffffffffffffffffffffffffffff1663ced72f876040518163ffffffff1660e01b815260040160206040518083038186803b15801561060057600080fd5b505afa158015610614573d6000803e3d6000fd5b505050506040513d601f19601f8201168201806040525081019061063891906107fa565b905061064e6704863258c18b456b60c01b6107a1565b61066267c626e8b6cbb3847f60c01b6107a1565b8091505090565b600460009054906101000a900473ffffffffffffffffffffffffffffffffffffffff1681565b60006106a567eb1b54e909ec2d3560c01b6107a4565b6106b967ee820581ba1ab36760c01b6107a4565b6106cd672a1ce9267ec3da9c60c01b6107a4565b42600154101561074e576106eb67c59878417f2a2a4260c01b6107a4565b6106ff67ac19e5d73e78a64660c01b6107a4565b6107136742d607b9ea73dd2460c01b6107a4565b6040517f08c379a000000000000000000000000000000000000000000000000000000000815260040161074590610922565b60405180910390fd5b61076267b2196b2cb2b702e660c01b6107a4565b6107766761f3f0929a6a3e1060c01b6107a4565b61078a67adb48ccdef7e6a4560c01b6107a4565b600254905090565b60025481565b60015481565b50565b50565b50565b6000813590506107b681610a4a565b92915050565b6000815190506107cb81610a4a565b92915050565b6000602082840312156107e357600080fd5b60006107f1848285016107a7565b91505092915050565b60006020828403121561080c57600080fd5b600061081a848285016107bc565b91505092915050565b600061082e8261095d565b6108388185610973565b93506108488185602086016109dd565b80840191505092915050565b61085d816109b9565b82525050565b600061086e82610968565b610878818561097e565b93506108888185602086016109dd565b61089181610a10565b840191505092915050565b60006108a9600a8361097e565b91506108b482610a21565b602082019050919050565b6108c8816109af565b82525050565b60006108da8284610823565b915081905092915050565b60006020820190506108fa6000830184610854565b92915050565b6000602082019050818103600083015261091a8184610863565b905092915050565b6000602082019050818103600083015261093b8161089c565b9050919050565b600060208201905061095760008301846108bf565b92915050565b600081519050919050565b600081519050919050565b600081905092915050565b600082825260208201905092915050565b600073ffffffffffffffffffffffffffffffffffffffff82169050919050565b6000819050919050565b60006109c4826109cb565b9050919050565b60006109d68261098f565b9050919050565b60005b838110156109fb5780820151818401526020810190506109e0565b83811115610a0a576000848401525b50505050565b6000601f19601f8301169050919050565b7f7265736574466565282900000000000000000000000000000000000000000000600082015250565b610a53816109af565b8114610a5e57600080fd5b5056fea2646970667358221220d998ba45ce0d28f24223f8bd758cd5d54579988938442f30a2fd411fb9b5ef9464736f6c63430008020033",
  "linkReferences": {},
  "deployedLinkReferences": {}
}