{
  "_format": "hh-sol-artifact-1",
  "contractName": "SimpleStorageWithFee",
  "sourceName": "contracts/SimpleStorageWithFee.sol",
  "abi": [
    {
      "inputs": [
        {
          "internalType": "address",
          "name": "_feeContract",
          "type": "address"
        }
      ],
      "stateMutability": "nonpayable",
      "type": "constructor"
    },
    {
      "inputs": [],
      "name": "FeeQueryNative",
      "outputs": [
        {
          "internalType": "contract FeeQuery",
          "name": "",
          "type": "address"
        }
      ],
      "stateMutability": "view",
      "type": "function"
    },
    {
      "inputs": [],
      "name": "callFee",
      "outputs": [
        {
          "internalType": "uint256",
          "name": "",
          "type": "uint256"
        }
      ],
      "stateMutability": "view",
      "type": "function"
    },
    {
      "inputs": [],
      "name": "epochLength",
      "outputs": [
        {
          "internalType": "uint256",
          "name": "",
          "type": "uint256"
        }
      ],
      "stateMutability": "view",
      "type": "function"
    },
    {
      "inputs": [],
      "name": "fee",
      "outputs": [
        {
          "internalType": "uint256",
          "name": "",
          "type": "uint256"
        }
      ],
      "stateMutability": "view",
      "type": "function"
    },
    {
      "inputs": [],
      "name": "get",
      "outputs": [
        {
          "internalType": "uint256",
          "name": "retVal",
          "type": "uint256"
        }
      ],
      "stateMutability": "view",
      "type": "function"
    },
    {
      "inputs": [],
      "name": "getFee",
      "outputs": [
        {
          "internalType": "uint256",
          "name": "",
          "type": "uint256"
        }
      ],
      "stateMutability": "view",
      "type": "function"
    },
    {
      "inputs": [],
      "name": "h1Stored",
      "outputs": [
        {
          "internalType": "uint256",
          "name": "",
          "type": "uint256"
        }
      ],
      "stateMutability": "view",
      "type": "function"
    },
    {
      "inputs": [],
      "name": "requiredReset",
      "outputs": [
        {
          "internalType": "uint256",
          "name": "",
          "type": "uint256"
        }
      ],
      "stateMutability": "view",
      "type": "function"
    },
    {
      "inputs": [
        {
          "internalType": "uint256",
          "name": "x",
          "type": "uint256"
        }
      ],
      "name": "set",
      "outputs": [],
      "stateMutability": "payable",
      "type": "function"
    },
    {
      "inputs": [],
      "name": "storedData",
      "outputs": [
        {
          "internalType": "uint256",
          "name": "",
          "type": "uint256"
        }
      ],
      "stateMutability": "view",
      "type": "function"
    }
  ],
  "bytecode": "0x608060405234801561001057600080fd5b50604051610adf380380610adf83398181016040528101906100329190610182565b80600073ffffffffffffffffffffffffffffffffffffffff168173ffffffffffffffffffffffffffffffffffffffff1614156100da576040518060400160405280600381526020017f31323300000000000000000000000000000000000000000000000000000000008152506040517f08c379a00000000000000000000000000000000000000000000000000000000081526004016100d191906101e4565b60405180910390fd5b80600360006101000a81548173ffffffffffffffffffffffffffffffffffffffff021916908373ffffffffffffffffffffffffffffffffffffffff16021790555080600460006101000a81548173ffffffffffffffffffffffffffffffffffffffff021916908373ffffffffffffffffffffffffffffffffffffffff1602179055506201518060008190555050506102af565b60008151905061017c81610298565b92915050565b60006020828403121561019457600080fd5b60006101a28482850161016d565b91505092915050565b60006101b682610206565b6101c08185610211565b93506101d0818560208601610254565b6101d981610287565b840191505092915050565b600060208201905081810360008301526101fe81846101ab565b905092915050565b600081519050919050565b600082825260208201905092915050565b600061022d82610234565b9050919050565b600073ffffffffffffffffffffffffffffffffffffffff82169050919050565b60005b83811015610272578082015181840152602081019050610257565b83811115610281576000848401525b50505050565b6000601f19601f8301169050919050565b6102a181610222565b81146102ac57600080fd5b50565b610821806102be6000396000f3fe6080604052600436106100915760003560e01c806390321e1a1161005957806390321e1a1461015e578063ab407bb614610189578063ced72f87146101b4578063ddca3f43146101df578063f5fa96e51461020a57610091565b80632a1afcd9146100965780632dcbf1c0146100c157806357d775f8146100ec57806360fe47b1146101175780636d4ce63c14610133575b600080fd5b3480156100a257600080fd5b506100ab610235565b6040516100b891906106cc565b60405180910390f35b3480156100cd57600080fd5b506100d661023b565b6040516100e391906106cc565b60405180910390f35b3480156100f857600080fd5b50610101610241565b60405161010e91906106cc565b60405180910390f35b610131600480360381019061012c919061055b565b610247565b005b34801561013f57600080fd5b506101486103fa565b60405161015591906106cc565b60405180910390f35b34801561016a57600080fd5b50610173610404565b60405161018091906106cc565b60405180910390f35b34801561019557600080fd5b5061019e6104b0565b6040516101ab919061066f565b60405180910390f35b3480156101c057600080fd5b506101c96104d6565b6040516101d691906106cc565b60405180910390f35b3480156101eb57600080fd5b506101f4610525565b60405161020191906106cc565b60405180910390f35b34801561021657600080fd5b5061021f61052b565b60405161022c91906106cc565b60405180910390f35b60055481565b60065481565b60005481565b61024f610404565b3410801561026457506000610262610404565b115b156102db576040518060400160405280600381526020017f31323500000000000000000000000000000000000000000000000000000000008152506040517f08c379a00000000000000000000000000000000000000000000000000000000081526004016102d2919061068a565b60405180910390fd5b6000600360009054906101000a900473ffffffffffffffffffffffffffffffffffffffff1673ffffffffffffffffffffffffffffffffffffffff166002546040516024016040516020818303038152906040527fa3e76c0f000000000000000000000000000000000000000000000000000000007bffffffffffffffffffffffffffffffffffffffffffffffffffffffff19166020820180517bffffffffffffffffffffffffffffffffffffffffffffffffffffffff83818316178352505050506040516103a99190610658565b60006040518083038185875af1925050503d80600081146103e6576040519150601f19603f3d011682016040523d82523d6000602084013e6103eb565b606091505b50509050816005819055505050565b6000600554905090565b600080600360009054906101000a900473ffffffffffffffffffffffffffffffffffffffff1673ffffffffffffffffffffffffffffffffffffffff1663ced72f876040518163ffffffff1660e01b815260040160206040518083038186803b15801561046f57600080fd5b505afa158015610483573d6000803e3d6000fd5b505050506040513d601f19601f820116820180604052508101906104a79190610584565b90508091505090565b600460009054906101000a900473ffffffffffffffffffffffffffffffffffffffff1681565b600042600154101561051d576040517f08c379a0000000000000000000000000000000000000000000000000000000008152600401610514906106ac565b60405180910390fd5b600254905090565b60025481565b60015481565b600081359050610540816107d4565b92915050565b600081519050610555816107d4565b92915050565b60006020828403121561056d57600080fd5b600061057b84828501610531565b91505092915050565b60006020828403121561059657600080fd5b60006105a484828501610546565b91505092915050565b60006105b8826106e7565b6105c281856106fd565b93506105d2818560208601610767565b80840191505092915050565b6105e781610743565b82525050565b60006105f8826106f2565b6106028185610708565b9350610612818560208601610767565b61061b8161079a565b840191505092915050565b6000610633600a83610708565b915061063e826107ab565b602082019050919050565b61065281610739565b82525050565b600061066482846105ad565b915081905092915050565b600060208201905061068460008301846105de565b92915050565b600060208201905081810360008301526106a481846105ed565b905092915050565b600060208201905081810360008301526106c581610626565b9050919050565b60006020820190506106e16000830184610649565b92915050565b600081519050919050565b600081519050919050565b600081905092915050565b600082825260208201905092915050565b600073ffffffffffffffffffffffffffffffffffffffff82169050919050565b6000819050919050565b600061074e82610755565b9050919050565b600061076082610719565b9050919050565b60005b8381101561078557808201518184015260208101905061076a565b83811115610794576000848401525b50505050565b6000601f19601f8301169050919050565b7f7265736574466565282900000000000000000000000000000000000000000000600082015250565b6107dd81610739565b81146107e857600080fd5b5056fea26469706673582212204a5ec3228da3c77fb2cd3e799d111dc253dc6ce474a9d1b919339e8a3c66d80064736f6c63430008020033",
  "linkReferences": {},
  "deployedLinkReferences": {}
}