{
  "_format": "hh-sol-artifact-1",
  "contractName": "SimpleStorageWithFee",
  "sourceName": "contracts/SimpleStorageWithFee.sol",
  "abi": [
    {
      "inputs": [
        {
          "internalType": "address",
          "name": "_feeContract",
          "type": "address"
        }
      ],
      "stateMutability": "nonpayable",
      "type": "constructor"
    },
    {
      "inputs": [],
      "name": "FeeQueryNative",
      "outputs": [
        {
          "internalType": "contract FeeQuery",
          "name": "",
          "type": "address"
        }
      ],
      "stateMutability": "view",
      "type": "function"
    },
    {
      "inputs": [],
      "name": "callFee",
      "outputs": [
        {
          "internalType": "uint256",
          "name": "",
          "type": "uint256"
        }
      ],
      "stateMutability": "view",
      "type": "function"
    },
    {
      "inputs": [],
      "name": "dayMark",
      "outputs": [
        {
          "internalType": "uint256",
          "name": "",
          "type": "uint256"
        }
      ],
      "stateMutability": "view",
      "type": "function"
    },
    {
      "inputs": [],
      "name": "fee",
      "outputs": [
        {
          "internalType": "uint256",
          "name": "",
          "type": "uint256"
        }
      ],
      "stateMutability": "view",
      "type": "function"
    },
    {
      "inputs": [],
      "name": "get",
      "outputs": [
        {
          "internalType": "uint256",
          "name": "retVal",
          "type": "uint256"
        }
      ],
      "stateMutability": "view",
      "type": "function"
    },
    {
      "inputs": [],
      "name": "getFee",
      "outputs": [
        {
          "internalType": "uint256",
          "name": "",
          "type": "uint256"
        }
      ],
      "stateMutability": "view",
      "type": "function"
    },
    {
      "inputs": [],
      "name": "h1Stored",
      "outputs": [
        {
          "internalType": "uint256",
          "name": "",
          "type": "uint256"
        }
      ],
      "stateMutability": "view",
      "type": "function"
    },
    {
      "inputs": [],
      "name": "requiredReset",
      "outputs": [
        {
          "internalType": "uint256",
          "name": "",
          "type": "uint256"
        }
      ],
      "stateMutability": "view",
      "type": "function"
    },
    {
      "inputs": [
        {
          "internalType": "uint256",
          "name": "x",
          "type": "uint256"
        }
      ],
      "name": "set",
      "outputs": [],
      "stateMutability": "payable",
      "type": "function"
    },
    {
      "inputs": [],
      "name": "storedData",
      "outputs": [
        {
          "internalType": "uint256",
          "name": "",
          "type": "uint256"
        }
      ],
      "stateMutability": "view",
      "type": "function"
    }
  ],
  "bytecode": "0x608060405234801561001057600080fd5b50604051610a09380380610a0983398181016040528101906100329190610182565b80600073ffffffffffffffffffffffffffffffffffffffff168173ffffffffffffffffffffffffffffffffffffffff1614156100da576040518060400160405280600381526020017f31323300000000000000000000000000000000000000000000000000000000008152506040517f08c379a00000000000000000000000000000000000000000000000000000000081526004016100d191906101e4565b60405180910390fd5b80600360006101000a81548173ffffffffffffffffffffffffffffffffffffffff021916908373ffffffffffffffffffffffffffffffffffffffff16021790555080600460006101000a81548173ffffffffffffffffffffffffffffffffffffffff021916908373ffffffffffffffffffffffffffffffffffffffff1602179055506201518060008190555050506102af565b60008151905061017c81610298565b92915050565b60006020828403121561019457600080fd5b60006101a28482850161016d565b91505092915050565b60006101b682610206565b6101c08185610211565b93506101d0818560208601610254565b6101d981610287565b840191505092915050565b600060208201905081810360008301526101fe81846101ab565b905092915050565b600081519050919050565b600082825260208201905092915050565b600061022d82610234565b9050919050565b600073ffffffffffffffffffffffffffffffffffffffff82169050919050565b60005b83811015610272578082015181840152602081019050610257565b83811115610281576000848401525b50505050565b6000601f19601f8301169050919050565b6102a181610222565b81146102ac57600080fd5b50565b61074b806102be6000396000f3fe6080604052600436106100915760003560e01c8063ab407bb611610059578063ab407bb61461015e578063ced72f8714610189578063ddca3f43146101b4578063e661213c146101df578063f5fa96e51461020a57610091565b80632a1afcd9146100965780632dcbf1c0146100c157806360fe47b1146100ec5780636d4ce63c1461010857806390321e1a14610133575b600080fd5b3480156100a257600080fd5b506100ab610235565b6040516100b891906105f6565b60405180910390f35b3480156100cd57600080fd5b506100d661023b565b6040516100e391906105f6565b60405180910390f35b610106600480360381019061010191906104ae565b610241565b005b34801561011457600080fd5b5061011d6103f4565b60405161012a91906105f6565b60405180910390f35b34801561013f57600080fd5b506101486103fe565b60405161015591906105f6565b60405180910390f35b34801561016a57600080fd5b50610173610412565b6040516101809190610599565b60405180910390f35b34801561019557600080fd5b5061019e610438565b6040516101ab91906105f6565b60405180910390f35b3480156101c057600080fd5b506101c9610487565b6040516101d691906105f6565b60405180910390f35b3480156101eb57600080fd5b506101f461048d565b60405161020191906105f6565b60405180910390f35b34801561021657600080fd5b5061021f610493565b60405161022c91906105f6565b60405180910390f35b60055481565b60065481565b6102496103fe565b3410801561025e5750600061025c6103fe565b115b156102d5576040518060400160405280600381526020017f31323500000000000000000000000000000000000000000000000000000000008152506040517f08c379a00000000000000000000000000000000000000000000000000000000081526004016102cc91906105b4565b60405180910390fd5b6000600360009054906101000a900473ffffffffffffffffffffffffffffffffffffffff1673ffffffffffffffffffffffffffffffffffffffff166002546040516024016040516020818303038152906040527fa3e76c0f000000000000000000000000000000000000000000000000000000007bffffffffffffffffffffffffffffffffffffffffffffffffffffffff19166020820180517bffffffffffffffffffffffffffffffffffffffffffffffffffffffff83818316178352505050506040516103a39190610582565b60006040518083038185875af1925050503d80600081146103e0576040519150601f19603f3d011682016040523d82523d6000602084013e6103e5565b606091505b50509050816005819055505050565b6000600554905090565b600080610409610438565b90508091505090565b600460009054906101000a900473ffffffffffffffffffffffffffffffffffffffff1681565b600042600154101561047f576040517f08c379a0000000000000000000000000000000000000000000000000000000008152600401610476906105d6565b60405180910390fd5b600254905090565b60025481565b60005481565b60015481565b6000813590506104a8816106fe565b92915050565b6000602082840312156104c057600080fd5b60006104ce84828501610499565b91505092915050565b60006104e282610611565b6104ec8185610627565b93506104fc818560208601610691565b80840191505092915050565b6105118161066d565b82525050565b60006105228261061c565b61052c8185610632565b935061053c818560208601610691565b610545816106c4565b840191505092915050565b600061055d600b83610632565b9150610568826106d5565b602082019050919050565b61057c81610663565b82525050565b600061058e82846104d7565b915081905092915050565b60006020820190506105ae6000830184610508565b92915050565b600060208201905081810360008301526105ce8184610517565b905092915050565b600060208201905081810360008301526105ef81610550565b9050919050565b600060208201905061060b6000830184610573565b92915050565b600081519050919050565b600081519050919050565b600081905092915050565b600082825260208201905092915050565b600073ffffffffffffffffffffffffffffffffffffffff82169050919050565b6000819050919050565b60006106788261067f565b9050919050565b600061068a82610643565b9050919050565b60005b838110156106af578082015181840152602081019050610694565b838111156106be576000848401525b50505050565b6000601f19601f8301169050919050565b7f5f72657365744665652829000000000000000000000000000000000000000000600082015250565b61070781610663565b811461071257600080fd5b5056fea264697066735822122042d566f4521b202638bcdee6917055e7340234c19cb3cd56fec5e91d4e7b496764736f6c63430008020033",
  "linkReferences": {},
  "deployedLinkReferences": {}
}