{
  "_format": "hh-sol-artifact-1",
  "contractName": "SimpleStorageWithFee",
  "sourceName": "contracts/SimpleStorageWithFee.sol",
  "abi": [
    {
      "inputs": [
        {
          "internalType": "address",
          "name": "_feeContract",
          "type": "address"
        }
      ],
      "stateMutability": "nonpayable",
      "type": "constructor"
    },
    {
      "inputs": [],
      "name": "FeeContract",
      "outputs": [
        {
          "internalType": "address",
          "name": "",
          "type": "address"
        }
      ],
      "stateMutability": "view",
      "type": "function"
    },
    {
      "inputs": [],
      "name": "FeeQueryNative",
      "outputs": [
        {
          "internalType": "contract FeeQuery",
          "name": "",
          "type": "address"
        }
      ],
      "stateMutability": "view",
      "type": "function"
    },
    {
      "inputs": [],
      "name": "callFee",
      "outputs": [
        {
          "internalType": "uint256",
          "name": "",
          "type": "uint256"
        }
      ],
      "stateMutability": "view",
      "type": "function"
    },
    {
      "inputs": [],
      "name": "epochLength",
      "outputs": [
        {
          "internalType": "uint256",
          "name": "",
          "type": "uint256"
        }
      ],
      "stateMutability": "view",
      "type": "function"
    },
    {
      "inputs": [],
      "name": "fee",
      "outputs": [
        {
          "internalType": "uint256",
          "name": "",
          "type": "uint256"
        }
      ],
      "stateMutability": "view",
      "type": "function"
    },
    {
      "inputs": [],
      "name": "get",
      "outputs": [
        {
          "internalType": "uint256",
          "name": "retVal",
          "type": "uint256"
        }
      ],
      "stateMutability": "view",
      "type": "function"
    },
    {
      "inputs": [],
      "name": "getFee",
      "outputs": [
        {
          "internalType": "uint256",
          "name": "",
          "type": "uint256"
        }
      ],
      "stateMutability": "view",
      "type": "function"
    },
    {
      "inputs": [],
      "name": "h1Stored",
      "outputs": [
        {
          "internalType": "uint256",
          "name": "",
          "type": "uint256"
        }
      ],
      "stateMutability": "view",
      "type": "function"
    },
    {
      "inputs": [],
      "name": "requiredReset",
      "outputs": [
        {
          "internalType": "uint256",
          "name": "",
          "type": "uint256"
        }
      ],
      "stateMutability": "view",
      "type": "function"
    },
    {
      "inputs": [
        {
          "internalType": "uint256",
          "name": "x",
          "type": "uint256"
        }
      ],
      "name": "set",
      "outputs": [],
      "stateMutability": "payable",
      "type": "function"
    },
    {
      "inputs": [],
      "name": "storedData",
      "outputs": [
        {
          "internalType": "uint256",
          "name": "",
          "type": "uint256"
        }
      ],
      "stateMutability": "view",
      "type": "function"
    }
  ],
  "bytecode": "0x60806040523480156200001157600080fd5b5060405162000f4838038062000f488339818101604052810190620000379190620002c7565b8062000054677e2eeec893e065c260c01b620002aa60201b60201c565b620000706776ccba1177afc08760c01b620002aa60201b60201c565b6200008c6783a180d24a206f1a60c01b620002aa60201b60201c565b600073ffffffffffffffffffffffffffffffffffffffff168173ffffffffffffffffffffffffffffffffffffffff1614156200018a57620000de674721ffdb6942706460c01b620002aa60201b60201c565b620000fa675f657bd19e48d0eb60c01b620002aa60201b60201c565b6200011667e84559ea25e318ee60c01b620002aa60201b60201c565b6040518060400160405280600381526020017f31323300000000000000000000000000000000000000000000000000000000008152506040517f08c379a000000000000000000000000000000000000000000000000000000000815260040162000181919062000334565b60405180910390fd5b620001a667ce0e9487806c2a8760c01b620002aa60201b60201c565b620001c2675f33f19d9bd6e76460c01b620002aa60201b60201c565b80600360006101000a81548173ffffffffffffffffffffffffffffffffffffffff021916908373ffffffffffffffffffffffffffffffffffffffff1602179055506200021f67f69d5bf1e59f78b360c01b620002aa60201b60201c565b80600460006101000a81548173ffffffffffffffffffffffffffffffffffffffff021916908373ffffffffffffffffffffffffffffffffffffffff1602179055506200027c67f593b98ad4a8d6ae60c01b620002aa60201b60201c565b6201518060008190555050620002a36720e5633ad41d0a0460c01b620002ad60201b60201c565b5062000409565b50565b50565b600081519050620002c181620003ef565b92915050565b600060208284031215620002da57600080fd5b6000620002ea84828501620002b0565b91505092915050565b6000620003008262000358565b6200030c818562000363565b93506200031e818560208601620003a8565b6200032981620003de565b840191505092915050565b60006020820190508181036000830152620003508184620002f3565b905092915050565b600081519050919050565b600082825260208201905092915050565b6000620003818262000388565b9050919050565b600073ffffffffffffffffffffffffffffffffffffffff82169050919050565b60005b83811015620003c8578082015181840152602081019050620003ab565b83811115620003d8576000848401525b50505050565b6000601f19601f8301169050919050565b620003fa8162000374565b81146200040657600080fd5b50565b610b2f80620004196000396000f3fe60806040526004361061009c5760003560e01c80636d4ce63c116100645780636d4ce63c1461016957806390321e1a14610194578063ab407bb6146101bf578063ced72f87146101ea578063ddca3f4314610215578063f5fa96e5146102405761009c565b8063207ccfea146100a15780632a1afcd9146100cc5780632dcbf1c0146100f757806357d775f81461012257806360fe47b11461014d575b600080fd5b3480156100ad57600080fd5b506100b661026b565b6040516100c39190610950565b60405180910390f35b3480156100d857600080fd5b506100e1610291565b6040516100ee91906109c8565b60405180910390f35b34801561010357600080fd5b5061010c610297565b60405161011991906109c8565b60405180910390f35b34801561012e57600080fd5b5061013761029d565b60405161014491906109c8565b60405180910390f35b6101676004803603810190610162919061082d565b6102a3565b005b34801561017557600080fd5b5061017e61056e565b60405161018b91906109c8565b60405180910390f35b3480156101a057600080fd5b506101a96105b4565b6040516101b691906109c8565b60405180910390f35b3480156101cb57600080fd5b506101d46106c5565b6040516101e1919061096b565b60405180910390f35b3480156101f657600080fd5b506101ff6106eb565b60405161020c91906109c8565b60405180910390f35b34801561022157600080fd5b5061022a6107ee565b60405161023791906109c8565b60405180910390f35b34801561024c57600080fd5b506102556107f4565b60405161026291906109c8565b60405180910390f35b600360009054906101000a900473ffffffffffffffffffffffffffffffffffffffff1681565b60055481565b60065481565b60005481565b6102b7676fce2d743a2255f360c01b6107fa565b6102cb675145efe0440d3aad60c01b6107fd565b6102df67b3cd9f862bb88dad60c01b6107fd565b6102f36754655562f71090d760c01b6107fd565b6102fb6105b4565b341080156103105750600061030e6105b4565b115b156103c357610329678812a8178885858360c01b6107fd565b61033d67acf9fafeeb33524360c01b6107fd565b6103516754583beea3a85a4260c01b6107fd565b6040518060400160405280600381526020017f31323500000000000000000000000000000000000000000000000000000000008152506040517f08c379a00000000000000000000000000000000000000000000000000000000081526004016103ba9190610986565b60405180910390fd5b6103d767cba502510c62ac7160c01b6107fd565b6103eb6730e4ca33c09fa63260c01b6107fd565b6103ff678655ed6366b7eeee60c01b6107fd565b6000600360009054906101000a900473ffffffffffffffffffffffffffffffffffffffff1673ffffffffffffffffffffffffffffffffffffffff166002546040516024016040516020818303038152906040527fa3e76c0f000000000000000000000000000000000000000000000000000000007bffffffffffffffffffffffffffffffffffffffffffffffffffffffff19166020820180517bffffffffffffffffffffffffffffffffffffffffffffffffffffffff83818316178352505050506040516104cd9190610939565b60006040518083038185875af1925050503d806000811461050a576040519150601f19603f3d011682016040523d82523d6000602084013e61050f565b606091505b5050905061052767b1eaf8e13f3b39b760c01b6107fd565b61053b67eec3dc914ff3f9a660c01b6107fa565b61054f6721d12f4f272868e260c01b6107fa565b61056367a71f379754d11d2b60c01b6107fa565b816005819055505050565b600061058467082032bd95e42e1b60c01b6107fa565b61059867f080c6eca20d4cd560c01b6107fa565b6105ac67f05964ee262cd36e60c01b6107fa565b600554905090565b60006105ca67924dcbdeb069767460c01b6107fd565b6105de67111a410acca6edcf60c01b6107fd565b6105f26734a3a8c7780e275e60c01b6107fd565b6000600360009054906101000a900473ffffffffffffffffffffffffffffffffffffffff1673ffffffffffffffffffffffffffffffffffffffff1663ced72f876040518163ffffffff1660e01b815260040160206040518083038186803b15801561065c57600080fd5b505afa158015610670573d6000803e3d6000fd5b505050506040513d601f19601f820116820180604052508101906106949190610856565b90506106aa6795449ce6ec5e069a60c01b6107fd565b6106be67ec719e5f166cee7060c01b6107fd565b8091505090565b600460009054906101000a900473ffffffffffffffffffffffffffffffffffffffff1681565b600061070167341a09d70c91193860c01b610800565b61071567fd13858d30b4e0f360c01b610800565b610729679b977cd0c0a3bf3a60c01b610800565b4260015410156107aa576107476727e4d34d0d1ff58b60c01b610800565b61075b6779a9c7a6ba68d5cb60c01b610800565b61076f67eb1b54e909ec2d3560c01b610800565b6040517f08c379a00000000000000000000000000000000000000000000000000000000081526004016107a1906109a8565b60405180910390fd5b6107be67ee820581ba1ab36760c01b610800565b6107d2672a1ce9267ec3da9c60c01b610800565b6107e667c59878417f2a2a4260c01b610800565b600254905090565b60025481565b60015481565b50565b50565b50565b60008135905061081281610ae2565b92915050565b60008151905061082781610ae2565b92915050565b60006020828403121561083f57600080fd5b600061084d84828501610803565b91505092915050565b60006020828403121561086857600080fd5b600061087684828501610818565b91505092915050565b61088881610a15565b82525050565b6000610899826109e3565b6108a381856109f9565b93506108b3818560208601610a75565b80840191505092915050565b6108c881610a51565b82525050565b60006108d9826109ee565b6108e38185610a04565b93506108f3818560208601610a75565b6108fc81610aa8565b840191505092915050565b6000610914600a83610a04565b915061091f82610ab9565b602082019050919050565b61093381610a47565b82525050565b6000610945828461088e565b915081905092915050565b6000602082019050610965600083018461087f565b92915050565b600060208201905061098060008301846108bf565b92915050565b600060208201905081810360008301526109a081846108ce565b905092915050565b600060208201905081810360008301526109c181610907565b9050919050565b60006020820190506109dd600083018461092a565b92915050565b600081519050919050565b600081519050919050565b600081905092915050565b600082825260208201905092915050565b6000610a2082610a27565b9050919050565b600073ffffffffffffffffffffffffffffffffffffffff82169050919050565b6000819050919050565b6000610a5c82610a63565b9050919050565b6000610a6e82610a27565b9050919050565b60005b83811015610a93578082015181840152602081019050610a78565b83811115610aa2576000848401525b50505050565b6000601f19601f8301169050919050565b7f7265736574466565282900000000000000000000000000000000000000000000600082015250565b610aeb81610a47565b8114610af657600080fd5b5056fea2646970667358221220280e2dfefa396614ecae511b9c8da3fcf8d9c5bcbf12dfe2c53fa573b528dad364736f6c63430008020033",
  "linkReferences": {},
  "deployedLinkReferences": {}
}