{
  "_format": "hh-sol-artifact-1",
  "contractName": "Errors",
  "sourceName": "contracts/Errors.sol",
  "abi": [
    {
      "inputs": [],
      "name": "ACCOUNT_HAS_NO_SHARES",
      "outputs": [
        {
          "internalType": "string",
          "name": "",
          "type": "string"
        }
      ],
      "stateMutability": "view",
      "type": "function"
    },
    {
      "inputs": [],
      "name": "ADDRESS_ALREADY_HAS_A_VALUE",
      "outputs": [
        {
          "internalType": "string",
          "name": "",
          "type": "string"
        }
      ],
      "stateMutability": "view",
      "type": "function"
    },
    {
      "inputs": [],
      "name": "ADDRESS_BLOCKED",
      "outputs": [
        {
          "internalType": "string",
          "name": "",
          "type": "string"
        }
      ],
      "stateMutability": "view",
      "type": "function"
    },
    {
      "inputs": [],
      "name": "CONTRACT_LIMIT_REACHED",
      "outputs": [
        {
          "internalType": "string",
          "name": "",
          "type": "string"
        }
      ],
      "stateMutability": "view",
      "type": "function"
    },
    {
      "inputs": [],
      "name": "DISTRIBUTION_ERROR",
      "outputs": [
        {
          "internalType": "string",
          "name": "",
          "type": "string"
        }
      ],
      "stateMutability": "view",
      "type": "function"
    },
    {
      "inputs": [],
      "name": "GAS_REBATE_ERROR",
      "outputs": [
        {
          "internalType": "string",
          "name": "",
          "type": "string"
        }
      ],
      "stateMutability": "view",
      "type": "function"
    },
    {
      "inputs": [],
      "name": "GAS_REBATE_FAILED",
      "outputs": [
        {
          "internalType": "string",
          "name": "",
          "type": "string"
        }
      ],
      "stateMutability": "view",
      "type": "function"
    },
    {
      "inputs": [],
      "name": "H1_UNEQUAL_TO_DEPOSIT",
      "outputs": [
        {
          "internalType": "string",
          "name": "",
          "type": "string"
        }
      ],
      "stateMutability": "view",
      "type": "function"
    },
    {
      "inputs": [],
      "name": "HOLD_TIME_IS_24_HOURS",
      "outputs": [
        {
          "internalType": "string",
          "name": "",
          "type": "string"
        }
      ],
      "stateMutability": "view",
      "type": "function"
    },
    {
      "inputs": [],
      "name": "ID_DOES_NOT_EXIST",
      "outputs": [
        {
          "internalType": "string",
          "name": "",
          "type": "string"
        }
      ],
      "stateMutability": "view",
      "type": "function"
    },
    {
      "inputs": [],
      "name": "ID_INVALID_EXPIRED",
      "outputs": [
        {
          "internalType": "string",
          "name": "",
          "type": "string"
        }
      ],
      "stateMutability": "view",
      "type": "function"
    },
    {
      "inputs": [],
      "name": "ID_NOT_TRANSFERABLE",
      "outputs": [
        {
          "internalType": "string",
          "name": "",
          "type": "string"
        }
      ],
      "stateMutability": "view",
      "type": "function"
    },
    {
      "inputs": [],
      "name": "INCORRECT_INDEX",
      "outputs": [
        {
          "internalType": "string",
          "name": "",
          "type": "string"
        }
      ],
      "stateMutability": "view",
      "type": "function"
    },
    {
      "inputs": [],
      "name": "INSUFFICIENT_BALANCE",
      "outputs": [
        {
          "internalType": "string",
          "name": "",
          "type": "string"
        }
      ],
      "stateMutability": "view",
      "type": "function"
    },
    {
      "inputs": [],
      "name": "INSUFFICIENT_FUNDS",
      "outputs": [
        {
          "internalType": "string",
          "name": "",
          "type": "string"
        }
      ],
      "stateMutability": "view",
      "type": "function"
    },
    {
      "inputs": [],
      "name": "INSUFFICIENT_TOKEN_BALANCE",
      "outputs": [
        {
          "internalType": "string",
          "name": "",
          "type": "string"
        }
      ],
      "stateMutability": "view",
      "type": "function"
    },
    {
      "inputs": [],
      "name": "INVALID_ADDRESS",
      "outputs": [
        {
          "internalType": "string",
          "name": "",
          "type": "string"
        }
      ],
      "stateMutability": "view",
      "type": "function"
    },
    {
      "inputs": [],
      "name": "INVALID_INDEX",
      "outputs": [
        {
          "internalType": "string",
          "name": "",
          "type": "string"
        }
      ],
      "stateMutability": "view",
      "type": "function"
    },
    {
      "inputs": [],
      "name": "INVALID_TOKEN_ID",
      "outputs": [
        {
          "internalType": "string",
          "name": "",
          "type": "string"
        }
      ],
      "stateMutability": "view",
      "type": "function"
    },
    {
      "inputs": [],
      "name": "NOT_VALID_PROVER",
      "outputs": [
        {
          "internalType": "string",
          "name": "",
          "type": "string"
        }
      ],
      "stateMutability": "view",
      "type": "function"
    },
    {
      "inputs": [],
      "name": "NO_AMOUNT_TO_CLAIM",
      "outputs": [
        {
          "internalType": "string",
          "name": "",
          "type": "string"
        }
      ],
      "stateMutability": "view",
      "type": "function"
    },
    {
      "inputs": [],
      "name": "NO_DUPLICATES",
      "outputs": [
        {
          "internalType": "string",
          "name": "",
          "type": "string"
        }
      ],
      "stateMutability": "view",
      "type": "function"
    },
    {
      "inputs": [],
      "name": "ONLY_APPROVES_CONTRACTS",
      "outputs": [
        {
          "internalType": "string",
          "name": "",
          "type": "string"
        }
      ],
      "stateMutability": "view",
      "type": "function"
    },
    {
      "inputs": [],
      "name": "PREVIOUSLY_VERIFIED",
      "outputs": [
        {
          "internalType": "string",
          "name": "",
          "type": "string"
        }
      ],
      "stateMutability": "view",
      "type": "function"
    },
    {
      "inputs": [],
      "name": "RESET_FEE",
      "outputs": [
        {
          "internalType": "string",
          "name": "",
          "type": "string"
        }
      ],
      "stateMutability": "view",
      "type": "function"
    },
    {
      "inputs": [],
      "name": "SOULBOUND_TOKEN",
      "outputs": [
        {
          "internalType": "string",
          "name": "",
          "type": "string"
        }
      ],
      "stateMutability": "view",
      "type": "function"
    },
    {
      "inputs": [],
      "name": "TOKEN_ID_ALREADY_EXISTS",
      "outputs": [
        {
          "internalType": "string",
          "name": "",
          "type": "string"
        }
      ],
      "stateMutability": "view",
      "type": "function"
    },
    {
      "inputs": [],
      "name": "TRANSFER_FAILED",
      "outputs": [
        {
          "internalType": "string",
          "name": "",
          "type": "string"
        }
      ],
      "stateMutability": "view",
      "type": "function"
    },
    {
      "inputs": [],
      "name": "WHITELIST_ERROR",
      "outputs": [
        {
          "internalType": "string",
          "name": "",
          "type": "string"
        }
      ],
      "stateMutability": "view",
      "type": "function"
    },
    {
      "inputs": [],
      "name": "ZERO_ADDRESS_NOT_VALID_ARGUMENT",
      "outputs": [
        {
          "internalType": "string",
          "name": "",
          "type": "string"
        }
      ],
      "stateMutability": "view",
      "type": "function"
    },
    {
      "inputs": [],
      "name": "ZERO_VARIABLE_NOT_ACCEPTED",
      "outputs": [
        {
          "internalType": "string",
          "name": "",
          "type": "string"
        }
      ],
      "stateMutability": "view",
      "type": "function"
    }
  ],
  "bytecode": "0x610d6e610053600b82828239805160001a607314610046577f4e487b7100000000000000000000000000000000000000000000000000000000600052600060045260246000fd5b30600052607381538281f3fe73000000000000000000000000000000000000000030146080604052600436106101ef5760003560e01c806374d7405e11610119578063c69faacb116100ac578063e79314381161007b578063e79314381461051e578063f9b20ad61461053c578063fc7d66671461055a578063fe58db1414610578576101ef565b8063c69faacb146104a6578063cd6ccc6e146104c4578063d0a936cb146104e2578063e276d51e14610500576101ef565b8063a9006144116100e8578063a90061441461042e578063b49aa3b51461044c578063bbfb81b71461046a578063bf62174c14610488576101ef565b806374d7405e146103b65780637829c5da146103d45780638c727f05146103f2578063a1cf1eec14610410576101ef565b80633e07bd461161019157806350b1f3561161016057806350b1f3561461033e5780635963709b1461035c5780636d4f4b731461037a5780636db2111d14610398576101ef565b80633e07bd46146102c65780633ee6341f146102e45780633f4ab80e14610302578063405cfb1d14610320576101ef565b80632093d970116101cd5780632093d9701461024e578063231b28de1461026c57806329dbf1a61461028a57806339459c8b146102a8576101ef565b806308a0293e146101f457806313182fd3146102125780631b8065e514610230575b600080fd5b6101fc610596565b6040516102099190610cb6565b60405180910390f35b61021a6105cf565b6040516102279190610cb6565b60405180910390f35b610238610608565b6040516102459190610cb6565b60405180910390f35b610256610641565b6040516102639190610cb6565b60405180910390f35b61027461067a565b6040516102819190610cb6565b60405180910390f35b6102926106b3565b60405161029f9190610cb6565b60405180910390f35b6102b06106ec565b6040516102bd9190610cb6565b60405180910390f35b6102ce610725565b6040516102db9190610cb6565b60405180910390f35b6102ec61075e565b6040516102f99190610cb6565b60405180910390f35b61030a610797565b6040516103179190610cb6565b60405180910390f35b6103286107d0565b6040516103359190610cb6565b60405180910390f35b610346610809565b6040516103539190610cb6565b60405180910390f35b610364610842565b6040516103719190610cb6565b60405180910390f35b61038261087b565b60405161038f9190610cb6565b60405180910390f35b6103a06108b4565b6040516103ad9190610cb6565b60405180910390f35b6103be6108ed565b6040516103cb9190610cb6565b60405180910390f35b6103dc610926565b6040516103e99190610cb6565b60405180910390f35b6103fa61095f565b6040516104079190610cb6565b60405180910390f35b610418610998565b6040516104259190610cb6565b60405180910390f35b6104366109d1565b6040516104439190610cb6565b60405180910390f35b610454610a0a565b6040516104619190610cb6565b60405180910390f35b610472610a43565b60405161047f9190610cb6565b60405180910390f35b610490610a7c565b60405161049d9190610cb6565b60405180910390f35b6104ae610ab5565b6040516104bb9190610cb6565b60405180910390f35b6104cc610aee565b6040516104d99190610cb6565b60405180910390f35b6104ea610b27565b6040516104f79190610cb6565b60405180910390f35b610508610b60565b6040516105159190610cb6565b60405180910390f35b610526610b99565b6040516105339190610cb6565b60405180910390f35b610544610bd2565b6040516105519190610cb6565b60405180910390f35b610562610c0b565b60405161056f9190610cb6565b60405180910390f35b610580610c44565b60405161058d9190610cb6565b60405180910390f35b6040518060400160405280600381526020017f313035000000000000000000000000000000000000000000000000000000000081525081565b6040518060400160405280600381526020017f313231000000000000000000000000000000000000000000000000000000000081525081565b6040518060400160405280600381526020017f313237000000000000000000000000000000000000000000000000000000000081525081565b6040518060400160405280600381526020017f313138000000000000000000000000000000000000000000000000000000000081525081565b6040518060400160405280600381526020017f313033000000000000000000000000000000000000000000000000000000000081525081565b6040518060400160405280600381526020017f313230000000000000000000000000000000000000000000000000000000000081525081565b6040518060400160405280600381526020017f313030000000000000000000000000000000000000000000000000000000000081525081565b6040518060400160405280600381526020017f313232000000000000000000000000000000000000000000000000000000000081525081565b6040518060400160405280600381526020017f313037000000000000000000000000000000000000000000000000000000000081525081565b6040518060400160405280600381526020017f313132000000000000000000000000000000000000000000000000000000000081525081565b6040518060400160405280600381526020017f313135000000000000000000000000000000000000000000000000000000000081525081565b6040518060400160405280600381526020017f313039000000000000000000000000000000000000000000000000000000000081525081565b6040518060400160405280600381526020017f313233000000000000000000000000000000000000000000000000000000000081525081565b6040518060400160405280600381526020017f313131000000000000000000000000000000000000000000000000000000000081525081565b6040518060400160405280600381526020017f313234000000000000000000000000000000000000000000000000000000000081525081565b6040518060400160405280600381526020017f313136000000000000000000000000000000000000000000000000000000000081525081565b6040518060400160405280600381526020017f313130000000000000000000000000000000000000000000000000000000000081525081565b6040518060400160405280600381526020017f313038000000000000000000000000000000000000000000000000000000000081525081565b6040518060400160405280600381526020017f313239000000000000000000000000000000000000000000000000000000000081525081565b6040518060400160405280600381526020017f313137000000000000000000000000000000000000000000000000000000000081525081565b6040518060400160405280600381526020017f313036000000000000000000000000000000000000000000000000000000000081525081565b6040518060400160405280600381526020017f313031000000000000000000000000000000000000000000000000000000000081525081565b6040518060400160405280600381526020017f313238000000000000000000000000000000000000000000000000000000000081525081565b6040518060400160405280600381526020017f313139000000000000000000000000000000000000000000000000000000000081525081565b6040518060400160405280600381526020017f313032000000000000000000000000000000000000000000000000000000000081525081565b6040518060400160405280600381526020017f313134000000000000000000000000000000000000000000000000000000000081525081565b6040518060400160405280600381526020017f313236000000000000000000000000000000000000000000000000000000000081525081565b6040518060400160405280600381526020017f313235000000000000000000000000000000000000000000000000000000000081525081565b6040518060400160405280600381526020017f313133000000000000000000000000000000000000000000000000000000000081525081565b6040518060400160405280600381526020017f313330000000000000000000000000000000000000000000000000000000000081525081565b6040518060400160405280600381526020017f313034000000000000000000000000000000000000000000000000000000000081525081565b6000610c8882610cd8565b610c928185610ce3565b9350610ca2818560208601610cf4565b610cab81610d27565b840191505092915050565b60006020820190508181036000830152610cd08184610c7d565b905092915050565b600081519050919050565b600082825260208201905092915050565b60005b83811015610d12578082015181840152602081019050610cf7565b83811115610d21576000848401525b50505050565b6000601f19601f830116905091905056fea2646970667358221220907accfeddc338ff5db1a37b654663f1056743f8211a27d7b8ee9f6152d761f764736f6c63430008020033",
  "linkReferences": {},
  "deployedLinkReferences": {}
}