{
  "_format": "hh-sol-artifact-1",
  "contractName": "Errors",
  "sourceName": "contracts/Errors.sol",
  "abi": [
    {
      "inputs": [],
      "name": "ID_DOES_NOT_EXIST",
      "outputs": [
        {
          "internalType": "string",
          "name": "",
          "type": "string"
        }
      ],
      "stateMutability": "view",
      "type": "function"
    },
    {
      "inputs": [],
      "name": "ID_INVALID_EXPIRED",
      "outputs": [
        {
          "internalType": "string",
          "name": "",
          "type": "string"
        }
      ],
      "stateMutability": "view",
      "type": "function"
    },
    {
      "inputs": [],
      "name": "ID_NOT_TRANSFERABLE",
      "outputs": [
        {
          "internalType": "string",
          "name": "",
          "type": "string"
        }
      ],
      "stateMutability": "view",
      "type": "function"
    },
    {
      "inputs": [],
      "name": "INVALID_TOKEN_ID",
      "outputs": [
        {
          "internalType": "string",
          "name": "",
          "type": "string"
        }
      ],
      "stateMutability": "view",
      "type": "function"
    },
    {
      "inputs": [],
      "name": "NOT_VALID_PROVER",
      "outputs": [
        {
          "internalType": "string",
          "name": "",
          "type": "string"
        }
      ],
      "stateMutability": "view",
      "type": "function"
    },
    {
      "inputs": [],
      "name": "PREVIOUSLY_VERIFIED",
      "outputs": [
        {
          "internalType": "string",
          "name": "",
          "type": "string"
        }
      ],
      "stateMutability": "view",
      "type": "function"
    },
    {
      "inputs": [],
      "name": "TOKEN_ID_ALREADY_EXISTS",
      "outputs": [
        {
          "internalType": "string",
          "name": "",
          "type": "string"
        }
      ],
      "stateMutability": "view",
      "type": "function"
    },
    {
      "inputs": [],
      "name": "ZERO_ADDRESS_NOT_VALID_ARGUMENT",
      "outputs": [
        {
          "internalType": "string",
          "name": "",
          "type": "string"
        }
      ],
      "stateMutability": "view",
      "type": "function"
    }
  ],
  "bytecode": "0x61031661003a600b82828239805160001a60731461002d57634e487b7160e01b600052600060045260246000fd5b30600052607381538281f3fe73000000000000000000000000000000000000000030146080604052600436106100925760003560e01c8063b49aa3b511610065578063b49aa3b51461019d578063bbfb81b7146101d9578063cd6ccc6e14610215578063fe58db141461025157610092565b806308a0293e14610097578063231b28de146100e957806339459c8b146101255780633ee6341f14610161575b600080fd5b6100d36040518060400160405280600381526020017f313035000000000000000000000000000000000000000000000000000000000081525081565b6040516100e0919061028d565b60405180910390f35b6100d36040518060400160405280600381526020017f313033000000000000000000000000000000000000000000000000000000000081525081565b6100d36040518060400160405280600381526020017f313030000000000000000000000000000000000000000000000000000000000081525081565b6100d36040518060400160405280600381526020017f313037000000000000000000000000000000000000000000000000000000000081525081565b6100d36040518060400160405280600381526020017f313036000000000000000000000000000000000000000000000000000000000081525081565b6100d36040518060400160405280600381526020017f313031000000000000000000000000000000000000000000000000000000000081525081565b6100d36040518060400160405280600381526020017f313032000000000000000000000000000000000000000000000000000000000081525081565b6100d36040518060400160405280600381526020017f313034000000000000000000000000000000000000000000000000000000000081525081565b6000602080835283518082850152825b818110156102b95785810183015185820160400152820161029d565b818111156102ca5783604083870101525b50601f01601f191692909201604001939250505056fea2646970667358221220bea16db716013261c3ce1c3c4bf71c9ea0ef6c4bb76e1d63245a12fde4fb78d364736f6c63430008020033",
  "linkReferences": {},
  "deployedLinkReferences": {}
}