{
  "_format": "hh-sol-artifact-1",
  "contractName": "Errors",
  "sourceName": "contracts/Errors.sol",
  "abi": [
    {
      "inputs": [],
      "name": "ID_DOES_NOT_EXIST",
      "outputs": [
        {
          "internalType": "string",
          "name": "",
          "type": "string"
        }
      ],
      "stateMutability": "view",
      "type": "function"
    },
    {
      "inputs": [],
      "name": "ID_INVALID_EXPIRED",
      "outputs": [
        {
          "internalType": "string",
          "name": "",
          "type": "string"
        }
      ],
      "stateMutability": "view",
      "type": "function"
    },
    {
      "inputs": [],
      "name": "ID_NOT_TRANSFERABLE",
      "outputs": [
        {
          "internalType": "string",
          "name": "",
          "type": "string"
        }
      ],
      "stateMutability": "view",
      "type": "function"
    },
    {
      "inputs": [],
      "name": "INVALID_TOKEN_ID",
      "outputs": [
        {
          "internalType": "string",
          "name": "",
          "type": "string"
        }
      ],
      "stateMutability": "view",
      "type": "function"
    },
    {
      "inputs": [],
      "name": "NOT_VALID_PROVER",
      "outputs": [
        {
          "internalType": "string",
          "name": "",
          "type": "string"
        }
      ],
      "stateMutability": "view",
      "type": "function"
    },
    {
      "inputs": [],
      "name": "PREVIOUSLY_VERIFIED",
      "outputs": [
        {
          "internalType": "string",
          "name": "",
          "type": "string"
        }
      ],
      "stateMutability": "view",
      "type": "function"
    },
    {
      "inputs": [],
      "name": "TOKEN_ID_ALREADY_EXISTS",
      "outputs": [
        {
          "internalType": "string",
          "name": "",
          "type": "string"
        }
      ],
      "stateMutability": "view",
      "type": "function"
    },
    {
      "inputs": [],
      "name": "ZERO_ADDRESS_NOT_VALID_ARGUMENT",
      "outputs": [
        {
          "internalType": "string",
          "name": "",
          "type": "string"
        }
      ],
      "stateMutability": "view",
      "type": "function"
    }
  ],
  "bytecode": "0x610440610053600b82828239805160001a607314610046577f4e487b7100000000000000000000000000000000000000000000000000000000600052600060045260246000fd5b30600052607381538281f3fe73000000000000000000000000000000000000000030146080604052600436106100925760003560e01c8063b49aa3b511610065578063b49aa3b51461010f578063bbfb81b71461012d578063cd6ccc6e1461014b578063fe58db141461016957610092565b806308a0293e14610097578063231b28de146100b557806339459c8b146100d35780633ee6341f146100f1575b600080fd5b61009f610187565b6040516100ac9190610388565b60405180910390f35b6100bd6101c0565b6040516100ca9190610388565b60405180910390f35b6100db6101f9565b6040516100e89190610388565b60405180910390f35b6100f9610232565b6040516101069190610388565b60405180910390f35b61011761026b565b6040516101249190610388565b60405180910390f35b6101356102a4565b6040516101429190610388565b60405180910390f35b6101536102dd565b6040516101609190610388565b60405180910390f35b610171610316565b60405161017e9190610388565b60405180910390f35b6040518060400160405280600381526020017f313035000000000000000000000000000000000000000000000000000000000081525081565b6040518060400160405280600381526020017f313033000000000000000000000000000000000000000000000000000000000081525081565b6040518060400160405280600381526020017f313030000000000000000000000000000000000000000000000000000000000081525081565b6040518060400160405280600381526020017f313037000000000000000000000000000000000000000000000000000000000081525081565b6040518060400160405280600381526020017f313036000000000000000000000000000000000000000000000000000000000081525081565b6040518060400160405280600381526020017f313031000000000000000000000000000000000000000000000000000000000081525081565b6040518060400160405280600381526020017f313032000000000000000000000000000000000000000000000000000000000081525081565b6040518060400160405280600381526020017f313034000000000000000000000000000000000000000000000000000000000081525081565b600061035a826103aa565b61036481856103b5565b93506103748185602086016103c6565b61037d816103f9565b840191505092915050565b600060208201905081810360008301526103a2818461034f565b905092915050565b600081519050919050565b600082825260208201905092915050565b60005b838110156103e45780820151818401526020810190506103c9565b838111156103f3576000848401525b50505050565b6000601f19601f830116905091905056fea264697066735822122078376d62055c1e332482fc902c722212ee1e4c5996ee6db14b6178827f91d4e564736f6c63430008020033",
  "linkReferences": {},
  "deployedLinkReferences": {}
}