{
  "_format": "hh-sol-artifact-1",
  "contractName": "Errors",
  "sourceName": "contracts/Errors.sol",
  "abi": [
    {
      "inputs": [],
      "name": "ID_DOES_NOT_EXIST",
      "outputs": [
        {
          "internalType": "string",
          "name": "",
          "type": "string"
        }
      ],
      "stateMutability": "view",
      "type": "function"
    },
    {
      "inputs": [],
      "name": "ID_INVALID_EXPIRED",
      "outputs": [
        {
          "internalType": "string",
          "name": "",
          "type": "string"
        }
      ],
      "stateMutability": "view",
      "type": "function"
    },
    {
      "inputs": [],
      "name": "ID_NOT_TRANSFERABLE",
      "outputs": [
        {
          "internalType": "string",
          "name": "",
          "type": "string"
        }
      ],
      "stateMutability": "view",
      "type": "function"
    },
    {
      "inputs": [],
      "name": "INVALID_TOKEN_ID",
      "outputs": [
        {
          "internalType": "string",
          "name": "",
          "type": "string"
        }
      ],
      "stateMutability": "view",
      "type": "function"
    },
    {
      "inputs": [],
      "name": "NOT_VALID_PROVER",
      "outputs": [
        {
          "internalType": "string",
          "name": "",
          "type": "string"
        }
      ],
      "stateMutability": "view",
      "type": "function"
    },
    {
      "inputs": [],
      "name": "PREVIOUSLY_VERIFIED",
      "outputs": [
        {
          "internalType": "string",
          "name": "",
          "type": "string"
        }
      ],
      "stateMutability": "view",
      "type": "function"
    },
    {
      "inputs": [],
      "name": "TOKEN_ID_ALREADY_EXISTS",
      "outputs": [
        {
          "internalType": "string",
          "name": "",
          "type": "string"
        }
      ],
      "stateMutability": "view",
      "type": "function"
    },
    {
      "inputs": [],
      "name": "ZERO_ADDRESS_NOT_VALID_ARGUMENT",
      "outputs": [
        {
          "internalType": "string",
          "name": "",
          "type": "string"
        }
      ],
      "stateMutability": "view",
      "type": "function"
    },
    {
      "inputs": [
        {
          "internalType": "bytes8",
          "name": "c__2d64bcc3",
          "type": "bytes8"
        }
      ],
      "name": "c_2d64bcc3",
      "outputs": [],
      "stateMutability": "pure",
      "type": "function"
    },
    {
      "inputs": [
        {
          "internalType": "bytes8",
          "name": "c__2d64bcc3",
          "type": "bytes8"
        }
      ],
      "name": "c_false2d64bcc3",
      "outputs": [
        {
          "internalType": "bool",
          "name": "",
          "type": "bool"
        }
      ],
      "stateMutability": "pure",
      "type": "function"
    },
    {
      "inputs": [
        {
          "internalType": "bytes8",
          "name": "c__2d64bcc3",
          "type": "bytes8"
        }
      ],
      "name": "c_true2d64bcc3",
      "outputs": [
        {
          "internalType": "bool",
          "name": "",
          "type": "bool"
        }
      ],
      "stateMutability": "pure",
      "type": "function"
    }
  ],
  "bytecode": "0x6105a9610053600b82828239805160001a607314610046577f4e487b7100000000000000000000000000000000000000000000000000000000600052600060045260246000fd5b30600052607381538281f3fe73000000000000000000000000000000000000000030146080604052600436106100b35760003560e01c80633ee6341f1161007b5780633ee6341f1461015e578063b49aa3b51461017c578063bbfb81b71461019a578063cd6ccc6e146101b8578063f86a0281146101d6578063fe58db1414610206576100b3565b806308a0293e146100b85780631b308297146100d65780631dc140ea146100f2578063231b28de1461012257806339459c8b14610140575b600080fd5b6100c0610224565b6040516100cd91906104a2565b60405180910390f35b6100f060048036038101906100eb9190610416565b61025d565b005b61010c60048036038101906101079190610416565b610260565b6040516101199190610487565b60405180910390f35b61012a61026b565b60405161013791906104a2565b60405180910390f35b6101486102a4565b60405161015591906104a2565b60405180910390f35b6101666102dd565b60405161017391906104a2565b60405180910390f35b610184610316565b60405161019191906104a2565b60405180910390f35b6101a261034f565b6040516101af91906104a2565b60405180910390f35b6101c0610388565b6040516101cd91906104a2565b60405180910390f35b6101f060048036038101906101eb9190610416565b6103c1565b6040516101fd9190610487565b60405180910390f35b61020e6103c8565b60405161021b91906104a2565b60405180910390f35b6040518060400160405280600381526020017f313035000000000000000000000000000000000000000000000000000000000081525081565b50565b600060019050919050565b6040518060400160405280600381526020017f313033000000000000000000000000000000000000000000000000000000000081525081565b6040518060400160405280600381526020017f313030000000000000000000000000000000000000000000000000000000000081525081565b6040518060400160405280600381526020017f313037000000000000000000000000000000000000000000000000000000000081525081565b6040518060400160405280600381526020017f313036000000000000000000000000000000000000000000000000000000000081525081565b6040518060400160405280600381526020017f313031000000000000000000000000000000000000000000000000000000000081525081565b6040518060400160405280600381526020017f313032000000000000000000000000000000000000000000000000000000000081525081565b6000919050565b6040518060400160405280600381526020017f313034000000000000000000000000000000000000000000000000000000000081525081565b6000813590506104108161055c565b92915050565b60006020828403121561042857600080fd5b600061043684828501610401565b91505092915050565b610448816104e0565b82525050565b6000610459826104c4565b61046381856104cf565b9350610473818560208601610518565b61047c8161054b565b840191505092915050565b600060208201905061049c600083018461043f565b92915050565b600060208201905081810360008301526104bc818461044e565b905092915050565b600081519050919050565b600082825260208201905092915050565b60008115159050919050565b60007fffffffffffffffff00000000000000000000000000000000000000000000000082169050919050565b60005b8381101561053657808201518184015260208101905061051b565b83811115610545576000848401525b50505050565b6000601f19601f8301169050919050565b610565816104ec565b811461057057600080fd5b5056fea2646970667358221220b1d21ea7abde6953b6cc091d5bfc2a6c1c9a79c2bb915cfbea7135822c75796164736f6c63430008020033",
  "linkReferences": {},
  "deployedLinkReferences": {}
}