{
  "_format": "hh-sol-artifact-1",
  "contractName": "FeeContract",
  "sourceName": "contracts/FeeContract.sol",
  "abi": [
    {
      "anonymous": false,
      "inputs": [
        {
          "indexed": true,
          "internalType": "uint256",
          "name": "timestamp",
          "type": "uint256"
        },
        {
          "indexed": true,
          "internalType": "address",
          "name": "to",
          "type": "address"
        },
        {
          "indexed": true,
          "internalType": "uint256",
          "name": "amount",
          "type": "uint256"
        }
      ],
      "name": "FeesDistributed",
      "type": "event"
    },
    {
      "anonymous": false,
      "inputs": [
        {
          "indexed": false,
          "internalType": "uint8",
          "name": "version",
          "type": "uint8"
        }
      ],
      "name": "Initialized",
      "type": "event"
    },
    {
      "anonymous": false,
      "inputs": [
        {
          "indexed": true,
          "internalType": "bytes32",
          "name": "role",
          "type": "bytes32"
        },
        {
          "indexed": true,
          "internalType": "bytes32",
          "name": "previousAdminRole",
          "type": "bytes32"
        },
        {
          "indexed": true,
          "internalType": "bytes32",
          "name": "newAdminRole",
          "type": "bytes32"
        }
      ],
      "name": "RoleAdminChanged",
      "type": "event"
    },
    {
      "anonymous": false,
      "inputs": [
        {
          "indexed": true,
          "internalType": "bytes32",
          "name": "role",
          "type": "bytes32"
        },
        {
          "indexed": true,
          "internalType": "address",
          "name": "account",
          "type": "address"
        },
        {
          "indexed": true,
          "internalType": "address",
          "name": "sender",
          "type": "address"
        }
      ],
      "name": "RoleGranted",
      "type": "event"
    },
    {
      "anonymous": false,
      "inputs": [
        {
          "indexed": true,
          "internalType": "bytes32",
          "name": "role",
          "type": "bytes32"
        },
        {
          "indexed": true,
          "internalType": "address",
          "name": "account",
          "type": "address"
        },
        {
          "indexed": true,
          "internalType": "address",
          "name": "sender",
          "type": "address"
        }
      ],
      "name": "RoleRevoked",
      "type": "event"
    },
    {
      "inputs": [],
      "name": "DEFAULT_ADMIN_ROLE",
      "outputs": [
        {
          "internalType": "bytes32",
          "name": "",
          "type": "bytes32"
        }
      ],
      "stateMutability": "view",
      "type": "function"
    },
    {
      "inputs": [],
      "name": "DISTRIBUTOR_ROLE",
      "outputs": [
        {
          "internalType": "bytes32",
          "name": "",
          "type": "bytes32"
        }
      ],
      "stateMutability": "view",
      "type": "function"
    },
    {
      "inputs": [
        {
          "internalType": "address",
          "name": "_newChannelAddress",
          "type": "address"
        },
        {
          "internalType": "uint8",
          "name": "_weight",
          "type": "uint8"
        }
      ],
      "name": "addChannel",
      "outputs": [],
      "stateMutability": "nonpayable",
      "type": "function"
    },
    {
      "inputs": [
        {
          "internalType": "uint8",
          "name": "_index",
          "type": "uint8"
        },
        {
          "internalType": "address",
          "name": "_newChannelAddress",
          "type": "address"
        },
        {
          "internalType": "uint8",
          "name": "_newWeight",
          "type": "uint8"
        }
      ],
      "name": "adjustChannel",
      "outputs": [],
      "stateMutability": "nonpayable",
      "type": "function"
    },
    {
      "inputs": [
        {
          "internalType": "uint8",
          "name": "index",
          "type": "uint8"
        }
      ],
      "name": "amountPaidToUponNextDistribution",
      "outputs": [
        {
          "internalType": "uint256",
          "name": "",
          "type": "uint256"
        }
      ],
      "stateMutability": "view",
      "type": "function"
    },
    {
      "inputs": [],
      "name": "collectFee",
      "outputs": [],
      "stateMutability": "payable",
      "type": "function"
    },
    {
      "inputs": [],
      "name": "epochLength",
      "outputs": [
        {
          "internalType": "uint256",
          "name": "",
          "type": "uint256"
        }
      ],
      "stateMutability": "view",
      "type": "function"
    },
    {
      "inputs": [],
      "name": "fee",
      "outputs": [
        {
          "internalType": "uint256",
          "name": "",
          "type": "uint256"
        }
      ],
      "stateMutability": "view",
      "type": "function"
    },
    {
      "inputs": [],
      "name": "forceFee",
      "outputs": [],
      "stateMutability": "payable",
      "type": "function"
    },
    {
      "inputs": [
        {
          "internalType": "uint8",
          "name": "index",
          "type": "uint8"
        }
      ],
      "name": "getChannelWeightByIndex",
      "outputs": [
        {
          "internalType": "address",
          "name": "",
          "type": "address"
        },
        {
          "internalType": "uint256",
          "name": "",
          "type": "uint256"
        }
      ],
      "stateMutability": "view",
      "type": "function"
    },
    {
      "inputs": [],
      "name": "getChannels",
      "outputs": [
        {
          "internalType": "address[]",
          "name": "",
          "type": "address[]"
        }
      ],
      "stateMutability": "view",
      "type": "function"
    },
    {
      "inputs": [],
      "name": "getFee",
      "outputs": [
        {
          "internalType": "uint256",
          "name": "",
          "type": "uint256"
        }
      ],
      "stateMutability": "view",
      "type": "function"
    },
    {
      "inputs": [],
      "name": "getLastDistributionBlock",
      "outputs": [
        {
          "internalType": "uint256",
          "name": "",
          "type": "uint256"
        }
      ],
      "stateMutability": "view",
      "type": "function"
    },
    {
      "inputs": [],
      "name": "getNextResetTime",
      "outputs": [
        {
          "internalType": "uint256",
          "name": "",
          "type": "uint256"
        }
      ],
      "stateMutability": "view",
      "type": "function"
    },
    {
      "inputs": [
        {
          "internalType": "bytes32",
          "name": "role",
          "type": "bytes32"
        }
      ],
      "name": "getRoleAdmin",
      "outputs": [
        {
          "internalType": "bytes32",
          "name": "",
          "type": "bytes32"
        }
      ],
      "stateMutability": "view",
      "type": "function"
    },
    {
      "inputs": [],
      "name": "getTotalContractShares",
      "outputs": [
        {
          "internalType": "uint8",
          "name": "",
          "type": "uint8"
        }
      ],
      "stateMutability": "view",
      "type": "function"
    },
    {
      "inputs": [],
      "name": "getWieghts",
      "outputs": [
        {
          "internalType": "uint8[]",
          "name": "",
          "type": "uint8[]"
        }
      ],
      "stateMutability": "view",
      "type": "function"
    },
    {
      "inputs": [
        {
          "internalType": "bytes32",
          "name": "role",
          "type": "bytes32"
        },
        {
          "internalType": "address",
          "name": "account",
          "type": "address"
        }
      ],
      "name": "grantRole",
      "outputs": [],
      "stateMutability": "nonpayable",
      "type": "function"
    },
    {
      "inputs": [
        {
          "internalType": "bytes32",
          "name": "role",
          "type": "bytes32"
        },
        {
          "internalType": "address",
          "name": "account",
          "type": "address"
        }
      ],
      "name": "hasRole",
      "outputs": [
        {
          "internalType": "bool",
          "name": "",
          "type": "bool"
        }
      ],
      "stateMutability": "view",
      "type": "function"
    },
    {
      "inputs": [
        {
          "internalType": "address",
          "name": "_oracle",
          "type": "address"
        },
        {
          "internalType": "address[]",
          "name": "_channels",
          "type": "address[]"
        },
        {
          "internalType": "uint8[]",
          "name": "_weights",
          "type": "uint8[]"
        },
        {
          "internalType": "address",
          "name": "admin",
          "type": "address"
        },
        {
          "internalType": "address",
          "name": "distributor",
          "type": "address"
        }
      ],
      "name": "initialize",
      "outputs": [],
      "stateMutability": "nonpayable",
      "type": "function"
    },
    {
      "inputs": [
        {
          "internalType": "address",
          "name": "channel",
          "type": "address"
        }
      ],
      "name": "isOriginalAddress",
      "outputs": [
        {
          "internalType": "bool",
          "name": "",
          "type": "bool"
        }
      ],
      "stateMutability": "view",
      "type": "function"
    },
    {
      "inputs": [],
      "name": "oracle",
      "outputs": [
        {
          "internalType": "address",
          "name": "",
          "type": "address"
        }
      ],
      "stateMutability": "view",
      "type": "function"
    },
    {
      "inputs": [],
      "name": "queryOracle",
      "outputs": [
        {
          "internalType": "uint256",
          "name": "feeAmount",
          "type": "uint256"
        }
      ],
      "stateMutability": "view",
      "type": "function"
    },
    {
      "inputs": [
        {
          "internalType": "bytes32",
          "name": "role",
          "type": "bytes32"
        },
        {
          "internalType": "address",
          "name": "account",
          "type": "address"
        }
      ],
      "name": "renounceRole",
      "outputs": [],
      "stateMutability": "nonpayable",
      "type": "function"
    },
    {
      "inputs": [],
      "name": "requiredReset",
      "outputs": [
        {
          "internalType": "uint256",
          "name": "",
          "type": "uint256"
        }
      ],
      "stateMutability": "view",
      "type": "function"
    },
    {
      "inputs": [],
      "name": "resetFee",
      "outputs": [],
      "stateMutability": "nonpayable",
      "type": "function"
    },
    {
      "inputs": [
        {
          "internalType": "bytes32",
          "name": "role",
          "type": "bytes32"
        },
        {
          "internalType": "address",
          "name": "account",
          "type": "address"
        }
      ],
      "name": "revokeRole",
      "outputs": [],
      "stateMutability": "nonpayable",
      "type": "function"
    },
    {
      "inputs": [
        {
          "internalType": "uint256",
          "name": "new_epochLength",
          "type": "uint256"
        }
      ],
      "name": "setEpoch",
      "outputs": [],
      "stateMutability": "nonpayable",
      "type": "function"
    },
    {
      "inputs": [
        {
          "internalType": "address",
          "name": "_newOracle",
          "type": "address"
        }
      ],
      "name": "setOracle",
      "outputs": [],
      "stateMutability": "nonpayable",
      "type": "function"
    },
    {
      "inputs": [
        {
          "internalType": "bytes4",
          "name": "interfaceId",
          "type": "bytes4"
        }
      ],
      "name": "supportsInterface",
      "outputs": [
        {
          "internalType": "bool",
          "name": "",
          "type": "bool"
        }
      ],
      "stateMutability": "view",
      "type": "function"
    },
    {
      "stateMutability": "payable",
      "type": "receive"
    }
  ],
  "bytecode": "0x608060405234801561001057600080fd5b506137ec806100206000396000f3fe6080604052600436106101d15760003560e01c806391d14854116100f7578063d4d5d32a11610095578063f0bd87cc11610064578063f0bd87cc14610642578063f5f5d0ba1461066d578063f5fa96e514610698578063fd141f5c146106c3576101d8565b8063d4d5d32a146105a7578063d547741f146105b1578063ddca3f43146105da578063deea2b9b14610605576101d8565b8063a217fddf116100d1578063a217fddf146104e9578063a4214c1814610514578063c0b87a481461053f578063ced72f871461057c576101d8565b806391d14854146104565780639575f6ac14610493578063a11c898e146104be576101d8565b806336568abe1161016f5780635b71d6991161013e5780635b71d699146103e1578063727682ad146103eb5780637adbf973146104025780637dc0d1d01461042b576101d8565b806336568abe1461033b5780634f12e560146103645780635301828f1461038d57806357d775f8146103b6576101d8565b80632354f69b116101ab5780632354f69b14610281578063248a9ca3146102aa57806326afe980146102e75780632f2ff15d14610312576101d8565b806301ffc9a7146101dd5780630ceb2cef1461021a5780630e2c931214610243576101d8565b366101d857005b600080fd5b3480156101e957600080fd5b5061020460048036038101906101ff9190612acd565b6106ee565b6040516102119190612fc5565b60405180910390f35b34801561022657600080fd5b50610241600480360381019061023c9190612af6565b610768565b005b34801561024f57600080fd5b5061026a60048036038101906102659190612b48565b61079d565b604051610278929190612f58565b60405180910390f35b34801561028d57600080fd5b506102a860048036038101906102a39190612b71565b610880565b005b3480156102b657600080fd5b506102d160048036038101906102cc9190612a68565b610ba2565b6040516102de9190612fe0565b60405180910390f35b3480156102f357600080fd5b506102fc610bc2565b60405161030991906130d8565b60405180910390f35b34801561031e57600080fd5b5061033960048036038101906103349190612a91565b610c69565b005b34801561034757600080fd5b50610362600480360381019061035d9190612a91565b610c8a565b005b34801561037057600080fd5b5061038b6004803603810190610386919061295c565b610d0d565b005b34801561039957600080fd5b506103b460048036038101906103af9190612a03565b611148565b005b3480156103c257600080fd5b506103cb611393565b6040516103d891906130d8565b60405180910390f35b6103e9611399565b005b3480156103f757600080fd5b50610400611701565b005b34801561040e57600080fd5b5061042960048036038101906104249190612933565b6117b3565b005b34801561043757600080fd5b50610440611822565b60405161044d9190612f3d565b60405180910390f35b34801561046257600080fd5b5061047d60048036038101906104789190612a91565b611848565b60405161048a9190612fc5565b60405180910390f35b34801561049f57600080fd5b506104a86118b3565b6040516104b59190612f81565b60405180910390f35b3480156104ca57600080fd5b506104d3611941565b6040516104e091906130d8565b60405180910390f35b3480156104f557600080fd5b506104fe61194b565b60405161050b9190612fe0565b60405180910390f35b34801561052057600080fd5b50610529611952565b60405161053691906130f3565b60405180910390f35b34801561054b57600080fd5b5061056660048036038101906105619190612b48565b611969565b60405161057391906130d8565b60405180910390f35b34801561058857600080fd5b506105916119fa565b60405161059e91906130d8565b60405180910390f35b6105af611a49565b005b3480156105bd57600080fd5b506105d860048036038101906105d39190612a91565b611eb4565b005b3480156105e657600080fd5b506105ef611ed5565b6040516105fc91906130d8565b60405180910390f35b34801561061157600080fd5b5061062c60048036038101906106279190612933565b611edb565b6040516106399190612fc5565b60405180910390f35b34801561064e57600080fd5b50610657611fb0565b6040516106649190612fe0565b60405180910390f35b34801561067957600080fd5b50610682611fd4565b60405161068f91906130d8565b60405180910390f35b3480156106a457600080fd5b506106ad611fde565b6040516106ba91906130d8565b60405180910390f35b3480156106cf57600080fd5b506106d8611fe4565b6040516106e59190612fa3565b60405180910390f35b60007f7965db0b000000000000000000000000000000000000000000000000000000007bffffffffffffffffffffffffffffffffffffffffffffffffffffffff1916827bffffffffffffffffffffffffffffffffffffffffffffffffffffffff19161480610761575061076082612062565b5b9050919050565b7ffbd454f36a7e1a388bd6fc3ab10d434aa4578f811acbbcf33afb1c697486313c610792816120cc565b816000819055505050565b6000806000609b8460ff16815481106107df577f4e487b7100000000000000000000000000000000000000000000000000000000600052603260045260246000fd5b9060005260206000200160009054906101000a900473ffffffffffffffffffffffffffffffffffffffff1690506000609c8560ff168154811061084b577f4e487b7100000000000000000000000000000000000000000000000000000000600052603260045260246000fd5b90600052602060002090602091828204019190069054906101000a900460ff16905081818060ff169050935093505050915091565b7ffbd454f36a7e1a388bd6fc3ab10d434aa4578f811acbbcf33afb1c697486313c6108aa816120cc565b600073ffffffffffffffffffffffffffffffffffffffff168373ffffffffffffffffffffffffffffffffffffffff1614806108f15750600015156108ed84611edb565b1515145b15610968576040518060400160405280600381526020017f31323300000000000000000000000000000000000000000000000000000000008152506040517f08c379a000000000000000000000000000000000000000000000000000000000815260040161095f9190613016565b60405180910390fd5b60048460ff1611156109e6576040518060400160405280600381526020017f31313100000000000000000000000000000000000000000000000000000000008152506040517f08c379a00000000000000000000000000000000000000000000000000000000081526004016109dd9190613016565b60405180910390fd5b82609b8560ff1681548110610a24577f4e487b7100000000000000000000000000000000000000000000000000000000600052603260045260246000fd5b9060005260206000200160006101000a81548173ffffffffffffffffffffffffffffffffffffffff021916908373ffffffffffffffffffffffffffffffffffffffff160217905550609c8460ff1681548110610aa9577f4e487b7100000000000000000000000000000000000000000000000000000000600052603260045260246000fd5b90600052602060002090602091828204019190069054906101000a900460ff16609a60008282829054906101000a900460ff16610ae69190613352565b92506101000a81548160ff021916908360ff16021790555081609c8560ff1681548110610b3c577f4e487b7100000000000000000000000000000000000000000000000000000000600052603260045260246000fd5b90600052602060002090602091828204019190066101000a81548160ff021916908360ff16021790555081609a60008282829054906101000a900460ff16610b849190613290565b92506101000a81548160ff021916908360ff16021790555050505050565b600060686000838152602001908152602001600020600101549050919050565b6000609a60019054906101000a900473ffffffffffffffffffffffffffffffffffffffff1673ffffffffffffffffffffffffffffffffffffffff16637eeda7036040518163ffffffff1660e01b815260040160206040518083038186803b158015610c2c57600080fd5b505afa158015610c40573d6000803e3d6000fd5b505050506040513d601f19601f82011682018060405250810190610c649190612b1f565b905090565b610c7282610ba2565b610c7b816120cc565b610c8583836120e0565b505050565b610c926121c1565b73ffffffffffffffffffffffffffffffffffffffff168173ffffffffffffffffffffffffffffffffffffffff1614610cff576040517f08c379a0000000000000000000000000000000000000000000000000000000008152600401610cf6906130b8565b60405180910390fd5b610d0982826121c9565b5050565b6000600360019054906101000a900460ff16159050808015610d4157506001600360009054906101000a900460ff1660ff16105b80610d705750610d50306122ab565b158015610d6f57506001600360009054906101000a900460ff1660ff16145b5b610daf576040517f08c379a0000000000000000000000000000000000000000000000000000000008152600401610da690613078565b60405180910390fd5b6001600360006101000a81548160ff021916908360ff1602179055508015610ded576001600360016101000a81548160ff0219169083151502179055505b610df56122ce565b610e026000801b846120e0565b610e2c7ffbd454f36a7e1a388bd6fc3ab10d434aa4578f811acbbcf33afb1c697486313c836120e0565b610e396000801b336121c9565b600585511180610e4a575060058451115b15610ec1576040518060400160405280600381526020017f31323400000000000000000000000000000000000000000000000000000000008152506040517f08c379a0000000000000000000000000000000000000000000000000000000008152600401610eb89190613016565b60405180910390fd5b42609d81905550620151806000819055506201518042610ee1919061323a565b60018190555085609a60016101000a81548173ffffffffffffffffffffffffffffffffffffffff021916908373ffffffffffffffffffffffffffffffffffffffff16021790555060005b85518110156110e557848181518110610f6d577f4e487b7100000000000000000000000000000000000000000000000000000000600052603260045260246000fd5b6020026020010151609a60008282829054906101000a900460ff16610f929190613290565b92506101000a81548160ff021916908360ff160217905550609b868281518110610fe5577f4e487b7100000000000000000000000000000000000000000000000000000000600052603260045260246000fd5b60200260200101519080600181540180825580915050600190039060005260206000200160009091909190916101000a81548173ffffffffffffffffffffffffffffffffffffffff021916908373ffffffffffffffffffffffffffffffffffffffff160217905550609c858281518110611088577f4e487b7100000000000000000000000000000000000000000000000000000000600052603260045260246000fd5b602002602001015190806001815401808255809150506001900390600052602060002090602091828204019190069091909190916101000a81548160ff021916908360ff16021790555080806110dd906134b1565b915050610f2b565b508015611140576000600360016101000a81548160ff0219169083151502179055507f7f26b83ff96e1f2b6a682f133852f6798a09c465da95921460cefb384740249860016040516111379190612ffb565b60405180910390a15b505050505050565b7ffbd454f36a7e1a388bd6fc3ab10d434aa4578f811acbbcf33afb1c697486313c611172816120cc565b6005609b8054905014156111f2576040518060400160405280600381526020017f31323400000000000000000000000000000000000000000000000000000000008152506040517f08c379a00000000000000000000000000000000000000000000000000000000081526004016111e99190613016565b60405180910390fd5b600015156111ff84611edb565b1515148061123957508273ffffffffffffffffffffffffffffffffffffffff16600073ffffffffffffffffffffffffffffffffffffffff16145b156112b0576040518060400160405280600381526020017f31323300000000000000000000000000000000000000000000000000000000008152506040517f08c379a00000000000000000000000000000000000000000000000000000000081526004016112a79190613016565b60405180910390fd5b609b839080600181540180825580915050600190039060005260206000200160009091909190916101000a81548173ffffffffffffffffffffffffffffffffffffffff021916908373ffffffffffffffffffffffffffffffffffffffff160217905550609c8290806001815401808255809150506001900390600052602060002090602091828204019190069091909190916101000a81548160ff021916908360ff16021790555081609a60008282829054906101000a900460ff166113769190613290565b92506101000a81548160ff021916908360ff160217905550505050565b60005481565b7ffbd454f36a7e1a388bd6fc3ab10d434aa4578f811acbbcf33afb1c697486313c6113c3816120cc565b600047905060005b609b805490508110156116ec576000609a60009054906101000a900460ff1660ff16609c8381548110611427577f4e487b7100000000000000000000000000000000000000000000000000000000600052603260045260246000fd5b90600052602060002090602091828204019190069054906101000a900460ff1660ff168461145591906132f8565b61145f91906132c7565b90506000609b838154811061149d577f4e487b7100000000000000000000000000000000000000000000000000000000600052603260045260246000fd5b9060005260206000200160009054906101000a900473ffffffffffffffffffffffffffffffffffffffff1673ffffffffffffffffffffffffffffffffffffffff16826040516024016040516020818303038152906040527ffc8e2cd4000000000000000000000000000000000000000000000000000000007bffffffffffffffffffffffffffffffffffffffffffffffffffffffff19166020820180517bffffffffffffffffffffffffffffffffffffffffffffffffffffffff838183161783525050505060405161156f9190612ed7565b60006040518083038185875af1925050503d80600081146115ac576040519150601f19603f3d011682016040523d82523d6000602084013e6115b1565b606091505b50509050806040518060400160405280600381526020017f31313200000000000000000000000000000000000000000000000000000000008152509061162d576040517f08c379a00000000000000000000000000000000000000000000000000000000081526004016116249190613016565b60405180910390fd5b5081609b8481548110611669577f4e487b7100000000000000000000000000000000000000000000000000000000600052603260045260246000fd5b9060005260206000200160009054906101000a900473ffffffffffffffffffffffffffffffffffffffff1673ffffffffffffffffffffffffffffffffffffffff16427f42affc57c2b30e1ac5957640cfb86fcd839a295d2ec7eed57db385dd03aecd2c60405160405180910390a4505080806116e4906134b1565b9150506113cb565b506116f561231f565b5042609d819055505050565b60015442118061171357506000600254145b1561173f57611720610bc2565b60028190555060005442611734919061323a565b6001819055506117b1565b6040518060400160405280600381526020017f31323100000000000000000000000000000000000000000000000000000000008152506040517f08c379a00000000000000000000000000000000000000000000000000000000081526004016117a89190613016565b60405180910390fd5b565b7ffbd454f36a7e1a388bd6fc3ab10d434aa4578f811acbbcf33afb1c697486313c6117dd816120cc565b81609a60016101000a81548173ffffffffffffffffffffffffffffffffffffffff021916908373ffffffffffffffffffffffffffffffffffffffff1602179055505050565b609a60019054906101000a900473ffffffffffffffffffffffffffffffffffffffff1681565b60006068600084815260200190815260200160002060000160008373ffffffffffffffffffffffffffffffffffffffff1673ffffffffffffffffffffffffffffffffffffffff16815260200190815260200160002060009054906101000a900460ff16905092915050565b6060609b80548060200260200160405190810160405280929190818152602001828054801561193757602002820191906000526020600020905b8160009054906101000a900473ffffffffffffffffffffffffffffffffffffffff1673ffffffffffffffffffffffffffffffffffffffff16815260200190600101908083116118ed575b5050505050905090565b6000600154905090565b6000801b81565b6000609a60009054906101000a900460ff16905090565b6000609a60009054906101000a900460ff1660ff1647609c8460ff16815481106119bc577f4e487b7100000000000000000000000000000000000000000000000000000000600052603260045260246000fd5b90600052602060002090602091828204019190069054906101000a900460ff1660ff166119e991906132f8565b6119f391906132c7565b9050919050565b6000426001541015611a41576040517f08c379a0000000000000000000000000000000000000000000000000000000008152600401611a3890613058565b60405180910390fd5b600254905090565b600054609d54611a59919061323a565b421180611a8c5750611a8b7ffbd454f36a7e1a388bd6fc3ab10d434aa4578f811acbbcf33afb1c697486313c33611848565b5b15611e40576000611a9b610bc2565b905060003273ffffffffffffffffffffffffffffffffffffffff1682604051611ac390612eee565b60006040518083038185875af1925050503d8060008114611b00576040519150601f19603f3d011682016040523d82523d6000602084013e611b05565b606091505b50509050806040518060400160405280600381526020017f313232000000000000000000000000000000000000000000000000000000000081525090611b81576040517f08c379a0000000000000000000000000000000000000000000000000000000008152600401611b789190613016565b60405180910390fd5b50600047905060005b609b80549050811015611e27576000609a60009054906101000a900460ff1660ff16609c8381548110611be6577f4e487b7100000000000000000000000000000000000000000000000000000000600052603260045260246000fd5b90600052602060002090602091828204019190069054906101000a900460ff1660ff1684611c1491906132f8565b611c1e91906132c7565b90506000609b8381548110611c5c577f4e487b7100000000000000000000000000000000000000000000000000000000600052603260045260246000fd5b9060005260206000200160009054906101000a900473ffffffffffffffffffffffffffffffffffffffff1673ffffffffffffffffffffffffffffffffffffffff1682604051611caa90612eee565b60006040518083038185875af1925050503d8060008114611ce7576040519150601f19603f3d011682016040523d82523d6000602084013e611cec565b606091505b50509050806040518060400160405280600381526020017f313132000000000000000000000000000000000000000000000000000000000081525090611d68576040517f08c379a0000000000000000000000000000000000000000000000000000000008152600401611d5f9190613016565b60405180910390fd5b5081609b8481548110611da4577f4e487b7100000000000000000000000000000000000000000000000000000000600052603260045260246000fd5b9060005260206000200160009054906101000a900473ffffffffffffffffffffffffffffffffffffffff1673ffffffffffffffffffffffffffffffffffffffff16427f42affc57c2b30e1ac5957640cfb86fcd839a295d2ec7eed57db385dd03aecd2c60405160405180910390a450508080611e1f906134b1565b915050611b8a565b5042609d81905550611e3761231f565b50505050611eb2565b6040518060400160405280600381526020017f31323100000000000000000000000000000000000000000000000000000000008152506040517f08c379a0000000000000000000000000000000000000000000000000000000008152600401611ea99190613016565b60405180910390fd5b565b611ebd82610ba2565b611ec6816120cc565b611ed083836121c9565b505050565b60025481565b600080600090505b609b80549050811015611fa5578273ffffffffffffffffffffffffffffffffffffffff16609b8281548110611f41577f4e487b7100000000000000000000000000000000000000000000000000000000600052603260045260246000fd5b9060005260206000200160009054906101000a900473ffffffffffffffffffffffffffffffffffffffff1673ffffffffffffffffffffffffffffffffffffffff161415611f92576000915050611fab565b8080611f9d906134b1565b915050611ee3565b50600190505b919050565b7ffbd454f36a7e1a388bd6fc3ab10d434aa4578f811acbbcf33afb1c697486313c81565b6000609d54905090565b60015481565b6060609c80548060200260200160405190810160405280929190818152602001828054801561205857602002820191906000526020600020906000905b82829054906101000a900460ff1660ff16815260200190600101906020826000010492830192600103820291508084116120215790505b5050505050905090565b60007f01ffc9a7000000000000000000000000000000000000000000000000000000007bffffffffffffffffffffffffffffffffffffffffffffffffffffffff1916827bffffffffffffffffffffffffffffffffffffffffffffffffffffffff1916149050919050565b6120dd816120d86121c1565b6123c8565b50565b6120ea8282611848565b6121bd5760016068600084815260200190815260200160002060000160008373ffffffffffffffffffffffffffffffffffffffff1673ffffffffffffffffffffffffffffffffffffffff16815260200190815260200160002060006101000a81548160ff0219169083151502179055506121626121c1565b73ffffffffffffffffffffffffffffffffffffffff168173ffffffffffffffffffffffffffffffffffffffff16837f2f8788117e7eff1d82e926ec794901d17c78024a50270940304540a733656f0d60405160405180910390a45b5050565b600033905090565b6121d38282611848565b156122a75760006068600084815260200190815260200160002060000160008373ffffffffffffffffffffffffffffffffffffffff1673ffffffffffffffffffffffffffffffffffffffff16815260200190815260200160002060006101000a81548160ff02191690831515021790555061224c6121c1565b73ffffffffffffffffffffffffffffffffffffffff168173ffffffffffffffffffffffffffffffffffffffff16837ff6391f5c32d9c69d2a47ea670b442974b53935d1edc7fd64eb21e047a839171b60405160405180910390a45b5050565b6000808273ffffffffffffffffffffffffffffffffffffffff163b119050919050565b600360019054906101000a900460ff1661231d576040517f08c379a000000000000000000000000000000000000000000000000000000000815260040161231490613098565b60405180910390fd5b565b6000609a60019054906101000a900473ffffffffffffffffffffffffffffffffffffffff1673ffffffffffffffffffffffffffffffffffffffff1663e58456e96040518163ffffffff1660e01b8152600401602060405180830381600087803b15801561238b57600080fd5b505af115801561239f573d6000803e3d6000fd5b505050506040513d601f19601f820116820180604052508101906123c39190612a3f565b905090565b6123d28282611848565b612449576123df8161244d565b6123ed8360001c602061247a565b6040516020016123fe929190612f03565b6040516020818303038152906040526040517f08c379a00000000000000000000000000000000000000000000000000000000081526004016124409190613016565b60405180910390fd5b5050565b60606124738273ffffffffffffffffffffffffffffffffffffffff16601460ff1661247a565b9050919050565b60606000600283600261248d91906132f8565b612497919061323a565b67ffffffffffffffff8111156124d6577f4e487b7100000000000000000000000000000000000000000000000000000000600052604160045260246000fd5b6040519080825280601f01601f1916602001820160405280156125085781602001600182028036833780820191505090505b5090507f300000000000000000000000000000000000000000000000000000000000000081600081518110612566577f4e487b7100000000000000000000000000000000000000000000000000000000600052603260045260246000fd5b60200101907effffffffffffffffffffffffffffffffffffffffffffffffffffffffffffff1916908160001a9053507f7800000000000000000000000000000000000000000000000000000000000000816001815181106125f0577f4e487b7100000000000000000000000000000000000000000000000000000000600052603260045260246000fd5b60200101907effffffffffffffffffffffffffffffffffffffffffffffffffffffffffffff1916908160001a9053506000600184600261263091906132f8565b61263a919061323a565b90505b6001811115612726577f3031323334353637383961626364656600000000000000000000000000000000600f8616601081106126a2577f4e487b7100000000000000000000000000000000000000000000000000000000600052603260045260246000fd5b1a60f81b8282815181106126df577f4e487b7100000000000000000000000000000000000000000000000000000000600052603260045260246000fd5b60200101907effffffffffffffffffffffffffffffffffffffffffffffffffffffffffffff1916908160001a905350600485901c94508061271f90613456565b905061263d565b506000841461276a576040517f08c379a000000000000000000000000000000000000000000000000000000000815260040161276190613038565b60405180910390fd5b8091505092915050565b600061278761278284613133565b61310e565b905080838252602082019050828560208602820111156127a657600080fd5b60005b858110156127d657816127bc888261284c565b8452602084019350602083019250506001810190506127a9565b5050509392505050565b60006127f36127ee8461315f565b61310e565b9050808382526020820190508285602086028201111561281257600080fd5b60005b858110156128425781612828888261291e565b845260208401935060208301925050600181019050612815565b5050509392505050565b60008135905061285b8161372c565b92915050565b600082601f83011261287257600080fd5b8135612882848260208601612774565b91505092915050565b600082601f83011261289c57600080fd5b81356128ac8482602086016127e0565b91505092915050565b6000815190506128c481613743565b92915050565b6000813590506128d98161375a565b92915050565b6000813590506128ee81613771565b92915050565b60008135905061290381613788565b92915050565b60008151905061291881613788565b92915050565b60008135905061292d8161379f565b92915050565b60006020828403121561294557600080fd5b60006129538482850161284c565b91505092915050565b600080600080600060a0868803121561297457600080fd5b60006129828882890161284c565b955050602086013567ffffffffffffffff81111561299f57600080fd5b6129ab88828901612861565b945050604086013567ffffffffffffffff8111156129c857600080fd5b6129d48882890161288b565b93505060606129e58882890161284c565b92505060806129f68882890161284c565b9150509295509295909350565b60008060408385031215612a1657600080fd5b6000612a248582860161284c565b9250506020612a358582860161291e565b9150509250929050565b600060208284031215612a5157600080fd5b6000612a5f848285016128b5565b91505092915050565b600060208284031215612a7a57600080fd5b6000612a88848285016128ca565b91505092915050565b60008060408385031215612aa457600080fd5b6000612ab2858286016128ca565b9250506020612ac38582860161284c565b9150509250929050565b600060208284031215612adf57600080fd5b6000612aed848285016128df565b91505092915050565b600060208284031215612b0857600080fd5b6000612b16848285016128f4565b91505092915050565b600060208284031215612b3157600080fd5b6000612b3f84828501612909565b91505092915050565b600060208284031215612b5a57600080fd5b6000612b688482850161291e565b91505092915050565b600080600060608486031215612b8657600080fd5b6000612b948682870161291e565b9350506020612ba58682870161284c565b9250506040612bb68682870161291e565b9150509250925092565b6000612bcc8383612bf0565b60208301905092915050565b6000612be48383612eb9565b60208301905092915050565b612bf981613386565b82525050565b612c0881613386565b82525050565b6000612c19826131ab565b612c2381856131f1565b9350612c2e8361318b565b8060005b83811015612c5f578151612c468882612bc0565b9750612c51836131d7565b925050600181019050612c32565b5085935050505092915050565b6000612c77826131b6565b612c818185613202565b9350612c8c8361319b565b8060005b83811015612cbd578151612ca48882612bd8565b9750612caf836131e4565b925050600181019050612c90565b5085935050505092915050565b612cd381613398565b82525050565b612ce2816133a4565b82525050565b6000612cf3826131c1565b612cfd8185613213565b9350612d0d818560208601613423565b80840191505092915050565b612d2281613411565b82525050565b6000612d33826131cc565b612d3d818561321e565b9350612d4d818560208601613423565b612d5681613587565b840191505092915050565b6000612d6c826131cc565b612d76818561322f565b9350612d86818560208601613423565b80840191505092915050565b6000612d9f60208361321e565b9150612daa82613598565b602082019050919050565b6000612dc2600a8361321e565b9150612dcd826135c1565b602082019050919050565b6000612de5602e8361321e565b9150612df0826135ea565b604082019050919050565b6000612e08600083613213565b9150612e1382613639565b600082019050919050565b6000612e2b602b8361321e565b9150612e368261363c565b604082019050919050565b6000612e4e60178361322f565b9150612e598261368b565b601782019050919050565b6000612e7160118361322f565b9150612e7c826136b4565b601182019050919050565b6000612e94602f8361321e565b9150612e9f826136dd565b604082019050919050565b612eb3816133fa565b82525050565b612ec281613404565b82525050565b612ed181613404565b82525050565b6000612ee38284612ce8565b915081905092915050565b6000612ef982612dfb565b9150819050919050565b6000612f0e82612e41565b9150612f1a8285612d61565b9150612f2582612e64565b9150612f318284612d61565b91508190509392505050565b6000602082019050612f526000830184612bff565b92915050565b6000604082019050612f6d6000830185612bff565b612f7a6020830184612eaa565b9392505050565b60006020820190508181036000830152612f9b8184612c0e565b905092915050565b60006020820190508181036000830152612fbd8184612c6c565b905092915050565b6000602082019050612fda6000830184612cca565b92915050565b6000602082019050612ff56000830184612cd9565b92915050565b60006020820190506130106000830184612d19565b92915050565b600060208201905081810360008301526130308184612d28565b905092915050565b6000602082019050818103600083015261305181612d92565b9050919050565b6000602082019050818103600083015261307181612db5565b9050919050565b6000602082019050818103600083015261309181612dd8565b9050919050565b600060208201905081810360008301526130b181612e1e565b9050919050565b600060208201905081810360008301526130d181612e87565b9050919050565b60006020820190506130ed6000830184612eaa565b92915050565b60006020820190506131086000830184612ec8565b92915050565b6000613118613129565b90506131248282613480565b919050565b6000604051905090565b600067ffffffffffffffff82111561314e5761314d613558565b5b602082029050602081019050919050565b600067ffffffffffffffff82111561317a57613179613558565b5b602082029050602081019050919050565b6000819050602082019050919050565b6000819050602082019050919050565b600081519050919050565b600081519050919050565b600081519050919050565b600081519050919050565b6000602082019050919050565b6000602082019050919050565b600082825260208201905092915050565b600082825260208201905092915050565b600081905092915050565b600082825260208201905092915050565b600081905092915050565b6000613245826133fa565b9150613250836133fa565b9250827fffffffffffffffffffffffffffffffffffffffffffffffffffffffffffffffff03821115613285576132846134fa565b5b828201905092915050565b600061329b82613404565b91506132a683613404565b92508260ff038211156132bc576132bb6134fa565b5b828201905092915050565b60006132d2826133fa565b91506132dd836133fa565b9250826132ed576132ec613529565b5b828204905092915050565b6000613303826133fa565b915061330e836133fa565b9250817fffffffffffffffffffffffffffffffffffffffffffffffffffffffffffffffff0483118215151615613347576133466134fa565b5b828202905092915050565b600061335d82613404565b915061336883613404565b92508282101561337b5761337a6134fa565b5b828203905092915050565b6000613391826133da565b9050919050565b60008115159050919050565b6000819050919050565b60007fffffffff0000000000000000000000000000000000000000000000000000000082169050919050565b600073ffffffffffffffffffffffffffffffffffffffff82169050919050565b6000819050919050565b600060ff82169050919050565b600061341c82613404565b9050919050565b60005b83811015613441578082015181840152602081019050613426565b83811115613450576000848401525b50505050565b6000613461826133fa565b91506000821415613475576134746134fa565b5b600182039050919050565b61348982613587565b810181811067ffffffffffffffff821117156134a8576134a7613558565b5b80604052505050565b60006134bc826133fa565b91507fffffffffffffffffffffffffffffffffffffffffffffffffffffffffffffffff8214156134ef576134ee6134fa565b5b600182019050919050565b7f4e487b7100000000000000000000000000000000000000000000000000000000600052601160045260246000fd5b7f4e487b7100000000000000000000000000000000000000000000000000000000600052601260045260246000fd5b7f4e487b7100000000000000000000000000000000000000000000000000000000600052604160045260246000fd5b6000601f19601f8301169050919050565b7f537472696e67733a20686578206c656e67746820696e73756666696369656e74600082015250565b7f7265736574466565282900000000000000000000000000000000000000000000600082015250565b7f496e697469616c697a61626c653a20636f6e747261637420697320616c72656160008201527f647920696e697469616c697a6564000000000000000000000000000000000000602082015250565b50565b7f496e697469616c697a61626c653a20636f6e7472616374206973206e6f74206960008201527f6e697469616c697a696e67000000000000000000000000000000000000000000602082015250565b7f416363657373436f6e74726f6c3a206163636f756e7420000000000000000000600082015250565b7f206973206d697373696e6720726f6c6520000000000000000000000000000000600082015250565b7f416363657373436f6e74726f6c3a2063616e206f6e6c792072656e6f756e636560008201527f20726f6c657320666f722073656c660000000000000000000000000000000000602082015250565b61373581613386565b811461374057600080fd5b50565b61374c81613398565b811461375757600080fd5b50565b613763816133a4565b811461376e57600080fd5b50565b61377a816133ae565b811461378557600080fd5b50565b613791816133fa565b811461379c57600080fd5b50565b6137a881613404565b81146137b357600080fd5b5056fea264697066735822122092199fe227812ed27c81fc46917054ee7b410c61e8ecbce7899f11b9fbb2811264736f6c63430008020033",
  "linkReferences": {},
  "deployedLinkReferences": {}
}