{
  "_format": "hh-sol-artifact-1",
  "contractName": "FeeContract",
  "sourceName": "contracts/FeeContract.sol",
  "abi": [
    {
      "anonymous": false,
      "inputs": [
        {
          "indexed": true,
          "internalType": "uint256",
          "name": "timestamp",
          "type": "uint256"
        },
        {
          "indexed": true,
          "internalType": "address",
          "name": "to",
          "type": "address"
        },
        {
          "indexed": true,
          "internalType": "uint256",
          "name": "amount",
          "type": "uint256"
        }
      ],
      "name": "FeesDistributed",
      "type": "event"
    },
    {
      "anonymous": false,
      "inputs": [
        {
          "indexed": false,
          "internalType": "uint8",
          "name": "version",
          "type": "uint8"
        }
      ],
      "name": "Initialized",
      "type": "event"
    },
    {
      "anonymous": false,
      "inputs": [
        {
          "indexed": true,
          "internalType": "bytes32",
          "name": "role",
          "type": "bytes32"
        },
        {
          "indexed": true,
          "internalType": "bytes32",
          "name": "previousAdminRole",
          "type": "bytes32"
        },
        {
          "indexed": true,
          "internalType": "bytes32",
          "name": "newAdminRole",
          "type": "bytes32"
        }
      ],
      "name": "RoleAdminChanged",
      "type": "event"
    },
    {
      "anonymous": false,
      "inputs": [
        {
          "indexed": true,
          "internalType": "bytes32",
          "name": "role",
          "type": "bytes32"
        },
        {
          "indexed": true,
          "internalType": "address",
          "name": "account",
          "type": "address"
        },
        {
          "indexed": true,
          "internalType": "address",
          "name": "sender",
          "type": "address"
        }
      ],
      "name": "RoleGranted",
      "type": "event"
    },
    {
      "anonymous": false,
      "inputs": [
        {
          "indexed": true,
          "internalType": "bytes32",
          "name": "role",
          "type": "bytes32"
        },
        {
          "indexed": true,
          "internalType": "address",
          "name": "account",
          "type": "address"
        },
        {
          "indexed": true,
          "internalType": "address",
          "name": "sender",
          "type": "address"
        }
      ],
      "name": "RoleRevoked",
      "type": "event"
    },
    {
      "inputs": [],
      "name": "DEFAULT_ADMIN_ROLE",
      "outputs": [
        {
          "internalType": "bytes32",
          "name": "",
          "type": "bytes32"
        }
      ],
      "stateMutability": "view",
      "type": "function"
    },
    {
      "inputs": [],
      "name": "DISTRIBUTOR_ROLE",
      "outputs": [
        {
          "internalType": "bytes32",
          "name": "",
          "type": "bytes32"
        }
      ],
      "stateMutability": "view",
      "type": "function"
    },
    {
      "inputs": [],
      "name": "_resetFee",
      "outputs": [],
      "stateMutability": "nonpayable",
      "type": "function"
    },
    {
      "inputs": [
        {
          "internalType": "address",
          "name": "_newChannelAddress",
          "type": "address"
        },
        {
          "internalType": "uint8",
          "name": "_weight",
          "type": "uint8"
        }
      ],
      "name": "addChannel",
      "outputs": [],
      "stateMutability": "nonpayable",
      "type": "function"
    },
    {
      "inputs": [
        {
          "internalType": "uint8",
          "name": "_index",
          "type": "uint8"
        },
        {
          "internalType": "address",
          "name": "_newChannelAddress",
          "type": "address"
        },
        {
          "internalType": "uint8",
          "name": "_newWeight",
          "type": "uint8"
        }
      ],
      "name": "adjustChannel",
      "outputs": [],
      "stateMutability": "nonpayable",
      "type": "function"
    },
    {
      "inputs": [
        {
          "internalType": "uint8",
          "name": "index",
          "type": "uint8"
        }
      ],
      "name": "amountPaidToUponNextDistribution",
      "outputs": [
        {
          "internalType": "uint256",
          "name": "",
          "type": "uint256"
        }
      ],
      "stateMutability": "view",
      "type": "function"
    },
    {
      "inputs": [],
      "name": "collectFee",
      "outputs": [],
      "stateMutability": "payable",
      "type": "function"
    },
    {
      "inputs": [],
      "name": "epochLength",
      "outputs": [
        {
          "internalType": "uint256",
          "name": "",
          "type": "uint256"
        }
      ],
      "stateMutability": "view",
      "type": "function"
    },
    {
      "inputs": [],
      "name": "fee",
      "outputs": [
        {
          "internalType": "uint256",
          "name": "",
          "type": "uint256"
        }
      ],
      "stateMutability": "view",
      "type": "function"
    },
    {
      "inputs": [],
      "name": "forceFee",
      "outputs": [],
      "stateMutability": "payable",
      "type": "function"
    },
    {
      "inputs": [
        {
          "internalType": "uint8",
          "name": "index",
          "type": "uint8"
        }
      ],
      "name": "getChannelWeightByIndex",
      "outputs": [
        {
          "internalType": "address",
          "name": "",
          "type": "address"
        },
        {
          "internalType": "uint256",
          "name": "",
          "type": "uint256"
        }
      ],
      "stateMutability": "view",
      "type": "function"
    },
    {
      "inputs": [],
      "name": "getChannels",
      "outputs": [
        {
          "internalType": "address[]",
          "name": "",
          "type": "address[]"
        }
      ],
      "stateMutability": "view",
      "type": "function"
    },
    {
      "inputs": [],
      "name": "getFee",
      "outputs": [
        {
          "internalType": "uint256",
          "name": "",
          "type": "uint256"
        }
      ],
      "stateMutability": "view",
      "type": "function"
    },
    {
      "inputs": [],
      "name": "getLastDistributionBlock",
      "outputs": [
        {
          "internalType": "uint256",
          "name": "",
          "type": "uint256"
        }
      ],
      "stateMutability": "view",
      "type": "function"
    },
    {
      "inputs": [
        {
          "internalType": "bytes32",
          "name": "role",
          "type": "bytes32"
        }
      ],
      "name": "getRoleAdmin",
      "outputs": [
        {
          "internalType": "bytes32",
          "name": "",
          "type": "bytes32"
        }
      ],
      "stateMutability": "view",
      "type": "function"
    },
    {
      "inputs": [],
      "name": "getTotalContractShares",
      "outputs": [
        {
          "internalType": "uint8",
          "name": "",
          "type": "uint8"
        }
      ],
      "stateMutability": "view",
      "type": "function"
    },
    {
      "inputs": [],
      "name": "getWieghts",
      "outputs": [
        {
          "internalType": "uint8[]",
          "name": "",
          "type": "uint8[]"
        }
      ],
      "stateMutability": "view",
      "type": "function"
    },
    {
      "inputs": [
        {
          "internalType": "bytes32",
          "name": "role",
          "type": "bytes32"
        },
        {
          "internalType": "address",
          "name": "account",
          "type": "address"
        }
      ],
      "name": "grantRole",
      "outputs": [],
      "stateMutability": "nonpayable",
      "type": "function"
    },
    {
      "inputs": [
        {
          "internalType": "bytes32",
          "name": "role",
          "type": "bytes32"
        },
        {
          "internalType": "address",
          "name": "account",
          "type": "address"
        }
      ],
      "name": "hasRole",
      "outputs": [
        {
          "internalType": "bool",
          "name": "",
          "type": "bool"
        }
      ],
      "stateMutability": "view",
      "type": "function"
    },
    {
      "inputs": [
        {
          "internalType": "address",
          "name": "_oracle",
          "type": "address"
        },
        {
          "internalType": "address[]",
          "name": "_channels",
          "type": "address[]"
        },
        {
          "internalType": "uint8[]",
          "name": "_weights",
          "type": "uint8[]"
        },
        {
          "internalType": "address",
          "name": "admin",
          "type": "address"
        },
        {
          "internalType": "address",
          "name": "distributor",
          "type": "address"
        }
      ],
      "name": "initialize",
      "outputs": [],
      "stateMutability": "nonpayable",
      "type": "function"
    },
    {
      "inputs": [
        {
          "internalType": "address",
          "name": "channel",
          "type": "address"
        }
      ],
      "name": "isOriginalAddress",
      "outputs": [
        {
          "internalType": "bool",
          "name": "",
          "type": "bool"
        }
      ],
      "stateMutability": "view",
      "type": "function"
    },
    {
      "inputs": [],
      "name": "oracle",
      "outputs": [
        {
          "internalType": "address",
          "name": "",
          "type": "address"
        }
      ],
      "stateMutability": "view",
      "type": "function"
    },
    {
      "inputs": [],
      "name": "queryOracle",
      "outputs": [
        {
          "internalType": "uint256",
          "name": "feeAmount",
          "type": "uint256"
        }
      ],
      "stateMutability": "view",
      "type": "function"
    },
    {
      "inputs": [
        {
          "internalType": "bytes32",
          "name": "role",
          "type": "bytes32"
        },
        {
          "internalType": "address",
          "name": "account",
          "type": "address"
        }
      ],
      "name": "renounceRole",
      "outputs": [],
      "stateMutability": "nonpayable",
      "type": "function"
    },
    {
      "inputs": [],
      "name": "requiredReset",
      "outputs": [
        {
          "internalType": "uint256",
          "name": "",
          "type": "uint256"
        }
      ],
      "stateMutability": "view",
      "type": "function"
    },
    {
      "inputs": [
        {
          "internalType": "bytes32",
          "name": "role",
          "type": "bytes32"
        },
        {
          "internalType": "address",
          "name": "account",
          "type": "address"
        }
      ],
      "name": "revokeRole",
      "outputs": [],
      "stateMutability": "nonpayable",
      "type": "function"
    },
    {
      "inputs": [
        {
          "internalType": "uint256",
          "name": "new_epochLength",
          "type": "uint256"
        }
      ],
      "name": "setEpoch",
      "outputs": [],
      "stateMutability": "nonpayable",
      "type": "function"
    },
    {
      "inputs": [
        {
          "internalType": "address",
          "name": "_newOracle",
          "type": "address"
        }
      ],
      "name": "setOracle",
      "outputs": [],
      "stateMutability": "nonpayable",
      "type": "function"
    },
    {
      "inputs": [
        {
          "internalType": "bytes4",
          "name": "interfaceId",
          "type": "bytes4"
        }
      ],
      "name": "supportsInterface",
      "outputs": [
        {
          "internalType": "bool",
          "name": "",
          "type": "bool"
        }
      ],
      "stateMutability": "view",
      "type": "function"
    },
    {
      "stateMutability": "payable",
      "type": "receive"
    }
  ],
  "bytecode": "0x608060405234801561001057600080fd5b50613709806100206000396000f3fe6080604052600436106101c65760003560e01c80637dc0d1d0116100f7578063d4d5d32a11610095578063f0bd87cc11610064578063f0bd87cc1461060c578063f5f5d0ba14610637578063f5fa96e514610662578063fd141f5c1461068d576101cd565b8063d4d5d32a14610571578063d547741f1461057b578063ddca3f43146105a4578063deea2b9b146105cf576101cd565b8063a217fddf116100d1578063a217fddf146104b3578063a4214c18146104de578063c0b87a4814610509578063ced72f8714610546576101cd565b80637dc0d1d01461042057806391d148541461044b5780639575f6ac14610488576101cd565b806336568abe116101645780635301828f1161013e5780635301828f1461039957806357d775f8146103c25780635b71d699146103ed5780637adbf973146103f7576101cd565b806336568abe146103305780633df048ef146103595780634f12e56014610370576101cd565b80632354f69b116101a05780632354f69b14610276578063248a9ca31461029f57806326afe980146102dc5780632f2ff15d14610307576101cd565b806301ffc9a7146101d25780630ceb2cef1461020f5780630e2c931214610238576101cd565b366101cd57005b600080fd5b3480156101de57600080fd5b506101f960048036038101906101f491906129ea565b6106b8565b6040516102069190612ee2565b60405180910390f35b34801561021b57600080fd5b5061023660048036038101906102319190612a13565b610732565b005b34801561024457600080fd5b5061025f600480360381019061025a9190612a65565b610767565b60405161026d929190612e75565b60405180910390f35b34801561028257600080fd5b5061029d60048036038101906102989190612a8e565b61084a565b005b3480156102ab57600080fd5b506102c660048036038101906102c19190612985565b610b6c565b6040516102d39190612efd565b60405180910390f35b3480156102e857600080fd5b506102f1610b8c565b6040516102fe9190612ff5565b60405180910390f35b34801561031357600080fd5b5061032e600480360381019061032991906129ae565b610c33565b005b34801561033c57600080fd5b50610357600480360381019061035291906129ae565b610c54565b005b34801561036557600080fd5b5061036e610cd7565b005b34801561037c57600080fd5b5061039760048036038101906103929190612879565b610cfb565b005b3480156103a557600080fd5b506103c060048036038101906103bb9190612920565b611121565b005b3480156103ce57600080fd5b506103d761136c565b6040516103e49190612ff5565b60405180910390f35b6103f5611372565b005b34801561040357600080fd5b5061041e60048036038101906104199190612850565b6116da565b005b34801561042c57600080fd5b50610435611749565b6040516104429190612e5a565b60405180910390f35b34801561045757600080fd5b50610472600480360381019061046d91906129ae565b61176f565b60405161047f9190612ee2565b60405180910390f35b34801561049457600080fd5b5061049d6117da565b6040516104aa9190612e9e565b60405180910390f35b3480156104bf57600080fd5b506104c8611868565b6040516104d59190612efd565b60405180910390f35b3480156104ea57600080fd5b506104f361186f565b6040516105009190613010565b60405180910390f35b34801561051557600080fd5b50610530600480360381019061052b9190612a65565b611886565b60405161053d9190612ff5565b60405180910390f35b34801561055257600080fd5b5061055b611917565b6040516105689190612ff5565b60405180910390f35b610579611966565b005b34801561058757600080fd5b506105a2600480360381019061059d91906129ae565b611dd1565b005b3480156105b057600080fd5b506105b9611df2565b6040516105c69190612ff5565b60405180910390f35b3480156105db57600080fd5b506105f660048036038101906105f19190612850565b611df8565b6040516106039190612ee2565b60405180910390f35b34801561061857600080fd5b50610621611ecd565b60405161062e9190612efd565b60405180910390f35b34801561064357600080fd5b5061064c611ef1565b6040516106599190612ff5565b60405180910390f35b34801561066e57600080fd5b50610677611efb565b6040516106849190612ff5565b60405180910390f35b34801561069957600080fd5b506106a2611f01565b6040516106af9190612ec0565b60405180910390f35b60007f7965db0b000000000000000000000000000000000000000000000000000000007bffffffffffffffffffffffffffffffffffffffffffffffffffffffff1916827bffffffffffffffffffffffffffffffffffffffffffffffffffffffff1916148061072b575061072a82611f7f565b5b9050919050565b7ffbd454f36a7e1a388bd6fc3ab10d434aa4578f811acbbcf33afb1c697486313c61075c81611fe9565b816000819055505050565b6000806000609b8460ff16815481106107a9577f4e487b7100000000000000000000000000000000000000000000000000000000600052603260045260246000fd5b9060005260206000200160009054906101000a900473ffffffffffffffffffffffffffffffffffffffff1690506000609c8560ff1681548110610815577f4e487b7100000000000000000000000000000000000000000000000000000000600052603260045260246000fd5b90600052602060002090602091828204019190069054906101000a900460ff16905081818060ff169050935093505050915091565b7ffbd454f36a7e1a388bd6fc3ab10d434aa4578f811acbbcf33afb1c697486313c61087481611fe9565b600073ffffffffffffffffffffffffffffffffffffffff168373ffffffffffffffffffffffffffffffffffffffff1614806108bb5750600015156108b784611df8565b1515145b15610932576040518060400160405280600381526020017f31323300000000000000000000000000000000000000000000000000000000008152506040517f08c379a00000000000000000000000000000000000000000000000000000000081526004016109299190612f33565b60405180910390fd5b60048460ff1611156109b0576040518060400160405280600381526020017f31313100000000000000000000000000000000000000000000000000000000008152506040517f08c379a00000000000000000000000000000000000000000000000000000000081526004016109a79190612f33565b60405180910390fd5b82609b8560ff16815481106109ee577f4e487b7100000000000000000000000000000000000000000000000000000000600052603260045260246000fd5b9060005260206000200160006101000a81548173ffffffffffffffffffffffffffffffffffffffff021916908373ffffffffffffffffffffffffffffffffffffffff160217905550609c8460ff1681548110610a73577f4e487b7100000000000000000000000000000000000000000000000000000000600052603260045260246000fd5b90600052602060002090602091828204019190069054906101000a900460ff16609a60008282829054906101000a900460ff16610ab0919061326f565b92506101000a81548160ff021916908360ff16021790555081609c8560ff1681548110610b06577f4e487b7100000000000000000000000000000000000000000000000000000000600052603260045260246000fd5b90600052602060002090602091828204019190066101000a81548160ff021916908360ff16021790555081609a60008282829054906101000a900460ff16610b4e91906131ad565b92506101000a81548160ff021916908360ff16021790555050505050565b600060686000838152602001908152602001600020600101549050919050565b6000609a60019054906101000a900473ffffffffffffffffffffffffffffffffffffffff1673ffffffffffffffffffffffffffffffffffffffff16637eeda7036040518163ffffffff1660e01b815260040160206040518083038186803b158015610bf657600080fd5b505afa158015610c0a573d6000803e3d6000fd5b505050506040513d601f19601f82011682018060405250810190610c2e9190612a3c565b905090565b610c3c82610b6c565b610c4581611fe9565b610c4f8383611ffd565b505050565b610c5c6120de565b73ffffffffffffffffffffffffffffffffffffffff168173ffffffffffffffffffffffffffffffffffffffff1614610cc9576040517f08c379a0000000000000000000000000000000000000000000000000000000008152600401610cc090612fd5565b60405180910390fd5b610cd382826120e6565b5050565b610cdf610b8c565b60028190555060005442610cf39190613157565b600181905550565b6000600360019054906101000a900460ff16159050808015610d2f57506001600360009054906101000a900460ff1660ff16105b80610d5e5750610d3e306121c8565b158015610d5d57506001600360009054906101000a900460ff1660ff16145b5b610d9d576040517f08c379a0000000000000000000000000000000000000000000000000000000008152600401610d9490612f95565b60405180910390fd5b6001600360006101000a81548160ff021916908360ff1602179055508015610ddb576001600360016101000a81548160ff0219169083151502179055505b610de36121eb565b610df06000801b84611ffd565b610e1a7ffbd454f36a7e1a388bd6fc3ab10d434aa4578f811acbbcf33afb1c697486313c83611ffd565b610e276000801b336120e6565b600585511180610e38575060058451115b15610eaf576040518060400160405280600381526020017f31323400000000000000000000000000000000000000000000000000000000008152506040517f08c379a0000000000000000000000000000000000000000000000000000000008152600401610ea69190612f33565b60405180910390fd5b42609d819055506201518060008190555085609a60016101000a81548173ffffffffffffffffffffffffffffffffffffffff021916908373ffffffffffffffffffffffffffffffffffffffff16021790555060005b85518110156110be57848181518110610f46577f4e487b7100000000000000000000000000000000000000000000000000000000600052603260045260246000fd5b6020026020010151609a60008282829054906101000a900460ff16610f6b91906131ad565b92506101000a81548160ff021916908360ff160217905550609b868281518110610fbe577f4e487b7100000000000000000000000000000000000000000000000000000000600052603260045260246000fd5b60200260200101519080600181540180825580915050600190039060005260206000200160009091909190916101000a81548173ffffffffffffffffffffffffffffffffffffffff021916908373ffffffffffffffffffffffffffffffffffffffff160217905550609c858281518110611061577f4e487b7100000000000000000000000000000000000000000000000000000000600052603260045260246000fd5b602002602001015190806001815401808255809150506001900390600052602060002090602091828204019190069091909190916101000a81548160ff021916908360ff16021790555080806110b6906133ce565b915050610f04565b508015611119576000600360016101000a81548160ff0219169083151502179055507f7f26b83ff96e1f2b6a682f133852f6798a09c465da95921460cefb384740249860016040516111109190612f18565b60405180910390a15b505050505050565b7ffbd454f36a7e1a388bd6fc3ab10d434aa4578f811acbbcf33afb1c697486313c61114b81611fe9565b6005609b8054905014156111cb576040518060400160405280600381526020017f31323400000000000000000000000000000000000000000000000000000000008152506040517f08c379a00000000000000000000000000000000000000000000000000000000081526004016111c29190612f33565b60405180910390fd5b600015156111d884611df8565b1515148061121257508273ffffffffffffffffffffffffffffffffffffffff16600073ffffffffffffffffffffffffffffffffffffffff16145b15611289576040518060400160405280600381526020017f31323300000000000000000000000000000000000000000000000000000000008152506040517f08c379a00000000000000000000000000000000000000000000000000000000081526004016112809190612f33565b60405180910390fd5b609b839080600181540180825580915050600190039060005260206000200160009091909190916101000a81548173ffffffffffffffffffffffffffffffffffffffff021916908373ffffffffffffffffffffffffffffffffffffffff160217905550609c8290806001815401808255809150506001900390600052602060002090602091828204019190069091909190916101000a81548160ff021916908360ff16021790555081609a60008282829054906101000a900460ff1661134f91906131ad565b92506101000a81548160ff021916908360ff160217905550505050565b60005481565b7ffbd454f36a7e1a388bd6fc3ab10d434aa4578f811acbbcf33afb1c697486313c61139c81611fe9565b600047905060005b609b805490508110156116c5576000609a60009054906101000a900460ff1660ff16609c8381548110611400577f4e487b7100000000000000000000000000000000000000000000000000000000600052603260045260246000fd5b90600052602060002090602091828204019190069054906101000a900460ff1660ff168461142e9190613215565b61143891906131e4565b90506000609b8381548110611476577f4e487b7100000000000000000000000000000000000000000000000000000000600052603260045260246000fd5b9060005260206000200160009054906101000a900473ffffffffffffffffffffffffffffffffffffffff1673ffffffffffffffffffffffffffffffffffffffff16826040516024016040516020818303038152906040527ffc8e2cd4000000000000000000000000000000000000000000000000000000007bffffffffffffffffffffffffffffffffffffffffffffffffffffffff19166020820180517bffffffffffffffffffffffffffffffffffffffffffffffffffffffff83818316178352505050506040516115489190612df4565b60006040518083038185875af1925050503d8060008114611585576040519150601f19603f3d011682016040523d82523d6000602084013e61158a565b606091505b50509050806040518060400160405280600381526020017f313132000000000000000000000000000000000000000000000000000000000081525090611606576040517f08c379a00000000000000000000000000000000000000000000000000000000081526004016115fd9190612f33565b60405180910390fd5b5081609b8481548110611642577f4e487b7100000000000000000000000000000000000000000000000000000000600052603260045260246000fd5b9060005260206000200160009054906101000a900473ffffffffffffffffffffffffffffffffffffffff1673ffffffffffffffffffffffffffffffffffffffff16427f42affc57c2b30e1ac5957640cfb86fcd839a295d2ec7eed57db385dd03aecd2c60405160405180910390a4505080806116bd906133ce565b9150506113a4565b506116ce61223c565b5042609d819055505050565b7ffbd454f36a7e1a388bd6fc3ab10d434aa4578f811acbbcf33afb1c697486313c61170481611fe9565b81609a60016101000a81548173ffffffffffffffffffffffffffffffffffffffff021916908373ffffffffffffffffffffffffffffffffffffffff1602179055505050565b609a60019054906101000a900473ffffffffffffffffffffffffffffffffffffffff1681565b60006068600084815260200190815260200160002060000160008373ffffffffffffffffffffffffffffffffffffffff1673ffffffffffffffffffffffffffffffffffffffff16815260200190815260200160002060009054906101000a900460ff16905092915050565b6060609b80548060200260200160405190810160405280929190818152602001828054801561185e57602002820191906000526020600020905b8160009054906101000a900473ffffffffffffffffffffffffffffffffffffffff1673ffffffffffffffffffffffffffffffffffffffff1681526020019060010190808311611814575b5050505050905090565b6000801b81565b6000609a60009054906101000a900460ff16905090565b6000609a60009054906101000a900460ff1660ff1647609c8460ff16815481106118d9577f4e487b7100000000000000000000000000000000000000000000000000000000600052603260045260246000fd5b90600052602060002090602091828204019190069054906101000a900460ff1660ff166119069190613215565b61191091906131e4565b9050919050565b600042600154101561195e576040517f08c379a000000000000000000000000000000000000000000000000000000000815260040161195590612f75565b60405180910390fd5b600254905090565b600054609d546119769190613157565b4211806119a957506119a87ffbd454f36a7e1a388bd6fc3ab10d434aa4578f811acbbcf33afb1c697486313c3361176f565b5b15611d5d5760006119b8610b8c565b905060003273ffffffffffffffffffffffffffffffffffffffff16826040516119e090612e0b565b60006040518083038185875af1925050503d8060008114611a1d576040519150601f19603f3d011682016040523d82523d6000602084013e611a22565b606091505b50509050806040518060400160405280600381526020017f313232000000000000000000000000000000000000000000000000000000000081525090611a9e576040517f08c379a0000000000000000000000000000000000000000000000000000000008152600401611a959190612f33565b60405180910390fd5b50600047905060005b609b80549050811015611d44576000609a60009054906101000a900460ff1660ff16609c8381548110611b03577f4e487b7100000000000000000000000000000000000000000000000000000000600052603260045260246000fd5b90600052602060002090602091828204019190069054906101000a900460ff1660ff1684611b319190613215565b611b3b91906131e4565b90506000609b8381548110611b79577f4e487b7100000000000000000000000000000000000000000000000000000000600052603260045260246000fd5b9060005260206000200160009054906101000a900473ffffffffffffffffffffffffffffffffffffffff1673ffffffffffffffffffffffffffffffffffffffff1682604051611bc790612e0b565b60006040518083038185875af1925050503d8060008114611c04576040519150601f19603f3d011682016040523d82523d6000602084013e611c09565b606091505b50509050806040518060400160405280600381526020017f313132000000000000000000000000000000000000000000000000000000000081525090611c85576040517f08c379a0000000000000000000000000000000000000000000000000000000008152600401611c7c9190612f33565b60405180910390fd5b5081609b8481548110611cc1577f4e487b7100000000000000000000000000000000000000000000000000000000600052603260045260246000fd5b9060005260206000200160009054906101000a900473ffffffffffffffffffffffffffffffffffffffff1673ffffffffffffffffffffffffffffffffffffffff16427f42affc57c2b30e1ac5957640cfb86fcd839a295d2ec7eed57db385dd03aecd2c60405160405180910390a450508080611d3c906133ce565b915050611aa7565b5042609d81905550611d5461223c565b50505050611dcf565b6040518060400160405280600381526020017f31323100000000000000000000000000000000000000000000000000000000008152506040517f08c379a0000000000000000000000000000000000000000000000000000000008152600401611dc69190612f33565b60405180910390fd5b565b611dda82610b6c565b611de381611fe9565b611ded83836120e6565b505050565b60025481565b600080600090505b609b80549050811015611ec2578273ffffffffffffffffffffffffffffffffffffffff16609b8281548110611e5e577f4e487b7100000000000000000000000000000000000000000000000000000000600052603260045260246000fd5b9060005260206000200160009054906101000a900473ffffffffffffffffffffffffffffffffffffffff1673ffffffffffffffffffffffffffffffffffffffff161415611eaf576000915050611ec8565b8080611eba906133ce565b915050611e00565b50600190505b919050565b7ffbd454f36a7e1a388bd6fc3ab10d434aa4578f811acbbcf33afb1c697486313c81565b6000609d54905090565b60015481565b6060609c805480602002602001604051908101604052809291908181526020018280548015611f7557602002820191906000526020600020906000905b82829054906101000a900460ff1660ff1681526020019060010190602082600001049283019260010382029150808411611f3e5790505b5050505050905090565b60007f01ffc9a7000000000000000000000000000000000000000000000000000000007bffffffffffffffffffffffffffffffffffffffffffffffffffffffff1916827bffffffffffffffffffffffffffffffffffffffffffffffffffffffff1916149050919050565b611ffa81611ff56120de565b6122e5565b50565b612007828261176f565b6120da5760016068600084815260200190815260200160002060000160008373ffffffffffffffffffffffffffffffffffffffff1673ffffffffffffffffffffffffffffffffffffffff16815260200190815260200160002060006101000a81548160ff02191690831515021790555061207f6120de565b73ffffffffffffffffffffffffffffffffffffffff168173ffffffffffffffffffffffffffffffffffffffff16837f2f8788117e7eff1d82e926ec794901d17c78024a50270940304540a733656f0d60405160405180910390a45b5050565b600033905090565b6120f0828261176f565b156121c45760006068600084815260200190815260200160002060000160008373ffffffffffffffffffffffffffffffffffffffff1673ffffffffffffffffffffffffffffffffffffffff16815260200190815260200160002060006101000a81548160ff0219169083151502179055506121696120de565b73ffffffffffffffffffffffffffffffffffffffff168173ffffffffffffffffffffffffffffffffffffffff16837ff6391f5c32d9c69d2a47ea670b442974b53935d1edc7fd64eb21e047a839171b60405160405180910390a45b5050565b6000808273ffffffffffffffffffffffffffffffffffffffff163b119050919050565b600360019054906101000a900460ff1661223a576040517f08c379a000000000000000000000000000000000000000000000000000000000815260040161223190612fb5565b60405180910390fd5b565b6000609a60019054906101000a900473ffffffffffffffffffffffffffffffffffffffff1673ffffffffffffffffffffffffffffffffffffffff1663e58456e96040518163ffffffff1660e01b8152600401602060405180830381600087803b1580156122a857600080fd5b505af11580156122bc573d6000803e3d6000fd5b505050506040513d601f19601f820116820180604052508101906122e0919061295c565b905090565b6122ef828261176f565b612366576122fc8161236a565b61230a8360001c6020612397565b60405160200161231b929190612e20565b6040516020818303038152906040526040517f08c379a000000000000000000000000000000000000000000000000000000000815260040161235d9190612f33565b60405180910390fd5b5050565b60606123908273ffffffffffffffffffffffffffffffffffffffff16601460ff16612397565b9050919050565b6060600060028360026123aa9190613215565b6123b49190613157565b67ffffffffffffffff8111156123f3577f4e487b7100000000000000000000000000000000000000000000000000000000600052604160045260246000fd5b6040519080825280601f01601f1916602001820160405280156124255781602001600182028036833780820191505090505b5090507f300000000000000000000000000000000000000000000000000000000000000081600081518110612483577f4e487b7100000000000000000000000000000000000000000000000000000000600052603260045260246000fd5b60200101907effffffffffffffffffffffffffffffffffffffffffffffffffffffffffffff1916908160001a9053507f78000000000000000000000000000000000000000000000000000000000000008160018151811061250d577f4e487b7100000000000000000000000000000000000000000000000000000000600052603260045260246000fd5b60200101907effffffffffffffffffffffffffffffffffffffffffffffffffffffffffffff1916908160001a9053506000600184600261254d9190613215565b6125579190613157565b90505b6001811115612643577f3031323334353637383961626364656600000000000000000000000000000000600f8616601081106125bf577f4e487b7100000000000000000000000000000000000000000000000000000000600052603260045260246000fd5b1a60f81b8282815181106125fc577f4e487b7100000000000000000000000000000000000000000000000000000000600052603260045260246000fd5b60200101907effffffffffffffffffffffffffffffffffffffffffffffffffffffffffffff1916908160001a905350600485901c94508061263c90613373565b905061255a565b5060008414612687576040517f08c379a000000000000000000000000000000000000000000000000000000000815260040161267e90612f55565b60405180910390fd5b8091505092915050565b60006126a461269f84613050565b61302b565b905080838252602082019050828560208602820111156126c357600080fd5b60005b858110156126f357816126d98882612769565b8452602084019350602083019250506001810190506126c6565b5050509392505050565b600061271061270b8461307c565b61302b565b9050808382526020820190508285602086028201111561272f57600080fd5b60005b8581101561275f5781612745888261283b565b845260208401935060208301925050600181019050612732565b5050509392505050565b60008135905061277881613649565b92915050565b600082601f83011261278f57600080fd5b813561279f848260208601612691565b91505092915050565b600082601f8301126127b957600080fd5b81356127c98482602086016126fd565b91505092915050565b6000815190506127e181613660565b92915050565b6000813590506127f681613677565b92915050565b60008135905061280b8161368e565b92915050565b600081359050612820816136a5565b92915050565b600081519050612835816136a5565b92915050565b60008135905061284a816136bc565b92915050565b60006020828403121561286257600080fd5b600061287084828501612769565b91505092915050565b600080600080600060a0868803121561289157600080fd5b600061289f88828901612769565b955050602086013567ffffffffffffffff8111156128bc57600080fd5b6128c88882890161277e565b945050604086013567ffffffffffffffff8111156128e557600080fd5b6128f1888289016127a8565b935050606061290288828901612769565b925050608061291388828901612769565b9150509295509295909350565b6000806040838503121561293357600080fd5b600061294185828601612769565b92505060206129528582860161283b565b9150509250929050565b60006020828403121561296e57600080fd5b600061297c848285016127d2565b91505092915050565b60006020828403121561299757600080fd5b60006129a5848285016127e7565b91505092915050565b600080604083850312156129c157600080fd5b60006129cf858286016127e7565b92505060206129e085828601612769565b9150509250929050565b6000602082840312156129fc57600080fd5b6000612a0a848285016127fc565b91505092915050565b600060208284031215612a2557600080fd5b6000612a3384828501612811565b91505092915050565b600060208284031215612a4e57600080fd5b6000612a5c84828501612826565b91505092915050565b600060208284031215612a7757600080fd5b6000612a858482850161283b565b91505092915050565b600080600060608486031215612aa357600080fd5b6000612ab18682870161283b565b9350506020612ac286828701612769565b9250506040612ad38682870161283b565b9150509250925092565b6000612ae98383612b0d565b60208301905092915050565b6000612b018383612dd6565b60208301905092915050565b612b16816132a3565b82525050565b612b25816132a3565b82525050565b6000612b36826130c8565b612b40818561310e565b9350612b4b836130a8565b8060005b83811015612b7c578151612b638882612add565b9750612b6e836130f4565b925050600181019050612b4f565b5085935050505092915050565b6000612b94826130d3565b612b9e818561311f565b9350612ba9836130b8565b8060005b83811015612bda578151612bc18882612af5565b9750612bcc83613101565b925050600181019050612bad565b5085935050505092915050565b612bf0816132b5565b82525050565b612bff816132c1565b82525050565b6000612c10826130de565b612c1a8185613130565b9350612c2a818560208601613340565b80840191505092915050565b612c3f8161332e565b82525050565b6000612c50826130e9565b612c5a818561313b565b9350612c6a818560208601613340565b612c73816134a4565b840191505092915050565b6000612c89826130e9565b612c93818561314c565b9350612ca3818560208601613340565b80840191505092915050565b6000612cbc60208361313b565b9150612cc7826134b5565b602082019050919050565b6000612cdf600b8361313b565b9150612cea826134de565b602082019050919050565b6000612d02602e8361313b565b9150612d0d82613507565b604082019050919050565b6000612d25600083613130565b9150612d3082613556565b600082019050919050565b6000612d48602b8361313b565b9150612d5382613559565b604082019050919050565b6000612d6b60178361314c565b9150612d76826135a8565b601782019050919050565b6000612d8e60118361314c565b9150612d99826135d1565b601182019050919050565b6000612db1602f8361313b565b9150612dbc826135fa565b604082019050919050565b612dd081613317565b82525050565b612ddf81613321565b82525050565b612dee81613321565b82525050565b6000612e008284612c05565b915081905092915050565b6000612e1682612d18565b9150819050919050565b6000612e2b82612d5e565b9150612e378285612c7e565b9150612e4282612d81565b9150612e4e8284612c7e565b91508190509392505050565b6000602082019050612e6f6000830184612b1c565b92915050565b6000604082019050612e8a6000830185612b1c565b612e976020830184612dc7565b9392505050565b60006020820190508181036000830152612eb88184612b2b565b905092915050565b60006020820190508181036000830152612eda8184612b89565b905092915050565b6000602082019050612ef76000830184612be7565b92915050565b6000602082019050612f126000830184612bf6565b92915050565b6000602082019050612f2d6000830184612c36565b92915050565b60006020820190508181036000830152612f4d8184612c45565b905092915050565b60006020820190508181036000830152612f6e81612caf565b9050919050565b60006020820190508181036000830152612f8e81612cd2565b9050919050565b60006020820190508181036000830152612fae81612cf5565b9050919050565b60006020820190508181036000830152612fce81612d3b565b9050919050565b60006020820190508181036000830152612fee81612da4565b9050919050565b600060208201905061300a6000830184612dc7565b92915050565b60006020820190506130256000830184612de5565b92915050565b6000613035613046565b9050613041828261339d565b919050565b6000604051905090565b600067ffffffffffffffff82111561306b5761306a613475565b5b602082029050602081019050919050565b600067ffffffffffffffff82111561309757613096613475565b5b602082029050602081019050919050565b6000819050602082019050919050565b6000819050602082019050919050565b600081519050919050565b600081519050919050565b600081519050919050565b600081519050919050565b6000602082019050919050565b6000602082019050919050565b600082825260208201905092915050565b600082825260208201905092915050565b600081905092915050565b600082825260208201905092915050565b600081905092915050565b600061316282613317565b915061316d83613317565b9250827fffffffffffffffffffffffffffffffffffffffffffffffffffffffffffffffff038211156131a2576131a1613417565b5b828201905092915050565b60006131b882613321565b91506131c383613321565b92508260ff038211156131d9576131d8613417565b5b828201905092915050565b60006131ef82613317565b91506131fa83613317565b92508261320a57613209613446565b5b828204905092915050565b600061322082613317565b915061322b83613317565b9250817fffffffffffffffffffffffffffffffffffffffffffffffffffffffffffffffff048311821515161561326457613263613417565b5b828202905092915050565b600061327a82613321565b915061328583613321565b92508282101561329857613297613417565b5b828203905092915050565b60006132ae826132f7565b9050919050565b60008115159050919050565b6000819050919050565b60007fffffffff0000000000000000000000000000000000000000000000000000000082169050919050565b600073ffffffffffffffffffffffffffffffffffffffff82169050919050565b6000819050919050565b600060ff82169050919050565b600061333982613321565b9050919050565b60005b8381101561335e578082015181840152602081019050613343565b8381111561336d576000848401525b50505050565b600061337e82613317565b9150600082141561339257613391613417565b5b600182039050919050565b6133a6826134a4565b810181811067ffffffffffffffff821117156133c5576133c4613475565b5b80604052505050565b60006133d982613317565b91507fffffffffffffffffffffffffffffffffffffffffffffffffffffffffffffffff82141561340c5761340b613417565b5b600182019050919050565b7f4e487b7100000000000000000000000000000000000000000000000000000000600052601160045260246000fd5b7f4e487b7100000000000000000000000000000000000000000000000000000000600052601260045260246000fd5b7f4e487b7100000000000000000000000000000000000000000000000000000000600052604160045260246000fd5b6000601f19601f8301169050919050565b7f537472696e67733a20686578206c656e67746820696e73756666696369656e74600082015250565b7f5f72657365744665652829000000000000000000000000000000000000000000600082015250565b7f496e697469616c697a61626c653a20636f6e747261637420697320616c72656160008201527f647920696e697469616c697a6564000000000000000000000000000000000000602082015250565b50565b7f496e697469616c697a61626c653a20636f6e7472616374206973206e6f74206960008201527f6e697469616c697a696e67000000000000000000000000000000000000000000602082015250565b7f416363657373436f6e74726f6c3a206163636f756e7420000000000000000000600082015250565b7f206973206d697373696e6720726f6c6520000000000000000000000000000000600082015250565b7f416363657373436f6e74726f6c3a2063616e206f6e6c792072656e6f756e636560008201527f20726f6c657320666f722073656c660000000000000000000000000000000000602082015250565b613652816132a3565b811461365d57600080fd5b50565b613669816132b5565b811461367457600080fd5b50565b613680816132c1565b811461368b57600080fd5b50565b613697816132cb565b81146136a257600080fd5b50565b6136ae81613317565b81146136b957600080fd5b50565b6136c581613321565b81146136d057600080fd5b5056fea2646970667358221220c27a7ae7ee9f9958fd8eaa9d03c952627579e22b1331a0ea6f0f8467c7160e0764736f6c63430008020033",
  "linkReferences": {},
  "deployedLinkReferences": {}
}