{
  "_format": "hh-sol-artifact-1",
  "contractName": "FeeContract",
  "sourceName": "contracts/FeeContract.sol",
  "abi": [
    {
      "anonymous": false,
      "inputs": [
        {
          "indexed": false,
          "internalType": "address",
          "name": "previousAdmin",
          "type": "address"
        },
        {
          "indexed": false,
          "internalType": "address",
          "name": "newAdmin",
          "type": "address"
        }
      ],
      "name": "AdminChanged",
      "type": "event"
    },
    {
      "anonymous": false,
      "inputs": [
        {
          "indexed": true,
          "internalType": "address",
          "name": "beacon",
          "type": "address"
        }
      ],
      "name": "BeaconUpgraded",
      "type": "event"
    },
    {
      "anonymous": false,
      "inputs": [
        {
          "indexed": true,
          "internalType": "uint256",
          "name": "timestamp",
          "type": "uint256"
        },
        {
          "indexed": true,
          "internalType": "address",
          "name": "to",
          "type": "address"
        },
        {
          "indexed": true,
          "internalType": "uint256",
          "name": "amount",
          "type": "uint256"
        }
      ],
      "name": "FeesDistributed",
      "type": "event"
    },
    {
      "anonymous": false,
      "inputs": [
        {
          "indexed": false,
          "internalType": "uint8",
          "name": "version",
          "type": "uint8"
        }
      ],
      "name": "Initialized",
      "type": "event"
    },
    {
      "anonymous": false,
      "inputs": [
        {
          "indexed": true,
          "internalType": "bytes32",
          "name": "role",
          "type": "bytes32"
        },
        {
          "indexed": true,
          "internalType": "bytes32",
          "name": "previousAdminRole",
          "type": "bytes32"
        },
        {
          "indexed": true,
          "internalType": "bytes32",
          "name": "newAdminRole",
          "type": "bytes32"
        }
      ],
      "name": "RoleAdminChanged",
      "type": "event"
    },
    {
      "anonymous": false,
      "inputs": [
        {
          "indexed": true,
          "internalType": "bytes32",
          "name": "role",
          "type": "bytes32"
        },
        {
          "indexed": true,
          "internalType": "address",
          "name": "account",
          "type": "address"
        },
        {
          "indexed": true,
          "internalType": "address",
          "name": "sender",
          "type": "address"
        }
      ],
      "name": "RoleGranted",
      "type": "event"
    },
    {
      "anonymous": false,
      "inputs": [
        {
          "indexed": true,
          "internalType": "bytes32",
          "name": "role",
          "type": "bytes32"
        },
        {
          "indexed": true,
          "internalType": "address",
          "name": "account",
          "type": "address"
        },
        {
          "indexed": true,
          "internalType": "address",
          "name": "sender",
          "type": "address"
        }
      ],
      "name": "RoleRevoked",
      "type": "event"
    },
    {
      "anonymous": false,
      "inputs": [
        {
          "indexed": true,
          "internalType": "address",
          "name": "implementation",
          "type": "address"
        }
      ],
      "name": "Upgraded",
      "type": "event"
    },
    {
      "inputs": [],
      "name": "DEFAULT_ADMIN_ROLE",
      "outputs": [
        {
          "internalType": "bytes32",
          "name": "",
          "type": "bytes32"
        }
      ],
      "stateMutability": "view",
      "type": "function"
    },
    {
      "inputs": [],
      "name": "DISTRIBUTOR_ROLE",
      "outputs": [
        {
          "internalType": "bytes32",
          "name": "",
          "type": "bytes32"
        }
      ],
      "stateMutability": "view",
      "type": "function"
    },
    {
      "inputs": [],
      "name": "UPGRADER_ROLE",
      "outputs": [
        {
          "internalType": "bytes32",
          "name": "",
          "type": "bytes32"
        }
      ],
      "stateMutability": "view",
      "type": "function"
    },
    {
      "inputs": [
        {
          "internalType": "address",
          "name": "_newChannelAddress",
          "type": "address"
        },
        {
          "internalType": "uint8",
          "name": "_weight",
          "type": "uint8"
        }
      ],
      "name": "addChannel",
      "outputs": [],
      "stateMutability": "nonpayable",
      "type": "function"
    },
    {
      "inputs": [
        {
          "internalType": "uint8",
          "name": "_index",
          "type": "uint8"
        },
        {
          "internalType": "address",
          "name": "_newChannelAddress",
          "type": "address"
        },
        {
          "internalType": "uint8",
          "name": "_newWeight",
          "type": "uint8"
        }
      ],
      "name": "adjustChannel",
      "outputs": [],
      "stateMutability": "nonpayable",
      "type": "function"
    },
    {
      "inputs": [
        {
          "internalType": "uint8",
          "name": "index",
          "type": "uint8"
        }
      ],
      "name": "amountPaidToUponNextDistribution",
      "outputs": [
        {
          "internalType": "uint256",
          "name": "",
          "type": "uint256"
        }
      ],
      "stateMutability": "view",
      "type": "function"
    },
    {
      "inputs": [],
      "name": "collectFee",
      "outputs": [],
      "stateMutability": "payable",
      "type": "function"
    },
    {
      "inputs": [],
      "name": "epochLength",
      "outputs": [
        {
          "internalType": "uint256",
          "name": "",
          "type": "uint256"
        }
      ],
      "stateMutability": "view",
      "type": "function"
    },
    {
      "inputs": [],
      "name": "fee",
      "outputs": [
        {
          "internalType": "uint256",
          "name": "",
          "type": "uint256"
        }
      ],
      "stateMutability": "view",
      "type": "function"
    },
    {
      "inputs": [],
      "name": "forceFee",
      "outputs": [],
      "stateMutability": "payable",
      "type": "function"
    },
    {
      "inputs": [
        {
          "internalType": "uint8",
          "name": "index",
          "type": "uint8"
        }
      ],
      "name": "getChannelWeightByIndex",
      "outputs": [
        {
          "internalType": "address",
          "name": "",
          "type": "address"
        },
        {
          "internalType": "uint256",
          "name": "",
          "type": "uint256"
        }
      ],
      "stateMutability": "view",
      "type": "function"
    },
    {
      "inputs": [],
      "name": "getChannels",
      "outputs": [
        {
          "internalType": "address[]",
          "name": "",
          "type": "address[]"
        }
      ],
      "stateMutability": "view",
      "type": "function"
    },
    {
      "inputs": [],
      "name": "getFee",
      "outputs": [
        {
          "internalType": "uint256",
          "name": "",
          "type": "uint256"
        }
      ],
      "stateMutability": "view",
      "type": "function"
    },
    {
      "inputs": [],
      "name": "getLastDistributionBlock",
      "outputs": [
        {
          "internalType": "uint256",
          "name": "",
          "type": "uint256"
        }
      ],
      "stateMutability": "view",
      "type": "function"
    },
    {
      "inputs": [],
      "name": "getNextResetTime",
      "outputs": [
        {
          "internalType": "uint256",
          "name": "",
          "type": "uint256"
        }
      ],
      "stateMutability": "view",
      "type": "function"
    },
    {
      "inputs": [],
      "name": "getOracleAddress",
      "outputs": [
        {
          "internalType": "address",
          "name": "",
          "type": "address"
        }
      ],
      "stateMutability": "view",
      "type": "function"
    },
    {
      "inputs": [
        {
          "internalType": "bytes32",
          "name": "role",
          "type": "bytes32"
        }
      ],
      "name": "getRoleAdmin",
      "outputs": [
        {
          "internalType": "bytes32",
          "name": "",
          "type": "bytes32"
        }
      ],
      "stateMutability": "view",
      "type": "function"
    },
    {
      "inputs": [],
      "name": "getTotalContractShares",
      "outputs": [
        {
          "internalType": "uint8",
          "name": "",
          "type": "uint8"
        }
      ],
      "stateMutability": "view",
      "type": "function"
    },
    {
      "inputs": [],
      "name": "getWieghts",
      "outputs": [
        {
          "internalType": "uint8[]",
          "name": "",
          "type": "uint8[]"
        }
      ],
      "stateMutability": "view",
      "type": "function"
    },
    {
      "inputs": [
        {
          "internalType": "bytes32",
          "name": "role",
          "type": "bytes32"
        },
        {
          "internalType": "address",
          "name": "account",
          "type": "address"
        }
      ],
      "name": "grantRole",
      "outputs": [],
      "stateMutability": "nonpayable",
      "type": "function"
    },
    {
      "inputs": [
        {
          "internalType": "bytes32",
          "name": "role",
          "type": "bytes32"
        },
        {
          "internalType": "address",
          "name": "account",
          "type": "address"
        }
      ],
      "name": "hasRole",
      "outputs": [
        {
          "internalType": "bool",
          "name": "",
          "type": "bool"
        }
      ],
      "stateMutability": "view",
      "type": "function"
    },
    {
      "inputs": [
        {
          "internalType": "address",
          "name": "_oracle",
          "type": "address"
        },
        {
          "internalType": "address[]",
          "name": "_channels",
          "type": "address[]"
        },
        {
          "internalType": "uint8[]",
          "name": "_weights",
          "type": "uint8[]"
        },
        {
          "internalType": "address",
          "name": "admin",
          "type": "address"
        },
        {
          "internalType": "address",
          "name": "distributor",
          "type": "address"
        },
        {
          "internalType": "address",
          "name": "upgrader",
          "type": "address"
        }
      ],
      "name": "initialize",
      "outputs": [],
      "stateMutability": "nonpayable",
      "type": "function"
    },
    {
      "inputs": [
        {
          "internalType": "address",
          "name": "channel",
          "type": "address"
        }
      ],
      "name": "isOriginalAddress",
      "outputs": [
        {
          "internalType": "bool",
          "name": "",
          "type": "bool"
        }
      ],
      "stateMutability": "view",
      "type": "function"
    },
    {
      "inputs": [],
      "name": "proxiableUUID",
      "outputs": [
        {
          "internalType": "bytes32",
          "name": "",
          "type": "bytes32"
        }
      ],
      "stateMutability": "view",
      "type": "function"
    },
    {
      "inputs": [],
      "name": "queryOracle",
      "outputs": [
        {
          "internalType": "uint256",
          "name": "feeAmount",
          "type": "uint256"
        }
      ],
      "stateMutability": "view",
      "type": "function"
    },
    {
      "inputs": [
        {
          "internalType": "bytes32",
          "name": "role",
          "type": "bytes32"
        },
        {
          "internalType": "address",
          "name": "account",
          "type": "address"
        }
      ],
      "name": "renounceRole",
      "outputs": [],
      "stateMutability": "nonpayable",
      "type": "function"
    },
    {
      "inputs": [],
      "name": "requiredReset",
      "outputs": [
        {
          "internalType": "uint256",
          "name": "",
          "type": "uint256"
        }
      ],
      "stateMutability": "view",
      "type": "function"
    },
    {
      "inputs": [],
      "name": "resetFee",
      "outputs": [],
      "stateMutability": "nonpayable",
      "type": "function"
    },
    {
      "inputs": [
        {
          "internalType": "bytes32",
          "name": "role",
          "type": "bytes32"
        },
        {
          "internalType": "address",
          "name": "account",
          "type": "address"
        }
      ],
      "name": "revokeRole",
      "outputs": [],
      "stateMutability": "nonpayable",
      "type": "function"
    },
    {
      "inputs": [
        {
          "internalType": "uint256",
          "name": "new_epochLength",
          "type": "uint256"
        }
      ],
      "name": "setEpoch",
      "outputs": [],
      "stateMutability": "nonpayable",
      "type": "function"
    },
    {
      "inputs": [
        {
          "internalType": "address",
          "name": "_newOracle",
          "type": "address"
        }
      ],
      "name": "setOracle",
      "outputs": [],
      "stateMutability": "nonpayable",
      "type": "function"
    },
    {
      "inputs": [
        {
          "internalType": "bytes4",
          "name": "interfaceId",
          "type": "bytes4"
        }
      ],
      "name": "supportsInterface",
      "outputs": [
        {
          "internalType": "bool",
          "name": "",
          "type": "bool"
        }
      ],
      "stateMutability": "view",
      "type": "function"
    },
    {
      "inputs": [
        {
          "internalType": "address",
          "name": "newImplementation",
          "type": "address"
        }
      ],
      "name": "upgradeTo",
      "outputs": [],
      "stateMutability": "nonpayable",
      "type": "function"
    },
    {
      "inputs": [
        {
          "internalType": "address",
          "name": "newImplementation",
          "type": "address"
        },
        {
          "internalType": "bytes",
          "name": "data",
          "type": "bytes"
        }
      ],
      "name": "upgradeToAndCall",
      "outputs": [],
      "stateMutability": "payable",
      "type": "function"
    },
    {
      "stateMutability": "payable",
      "type": "receive"
    }
  ],
  "bytecode": "0x60a06040523073ffffffffffffffffffffffffffffffffffffffff1660809073ffffffffffffffffffffffffffffffffffffffff1660601b81525034801561004657600080fd5b5060805160601c61572662000082600039600081816110a5015281816111340152818161197c01528181611a0b0152611abb01526157266000f3fe6080604052600436106101fd5760003560e01c806391d148541161010d578063d4d5d32a116100a0578063f0bd87cc1161006f578063f0bd87cc146106de578063f5f5d0ba14610709578063f5fa96e514610734578063f72c0d8b1461075f578063fd141f5c1461078a57610204565b8063d4d5d32a14610643578063d547741f1461064d578063ddca3f4314610676578063deea2b9b146106a157610204565b8063a4214c18116100dc578063a4214c1814610585578063b18b78dd146105b0578063c0b87a48146105db578063ced72f871461061857610204565b806391d14854146104c75780639575f6ac14610504578063a11c898e1461052f578063a217fddf1461055a57610204565b80633659cfe6116101905780635301828f1161015f5780635301828f1461042957806357d775f8146104525780635b71d6991461047d578063727682ad146104875780637adbf9731461049e57610204565b80633659cfe6146103905780633844abef146103b95780634f1ef286146103e257806352d1902d146103fe57610204565b8063248a9ca3116101cc578063248a9ca3146102d657806326afe980146103135780632f2ff15d1461033e57806336568abe1461036757610204565b806301ffc9a7146102095780630ceb2cef146102465780630e2c93121461026f5780632354f69b146102ad57610204565b3661020457005b600080fd5b34801561021557600080fd5b50610230600480360381019061022b91906145c8565b6107b5565b60405161023d9190614bb5565b60405180910390f35b34801561025257600080fd5b5061026d600480360381019061026891906145f1565b61082f565b005b34801561027b57600080fd5b5061029660048036038101906102919190614643565b6108b4565b6040516102a4929190614b48565b60405180910390f35b3480156102b957600080fd5b506102d460048036038101906102cf919061466c565b610a24565b005b3480156102e257600080fd5b506102fd60048036038101906102f8919061453a565b610efc565b60405161030a9190614bd0565b60405180910390f35b34801561031f57600080fd5b50610328610f1c565b6040516103359190614da8565b60405180910390f35b34801561034a57600080fd5b506103656004803603810190610360919061458c565b610fff565b005b34801561037357600080fd5b5061038e6004803603810190610389919061458c565b611020565b005b34801561039c57600080fd5b506103b760048036038101906103b2919061439f565b6110a3565b005b3480156103c557600080fd5b506103e060048036038101906103db91906143c8565b611252565b005b6103fc60048036038101906103f79190614481565b61197a565b005b34801561040a57600080fd5b50610413611ab7565b6040516104209190614bd0565b60405180910390f35b34801561043557600080fd5b50610450600480360381019061044b91906144d5565b611b70565b005b34801561045e57600080fd5b50610467611f84565b6040516104749190614da8565b60405180910390f35b610485611f8a565b005b34801561049357600080fd5b5061049c612400565b005b3480156104aa57600080fd5b506104c560048036038101906104c0919061439f565b61259e565b005b3480156104d357600080fd5b506104ee60048036038101906104e9919061458c565b61265d565b6040516104fb9190614bb5565b60405180910390f35b34801561051057600080fd5b506105196126c8565b6040516105269190614b71565b60405180910390f35b34801561053b57600080fd5b50610544612792565b6040516105519190614da8565b60405180910390f35b34801561056657600080fd5b5061056f6127d8565b60405161057c9190614bd0565b60405180910390f35b34801561059157600080fd5b5061059a6127df565b6040516105a79190614dc3565b60405180910390f35b3480156105bc57600080fd5b506105c5612832565b6040516105d29190614b2d565b60405180910390f35b3480156105e757600080fd5b5061060260048036038101906105fd9190614643565b612898565b60405161060f9190614da8565b60405180910390f35b34801561062457600080fd5b5061062d612966565b60405161063a9190614da8565b60405180910390f35b61064b612a69565b005b34801561065957600080fd5b50610674600480360381019061066f919061458c565b61318f565b005b34801561068257600080fd5b5061068b6131b0565b6040516106989190614da8565b60405180910390f35b3480156106ad57600080fd5b506106c860048036038101906106c3919061439f565b6131b6565b6040516106d59190614bb5565b60405180910390f35b3480156106ea57600080fd5b506106f3613364565b6040516107009190614bd0565b60405180910390f35b34801561071557600080fd5b5061071e613388565b60405161072b9190614da8565b60405180910390f35b34801561074057600080fd5b506107496133cf565b6040516107569190614da8565b60405180910390f35b34801561076b57600080fd5b506107746133d5565b6040516107819190614bd0565b60405180910390f35b34801561079657600080fd5b5061079f6133f9565b6040516107ac9190614b93565b60405180910390f35b60007f7965db0b000000000000000000000000000000000000000000000000000000007bffffffffffffffffffffffffffffffffffffffffffffffffffffffff1916827bffffffffffffffffffffffffffffffffffffffffffffffffffffffff191614806108285750610827826134b4565b5b9050919050565b610843675adf271136a938ba60c01b61351e565b7ffbd454f36a7e1a388bd6fc3ab10d434aa4578f811acbbcf33afb1c697486313c61086d81613521565b610881676e9d1eaa1cf71d5660c01b61351e565b61089567648292e7490b300960c01b61351e565b6108a967349e5eac71c8603860c01b61351e565b816000819055505050565b6000806108cb675fbaa229314a217260c01b61351e565b6108df67afae8edb467c0b1060c01b61351e565b6108f367fb0db901ad71bf2a60c01b61351e565b600060ff8460ff1681548110610932577f4e487b7100000000000000000000000000000000000000000000000000000000600052603260045260246000fd5b9060005260206000200160009054906101000a900473ffffffffffffffffffffffffffffffffffffffff16905061097367b0c794303379ef4960c01b61351e565b61098767fea21eb558a635ea60c01b61351e565b60006101008560ff16815481106109c7577f4e487b7100000000000000000000000000000000000000000000000000000000600052603260045260246000fd5b90600052602060002090602091828204019190069054906101000a900460ff1690506109fd672142d2855eebe43560c01b61351e565b610a11673095be372e1e01d760c01b61351e565b81818060ff169050935093505050915091565b610a3867611329c8b110662760c01b61351e565b7ffbd454f36a7e1a388bd6fc3ab10d434aa4578f811acbbcf33afb1c697486313c610a6281613521565b610a7667dc4b1cc2562dfb0360c01b61351e565b610a8a67d9a59a4d82388eae60c01b61351e565b610a9e6798fe184d5d2d5ada60c01b61351e565b610ab267a0631de2a4feccf660c01b61351e565b600073ffffffffffffffffffffffffffffffffffffffff168373ffffffffffffffffffffffffffffffffffffffff16148015610afe5750610afd67a4d44dc06988754760c01b613535565b5b80610b31575060001515610b11846131b6565b1515148015610b305750610b2f67a39d43539520e46060c01b613535565b5b5b15610be457610b4a676ce1af9f8e84719c60c01b61351e565b610b5e673d1f923bcd82166160c01b61351e565b610b7267c461135fbfbe21f660c01b61351e565b6040518060400160405280600381526020017f31323300000000000000000000000000000000000000000000000000000000008152506040517f08c379a0000000000000000000000000000000000000000000000000000000008152600401610bdb9190614c06565b60405180910390fd5b610bf86724c4709d40afe84560c01b61351e565b610c0c67f7f93f656f2a5de260c01b61351e565b610c206747eeffb9cb35d7ef60c01b61351e565b60048460ff161115610cda57610c406704c75c1a9bc8b27d60c01b61351e565b610c5467d73df1495097cdf460c01b61351e565b610c6867b56dbf501fe800db60c01b61351e565b6040518060400160405280600381526020017f31313100000000000000000000000000000000000000000000000000000000008152506040517f08c379a0000000000000000000000000000000000000000000000000000000008152600401610cd19190614c06565b60405180910390fd5b610cee670db2f5af374a023160c01b61351e565b610d026773e5f90b00a7e6a060c01b61351e565b8260ff8560ff1681548110610d40577f4e487b7100000000000000000000000000000000000000000000000000000000600052603260045260246000fd5b9060005260206000200160006101000a81548173ffffffffffffffffffffffffffffffffffffffff021916908373ffffffffffffffffffffffffffffffffffffffff160217905550610d9c67e86fae1dce62358960c01b61351e565b6101008460ff1681548110610dda577f4e487b7100000000000000000000000000000000000000000000000000000000600052603260045260246000fd5b90600052602060002090602091828204019190069054906101000a900460ff1660fe60008282829054906101000a900460ff16610e179190615053565b92506101000a81548160ff021916908360ff160217905550610e4367262be62e4ed429fe60c01b61351e565b816101008560ff1681548110610e82577f4e487b7100000000000000000000000000000000000000000000000000000000600052603260045260246000fd5b90600052602060002090602091828204019190066101000a81548160ff021916908360ff160217905550610ec0671a26a81622fa40e160c01b61351e565b8160fe60008282829054906101000a900460ff16610ede9190614f91565b92506101000a81548160ff021916908360ff16021790555050505050565b600060686000838152602001908152602001600020600101549050919050565b6000610f3267a68cff63215c590060c01b61351e565b610f46678e1e10b32f5f938860c01b61351e565b610f5a67957ae56e375d1fb160c01b61351e565b60fe60019054906101000a900473ffffffffffffffffffffffffffffffffffffffff1673ffffffffffffffffffffffffffffffffffffffff16637eeda7036040518163ffffffff1660e01b815260040160206040518083038186803b158015610fc257600080fd5b505afa158015610fd6573d6000803e3d6000fd5b505050506040513d601f19601f82011682018060405250810190610ffa919061461a565b905090565b61100882610efc565b61101181613521565b61101b8383613540565b505050565b611028613621565b73ffffffffffffffffffffffffffffffffffffffff168173ffffffffffffffffffffffffffffffffffffffff1614611095576040517f08c379a000000000000000000000000000000000000000000000000000000000815260040161108c90614d88565b60405180910390fd5b61109f8282613629565b5050565b7f000000000000000000000000000000000000000000000000000000000000000073ffffffffffffffffffffffffffffffffffffffff163073ffffffffffffffffffffffffffffffffffffffff161415611132576040517f08c379a000000000000000000000000000000000000000000000000000000000815260040161112990614c48565b60405180910390fd5b7f000000000000000000000000000000000000000000000000000000000000000073ffffffffffffffffffffffffffffffffffffffff1661117161370b565b73ffffffffffffffffffffffffffffffffffffffff16146111c7576040517f08c379a00000000000000000000000000000000000000000000000000000000081526004016111be90614c68565b60405180910390fd5b6111d081613762565b61124f81600067ffffffffffffffff811115611215577f4e487b7100000000000000000000000000000000000000000000000000000000600052604160045260246000fd5b6040519080825280601f01601f1916602001820160405280156112475781602001600182028036833780820191505090505b5060006137cc565b50565b6112666728c5825c9bd4d85260c01b61351e565b6000600360019054906101000a900460ff1615905080801561129a57506001600360009054906101000a900460ff1660ff16105b806112c957506112a930613949565b1580156112c857506001600360009054906101000a900460ff1660ff16145b5b611308576040517f08c379a00000000000000000000000000000000000000000000000000000000081526004016112ff90614ce8565b60405180910390fd5b6001600360006101000a81548160ff021916908360ff1602179055508015611346576001600360016101000a81548160ff0219169083151502179055505b61135a676089fd7904fc831260c01b61351e565b61136e671660554e7a9ca0ab60c01b61351e565b611382672eebc4c370feeabc60c01b61351e565b61139667f63d9eaf6bf3396160c01b61351e565b61139e61396c565b6113b2678dcea68ec1f46be160c01b61351e565b6113c667ccf19faf11560e8460c01b61351e565b6113ce6139bd565b6113e2675782ef81f5d36a2960c01b61351e565b6113f66781aeaf67a95a181660c01b61351e565b6114036000801b33613629565b61141767cf92cbda7550801460c01b61351e565b61142b6712b19de37f53d26d60c01b61351e565b6114386000801b85613540565b61144c67a065b4e539ced64860c01b61351e565b61146067c4cbcaea1c90ac3160c01b61351e565b61148a7ffbd454f36a7e1a388bd6fc3ab10d434aa4578f811acbbcf33afb1c697486313c84613540565b61149e674a61fd40b0b6e61c60c01b61351e565b6114b2674b817ae4cca0908860c01b61351e565b6114dc7f189ab7a9244df0848122154315af71fe140f3db0fe014031783b0946b8c9d2e383613540565b6114f067b26fcdfb7e2db50e60c01b61351e565b611504677cfa928ef85ea7f060c01b61351e565b600586511180156115255750611524673214e9c8ad05763160c01b613535565b5b8061154d57506005855111801561154c575061154b67e088cf1a3a57c15e60c01b613535565b5b5b15611600576115666734dfa77517e95dbf60c01b61351e565b61157a676df92b5d5d92c8b360c01b61351e565b61158e676984f1db34dd655a60c01b61351e565b6040518060400160405280600381526020017f31323400000000000000000000000000000000000000000000000000000000008152506040517f08c379a00000000000000000000000000000000000000000000000000000000081526004016115f79190614c06565b60405180910390fd5b61161467bd9660daa7cb10e360c01b61351e565b61162867e64c7af2ce3c2fa160c01b61351e565b4261010181905550611644676ddef2c50ef7a67b60c01b61351e565b6201518060008190555061166267763a2cac65b3643e60c01b61351e565b62015180426116719190614f3b565b60018190555061168b679c835c2e6a4c401660c01b61351e565b8660fe60016101000a81548173ffffffffffffffffffffffffffffffffffffffff021916908373ffffffffffffffffffffffffffffffffffffffff1602179055506116e0678c8c294b5a9570c960c01b61351e565b6116f467c37d05022389c82d60c01b61351e565b60005b8651811015611916576117146783d0e35d100aca9e60c01b61351e565b85818151811061174d577f4e487b7100000000000000000000000000000000000000000000000000000000600052603260045260246000fd5b602002602001015160fe60008282829054906101000a900460ff166117729190614f91565b92506101000a81548160ff021916908360ff16021790555061179e67de9ec3feeeef4fe060c01b61351e565b6117b2671bba3bd9b5c6974460c01b61351e565b60ff8782815181106117ed577f4e487b7100000000000000000000000000000000000000000000000000000000600052603260045260246000fd5b60200260200101519080600181540180825580915050600190039060005260206000200160009091909190916101000a81548173ffffffffffffffffffffffffffffffffffffffff021916908373ffffffffffffffffffffffffffffffffffffffff16021790555061186967d2f00e3ad047d11e60c01b61351e565b61187d67cded45c8652013a060c01b61351e565b6101008682815181106118b9577f4e487b7100000000000000000000000000000000000000000000000000000000600052603260045260246000fd5b602002602001015190806001815401808255809150506001900390600052602060002090602091828204019190069091909190916101000a81548160ff021916908360ff160217905550808061190e906151c1565b9150506116f7565b508015611971576000600360016101000a81548160ff0219169083151502179055507f7f26b83ff96e1f2b6a682f133852f6798a09c465da95921460cefb384740249860016040516119689190614beb565b60405180910390a15b50505050505050565b7f000000000000000000000000000000000000000000000000000000000000000073ffffffffffffffffffffffffffffffffffffffff163073ffffffffffffffffffffffffffffffffffffffff161415611a09576040517f08c379a0000000000000000000000000000000000000000000000000000000008152600401611a0090614c48565b60405180910390fd5b7f000000000000000000000000000000000000000000000000000000000000000073ffffffffffffffffffffffffffffffffffffffff16611a4861370b565b73ffffffffffffffffffffffffffffffffffffffff1614611a9e576040517f08c379a0000000000000000000000000000000000000000000000000000000008152600401611a9590614c68565b60405180910390fd5b611aa782613762565b611ab3828260016137cc565b5050565b60007f000000000000000000000000000000000000000000000000000000000000000073ffffffffffffffffffffffffffffffffffffffff163073ffffffffffffffffffffffffffffffffffffffff1614611b47576040517f08c379a0000000000000000000000000000000000000000000000000000000008152600401611b3e90614c88565b60405180910390fd5b7f360894a13ba1a3210667c828492db98dca3e2076cc3735a920a3ca505d382bbc60001b905090565b611b84678312faee056d0a7c60c01b61351e565b7ffbd454f36a7e1a388bd6fc3ab10d434aa4578f811acbbcf33afb1c697486313c611bae81613521565b611bc2679eeccffad9cdf30f60c01b61351e565b611bd6674378b708e49dc93960c01b61351e565b611bea674a63081f4036d03d60c01b61351e565b611bfe6714fc77c6350ed8b060c01b61351e565b600560ff805490501415611cba57611c2067a46a798a7310cf4260c01b61351e565b611c3467686b35a5dde1906160c01b61351e565b611c486764a7b2a7979194bc60c01b61351e565b6040518060400160405280600381526020017f31323400000000000000000000000000000000000000000000000000000000008152506040517f08c379a0000000000000000000000000000000000000000000000000000000008152600401611cb19190614c06565b60405180910390fd5b611cce67964abc29ad258f5b60c01b61351e565b611ce2679242bdd492d46f4160c01b61351e565b611cf6671e38ce38c8bebb6960c01b61351e565b60001515611d03846131b6565b1515148015611d225750611d216782a49768f1246b6760c01b613535565b5b80611d7557508273ffffffffffffffffffffffffffffffffffffffff16600073ffffffffffffffffffffffffffffffffffffffff16148015611d745750611d7367c6f74a5c68798d5b60c01b613535565b5b5b15611e2857611d8e6782986347dc9c156e60c01b61351e565b611da2670778755c1923bc9960c01b61351e565b611db6679264c9466836f78560c01b61351e565b6040518060400160405280600381526020017f31323300000000000000000000000000000000000000000000000000000000008152506040517f08c379a0000000000000000000000000000000000000000000000000000000008152600401611e1f9190614c06565b60405180910390fd5b611e3c67566acb82f667313560c01b61351e565b611e506794689df06934685160c01b61351e565b611e64673f50472e000ea42660c01b61351e565b60ff839080600181540180825580915050600190039060005260206000200160009091909190916101000a81548173ffffffffffffffffffffffffffffffffffffffff021916908373ffffffffffffffffffffffffffffffffffffffff160217905550611edb672988c2e47adfcf1f60c01b61351e565b611eef67b787ff1ac81c742960c01b61351e565b6101008290806001815401808255809150506001900390600052602060002090602091828204019190069091909190916101000a81548160ff021916908360ff160217905550611f4967af50e430fbd08be660c01b61351e565b8160fe60008282829054906101000a900460ff16611f679190614f91565b92506101000a81548160ff021916908360ff160217905550505050565b60005481565b611f9e6718408b032ebb912160c01b61351e565b7ffbd454f36a7e1a388bd6fc3ab10d434aa4578f811acbbcf33afb1c697486313c611fc881613521565b611fdc67f288ef62195bcf8d60c01b61351e565b611ff067b6d288ffed6aedbb60c01b61351e565b6120046731b6ab747442806360c01b61351e565b61201867914807aa98c8fbdb60c01b61351e565b6000479050612031671bb4a41454601cb260c01b61351e565b61204567777f29f7f801ed9e60c01b61351e565b60005b60ff805490508110156123ae57612069670a6125739bebf52760c01b61351e565b61207d67039f1f363c95d17160c01b61351e565b600060fe60009054906101000a900460ff1660ff1661010083815481106120cd577f4e487b7100000000000000000000000000000000000000000000000000000000600052603260045260246000fd5b90600052602060002090602091828204019190069054906101000a900460ff1660ff16846120fb9190614ff9565b6121059190614fc8565b905061211b67e87ded0ca155c1a160c01b61351e565b61212f67bd855c99d0c8b43660c01b61351e565b600060ff838154811061216b577f4e487b7100000000000000000000000000000000000000000000000000000000600052603260045260246000fd5b9060005260206000200160009054906101000a900473ffffffffffffffffffffffffffffffffffffffff1673ffffffffffffffffffffffffffffffffffffffff16826040516121b990614ade565b60006040518083038185875af1925050503d80600081146121f6576040519150601f19603f3d011682016040523d82523d6000602084013e6121fb565b606091505b5050905061221367cd11e46ab357f92a60c01b61351e565b612227672be8abeab940d93160c01b61351e565b61223b67dd1010301eb2429860c01b61351e565b806040518060400160405280600381526020017f3131320000000000000000000000000000000000000000000000000000000000815250906122b3576040517f08c379a00000000000000000000000000000000000000000000000000000000081526004016122aa9190614c06565b60405180910390fd5b506122c8675ee8403bce91eac360c01b61351e565b6122dc679831475cd7ee6cd460c01b61351e565b6122f067faa326b12d26be9860c01b61351e565b8160ff848154811061232b577f4e487b7100000000000000000000000000000000000000000000000000000000600052603260045260246000fd5b9060005260206000200160009054906101000a900473ffffffffffffffffffffffffffffffffffffffff1673ffffffffffffffffffffffffffffffffffffffff16427f42affc57c2b30e1ac5957640cfb86fcd839a295d2ec7eed57db385dd03aecd2c60405160405180910390a4505080806123a6906151c1565b915050612048565b506123c36781edfe219dd8320460c01b61351e565b6123d767422a4467e15c167960c01b61351e565b6123df613a0e565b506123f467fdc6ba5875521fcf60c01b61351e565b42610101819055505050565b61241467a3d376e81000905460c01b61351e565b61242867d05d8a5670c04bb860c01b61351e565b61243c6797288fad809ee43960c01b61351e565b6001544211801561245d575061245c67428f7fbeff27073e60c01b613535565b5b80612486575060006002541480156124855750612484673cebb66f5b57d04b60c01b613535565b5b5b156124ee5761249f670b0e99fd45ecdb9660c01b61351e565b6124b367563dd441af53c0fe60c01b61351e565b6124bb610f1c565b6002819055506124d5678c0175e27ae5da4060c01b61351e565b600054426124e39190614f3b565b60018190555061259c565b6125026701f6778a98e2ad3860c01b61351e565b612516678d6e2dbe894d746e60c01b61351e565b61252a67059b3fb45902490160c01b61351e565b6040518060400160405280600381526020017f31323100000000000000000000000000000000000000000000000000000000008152506040517f08c379a00000000000000000000000000000000000000000000000000000000081526004016125939190614c06565b60405180910390fd5b565b6125b2677e542e0e7d39249f60c01b61351e565b7ffbd454f36a7e1a388bd6fc3ab10d434aa4578f811acbbcf33afb1c697486313c6125dc81613521565b6125f0676c50db5fcc0c357160c01b61351e565b612604673c88f9007dc0b91c60c01b61351e565b61261867754738649c348a6460c01b61351e565b8160fe60016101000a81548173ffffffffffffffffffffffffffffffffffffffff021916908373ffffffffffffffffffffffffffffffffffffffff1602179055505050565b60006068600084815260200190815260200160002060000160008373ffffffffffffffffffffffffffffffffffffffff1673ffffffffffffffffffffffffffffffffffffffff16815260200190815260200160002060009054906101000a900460ff16905092915050565b60606126de6718c3023ff5aec1ae60c01b61351e565b6126f267852a00edfa399c8060c01b61351e565b612706673eed4cd42f1d8a0760c01b61351e565b60ff80548060200260200160405190810160405280929190818152602001828054801561278857602002820191906000526020600020905b8160009054906101000a900473ffffffffffffffffffffffffffffffffffffffff1673ffffffffffffffffffffffffffffffffffffffff168152602001906001019080831161273e575b5050505050905090565b60006127a8672cc46eaf6e77cb0b60c01b61351e565b6127bc67554a808464380e6e60c01b61351e565b6127d06777e1d8fad5c1f06a60c01b61351e565b600154905090565b6000801b81565b60006127f5673e9f0bdc5f89d33c60c01b61351e565b612809671da8f8ec51743da260c01b61351e565b61281d67dd3941a61c4458a160c01b61351e565b60fe60009054906101000a900460ff16905090565b600061284867f0bb113e59e44dc760c01b61351e565b61285c672855de94fdc707df60c01b61351e565b61287067a9233c95e7e6c5b160c01b61351e565b60fe60019054906101000a900473ffffffffffffffffffffffffffffffffffffffff16905090565b60006128ae677a9954fe7fe9960b60c01b61351e565b6128c267cb80930251fe8b7f60c01b61351e565b6128d667909b89e3150983a460c01b61351e565b60fe60009054906101000a900460ff1660ff16476101008460ff1681548110612928577f4e487b7100000000000000000000000000000000000000000000000000000000600052603260045260246000fd5b90600052602060002090602091828204019190069054906101000a900460ff1660ff166129559190614ff9565b61295f9190614fc8565b9050919050565b600061297c6761b2402768799fde60c01b613af3565b61299067192d2c3fc063b37760c01b613af3565b6129a4674bd4a1d6c7044a7060c01b613af3565b426001541015612a25576129c26714ed0a0584efb99060c01b613af3565b6129d66732cded1ae519a0bf60c01b613af3565b6129ea67b76bd6dd9e15921e60c01b613af3565b6040517f08c379a0000000000000000000000000000000000000000000000000000000008152600401612a1c90614ca8565b60405180910390fd5b612a3967af4152ff7969f6d360c01b613af3565b612a4d67dac98113ba872b6c60c01b613af3565b612a616791e99f6d6ab441df60c01b613af3565b600254905090565b612a7d67ae9322a31195b85660c01b61351e565b612a9167247dea87a99f49aa60c01b61351e565b612aa56701197ed4c85b6d8060c01b61351e565b60005461010154612ab69190614f3b565b42118015612ad45750612ad367f28ecbafbb6b465d60c01b613535565b5b80612b215750612b047ffbd454f36a7e1a388bd6fc3ab10d434aa4578f811acbbcf33afb1c697486313c3361265d565b8015612b205750612b1f67a56babcd18ba3d3a60c01b613535565b5b5b156130df57612b3a67f0270686a1c97eac60c01b61351e565b612b4e67a2f7f74376a78a1c60c01b61351e565b612b6267f41020fd8a0c5ec260c01b61351e565b6000612b6c610f1c565b9050612b826741de36353c7dfe9260c01b61351e565b612b96679ac84d54d121950f60c01b61351e565b60003273ffffffffffffffffffffffffffffffffffffffff1682604051612bbc90614ade565b60006040518083038185875af1925050503d8060008114612bf9576040519150601f19603f3d011682016040523d82523d6000602084013e612bfe565b606091505b50509050612c166750b2363be866054a60c01b61351e565b612c2a67df4b389bc76574cf60c01b61351e565b612c3e673dbd732ef4980b9d60c01b61351e565b806040518060400160405280600381526020017f313232000000000000000000000000000000000000000000000000000000000081525090612cb6576040517f08c379a0000000000000000000000000000000000000000000000000000000008152600401612cad9190614c06565b60405180910390fd5b50612ccb6777fc78f67857bc6b60c01b61351e565b612cdf67a783fbba7617cabe60c01b61351e565b612cf3678117e7ce05c1ce5c60c01b61351e565b6000479050612d0c6733efb3f87c80f4e660c01b61351e565b612d20677646aeccb5a0c30f60c01b61351e565b60005b60ff8054905081101561308957612d44677df4e523565f753d60c01b61351e565b612d58679dc34ffa3c1e9fae60c01b61351e565b600060fe60009054906101000a900460ff1660ff166101008381548110612da8577f4e487b7100000000000000000000000000000000000000000000000000000000600052603260045260246000fd5b90600052602060002090602091828204019190069054906101000a900460ff1660ff1684612dd69190614ff9565b612de09190614fc8565b9050612df6675ed074dd0c0d8f6f60c01b61351e565b612e0a6715082553963c19f460c01b61351e565b600060ff8381548110612e46577f4e487b7100000000000000000000000000000000000000000000000000000000600052603260045260246000fd5b9060005260206000200160009054906101000a900473ffffffffffffffffffffffffffffffffffffffff1673ffffffffffffffffffffffffffffffffffffffff1682604051612e9490614ade565b60006040518083038185875af1925050503d8060008114612ed1576040519150601f19603f3d011682016040523d82523d6000602084013e612ed6565b606091505b50509050612eee67bd23364793a94ffc60c01b61351e565b612f0267cefd438194a0578660c01b61351e565b612f166762132d24d307cc2460c01b61351e565b806040518060400160405280600381526020017f313132000000000000000000000000000000000000000000000000000000000081525090612f8e576040517f08c379a0000000000000000000000000000000000000000000000000000000008152600401612f859190614c06565b60405180910390fd5b50612fa3675be156f4e528b03660c01b61351e565b612fb767203b9734e88037be60c01b61351e565b612fcb671b3c51ce7d62190060c01b61351e565b8160ff8481548110613006577f4e487b7100000000000000000000000000000000000000000000000000000000600052603260045260246000fd5b9060005260206000200160009054906101000a900473ffffffffffffffffffffffffffffffffffffffff1673ffffffffffffffffffffffffffffffffffffffff16427f42affc57c2b30e1ac5957640cfb86fcd839a295d2ec7eed57db385dd03aecd2c60405160405180910390a450508080613081906151c1565b915050612d23565b5061309e671c5d25563d35043e60c01b61351e565b42610101819055506130ba67e62dc8c3fd9a781360c01b61351e565b6130ce67c5f86e0afcacdced60c01b61351e565b6130d6613a0e565b5050505061318d565b6130f3672987cb226db88b5260c01b61351e565b61310767426385ea13a7057f60c01b61351e565b61311b67dfc5b43358f6e5b160c01b61351e565b6040518060400160405280600381526020017f31323100000000000000000000000000000000000000000000000000000000008152506040517f08c379a00000000000000000000000000000000000000000000000000000000081526004016131849190614c06565b60405180910390fd5b565b61319882610efc565b6131a181613521565b6131ab8383613629565b505050565b60025481565b60006131cc67880924b62e9ee40e60c01b61351e565b6131e06703c64c0f63e887ca60c01b61351e565b6131f467b89607d69d293c4560c01b61351e565b60005b60ff8054905081101561333157613218671ae060658f74087b60c01b61351e565b61322c67bcf86846ea339ca560c01b61351e565b8273ffffffffffffffffffffffffffffffffffffffff1660ff828154811061327d577f4e487b7100000000000000000000000000000000000000000000000000000000600052603260045260246000fd5b9060005260206000200160009054906101000a900473ffffffffffffffffffffffffffffffffffffffff1673ffffffffffffffffffffffffffffffffffffffff16141561330a576132d8676f692b22e4d5ae6e60c01b61351e565b6132ec674615c3fb7239d9bb60c01b61351e565b61330067491be12aa1cdfcec60c01b61351e565b600091505061335f565b61331e670e8fd744d2eb050860c01b61351e565b8080613329906151c1565b9150506131f7565b50613346674af04618b7b3676f60c01b61351e565b61335a67a25147d5a6e1bcb160c01b61351e565b600190505b919050565b7ffbd454f36a7e1a388bd6fc3ab10d434aa4578f811acbbcf33afb1c697486313c81565b600061339e67187776f35cb1d64f60c01b61351e565b6133b267e2378241e466d81b60c01b61351e565b6133c66710b85344314a9c9760c01b61351e565b61010154905090565b60015481565b7f189ab7a9244df0848122154315af71fe140f3db0fe014031783b0946b8c9d2e381565b606061340f679651b0f835295e6c60c01b61351e565b613423673cd837d52ed4ef8960c01b61351e565b6134376774b3f948a1f5defd60c01b61351e565b6101008054806020026020016040519081016040528092919081815260200182805480156134aa57602002820191906000526020600020906000905b82829054906101000a900460ff1660ff16815260200190600101906020826000010492830192600103820291508084116134735790505b5050505050905090565b60007f01ffc9a7000000000000000000000000000000000000000000000000000000007bffffffffffffffffffffffffffffffffffffffffffffffffffffffff1916827bffffffffffffffffffffffffffffffffffffffffffffffffffffffff1916149050919050565b50565b6135328161352d613621565b613af6565b50565b600060019050919050565b61354a828261265d565b61361d5760016068600084815260200190815260200160002060000160008373ffffffffffffffffffffffffffffffffffffffff1673ffffffffffffffffffffffffffffffffffffffff16815260200190815260200160002060006101000a81548160ff0219169083151502179055506135c2613621565b73ffffffffffffffffffffffffffffffffffffffff168173ffffffffffffffffffffffffffffffffffffffff16837f2f8788117e7eff1d82e926ec794901d17c78024a50270940304540a733656f0d60405160405180910390a45b5050565b600033905090565b613633828261265d565b156137075760006068600084815260200190815260200160002060000160008373ffffffffffffffffffffffffffffffffffffffff1673ffffffffffffffffffffffffffffffffffffffff16815260200190815260200160002060006101000a81548160ff0219169083151502179055506136ac613621565b73ffffffffffffffffffffffffffffffffffffffff168173ffffffffffffffffffffffffffffffffffffffff16837ff6391f5c32d9c69d2a47ea670b442974b53935d1edc7fd64eb21e047a839171b60405160405180910390a45b5050565b60006137397f360894a13ba1a3210667c828492db98dca3e2076cc3735a920a3ca505d382bbc60001b613b7b565b60000160009054906101000a900473ffffffffffffffffffffffffffffffffffffffff16905090565b6137766744b0db44045fb3b060c01b61351e565b7f189ab7a9244df0848122154315af71fe140f3db0fe014031783b0946b8c9d2e36137a081613521565b6137b467f89631c471cf38d760c01b61351e565b6137c867992b641142f40b5b60c01b61351e565b5050565b6137f87f4910fdfa16fed3260ed0e7147f7cc6da11a60208b5b9406d12a635614ffd914360001b613b85565b60000160009054906101000a900460ff161561381c5761381783613b8f565b613944565b8273ffffffffffffffffffffffffffffffffffffffff166352d1902d6040518163ffffffff1660e01b815260040160206040518083038186803b15801561386257600080fd5b505afa92505050801561389357506040513d601f19601f820116820180604052508101906138909190614563565b60015b6138d2576040517f08c379a00000000000000000000000000000000000000000000000000000000081526004016138c990614d08565b60405180910390fd5b7f360894a13ba1a3210667c828492db98dca3e2076cc3735a920a3ca505d382bbc60001b8114613937576040517f08c379a000000000000000000000000000000000000000000000000000000000815260040161392e90614cc8565b60405180910390fd5b50613943838383613c48565b5b505050565b6000808273ffffffffffffffffffffffffffffffffffffffff163b119050919050565b600360019054906101000a900460ff166139bb576040517f08c379a00000000000000000000000000000000000000000000000000000000081526004016139b290614d68565b60405180910390fd5b565b600360019054906101000a900460ff16613a0c576040517f08c379a0000000000000000000000000000000000000000000000000000000008152600401613a0390614d68565b60405180910390fd5b565b6000613a2467107f5594d344ff3d60c01b61351e565b613a3867239f3bfead59dd5a60c01b61351e565b613a4c67583e5faf3582faef60c01b61351e565b60fe60019054906101000a900473ffffffffffffffffffffffffffffffffffffffff1673ffffffffffffffffffffffffffffffffffffffff1663e58456e96040518163ffffffff1660e01b8152600401602060405180830381600087803b158015613ab657600080fd5b505af1158015613aca573d6000803e3d6000fd5b505050506040513d601f19601f82011682018060405250810190613aee9190614511565b905090565b50565b613b00828261265d565b613b7757613b0d81613c74565b613b1b8360001c6020613ca1565b604051602001613b2c929190614af3565b6040516020818303038152906040526040517f08c379a0000000000000000000000000000000000000000000000000000000008152600401613b6e9190614c06565b60405180910390fd5b5050565b6000819050919050565b6000819050919050565b613b9881613949565b613bd7576040517f08c379a0000000000000000000000000000000000000000000000000000000008152600401613bce90614d28565b60405180910390fd5b80613c047f360894a13ba1a3210667c828492db98dca3e2076cc3735a920a3ca505d382bbc60001b613b7b565b60000160006101000a81548173ffffffffffffffffffffffffffffffffffffffff021916908373ffffffffffffffffffffffffffffffffffffffff16021790555050565b613c5183613f9b565b600082511180613c5e5750805b15613c6f57613c6d8383613fea565b505b505050565b6060613c9a8273ffffffffffffffffffffffffffffffffffffffff16601460ff16613ca1565b9050919050565b606060006002836002613cb49190614ff9565b613cbe9190614f3b565b67ffffffffffffffff811115613cfd577f4e487b7100000000000000000000000000000000000000000000000000000000600052604160045260246000fd5b6040519080825280601f01601f191660200182016040528015613d2f5781602001600182028036833780820191505090505b5090507f300000000000000000000000000000000000000000000000000000000000000081600081518110613d8d577f4e487b7100000000000000000000000000000000000000000000000000000000600052603260045260246000fd5b60200101907effffffffffffffffffffffffffffffffffffffffffffffffffffffffffffff1916908160001a9053507f780000000000000000000000000000000000000000000000000000000000000081600181518110613e17577f4e487b7100000000000000000000000000000000000000000000000000000000600052603260045260246000fd5b60200101907effffffffffffffffffffffffffffffffffffffffffffffffffffffffffffff1916908160001a90535060006001846002613e579190614ff9565b613e619190614f3b565b90505b6001811115613f4d577f3031323334353637383961626364656600000000000000000000000000000000600f861660108110613ec9577f4e487b7100000000000000000000000000000000000000000000000000000000600052603260045260246000fd5b1a60f81b828281518110613f06577f4e487b7100000000000000000000000000000000000000000000000000000000600052603260045260246000fd5b60200101907effffffffffffffffffffffffffffffffffffffffffffffffffffffffffffff1916908160001a905350600485901c945080613f4690615166565b9050613e64565b5060008414613f91576040517f08c379a0000000000000000000000000000000000000000000000000000000008152600401613f8890614c28565b60405180910390fd5b8091505092915050565b613fa481613b8f565b8073ffffffffffffffffffffffffffffffffffffffff167fbc7cd75a20ee27fd9adebab32041f755214dbc6bffa90cc0225b39da2e5c2d3b60405160405180910390a250565b606061400f83836040518060600160405280602781526020016156ca60279139614017565b905092915050565b60606000808573ffffffffffffffffffffffffffffffffffffffff16856040516140419190614ac7565b600060405180830381855af49150503d806000811461407c576040519150601f19603f3d011682016040523d82523d6000602084013e614081565b606091505b50915091506140928683838761409d565b925050509392505050565b60608315614100576000835114156140f8576140b885613949565b6140f7576040517f08c379a00000000000000000000000000000000000000000000000000000000081526004016140ee90614d48565b60405180910390fd5b5b82905061410b565b61410a8383614113565b5b949350505050565b6000825111156141265781518083602001fd5b806040517f08c379a000000000000000000000000000000000000000000000000000000000815260040161415a9190614c06565b60405180910390fd5b600061417661417184614e03565b614dde565b9050808382526020820190508285602086028201111561419557600080fd5b60005b858110156141c557816141ab8882614279565b845260208401935060208301925050600181019050614198565b5050509392505050565b60006141e26141dd84614e2f565b614dde565b9050808382526020820190508285602086028201111561420157600080fd5b60005b858110156142315781614217888261438a565b845260208401935060208301925050600181019050614204565b5050509392505050565b600061424e61424984614e5b565b614dde565b90508281526020810184848401111561426657600080fd5b614271848285615124565b509392505050565b6000813590506142888161563f565b92915050565b600082601f83011261429f57600080fd5b81356142af848260208601614163565b91505092915050565b600082601f8301126142c957600080fd5b81356142d98482602086016141cf565b91505092915050565b6000815190506142f181615656565b92915050565b6000813590506143068161566d565b92915050565b60008151905061431b8161566d565b92915050565b60008135905061433081615684565b92915050565b600082601f83011261434757600080fd5b813561435784826020860161423b565b91505092915050565b60008135905061436f8161569b565b92915050565b6000815190506143848161569b565b92915050565b600081359050614399816156b2565b92915050565b6000602082840312156143b157600080fd5b60006143bf84828501614279565b91505092915050565b60008060008060008060c087890312156143e157600080fd5b60006143ef89828a01614279565b965050602087013567ffffffffffffffff81111561440c57600080fd5b61441889828a0161428e565b955050604087013567ffffffffffffffff81111561443557600080fd5b61444189828a016142b8565b945050606061445289828a01614279565b935050608061446389828a01614279565b92505060a061447489828a01614279565b9150509295509295509295565b6000806040838503121561449457600080fd5b60006144a285828601614279565b925050602083013567ffffffffffffffff8111156144bf57600080fd5b6144cb85828601614336565b9150509250929050565b600080604083850312156144e857600080fd5b60006144f685828601614279565b92505060206145078582860161438a565b9150509250929050565b60006020828403121561452357600080fd5b6000614531848285016142e2565b91505092915050565b60006020828403121561454c57600080fd5b600061455a848285016142f7565b91505092915050565b60006020828403121561457557600080fd5b60006145838482850161430c565b91505092915050565b6000806040838503121561459f57600080fd5b60006145ad858286016142f7565b92505060206145be85828601614279565b9150509250929050565b6000602082840312156145da57600080fd5b60006145e884828501614321565b91505092915050565b60006020828403121561460357600080fd5b600061461184828501614360565b91505092915050565b60006020828403121561462c57600080fd5b600061463a84828501614375565b91505092915050565b60006020828403121561465557600080fd5b60006146638482850161438a565b91505092915050565b60008060006060848603121561468157600080fd5b600061468f8682870161438a565b93505060206146a086828701614279565b92505060406146b18682870161438a565b9150509250925092565b60006146c783836146eb565b60208301905092915050565b60006146df8383614aa9565b60208301905092915050565b6146f481615087565b82525050565b61470381615087565b82525050565b600061471482614eac565b61471e8185614ef2565b935061472983614e8c565b8060005b8381101561475a57815161474188826146bb565b975061474c83614ed8565b92505060018101905061472d565b5085935050505092915050565b600061477282614eb7565b61477c8185614f03565b935061478783614e9c565b8060005b838110156147b857815161479f88826146d3565b97506147aa83614ee5565b92505060018101905061478b565b5085935050505092915050565b6147ce81615099565b82525050565b6147dd816150a5565b82525050565b60006147ee82614ec2565b6147f88185614f14565b9350614808818560208601615133565b80840191505092915050565b61481d81615112565b82525050565b600061482e82614ecd565b6148388185614f1f565b9350614848818560208601615133565b61485181615297565b840191505092915050565b600061486782614ecd565b6148718185614f30565b9350614881818560208601615133565b80840191505092915050565b600061489a602083614f1f565b91506148a5826152a8565b602082019050919050565b60006148bd602c83614f1f565b91506148c8826152d1565b604082019050919050565b60006148e0602c83614f1f565b91506148eb82615320565b604082019050919050565b6000614903603883614f1f565b915061490e8261536f565b604082019050919050565b6000614926600a83614f1f565b9150614931826153be565b602082019050919050565b6000614949602983614f1f565b9150614954826153e7565b604082019050919050565b600061496c602e83614f1f565b915061497782615436565b604082019050919050565b600061498f602e83614f1f565b915061499a82615485565b604082019050919050565b60006149b2602d83614f1f565b91506149bd826154d4565b604082019050919050565b60006149d5600083614f14565b91506149e082615523565b600082019050919050565b60006149f8601d83614f1f565b9150614a0382615526565b602082019050919050565b6000614a1b602b83614f1f565b9150614a268261554f565b604082019050919050565b6000614a3e601783614f30565b9150614a498261559e565b601782019050919050565b6000614a61601183614f30565b9150614a6c826155c7565b601182019050919050565b6000614a84602f83614f1f565b9150614a8f826155f0565b604082019050919050565b614aa3816150fb565b82525050565b614ab281615105565b82525050565b614ac181615105565b82525050565b6000614ad382846147e3565b915081905092915050565b6000614ae9826149c8565b9150819050919050565b6000614afe82614a31565b9150614b0a828561485c565b9150614b1582614a54565b9150614b21828461485c565b91508190509392505050565b6000602082019050614b4260008301846146fa565b92915050565b6000604082019050614b5d60008301856146fa565b614b6a6020830184614a9a565b9392505050565b60006020820190508181036000830152614b8b8184614709565b905092915050565b60006020820190508181036000830152614bad8184614767565b905092915050565b6000602082019050614bca60008301846147c5565b92915050565b6000602082019050614be560008301846147d4565b92915050565b6000602082019050614c006000830184614814565b92915050565b60006020820190508181036000830152614c208184614823565b905092915050565b60006020820190508181036000830152614c418161488d565b9050919050565b60006020820190508181036000830152614c61816148b0565b9050919050565b60006020820190508181036000830152614c81816148d3565b9050919050565b60006020820190508181036000830152614ca1816148f6565b9050919050565b60006020820190508181036000830152614cc181614919565b9050919050565b60006020820190508181036000830152614ce18161493c565b9050919050565b60006020820190508181036000830152614d018161495f565b9050919050565b60006020820190508181036000830152614d2181614982565b9050919050565b60006020820190508181036000830152614d41816149a5565b9050919050565b60006020820190508181036000830152614d61816149eb565b9050919050565b60006020820190508181036000830152614d8181614a0e565b9050919050565b60006020820190508181036000830152614da181614a77565b9050919050565b6000602082019050614dbd6000830184614a9a565b92915050565b6000602082019050614dd86000830184614ab8565b92915050565b6000614de8614df9565b9050614df48282615190565b919050565b6000604051905090565b600067ffffffffffffffff821115614e1e57614e1d615268565b5b602082029050602081019050919050565b600067ffffffffffffffff821115614e4a57614e49615268565b5b602082029050602081019050919050565b600067ffffffffffffffff821115614e7657614e75615268565b5b614e7f82615297565b9050602081019050919050565b6000819050602082019050919050565b6000819050602082019050919050565b600081519050919050565b600081519050919050565b600081519050919050565b600081519050919050565b6000602082019050919050565b6000602082019050919050565b600082825260208201905092915050565b600082825260208201905092915050565b600081905092915050565b600082825260208201905092915050565b600081905092915050565b6000614f46826150fb565b9150614f51836150fb565b9250827fffffffffffffffffffffffffffffffffffffffffffffffffffffffffffffffff03821115614f8657614f8561520a565b5b828201905092915050565b6000614f9c82615105565b9150614fa783615105565b92508260ff03821115614fbd57614fbc61520a565b5b828201905092915050565b6000614fd3826150fb565b9150614fde836150fb565b925082614fee57614fed615239565b5b828204905092915050565b6000615004826150fb565b915061500f836150fb565b9250817fffffffffffffffffffffffffffffffffffffffffffffffffffffffffffffffff04831182151516156150485761504761520a565b5b828202905092915050565b600061505e82615105565b915061506983615105565b92508282101561507c5761507b61520a565b5b828203905092915050565b6000615092826150db565b9050919050565b60008115159050919050565b6000819050919050565b60007fffffffff0000000000000000000000000000000000000000000000000000000082169050919050565b600073ffffffffffffffffffffffffffffffffffffffff82169050919050565b6000819050919050565b600060ff82169050919050565b600061511d82615105565b9050919050565b82818337600083830152505050565b60005b83811015615151578082015181840152602081019050615136565b83811115615160576000848401525b50505050565b6000615171826150fb565b915060008214156151855761518461520a565b5b600182039050919050565b61519982615297565b810181811067ffffffffffffffff821117156151b8576151b7615268565b5b80604052505050565b60006151cc826150fb565b91507fffffffffffffffffffffffffffffffffffffffffffffffffffffffffffffffff8214156151ff576151fe61520a565b5b600182019050919050565b7f4e487b7100000000000000000000000000000000000000000000000000000000600052601160045260246000fd5b7f4e487b7100000000000000000000000000000000000000000000000000000000600052601260045260246000fd5b7f4e487b7100000000000000000000000000000000000000000000000000000000600052604160045260246000fd5b6000601f19601f8301169050919050565b7f537472696e67733a20686578206c656e67746820696e73756666696369656e74600082015250565b7f46756e6374696f6e206d7573742062652063616c6c6564207468726f7567682060008201527f64656c656761746563616c6c0000000000000000000000000000000000000000602082015250565b7f46756e6374696f6e206d7573742062652063616c6c6564207468726f7567682060008201527f6163746976652070726f78790000000000000000000000000000000000000000602082015250565b7f555550535570677261646561626c653a206d757374206e6f742062652063616c60008201527f6c6564207468726f7567682064656c656761746563616c6c0000000000000000602082015250565b7f7265736574466565282900000000000000000000000000000000000000000000600082015250565b7f45524331393637557067726164653a20756e737570706f727465642070726f7860008201527f6961626c65555549440000000000000000000000000000000000000000000000602082015250565b7f496e697469616c697a61626c653a20636f6e747261637420697320616c72656160008201527f647920696e697469616c697a6564000000000000000000000000000000000000602082015250565b7f45524331393637557067726164653a206e657720696d706c656d656e7461746960008201527f6f6e206973206e6f742055555053000000000000000000000000000000000000602082015250565b7f455243313936373a206e657720696d706c656d656e746174696f6e206973206e60008201527f6f74206120636f6e747261637400000000000000000000000000000000000000602082015250565b50565b7f416464726573733a2063616c6c20746f206e6f6e2d636f6e7472616374000000600082015250565b7f496e697469616c697a61626c653a20636f6e7472616374206973206e6f74206960008201527f6e697469616c697a696e67000000000000000000000000000000000000000000602082015250565b7f416363657373436f6e74726f6c3a206163636f756e7420000000000000000000600082015250565b7f206973206d697373696e6720726f6c6520000000000000000000000000000000600082015250565b7f416363657373436f6e74726f6c3a2063616e206f6e6c792072656e6f756e636560008201527f20726f6c657320666f722073656c660000000000000000000000000000000000602082015250565b61564881615087565b811461565357600080fd5b50565b61565f81615099565b811461566a57600080fd5b50565b615676816150a5565b811461568157600080fd5b50565b61568d816150af565b811461569857600080fd5b50565b6156a4816150fb565b81146156af57600080fd5b50565b6156bb81615105565b81146156c657600080fd5b5056fe416464726573733a206c6f772d6c6576656c2064656c65676174652063616c6c206661696c6564a2646970667358221220ce1b1b6eee38a514a9f539faee8d18f6af3c1c57bf4c1806716694ce035f11ff64736f6c63430008020033",
  "linkReferences": {},
  "deployedLinkReferences": {}
}