{
  "_format": "hh-sol-artifact-1",
  "contractName": "FeeContract",
  "sourceName": "contracts/FeeContract.sol",
  "abi": [
    {
      "anonymous": false,
      "inputs": [
        {
          "indexed": false,
          "internalType": "address",
          "name": "previousAdmin",
          "type": "address"
        },
        {
          "indexed": false,
          "internalType": "address",
          "name": "newAdmin",
          "type": "address"
        }
      ],
      "name": "AdminChanged",
      "type": "event"
    },
    {
      "anonymous": false,
      "inputs": [
        {
          "indexed": true,
          "internalType": "address",
          "name": "beacon",
          "type": "address"
        }
      ],
      "name": "BeaconUpgraded",
      "type": "event"
    },
    {
      "anonymous": false,
      "inputs": [
        {
          "indexed": true,
          "internalType": "uint256",
          "name": "timestamp",
          "type": "uint256"
        },
        {
          "indexed": true,
          "internalType": "address",
          "name": "to",
          "type": "address"
        },
        {
          "indexed": true,
          "internalType": "uint256",
          "name": "amount",
          "type": "uint256"
        }
      ],
      "name": "FeesDistributed",
      "type": "event"
    },
    {
      "anonymous": false,
      "inputs": [
        {
          "indexed": false,
          "internalType": "uint8",
          "name": "version",
          "type": "uint8"
        }
      ],
      "name": "Initialized",
      "type": "event"
    },
    {
      "anonymous": false,
      "inputs": [
        {
          "indexed": true,
          "internalType": "bytes32",
          "name": "role",
          "type": "bytes32"
        },
        {
          "indexed": true,
          "internalType": "bytes32",
          "name": "previousAdminRole",
          "type": "bytes32"
        },
        {
          "indexed": true,
          "internalType": "bytes32",
          "name": "newAdminRole",
          "type": "bytes32"
        }
      ],
      "name": "RoleAdminChanged",
      "type": "event"
    },
    {
      "anonymous": false,
      "inputs": [
        {
          "indexed": true,
          "internalType": "bytes32",
          "name": "role",
          "type": "bytes32"
        },
        {
          "indexed": true,
          "internalType": "address",
          "name": "account",
          "type": "address"
        },
        {
          "indexed": true,
          "internalType": "address",
          "name": "sender",
          "type": "address"
        }
      ],
      "name": "RoleGranted",
      "type": "event"
    },
    {
      "anonymous": false,
      "inputs": [
        {
          "indexed": true,
          "internalType": "bytes32",
          "name": "role",
          "type": "bytes32"
        },
        {
          "indexed": true,
          "internalType": "address",
          "name": "account",
          "type": "address"
        },
        {
          "indexed": true,
          "internalType": "address",
          "name": "sender",
          "type": "address"
        }
      ],
      "name": "RoleRevoked",
      "type": "event"
    },
    {
      "anonymous": false,
      "inputs": [
        {
          "indexed": true,
          "internalType": "address",
          "name": "implementation",
          "type": "address"
        }
      ],
      "name": "Upgraded",
      "type": "event"
    },
    {
      "inputs": [],
      "name": "DEFAULT_ADMIN_ROLE",
      "outputs": [
        {
          "internalType": "bytes32",
          "name": "",
          "type": "bytes32"
        }
      ],
      "stateMutability": "view",
      "type": "function"
    },
    {
      "inputs": [],
      "name": "DISTRIBUTOR_ROLE",
      "outputs": [
        {
          "internalType": "bytes32",
          "name": "",
          "type": "bytes32"
        }
      ],
      "stateMutability": "view",
      "type": "function"
    },
    {
      "inputs": [],
      "name": "UPGRADER_ROLE",
      "outputs": [
        {
          "internalType": "bytes32",
          "name": "",
          "type": "bytes32"
        }
      ],
      "stateMutability": "view",
      "type": "function"
    },
    {
      "inputs": [
        {
          "internalType": "address",
          "name": "_newChannelAddress",
          "type": "address"
        },
        {
          "internalType": "uint8",
          "name": "_weight",
          "type": "uint8"
        }
      ],
      "name": "addChannel",
      "outputs": [],
      "stateMutability": "nonpayable",
      "type": "function"
    },
    {
      "inputs": [
        {
          "internalType": "uint8",
          "name": "_index",
          "type": "uint8"
        },
        {
          "internalType": "address",
          "name": "_newChannelAddress",
          "type": "address"
        },
        {
          "internalType": "uint8",
          "name": "_newWeight",
          "type": "uint8"
        }
      ],
      "name": "adjustChannel",
      "outputs": [],
      "stateMutability": "nonpayable",
      "type": "function"
    },
    {
      "inputs": [
        {
          "internalType": "uint8",
          "name": "index",
          "type": "uint8"
        }
      ],
      "name": "amountPaidToUponNextDistribution",
      "outputs": [
        {
          "internalType": "uint256",
          "name": "",
          "type": "uint256"
        }
      ],
      "stateMutability": "view",
      "type": "function"
    },
    {
      "inputs": [],
      "name": "collectFee",
      "outputs": [],
      "stateMutability": "payable",
      "type": "function"
    },
    {
      "inputs": [],
      "name": "epochLength",
      "outputs": [
        {
          "internalType": "uint256",
          "name": "",
          "type": "uint256"
        }
      ],
      "stateMutability": "view",
      "type": "function"
    },
    {
      "inputs": [],
      "name": "fee",
      "outputs": [
        {
          "internalType": "uint256",
          "name": "",
          "type": "uint256"
        }
      ],
      "stateMutability": "view",
      "type": "function"
    },
    {
      "inputs": [],
      "name": "forceFee",
      "outputs": [],
      "stateMutability": "payable",
      "type": "function"
    },
    {
      "inputs": [
        {
          "internalType": "uint8",
          "name": "index",
          "type": "uint8"
        }
      ],
      "name": "getChannelWeightByIndex",
      "outputs": [
        {
          "internalType": "address",
          "name": "",
          "type": "address"
        },
        {
          "internalType": "uint256",
          "name": "",
          "type": "uint256"
        }
      ],
      "stateMutability": "view",
      "type": "function"
    },
    {
      "inputs": [],
      "name": "getChannels",
      "outputs": [
        {
          "internalType": "address[]",
          "name": "",
          "type": "address[]"
        }
      ],
      "stateMutability": "view",
      "type": "function"
    },
    {
      "inputs": [],
      "name": "getFee",
      "outputs": [
        {
          "internalType": "uint256",
          "name": "",
          "type": "uint256"
        }
      ],
      "stateMutability": "view",
      "type": "function"
    },
    {
      "inputs": [],
      "name": "getLastDistributionBlock",
      "outputs": [
        {
          "internalType": "uint256",
          "name": "",
          "type": "uint256"
        }
      ],
      "stateMutability": "view",
      "type": "function"
    },
    {
      "inputs": [],
      "name": "getNextResetTime",
      "outputs": [
        {
          "internalType": "uint256",
          "name": "",
          "type": "uint256"
        }
      ],
      "stateMutability": "view",
      "type": "function"
    },
    {
      "inputs": [],
      "name": "getOracleAddress",
      "outputs": [
        {
          "internalType": "address",
          "name": "",
          "type": "address"
        }
      ],
      "stateMutability": "view",
      "type": "function"
    },
    {
      "inputs": [
        {
          "internalType": "bytes32",
          "name": "role",
          "type": "bytes32"
        }
      ],
      "name": "getRoleAdmin",
      "outputs": [
        {
          "internalType": "bytes32",
          "name": "",
          "type": "bytes32"
        }
      ],
      "stateMutability": "view",
      "type": "function"
    },
    {
      "inputs": [],
      "name": "getTotalContractShares",
      "outputs": [
        {
          "internalType": "uint8",
          "name": "",
          "type": "uint8"
        }
      ],
      "stateMutability": "view",
      "type": "function"
    },
    {
      "inputs": [],
      "name": "getWieghts",
      "outputs": [
        {
          "internalType": "uint8[]",
          "name": "",
          "type": "uint8[]"
        }
      ],
      "stateMutability": "view",
      "type": "function"
    },
    {
      "inputs": [
        {
          "internalType": "bytes32",
          "name": "role",
          "type": "bytes32"
        },
        {
          "internalType": "address",
          "name": "account",
          "type": "address"
        }
      ],
      "name": "grantRole",
      "outputs": [],
      "stateMutability": "nonpayable",
      "type": "function"
    },
    {
      "inputs": [
        {
          "internalType": "bytes32",
          "name": "role",
          "type": "bytes32"
        },
        {
          "internalType": "address",
          "name": "account",
          "type": "address"
        }
      ],
      "name": "hasRole",
      "outputs": [
        {
          "internalType": "bool",
          "name": "",
          "type": "bool"
        }
      ],
      "stateMutability": "view",
      "type": "function"
    },
    {
      "inputs": [
        {
          "internalType": "address",
          "name": "_oracle",
          "type": "address"
        },
        {
          "internalType": "address[]",
          "name": "_channels",
          "type": "address[]"
        },
        {
          "internalType": "uint8[]",
          "name": "_weights",
          "type": "uint8[]"
        },
        {
          "internalType": "address",
          "name": "upgrader",
          "type": "address"
        },
        {
          "internalType": "address",
          "name": "admin",
          "type": "address"
        },
        {
          "internalType": "address",
          "name": "distributor",
          "type": "address"
        }
      ],
      "name": "initialize",
      "outputs": [],
      "stateMutability": "nonpayable",
      "type": "function"
    },
    {
      "inputs": [
        {
          "internalType": "address",
          "name": "channel",
          "type": "address"
        }
      ],
      "name": "isOriginalAddress",
      "outputs": [
        {
          "internalType": "bool",
          "name": "",
          "type": "bool"
        }
      ],
      "stateMutability": "view",
      "type": "function"
    },
    {
      "inputs": [],
      "name": "proxiableUUID",
      "outputs": [
        {
          "internalType": "bytes32",
          "name": "",
          "type": "bytes32"
        }
      ],
      "stateMutability": "view",
      "type": "function"
    },
    {
      "inputs": [],
      "name": "queryOracle",
      "outputs": [
        {
          "internalType": "uint256",
          "name": "feeAmount",
          "type": "uint256"
        }
      ],
      "stateMutability": "view",
      "type": "function"
    },
    {
      "inputs": [
        {
          "internalType": "bytes32",
          "name": "role",
          "type": "bytes32"
        },
        {
          "internalType": "address",
          "name": "account",
          "type": "address"
        }
      ],
      "name": "renounceRole",
      "outputs": [],
      "stateMutability": "nonpayable",
      "type": "function"
    },
    {
      "inputs": [],
      "name": "requiredReset",
      "outputs": [
        {
          "internalType": "uint256",
          "name": "",
          "type": "uint256"
        }
      ],
      "stateMutability": "view",
      "type": "function"
    },
    {
      "inputs": [],
      "name": "resetFee",
      "outputs": [],
      "stateMutability": "nonpayable",
      "type": "function"
    },
    {
      "inputs": [
        {
          "internalType": "bytes32",
          "name": "role",
          "type": "bytes32"
        },
        {
          "internalType": "address",
          "name": "account",
          "type": "address"
        }
      ],
      "name": "revokeRole",
      "outputs": [],
      "stateMutability": "nonpayable",
      "type": "function"
    },
    {
      "inputs": [
        {
          "internalType": "uint256",
          "name": "new_epochLength",
          "type": "uint256"
        }
      ],
      "name": "setEpoch",
      "outputs": [],
      "stateMutability": "nonpayable",
      "type": "function"
    },
    {
      "inputs": [
        {
          "internalType": "address",
          "name": "_newOracle",
          "type": "address"
        }
      ],
      "name": "setOracle",
      "outputs": [],
      "stateMutability": "nonpayable",
      "type": "function"
    },
    {
      "inputs": [
        {
          "internalType": "bytes4",
          "name": "interfaceId",
          "type": "bytes4"
        }
      ],
      "name": "supportsInterface",
      "outputs": [
        {
          "internalType": "bool",
          "name": "",
          "type": "bool"
        }
      ],
      "stateMutability": "view",
      "type": "function"
    },
    {
      "inputs": [
        {
          "internalType": "address",
          "name": "newImplementation",
          "type": "address"
        }
      ],
      "name": "upgradeTo",
      "outputs": [],
      "stateMutability": "nonpayable",
      "type": "function"
    },
    {
      "inputs": [
        {
          "internalType": "address",
          "name": "newImplementation",
          "type": "address"
        },
        {
          "internalType": "bytes",
          "name": "data",
          "type": "bytes"
        }
      ],
      "name": "upgradeToAndCall",
      "outputs": [],
      "stateMutability": "payable",
      "type": "function"
    },
    {
      "stateMutability": "payable",
      "type": "receive"
    }
  ],
  "bytecode": "0x60a06040523073ffffffffffffffffffffffffffffffffffffffff1660809073ffffffffffffffffffffffffffffffffffffffff1660601b81525034801561004657600080fd5b5060805160601c61469c61008160003960008181610dd901528181610e68015281816113f8015281816114870152611537015261469c6000f3fe6080604052600436106101fd5760003560e01c806391d148541161010d578063d4d5d32a116100a0578063f0bd87cc1161006f578063f0bd87cc146106de578063f5f5d0ba14610709578063f5fa96e514610734578063f72c0d8b1461075f578063fd141f5c1461078a57610204565b8063d4d5d32a14610643578063d547741f1461064d578063ddca3f4314610676578063deea2b9b146106a157610204565b8063a4214c18116100dc578063a4214c1814610585578063b18b78dd146105b0578063c0b87a48146105db578063ced72f871461061857610204565b806391d14854146104c75780639575f6ac14610504578063a11c898e1461052f578063a217fddf1461055a57610204565b80633659cfe6116101905780635301828f1161015f5780635301828f1461042957806357d775f8146104525780635b71d6991461047d578063727682ad146104875780637adbf9731461049e57610204565b80633659cfe6146103905780633844abef146103b95780634f1ef286146103e257806352d1902d146103fe57610204565b8063248a9ca3116101cc578063248a9ca3146102d657806326afe980146103135780632f2ff15d1461033e57806336568abe1461036757610204565b806301ffc9a7146102095780630ceb2cef146102465780630e2c93121461026f5780632354f69b146102ad57610204565b3661020457005b600080fd5b34801561021557600080fd5b50610230600480360381019061022b919061353e565b6107b5565b60405161023d9190613b2b565b60405180910390f35b34801561025257600080fd5b5061026d60048036038101906102689190613567565b61082f565b005b34801561027b57600080fd5b50610296600480360381019061029191906135b9565b610864565b6040516102a4929190613abe565b60405180910390f35b3480156102b957600080fd5b506102d460048036038101906102cf91906135e2565b610948565b005b3480156102e257600080fd5b506102fd60048036038101906102f891906134b0565b610c6c565b60405161030a9190613b46565b60405180910390f35b34801561031f57600080fd5b50610328610c8c565b6040516103359190613d1e565b60405180910390f35b34801561034a57600080fd5b5061036560048036038101906103609190613502565b610d33565b005b34801561037357600080fd5b5061038e60048036038101906103899190613502565b610d54565b005b34801561039c57600080fd5b506103b760048036038101906103b29190613315565b610dd7565b005b3480156103c557600080fd5b506103e060048036038101906103db919061333e565b610f86565b005b6103fc60048036038101906103f791906133f7565b6113f6565b005b34801561040a57600080fd5b50610413611533565b6040516104209190613b46565b60405180910390f35b34801561043557600080fd5b50610450600480360381019061044b919061344b565b6115ec565b005b34801561045e57600080fd5b50610467611838565b6040516104749190613d1e565b60405180910390f35b61048561183e565b005b34801561049357600080fd5b5061049c611b24565b005b3480156104aa57600080fd5b506104c560048036038101906104c09190613315565b611bd6565b005b3480156104d357600080fd5b506104ee60048036038101906104e99190613502565b611c45565b6040516104fb9190613b2b565b60405180910390f35b34801561051057600080fd5b50610519611cb0565b6040516105269190613ae7565b60405180910390f35b34801561053b57600080fd5b50610544611d3e565b6040516105519190613d1e565b60405180910390f35b34801561056657600080fd5b5061056f611d48565b60405161057c9190613b46565b60405180910390f35b34801561059157600080fd5b5061059a611d4f565b6040516105a79190613d39565b60405180910390f35b3480156105bc57600080fd5b506105c5611d66565b6040516105d29190613aa3565b60405180910390f35b3480156105e757600080fd5b5061060260048036038101906105fd91906135b9565b611d90565b60405161060f9190613d1e565b60405180910390f35b34801561062457600080fd5b5061062d611e22565b60405161063a9190613d1e565b60405180910390f35b61064b611e71565b005b34801561065957600080fd5b50610674600480360381019061066f9190613502565b6122df565b005b34801561068257600080fd5b5061068b612300565b6040516106989190613d1e565b60405180910390f35b3480156106ad57600080fd5b506106c860048036038101906106c39190613315565b612306565b6040516106d59190613b2b565b60405180910390f35b3480156106ea57600080fd5b506106f36123db565b6040516107009190613b46565b60405180910390f35b34801561071557600080fd5b5061071e6123ff565b60405161072b9190613d1e565b60405180910390f35b34801561074057600080fd5b5061074961240a565b6040516107569190613d1e565b60405180910390f35b34801561076b57600080fd5b50610774612410565b6040516107819190613b46565b60405180910390f35b34801561079657600080fd5b5061079f612434565b6040516107ac9190613b09565b60405180910390f35b60007f7965db0b000000000000000000000000000000000000000000000000000000007bffffffffffffffffffffffffffffffffffffffffffffffffffffffff1916827bffffffffffffffffffffffffffffffffffffffffffffffffffffffff191614806108285750610827826124b3565b5b9050919050565b7ffbd454f36a7e1a388bd6fc3ab10d434aa4578f811acbbcf33afb1c697486313c6108598161251d565b816000819055505050565b600080600060ff8460ff16815481106108a6577f4e487b7100000000000000000000000000000000000000000000000000000000600052603260045260246000fd5b9060005260206000200160009054906101000a900473ffffffffffffffffffffffffffffffffffffffff16905060006101008560ff1681548110610913577f4e487b7100000000000000000000000000000000000000000000000000000000600052603260045260246000fd5b90600052602060002090602091828204019190069054906101000a900460ff16905081818060ff169050935093505050915091565b7ffbd454f36a7e1a388bd6fc3ab10d434aa4578f811acbbcf33afb1c697486313c6109728161251d565b600073ffffffffffffffffffffffffffffffffffffffff168373ffffffffffffffffffffffffffffffffffffffff1614806109b95750600015156109b584612306565b1515145b15610a30576040518060400160405280600381526020017f31323300000000000000000000000000000000000000000000000000000000008152506040517f08c379a0000000000000000000000000000000000000000000000000000000008152600401610a279190613b7c565b60405180910390fd5b60048460ff161115610aae576040518060400160405280600381526020017f31313100000000000000000000000000000000000000000000000000000000008152506040517f08c379a0000000000000000000000000000000000000000000000000000000008152600401610aa59190613b7c565b60405180910390fd5b8260ff8560ff1681548110610aec577f4e487b7100000000000000000000000000000000000000000000000000000000600052603260045260246000fd5b9060005260206000200160006101000a81548173ffffffffffffffffffffffffffffffffffffffff021916908373ffffffffffffffffffffffffffffffffffffffff1602179055506101008460ff1681548110610b72577f4e487b7100000000000000000000000000000000000000000000000000000000600052603260045260246000fd5b90600052602060002090602091828204019190069054906101000a900460ff1660fe60008282829054906101000a900460ff16610baf9190613fc9565b92506101000a81548160ff021916908360ff160217905550816101008560ff1681548110610c06577f4e487b7100000000000000000000000000000000000000000000000000000000600052603260045260246000fd5b90600052602060002090602091828204019190066101000a81548160ff021916908360ff1602179055508160fe60008282829054906101000a900460ff16610c4e9190613f07565b92506101000a81548160ff021916908360ff16021790555050505050565b600060686000838152602001908152602001600020600101549050919050565b600060fe60019054906101000a900473ffffffffffffffffffffffffffffffffffffffff1673ffffffffffffffffffffffffffffffffffffffff16637eeda7036040518163ffffffff1660e01b815260040160206040518083038186803b158015610cf657600080fd5b505afa158015610d0a573d6000803e3d6000fd5b505050506040513d601f19601f82011682018060405250810190610d2e9190613590565b905090565b610d3c82610c6c565b610d458161251d565b610d4f8383612531565b505050565b610d5c612612565b73ffffffffffffffffffffffffffffffffffffffff168173ffffffffffffffffffffffffffffffffffffffff1614610dc9576040517f08c379a0000000000000000000000000000000000000000000000000000000008152600401610dc090613cfe565b60405180910390fd5b610dd3828261261a565b5050565b7f000000000000000000000000000000000000000000000000000000000000000073ffffffffffffffffffffffffffffffffffffffff163073ffffffffffffffffffffffffffffffffffffffff161415610e66576040517f08c379a0000000000000000000000000000000000000000000000000000000008152600401610e5d90613bbe565b60405180910390fd5b7f000000000000000000000000000000000000000000000000000000000000000073ffffffffffffffffffffffffffffffffffffffff16610ea56126fc565b73ffffffffffffffffffffffffffffffffffffffff1614610efb576040517f08c379a0000000000000000000000000000000000000000000000000000000008152600401610ef290613bde565b60405180910390fd5b610f0481612753565b610f8381600067ffffffffffffffff811115610f49577f4e487b7100000000000000000000000000000000000000000000000000000000600052604160045260246000fd5b6040519080825280601f01601f191660200182016040528015610f7b5781602001600182028036833780820191505090505b506000612781565b50565b6000600360019054906101000a900460ff16159050808015610fba57506001600360009054906101000a900460ff1660ff16105b80610fe95750610fc9306128fe565b158015610fe857506001600360009054906101000a900460ff1660ff16145b5b611028576040517f08c379a000000000000000000000000000000000000000000000000000000000815260040161101f90613c5e565b60405180910390fd5b6001600360006101000a81548160ff021916908360ff1602179055508015611066576001600360016101000a81548160ff0219169083151502179055505b61106e612921565b611076612972565b6110836000801b3361261a565b6110ad7f189ab7a9244df0848122154315af71fe140f3db0fe014031783b0946b8c9d2e385612531565b6110ba6000801b84612531565b6110e47ffbd454f36a7e1a388bd6fc3ab10d434aa4578f811acbbcf33afb1c697486313c83612531565b6005865111806110f5575060058551115b1561116c576040518060400160405280600381526020017f31323400000000000000000000000000000000000000000000000000000000008152506040517f08c379a00000000000000000000000000000000000000000000000000000000081526004016111639190613b7c565b60405180910390fd5b426101018190555062015180600081905550620151804261118d9190613eb1565b6001819055508660fe60016101000a81548173ffffffffffffffffffffffffffffffffffffffff021916908373ffffffffffffffffffffffffffffffffffffffff16021790555060005b865181101561139257858181518110611219577f4e487b7100000000000000000000000000000000000000000000000000000000600052603260045260246000fd5b602002602001015160fe60008282829054906101000a900460ff1661123e9190613f07565b92506101000a81548160ff021916908360ff16021790555060ff878281518110611291577f4e487b7100000000000000000000000000000000000000000000000000000000600052603260045260246000fd5b60200260200101519080600181540180825580915050600190039060005260206000200160009091909190916101000a81548173ffffffffffffffffffffffffffffffffffffffff021916908373ffffffffffffffffffffffffffffffffffffffff160217905550610100868281518110611335577f4e487b7100000000000000000000000000000000000000000000000000000000600052603260045260246000fd5b602002602001015190806001815401808255809150506001900390600052602060002090602091828204019190069091909190916101000a81548160ff021916908360ff160217905550808061138a90614137565b9150506111d7565b5080156113ed576000600360016101000a81548160ff0219169083151502179055507f7f26b83ff96e1f2b6a682f133852f6798a09c465da95921460cefb384740249860016040516113e49190613b61565b60405180910390a15b50505050505050565b7f000000000000000000000000000000000000000000000000000000000000000073ffffffffffffffffffffffffffffffffffffffff163073ffffffffffffffffffffffffffffffffffffffff161415611485576040517f08c379a000000000000000000000000000000000000000000000000000000000815260040161147c90613bbe565b60405180910390fd5b7f000000000000000000000000000000000000000000000000000000000000000073ffffffffffffffffffffffffffffffffffffffff166114c46126fc565b73ffffffffffffffffffffffffffffffffffffffff161461151a576040517f08c379a000000000000000000000000000000000000000000000000000000000815260040161151190613bde565b60405180910390fd5b61152382612753565b61152f82826001612781565b5050565b60007f000000000000000000000000000000000000000000000000000000000000000073ffffffffffffffffffffffffffffffffffffffff163073ffffffffffffffffffffffffffffffffffffffff16146115c3576040517f08c379a00000000000000000000000000000000000000000000000000000000081526004016115ba90613bfe565b60405180910390fd5b7f360894a13ba1a3210667c828492db98dca3e2076cc3735a920a3ca505d382bbc60001b905090565b7ffbd454f36a7e1a388bd6fc3ab10d434aa4578f811acbbcf33afb1c697486313c6116168161251d565b600560ff805490501415611696576040518060400160405280600381526020017f31323400000000000000000000000000000000000000000000000000000000008152506040517f08c379a000000000000000000000000000000000000000000000000000000000815260040161168d9190613b7c565b60405180910390fd5b600015156116a384612306565b151514806116dd57508273ffffffffffffffffffffffffffffffffffffffff16600073ffffffffffffffffffffffffffffffffffffffff16145b15611754576040518060400160405280600381526020017f31323300000000000000000000000000000000000000000000000000000000008152506040517f08c379a000000000000000000000000000000000000000000000000000000000815260040161174b9190613b7c565b60405180910390fd5b60ff839080600181540180825580915050600190039060005260206000200160009091909190916101000a81548173ffffffffffffffffffffffffffffffffffffffff021916908373ffffffffffffffffffffffffffffffffffffffff1602179055506101008290806001815401808255809150506001900390600052602060002090602091828204019190069091909190916101000a81548160ff021916908360ff1602179055508160fe60008282829054906101000a900460ff1661181b9190613f07565b92506101000a81548160ff021916908360ff160217905550505050565b60005481565b7ffbd454f36a7e1a388bd6fc3ab10d434aa4578f811acbbcf33afb1c697486313c6118688161251d565b600047905060005b60ff80549050811015611b0e57600060fe60009054906101000a900460ff1660ff1661010083815481106118cd577f4e487b7100000000000000000000000000000000000000000000000000000000600052603260045260246000fd5b90600052602060002090602091828204019190069054906101000a900460ff1660ff16846118fb9190613f6f565b6119059190613f3e565b9050600060ff8381548110611943577f4e487b7100000000000000000000000000000000000000000000000000000000600052603260045260246000fd5b9060005260206000200160009054906101000a900473ffffffffffffffffffffffffffffffffffffffff1673ffffffffffffffffffffffffffffffffffffffff168260405161199190613a54565b60006040518083038185875af1925050503d80600081146119ce576040519150601f19603f3d011682016040523d82523d6000602084013e6119d3565b606091505b50509050806040518060400160405280600381526020017f313132000000000000000000000000000000000000000000000000000000000081525090611a4f576040517f08c379a0000000000000000000000000000000000000000000000000000000008152600401611a469190613b7c565b60405180910390fd5b508160ff8481548110611a8b577f4e487b7100000000000000000000000000000000000000000000000000000000600052603260045260246000fd5b9060005260206000200160009054906101000a900473ffffffffffffffffffffffffffffffffffffffff1673ffffffffffffffffffffffffffffffffffffffff16427f42affc57c2b30e1ac5957640cfb86fcd839a295d2ec7eed57db385dd03aecd2c60405160405180910390a450508080611b0690614137565b915050611870565b50611b176129c3565b5042610101819055505050565b600154421180611b3657506000600254145b15611b6257611b43610c8c565b60028190555060005442611b579190613eb1565b600181905550611bd4565b6040518060400160405280600381526020017f31323100000000000000000000000000000000000000000000000000000000008152506040517f08c379a0000000000000000000000000000000000000000000000000000000008152600401611bcb9190613b7c565b60405180910390fd5b565b7ffbd454f36a7e1a388bd6fc3ab10d434aa4578f811acbbcf33afb1c697486313c611c008161251d565b8160fe60016101000a81548173ffffffffffffffffffffffffffffffffffffffff021916908373ffffffffffffffffffffffffffffffffffffffff1602179055505050565b60006068600084815260200190815260200160002060000160008373ffffffffffffffffffffffffffffffffffffffff1673ffffffffffffffffffffffffffffffffffffffff16815260200190815260200160002060009054906101000a900460ff16905092915050565b606060ff805480602002602001604051908101604052809291908181526020018280548015611d3457602002820191906000526020600020905b8160009054906101000a900473ffffffffffffffffffffffffffffffffffffffff1673ffffffffffffffffffffffffffffffffffffffff1681526020019060010190808311611cea575b5050505050905090565b6000600154905090565b6000801b81565b600060fe60009054906101000a900460ff16905090565b600060fe60019054906101000a900473ffffffffffffffffffffffffffffffffffffffff16905090565b600060fe60009054906101000a900460ff1660ff16476101008460ff1681548110611de4577f4e487b7100000000000000000000000000000000000000000000000000000000600052603260045260246000fd5b90600052602060002090602091828204019190069054906101000a900460ff1660ff16611e119190613f6f565b611e1b9190613f3e565b9050919050565b6000426001541015611e69576040517f08c379a0000000000000000000000000000000000000000000000000000000008152600401611e6090613c1e565b60405180910390fd5b600254905090565b60005461010154611e829190613eb1565b421180611eb55750611eb47ffbd454f36a7e1a388bd6fc3ab10d434aa4578f811acbbcf33afb1c697486313c33611c45565b5b1561226b576000611ec4610c8c565b905060003273ffffffffffffffffffffffffffffffffffffffff1682604051611eec90613a54565b60006040518083038185875af1925050503d8060008114611f29576040519150601f19603f3d011682016040523d82523d6000602084013e611f2e565b606091505b50509050806040518060400160405280600381526020017f313232000000000000000000000000000000000000000000000000000000000081525090611faa576040517f08c379a0000000000000000000000000000000000000000000000000000000008152600401611fa19190613b7c565b60405180910390fd5b50600047905060005b60ff8054905081101561225157600060fe60009054906101000a900460ff1660ff166101008381548110612010577f4e487b7100000000000000000000000000000000000000000000000000000000600052603260045260246000fd5b90600052602060002090602091828204019190069054906101000a900460ff1660ff168461203e9190613f6f565b6120489190613f3e565b9050600060ff8381548110612086577f4e487b7100000000000000000000000000000000000000000000000000000000600052603260045260246000fd5b9060005260206000200160009054906101000a900473ffffffffffffffffffffffffffffffffffffffff1673ffffffffffffffffffffffffffffffffffffffff16826040516120d490613a54565b60006040518083038185875af1925050503d8060008114612111576040519150601f19603f3d011682016040523d82523d6000602084013e612116565b606091505b50509050806040518060400160405280600381526020017f313132000000000000000000000000000000000000000000000000000000000081525090612192576040517f08c379a00000000000000000000000000000000000000000000000000000000081526004016121899190613b7c565b60405180910390fd5b508160ff84815481106121ce577f4e487b7100000000000000000000000000000000000000000000000000000000600052603260045260246000fd5b9060005260206000200160009054906101000a900473ffffffffffffffffffffffffffffffffffffffff1673ffffffffffffffffffffffffffffffffffffffff16427f42affc57c2b30e1ac5957640cfb86fcd839a295d2ec7eed57db385dd03aecd2c60405160405180910390a45050808061224990614137565b915050611fb3565b5042610101819055506122626129c3565b505050506122dd565b6040518060400160405280600381526020017f31323100000000000000000000000000000000000000000000000000000000008152506040517f08c379a00000000000000000000000000000000000000000000000000000000081526004016122d49190613b7c565b60405180910390fd5b565b6122e882610c6c565b6122f18161251d565b6122fb838361261a565b505050565b60025481565b600080600090505b60ff805490508110156123d0578273ffffffffffffffffffffffffffffffffffffffff1660ff828154811061236c577f4e487b7100000000000000000000000000000000000000000000000000000000600052603260045260246000fd5b9060005260206000200160009054906101000a900473ffffffffffffffffffffffffffffffffffffffff1673ffffffffffffffffffffffffffffffffffffffff1614156123bd5760009150506123d6565b80806123c890614137565b91505061230e565b50600190505b919050565b7ffbd454f36a7e1a388bd6fc3ab10d434aa4578f811acbbcf33afb1c697486313c81565b600061010154905090565b60015481565b7f189ab7a9244df0848122154315af71fe140f3db0fe014031783b0946b8c9d2e381565b60606101008054806020026020016040519081016040528092919081815260200182805480156124a957602002820191906000526020600020906000905b82829054906101000a900460ff1660ff16815260200190600101906020826000010492830192600103820291508084116124725790505b5050505050905090565b60007f01ffc9a7000000000000000000000000000000000000000000000000000000007bffffffffffffffffffffffffffffffffffffffffffffffffffffffff1916827bffffffffffffffffffffffffffffffffffffffffffffffffffffffff1916149050919050565b61252e81612529612612565b612a6c565b50565b61253b8282611c45565b61260e5760016068600084815260200190815260200160002060000160008373ffffffffffffffffffffffffffffffffffffffff1673ffffffffffffffffffffffffffffffffffffffff16815260200190815260200160002060006101000a81548160ff0219169083151502179055506125b3612612565b73ffffffffffffffffffffffffffffffffffffffff168173ffffffffffffffffffffffffffffffffffffffff16837f2f8788117e7eff1d82e926ec794901d17c78024a50270940304540a733656f0d60405160405180910390a45b5050565b600033905090565b6126248282611c45565b156126f85760006068600084815260200190815260200160002060000160008373ffffffffffffffffffffffffffffffffffffffff1673ffffffffffffffffffffffffffffffffffffffff16815260200190815260200160002060006101000a81548160ff02191690831515021790555061269d612612565b73ffffffffffffffffffffffffffffffffffffffff168173ffffffffffffffffffffffffffffffffffffffff16837ff6391f5c32d9c69d2a47ea670b442974b53935d1edc7fd64eb21e047a839171b60405160405180910390a45b5050565b600061272a7f360894a13ba1a3210667c828492db98dca3e2076cc3735a920a3ca505d382bbc60001b612af1565b60000160009054906101000a900473ffffffffffffffffffffffffffffffffffffffff16905090565b7f189ab7a9244df0848122154315af71fe140f3db0fe014031783b0946b8c9d2e361277d8161251d565b5050565b6127ad7f4910fdfa16fed3260ed0e7147f7cc6da11a60208b5b9406d12a635614ffd914360001b612afb565b60000160009054906101000a900460ff16156127d1576127cc83612b05565b6128f9565b8273ffffffffffffffffffffffffffffffffffffffff166352d1902d6040518163ffffffff1660e01b815260040160206040518083038186803b15801561281757600080fd5b505afa92505050801561284857506040513d601f19601f8201168201806040525081019061284591906134d9565b60015b612887576040517f08c379a000000000000000000000000000000000000000000000000000000000815260040161287e90613c7e565b60405180910390fd5b7f360894a13ba1a3210667c828492db98dca3e2076cc3735a920a3ca505d382bbc60001b81146128ec576040517f08c379a00000000000000000000000000000000000000000000000000000000081526004016128e390613c3e565b60405180910390fd5b506128f8838383612bbe565b5b505050565b6000808273ffffffffffffffffffffffffffffffffffffffff163b119050919050565b600360019054906101000a900460ff16612970576040517f08c379a000000000000000000000000000000000000000000000000000000000815260040161296790613cde565b60405180910390fd5b565b600360019054906101000a900460ff166129c1576040517f08c379a00000000000000000000000000000000000000000000000000000000081526004016129b890613cde565b60405180910390fd5b565b600060fe60019054906101000a900473ffffffffffffffffffffffffffffffffffffffff1673ffffffffffffffffffffffffffffffffffffffff1663e58456e96040518163ffffffff1660e01b8152600401602060405180830381600087803b158015612a2f57600080fd5b505af1158015612a43573d6000803e3d6000fd5b505050506040513d601f19601f82011682018060405250810190612a679190613487565b905090565b612a768282611c45565b612aed57612a8381612bea565b612a918360001c6020612c17565b604051602001612aa2929190613a69565b6040516020818303038152906040526040517f08c379a0000000000000000000000000000000000000000000000000000000008152600401612ae49190613b7c565b60405180910390fd5b5050565b6000819050919050565b6000819050919050565b612b0e816128fe565b612b4d576040517f08c379a0000000000000000000000000000000000000000000000000000000008152600401612b4490613c9e565b60405180910390fd5b80612b7a7f360894a13ba1a3210667c828492db98dca3e2076cc3735a920a3ca505d382bbc60001b612af1565b60000160006101000a81548173ffffffffffffffffffffffffffffffffffffffff021916908373ffffffffffffffffffffffffffffffffffffffff16021790555050565b612bc783612f11565b600082511180612bd45750805b15612be557612be38383612f60565b505b505050565b6060612c108273ffffffffffffffffffffffffffffffffffffffff16601460ff16612c17565b9050919050565b606060006002836002612c2a9190613f6f565b612c349190613eb1565b67ffffffffffffffff811115612c73577f4e487b7100000000000000000000000000000000000000000000000000000000600052604160045260246000fd5b6040519080825280601f01601f191660200182016040528015612ca55781602001600182028036833780820191505090505b5090507f300000000000000000000000000000000000000000000000000000000000000081600081518110612d03577f4e487b7100000000000000000000000000000000000000000000000000000000600052603260045260246000fd5b60200101907effffffffffffffffffffffffffffffffffffffffffffffffffffffffffffff1916908160001a9053507f780000000000000000000000000000000000000000000000000000000000000081600181518110612d8d577f4e487b7100000000000000000000000000000000000000000000000000000000600052603260045260246000fd5b60200101907effffffffffffffffffffffffffffffffffffffffffffffffffffffffffffff1916908160001a90535060006001846002612dcd9190613f6f565b612dd79190613eb1565b90505b6001811115612ec3577f3031323334353637383961626364656600000000000000000000000000000000600f861660108110612e3f577f4e487b7100000000000000000000000000000000000000000000000000000000600052603260045260246000fd5b1a60f81b828281518110612e7c577f4e487b7100000000000000000000000000000000000000000000000000000000600052603260045260246000fd5b60200101907effffffffffffffffffffffffffffffffffffffffffffffffffffffffffffff1916908160001a905350600485901c945080612ebc906140dc565b9050612dda565b5060008414612f07576040517f08c379a0000000000000000000000000000000000000000000000000000000008152600401612efe90613b9e565b60405180910390fd5b8091505092915050565b612f1a81612b05565b8073ffffffffffffffffffffffffffffffffffffffff167fbc7cd75a20ee27fd9adebab32041f755214dbc6bffa90cc0225b39da2e5c2d3b60405160405180910390a250565b6060612f85838360405180606001604052806027815260200161464060279139612f8d565b905092915050565b60606000808573ffffffffffffffffffffffffffffffffffffffff1685604051612fb79190613a3d565b600060405180830381855af49150503d8060008114612ff2576040519150601f19603f3d011682016040523d82523d6000602084013e612ff7565b606091505b509150915061300886838387613013565b925050509392505050565b606083156130765760008351141561306e5761302e856128fe565b61306d576040517f08c379a000000000000000000000000000000000000000000000000000000000815260040161306490613cbe565b60405180910390fd5b5b829050613081565b6130808383613089565b5b949350505050565b60008251111561309c5781518083602001fd5b806040517f08c379a00000000000000000000000000000000000000000000000000000000081526004016130d09190613b7c565b60405180910390fd5b60006130ec6130e784613d79565b613d54565b9050808382526020820190508285602086028201111561310b57600080fd5b60005b8581101561313b578161312188826131ef565b84526020840193506020830192505060018101905061310e565b5050509392505050565b600061315861315384613da5565b613d54565b9050808382526020820190508285602086028201111561317757600080fd5b60005b858110156131a7578161318d8882613300565b84526020840193506020830192505060018101905061317a565b5050509392505050565b60006131c46131bf84613dd1565b613d54565b9050828152602081018484840111156131dc57600080fd5b6131e784828561409a565b509392505050565b6000813590506131fe816145b5565b92915050565b600082601f83011261321557600080fd5b81356132258482602086016130d9565b91505092915050565b600082601f83011261323f57600080fd5b813561324f848260208601613145565b91505092915050565b600081519050613267816145cc565b92915050565b60008135905061327c816145e3565b92915050565b600081519050613291816145e3565b92915050565b6000813590506132a6816145fa565b92915050565b600082601f8301126132bd57600080fd5b81356132cd8482602086016131b1565b91505092915050565b6000813590506132e581614611565b92915050565b6000815190506132fa81614611565b92915050565b60008135905061330f81614628565b92915050565b60006020828403121561332757600080fd5b6000613335848285016131ef565b91505092915050565b60008060008060008060c0878903121561335757600080fd5b600061336589828a016131ef565b965050602087013567ffffffffffffffff81111561338257600080fd5b61338e89828a01613204565b955050604087013567ffffffffffffffff8111156133ab57600080fd5b6133b789828a0161322e565b94505060606133c889828a016131ef565b93505060806133d989828a016131ef565b92505060a06133ea89828a016131ef565b9150509295509295509295565b6000806040838503121561340a57600080fd5b6000613418858286016131ef565b925050602083013567ffffffffffffffff81111561343557600080fd5b613441858286016132ac565b9150509250929050565b6000806040838503121561345e57600080fd5b600061346c858286016131ef565b925050602061347d85828601613300565b9150509250929050565b60006020828403121561349957600080fd5b60006134a784828501613258565b91505092915050565b6000602082840312156134c257600080fd5b60006134d08482850161326d565b91505092915050565b6000602082840312156134eb57600080fd5b60006134f984828501613282565b91505092915050565b6000806040838503121561351557600080fd5b60006135238582860161326d565b9250506020613534858286016131ef565b9150509250929050565b60006020828403121561355057600080fd5b600061355e84828501613297565b91505092915050565b60006020828403121561357957600080fd5b6000613587848285016132d6565b91505092915050565b6000602082840312156135a257600080fd5b60006135b0848285016132eb565b91505092915050565b6000602082840312156135cb57600080fd5b60006135d984828501613300565b91505092915050565b6000806000606084860312156135f757600080fd5b600061360586828701613300565b9350506020613616868287016131ef565b925050604061362786828701613300565b9150509250925092565b600061363d8383613661565b60208301905092915050565b60006136558383613a1f565b60208301905092915050565b61366a81613ffd565b82525050565b61367981613ffd565b82525050565b600061368a82613e22565b6136948185613e68565b935061369f83613e02565b8060005b838110156136d05781516136b78882613631565b97506136c283613e4e565b9250506001810190506136a3565b5085935050505092915050565b60006136e882613e2d565b6136f28185613e79565b93506136fd83613e12565b8060005b8381101561372e5781516137158882613649565b975061372083613e5b565b925050600181019050613701565b5085935050505092915050565b6137448161400f565b82525050565b6137538161401b565b82525050565b600061376482613e38565b61376e8185613e8a565b935061377e8185602086016140a9565b80840191505092915050565b61379381614088565b82525050565b60006137a482613e43565b6137ae8185613e95565b93506137be8185602086016140a9565b6137c78161420d565b840191505092915050565b60006137dd82613e43565b6137e78185613ea6565b93506137f78185602086016140a9565b80840191505092915050565b6000613810602083613e95565b915061381b8261421e565b602082019050919050565b6000613833602c83613e95565b915061383e82614247565b604082019050919050565b6000613856602c83613e95565b915061386182614296565b604082019050919050565b6000613879603883613e95565b9150613884826142e5565b604082019050919050565b600061389c600a83613e95565b91506138a782614334565b602082019050919050565b60006138bf602983613e95565b91506138ca8261435d565b604082019050919050565b60006138e2602e83613e95565b91506138ed826143ac565b604082019050919050565b6000613905602e83613e95565b9150613910826143fb565b604082019050919050565b6000613928602d83613e95565b91506139338261444a565b604082019050919050565b600061394b600083613e8a565b915061395682614499565b600082019050919050565b600061396e601d83613e95565b91506139798261449c565b602082019050919050565b6000613991602b83613e95565b915061399c826144c5565b604082019050919050565b60006139b4601783613ea6565b91506139bf82614514565b601782019050919050565b60006139d7601183613ea6565b91506139e28261453d565b601182019050919050565b60006139fa602f83613e95565b9150613a0582614566565b604082019050919050565b613a1981614071565b82525050565b613a288161407b565b82525050565b613a378161407b565b82525050565b6000613a498284613759565b915081905092915050565b6000613a5f8261393e565b9150819050919050565b6000613a74826139a7565b9150613a8082856137d2565b9150613a8b826139ca565b9150613a9782846137d2565b91508190509392505050565b6000602082019050613ab86000830184613670565b92915050565b6000604082019050613ad36000830185613670565b613ae06020830184613a10565b9392505050565b60006020820190508181036000830152613b01818461367f565b905092915050565b60006020820190508181036000830152613b2381846136dd565b905092915050565b6000602082019050613b40600083018461373b565b92915050565b6000602082019050613b5b600083018461374a565b92915050565b6000602082019050613b76600083018461378a565b92915050565b60006020820190508181036000830152613b968184613799565b905092915050565b60006020820190508181036000830152613bb781613803565b9050919050565b60006020820190508181036000830152613bd781613826565b9050919050565b60006020820190508181036000830152613bf781613849565b9050919050565b60006020820190508181036000830152613c178161386c565b9050919050565b60006020820190508181036000830152613c378161388f565b9050919050565b60006020820190508181036000830152613c57816138b2565b9050919050565b60006020820190508181036000830152613c77816138d5565b9050919050565b60006020820190508181036000830152613c97816138f8565b9050919050565b60006020820190508181036000830152613cb78161391b565b9050919050565b60006020820190508181036000830152613cd781613961565b9050919050565b60006020820190508181036000830152613cf781613984565b9050919050565b60006020820190508181036000830152613d17816139ed565b9050919050565b6000602082019050613d336000830184613a10565b92915050565b6000602082019050613d4e6000830184613a2e565b92915050565b6000613d5e613d6f565b9050613d6a8282614106565b919050565b6000604051905090565b600067ffffffffffffffff821115613d9457613d936141de565b5b602082029050602081019050919050565b600067ffffffffffffffff821115613dc057613dbf6141de565b5b602082029050602081019050919050565b600067ffffffffffffffff821115613dec57613deb6141de565b5b613df58261420d565b9050602081019050919050565b6000819050602082019050919050565b6000819050602082019050919050565b600081519050919050565b600081519050919050565b600081519050919050565b600081519050919050565b6000602082019050919050565b6000602082019050919050565b600082825260208201905092915050565b600082825260208201905092915050565b600081905092915050565b600082825260208201905092915050565b600081905092915050565b6000613ebc82614071565b9150613ec783614071565b9250827fffffffffffffffffffffffffffffffffffffffffffffffffffffffffffffffff03821115613efc57613efb614180565b5b828201905092915050565b6000613f128261407b565b9150613f1d8361407b565b92508260ff03821115613f3357613f32614180565b5b828201905092915050565b6000613f4982614071565b9150613f5483614071565b925082613f6457613f636141af565b5b828204905092915050565b6000613f7a82614071565b9150613f8583614071565b9250817fffffffffffffffffffffffffffffffffffffffffffffffffffffffffffffffff0483118215151615613fbe57613fbd614180565b5b828202905092915050565b6000613fd48261407b565b9150613fdf8361407b565b925082821015613ff257613ff1614180565b5b828203905092915050565b600061400882614051565b9050919050565b60008115159050919050565b6000819050919050565b60007fffffffff0000000000000000000000000000000000000000000000000000000082169050919050565b600073ffffffffffffffffffffffffffffffffffffffff82169050919050565b6000819050919050565b600060ff82169050919050565b60006140938261407b565b9050919050565b82818337600083830152505050565b60005b838110156140c75780820151818401526020810190506140ac565b838111156140d6576000848401525b50505050565b60006140e782614071565b915060008214156140fb576140fa614180565b5b600182039050919050565b61410f8261420d565b810181811067ffffffffffffffff8211171561412e5761412d6141de565b5b80604052505050565b600061414282614071565b91507fffffffffffffffffffffffffffffffffffffffffffffffffffffffffffffffff82141561417557614174614180565b5b600182019050919050565b7f4e487b7100000000000000000000000000000000000000000000000000000000600052601160045260246000fd5b7f4e487b7100000000000000000000000000000000000000000000000000000000600052601260045260246000fd5b7f4e487b7100000000000000000000000000000000000000000000000000000000600052604160045260246000fd5b6000601f19601f8301169050919050565b7f537472696e67733a20686578206c656e67746820696e73756666696369656e74600082015250565b7f46756e6374696f6e206d7573742062652063616c6c6564207468726f7567682060008201527f64656c656761746563616c6c0000000000000000000000000000000000000000602082015250565b7f46756e6374696f6e206d7573742062652063616c6c6564207468726f7567682060008201527f6163746976652070726f78790000000000000000000000000000000000000000602082015250565b7f555550535570677261646561626c653a206d757374206e6f742062652063616c60008201527f6c6564207468726f7567682064656c656761746563616c6c0000000000000000602082015250565b7f7265736574466565282900000000000000000000000000000000000000000000600082015250565b7f45524331393637557067726164653a20756e737570706f727465642070726f7860008201527f6961626c65555549440000000000000000000000000000000000000000000000602082015250565b7f496e697469616c697a61626c653a20636f6e747261637420697320616c72656160008201527f647920696e697469616c697a6564000000000000000000000000000000000000602082015250565b7f45524331393637557067726164653a206e657720696d706c656d656e7461746960008201527f6f6e206973206e6f742055555053000000000000000000000000000000000000602082015250565b7f455243313936373a206e657720696d706c656d656e746174696f6e206973206e60008201527f6f74206120636f6e747261637400000000000000000000000000000000000000602082015250565b50565b7f416464726573733a2063616c6c20746f206e6f6e2d636f6e7472616374000000600082015250565b7f496e697469616c697a61626c653a20636f6e7472616374206973206e6f74206960008201527f6e697469616c697a696e67000000000000000000000000000000000000000000602082015250565b7f416363657373436f6e74726f6c3a206163636f756e7420000000000000000000600082015250565b7f206973206d697373696e6720726f6c6520000000000000000000000000000000600082015250565b7f416363657373436f6e74726f6c3a2063616e206f6e6c792072656e6f756e636560008201527f20726f6c657320666f722073656c660000000000000000000000000000000000602082015250565b6145be81613ffd565b81146145c957600080fd5b50565b6145d58161400f565b81146145e057600080fd5b50565b6145ec8161401b565b81146145f757600080fd5b50565b61460381614025565b811461460e57600080fd5b50565b61461a81614071565b811461462557600080fd5b50565b6146318161407b565b811461463c57600080fd5b5056fe416464726573733a206c6f772d6c6576656c2064656c65676174652063616c6c206661696c6564a264697066735822122012982c6b78ad13d4bdf1cf981f84a598d4766e88a425b006b40026237abd5b0d64736f6c63430008020033",
  "linkReferences": {},
  "deployedLinkReferences": {}
}