{
  "_format": "hh-sol-artifact-1",
  "contractName": "FeeContract",
  "sourceName": "contracts/FeeContract.sol",
  "abi": [
    {
      "anonymous": false,
      "inputs": [
        {
          "indexed": true,
          "internalType": "uint256",
          "name": "timestamp",
          "type": "uint256"
        },
        {
          "indexed": true,
          "internalType": "address",
          "name": "to",
          "type": "address"
        },
        {
          "indexed": true,
          "internalType": "uint256",
          "name": "amount",
          "type": "uint256"
        }
      ],
      "name": "FeesDistributed",
      "type": "event"
    },
    {
      "anonymous": false,
      "inputs": [
        {
          "indexed": false,
          "internalType": "uint8",
          "name": "version",
          "type": "uint8"
        }
      ],
      "name": "Initialized",
      "type": "event"
    },
    {
      "anonymous": false,
      "inputs": [
        {
          "indexed": true,
          "internalType": "bytes32",
          "name": "role",
          "type": "bytes32"
        },
        {
          "indexed": true,
          "internalType": "bytes32",
          "name": "previousAdminRole",
          "type": "bytes32"
        },
        {
          "indexed": true,
          "internalType": "bytes32",
          "name": "newAdminRole",
          "type": "bytes32"
        }
      ],
      "name": "RoleAdminChanged",
      "type": "event"
    },
    {
      "anonymous": false,
      "inputs": [
        {
          "indexed": true,
          "internalType": "bytes32",
          "name": "role",
          "type": "bytes32"
        },
        {
          "indexed": true,
          "internalType": "address",
          "name": "account",
          "type": "address"
        },
        {
          "indexed": true,
          "internalType": "address",
          "name": "sender",
          "type": "address"
        }
      ],
      "name": "RoleGranted",
      "type": "event"
    },
    {
      "anonymous": false,
      "inputs": [
        {
          "indexed": true,
          "internalType": "bytes32",
          "name": "role",
          "type": "bytes32"
        },
        {
          "indexed": true,
          "internalType": "address",
          "name": "account",
          "type": "address"
        },
        {
          "indexed": true,
          "internalType": "address",
          "name": "sender",
          "type": "address"
        }
      ],
      "name": "RoleRevoked",
      "type": "event"
    },
    {
      "inputs": [],
      "name": "DEFAULT_ADMIN_ROLE",
      "outputs": [
        {
          "internalType": "bytes32",
          "name": "",
          "type": "bytes32"
        }
      ],
      "stateMutability": "view",
      "type": "function"
    },
    {
      "inputs": [],
      "name": "DISTRIBUTOR_ROLE",
      "outputs": [
        {
          "internalType": "bytes32",
          "name": "",
          "type": "bytes32"
        }
      ],
      "stateMutability": "view",
      "type": "function"
    },
    {
      "inputs": [],
      "name": "_resetFee",
      "outputs": [],
      "stateMutability": "nonpayable",
      "type": "function"
    },
    {
      "inputs": [
        {
          "internalType": "address",
          "name": "_newChannelAddress",
          "type": "address"
        },
        {
          "internalType": "uint8",
          "name": "_weight",
          "type": "uint8"
        }
      ],
      "name": "addChannel",
      "outputs": [],
      "stateMutability": "nonpayable",
      "type": "function"
    },
    {
      "inputs": [
        {
          "internalType": "uint8",
          "name": "_index",
          "type": "uint8"
        },
        {
          "internalType": "address",
          "name": "_newChannelAddress",
          "type": "address"
        },
        {
          "internalType": "uint8",
          "name": "_newWeight",
          "type": "uint8"
        }
      ],
      "name": "adjustChannel",
      "outputs": [],
      "stateMutability": "nonpayable",
      "type": "function"
    },
    {
      "inputs": [],
      "name": "collectFee",
      "outputs": [],
      "stateMutability": "payable",
      "type": "function"
    },
    {
      "inputs": [],
      "name": "dayMark",
      "outputs": [
        {
          "internalType": "uint256",
          "name": "",
          "type": "uint256"
        }
      ],
      "stateMutability": "view",
      "type": "function"
    },
    {
      "inputs": [],
      "name": "fee",
      "outputs": [
        {
          "internalType": "uint256",
          "name": "",
          "type": "uint256"
        }
      ],
      "stateMutability": "view",
      "type": "function"
    },
    {
      "inputs": [],
      "name": "forceFee",
      "outputs": [],
      "stateMutability": "payable",
      "type": "function"
    },
    {
      "inputs": [
        {
          "internalType": "uint8",
          "name": "index",
          "type": "uint8"
        }
      ],
      "name": "getChannelWeightByIndex",
      "outputs": [
        {
          "internalType": "address",
          "name": "",
          "type": "address"
        },
        {
          "internalType": "uint256",
          "name": "",
          "type": "uint256"
        }
      ],
      "stateMutability": "view",
      "type": "function"
    },
    {
      "inputs": [],
      "name": "getChannels",
      "outputs": [
        {
          "internalType": "address[]",
          "name": "",
          "type": "address[]"
        }
      ],
      "stateMutability": "view",
      "type": "function"
    },
    {
      "inputs": [],
      "name": "getFee",
      "outputs": [
        {
          "internalType": "uint256",
          "name": "",
          "type": "uint256"
        }
      ],
      "stateMutability": "view",
      "type": "function"
    },
    {
      "inputs": [],
      "name": "getLastDistributionBlock",
      "outputs": [
        {
          "internalType": "uint256",
          "name": "",
          "type": "uint256"
        }
      ],
      "stateMutability": "view",
      "type": "function"
    },
    {
      "inputs": [
        {
          "internalType": "bytes32",
          "name": "role",
          "type": "bytes32"
        }
      ],
      "name": "getRoleAdmin",
      "outputs": [
        {
          "internalType": "bytes32",
          "name": "",
          "type": "bytes32"
        }
      ],
      "stateMutability": "view",
      "type": "function"
    },
    {
      "inputs": [],
      "name": "getTotalContractShares",
      "outputs": [
        {
          "internalType": "uint8",
          "name": "",
          "type": "uint8"
        }
      ],
      "stateMutability": "view",
      "type": "function"
    },
    {
      "inputs": [],
      "name": "getWieghts",
      "outputs": [
        {
          "internalType": "uint8[]",
          "name": "",
          "type": "uint8[]"
        }
      ],
      "stateMutability": "view",
      "type": "function"
    },
    {
      "inputs": [
        {
          "internalType": "bytes32",
          "name": "role",
          "type": "bytes32"
        },
        {
          "internalType": "address",
          "name": "account",
          "type": "address"
        }
      ],
      "name": "grantRole",
      "outputs": [],
      "stateMutability": "nonpayable",
      "type": "function"
    },
    {
      "inputs": [
        {
          "internalType": "bytes32",
          "name": "role",
          "type": "bytes32"
        },
        {
          "internalType": "address",
          "name": "account",
          "type": "address"
        }
      ],
      "name": "hasRole",
      "outputs": [
        {
          "internalType": "bool",
          "name": "",
          "type": "bool"
        }
      ],
      "stateMutability": "view",
      "type": "function"
    },
    {
      "inputs": [
        {
          "internalType": "address",
          "name": "_oracle",
          "type": "address"
        },
        {
          "internalType": "address[]",
          "name": "_channels",
          "type": "address[]"
        },
        {
          "internalType": "uint8[]",
          "name": "_weights",
          "type": "uint8[]"
        },
        {
          "internalType": "address",
          "name": "admin",
          "type": "address"
        },
        {
          "internalType": "address",
          "name": "distributor",
          "type": "address"
        }
      ],
      "name": "initialize",
      "outputs": [],
      "stateMutability": "nonpayable",
      "type": "function"
    },
    {
      "inputs": [
        {
          "internalType": "address",
          "name": "channel",
          "type": "address"
        }
      ],
      "name": "isOriginalAddress",
      "outputs": [
        {
          "internalType": "bool",
          "name": "",
          "type": "bool"
        }
      ],
      "stateMutability": "view",
      "type": "function"
    },
    {
      "inputs": [],
      "name": "oracle",
      "outputs": [
        {
          "internalType": "address",
          "name": "",
          "type": "address"
        }
      ],
      "stateMutability": "view",
      "type": "function"
    },
    {
      "inputs": [],
      "name": "queryOracle",
      "outputs": [
        {
          "internalType": "uint256",
          "name": "feeAmount",
          "type": "uint256"
        }
      ],
      "stateMutability": "nonpayable",
      "type": "function"
    },
    {
      "inputs": [
        {
          "internalType": "bytes32",
          "name": "role",
          "type": "bytes32"
        },
        {
          "internalType": "address",
          "name": "account",
          "type": "address"
        }
      ],
      "name": "renounceRole",
      "outputs": [],
      "stateMutability": "nonpayable",
      "type": "function"
    },
    {
      "inputs": [],
      "name": "requiredReset",
      "outputs": [
        {
          "internalType": "uint256",
          "name": "",
          "type": "uint256"
        }
      ],
      "stateMutability": "view",
      "type": "function"
    },
    {
      "inputs": [
        {
          "internalType": "bytes32",
          "name": "role",
          "type": "bytes32"
        },
        {
          "internalType": "address",
          "name": "account",
          "type": "address"
        }
      ],
      "name": "revokeRole",
      "outputs": [],
      "stateMutability": "nonpayable",
      "type": "function"
    },
    {
      "inputs": [
        {
          "internalType": "uint256",
          "name": "new_epochLength",
          "type": "uint256"
        }
      ],
      "name": "setEpoch",
      "outputs": [],
      "stateMutability": "nonpayable",
      "type": "function"
    },
    {
      "inputs": [
        {
          "internalType": "address",
          "name": "_newOracle",
          "type": "address"
        }
      ],
      "name": "setOracle",
      "outputs": [],
      "stateMutability": "nonpayable",
      "type": "function"
    },
    {
      "inputs": [
        {
          "internalType": "bytes4",
          "name": "interfaceId",
          "type": "bytes4"
        }
      ],
      "name": "supportsInterface",
      "outputs": [
        {
          "internalType": "bool",
          "name": "",
          "type": "bool"
        }
      ],
      "stateMutability": "view",
      "type": "function"
    },
    {
      "stateMutability": "payable",
      "type": "receive"
    }
  ],
  "bytecode": "0x608060405234801561001057600080fd5b506135fc806100206000396000f3fe6080604052600436106101bb5760003560e01c806391d14854116100ec578063ddca3f431161008a578063f0bd87cc11610064578063f0bd87cc146105c4578063f5f5d0ba146105ef578063f5fa96e51461061a578063fd141f5c14610645576101c2565b8063ddca3f4314610531578063deea2b9b1461055c578063e661213c14610599576101c2565b8063a4214c18116100c6578063a4214c18146104a8578063ced72f87146104d3578063d4d5d32a146104fe578063d547741f14610508576101c2565b806391d14854146104155780639575f6ac14610452578063a217fddf1461047d576101c2565b806336568abe116101595780635301828f116101335780635301828f1461038e5780635b71d699146103b75780637adbf973146103c15780637dc0d1d0146103ea576101c2565b806336568abe146103255780633df048ef1461034e5780634f12e56014610365576101c2565b80632354f69b116101955780632354f69b1461026b578063248a9ca31461029457806326afe980146102d15780632f2ff15d146102fc576101c2565b806301ffc9a7146101c75780630ceb2cef146102045780630e2c93121461022d576101c2565b366101c257005b600080fd5b3480156101d357600080fd5b506101ee60048036038101906101e991906128dd565b610670565b6040516101fb9190612dd5565b60405180910390f35b34801561021057600080fd5b5061022b60048036038101906102269190612906565b6106ea565b005b34801561023957600080fd5b50610254600480360381019061024f9190612958565b61071f565b604051610262929190612d68565b60405180910390f35b34801561027757600080fd5b50610292600480360381019061028d9190612981565b610802565b005b3480156102a057600080fd5b506102bb60048036038101906102b69190612878565b610b24565b6040516102c89190612df0565b60405180910390f35b3480156102dd57600080fd5b506102e6610b44565b6040516102f39190612ee8565b60405180910390f35b34801561030857600080fd5b50610323600480360381019061031e91906128a1565b610bed565b005b34801561033157600080fd5b5061034c600480360381019061034791906128a1565b610c0e565b005b34801561035a57600080fd5b50610363610c91565b005b34801561037157600080fd5b5061038c6004803603810190610387919061276c565b610cb5565b005b34801561039a57600080fd5b506103b560048036038101906103b09190612813565b6110d8565b005b6103bf611323565b005b3480156103cd57600080fd5b506103e860048036038101906103e39190612743565b61168b565b005b3480156103f657600080fd5b506103ff6116fa565b60405161040c9190612d4d565b60405180910390f35b34801561042157600080fd5b5061043c600480360381019061043791906128a1565b611720565b6040516104499190612dd5565b60405180910390f35b34801561045e57600080fd5b5061046761178b565b6040516104749190612d91565b60405180910390f35b34801561048957600080fd5b50610492611819565b60405161049f9190612df0565b60405180910390f35b3480156104b457600080fd5b506104bd611820565b6040516104ca9190612f03565b60405180910390f35b3480156104df57600080fd5b506104e8611837565b6040516104f59190612ee8565b60405180910390f35b610506611886565b005b34801561051457600080fd5b5061052f600480360381019061052a91906128a1565b611cbe565b005b34801561053d57600080fd5b50610546611cdf565b6040516105539190612ee8565b60405180910390f35b34801561056857600080fd5b50610583600480360381019061057e9190612743565b611ce5565b6040516105909190612dd5565b60405180910390f35b3480156105a557600080fd5b506105ae611dba565b6040516105bb9190612ee8565b60405180910390f35b3480156105d057600080fd5b506105d9611dc0565b6040516105e69190612df0565b60405180910390f35b3480156105fb57600080fd5b50610604611de4565b6040516106119190612ee8565b60405180910390f35b34801561062657600080fd5b5061062f611dee565b60405161063c9190612ee8565b60405180910390f35b34801561065157600080fd5b5061065a611df4565b6040516106679190612db3565b60405180910390f35b60007f7965db0b000000000000000000000000000000000000000000000000000000007bffffffffffffffffffffffffffffffffffffffffffffffffffffffff1916827bffffffffffffffffffffffffffffffffffffffffffffffffffffffff191614806106e357506106e282611e72565b5b9050919050565b7ffbd454f36a7e1a388bd6fc3ab10d434aa4578f811acbbcf33afb1c697486313c61071481611edc565b81609e819055505050565b6000806000609b8460ff1681548110610761577f4e487b7100000000000000000000000000000000000000000000000000000000600052603260045260246000fd5b9060005260206000200160009054906101000a900473ffffffffffffffffffffffffffffffffffffffff1690506000609c8560ff16815481106107cd577f4e487b7100000000000000000000000000000000000000000000000000000000600052603260045260246000fd5b90600052602060002090602091828204019190069054906101000a900460ff16905081818060ff169050935093505050915091565b7ffbd454f36a7e1a388bd6fc3ab10d434aa4578f811acbbcf33afb1c697486313c61082c81611edc565b600073ffffffffffffffffffffffffffffffffffffffff168373ffffffffffffffffffffffffffffffffffffffff16148061087357506000151561086f84611ce5565b1515145b156108ea576040518060400160405280600381526020017f31323300000000000000000000000000000000000000000000000000000000008152506040517f08c379a00000000000000000000000000000000000000000000000000000000081526004016108e19190612e26565b60405180910390fd5b60048460ff161115610968576040518060400160405280600381526020017f31313100000000000000000000000000000000000000000000000000000000008152506040517f08c379a000000000000000000000000000000000000000000000000000000000815260040161095f9190612e26565b60405180910390fd5b82609b8560ff16815481106109a6577f4e487b7100000000000000000000000000000000000000000000000000000000600052603260045260246000fd5b9060005260206000200160006101000a81548173ffffffffffffffffffffffffffffffffffffffff021916908373ffffffffffffffffffffffffffffffffffffffff160217905550609c8460ff1681548110610a2b577f4e487b7100000000000000000000000000000000000000000000000000000000600052603260045260246000fd5b90600052602060002090602091828204019190069054906101000a900460ff16609a60008282829054906101000a900460ff16610a689190613162565b92506101000a81548160ff021916908360ff16021790555081609c8560ff1681548110610abe577f4e487b7100000000000000000000000000000000000000000000000000000000600052603260045260246000fd5b90600052602060002090602091828204019190066101000a81548160ff021916908360ff16021790555081609a60008282829054906101000a900460ff16610b0691906130a0565b92506101000a81548160ff021916908360ff16021790555050505050565b600060686000838152602001908152602001600020600101549050919050565b6000609a60019054906101000a900473ffffffffffffffffffffffffffffffffffffffff1673ffffffffffffffffffffffffffffffffffffffff16637eeda7036040518163ffffffff1660e01b8152600401602060405180830381600087803b158015610bb057600080fd5b505af1158015610bc4573d6000803e3d6000fd5b505050506040513d601f19601f82011682018060405250810190610be8919061292f565b905090565b610bf682610b24565b610bff81611edc565b610c098383611ef0565b505050565b610c16611fd1565b73ffffffffffffffffffffffffffffffffffffffff168173ffffffffffffffffffffffffffffffffffffffff1614610c83576040517f08c379a0000000000000000000000000000000000000000000000000000000008152600401610c7a90612ec8565b60405180910390fd5b610c8d8282611fd9565b5050565b610c99610b44565b60028190555060005442610cad919061304a565b600181905550565b6000600360019054906101000a900460ff16159050808015610ce957506001600360009054906101000a900460ff1660ff16105b80610d185750610cf8306120bb565b158015610d1757506001600360009054906101000a900460ff1660ff16145b5b610d57576040517f08c379a0000000000000000000000000000000000000000000000000000000008152600401610d4e90612e88565b60405180910390fd5b6001600360006101000a81548160ff021916908360ff1602179055508015610d95576001600360016101000a81548160ff0219169083151502179055505b610d9d6120de565b610daa6000801b84611ef0565b610dd47ffbd454f36a7e1a388bd6fc3ab10d434aa4578f811acbbcf33afb1c697486313c83611ef0565b600585511180610de5575060058451115b15610e5c576040518060400160405280600381526020017f31323400000000000000000000000000000000000000000000000000000000008152506040517f08c379a0000000000000000000000000000000000000000000000000000000008152600401610e539190612e26565b60405180910390fd5b42609d8190555062015180609e819055506201518060008190555085609a60016101000a81548173ffffffffffffffffffffffffffffffffffffffff021916908373ffffffffffffffffffffffffffffffffffffffff16021790555060005b855181101561107557848181518110610efd577f4e487b7100000000000000000000000000000000000000000000000000000000600052603260045260246000fd5b6020026020010151609a60008282829054906101000a900460ff16610f2291906130a0565b92506101000a81548160ff021916908360ff160217905550609b868281518110610f75577f4e487b7100000000000000000000000000000000000000000000000000000000600052603260045260246000fd5b60200260200101519080600181540180825580915050600190039060005260206000200160009091909190916101000a81548173ffffffffffffffffffffffffffffffffffffffff021916908373ffffffffffffffffffffffffffffffffffffffff160217905550609c858281518110611018577f4e487b7100000000000000000000000000000000000000000000000000000000600052603260045260246000fd5b602002602001015190806001815401808255809150506001900390600052602060002090602091828204019190069091909190916101000a81548160ff021916908360ff160217905550808061106d906132c1565b915050610ebb565b5080156110d0576000600360016101000a81548160ff0219169083151502179055507f7f26b83ff96e1f2b6a682f133852f6798a09c465da95921460cefb384740249860016040516110c79190612e0b565b60405180910390a15b505050505050565b7ffbd454f36a7e1a388bd6fc3ab10d434aa4578f811acbbcf33afb1c697486313c61110281611edc565b6005609b805490501415611182576040518060400160405280600381526020017f31323400000000000000000000000000000000000000000000000000000000008152506040517f08c379a00000000000000000000000000000000000000000000000000000000081526004016111799190612e26565b60405180910390fd5b6000151561118f84611ce5565b151514806111c957508273ffffffffffffffffffffffffffffffffffffffff16600073ffffffffffffffffffffffffffffffffffffffff16145b15611240576040518060400160405280600381526020017f31323300000000000000000000000000000000000000000000000000000000008152506040517f08c379a00000000000000000000000000000000000000000000000000000000081526004016112379190612e26565b60405180910390fd5b609b839080600181540180825580915050600190039060005260206000200160009091909190916101000a81548173ffffffffffffffffffffffffffffffffffffffff021916908373ffffffffffffffffffffffffffffffffffffffff160217905550609c8290806001815401808255809150506001900390600052602060002090602091828204019190069091909190916101000a81548160ff021916908360ff16021790555081609a60008282829054906101000a900460ff1661130691906130a0565b92506101000a81548160ff021916908360ff160217905550505050565b7ffbd454f36a7e1a388bd6fc3ab10d434aa4578f811acbbcf33afb1c697486313c61134d81611edc565b600047905060005b609b80549050811015611676576000609a60009054906101000a900460ff1660ff16609c83815481106113b1577f4e487b7100000000000000000000000000000000000000000000000000000000600052603260045260246000fd5b90600052602060002090602091828204019190069054906101000a900460ff1660ff16846113df9190613108565b6113e991906130d7565b90506000609b8381548110611427577f4e487b7100000000000000000000000000000000000000000000000000000000600052603260045260246000fd5b9060005260206000200160009054906101000a900473ffffffffffffffffffffffffffffffffffffffff1673ffffffffffffffffffffffffffffffffffffffff16826040516024016040516020818303038152906040527ffc8e2cd4000000000000000000000000000000000000000000000000000000007bffffffffffffffffffffffffffffffffffffffffffffffffffffffff19166020820180517bffffffffffffffffffffffffffffffffffffffffffffffffffffffff83818316178352505050506040516114f99190612ce7565b60006040518083038185875af1925050503d8060008114611536576040519150601f19603f3d011682016040523d82523d6000602084013e61153b565b606091505b50509050806040518060400160405280600381526020017f3131320000000000000000000000000000000000000000000000000000000000815250906115b7576040517f08c379a00000000000000000000000000000000000000000000000000000000081526004016115ae9190612e26565b60405180910390fd5b5081609b84815481106115f3577f4e487b7100000000000000000000000000000000000000000000000000000000600052603260045260246000fd5b9060005260206000200160009054906101000a900473ffffffffffffffffffffffffffffffffffffffff1673ffffffffffffffffffffffffffffffffffffffff16427f42affc57c2b30e1ac5957640cfb86fcd839a295d2ec7eed57db385dd03aecd2c60405160405180910390a45050808061166e906132c1565b915050611355565b5061167f61212f565b5042609d819055505050565b7ffbd454f36a7e1a388bd6fc3ab10d434aa4578f811acbbcf33afb1c697486313c6116b581611edc565b81609a60016101000a81548173ffffffffffffffffffffffffffffffffffffffff021916908373ffffffffffffffffffffffffffffffffffffffff1602179055505050565b609a60019054906101000a900473ffffffffffffffffffffffffffffffffffffffff1681565b60006068600084815260200190815260200160002060000160008373ffffffffffffffffffffffffffffffffffffffff1673ffffffffffffffffffffffffffffffffffffffff16815260200190815260200160002060009054906101000a900460ff16905092915050565b6060609b80548060200260200160405190810160405280929190818152602001828054801561180f57602002820191906000526020600020905b8160009054906101000a900473ffffffffffffffffffffffffffffffffffffffff1673ffffffffffffffffffffffffffffffffffffffff16815260200190600101908083116117c5575b5050505050905090565b6000801b81565b6000609a60009054906101000a900460ff16905090565b600042600154101561187e576040517f08c379a000000000000000000000000000000000000000000000000000000000815260040161187590612e68565b60405180910390fd5b600254905090565b609e54609d54611896919061304a565b4211806118c957506118c87ffbd454f36a7e1a388bd6fc3ab10d434aa4578f811acbbcf33afb1c697486313c33611720565b5b15611c4a5760006118d8610b44565b905060003273ffffffffffffffffffffffffffffffffffffffff168260405161190090612cfe565b60006040518083038185875af1925050503d806000811461193d576040519150601f19603f3d011682016040523d82523d6000602084013e611942565b606091505b50509050806040518060400160405280600381526020017f3132320000000000000000000000000000000000000000000000000000000000815250906119be576040517f08c379a00000000000000000000000000000000000000000000000000000000081526004016119b59190612e26565b60405180910390fd5b50600047905060005b609b80549050811015611c31576000609a60009054906101000a900460ff1660ff16609c8381548110611a23577f4e487b7100000000000000000000000000000000000000000000000000000000600052603260045260246000fd5b90600052602060002090602091828204019190069054906101000a900460ff1660ff1684611a519190613108565b611a5b91906130d7565b90506000609b8381548110611a99577f4e487b7100000000000000000000000000000000000000000000000000000000600052603260045260246000fd5b9060005260206000200160009054906101000a900473ffffffffffffffffffffffffffffffffffffffff1673ffffffffffffffffffffffffffffffffffffffff166108fc839081150290604051600060405180830381858888f193505050509050806040518060400160405280600381526020017f313132000000000000000000000000000000000000000000000000000000000081525090611b72576040517f08c379a0000000000000000000000000000000000000000000000000000000008152600401611b699190612e26565b60405180910390fd5b5081609b8481548110611bae577f4e487b7100000000000000000000000000000000000000000000000000000000600052603260045260246000fd5b9060005260206000200160009054906101000a900473ffffffffffffffffffffffffffffffffffffffff1673ffffffffffffffffffffffffffffffffffffffff16427f42affc57c2b30e1ac5957640cfb86fcd839a295d2ec7eed57db385dd03aecd2c60405160405180910390a450508080611c29906132c1565b9150506119c7565b5042609d81905550611c4161212f565b50505050611cbc565b6040518060400160405280600381526020017f31323100000000000000000000000000000000000000000000000000000000008152506040517f08c379a0000000000000000000000000000000000000000000000000000000008152600401611cb39190612e26565b60405180910390fd5b565b611cc782610b24565b611cd081611edc565b611cda8383611fd9565b505050565b60025481565b600080600090505b609b80549050811015611daf578273ffffffffffffffffffffffffffffffffffffffff16609b8281548110611d4b577f4e487b7100000000000000000000000000000000000000000000000000000000600052603260045260246000fd5b9060005260206000200160009054906101000a900473ffffffffffffffffffffffffffffffffffffffff1673ffffffffffffffffffffffffffffffffffffffff161415611d9c576000915050611db5565b8080611da7906132c1565b915050611ced565b50600190505b919050565b60005481565b7ffbd454f36a7e1a388bd6fc3ab10d434aa4578f811acbbcf33afb1c697486313c81565b6000609d54905090565b60015481565b6060609c805480602002602001604051908101604052809291908181526020018280548015611e6857602002820191906000526020600020906000905b82829054906101000a900460ff1660ff1681526020019060010190602082600001049283019260010382029150808411611e315790505b5050505050905090565b60007f01ffc9a7000000000000000000000000000000000000000000000000000000007bffffffffffffffffffffffffffffffffffffffffffffffffffffffff1916827bffffffffffffffffffffffffffffffffffffffffffffffffffffffff1916149050919050565b611eed81611ee8611fd1565b6121d8565b50565b611efa8282611720565b611fcd5760016068600084815260200190815260200160002060000160008373ffffffffffffffffffffffffffffffffffffffff1673ffffffffffffffffffffffffffffffffffffffff16815260200190815260200160002060006101000a81548160ff021916908315150217905550611f72611fd1565b73ffffffffffffffffffffffffffffffffffffffff168173ffffffffffffffffffffffffffffffffffffffff16837f2f8788117e7eff1d82e926ec794901d17c78024a50270940304540a733656f0d60405160405180910390a45b5050565b600033905090565b611fe38282611720565b156120b75760006068600084815260200190815260200160002060000160008373ffffffffffffffffffffffffffffffffffffffff1673ffffffffffffffffffffffffffffffffffffffff16815260200190815260200160002060006101000a81548160ff02191690831515021790555061205c611fd1565b73ffffffffffffffffffffffffffffffffffffffff168173ffffffffffffffffffffffffffffffffffffffff16837ff6391f5c32d9c69d2a47ea670b442974b53935d1edc7fd64eb21e047a839171b60405160405180910390a45b5050565b6000808273ffffffffffffffffffffffffffffffffffffffff163b119050919050565b600360019054906101000a900460ff1661212d576040517f08c379a000000000000000000000000000000000000000000000000000000000815260040161212490612ea8565b60405180910390fd5b565b6000609a60019054906101000a900473ffffffffffffffffffffffffffffffffffffffff1673ffffffffffffffffffffffffffffffffffffffff1663e58456e96040518163ffffffff1660e01b8152600401602060405180830381600087803b15801561219b57600080fd5b505af11580156121af573d6000803e3d6000fd5b505050506040513d601f19601f820116820180604052508101906121d3919061284f565b905090565b6121e28282611720565b612259576121ef8161225d565b6121fd8360001c602061228a565b60405160200161220e929190612d13565b6040516020818303038152906040526040517f08c379a00000000000000000000000000000000000000000000000000000000081526004016122509190612e26565b60405180910390fd5b5050565b60606122838273ffffffffffffffffffffffffffffffffffffffff16601460ff1661228a565b9050919050565b60606000600283600261229d9190613108565b6122a7919061304a565b67ffffffffffffffff8111156122e6577f4e487b7100000000000000000000000000000000000000000000000000000000600052604160045260246000fd5b6040519080825280601f01601f1916602001820160405280156123185781602001600182028036833780820191505090505b5090507f300000000000000000000000000000000000000000000000000000000000000081600081518110612376577f4e487b7100000000000000000000000000000000000000000000000000000000600052603260045260246000fd5b60200101907effffffffffffffffffffffffffffffffffffffffffffffffffffffffffffff1916908160001a9053507f780000000000000000000000000000000000000000000000000000000000000081600181518110612400577f4e487b7100000000000000000000000000000000000000000000000000000000600052603260045260246000fd5b60200101907effffffffffffffffffffffffffffffffffffffffffffffffffffffffffffff1916908160001a905350600060018460026124409190613108565b61244a919061304a565b90505b6001811115612536577f3031323334353637383961626364656600000000000000000000000000000000600f8616601081106124b2577f4e487b7100000000000000000000000000000000000000000000000000000000600052603260045260246000fd5b1a60f81b8282815181106124ef577f4e487b7100000000000000000000000000000000000000000000000000000000600052603260045260246000fd5b60200101907effffffffffffffffffffffffffffffffffffffffffffffffffffffffffffff1916908160001a905350600485901c94508061252f90613266565b905061244d565b506000841461257a576040517f08c379a000000000000000000000000000000000000000000000000000000000815260040161257190612e48565b60405180910390fd5b8091505092915050565b600061259761259284612f43565b612f1e565b905080838252602082019050828560208602820111156125b657600080fd5b60005b858110156125e657816125cc888261265c565b8452602084019350602083019250506001810190506125b9565b5050509392505050565b60006126036125fe84612f6f565b612f1e565b9050808382526020820190508285602086028201111561262257600080fd5b60005b858110156126525781612638888261272e565b845260208401935060208301925050600181019050612625565b5050509392505050565b60008135905061266b8161353c565b92915050565b600082601f83011261268257600080fd5b8135612692848260208601612584565b91505092915050565b600082601f8301126126ac57600080fd5b81356126bc8482602086016125f0565b91505092915050565b6000815190506126d481613553565b92915050565b6000813590506126e98161356a565b92915050565b6000813590506126fe81613581565b92915050565b60008135905061271381613598565b92915050565b60008151905061272881613598565b92915050565b60008135905061273d816135af565b92915050565b60006020828403121561275557600080fd5b60006127638482850161265c565b91505092915050565b600080600080600060a0868803121561278457600080fd5b60006127928882890161265c565b955050602086013567ffffffffffffffff8111156127af57600080fd5b6127bb88828901612671565b945050604086013567ffffffffffffffff8111156127d857600080fd5b6127e48882890161269b565b93505060606127f58882890161265c565b92505060806128068882890161265c565b9150509295509295909350565b6000806040838503121561282657600080fd5b60006128348582860161265c565b92505060206128458582860161272e565b9150509250929050565b60006020828403121561286157600080fd5b600061286f848285016126c5565b91505092915050565b60006020828403121561288a57600080fd5b6000612898848285016126da565b91505092915050565b600080604083850312156128b457600080fd5b60006128c2858286016126da565b92505060206128d38582860161265c565b9150509250929050565b6000602082840312156128ef57600080fd5b60006128fd848285016126ef565b91505092915050565b60006020828403121561291857600080fd5b600061292684828501612704565b91505092915050565b60006020828403121561294157600080fd5b600061294f84828501612719565b91505092915050565b60006020828403121561296a57600080fd5b60006129788482850161272e565b91505092915050565b60008060006060848603121561299657600080fd5b60006129a48682870161272e565b93505060206129b58682870161265c565b92505060406129c68682870161272e565b9150509250925092565b60006129dc8383612a00565b60208301905092915050565b60006129f48383612cc9565b60208301905092915050565b612a0981613196565b82525050565b612a1881613196565b82525050565b6000612a2982612fbb565b612a338185613001565b9350612a3e83612f9b565b8060005b83811015612a6f578151612a5688826129d0565b9750612a6183612fe7565b925050600181019050612a42565b5085935050505092915050565b6000612a8782612fc6565b612a918185613012565b9350612a9c83612fab565b8060005b83811015612acd578151612ab488826129e8565b9750612abf83612ff4565b925050600181019050612aa0565b5085935050505092915050565b612ae3816131a8565b82525050565b612af2816131b4565b82525050565b6000612b0382612fd1565b612b0d8185613023565b9350612b1d818560208601613233565b80840191505092915050565b612b3281613221565b82525050565b6000612b4382612fdc565b612b4d818561302e565b9350612b5d818560208601613233565b612b6681613397565b840191505092915050565b6000612b7c82612fdc565b612b86818561303f565b9350612b96818560208601613233565b80840191505092915050565b6000612baf60208361302e565b9150612bba826133a8565b602082019050919050565b6000612bd2600b8361302e565b9150612bdd826133d1565b602082019050919050565b6000612bf5602e8361302e565b9150612c00826133fa565b604082019050919050565b6000612c18600083613023565b9150612c2382613449565b600082019050919050565b6000612c3b602b8361302e565b9150612c468261344c565b604082019050919050565b6000612c5e60178361303f565b9150612c698261349b565b601782019050919050565b6000612c8160118361303f565b9150612c8c826134c4565b601182019050919050565b6000612ca4602f8361302e565b9150612caf826134ed565b604082019050919050565b612cc38161320a565b82525050565b612cd281613214565b82525050565b612ce181613214565b82525050565b6000612cf38284612af8565b915081905092915050565b6000612d0982612c0b565b9150819050919050565b6000612d1e82612c51565b9150612d2a8285612b71565b9150612d3582612c74565b9150612d418284612b71565b91508190509392505050565b6000602082019050612d626000830184612a0f565b92915050565b6000604082019050612d7d6000830185612a0f565b612d8a6020830184612cba565b9392505050565b60006020820190508181036000830152612dab8184612a1e565b905092915050565b60006020820190508181036000830152612dcd8184612a7c565b905092915050565b6000602082019050612dea6000830184612ada565b92915050565b6000602082019050612e056000830184612ae9565b92915050565b6000602082019050612e206000830184612b29565b92915050565b60006020820190508181036000830152612e408184612b38565b905092915050565b60006020820190508181036000830152612e6181612ba2565b9050919050565b60006020820190508181036000830152612e8181612bc5565b9050919050565b60006020820190508181036000830152612ea181612be8565b9050919050565b60006020820190508181036000830152612ec181612c2e565b9050919050565b60006020820190508181036000830152612ee181612c97565b9050919050565b6000602082019050612efd6000830184612cba565b92915050565b6000602082019050612f186000830184612cd8565b92915050565b6000612f28612f39565b9050612f348282613290565b919050565b6000604051905090565b600067ffffffffffffffff821115612f5e57612f5d613368565b5b602082029050602081019050919050565b600067ffffffffffffffff821115612f8a57612f89613368565b5b602082029050602081019050919050565b6000819050602082019050919050565b6000819050602082019050919050565b600081519050919050565b600081519050919050565b600081519050919050565b600081519050919050565b6000602082019050919050565b6000602082019050919050565b600082825260208201905092915050565b600082825260208201905092915050565b600081905092915050565b600082825260208201905092915050565b600081905092915050565b60006130558261320a565b91506130608361320a565b9250827fffffffffffffffffffffffffffffffffffffffffffffffffffffffffffffffff038211156130955761309461330a565b5b828201905092915050565b60006130ab82613214565b91506130b683613214565b92508260ff038211156130cc576130cb61330a565b5b828201905092915050565b60006130e28261320a565b91506130ed8361320a565b9250826130fd576130fc613339565b5b828204905092915050565b60006131138261320a565b915061311e8361320a565b9250817fffffffffffffffffffffffffffffffffffffffffffffffffffffffffffffffff04831182151516156131575761315661330a565b5b828202905092915050565b600061316d82613214565b915061317883613214565b92508282101561318b5761318a61330a565b5b828203905092915050565b60006131a1826131ea565b9050919050565b60008115159050919050565b6000819050919050565b60007fffffffff0000000000000000000000000000000000000000000000000000000082169050919050565b600073ffffffffffffffffffffffffffffffffffffffff82169050919050565b6000819050919050565b600060ff82169050919050565b600061322c82613214565b9050919050565b60005b83811015613251578082015181840152602081019050613236565b83811115613260576000848401525b50505050565b60006132718261320a565b915060008214156132855761328461330a565b5b600182039050919050565b61329982613397565b810181811067ffffffffffffffff821117156132b8576132b7613368565b5b80604052505050565b60006132cc8261320a565b91507fffffffffffffffffffffffffffffffffffffffffffffffffffffffffffffffff8214156132ff576132fe61330a565b5b600182019050919050565b7f4e487b7100000000000000000000000000000000000000000000000000000000600052601160045260246000fd5b7f4e487b7100000000000000000000000000000000000000000000000000000000600052601260045260246000fd5b7f4e487b7100000000000000000000000000000000000000000000000000000000600052604160045260246000fd5b6000601f19601f8301169050919050565b7f537472696e67733a20686578206c656e67746820696e73756666696369656e74600082015250565b7f5f72657365744665652829000000000000000000000000000000000000000000600082015250565b7f496e697469616c697a61626c653a20636f6e747261637420697320616c72656160008201527f647920696e697469616c697a6564000000000000000000000000000000000000602082015250565b50565b7f496e697469616c697a61626c653a20636f6e7472616374206973206e6f74206960008201527f6e697469616c697a696e67000000000000000000000000000000000000000000602082015250565b7f416363657373436f6e74726f6c3a206163636f756e7420000000000000000000600082015250565b7f206973206d697373696e6720726f6c6520000000000000000000000000000000600082015250565b7f416363657373436f6e74726f6c3a2063616e206f6e6c792072656e6f756e636560008201527f20726f6c657320666f722073656c660000000000000000000000000000000000602082015250565b61354581613196565b811461355057600080fd5b50565b61355c816131a8565b811461356757600080fd5b50565b613573816131b4565b811461357e57600080fd5b50565b61358a816131be565b811461359557600080fd5b50565b6135a18161320a565b81146135ac57600080fd5b50565b6135b881613214565b81146135c357600080fd5b5056fea26469706673582212201b8987744b25ee6fe173c6315f9a6526db096fcc21040171209ced77c816a37c64736f6c63430008020033",
  "linkReferences": {},
  "deployedLinkReferences": {}
}