{
  "_format": "hh-sol-artifact-1",
  "contractName": "FeeContract",
  "sourceName": "contracts/FeeContract.sol",
  "abi": [
    {
      "anonymous": false,
      "inputs": [
        {
          "indexed": true,
          "internalType": "uint256",
          "name": "timestamp",
          "type": "uint256"
        },
        {
          "indexed": true,
          "internalType": "address",
          "name": "to",
          "type": "address"
        },
        {
          "indexed": true,
          "internalType": "uint256",
          "name": "amount",
          "type": "uint256"
        }
      ],
      "name": "FeesDistributed",
      "type": "event"
    },
    {
      "anonymous": false,
      "inputs": [
        {
          "indexed": false,
          "internalType": "uint8",
          "name": "version",
          "type": "uint8"
        }
      ],
      "name": "Initialized",
      "type": "event"
    },
    {
      "anonymous": false,
      "inputs": [
        {
          "indexed": true,
          "internalType": "bytes32",
          "name": "role",
          "type": "bytes32"
        },
        {
          "indexed": true,
          "internalType": "bytes32",
          "name": "previousAdminRole",
          "type": "bytes32"
        },
        {
          "indexed": true,
          "internalType": "bytes32",
          "name": "newAdminRole",
          "type": "bytes32"
        }
      ],
      "name": "RoleAdminChanged",
      "type": "event"
    },
    {
      "anonymous": false,
      "inputs": [
        {
          "indexed": true,
          "internalType": "bytes32",
          "name": "role",
          "type": "bytes32"
        },
        {
          "indexed": true,
          "internalType": "address",
          "name": "account",
          "type": "address"
        },
        {
          "indexed": true,
          "internalType": "address",
          "name": "sender",
          "type": "address"
        }
      ],
      "name": "RoleGranted",
      "type": "event"
    },
    {
      "anonymous": false,
      "inputs": [
        {
          "indexed": true,
          "internalType": "bytes32",
          "name": "role",
          "type": "bytes32"
        },
        {
          "indexed": true,
          "internalType": "address",
          "name": "account",
          "type": "address"
        },
        {
          "indexed": true,
          "internalType": "address",
          "name": "sender",
          "type": "address"
        }
      ],
      "name": "RoleRevoked",
      "type": "event"
    },
    {
      "inputs": [],
      "name": "DEFAULT_ADMIN_ROLE",
      "outputs": [
        {
          "internalType": "bytes32",
          "name": "",
          "type": "bytes32"
        }
      ],
      "stateMutability": "view",
      "type": "function"
    },
    {
      "inputs": [],
      "name": "DISTRIBUTOR_ROLE",
      "outputs": [
        {
          "internalType": "bytes32",
          "name": "",
          "type": "bytes32"
        }
      ],
      "stateMutability": "view",
      "type": "function"
    },
    {
      "inputs": [
        {
          "internalType": "address",
          "name": "_newChannelAddress",
          "type": "address"
        },
        {
          "internalType": "uint8",
          "name": "_weight",
          "type": "uint8"
        }
      ],
      "name": "addChannel",
      "outputs": [],
      "stateMutability": "nonpayable",
      "type": "function"
    },
    {
      "inputs": [
        {
          "internalType": "uint8",
          "name": "_index",
          "type": "uint8"
        },
        {
          "internalType": "address",
          "name": "_newChannelAddress",
          "type": "address"
        },
        {
          "internalType": "uint8",
          "name": "_newWeight",
          "type": "uint8"
        }
      ],
      "name": "adjustChannel",
      "outputs": [],
      "stateMutability": "nonpayable",
      "type": "function"
    },
    {
      "inputs": [
        {
          "internalType": "uint8",
          "name": "index",
          "type": "uint8"
        }
      ],
      "name": "amountPaidToUponNextDistribution",
      "outputs": [
        {
          "internalType": "uint256",
          "name": "",
          "type": "uint256"
        }
      ],
      "stateMutability": "view",
      "type": "function"
    },
    {
      "inputs": [],
      "name": "collectFee",
      "outputs": [],
      "stateMutability": "payable",
      "type": "function"
    },
    {
      "inputs": [],
      "name": "epochLength",
      "outputs": [
        {
          "internalType": "uint256",
          "name": "",
          "type": "uint256"
        }
      ],
      "stateMutability": "view",
      "type": "function"
    },
    {
      "inputs": [],
      "name": "fee",
      "outputs": [
        {
          "internalType": "uint256",
          "name": "",
          "type": "uint256"
        }
      ],
      "stateMutability": "view",
      "type": "function"
    },
    {
      "inputs": [],
      "name": "forceFee",
      "outputs": [],
      "stateMutability": "payable",
      "type": "function"
    },
    {
      "inputs": [
        {
          "internalType": "uint8",
          "name": "index",
          "type": "uint8"
        }
      ],
      "name": "getChannelWeightByIndex",
      "outputs": [
        {
          "internalType": "address",
          "name": "",
          "type": "address"
        },
        {
          "internalType": "uint256",
          "name": "",
          "type": "uint256"
        }
      ],
      "stateMutability": "view",
      "type": "function"
    },
    {
      "inputs": [],
      "name": "getChannels",
      "outputs": [
        {
          "internalType": "address[]",
          "name": "",
          "type": "address[]"
        }
      ],
      "stateMutability": "view",
      "type": "function"
    },
    {
      "inputs": [],
      "name": "getFee",
      "outputs": [
        {
          "internalType": "uint256",
          "name": "",
          "type": "uint256"
        }
      ],
      "stateMutability": "view",
      "type": "function"
    },
    {
      "inputs": [],
      "name": "getLastDistributionBlock",
      "outputs": [
        {
          "internalType": "uint256",
          "name": "",
          "type": "uint256"
        }
      ],
      "stateMutability": "view",
      "type": "function"
    },
    {
      "inputs": [],
      "name": "getNextResetTime",
      "outputs": [
        {
          "internalType": "uint256",
          "name": "",
          "type": "uint256"
        }
      ],
      "stateMutability": "view",
      "type": "function"
    },
    {
      "inputs": [],
      "name": "getOracleAddress",
      "outputs": [
        {
          "internalType": "address",
          "name": "",
          "type": "address"
        }
      ],
      "stateMutability": "view",
      "type": "function"
    },
    {
      "inputs": [
        {
          "internalType": "bytes32",
          "name": "role",
          "type": "bytes32"
        }
      ],
      "name": "getRoleAdmin",
      "outputs": [
        {
          "internalType": "bytes32",
          "name": "",
          "type": "bytes32"
        }
      ],
      "stateMutability": "view",
      "type": "function"
    },
    {
      "inputs": [],
      "name": "getTotalContractShares",
      "outputs": [
        {
          "internalType": "uint8",
          "name": "",
          "type": "uint8"
        }
      ],
      "stateMutability": "view",
      "type": "function"
    },
    {
      "inputs": [],
      "name": "getWieghts",
      "outputs": [
        {
          "internalType": "uint8[]",
          "name": "",
          "type": "uint8[]"
        }
      ],
      "stateMutability": "view",
      "type": "function"
    },
    {
      "inputs": [
        {
          "internalType": "bytes32",
          "name": "role",
          "type": "bytes32"
        },
        {
          "internalType": "address",
          "name": "account",
          "type": "address"
        }
      ],
      "name": "grantRole",
      "outputs": [],
      "stateMutability": "nonpayable",
      "type": "function"
    },
    {
      "inputs": [
        {
          "internalType": "bytes32",
          "name": "role",
          "type": "bytes32"
        },
        {
          "internalType": "address",
          "name": "account",
          "type": "address"
        }
      ],
      "name": "hasRole",
      "outputs": [
        {
          "internalType": "bool",
          "name": "",
          "type": "bool"
        }
      ],
      "stateMutability": "view",
      "type": "function"
    },
    {
      "inputs": [
        {
          "internalType": "address",
          "name": "_oracle",
          "type": "address"
        },
        {
          "internalType": "address[]",
          "name": "_channels",
          "type": "address[]"
        },
        {
          "internalType": "uint8[]",
          "name": "_weights",
          "type": "uint8[]"
        },
        {
          "internalType": "address",
          "name": "admin",
          "type": "address"
        },
        {
          "internalType": "address",
          "name": "distributor",
          "type": "address"
        }
      ],
      "name": "initialize",
      "outputs": [],
      "stateMutability": "nonpayable",
      "type": "function"
    },
    {
      "inputs": [
        {
          "internalType": "address",
          "name": "channel",
          "type": "address"
        }
      ],
      "name": "isOriginalAddress",
      "outputs": [
        {
          "internalType": "bool",
          "name": "",
          "type": "bool"
        }
      ],
      "stateMutability": "view",
      "type": "function"
    },
    {
      "inputs": [],
      "name": "queryOracle",
      "outputs": [
        {
          "internalType": "uint256",
          "name": "feeAmount",
          "type": "uint256"
        }
      ],
      "stateMutability": "view",
      "type": "function"
    },
    {
      "inputs": [
        {
          "internalType": "bytes32",
          "name": "role",
          "type": "bytes32"
        },
        {
          "internalType": "address",
          "name": "account",
          "type": "address"
        }
      ],
      "name": "renounceRole",
      "outputs": [],
      "stateMutability": "nonpayable",
      "type": "function"
    },
    {
      "inputs": [],
      "name": "requiredReset",
      "outputs": [
        {
          "internalType": "uint256",
          "name": "",
          "type": "uint256"
        }
      ],
      "stateMutability": "view",
      "type": "function"
    },
    {
      "inputs": [],
      "name": "resetFee",
      "outputs": [],
      "stateMutability": "nonpayable",
      "type": "function"
    },
    {
      "inputs": [
        {
          "internalType": "bytes32",
          "name": "role",
          "type": "bytes32"
        },
        {
          "internalType": "address",
          "name": "account",
          "type": "address"
        }
      ],
      "name": "revokeRole",
      "outputs": [],
      "stateMutability": "nonpayable",
      "type": "function"
    },
    {
      "inputs": [
        {
          "internalType": "uint256",
          "name": "new_epochLength",
          "type": "uint256"
        }
      ],
      "name": "setEpoch",
      "outputs": [],
      "stateMutability": "nonpayable",
      "type": "function"
    },
    {
      "inputs": [
        {
          "internalType": "address",
          "name": "_newOracle",
          "type": "address"
        }
      ],
      "name": "setOracle",
      "outputs": [],
      "stateMutability": "nonpayable",
      "type": "function"
    },
    {
      "inputs": [
        {
          "internalType": "bytes4",
          "name": "interfaceId",
          "type": "bytes4"
        }
      ],
      "name": "supportsInterface",
      "outputs": [
        {
          "internalType": "bool",
          "name": "",
          "type": "bool"
        }
      ],
      "stateMutability": "view",
      "type": "function"
    },
    {
      "stateMutability": "payable",
      "type": "receive"
    }
  ],
  "bytecode": "0x608060405234801561001057600080fd5b50614717806100206000396000f3fe6080604052600436106101d15760003560e01c80639575f6ac116100f7578063d4d5d32a11610095578063f0bd87cc11610064578063f0bd87cc14610642578063f5f5d0ba1461066d578063f5fa96e514610698578063fd141f5c146106c3576101d8565b8063d4d5d32a146105a7578063d547741f146105b1578063ddca3f43146105da578063deea2b9b14610605576101d8565b8063a4214c18116100d1578063a4214c18146104e9578063b18b78dd14610514578063c0b87a481461053f578063ced72f871461057c576101d8565b80639575f6ac14610468578063a11c898e14610493578063a217fddf146104be576101d8565b806336568abe1161016f5780635b71d6991161013e5780635b71d699146103e1578063727682ad146103eb5780637adbf9731461040257806391d148541461042b576101d8565b806336568abe1461033b5780634f12e560146103645780635301828f1461038d57806357d775f8146103b6576101d8565b80632354f69b116101ab5780632354f69b14610281578063248a9ca3146102aa57806326afe980146102e75780632f2ff15d14610312576101d8565b806301ffc9a7146101dd5780630ceb2cef1461021a5780630e2c931214610243576101d8565b366101d857005b600080fd5b3480156101e957600080fd5b5061020460048036038101906101ff9190613a4b565b6106ee565b6040516102119190613efb565b60405180910390f35b34801561022657600080fd5b50610241600480360381019061023c9190613a74565b610768565b005b34801561024f57600080fd5b5061026a60048036038101906102659190613ac6565b6107ed565b604051610278929190613e8e565b60405180910390f35b34801561028d57600080fd5b506102a860048036038101906102a39190613aef565b61095c565b005b3480156102b657600080fd5b506102d160048036038101906102cc91906139e6565b610e32565b6040516102de9190613f16565b60405180910390f35b3480156102f357600080fd5b506102fc610e52565b604051610309919061400e565b60405180910390f35b34801561031e57600080fd5b5061033960048036038101906103349190613a0f565b610f35565b005b34801561034757600080fd5b50610362600480360381019061035d9190613a0f565b610f56565b005b34801561037057600080fd5b5061038b600480360381019061038691906138da565b610fd9565b005b34801561039957600080fd5b506103b460048036038101906103af9190613981565b61167c565b005b3480156103c257600080fd5b506103cb611a8f565b6040516103d8919061400e565b60405180910390f35b6103e9611a95565b005b3480156103f757600080fd5b50610400611f09565b005b34801561040e57600080fd5b50610429600480360381019061042491906138b1565b6120a7565b005b34801561043757600080fd5b50610452600480360381019061044d9190613a0f565b612166565b60405161045f9190613efb565b60405180910390f35b34801561047457600080fd5b5061047d6121d1565b60405161048a9190613eb7565b60405180910390f35b34801561049f57600080fd5b506104a861229b565b6040516104b5919061400e565b60405180910390f35b3480156104ca57600080fd5b506104d36122e1565b6040516104e09190613f16565b60405180910390f35b3480156104f557600080fd5b506104fe6122e8565b60405161050b9190614029565b60405180910390f35b34801561052057600080fd5b5061052961233b565b6040516105369190613e73565b60405180910390f35b34801561054b57600080fd5b5061056660048036038101906105619190613ac6565b6123a1565b604051610573919061400e565b60405180910390f35b34801561058857600080fd5b5061059161246e565b60405161059e919061400e565b60405180910390f35b6105af612571565b005b3480156105bd57600080fd5b506105d860048036038101906105d39190613a0f565b612c94565b005b3480156105e657600080fd5b506105ef612cb5565b6040516105fc919061400e565b60405180910390f35b34801561061157600080fd5b5061062c600480360381019061062791906138b1565b612cbb565b6040516106399190613efb565b60405180910390f35b34801561064e57600080fd5b50610657612e69565b6040516106649190613f16565b60405180910390f35b34801561067957600080fd5b50610682612e8d565b60405161068f919061400e565b60405180910390f35b3480156106a457600080fd5b506106ad612ed3565b6040516106ba919061400e565b60405180910390f35b3480156106cf57600080fd5b506106d8612ed9565b6040516106e59190613ed9565b60405180910390f35b60007f7965db0b000000000000000000000000000000000000000000000000000000007bffffffffffffffffffffffffffffffffffffffffffffffffffffffff1916827bffffffffffffffffffffffffffffffffffffffffffffffffffffffff19161480610761575061076082612f93565b5b9050919050565b61077c67db22438a950bd48960c01b612ffd565b7ffbd454f36a7e1a388bd6fc3ab10d434aa4578f811acbbcf33afb1c697486313c6107a681613000565b6107ba6741e25b963fe96a8a60c01b612ffd565b6107ce674c9da3f4d9cd64a160c01b612ffd565b6107e267e9425a7c6b46c43d60c01b612ffd565b816000819055505050565b600080610804679b9b21fe29c5ac7160c01b612ffd565b6108186797007a6ea068630160c01b612ffd565b61082c67e7bd32b1810939e360c01b612ffd565b6000609b8460ff168154811061086b577f4e487b7100000000000000000000000000000000000000000000000000000000600052603260045260246000fd5b9060005260206000200160009054906101000a900473ffffffffffffffffffffffffffffffffffffffff1690506108ac67314e07d1e84ac32860c01b612ffd565b6108c0671dd250f5017679b160c01b612ffd565b6000609c8560ff16815481106108ff577f4e487b7100000000000000000000000000000000000000000000000000000000600052603260045260246000fd5b90600052602060002090602091828204019190069054906101000a900460ff16905061093567a64cde2fd7c26c2f60c01b612ffd565b61094967b461877fcefe235060c01b612ffd565b81818060ff169050935093505050915091565b6109706789175ff8d24bc54260c01b612ffd565b7ffbd454f36a7e1a388bd6fc3ab10d434aa4578f811acbbcf33afb1c697486313c61099a81613000565b6109ae673168048a3d3b0e5e60c01b612ffd565b6109c267b3fcb3a4d89273c760c01b612ffd565b6109d667b7460a3e2fc7ceb260c01b612ffd565b6109ea67357f567616b3366260c01b612ffd565b600073ffffffffffffffffffffffffffffffffffffffff168373ffffffffffffffffffffffffffffffffffffffff16148015610a365750610a35672e3c96031c06b78960c01b613014565b5b80610a69575060001515610a4984612cbb565b1515148015610a685750610a6767191bce605bbe39e960c01b613014565b5b5b15610b1c57610a826743c811d7ebea34e260c01b612ffd565b610a96674bbcb9ad6c0575cd60c01b612ffd565b610aaa672e0f4923137a906c60c01b612ffd565b6040518060400160405280600381526020017f31323300000000000000000000000000000000000000000000000000000000008152506040517f08c379a0000000000000000000000000000000000000000000000000000000008152600401610b139190613f4c565b60405180910390fd5b610b3067a96dc2f4d996f3c460c01b612ffd565b610b4467f9b8f6c434a68ce060c01b612ffd565b610b586725c533eab0ce6b4460c01b612ffd565b60048460ff161115610c1257610b78671a6363f0e67abea060c01b612ffd565b610b8c67404780c6028aaf7860c01b612ffd565b610ba0675ce93495b5efa9ae60c01b612ffd565b6040518060400160405280600381526020017f31313100000000000000000000000000000000000000000000000000000000008152506040517f08c379a0000000000000000000000000000000000000000000000000000000008152600401610c099190613f4c565b60405180910390fd5b610c26679c35eaa37728c1be60c01b612ffd565b610c3a6716a9d5d42fb1d8d060c01b612ffd565b82609b8560ff1681548110610c78577f4e487b7100000000000000000000000000000000000000000000000000000000600052603260045260246000fd5b9060005260206000200160006101000a81548173ffffffffffffffffffffffffffffffffffffffff021916908373ffffffffffffffffffffffffffffffffffffffff160217905550610cd46702b227a8c77196a460c01b612ffd565b609c8460ff1681548110610d11577f4e487b7100000000000000000000000000000000000000000000000000000000600052603260045260246000fd5b90600052602060002090602091828204019190069054906101000a900460ff16609a60008282829054906101000a900460ff16610d4e919061427d565b92506101000a81548160ff021916908360ff160217905550610d7a677c69152068d9792760c01b612ffd565b81609c8560ff1681548110610db8577f4e487b7100000000000000000000000000000000000000000000000000000000600052603260045260246000fd5b90600052602060002090602091828204019190066101000a81548160ff021916908360ff160217905550610df66726030c5f41c5968c60c01b612ffd565b81609a60008282829054906101000a900460ff16610e1491906141bb565b92506101000a81548160ff021916908360ff16021790555050505050565b600060686000838152602001908152602001600020600101549050919050565b6000610e6867d8781a46db16bcb560c01b612ffd565b610e7c670ca07d09e8c0c57660c01b612ffd565b610e9067fecc8f151d60caa860c01b612ffd565b609a60019054906101000a900473ffffffffffffffffffffffffffffffffffffffff1673ffffffffffffffffffffffffffffffffffffffff16637eeda7036040518163ffffffff1660e01b815260040160206040518083038186803b158015610ef857600080fd5b505afa158015610f0c573d6000803e3d6000fd5b505050506040513d601f19601f82011682018060405250810190610f309190613a9d565b905090565b610f3e82610e32565b610f4781613000565b610f51838361301f565b505050565b610f5e613100565b73ffffffffffffffffffffffffffffffffffffffff168173ffffffffffffffffffffffffffffffffffffffff1614610fcb576040517f08c379a0000000000000000000000000000000000000000000000000000000008152600401610fc290613fee565b60405180910390fd5b610fd58282613108565b5050565b610fed671c229cb4918a4d8e60c01b612ffd565b6000600360019054906101000a900460ff1615905080801561102157506001600360009054906101000a900460ff1660ff16105b806110505750611030306131ea565b15801561104f57506001600360009054906101000a900460ff1660ff16145b5b61108f576040517f08c379a000000000000000000000000000000000000000000000000000000000815260040161108690613fae565b60405180910390fd5b6001600360006101000a81548160ff021916908360ff16021790555080156110cd576001600360016101000a81548160ff0219169083151502179055505b6110e1670c4da06261033b7d60c01b612ffd565b6110f5677fe8a173fa3e1f8060c01b612ffd565b61110967931a3876f9daaa9e60c01b612ffd565b61111d6771c05a7d6710621060c01b612ffd565b61112561320d565b6111396739e586c885bcef7a60c01b612ffd565b61114d67b684b1aaf5373e8a60c01b612ffd565b61115a6000801b8461301f565b61116e673a5d68fe3ff2178560c01b612ffd565b61118267b5c931dea2addc9960c01b612ffd565b6111ac7ffbd454f36a7e1a388bd6fc3ab10d434aa4578f811acbbcf33afb1c697486313c8361301f565b6111c0675e763d333447f8d060c01b612ffd565b6111d467ebbce7f874d07a5c60c01b612ffd565b6111e16000801b33613108565b6111f5670fa866383794996460c01b612ffd565b611209678d1320a1696eeb1d60c01b612ffd565b6005855111801561122a5750611229671d8ad629db7d59a360c01b613014565b5b80611252575060058451118015611251575061125067021400ac828ed23a60c01b613014565b5b5b156113055761126b677feb5268df4ead4260c01b612ffd565b61127f675203c12d22fe3ab760c01b612ffd565b611293677cc02d4e6132ebe060c01b612ffd565b6040518060400160405280600381526020017f31323400000000000000000000000000000000000000000000000000000000008152506040517f08c379a00000000000000000000000000000000000000000000000000000000081526004016112fc9190613f4c565b60405180910390fd5b6113196797440e2940f5a97560c01b612ffd565b61132d6714e07d2a20fe319660c01b612ffd565b42609d81905550611348676634a2f4b7631d5f60c01b612ffd565b6201518060008190555061136667635f0a7acd24aee760c01b612ffd565b62015180426113759190614165565b60018190555061138f673d1386e0ecc9264160c01b612ffd565b85609a60016101000a81548173ffffffffffffffffffffffffffffffffffffffff021916908373ffffffffffffffffffffffffffffffffffffffff1602179055506113e4673e6223695ae43bf260c01b612ffd565b6113f8678a148ee1580be84460c01b612ffd565b60005b8551811015611619576114186740b477b3c746179260c01b612ffd565b848181518110611451577f4e487b7100000000000000000000000000000000000000000000000000000000600052603260045260246000fd5b6020026020010151609a60008282829054906101000a900460ff1661147691906141bb565b92506101000a81548160ff021916908360ff1602179055506114a2678b8bb5a311bbecc460c01b612ffd565b6114b6670c3332977c81395660c01b612ffd565b609b8682815181106114f1577f4e487b7100000000000000000000000000000000000000000000000000000000600052603260045260246000fd5b60200260200101519080600181540180825580915050600190039060005260206000200160009091909190916101000a81548173ffffffffffffffffffffffffffffffffffffffff021916908373ffffffffffffffffffffffffffffffffffffffff16021790555061156d6709d9c8990dae7ccf60c01b612ffd565b61158167f858a1d16ca2566660c01b612ffd565b609c8582815181106115bc577f4e487b7100000000000000000000000000000000000000000000000000000000600052603260045260246000fd5b602002602001015190806001815401808255809150506001900390600052602060002090602091828204019190069091909190916101000a81548160ff021916908360ff1602179055508080611611906143dc565b9150506113fb565b508015611674576000600360016101000a81548160ff0219169083151502179055507f7f26b83ff96e1f2b6a682f133852f6798a09c465da95921460cefb3847402498600160405161166b9190613f31565b60405180910390a15b505050505050565b61169067e0a1ec08798971a160c01b612ffd565b7ffbd454f36a7e1a388bd6fc3ab10d434aa4578f811acbbcf33afb1c697486313c6116ba81613000565b6116ce67b0cbc051c0443c7c60c01b612ffd565b6116e267c811c5b8a634f05760c01b612ffd565b6116f6675056d31d277ade3260c01b612ffd565b61170a67cd79491cee79e52660c01b612ffd565b6005609b8054905014156117c65761172c67c878e915fba84d6760c01b612ffd565b61174067321689fbdab8569360c01b612ffd565b6117546755352dff8191cd7260c01b612ffd565b6040518060400160405280600381526020017f31323400000000000000000000000000000000000000000000000000000000008152506040517f08c379a00000000000000000000000000000000000000000000000000000000081526004016117bd9190613f4c565b60405180910390fd5b6117da67786934f4d77eb8ea60c01b612ffd565b6117ee670b064fe0d484074260c01b612ffd565b6118026762bd9d5a8ff8466d60c01b612ffd565b6000151561180f84612cbb565b151514801561182e575061182d673014fee7ff3b46cf60c01b613014565b5b8061188157508273ffffffffffffffffffffffffffffffffffffffff16600073ffffffffffffffffffffffffffffffffffffffff16148015611880575061187f67c98f5a8c47eea40a60c01b613014565b5b5b156119345761189a67dd8c0a931e72c78c60c01b612ffd565b6118ae676afb710b55fa6b9d60c01b612ffd565b6118c2676797e55d249d10da60c01b612ffd565b6040518060400160405280600381526020017f31323300000000000000000000000000000000000000000000000000000000008152506040517f08c379a000000000000000000000000000000000000000000000000000000000815260040161192b9190613f4c565b60405180910390fd5b611948677adc5d68bfca352060c01b612ffd565b61195c673c6c085ae8692edb60c01b612ffd565b61197067b75647b2811857fb60c01b612ffd565b609b839080600181540180825580915050600190039060005260206000200160009091909190916101000a81548173ffffffffffffffffffffffffffffffffffffffff021916908373ffffffffffffffffffffffffffffffffffffffff1602179055506119e767426c0723a4e9642f60c01b612ffd565b6119fb671ba0f895ceef960c60c01b612ffd565b609c8290806001815401808255809150506001900390600052602060002090602091828204019190069091909190916101000a81548160ff021916908360ff160217905550611a54676e7e020fcd11dde460c01b612ffd565b81609a60008282829054906101000a900460ff16611a7291906141bb565b92506101000a81548160ff021916908360ff160217905550505050565b60005481565b611aa967e3430b46e6c94e2260c01b612ffd565b7ffbd454f36a7e1a388bd6fc3ab10d434aa4578f811acbbcf33afb1c697486313c611ad381613000565b611ae767698bb711cbd174ad60c01b612ffd565b611afb678b81c6cd7500d73160c01b612ffd565b611b0f67fe3add042a14f2a860c01b612ffd565b611b23675c32c2d02d7c47ca60c01b612ffd565b6000479050611b3c67fab0148bf21e4ca960c01b612ffd565b611b50676b6fcd10c34906f060c01b612ffd565b60005b609b80549050811015611eb857611b7467c90ba3341634810b60c01b612ffd565b611b8867e0eebe030281136b60c01b612ffd565b6000609a60009054906101000a900460ff1660ff16609c8381548110611bd7577f4e487b7100000000000000000000000000000000000000000000000000000000600052603260045260246000fd5b90600052602060002090602091828204019190069054906101000a900460ff1660ff1684611c059190614223565b611c0f91906141f2565b9050611c2567666a625fc2acc6df60c01b612ffd565b611c3967552eb1428e8826e660c01b612ffd565b6000609b8381548110611c75577f4e487b7100000000000000000000000000000000000000000000000000000000600052603260045260246000fd5b9060005260206000200160009054906101000a900473ffffffffffffffffffffffffffffffffffffffff1673ffffffffffffffffffffffffffffffffffffffff1682604051611cc390613e24565b60006040518083038185875af1925050503d8060008114611d00576040519150601f19603f3d011682016040523d82523d6000602084013e611d05565b606091505b50509050611d1d67e055f958ee45b35d60c01b612ffd565b611d3167b94529f399daad9360c01b612ffd565b611d45674494d8a77399bc2460c01b612ffd565b806040518060400160405280600381526020017f313132000000000000000000000000000000000000000000000000000000000081525090611dbd576040517f08c379a0000000000000000000000000000000000000000000000000000000008152600401611db49190613f4c565b60405180910390fd5b50611dd2670d1887be79039c5660c01b612ffd565b611de667cbe74f9eda16db8b60c01b612ffd565b611dfa67d0e8ec2aeec4ae3160c01b612ffd565b81609b8481548110611e35577f4e487b7100000000000000000000000000000000000000000000000000000000600052603260045260246000fd5b9060005260206000200160009054906101000a900473ffffffffffffffffffffffffffffffffffffffff1673ffffffffffffffffffffffffffffffffffffffff16427f42affc57c2b30e1ac5957640cfb86fcd839a295d2ec7eed57db385dd03aecd2c60405160405180910390a450508080611eb0906143dc565b915050611b53565b50611ecd678b1e9003dc2f0a4360c01b612ffd565b611ee1678a1693bc958d9dfc60c01b612ffd565b611ee961325e565b50611efe675aa837893bc8747660c01b612ffd565b42609d819055505050565b611f1d67b5c95a251a1f87e360c01b612ffd565b611f316740a62aafbba6118b60c01b612ffd565b611f456784e99b6e9ed5db7960c01b612ffd565b60015442118015611f665750611f6567503e851ccdda710160c01b613014565b5b80611f8f57506000600254148015611f8e5750611f8d67a64cf501b3baed8760c01b613014565b5b5b15611ff757611fa86781b1b30a33ed692360c01b612ffd565b611fbc675ea5a1a5601fff2660c01b612ffd565b611fc4610e52565b600281905550611fde679de2bf02bd181dc360c01b612ffd565b60005442611fec9190614165565b6001819055506120a5565b61200b67bceb767235eddd2a60c01b612ffd565b61201f67be917d71f65437a360c01b612ffd565b61203367de87d47c5dfb0ce560c01b612ffd565b6040518060400160405280600381526020017f31323100000000000000000000000000000000000000000000000000000000008152506040517f08c379a000000000000000000000000000000000000000000000000000000000815260040161209c9190613f4c565b60405180910390fd5b565b6120bb67568df52cf4b2280a60c01b612ffd565b7ffbd454f36a7e1a388bd6fc3ab10d434aa4578f811acbbcf33afb1c697486313c6120e581613000565b6120f9674c64c848895dd60d60c01b612ffd565b61210d676a9a4e0d2054d03d60c01b612ffd565b61212167b1667b9bff23ed1e60c01b612ffd565b81609a60016101000a81548173ffffffffffffffffffffffffffffffffffffffff021916908373ffffffffffffffffffffffffffffffffffffffff1602179055505050565b60006068600084815260200190815260200160002060000160008373ffffffffffffffffffffffffffffffffffffffff1673ffffffffffffffffffffffffffffffffffffffff16815260200190815260200160002060009054906101000a900460ff16905092915050565b60606121e7678c3f1895fdcf35a460c01b612ffd565b6121fb67bb81b91bae7707c560c01b612ffd565b61220f674b25d2c485e071e560c01b612ffd565b609b80548060200260200160405190810160405280929190818152602001828054801561229157602002820191906000526020600020905b8160009054906101000a900473ffffffffffffffffffffffffffffffffffffffff1673ffffffffffffffffffffffffffffffffffffffff1681526020019060010190808311612247575b5050505050905090565b60006122b16723112d300f94f2c660c01b612ffd565b6122c5674718a89ef741288060c01b612ffd565b6122d9674f243c5a37af1da260c01b612ffd565b600154905090565b6000801b81565b60006122fe6729f22ffa5ff5301c60c01b612ffd565b612312674002ed70d033ff9b60c01b612ffd565b612326670178ba5d8398dda160c01b612ffd565b609a60009054906101000a900460ff16905090565b600061235167be6b93a65ff3ad9560c01b612ffd565b61236567d8bd513caec73d2260c01b612ffd565b61237967a047af03dd5b251860c01b612ffd565b609a60019054906101000a900473ffffffffffffffffffffffffffffffffffffffff16905090565b60006123b767d8af1970f9b6fe2c60c01b612ffd565b6123cb67b36af81c20c9dbd760c01b612ffd565b6123df67ef4c5368c5b0a64b60c01b612ffd565b609a60009054906101000a900460ff1660ff1647609c8460ff1681548110612430577f4e487b7100000000000000000000000000000000000000000000000000000000600052603260045260246000fd5b90600052602060002090602091828204019190069054906101000a900460ff1660ff1661245d9190614223565b61246791906141f2565b9050919050565b60006124846705bb0c25ff05bb3260c01b613343565b6124986731301bec022fdee560c01b613343565b6124ac67463f38798a2f6ea560c01b613343565b42600154101561252d576124ca67341a09d70c91193860c01b613343565b6124de67fd13858d30b4e0f360c01b613343565b6124f2679b977cd0c0a3bf3a60c01b613343565b6040517f08c379a000000000000000000000000000000000000000000000000000000000815260040161252490613f8e565b60405180910390fd5b6125416727e4d34d0d1ff58b60c01b613343565b6125556779a9c7a6ba68d5cb60c01b613343565b61256967eb1b54e909ec2d3560c01b613343565b600254905090565b6125856796a511ea9df57f6460c01b612ffd565b61259967dd9857919bf0df1760c01b612ffd565b6125ad6736e992b76e3719c960c01b612ffd565b600054609d546125bd9190614165565b421180156125db57506125da671c2dd6aef3efa06b60c01b613014565b5b80612628575061260b7ffbd454f36a7e1a388bd6fc3ab10d434aa4578f811acbbcf33afb1c697486313c33612166565b8015612627575061262667da9725cd7ee489e360c01b613014565b5b5b15612be457612641675c9059afdbd3a11360c01b612ffd565b612655673590a53c2d4a851860c01b612ffd565b61266967f93fa335c931059c60c01b612ffd565b6000612673610e52565b905061268967a20dfc3f838fc85660c01b612ffd565b61269d671c099e94634fb94660c01b612ffd565b60003273ffffffffffffffffffffffffffffffffffffffff16826040516126c390613e24565b60006040518083038185875af1925050503d8060008114612700576040519150601f19603f3d011682016040523d82523d6000602084013e612705565b606091505b5050905061271d67d940c2885ea7f7b760c01b612ffd565b61273167c8e257c8d0d95de460c01b612ffd565b61274567c1aa8f0d1068c5d960c01b612ffd565b806040518060400160405280600381526020017f3132320000000000000000000000000000000000000000000000000000000000815250906127bd576040517f08c379a00000000000000000000000000000000000000000000000000000000081526004016127b49190613f4c565b60405180910390fd5b506127d267cbdae4ee3e0f939f60c01b612ffd565b6127e6673e923751ef7b0b9060c01b612ffd565b6127fa67d5905c6aaf22826160c01b612ffd565b6000479050612813678c723ba7c630fcab60c01b612ffd565b61282767fefc878b47d6dcf060c01b612ffd565b60005b609b80549050811015612b8f5761284b67b01626804dcc1e8960c01b612ffd565b61285f67411e0948291d2a0160c01b612ffd565b6000609a60009054906101000a900460ff1660ff16609c83815481106128ae577f4e487b7100000000000000000000000000000000000000000000000000000000600052603260045260246000fd5b90600052602060002090602091828204019190069054906101000a900460ff1660ff16846128dc9190614223565b6128e691906141f2565b90506128fc6703cc28a97aa59d7060c01b612ffd565b612910677bc98eedf5e8ea1260c01b612ffd565b6000609b838154811061294c577f4e487b7100000000000000000000000000000000000000000000000000000000600052603260045260246000fd5b9060005260206000200160009054906101000a900473ffffffffffffffffffffffffffffffffffffffff1673ffffffffffffffffffffffffffffffffffffffff168260405161299a90613e24565b60006040518083038185875af1925050503d80600081146129d7576040519150601f19603f3d011682016040523d82523d6000602084013e6129dc565b606091505b505090506129f467c22ded37809c962e60c01b612ffd565b612a08671be705237d2ca16860c01b612ffd565b612a1c679076812a4fe05fa960c01b612ffd565b806040518060400160405280600381526020017f313132000000000000000000000000000000000000000000000000000000000081525090612a94576040517f08c379a0000000000000000000000000000000000000000000000000000000008152600401612a8b9190613f4c565b60405180910390fd5b50612aa967247f19ad70e0231960c01b612ffd565b612abd6721da7887241616a960c01b612ffd565b612ad16799e1127cd2f6034960c01b612ffd565b81609b8481548110612b0c577f4e487b7100000000000000000000000000000000000000000000000000000000600052603260045260246000fd5b9060005260206000200160009054906101000a900473ffffffffffffffffffffffffffffffffffffffff1673ffffffffffffffffffffffffffffffffffffffff16427f42affc57c2b30e1ac5957640cfb86fcd839a295d2ec7eed57db385dd03aecd2c60405160405180910390a450508080612b87906143dc565b91505061282a565b50612ba467eb00474c6148360c60c01b612ffd565b42609d81905550612bbf6719037002d2efb5f660c01b612ffd565b612bd367bd39fef3d62fdf5360c01b612ffd565b612bdb61325e565b50505050612c92565b612bf867f1d094167b61072060c01b612ffd565b612c0c67fef3342d88fa031260c01b612ffd565b612c206727ea4f7cb266a19a60c01b612ffd565b6040518060400160405280600381526020017f31323100000000000000000000000000000000000000000000000000000000008152506040517f08c379a0000000000000000000000000000000000000000000000000000000008152600401612c899190613f4c565b60405180910390fd5b565b612c9d82610e32565b612ca681613000565b612cb08383613108565b505050565b60025481565b6000612cd167b82b4a9d67267ff560c01b612ffd565b612ce567e60d92576531253860c01b612ffd565b612cf967516e3834c124624860c01b612ffd565b60005b609b80549050811015612e3657612d1d6792d29f741bed057660c01b612ffd565b612d3167f93690ea0542934060c01b612ffd565b8273ffffffffffffffffffffffffffffffffffffffff16609b8281548110612d82577f4e487b7100000000000000000000000000000000000000000000000000000000600052603260045260246000fd5b9060005260206000200160009054906101000a900473ffffffffffffffffffffffffffffffffffffffff1673ffffffffffffffffffffffffffffffffffffffff161415612e0f57612ddd6793deb48354a4ef4e60c01b612ffd565b612df167c6aea6261c2997e460c01b612ffd565b612e0567e9181d9083a33fa960c01b612ffd565b6000915050612e64565b612e236738bc822bb4aa795260c01b612ffd565b8080612e2e906143dc565b915050612cfc565b50612e4b672d25d6632cacc51a60c01b612ffd565b612e5f6756ea06c72865b58d60c01b612ffd565b600190505b919050565b7ffbd454f36a7e1a388bd6fc3ab10d434aa4578f811acbbcf33afb1c697486313c81565b6000612ea3679c29da19128e288660c01b612ffd565b612eb767811f46f3a3a811b760c01b612ffd565b612ecb67f0e721c23953f41e60c01b612ffd565b609d54905090565b60015481565b6060612eef675bb06893beca270560c01b612ffd565b612f03679189c419732f307460c01b612ffd565b612f17671cf8e5db02ef5b4b60c01b612ffd565b609c805480602002602001604051908101604052809291908181526020018280548015612f8957602002820191906000526020600020906000905b82829054906101000a900460ff1660ff1681526020019060010190602082600001049283019260010382029150808411612f525790505b5050505050905090565b60007f01ffc9a7000000000000000000000000000000000000000000000000000000007bffffffffffffffffffffffffffffffffffffffffffffffffffffffff1916827bffffffffffffffffffffffffffffffffffffffffffffffffffffffff1916149050919050565b50565b6130118161300c613100565b613346565b50565b600060019050919050565b6130298282612166565b6130fc5760016068600084815260200190815260200160002060000160008373ffffffffffffffffffffffffffffffffffffffff1673ffffffffffffffffffffffffffffffffffffffff16815260200190815260200160002060006101000a81548160ff0219169083151502179055506130a1613100565b73ffffffffffffffffffffffffffffffffffffffff168173ffffffffffffffffffffffffffffffffffffffff16837f2f8788117e7eff1d82e926ec794901d17c78024a50270940304540a733656f0d60405160405180910390a45b5050565b600033905090565b6131128282612166565b156131e65760006068600084815260200190815260200160002060000160008373ffffffffffffffffffffffffffffffffffffffff1673ffffffffffffffffffffffffffffffffffffffff16815260200190815260200160002060006101000a81548160ff02191690831515021790555061318b613100565b73ffffffffffffffffffffffffffffffffffffffff168173ffffffffffffffffffffffffffffffffffffffff16837ff6391f5c32d9c69d2a47ea670b442974b53935d1edc7fd64eb21e047a839171b60405160405180910390a45b5050565b6000808273ffffffffffffffffffffffffffffffffffffffff163b119050919050565b600360019054906101000a900460ff1661325c576040517f08c379a000000000000000000000000000000000000000000000000000000000815260040161325390613fce565b60405180910390fd5b565b600061327467e2b785197f51ab6a60c01b612ffd565b6132886731d7f00cb30d5e5160c01b612ffd565b61329c67805f4074e1d6165f60c01b612ffd565b609a60019054906101000a900473ffffffffffffffffffffffffffffffffffffffff1673ffffffffffffffffffffffffffffffffffffffff1663e58456e96040518163ffffffff1660e01b8152600401602060405180830381600087803b15801561330657600080fd5b505af115801561331a573d6000803e3d6000fd5b505050506040513d601f19601f8201168201806040525081019061333e91906139bd565b905090565b50565b6133508282612166565b6133c75761335d816133cb565b61336b8360001c60206133f8565b60405160200161337c929190613e39565b6040516020818303038152906040526040517f08c379a00000000000000000000000000000000000000000000000000000000081526004016133be9190613f4c565b60405180910390fd5b5050565b60606133f18273ffffffffffffffffffffffffffffffffffffffff16601460ff166133f8565b9050919050565b60606000600283600261340b9190614223565b6134159190614165565b67ffffffffffffffff811115613454577f4e487b7100000000000000000000000000000000000000000000000000000000600052604160045260246000fd5b6040519080825280601f01601f1916602001820160405280156134865781602001600182028036833780820191505090505b5090507f3000000000000000000000000000000000000000000000000000000000000000816000815181106134e4577f4e487b7100000000000000000000000000000000000000000000000000000000600052603260045260246000fd5b60200101907effffffffffffffffffffffffffffffffffffffffffffffffffffffffffffff1916908160001a9053507f78000000000000000000000000000000000000000000000000000000000000008160018151811061356e577f4e487b7100000000000000000000000000000000000000000000000000000000600052603260045260246000fd5b60200101907effffffffffffffffffffffffffffffffffffffffffffffffffffffffffffff1916908160001a905350600060018460026135ae9190614223565b6135b89190614165565b90505b60018111156136a4577f3031323334353637383961626364656600000000000000000000000000000000600f861660108110613620577f4e487b7100000000000000000000000000000000000000000000000000000000600052603260045260246000fd5b1a60f81b82828151811061365d577f4e487b7100000000000000000000000000000000000000000000000000000000600052603260045260246000fd5b60200101907effffffffffffffffffffffffffffffffffffffffffffffffffffffffffffff1916908160001a905350600485901c94508061369d90614381565b90506135bb565b50600084146136e8576040517f08c379a00000000000000000000000000000000000000000000000000000000081526004016136df90613f6e565b60405180910390fd5b8091505092915050565b600061370561370084614069565b614044565b9050808382526020820190508285602086028201111561372457600080fd5b60005b85811015613754578161373a88826137ca565b845260208401935060208301925050600181019050613727565b5050509392505050565b600061377161376c84614095565b614044565b9050808382526020820190508285602086028201111561379057600080fd5b60005b858110156137c057816137a6888261389c565b845260208401935060208301925050600181019050613793565b5050509392505050565b6000813590506137d981614657565b92915050565b600082601f8301126137f057600080fd5b81356138008482602086016136f2565b91505092915050565b600082601f83011261381a57600080fd5b813561382a84826020860161375e565b91505092915050565b6000815190506138428161466e565b92915050565b60008135905061385781614685565b92915050565b60008135905061386c8161469c565b92915050565b600081359050613881816146b3565b92915050565b600081519050613896816146b3565b92915050565b6000813590506138ab816146ca565b92915050565b6000602082840312156138c357600080fd5b60006138d1848285016137ca565b91505092915050565b600080600080600060a086880312156138f257600080fd5b6000613900888289016137ca565b955050602086013567ffffffffffffffff81111561391d57600080fd5b613929888289016137df565b945050604086013567ffffffffffffffff81111561394657600080fd5b61395288828901613809565b9350506060613963888289016137ca565b9250506080613974888289016137ca565b9150509295509295909350565b6000806040838503121561399457600080fd5b60006139a2858286016137ca565b92505060206139b38582860161389c565b9150509250929050565b6000602082840312156139cf57600080fd5b60006139dd84828501613833565b91505092915050565b6000602082840312156139f857600080fd5b6000613a0684828501613848565b91505092915050565b60008060408385031215613a2257600080fd5b6000613a3085828601613848565b9250506020613a41858286016137ca565b9150509250929050565b600060208284031215613a5d57600080fd5b6000613a6b8482850161385d565b91505092915050565b600060208284031215613a8657600080fd5b6000613a9484828501613872565b91505092915050565b600060208284031215613aaf57600080fd5b6000613abd84828501613887565b91505092915050565b600060208284031215613ad857600080fd5b6000613ae68482850161389c565b91505092915050565b600080600060608486031215613b0457600080fd5b6000613b128682870161389c565b9350506020613b23868287016137ca565b9250506040613b348682870161389c565b9150509250925092565b6000613b4a8383613b6e565b60208301905092915050565b6000613b628383613e06565b60208301905092915050565b613b77816142b1565b82525050565b613b86816142b1565b82525050565b6000613b97826140e1565b613ba1818561411c565b9350613bac836140c1565b8060005b83811015613bdd578151613bc48882613b3e565b9750613bcf83614102565b925050600181019050613bb0565b5085935050505092915050565b6000613bf5826140ec565b613bff818561412d565b9350613c0a836140d1565b8060005b83811015613c3b578151613c228882613b56565b9750613c2d8361410f565b925050600181019050613c0e565b5085935050505092915050565b613c51816142c3565b82525050565b613c60816142cf565b82525050565b613c6f8161433c565b82525050565b6000613c80826140f7565b613c8a8185614149565b9350613c9a81856020860161434e565b613ca3816144b2565b840191505092915050565b6000613cb9826140f7565b613cc3818561415a565b9350613cd381856020860161434e565b80840191505092915050565b6000613cec602083614149565b9150613cf7826144c3565b602082019050919050565b6000613d0f600a83614149565b9150613d1a826144ec565b602082019050919050565b6000613d32602e83614149565b9150613d3d82614515565b604082019050919050565b6000613d5560008361413e565b9150613d6082614564565b600082019050919050565b6000613d78602b83614149565b9150613d8382614567565b604082019050919050565b6000613d9b60178361415a565b9150613da6826145b6565b601782019050919050565b6000613dbe60118361415a565b9150613dc9826145df565b601182019050919050565b6000613de1602f83614149565b9150613dec82614608565b604082019050919050565b613e0081614325565b82525050565b613e0f8161432f565b82525050565b613e1e8161432f565b82525050565b6000613e2f82613d48565b9150819050919050565b6000613e4482613d8e565b9150613e508285613cae565b9150613e5b82613db1565b9150613e678284613cae565b91508190509392505050565b6000602082019050613e886000830184613b7d565b92915050565b6000604082019050613ea36000830185613b7d565b613eb06020830184613df7565b9392505050565b60006020820190508181036000830152613ed18184613b8c565b905092915050565b60006020820190508181036000830152613ef38184613bea565b905092915050565b6000602082019050613f106000830184613c48565b92915050565b6000602082019050613f2b6000830184613c57565b92915050565b6000602082019050613f466000830184613c66565b92915050565b60006020820190508181036000830152613f668184613c75565b905092915050565b60006020820190508181036000830152613f8781613cdf565b9050919050565b60006020820190508181036000830152613fa781613d02565b9050919050565b60006020820190508181036000830152613fc781613d25565b9050919050565b60006020820190508181036000830152613fe781613d6b565b9050919050565b6000602082019050818103600083015261400781613dd4565b9050919050565b60006020820190506140236000830184613df7565b92915050565b600060208201905061403e6000830184613e15565b92915050565b600061404e61405f565b905061405a82826143ab565b919050565b6000604051905090565b600067ffffffffffffffff82111561408457614083614483565b5b602082029050602081019050919050565b600067ffffffffffffffff8211156140b0576140af614483565b5b602082029050602081019050919050565b6000819050602082019050919050565b6000819050602082019050919050565b600081519050919050565b600081519050919050565b600081519050919050565b6000602082019050919050565b6000602082019050919050565b600082825260208201905092915050565b600082825260208201905092915050565b600081905092915050565b600082825260208201905092915050565b600081905092915050565b600061417082614325565b915061417b83614325565b9250827fffffffffffffffffffffffffffffffffffffffffffffffffffffffffffffffff038211156141b0576141af614425565b5b828201905092915050565b60006141c68261432f565b91506141d18361432f565b92508260ff038211156141e7576141e6614425565b5b828201905092915050565b60006141fd82614325565b915061420883614325565b92508261421857614217614454565b5b828204905092915050565b600061422e82614325565b915061423983614325565b9250817fffffffffffffffffffffffffffffffffffffffffffffffffffffffffffffffff048311821515161561427257614271614425565b5b828202905092915050565b60006142888261432f565b91506142938361432f565b9250828210156142a6576142a5614425565b5b828203905092915050565b60006142bc82614305565b9050919050565b60008115159050919050565b6000819050919050565b60007fffffffff0000000000000000000000000000000000000000000000000000000082169050919050565b600073ffffffffffffffffffffffffffffffffffffffff82169050919050565b6000819050919050565b600060ff82169050919050565b60006143478261432f565b9050919050565b60005b8381101561436c578082015181840152602081019050614351565b8381111561437b576000848401525b50505050565b600061438c82614325565b915060008214156143a05761439f614425565b5b600182039050919050565b6143b4826144b2565b810181811067ffffffffffffffff821117156143d3576143d2614483565b5b80604052505050565b60006143e782614325565b91507fffffffffffffffffffffffffffffffffffffffffffffffffffffffffffffffff82141561441a57614419614425565b5b600182019050919050565b7f4e487b7100000000000000000000000000000000000000000000000000000000600052601160045260246000fd5b7f4e487b7100000000000000000000000000000000000000000000000000000000600052601260045260246000fd5b7f4e487b7100000000000000000000000000000000000000000000000000000000600052604160045260246000fd5b6000601f19601f8301169050919050565b7f537472696e67733a20686578206c656e67746820696e73756666696369656e74600082015250565b7f7265736574466565282900000000000000000000000000000000000000000000600082015250565b7f496e697469616c697a61626c653a20636f6e747261637420697320616c72656160008201527f647920696e697469616c697a6564000000000000000000000000000000000000602082015250565b50565b7f496e697469616c697a61626c653a20636f6e7472616374206973206e6f74206960008201527f6e697469616c697a696e67000000000000000000000000000000000000000000602082015250565b7f416363657373436f6e74726f6c3a206163636f756e7420000000000000000000600082015250565b7f206973206d697373696e6720726f6c6520000000000000000000000000000000600082015250565b7f416363657373436f6e74726f6c3a2063616e206f6e6c792072656e6f756e636560008201527f20726f6c657320666f722073656c660000000000000000000000000000000000602082015250565b614660816142b1565b811461466b57600080fd5b50565b614677816142c3565b811461468257600080fd5b50565b61468e816142cf565b811461469957600080fd5b50565b6146a5816142d9565b81146146b057600080fd5b50565b6146bc81614325565b81146146c757600080fd5b50565b6146d38161432f565b81146146de57600080fd5b5056fea2646970667358221220fa9924492a0a1fff8848185cb6203af3fee0141ba4d4adfd526688a9e97c582264736f6c63430008020033",
  "linkReferences": {},
  "deployedLinkReferences": {}
}