{
  "_format": "hh-sol-artifact-1",
  "contractName": "FeeContract",
  "sourceName": "contracts/FeeContract.sol",
  "abi": [
    {
      "anonymous": false,
      "inputs": [
        {
          "indexed": true,
          "internalType": "uint256",
          "name": "timestamp",
          "type": "uint256"
        },
        {
          "indexed": true,
          "internalType": "address",
          "name": "to",
          "type": "address"
        },
        {
          "indexed": true,
          "internalType": "uint256",
          "name": "amount",
          "type": "uint256"
        }
      ],
      "name": "FeesDistributed",
      "type": "event"
    },
    {
      "anonymous": false,
      "inputs": [
        {
          "indexed": false,
          "internalType": "uint8",
          "name": "version",
          "type": "uint8"
        }
      ],
      "name": "Initialized",
      "type": "event"
    },
    {
      "anonymous": false,
      "inputs": [
        {
          "indexed": true,
          "internalType": "bytes32",
          "name": "role",
          "type": "bytes32"
        },
        {
          "indexed": true,
          "internalType": "bytes32",
          "name": "previousAdminRole",
          "type": "bytes32"
        },
        {
          "indexed": true,
          "internalType": "bytes32",
          "name": "newAdminRole",
          "type": "bytes32"
        }
      ],
      "name": "RoleAdminChanged",
      "type": "event"
    },
    {
      "anonymous": false,
      "inputs": [
        {
          "indexed": true,
          "internalType": "bytes32",
          "name": "role",
          "type": "bytes32"
        },
        {
          "indexed": true,
          "internalType": "address",
          "name": "account",
          "type": "address"
        },
        {
          "indexed": true,
          "internalType": "address",
          "name": "sender",
          "type": "address"
        }
      ],
      "name": "RoleGranted",
      "type": "event"
    },
    {
      "anonymous": false,
      "inputs": [
        {
          "indexed": true,
          "internalType": "bytes32",
          "name": "role",
          "type": "bytes32"
        },
        {
          "indexed": true,
          "internalType": "address",
          "name": "account",
          "type": "address"
        },
        {
          "indexed": true,
          "internalType": "address",
          "name": "sender",
          "type": "address"
        }
      ],
      "name": "RoleRevoked",
      "type": "event"
    },
    {
      "inputs": [],
      "name": "DEFAULT_ADMIN_ROLE",
      "outputs": [
        {
          "internalType": "bytes32",
          "name": "",
          "type": "bytes32"
        }
      ],
      "stateMutability": "view",
      "type": "function"
    },
    {
      "inputs": [],
      "name": "DISTRIBUTOR_ROLE",
      "outputs": [
        {
          "internalType": "bytes32",
          "name": "",
          "type": "bytes32"
        }
      ],
      "stateMutability": "view",
      "type": "function"
    },
    {
      "inputs": [],
      "name": "_resetFee",
      "outputs": [],
      "stateMutability": "nonpayable",
      "type": "function"
    },
    {
      "inputs": [
        {
          "internalType": "address",
          "name": "_newChannelAddress",
          "type": "address"
        },
        {
          "internalType": "uint8",
          "name": "_weight",
          "type": "uint8"
        }
      ],
      "name": "addChannel",
      "outputs": [],
      "stateMutability": "nonpayable",
      "type": "function"
    },
    {
      "inputs": [
        {
          "internalType": "uint8",
          "name": "_index",
          "type": "uint8"
        },
        {
          "internalType": "address",
          "name": "_newChannelAddress",
          "type": "address"
        },
        {
          "internalType": "uint8",
          "name": "_newWeight",
          "type": "uint8"
        }
      ],
      "name": "adjustChannel",
      "outputs": [],
      "stateMutability": "nonpayable",
      "type": "function"
    },
    {
      "inputs": [],
      "name": "collectFee",
      "outputs": [],
      "stateMutability": "payable",
      "type": "function"
    },
    {
      "inputs": [],
      "name": "dayMark",
      "outputs": [
        {
          "internalType": "uint256",
          "name": "",
          "type": "uint256"
        }
      ],
      "stateMutability": "view",
      "type": "function"
    },
    {
      "inputs": [],
      "name": "fee",
      "outputs": [
        {
          "internalType": "uint256",
          "name": "",
          "type": "uint256"
        }
      ],
      "stateMutability": "view",
      "type": "function"
    },
    {
      "inputs": [],
      "name": "forceFee",
      "outputs": [],
      "stateMutability": "payable",
      "type": "function"
    },
    {
      "inputs": [
        {
          "internalType": "uint8",
          "name": "index",
          "type": "uint8"
        }
      ],
      "name": "getChannelWeightByIndex",
      "outputs": [
        {
          "internalType": "address",
          "name": "",
          "type": "address"
        },
        {
          "internalType": "uint256",
          "name": "",
          "type": "uint256"
        }
      ],
      "stateMutability": "view",
      "type": "function"
    },
    {
      "inputs": [],
      "name": "getChannels",
      "outputs": [
        {
          "internalType": "address[]",
          "name": "",
          "type": "address[]"
        }
      ],
      "stateMutability": "view",
      "type": "function"
    },
    {
      "inputs": [],
      "name": "getFee",
      "outputs": [
        {
          "internalType": "uint256",
          "name": "",
          "type": "uint256"
        }
      ],
      "stateMutability": "view",
      "type": "function"
    },
    {
      "inputs": [
        {
          "internalType": "bytes32",
          "name": "role",
          "type": "bytes32"
        }
      ],
      "name": "getRoleAdmin",
      "outputs": [
        {
          "internalType": "bytes32",
          "name": "",
          "type": "bytes32"
        }
      ],
      "stateMutability": "view",
      "type": "function"
    },
    {
      "inputs": [],
      "name": "getTotalContractShares",
      "outputs": [
        {
          "internalType": "uint8",
          "name": "",
          "type": "uint8"
        }
      ],
      "stateMutability": "view",
      "type": "function"
    },
    {
      "inputs": [],
      "name": "getWieghts",
      "outputs": [
        {
          "internalType": "uint8[]",
          "name": "",
          "type": "uint8[]"
        }
      ],
      "stateMutability": "view",
      "type": "function"
    },
    {
      "inputs": [
        {
          "internalType": "bytes32",
          "name": "role",
          "type": "bytes32"
        },
        {
          "internalType": "address",
          "name": "account",
          "type": "address"
        }
      ],
      "name": "grantRole",
      "outputs": [],
      "stateMutability": "nonpayable",
      "type": "function"
    },
    {
      "inputs": [
        {
          "internalType": "bytes32",
          "name": "role",
          "type": "bytes32"
        },
        {
          "internalType": "address",
          "name": "account",
          "type": "address"
        }
      ],
      "name": "hasRole",
      "outputs": [
        {
          "internalType": "bool",
          "name": "",
          "type": "bool"
        }
      ],
      "stateMutability": "view",
      "type": "function"
    },
    {
      "inputs": [
        {
          "internalType": "address",
          "name": "_oracle",
          "type": "address"
        },
        {
          "internalType": "address[]",
          "name": "_channels",
          "type": "address[]"
        },
        {
          "internalType": "uint8[]",
          "name": "_weights",
          "type": "uint8[]"
        },
        {
          "internalType": "address",
          "name": "admin",
          "type": "address"
        },
        {
          "internalType": "address",
          "name": "distributor",
          "type": "address"
        }
      ],
      "name": "initialize",
      "outputs": [],
      "stateMutability": "nonpayable",
      "type": "function"
    },
    {
      "inputs": [
        {
          "internalType": "address",
          "name": "channel",
          "type": "address"
        }
      ],
      "name": "isOriginalAddress",
      "outputs": [
        {
          "internalType": "bool",
          "name": "",
          "type": "bool"
        }
      ],
      "stateMutability": "view",
      "type": "function"
    },
    {
      "inputs": [],
      "name": "lastDistribution",
      "outputs": [
        {
          "internalType": "uint256",
          "name": "",
          "type": "uint256"
        }
      ],
      "stateMutability": "view",
      "type": "function"
    },
    {
      "inputs": [],
      "name": "oracle",
      "outputs": [
        {
          "internalType": "address",
          "name": "",
          "type": "address"
        }
      ],
      "stateMutability": "view",
      "type": "function"
    },
    {
      "inputs": [],
      "name": "queryOracle",
      "outputs": [
        {
          "internalType": "uint256",
          "name": "feeAmount",
          "type": "uint256"
        }
      ],
      "stateMutability": "nonpayable",
      "type": "function"
    },
    {
      "inputs": [
        {
          "internalType": "bytes32",
          "name": "role",
          "type": "bytes32"
        },
        {
          "internalType": "address",
          "name": "account",
          "type": "address"
        }
      ],
      "name": "renounceRole",
      "outputs": [],
      "stateMutability": "nonpayable",
      "type": "function"
    },
    {
      "inputs": [],
      "name": "requiredReset",
      "outputs": [
        {
          "internalType": "uint256",
          "name": "",
          "type": "uint256"
        }
      ],
      "stateMutability": "view",
      "type": "function"
    },
    {
      "inputs": [
        {
          "internalType": "bytes32",
          "name": "role",
          "type": "bytes32"
        },
        {
          "internalType": "address",
          "name": "account",
          "type": "address"
        }
      ],
      "name": "revokeRole",
      "outputs": [],
      "stateMutability": "nonpayable",
      "type": "function"
    },
    {
      "inputs": [
        {
          "internalType": "uint256",
          "name": "new_epochLength",
          "type": "uint256"
        }
      ],
      "name": "setEpoch",
      "outputs": [],
      "stateMutability": "nonpayable",
      "type": "function"
    },
    {
      "inputs": [
        {
          "internalType": "address",
          "name": "_newOracle",
          "type": "address"
        }
      ],
      "name": "setOracle",
      "outputs": [],
      "stateMutability": "nonpayable",
      "type": "function"
    },
    {
      "inputs": [
        {
          "internalType": "bytes4",
          "name": "interfaceId",
          "type": "bytes4"
        }
      ],
      "name": "supportsInterface",
      "outputs": [
        {
          "internalType": "bool",
          "name": "",
          "type": "bool"
        }
      ],
      "stateMutability": "view",
      "type": "function"
    },
    {
      "stateMutability": "payable",
      "type": "receive"
    }
  ],
  "bytecode": "0x608060405234801561001057600080fd5b506135f8806100206000396000f3fe6080604052600436106101bb5760003560e01c806391d14854116100ec578063d547741f1161008a578063e661213c11610064578063e661213c146105c4578063f0bd87cc146105ef578063f5fa96e51461061a578063fd141f5c14610645576101c2565b8063d547741f14610533578063ddca3f431461055c578063deea2b9b14610587576101c2565b8063a4214c18116100c6578063a4214c18146104a8578063a717639c146104d3578063ced72f87146104fe578063d4d5d32a14610529576101c2565b806391d14854146104155780639575f6ac14610452578063a217fddf1461047d576101c2565b806336568abe116101595780635301828f116101335780635301828f1461038e5780635b71d699146103b75780637adbf973146103c15780637dc0d1d0146103ea576101c2565b806336568abe146103255780633df048ef1461034e5780634f12e56014610365576101c2565b80632354f69b116101955780632354f69b1461026b578063248a9ca31461029457806326afe980146102d15780632f2ff15d146102fc576101c2565b806301ffc9a7146101c75780630ceb2cef146102045780630e2c93121461022d576101c2565b366101c257005b600080fd5b3480156101d357600080fd5b506101ee60048036038101906101e991906128d9565b610670565b6040516101fb9190612dd1565b60405180910390f35b34801561021057600080fd5b5061022b60048036038101906102269190612902565b6106ea565b005b34801561023957600080fd5b50610254600480360381019061024f9190612954565b61071f565b604051610262929190612d64565b60405180910390f35b34801561027757600080fd5b50610292600480360381019061028d919061297d565b610802565b005b3480156102a057600080fd5b506102bb60048036038101906102b69190612874565b610b24565b6040516102c89190612dec565b60405180910390f35b3480156102dd57600080fd5b506102e6610b44565b6040516102f39190612ee4565b60405180910390f35b34801561030857600080fd5b50610323600480360381019061031e919061289d565b610bed565b005b34801561033157600080fd5b5061034c6004803603810190610347919061289d565b610c0e565b005b34801561035a57600080fd5b50610363610c91565b005b34801561037157600080fd5b5061038c60048036038101906103879190612768565b610cb5565b005b34801561039a57600080fd5b506103b560048036038101906103b0919061280f565b6110d8565b005b6103bf611323565b005b3480156103cd57600080fd5b506103e860048036038101906103e3919061273f565b61168b565b005b3480156103f657600080fd5b506103ff6116fa565b60405161040c9190612d49565b60405180910390f35b34801561042157600080fd5b5061043c6004803603810190610437919061289d565b611720565b6040516104499190612dd1565b60405180910390f35b34801561045e57600080fd5b5061046761178b565b6040516104749190612d8d565b60405180910390f35b34801561048957600080fd5b50610492611819565b60405161049f9190612dec565b60405180910390f35b3480156104b457600080fd5b506104bd611820565b6040516104ca9190612eff565b60405180910390f35b3480156104df57600080fd5b506104e8611837565b6040516104f59190612ee4565b60405180910390f35b34801561050a57600080fd5b5061051361183d565b6040516105209190612ee4565b60405180910390f35b61053161188c565b005b34801561053f57600080fd5b5061055a6004803603810190610555919061289d565b611cc4565b005b34801561056857600080fd5b50610571611ce5565b60405161057e9190612ee4565b60405180910390f35b34801561059357600080fd5b506105ae60048036038101906105a9919061273f565b611ceb565b6040516105bb9190612dd1565b60405180910390f35b3480156105d057600080fd5b506105d9611dc0565b6040516105e69190612ee4565b60405180910390f35b3480156105fb57600080fd5b50610604611dc6565b6040516106119190612dec565b60405180910390f35b34801561062657600080fd5b5061062f611dea565b60405161063c9190612ee4565b60405180910390f35b34801561065157600080fd5b5061065a611df0565b6040516106679190612daf565b60405180910390f35b60007f7965db0b000000000000000000000000000000000000000000000000000000007bffffffffffffffffffffffffffffffffffffffffffffffffffffffff1916827bffffffffffffffffffffffffffffffffffffffffffffffffffffffff191614806106e357506106e282611e6e565b5b9050919050565b7ffbd454f36a7e1a388bd6fc3ab10d434aa4578f811acbbcf33afb1c697486313c61071481611ed8565b81609e819055505050565b6000806000609b8460ff1681548110610761577f4e487b7100000000000000000000000000000000000000000000000000000000600052603260045260246000fd5b9060005260206000200160009054906101000a900473ffffffffffffffffffffffffffffffffffffffff1690506000609c8560ff16815481106107cd577f4e487b7100000000000000000000000000000000000000000000000000000000600052603260045260246000fd5b90600052602060002090602091828204019190069054906101000a900460ff16905081818060ff169050935093505050915091565b7ffbd454f36a7e1a388bd6fc3ab10d434aa4578f811acbbcf33afb1c697486313c61082c81611ed8565b600073ffffffffffffffffffffffffffffffffffffffff168373ffffffffffffffffffffffffffffffffffffffff16148061087357506000151561086f84611ceb565b1515145b156108ea576040518060400160405280600381526020017f31323300000000000000000000000000000000000000000000000000000000008152506040517f08c379a00000000000000000000000000000000000000000000000000000000081526004016108e19190612e22565b60405180910390fd5b60048460ff161115610968576040518060400160405280600381526020017f31313100000000000000000000000000000000000000000000000000000000008152506040517f08c379a000000000000000000000000000000000000000000000000000000000815260040161095f9190612e22565b60405180910390fd5b82609b8560ff16815481106109a6577f4e487b7100000000000000000000000000000000000000000000000000000000600052603260045260246000fd5b9060005260206000200160006101000a81548173ffffffffffffffffffffffffffffffffffffffff021916908373ffffffffffffffffffffffffffffffffffffffff160217905550609c8460ff1681548110610a2b577f4e487b7100000000000000000000000000000000000000000000000000000000600052603260045260246000fd5b90600052602060002090602091828204019190069054906101000a900460ff16609a60008282829054906101000a900460ff16610a68919061315e565b92506101000a81548160ff021916908360ff16021790555081609c8560ff1681548110610abe577f4e487b7100000000000000000000000000000000000000000000000000000000600052603260045260246000fd5b90600052602060002090602091828204019190066101000a81548160ff021916908360ff16021790555081609a60008282829054906101000a900460ff16610b06919061309c565b92506101000a81548160ff021916908360ff16021790555050505050565b600060686000838152602001908152602001600020600101549050919050565b6000609a60019054906101000a900473ffffffffffffffffffffffffffffffffffffffff1673ffffffffffffffffffffffffffffffffffffffff16637eeda7036040518163ffffffff1660e01b8152600401602060405180830381600087803b158015610bb057600080fd5b505af1158015610bc4573d6000803e3d6000fd5b505050506040513d601f19601f82011682018060405250810190610be8919061292b565b905090565b610bf682610b24565b610bff81611ed8565b610c098383611eec565b505050565b610c16611fcd565b73ffffffffffffffffffffffffffffffffffffffff168173ffffffffffffffffffffffffffffffffffffffff1614610c83576040517f08c379a0000000000000000000000000000000000000000000000000000000008152600401610c7a90612ec4565b60405180910390fd5b610c8d8282611fd5565b5050565b610c99610b44565b60028190555060005442610cad9190613046565b600181905550565b6000600360019054906101000a900460ff16159050808015610ce957506001600360009054906101000a900460ff1660ff16105b80610d185750610cf8306120b7565b158015610d1757506001600360009054906101000a900460ff1660ff16145b5b610d57576040517f08c379a0000000000000000000000000000000000000000000000000000000008152600401610d4e90612e84565b60405180910390fd5b6001600360006101000a81548160ff021916908360ff1602179055508015610d95576001600360016101000a81548160ff0219169083151502179055505b610d9d6120da565b610daa6000801b84611eec565b610dd47ffbd454f36a7e1a388bd6fc3ab10d434aa4578f811acbbcf33afb1c697486313c83611eec565b600585511180610de5575060058451115b15610e5c576040518060400160405280600381526020017f31323400000000000000000000000000000000000000000000000000000000008152506040517f08c379a0000000000000000000000000000000000000000000000000000000008152600401610e539190612e22565b60405180910390fd5b42609d8190555062015180609e819055506201518060008190555085609a60016101000a81548173ffffffffffffffffffffffffffffffffffffffff021916908373ffffffffffffffffffffffffffffffffffffffff16021790555060005b855181101561107557848181518110610efd577f4e487b7100000000000000000000000000000000000000000000000000000000600052603260045260246000fd5b6020026020010151609a60008282829054906101000a900460ff16610f22919061309c565b92506101000a81548160ff021916908360ff160217905550609b868281518110610f75577f4e487b7100000000000000000000000000000000000000000000000000000000600052603260045260246000fd5b60200260200101519080600181540180825580915050600190039060005260206000200160009091909190916101000a81548173ffffffffffffffffffffffffffffffffffffffff021916908373ffffffffffffffffffffffffffffffffffffffff160217905550609c858281518110611018577f4e487b7100000000000000000000000000000000000000000000000000000000600052603260045260246000fd5b602002602001015190806001815401808255809150506001900390600052602060002090602091828204019190069091909190916101000a81548160ff021916908360ff160217905550808061106d906132bd565b915050610ebb565b5080156110d0576000600360016101000a81548160ff0219169083151502179055507f7f26b83ff96e1f2b6a682f133852f6798a09c465da95921460cefb384740249860016040516110c79190612e07565b60405180910390a15b505050505050565b7ffbd454f36a7e1a388bd6fc3ab10d434aa4578f811acbbcf33afb1c697486313c61110281611ed8565b6005609b805490501415611182576040518060400160405280600381526020017f31323400000000000000000000000000000000000000000000000000000000008152506040517f08c379a00000000000000000000000000000000000000000000000000000000081526004016111799190612e22565b60405180910390fd5b6000151561118f84611ceb565b151514806111c957508273ffffffffffffffffffffffffffffffffffffffff16600073ffffffffffffffffffffffffffffffffffffffff16145b15611240576040518060400160405280600381526020017f31323300000000000000000000000000000000000000000000000000000000008152506040517f08c379a00000000000000000000000000000000000000000000000000000000081526004016112379190612e22565b60405180910390fd5b609b839080600181540180825580915050600190039060005260206000200160009091909190916101000a81548173ffffffffffffffffffffffffffffffffffffffff021916908373ffffffffffffffffffffffffffffffffffffffff160217905550609c8290806001815401808255809150506001900390600052602060002090602091828204019190069091909190916101000a81548160ff021916908360ff16021790555081609a60008282829054906101000a900460ff16611306919061309c565b92506101000a81548160ff021916908360ff160217905550505050565b7ffbd454f36a7e1a388bd6fc3ab10d434aa4578f811acbbcf33afb1c697486313c61134d81611ed8565b600047905060005b609b80549050811015611676576000609a60009054906101000a900460ff1660ff16609c83815481106113b1577f4e487b7100000000000000000000000000000000000000000000000000000000600052603260045260246000fd5b90600052602060002090602091828204019190069054906101000a900460ff1660ff16846113df9190613104565b6113e991906130d3565b90506000609b8381548110611427577f4e487b7100000000000000000000000000000000000000000000000000000000600052603260045260246000fd5b9060005260206000200160009054906101000a900473ffffffffffffffffffffffffffffffffffffffff1673ffffffffffffffffffffffffffffffffffffffff16826040516024016040516020818303038152906040527ffc8e2cd4000000000000000000000000000000000000000000000000000000007bffffffffffffffffffffffffffffffffffffffffffffffffffffffff19166020820180517bffffffffffffffffffffffffffffffffffffffffffffffffffffffff83818316178352505050506040516114f99190612ce3565b60006040518083038185875af1925050503d8060008114611536576040519150601f19603f3d011682016040523d82523d6000602084013e61153b565b606091505b50509050806040518060400160405280600381526020017f3131320000000000000000000000000000000000000000000000000000000000815250906115b7576040517f08c379a00000000000000000000000000000000000000000000000000000000081526004016115ae9190612e22565b60405180910390fd5b5081609b84815481106115f3577f4e487b7100000000000000000000000000000000000000000000000000000000600052603260045260246000fd5b9060005260206000200160009054906101000a900473ffffffffffffffffffffffffffffffffffffffff1673ffffffffffffffffffffffffffffffffffffffff16427f42affc57c2b30e1ac5957640cfb86fcd839a295d2ec7eed57db385dd03aecd2c60405160405180910390a45050808061166e906132bd565b915050611355565b5061167f61212b565b5042609d819055505050565b7ffbd454f36a7e1a388bd6fc3ab10d434aa4578f811acbbcf33afb1c697486313c6116b581611ed8565b81609a60016101000a81548173ffffffffffffffffffffffffffffffffffffffff021916908373ffffffffffffffffffffffffffffffffffffffff1602179055505050565b609a60019054906101000a900473ffffffffffffffffffffffffffffffffffffffff1681565b60006068600084815260200190815260200160002060000160008373ffffffffffffffffffffffffffffffffffffffff1673ffffffffffffffffffffffffffffffffffffffff16815260200190815260200160002060009054906101000a900460ff16905092915050565b6060609b80548060200260200160405190810160405280929190818152602001828054801561180f57602002820191906000526020600020905b8160009054906101000a900473ffffffffffffffffffffffffffffffffffffffff1673ffffffffffffffffffffffffffffffffffffffff16815260200190600101908083116117c5575b5050505050905090565b6000801b81565b6000609a60009054906101000a900460ff16905090565b609d5481565b6000426001541015611884576040517f08c379a000000000000000000000000000000000000000000000000000000000815260040161187b90612e64565b60405180910390fd5b600254905090565b609e54609d5461189c9190613046565b4211806118cf57506118ce7ffbd454f36a7e1a388bd6fc3ab10d434aa4578f811acbbcf33afb1c697486313c33611720565b5b15611c505760006118de610b44565b905060003273ffffffffffffffffffffffffffffffffffffffff168260405161190690612cfa565b60006040518083038185875af1925050503d8060008114611943576040519150601f19603f3d011682016040523d82523d6000602084013e611948565b606091505b50509050806040518060400160405280600381526020017f3132320000000000000000000000000000000000000000000000000000000000815250906119c4576040517f08c379a00000000000000000000000000000000000000000000000000000000081526004016119bb9190612e22565b60405180910390fd5b50600047905060005b609b80549050811015611c37576000609a60009054906101000a900460ff1660ff16609c8381548110611a29577f4e487b7100000000000000000000000000000000000000000000000000000000600052603260045260246000fd5b90600052602060002090602091828204019190069054906101000a900460ff1660ff1684611a579190613104565b611a6191906130d3565b90506000609b8381548110611a9f577f4e487b7100000000000000000000000000000000000000000000000000000000600052603260045260246000fd5b9060005260206000200160009054906101000a900473ffffffffffffffffffffffffffffffffffffffff1673ffffffffffffffffffffffffffffffffffffffff166108fc839081150290604051600060405180830381858888f193505050509050806040518060400160405280600381526020017f313132000000000000000000000000000000000000000000000000000000000081525090611b78576040517f08c379a0000000000000000000000000000000000000000000000000000000008152600401611b6f9190612e22565b60405180910390fd5b5081609b8481548110611bb4577f4e487b7100000000000000000000000000000000000000000000000000000000600052603260045260246000fd5b9060005260206000200160009054906101000a900473ffffffffffffffffffffffffffffffffffffffff1673ffffffffffffffffffffffffffffffffffffffff16427f42affc57c2b30e1ac5957640cfb86fcd839a295d2ec7eed57db385dd03aecd2c60405160405180910390a450508080611c2f906132bd565b9150506119cd565b5042609d81905550611c4761212b565b50505050611cc2565b6040518060400160405280600381526020017f31323100000000000000000000000000000000000000000000000000000000008152506040517f08c379a0000000000000000000000000000000000000000000000000000000008152600401611cb99190612e22565b60405180910390fd5b565b611ccd82610b24565b611cd681611ed8565b611ce08383611fd5565b505050565b60025481565b600080600090505b609b80549050811015611db5578273ffffffffffffffffffffffffffffffffffffffff16609b8281548110611d51577f4e487b7100000000000000000000000000000000000000000000000000000000600052603260045260246000fd5b9060005260206000200160009054906101000a900473ffffffffffffffffffffffffffffffffffffffff1673ffffffffffffffffffffffffffffffffffffffff161415611da2576000915050611dbb565b8080611dad906132bd565b915050611cf3565b50600190505b919050565b60005481565b7ffbd454f36a7e1a388bd6fc3ab10d434aa4578f811acbbcf33afb1c697486313c81565b60015481565b6060609c805480602002602001604051908101604052809291908181526020018280548015611e6457602002820191906000526020600020906000905b82829054906101000a900460ff1660ff1681526020019060010190602082600001049283019260010382029150808411611e2d5790505b5050505050905090565b60007f01ffc9a7000000000000000000000000000000000000000000000000000000007bffffffffffffffffffffffffffffffffffffffffffffffffffffffff1916827bffffffffffffffffffffffffffffffffffffffffffffffffffffffff1916149050919050565b611ee981611ee4611fcd565b6121d4565b50565b611ef68282611720565b611fc95760016068600084815260200190815260200160002060000160008373ffffffffffffffffffffffffffffffffffffffff1673ffffffffffffffffffffffffffffffffffffffff16815260200190815260200160002060006101000a81548160ff021916908315150217905550611f6e611fcd565b73ffffffffffffffffffffffffffffffffffffffff168173ffffffffffffffffffffffffffffffffffffffff16837f2f8788117e7eff1d82e926ec794901d17c78024a50270940304540a733656f0d60405160405180910390a45b5050565b600033905090565b611fdf8282611720565b156120b35760006068600084815260200190815260200160002060000160008373ffffffffffffffffffffffffffffffffffffffff1673ffffffffffffffffffffffffffffffffffffffff16815260200190815260200160002060006101000a81548160ff021916908315150217905550612058611fcd565b73ffffffffffffffffffffffffffffffffffffffff168173ffffffffffffffffffffffffffffffffffffffff16837ff6391f5c32d9c69d2a47ea670b442974b53935d1edc7fd64eb21e047a839171b60405160405180910390a45b5050565b6000808273ffffffffffffffffffffffffffffffffffffffff163b119050919050565b600360019054906101000a900460ff16612129576040517f08c379a000000000000000000000000000000000000000000000000000000000815260040161212090612ea4565b60405180910390fd5b565b6000609a60019054906101000a900473ffffffffffffffffffffffffffffffffffffffff1673ffffffffffffffffffffffffffffffffffffffff1663e58456e96040518163ffffffff1660e01b8152600401602060405180830381600087803b15801561219757600080fd5b505af11580156121ab573d6000803e3d6000fd5b505050506040513d601f19601f820116820180604052508101906121cf919061284b565b905090565b6121de8282611720565b612255576121eb81612259565b6121f98360001c6020612286565b60405160200161220a929190612d0f565b6040516020818303038152906040526040517f08c379a000000000000000000000000000000000000000000000000000000000815260040161224c9190612e22565b60405180910390fd5b5050565b606061227f8273ffffffffffffffffffffffffffffffffffffffff16601460ff16612286565b9050919050565b6060600060028360026122999190613104565b6122a39190613046565b67ffffffffffffffff8111156122e2577f4e487b7100000000000000000000000000000000000000000000000000000000600052604160045260246000fd5b6040519080825280601f01601f1916602001820160405280156123145781602001600182028036833780820191505090505b5090507f300000000000000000000000000000000000000000000000000000000000000081600081518110612372577f4e487b7100000000000000000000000000000000000000000000000000000000600052603260045260246000fd5b60200101907effffffffffffffffffffffffffffffffffffffffffffffffffffffffffffff1916908160001a9053507f7800000000000000000000000000000000000000000000000000000000000000816001815181106123fc577f4e487b7100000000000000000000000000000000000000000000000000000000600052603260045260246000fd5b60200101907effffffffffffffffffffffffffffffffffffffffffffffffffffffffffffff1916908160001a9053506000600184600261243c9190613104565b6124469190613046565b90505b6001811115612532577f3031323334353637383961626364656600000000000000000000000000000000600f8616601081106124ae577f4e487b7100000000000000000000000000000000000000000000000000000000600052603260045260246000fd5b1a60f81b8282815181106124eb577f4e487b7100000000000000000000000000000000000000000000000000000000600052603260045260246000fd5b60200101907effffffffffffffffffffffffffffffffffffffffffffffffffffffffffffff1916908160001a905350600485901c94508061252b90613262565b9050612449565b5060008414612576576040517f08c379a000000000000000000000000000000000000000000000000000000000815260040161256d90612e44565b60405180910390fd5b8091505092915050565b600061259361258e84612f3f565b612f1a565b905080838252602082019050828560208602820111156125b257600080fd5b60005b858110156125e257816125c88882612658565b8452602084019350602083019250506001810190506125b5565b5050509392505050565b60006125ff6125fa84612f6b565b612f1a565b9050808382526020820190508285602086028201111561261e57600080fd5b60005b8581101561264e5781612634888261272a565b845260208401935060208301925050600181019050612621565b5050509392505050565b60008135905061266781613538565b92915050565b600082601f83011261267e57600080fd5b813561268e848260208601612580565b91505092915050565b600082601f8301126126a857600080fd5b81356126b88482602086016125ec565b91505092915050565b6000815190506126d08161354f565b92915050565b6000813590506126e581613566565b92915050565b6000813590506126fa8161357d565b92915050565b60008135905061270f81613594565b92915050565b60008151905061272481613594565b92915050565b600081359050612739816135ab565b92915050565b60006020828403121561275157600080fd5b600061275f84828501612658565b91505092915050565b600080600080600060a0868803121561278057600080fd5b600061278e88828901612658565b955050602086013567ffffffffffffffff8111156127ab57600080fd5b6127b78882890161266d565b945050604086013567ffffffffffffffff8111156127d457600080fd5b6127e088828901612697565b93505060606127f188828901612658565b925050608061280288828901612658565b9150509295509295909350565b6000806040838503121561282257600080fd5b600061283085828601612658565b92505060206128418582860161272a565b9150509250929050565b60006020828403121561285d57600080fd5b600061286b848285016126c1565b91505092915050565b60006020828403121561288657600080fd5b6000612894848285016126d6565b91505092915050565b600080604083850312156128b057600080fd5b60006128be858286016126d6565b92505060206128cf85828601612658565b9150509250929050565b6000602082840312156128eb57600080fd5b60006128f9848285016126eb565b91505092915050565b60006020828403121561291457600080fd5b600061292284828501612700565b91505092915050565b60006020828403121561293d57600080fd5b600061294b84828501612715565b91505092915050565b60006020828403121561296657600080fd5b60006129748482850161272a565b91505092915050565b60008060006060848603121561299257600080fd5b60006129a08682870161272a565b93505060206129b186828701612658565b92505060406129c28682870161272a565b9150509250925092565b60006129d883836129fc565b60208301905092915050565b60006129f08383612cc5565b60208301905092915050565b612a0581613192565b82525050565b612a1481613192565b82525050565b6000612a2582612fb7565b612a2f8185612ffd565b9350612a3a83612f97565b8060005b83811015612a6b578151612a5288826129cc565b9750612a5d83612fe3565b925050600181019050612a3e565b5085935050505092915050565b6000612a8382612fc2565b612a8d818561300e565b9350612a9883612fa7565b8060005b83811015612ac9578151612ab088826129e4565b9750612abb83612ff0565b925050600181019050612a9c565b5085935050505092915050565b612adf816131a4565b82525050565b612aee816131b0565b82525050565b6000612aff82612fcd565b612b09818561301f565b9350612b1981856020860161322f565b80840191505092915050565b612b2e8161321d565b82525050565b6000612b3f82612fd8565b612b49818561302a565b9350612b5981856020860161322f565b612b6281613393565b840191505092915050565b6000612b7882612fd8565b612b82818561303b565b9350612b9281856020860161322f565b80840191505092915050565b6000612bab60208361302a565b9150612bb6826133a4565b602082019050919050565b6000612bce600b8361302a565b9150612bd9826133cd565b602082019050919050565b6000612bf1602e8361302a565b9150612bfc826133f6565b604082019050919050565b6000612c1460008361301f565b9150612c1f82613445565b600082019050919050565b6000612c37602b8361302a565b9150612c4282613448565b604082019050919050565b6000612c5a60178361303b565b9150612c6582613497565b601782019050919050565b6000612c7d60118361303b565b9150612c88826134c0565b601182019050919050565b6000612ca0602f8361302a565b9150612cab826134e9565b604082019050919050565b612cbf81613206565b82525050565b612cce81613210565b82525050565b612cdd81613210565b82525050565b6000612cef8284612af4565b915081905092915050565b6000612d0582612c07565b9150819050919050565b6000612d1a82612c4d565b9150612d268285612b6d565b9150612d3182612c70565b9150612d3d8284612b6d565b91508190509392505050565b6000602082019050612d5e6000830184612a0b565b92915050565b6000604082019050612d796000830185612a0b565b612d866020830184612cb6565b9392505050565b60006020820190508181036000830152612da78184612a1a565b905092915050565b60006020820190508181036000830152612dc98184612a78565b905092915050565b6000602082019050612de66000830184612ad6565b92915050565b6000602082019050612e016000830184612ae5565b92915050565b6000602082019050612e1c6000830184612b25565b92915050565b60006020820190508181036000830152612e3c8184612b34565b905092915050565b60006020820190508181036000830152612e5d81612b9e565b9050919050565b60006020820190508181036000830152612e7d81612bc1565b9050919050565b60006020820190508181036000830152612e9d81612be4565b9050919050565b60006020820190508181036000830152612ebd81612c2a565b9050919050565b60006020820190508181036000830152612edd81612c93565b9050919050565b6000602082019050612ef96000830184612cb6565b92915050565b6000602082019050612f146000830184612cd4565b92915050565b6000612f24612f35565b9050612f30828261328c565b919050565b6000604051905090565b600067ffffffffffffffff821115612f5a57612f59613364565b5b602082029050602081019050919050565b600067ffffffffffffffff821115612f8657612f85613364565b5b602082029050602081019050919050565b6000819050602082019050919050565b6000819050602082019050919050565b600081519050919050565b600081519050919050565b600081519050919050565b600081519050919050565b6000602082019050919050565b6000602082019050919050565b600082825260208201905092915050565b600082825260208201905092915050565b600081905092915050565b600082825260208201905092915050565b600081905092915050565b600061305182613206565b915061305c83613206565b9250827fffffffffffffffffffffffffffffffffffffffffffffffffffffffffffffffff0382111561309157613090613306565b5b828201905092915050565b60006130a782613210565b91506130b283613210565b92508260ff038211156130c8576130c7613306565b5b828201905092915050565b60006130de82613206565b91506130e983613206565b9250826130f9576130f8613335565b5b828204905092915050565b600061310f82613206565b915061311a83613206565b9250817fffffffffffffffffffffffffffffffffffffffffffffffffffffffffffffffff048311821515161561315357613152613306565b5b828202905092915050565b600061316982613210565b915061317483613210565b92508282101561318757613186613306565b5b828203905092915050565b600061319d826131e6565b9050919050565b60008115159050919050565b6000819050919050565b60007fffffffff0000000000000000000000000000000000000000000000000000000082169050919050565b600073ffffffffffffffffffffffffffffffffffffffff82169050919050565b6000819050919050565b600060ff82169050919050565b600061322882613210565b9050919050565b60005b8381101561324d578082015181840152602081019050613232565b8381111561325c576000848401525b50505050565b600061326d82613206565b9150600082141561328157613280613306565b5b600182039050919050565b61329582613393565b810181811067ffffffffffffffff821117156132b4576132b3613364565b5b80604052505050565b60006132c882613206565b91507fffffffffffffffffffffffffffffffffffffffffffffffffffffffffffffffff8214156132fb576132fa613306565b5b600182019050919050565b7f4e487b7100000000000000000000000000000000000000000000000000000000600052601160045260246000fd5b7f4e487b7100000000000000000000000000000000000000000000000000000000600052601260045260246000fd5b7f4e487b7100000000000000000000000000000000000000000000000000000000600052604160045260246000fd5b6000601f19601f8301169050919050565b7f537472696e67733a20686578206c656e67746820696e73756666696369656e74600082015250565b7f5f72657365744665652829000000000000000000000000000000000000000000600082015250565b7f496e697469616c697a61626c653a20636f6e747261637420697320616c72656160008201527f647920696e697469616c697a6564000000000000000000000000000000000000602082015250565b50565b7f496e697469616c697a61626c653a20636f6e7472616374206973206e6f74206960008201527f6e697469616c697a696e67000000000000000000000000000000000000000000602082015250565b7f416363657373436f6e74726f6c3a206163636f756e7420000000000000000000600082015250565b7f206973206d697373696e6720726f6c6520000000000000000000000000000000600082015250565b7f416363657373436f6e74726f6c3a2063616e206f6e6c792072656e6f756e636560008201527f20726f6c657320666f722073656c660000000000000000000000000000000000602082015250565b61354181613192565b811461354c57600080fd5b50565b613558816131a4565b811461356357600080fd5b50565b61356f816131b0565b811461357a57600080fd5b50565b613586816131ba565b811461359157600080fd5b50565b61359d81613206565b81146135a857600080fd5b50565b6135b481613210565b81146135bf57600080fd5b5056fea2646970667358221220bbeecdfcedf2ec9957606c9ea41bd9c8328ddcc150fcc8d7563926f08221e12364736f6c63430008020033",
  "linkReferences": {},
  "deployedLinkReferences": {}
}