{
  "_format": "hh-sol-artifact-1",
  "contractName": "FeeContract",
  "sourceName": "contracts/FeeContract.sol",
  "abi": [
    {
      "anonymous": false,
      "inputs": [
        {
          "indexed": true,
          "internalType": "uint256",
          "name": "timestamp",
          "type": "uint256"
        },
        {
          "indexed": true,
          "internalType": "address",
          "name": "to",
          "type": "address"
        },
        {
          "indexed": true,
          "internalType": "uint256",
          "name": "amount",
          "type": "uint256"
        }
      ],
      "name": "FeesDistributed",
      "type": "event"
    },
    {
      "anonymous": false,
      "inputs": [
        {
          "indexed": false,
          "internalType": "uint8",
          "name": "version",
          "type": "uint8"
        }
      ],
      "name": "Initialized",
      "type": "event"
    },
    {
      "anonymous": false,
      "inputs": [
        {
          "indexed": true,
          "internalType": "bytes32",
          "name": "role",
          "type": "bytes32"
        },
        {
          "indexed": true,
          "internalType": "bytes32",
          "name": "previousAdminRole",
          "type": "bytes32"
        },
        {
          "indexed": true,
          "internalType": "bytes32",
          "name": "newAdminRole",
          "type": "bytes32"
        }
      ],
      "name": "RoleAdminChanged",
      "type": "event"
    },
    {
      "anonymous": false,
      "inputs": [
        {
          "indexed": true,
          "internalType": "bytes32",
          "name": "role",
          "type": "bytes32"
        },
        {
          "indexed": true,
          "internalType": "address",
          "name": "account",
          "type": "address"
        },
        {
          "indexed": true,
          "internalType": "address",
          "name": "sender",
          "type": "address"
        }
      ],
      "name": "RoleGranted",
      "type": "event"
    },
    {
      "anonymous": false,
      "inputs": [
        {
          "indexed": true,
          "internalType": "bytes32",
          "name": "role",
          "type": "bytes32"
        },
        {
          "indexed": true,
          "internalType": "address",
          "name": "account",
          "type": "address"
        },
        {
          "indexed": true,
          "internalType": "address",
          "name": "sender",
          "type": "address"
        }
      ],
      "name": "RoleRevoked",
      "type": "event"
    },
    {
      "inputs": [],
      "name": "CONTRACT_SHARES",
      "outputs": [
        {
          "internalType": "uint8",
          "name": "",
          "type": "uint8"
        }
      ],
      "stateMutability": "view",
      "type": "function"
    },
    {
      "inputs": [],
      "name": "DEFAULT_ADMIN_ROLE",
      "outputs": [
        {
          "internalType": "bytes32",
          "name": "",
          "type": "bytes32"
        }
      ],
      "stateMutability": "view",
      "type": "function"
    },
    {
      "inputs": [],
      "name": "DISTRIBUTOR_ROLE",
      "outputs": [
        {
          "internalType": "bytes32",
          "name": "",
          "type": "bytes32"
        }
      ],
      "stateMutability": "view",
      "type": "function"
    },
    {
      "inputs": [],
      "name": "_resetFee",
      "outputs": [],
      "stateMutability": "nonpayable",
      "type": "function"
    },
    {
      "inputs": [
        {
          "internalType": "address",
          "name": "_newChannelAddress",
          "type": "address"
        },
        {
          "internalType": "uint8",
          "name": "_weight",
          "type": "uint8"
        }
      ],
      "name": "addChannel",
      "outputs": [],
      "stateMutability": "nonpayable",
      "type": "function"
    },
    {
      "inputs": [
        {
          "internalType": "uint8",
          "name": "_index",
          "type": "uint8"
        },
        {
          "internalType": "address",
          "name": "_newChannelAddress",
          "type": "address"
        },
        {
          "internalType": "uint8",
          "name": "_newWeight",
          "type": "uint8"
        }
      ],
      "name": "adjustChannel",
      "outputs": [],
      "stateMutability": "nonpayable",
      "type": "function"
    },
    {
      "inputs": [],
      "name": "collectFee",
      "outputs": [],
      "stateMutability": "payable",
      "type": "function"
    },
    {
      "inputs": [],
      "name": "dayMark",
      "outputs": [
        {
          "internalType": "uint256",
          "name": "",
          "type": "uint256"
        }
      ],
      "stateMutability": "view",
      "type": "function"
    },
    {
      "inputs": [],
      "name": "fee",
      "outputs": [
        {
          "internalType": "uint256",
          "name": "",
          "type": "uint256"
        }
      ],
      "stateMutability": "view",
      "type": "function"
    },
    {
      "inputs": [],
      "name": "forceFee",
      "outputs": [],
      "stateMutability": "payable",
      "type": "function"
    },
    {
      "inputs": [
        {
          "internalType": "uint8",
          "name": "index",
          "type": "uint8"
        }
      ],
      "name": "getChannelWeightByIndex",
      "outputs": [
        {
          "internalType": "address",
          "name": "",
          "type": "address"
        },
        {
          "internalType": "uint256",
          "name": "",
          "type": "uint256"
        }
      ],
      "stateMutability": "view",
      "type": "function"
    },
    {
      "inputs": [],
      "name": "getChannels",
      "outputs": [
        {
          "internalType": "address[]",
          "name": "",
          "type": "address[]"
        }
      ],
      "stateMutability": "view",
      "type": "function"
    },
    {
      "inputs": [],
      "name": "getFee",
      "outputs": [
        {
          "internalType": "uint256",
          "name": "",
          "type": "uint256"
        }
      ],
      "stateMutability": "view",
      "type": "function"
    },
    {
      "inputs": [
        {
          "internalType": "bytes32",
          "name": "role",
          "type": "bytes32"
        }
      ],
      "name": "getRoleAdmin",
      "outputs": [
        {
          "internalType": "bytes32",
          "name": "",
          "type": "bytes32"
        }
      ],
      "stateMutability": "view",
      "type": "function"
    },
    {
      "inputs": [],
      "name": "getWieghts",
      "outputs": [
        {
          "internalType": "uint8[]",
          "name": "",
          "type": "uint8[]"
        }
      ],
      "stateMutability": "view",
      "type": "function"
    },
    {
      "inputs": [
        {
          "internalType": "bytes32",
          "name": "role",
          "type": "bytes32"
        },
        {
          "internalType": "address",
          "name": "account",
          "type": "address"
        }
      ],
      "name": "grantRole",
      "outputs": [],
      "stateMutability": "nonpayable",
      "type": "function"
    },
    {
      "inputs": [
        {
          "internalType": "bytes32",
          "name": "role",
          "type": "bytes32"
        },
        {
          "internalType": "address",
          "name": "account",
          "type": "address"
        }
      ],
      "name": "hasRole",
      "outputs": [
        {
          "internalType": "bool",
          "name": "",
          "type": "bool"
        }
      ],
      "stateMutability": "view",
      "type": "function"
    },
    {
      "inputs": [
        {
          "internalType": "address",
          "name": "_oracle",
          "type": "address"
        },
        {
          "internalType": "address[]",
          "name": "_channels",
          "type": "address[]"
        },
        {
          "internalType": "uint8[]",
          "name": "_weights",
          "type": "uint8[]"
        },
        {
          "internalType": "address",
          "name": "admin",
          "type": "address"
        },
        {
          "internalType": "address",
          "name": "distributor",
          "type": "address"
        }
      ],
      "name": "initialize",
      "outputs": [],
      "stateMutability": "nonpayable",
      "type": "function"
    },
    {
      "inputs": [
        {
          "internalType": "address",
          "name": "channel",
          "type": "address"
        }
      ],
      "name": "isOriginalAddress",
      "outputs": [
        {
          "internalType": "bool",
          "name": "",
          "type": "bool"
        }
      ],
      "stateMutability": "view",
      "type": "function"
    },
    {
      "inputs": [],
      "name": "lastDistribution",
      "outputs": [
        {
          "internalType": "uint256",
          "name": "",
          "type": "uint256"
        }
      ],
      "stateMutability": "view",
      "type": "function"
    },
    {
      "inputs": [],
      "name": "oracle",
      "outputs": [
        {
          "internalType": "address",
          "name": "",
          "type": "address"
        }
      ],
      "stateMutability": "view",
      "type": "function"
    },
    {
      "inputs": [],
      "name": "queryOracle",
      "outputs": [
        {
          "internalType": "uint256",
          "name": "feeAmount",
          "type": "uint256"
        }
      ],
      "stateMutability": "nonpayable",
      "type": "function"
    },
    {
      "inputs": [
        {
          "internalType": "bytes32",
          "name": "role",
          "type": "bytes32"
        },
        {
          "internalType": "address",
          "name": "account",
          "type": "address"
        }
      ],
      "name": "renounceRole",
      "outputs": [],
      "stateMutability": "nonpayable",
      "type": "function"
    },
    {
      "inputs": [],
      "name": "requiredReset",
      "outputs": [
        {
          "internalType": "uint256",
          "name": "",
          "type": "uint256"
        }
      ],
      "stateMutability": "view",
      "type": "function"
    },
    {
      "inputs": [
        {
          "internalType": "bytes32",
          "name": "role",
          "type": "bytes32"
        },
        {
          "internalType": "address",
          "name": "account",
          "type": "address"
        }
      ],
      "name": "revokeRole",
      "outputs": [],
      "stateMutability": "nonpayable",
      "type": "function"
    },
    {
      "inputs": [
        {
          "internalType": "uint256",
          "name": "new_epochLength",
          "type": "uint256"
        }
      ],
      "name": "setEpoch",
      "outputs": [],
      "stateMutability": "nonpayable",
      "type": "function"
    },
    {
      "inputs": [
        {
          "internalType": "address",
          "name": "_newOracle",
          "type": "address"
        }
      ],
      "name": "setOracle",
      "outputs": [],
      "stateMutability": "nonpayable",
      "type": "function"
    },
    {
      "inputs": [
        {
          "internalType": "bytes4",
          "name": "interfaceId",
          "type": "bytes4"
        }
      ],
      "name": "supportsInterface",
      "outputs": [
        {
          "internalType": "bool",
          "name": "",
          "type": "bool"
        }
      ],
      "stateMutability": "view",
      "type": "function"
    },
    {
      "stateMutability": "payable",
      "type": "receive"
    }
  ],
  "bytecode": "0x608060405234801561001057600080fd5b50613509806100206000396000f3fe6080604052600436106101bb5760003560e01c806391d14854116100ec578063ddca3f431161008a578063f0bd87cc11610064578063f0bd87cc146105c4578063f5fa96e5146105ef578063f876f98a1461061a578063fd141f5c14610645576101c2565b8063ddca3f4314610531578063deea2b9b1461055c578063e661213c14610599576101c2565b8063a717639c116100c6578063a717639c146104a8578063ced72f87146104d3578063d4d5d32a146104fe578063d547741f14610508576101c2565b806391d14854146104155780639575f6ac14610452578063a217fddf1461047d576101c2565b806336568abe116101595780635301828f116101335780635301828f1461038e5780635b71d699146103b75780637adbf973146103c15780637dc0d1d0146103ea576101c2565b806336568abe146103255780633df048ef1461034e5780634f12e56014610365576101c2565b80632354f69b116101955780632354f69b1461026b578063248a9ca31461029457806326afe980146102d15780632f2ff15d146102fc576101c2565b806301ffc9a7146101c75780630ceb2cef146102045780630e2c93121461022d576101c2565b366101c257005b600080fd5b3480156101d357600080fd5b506101ee60048036038101906101e9919061287c565b610670565b6040516101fb9190612d51565b60405180910390f35b34801561021057600080fd5b5061022b600480360381019061022691906128a5565b6106ea565b005b34801561023957600080fd5b50610254600480360381019061024f91906128f7565b61071f565b604051610262929190612ce4565b60405180910390f35b34801561027757600080fd5b50610292600480360381019061028d9190612920565b610802565b005b3480156102a057600080fd5b506102bb60048036038101906102b69190612817565b610b24565b6040516102c89190612d6c565b60405180910390f35b3480156102dd57600080fd5b506102e6610b44565b6040516102f39190612e44565b60405180910390f35b34801561030857600080fd5b50610323600480360381019061031e9190612840565b610bed565b005b34801561033157600080fd5b5061034c60048036038101906103479190612840565b610c0e565b005b34801561035a57600080fd5b50610363610c91565b005b34801561037157600080fd5b5061038c6004803603810190610387919061270b565b610cb5565b005b34801561039a57600080fd5b506103b560048036038101906103b091906127b2565b6110d0565b005b6103bf61131b565b005b3480156103cd57600080fd5b506103e860048036038101906103e391906126e2565b611683565b005b3480156103f657600080fd5b506103ff6116f2565b60405161040c9190612cc9565b60405180910390f35b34801561042157600080fd5b5061043c60048036038101906104379190612840565b611718565b6040516104499190612d51565b60405180910390f35b34801561045e57600080fd5b50610467611783565b6040516104749190612d0d565b60405180910390f35b34801561048957600080fd5b50610492611811565b60405161049f9190612d6c565b60405180910390f35b3480156104b457600080fd5b506104bd611818565b6040516104ca9190612e44565b60405180910390f35b3480156104df57600080fd5b506104e861181e565b6040516104f59190612e44565b60405180910390f35b61050661186d565b005b34801561051457600080fd5b5061052f600480360381019061052a9190612840565b611ca5565b005b34801561053d57600080fd5b50610546611cc6565b6040516105539190612e44565b60405180910390f35b34801561056857600080fd5b50610583600480360381019061057e91906126e2565b611ccc565b6040516105909190612d51565b60405180910390f35b3480156105a557600080fd5b506105ae611da1565b6040516105bb9190612e44565b60405180910390f35b3480156105d057600080fd5b506105d9611da7565b6040516105e69190612d6c565b60405180910390f35b3480156105fb57600080fd5b50610604611dcb565b6040516106119190612e44565b60405180910390f35b34801561062657600080fd5b5061062f611dd1565b60405161063c9190612e5f565b60405180910390f35b34801561065157600080fd5b5061065a611de4565b6040516106679190612d2f565b60405180910390f35b60007f7965db0b000000000000000000000000000000000000000000000000000000007bffffffffffffffffffffffffffffffffffffffffffffffffffffffff1916827bffffffffffffffffffffffffffffffffffffffffffffffffffffffff191614806106e357506106e282611e62565b5b9050919050565b7ffbd454f36a7e1a388bd6fc3ab10d434aa4578f811acbbcf33afb1c697486313c61071481611ecc565b816009819055505050565b600080600060068460ff1681548110610761577f4e487b7100000000000000000000000000000000000000000000000000000000600052603260045260246000fd5b9060005260206000200160009054906101000a900473ffffffffffffffffffffffffffffffffffffffff169050600060078560ff16815481106107cd577f4e487b7100000000000000000000000000000000000000000000000000000000600052603260045260246000fd5b90600052602060002090602091828204019190069054906101000a900460ff16905081818060ff169050935093505050915091565b7ffbd454f36a7e1a388bd6fc3ab10d434aa4578f811acbbcf33afb1c697486313c61082c81611ecc565b600073ffffffffffffffffffffffffffffffffffffffff168373ffffffffffffffffffffffffffffffffffffffff16148061087357506000151561086f84611ccc565b1515145b156108ea576040518060400160405280600381526020017f31323300000000000000000000000000000000000000000000000000000000008152506040517f08c379a00000000000000000000000000000000000000000000000000000000081526004016108e19190612da2565b60405180910390fd5b60048460ff161115610968576040518060400160405280600381526020017f31313100000000000000000000000000000000000000000000000000000000008152506040517f08c379a000000000000000000000000000000000000000000000000000000000815260040161095f9190612da2565b60405180910390fd5b8260068560ff16815481106109a6577f4e487b7100000000000000000000000000000000000000000000000000000000600052603260045260246000fd5b9060005260206000200160006101000a81548173ffffffffffffffffffffffffffffffffffffffff021916908373ffffffffffffffffffffffffffffffffffffffff16021790555060078460ff1681548110610a2b577f4e487b7100000000000000000000000000000000000000000000000000000000600052603260045260246000fd5b90600052602060002090602091828204019190069054906101000a900460ff16600560008282829054906101000a900460ff16610a6891906130be565b92506101000a81548160ff021916908360ff1602179055508160078560ff1681548110610abe577f4e487b7100000000000000000000000000000000000000000000000000000000600052603260045260246000fd5b90600052602060002090602091828204019190066101000a81548160ff021916908360ff16021790555081600560008282829054906101000a900460ff16610b069190612ffc565b92506101000a81548160ff021916908360ff16021790555050505050565b600060046000838152602001908152602001600020600101549050919050565b6000600560019054906101000a900473ffffffffffffffffffffffffffffffffffffffff1673ffffffffffffffffffffffffffffffffffffffff16637eeda7036040518163ffffffff1660e01b8152600401602060405180830381600087803b158015610bb057600080fd5b505af1158015610bc4573d6000803e3d6000fd5b505050506040513d601f19601f82011682018060405250810190610be891906128ce565b905090565b610bf682610b24565b610bff81611ecc565b610c098383611ee0565b505050565b610c16611fc1565b73ffffffffffffffffffffffffffffffffffffffff168173ffffffffffffffffffffffffffffffffffffffff1614610c83576040517f08c379a0000000000000000000000000000000000000000000000000000000008152600401610c7a90612e24565b60405180910390fd5b610c8d8282611fc9565b5050565b610c99610b44565b60028190555060005442610cad9190612fa6565b600181905550565b6000600360019054906101000a900460ff16159050808015610ce957506001600360009054906101000a900460ff1660ff16105b80610d185750610cf8306120ab565b158015610d1757506001600360009054906101000a900460ff1660ff16145b5b610d57576040517f08c379a0000000000000000000000000000000000000000000000000000000008152600401610d4e90612e04565b60405180910390fd5b6001600360006101000a81548160ff021916908360ff1602179055508015610d95576001600360016101000a81548160ff0219169083151502179055505b610da26000801b84611ee0565b610dcc7ffbd454f36a7e1a388bd6fc3ab10d434aa4578f811acbbcf33afb1c697486313c83611ee0565b600585511180610ddd575060058451115b15610e54576040518060400160405280600381526020017f31323400000000000000000000000000000000000000000000000000000000008152506040517f08c379a0000000000000000000000000000000000000000000000000000000008152600401610e4b9190612da2565b60405180910390fd5b42600881905550620151806009819055506201518060008190555085600560016101000a81548173ffffffffffffffffffffffffffffffffffffffff021916908373ffffffffffffffffffffffffffffffffffffffff16021790555060005b855181101561106d57848181518110610ef5577f4e487b7100000000000000000000000000000000000000000000000000000000600052603260045260246000fd5b6020026020010151600560008282829054906101000a900460ff16610f1a9190612ffc565b92506101000a81548160ff021916908360ff1602179055506006868281518110610f6d577f4e487b7100000000000000000000000000000000000000000000000000000000600052603260045260246000fd5b60200260200101519080600181540180825580915050600190039060005260206000200160009091909190916101000a81548173ffffffffffffffffffffffffffffffffffffffff021916908373ffffffffffffffffffffffffffffffffffffffff1602179055506007858281518110611010577f4e487b7100000000000000000000000000000000000000000000000000000000600052603260045260246000fd5b602002602001015190806001815401808255809150506001900390600052602060002090602091828204019190069091909190916101000a81548160ff021916908360ff16021790555080806110659061321d565b915050610eb3565b5080156110c8576000600360016101000a81548160ff0219169083151502179055507f7f26b83ff96e1f2b6a682f133852f6798a09c465da95921460cefb384740249860016040516110bf9190612d87565b60405180910390a15b505050505050565b7ffbd454f36a7e1a388bd6fc3ab10d434aa4578f811acbbcf33afb1c697486313c6110fa81611ecc565b6005600680549050141561117a576040518060400160405280600381526020017f31323400000000000000000000000000000000000000000000000000000000008152506040517f08c379a00000000000000000000000000000000000000000000000000000000081526004016111719190612da2565b60405180910390fd5b6000151561118784611ccc565b151514806111c157508273ffffffffffffffffffffffffffffffffffffffff16600073ffffffffffffffffffffffffffffffffffffffff16145b15611238576040518060400160405280600381526020017f31323300000000000000000000000000000000000000000000000000000000008152506040517f08c379a000000000000000000000000000000000000000000000000000000000815260040161122f9190612da2565b60405180910390fd5b6006839080600181540180825580915050600190039060005260206000200160009091909190916101000a81548173ffffffffffffffffffffffffffffffffffffffff021916908373ffffffffffffffffffffffffffffffffffffffff16021790555060078290806001815401808255809150506001900390600052602060002090602091828204019190069091909190916101000a81548160ff021916908360ff16021790555081600560008282829054906101000a900460ff166112fe9190612ffc565b92506101000a81548160ff021916908360ff160217905550505050565b7ffbd454f36a7e1a388bd6fc3ab10d434aa4578f811acbbcf33afb1c697486313c61134581611ecc565b600047905060005b60068054905081101561166e576000600560009054906101000a900460ff1660ff16600783815481106113a9577f4e487b7100000000000000000000000000000000000000000000000000000000600052603260045260246000fd5b90600052602060002090602091828204019190069054906101000a900460ff1660ff16846113d79190613064565b6113e19190613033565b905060006006838154811061141f577f4e487b7100000000000000000000000000000000000000000000000000000000600052603260045260246000fd5b9060005260206000200160009054906101000a900473ffffffffffffffffffffffffffffffffffffffff1673ffffffffffffffffffffffffffffffffffffffff16826040516024016040516020818303038152906040527ffc8e2cd4000000000000000000000000000000000000000000000000000000007bffffffffffffffffffffffffffffffffffffffffffffffffffffffff19166020820180517bffffffffffffffffffffffffffffffffffffffffffffffffffffffff83818316178352505050506040516114f19190612c63565b60006040518083038185875af1925050503d806000811461152e576040519150601f19603f3d011682016040523d82523d6000602084013e611533565b606091505b50509050806040518060400160405280600381526020017f3131320000000000000000000000000000000000000000000000000000000000815250906115af576040517f08c379a00000000000000000000000000000000000000000000000000000000081526004016115a69190612da2565b60405180910390fd5b5081600684815481106115eb577f4e487b7100000000000000000000000000000000000000000000000000000000600052603260045260246000fd5b9060005260206000200160009054906101000a900473ffffffffffffffffffffffffffffffffffffffff1673ffffffffffffffffffffffffffffffffffffffff16427f42affc57c2b30e1ac5957640cfb86fcd839a295d2ec7eed57db385dd03aecd2c60405160405180910390a4505080806116669061321d565b91505061134d565b506116776120ce565b50426008819055505050565b7ffbd454f36a7e1a388bd6fc3ab10d434aa4578f811acbbcf33afb1c697486313c6116ad81611ecc565b81600560016101000a81548173ffffffffffffffffffffffffffffffffffffffff021916908373ffffffffffffffffffffffffffffffffffffffff1602179055505050565b600560019054906101000a900473ffffffffffffffffffffffffffffffffffffffff1681565b60006004600084815260200190815260200160002060000160008373ffffffffffffffffffffffffffffffffffffffff1673ffffffffffffffffffffffffffffffffffffffff16815260200190815260200160002060009054906101000a900460ff16905092915050565b6060600680548060200260200160405190810160405280929190818152602001828054801561180757602002820191906000526020600020905b8160009054906101000a900473ffffffffffffffffffffffffffffffffffffffff1673ffffffffffffffffffffffffffffffffffffffff16815260200190600101908083116117bd575b5050505050905090565b6000801b81565b60085481565b6000426001541015611865576040517f08c379a000000000000000000000000000000000000000000000000000000000815260040161185c90612de4565b60405180910390fd5b600254905090565b60095460085461187d9190612fa6565b4211806118b057506118af7ffbd454f36a7e1a388bd6fc3ab10d434aa4578f811acbbcf33afb1c697486313c33611718565b5b15611c315760006118bf610b44565b905060003273ffffffffffffffffffffffffffffffffffffffff16826040516118e790612c7a565b60006040518083038185875af1925050503d8060008114611924576040519150601f19603f3d011682016040523d82523d6000602084013e611929565b606091505b50509050806040518060400160405280600381526020017f3132320000000000000000000000000000000000000000000000000000000000815250906119a5576040517f08c379a000000000000000000000000000000000000000000000000000000000815260040161199c9190612da2565b60405180910390fd5b50600047905060005b600680549050811015611c18576000600560009054906101000a900460ff1660ff1660078381548110611a0a577f4e487b7100000000000000000000000000000000000000000000000000000000600052603260045260246000fd5b90600052602060002090602091828204019190069054906101000a900460ff1660ff1684611a389190613064565b611a429190613033565b9050600060068381548110611a80577f4e487b7100000000000000000000000000000000000000000000000000000000600052603260045260246000fd5b9060005260206000200160009054906101000a900473ffffffffffffffffffffffffffffffffffffffff1673ffffffffffffffffffffffffffffffffffffffff166108fc839081150290604051600060405180830381858888f193505050509050806040518060400160405280600381526020017f313132000000000000000000000000000000000000000000000000000000000081525090611b59576040517f08c379a0000000000000000000000000000000000000000000000000000000008152600401611b509190612da2565b60405180910390fd5b508160068481548110611b95577f4e487b7100000000000000000000000000000000000000000000000000000000600052603260045260246000fd5b9060005260206000200160009054906101000a900473ffffffffffffffffffffffffffffffffffffffff1673ffffffffffffffffffffffffffffffffffffffff16427f42affc57c2b30e1ac5957640cfb86fcd839a295d2ec7eed57db385dd03aecd2c60405160405180910390a450508080611c109061321d565b9150506119ae565b5042600881905550611c286120ce565b50505050611ca3565b6040518060400160405280600381526020017f31323100000000000000000000000000000000000000000000000000000000008152506040517f08c379a0000000000000000000000000000000000000000000000000000000008152600401611c9a9190612da2565b60405180910390fd5b565b611cae82610b24565b611cb781611ecc565b611cc18383611fc9565b505050565b60025481565b600080600090505b600680549050811015611d96578273ffffffffffffffffffffffffffffffffffffffff1660068281548110611d32577f4e487b7100000000000000000000000000000000000000000000000000000000600052603260045260246000fd5b9060005260206000200160009054906101000a900473ffffffffffffffffffffffffffffffffffffffff1673ffffffffffffffffffffffffffffffffffffffff161415611d83576000915050611d9c565b8080611d8e9061321d565b915050611cd4565b50600190505b919050565b60005481565b7ffbd454f36a7e1a388bd6fc3ab10d434aa4578f811acbbcf33afb1c697486313c81565b60015481565b600560009054906101000a900460ff1681565b60606007805480602002602001604051908101604052809291908181526020018280548015611e5857602002820191906000526020600020906000905b82829054906101000a900460ff1660ff1681526020019060010190602082600001049283019260010382029150808411611e215790505b5050505050905090565b60007f01ffc9a7000000000000000000000000000000000000000000000000000000007bffffffffffffffffffffffffffffffffffffffffffffffffffffffff1916827bffffffffffffffffffffffffffffffffffffffffffffffffffffffff1916149050919050565b611edd81611ed8611fc1565b612177565b50565b611eea8282611718565b611fbd5760016004600084815260200190815260200160002060000160008373ffffffffffffffffffffffffffffffffffffffff1673ffffffffffffffffffffffffffffffffffffffff16815260200190815260200160002060006101000a81548160ff021916908315150217905550611f62611fc1565b73ffffffffffffffffffffffffffffffffffffffff168173ffffffffffffffffffffffffffffffffffffffff16837f2f8788117e7eff1d82e926ec794901d17c78024a50270940304540a733656f0d60405160405180910390a45b5050565b600033905090565b611fd38282611718565b156120a75760006004600084815260200190815260200160002060000160008373ffffffffffffffffffffffffffffffffffffffff1673ffffffffffffffffffffffffffffffffffffffff16815260200190815260200160002060006101000a81548160ff02191690831515021790555061204c611fc1565b73ffffffffffffffffffffffffffffffffffffffff168173ffffffffffffffffffffffffffffffffffffffff16837ff6391f5c32d9c69d2a47ea670b442974b53935d1edc7fd64eb21e047a839171b60405160405180910390a45b5050565b6000808273ffffffffffffffffffffffffffffffffffffffff163b119050919050565b6000600560019054906101000a900473ffffffffffffffffffffffffffffffffffffffff1673ffffffffffffffffffffffffffffffffffffffff1663e58456e96040518163ffffffff1660e01b8152600401602060405180830381600087803b15801561213a57600080fd5b505af115801561214e573d6000803e3d6000fd5b505050506040513d601f19601f8201168201806040525081019061217291906127ee565b905090565b6121818282611718565b6121f85761218e816121fc565b61219c8360001c6020612229565b6040516020016121ad929190612c8f565b6040516020818303038152906040526040517f08c379a00000000000000000000000000000000000000000000000000000000081526004016121ef9190612da2565b60405180910390fd5b5050565b60606122228273ffffffffffffffffffffffffffffffffffffffff16601460ff16612229565b9050919050565b60606000600283600261223c9190613064565b6122469190612fa6565b67ffffffffffffffff811115612285577f4e487b7100000000000000000000000000000000000000000000000000000000600052604160045260246000fd5b6040519080825280601f01601f1916602001820160405280156122b75781602001600182028036833780820191505090505b5090507f300000000000000000000000000000000000000000000000000000000000000081600081518110612315577f4e487b7100000000000000000000000000000000000000000000000000000000600052603260045260246000fd5b60200101907effffffffffffffffffffffffffffffffffffffffffffffffffffffffffffff1916908160001a9053507f78000000000000000000000000000000000000000000000000000000000000008160018151811061239f577f4e487b7100000000000000000000000000000000000000000000000000000000600052603260045260246000fd5b60200101907effffffffffffffffffffffffffffffffffffffffffffffffffffffffffffff1916908160001a905350600060018460026123df9190613064565b6123e99190612fa6565b90505b60018111156124d5577f3031323334353637383961626364656600000000000000000000000000000000600f861660108110612451577f4e487b7100000000000000000000000000000000000000000000000000000000600052603260045260246000fd5b1a60f81b82828151811061248e577f4e487b7100000000000000000000000000000000000000000000000000000000600052603260045260246000fd5b60200101907effffffffffffffffffffffffffffffffffffffffffffffffffffffffffffff1916908160001a905350600485901c9450806124ce906131c2565b90506123ec565b5060008414612519576040517f08c379a000000000000000000000000000000000000000000000000000000000815260040161251090612dc4565b60405180910390fd5b8091505092915050565b600061253661253184612e9f565b612e7a565b9050808382526020820190508285602086028201111561255557600080fd5b60005b85811015612585578161256b88826125fb565b845260208401935060208301925050600181019050612558565b5050509392505050565b60006125a261259d84612ecb565b612e7a565b905080838252602082019050828560208602820111156125c157600080fd5b60005b858110156125f157816125d788826126cd565b8452602084019350602083019250506001810190506125c4565b5050509392505050565b60008135905061260a81613449565b92915050565b600082601f83011261262157600080fd5b8135612631848260208601612523565b91505092915050565b600082601f83011261264b57600080fd5b813561265b84826020860161258f565b91505092915050565b60008151905061267381613460565b92915050565b60008135905061268881613477565b92915050565b60008135905061269d8161348e565b92915050565b6000813590506126b2816134a5565b92915050565b6000815190506126c7816134a5565b92915050565b6000813590506126dc816134bc565b92915050565b6000602082840312156126f457600080fd5b6000612702848285016125fb565b91505092915050565b600080600080600060a0868803121561272357600080fd5b6000612731888289016125fb565b955050602086013567ffffffffffffffff81111561274e57600080fd5b61275a88828901612610565b945050604086013567ffffffffffffffff81111561277757600080fd5b6127838882890161263a565b9350506060612794888289016125fb565b92505060806127a5888289016125fb565b9150509295509295909350565b600080604083850312156127c557600080fd5b60006127d3858286016125fb565b92505060206127e4858286016126cd565b9150509250929050565b60006020828403121561280057600080fd5b600061280e84828501612664565b91505092915050565b60006020828403121561282957600080fd5b600061283784828501612679565b91505092915050565b6000806040838503121561285357600080fd5b600061286185828601612679565b9250506020612872858286016125fb565b9150509250929050565b60006020828403121561288e57600080fd5b600061289c8482850161268e565b91505092915050565b6000602082840312156128b757600080fd5b60006128c5848285016126a3565b91505092915050565b6000602082840312156128e057600080fd5b60006128ee848285016126b8565b91505092915050565b60006020828403121561290957600080fd5b6000612917848285016126cd565b91505092915050565b60008060006060848603121561293557600080fd5b6000612943868287016126cd565b9350506020612954868287016125fb565b9250506040612965868287016126cd565b9150509250925092565b600061297b838361299f565b60208301905092915050565b60006129938383612c45565b60208301905092915050565b6129a8816130f2565b82525050565b6129b7816130f2565b82525050565b60006129c882612f17565b6129d28185612f5d565b93506129dd83612ef7565b8060005b83811015612a0e5781516129f5888261296f565b9750612a0083612f43565b9250506001810190506129e1565b5085935050505092915050565b6000612a2682612f22565b612a308185612f6e565b9350612a3b83612f07565b8060005b83811015612a6c578151612a538882612987565b9750612a5e83612f50565b925050600181019050612a3f565b5085935050505092915050565b612a8281613104565b82525050565b612a9181613110565b82525050565b6000612aa282612f2d565b612aac8185612f7f565b9350612abc81856020860161318f565b80840191505092915050565b612ad18161317d565b82525050565b6000612ae282612f38565b612aec8185612f8a565b9350612afc81856020860161318f565b612b05816132f3565b840191505092915050565b6000612b1b82612f38565b612b258185612f9b565b9350612b3581856020860161318f565b80840191505092915050565b6000612b4e602083612f8a565b9150612b5982613304565b602082019050919050565b6000612b71600b83612f8a565b9150612b7c8261332d565b602082019050919050565b6000612b94602e83612f8a565b9150612b9f82613356565b604082019050919050565b6000612bb7600083612f7f565b9150612bc2826133a5565b600082019050919050565b6000612bda601783612f9b565b9150612be5826133a8565b601782019050919050565b6000612bfd601183612f9b565b9150612c08826133d1565b601182019050919050565b6000612c20602f83612f8a565b9150612c2b826133fa565b604082019050919050565b612c3f81613166565b82525050565b612c4e81613170565b82525050565b612c5d81613170565b82525050565b6000612c6f8284612a97565b915081905092915050565b6000612c8582612baa565b9150819050919050565b6000612c9a82612bcd565b9150612ca68285612b10565b9150612cb182612bf0565b9150612cbd8284612b10565b91508190509392505050565b6000602082019050612cde60008301846129ae565b92915050565b6000604082019050612cf960008301856129ae565b612d066020830184612c36565b9392505050565b60006020820190508181036000830152612d2781846129bd565b905092915050565b60006020820190508181036000830152612d498184612a1b565b905092915050565b6000602082019050612d666000830184612a79565b92915050565b6000602082019050612d816000830184612a88565b92915050565b6000602082019050612d9c6000830184612ac8565b92915050565b60006020820190508181036000830152612dbc8184612ad7565b905092915050565b60006020820190508181036000830152612ddd81612b41565b9050919050565b60006020820190508181036000830152612dfd81612b64565b9050919050565b60006020820190508181036000830152612e1d81612b87565b9050919050565b60006020820190508181036000830152612e3d81612c13565b9050919050565b6000602082019050612e596000830184612c36565b92915050565b6000602082019050612e746000830184612c54565b92915050565b6000612e84612e95565b9050612e9082826131ec565b919050565b6000604051905090565b600067ffffffffffffffff821115612eba57612eb96132c4565b5b602082029050602081019050919050565b600067ffffffffffffffff821115612ee657612ee56132c4565b5b602082029050602081019050919050565b6000819050602082019050919050565b6000819050602082019050919050565b600081519050919050565b600081519050919050565b600081519050919050565b600081519050919050565b6000602082019050919050565b6000602082019050919050565b600082825260208201905092915050565b600082825260208201905092915050565b600081905092915050565b600082825260208201905092915050565b600081905092915050565b6000612fb182613166565b9150612fbc83613166565b9250827fffffffffffffffffffffffffffffffffffffffffffffffffffffffffffffffff03821115612ff157612ff0613266565b5b828201905092915050565b600061300782613170565b915061301283613170565b92508260ff0382111561302857613027613266565b5b828201905092915050565b600061303e82613166565b915061304983613166565b92508261305957613058613295565b5b828204905092915050565b600061306f82613166565b915061307a83613166565b9250817fffffffffffffffffffffffffffffffffffffffffffffffffffffffffffffffff04831182151516156130b3576130b2613266565b5b828202905092915050565b60006130c982613170565b91506130d483613170565b9250828210156130e7576130e6613266565b5b828203905092915050565b60006130fd82613146565b9050919050565b60008115159050919050565b6000819050919050565b60007fffffffff0000000000000000000000000000000000000000000000000000000082169050919050565b600073ffffffffffffffffffffffffffffffffffffffff82169050919050565b6000819050919050565b600060ff82169050919050565b600061318882613170565b9050919050565b60005b838110156131ad578082015181840152602081019050613192565b838111156131bc576000848401525b50505050565b60006131cd82613166565b915060008214156131e1576131e0613266565b5b600182039050919050565b6131f5826132f3565b810181811067ffffffffffffffff82111715613214576132136132c4565b5b80604052505050565b600061322882613166565b91507fffffffffffffffffffffffffffffffffffffffffffffffffffffffffffffffff82141561325b5761325a613266565b5b600182019050919050565b7f4e487b7100000000000000000000000000000000000000000000000000000000600052601160045260246000fd5b7f4e487b7100000000000000000000000000000000000000000000000000000000600052601260045260246000fd5b7f4e487b7100000000000000000000000000000000000000000000000000000000600052604160045260246000fd5b6000601f19601f8301169050919050565b7f537472696e67733a20686578206c656e67746820696e73756666696369656e74600082015250565b7f5f72657365744665652829000000000000000000000000000000000000000000600082015250565b7f496e697469616c697a61626c653a20636f6e747261637420697320616c72656160008201527f647920696e697469616c697a6564000000000000000000000000000000000000602082015250565b50565b7f416363657373436f6e74726f6c3a206163636f756e7420000000000000000000600082015250565b7f206973206d697373696e6720726f6c6520000000000000000000000000000000600082015250565b7f416363657373436f6e74726f6c3a2063616e206f6e6c792072656e6f756e636560008201527f20726f6c657320666f722073656c660000000000000000000000000000000000602082015250565b613452816130f2565b811461345d57600080fd5b50565b61346981613104565b811461347457600080fd5b50565b61348081613110565b811461348b57600080fd5b50565b6134978161311a565b81146134a257600080fd5b50565b6134ae81613166565b81146134b957600080fd5b50565b6134c581613170565b81146134d057600080fd5b5056fea26469706673582212204ee1e57f88c240db2b1146641fcd7dfd4ca09ed487dcada9b544f3091b21a7f564736f6c63430008020033",
  "linkReferences": {},
  "deployedLinkReferences": {}
}