{
  "_format": "hh-sol-artifact-1",
  "contractName": "FeeContract",
  "sourceName": "contracts/FeeContract.sol",
  "abi": [
    {
      "anonymous": false,
      "inputs": [
        {
          "indexed": true,
          "internalType": "uint256",
          "name": "timestamp",
          "type": "uint256"
        },
        {
          "indexed": true,
          "internalType": "address",
          "name": "to",
          "type": "address"
        },
        {
          "indexed": true,
          "internalType": "uint256",
          "name": "amount",
          "type": "uint256"
        }
      ],
      "name": "FeesDistributed",
      "type": "event"
    },
    {
      "anonymous": false,
      "inputs": [
        {
          "indexed": false,
          "internalType": "uint8",
          "name": "version",
          "type": "uint8"
        }
      ],
      "name": "Initialized",
      "type": "event"
    },
    {
      "anonymous": false,
      "inputs": [
        {
          "indexed": true,
          "internalType": "bytes32",
          "name": "role",
          "type": "bytes32"
        },
        {
          "indexed": true,
          "internalType": "bytes32",
          "name": "previousAdminRole",
          "type": "bytes32"
        },
        {
          "indexed": true,
          "internalType": "bytes32",
          "name": "newAdminRole",
          "type": "bytes32"
        }
      ],
      "name": "RoleAdminChanged",
      "type": "event"
    },
    {
      "anonymous": false,
      "inputs": [
        {
          "indexed": true,
          "internalType": "bytes32",
          "name": "role",
          "type": "bytes32"
        },
        {
          "indexed": true,
          "internalType": "address",
          "name": "account",
          "type": "address"
        },
        {
          "indexed": true,
          "internalType": "address",
          "name": "sender",
          "type": "address"
        }
      ],
      "name": "RoleGranted",
      "type": "event"
    },
    {
      "anonymous": false,
      "inputs": [
        {
          "indexed": true,
          "internalType": "bytes32",
          "name": "role",
          "type": "bytes32"
        },
        {
          "indexed": true,
          "internalType": "address",
          "name": "account",
          "type": "address"
        },
        {
          "indexed": true,
          "internalType": "address",
          "name": "sender",
          "type": "address"
        }
      ],
      "name": "RoleRevoked",
      "type": "event"
    },
    {
      "inputs": [],
      "name": "DEFAULT_ADMIN_ROLE",
      "outputs": [
        {
          "internalType": "bytes32",
          "name": "",
          "type": "bytes32"
        }
      ],
      "stateMutability": "view",
      "type": "function"
    },
    {
      "inputs": [],
      "name": "DISTRIBUTOR_ROLE",
      "outputs": [
        {
          "internalType": "bytes32",
          "name": "",
          "type": "bytes32"
        }
      ],
      "stateMutability": "view",
      "type": "function"
    },
    {
      "inputs": [],
      "name": "_resetFee",
      "outputs": [],
      "stateMutability": "nonpayable",
      "type": "function"
    },
    {
      "inputs": [
        {
          "internalType": "address",
          "name": "_newChannelAddress",
          "type": "address"
        },
        {
          "internalType": "uint8",
          "name": "_weight",
          "type": "uint8"
        }
      ],
      "name": "addChannel",
      "outputs": [],
      "stateMutability": "nonpayable",
      "type": "function"
    },
    {
      "inputs": [
        {
          "internalType": "uint8",
          "name": "_index",
          "type": "uint8"
        },
        {
          "internalType": "address",
          "name": "_newChannelAddress",
          "type": "address"
        },
        {
          "internalType": "uint8",
          "name": "_newWeight",
          "type": "uint8"
        }
      ],
      "name": "adjustChannel",
      "outputs": [],
      "stateMutability": "nonpayable",
      "type": "function"
    },
    {
      "inputs": [
        {
          "internalType": "uint8",
          "name": "index",
          "type": "uint8"
        }
      ],
      "name": "amountPaidToUponNextDistribution",
      "outputs": [
        {
          "internalType": "uint256",
          "name": "",
          "type": "uint256"
        }
      ],
      "stateMutability": "view",
      "type": "function"
    },
    {
      "inputs": [],
      "name": "collectFee",
      "outputs": [],
      "stateMutability": "payable",
      "type": "function"
    },
    {
      "inputs": [],
      "name": "dayMark",
      "outputs": [
        {
          "internalType": "uint256",
          "name": "",
          "type": "uint256"
        }
      ],
      "stateMutability": "view",
      "type": "function"
    },
    {
      "inputs": [],
      "name": "fee",
      "outputs": [
        {
          "internalType": "uint256",
          "name": "",
          "type": "uint256"
        }
      ],
      "stateMutability": "view",
      "type": "function"
    },
    {
      "inputs": [],
      "name": "forceFee",
      "outputs": [],
      "stateMutability": "payable",
      "type": "function"
    },
    {
      "inputs": [
        {
          "internalType": "uint8",
          "name": "index",
          "type": "uint8"
        }
      ],
      "name": "getChannelWeightByIndex",
      "outputs": [
        {
          "internalType": "address",
          "name": "",
          "type": "address"
        },
        {
          "internalType": "uint256",
          "name": "",
          "type": "uint256"
        }
      ],
      "stateMutability": "view",
      "type": "function"
    },
    {
      "inputs": [],
      "name": "getChannels",
      "outputs": [
        {
          "internalType": "address[]",
          "name": "",
          "type": "address[]"
        }
      ],
      "stateMutability": "view",
      "type": "function"
    },
    {
      "inputs": [],
      "name": "getFee",
      "outputs": [
        {
          "internalType": "uint256",
          "name": "",
          "type": "uint256"
        }
      ],
      "stateMutability": "view",
      "type": "function"
    },
    {
      "inputs": [],
      "name": "getLastDistributionBlock",
      "outputs": [
        {
          "internalType": "uint256",
          "name": "",
          "type": "uint256"
        }
      ],
      "stateMutability": "view",
      "type": "function"
    },
    {
      "inputs": [
        {
          "internalType": "bytes32",
          "name": "role",
          "type": "bytes32"
        }
      ],
      "name": "getRoleAdmin",
      "outputs": [
        {
          "internalType": "bytes32",
          "name": "",
          "type": "bytes32"
        }
      ],
      "stateMutability": "view",
      "type": "function"
    },
    {
      "inputs": [],
      "name": "getTotalContractShares",
      "outputs": [
        {
          "internalType": "uint8",
          "name": "",
          "type": "uint8"
        }
      ],
      "stateMutability": "view",
      "type": "function"
    },
    {
      "inputs": [],
      "name": "getWieghts",
      "outputs": [
        {
          "internalType": "uint8[]",
          "name": "",
          "type": "uint8[]"
        }
      ],
      "stateMutability": "view",
      "type": "function"
    },
    {
      "inputs": [
        {
          "internalType": "bytes32",
          "name": "role",
          "type": "bytes32"
        },
        {
          "internalType": "address",
          "name": "account",
          "type": "address"
        }
      ],
      "name": "grantRole",
      "outputs": [],
      "stateMutability": "nonpayable",
      "type": "function"
    },
    {
      "inputs": [
        {
          "internalType": "bytes32",
          "name": "role",
          "type": "bytes32"
        },
        {
          "internalType": "address",
          "name": "account",
          "type": "address"
        }
      ],
      "name": "hasRole",
      "outputs": [
        {
          "internalType": "bool",
          "name": "",
          "type": "bool"
        }
      ],
      "stateMutability": "view",
      "type": "function"
    },
    {
      "inputs": [
        {
          "internalType": "address",
          "name": "_oracle",
          "type": "address"
        },
        {
          "internalType": "address[]",
          "name": "_channels",
          "type": "address[]"
        },
        {
          "internalType": "uint8[]",
          "name": "_weights",
          "type": "uint8[]"
        },
        {
          "internalType": "address",
          "name": "admin",
          "type": "address"
        },
        {
          "internalType": "address",
          "name": "distributor",
          "type": "address"
        }
      ],
      "name": "initialize",
      "outputs": [],
      "stateMutability": "nonpayable",
      "type": "function"
    },
    {
      "inputs": [
        {
          "internalType": "address",
          "name": "channel",
          "type": "address"
        }
      ],
      "name": "isOriginalAddress",
      "outputs": [
        {
          "internalType": "bool",
          "name": "",
          "type": "bool"
        }
      ],
      "stateMutability": "view",
      "type": "function"
    },
    {
      "inputs": [],
      "name": "oracle",
      "outputs": [
        {
          "internalType": "address",
          "name": "",
          "type": "address"
        }
      ],
      "stateMutability": "view",
      "type": "function"
    },
    {
      "inputs": [],
      "name": "queryOracle",
      "outputs": [
        {
          "internalType": "uint256",
          "name": "feeAmount",
          "type": "uint256"
        }
      ],
      "stateMutability": "view",
      "type": "function"
    },
    {
      "inputs": [
        {
          "internalType": "bytes32",
          "name": "role",
          "type": "bytes32"
        },
        {
          "internalType": "address",
          "name": "account",
          "type": "address"
        }
      ],
      "name": "renounceRole",
      "outputs": [],
      "stateMutability": "nonpayable",
      "type": "function"
    },
    {
      "inputs": [],
      "name": "requiredReset",
      "outputs": [
        {
          "internalType": "uint256",
          "name": "",
          "type": "uint256"
        }
      ],
      "stateMutability": "view",
      "type": "function"
    },
    {
      "inputs": [
        {
          "internalType": "bytes32",
          "name": "role",
          "type": "bytes32"
        },
        {
          "internalType": "address",
          "name": "account",
          "type": "address"
        }
      ],
      "name": "revokeRole",
      "outputs": [],
      "stateMutability": "nonpayable",
      "type": "function"
    },
    {
      "inputs": [
        {
          "internalType": "uint256",
          "name": "new_epochLength",
          "type": "uint256"
        }
      ],
      "name": "setEpoch",
      "outputs": [],
      "stateMutability": "nonpayable",
      "type": "function"
    },
    {
      "inputs": [
        {
          "internalType": "address",
          "name": "_newOracle",
          "type": "address"
        }
      ],
      "name": "setOracle",
      "outputs": [],
      "stateMutability": "nonpayable",
      "type": "function"
    },
    {
      "inputs": [
        {
          "internalType": "bytes4",
          "name": "interfaceId",
          "type": "bytes4"
        }
      ],
      "name": "supportsInterface",
      "outputs": [
        {
          "internalType": "bool",
          "name": "",
          "type": "bool"
        }
      ],
      "stateMutability": "view",
      "type": "function"
    },
    {
      "stateMutability": "payable",
      "type": "receive"
    }
  ],
  "bytecode": "0x608060405234801561001057600080fd5b50613713806100206000396000f3fe6080604052600436106101c65760003560e01c806391d14854116100f7578063d547741f11610095578063f0bd87cc11610064578063f0bd87cc1461060c578063f5f5d0ba14610637578063f5fa96e514610662578063fd141f5c1461068d576101cd565b8063d547741f14610550578063ddca3f4314610579578063deea2b9b146105a4578063e661213c146105e1576101cd565b8063a4214c18116100d1578063a4214c18146104b3578063c0b87a48146104de578063ced72f871461051b578063d4d5d32a14610546576101cd565b806391d14854146104205780639575f6ac1461045d578063a217fddf14610488576101cd565b806336568abe116101645780635301828f1161013e5780635301828f146103995780635b71d699146103c25780637adbf973146103cc5780637dc0d1d0146103f5576101cd565b806336568abe146103305780633df048ef146103595780634f12e56014610370576101cd565b80632354f69b116101a05780632354f69b14610276578063248a9ca31461029f57806326afe980146102dc5780632f2ff15d14610307576101cd565b806301ffc9a7146101d25780630ceb2cef1461020f5780630e2c931214610238576101cd565b366101cd57005b600080fd5b3480156101de57600080fd5b506101f960048036038101906101f491906129f4565b6106b8565b6040516102069190612eec565b60405180910390f35b34801561021b57600080fd5b5061023660048036038101906102319190612a1d565b610732565b005b34801561024457600080fd5b5061025f600480360381019061025a9190612a6f565b610767565b60405161026d929190612e7f565b60405180910390f35b34801561028257600080fd5b5061029d60048036038101906102989190612a98565b61084a565b005b3480156102ab57600080fd5b506102c660048036038101906102c1919061298f565b610b6c565b6040516102d39190612f07565b60405180910390f35b3480156102e857600080fd5b506102f1610b8c565b6040516102fe9190612fff565b60405180910390f35b34801561031357600080fd5b5061032e600480360381019061032991906129b8565b610c33565b005b34801561033c57600080fd5b50610357600480360381019061035291906129b8565b610c54565b005b34801561036557600080fd5b5061036e610cd7565b005b34801561037c57600080fd5b5061039760048036038101906103929190612883565b610cfb565b005b3480156103a557600080fd5b506103c060048036038101906103bb919061292a565b61112b565b005b6103ca611376565b005b3480156103d857600080fd5b506103f360048036038101906103ee919061285a565b6116de565b005b34801561040157600080fd5b5061040a61174d565b6040516104179190612e64565b60405180910390f35b34801561042c57600080fd5b50610447600480360381019061044291906129b8565b611773565b6040516104549190612eec565b60405180910390f35b34801561046957600080fd5b506104726117de565b60405161047f9190612ea8565b60405180910390f35b34801561049457600080fd5b5061049d61186c565b6040516104aa9190612f07565b60405180910390f35b3480156104bf57600080fd5b506104c8611873565b6040516104d5919061301a565b60405180910390f35b3480156104ea57600080fd5b5061050560048036038101906105009190612a6f565b61188a565b6040516105129190612fff565b60405180910390f35b34801561052757600080fd5b5061053061191b565b60405161053d9190612fff565b60405180910390f35b61054e61196a565b005b34801561055c57600080fd5b50610577600480360381019061057291906129b8565b611dd5565b005b34801561058557600080fd5b5061058e611df6565b60405161059b9190612fff565b60405180910390f35b3480156105b057600080fd5b506105cb60048036038101906105c6919061285a565b611dfc565b6040516105d89190612eec565b60405180910390f35b3480156105ed57600080fd5b506105f6611ed1565b6040516106039190612fff565b60405180910390f35b34801561061857600080fd5b50610621611ed7565b60405161062e9190612f07565b60405180910390f35b34801561064357600080fd5b5061064c611efb565b6040516106599190612fff565b60405180910390f35b34801561066e57600080fd5b50610677611f05565b6040516106849190612fff565b60405180910390f35b34801561069957600080fd5b506106a2611f0b565b6040516106af9190612eca565b60405180910390f35b60007f7965db0b000000000000000000000000000000000000000000000000000000007bffffffffffffffffffffffffffffffffffffffffffffffffffffffff1916827bffffffffffffffffffffffffffffffffffffffffffffffffffffffff1916148061072b575061072a82611f89565b5b9050919050565b7ffbd454f36a7e1a388bd6fc3ab10d434aa4578f811acbbcf33afb1c697486313c61075c81611ff3565b81609e819055505050565b6000806000609b8460ff16815481106107a9577f4e487b7100000000000000000000000000000000000000000000000000000000600052603260045260246000fd5b9060005260206000200160009054906101000a900473ffffffffffffffffffffffffffffffffffffffff1690506000609c8560ff1681548110610815577f4e487b7100000000000000000000000000000000000000000000000000000000600052603260045260246000fd5b90600052602060002090602091828204019190069054906101000a900460ff16905081818060ff169050935093505050915091565b7ffbd454f36a7e1a388bd6fc3ab10d434aa4578f811acbbcf33afb1c697486313c61087481611ff3565b600073ffffffffffffffffffffffffffffffffffffffff168373ffffffffffffffffffffffffffffffffffffffff1614806108bb5750600015156108b784611dfc565b1515145b15610932576040518060400160405280600381526020017f31323300000000000000000000000000000000000000000000000000000000008152506040517f08c379a00000000000000000000000000000000000000000000000000000000081526004016109299190612f3d565b60405180910390fd5b60048460ff1611156109b0576040518060400160405280600381526020017f31313100000000000000000000000000000000000000000000000000000000008152506040517f08c379a00000000000000000000000000000000000000000000000000000000081526004016109a79190612f3d565b60405180910390fd5b82609b8560ff16815481106109ee577f4e487b7100000000000000000000000000000000000000000000000000000000600052603260045260246000fd5b9060005260206000200160006101000a81548173ffffffffffffffffffffffffffffffffffffffff021916908373ffffffffffffffffffffffffffffffffffffffff160217905550609c8460ff1681548110610a73577f4e487b7100000000000000000000000000000000000000000000000000000000600052603260045260246000fd5b90600052602060002090602091828204019190069054906101000a900460ff16609a60008282829054906101000a900460ff16610ab09190613279565b92506101000a81548160ff021916908360ff16021790555081609c8560ff1681548110610b06577f4e487b7100000000000000000000000000000000000000000000000000000000600052603260045260246000fd5b90600052602060002090602091828204019190066101000a81548160ff021916908360ff16021790555081609a60008282829054906101000a900460ff16610b4e91906131b7565b92506101000a81548160ff021916908360ff16021790555050505050565b600060686000838152602001908152602001600020600101549050919050565b6000609a60019054906101000a900473ffffffffffffffffffffffffffffffffffffffff1673ffffffffffffffffffffffffffffffffffffffff16637eeda7036040518163ffffffff1660e01b815260040160206040518083038186803b158015610bf657600080fd5b505afa158015610c0a573d6000803e3d6000fd5b505050506040513d601f19601f82011682018060405250810190610c2e9190612a46565b905090565b610c3c82610b6c565b610c4581611ff3565b610c4f8383612007565b505050565b610c5c6120e8565b73ffffffffffffffffffffffffffffffffffffffff168173ffffffffffffffffffffffffffffffffffffffff1614610cc9576040517f08c379a0000000000000000000000000000000000000000000000000000000008152600401610cc090612fdf565b60405180910390fd5b610cd382826120f0565b5050565b610cdf610b8c565b60028190555060005442610cf39190613161565b600181905550565b6000600360019054906101000a900460ff16159050808015610d2f57506001600360009054906101000a900460ff1660ff16105b80610d5e5750610d3e306121d2565b158015610d5d57506001600360009054906101000a900460ff1660ff16145b5b610d9d576040517f08c379a0000000000000000000000000000000000000000000000000000000008152600401610d9490612f9f565b60405180910390fd5b6001600360006101000a81548160ff021916908360ff1602179055508015610ddb576001600360016101000a81548160ff0219169083151502179055505b610de36121f5565b610df06000801b84612007565b610e1a7ffbd454f36a7e1a388bd6fc3ab10d434aa4578f811acbbcf33afb1c697486313c83612007565b610e276000801b336120f0565b600585511180610e38575060058451115b15610eaf576040518060400160405280600381526020017f31323400000000000000000000000000000000000000000000000000000000008152506040517f08c379a0000000000000000000000000000000000000000000000000000000008152600401610ea69190612f3d565b60405180910390fd5b42609d8190555062015180609e819055506201518060008190555085609a60016101000a81548173ffffffffffffffffffffffffffffffffffffffff021916908373ffffffffffffffffffffffffffffffffffffffff16021790555060005b85518110156110c857848181518110610f50577f4e487b7100000000000000000000000000000000000000000000000000000000600052603260045260246000fd5b6020026020010151609a60008282829054906101000a900460ff16610f7591906131b7565b92506101000a81548160ff021916908360ff160217905550609b868281518110610fc8577f4e487b7100000000000000000000000000000000000000000000000000000000600052603260045260246000fd5b60200260200101519080600181540180825580915050600190039060005260206000200160009091909190916101000a81548173ffffffffffffffffffffffffffffffffffffffff021916908373ffffffffffffffffffffffffffffffffffffffff160217905550609c85828151811061106b577f4e487b7100000000000000000000000000000000000000000000000000000000600052603260045260246000fd5b602002602001015190806001815401808255809150506001900390600052602060002090602091828204019190069091909190916101000a81548160ff021916908360ff16021790555080806110c0906133d8565b915050610f0e565b508015611123576000600360016101000a81548160ff0219169083151502179055507f7f26b83ff96e1f2b6a682f133852f6798a09c465da95921460cefb3847402498600160405161111a9190612f22565b60405180910390a15b505050505050565b7ffbd454f36a7e1a388bd6fc3ab10d434aa4578f811acbbcf33afb1c697486313c61115581611ff3565b6005609b8054905014156111d5576040518060400160405280600381526020017f31323400000000000000000000000000000000000000000000000000000000008152506040517f08c379a00000000000000000000000000000000000000000000000000000000081526004016111cc9190612f3d565b60405180910390fd5b600015156111e284611dfc565b1515148061121c57508273ffffffffffffffffffffffffffffffffffffffff16600073ffffffffffffffffffffffffffffffffffffffff16145b15611293576040518060400160405280600381526020017f31323300000000000000000000000000000000000000000000000000000000008152506040517f08c379a000000000000000000000000000000000000000000000000000000000815260040161128a9190612f3d565b60405180910390fd5b609b839080600181540180825580915050600190039060005260206000200160009091909190916101000a81548173ffffffffffffffffffffffffffffffffffffffff021916908373ffffffffffffffffffffffffffffffffffffffff160217905550609c8290806001815401808255809150506001900390600052602060002090602091828204019190069091909190916101000a81548160ff021916908360ff16021790555081609a60008282829054906101000a900460ff1661135991906131b7565b92506101000a81548160ff021916908360ff160217905550505050565b7ffbd454f36a7e1a388bd6fc3ab10d434aa4578f811acbbcf33afb1c697486313c6113a081611ff3565b600047905060005b609b805490508110156116c9576000609a60009054906101000a900460ff1660ff16609c8381548110611404577f4e487b7100000000000000000000000000000000000000000000000000000000600052603260045260246000fd5b90600052602060002090602091828204019190069054906101000a900460ff1660ff1684611432919061321f565b61143c91906131ee565b90506000609b838154811061147a577f4e487b7100000000000000000000000000000000000000000000000000000000600052603260045260246000fd5b9060005260206000200160009054906101000a900473ffffffffffffffffffffffffffffffffffffffff1673ffffffffffffffffffffffffffffffffffffffff16826040516024016040516020818303038152906040527ffc8e2cd4000000000000000000000000000000000000000000000000000000007bffffffffffffffffffffffffffffffffffffffffffffffffffffffff19166020820180517bffffffffffffffffffffffffffffffffffffffffffffffffffffffff838183161783525050505060405161154c9190612dfe565b60006040518083038185875af1925050503d8060008114611589576040519150601f19603f3d011682016040523d82523d6000602084013e61158e565b606091505b50509050806040518060400160405280600381526020017f31313200000000000000000000000000000000000000000000000000000000008152509061160a576040517f08c379a00000000000000000000000000000000000000000000000000000000081526004016116019190612f3d565b60405180910390fd5b5081609b8481548110611646577f4e487b7100000000000000000000000000000000000000000000000000000000600052603260045260246000fd5b9060005260206000200160009054906101000a900473ffffffffffffffffffffffffffffffffffffffff1673ffffffffffffffffffffffffffffffffffffffff16427f42affc57c2b30e1ac5957640cfb86fcd839a295d2ec7eed57db385dd03aecd2c60405160405180910390a4505080806116c1906133d8565b9150506113a8565b506116d2612246565b5042609d819055505050565b7ffbd454f36a7e1a388bd6fc3ab10d434aa4578f811acbbcf33afb1c697486313c61170881611ff3565b81609a60016101000a81548173ffffffffffffffffffffffffffffffffffffffff021916908373ffffffffffffffffffffffffffffffffffffffff1602179055505050565b609a60019054906101000a900473ffffffffffffffffffffffffffffffffffffffff1681565b60006068600084815260200190815260200160002060000160008373ffffffffffffffffffffffffffffffffffffffff1673ffffffffffffffffffffffffffffffffffffffff16815260200190815260200160002060009054906101000a900460ff16905092915050565b6060609b80548060200260200160405190810160405280929190818152602001828054801561186257602002820191906000526020600020905b8160009054906101000a900473ffffffffffffffffffffffffffffffffffffffff1673ffffffffffffffffffffffffffffffffffffffff1681526020019060010190808311611818575b5050505050905090565b6000801b81565b6000609a60009054906101000a900460ff16905090565b6000609a60009054906101000a900460ff1660ff1647609c8460ff16815481106118dd577f4e487b7100000000000000000000000000000000000000000000000000000000600052603260045260246000fd5b90600052602060002090602091828204019190069054906101000a900460ff1660ff1661190a919061321f565b61191491906131ee565b9050919050565b6000426001541015611962576040517f08c379a000000000000000000000000000000000000000000000000000000000815260040161195990612f7f565b60405180910390fd5b600254905090565b600054609d5461197a9190613161565b4211806119ad57506119ac7ffbd454f36a7e1a388bd6fc3ab10d434aa4578f811acbbcf33afb1c697486313c33611773565b5b15611d615760006119bc610b8c565b905060003273ffffffffffffffffffffffffffffffffffffffff16826040516119e490612e15565b60006040518083038185875af1925050503d8060008114611a21576040519150601f19603f3d011682016040523d82523d6000602084013e611a26565b606091505b50509050806040518060400160405280600381526020017f313232000000000000000000000000000000000000000000000000000000000081525090611aa2576040517f08c379a0000000000000000000000000000000000000000000000000000000008152600401611a999190612f3d565b60405180910390fd5b50600047905060005b609b80549050811015611d48576000609a60009054906101000a900460ff1660ff16609c8381548110611b07577f4e487b7100000000000000000000000000000000000000000000000000000000600052603260045260246000fd5b90600052602060002090602091828204019190069054906101000a900460ff1660ff1684611b35919061321f565b611b3f91906131ee565b90506000609b8381548110611b7d577f4e487b7100000000000000000000000000000000000000000000000000000000600052603260045260246000fd5b9060005260206000200160009054906101000a900473ffffffffffffffffffffffffffffffffffffffff1673ffffffffffffffffffffffffffffffffffffffff1682604051611bcb90612e15565b60006040518083038185875af1925050503d8060008114611c08576040519150601f19603f3d011682016040523d82523d6000602084013e611c0d565b606091505b50509050806040518060400160405280600381526020017f313132000000000000000000000000000000000000000000000000000000000081525090611c89576040517f08c379a0000000000000000000000000000000000000000000000000000000008152600401611c809190612f3d565b60405180910390fd5b5081609b8481548110611cc5577f4e487b7100000000000000000000000000000000000000000000000000000000600052603260045260246000fd5b9060005260206000200160009054906101000a900473ffffffffffffffffffffffffffffffffffffffff1673ffffffffffffffffffffffffffffffffffffffff16427f42affc57c2b30e1ac5957640cfb86fcd839a295d2ec7eed57db385dd03aecd2c60405160405180910390a450508080611d40906133d8565b915050611aab565b5042609d81905550611d58612246565b50505050611dd3565b6040518060400160405280600381526020017f31323100000000000000000000000000000000000000000000000000000000008152506040517f08c379a0000000000000000000000000000000000000000000000000000000008152600401611dca9190612f3d565b60405180910390fd5b565b611dde82610b6c565b611de781611ff3565b611df183836120f0565b505050565b60025481565b600080600090505b609b80549050811015611ec6578273ffffffffffffffffffffffffffffffffffffffff16609b8281548110611e62577f4e487b7100000000000000000000000000000000000000000000000000000000600052603260045260246000fd5b9060005260206000200160009054906101000a900473ffffffffffffffffffffffffffffffffffffffff1673ffffffffffffffffffffffffffffffffffffffff161415611eb3576000915050611ecc565b8080611ebe906133d8565b915050611e04565b50600190505b919050565b60005481565b7ffbd454f36a7e1a388bd6fc3ab10d434aa4578f811acbbcf33afb1c697486313c81565b6000609d54905090565b60015481565b6060609c805480602002602001604051908101604052809291908181526020018280548015611f7f57602002820191906000526020600020906000905b82829054906101000a900460ff1660ff1681526020019060010190602082600001049283019260010382029150808411611f485790505b5050505050905090565b60007f01ffc9a7000000000000000000000000000000000000000000000000000000007bffffffffffffffffffffffffffffffffffffffffffffffffffffffff1916827bffffffffffffffffffffffffffffffffffffffffffffffffffffffff1916149050919050565b61200481611fff6120e8565b6122ef565b50565b6120118282611773565b6120e45760016068600084815260200190815260200160002060000160008373ffffffffffffffffffffffffffffffffffffffff1673ffffffffffffffffffffffffffffffffffffffff16815260200190815260200160002060006101000a81548160ff0219169083151502179055506120896120e8565b73ffffffffffffffffffffffffffffffffffffffff168173ffffffffffffffffffffffffffffffffffffffff16837f2f8788117e7eff1d82e926ec794901d17c78024a50270940304540a733656f0d60405160405180910390a45b5050565b600033905090565b6120fa8282611773565b156121ce5760006068600084815260200190815260200160002060000160008373ffffffffffffffffffffffffffffffffffffffff1673ffffffffffffffffffffffffffffffffffffffff16815260200190815260200160002060006101000a81548160ff0219169083151502179055506121736120e8565b73ffffffffffffffffffffffffffffffffffffffff168173ffffffffffffffffffffffffffffffffffffffff16837ff6391f5c32d9c69d2a47ea670b442974b53935d1edc7fd64eb21e047a839171b60405160405180910390a45b5050565b6000808273ffffffffffffffffffffffffffffffffffffffff163b119050919050565b600360019054906101000a900460ff16612244576040517f08c379a000000000000000000000000000000000000000000000000000000000815260040161223b90612fbf565b60405180910390fd5b565b6000609a60019054906101000a900473ffffffffffffffffffffffffffffffffffffffff1673ffffffffffffffffffffffffffffffffffffffff1663e58456e96040518163ffffffff1660e01b8152600401602060405180830381600087803b1580156122b257600080fd5b505af11580156122c6573d6000803e3d6000fd5b505050506040513d601f19601f820116820180604052508101906122ea9190612966565b905090565b6122f98282611773565b6123705761230681612374565b6123148360001c60206123a1565b604051602001612325929190612e2a565b6040516020818303038152906040526040517f08c379a00000000000000000000000000000000000000000000000000000000081526004016123679190612f3d565b60405180910390fd5b5050565b606061239a8273ffffffffffffffffffffffffffffffffffffffff16601460ff166123a1565b9050919050565b6060600060028360026123b4919061321f565b6123be9190613161565b67ffffffffffffffff8111156123fd577f4e487b7100000000000000000000000000000000000000000000000000000000600052604160045260246000fd5b6040519080825280601f01601f19166020018201604052801561242f5781602001600182028036833780820191505090505b5090507f30000000000000000000000000000000000000000000000000000000000000008160008151811061248d577f4e487b7100000000000000000000000000000000000000000000000000000000600052603260045260246000fd5b60200101907effffffffffffffffffffffffffffffffffffffffffffffffffffffffffffff1916908160001a9053507f780000000000000000000000000000000000000000000000000000000000000081600181518110612517577f4e487b7100000000000000000000000000000000000000000000000000000000600052603260045260246000fd5b60200101907effffffffffffffffffffffffffffffffffffffffffffffffffffffffffffff1916908160001a90535060006001846002612557919061321f565b6125619190613161565b90505b600181111561264d577f3031323334353637383961626364656600000000000000000000000000000000600f8616601081106125c9577f4e487b7100000000000000000000000000000000000000000000000000000000600052603260045260246000fd5b1a60f81b828281518110612606577f4e487b7100000000000000000000000000000000000000000000000000000000600052603260045260246000fd5b60200101907effffffffffffffffffffffffffffffffffffffffffffffffffffffffffffff1916908160001a905350600485901c9450806126469061337d565b9050612564565b5060008414612691576040517f08c379a000000000000000000000000000000000000000000000000000000000815260040161268890612f5f565b60405180910390fd5b8091505092915050565b60006126ae6126a98461305a565b613035565b905080838252602082019050828560208602820111156126cd57600080fd5b60005b858110156126fd57816126e38882612773565b8452602084019350602083019250506001810190506126d0565b5050509392505050565b600061271a61271584613086565b613035565b9050808382526020820190508285602086028201111561273957600080fd5b60005b85811015612769578161274f8882612845565b84526020840193506020830192505060018101905061273c565b5050509392505050565b60008135905061278281613653565b92915050565b600082601f83011261279957600080fd5b81356127a984826020860161269b565b91505092915050565b600082601f8301126127c357600080fd5b81356127d3848260208601612707565b91505092915050565b6000815190506127eb8161366a565b92915050565b60008135905061280081613681565b92915050565b60008135905061281581613698565b92915050565b60008135905061282a816136af565b92915050565b60008151905061283f816136af565b92915050565b600081359050612854816136c6565b92915050565b60006020828403121561286c57600080fd5b600061287a84828501612773565b91505092915050565b600080600080600060a0868803121561289b57600080fd5b60006128a988828901612773565b955050602086013567ffffffffffffffff8111156128c657600080fd5b6128d288828901612788565b945050604086013567ffffffffffffffff8111156128ef57600080fd5b6128fb888289016127b2565b935050606061290c88828901612773565b925050608061291d88828901612773565b9150509295509295909350565b6000806040838503121561293d57600080fd5b600061294b85828601612773565b925050602061295c85828601612845565b9150509250929050565b60006020828403121561297857600080fd5b6000612986848285016127dc565b91505092915050565b6000602082840312156129a157600080fd5b60006129af848285016127f1565b91505092915050565b600080604083850312156129cb57600080fd5b60006129d9858286016127f1565b92505060206129ea85828601612773565b9150509250929050565b600060208284031215612a0657600080fd5b6000612a1484828501612806565b91505092915050565b600060208284031215612a2f57600080fd5b6000612a3d8482850161281b565b91505092915050565b600060208284031215612a5857600080fd5b6000612a6684828501612830565b91505092915050565b600060208284031215612a8157600080fd5b6000612a8f84828501612845565b91505092915050565b600080600060608486031215612aad57600080fd5b6000612abb86828701612845565b9350506020612acc86828701612773565b9250506040612add86828701612845565b9150509250925092565b6000612af38383612b17565b60208301905092915050565b6000612b0b8383612de0565b60208301905092915050565b612b20816132ad565b82525050565b612b2f816132ad565b82525050565b6000612b40826130d2565b612b4a8185613118565b9350612b55836130b2565b8060005b83811015612b86578151612b6d8882612ae7565b9750612b78836130fe565b925050600181019050612b59565b5085935050505092915050565b6000612b9e826130dd565b612ba88185613129565b9350612bb3836130c2565b8060005b83811015612be4578151612bcb8882612aff565b9750612bd68361310b565b925050600181019050612bb7565b5085935050505092915050565b612bfa816132bf565b82525050565b612c09816132cb565b82525050565b6000612c1a826130e8565b612c24818561313a565b9350612c3481856020860161334a565b80840191505092915050565b612c4981613338565b82525050565b6000612c5a826130f3565b612c648185613145565b9350612c7481856020860161334a565b612c7d816134ae565b840191505092915050565b6000612c93826130f3565b612c9d8185613156565b9350612cad81856020860161334a565b80840191505092915050565b6000612cc6602083613145565b9150612cd1826134bf565b602082019050919050565b6000612ce9600b83613145565b9150612cf4826134e8565b602082019050919050565b6000612d0c602e83613145565b9150612d1782613511565b604082019050919050565b6000612d2f60008361313a565b9150612d3a82613560565b600082019050919050565b6000612d52602b83613145565b9150612d5d82613563565b604082019050919050565b6000612d75601783613156565b9150612d80826135b2565b601782019050919050565b6000612d98601183613156565b9150612da3826135db565b601182019050919050565b6000612dbb602f83613145565b9150612dc682613604565b604082019050919050565b612dda81613321565b82525050565b612de98161332b565b82525050565b612df88161332b565b82525050565b6000612e0a8284612c0f565b915081905092915050565b6000612e2082612d22565b9150819050919050565b6000612e3582612d68565b9150612e418285612c88565b9150612e4c82612d8b565b9150612e588284612c88565b91508190509392505050565b6000602082019050612e796000830184612b26565b92915050565b6000604082019050612e946000830185612b26565b612ea16020830184612dd1565b9392505050565b60006020820190508181036000830152612ec28184612b35565b905092915050565b60006020820190508181036000830152612ee48184612b93565b905092915050565b6000602082019050612f016000830184612bf1565b92915050565b6000602082019050612f1c6000830184612c00565b92915050565b6000602082019050612f376000830184612c40565b92915050565b60006020820190508181036000830152612f578184612c4f565b905092915050565b60006020820190508181036000830152612f7881612cb9565b9050919050565b60006020820190508181036000830152612f9881612cdc565b9050919050565b60006020820190508181036000830152612fb881612cff565b9050919050565b60006020820190508181036000830152612fd881612d45565b9050919050565b60006020820190508181036000830152612ff881612dae565b9050919050565b60006020820190506130146000830184612dd1565b92915050565b600060208201905061302f6000830184612def565b92915050565b600061303f613050565b905061304b82826133a7565b919050565b6000604051905090565b600067ffffffffffffffff8211156130755761307461347f565b5b602082029050602081019050919050565b600067ffffffffffffffff8211156130a1576130a061347f565b5b602082029050602081019050919050565b6000819050602082019050919050565b6000819050602082019050919050565b600081519050919050565b600081519050919050565b600081519050919050565b600081519050919050565b6000602082019050919050565b6000602082019050919050565b600082825260208201905092915050565b600082825260208201905092915050565b600081905092915050565b600082825260208201905092915050565b600081905092915050565b600061316c82613321565b915061317783613321565b9250827fffffffffffffffffffffffffffffffffffffffffffffffffffffffffffffffff038211156131ac576131ab613421565b5b828201905092915050565b60006131c28261332b565b91506131cd8361332b565b92508260ff038211156131e3576131e2613421565b5b828201905092915050565b60006131f982613321565b915061320483613321565b92508261321457613213613450565b5b828204905092915050565b600061322a82613321565b915061323583613321565b9250817fffffffffffffffffffffffffffffffffffffffffffffffffffffffffffffffff048311821515161561326e5761326d613421565b5b828202905092915050565b60006132848261332b565b915061328f8361332b565b9250828210156132a2576132a1613421565b5b828203905092915050565b60006132b882613301565b9050919050565b60008115159050919050565b6000819050919050565b60007fffffffff0000000000000000000000000000000000000000000000000000000082169050919050565b600073ffffffffffffffffffffffffffffffffffffffff82169050919050565b6000819050919050565b600060ff82169050919050565b60006133438261332b565b9050919050565b60005b8381101561336857808201518184015260208101905061334d565b83811115613377576000848401525b50505050565b600061338882613321565b9150600082141561339c5761339b613421565b5b600182039050919050565b6133b0826134ae565b810181811067ffffffffffffffff821117156133cf576133ce61347f565b5b80604052505050565b60006133e382613321565b91507fffffffffffffffffffffffffffffffffffffffffffffffffffffffffffffffff82141561341657613415613421565b5b600182019050919050565b7f4e487b7100000000000000000000000000000000000000000000000000000000600052601160045260246000fd5b7f4e487b7100000000000000000000000000000000000000000000000000000000600052601260045260246000fd5b7f4e487b7100000000000000000000000000000000000000000000000000000000600052604160045260246000fd5b6000601f19601f8301169050919050565b7f537472696e67733a20686578206c656e67746820696e73756666696369656e74600082015250565b7f5f72657365744665652829000000000000000000000000000000000000000000600082015250565b7f496e697469616c697a61626c653a20636f6e747261637420697320616c72656160008201527f647920696e697469616c697a6564000000000000000000000000000000000000602082015250565b50565b7f496e697469616c697a61626c653a20636f6e7472616374206973206e6f74206960008201527f6e697469616c697a696e67000000000000000000000000000000000000000000602082015250565b7f416363657373436f6e74726f6c3a206163636f756e7420000000000000000000600082015250565b7f206973206d697373696e6720726f6c6520000000000000000000000000000000600082015250565b7f416363657373436f6e74726f6c3a2063616e206f6e6c792072656e6f756e636560008201527f20726f6c657320666f722073656c660000000000000000000000000000000000602082015250565b61365c816132ad565b811461366757600080fd5b50565b613673816132bf565b811461367e57600080fd5b50565b61368a816132cb565b811461369557600080fd5b50565b6136a1816132d5565b81146136ac57600080fd5b50565b6136b881613321565b81146136c357600080fd5b50565b6136cf8161332b565b81146136da57600080fd5b5056fea26469706673582212201efb70fe84adb55c0725de1055a43808e36489da2d5ffb713994a7b9d6b2106164736f6c63430008020033",
  "linkReferences": {},
  "deployedLinkReferences": {}
}