{
  "_format": "hh-sol-artifact-1",
  "contractName": "FeeOracle",
  "sourceName": "contracts/DUMMYDONOTDEPLOY.sol",
  "abi": [
    {
      "inputs": [],
      "name": "consult",
      "outputs": [
        {
          "internalType": "uint256",
          "name": "amountOut",
          "type": "uint256"
        }
      ],
      "stateMutability": "view",
      "type": "function"
    },
    {
      "inputs": [],
      "name": "refreshOracle",
      "outputs": [
        {
          "internalType": "bool",
          "name": "success",
          "type": "bool"
        }
      ],
      "stateMutability": "nonpayable",
      "type": "function"
    }
  ],
  "bytecode": "0x6080604052600160005534801561001557600080fd5b506101c3806100256000396000f3fe608060405234801561001057600080fd5b50600436106100365760003560e01c80637eeda7031461003b578063e58456e914610059575b600080fd5b610043610077565b60405161005091906100d7565b60405180910390f35b610061610080565b60405161006e91906100bc565b60405180910390f35b60008054905090565b6000600860015461009191906100f2565b6001819055506001905090565b6100a781610148565b82525050565b6100b681610154565b82525050565b60006020820190506100d1600083018461009e565b92915050565b60006020820190506100ec60008301846100ad565b92915050565b60006100fd82610154565b915061010883610154565b9250827fffffffffffffffffffffffffffffffffffffffffffffffffffffffffffffffff0382111561013d5761013c61015e565b5b828201905092915050565b60008115159050919050565b6000819050919050565b7f4e487b7100000000000000000000000000000000000000000000000000000000600052601160045260246000fdfea264697066735822122004a9466618436ec35b2f71fc9dc200031ada4d0fa05625db30d55342d977375164736f6c63430008020033",
  "linkReferences": {},
  "deployedLinkReferences": {}
}