{
  "_format": "hh-sol-artifact-1",
  "contractName": "FeeOracle",
  "sourceName": "contracts/DUMMYDONOTDEPLOY.sol",
  "abi": [
    {
      "inputs": [],
      "name": "consult",
      "outputs": [
        {
          "internalType": "uint256",
          "name": "amountOut",
          "type": "uint256"
        }
      ],
      "stateMutability": "nonpayable",
      "type": "function"
    },
    {
      "inputs": [],
      "name": "refreshOracle",
      "outputs": [
        {
          "internalType": "bool",
          "name": "success",
          "type": "bool"
        }
      ],
      "stateMutability": "nonpayable",
      "type": "function"
    }
  ],
  "bytecode": "0x608060405234801561001057600080fd5b50610115806100206000396000f3fe6080604052348015600f57600080fd5b506004361060325760003560e01c80637eeda703146037578063e58456e9146051575b600080fd5b603d606b565b6040516048919060b0565b60405180910390f35b60576074565b604051606291906097565b60405180910390f35b60006008905090565b60006001905090565b60848160c9565b82525050565b60918160d5565b82525050565b600060208201905060aa6000830184607d565b92915050565b600060208201905060c36000830184608a565b92915050565b60008115159050919050565b600081905091905056fea264697066735822122095ea8e2e1f9b187dc9bdbaf93fdfd786a2422dff8daa760b9db8e9a54e5b9fc964736f6c63430008020033",
  "linkReferences": {},
  "deployedLinkReferences": {}
}