{
  "_format": "hh-sol-artifact-1",
  "contractName": "FeeOracle",
  "sourceName": "contracts/DUMMYDONOTDEPLOY.sol",
  "abi": [
    {
      "inputs": [],
      "name": "consult",
      "outputs": [
        {
          "internalType": "uint256",
          "name": "amountOut",
          "type": "uint256"
        }
      ],
      "stateMutability": "view",
      "type": "function"
    },
    {
      "inputs": [],
      "name": "refreshOracle",
      "outputs": [
        {
          "internalType": "bool",
          "name": "success",
          "type": "bool"
        }
      ],
      "stateMutability": "nonpayable",
      "type": "function"
    },
    {
      "inputs": [
        {
          "internalType": "uint256",
          "name": "newPriceAverage",
          "type": "uint256"
        }
      ],
      "name": "setPriceAverage",
      "outputs": [],
      "stateMutability": "nonpayable",
      "type": "function"
    }
  ],
  "bytecode": "0x6080604052600160005534801561001557600080fd5b50610249806100256000396000f3fe608060405234801561001057600080fd5b50600436106100415760003560e01c806356cb30c4146100465780637eeda70314610062578063e58456e914610080575b600080fd5b610060600480360381019061005b91906100e4565b61009e565b005b61006a6100a8565b6040516100779190610146565b60405180910390f35b6100886100b1565b604051610095919061012b565b60405180910390f35b8060008190555050565b60008054905090565b600060086001546100c29190610161565b6001819055506001905090565b6000813590506100de816101fc565b92915050565b6000602082840312156100f657600080fd5b6000610104848285016100cf565b91505092915050565b610116816101b7565b82525050565b610125816101c3565b82525050565b6000602082019050610140600083018461010d565b92915050565b600060208201905061015b600083018461011c565b92915050565b600061016c826101c3565b9150610177836101c3565b9250827fffffffffffffffffffffffffffffffffffffffffffffffffffffffffffffffff038211156101ac576101ab6101cd565b5b828201905092915050565b60008115159050919050565b6000819050919050565b7f4e487b7100000000000000000000000000000000000000000000000000000000600052601160045260246000fd5b610205816101c3565b811461021057600080fd5b5056fea26469706673582212205accec68314d43fdedcb472d136dae14158a4b5ff0344154606e4aeb3845dc6564736f6c63430008020033",
  "linkReferences": {},
  "deployedLinkReferences": {}
}