{
  "_format": "hh-sol-artifact-1",
  "contractName": "FeeOracle",
  "sourceName": "contracts/DUMMYDONOTDEPLOY.sol",
  "abi": [
    {
      "inputs": [],
      "name": "consult",
      "outputs": [
        {
          "internalType": "uint256",
          "name": "amountOut",
          "type": "uint256"
        }
      ],
      "stateMutability": "view",
      "type": "function"
    },
    {
      "inputs": [],
      "name": "epochLength",
      "outputs": [
        {
          "internalType": "uint256",
          "name": "",
          "type": "uint256"
        }
      ],
      "stateMutability": "view",
      "type": "function"
    },
    {
      "inputs": [],
      "name": "fee",
      "outputs": [
        {
          "internalType": "uint256",
          "name": "",
          "type": "uint256"
        }
      ],
      "stateMutability": "view",
      "type": "function"
    },
    {
      "inputs": [],
      "name": "getFee",
      "outputs": [
        {
          "internalType": "uint256",
          "name": "",
          "type": "uint256"
        }
      ],
      "stateMutability": "view",
      "type": "function"
    },
    {
      "inputs": [],
      "name": "refreshOracle",
      "outputs": [
        {
          "internalType": "bool",
          "name": "success",
          "type": "bool"
        }
      ],
      "stateMutability": "nonpayable",
      "type": "function"
    },
    {
      "inputs": [],
      "name": "requiredReset",
      "outputs": [
        {
          "internalType": "uint256",
          "name": "",
          "type": "uint256"
        }
      ],
      "stateMutability": "view",
      "type": "function"
    },
    {
      "inputs": [
        {
          "internalType": "uint256",
          "name": "newPriceAverage",
          "type": "uint256"
        }
      ],
      "name": "setPriceAverage",
      "outputs": [],
      "stateMutability": "nonpayable",
      "type": "function"
    },
    {
      "inputs": [
        {
          "internalType": "uint256",
          "name": "newReset",
          "type": "uint256"
        }
      ],
      "name": "setRequiredReset",
      "outputs": [],
      "stateMutability": "nonpayable",
      "type": "function"
    },
    {
      "inputs": [],
      "name": "viewJustKeepAdding",
      "outputs": [
        {
          "internalType": "uint256",
          "name": "",
          "type": "uint256"
        }
      ],
      "stateMutability": "view",
      "type": "function"
    }
  ],
  "bytecode": "0x6080604052600160035534801561001557600080fd5b50610440806100256000396000f3fe608060405234801561001057600080fd5b50600436106100935760003560e01c8063aed5f68d11610066578063aed5f68d1461010c578063ced72f871461012a578063ddca3f4314610148578063e58456e914610166578063f5fa96e51461018457610093565b80630f4ad2bf1461009857806356cb30c4146100b457806357d775f8146100d05780637eeda703146100ee575b600080fd5b6100b260048036038101906100ad919061025e565b6101a2565b005b6100ce60048036038101906100c9919061025e565b6101ac565b005b6100d86101b6565b6040516100e59190610303565b60405180910390f35b6100f66101bc565b6040516101039190610303565b60405180910390f35b6101146101c6565b6040516101219190610303565b60405180910390f35b6101326101d0565b60405161013f9190610303565b60405180910390f35b61015061021f565b60405161015d9190610303565b60405180910390f35b61016e610225565b60405161017b91906102c8565b60405180910390f35b61018c610243565b6040516101999190610303565b60405180910390f35b8060018190555050565b8060038190555050565b60005481565b6000600354905090565b6000600454905090565b6000426001541015610217576040517f08c379a000000000000000000000000000000000000000000000000000000000815260040161020e906102e3565b60405180910390fd5b600254905090565b60025481565b60006008600454610236919061032f565b6004819055506001905090565b60015481565b600081359050610258816103f3565b92915050565b60006020828403121561027057600080fd5b600061027e84828501610249565b91505092915050565b61029081610385565b82525050565b60006102a3600a8361031e565b91506102ae826103ca565b602082019050919050565b6102c281610391565b82525050565b60006020820190506102dd6000830184610287565b92915050565b600060208201905081810360008301526102fc81610296565b9050919050565b600060208201905061031860008301846102b9565b92915050565b600082825260208201905092915050565b600061033a82610391565b915061034583610391565b9250827fffffffffffffffffffffffffffffffffffffffffffffffffffffffffffffffff0382111561037a5761037961039b565b5b828201905092915050565b60008115159050919050565b6000819050919050565b7f4e487b7100000000000000000000000000000000000000000000000000000000600052601160045260246000fd5b7f7265736574466565282900000000000000000000000000000000000000000000600082015250565b6103fc81610391565b811461040757600080fd5b5056fea2646970667358221220cd98ace14e862cec95d7a957762b34a9bf5eee3a45d94a63938472a5eb1699fa64736f6c63430008020033",
  "linkReferences": {},
  "deployedLinkReferences": {}
}