{
  "_format": "hh-sol-artifact-1",
  "contractName": "FeeOracle",
  "sourceName": "contracts/DUMMYDONOTDEPLOY.sol",
  "abi": [
    {
      "inputs": [],
      "name": "consult",
      "outputs": [
        {
          "internalType": "uint256",
          "name": "amountOut",
          "type": "uint256"
        }
      ],
      "stateMutability": "view",
      "type": "function"
    },
    {
      "inputs": [],
      "name": "epochLength",
      "outputs": [
        {
          "internalType": "uint256",
          "name": "",
          "type": "uint256"
        }
      ],
      "stateMutability": "view",
      "type": "function"
    },
    {
      "inputs": [],
      "name": "fee",
      "outputs": [
        {
          "internalType": "uint256",
          "name": "",
          "type": "uint256"
        }
      ],
      "stateMutability": "view",
      "type": "function"
    },
    {
      "inputs": [],
      "name": "getFee",
      "outputs": [
        {
          "internalType": "uint256",
          "name": "",
          "type": "uint256"
        }
      ],
      "stateMutability": "view",
      "type": "function"
    },
    {
      "inputs": [],
      "name": "refreshOracle",
      "outputs": [
        {
          "internalType": "bool",
          "name": "success",
          "type": "bool"
        }
      ],
      "stateMutability": "nonpayable",
      "type": "function"
    },
    {
      "inputs": [],
      "name": "requiredReset",
      "outputs": [
        {
          "internalType": "uint256",
          "name": "",
          "type": "uint256"
        }
      ],
      "stateMutability": "view",
      "type": "function"
    },
    {
      "inputs": [
        {
          "internalType": "uint256",
          "name": "newPriceAverage",
          "type": "uint256"
        }
      ],
      "name": "setPriceAverage",
      "outputs": [],
      "stateMutability": "nonpayable",
      "type": "function"
    },
    {
      "inputs": [
        {
          "internalType": "uint256",
          "name": "newReset",
          "type": "uint256"
        }
      ],
      "name": "setRequiredReset",
      "outputs": [],
      "stateMutability": "nonpayable",
      "type": "function"
    },
    {
      "inputs": [],
      "name": "viewJustKeepAdding",
      "outputs": [
        {
          "internalType": "uint256",
          "name": "",
          "type": "uint256"
        }
      ],
      "stateMutability": "view",
      "type": "function"
    }
  ],
  "bytecode": "0x6080604052600160035534801561001557600080fd5b50610612806100256000396000f3fe608060405234801561001057600080fd5b50600436106100935760003560e01c8063aed5f68d11610066578063aed5f68d1461010c578063ced72f871461012a578063ddca3f4314610148578063e58456e914610166578063f5fa96e51461018457610093565b80630f4ad2bf1461009857806356cb30c4146100b457806357d775f8146100d05780637eeda703146100ee575b600080fd5b6100b260048036038101906100ad9190610430565b6101a2565b005b6100ce60048036038101906100c99190610430565b6101d4565b005b6100d8610206565b6040516100e591906104d5565b60405180910390f35b6100f661020c565b60405161010391906104d5565b60405180910390f35b610114610252565b60405161012191906104d5565b60405180910390f35b610132610298565b60405161013f91906104d5565b60405180910390f35b61015061039b565b60405161015d91906104d5565b60405180910390f35b61016e6103a1565b60405161017b919061049a565b60405180910390f35b61018c61040f565b60405161019991906104d5565b60405180910390f35b6101b667bd4f2daa7f39ce6060c01b610415565b6101ca67cd9f6cd69c3ff44b60c01b610415565b8060018190555050565b6101e8679b341850580a3cb860c01b610415565b6101fc67de5a648d4ca89bec60c01b610415565b8060038190555050565b60005481565b6000610222671b4bfbd5e0813bf260c01b610415565b61023667c0e391a82634818160c01b610415565b61024a674847d7f8337fd7df60c01b610415565b600354905090565b6000610268672f2dd4b86dbfc17b60c01b610415565b61027c67aed606def6b16b6f60c01b610415565b61029067891cd70de31acf2860c01b610415565b600454905090565b60006102ae67341a09d70c91193860c01b610418565b6102c267fd13858d30b4e0f360c01b610418565b6102d6679b977cd0c0a3bf3a60c01b610418565b426001541015610357576102f46727e4d34d0d1ff58b60c01b610418565b6103086779a9c7a6ba68d5cb60c01b610418565b61031c67eb1b54e909ec2d3560c01b610418565b6040517f08c379a000000000000000000000000000000000000000000000000000000000815260040161034e906104b5565b60405180910390fd5b61036b67ee820581ba1ab36760c01b610418565b61037f672a1ce9267ec3da9c60c01b610418565b61039367c59878417f2a2a4260c01b610418565b600254905090565b60025481565b60006103b7675b2adec7b1898d5660c01b610415565b6103cb67a4db7c073164fbb960c01b610415565b60086004546103da9190610501565b6004819055506103f46779d8631337a6731360c01b610415565b61040867074db7b0a1b75b2e60c01b610415565b6001905090565b60015481565b50565b50565b60008135905061042a816105c5565b92915050565b60006020828403121561044257600080fd5b60006104508482850161041b565b91505092915050565b61046281610557565b82525050565b6000610475600a836104f0565b91506104808261059c565b602082019050919050565b61049481610563565b82525050565b60006020820190506104af6000830184610459565b92915050565b600060208201905081810360008301526104ce81610468565b9050919050565b60006020820190506104ea600083018461048b565b92915050565b600082825260208201905092915050565b600061050c82610563565b915061051783610563565b9250827fffffffffffffffffffffffffffffffffffffffffffffffffffffffffffffffff0382111561054c5761054b61056d565b5b828201905092915050565b60008115159050919050565b6000819050919050565b7f4e487b7100000000000000000000000000000000000000000000000000000000600052601160045260246000fd5b7f7265736574466565282900000000000000000000000000000000000000000000600082015250565b6105ce81610563565b81146105d957600080fd5b5056fea26469706673582212202c4ed7d64c5719882dbb2c99bb16e05535ca4882d2115cf3a532678e29ac37bb64736f6c63430008020033",
  "linkReferences": {},
  "deployedLinkReferences": {}
}